{
  "_format": "hh-sol-artifact-1",
  "contractName": "StakingPool",
  "sourceName": "contracts/StakingPool.sol",
  "abi": [
    {
      "inputs": [
        {
          "internalType": "address",
          "name": "depositContractAddress_",
          "type": "address"
        },
        {
          "internalType": "address",
          "name": "owner_",
          "type": "address"
        },
        {
          "internalType": "address",
          "name": "factory_",
          "type": "address"
        }
      ],
      "stateMutability": "nonpayable",
      "type": "constructor"
    },
    {
      "anonymous": false,
      "inputs": [
        {
          "indexed": false,
          "internalType": "address",
          "name": "depositContractAddress",
          "type": "address"
        },
        {
          "indexed": false,
          "internalType": "address",
          "name": "caller",
          "type": "address"
        }
      ],
      "name": "Deposit",
      "type": "event"
    },
    {
      "anonymous": false,
      "inputs": [
        {
          "indexed": true,
          "internalType": "address",
          "name": "previousOwner",
          "type": "address"
        },
        {
          "indexed": true,
          "internalType": "address",
          "name": "newOwner",
          "type": "address"
        }
      ],
      "name": "OwnershipTransferred",
      "type": "event"
    },
    {
      "stateMutability": "payable",
      "type": "fallback"
    },
    {
      "inputs": [
        {
          "internalType": "uint256",
          "name": "_id",
          "type": "uint256"
        }
      ],
      "name": "addToDeposit",
      "outputs": [],
      "stateMutability": "payable",
      "type": "function"
    },
    {
      "inputs": [
        {
          "internalType": "address",
          "name": "userAddress",
          "type": "address"
        }
      ],
      "name": "deposit",
      "outputs": [],
      "stateMutability": "payable",
      "type": "function"
    },
    {
      "inputs": [
        {
          "internalType": "uint256",
          "name": "",
          "type": "uint256"
        }
      ],
      "name": "depositAmount",
      "outputs": [
        {
          "internalType": "uint256",
          "name": "",
          "type": "uint256"
        }
      ],
      "stateMutability": "view",
      "type": "function"
    },
    {
      "inputs": [],
      "name": "depositContractAddress",
      "outputs": [
        {
          "internalType": "address",
          "name": "",
          "type": "address"
        }
      ],
      "stateMutability": "view",
      "type": "function"
    },
    {
      "inputs": [],
      "name": "distribute",
      "outputs": [],
      "stateMutability": "nonpayable",
      "type": "function"
    },
    {
      "inputs": [
        {
          "internalType": "uint256",
          "name": "_id",
          "type": "uint256"
        }
      ],
      "name": "getDistributableShare",
      "outputs": [
        {
          "internalType": "uint256",
          "name": "",
          "type": "uint256"
        }
      ],
      "stateMutability": "view",
      "type": "function"
    },
    {
      "inputs": [],
      "name": "getOwner",
      "outputs": [
        {
          "internalType": "address",
          "name": "",
          "type": "address"
        }
      ],
      "stateMutability": "view",
      "type": "function"
    },
    {
      "inputs": [
        {
          "internalType": "uint256",
          "name": "_id",
          "type": "uint256"
        }
      ],
      "name": "getShare",
      "outputs": [
        {
          "internalType": "uint256",
          "name": "",
          "type": "uint256"
        }
      ],
      "stateMutability": "view",
      "type": "function"
    },
    {
      "inputs": [
        {
          "internalType": "uint256",
          "name": "",
          "type": "uint256"
        }
      ],
      "name": "idsInThisPool",
      "outputs": [
        {
          "internalType": "uint256",
          "name": "",
          "type": "uint256"
        }
      ],
      "stateMutability": "view",
      "type": "function"
    },
    {
      "inputs": [],
      "name": "owner",
      "outputs": [
        {
          "internalType": "address",
          "name": "",
          "type": "address"
        }
      ],
      "stateMutability": "view",
      "type": "function"
    },
    {
      "inputs": [],
      "name": "renounceOwnership",
      "outputs": [],
      "stateMutability": "nonpayable",
      "type": "function"
    },
    {
      "inputs": [],
      "name": "rugpull",
      "outputs": [],
      "stateMutability": "nonpayable",
      "type": "function"
    },
    {
      "inputs": [],
      "name": "sendToOwner",
      "outputs": [],
      "stateMutability": "nonpayable",
      "type": "function"
    },
    {
      "inputs": [
        {
          "internalType": "bytes",
          "name": "pubkey",
          "type": "bytes"
        },
        {
          "internalType": "bytes",
          "name": "withdrawal_credentials",
          "type": "bytes"
        },
        {
          "internalType": "bytes",
          "name": "signature",
          "type": "bytes"
        },
        {
          "internalType": "bytes32",
          "name": "deposit_data_root",
          "type": "bytes32"
        }
      ],
      "name": "stake",
      "outputs": [],
      "stateMutability": "nonpayable",
      "type": "function"
    },
    {
      "inputs": [],
      "name": "totalDeposits",
      "outputs": [
        {
          "internalType": "uint256",
          "name": "",
          "type": "uint256"
        }
      ],
      "stateMutability": "view",
      "type": "function"
    },
    {
      "inputs": [
        {
          "internalType": "address",
          "name": "newOwner",
          "type": "address"
        }
      ],
      "name": "transferOwnership",
      "outputs": [],
      "stateMutability": "nonpayable",
      "type": "function"
    },
    {
      "inputs": [],
      "name": "unstake",
      "outputs": [],
      "stateMutability": "nonpayable",
      "type": "function"
    },
    {
      "inputs": [
        {
          "internalType": "uint256",
          "name": "_id",
          "type": "uint256"
        },
        {
          "internalType": "uint256",
          "name": "_amount",
          "type": "uint256"
        }
      ],
      "name": "withdraw",
      "outputs": [],
      "stateMutability": "nonpayable",
      "type": "function"
    },
    {
      "stateMutability": "payable",
      "type": "receive"
    }
  ],
  "bytecode": "0x6080346100fc57601f6111cf38819003918201601f19168301916001600160401b03831184841017610101578084926060946040528339810103126100fc5761004781610117565b90610060604061005960208401610117565b9201610117565b916000549160018060a01b03199233848216176000556040519460018060a01b0380948193823391167f8be0079c531659141344cd1fd0a4f28419497f9722a3daafe3b4186f6b6457e060008ba360045490610100600160a81b039060081b169060018060a81b031916178060045560081c1685600654161760065516836007541617600755169060055416176005556110a3908161012c8239f35b600080fd5b634e487b7160e01b600052604160045260246000fd5b51906001600160a01b03821682036100fc5756fe608060409080825260049182361015610020575b505050361561001e57005b005b600091823560e01c9081632a4dbd2b14610bdc575080632def662014610bb4578063441a3e7014610a0a5780634b2b4e361461074e5780636620a935146106e7578063678e300a146106c7578063715018a6146106665780637d8820971461064857806382a790cf1461060f5780638620891c1461046157806387f8ab2614610439578063893d20e8146104115780638da5cb5b146103ea578063cfb5a5f8146103be578063e2664e491461036e578063e4fc6b6d14610355578063f2fde38b146102ba5763f340fa010361001357602092836003193601126102b6576001600160a01b0393813585811691908290036102175760ff83541660038110156102a35761021757341561026c579081859392876007541684875180978193632798987d60e11b83525af193841561026257869461022e575b5060019084875252348486205561017034600254610d67565b600255600354956801000000000000000087101561021b578361019d886001899a99989901600355610c37565b819291549060031b600019811b9283911b1691191617905560075416803b156102175784928360649288519687958694630d4d151360e01b865285015260248401523060448401525af1801561020a576101f657505051f35b6101ff90610d1b565b6102065751f35b5080fd5b50505051903d90823e3d90fd5b8480fd5b634e487b7160e01b865260418352602486fd5b9080945081813d831161025b575b6102468183610d45565b810103126102575751926001610157565b8580fd5b503d61023c565b85513d88823e3d90fd5b9050606492519162461bcd60e51b8352820152601260248201527136bab9ba103232b837b9b4ba1032ba3432b960711b6044820152fd5b634e487b7160e01b865260218452602486fd5b8280fd5b5082346102b65760203660031901126102b6578035906001600160a01b0380831690818403610257576102f1908654163314610c84565b15610303575061030090610ccf565b51f35b608490602084519162461bcd60e51b8352820152602660248201527f4f776e61626c653a206e6577206f776e657220697320746865207a65726f206160448201526564647265737360d01b6064820152fd5b5034610206578160031936011261020657610300610db6565b503461020657816003193601126102065761039360018060a01b038354163314610c84565b81808080478181156103b5575b3390f1156103ab5751f35b51903d90823e3d90fd5b506108fc6103a0565b5090346103e75760203660031901126103e757506103e0602092479035610f7a565b9051908152f35b80fd5b5034610206578160031936011261020657905490516001600160a01b039091168152602090f35b503461020657816003193601126102065760055490516001600160a01b039091168152602090f35b5082346102b65760203660031901126102b65760209282913581526001845220549051908152f35b50826020806003193601126105215781359160018060a01b03858382600754166024885180948193634f558e7960e01b83528a898401525af190811561059d5787916105d5575b50156105a757808360249260075416875193848092630178b36760e31b825289888301525afa91821561059d57879261056e575b50309116036105385760ff81541690600382101561052557506105215760019184525280822061050d348254610d67565b905561051b34600254610d67565b60025551f35b8380fd5b634e487b7160e01b865260219052602485fd5b60649184519162461bcd60e51b835282015260126024820152711ddc9bdb99c81cdd185ada5b99c81c1bdbdb60721b6044820152fd5b61058f919250843d8611610596575b6105878183610d45565b810190610d8a565b90876104dc565b503d61057d565b86513d89823e3d90fd5b5060649184519162461bcd60e51b835282015260096024820152681b9bdd08195e1a5cdd60ba1b6044820152fd5b90508381813d8311610608575b6105ec8183610d45565b810103126106045751801515810361060457876104a8565b8680fd5b503d6105e2565b5082346102b65760203660031901126102b65735916003548310156103e7575061063a602092610c37565b90549060031b1c9051908152f35b50346102065781600319360112610206576020906002549051908152f35b5034610206578160031936011261020657600060018060a01b0361068e818554163314610c84565b81546001600160a01b031981168355925192167f8be0079c531659141344cd1fd0a4f28419497f9722a3daafe3b4186f6b6457e08284a3f35b5090346103e75760203660031901126103e757506103e06020923561100f565b5082346102b657826003193601126102b65782546005546001600160a01b03908116929116821461071c575061030090610ccf565b606490602084519162461bcd60e51b8352820152600c60248201526b616c726561647920646f6e6560a01b6044820152fd5b5034610206576003196080368201126102b65767ffffffffffffffff938035858111610217576107819036908301610c04565b906024968735818111610a065761079b9036908601610c04565b939091604435818111610951576107b59036908801610c04565b9a9060018060a01b03986107cd8a8d54163314610c84565b6801bc16d674ec800000938447106109d257895460ff19166001178a5530600160f81b81019081106109c0578c519160208301918252602083528d830190838210818311176109ad57818f528b1161099b57610833601f8c01601f191660200182610d45565b8a81526060830190368c8b0111610997578f8c8b843760608d860101525190209151902003610955578b9c8a60069d999a9b9c9d541696873b15610951578d516304512a2360e31b81526080818e01529a8b998a988997929161089a9160848a019161104c565b918588840301908801526108ad9261104c565b918483030160448501526108c09261104c565b606435606483015203925af1801561094757610910575b507f1944debb24a9aafcf2708be964e412cdb73fc36d6ea24577fd8dcc05b93b4a449183915460081c168151908152336020820152a151f35b9183919461093e7f1944debb24a9aafcf2708be964e412cdb73fc36d6ea24577fd8dcc05b93b4a4494610d1b565b949150916108d7565b84513d87823e3d90fd5b8980fd5b8a5162461bcd60e51b81526020818b0152601e818501527f7769746864726177616c2063726564656e7469616c206d69736d6174636800006044820152606490fd5b8f80fd5b634e487b7160e01b8f5260418c52858ffd5b50634e487b7160e01b8f5260418c52858ffd5b634e487b7160e01b8e5260118b52848efd5b508a5162461bcd60e51b81526020818b0152600e818501526d0dcdee840cadcdeeaced040cae8d60931b6044820152606490fd5b8780fd5b5082346102b657816003193601126102b657803560249081359260ff8154166003811015610ba257600114610b605760075485516331a9108f60e11b8152828101849052602094916001600160a01b039190869082908590829086165afa908115610b56578991610b39575b50163303610b075782875260018452848688205410610ace575050848093600182948394845252858220610aab828254610da9565b9055610ab981600254610da9565b6002558181156103b5573390f1156103ab5751f35b855162461bcd60e51b8152918201849052601490820152731b9bdd08195b9bdd59da0819195c1bdcda5d195960621b6044820152606490fd5b855162461bcd60e51b8152918201849052600d908201526c3737ba103a34329037bbb732b960991b6044820152606490fd5b610b509150863d8811610596576105878183610d45565b89610a76565b88513d8b823e3d90fd5b606490601b84602088519362461bcd60e51b85528401528201527f63616e6e6f74207769746864726177206f6e6365207374616b656400000000006044820152fd5b634e487b7160e01b8752602182528387fd5b5082346102b657826003193601126102b657610bce610db6565b805460ff1916600217905551f35b839085346102b657826003193601126102b6575460081c6001600160a01b0316815260209150f35b9181601f84011215610c325782359167ffffffffffffffff8311610c325760208381860195010111610c3257565b600080fd5b600354811015610c6e5760036000527fc2575a0e9e593c00f959f8c92f12db2869c3395a3b0502d05e2516446f71f85b0190600090565b634e487b7160e01b600052603260045260246000fd5b15610c8b57565b606460405162461bcd60e51b815260206004820152602060248201527f4f776e61626c653a2063616c6c6572206973206e6f7420746865206f776e65726044820152fd5b600080546001600160a01b039283166001600160a01b03198216811783556040519093909116917f8be0079c531659141344cd1fd0a4f28419497f9722a3daafe3b4186f6b6457e091a3565b67ffffffffffffffff8111610d2f57604052565b634e487b7160e01b600052604160045260246000fd5b90601f8019910116810190811067ffffffffffffffff821117610d2f57604052565b91908201809211610d7457565b634e487b7160e01b600052601160045260246000fd5b90816020910312610c3257516001600160a01b0381168103610c325790565b91908203918211610d7457565b60049060ff82541660039283821015610f65576001809203610f2157476064811115610edd57600094835b610dee575b505050509050565b8054861015610ed857610e0086610c37565b905490821b1c60018060a01b03806007541691604092835180916331a9108f60e11b8252838983015281602460209485935afa918215610ecd5793600094938594938986959486958693610eaa575b5050610e5b9192610f7a565b9183918315610ea0575b1690f115610e9657506000198614610e81579483019483610de1565b601183634e487b7160e01b6000525260246000fd5b513d6000823e3d90fd5b6108fc9250610e65565b610e5b93509081610ec692903d10610596576105878183610d45565b9138610e4f565b85513d6000823e3d90fd5b610de6565b60405162461bcd60e51b8152602081840181905260248201527f6d696e696d756d206f66203130302077656920746f20646973747269627574656044820152606490fd5b60649060206040519162461bcd60e51b8352820152601c60248201527f757365207769746864726177207768656e206e6f74207374616b6564000000006044820152fd5b602190634e487b7160e01b6000525260246000fd5b6000908152600160205260408120541561100a5760408120546000199290811515828504821116610ff657600254918215610fe2570204916001831115610fdc578201918211610fc8575090565b634e487b7160e01b81526011600452602490fd5b50905090565b634e487b7160e01b84526012600452602484fd5b634e487b7160e01b83526011600452602483fd5b905090565b60ff600454166003811015611036576110285750600090565b611033904790610f7a565b90565b634e487b7160e01b600052602160045260246000fd5b908060209392818452848401376000828201840152601f01601f191601019056fea26469706673582212209bb25dcb3ea59d467b5bb5ecf3d32e515c4477524ac3ae1abcf9cedaafdce4aa64736f6c63430008100033",
  "linkReferences": {},
  "deployedLinkReferences": {}
}