{
  "_format": "hh-sol-artifact-1",
  "contractName": "StakingPool",
  "sourceName": "contracts/StakingPool.sol",
  "abi": [
    {
      "inputs": [
        {
          "internalType": "address",
          "name": "owner_",
          "type": "address"
        },
        {
          "internalType": "contract IFrensStorage",
          "name": "frensStorage_",
          "type": "address"
        }
      ],
      "stateMutability": "nonpayable",
      "type": "constructor"
    },
    {
      "anonymous": false,
      "inputs": [
        {
          "indexed": false,
          "internalType": "uint256",
          "name": "amount",
          "type": "uint256"
        },
        {
          "indexed": false,
          "internalType": "address",
          "name": "depositer",
          "type": "address"
        }
      ],
      "name": "DepositToPool",
      "type": "event"
    },
    {
      "anonymous": false,
      "inputs": [
        {
          "indexed": true,
          "internalType": "address",
          "name": "previousOwner",
          "type": "address"
        },
        {
          "indexed": true,
          "internalType": "address",
          "name": "newOwner",
          "type": "address"
        }
      ],
      "name": "OwnershipTransferred",
      "type": "event"
    },
    {
      "anonymous": false,
      "inputs": [
        {
          "indexed": false,
          "internalType": "address",
          "name": "depositContractAddress",
          "type": "address"
        },
        {
          "indexed": false,
          "internalType": "address",
          "name": "caller",
          "type": "address"
        }
      ],
      "name": "Stake",
      "type": "event"
    },
    {
      "stateMutability": "payable",
      "type": "fallback"
    },
    {
      "inputs": [
        {
          "internalType": "uint256",
          "name": "_id",
          "type": "uint256"
        }
      ],
      "name": "addToDeposit",
      "outputs": [],
      "stateMutability": "payable",
      "type": "function"
    },
    {
      "inputs": [],
      "name": "depositToPool",
      "outputs": [],
      "stateMutability": "payable",
      "type": "function"
    },
    {
      "inputs": [],
      "name": "distribute",
      "outputs": [],
      "stateMutability": "nonpayable",
      "type": "function"
    },
    {
      "inputs": [
        {
          "internalType": "uint256",
          "name": "_id",
          "type": "uint256"
        }
      ],
      "name": "getDepositAmount",
      "outputs": [
        {
          "internalType": "uint256",
          "name": "",
          "type": "uint256"
        }
      ],
      "stateMutability": "view",
      "type": "function"
    },
    {
      "inputs": [
        {
          "internalType": "uint256",
          "name": "_id",
          "type": "uint256"
        }
      ],
      "name": "getDistributableShare",
      "outputs": [
        {
          "internalType": "uint256",
          "name": "",
          "type": "uint256"
        }
      ],
      "stateMutability": "view",
      "type": "function"
    },
    {
      "inputs": [],
      "name": "getIdsInThisPool",
      "outputs": [
        {
          "internalType": "uint256[]",
          "name": "",
          "type": "uint256[]"
        }
      ],
      "stateMutability": "view",
      "type": "function"
    },
    {
      "inputs": [],
      "name": "getPubKey",
      "outputs": [
        {
          "internalType": "bytes",
          "name": "",
          "type": "bytes"
        }
      ],
      "stateMutability": "view",
      "type": "function"
    },
    {
      "inputs": [
        {
          "internalType": "uint256",
          "name": "_id",
          "type": "uint256"
        }
      ],
      "name": "getShare",
      "outputs": [
        {
          "internalType": "uint256",
          "name": "",
          "type": "uint256"
        }
      ],
      "stateMutability": "view",
      "type": "function"
    },
    {
      "inputs": [],
      "name": "getState",
      "outputs": [
        {
          "internalType": "string",
          "name": "",
          "type": "string"
        }
      ],
      "stateMutability": "view",
      "type": "function"
    },
    {
      "inputs": [],
      "name": "owner",
      "outputs": [
        {
          "internalType": "address",
          "name": "",
          "type": "address"
        }
      ],
      "stateMutability": "view",
      "type": "function"
    },
    {
      "inputs": [],
      "name": "renounceOwnership",
      "outputs": [],
      "stateMutability": "nonpayable",
      "type": "function"
    },
    {
      "inputs": [],
      "name": "rugpull",
      "outputs": [],
      "stateMutability": "nonpayable",
      "type": "function"
    },
    {
      "inputs": [
        {
          "internalType": "address",
          "name": "frensPoolShareAddress_",
          "type": "address"
        }
      ],
      "name": "setFrensPoolShare",
      "outputs": [],
      "stateMutability": "nonpayable",
      "type": "function"
    },
    {
      "inputs": [
        {
          "internalType": "bytes",
          "name": "_publicKey",
          "type": "bytes"
        }
      ],
      "name": "setPubKey",
      "outputs": [],
      "stateMutability": "nonpayable",
      "type": "function"
    },
    {
      "inputs": [
        {
          "internalType": "bytes",
          "name": "pubKey",
          "type": "bytes"
        },
        {
          "internalType": "bytes",
          "name": "withdrawal_credentials",
          "type": "bytes"
        },
        {
          "internalType": "bytes",
          "name": "signature",
          "type": "bytes"
        },
        {
          "internalType": "bytes32",
          "name": "deposit_data_root",
          "type": "bytes32"
        }
      ],
      "name": "stake",
      "outputs": [],
      "stateMutability": "nonpayable",
      "type": "function"
    },
    {
      "inputs": [
        {
          "internalType": "address",
          "name": "newOwner",
          "type": "address"
        }
      ],
      "name": "transferOwnership",
      "outputs": [],
      "stateMutability": "nonpayable",
      "type": "function"
    },
    {
      "inputs": [],
      "name": "unstake",
      "outputs": [],
      "stateMutability": "nonpayable",
      "type": "function"
    },
    {
      "inputs": [],
      "name": "version",
      "outputs": [
        {
          "internalType": "uint8",
          "name": "",
          "type": "uint8"
        }
      ],
      "stateMutability": "view",
      "type": "function"
    },
    {
      "inputs": [
        {
          "internalType": "uint256",
          "name": "_id",
          "type": "uint256"
        },
        {
          "internalType": "uint256",
          "name": "_amount",
          "type": "uint256"
        }
      ],
      "name": "withdraw",
      "outputs": [],
      "stateMutability": "nonpayable",
      "type": "function"
    },
    {
      "stateMutability": "payable",
      "type": "receive"
    }
  ],
  "bytecode": "0x60806040818152346200018757808262001d7080380380916200002382856200018c565b83398101031262000187576200003982620001b0565b6020928301516001600160a01b0380821694909185900362000187576200006033620001c5565b600180546001600160a81b0319168617905583516f636f6e74726163742e6164647265737360801b8282019081526d4672656e73506f6f6c536861726560901b6030830152601e825281860196919291906001600160401b03881184891017620001715760248884938193828b52875190206321f8a72160e01b835260448801525afa918215620001665760009262000122575b5050620001149394501660018060a01b03196002541617600255620001c5565b51611b5e9081620002128239f35b813d83116200015e575b6200013881896200018c565b810103126200015b575062000152620001149394620001b0565b849338620000f4565b80fd5b503d6200012c565b85513d6000823e3d90fd5b634e487b7160e01b600052604160045260246000fd5b600080fd5b601f909101601f19168101906001600160401b038211908210176200017157604052565b51906001600160a01b03821682036200018757565b600080546001600160a01b039283166001600160a01b03198216811783556040519093909116917f8be0079c531659141344cd1fd0a4f28419497f9722a3daafe3b4186f6b6457e091a356fe6040608081526004908136101561001d575b5050361561001b57005b005b600091823560e01c80631865c57d146111765780632def6620146111325780632edaf74d146110e8578063378de45b146110a1578063441a3e7014610eb157806345b58fe414610e125780634ad02ef114610dcd5780634b2b4e361461099257806354fd4d501461096f578063678e300a1461094f578063715018a6146108ed5780638620891c146106c85780638da5cb5b146106a0578063cfb5a5f814610674578063e2664e4914610623578063e32d29131461056e578063e4fc6b6d14610551578063f2fde38b146104825763f9faa104146100fb5750610011565b826003193601126103be576001549060ff8260a01c16600381101561046f57610124901561132c565b34156104375782519160209261017c6801bc16d674ec80000061017586840193610170816101523088611371565b0395610166601f199788810185528461126c565b3492519020611420565b61139f565b11156113c2565b8451848101671d1bdad95b8b9a5960c21b918282526008815261019e81611250565b5190206001600160a01b0393841690813b1561043257600091604483928a519485938492632b6cd4f760e21b84528b840152600160248401525af18015610427579161020b9189959493610418575b5087518781019182526008815261020381611250565b519020611420565b908651868101906d19195c1bdcda5d0b985b5bdd5b9d60921b825283602e820152602e815261023981611234565b519020836001541690813b15610414578591604483928b519485938492637152429d60e11b84528c8401523460248401525af190811561040a5785916103f2575b50506102a8875187810161029e826102923084611371565b0385810184528361126c565b3491519020611499565b86516a1a591ccb9a5b8b9c1bdbdb60aa1b8782019081523060601b6bffffffffffffffffffffffff1916600b820152916102ee9082601f85015b0390810183528261126c565b519020826001541691823b156103ee5760448592838a51958694859363785f002b60e11b85528b85015260248401525af19081156103e45783916103d0575b50506002541691823b156103cc57845163ee1fe2ad60e01b815233918101918252306020830152859390918391839182908490829060400103925af180156103c2576103a7575b50507f1ed12c9855bd60407f7650e01c62ee4f0f40744b5b17983eec349a2b4e89981a918151903482523390820152a151f35b6103b291925061120a565b6103be57818338610374565b8280fd5b83513d84823e3d90fd5b5080fd5b6103d99061120a565b6103cc57813861032d565b86513d85823e3d90fd5b8480fd5b6103fb9061120a565b61040657833861027a565b8380fd5b88513d87823e3d90fd5b8580fd5b6104219061120a565b386101ed565b87513d6000823e3d90fd5b600080fd5b606490602084519162461bcd60e51b8352820152601260248201527136bab9ba103232b837b9b4ba1032ba3432b960711b6044820152fd5b634e487b7160e01b855260218252602485fd5b50346103be5760203660031901126103be576001600160a01b03813581811692908390036103ee576104b88286541633146112e1565b82156104ff575060005492826001600160601b0360a01b8516176000555192167f8be0079c531659141344cd1fd0a4f28419497f9722a3daafe3b4186f6b6457e0600084a3f35b608490602085519162461bcd60e51b8352820152602660248201527f4f776e61626c653a206e6577206f776e657220697320746865207a65726f206160448201526564647265737360d01b6064820152fd5b5050346103cc57816003193601126103cc5761056b61154d565b51f35b509190346103cc5760203660031901126103cc57823567ffffffffffffffff81116103be57366023820112156103be576105b190369060248187013591016112aa565b6105c560018060a01b0384541633146112e1565b60ff60015460a01c16600381101561061057906105e561056b92156119b3565b82516020810190610608816105fa30856118c6565b03601f19810183528261126c565b5190206119ed565b634e487b7160e01b845260218552602484fd5b5050346103cc57816003193601126103cc5761064960018060a01b0383541633146112e1565b818080804781811561066b575b3390f1156106615751f35b51903d90823e3d90fd5b506108fc610656565b50913461069d57602036600319011261069d57506106966020924790356117f6565b9051908152f35b80fd5b5050346103cc57816003193601126103cc57905490516001600160a01b039091168152602090f35b5091906020806003193601126103be57833560018060a01b03848382600254166024875180948193634f558e7960e01b8352888d8401525af19081156108765786916108b7575b501561088057808360249260025416865193848092630178b36760e31b8252878c8301525afa918215610876578692610847575b503091160361080f5760ff60015460a01c1660038110156107fc579061076d61056b93921561132c565b6107dc8451916107af6801bc16d674ec8000006101756107a8878701876107943083611371565b0397610203601f19998a810183528261126c565b349061139f565b855190848201906d19195c1bdcda5d0b985b5bdd5b9d60921b8252602e830152602e825261029e82611234565b61029e845192830191836107f03085611371565b0390810184528361126c565b634e487b7160e01b855260218652602485fd5b825162461bcd60e51b815280860183905260126024820152711ddc9bdb99c81cdd185ada5b99c81c1bdbdb60721b6044820152606490fd5b610868919250843d861161086f575b610860818361126c565b8101906114e9565b9038610743565b503d610856565b85513d88823e3d90fd5b835162461bcd60e51b815280870184905260116024820152701a5908191bd95cc81b9bdd08195e1a5cdd607a1b6044820152606490fd5b90508381813d83116108e6575b6108ce818361126c565b8101031261041457518015158103610414573861070f565b503d6108c4565b5050346103cc57816003193601126103cc57600060018060a01b036109168185541633146112e1565b81546001600160a01b031981168355925192167f8be0079c531659141344cd1fd0a4f28419497f9722a3daafe3b4186f6b6457e08284a3f35b50913461069d57602036600319011261069d57506106966020923561189c565b5050346103cc57816003193601126103cc5760ff6020925460a01c169051908152f35b509190346103cc57600319926080368501126103be5767ffffffffffffffff9080358281116103ee576109c890369083016111dc565b6024908135858111610dc9576109e190369086016111dc565b949095604435908111610dc5576109fb90369083016111dc565b919060018060a01b039a610a138c8c541633146112e1565b6801bc16d674ec80000093844710610d925760ff60015460a01c166003811015610d8057610a4190156119b3565b8a51998b60209b610a758d820182610a5930836118c6565b0392610a6d601f199485810183528261126c565b5190206118fa565b908d8251938184019485206060516080201415600014610d4c57505050519020610aa036898c6112aa565b8c815191012003610cfe575b6001805460ff60a01b198116600160a01b179091559d30600160f81b8101908110610cec578d51808e019182528d8152908d610af38e610aeb85611250565b3690876112aa565b80519101209151902003610caa57808e9f9c8e9f9c9d819f808d9151848101907f65787465726e616c2e636f6e74726163742e616464726573730000000000000082526e11195c1bdcda5d10dbdb9d1c9858dd608a1b603982015260288152610b5b81611234565b519020905194859384926321f8a72160e01b84528d840152165afa9d8e15610c9f578c9e610c80575b50508c1697883b15610c7c578d519b8c9a8b998a986304512a2360e31b8a528901608090526084890190610bb792611b07565b91858884030190880152610bca92611b07565b91848303016044850152610bdd92611b07565b606435606483015203925af18015610c6f57610c38575b5081516001600160a01b0390911681523360208201527f72b356fd889b9abd3530accd2c9f4aecbce67d70757181f9f862ac91464ce1929080604081015b0390a151f35b7f72b356fd889b9abd3530accd2c9f4aecbce67d70757181f9f862ac91464ce1929193610c67610c329261120a565b939150610bf4565b50505051903d90823e3d90fd5b8a80fd5b610c97929e50803d1061086f57610860818361126c565b9b3880610b84565b508e513d8d823e3d90fd5b8c5162461bcd60e51b81528087018d9052601e818b01527f7769746864726177616c2063726564656e7469616c206d69736d6174636800006044820152606490fd5b634e487b7160e01b8f5260118752898ffd5b508a5162461bcd60e51b81528085018b90526022818901527f7075626b657920646f6573206e6f74206d617463682073746f7265642076616c604482015261756560f01b6064820152608490fd5b51610d7b9450908101925090610d6790826102e230866118c6565b519020610d75368a8d6112aa565b906119ed565b610aac565b634e487b7160e01b8d5260218552878dfd5b8a5162461bcd60e51b8152602081860152600e818901526d0dcdee840cadcdeeaced040cae8d60931b6044820152606490fd5b8880fd5b8780fd5b5050346103cc57816003193601126103cc5780610dfb610e0e92516020810190610a6d816105fa30856118c6565b90519182916020835260208301906111b7565b0390f35b5050346103cc57816003193601126103cc5780516a1a591ccb9a5b8b9c1bdbdb60aa1b60208083019182523060601b6bffffffffffffffffffffffff1916602b840152929391610e729190610e6a81603f81016105fa565b519020611704565b9083519383808695860192818752855180945286019401925b828110610e9a57505050500390f35b835185528695509381019392810192600101610e8b565b50346103be57816003193601126103be57803590602480359260ff60015460a01c16600381101561108f5760011461104d5760025485516331a9108f60e11b8152808501839052602094916001600160a01b039190869082908790829086165afa908115611043578991611026575b50163303610ff45785519285610f5b8686016d19195c1bdcda5d0b985b5bdd5b9d60921b9687825286602e820152602e815261020381611234565b10610fbb578787818080808b610fa9818d610f95828f8f8c5190858201928352602e820152602e8152610f8d81611234565b519020611508565b885190810190610f8d816105fa3085611371565b81811561066b573390f1156106615751f35b865162461bcd60e51b8152918201859052601490820152731b9bdd08195b9bdd59da0819195c1bdcda5d195960621b6044820152606490fd5b855162461bcd60e51b8152908101849052600d818401526c3737ba103a34329037bbb732b960991b6044820152606490fd5b61103d9150863d881161086f57610860818361126c565b38610f20565b88513d8b823e3d90fd5b845162461bcd60e51b8152602081850152601b818401527f63616e6e6f74207769746864726177206f6e6365207374616b656400000000006044820152606490fd5b634e487b7160e01b8752602184528287fd5b50913461069d57602036600319011261069d57506106966020928251848101916d19195c1bdcda5d0b985b5bdd5b9d60921b835235602e820152602e815261020381611234565b50346103be5760203660031901126103be57356001600160a01b03818116918290036104065761111c9084541633146112e1565b6001600160601b0360a01b600254161760025551f35b5050346103cc57816003193601126103cc5761115860018060a01b0383541633146112e1565b61116061154d565b6001805460ff60a01b1916600160a11b17905551f35b5050346103cc57816003193601126103cc57610e0e90610dfb611a43565b60005b8381106111a75750506000910152565b8181015183820152602001611197565b906020916111d081518092818552858086019101611194565b601f01601f1916010190565b9181601f840112156104325782359167ffffffffffffffff8311610432576020838186019501011161043257565b67ffffffffffffffff811161121e57604052565b634e487b7160e01b600052604160045260246000fd5b6060810190811067ffffffffffffffff82111761121e57604052565b6040810190811067ffffffffffffffff82111761121e57604052565b90601f8019910116810190811067ffffffffffffffff82111761121e57604052565b67ffffffffffffffff811161121e57601f01601f191660200190565b9291926112b68261128e565b916112c4604051938461126c565b829481845281830111610432578281602093846000960137010152565b156112e857565b606460405162461bcd60e51b815260206004820152602060248201527f4f776e61626c653a2063616c6c6572206973206e6f7420746865206f776e65726044820152fd5b1561133357565b60405162461bcd60e51b81526020600482015260166024820152756e6f7420616363657074696e67206465706f7369747360501b6044820152606490fd5b6022916d746f74616c2e6465706f7369747360901b82526001600160601b03199060601b16600e8201520190565b919082018092116113ac57565b634e487b7160e01b600052601160045260246000fd5b156113c957565b60405162461bcd60e51b815260206004820152602960248201527f746f74616c206465706f737469732063616e6e6f74206265206d6f72652074686044820152680c2dc406664408ae8d60bb1b6064820152608490fd5b60015460405163bd02d0f560e01b81526004810192909252602090829060249082906001600160a01b03165afa90811561148d5760009161145f575090565b906020823d8211611485575b816114786020938361126c565b8101031261069d57505190565b3d915061146b565b6040513d6000823e3d90fd5b6001546001600160a01b031691823b15610432576044600092836040519586948593632b6cd4f760e21b8552600485015260248401525af1801561148d576114de5750565b6114e79061120a565b565b9081602091031261043257516001600160a01b03811681036104325790565b6001546001600160a01b031691823b1561043257604460009283604051958694859363ebb9d8c960e01b8552600485015260248401525af1801561148d576114de5750565b60019060ff825460a01c1660038110156116ee5782036116a9574791604080519361158660209586810190610e6a816105fa3085611371565b946064821115611667578394956000945b6115a4575b505050505050565b805185101561166257600585901b810182015160025485516331a9108f60e11b8152600481018390526001600160a01b03929185908290602490829087165afa90811561042757600093849384938985948592611641575b5061160791926117f6565b9183918315611637575b1690f11561162c5760001985146113ac578580950194611597565b83513d6000823e3d90fd5b6108fc9250611611565b611607925061165c908b3d8d1161086f57610860818361126c565b916115fc565b61159c565b60649083519062461bcd60e51b825280600483015260248201527f6d696e696d756d206f66203130302077656920746f20646973747269627574656044820152fd5b60405162461bcd60e51b815260206004820152601c60248201527f757365207769746864726177207768656e206e6f74207374616b6564000000006044820152606490fd5b634e487b7160e01b600052602160045260246000fd5b6001546040516378267eb560e11b81526004810192909252600091908290829060249082906001600160a01b03165afa9182156117ea57809261174657505090565b9091503d8082843e611758818461126c565b8201602091828483031261069d57835167ffffffffffffffff948582116103be570182601f820112156103cc5780519485116117d6578460051b91604051956117a38685018861126c565b8652848087019383010193841161069d57508301905b8282106117c7575050505090565b815181529083019083016117b9565b634e487b7160e01b82526041600452602482fd5b604051903d90823e3d90fd5b6118289060405160208101916d19195c1bdcda5d0b985b5bdd5b9d60921b8352602e820152602e815261020381611234565b6118416040516020810190610203816105fa3085611371565b90801561189457600019928015158185048311166113ac57821561187e5702049060018211156118775781019081116113ac5790565b5050600090565b634e487b7160e01b600052601260045260246000fd5b505050600090565b60ff60015460a01c1660038110156116ee576118b85750600090565b6118c39047906117f6565b90565b6028917376616c696461746f722e7075626c69632e6b657960601b82526001600160601b03199060601b1660148201520190565b600154604051630180634360e71b81526004810192909252600091908290829060249082906001600160a01b03165afa9182156117ea57809261193c57505090565b9091503d8082843e61194e818461126c565b8201916020818403126103cc5780519067ffffffffffffffff82116103be570182601f820112156103cc578051916119858361128e565b93611993604051958661126c565b8385526020848401011161069d5750906118c39160208085019101611194565b156119ba57565b60405162461bcd60e51b815260206004820152600b60248201526a77726f6e6720737461746560a81b6044820152606490fd5b6001546001600160a01b031691823b1561043257611a329260009283604051809681958294630b8a342160e21b845260048401526040602484015260448301906111b7565b03925af1801561148d576114de5750565b60ff60015460a01c1660038110156116ee5760018114611ae4578015611ab557600214611a9357604051611a7681611250565b600d81526c7374617465206661696c75726560981b602082015290565b604051611a9f81611250565b6006815265195e1a5d195960d21b602082015290565b50604051611ac281611250565b6012815271616363657074696e67206465706f7369747360701b602082015290565b50604051611af181611250565b60068152651cdd185ad95960d21b602082015290565b908060209392818452848401376000828201840152601f01601f191601019056fea2646970667358221220545a4115d3e142be713867d3cb980f2f6349b4ef0808485bfe61d6d1a44c79c264736f6c63430008100033",
  "linkReferences": {},
  "deployedLinkReferences": {}
}