{
  "_format": "hh-sol-artifact-1",
  "contractName": "StakingPool",
  "sourceName": "contracts/StakingPool.sol",
  "abi": [
    {
      "inputs": [
        {
          "internalType": "address",
          "name": "owner_",
          "type": "address"
        },
        {
          "internalType": "contract IFrensStorage",
          "name": "frensStorage_",
          "type": "address"
        }
      ],
      "stateMutability": "nonpayable",
      "type": "constructor"
    },
    {
      "anonymous": false,
      "inputs": [
        {
          "indexed": false,
          "internalType": "uint256",
          "name": "amount",
          "type": "uint256"
        },
        {
          "indexed": false,
          "internalType": "address",
          "name": "depositer",
          "type": "address"
        }
      ],
      "name": "DepositToPool",
      "type": "event"
    },
    {
      "anonymous": false,
      "inputs": [
        {
          "indexed": false,
          "internalType": "address",
          "name": "sender",
          "type": "address"
        },
        {
          "indexed": false,
          "internalType": "address",
          "name": "to",
          "type": "address"
        },
        {
          "indexed": false,
          "internalType": "uint256",
          "name": "value",
          "type": "uint256"
        },
        {
          "indexed": false,
          "internalType": "bytes",
          "name": "data",
          "type": "bytes"
        },
        {
          "indexed": false,
          "internalType": "bytes",
          "name": "result",
          "type": "bytes"
        }
      ],
      "name": "ExecuteTransaction",
      "type": "event"
    },
    {
      "anonymous": false,
      "inputs": [
        {
          "indexed": true,
          "internalType": "address",
          "name": "previousOwner",
          "type": "address"
        },
        {
          "indexed": true,
          "internalType": "address",
          "name": "newOwner",
          "type": "address"
        }
      ],
      "name": "OwnershipTransferred",
      "type": "event"
    },
    {
      "anonymous": false,
      "inputs": [
        {
          "indexed": false,
          "internalType": "address",
          "name": "depositContractAddress",
          "type": "address"
        },
        {
          "indexed": false,
          "internalType": "address",
          "name": "caller",
          "type": "address"
        }
      ],
      "name": "Stake",
      "type": "event"
    },
    {
      "stateMutability": "payable",
      "type": "fallback"
    },
    {
      "inputs": [
        {
          "internalType": "uint256",
          "name": "_id",
          "type": "uint256"
        }
      ],
      "name": "addToDeposit",
      "outputs": [],
      "stateMutability": "payable",
      "type": "function"
    },
    {
      "inputs": [
        {
          "internalType": "address payable",
          "name": "to",
          "type": "address"
        },
        {
          "internalType": "uint256",
          "name": "value",
          "type": "uint256"
        },
        {
          "internalType": "bytes",
          "name": "data",
          "type": "bytes"
        }
      ],
      "name": "arbitraryContractCall",
      "outputs": [
        {
          "internalType": "bytes",
          "name": "",
          "type": "bytes"
        }
      ],
      "stateMutability": "nonpayable",
      "type": "function"
    },
    {
      "inputs": [
        {
          "internalType": "address",
          "name": "claimant",
          "type": "address"
        }
      ],
      "name": "claim",
      "outputs": [],
      "stateMutability": "nonpayable",
      "type": "function"
    },
    {
      "inputs": [],
      "name": "claim",
      "outputs": [],
      "stateMutability": "nonpayable",
      "type": "function"
    },
    {
      "inputs": [],
      "name": "depositToPool",
      "outputs": [],
      "stateMutability": "payable",
      "type": "function"
    },
    {
      "inputs": [],
      "name": "distribute",
      "outputs": [],
      "stateMutability": "nonpayable",
      "type": "function"
    },
    {
      "inputs": [],
      "name": "distributeAndClaim",
      "outputs": [],
      "stateMutability": "nonpayable",
      "type": "function"
    },
    {
      "inputs": [],
      "name": "distributeAndClaimAll",
      "outputs": [],
      "stateMutability": "nonpayable",
      "type": "function"
    },
    {
      "inputs": [],
      "name": "exitPool",
      "outputs": [],
      "stateMutability": "nonpayable",
      "type": "function"
    },
    {
      "inputs": [
        {
          "internalType": "uint256",
          "name": "_id",
          "type": "uint256"
        }
      ],
      "name": "getDepositAmount",
      "outputs": [
        {
          "internalType": "uint256",
          "name": "",
          "type": "uint256"
        }
      ],
      "stateMutability": "view",
      "type": "function"
    },
    {
      "inputs": [
        {
          "internalType": "uint256",
          "name": "_id",
          "type": "uint256"
        }
      ],
      "name": "getDistributableShare",
      "outputs": [
        {
          "internalType": "uint256",
          "name": "",
          "type": "uint256"
        }
      ],
      "stateMutability": "view",
      "type": "function"
    },
    {
      "inputs": [],
      "name": "getIdsInThisPool",
      "outputs": [
        {
          "internalType": "uint256[]",
          "name": "",
          "type": "uint256[]"
        }
      ],
      "stateMutability": "view",
      "type": "function"
    },
    {
      "inputs": [],
      "name": "getPubKey",
      "outputs": [
        {
          "internalType": "bytes",
          "name": "",
          "type": "bytes"
        }
      ],
      "stateMutability": "view",
      "type": "function"
    },
    {
      "inputs": [
        {
          "internalType": "uint256",
          "name": "_id",
          "type": "uint256"
        }
      ],
      "name": "getShare",
      "outputs": [
        {
          "internalType": "uint256",
          "name": "",
          "type": "uint256"
        }
      ],
      "stateMutability": "view",
      "type": "function"
    },
    {
      "inputs": [],
      "name": "getState",
      "outputs": [
        {
          "internalType": "string",
          "name": "",
          "type": "string"
        }
      ],
      "stateMutability": "view",
      "type": "function"
    },
    {
      "inputs": [],
      "name": "getTotalDeposits",
      "outputs": [
        {
          "internalType": "uint256",
          "name": "",
          "type": "uint256"
        }
      ],
      "stateMutability": "view",
      "type": "function"
    },
    {
      "inputs": [],
      "name": "owner",
      "outputs": [
        {
          "internalType": "address",
          "name": "",
          "type": "address"
        }
      ],
      "stateMutability": "view",
      "type": "function"
    },
    {
      "inputs": [],
      "name": "renounceOwnership",
      "outputs": [],
      "stateMutability": "nonpayable",
      "type": "function"
    },
    {
      "inputs": [],
      "name": "rugpull",
      "outputs": [],
      "stateMutability": "nonpayable",
      "type": "function"
    },
    {
      "inputs": [
        {
          "internalType": "address",
          "name": "newArtContract",
          "type": "address"
        }
      ],
      "name": "setArt",
      "outputs": [],
      "stateMutability": "nonpayable",
      "type": "function"
    },
    {
      "inputs": [
        {
          "internalType": "bytes",
          "name": "pubKey",
          "type": "bytes"
        },
        {
          "internalType": "bytes",
          "name": "withdrawal_credentials",
          "type": "bytes"
        },
        {
          "internalType": "bytes",
          "name": "signature",
          "type": "bytes"
        },
        {
          "internalType": "bytes32",
          "name": "deposit_data_root",
          "type": "bytes32"
        }
      ],
      "name": "setPubKey",
      "outputs": [],
      "stateMutability": "nonpayable",
      "type": "function"
    },
    {
      "inputs": [],
      "name": "stake",
      "outputs": [],
      "stateMutability": "nonpayable",
      "type": "function"
    },
    {
      "inputs": [
        {
          "internalType": "bytes",
          "name": "pubKey",
          "type": "bytes"
        },
        {
          "internalType": "bytes",
          "name": "withdrawal_credentials",
          "type": "bytes"
        },
        {
          "internalType": "bytes",
          "name": "signature",
          "type": "bytes"
        },
        {
          "internalType": "bytes32",
          "name": "deposit_data_root",
          "type": "bytes32"
        }
      ],
      "name": "stake",
      "outputs": [],
      "stateMutability": "nonpayable",
      "type": "function"
    },
    {
      "inputs": [
        {
          "internalType": "address",
          "name": "newOwner",
          "type": "address"
        }
      ],
      "name": "transferOwnership",
      "outputs": [],
      "stateMutability": "nonpayable",
      "type": "function"
    },
    {
      "inputs": [],
      "name": "version",
      "outputs": [
        {
          "internalType": "uint8",
          "name": "",
          "type": "uint8"
        }
      ],
      "stateMutability": "view",
      "type": "function"
    },
    {
      "inputs": [
        {
          "internalType": "uint256",
          "name": "_id",
          "type": "uint256"
        },
        {
          "internalType": "uint256",
          "name": "_amount",
          "type": "uint256"
        }
      ],
      "name": "withdraw",
      "outputs": [],
      "stateMutability": "nonpayable",
      "type": "function"
    },
    {
      "stateMutability": "payable",
      "type": "receive"
    }
  ],
  "bytecode": "0x6080604081815234620001965780826200292180380380916200002382856200019b565b83398101031262000196576200003982620001bf565b6020928301516001600160a01b03808216949185900362000196576200005f33620001d4565b600180546001600160a01b0319908116871790915584516f636f6e74726163742e6164647265737360801b8185019081526d4672656e73506f6f6c536861726560901b6030830152601e82528187019792949192906001600160401b038911848a1017620001805760248984938193828c52875190206321f8a72160e01b835260448801525afa918215620001755760009262000131575b50506200011094955016906002541617600255620001d4565b6000805460ff60a01b1916600160a01b179055516127009081620002218239f35b813d83116200016d575b62000147818a6200019b565b810103126200016a575062000161620001109495620001bf565b859438620000f7565b80fd5b503d6200013b565b86513d6000823e3d90fd5b634e487b7160e01b600052604160045260246000fd5b600080fd5b601f909101601f19168101906001600160401b038211908210176200018057604052565b51906001600160a01b03821682036200019657565b600080546001600160a01b039283166001600160a01b03198216811783556040519093909116917f8be0079c531659141344cd1fd0a4f28419497f9722a3daafe3b4186f6b6457e091a356fe6080604081815260048036101561001e575b505050361561001c57005b005b600092833560e01c908163168a4822146111ae575080631865c57d146111905780631e83409a1461116457806329917954146110e9578063378de45b146110a25780633a4b66f114611088578063441a3e7014610ea657806345b58fe414610e4c5780634ad02ef114610de95780634b2b4e3614610cf75780634e71d92d14610cdc57806354fd4d5014610cb957806355ec447f14610bed578063678e300a14610bcd578063715018a614610b6d5780638620891c1461099e5780638da5cb5b14610976578063923331d41461078a5780639278e71414610767578063cfb5a5f81461073b578063e2664e49146106ea578063e4fc6b6d146106d0578063e6b1a3ae146105b7578063e920eec014610595578063f2fde38b146104cc5763f9faa10403610011578260031936011261042d5761017161015b6123f0565b61016b6101666113a9565b6123f8565b146113d6565b3415610495578151906020916101c96801bc16d674ec8000006101c2858401936101bd8161019f308861141b565b03956101b3601f199788810185528461136b565b34925190206114ca565b611449565b111561146c565b83519085848301671d1bdad95b8b9a5960c21b93848252600881526101ed81611333565b5190206001546001600160a01b039491908516803b1561049157604484928a519586938492632b6cd4f760e21b84528b840152600160248401525af19182156104785761025792610482575b5086518681019182526008815261024f81611333565b5190206114ca565b90868651868101906d19195c1bdcda5d0b985b5bdd5b9d60921b825284602e820152602e81526102868161134f565b5190208460015416803b1561042d57604483928a519485938492637152429d60e11b84528b8401523460248401525af1801561047857610461575b50908692916102f287518781016102e8826102dc308461141b565b0385810184528361136b565b3491519020611597565b86516a1a591ccb9a5b8b9c1bdbdb60aa1b8782019081523060601b6001600160601b031916600b820152916103339082601f85015b0390810183528261136b565b519020826001541690813b1561045d578491604483928a51948593849263785f002b60e11b84528b8401528760248401525af190811561045357849161043f575b50506103ae90865190868201906a1c1bdbdb0b999bdc8b9a5960aa1b8252602b830152602b82526103a48261134f565b3091519020611543565b60025416803b1561043b5781809160248795865194859384926335313c2160e11b845233908401525af1801561043157610416575b50507f1ed12c9855bd60407f7650e01c62ee4f0f40744b5b17983eec349a2b4e89981a918151903482523390820152a151f35b610421919250611309565b61042d578183386103e3565b8280fd5b83513d84823e3d90fd5b5080fd5b61044890611309565b61042d578238610374565b87513d86823e3d90fd5b8480fd5b61046f909791939297611309565b959091386102c1565b87513d8a823e3d90fd5b61048b90611309565b38610239565b8380fd5b6020606492519162461bcd60e51b8352820152601260248201527136bab9ba103232b837b9b4ba1032ba3432b960711b6044820152fd5b50903461042d57602036600319011261042d5781356001600160a01b03818116929183900361045d578454908116936105063386146112be565b831561054357506001600160a01b0319168217845551917f8be0079c531659141344cd1fd0a4f28419497f9722a3daafe3b4186f6b6457e08484a3f35b608490602084519162461bcd60e51b8352820152602660248201527f4f776e61626c653a206e6577206f776e657220697320746865207a65726f206160448201526564647265737360d01b6064820152fd5b50503461043b576105b46105a836611254565b95949094939193611c16565b51f35b503461042d57602036600319011261042d578035906001600160a01b038481841680850361043b576105ef60249383541633146112be565b855163516b636d60e11b815260018582015292839182905afa9081156106c65785916106a4575b50511561066a57506105b490825160208101907f706f6f6c2e73706563696669632e6172742e616464726573730000000000000082523060601b6039820152602d81526106628161134f565b519020611543565b606490602084519162461bcd60e51b835282015260146024820152731a5b9d985b1a5908185c9d0818dbdb9d1c9858dd60621b6044820152fd5b6106c091503d8087833e6106b8818361136b565b810190612693565b38610616565b84513d87823e3d90fd5b50503461043b578160031936011261043b576105b4612063565b50503461043b578160031936011261043b5761071060018060a01b0383541633146112be565b8180808047818115610732575b3390f1156107285751f35b51903d90823e3d90fd5b506108fc61071d565b509134610764576020366003190112610764575061075d60209247903561234a565b9051908152f35b80fd5b50503461043b578160031936011261043b57610781612063565b6105b4336122bc565b50903461042d57606036600319011261042d576001600160a01b03928235919084831690818403610764576024359560443567ffffffffffffffff811161042d57906107dd6107ea939236908901611221565b93909183541633146112be565b610835855196602097888101916f185b1b1bddd9590b98dbdb9d1c9858dd60821b83526001600160601b03199060601b1660308201526024815261082d8161134f565b5190206117c9565b1561093c5781808651858482378086810183815203908b885af1963d15610934573d976108618961138d565b9861086e88519a8b61136b565b89523d84898b013e5b156109045750926108ee60c0848a947fc35e8bcd41711872ec0857c0203db3ea1f3a421cb5000bb65c5a70b89055c6829689986109009a519788973389528d8901528a88015260a060608801528160a088015284870137848201830152601f01601f191683018381038201608085015201886111fc565b0390a1519282849384528301906111fc565b0390f35b855162461bcd60e51b8152908101879052600a6024820152691d1e1b8819985a5b195960b21b6044820152606490fd5b606097610877565b845162461bcd60e51b8152808801879052601460248201527318dbdb9d1c9858dd081b9bdd08185b1b1bddd95960621b6044820152606490fd5b50503461043b578160031936011261043b57905490516001600160a01b039091168152602090f35b50602090816003193601126104915780359060018060a01b036024848260025416875192838092634f558e7960e01b825288888301525afa908115610b63578791610b36575b5015610aff57610a1f8551858101906a1c1bdbdb0b999bdc8b9a5960aa1b825285602b820152602b8152610a178161134f565b519020611613565b30911603610ac75750906105b491610a3861015b6123f0565b610aa7845191610a7a6801bc16d674ec8000006101c2610a7387870187610a5f308361141b565b039761024f601f19998a810183528261136b565b3490611449565b855190848201906d19195c1bdcda5d0b985b5bdd5b9d60921b8252602e830152602e82526102e88261134f565b6102e884519283019183610abb308561141b565b0390810184528361136b565b835162461bcd60e51b815290810183905260126024820152711ddc9bdb99c81cdd185ada5b99c81c1bdbdb60721b6044820152606490fd5b845162461bcd60e51b815280830185905260116024820152701a5908191bd95cc81b9bdd08195e1a5cdd607a1b6044820152606490fd5b610b569150853d8711610b5c575b610b4e818361136b565b8101906115dc565b386109e4565b503d610b44565b86513d89823e3d90fd5b50503461043b578160031936011261043b5781546001600160a01b038116918391610b993385146112be565b6001600160a01b031916825551917f8be0079c531659141344cd1fd0a4f28419497f9722a3daafe3b4186f6b6457e08284a3f35b509134610764576020366003190112610764575061075d6020923561255e565b50903461042d578260031936011261042d57610c07612063565b610c0f612428565b91835b8351811015610cb457610c2581856120d7565b5160025484516331a9108f60e11b815284810192909252602091908290829060249082906001600160a01b03165afa918215610caa5791610c7391610c7894938992610c7d575b50506122bc565b6120c8565b610c12565b610c9c9250803d10610ca3575b610c94818361136b565b8101906115f4565b3880610c6c565b503d610c8a565b85513d89823e3d90fd5b848351f35b50503461043b578160031936011261043b5760ff6020925460a01c169051908152f35b50503461043b578160031936011261043b576105b4336122bc565b503461042d57610d0636611254565b92610d2160018060a09998999594951b038b541633146112be565b885194610d4a6020870187610d36308361166d565b039761082d601f19998a810183528261136b565b15610dd257505050505090610d79610d88928651610d71602082019282610327308661169a565b51902061172c565b602081519101209236916116c0565b6020815191012003610d9e57505b6105b46118aa565b6020606492519162461bcd60e51b8352820152600f60248201526e0e0eac496caf240dad2e6dac2e8c6d608b1b6044820152fd5b9295909396919450610de49750611c16565b610d96565b50503461043b578160031936011261043b5780610e39610900925160208101907376616c696461746f722e7075626c69632e6b657960601b82523060601b603482015260288152610d718161134f565b90519182916020835260208301906111fc565b50503461043b578160031936011261043b57610e66612428565b815192839260208080860192818752855180945286019401925b828110610e8f57505050500390f35b835185528695509381019392810192600101610e80565b503461042d578160031936011261042d57803560243591610ec56123f0565b610ed0610166611888565b146110455760025484516331a9108f60e11b8152828101849052602093916001600160a01b03919085908290602490829086165afa908115610478578891611028575b50163303610ff65784519184610f4e8585016d19195c1bdcda5d0b985b5bdd5b9d60921b9586825285602e820152602e815261024f8161134f565b10610fbc575083610faa81889695610f888897889788978c5190858201928352602e820152602e8152610f808161134f565b51902061201e565b885190810190610f8081610f9c308561141b565b03601f19810183528261136b565b818115610732573390f1156107285751f35b855162461bcd60e51b815290810184905260146024820152731b9bdd08195b9bdd59da0819195c1bdcda5d195960621b6044820152606490fd5b5060649184519162461bcd60e51b8352820152600d60248201526c3737ba103a34329037bbb732b960991b6044820152fd5b61103f9150853d8711610ca357610c94818361136b565b38610f13565b606490602085519162461bcd60e51b8352820152601b60248201527f63616e6e6f74207769746864726177206f6e6365207374616b656400000000006044820152fd5b50503461043b578160031936011261043b576105b46118aa565b509134610764576020366003190112610764575061075d6020928251848101916d19195c1bdcda5d0b985b5bdd5b9d60921b835235602e820152602e815261024f8161134f565b50503461043b578160031936011261043b5761110f60018060a01b0383541633146112be565b60644711611157575b6105b48151602081019061113081610f9c308561185a565b51902082519061113f82611333565b6006825265195e1a5d195960d21b6020830152611bc0565b61115f612101565b611118565b503461042d57602036600319011261042d57356001600160a01b038116810361042d576105b4906122bc565b50503461043b578160031936011261043b5761090090610e39612628565b8385346107645780600319360112610764575061075d8260208094019061024f81610f9c308561141b565b60005b8381106111ec5750506000910152565b81810151838201526020016111dc565b90602091611215815180928185528580860191016111d9565b601f01601f1916010190565b9181601f8401121561124f5782359167ffffffffffffffff831161124f576020838186019501011161124f57565b600080fd5b90608060031983011261124f5767ffffffffffffffff60043581811161124f578361128191600401611221565b9390939260243583811161124f578261129c91600401611221565b9390939260443591821161124f576112b691600401611221565b909160643590565b156112c557565b606460405162461bcd60e51b815260206004820152602060248201527f4f776e61626c653a2063616c6c6572206973206e6f7420746865206f776e65726044820152fd5b67ffffffffffffffff811161131d57604052565b634e487b7160e01b600052604160045260246000fd5b6040810190811067ffffffffffffffff82111761131d57604052565b6060810190811067ffffffffffffffff82111761131d57604052565b90601f8019910116810190811067ffffffffffffffff82111761131d57604052565b67ffffffffffffffff811161131d57601f01601f191660200190565b604051906113b682611333565b6011825270616363657074696e674465706f7369747360781b6020830152565b156113dd57565b60405162461bcd60e51b81526020600482015260166024820152756e6f7420616363657074696e67206465706f7369747360501b6044820152606490fd5b6022916d746f74616c2e6465706f7369747360901b82526001600160601b03199060601b16600e8201520190565b9190820180921161145657565b634e487b7160e01b600052601160045260246000fd5b1561147357565b60405162461bcd60e51b815260206004820152602960248201527f746f74616c206465706f736974732063616e6e6f74206265206d6f72652074686044820152680c2dc406664408ae8d60bb1b6064820152608490fd5b60015460405163bd02d0f560e01b81526004810192909252602090829060249082906001600160a01b03165afa90811561153757600091611509575090565b906020823d821161152f575b816115226020938361136b565b8101031261076457505190565b3d9150611515565b6040513d6000823e3d90fd5b6001546001600160a01b0392908316803b1561124f5760009283604492604051968795869463ca446dd960e01b865260048601521660248401525af180156115375761158c5750565b61159590611309565b565b6001546001600160a01b031691823b1561124f576044600092836040519586948593632b6cd4f760e21b8552600485015260248401525af180156115375761158c5750565b9081602091031261124f5751801515810361124f5790565b9081602091031261124f57516001600160a01b038116810361124f5790565b6001546040516321f8a72160e01b81526004810192909252602090829060249082906001600160a01b03165afa90811561153757600091611652575090565b61166a915060203d8111610ca357610c94818361136b565b90565b6021916c1d985b1a59185d1bdc8b9cd95d609a1b82526001600160601b03199060601b16600d8201520190565b601a91657075624b657960d01b82526001600160601b03199060601b1660068201520190565b9291926116cc8261138d565b916116da604051938461136b565b82948184528183011161124f578281602093846000960137010152565b909291926117048161138d565b91611712604051938461136b565b82948284528282011161124f5760206115959301906111d9565b600154604051630180634360e71b815260048101929092526000908190839060249082906001600160a01b03165afa9182156117bc57819261176d57505090565b909291503d8084833e611780818361136b565b8101906020818303126104915780519067ffffffffffffffff821161045d570181601f820112156104915761166a9293506020815191016116f7565b50604051903d90823e3d90fd5b600154604051633d70e7e560e11b81526004810192909252602090829060249082906001600160a01b03165afa90811561153757600091611808575090565b61166a915060203d8111610b5c57610b4e818361136b565b1561182757565b60405162461bcd60e51b815260206004820152600b60248201526a77726f6e6720737461746560a81b6044820152606490fd5b6022916d636f6e74726163742e737461746560901b82526001600160601b03199060601b16600e8201520190565b6040519061189582611333565b60068252651cdd185ad95960d21b6020830152565b6801bc16d674ec80000090814710611b8a576118d86118c76123f0565b6118d26101666113a9565b14611820565b604080516020611903818301836118ef308361169a565b0393610d71601f199586810183528261136b565b8351757769746864726177616c5f63726564656e7469616c7360501b8382019081523060601b6001600160601b031916601682015261195091610d7181602a84010387810183528261136b565b8451687369676e617475726560b81b8482019081523060601b6001600160601b031916600982015291949161199491610d7181601d84015b0385810183528261136b565b85517019195c1bdcda5d17d9185d1857dc9bdbdd607a1b8582019081523060601b6001600160601b0319166011820152919891906119d58160258401611988565b5190206001548751635376ab1f60e11b8152600481019290925290926001600160a01b039186908590602490829086165afa938415611b7f57600094611b50575b50611a91611a6b8951888101907f65787465726e616c2e636f6e74726163742e616464726573730000000000000082526e11195c1bdcda5d10dbdb9d1c9858dd608a1b603982015260288152610a178161134f565b918951611a808982019282610327308661185a565b519020611a8b611888565b90611bc0565b1694853b1561124f57600093611adf93611aee611acc938a519c8d97889687966304512a2360e31b88526080600489015260848801906111fc565b60031993848883030160248901526111fc565b918583030160448601526111fc565b9060648301520391865af1948515611b45577f72b356fd889b9abd3530accd2c9f4aecbce67d70757181f9f862ac91464ce1929495611b36575b5082519182523390820152a1565b611b3f90611309565b38611b28565b83513d6000823e3d90fd5b90938682813d8311611b78575b611b67818361136b565b810103126107645750519238611a16565b503d611b5d565b88513d6000823e3d90fd5b60405162461bcd60e51b815260206004820152600e60248201526d0dcdee840cadcdeeaced040cae8d60931b6044820152606490fd5b6001546001600160a01b031691823b1561124f57611c0592600092836040518096819582946306e8995560e41b845260048401526040602484015260448301906111fc565b03925af180156115375761158c5750565b929593949094600096600160f81b300193843011611fc5576040978851602096878201908152878252611c4882611333565b611c533686866116c0565b8881519101209151902003611f8157611c978951878101906f1d985b1a59185d1bdc8b9b1bd8dad95960821b82523060601b60308201526024815261082d8161134f565b611edb575b611ca46123f0565b611cac6113a9565b611cb5906123f8565b14611cbf90611820565b88519686880188611cd0308361169a565b0398601f19998a81018252611ce5908261136b565b519020913690611cf4926116c0565b611cfd91611fd9565b8751757769746864726177616c5f63726564656e7469616c7360501b8682019081523060601b6001600160601b03191660168201529080602a8301038881018252611d48908261136b565b519020913690611d57926116c0565b611d6091611fd9565b8551687369676e617475726560b81b8482019081523060601b6001600160601b03191660098201529080601d8301038681018252611d9e908261136b565b519020913690611dad926116c0565b611db691611fd9565b83517019195c1bdcda5d17d9185d1857dc9bdbdd607a1b8282019081523060601b6001600160601b0319166011820152908060258301038481018252611dfc908261136b565b5190206001546001600160a01b039490851691823b15611ed757906044889283895195869485936309d23b6160e31b8552600485015260248401525af18015611ecd57611eba575b50611e5984519182019282610327308661166d565b519020906001541690813b156104915782916044859492859351958693849263abfdcced60e01b84526004840152600160248401525af1908115611eb15750611ea0575050565b611eaa8291611309565b6107645750565b513d84823e3d90fd5b611ec690959195611309565b9338611e44565b85513d88823e3d90fd5b8780fd5b611f1a611ee66123f0565b6118d28b51611ef481611333565b60158152746177616974696e6756616c696461746f72496e666f60581b8a8201526123f8565b8851611f4187820182611f2d308361166d565b039261082d601f199485810183528261136b565b611f6d57611f68908a51611f5d8982019282610327308661185a565b519020611a8b6113a9565b611c9c565b634e487b7160e01b8b52600160045260248bfd5b885162461bcd60e51b815260048101879052601e60248201527f7769746864726177616c2063726564656e7469616c206d69736d6174636800006044820152606490fd5b634e487b7160e01b89526011600452602489fd5b6001546001600160a01b031691823b1561124f57611c059260009283604051809681958294630b8a342160e21b845260048401526040602484015260448301906111fc565b6001546001600160a01b031691823b1561124f57604460009283604051958694859363ebb9d8c960e01b8552600485015260248401525af180156115375761158c5750565b61206b6123f0565b6120766101666113a9565b1461208357611595612101565b60405162461bcd60e51b815260206004820152601c60248201527f757365207769746864726177207768656e206e6f74207374616b6564000000006044820152606490fd5b60001981146114565760010190565b80518210156120eb5760209160051b010190565b634e487b7160e01b600052603260045260246000fd5b47606481111561227857604090815190602090818301926f636f6e74726163742e6164647265737360801b8452694672656e73436c61696d60b01b6030820152601a815261214e81611333565b519092206001600160a01b039290839061216790611613565b1692612171612428565b9560005b87518110156122465761218881896120d7565b5160248685600254168a51928380926331a9108f60e11b82528660048301525afa90811561223b5791610c739187612215959460009261221a575b506121ce919261234a565b908a5161220d81610f9c8c820194856024916f18db185a5b58589b194b985b5bdd5b9d60821b82526001600160601b03199060601b1660108201520190565b519020611597565b612175565b6121ce9250612235908b3d8d11610ca357610c94818361136b565b916121c3565b89513d6000823e3d90fd5b509550506000809381935091819282821561226f575bf1156122655750565b513d6000823e3d90fd5b506108fc61225c565b606460405162461bcd60e51b815260206004820152602060248201527f6d696e696d756d206f66203130302077656920746f20646973747269627574656044820152fd5b6040519060208201916f636f6e74726163742e6164647265737360801b8352694672656e73436c61696d60b01b6030820152601a81526122fb81611333565b519091206001600160a01b039190829061231490611613565b1691823b1561124f576024600092836040519586948593630f41a04d60e11b85521660048401525af180156115375761158c5750565b61237c9060405160208101916d19195c1bdcda5d0b985b5bdd5b9d60921b8352602e820152602e815261024f8161134f565b612395604051602081019061024f81610f9c308561141b565b9080156123e857600019928015158185048311166114565782156123d25702049060018211156123cb5781019081116114565790565b5050600090565b634e487b7160e01b600052601260045260246000fd5b505050600090565b6123f8612628565b6040516124226020828161241581830196878151938492016111d9565b810103808452018261136b565b51902090565b6040516a1a591ccb9a5b8b9c1bdbdb60aa1b60208083019182523060601b6001600160601b031916602b8401529161246381603f8101610f9c565b5190206001546040516378267eb560e11b81526004810192909252600092908390839060249082906001600160a01b03165afa9283156125525780936124aa575b50505090565b909192503d8082853e6124bd818561136b565b830190828483031261076457835167ffffffffffffffff9485821161042d570182601f8201121561043b57805194851161253e578460051b91604051956125068685018861136b565b8652848087019383010193841161076457508301905b82821061252f57505050503880806124a4565b8151815290830190830161251c565b634e487b7160e01b82526041600452602482fd5b604051903d90823e3d90fd5b6002546040516331a9108f60e11b81526004810183905290602090829060249082906001600160a01b03165afa8015611537576125de9160009161260a575b506040516f18db185a5b58589b194b985b5bdd5b9d60821b6020820190815260609290921b6001600160601b031916603082015261024f8160448101610f9c565b906125e76123f0565b6125f26101666113a9565b036125fb575090565b906101bd61166a92479061234a565b612622915060203d8111610ca357610c94818361136b565b3861259d565b604051602081019061263e81610f9c308561185a565b519020600154604051634c373c8d60e11b81526004810192909252600090829060249082906001600160a01b03165afa90811561153757600091612680575090565b61166a913d8091833e6106b8818361136b565b60208183031261124f5780519067ffffffffffffffff821161124f57019080601f8301121561124f57815161166a926020016116f756fea2646970667358221220217b045d980b8ddb2f627c68674deda8227406e16a87929609bb16f8742cc5c864736f6c63430008100033",
  "linkReferences": {},
  "deployedLinkReferences": {}
}