{
  "_format": "hh-sol-artifact-1",
  "contractName": "StakingPool",
  "sourceName": "contracts/StakingPool.sol",
  "abi": [
    {
      "inputs": [
        {
          "internalType": "address",
          "name": "owner_",
          "type": "address"
        },
        {
          "internalType": "bool",
          "name": "validatorLocked_",
          "type": "bool"
        },
        {
          "internalType": "contract IFrensStorage",
          "name": "frensStorage_",
          "type": "address"
        }
      ],
      "stateMutability": "nonpayable",
      "type": "constructor"
    },
    {
      "anonymous": false,
      "inputs": [
        {
          "indexed": false,
          "internalType": "uint256",
          "name": "amount",
          "type": "uint256"
        },
        {
          "indexed": false,
          "internalType": "address",
          "name": "depositer",
          "type": "address"
        },
        {
          "indexed": false,
          "internalType": "uint256",
          "name": "id",
          "type": "uint256"
        }
      ],
      "name": "DepositToPool",
      "type": "event"
    },
    {
      "anonymous": false,
      "inputs": [
        {
          "indexed": false,
          "internalType": "address",
          "name": "sender",
          "type": "address"
        },
        {
          "indexed": false,
          "internalType": "address",
          "name": "to",
          "type": "address"
        },
        {
          "indexed": false,
          "internalType": "uint256",
          "name": "value",
          "type": "uint256"
        },
        {
          "indexed": false,
          "internalType": "bytes",
          "name": "data",
          "type": "bytes"
        },
        {
          "indexed": false,
          "internalType": "bytes",
          "name": "result",
          "type": "bytes"
        }
      ],
      "name": "ExecuteTransaction",
      "type": "event"
    },
    {
      "anonymous": false,
      "inputs": [
        {
          "indexed": true,
          "internalType": "address",
          "name": "previousOwner",
          "type": "address"
        },
        {
          "indexed": true,
          "internalType": "address",
          "name": "newOwner",
          "type": "address"
        }
      ],
      "name": "OwnershipTransferred",
      "type": "event"
    },
    {
      "anonymous": false,
      "inputs": [
        {
          "indexed": false,
          "internalType": "address",
          "name": "depositContractAddress",
          "type": "address"
        },
        {
          "indexed": false,
          "internalType": "address",
          "name": "caller",
          "type": "address"
        }
      ],
      "name": "Stake",
      "type": "event"
    },
    {
      "stateMutability": "payable",
      "type": "fallback"
    },
    {
      "inputs": [
        {
          "internalType": "uint256",
          "name": "_id",
          "type": "uint256"
        }
      ],
      "name": "addToDeposit",
      "outputs": [],
      "stateMutability": "payable",
      "type": "function"
    },
    {
      "inputs": [
        {
          "internalType": "address",
          "name": "claimant",
          "type": "address"
        }
      ],
      "name": "claim",
      "outputs": [],
      "stateMutability": "nonpayable",
      "type": "function"
    },
    {
      "inputs": [],
      "name": "claim",
      "outputs": [],
      "stateMutability": "nonpayable",
      "type": "function"
    },
    {
      "inputs": [],
      "name": "depositToPool",
      "outputs": [],
      "stateMutability": "payable",
      "type": "function"
    },
    {
      "inputs": [],
      "name": "distribute",
      "outputs": [],
      "stateMutability": "nonpayable",
      "type": "function"
    },
    {
      "inputs": [],
      "name": "distributeAndClaim",
      "outputs": [],
      "stateMutability": "nonpayable",
      "type": "function"
    },
    {
      "inputs": [],
      "name": "distributeAndClaimAll",
      "outputs": [],
      "stateMutability": "nonpayable",
      "type": "function"
    },
    {
      "inputs": [],
      "name": "exitPool",
      "outputs": [],
      "stateMutability": "nonpayable",
      "type": "function"
    },
    {
      "inputs": [
        {
          "internalType": "uint256",
          "name": "_id",
          "type": "uint256"
        }
      ],
      "name": "getDepositAmount",
      "outputs": [
        {
          "internalType": "uint256",
          "name": "",
          "type": "uint256"
        }
      ],
      "stateMutability": "view",
      "type": "function"
    },
    {
      "inputs": [
        {
          "internalType": "uint256",
          "name": "_id",
          "type": "uint256"
        }
      ],
      "name": "getDistributableShare",
      "outputs": [
        {
          "internalType": "uint256",
          "name": "",
          "type": "uint256"
        }
      ],
      "stateMutability": "view",
      "type": "function"
    },
    {
      "inputs": [],
      "name": "getIdsInThisPool",
      "outputs": [
        {
          "internalType": "uint256[]",
          "name": "",
          "type": "uint256[]"
        }
      ],
      "stateMutability": "view",
      "type": "function"
    },
    {
      "inputs": [],
      "name": "getPubKey",
      "outputs": [
        {
          "internalType": "bytes",
          "name": "",
          "type": "bytes"
        }
      ],
      "stateMutability": "view",
      "type": "function"
    },
    {
      "inputs": [
        {
          "internalType": "uint256",
          "name": "_id",
          "type": "uint256"
        }
      ],
      "name": "getShare",
      "outputs": [
        {
          "internalType": "uint256",
          "name": "",
          "type": "uint256"
        }
      ],
      "stateMutability": "view",
      "type": "function"
    },
    {
      "inputs": [],
      "name": "getState",
      "outputs": [
        {
          "internalType": "string",
          "name": "",
          "type": "string"
        }
      ],
      "stateMutability": "view",
      "type": "function"
    },
    {
      "inputs": [],
      "name": "getTotalDeposits",
      "outputs": [
        {
          "internalType": "uint256",
          "name": "",
          "type": "uint256"
        }
      ],
      "stateMutability": "view",
      "type": "function"
    },
    {
      "inputs": [],
      "name": "owner",
      "outputs": [
        {
          "internalType": "address",
          "name": "",
          "type": "address"
        }
      ],
      "stateMutability": "view",
      "type": "function"
    },
    {
      "inputs": [],
      "name": "renounceOwnership",
      "outputs": [],
      "stateMutability": "nonpayable",
      "type": "function"
    },
    {
      "inputs": [
        {
          "internalType": "address",
          "name": "newArtContract",
          "type": "address"
        }
      ],
      "name": "setArt",
      "outputs": [],
      "stateMutability": "nonpayable",
      "type": "function"
    },
    {
      "inputs": [
        {
          "internalType": "bytes",
          "name": "pubKey",
          "type": "bytes"
        },
        {
          "internalType": "bytes",
          "name": "withdrawal_credentials",
          "type": "bytes"
        },
        {
          "internalType": "bytes",
          "name": "signature",
          "type": "bytes"
        },
        {
          "internalType": "bytes32",
          "name": "deposit_data_root",
          "type": "bytes32"
        }
      ],
      "name": "setPubKey",
      "outputs": [],
      "stateMutability": "nonpayable",
      "type": "function"
    },
    {
      "inputs": [],
      "name": "stake",
      "outputs": [],
      "stateMutability": "nonpayable",
      "type": "function"
    },
    {
      "inputs": [
        {
          "internalType": "bytes",
          "name": "pubKey",
          "type": "bytes"
        },
        {
          "internalType": "bytes",
          "name": "withdrawal_credentials",
          "type": "bytes"
        },
        {
          "internalType": "bytes",
          "name": "signature",
          "type": "bytes"
        },
        {
          "internalType": "bytes32",
          "name": "deposit_data_root",
          "type": "bytes32"
        }
      ],
      "name": "stake",
      "outputs": [],
      "stateMutability": "nonpayable",
      "type": "function"
    },
    {
      "inputs": [
        {
          "internalType": "address",
          "name": "newOwner",
          "type": "address"
        }
      ],
      "name": "transferOwnership",
      "outputs": [],
      "stateMutability": "nonpayable",
      "type": "function"
    },
    {
      "inputs": [],
      "name": "version",
      "outputs": [
        {
          "internalType": "uint8",
          "name": "",
          "type": "uint8"
        }
      ],
      "stateMutability": "view",
      "type": "function"
    },
    {
      "inputs": [
        {
          "internalType": "uint256",
          "name": "_id",
          "type": "uint256"
        },
        {
          "internalType": "uint256",
          "name": "_amount",
          "type": "uint256"
        }
      ],
      "name": "withdraw",
      "outputs": [],
      "stateMutability": "nonpayable",
      "type": "function"
    },
    {
      "stateMutability": "payable",
      "type": "receive"
    }
  ],
  "bytecode": "0x6080604081815234620001d157606082620024f28038038091620000248285620001d6565b833981010312620001d1576200003a82620001fa565b60209283810151908115158203620001d1578301516001600160a01b039182821691829003620001d1576200006f336200020f565b600180546001600160a01b0319808216851790925586516f636f6e74726163742e6164647265737360801b8982019081526d4672656e73506f6f6c536861726560901b6030830152601e825281890199929692906001600160401b038b11838c1017620001bb578a8a52825190206321f8a72160e01b8b526044830152808a602481895afa918215620001b0576000926200016c575b50506200013597985016906002541617600255600014620001505750506001805460ff60a01b191690556200020f565b6000805460ff60a01b191690555161229690816200025c8239f35b6001600160a81b031990911617600160a01b176001556200020f565b813d8311620001a8575b62000182818d620001d6565b81010312620001a557506200019c620001359798620001fa565b88973862000105565b80fd5b503d62000176565b89513d6000823e3d90fd5b634e487b7160e01b600052604160045260246000fd5b600080fd5b601f909101601f19168101906001600160401b03821190821017620001bb57604052565b51906001600160a01b0382168203620001d157565b600080546001600160a01b039283166001600160a01b03198216811783556040519093909116917f8be0079c531659141344cd1fd0a4f28419497f9722a3daafe3b4186f6b6457e091a356fe6080604081815260048036101561001e575b505050361561001c57005b005b600092833560e01c908163168a482214610fa1575080631865c57d14610f835780631e83409a14610f575780632991795414610f05578063378de45b14610e7e5780633a4b66f114610e58578063441a3e7014610bd857806345b58fe414610b7e5780634ad02ef114610b395780634b2b4e3614610a335780634e71d92d14610a1857806354fd4d50146109f557806355ec447f14610929578063678e300a14610909578063715018a6146108a95780638620891c146106e55780638da5cb5b146106bd5780639278e7141461069a578063cfb5a5f814610670578063e4fc6b6d14610656578063e6b1a3ae146104a0578063e920eec014610466578063f2fde38b146103995763f9faa1040361001157826003193601126103145760ff60015460a01c168181101561038657600161015791146110fc565b341561034f578151906101ab6801bc16d674ec8000006101a460209461019f868201610195836101873084611141565b03601f1981018552846111d1565b349251902061132e565b6111f3565b1115611216565b838351918184808501946f636f6e74726163742e6164647265737360801b86526e233932b739a837b7b629b2ba3a32b960891b6030820152601f81526101f0816111b5565b519094206001600160a01b0394908590610209906112c8565b16602488518094819363068b0e0760e41b835234888401525af180156103455761023a918491610318575b5061128c565b610266855185810190671d1bdad95b8b9a5960c21b82526008815261025e816111b5565b51902061132e565b9260025416803b156103145760248392875194859384926335313c2160e11b845233908401525af1801561030a576102d2575b507fd91527a40417d48f76ba016aaa9157e2ddaca6cb5b660432901659cb075058fc91606091845191348352339083015284820152a151f35b91606091946103017fd91527a40417d48f76ba016aaa9157e2ddaca6cb5b660432901659cb075058fc9461116f565b94915091610299565b84513d87823e3d90fd5b8280fd5b6103389150863d881161033e575b61033081836111d1565b810190611274565b38610234565b503d610326565b86513d85823e3d90fd5b6020606492519162461bcd60e51b8352820152601260248201527136bab9ba103232b837b9b4ba1032ba3432b960711b6044820152fd5b634e487b7160e01b845260218252602484fd5b5090346103145760203660031901126103145781356001600160a01b038181169291839003610462578454908116936103d33386146110b1565b831561041057506001600160a01b0319168217845551917f8be0079c531659141344cd1fd0a4f28419497f9722a3daafe3b4186f6b6457e08484a3f35b608490602084519162461bcd60e51b8352820152602660248201527f4f776e61626c653a206e6577206f776e657220697320746865207a65726f206160448201526564647265737360d01b6064820152fd5b8480fd5b50503461049c5761049961047936611047565b9561049460018060a09894989795971b038b541633146110b1565b611938565b51f35b5080fd5b503461031457602090816003193601126106525780356001600160a01b038181169182900361064e576104d78187541633146110b1565b845163516b636d60e11b81526001848201528681602481865afa9081156106445787916105ed575b5051156105b35790602484926105578751858101906f636f6e74726163742e6164647265737360801b82526e233932b739a837b7b629b2ba3a32b960891b6030820152601f815261054f816111b5565b5190206112c8565b16938787519586948593637358d1d760e11b85528401525af19081156105a657610499928592610589575b505061128c565b61059f9250803d1061033e5761033081836111d1565b3880610582565b50505051903d90823e3d90fd5b845162461bcd60e51b815280840185905260146024820152731a5b9d985b1a5908185c9d0818dbdb9d1c9858dd60621b6044820152606490fd5b90503d8088833e6105fe81836111d1565b810190858183031261063c5780519067ffffffffffffffff821161064057019080601f8301121561063c578151610636928701611482565b386104ff565b8780fd5b8880fd5b86513d89823e3d90fd5b8580fd5b8380fd5b50503461049c578160031936011261049c57610499611b50565b5091346106975760203660031901126106975750610690602092356120f5565b9051908152f35b80fd5b50503461049c578160031936011261049c576106b4611b50565b61049933611e93565b50503461049c578160031936011261049c57905490516001600160a01b039091168152602090f35b506020908160031936011261065257803560018060a01b036024848260025416875192838092634f558e7960e01b825287898301525afa90811561064457879161088c575b5015610855576107696107608651868101906a1c1bdbdb0b999bdc8b9a5960aa1b825285602b820152602b815261054f81611199565b8216301461139b565b60ff60015460a01c16838110156108425784929161078b6001604493146110fc565b6107c76801bc16d674ec8000006101a46107c08a518881019061025e816107b23085611141565b03601f1981018352826111d1565b34906111f3565b61080b8751858101906f636f6e74726163742e6164647265737360801b82526e233932b739a837b7b629b2ba3a32b960891b6030820152601f815261054f816111b5565b1693878751958694859363010975af60e31b85528401523460248401525af19081156105a65761049992859261058957505061128c565b634e487b7160e01b875260218452602487fd5b845162461bcd60e51b815280840185905260116024820152701a5908191bd95cc81b9bdd08195e1a5cdd607a1b6044820152606490fd5b6108a39150853d871161033e5761033081836111d1565b3861072a565b50503461049c578160031936011261049c5781546001600160a01b0381169183916108d53385146110b1565b6001600160a01b031916825551917f8be0079c531659141344cd1fd0a4f28419497f9722a3daafe3b4186f6b6457e08284a3f35b509134610697576020366003190112610697575061069060209235612132565b509034610314578260031936011261031457610943611b50565b61094b611fc9565b91835b83518110156109f0576109618185611bd8565b5160025484516331a9108f60e11b815284810192909252602091908290829060249082906001600160a01b03165afa9182156109e657916109af916109b4949389926109b9575b5050611e93565b611bc9565b61094e565b6109d89250803d106109df575b6109d081836111d1565b8101906112a9565b38806109a8565b503d6109c6565b85513d89823e3d90fd5b848351f35b50503461049c578160031936011261049c5760ff6020925460a01c169051908152f35b50503461049c578160031936011261049c5761049933611e93565b503461031457610a4236611047565b92610a5d60018060a09998999594951b038b541633146110b1565b885194610a8e6020870187610a7230836113dc565b0397610a86601f19998a81018352826111d1565b519020611556565b15610b2257505050505090610ac9610ad8928651610ac1602082019282610ab53086611409565b039081018352826111d1565b5190206114b9565b6020815191012092369161144b565b6020815191012003610aee57505b6104996115e7565b6020606492519162461bcd60e51b8352820152600f60248201526e0e0eac496caf240dad2e6dac2e8c6d608b1b6044820152fd5b9295909396919450610b349750611938565b610ae6565b50503461049c578160031936011261049c5780610b67610b7a92516020810190610ac1816107b23085611409565b9051918291602083526020830190610fef565b0390f35b50503461049c578160031936011261049c57610b98611fc9565b815192839260208080860192818752855180945286019401925b828110610bc157505050500390f35b835185528695509381019392810192600101610bb2565b5091903461049c578060031936011261049c5782359260249384359060ff60015460a01c1683811015610e4657600103610e045760025484516331a9108f60e11b8152808501839052602094916001600160a01b039190869082908b90829086165afa908115610dfa579082918991610ddd575b50163303610dab5783610c858751878101906d19195c1bdcda5d0b985b5bdd5b9d60921b825286602e820152602e815261025e81611199565b10610d7257916044859288809a95610cc56107608b9c9b51888101906a1c1bdbdb0b999bdc8b9a5960aa1b825288602b820152602b815261054f81611199565b610d098b51878101906f636f6e74726163742e6164647265737360801b82526e233932b739a837b7b629b2ba3a32b960891b6030820152601f815261054f816111b5565b16878b519788968795630441a3e760e41b87528601528401525af1918215610d6857849384938493610d4292859261058957505061128c565b818115610d5f575b3390f115610d555751f35b51903d90823e3d90fd5b506108fc610d4a565b85513d86823e3d90fd5b855162461bcd60e51b81528083018690526014818a0152731b9bdd08195b9bdd59da0819195c1bdcda5d195960621b6044820152606490fd5b855162461bcd60e51b8152808301869052600d818a01526c3737ba103a34329037bbb732b960991b6044820152606490fd5b610df49150873d89116109df576109d081836111d1565b38610c4c565b87513d8a823e3d90fd5b835162461bcd60e51b8152602081850152601b818801527f63616e6e6f74207769746864726177206f6e6365207374616b656400000000006044820152606490fd5b634e487b7160e01b8652602184528686fd5b50503461049c578160031936011261049c57610ae660018060a01b0383541633146110b1565b509134610697576020366003190112610697575061069060209235610ed9610ec98451868101906a1c1bdbdb0b999bdc8b9a5960aa1b825284602b820152602b815261054f81611199565b6001600160a01b0316301461139b565b8251848101916d19195c1bdcda5d0b985b5bdd5b9d60921b8352602e820152602e815261025e81611199565b50503461049c578160031936011261049c57610f2b60018060a01b0383541633146110b1565b60644711610f4a575b6001805460ff60a01b1916600360a01b17905551f35b610f52611c02565b610f34565b503461031457602036600319011261031457356001600160a01b03811681036103145761049990611e93565b50503461049c578160031936011261049c57610b7a90610b6761215a565b838534610697578060031936011261069757506106908260208094019061025e816107b23085611141565b60005b838110610fdf5750506000910152565b8181015183820152602001610fcf565b9060209161100881518092818552858086019101610fcc565b601f01601f1916010190565b9181601f840112156110425782359167ffffffffffffffff8311611042576020838186019501011161104257565b600080fd5b9060806003198301126110425767ffffffffffffffff600435818111611042578361107491600401611014565b93909392602435838111611042578261108f91600401611014565b93909392604435918211611042576110a991600401611014565b909160643590565b156110b857565b606460405162461bcd60e51b815260206004820152602060248201527f4f776e61626c653a2063616c6c6572206973206e6f7420746865206f776e65726044820152fd5b1561110357565b60405162461bcd60e51b81526020600482015260166024820152756e6f7420616363657074696e67206465706f7369747360501b6044820152606490fd5b6022916d746f74616c2e6465706f7369747360901b82526001600160601b03199060601b16600e8201520190565b67ffffffffffffffff811161118357604052565b634e487b7160e01b600052604160045260246000fd5b6060810190811067ffffffffffffffff82111761118357604052565b6040810190811067ffffffffffffffff82111761118357604052565b90601f8019910116810190811067ffffffffffffffff82111761118357604052565b9190820180921161120057565b634e487b7160e01b600052601160045260246000fd5b1561121d57565b60405162461bcd60e51b815260206004820152602960248201527f746f74616c206465706f736974732063616e6e6f74206265206d6f72652074686044820152680c2dc406664408ae8d60bb1b6064820152608490fd5b90816020910312611042575180151581036110425790565b1561129357565b634e487b7160e01b600052600160045260246000fd5b9081602091031261104257516001600160a01b03811681036110425790565b6001546040516321f8a72160e01b81526004810192909252602090829060249082906001600160a01b03165afa90811561132257600091611307575090565b61131f915060203d81116109df576109d081836111d1565b90565b6040513d6000823e3d90fd5b60015460405163bd02d0f560e01b81526004810192909252602090829060249082906001600160a01b03165afa9081156113225760009161136d575090565b906020823d8211611393575b81611386602093836111d1565b8101031261069757505190565b3d9150611379565b156113a257565b60405162461bcd60e51b81526020600482015260126024820152711ddc9bdb99c81cdd185ada5b99c81c1bdbdb60721b6044820152606490fd5b6021916c1d985b1a59185d1bdc8b9cd95d609a1b82526001600160601b03199060601b16600d8201520190565b601a91657075624b657960d01b82526001600160601b03199060601b1660068201520190565b67ffffffffffffffff811161118357601f01601f191660200190565b9291926114578261142f565b9161146560405193846111d1565b829481845281830111611042578281602093846000960137010152565b9092919261148f8161142f565b9161149d60405193846111d1565b8294828452828201116110425760206114b7930190610fcc565b565b600154604051630180634360e71b815260048101929092526000908190839060249082906001600160a01b03165afa9182156115495781926114fa57505090565b909291503d8084833e61150d81836111d1565b8101906020818303126106525780519067ffffffffffffffff8211610462570181601f820112156106525761131f929350602081519101611482565b50604051903d90823e3d90fd5b600154604051633d70e7e560e11b81526004810192909252602090829060249082906001600160a01b03165afa90811561132257600091611595575090565b61131f915060203d811161033e5761033081836111d1565b156115b457565b60405162461bcd60e51b815260206004820152600b60248201526a77726f6e6720737461746560a81b6044820152606490fd5b6801bc16d674ec800000908147106118e1576001549160ff8360a01c1660048110156118cb57600161161991146115ad565b60409081516020906116468282018261163230836113dc565b0392610a86601f19948581018352826111d1565b1561189357611663908451610ac18482019282610ab53086611409565b8351956116a0838801757769746864726177616c5f63726564656e7469616c7360501b81523060601b98896036820152602a8152610ac181611199565b936116cc865185810190687369676e617475726560b81b82528a6029820152601d8152610ac1816111b5565b978651858101917019195c1bdcda5d17d9185d1857dc9bdbdd607a1b83526031820152602581526116fc81611199565b5190208651635376ab1f60e11b81526004810191909152916001600160a01b039085846024818585165afa93841561188857600094611859575b506117888851878101907f65787465726e616c2e636f6e74726163742e616464726573730000000000000082526e11195c1bdcda5d10dbdb9d1c9858dd608a1b60398201526028815261054f81611199565b60ff60a01b19909116600160a11b176001551694853b15611042576000936117e8936117f76117d5938a519c8d97889687966304512a2360e31b8852608060048901526084880190610fef565b6003199384888303016024890152610fef565b91858303016044860152610fef565b9060648301520391865af194851561184e577f72b356fd889b9abd3530accd2c9f4aecbce67d70757181f9f862ac91464ce192949561183f575b5082519182523390820152a1565b6118489061116f565b38611831565b83513d6000823e3d90fd5b90938682813d8311611881575b61187081836111d1565b810103126106975750519238611736565b503d611866565b88513d6000823e3d90fd5b835162461bcd60e51b81526004810183905260116024820152701d985b1a59185d1bdc881b9bdd081cd95d607a1b6044820152606490fd5b634e487b7160e01b600052602160045260246000fd5b60405162461bcd60e51b815260206004820152600e60248201526d0dcdee840cadcdeeaced040cae8d60931b6044820152606490fd5b908060209392818452848401376000828201840152601f01601f1916010190565b96959293949096600160f81b300195863011611200576040988951602098898201908152898252611968826111b5565b611973368a8961144b565b8a81519101209151902003611b0c576119b78a51898101906f1d985b1a59185d1bdc8b9b1bd8dad95960821b82523060601b603082015260248152610a8681611199565b611aba575b60ff60015460a01c169560048710156118cb57611a8a611a67968c966000956119e860018e9c146115ad565b611a7b8951611a428d82016f636f6e74726163742e6164647265737360801b81526e233932b739a837b7b629b2ba3a32b960891b6030840152601f8352611a2e836111b5565b91519091206001600160a01b0391906112c8565b1699519c8d9b8c9a8b996303a483bb60e61b8b52608060048c015260848b0191611917565b9060031995868a84030160248b0152611917565b92868403016044870152611917565b90606483015203925af1918215611aaf576114b793945060009261058957505061128c565b84513d6000823e3d90fd5b60015460ff8160a01c1660048110156118cb57611ad790156115ad565b611af7611af18c518b810190610a86816107b230856113dc565b1561128c565b60ff60a01b1916600160a01b176001556119bc565b895162461bcd60e51b815260048101899052601e60248201527f7769746864726177616c2063726564656e7469616c206d69736d6174636800006044820152606490fd5b60ff60015460a01c1660048110156118cb57600114611b71576114b7611c02565b60405162461bcd60e51b815260206004820152601c60248201527f757365207769746864726177207768656e206e6f74207374616b6564000000006044820152606490fd5b8060001904821181151516611200570290565b60001981146112005760010190565b8051821015611bec5760209160051b010190565b634e487b7160e01b600052603260045260246000fd5b47906064821115611e4f576040918251611c3b602091828101906b70726f746f636f6c2e66656560a01b8252600c815261025e816111b5565b80611dda575b50611c4a611fc9565b60005b8151811015611d7557611c608183611bd8565b5160025487516331a9108f60e11b8152600480820184905293926024926001600160a01b03929190889083908690829087165afa8b8115611d6b5789958b604495600094611d45575b50611cb79060009495611f2a565b9086611cfd84518a8101906f636f6e74726163742e6164647265737360801b82526e233932b739a837b7b629b2ba3a32b960891b6030820152601f815261054f816111b5565b169251998a978896631f72642160e31b885216908601528401525af1918215611d3a57611d35926109af91600091610318575061128c565b611c4d565b87513d6000823e3d90fd5b6000945090611d63611cb7928a3d8c116109df576109d081836111d1565b945090611ca9565b513d6000823e3d90fd5b505060008080938193969596611dbf87519182016f636f6e74726163742e6164647265737360801b8152694672656e73436c61696d60b01b6030840152601a8352611a2e836111b5565b16828215611dd1575bf115611d6b5750565b506108fc611dc8565b600080809394926064611e178395611e118b518a8101906c1999594b9c9958da5c1a595b9d609a1b8252600d815261054f816111b5565b93611bb6565b049082908215611e45575b6001600160a01b031690f115611e3a57479038611c41565b82513d6000823e3d90fd5b6108fc9150611e22565b606460405162461bcd60e51b815260206004820152602060248201527f6d696e696d756d206f66203130302077656920746f20646973747269627574656044820152fd5b6040519060208201916f636f6e74726163742e6164647265737360801b8352694672656e73436c61696d60b01b6030820152601a8152611ed2816111b5565b519091206001600160a01b0391908290611eeb906112c8565b1691823b15611042576024600092836040519586948593630f41a04d60e11b85521660048401525af1801561132257611f215750565b6114b79061116f565b611f5c9060405160208101916d19195c1bdcda5d0b985b5bdd5b9d60921b8352602e820152602e815261025e81611199565b90611f76604051602081019061025e816107b23085611141565b918015611fc157611f8691611bb6565b8115611fab57046001811115611fa55760001981019081116112005790565b50600090565b634e487b7160e01b600052601260045260246000fd5b505050600090565b604051602090818101906a1a591ccb9a5b8b9c1bdbdb60aa1b82523060601b602b820152601f8152611ffa816111b5565b5190206001546040516378267eb560e11b81526004810192909252600092908390839060249082906001600160a01b03165afa9283156120e9578093612041575b50505090565b909192503d8082853e61205481856111d1565b830190828483031261069757835167ffffffffffffffff94858211610314570182601f8201121561049c5780519485116120d5578460051b916040519561209d868501886111d1565b8652848087019383010193841161069757508301905b8282106120c6575050505038808061203b565b815181529083019083016120b3565b634e487b7160e01b82526041600452602482fd5b604051903d90823e3d90fd5b61131f9061212b610ec960405160208101906a1c1bdbdb0b999bdc8b9a5960aa1b825284602b820152602b815261054f81611199565b4790611f2a565b60ff60015460a01c1660048110156118cb576001036121515750600090565b61131f906120f5565b60ff60015460a01c1660048110156118cb578015612226576002811461220357600181146121d4576003146121b257604051612195816111b5565b600d81526c7374617465206661696c75726560981b602082015290565b6040516121be816111b5565b6006815265195e1a5d195960d21b602082015290565b506040516121e1816111b5565b6012815271616363657074696e67206465706f7369747360701b602082015290565b50604051612210816111b5565b60068152651cdd185ad95960d21b602082015290565b50604051612233816111b5565b601781527f6177616974696e672076616c696461746f7220696e666f00000000000000000060208201529056fea26469706673582212209a2e598e94092b4ce13ba3e82b6df841a49f2b9f9a408b96b34c9b910095698c64736f6c63430008100033",
  "linkReferences": {},
  "deployedLinkReferences": {}
}