{
  "_format": "hh-sol-artifact-1",
  "contractName": "StakingPool",
  "sourceName": "contracts/StakingPool.sol",
  "abi": [
    {
      "inputs": [
        {
          "internalType": "address",
          "name": "owner_",
          "type": "address"
        },
        {
          "internalType": "contract IFrensStorage",
          "name": "frensStorage_",
          "type": "address"
        }
      ],
      "stateMutability": "nonpayable",
      "type": "constructor"
    },
    {
      "anonymous": false,
      "inputs": [
        {
          "indexed": false,
          "internalType": "uint256",
          "name": "amount",
          "type": "uint256"
        },
        {
          "indexed": false,
          "internalType": "address",
          "name": "depositer",
          "type": "address"
        }
      ],
      "name": "DepositToPool",
      "type": "event"
    },
    {
      "anonymous": false,
      "inputs": [
        {
          "indexed": true,
          "internalType": "address",
          "name": "previousOwner",
          "type": "address"
        },
        {
          "indexed": true,
          "internalType": "address",
          "name": "newOwner",
          "type": "address"
        }
      ],
      "name": "OwnershipTransferred",
      "type": "event"
    },
    {
      "anonymous": false,
      "inputs": [
        {
          "indexed": false,
          "internalType": "address",
          "name": "depositContractAddress",
          "type": "address"
        },
        {
          "indexed": false,
          "internalType": "address",
          "name": "caller",
          "type": "address"
        }
      ],
      "name": "Stake",
      "type": "event"
    },
    {
      "stateMutability": "payable",
      "type": "fallback"
    },
    {
      "inputs": [
        {
          "internalType": "uint256",
          "name": "_id",
          "type": "uint256"
        }
      ],
      "name": "addToDeposit",
      "outputs": [],
      "stateMutability": "payable",
      "type": "function"
    },
    {
      "inputs": [],
      "name": "depositToPool",
      "outputs": [],
      "stateMutability": "payable",
      "type": "function"
    },
    {
      "inputs": [],
      "name": "distribute",
      "outputs": [],
      "stateMutability": "nonpayable",
      "type": "function"
    },
    {
      "inputs": [
        {
          "internalType": "uint256",
          "name": "_id",
          "type": "uint256"
        }
      ],
      "name": "getDepositAmount",
      "outputs": [
        {
          "internalType": "uint256",
          "name": "",
          "type": "uint256"
        }
      ],
      "stateMutability": "view",
      "type": "function"
    },
    {
      "inputs": [
        {
          "internalType": "uint256",
          "name": "_id",
          "type": "uint256"
        }
      ],
      "name": "getDistributableShare",
      "outputs": [
        {
          "internalType": "uint256",
          "name": "",
          "type": "uint256"
        }
      ],
      "stateMutability": "view",
      "type": "function"
    },
    {
      "inputs": [],
      "name": "getIdsInThisPool",
      "outputs": [
        {
          "internalType": "uint256[]",
          "name": "",
          "type": "uint256[]"
        }
      ],
      "stateMutability": "view",
      "type": "function"
    },
    {
      "inputs": [],
      "name": "getPubKey",
      "outputs": [
        {
          "internalType": "bytes",
          "name": "",
          "type": "bytes"
        }
      ],
      "stateMutability": "view",
      "type": "function"
    },
    {
      "inputs": [
        {
          "internalType": "uint256",
          "name": "_id",
          "type": "uint256"
        }
      ],
      "name": "getShare",
      "outputs": [
        {
          "internalType": "uint256",
          "name": "",
          "type": "uint256"
        }
      ],
      "stateMutability": "view",
      "type": "function"
    },
    {
      "inputs": [],
      "name": "getState",
      "outputs": [
        {
          "internalType": "string",
          "name": "",
          "type": "string"
        }
      ],
      "stateMutability": "view",
      "type": "function"
    },
    {
      "inputs": [],
      "name": "owner",
      "outputs": [
        {
          "internalType": "address",
          "name": "",
          "type": "address"
        }
      ],
      "stateMutability": "view",
      "type": "function"
    },
    {
      "inputs": [],
      "name": "renounceOwnership",
      "outputs": [],
      "stateMutability": "nonpayable",
      "type": "function"
    },
    {
      "inputs": [],
      "name": "rugpull",
      "outputs": [],
      "stateMutability": "nonpayable",
      "type": "function"
    },
    {
      "inputs": [
        {
          "internalType": "address",
          "name": "frensPoolShareAddress_",
          "type": "address"
        }
      ],
      "name": "setFrensPoolShare",
      "outputs": [],
      "stateMutability": "nonpayable",
      "type": "function"
    },
    {
      "inputs": [
        {
          "internalType": "bytes",
          "name": "publicKey",
          "type": "bytes"
        }
      ],
      "name": "setPubKey",
      "outputs": [],
      "stateMutability": "nonpayable",
      "type": "function"
    },
    {
      "inputs": [
        {
          "internalType": "bytes",
          "name": "pubkey",
          "type": "bytes"
        },
        {
          "internalType": "bytes",
          "name": "withdrawal_credentials",
          "type": "bytes"
        },
        {
          "internalType": "bytes",
          "name": "signature",
          "type": "bytes"
        },
        {
          "internalType": "bytes32",
          "name": "deposit_data_root",
          "type": "bytes32"
        }
      ],
      "name": "stake",
      "outputs": [],
      "stateMutability": "nonpayable",
      "type": "function"
    },
    {
      "inputs": [
        {
          "internalType": "address",
          "name": "newOwner",
          "type": "address"
        }
      ],
      "name": "transferOwnership",
      "outputs": [],
      "stateMutability": "nonpayable",
      "type": "function"
    },
    {
      "inputs": [],
      "name": "unstake",
      "outputs": [],
      "stateMutability": "nonpayable",
      "type": "function"
    },
    {
      "inputs": [],
      "name": "validatorPubKey",
      "outputs": [
        {
          "internalType": "bytes",
          "name": "",
          "type": "bytes"
        }
      ],
      "stateMutability": "view",
      "type": "function"
    },
    {
      "inputs": [],
      "name": "version",
      "outputs": [
        {
          "internalType": "uint8",
          "name": "",
          "type": "uint8"
        }
      ],
      "stateMutability": "view",
      "type": "function"
    },
    {
      "inputs": [
        {
          "internalType": "uint256",
          "name": "_id",
          "type": "uint256"
        },
        {
          "internalType": "uint256",
          "name": "_amount",
          "type": "uint256"
        }
      ],
      "name": "withdraw",
      "outputs": [],
      "stateMutability": "nonpayable",
      "type": "function"
    },
    {
      "stateMutability": "payable",
      "type": "receive"
    }
  ],
  "bytecode": "0x60806040818152346200018757808262001eb480380380916200002382856200018c565b83398101031262000187576200003982620001b0565b6020928301516001600160a01b0380821694909185900362000187576200006033620001c5565b600180546001600160a81b0319168617905583516f636f6e74726163742e6164647265737360801b8282019081526d4672656e73506f6f6c536861726560901b6030830152601e825281860196919291906001600160401b03881184891017620001715760248884938193828b52875190206321f8a72160e01b835260448801525afa918215620001665760009262000122575b5050620001149394501660018060a01b03196003541617600355620001c5565b51611ca29081620002128239f35b813d83116200015e575b6200013881896200018c565b810103126200015b575062000152620001149394620001b0565b849338620000f4565b80fd5b503d6200012c565b85513d6000823e3d90fd5b634e487b7160e01b600052604160045260246000fd5b600080fd5b601f909101601f19168101906001600160401b038211908210176200017157604052565b51906001600160a01b03821682036200018757565b600080546001600160a01b039283166001600160a01b03198216811783556040519093909116917f8be0079c531659141344cd1fd0a4f28419497f9722a3daafe3b4186f6b6457e091a356fe60806040526004361015610018575b361561001657005b005b6000803560e01c80631865c57d1461131f5780632def6620146112da5780632edaf74d14611287578063378de45b14611240578063441a3e701461104157806345b58fe414610f985780634ad02ef114610f7c5780634b2b4e3614610aaf57806354fd4d5014610a8c578063678e300a14610a6d578063715018a614610a085780637be0b4a0146109345780638620891c1461073d5780638da5cb5b14610716578063cfb5a5f8146106ee578063e2664e491461069a578063e32d29131461052c578063e4fc6b6d1461050e578063f2fde38b1461043f5763f9faa10414610100575061000e565b8060031936011261043c5760015460ff8160a01c1660038110156104285761012890156115a5565b34156103ee57604051602091828201671d1bdad95b8b9a5960c21b928382526008815261015481611429565b5190206001600160a01b039182169290833b156103e957600093604485926040519687938492632b6cd4f760e21b84526004840152600160248401525af19081156103dd5785936101c3926103ce575b50604051858101918252600881526101bb81611429565b51902061161d565b604051848101906d19195c1bdcda5d0b985b5bdd5b9d60921b825282602e820152602e81526101f18161140d565b519020826001541690813b156103a7578491604483926040519485938492637152429d60e11b845260048401523460248401525af19081156103c35784916103ab575b5050604051610269858201918061024b30856115ea565b039261025f601f1994858101845283611445565b349151902061168a565b6040516a1a591ccb9a5b8b9c1bdbdb60aa1b8682019081523060601b6bffffffffffffffffffffffff1916600b820152916102af9082601f850103908101835282611445565b519020826001541691823b156103a7576044859283604051958694859363785f002b60e11b8552600485015260248401525af190811561039c578391610388575b505060035416803b156103795760405163ee1fe2ad60e01b81523360048201523060248201529082908290604490829084905af1801561037d57610365575b507f1ed12c9855bd60407f7650e01c62ee4f0f40744b5b17983eec349a2b4e89981a6040838151903482523390820152a1604051f35b61036e906113e3565b61037957813861032f565b5080fd5b6040513d84823e3d90fd5b610391906113e3565b6103795781386102f0565b6040513d85823e3d90fd5b8480fd5b6103b4906113e3565b6103bf578238610234565b8280fd5b6040513d86823e3d90fd5b6103d7906113e3565b386101a4565b6040513d6000823e3d90fd5b600080fd5b60405162461bcd60e51b815260206004820152601260248201527136bab9ba103232b837b9b4ba1032ba3432b960711b6044820152606490fd5b634e487b7160e01b83526021600452602483fd5b80fd5b503461043c57602036600319011261043c576001600160a01b03600435818116908190036103bf5761047582845416331461155a565b80156104ba57600080546001600160a01b03198116831782556040519316907f8be0079c531659141344cd1fd0a4f28419497f9722a3daafe3b4186f6b6457e09084a3f35b60405162461bcd60e51b815260206004820152602660248201527f4f776e61626c653a206e6577206f776e657220697320746865207a65726f206160448201526564647265737360d01b6064820152608490fd5b503461043c578060031936011261043c5761052761173c565b604051f35b503461043c576020806003193601126103795767ffffffffffffffff600435818111610696573660238201121561069657610571903690602481600401359101611513565b9161058660018060a01b03855416331461155a565b60019260ff845460a01c166003811015610682576105a49015611ace565b805192831161066e576105c1836105bc6002546113a9565b611b08565b81601f84116001146105fd575092829391839286946105f2575b50501b916000199060031b1c191617600255604051f35b0151925038806105db565b919083601f19811660028852600080516020611c4d8339815191529488905b88838310610654575050501061063b575b505050811b01600255604051f35b015160001960f88460031b161c1916905538808061062d565b85870151885590960195948501948793509081019061061c565b634e487b7160e01b85526041600452602485fd5b634e487b7160e01b86526021600452602486fd5b8380fd5b503461043c578060031936011261043c576106bf60018060a01b03825416331461155a565b80808080478181156106e5575b3390f1156106d957604051f35b604051903d90823e3d90fd5b506108fc6106cc565b503461043c57602036600319011261043c57602061070e476004356119fe565b604051908152f35b503461043c578060031936011261043c57546040516001600160a01b039091168152602090f35b50602080600319360112610379576004359060018060a01b0383828260035416602460405180948193634f558e7960e01b83528960048401525af19081156108c25785916108fe575b50156108cd5780826024926003541660405193848092630178b36760e31b82528860048301525afa9182156108c2578592610893575b503091160361085a5760ff60015460a01c16600381101561084657156107e1816115a5565b156103bf5761082461052792604051838101916d19195c1bdcda5d0b985b5bdd5b9d60921b8352602e820152602e815261081a8161140d565b519020349061168a565b60405190810161025f8261083830846115ea565b03601f198101845283611445565b634e487b7160e01b84526021600452602484fd5b6064906040519062461bcd60e51b8252600482015260126024820152711ddc9bdb99c81cdd185ada5b99c81c1bdbdb60721b6044820152fd5b6108b4919250833d85116108bb575b6108ac8183611445565b8101906116d8565b90386107bc565b503d6108a2565b6040513d87823e3d90fd5b60405162461bcd60e51b81526004810183905260096024820152681b9bdd08195e1a5cdd60ba1b6044820152606490fd5b90508281813d831161092d575b6109158183611445565b810103126103a7575180151581036103a75738610786565b503d61090b565b503461043c578060031936011261043c576040516000600254610956816113a9565b808452906001908181169081156109e15750600114610998575b6109948461098081860382611445565b60405191829160208352602083019061133b565b0390f35b600260009081529250600080516020611c4d8339815191525b8284106109c957505050810160200161098082610970565b805460208587018101919091529093019281016109b1565b60ff191660208087019190915292151560051b850190920192506109809150839050610970565b503461043c578060031936011261043c5780546001600160a01b0390610a31908216331461155a565b600080546001600160a01b03198116825560405192167f8be0079c531659141344cd1fd0a4f28419497f9722a3daafe3b4186f6b6457e08284a3f35b503461043c57602036600319011261043c57602061070e600435611aa4565b503461043c578060031936011261043c5760ff6020915460a01c16604051908152f35b503461043c576003196080368201126103795767ffffffffffffffff9060043582811161069657610ae490369060040161137b565b92602435818111610f7857610afd90369060040161137b565b939092604435838111610d8357610b1890369060040161137b565b93610b2d60018060a01b038a5416331461155a565b6801bc16d674ec8000004710610f425760ff60015460a01c166003811015610f2e57610b599015611ace565b610b61611467565b805160209091012060605160802014610e5c5750610b7d611467565b60208151910120610b8f368985611513565b6020815191012003610e0c575b6001805460ff60a01b198116600160a01b179091559630600160f81b8101908110610df857604051906020820190815260208252610bd982611429565b610be4368a8a611513565b602081519101209151902003610db35788956020604051818101907f65787465726e616c2e636f6e74726163742e616464726573730000000000000082526e11195c1bdcda5d10dbdb9d1c9858dd608a1b603982015260288152610c478161140d565b5190206040516321f8a72160e01b81526004810191909152998a9060249082906001600160a01b03165afa988915610da8578799610d87575b506001600160a01b03891694853b15610d8357610cce966801bc16d674ec80000094610cde610ced946040519c8d9b8c9a8b996304512a2360e31b8b52608060048c015260848b0191611c2b565b91868984030160248a0152611c2b565b92858403016044860152611c2b565b606435606483015203925af1801561039c57610d4c575b50604080516001600160a01b0390921682523360208301527f72b356fd889b9abd3530accd2c9f4aecbce67d70757181f9f862ac91464ce1929190819081015b0390a1604051f35b7f72b356fd889b9abd3530accd2c9f4aecbce67d70757181f9f862ac91464ce1929192610d7b610d44926113e3565b929150610d04565b8780fd5b610da191995060203d6020116108bb576108ac8183611445565b9738610c80565b6040513d89823e3d90fd5b60405162461bcd60e51b815260206004820152601e60248201527f7769746864726177616c2063726564656e7469616c206d69736d6174636800006044820152606490fd5b634e487b7160e01b8a52601160045260248afd5b60405162461bcd60e51b815260206004820152602260248201527f7075626b657920646f6573206e6f74206d617463682073746f7265642076616c604482015261756560f01b6064820152608490fd5b8711610f1a57610e71876105bc6002546113a9565b8688601f8211600114610ea9578991610e9e575b508760011b906000198960031b1c191617600255610b9c565b905082013538610e85565b60028a52600080516020611c4d8339815191529150895b601f198a168110610f02575088601f19811610610ee8575b5050600187811b01600255610b9c565b83013560001960038a901b60f8161c191690553880610ed8565b90916020600181928588013581550193019101610ec0565b634e487b7160e01b88526041600452602488fd5b634e487b7160e01b8a52602160045260248afd5b60405162461bcd60e51b815260206004820152600e60248201526d0dcdee840cadcdeeaced040cae8d60931b6044820152606490fd5b8580fd5b503461043c578060031936011261043c57610994610980611467565b503461043c578060031936011261043c576040516a1a591ccb9a5b8b9c1bdbdb60aa1b60208083019182523060601b6bffffffffffffffffffffffff1916602b840152916110009190610ff881603f81015b03601f198101835282611445565b519020611918565b60405192828493840190808552835180925280604086019401925b82811061102a57505050500390f35b83518552869550938101939281019260010161101b565b503461043c57604036600319011261043c5760043590602480359060ff60015460a01c16600381101561122d576001146111e9576003546040516331a9108f60e11b815260048101869052602095916001600160a01b039190879082908690829086165afa9081156111de5786916111c1575b5016330361118d5760405191836110f08785016d19195c1bdcda5d0b985b5bdd5b9d60921b9586825285602e820152602e81526101bb8161140d565b1061115357508261113f81869761112a88978897889760405190858201928352602e820152602e81526111228161140d565b5190206116f7565b6040519081019061112281610fea30856115ea565b8181156106e5573390f1156106d957604051f35b8560146064926040519262461bcd60e51b84526004840152820152731b9bdd08195b9bdd59da0819195c1bdcda5d195960621b6044820152fd5b60405162461bcd60e51b815260048101869052600d818401526c3737ba103a34329037bbb732b960991b6044820152606490fd5b6111d89150873d89116108bb576108ac8183611445565b386110b4565b6040513d88823e3d90fd5b606490601b6040519162461bcd60e51b8352602060048401528201527f63616e6e6f74207769746864726177206f6e6365207374616b656400000000006044820152fd5b50634e487b7160e01b8352602160045282fd5b503461043c57602036600319011261043c57602061070e604051828101906d19195c1bdcda5d0b985b5bdd5b9d60921b8252600435602e820152602e81526101bb8161140d565b503461043c57602036600319011261043c576004356001600160a01b03818116918290036103bf576112bd90835416331461155a565b6bffffffffffffffffffffffff60a01b6003541617600355604051f35b503461043c578060031936011261043c576112ff60018060a01b03825416331461155a565b61130761173c565b6001805460ff60a01b1916600160a11b179055604051f35b503461043c578060031936011261043c57610994610980611b67565b919082519283825260005b848110611367575050826000602080949584010152601f8019910116010190565b602081830181015184830182015201611346565b9181601f840112156103e95782359167ffffffffffffffff83116103e957602083818601950101116103e957565b90600182811c921680156113d9575b60208310146113c357565b634e487b7160e01b600052602260045260246000fd5b91607f16916113b8565b67ffffffffffffffff81116113f757604052565b634e487b7160e01b600052604160045260246000fd5b6060810190811067ffffffffffffffff8211176113f757604052565b6040810190811067ffffffffffffffff8211176113f757604052565b90601f8019910116810190811067ffffffffffffffff8211176113f757604052565b604051906000826002549161147b836113a9565b808352926001908181169081156114f157506001146114a4575b506114a292500383611445565b565b600260009081529150600080516020611c4d8339815191525b8483106114d657506114a2935050810160200138611495565b81935090816020925483858a010152019101909185926114bd565b9050602092506114a294915060ff191682840152151560051b82010138611495565b92919267ffffffffffffffff82116113f7576040519161153d601f8201601f191660200184611445565b8294818452818301116103e9578281602093846000960137010152565b1561156157565b606460405162461bcd60e51b815260206004820152602060248201527f4f776e61626c653a2063616c6c6572206973206e6f7420746865206f776e65726044820152fd5b156115ac57565b60405162461bcd60e51b81526020600482015260166024820152756e6f7420616363657074696e67206465706f7369747360501b6044820152606490fd5b6022916d746f74616c2e6465706f7369747360901b82526bffffffffffffffffffffffff199060601b16600e8201520190565b60015460405163bd02d0f560e01b81526004810192909252602090829060249082906001600160a01b03165afa9081156103dd5760009161165c575090565b906020823d8211611682575b8161167560209383611445565b8101031261043c57505190565b3d9150611668565b6001546001600160a01b031691823b156103e9576044600092836040519586948593632b6cd4f760e21b8552600485015260248401525af180156103dd576116cf5750565b6114a2906113e3565b908160209103126103e957516001600160a01b03811681036103e95790565b6001546001600160a01b031691823b156103e957604460009283604051958694859363ebb9d8c960e01b8552600485015260248401525af180156103dd576116cf5750565b60019060ff825460a01c1691600392838110156119025781036118bd57479260409081519461177960209687810190610ff881610fea30856115ea565b95606482111561187b578495966000955b611798575b50505050505050565b805186101561187657600586901b8101820151845486516331a9108f60e11b8152600481018390526001600160a01b03929185908290602490829087165afa90811561186b5760009384938493898594859261184a575b506117fa91926119fe565b9183918315611840575b1690f11561183557600019861461181f57868096019561178a565b634e487b7160e01b600052601160045260246000fd5b84513d6000823e3d90fd5b6108fc9250611804565b6117fa9250611865908b3d8d116108bb576108ac8183611445565b916117ef565b88513d6000823e3d90fd5b61178f565b60649084519062461bcd60e51b825280600483015260248201527f6d696e696d756d206f66203130302077656920746f20646973747269627574656044820152fd5b60405162461bcd60e51b815260206004820152601c60248201527f757365207769746864726177207768656e206e6f74207374616b6564000000006044820152606490fd5b634e487b7160e01b600052602160045260246000fd5b6001546040516378267eb560e11b81526004810192909252600091908290829060249082906001600160a01b03165afa9182156106d957809261195a57505090565b9091503d8082843e61196c8184611445565b8201602091828483031261043c57835167ffffffffffffffff948582116103bf570182601f820112156103795780519485116119ea578460051b91604051956119b786850188611445565b8652848087019383010193841161043c57508301905b8282106119db575050505090565b815181529083019083016119cd565b634e487b7160e01b82526041600452602482fd5b611a309060405160208101916d19195c1bdcda5d0b985b5bdd5b9d60921b8352602e820152602e81526101bb8161140d565b611a4960405160208101906101bb81610fea30856115ea565b908015611a9c576000199280151581850483111661181f578215611a86570204906001821115611a7f57810190811161181f5790565b5050600090565b634e487b7160e01b600052601260045260246000fd5b505050600090565b60ff60015460a01c16600381101561190257611ac05750600090565b611acb9047906119fe565b90565b15611ad557565b60405162461bcd60e51b815260206004820152600b60248201526a77726f6e6720737461746560a81b6044820152606490fd5b601f8111611b14575050565b60009060028252600080516020611c4d833981519152906020601f850160051c83019410611b5d575b601f0160051c01915b828110611b5257505050565b818155600101611b46565b9092508290611b3d565b60ff60015460a01c1660038110156119025760018114611c08578015611bd957600214611bb757604051611b9a81611429565b600d81526c7374617465206661696c75726560981b602082015290565b604051611bc381611429565b6006815265195e1a5d195960d21b602082015290565b50604051611be681611429565b6012815271616363657074696e67206465706f7369747360701b602082015290565b50604051611c1581611429565b60068152651cdd185ad95960d21b602082015290565b908060209392818452848401376000828201840152601f01601f191601019056fe405787fa12a823e0f2b7631cc41b3ba8828b3321ca811111fa75cd3aa3bb5acea26469706673582212203d776455272dce8fbdd4615573eb24e6d59d2d7b4cb6dd94fcd0e3fc80959c9664736f6c63430008100033",
  "linkReferences": {},
  "deployedLinkReferences": {}
}