{
  "_format": "hh-sol-artifact-1",
  "contractName": "StakingPool",
  "sourceName": "contracts/StakingPool.sol",
  "abi": [
    {
      "inputs": [
        {
          "internalType": "address",
          "name": "owner_",
          "type": "address"
        },
        {
          "internalType": "contract IFrensStorage",
          "name": "frensStorage_",
          "type": "address"
        }
      ],
      "stateMutability": "nonpayable",
      "type": "constructor"
    },
    {
      "anonymous": false,
      "inputs": [
        {
          "indexed": false,
          "internalType": "uint256",
          "name": "amount",
          "type": "uint256"
        },
        {
          "indexed": false,
          "internalType": "address",
          "name": "depositer",
          "type": "address"
        }
      ],
      "name": "DepositToPool",
      "type": "event"
    },
    {
      "anonymous": false,
      "inputs": [
        {
          "indexed": true,
          "internalType": "address",
          "name": "previousOwner",
          "type": "address"
        },
        {
          "indexed": true,
          "internalType": "address",
          "name": "newOwner",
          "type": "address"
        }
      ],
      "name": "OwnershipTransferred",
      "type": "event"
    },
    {
      "anonymous": false,
      "inputs": [
        {
          "indexed": false,
          "internalType": "address",
          "name": "depositContractAddress",
          "type": "address"
        },
        {
          "indexed": false,
          "internalType": "address",
          "name": "caller",
          "type": "address"
        }
      ],
      "name": "Stake",
      "type": "event"
    },
    {
      "stateMutability": "payable",
      "type": "fallback"
    },
    {
      "inputs": [
        {
          "internalType": "uint256",
          "name": "_id",
          "type": "uint256"
        }
      ],
      "name": "addToDeposit",
      "outputs": [],
      "stateMutability": "payable",
      "type": "function"
    },
    {
      "inputs": [],
      "name": "depositToPool",
      "outputs": [],
      "stateMutability": "payable",
      "type": "function"
    },
    {
      "inputs": [],
      "name": "distribute",
      "outputs": [],
      "stateMutability": "nonpayable",
      "type": "function"
    },
    {
      "inputs": [
        {
          "internalType": "uint256",
          "name": "_id",
          "type": "uint256"
        }
      ],
      "name": "getDepositAmount",
      "outputs": [
        {
          "internalType": "uint256",
          "name": "",
          "type": "uint256"
        }
      ],
      "stateMutability": "view",
      "type": "function"
    },
    {
      "inputs": [
        {
          "internalType": "uint256",
          "name": "_id",
          "type": "uint256"
        }
      ],
      "name": "getDistributableShare",
      "outputs": [
        {
          "internalType": "uint256",
          "name": "",
          "type": "uint256"
        }
      ],
      "stateMutability": "view",
      "type": "function"
    },
    {
      "inputs": [],
      "name": "getPubKey",
      "outputs": [
        {
          "internalType": "bytes",
          "name": "",
          "type": "bytes"
        }
      ],
      "stateMutability": "view",
      "type": "function"
    },
    {
      "inputs": [
        {
          "internalType": "uint256",
          "name": "_id",
          "type": "uint256"
        }
      ],
      "name": "getShare",
      "outputs": [
        {
          "internalType": "uint256",
          "name": "",
          "type": "uint256"
        }
      ],
      "stateMutability": "view",
      "type": "function"
    },
    {
      "inputs": [],
      "name": "getState",
      "outputs": [
        {
          "internalType": "string",
          "name": "",
          "type": "string"
        }
      ],
      "stateMutability": "view",
      "type": "function"
    },
    {
      "inputs": [
        {
          "internalType": "uint256",
          "name": "",
          "type": "uint256"
        }
      ],
      "name": "idsInThisPool",
      "outputs": [
        {
          "internalType": "uint256",
          "name": "",
          "type": "uint256"
        }
      ],
      "stateMutability": "view",
      "type": "function"
    },
    {
      "inputs": [],
      "name": "owner",
      "outputs": [
        {
          "internalType": "address",
          "name": "",
          "type": "address"
        }
      ],
      "stateMutability": "view",
      "type": "function"
    },
    {
      "inputs": [],
      "name": "renounceOwnership",
      "outputs": [],
      "stateMutability": "nonpayable",
      "type": "function"
    },
    {
      "inputs": [],
      "name": "rugpull",
      "outputs": [],
      "stateMutability": "nonpayable",
      "type": "function"
    },
    {
      "inputs": [
        {
          "internalType": "address",
          "name": "frensPoolShareAddress_",
          "type": "address"
        }
      ],
      "name": "setFrensPoolShare",
      "outputs": [],
      "stateMutability": "nonpayable",
      "type": "function"
    },
    {
      "inputs": [
        {
          "internalType": "bytes",
          "name": "publicKey",
          "type": "bytes"
        }
      ],
      "name": "setPubKey",
      "outputs": [],
      "stateMutability": "nonpayable",
      "type": "function"
    },
    {
      "inputs": [
        {
          "internalType": "bytes",
          "name": "pubkey",
          "type": "bytes"
        },
        {
          "internalType": "bytes",
          "name": "withdrawal_credentials",
          "type": "bytes"
        },
        {
          "internalType": "bytes",
          "name": "signature",
          "type": "bytes"
        },
        {
          "internalType": "bytes32",
          "name": "deposit_data_root",
          "type": "bytes32"
        }
      ],
      "name": "stake",
      "outputs": [],
      "stateMutability": "nonpayable",
      "type": "function"
    },
    {
      "inputs": [],
      "name": "totalDeposits",
      "outputs": [
        {
          "internalType": "uint256",
          "name": "",
          "type": "uint256"
        }
      ],
      "stateMutability": "view",
      "type": "function"
    },
    {
      "inputs": [
        {
          "internalType": "address",
          "name": "newOwner",
          "type": "address"
        }
      ],
      "name": "transferOwnership",
      "outputs": [],
      "stateMutability": "nonpayable",
      "type": "function"
    },
    {
      "inputs": [],
      "name": "unstake",
      "outputs": [],
      "stateMutability": "nonpayable",
      "type": "function"
    },
    {
      "inputs": [],
      "name": "validatorPubKey",
      "outputs": [
        {
          "internalType": "bytes",
          "name": "",
          "type": "bytes"
        }
      ],
      "stateMutability": "view",
      "type": "function"
    },
    {
      "inputs": [],
      "name": "version",
      "outputs": [
        {
          "internalType": "uint8",
          "name": "",
          "type": "uint8"
        }
      ],
      "stateMutability": "view",
      "type": "function"
    },
    {
      "inputs": [
        {
          "internalType": "uint256",
          "name": "_id",
          "type": "uint256"
        },
        {
          "internalType": "uint256",
          "name": "_amount",
          "type": "uint256"
        }
      ],
      "name": "withdraw",
      "outputs": [],
      "stateMutability": "nonpayable",
      "type": "function"
    },
    {
      "stateMutability": "payable",
      "type": "receive"
    }
  ],
  "bytecode": "0x60806040818152346200018d57808262001cc1803803809162000023828562000192565b8339810103126200018d576200003982620001b6565b6020928301516001600160a01b0380821694918590036200018d576200005f33620001cb565b600180546001600160a01b031990811687179091556004805460ff1916905584516f636f6e74726163742e6164647265737360801b8185019081526d4672656e73506f6f6c536861726560901b6030830152601e82528187019792949192906001600160401b038911848a1017620001775760248984938193828c52875190206321f8a72160e01b835260448801525afa9182156200016c5760009262000128575b50506200011a94955016906006541617600655620001cb565b51611aa99081620002188239f35b813d831162000164575b6200013e818a62000192565b81010312620001615750620001586200011a9495620001b6565b85943862000101565b80fd5b503d62000132565b86513d6000823e3d90fd5b634e487b7160e01b600052604160045260246000fd5b600080fd5b601f909101601f19168101906001600160401b038211908210176200017757604052565b51906001600160a01b03821682036200018d57565b600080546001600160a01b039283166001600160a01b03198216811783556040519093909116917f8be0079c531659141344cd1fd0a4f28419497f9722a3daafe3b4186f6b6457e091a356fe6040608081526004908136101561001d575b5050361561001b57005b005b600090813560e01c80631865c57d1461127a5780632def66201461123e5780632edaf74d146111ee578063378de45b146111a7578063441a3e7014610f605780634ad02ef114610f305780634b2b4e3614610aba57806354fd4d5014610a98578063678e300a14610a78578063715018a614610a175780637be0b4a01461093f5780637d8820971461092157806382a790cf146108e85780638620891c146106c75780638da5cb5b146106a0578063cfb5a5f814610674578063e2664e4914610624578063e32d2913146104c4578063e4fc6b6d146104a8578063f2fde38b146103cf5763f9faa104146101115750610011565b816003193601126103185760ff83541660038110156103bc57610134901561154e565b34156103855780519260208401671d1bdad95b8b9a5960c21b948582526008815261015e81611385565b5190206001546001600160a01b03959190861690813b15610380576000916044839287519485938492632b6cd4f760e21b845289840152600160248401525af1801561037557906101ce9291610366575b50835160208101918252600881526101c681611385565b5190206115b6565b93825160208101906d19195c1bdcda5d0b985b5bdd5b9d60921b825286602e820152602e81526101fd81611369565b519020816001541690813b156103625785916044839287519485938492637152429d60e11b8452898401523460248401525af1801561035857908591610340575b505061024c34600254611593565b600255600354946801000000000000000086101561032d5761027886600187989796970160035561146f565b819291549060031b600019811b9283911b1691191617905560065416803b1561032957835163ee1fe2ad60e01b815233928101928352306020840152918391839182908490829060400103925af1801561031c57610304575b50507f1ed12c9855bd60407f7650e01c62ee4f0f40744b5b17983eec349a2b4e89981a818051348152336020820152a151f35b61030d9061133f565b6103185781386102d1565b5080fd5b50505051903d90823e3d90fd5b8280fd5b634e487b7160e01b855260418352602485fd5b6103499061133f565b61035457833861023e565b8380fd5b84513d87823e3d90fd5b8580fd5b61036f9061133f565b386101af565b84513d6000823e3d90fd5b600080fd5b5162461bcd60e51b8152602081840152601260248201527136bab9ba103232b837b9b4ba1032ba3432b960711b6044820152606490fd5b634e487b7160e01b835260218452602483fd5b508234610329576020366003190112610329576001600160a01b03813581811692908390036104a457610406828654163314611503565b8215610452575060005492826bffffffffffffffffffffffff60a01b8516176000555192167f8be0079c531659141344cd1fd0a4f28419497f9722a3daafe3b4186f6b6457e0600084a3f35b608490602085519162461bcd60e51b8352820152602660248201527f4f776e61626c653a206e6577206f776e657220697320746865207a65726f206160448201526564647265737360d01b6064820152fd5b8480fd5b50346103185781600319360112610318576104c161164e565b51f35b5034610318576020806003193601126103295767ffffffffffffffff9084358281116104a457366023820112156104a45761050890369060248189013591016114bc565b9461051d60018060a01b038654163314611503565b60ff81541660038110156106115761053590156118d8565b85519283116105fe57506105538261054e600554611305565b611912565b80601f831160011461058e5750839482939492610583575b50508160011b916000199060031b1c19161760055551f35b01519050388061056b565b60058552601f19831695600080516020611a54833981519152929186905b8882106105e6575050836001959697106105cd575b505050811b0160055551f35b015160001960f88460031b161c191690553880806105c1565b806001859682949686015181550195019301906105ac565b634e487b7160e01b855260419052602484fd5b634e487b7160e01b865260218252602486fd5b503461031857816003193601126103185761064960018060a01b038354163314611503565b818080804781811561066b575b3390f1156106615751f35b51903d90823e3d90fd5b506108fc610656565b50903461069d57602036600319011261069d5750610696602092479035611812565b9051908152f35b80fd5b5034610318578160031936011261031857905490516001600160a01b039091168152602090f35b50818360208060031936011261032957813560018060a01b039182600654168187518092634f558e7960e01b82528588830152816024998a925af19081156108775788916108ae575b50156108815784818460065416885192838092630178b36760e31b8252878a8301525afa90811561087757889161084a575b5083309116036108145760ff845416600381101561080257156107648161154e565b156107fe578551908101916d19195c1bdcda5d0b985b5bdd5b9d60921b8352602e820152602e815261079581611369565b5190209060015416803b15610380576000928360449287519687958694632b6cd4f760e21b865285015234908401525af180156107f3576107e4575b506107de34600254611593565b60025551f35b6107ed9061133f565b826107d1565b82513d6000823e3d90fd5b8680fd5b634e487b7160e01b8852602185528588fd5b8360128660649389519362461bcd60e51b8552840152820152711ddc9bdb99c81cdd185ada5b99c81c1bdbdb60721b6044820152fd5b61086a9150823d8411610870575b61086281836113a1565b81019061162f565b88610742565b503d610858565b87513d8a823e3d90fd5b8360098660649389519362461bcd60e51b8552840152820152681b9bdd08195e1a5cdd60ba1b6044820152fd5b90508181813d83116108e1575b6108c581836113a1565b810103126108dd575180151581036108dd5788610710565b8780fd5b503d6108bb565b50823461032957602036600319011261032957359160035483101561069d575061091360209261146f565b90549060031b1c9051908152f35b50346103185781600319360112610318576020906002549051908152f35b50903461069d578060031936011261069d5750805160009160055461096381611305565b808452906001908181169081156109ef57506001146109a4575b505061098e826109a09403836113a1565b51918291602083526020830190611297565b0390f35b600560009081529450600080516020611a548339815191525b8286106109d7575050509181016020019161098e8261097d565b805460208787018101919091529095019481016109bd565b6109a09650859250602091509261098e9360ff191682840152151560051b820101945061097d565b5034610318578160031936011261031857600060018060a01b03610a3f818554163314611503565b81546001600160a01b031981168355925192167f8be0079c531659141344cd1fd0a4f28419497f9722a3daafe3b4186f6b6457e08284a3f35b50903461069d57602036600319011261069d57506106966020923561189b565b503461031857816003193601126103185760ff6020925460a01c169051908152f35b503461031857600319926080368501126103295767ffffffffffffffff9080358281116104a457610aee90369083016112d7565b919060249182358581116108dd57610b0990369083016112d7565b949091604435878111610f2c57610b2390369083016112d7565b919060018060a01b039b610b3b8d8d54163314611503565b6801bc16d674ec80000093844710610ef85760ff8454166003811015610ee657610b6590156118d8565b610b6d6113c3565b8051602091820120606051608020919c9114610e165750610b8c6113c3565b8b8151910120610b9d36888b6114bc565b8c815191012003610dc8575b835460ff1916600117845530600160f81b8101908110610db6578c51908c82019081528c8252610bd882611385565b610be3368d8b6114bc565b8d81519101209151902003610d73578c9d8c8c819f9d9e51818101907f65787465726e616c2e636f6e74726163742e616464726573730000000000000082526e11195c1bdcda5d10dbdb9d1c9858dd608a1b603982015260288152610c4781611369565b5190208c84600154169351809481936321f8a72160e01b83528b8301525afa9d8e15610d68578d9e610d49575b50508c1696873b15610d45578b998e519b8c9a8b998a986304512a2360e31b8a528901608090526084890190610ca992611a32565b91858884030190880152610cbc92611a32565b91848303016044850152610ccf92611a32565b606435606483015203925af18015610d3b57610d27575b505081516001600160a01b039190911681523360208201527f72b356fd889b9abd3530accd2c9f4aecbce67d70757181f9f862ac91464ce19290604090a151f35b610d309061133f565b610329578238610ce6565b84513d84823e3d90fd5b8b80fd5b610d60929e50803d106108705761086281836113a1565b9b3880610c74565b508e513d8e823e3d90fd5b508a5162461bcd60e51b81528084018b9052601e818a01527f7769746864726177616c2063726564656e7469616c206d69736d6174636800006044820152606490fd5b634e487b7160e01b8e5260118552898efd5b508a5162461bcd60e51b81528084018b90526022818a01527f7075626b657920646f6573206e6f74206d617463682073746f7265642076616c604482015261756560f01b6064820152608490fd5b8611610ed457610e2b8661054e600554611305565b858d80601f8311600114610e635791610e58575b508660011b906000198860031b1c191617600555610ba9565b905088013538610e3f565b60058152600080516020611a548339815191529290601f198216908f5b8d838310610ebb5750505010610ea1575b5050600186811b01600555610ba9565b890135600019600389901b60f8161c191690553880610e91565b8501358655600190950194938401938b9350018f610e80565b634e487b7160e01b8d5260418452888dfd5b634e487b7160e01b8e5260218552898efd5b508a5162461bcd60e51b8152602081850152600e818a01526d0dcdee840cadcdeeaced040cae8d60931b6044820152606490fd5b8980fd5b50346103185781600319360112610318576109a090610f4d6113c3565b9051918291602083526020830190611297565b508234610329578160031936011261032957803590602480359260ff8354166003811015611195576001146111535760065485516331a9108f60e11b81528481018390526001600160a01b03929160209190829082908790829088165afa80156111495784918a9161112c575b501633036110fb57865191866110088385016d19195c1bdcda5d0b985b5bdd5b9d60921b9586825284602e820152602e81526101c681611369565b106110c25790889392918851918201928352602e820152602e815261102c81611369565b5190209060015416803b1561032957604483928851948593849263ebb9d8c960e01b84528984015289888401525af180156110b8576110a5575b506002549183830392831161109257505083808093819360025581811561066b573390f1156106615751f35b601190634e487b7160e01b600052526000fd5b6110b19095919561133f565b9385611066565b85513d88823e3d90fd5b875162461bcd60e51b8152808701839052601481870152731b9bdd08195b9bdd59da0819195c1bdcda5d195960621b6044820152606490fd5b84600d856064938a519362461bcd60e51b85528401528201526c3737ba103a34329037bbb732b960991b6044820152fd5b6111439150833d85116108705761086281836113a1565b8a610fcd565b88513d8b823e3d90fd5b845162461bcd60e51b8152602081850152601b818401527f63616e6e6f74207769746864726177206f6e6365207374616b656400000000006044820152606490fd5b634e487b7160e01b8752602184528287fd5b50903461069d57602036600319011261069d57506106966020928251848101916d19195c1bdcda5d0b985b5bdd5b9d60921b835235602e820152602e81526101c681611369565b50823461032957602036600319011261032957356001600160a01b038181169182900361035457611223908454163314611503565b6bffffffffffffffffffffffff60a01b600654161760065551f35b50823461032957826003193601126103295761126460018060a01b038454163314611503565b61126c61164e565b805460ff1916600217905551f35b50346103185781600319360112610318576109a090610f4d611971565b919082519283825260005b8481106112c3575050826000602080949584010152601f8019910116010190565b6020818301810151848301820152016112a2565b9181601f840112156103805782359167ffffffffffffffff8311610380576020838186019501011161038057565b90600182811c92168015611335575b602083101461131f57565b634e487b7160e01b600052602260045260246000fd5b91607f1691611314565b67ffffffffffffffff811161135357604052565b634e487b7160e01b600052604160045260246000fd5b6060810190811067ffffffffffffffff82111761135357604052565b6040810190811067ffffffffffffffff82111761135357604052565b90601f8019910116810190811067ffffffffffffffff82111761135357604052565b60405190600082600554916113d783611305565b8083529260019081811690811561144d5750600114611400575b506113fe925003836113a1565b565b600560009081529150600080516020611a548339815191525b84831061143257506113fe9350508101602001386113f1565b81935090816020925483858a01015201910190918592611419565b9050602092506113fe94915060ff191682840152151560051b820101386113f1565b6003548110156114a65760036000527fc2575a0e9e593c00f959f8c92f12db2869c3395a3b0502d05e2516446f71f85b0190600090565b634e487b7160e01b600052603260045260246000fd5b92919267ffffffffffffffff821161135357604051916114e6601f8201601f1916602001846113a1565b829481845281830111610380578281602093846000960137010152565b1561150a57565b606460405162461bcd60e51b815260206004820152602060248201527f4f776e61626c653a2063616c6c6572206973206e6f7420746865206f776e65726044820152fd5b1561155557565b60405162461bcd60e51b81526020600482015260166024820152756e6f7420616363657074696e67206465706f7369747360501b6044820152606490fd5b919082018092116115a057565b634e487b7160e01b600052601160045260246000fd5b60015460405163bd02d0f560e01b81526004810192909252602090829060249082906001600160a01b03165afa908115611623576000916115f5575090565b906020823d821161161b575b8161160e602093836113a1565b8101031261069d57505190565b3d9150611601565b6040513d6000823e3d90fd5b9081602091031261038057516001600160a01b03811681036103805790565b60049060ff825416600392838210156117fd5760018092036117b95747606481111561177557600094835b611686575b505050509050565b8054861015611770576116988661146f565b905490821b1c60018060a01b03806006541691604092835180916331a9108f60e11b8252838983015281602460209485935afa9182156117655793600094938594938986959486958693611742575b50506116f39192611812565b9183918315611738575b1690f11561172e57506000198614611719579483019483611679565b601183634e487b7160e01b6000525260246000fd5b513d6000823e3d90fd5b6108fc92506116fd565b6116f39350908161175e92903d106108705761086281836113a1565b91386116e7565b85513d6000823e3d90fd5b61167e565b60405162461bcd60e51b8152602081840181905260248201527f6d696e696d756d206f66203130302077656920746f20646973747269627574656044820152606490fd5b60649060206040519162461bcd60e51b8352820152601c60248201527f757365207769746864726177207768656e206e6f74207374616b6564000000006044820152fd5b602190634e487b7160e01b6000525260246000fd5b6118449060405160208101916d19195c1bdcda5d0b985b5bdd5b9d60921b8352602e820152602e81526101c681611369565b90811561187e57600019918115158284048211166115a05760025491821561188557020490600182111561187e5781019081116115a05790565b5050600090565b634e487b7160e01b600052601260045260246000fd5b60ff6004541660038110156118c2576118b45750600090565b6118bf904790611812565b90565b634e487b7160e01b600052602160045260246000fd5b156118df57565b60405162461bcd60e51b815260206004820152600b60248201526a77726f6e6720737461746560a81b6044820152606490fd5b601f811161191e575050565b60009060058252600080516020611a54833981519152906020601f850160051c83019410611967575b601f0160051c01915b82811061195c57505050565b818155600101611950565b9092508290611947565b60ff6004541660038110156118c25760018114611a0f5780156119e0576002146119be576040516119a181611385565b600d81526c7374617465206661696c75726560981b602082015290565b6040516119ca81611385565b6006815265195e1a5d195960d21b602082015290565b506040516119ed81611385565b6012815271616363657074696e67206465706f7369747360701b602082015290565b50604051611a1c81611385565b60068152651cdd185ad95960d21b602082015290565b908060209392818452848401376000828201840152601f01601f191601019056fe036b6384b5eca791c62761152d0c79bb0604c104a5fb6f4eb0703f3154bb3db0a2646970667358221220729c96f85cb93059029c04d5f23600a2972944fc9b87d5886ca1f8c1cc6bebab64736f6c63430008100033",
  "linkReferences": {},
  "deployedLinkReferences": {}
}