{
  "_format": "hh-sol-artifact-1",
  "contractName": "StakingPool",
  "sourceName": "contracts/StakingPool.sol",
  "abi": [
    {
      "inputs": [
        {
          "internalType": "address",
          "name": "depositContractAddress_",
          "type": "address"
        },
        {
          "internalType": "address",
          "name": "factory_",
          "type": "address"
        },
        {
          "internalType": "address",
          "name": "frensPoolShareAddress_",
          "type": "address"
        }
      ],
      "stateMutability": "nonpayable",
      "type": "constructor"
    },
    {
      "anonymous": false,
      "inputs": [
        {
          "indexed": false,
          "internalType": "address",
          "name": "depositContractAddress",
          "type": "address"
        },
        {
          "indexed": false,
          "internalType": "address",
          "name": "caller",
          "type": "address"
        }
      ],
      "name": "Deposit",
      "type": "event"
    },
    {
      "anonymous": false,
      "inputs": [
        {
          "indexed": true,
          "internalType": "address",
          "name": "previousOwner",
          "type": "address"
        },
        {
          "indexed": true,
          "internalType": "address",
          "name": "newOwner",
          "type": "address"
        }
      ],
      "name": "OwnershipTransferred",
      "type": "event"
    },
    {
      "stateMutability": "payable",
      "type": "fallback"
    },
    {
      "inputs": [
        {
          "internalType": "uint256",
          "name": "_id",
          "type": "uint256"
        }
      ],
      "name": "addToDeposit",
      "outputs": [],
      "stateMutability": "payable",
      "type": "function"
    },
    {
      "inputs": [
        {
          "internalType": "address",
          "name": "userAddress",
          "type": "address"
        }
      ],
      "name": "deposit",
      "outputs": [],
      "stateMutability": "payable",
      "type": "function"
    },
    {
      "inputs": [
        {
          "internalType": "uint256",
          "name": "",
          "type": "uint256"
        }
      ],
      "name": "depositAmount",
      "outputs": [
        {
          "internalType": "uint256",
          "name": "",
          "type": "uint256"
        }
      ],
      "stateMutability": "view",
      "type": "function"
    },
    {
      "inputs": [],
      "name": "depositContractAddress",
      "outputs": [
        {
          "internalType": "address",
          "name": "",
          "type": "address"
        }
      ],
      "stateMutability": "view",
      "type": "function"
    },
    {
      "inputs": [],
      "name": "distribute",
      "outputs": [],
      "stateMutability": "nonpayable",
      "type": "function"
    },
    {
      "inputs": [
        {
          "internalType": "uint256",
          "name": "_id",
          "type": "uint256"
        }
      ],
      "name": "getDepositAmount",
      "outputs": [
        {
          "internalType": "uint256",
          "name": "",
          "type": "uint256"
        }
      ],
      "stateMutability": "view",
      "type": "function"
    },
    {
      "inputs": [
        {
          "internalType": "uint256",
          "name": "_id",
          "type": "uint256"
        }
      ],
      "name": "getDistributableShare",
      "outputs": [
        {
          "internalType": "uint256",
          "name": "",
          "type": "uint256"
        }
      ],
      "stateMutability": "view",
      "type": "function"
    },
    {
      "inputs": [],
      "name": "getPubKey",
      "outputs": [
        {
          "internalType": "bytes",
          "name": "",
          "type": "bytes"
        }
      ],
      "stateMutability": "view",
      "type": "function"
    },
    {
      "inputs": [
        {
          "internalType": "uint256",
          "name": "_id",
          "type": "uint256"
        }
      ],
      "name": "getShare",
      "outputs": [
        {
          "internalType": "uint256",
          "name": "",
          "type": "uint256"
        }
      ],
      "stateMutability": "view",
      "type": "function"
    },
    {
      "inputs": [],
      "name": "getState",
      "outputs": [
        {
          "internalType": "string",
          "name": "",
          "type": "string"
        }
      ],
      "stateMutability": "view",
      "type": "function"
    },
    {
      "inputs": [
        {
          "internalType": "uint256",
          "name": "",
          "type": "uint256"
        }
      ],
      "name": "idsInThisPool",
      "outputs": [
        {
          "internalType": "uint256",
          "name": "",
          "type": "uint256"
        }
      ],
      "stateMutability": "view",
      "type": "function"
    },
    {
      "inputs": [],
      "name": "owner",
      "outputs": [
        {
          "internalType": "address",
          "name": "",
          "type": "address"
        }
      ],
      "stateMutability": "view",
      "type": "function"
    },
    {
      "inputs": [],
      "name": "renounceOwnership",
      "outputs": [],
      "stateMutability": "nonpayable",
      "type": "function"
    },
    {
      "inputs": [],
      "name": "rugpull",
      "outputs": [],
      "stateMutability": "nonpayable",
      "type": "function"
    },
    {
      "inputs": [
        {
          "internalType": "bytes",
          "name": "publicKey",
          "type": "bytes"
        }
      ],
      "name": "setPubKey",
      "outputs": [],
      "stateMutability": "nonpayable",
      "type": "function"
    },
    {
      "inputs": [
        {
          "internalType": "bytes",
          "name": "pubkey",
          "type": "bytes"
        },
        {
          "internalType": "bytes",
          "name": "withdrawal_credentials",
          "type": "bytes"
        },
        {
          "internalType": "bytes",
          "name": "signature",
          "type": "bytes"
        },
        {
          "internalType": "bytes32",
          "name": "deposit_data_root",
          "type": "bytes32"
        }
      ],
      "name": "stake",
      "outputs": [],
      "stateMutability": "nonpayable",
      "type": "function"
    },
    {
      "inputs": [],
      "name": "totalDeposits",
      "outputs": [
        {
          "internalType": "uint256",
          "name": "",
          "type": "uint256"
        }
      ],
      "stateMutability": "view",
      "type": "function"
    },
    {
      "inputs": [
        {
          "internalType": "address",
          "name": "newOwner",
          "type": "address"
        }
      ],
      "name": "transferOwnership",
      "outputs": [],
      "stateMutability": "nonpayable",
      "type": "function"
    },
    {
      "inputs": [],
      "name": "unstake",
      "outputs": [],
      "stateMutability": "nonpayable",
      "type": "function"
    },
    {
      "inputs": [],
      "name": "validatorPubKey",
      "outputs": [
        {
          "internalType": "bytes",
          "name": "",
          "type": "bytes"
        }
      ],
      "stateMutability": "view",
      "type": "function"
    },
    {
      "inputs": [
        {
          "internalType": "uint256",
          "name": "_id",
          "type": "uint256"
        },
        {
          "internalType": "uint256",
          "name": "_amount",
          "type": "uint256"
        }
      ],
      "name": "withdraw",
      "outputs": [],
      "stateMutability": "nonpayable",
      "type": "function"
    },
    {
      "stateMutability": "payable",
      "type": "receive"
    }
  ],
  "bytecode": "0x60803461010257601f6200183438819003918201601f19168301916001600160401b0383118484101761010757808492606094604052833981010312610102576100488161011d565b61006060406100596020850161011d565b930161011d565b600080546001600160a01b03198082163390811784556040519691956001600160a01b0395948694859391908416907f8be0079c531659141344cd1fd0a4f28419497f9722a3daafe3b4186f6b6457e0908ba360045490610100600160a81b039060081b169060018060a81b031916178060045560081c1685600754161760075516836008541617600855169060095416176009556117029081620001328239f35b600080fd5b634e487b7160e01b600052604160045260246000fd5b51906001600160a01b03821682036101025756fe6040608081526004908136101561001d575b5050361561001b57005b005b600090813560e01c80631865c57d14610f845780632a4dbd2b14610f585780632def662014610f30578063378de45b146105ab578063441a3e7014610d865780634ad02ef114610d565780634b2b4e361461093c578063678e300a1461091c578063715018a6146108bb5780637be0b4a0146107e35780637d882097146107c557806382a790cf1461078c5780638620891c146105d357806387f8ab26146105ab5780638da5cb5b14610584578063cfb5a5f814610558578063e2664e4914610508578063e32d2913146103d3578063e4fc6b6d146103b7578063f2fde38b146102e25763f340fa01146101115750610011565b602092836003193601126102de576001600160a01b03938135858116919082900361023f5760ff83541660038110156102cb5761014e9015611241565b3415610294579081859392876009541684875180978193632798987d60e11b83525af193841561028a578694610256575b5060019084875252348486205561019834600254611286565b600255600354956801000000000000000087101561024357836101c5886001899a99989901600355611162565b819291549060031b600019811b9283911b1691191617905560095416803b1561023f5784928360649288519687958694630d4d151360e01b865285015260248401523060448401525af180156102325761021e57505051f35b6102279061104e565b61022e5751f35b5080fd5b50505051903d90823e3d90fd5b8480fd5b634e487b7160e01b865260418352602486fd5b9080945081813d8311610283575b61026e8183611094565b8101031261027f575192600161017f565b8580fd5b503d610264565b85513d88823e3d90fd5b9050606492519162461bcd60e51b8352820152601260248201527136bab9ba103232b837b9b4ba1032ba3432b960711b6044820152fd5b634e487b7160e01b865260218452602486fd5b8280fd5b5082346102de5760203660031901126102de576001600160a01b038135818116929083900361023f576103198286541633146111f6565b8215610365575060005492826bffffffffffffffffffffffff60a01b8516176000555192167f8be0079c531659141344cd1fd0a4f28419497f9722a3daafe3b4186f6b6457e0600084a3f35b608490602085519162461bcd60e51b8352820152602660248201527f4f776e61626c653a206e6577206f776e657220697320746865207a65726f206160448201526564647265737360d01b6064820152fd5b503461022e578160031936011261022e576103d06112d5565b51f35b503461022e576020806003193601126102de5767ffffffffffffffff90843582811161023f573660238201121561023f5761041790369060248189013591016111af565b9461042c60018060a01b0386541633146111f6565b85519283116104f5575061044a82610445600654611014565b61156b565b80601f8311600114610485575083948293949261047a575b50508160011b916000199060031b1c19161760065551f35b015190503880610462565b60068552601f198316956000805160206116ad833981519152929186905b8882106104dd575050836001959697106104c4575b505050811b0160065551f35b015160001960f88460031b161c191690553880806104b8565b806001859682949686015181550195019301906104a3565b634e487b7160e01b855260419052602484fd5b503461022e578160031936011261022e5761052d60018060a01b0383541633146111f6565b818080804781811561054f575b3390f1156105455751f35b51903d90823e3d90fd5b506108fc61053a565b509034610581576020366003190112610581575061057a602092479035611499565b9051908152f35b80fd5b503461022e578160031936011261022e57905490516001600160a01b039091168152602090f35b5082346102de5760203660031901126102de5760209282913581526001845220549051908152f35b508260208060031936011261069e5781359160018060a01b03858382600954166024885180948193634f558e7960e01b83528a898401525af190811561071a578791610752575b501561072457808360249260095416875193848092630178b36760e31b825289888301525afa91821561071a5787926106eb575b50309116036106b55760ff8154169060038210156106a257501561067181611241565b1561069e5760019184525280822061068a348254611286565b905561069834600254611286565b60025551f35b8380fd5b634e487b7160e01b865260219052602485fd5b60649184519162461bcd60e51b835282015260126024820152711ddc9bdb99c81cdd185ada5b99c81c1bdbdb60721b6044820152fd5b61070c919250843d8611610713575b6107048183611094565b8101906112a9565b908761064e565b503d6106fa565b86513d89823e3d90fd5b5060649184519162461bcd60e51b835282015260096024820152681b9bdd08195e1a5cdd60ba1b6044820152fd5b90508381813d8311610785575b6107698183611094565b8101031261078157518015158103610781578761061a565b8680fd5b503d61075f565b5082346102de5760203660031901126102de57359160035483101561058157506107b7602092611162565b90549060031b1c9051908152f35b503461022e578160031936011261022e576020906002549051908152f35b50903461058157806003193601126105815750805160009160065461080781611014565b808452906001908181169081156108935750600114610848575b505061083282610844940383611094565b51918291602083526020830190610fa1565b0390f35b6006600090815294506000805160206116ad8339815191525b82861061087b575050509181016020019161083282610821565b80546020878701810191909152909501948101610861565b610844965085925060209150926108329360ff191682840152151560051b8201019450610821565b503461022e578160031936011261022e57600060018060a01b036108e38185541633146111f6565b81546001600160a01b031981168355925192167f8be0079c531659141344cd1fd0a4f28419497f9722a3daafe3b4186f6b6457e08284a3f35b509034610581576020366003190112610581575061057a6020923561152e565b509034610581576003199160803684011261022e5767ffffffffffffffff843581811161069e576109709036908701610fe1565b6024969187358481116107815761098a9036908501610fe1565b9260449889359a878c11610d52576109ab8a9b9c9a98999a36908901610fe1565b926109c160018060a01b03809b541633146111f6565b6801bc16d674ec80000093844710610d1d5760ff8a54166003811015610d0b57610cd9576109ed6110b6565b8051602091820120606051608020919d9114610c085750610a0c6110b6565b8c8151910120610a1d36888b6111af565b8d815191012003610bba575b895460ff19166001178a5530600160f81b8101908110610ba8578d51908d82019081528d8252610a5882611078565b8d610a64368d8c6111af565b80519101209151902003610b65578d9e8b9d9e999a9b60079e9d9e541697883b15610b61578f516304512a2360e31b81526080818f01529b8c9a8b998a989291610ab29160848b019161168b565b91868984030190890152610ac59261168b565b928584030190850152610ad79261168b565b606435606483015203925af1801561028a57610b28575b509183917f1944debb24a9aafcf2708be964e412cdb73fc36d6ea24577fd8dcc05b93b4a44935460081c169082519182523390820152a151f35b917f1944debb24a9aafcf2708be964e412cdb73fc36d6ea24577fd8dcc05b93b4a44939195610b57869461104e565b9591935091610aee565b8a80fd5b505050867f7769746864726177616c2063726564656e7469616c206d69736d6174636800008d601e6064948d8f519562461bcd60e51b8752860152840152820152fd5b634e487b7160e01b8f5260118b52848ffd5b505050867f7075626b657920646f6573206e6f74206d617463682073746f7265642076616c8d60226084948d8f519562461bcd60e51b875286015284015282015261756560f01b6064820152fd5b8611610cc757858e610c1f82610445600654611014565b80601f8311600114610c555791610c4a575b508660011b906000198860031b1c191617600655610a29565b905088013538610c31565b600681526000805160206116ad83398151915292508e5b8b601f198b168310610cb15750505087601f19811610610c97575b5050600186811b01600655610a29565b890135600019600389901b60f8161c191690553880610c87565b830135845560019093019291820191018e610c6c565b634e487b7160e01b8e5260418a52838efd5b505050866a77726f6e6720737461746560a81b8d600b60649460208f519562461bcd60e51b8752860152840152820152fd5b634e487b7160e01b8f5260218b52848ffd5b505050866d0dcdee840cadcdeeaced040cae8d60931b8d600e60649460208f519562461bcd60e51b8752860152840152820152fd5b8980fd5b503461022e578160031936011261022e5761084490610d736110b6565b9051918291602083526020830190610fa1565b5082346102de57816003193601126102de57803560249081359260ff8154166003811015610f1e57600114610edc5760095485516331a9108f60e11b8152828101849052602094916001600160a01b039190869082908590829086165afa908115610ed2578991610eb5575b50163303610e835782875260018452848688205410610e4a575050848093600182948394845252858220610e278282546112c8565b9055610e35816002546112c8565b60025581811561054f573390f1156105455751f35b855162461bcd60e51b8152918201849052601490820152731b9bdd08195b9bdd59da0819195c1bdcda5d195960621b6044820152606490fd5b855162461bcd60e51b8152918201849052600d908201526c3737ba103a34329037bbb732b960991b6044820152606490fd5b610ecc9150863d8811610713576107048183611094565b89610df2565b88513d8b823e3d90fd5b606490601b84602088519362461bcd60e51b85528401528201527f63616e6e6f74207769746864726177206f6e6365207374616b656400000000006044820152fd5b634e487b7160e01b8752602182528387fd5b5082346102de57826003193601126102de57610f4a6112d5565b805460ff1916600217905551f35b5082346102de57826003193601126102de5754905160089190911c6001600160a01b0316815260209150f35b503461022e578160031936011261022e5761084490610d736115ca565b919082519283825260005b848110610fcd575050826000602080949584010152601f8019910116010190565b602081830181015184830182015201610fac565b9181601f8401121561100f5782359167ffffffffffffffff831161100f576020838186019501011161100f57565b600080fd5b90600182811c92168015611044575b602083101461102e57565b634e487b7160e01b600052602260045260246000fd5b91607f1691611023565b67ffffffffffffffff811161106257604052565b634e487b7160e01b600052604160045260246000fd5b6040810190811067ffffffffffffffff82111761106257604052565b90601f8019910116810190811067ffffffffffffffff82111761106257604052565b60405190600082600654916110ca83611014565b8083529260019081811690811561114057506001146110f3575b506110f192500383611094565b565b6006600090815291506000805160206116ad8339815191525b84831061112557506110f19350508101602001386110e4565b81935090816020925483858a0101520191019091859261110c565b9050602092506110f194915060ff191682840152151560051b820101386110e4565b6003548110156111995760036000527fc2575a0e9e593c00f959f8c92f12db2869c3395a3b0502d05e2516446f71f85b0190600090565b634e487b7160e01b600052603260045260246000fd5b92919267ffffffffffffffff821161106257604051916111d9601f8201601f191660200184611094565b82948184528183011161100f578281602093846000960137010152565b156111fd57565b606460405162461bcd60e51b815260206004820152602060248201527f4f776e61626c653a2063616c6c6572206973206e6f7420746865206f776e65726044820152fd5b1561124857565b60405162461bcd60e51b81526020600482015260166024820152756e6f7420616363657074696e67206465706f7369747360501b6044820152606490fd5b9190820180921161129357565b634e487b7160e01b600052601160045260246000fd5b9081602091031261100f57516001600160a01b038116810361100f5790565b9190820391821161129357565b60049060ff82541660039283821015611484576001809203611440574760648111156113fc57600094835b61130d575b505050509050565b80548610156113f75761131f86611162565b905490821b1c60018060a01b03806009541691604092835180916331a9108f60e11b8252838983015281602460209485935afa9182156113ec57936000949385949389869594869586936113c9575b505061137a9192611499565b91839183156113bf575b1690f1156113b5575060001986146113a0579483019483611300565b601183634e487b7160e01b6000525260246000fd5b513d6000823e3d90fd5b6108fc9250611384565b61137a935090816113e592903d10610713576107048183611094565b913861136e565b85513d6000823e3d90fd5b611305565b60405162461bcd60e51b8152602081840181905260248201527f6d696e696d756d206f66203130302077656920746f20646973747269627574656044820152606490fd5b60649060206040519162461bcd60e51b8352820152601c60248201527f757365207769746864726177207768656e206e6f74207374616b6564000000006044820152fd5b602190634e487b7160e01b6000525260246000fd5b600090815260016020526040812054156115295760408120546000199290811515828504821116611515576002549182156115015702049160018311156114fb5782019182116114e7575090565b634e487b7160e01b81526011600452602490fd5b50905090565b634e487b7160e01b84526012600452602484fd5b634e487b7160e01b83526011600452602483fd5b905090565b60ff600454166003811015611555576115475750600090565b611552904790611499565b90565b634e487b7160e01b600052602160045260246000fd5b601f8111611577575050565b600090600682526000805160206116ad833981519152906020601f850160051c830194106115c0575b601f0160051c01915b8281106115b557505050565b8181556001016115a9565b90925082906115a0565b60ff600454166003811015611555576001811461166857801561163957600214611617576040516115fa81611078565b600d81526c7374617465206661696c75726560981b602082015290565b60405161162381611078565b6006815265195e1a5d195960d21b602082015290565b5060405161164681611078565b6012815271616363657074696e67206465706f7369747360701b602082015290565b5060405161167581611078565b60068152651cdd185ad95960d21b602082015290565b908060209392818452848401376000828201840152601f01601f191601019056fef652222313e28459528d920b65115c16c04f3efc82aaedc97be59f3f377c0d3fa26469706673582212203877ccd48c47e48d9937486f394fa9bcc87303eff02a34b7b0bdf08184cfc6dc64736f6c63430008100033",
  "linkReferences": {},
  "deployedLinkReferences": {}
}