{
  "_format": "hh-sol-artifact-1",
  "contractName": "StakingPool",
  "sourceName": "contracts/StakingPool.sol",
  "abi": [
    {
      "inputs": [
        {
          "internalType": "address",
          "name": "depositContractAddress_",
          "type": "address"
        },
        {
          "internalType": "address",
          "name": "factory_",
          "type": "address"
        },
        {
          "internalType": "address",
          "name": "frensPoolShareAddress_",
          "type": "address"
        }
      ],
      "stateMutability": "nonpayable",
      "type": "constructor"
    },
    {
      "anonymous": false,
      "inputs": [
        {
          "indexed": false,
          "internalType": "address",
          "name": "depositContractAddress",
          "type": "address"
        },
        {
          "indexed": false,
          "internalType": "address",
          "name": "caller",
          "type": "address"
        }
      ],
      "name": "Deposit",
      "type": "event"
    },
    {
      "anonymous": false,
      "inputs": [
        {
          "indexed": true,
          "internalType": "address",
          "name": "previousOwner",
          "type": "address"
        },
        {
          "indexed": true,
          "internalType": "address",
          "name": "newOwner",
          "type": "address"
        }
      ],
      "name": "OwnershipTransferred",
      "type": "event"
    },
    {
      "stateMutability": "payable",
      "type": "fallback"
    },
    {
      "inputs": [
        {
          "internalType": "uint256",
          "name": "_id",
          "type": "uint256"
        }
      ],
      "name": "addToDeposit",
      "outputs": [],
      "stateMutability": "payable",
      "type": "function"
    },
    {
      "inputs": [
        {
          "internalType": "address",
          "name": "userAddress",
          "type": "address"
        }
      ],
      "name": "deposit",
      "outputs": [],
      "stateMutability": "payable",
      "type": "function"
    },
    {
      "inputs": [
        {
          "internalType": "uint256",
          "name": "",
          "type": "uint256"
        }
      ],
      "name": "depositAmount",
      "outputs": [
        {
          "internalType": "uint256",
          "name": "",
          "type": "uint256"
        }
      ],
      "stateMutability": "view",
      "type": "function"
    },
    {
      "inputs": [],
      "name": "depositContractAddress",
      "outputs": [
        {
          "internalType": "address",
          "name": "",
          "type": "address"
        }
      ],
      "stateMutability": "view",
      "type": "function"
    },
    {
      "inputs": [],
      "name": "distribute",
      "outputs": [],
      "stateMutability": "nonpayable",
      "type": "function"
    },
    {
      "inputs": [
        {
          "internalType": "uint256",
          "name": "_id",
          "type": "uint256"
        }
      ],
      "name": "getDepositAmount",
      "outputs": [
        {
          "internalType": "uint256",
          "name": "",
          "type": "uint256"
        }
      ],
      "stateMutability": "view",
      "type": "function"
    },
    {
      "inputs": [
        {
          "internalType": "uint256",
          "name": "_id",
          "type": "uint256"
        }
      ],
      "name": "getDistributableShare",
      "outputs": [
        {
          "internalType": "uint256",
          "name": "",
          "type": "uint256"
        }
      ],
      "stateMutability": "view",
      "type": "function"
    },
    {
      "inputs": [],
      "name": "getPubKey",
      "outputs": [
        {
          "internalType": "bytes",
          "name": "",
          "type": "bytes"
        }
      ],
      "stateMutability": "view",
      "type": "function"
    },
    {
      "inputs": [
        {
          "internalType": "uint256",
          "name": "_id",
          "type": "uint256"
        }
      ],
      "name": "getShare",
      "outputs": [
        {
          "internalType": "uint256",
          "name": "",
          "type": "uint256"
        }
      ],
      "stateMutability": "view",
      "type": "function"
    },
    {
      "inputs": [],
      "name": "getState",
      "outputs": [
        {
          "internalType": "string",
          "name": "",
          "type": "string"
        }
      ],
      "stateMutability": "view",
      "type": "function"
    },
    {
      "inputs": [
        {
          "internalType": "uint256",
          "name": "",
          "type": "uint256"
        }
      ],
      "name": "idsInThisPool",
      "outputs": [
        {
          "internalType": "uint256",
          "name": "",
          "type": "uint256"
        }
      ],
      "stateMutability": "view",
      "type": "function"
    },
    {
      "inputs": [],
      "name": "owner",
      "outputs": [
        {
          "internalType": "address",
          "name": "",
          "type": "address"
        }
      ],
      "stateMutability": "view",
      "type": "function"
    },
    {
      "inputs": [],
      "name": "renounceOwnership",
      "outputs": [],
      "stateMutability": "nonpayable",
      "type": "function"
    },
    {
      "inputs": [],
      "name": "rugpull",
      "outputs": [],
      "stateMutability": "nonpayable",
      "type": "function"
    },
    {
      "inputs": [
        {
          "internalType": "bytes",
          "name": "pubkey",
          "type": "bytes"
        },
        {
          "internalType": "bytes",
          "name": "withdrawal_credentials",
          "type": "bytes"
        },
        {
          "internalType": "bytes",
          "name": "signature",
          "type": "bytes"
        },
        {
          "internalType": "bytes32",
          "name": "deposit_data_root",
          "type": "bytes32"
        }
      ],
      "name": "stake",
      "outputs": [],
      "stateMutability": "nonpayable",
      "type": "function"
    },
    {
      "inputs": [],
      "name": "totalDeposits",
      "outputs": [
        {
          "internalType": "uint256",
          "name": "",
          "type": "uint256"
        }
      ],
      "stateMutability": "view",
      "type": "function"
    },
    {
      "inputs": [
        {
          "internalType": "address",
          "name": "newOwner",
          "type": "address"
        }
      ],
      "name": "transferOwnership",
      "outputs": [],
      "stateMutability": "nonpayable",
      "type": "function"
    },
    {
      "inputs": [],
      "name": "unstake",
      "outputs": [],
      "stateMutability": "nonpayable",
      "type": "function"
    },
    {
      "inputs": [],
      "name": "validatorPubKey",
      "outputs": [
        {
          "internalType": "bytes",
          "name": "",
          "type": "bytes"
        }
      ],
      "stateMutability": "view",
      "type": "function"
    },
    {
      "inputs": [
        {
          "internalType": "uint256",
          "name": "_id",
          "type": "uint256"
        },
        {
          "internalType": "uint256",
          "name": "_amount",
          "type": "uint256"
        }
      ],
      "name": "withdraw",
      "outputs": [],
      "stateMutability": "nonpayable",
      "type": "function"
    },
    {
      "stateMutability": "payable",
      "type": "receive"
    }
  ],
  "bytecode": "0x60803461010057601f61167138819003918201601f19168301916001600160401b0383118484101761010557808492606094604052833981010312610100576100478161011b565b61005f60406100586020850161011b565b930161011b565b600080546001600160a01b03198082163390811784556040519691956001600160a01b0395948694859391908416907f8be0079c531659141344cd1fd0a4f28419497f9722a3daafe3b4186f6b6457e0908ba360045490610100600160a81b039060081b169060018060a81b031916178060045560081c16856007541617600755168360085416176008551690600954161760095561154190816101308239f35b600080fd5b634e487b7160e01b600052604160045260246000fd5b51906001600160a01b03821682036101005756fe60806040526004361015610018575b361561001657005b005b6000803560e01c80631865c57d14610f165780632a4dbd2b14610ee95780632def662014610ebe578063378de45b14610472578063441a3e7014610d045780634ad02ef114610c455780634b2b4e361461080f578063678e300a146107f0578063715018a61461078b5780637be0b4a0146106b75780637d8820971461069957806382a790cf1461065f5780638620891c1461049c57806387f8ab26146104725780638da5cb5b1461044b578063cfb5a5f814610423578063e2664e49146103cf578063e4fc6b6d146103b1578063f2fde38b146102de5763f340fa0114610100575061000e565b60209081600319360112610226576001600160a01b0390600435828116908190036102da5760ff6004541660038110156102c65761013e90156110df565b341561028c57838394839460095416600460405180968193632798987d60e11b83525af192831561028157849361024d575b506001908385525234604084205561018a34600254611124565b600255600354936801000000000000000085101561023957826101b4866001879801600355611047565b819291549060031b600019811b9283911b169119161790556009541691823b156102345760648492836040519586948593630d4d151360e01b8552600485015260248401523060448401525af1801561022957610212575b50604051f35b61021b90610fdf565b61022657803861020c565b80fd5b6040513d84823e3d90fd5b505050fd5b634e487b7160e01b84526041600452602484fd5b9080935081813d831161027a575b6102658183611025565b810103126102765751916001610170565b8380fd5b503d61025b565b6040513d86823e3d90fd5b60405162461bcd60e51b815260048101859052601260248201527136bab9ba103232b837b9b4ba1032ba3432b960711b6044820152606490fd5b634e487b7160e01b83526021600452602483fd5b5080fd5b5034610226576020366003190112610226576001600160a01b03600435818116908190036103ad57610314828454163314611094565b801561035957600080546001600160a01b03198116831782556040519316907f8be0079c531659141344cd1fd0a4f28419497f9722a3daafe3b4186f6b6457e09084a3f35b60405162461bcd60e51b815260206004820152602660248201527f4f776e61626c653a206e6577206f776e657220697320746865207a65726f206160448201526564647265737360d01b6064820152608490fd5b8280fd5b50346102265780600319360112610226576103ca611173565b604051f35b50346102265780600319360112610226576103f460018060a01b038254163314611094565b808080804781811561041a575b3390f11561040e57604051f35b604051903d90823e3d90fd5b506108fc610401565b503461022657602036600319011261022657602061044347600435611337565b604051908152f35b5034610226578060031936011261022657546040516001600160a01b039091168152602090f35b50346102265760203660031901126102265760406020916004358152600183522054604051908152f35b506020806003193601126102da576004359060018060a01b0383828260095416602460405180948193634f558e7960e01b83528960048401525af19081156105e9578591610625575b50156105f45780826024926009541660405193848092630178b36760e31b82528860048301525afa9182156105e95785926105ba575b50309116036105815760ff60045416600381101561056d571561053d816110df565b156103ad5760019183525260408120610557348254611124565b905561056534600254611124565b600255604051f35b634e487b7160e01b84526021600452602484fd5b6064906040519062461bcd60e51b8252600482015260126024820152711ddc9bdb99c81cdd185ada5b99c81c1bdbdb60721b6044820152fd5b6105db919250833d85116105e2575b6105d38183611025565b810190611147565b903861051b565b503d6105c9565b6040513d87823e3d90fd5b60405162461bcd60e51b81526004810183905260096024820152681b9bdd08195e1a5cdd60ba1b6044820152606490fd5b90508281813d8311610658575b61063c8183611025565b810103126106545751801515810361065457386104e5565b8480fd5b503d610632565b5034610226576020366003190112610226576004359060035482101561022657602061068a83611047565b90549060031b1c604051908152f35b50346102265780600319360112610226576020600254604051908152f35b503461022657806003193601126102265760405160006006546106d981610fa5565b80845290600190818116908115610764575060011461071b575b6107178461070381860382611025565b604051918291602083526020830190610f32565b0390f35b6006600090815292506000805160206114ec8339815191525b82841061074c575050508101602001610703826106f3565b80546020858701810191909152909301928101610734565b60ff191660208087019190915292151560051b8501909201925061070391508390506106f3565b503461022657806003193601126102265780546001600160a01b03906107b49082163314611094565b600080546001600160a01b03198116825560405192167f8be0079c531659141344cd1fd0a4f28419497f9722a3daafe3b4186f6b6457e08284a3f35b50346102265760203660031901126102265760206104436004356113cc565b50346102265760803660031901126102265760043567ffffffffffffffff81116102da57610841903690600401610f72565b909160243567ffffffffffffffff81116102da57610863903690600401610f72565b9060443567ffffffffffffffff811161027657610884903690600401610f72565b61089860018060a01b038654163314611094565b6801bc16d674ec8000004710610c0f5760045460ff81166003811015610bfb57610bc85760ff191660011760045530600160f81b8101908110610bb457604051906020820152602081526108eb81611009565b67ffffffffffffffff8511610ba057604051610911601f8701601f191660200182611025565b8581523686860111610b9c576020810190868683378760208883010152519020906020815191012003610b57576007546001600160a01b031692833b15610b53576801bc16d674ec800000876109b5610991958997956109a38d966040519b8c9a8b998a986304512a2360e31b8a52608060048b015260848a01916114ca565b878103600319016024890152916114ca565b848103600319016044860152916114ca565b606435606483015203925af1801561022957610b44575b509067ffffffffffffffff8111610b30576109e8600654610fa5565b601f8111610ade575b5081601f8211600114610a6f578293829392610a64575b50508160011b916000199060031b1c1916176006555b6004546040805160089290921c6001600160a01b031682523360208301527f1944debb24a9aafcf2708be964e412cdb73fc36d6ea24577fd8dcc05b93b4a4491a1604051f35b013590503880610a08565b60068352601f198216936000805160206114ec83398151915291845b868110610ac65750836001959610610aac575b505050811b01600655610a1e565b0135600019600384901b60f8161c19169055388080610a9e565b90926020600181928686013581550194019101610a8b565b600683526000805160206114ec833981519152601f830160051c81019160208410610b26575b601f0160051c01905b818110610b1a57506109f1565b60008155600101610b0d565b9091508190610b04565b634e487b7160e01b82526041600452602482fd5b610b4d90610fdf565b386109cc565b8580fd5b60405162461bcd60e51b815260206004820152601e60248201527f7769746864726177616c2063726564656e7469616c206d69736d6174636800006044820152606490fd5b8680fd5b634e487b7160e01b86526041600452602486fd5b634e487b7160e01b86526011600452602486fd5b60405162461bcd60e51b815260206004820152600b60248201526a77726f6e6720737461746560a81b6044820152606490fd5b634e487b7160e01b87526021600452602487fd5b60405162461bcd60e51b815260206004820152600e60248201526d0dcdee840cadcdeeaced040cae8d60931b6044820152606490fd5b50346102265780600319360112610226576040519080600654610c6781610fa5565b80855291600191808316908115610cda5750600114610c91575b6107178561070381870382611025565b9250600683526000805160206114ec8339815191525b828410610cc257505050810160200161070382610717610c81565b80546020858701810191909152909301928101610ca7565b8695506107179693506020925061070394915060ff191682840152151560051b8201019293610c81565b5034610226576040366003190112610226576004359060249182359060ff600454166003811015610eaa57600114610e66576009546040516331a9108f60e11b815260048101839052602092916001600160a01b039190849082908990829086165afa908115610e5b578691610e3e575b50163303610e0a578084526001825282604085205410610dcf5783809360018294839484525260408220610daa828254611166565b9055610db881600254611166565b60025581811561041a573390f11561040e57604051f35b60405162461bcd60e51b815260048101839052601481870152731b9bdd08195b9bdd59da0819195c1bdcda5d195960621b6044820152606490fd5b60405162461bcd60e51b815260048101839052600d818701526c3737ba103a34329037bbb732b960991b6044820152606490fd5b610e559150843d86116105e2576105d38183611025565b38610d75565b6040513d88823e3d90fd5b60405162461bcd60e51b815260206004820152601b818601527f63616e6e6f74207769746864726177206f6e6365207374616b656400000000006044820152606490fd5b5050634e487b7160e01b8252506021600452fd5b5034610226578060031936011261022657610ed7611173565b600260ff196004541617600455604051f35b503461022657806003193601126102265760045460405160089190911c6001600160a01b03168152602090f35b5034610226578060031936011261022657610717610703611409565b919082519283825260005b848110610f5e575050826000602080949584010152601f8019910116010190565b602081830181015184830182015201610f3d565b9181601f84011215610fa05782359167ffffffffffffffff8311610fa05760208381860195010111610fa057565b600080fd5b90600182811c92168015610fd5575b6020831014610fbf57565b634e487b7160e01b600052602260045260246000fd5b91607f1691610fb4565b67ffffffffffffffff8111610ff357604052565b634e487b7160e01b600052604160045260246000fd5b6040810190811067ffffffffffffffff821117610ff357604052565b90601f8019910116810190811067ffffffffffffffff821117610ff357604052565b60035481101561107e5760036000527fc2575a0e9e593c00f959f8c92f12db2869c3395a3b0502d05e2516446f71f85b0190600090565b634e487b7160e01b600052603260045260246000fd5b1561109b57565b606460405162461bcd60e51b815260206004820152602060248201527f4f776e61626c653a2063616c6c6572206973206e6f7420746865206f776e65726044820152fd5b156110e657565b60405162461bcd60e51b81526020600482015260166024820152756e6f7420616363657074696e67206465706f7369747360501b6044820152606490fd5b9190820180921161113157565b634e487b7160e01b600052601160045260246000fd5b90816020910312610fa057516001600160a01b0381168103610fa05790565b9190820391821161113157565b60049060ff825416600392838210156113225760018092036112de5747606481111561129a57600094835b6111ab575b505050509050565b8054861015611295576111bd86611047565b905490821b1c60018060a01b03806009541691604092835180916331a9108f60e11b8252838983015281602460209485935afa91821561128a5793600094938594938986959486958693611267575b50506112189192611337565b918391831561125d575b1690f1156112535750600019861461123e57948301948361119e565b601183634e487b7160e01b6000525260246000fd5b513d6000823e3d90fd5b6108fc9250611222565b6112189350908161128392903d106105e2576105d38183611025565b913861120c565b85513d6000823e3d90fd5b6111a3565b60405162461bcd60e51b8152602081840181905260248201527f6d696e696d756d206f66203130302077656920746f20646973747269627574656044820152606490fd5b60649060206040519162461bcd60e51b8352820152601c60248201527f757365207769746864726177207768656e206e6f74207374616b6564000000006044820152fd5b602190634e487b7160e01b6000525260246000fd5b600090815260016020526040812054156113c757604081205460001992908115158285048211166113b35760025491821561139f570204916001831115611399578201918211611385575090565b634e487b7160e01b81526011600452602490fd5b50905090565b634e487b7160e01b84526012600452602484fd5b634e487b7160e01b83526011600452602483fd5b905090565b60ff6004541660038110156113f3576113e55750600090565b6113f0904790611337565b90565b634e487b7160e01b600052602160045260246000fd5b60ff6004541660038110156113f357600181146114a7578015611478576002146114565760405161143981611009565b600d81526c7374617465206661696c75726560981b602082015290565b60405161146281611009565b6006815265195e1a5d195960d21b602082015290565b5060405161148581611009565b6012815271616363657074696e67206465706f7369747360701b602082015290565b506040516114b481611009565b60068152651cdd185ad95960d21b602082015290565b908060209392818452848401376000828201840152601f01601f191601019056fef652222313e28459528d920b65115c16c04f3efc82aaedc97be59f3f377c0d3fa2646970667358221220438bbfabffbd7eb1e6b248c7b7818439879e7b436014bc7b05489b5031b52bb364736f6c63430008100033",
  "linkReferences": {},
  "deployedLinkReferences": {}
}