{
  "_format": "hh-sol-artifact-1",
  "contractName": "StakingPool",
  "sourceName": "contracts/StakingPool.sol",
  "abi": [
    {
      "inputs": [
        {
          "internalType": "address",
          "name": "owner_",
          "type": "address"
        },
        {
          "internalType": "contract IFrensStorage",
          "name": "frensStorage_",
          "type": "address"
        }
      ],
      "stateMutability": "nonpayable",
      "type": "constructor"
    },
    {
      "anonymous": false,
      "inputs": [
        {
          "indexed": false,
          "internalType": "uint256",
          "name": "amount",
          "type": "uint256"
        },
        {
          "indexed": false,
          "internalType": "address",
          "name": "depositer",
          "type": "address"
        }
      ],
      "name": "DepositToPool",
      "type": "event"
    },
    {
      "anonymous": false,
      "inputs": [
        {
          "indexed": true,
          "internalType": "address",
          "name": "previousOwner",
          "type": "address"
        },
        {
          "indexed": true,
          "internalType": "address",
          "name": "newOwner",
          "type": "address"
        }
      ],
      "name": "OwnershipTransferred",
      "type": "event"
    },
    {
      "anonymous": false,
      "inputs": [
        {
          "indexed": false,
          "internalType": "address",
          "name": "depositContractAddress",
          "type": "address"
        },
        {
          "indexed": false,
          "internalType": "address",
          "name": "caller",
          "type": "address"
        }
      ],
      "name": "Stake",
      "type": "event"
    },
    {
      "stateMutability": "payable",
      "type": "fallback"
    },
    {
      "inputs": [
        {
          "internalType": "uint256",
          "name": "_id",
          "type": "uint256"
        }
      ],
      "name": "addToDeposit",
      "outputs": [],
      "stateMutability": "payable",
      "type": "function"
    },
    {
      "inputs": [
        {
          "internalType": "uint256",
          "name": "",
          "type": "uint256"
        }
      ],
      "name": "depositAmount",
      "outputs": [
        {
          "internalType": "uint256",
          "name": "",
          "type": "uint256"
        }
      ],
      "stateMutability": "view",
      "type": "function"
    },
    {
      "inputs": [],
      "name": "depositToPool",
      "outputs": [],
      "stateMutability": "payable",
      "type": "function"
    },
    {
      "inputs": [],
      "name": "distribute",
      "outputs": [],
      "stateMutability": "nonpayable",
      "type": "function"
    },
    {
      "inputs": [
        {
          "internalType": "uint256",
          "name": "_id",
          "type": "uint256"
        }
      ],
      "name": "getDepositAmount",
      "outputs": [
        {
          "internalType": "uint256",
          "name": "",
          "type": "uint256"
        }
      ],
      "stateMutability": "view",
      "type": "function"
    },
    {
      "inputs": [
        {
          "internalType": "uint256",
          "name": "_id",
          "type": "uint256"
        }
      ],
      "name": "getDistributableShare",
      "outputs": [
        {
          "internalType": "uint256",
          "name": "",
          "type": "uint256"
        }
      ],
      "stateMutability": "view",
      "type": "function"
    },
    {
      "inputs": [],
      "name": "getPubKey",
      "outputs": [
        {
          "internalType": "bytes",
          "name": "",
          "type": "bytes"
        }
      ],
      "stateMutability": "view",
      "type": "function"
    },
    {
      "inputs": [
        {
          "internalType": "uint256",
          "name": "_id",
          "type": "uint256"
        }
      ],
      "name": "getShare",
      "outputs": [
        {
          "internalType": "uint256",
          "name": "",
          "type": "uint256"
        }
      ],
      "stateMutability": "view",
      "type": "function"
    },
    {
      "inputs": [],
      "name": "getState",
      "outputs": [
        {
          "internalType": "string",
          "name": "",
          "type": "string"
        }
      ],
      "stateMutability": "view",
      "type": "function"
    },
    {
      "inputs": [
        {
          "internalType": "uint256",
          "name": "",
          "type": "uint256"
        }
      ],
      "name": "idsInThisPool",
      "outputs": [
        {
          "internalType": "uint256",
          "name": "",
          "type": "uint256"
        }
      ],
      "stateMutability": "view",
      "type": "function"
    },
    {
      "inputs": [],
      "name": "owner",
      "outputs": [
        {
          "internalType": "address",
          "name": "",
          "type": "address"
        }
      ],
      "stateMutability": "view",
      "type": "function"
    },
    {
      "inputs": [],
      "name": "renounceOwnership",
      "outputs": [],
      "stateMutability": "nonpayable",
      "type": "function"
    },
    {
      "inputs": [],
      "name": "rugpull",
      "outputs": [],
      "stateMutability": "nonpayable",
      "type": "function"
    },
    {
      "inputs": [
        {
          "internalType": "address",
          "name": "frensPoolShareAddress_",
          "type": "address"
        }
      ],
      "name": "setFrensPoolShare",
      "outputs": [],
      "stateMutability": "nonpayable",
      "type": "function"
    },
    {
      "inputs": [
        {
          "internalType": "bytes",
          "name": "publicKey",
          "type": "bytes"
        }
      ],
      "name": "setPubKey",
      "outputs": [],
      "stateMutability": "nonpayable",
      "type": "function"
    },
    {
      "inputs": [
        {
          "internalType": "bytes",
          "name": "pubkey",
          "type": "bytes"
        },
        {
          "internalType": "bytes",
          "name": "withdrawal_credentials",
          "type": "bytes"
        },
        {
          "internalType": "bytes",
          "name": "signature",
          "type": "bytes"
        },
        {
          "internalType": "bytes32",
          "name": "deposit_data_root",
          "type": "bytes32"
        }
      ],
      "name": "stake",
      "outputs": [],
      "stateMutability": "nonpayable",
      "type": "function"
    },
    {
      "inputs": [],
      "name": "totalDeposits",
      "outputs": [
        {
          "internalType": "uint256",
          "name": "",
          "type": "uint256"
        }
      ],
      "stateMutability": "view",
      "type": "function"
    },
    {
      "inputs": [
        {
          "internalType": "address",
          "name": "newOwner",
          "type": "address"
        }
      ],
      "name": "transferOwnership",
      "outputs": [],
      "stateMutability": "nonpayable",
      "type": "function"
    },
    {
      "inputs": [],
      "name": "unstake",
      "outputs": [],
      "stateMutability": "nonpayable",
      "type": "function"
    },
    {
      "inputs": [],
      "name": "validatorPubKey",
      "outputs": [
        {
          "internalType": "bytes",
          "name": "",
          "type": "bytes"
        }
      ],
      "stateMutability": "view",
      "type": "function"
    },
    {
      "inputs": [],
      "name": "version",
      "outputs": [
        {
          "internalType": "uint8",
          "name": "",
          "type": "uint8"
        }
      ],
      "stateMutability": "view",
      "type": "function"
    },
    {
      "inputs": [
        {
          "internalType": "uint256",
          "name": "_id",
          "type": "uint256"
        },
        {
          "internalType": "uint256",
          "name": "_amount",
          "type": "uint256"
        }
      ],
      "name": "withdraw",
      "outputs": [],
      "stateMutability": "nonpayable",
      "type": "function"
    },
    {
      "stateMutability": "payable",
      "type": "receive"
    }
  ],
  "bytecode": "0x60806040818152346200018d57808262001b4d803803809162000023828562000192565b8339810103126200018d576200003982620001b6565b6020928301516001600160a01b0380821694918590036200018d576200005f33620001cb565b600180546001600160a01b031990811687179091556005805460ff1916905584516f636f6e74726163742e6164647265737360801b8185019081526d4672656e73506f6f6c536861726560901b6030830152601e82528187019792949192906001600160401b038911848a1017620001775760248984938193828c52875190206321f8a72160e01b835260448801525afa9182156200016c5760009262000128575b50506200011a94955016906007541617600755620001cb565b516119359081620002188239f35b813d831162000164575b6200013e818a62000192565b81010312620001615750620001586200011a9495620001b6565b85943862000101565b80fd5b503d62000132565b86513d6000823e3d90fd5b634e487b7160e01b600052604160045260246000fd5b600080fd5b601f909101601f19168101906001600160401b038211908210176200017757604052565b51906001600160a01b03821682036200018d57565b600080546001600160a01b039283166001600160a01b03198216811783556040519093909116917f8be0079c531659141344cd1fd0a4f28419497f9722a3daafe3b4186f6b6457e091a356fe60806040526004361015610018575b361561001657005b005b6000803560e01c80631865c57d1461118c5780632def6620146111615780632edaf74d1461110e578063378de45b1461069e578063441a3e7014610f5f5780634ad02ef114610f435780634b2b4e3614610a4957806354fd4d5014610a26578063678e300a14610a07578063715018a6146109a25780637be0b4a0146108ce5780637d882097146108b057806382a790cf146108775780638620891c146106c857806387f8ab261461069e5780638da5cb5b14610677578063cfb5a5f81461064f578063e2664e49146105fb578063e32d291314610495578063e4fc6b6d14610477578063f2fde38b146103a85763f9faa10414610116575061000e565b806003193601126103a55760ff6005541660038110156103915761013a9015611448565b341561035757604051602090818101671d1bdad95b8b9a5960c21b91828252600881526101668161127f565b5190206001546001600160a01b0392918591841690813b15610353578291604483926040519485938492632b6cd4f760e21b84526004840152600160248401525af180156102e45761033f575b5050604051838101918252600881526101cb8161127f565b5190208282600154169160246040518094819363bd02d0f560e01b835260048301525afa908115610334578491610303575b50808452600283523460408520556102173460035461148d565b600355600454680100000000000000008110156102ef579061024182600187959401600455611369565b819291549060031b600019811b9283911b1691191617905560075416803b156102e05760405163ee1fe2ad60e01b81523360048201523060248201529082908290604490829084905af180156102e4576102cc575b507f1ed12c9855bd60407f7650e01c62ee4f0f40744b5b17983eec349a2b4e89981a6040838151903482523390820152a1604051f35b6102d590611255565b6102e0578138610296565b5080fd5b6040513d84823e3d90fd5b634e487b7160e01b85526041600452602485fd5b90508281813d831161032d575b61031a818361129b565b810103126103295751386101fd565b8380fd5b503d610310565b6040513d86823e3d90fd5b61034890611255565b6103295783386101b3565b8280fd5b60405162461bcd60e51b815260206004820152601260248201527136bab9ba103232b837b9b4ba1032ba3432b960711b6044820152606490fd5b634e487b7160e01b82526021600452602482fd5b80fd5b50346103a55760203660031901126103a5576001600160a01b0360043581811690819003610353576103de8284541633146113fd565b801561042357600080546001600160a01b03198116831782556040519316907f8be0079c531659141344cd1fd0a4f28419497f9722a3daafe3b4186f6b6457e09084a3f35b60405162461bcd60e51b815260206004820152602660248201527f4f776e61626c653a206e6577206f776e657220697320746865207a65726f206160448201526564647265737360d01b6064820152608490fd5b50346103a557806003193601126103a5576104906114dc565b604051f35b50346103a557602090816003193601126103a55767ffffffffffffffff6004358181116103535736602382011215610353576104db9036906024816004013591016113b6565b926104f060018060a01b0384541633146113fd565b60ff6005541660038110156105e7576105099015611764565b83519182116105d3576105268261052160065461121b565b61179e565b80601f831160011461056257508293829392610557575b50508160011b916000199060031b1c191617600655604051f35b01519050388061053d565b60068452601f198316946000805160206118e0833981519152929185905b8782106105bb5750508360019596106105a2575b505050811b01600655604051f35b015160001960f88460031b161c19169055388080610594565b80600185968294968601518155019501930190610580565b634e487b7160e01b83526041600452602483fd5b634e487b7160e01b84526021600452602484fd5b50346103a557806003193601126103a55761062060018060a01b0382541633146113fd565b8080808047818115610646575b3390f11561063a57604051f35b604051903d90823e3d90fd5b506108fc61062d565b50346103a55760203660031901126103a557602061066f476004356116a8565b604051908152f35b50346103a557806003193601126103a557546040516001600160a01b039091168152602090f35b50346103a55760203660031901126103a55760406020916004358152600283522054604051908152f35b506020806003193601126102e0576004359060018060a01b0383828260075416602460405180948193634f558e7960e01b83528960048401525af190811561080157859161083d575b501561080c5780826024926007541660405193848092630178b36760e31b82528860048301525afa9182156108015785926107d2575b50309116036107995760ff6005541660038110156105e7571561076981611448565b15610353576002918352526040812061078334825461148d565b90556107913460035461148d565b600355604051f35b6064906040519062461bcd60e51b8252600482015260126024820152711ddc9bdb99c81cdd185ada5b99c81c1bdbdb60721b6044820152fd5b6107f3919250833d85116107fa575b6107eb818361129b565b8101906114b0565b9038610747565b503d6107e1565b6040513d87823e3d90fd5b60405162461bcd60e51b81526004810183905260096024820152681b9bdd08195e1a5cdd60ba1b6044820152606490fd5b90508281813d8311610870575b610854818361129b565b8101031261086c5751801515810361086c5738610711565b8480fd5b503d61084a565b50346103a55760203660031901126103a557600435906004548210156103a55760206108a283611369565b90546040519160031b1c8152f35b50346103a557806003193601126103a5576020600354604051908152f35b50346103a557806003193601126103a55760405160006006546108f08161121b565b8084529060019081811690811561097b5750600114610932575b61092e8461091a8186038261129b565b6040519182916020835260208301906111a8565b0390f35b6006600090815292506000805160206118e08339815191525b82841061096357505050810160200161091a8261090a565b8054602085870181019190915290930192810161094b565b60ff191660208087019190915292151560051b8501909201925061091a915083905061090a565b50346103a557806003193601126103a55780546001600160a01b03906109cb90821633146113fd565b600080546001600160a01b03198116825560405192167f8be0079c531659141344cd1fd0a4f28419497f9722a3daafe3b4186f6b6457e08284a3f35b50346103a55760203660031901126103a557602061066f60043561173d565b50346103a557806003193601126103a55760ff6020915460a01c16604051908152f35b50346103a55760803660031901126103a55767ffffffffffffffff60043581811161035357610a7c9036906004016111e8565b60243583811161086c57610a949036906004016111e8565b92604435858111610d3557610aad9036906004016111e8565b9093610ac360018060a01b0389541633146113fd565b6801bc16d674ec8000004710610f0d5760ff600554166003811015610ef957610aec9015611764565b610af46112bd565b805160209091012060605160802014610e3a57610b0f6112bd565b60208151910120610b213683866113b6565b6020815191012003610dea575b600160ff196005541617600555600160f81b3001803011610dd657604051906020820190815260208252610b618261127f565b610b6c3689886113b6565b602081519101209151902003610d9157604051967f65787465726e616c2e636f6e74726163742e616464726573730000000000000060208901526e11195c1bdcda5d10dbdb9d1c9858dd608a1b60398901526028885287606081011090606089011117610d7d5760608701604081905287516020808a01919091206001546321f8a72160e01b845260648b01919091528a9796959493929060249082906001600160a01b03165afa978815610d72578698610d39575b506001600160a01b03881693843b15610d3557610c70956801bc16d674ec80000093610c82610c94936040519b8c9a8b998a986304512a2360e31b8a52608060048b015260848a01916118be565b878103600319016024890152916118be565b848103600319016044860152916118be565b606435606483015203925af18015610d2a57610cf3575b50604080516001600160a01b0390921682523360208301527f72b356fd889b9abd3530accd2c9f4aecbce67d70757181f9f862ac91464ce1929190819081015b0390a1604051f35b7f72b356fd889b9abd3530accd2c9f4aecbce67d70757181f9f862ac91464ce1929192610d22610ceb92611255565b929150610cab565b6040513d85823e3d90fd5b8680fd5b610d6491985060203d602011610d6b575b606081610d5a829383860161129b565b83010191016114b0565b9638610c22565b503d610d4a565b6040513d88823e3d90fd5b634e487b7160e01b88526041600452602488fd5b60405162461bcd60e51b815260206004820152601e60248201527f7769746864726177616c2063726564656e7469616c206d69736d6174636800006044820152606490fd5b634e487b7160e01b89526011600452602489fd5b60405162461bcd60e51b815260206004820152602260248201527f7075626b657920646f6573206e6f74206d617463682073746f7265642076616c604482015261756560f01b6064820152608490fd5b868111610d7d57610e508161052160065461121b565b8088601f8211600114610e88578991610e7d575b508160011b906000198360031b1c191617600655610b2e565b905083013538610e64565b60068a526000805160206118e08339815191529150895b601f1984168110610ee1575082601f19811610610ec7575b5050600181811b01600655610b2e565b840135600019600384901b60f8161c191690553880610eb7565b90916020600181928589013581550193019101610e9f565b634e487b7160e01b89526021600452602489fd5b60405162461bcd60e51b815260206004820152600e60248201526d0dcdee840cadcdeeaced040cae8d60931b6044820152606490fd5b50346103a557806003193601126103a55761092e61091a6112bd565b50346103a55760403660031901126103a5576004359060249182359060ff6005541660038110156110fa576001146110b6576007546040516331a9108f60e11b815260048101839052602092916001600160a01b039190849082908990829086165afa908115610d72578691611099575b5016330361106557808452600282528260408520541061102a57838093600282948394845252604082206110058282546114cf565b9055611013816003546114cf565b600355818115610646573390f11561063a57604051f35b60405162461bcd60e51b815260048101839052601481870152731b9bdd08195b9bdd59da0819195c1bdcda5d195960621b6044820152606490fd5b60405162461bcd60e51b815260048101839052600d818701526c3737ba103a34329037bbb732b960991b6044820152606490fd5b6110b09150843d86116107fa576107eb818361129b565b38610fd0565b60405162461bcd60e51b815260206004820152601b818601527f63616e6e6f74207769746864726177206f6e6365207374616b656400000000006044820152606490fd5b5050634e487b7160e01b8252506021600452fd5b50346103a55760203660031901126103a5576004356001600160a01b0381811691829003610353576111449083541633146113fd565b6bffffffffffffffffffffffff60a01b6007541617600755604051f35b50346103a557806003193601126103a55761117a6114dc565b600260ff196005541617600555604051f35b50346103a557806003193601126103a55761092e61091a6117fd565b919082519283825260005b8481106111d4575050826000602080949584010152601f8019910116010190565b6020818301810151848301820152016111b3565b9181601f840112156112165782359167ffffffffffffffff8311611216576020838186019501011161121657565b600080fd5b90600182811c9216801561124b575b602083101461123557565b634e487b7160e01b600052602260045260246000fd5b91607f169161122a565b67ffffffffffffffff811161126957604052565b634e487b7160e01b600052604160045260246000fd5b6040810190811067ffffffffffffffff82111761126957604052565b90601f8019910116810190811067ffffffffffffffff82111761126957604052565b60405190600082600654916112d18361121b565b8083529260019081811690811561134757506001146112fa575b506112f89250038361129b565b565b6006600090815291506000805160206118e08339815191525b84831061132c57506112f89350508101602001386112eb565b81935090816020925483858a01015201910190918592611313565b9050602092506112f894915060ff191682840152151560051b820101386112eb565b6004548110156113a05760046000527f8a35acfbc15ff81a39ae7d344fd709f28e8600b4aa8c65c6b64bfe7fe36bd19b0190600090565b634e487b7160e01b600052603260045260246000fd5b92919267ffffffffffffffff821161126957604051916113e0601f8201601f19166020018461129b565b829481845281830111611216578281602093846000960137010152565b1561140457565b606460405162461bcd60e51b815260206004820152602060248201527f4f776e61626c653a2063616c6c6572206973206e6f7420746865206f776e65726044820152fd5b1561144f57565b60405162461bcd60e51b81526020600482015260166024820152756e6f7420616363657074696e67206465706f7369747360501b6044820152606490fd5b9190820180921161149a57565b634e487b7160e01b600052601160045260246000fd5b9081602091031261121657516001600160a01b03811681036112165790565b9190820391821161149a57565b60ff60055416600381101561169257600180910361164d5747606481111561160957600090825b61150c57505050565b600480548310156116035760008190527f8a35acfbc15ff81a39ae7d344fd709f28e8600b4aa8c65c6b64bfe7fe36bd19b830154600754604080516331a9108f60e11b8152938401839052926001600160a01b0392916020919082908290602490829088165afa9182156115f857936000949385949388869594869586936115d5575b505061159b91926116a8565b91839183156115cb575b1690f1156115c15750600019821461149a578280920191611503565b513d6000823e3d90fd5b6108fc92506115a5565b61159b935090816115f192903d106107fa576107eb818361129b565b913861158f565b85513d6000823e3d90fd5b50505050565b606460405162461bcd60e51b815260206004820152602060248201527f6d696e696d756d206f66203130302077656920746f20646973747269627574656044820152fd5b60405162461bcd60e51b815260206004820152601c60248201527f757365207769746864726177207768656e206e6f74207374616b6564000000006044820152606490fd5b634e487b7160e01b600052602160045260246000fd5b6000908152600260205260408120541561173857604081205460001992908115158285048211166117245760035491821561171057020491600183111561170a5782019182116116f6575090565b634e487b7160e01b81526011600452602490fd5b50905090565b634e487b7160e01b84526012600452602484fd5b634e487b7160e01b83526011600452602483fd5b905090565b60ff600554166003811015611692576117565750600090565b6117619047906116a8565b90565b1561176b57565b60405162461bcd60e51b815260206004820152600b60248201526a77726f6e6720737461746560a81b6044820152606490fd5b601f81116117aa575050565b600090600682526000805160206118e0833981519152906020601f850160051c830194106117f3575b601f0160051c01915b8281106117e857505050565b8181556001016117dc565b90925082906117d3565b60ff600554166003811015611692576001811461189b57801561186c5760021461184a5760405161182d8161127f565b600d81526c7374617465206661696c75726560981b602082015290565b6040516118568161127f565b6006815265195e1a5d195960d21b602082015290565b506040516118798161127f565b6012815271616363657074696e67206465706f7369747360701b602082015290565b506040516118a88161127f565b60068152651cdd185ad95960d21b602082015290565b908060209392818452848401376000828201840152601f01601f191601019056fef652222313e28459528d920b65115c16c04f3efc82aaedc97be59f3f377c0d3fa26469706673582212204ee907b3ee012277f5bc7152c16a7833f40c5d291beecc9058db3f867e27131564736f6c63430008100033",
  "linkReferences": {},
  "deployedLinkReferences": {}
}