{
  "abi": [
    {
      "inputs": [
        {
          "internalType": "contract IFrensStorage",
          "name": "_frensStorage",
          "type": "address"
        }
      ],
      "stateMutability": "nonpayable",
      "type": "constructor"
    },
    {
      "inputs": [
        {
          "internalType": "uint256",
          "name": "id",
          "type": "uint256"
        }
      ],
      "name": "tokenURI",
      "outputs": [
        {
          "internalType": "string",
          "name": "",
          "type": "string"
        }
      ],
      "stateMutability": "view",
      "type": "function"
    },
    {
      "inputs": [],
      "name": "version",
      "outputs": [
        {
          "internalType": "uint8",
          "name": "",
          "type": "uint8"
        }
      ],
      "stateMutability": "view",
      "type": "function"
    }
  ],
  "bytecode": {
    "object": "0x60806040908082523462000192578062001340803803809162000023828562000197565b83396020928391810103126200019257516001600160a01b0391908281168103620001925760008054610100600160a81b0319811660089390931b610100600160a81b031692831780835586516f636f6e74726163742e6164647265737360801b8187019081526d4672656e73506f6f6c536861726560901b6030830152601e82529396949592949390928389019290916001600160401b038411858510176200017e576024848785948294838f52895190206321f8a72160e01b845260448a015260081c165afa9283156200017457879362000131575b5050600180546001600160a01b03191693909216929092179055506001600160a81b0319161790555161116e9081620001d28239f35b90809293503d83116200016c575b6200014b818562000197565b8101031262000168575181811681036200016857388080620000fb565b8480fd5b503d6200013f565b88513d89823e3d90fd5b634e487b7160e01b89526041600452602489fd5b600080fd5b601f909101601f19168101906001600160401b03821190821017620001bb57604052565b634e487b7160e01b600052604160045260246000fdfe6040608081526004908136101561001557600080fd5b600091823560e01c806354fd4d501461079f5763c87b56dd1461003757600080fd5b3461079b576020928360031936011261079857600154823592906100aa9061006f906001600160a01b03165b6001600160a01b031690565b8686518092634f558e7960e01b825281806100918a8983019190602083019252565b03915afa90811561078b575b849161075e575b5061087d565b8351926100f2868501856100d68483602b916a1c1bdbdb0b999bdc8b9a5960aa1b8252600b8201520190565b03956100ea601f1997888101835282610824565b519020610a29565b9260018060a01b0386818616928661015c61006384518d8101906100ea8d82610150610135866010906f636f6e74726163742e6164647265737360801b81520190565b6e233932b739a6b2ba30a432b63832b960891b8152600f0190565b03908101835282610824565b94835194631865c57d60e01b865283868a81855afa958615610751575b8496610733575b50610212959616908c888a87519763ef21184f60e01b89528789806101ac868683019190602083019252565b0381895afa988915610726575b88996106fb575b50516333c7180560e11b81529081019182528692918290829081906020015b0381875afa9182156106ee575b83926106c1575b50508d51809881926376e8a45160e11b83528d83019190602083019252565b0381855afa9586156106b4575b8496610682575b5091839161023661026294610f22565b8d516328243e6d60e21b81526001600160a01b039093169a83019a8b5299919384928391829160200190565b03915afa918215610675575b8092610650575b505061028085610dcd565b95895180978c82016102aa90601190706672656e20706f6f6c207368617265202360781b81520190565b6102b391610a12565b0389810188526102c39088610824565b895197888c81016102f890601b907f74686973206672656e206861732061206465706f736974206f6620000000000081520190565b6103029086610a12565b6c01022ba341034b7103837b7b61609d1b8152600d016103229084610a12565b7f2c207769746820636c61696d61626c652062616c616e6365206f6620000000008152601c016103529087610a12565b630408ae8d60e31b8152600401038a81018a5261036f908a610824565b6103799087610abb565b6103829061104f565b9561038c90610dcd565b8a51683d913730b6b2911d1160b91b8d820190815290998a9990916009016103b391610a12565b71111610113232b9b1b934b83a34b7b7111d1160711b81526012016103d791610a12565b7f222c202265787465726e616c5f75726c223a2268747470733a2f2f6672656e7381526a2e66756e2f746f6b656e2f60a81b6020820152602b0161041a91610a12565b7f222c202261747472696275746573223a205b7b2274726169745f74797065223a81527110113837b7b6111610113b30b63ab2911d1160711b602082015260320161046491610a12565b7f227d2c7b2274726169745f74797065223a202276616c696461746f72207075628152733634b19035b2bc911610113b30b63ab2911d101160611b60208201526034016104b091610a12565b7f227d2c7b2274726169745f74797065223a20226465706f736974222c20227661815266363ab2911d101160c91b60208201526027016104ef91610a12565b630408ae8d60e31b81526004017f227d2c7b2274726169745f74797065223a2022636c61696d61626c65222c20228152683b30b63ab2911d101160b91b602082015260290161053d91610a12565b630408ae8d60e31b81526004017f227d2c7b2274726169745f74797065223a2022706f6f6c207374617465222c20815269113b30b63ab2911d101160b11b6020820152602a0161058c91610a12565b6e113eae96101134b6b0b3b2911d101160891b8152600f017f646174613a696d6167652f7376672b786d6c3b6261736536342c0000000000008152601a016105d391610a12565b61227d60f01b81526002010382810182526105ee9082610824565b6105f79061104f565b82517f646174613a6170706c69636174696f6e2f6a736f6e3b6261736536342c00000094810194855293849190601d0161063091610a12565b0390810183526106409083610824565b5161064c8192826107e1565b0390f35b61066c92503d8091833e6106648183610824565b810190610962565b90503880610275565b61067d610870565b61026e565b61026293919650916102366106a986943d8087833e6106a18183610824565b81019061092d565b979294505091610226565b6106bc610870565b61021f565b6106e09250803d106106e7575b6106d88183610824565b810190610953565b388f6101f3565b503d6106ce565b6106f6610870565b6101ec565b8493908995929a509261071a6101df943d8089833e6106a18183610824565b9a9250925092936101c0565b61072e610870565b6101b9565b610212965061074b903d8087833e6106a18183610824565b95610180565b610759610870565b610179565b61077e9150873d8911610784575b6107768183610824565b810190610853565b386100a4565b503d61076c565b610793610870565b61009d565b80fd5b8280fd5b833461079857806003193601126107985760ff90541660805260206080f35b60005b8381106107d15750506000910152565b81810151838201526020016107c1565b6040916020825261080181518092816020860152602086860191016107be565b601f01601f1916010190565b50634e487b7160e01b600052604160045260246000fd5b90601f8019910116810190811067ffffffffffffffff82111761084657604052565b61084e61080d565b604052565b9081602091031261086b5751801515810361086b5790565b600080fd5b506040513d6000823e3d90fd5b1561088457565b60405162461bcd60e51b81526020600482015260116024820152701a5908191bd95cc81b9bdd08195e1a5cdd607a1b6044820152606490fd5b60209067ffffffffffffffff81116108db575b601f01601f19160190565b6108e361080d565b6108d0565b81601f8201121561086b5780516108fe816108bd565b9261090c6040519485610824565b8184526020828401011161086b5761092a91602080850191016107be565b90565b9060208282031261086b57815167ffffffffffffffff811161086b5761092a92016108e8565b9081602091031261086b575190565b91909160408184031261086b5780519267ffffffffffffffff9384811161086b5782019381601f8601121561086b57845194818611610a05575b8560051b90604051916020976109b489830185610824565b835287808401918301019185831161086b578801905b8282106109e9575050509483015190811161086b5761092a92016108e8565b815163ffffffff8116810361086b5781529088019088016109ca565b610a0d61080d565b61099c565b90610a25602092828151948592016107be565b0190565b60018060a01b036000602082825460081c16936024604051809681936321f8a72160e01b835260048301525afa928315610aae575b8193610a6b575b50505090565b909192506020813d8211610aa6575b81610a8760209383610824565b81010312610aa2575191821682036107985750388080610a65565b5080fd5b3d9150610a7a565b610ab6610870565b610a5e565b610c609161092a916000610ba9610b1b60405194856100d6602082019283602d917f706f6f6c2e73706563696669632e6172742e616464726573730000000000000082526bffffffffffffffffffffffff199060601b1660198201520190565b6001600160a01b039390841680158414610c985750610b8661006360405160208101906100ea81610b7a610b66856010906f636f6e74726163742e6164647265737360801b81520190565b67119c995b9cd05c9d60c21b815260080190565b038a8101835282610824565b905b60405194858094819363516b636d60e11b8352600483019190602083019252565b0392165afa908115610c8b575b600091610c72575b50610150604051948592610c5a60208501606c907f3c7376672077696474683d2234303022206865696768743d223430302220786d81527f6c6e733d22687474703a2f2f7777772e77332e6f72672f323030302f7376672260208201527f20786d6c6e733a786c696e6b3d22687474703a2f2f7777772e77332e6f72672f60408201526b189c9c9c97bc3634b735911f60a11b60608201520190565b90610a12565b651e17b9bb339f60d11b815260060190565b610c85913d8091833e6106a18183610824565b38610bbe565b610c93610870565b610bb6565b90610b88565b604051906020820182811067ffffffffffffffff821117610cc3575b60405260008252565b610ccb61080d565b610cba565b50634e487b7160e01b600052601160045260246000fd5b604051906060820182811067ffffffffffffffff821117610d15575b604052602a8252604082602036910137565b610d1d61080d565b610d03565b90610d2c826108bd565b610d396040519182610824565b8281528092610d4a601f19916108bd565b0190602036910137565b600019810191908211610d6357565b610d6b610cd0565b565b6030019081603011610d6357565b9060028201809211610d6357565b9060208201809211610d6357565b50634e487b7160e01b600052603260045260246000fd5b906020918051821015610dc057010190565b610dc8610d97565b010190565b8015610e67576000818181805b610e3d5750610de881610d22565b935b610df45750505090565b610dfd90610d54565b90600a90610e28610e18610e12848406610d6d565b60ff1690565b60f81b6001600160f81b03191690565b841a610e348487610dae565b53049081610dea565b91506001600a916000198114610e5a575b01910480849291610dda565b610e62610cd0565b610e4e565b506040516040810181811067ffffffffffffffff821117610e97575b60405260018152600360fc1b602082015290565b610e9f61080d565b610e83565b600281901b91906001600160fe1b03811603610d6357565b8015610eca575b6000190190565b610ed2610cd0565b610ec3565b15610ede57565b606460405162461bcd60e51b815260206004820152602060248201527f537472696e67733a20686578206c656e67746820696e73756666696369656e746044820152fd5b610f2a610ce7565b90815115610fc4575b603060208301538151600190811015610fb7575b90607860218401536029915b808311610f66575061092a915015610ed7565b9080600f610fa392166010811015610faa575b6f181899199a1a9b1b9c1cb0b131b232b360811b901a610f998587610dae565b5360041c92610ebc565b9190610f53565b610fb2610d97565b610f79565b610fbf610d97565b610f47565b610fcc610d97565b610f33565b604051906060820182811067ffffffffffffffff821117611042575b604052604082527f6768696a6b6c6d6e6f707172737475767778797a303132333435363738392b2f6040837f4142434445464748494a4b4c4d4e4f505152535455565758595a61626364656660208201520152565b61104a61080d565b610fed565b80511561112f5761105e610fd1565b61107a61107561106e8451610d7b565b6003900490565b610ea4565b9161108c61108784610d89565b610d22565b92835280815182019060208501935b8282106110dd575050506003905106806001146110cc576002146110bd575090565b603d60f81b6000199091015290565b50613d3d60f01b6001199091015290565b9091936004906003809401938451600190603f9082828260121c16880101518553828282600c1c16880101518386015382828260061c168801015160028601531685010151908201530193919061109b565b5061092a610c9e56fea26469706673582212201550c500cf1459116c6874290c8fbafa1da92cc346f9eee1898b5641bc86759764736f6c63430008110033",
    "linkReferences": {}
  },
  "methodIdentifiers": {
    "tokenURI(uint256)": "c87b56dd",
    "version()": "54fd4d50"
  },
  "id": 11
}