{
  "abi": [
    {
      "inputs": [
        {
          "internalType": "contract IFrensStorage",
          "name": "_frensStorage",
          "type": "address"
        }
      ],
      "stateMutability": "nonpayable",
      "type": "constructor"
    },
    {
      "inputs": [
        {
          "internalType": "uint256",
          "name": "id",
          "type": "uint256"
        }
      ],
      "name": "tokenURI",
      "outputs": [
        {
          "internalType": "string",
          "name": "",
          "type": "string"
        }
      ],
      "stateMutability": "view",
      "type": "function"
    },
    {
      "inputs": [],
      "name": "version",
      "outputs": [
        {
          "internalType": "uint8",
          "name": "",
          "type": "uint8"
        }
      ],
      "stateMutability": "view",
      "type": "function"
    }
  ],
  "bytecode": {
    "object": "0x6080604090808252346200017f5780620015ba803803809162000023828562000184565b83396020928391810103126200017f57516001600160a01b03919082811681036200017f5760008054610100600160a81b03191660089290921b610100600160a81b03169190911780825584516f636f6e74726163742e6164647265737360801b8482019081526d4672656e73506f6f6c536861726560901b6030830152601e825290938487019290916001600160401b038411868510176200016b576024848885948294838d528a5190206321f8a72160e01b845260448b015260081c165afa9384156200016157839462000117575b505050501660018060a01b03196001541617600155516113fb9081620001bf8239f35b9080929394503d831162000159575b62000132818562000184565b8101031262000155575190828216820362000152575038808080620000f4565b80fd5b5080fd5b503d62000126565b86513d85823e3d90fd5b634e487b7160e01b85526041600452602485fd5b600080fd5b601f909101601f19168101906001600160401b03821190821017620001a857604052565b634e487b7160e01b600052604160045260246000fdfe6040608081526004908136101561001557600080fd5b6000803560e01c806354fd4d50146109905763c87b56dd1461003657600080fd5b3461098d57602092836003193601126109895760015484908235906100aa9061006f906001600160a01b03165b6001600160a01b031690565b8387518092634f558e7960e01b82528180610091888b83019190602083019252565b03915afa90811561097c575b869161094f575b50610aa6565b84805194838601866100d48583602b916a1c1bdbdb0b999bdc8b9a5960aa1b8252600b8201520190565b0396601f199788810182526100e99082610a5a565b5190206100f590610d07565b82516f636f6e74726163742e6164647265737360801b8682019081526001600160a01b038381169890939290919080601083016e233932b739a6b2ba30a432b63832b960891b8152600f01038b810182526101509082610a5a565b51902061015c90610d07565b6001600160a01b031692855188810190806101928a84602e916d19195c1bdcda5d0b985b5bdd5b9d60921b8252600e8201520190565b038c810182526101a29082610a5a565b5190206101ae90610d95565b93169288865191868084806376e8a45160e11b94858252888201906101d590602083019252565b03818a5afa918b8b84159661023c97610942575b8495610922575b508b516333c7180560e11b815288810191825294959394938491829081906020015b03915afa918215610915575b83926108e6575b508951948592839283528783019190602083019252565b0381885afa9182156108d9575b86926108bd575b5061025a8a6111af565b998680895180986328243e6d60e21b825281806102888b8b8301919091602081019260018060a01b03169052565b03915afa9182156108b0575b81978293610886575b508951631865c57d60e01b815295869182905afa938415610879575b8794610855575b506102ca89611065565b9a8851809c8c82016102f490601190706672656e20706f6f6c207368617265202360781b81520190565b6102fd91610c3b565b038d81018d5261030d908d610a5a565b8851958d878d810161034390601b907f74686973206672656e206861732061206465706f736974206f6620000000000081520190565b61034d9087610c3b565b6c01022ba341034b7103837b7b61609d1b8152600d0161036d9085610c3b565b7f2c207769746820636c61696d61626c652062616c616e6365206f6620000000008152601c0161039d9088610c3b565b630408ae8d60e31b81526004010390810188526103ba9088610a5a565b6103c4908b610dfd565b6103cd906112dc565b996103d790611065565b875161083d576103e5610ce4565b965b8851610825576103f5610ce4565b985b805161080d57610405610ce4565b9a5b5080516107dd5750610417610ce4565b9a5b51683d913730b6b2911d1160b91b9d81019d8e529d8e9d60090161043c91610c3b565b71111610113232b9b1b934b83a34b7b7111d1160711b815260120161046091610c3b565b7f222c202265787465726e616c5f75726c223a2268747470733a2f2f6672656e7381526a2e66756e2f746f6b656e2f60a81b6020820152602b016104a391610c3b565b7f222c202261747472696275746573223a205b7b2274726169745f74797065223a81527110113837b7b6111610113b30b63ab2911d1160711b60208201526032016104ed91610c3b565b7f227d2c7b2274726169745f74797065223a202276616c696461746f72207075628152733634b19035b2bc911610113b30b63ab2911d101160611b602082015260340161053991610c3b565b7f227d2c7b2274726169745f74797065223a20226465706f736974222c20227661815266363ab2911d101160c91b602082015260270161057891610c3b565b630408ae8d60e31b81526004017f227d2c7b2274726169745f74797065223a2022636c61696d61626c65222c20228152683b30b63ab2911d101160b91b60208201526029016105c691610c3b565b630408ae8d60e31b81526004017f227d2c7b2274726169745f74797065223a2022706f6f6c207374617465222c20815269113b30b63ab2911d101160b11b6020820152602a0161061591610c3b565b7f227d2c7b2274726169745f74797065223a20226f70657261746f7231222c20228152683b30b63ab2911d101160b91b602082015260290161065691610c3b565b7f227d2c7b2274726169745f74797065223a20226f70657261746f7232222c20228152683b30b63ab2911d101160b91b602082015260290161069791610c3b565b7f227d2c7b2274726169745f74797065223a20226f70657261746f7233222c20228152683b30b63ab2911d101160b91b60208201526029016106d891610c3b565b7f227d2c7b2274726169745f74797065223a20226f70657261746f7234222c20228152683b30b63ab2911d101160b91b602082015260290161071991610c3b565b6e113eae96101134b6b0b3b2911d101160891b8152600f017f646174613a696d6167652f7376672b786d6c3b6261736536342c0000000000008152601a0161076091610c3b565b61227d60f01b815260020103828101825261077b9082610a5a565b610784906112dc565b82517f646174613a6170706c69636174696f6e2f6a736f6e3b6261736536342c00000094810194855293849190601d016107bd91610c3b565b0390810183526107cd9083610a5a565b516107d98192826109d2565b0390f35b6108026107f96107ef61080793610ca1565b5163ffffffff1690565b63ffffffff1690565b611065565b9a610419565b61081f6108026107f96107ef84610c90565b9a610407565b6108376108026107f96107ef8c610c7f565b986103f7565b61084f6108026107f96107ef8b610c69565b966103e7565b6108729194503d8089833e61086a8183610a5a565b810190610b56565b92386102c0565b610881610a99565b6102b9565b9092506108a69197503d8089833e61089e8183610a5a565b810190610b8b565b969096913861029d565b6108b8610a99565b610294565b6108d29192503d8088833e61086a8183610a5a565b9038610250565b6108e1610a99565b610249565b6109079192508c8d3d1061090e575b6108ff8183610a5a565b810190610b7c565b9038610225565b503d6108f5565b61091d610a99565b61021e565b61021294955061093b903d8088833e61086a8183610a5a565b94936101f0565b61094a610a99565b6101e9565b61096f9150843d8611610975575b6109678183610a5a565b810190610a7c565b386100a4565b503d61095d565b610984610a99565b61009d565b5080fd5b80fd5b503461098d578060031936011261098d5760ff90541660805260206080f35b60005b8381106109c25750506000910152565b81810151838201526020016109b2565b604091602082526109f281518092816020860152602086860191016109af565b601f01601f1916010190565b50634e487b7160e01b600052604160045260246000fd5b6040810190811067ffffffffffffffff821117610a3157604052565b610a396109fe565b604052565b6060810190811067ffffffffffffffff821117610a3157604052565b90601f8019910116810190811067ffffffffffffffff821117610a3157604052565b90816020910312610a9457518015158103610a945790565b600080fd5b506040513d6000823e3d90fd5b15610aad57565b60405162461bcd60e51b81526020600482015260116024820152701a5908191bd95cc81b9bdd08195e1a5cdd607a1b6044820152606490fd5b60209067ffffffffffffffff8111610b04575b601f01601f19160190565b610b0c6109fe565b610af9565b81601f82011215610a94578051610b2781610ae6565b92610b356040519485610a5a565b81845260208284010111610a9457610b5391602080850191016109af565b90565b90602082820312610a9457815167ffffffffffffffff8111610a9457610b539201610b11565b90816020910312610a94575190565b919091604081840312610a945780519267ffffffffffffffff93848111610a945782019381601f86011215610a9457845194818611610c2e575b8560051b9060405191602097610bdd89830185610a5a565b8352878084019183010191858311610a94578801905b828210610c125750505094830151908111610a9457610b539201610b11565b815163ffffffff81168103610a94578152908801908801610bf3565b610c366109fe565b610bc5565b90610c4e602092828151948592016109af565b0190565b50634e487b7160e01b600052603260045260246000fd5b602090805115610c77570190565b610c4e610c52565b604090805160011015610c77570190565b606090805160021015610c77570190565b608090805160031015610c77570190565b604051906020820182811067ffffffffffffffff821117610cd7575b60405260008252565b610cdf6109fe565b610cce565b60405190610cf182610a15565b6007825266139bdd0814d95d60ca1b6020830152565b60018060a01b036000602082825460081c16936024604051809681936321f8a72160e01b835260048301525afa928315610d88575b8193610d49575b50505090565b909192506020813d8211610d80575b81610d6560209383610a5a565b810103126109895751918216820361098d5750388080610d43565b3d9150610d58565b610d90610a99565b610d3c565b60005460405163bd02d0f560e01b815260048101929092526020908290602490829060081c6001600160a01b03165afa908115610df0575b600091610dd8575090565b610b53915060203d811161090e576108ff8183610a5a565b610df8610a99565b610dcd565b610f8d91610b53916000610f07610e796040519485610e5d602082019283602d917f706f6f6c2e73706563696669632e6172742e616464726573730000000000000082526bffffffffffffffffffffffff199060601b1660198201520190565b0395610e71601f1997888101835282610a5a565b519020610d07565b6001600160a01b039390841680158414610fd15750610ee46100636040516020810190610e7181610ed8610ec4856010906f636f6e74726163742e6164647265737360801b81520190565b67119c995b9cd05c9d60c21b815260080190565b038a8101835282610a5a565b905b60405194858094819363516b636d60e11b8352600483019190602083019252565b0392165afa908115610fc4575b600091610fab575b50610f9f604051948592610f87602085016041907f3c7376672077696474683d2234303022206865696768743d223430302220786d81527f6c6e733d22687474703a2f2f7777772e77332e6f72672f323030302f737667226020820152601f60f91b60408201520190565b90610c3b565b651e17b9bb339f60d11b815260060190565b03908101835282610a5a565b610fbe913d8091833e61086a8183610a5a565b38610f1c565b610fcc610a99565b610f14565b90610ee6565b50634e487b7160e01b600052601160045260246000fd5b90610ff882610ae6565b6110056040519182610a5a565b8281528092611016601f1991610ae6565b0190602036910137565b906002820180921161102e57565b611036610fd7565b565b906020820180921161102e57565b90602091805182101561105857010190565b611060610c52565b010190565b8015611113576000818181805b6110e9575061108081610fee565b935b61108c5750505090565b60001981019081116110dc575b8091600a916110c6603084840681018091116110cf575b60f81b6001600160f81b031916861a9187611046565b53049081611082565b6110d7610fd7565b6110b0565b6110e4610fd7565b611099565b91506001600a916000198114611106575b01910480849291611072565b61110e610fd7565b6110fa565b5060405161112081610a15565b60018152600360fc1b602082015290565b600281901b91906001600160fe1b0381160361102e57565b8015611157575b6000190190565b61115f610fd7565b611150565b1561116b57565b606460405162461bcd60e51b815260206004820152602060248201527f537472696e67733a20686578206c656e67746820696e73756666696369656e746044820152fd5b604051906111bc82610a3e565b602a8252604036602084013760306111d383610c69565b538151600190811015611251575b90607860218401536029915b8083116112005750610b53915015611164565b9080600f61123d92166010811015611244575b6f181899199a1a9b1b9c1cb0b131b232b360811b901a6112338587611046565b5360041c92611149565b91906111ed565b61124c610c52565b611213565b611259610c52565b6111e1565b604051906060820182811067ffffffffffffffff8211176112cf575b604052604082527f6768696a6b6c6d6e6f707172737475767778797a303132333435363738392b2f6040837f4142434445464748494a4b4c4d4e4f505152535455565758595a61626364656660208201520152565b6112d76109fe565b61127a565b8051156113bc576112eb61125e565b6113076113026112fb8451611020565b6003900490565b611131565b9161131961131484611038565b610fee565b92835280815182019060208501935b82821061136a575050506003905106806001146113595760021461134a575090565b603d60f81b6000199091015290565b50613d3d60f01b6001199091015290565b9091936004906003809401938451600190603f9082828260121c16880101518553828282600c1c16880101518386015382828260061c1688010151600286015316850101519082015301939190611328565b50610b53610cb256fea2646970667358221220a995258428b06723232155469ec0bb2f34adf030b9420cd88e9ce87bf1ea0a0e64736f6c63430008110033",
    "linkReferences": {}
  },
  "methodIdentifiers": {
    "tokenURI(uint256)": "c87b56dd",
    "version()": "54fd4d50"
  },
  "id": 7
}