{
  "abi": [
    {
      "inputs": [
        {
          "internalType": "contract IFrensStorage",
          "name": "_frensStorage",
          "type": "address"
        }
      ],
      "stateMutability": "nonpayable",
      "type": "constructor"
    },
    {
      "anonymous": false,
      "inputs": [
        {
          "indexed": true,
          "internalType": "address",
          "name": "owner",
          "type": "address"
        },
        {
          "indexed": true,
          "internalType": "address",
          "name": "approved",
          "type": "address"
        },
        {
          "indexed": true,
          "internalType": "uint256",
          "name": "tokenId",
          "type": "uint256"
        }
      ],
      "name": "Approval",
      "type": "event"
    },
    {
      "anonymous": false,
      "inputs": [
        {
          "indexed": true,
          "internalType": "address",
          "name": "owner",
          "type": "address"
        },
        {
          "indexed": true,
          "internalType": "address",
          "name": "operator",
          "type": "address"
        },
        {
          "indexed": false,
          "internalType": "bool",
          "name": "approved",
          "type": "bool"
        }
      ],
      "name": "ApprovalForAll",
      "type": "event"
    },
    {
      "anonymous": false,
      "inputs": [
        {
          "indexed": true,
          "internalType": "address",
          "name": "previousOwner",
          "type": "address"
        },
        {
          "indexed": true,
          "internalType": "address",
          "name": "newOwner",
          "type": "address"
        }
      ],
      "name": "OwnershipTransferred",
      "type": "event"
    },
    {
      "anonymous": false,
      "inputs": [
        {
          "indexed": true,
          "internalType": "address",
          "name": "from",
          "type": "address"
        },
        {
          "indexed": true,
          "internalType": "address",
          "name": "to",
          "type": "address"
        },
        {
          "indexed": true,
          "internalType": "uint256",
          "name": "tokenId",
          "type": "uint256"
        }
      ],
      "name": "Transfer",
      "type": "event"
    },
    {
      "inputs": [
        {
          "internalType": "address",
          "name": "to",
          "type": "address"
        },
        {
          "internalType": "uint256",
          "name": "tokenId",
          "type": "uint256"
        }
      ],
      "name": "approve",
      "outputs": [],
      "stateMutability": "nonpayable",
      "type": "function"
    },
    {
      "inputs": [
        {
          "internalType": "address",
          "name": "owner",
          "type": "address"
        }
      ],
      "name": "balanceOf",
      "outputs": [
        {
          "internalType": "uint256",
          "name": "",
          "type": "uint256"
        }
      ],
      "stateMutability": "view",
      "type": "function"
    },
    {
      "inputs": [
        {
          "internalType": "uint256",
          "name": "tokenId",
          "type": "uint256"
        }
      ],
      "name": "burn",
      "outputs": [],
      "stateMutability": "nonpayable",
      "type": "function"
    },
    {
      "inputs": [
        {
          "internalType": "uint256",
          "name": "_id",
          "type": "uint256"
        }
      ],
      "name": "exists",
      "outputs": [
        {
          "internalType": "bool",
          "name": "",
          "type": "bool"
        }
      ],
      "stateMutability": "view",
      "type": "function"
    },
    {
      "inputs": [
        {
          "internalType": "uint256",
          "name": "tokenId",
          "type": "uint256"
        }
      ],
      "name": "getApproved",
      "outputs": [
        {
          "internalType": "address",
          "name": "",
          "type": "address"
        }
      ],
      "stateMutability": "view",
      "type": "function"
    },
    {
      "inputs": [
        {
          "internalType": "uint256",
          "name": "_id",
          "type": "uint256"
        }
      ],
      "name": "getPoolById",
      "outputs": [
        {
          "internalType": "address",
          "name": "",
          "type": "address"
        }
      ],
      "stateMutability": "view",
      "type": "function"
    },
    {
      "inputs": [
        {
          "internalType": "address",
          "name": "owner",
          "type": "address"
        },
        {
          "internalType": "address",
          "name": "operator",
          "type": "address"
        }
      ],
      "name": "isApprovedForAll",
      "outputs": [
        {
          "internalType": "bool",
          "name": "",
          "type": "bool"
        }
      ],
      "stateMutability": "view",
      "type": "function"
    },
    {
      "inputs": [
        {
          "internalType": "address",
          "name": "userAddress",
          "type": "address"
        }
      ],
      "name": "mint",
      "outputs": [],
      "stateMutability": "nonpayable",
      "type": "function"
    },
    {
      "inputs": [],
      "name": "name",
      "outputs": [
        {
          "internalType": "string",
          "name": "",
          "type": "string"
        }
      ],
      "stateMutability": "view",
      "type": "function"
    },
    {
      "inputs": [],
      "name": "owner",
      "outputs": [
        {
          "internalType": "address",
          "name": "",
          "type": "address"
        }
      ],
      "stateMutability": "view",
      "type": "function"
    },
    {
      "inputs": [
        {
          "internalType": "uint256",
          "name": "tokenId",
          "type": "uint256"
        }
      ],
      "name": "ownerOf",
      "outputs": [
        {
          "internalType": "address",
          "name": "",
          "type": "address"
        }
      ],
      "stateMutability": "view",
      "type": "function"
    },
    {
      "inputs": [
        {
          "internalType": "uint256",
          "name": "id",
          "type": "uint256"
        }
      ],
      "name": "renderTokenById",
      "outputs": [
        {
          "internalType": "string",
          "name": "",
          "type": "string"
        }
      ],
      "stateMutability": "view",
      "type": "function"
    },
    {
      "inputs": [],
      "name": "renounceOwnership",
      "outputs": [],
      "stateMutability": "nonpayable",
      "type": "function"
    },
    {
      "inputs": [
        {
          "internalType": "address",
          "name": "from",
          "type": "address"
        },
        {
          "internalType": "address",
          "name": "to",
          "type": "address"
        },
        {
          "internalType": "uint256",
          "name": "tokenId",
          "type": "uint256"
        }
      ],
      "name": "safeTransferFrom",
      "outputs": [],
      "stateMutability": "nonpayable",
      "type": "function"
    },
    {
      "inputs": [
        {
          "internalType": "address",
          "name": "from",
          "type": "address"
        },
        {
          "internalType": "address",
          "name": "to",
          "type": "address"
        },
        {
          "internalType": "uint256",
          "name": "tokenId",
          "type": "uint256"
        },
        {
          "internalType": "bytes",
          "name": "_data",
          "type": "bytes"
        }
      ],
      "name": "safeTransferFrom",
      "outputs": [],
      "stateMutability": "nonpayable",
      "type": "function"
    },
    {
      "inputs": [
        {
          "internalType": "address",
          "name": "operator",
          "type": "address"
        },
        {
          "internalType": "bool",
          "name": "approved",
          "type": "bool"
        }
      ],
      "name": "setApprovalForAll",
      "outputs": [],
      "stateMutability": "nonpayable",
      "type": "function"
    },
    {
      "inputs": [
        {
          "internalType": "bytes4",
          "name": "interfaceId",
          "type": "bytes4"
        }
      ],
      "name": "supportsInterface",
      "outputs": [
        {
          "internalType": "bool",
          "name": "",
          "type": "bool"
        }
      ],
      "stateMutability": "view",
      "type": "function"
    },
    {
      "inputs": [],
      "name": "symbol",
      "outputs": [
        {
          "internalType": "string",
          "name": "",
          "type": "string"
        }
      ],
      "stateMutability": "view",
      "type": "function"
    },
    {
      "inputs": [
        {
          "internalType": "uint256",
          "name": "index",
          "type": "uint256"
        }
      ],
      "name": "tokenByIndex",
      "outputs": [
        {
          "internalType": "uint256",
          "name": "",
          "type": "uint256"
        }
      ],
      "stateMutability": "view",
      "type": "function"
    },
    {
      "inputs": [
        {
          "internalType": "address",
          "name": "owner",
          "type": "address"
        },
        {
          "internalType": "uint256",
          "name": "index",
          "type": "uint256"
        }
      ],
      "name": "tokenOfOwnerByIndex",
      "outputs": [
        {
          "internalType": "uint256",
          "name": "",
          "type": "uint256"
        }
      ],
      "stateMutability": "view",
      "type": "function"
    },
    {
      "inputs": [
        {
          "internalType": "uint256",
          "name": "id",
          "type": "uint256"
        }
      ],
      "name": "tokenURI",
      "outputs": [
        {
          "internalType": "string",
          "name": "",
          "type": "string"
        }
      ],
      "stateMutability": "view",
      "type": "function"
    },
    {
      "inputs": [],
      "name": "totalSupply",
      "outputs": [
        {
          "internalType": "uint256",
          "name": "",
          "type": "uint256"
        }
      ],
      "stateMutability": "view",
      "type": "function"
    },
    {
      "inputs": [
        {
          "internalType": "address",
          "name": "from",
          "type": "address"
        },
        {
          "internalType": "address",
          "name": "to",
          "type": "address"
        },
        {
          "internalType": "uint256",
          "name": "tokenId",
          "type": "uint256"
        }
      ],
      "name": "transferFrom",
      "outputs": [],
      "stateMutability": "nonpayable",
      "type": "function"
    },
    {
      "inputs": [
        {
          "internalType": "address",
          "name": "newOwner",
          "type": "address"
        }
      ],
      "name": "transferOwnership",
      "outputs": [],
      "stateMutability": "nonpayable",
      "type": "function"
    },
    {
      "inputs": [],
      "name": "version",
      "outputs": [
        {
          "internalType": "uint8",
          "name": "",
          "type": "uint8"
        }
      ],
      "stateMutability": "view",
      "type": "function"
    }
  ],
  "bytecode": {
    "object": "0x608034620003bc57601f1990601f906001600160401b039062002692388190038481018616830184811184821017620003a657839282916040528339602092839181010312620003bc57516001600160a01b03938482169391849003620003bc576200006a620003c1565b9260128452715374616b696e672077697468206672656e7360701b8185015262000093620003c1565b9060058252644652454e5360d81b81830152845197848911620003a6576000988954966001978881811c911680156200039b575b85821014620003875790818784931162000334575b508490878311600114620002d3578c92620002c7575b5050600019600383901b1c191690871b1789555b8251948511620002b35785548681811c91168015620002a8575b8382101462000294579081858796959493116200023b575b5081938511600114620001d65750508792620001ca575b5050600019600383901b1c191690821b1790555b600a5491604051937f8be0079c531659141344cd1fd0a4f28419497f9722a3daafe3b4186f6b6457e0339285169180a3600b80546001600160a01b0319169190911790556001600160a81b0319163360ff60a01b191617600a556122b09081620003e28239f35b0151905038806200014f565b86959392919316858a52838a20938a905b82821062000221575050841162000207575b505050811b01905562000163565b015160001960f88460031b161c19169055388080620001f9565b8484015186558897909501949384019390810190620001e7565b909192939450868a52828a208580880160051c8201928589106200028a575b9188978a9297969594930160051c01915b8281106200027b57505062000138565b8c81558897508991016200026b565b925081926200025a565b634e487b7160e01b8a52602260045260248afd5b90607f169062000120565b634e487b7160e01b89526041600452602489fd5b015190503880620000f2565b908c91858b9516838052878420935b888282106200031d575050841162000303575b505050811b01895562000106565b015160001960f88460031b161c19169055388080620002f5565b8385015186558d97909501949384019301620002e2565b9091508b8052848c208780850160051c8201928786106200037d575b918b91869594930160051c01915b8281106200036e575050620000dc565b8e81558594508b91016200035e565b9250819262000350565b634e487b7160e01b8c52602260045260248cfd5b90607f1690620000c7565b634e487b7160e01b600052604160045260246000fd5b600080fd5b60408051919082016001600160401b03811183821017620003a65760405256fe60806040526004361015610013575b600080fd5b60003560e01c806301ffc9a71461020757806306fdde03146101fe578063081812fc146101f5578063095ea7b3146101ec5780630bc59b38146101e357806318160ddd146101da57806323b872dd146101d15780632f745c59146101c857806342842e0e146101bf57806342966c68146101b65780634f558e79146101ad5780634f6ccce7146101a457806354fd4d501461019b5780636352211e146101925780636a6278421461018957806370a0823114610180578063715018a6146101775780638da5cb5b1461016e57806395d89b4114610165578063a22cb4651461015c578063a2d6c6da14610153578063b88d4fde1461014a578063c87b56dd14610141578063e985e9c5146101385763f2fde38b1461013057600080fd5b61000e611096565b5061000e61102d565b5061000e610f88565b5061000e610ef6565b5061000e610ca8565b5061000e610bb7565b5061000e610aeb565b5061000e610ac1565b5061000e610a5f565b5061000e610a2f565b5061000e610915565b5061000e6108f6565b5061000e6108d1565b5061000e610825565b5061000e6107e9565b5061000e6106bd565b5061000e610694565b5061000e6105dc565b5061000e6105b2565b5061000e610567565b5061000e610548565b5061000e610454565b5061000e610412565b5061000e610307565b5061000e610222565b6001600160e01b031981160361000e57565b503461000e57602036600319011261000e57602060043561024281610210565b63ffffffff60e01b1663780e9d6360e01b8114908115610268575b506040519015158152f35b6380ac58cd60e01b81149150811561029a575b8115610289575b503861025d565b6301ffc9a760e01b14905038610282565b635b5e139f60e01b8114915061027b565b60005b8381106102be5750506000910152565b81810151838201526020016102ae565b906020916102e7815180928185528580860191016102ab565b601f01601f1916010190565b9060206103049281815201906102ce565b90565b503461000e5760008060031936011261040f57604051908080549060019180831c92808216928315610405575b60209283861085146103f15785885260208801949081156103d05750600114610378575b6103748761036881890382610ea9565b604051918291826102f3565b0390f35b6000805294509192917f290decd9548b62a8d60345a988386fc84ba6bc95484008f6362f93160ef3e5635b8386106103bf5750505091019050610368826103743880610358565b8054858701529482019481016103a3565b60ff191685525050505090151560051b019050610368826103743880610358565b634e487b7160e01b82526022600452602482fd5b93607f1693610334565b80fd5b503461000e57602036600319011261000e576020610431600435611501565b6040516001600160a01b039091168152f35b6001600160a01b0381160361000e57565b503461000e57604036600319011261000e5760043561047281610443565b60243561047e81611417565b916001600160a01b0380841690821681146104f9576104b0936104ab9133149081156104b2575b5061148f565b611e9a565b005b6001600160a01b031660009081526005602052604090206104f391506104ec9033905b9060018060a01b0316600052602052604060002090565b5460ff1690565b386104a5565b60405162461bcd60e51b815260206004820152602160248201527f4552433732313a20617070726f76616c20746f2063757272656e74206f776e656044820152603960f91b6064820152608490fd5b503461000e57602036600319011261000e5760206104316004356111fa565b503461000e57600036600319011261000e576020600854604051908152f35b606090600319011261000e5760043561059e81610443565b906024356105ab81610443565b9060443590565b503461000e576104b06105c436610586565b916105d76105d2843361169e565b611593565b611d20565b503461000e57604036600319011261000e576004356105fa81610443565b602435906106078161139f565b82101561063b576001600160a01b031660009081526006602090815260408083209383529281529082902054915191825290f35b60405162461bcd60e51b815260206004820152602b60248201527f455243373231456e756d657261626c653a206f776e657220696e646578206f7560448201526a74206f6620626f756e647360a81b6064820152608490fd5b503461000e576104b06106a636610586565b90604051926106b484610e48565b600084526115f9565b503461000e57602036600319011261000e5760043560405161073661073160208301836107153383601f916a706f6f6c2e65786973747360a81b82526bffffffffffffffffffffffff199060601b16600b8201520190565b0393610729601f1995868101835282610ea9565b519020611179565b611131565b610788604051916107746020840191846107688785602b916a1c1bdbdb0b999bdc8b9a5960aa1b8252600b8201520190565b03908101855284610ea9565b91519091206001600160a01b03919061122b565b163303610798576104b090611b2f565b60405162461bcd60e51b815260206004820152602360248201527f63616e6e6f74206275726e207368617265732066726f6d206f7468657220706f6044820152626f6c7360e81b6064820152608490fd5b503461000e57602036600319011261000e576004356000908152600260209081526040909120546001600160a01b031615156040519015158152f35b503461000e57602036600319011261000e576004356008548110156108775760086000527ff3f7a9fe364faab93b216da50a3214154f22a0a2b415b23a84c8169e8b636ee30154604051908152602090f35b60405162461bcd60e51b815260206004820152602c60248201527f455243373231456e756d657261626c653a20676c6f62616c20696e646578206f60448201526b7574206f6620626f756e647360a01b6064820152608490fd5b503461000e57600036600319011261000e57602060ff600a5460a01c16604051908152f35b503461000e57602036600319011261000e576020610431600435611417565b503461000e5760208060031936011261000e5760043561093481610443565b6040516a706f6f6c2e65786973747360a81b8382019081523360601b6bffffffffffffffffffffffff1916600b82015261098491610731919061072981601f84015b03601f198101835282610ea9565b60405182810190671d1bdad95b8b9a5960c21b8252600881526109a681610e71565b519020600b5460405163bd02d0f560e01b815260048101929092528390829060249082906001600160a01b03165afa928315610a22575b6000936109ef575b6104b08484611789565b81813d8311610a1b575b610a038183610ea9565b81010312610a17575191506104b0386109e5565b8280fd5b503d6109f9565b610a2a61116c565b6109dd565b503461000e57602036600319011261000e576020610a57600435610a5281610443565b61139f565b604051908152f35b503461000e5760008060031936011261040f57600a5481906001600160a01b03811690610a8d33831461130b565b6001600160a01b031916600a557f8be0079c531659141344cd1fd0a4f28419497f9722a3daafe3b4186f6b6457e08280a380f35b503461000e57600036600319011261000e57600a546040516001600160a01b039091168152602090f35b503461000e5760008060031936011261040f576040519080600190815480831c92808216928315610ba3575b60209283861085146103f15785885260208801949081156103d05750600114610b4a576103748761036881890382610ea9565b600160005294509192917fb10e2d527612073b26eecdfd717e6a320cf44b4afac2b0732d9fcbe2b7fa0cf65b838610610b925750505091019050610368826103743880610358565b805485870152948201948101610b76565b93607f1693610b17565b8015150361000e57565b503461000e57604036600319011261000e57600435610bd581610443565b602435610be181610bad565b6001600160a01b03821691338314610c635781610c20610c319233600052600560205260406000209060018060a01b0316600052602052604060002090565b9060ff801983541691151516179055565b604051901515815233907f17307eab39ab6107e8899845ad3d59bd9653f200f220920489ca2b5937696c3190602090a3005b60405162461bcd60e51b815260206004820152601960248201527f4552433732313a20617070726f766520746f2063616c6c6572000000000000006044820152606490fd5b503461000e57602036600319011261000e576103746004356000610dd9610cce836111fa565b92610d3e6040519485610d22602082019283602d917f706f6f6c2e73706563696669632e6172742e616464726573730000000000000082526bffffffffffffffffffffffff199060601b1660198201520190565b0395610d36601f1997888101835282610ea9565b51902061122b565b6001600160a01b039490851680158514610e295750610daa610db691604051610d36602082019282610d9e610d8a866010906f636f6e74726163742e6164647265737360801b81520190565b67119c995b9cd05c9d60c21b815260080190565b03908101835282610ea9565b6001600160a01b031690565b905b60405194858094819363516b636d60e11b8352600483019190602083019252565b0392165afa908115610e1c575b600091610dfb575b50604051918291826102f3565b610e16913d8091833e610e0e8183610ea9565b8101906112ac565b38610dee565b610e2461116c565b610de6565b905090610db8565b50634e487b7160e01b600052604160045260246000fd5b6020810190811067ffffffffffffffff821117610e6457604052565b610e6c610e31565b604052565b6040810190811067ffffffffffffffff821117610e6457604052565b6060810190811067ffffffffffffffff821117610e6457604052565b90601f8019910116810190811067ffffffffffffffff821117610e6457604052565b60209067ffffffffffffffff8111610ee9575b601f01601f19160190565b610ef1610e31565b610ede565b503461000e57608036600319011261000e57600435610f1481610443565b602435610f2081610443565b6064359167ffffffffffffffff831161000e573660238401121561000e57826004013591610f4d83610ecb565b92610f5b6040519485610ea9565b808452366024828701011161000e5760208160009260246104b098018388013785010152604435916115f9565b503461000e57602036600319011261000e57610374610ff0610daa610daa60405160208101906f636f6e74726163742e6164647265737360801b8252754672656e73506f6f6c5368617265546f6b656e55524960501b603082015260268152610d3681610e8d565b60405163c87b56dd60e01b8152600480359082015290600090829060249082905afa908115610e1c57600091610dfb5750604051918291826102f3565b503461000e57604036600319011261000e57602060ff61108a60043561105281610443565b6024359061105f82610443565b60018060a01b03166000526005845260406000209060018060a01b0316600052602052604060002090565b54166040519015158152f35b503461000e57602036600319011261000e576004356110b481610443565b600a546001600160a01b03906110cd908216331461130b565b8116156110dd576104b090611356565b60405162461bcd60e51b815260206004820152602660248201527f4f776e61626c653a206e6577206f776e657220697320746865207a65726f206160448201526564647265737360d01b6064820152608490fd5b1561113857565b60405162461bcd60e51b815260206004820152600c60248201526b125b9d985b1a5908141bdbdb60a21b6044820152606490fd5b506040513d6000823e3d90fd5b600b54604051633d70e7e560e11b81526004810192909252602090829060249082906001600160a01b03165afa9081156111ed575b6000916111b9575090565b906020823d82116111e5575b816111d260209383610ea9565b8101031261040f57505161030481610bad565b3d91506111c5565b6111f561116c565b6111ae565b61030490604051610d3681610976602082019485602b916a1c1bdbdb0b999bdc8b9a5960aa1b8252600b8201520190565b600b546040516321f8a72160e01b81526004810192909252602090829060249082906001600160a01b03165afa90811561129f575b60009161126b575090565b906020823d8211611297575b8161128460209383610ea9565b8101031261040f57505161030481610443565b3d9150611277565b6112a761116c565b611260565b60208183031261000e5780519067ffffffffffffffff821161000e570181601f8201121561000e5780516112df81610ecb565b926112ed6040519485610ea9565b8184526020828401011161000e5761030491602080850191016102ab565b1561131257565b606460405162461bcd60e51b815260206004820152602060248201527f4f776e61626c653a2063616c6c6572206973206e6f7420746865206f776e65726044820152fd5b600a80546001600160a01b039283166001600160a01b0319821681179092559091167f8be0079c531659141344cd1fd0a4f28419497f9722a3daafe3b4186f6b6457e0600080a3565b6001600160a01b031680156113bf57600052600360205260406000205490565b60405162461bcd60e51b815260206004820152602a60248201527f4552433732313a2062616c616e636520717565727920666f7220746865207a65604482015269726f206164647265737360b01b6064820152608490fd5b6000908152600260205260409020546001600160a01b031680156114385790565b60405162461bcd60e51b815260206004820152602960248201527f4552433732313a206f776e657220717565727920666f72206e6f6e657869737460448201526832b73a103a37b5b2b760b91b6064820152608490fd5b1561149657565b60405162461bcd60e51b815260206004820152603860248201527f4552433732313a20617070726f76652063616c6c6572206973206e6f74206f7760448201527f6e6572206e6f7220617070726f76656420666f7220616c6c00000000000000006064820152608490fd5b6000818152600260205260409020546001600160a01b031615611539576000908152600460205260409020546001600160a01b031690565b60405162461bcd60e51b815260206004820152602c60248201527f4552433732313a20617070726f76656420717565727920666f72206e6f6e657860448201526b34b9ba32b73a103a37b5b2b760a11b6064820152608490fd5b1561159a57565b60405162461bcd60e51b815260206004820152603160248201527f4552433732313a207472616e736665722063616c6c6572206973206e6f74206f6044820152701ddb995c881b9bdc88185c1c1c9bdd9959607a1b6064820152608490fd5b916116259391611620936116106105d2843361169e565b61161b838383611d20565b612060565b61167a565b565b60809060208152603260208201527f4552433732313a207472616e7366657220746f206e6f6e20455243373231526560408201527131b2b4bb32b91034b6b83632b6b2b73a32b960711b60608201520190565b1561168157565b60405162461bcd60e51b81528061169a60048201611627565b0390fd5b6000828152600260205260409020546001600160a01b03161561172f576116c482611417565b6001600160a01b038281168282168114949091908515611717575b50505082156116ed57505090565b6001600160a01b0316600090815260056020526040902060ff925061171291906104d5565b541690565b6117249192939550611501565b1614913880806116df565b60405162461bcd60e51b815260206004820152602c60248201527f4552433732313a206f70657261746f7220717565727920666f72206e6f6e657860448201526b34b9ba32b73a103a37b5b2b760a11b6064820152608490fd5b9060405161179681610e48565b600081526001600160a01b0383169182156118a5576000818152600260205260409020546001600160a01b0316611860578381611620946117da8261162598611955565b6001600160a01b03831660009081526003602052604090206117fc8154611900565b905561183583611816846000526002602052604060002090565b80546001600160a01b0319166001600160a01b03909216919091179055565b60007fddf252ad1be2c89b69c2b068fc378daa952ba7f163c4a11628f55a4df523b3ef8180a4611f9f565b60405162461bcd60e51b815260206004820152601c60248201527f4552433732313a20746f6b656e20616c7265616479206d696e746564000000006044820152606490fd5b606460405162461bcd60e51b815260206004820152602060248201527f4552433732313a206d696e7420746f20746865207a65726f20616464726573736044820152fd5b50634e487b7160e01b600052601160045260246000fd5b906001820180921161190e57565b6116256118e9565b1561191d57565b60405162461bcd60e51b815260206004820152601060248201526f6e6f74207472616e7366657261626c6560801b6044820152606490fd5b9061195f816120eb565b6001600160a01b038216611977576116259150612164565b611625916120b3565b6001600160a01b0381811692831592909185918415611a3557506119a3826120eb565b8216801594908515611a185750506119bb9150612164565b159081611a0f575b506119cb5750565b611a0a611a066116259260405161072981610976602082019485602f916e1d1c985b9cd9995c8b9b1bd8dad959608a1b8252600f8201520190565b1590565b611916565b905015386119c3565b03611a25575b50506119bb565b611a2e916120b3565b3883611a1e565b8184168603611a45575b506119a3565b611ab9611a518261139f565b6000198101908111611b13575b611aaa60009386855260076020526040852054838103611ac0575b5084611a8f886000526007602052604060002090565b556001600160a01b0316600090815260066020526040902090565b90600052602052604060002090565b5538611a3f565b8a8652600660205260408620848752602052611b0c604087205480611afb84611aaa8760018060a01b03166000526006602052604060002090565b556000526007602052604060002090565b5538611a79565b611b1b6118e9565b611a5e565b60001981019190821161190e57565b611b3881611417565b6001600160a01b038116908115908115611c295750611b56836120eb565b611b5f83612164565b1580611c21575b611be1575b611b7482611e46565b6000908082526003602052604082208054906000198201918211611bd4575b5582825260026020526040822080546001600160a01b03191690557fddf252ad1be2c89b69c2b068fc378daa952ba7f163c4a11628f55a4df523b3ef8280a4565b611bdc6118e9565b611b93565b611c1c611a0a611a066040516020810190610729816109768985602f916e1d1c985b9cd9995c8b9b1bd8dad959608a1b8252600f8201520190565b611b6b565b506000611b66565b611c73611c358261139f565b6000198101908111611cbb575b611aaa60009387855260076020526040852054838103611c79575b5084611a8f896000526007602052604060002090565b55611b56565b878652600660205260408620848752602052611cb4604087205480611afb84611aaa8760018060a01b03166000526006602052604060002090565b5538611c5d565b611cc36118e9565b611c42565b15611ccf57565b60405162461bcd60e51b8152602060048201526024808201527f4552433732313a207472616e7366657220746f20746865207a65726f206164646044820152637265737360e01b6064820152608490fd5b90611d2a83611417565b6001600160a01b038381169290918216839003611def57611d84611dc892821694611d56861515611cc8565b611d61878483611980565b611d6a87611e46565b6001600160a01b0316600090815260036020526040902090565b611d8e8154611b20565b90556001600160a01b0381166000908152600360205260409020611db28154611900565b9055611816856000526002602052604060002090565b7fddf252ad1be2c89b69c2b068fc378daa952ba7f163c4a11628f55a4df523b3ef600080a4565b60405162461bcd60e51b815260206004820152602960248201527f4552433732313a207472616e73666572206f6620746f6b656e2074686174206960448201526839903737ba1037bbb760b91b6064820152608490fd5b600081815260046020526040812080546001600160a01b03191690556001600160a01b03611e7383611417565b167f8c5be1e5ebec7d5bd14f71427d1e84f3dd0314c0f7b2291e5b200ac8c7c3b9258280a4565b600082815260046020526040902080546001600160a01b0319166001600160a01b0383161790556001600160a01b0380611ed384611417565b169116907f8c5be1e5ebec7d5bd14f71427d1e84f3dd0314c0f7b2291e5b200ac8c7c3b925600080a4565b9081602091031261000e575161030481610210565b610304939260809260018060a01b0316825260006020830152604082015281606082015201906102ce565b6001600160a01b039182168152911660208201526040810191909152608060608201819052610304929101906102ce565b3d15611f9a573d90611f8082610ecb565b91611f8e6040519384610ea9565b82523d6000602084013e565b606090565b909190803b1561205857611fd1602091600093604051948580948193630a85bd0160e11b998a84523360048501611f13565b03926001600160a01b03165af160009181612028575b5061201a57611ff4611f6f565b805190816120155760405162461bcd60e51b81528061169a60048201611627565b602001fd5b6001600160e01b0319161490565b61204a91925060203d8111612051575b6120428183610ea9565b810190611efe565b9038611fe7565b503d612038565b505050600190565b92909190823b1561209357611fd1926020926000604051809681958294630a85bd0160e11b9a8b85523360048601611f3e565b50505050600190565b50634e487b7160e01b600052603260045260246000fd5b6040906120bf8161139f565b9260009160018060a01b0316825260066020528282208483526020528083832055815260076020522055565b6008548160005260096020528060406000205568010000000000000000811015612157575b600181018060085581101561214a575b60086000527ff3f7a9fe364faab93b216da50a3214154f22a0a2b415b23a84c8169e8b636ee30155565b61215261209c565b612120565b61215f610e31565b612110565b60088054600019929083810181811161226d575b61221460009384928184526009602052846040852054911015612260575b8684526122037ff3f7a9fe364faab93b216da50a3214154f22a0a2b415b23a84c8169e8b636ee2958681015490831015612253575b88865280837ff3f7a9fe364faab93b216da50a3214154f22a0a2b415b23a84c8169e8b636ee301556000526009602052604060002090565b556000526009602052604060002090565b55825493841561223f5784019380851015612232575b838352015555565b61223a61209c565b61222a565b634e487b7160e01b83526031600452602483fd5b61225b61209c565b6121cb565b61226861209c565b612196565b6122756118e9565b61217856fea264697066735822122015413509764f138ede6013fbafcee2fac5d50b6a09fe1e3475ddf61468ca84c264736f6c63430008110033",
    "linkReferences": {}
  },
  "methodIdentifiers": {
    "approve(address,uint256)": "095ea7b3",
    "balanceOf(address)": "70a08231",
    "burn(uint256)": "42966c68",
    "exists(uint256)": "4f558e79",
    "getApproved(uint256)": "081812fc",
    "getPoolById(uint256)": "0bc59b38",
    "isApprovedForAll(address,address)": "e985e9c5",
    "mint(address)": "6a627842",
    "name()": "06fdde03",
    "owner()": "8da5cb5b",
    "ownerOf(uint256)": "6352211e",
    "renderTokenById(uint256)": "a2d6c6da",
    "renounceOwnership()": "715018a6",
    "safeTransferFrom(address,address,uint256)": "42842e0e",
    "safeTransferFrom(address,address,uint256,bytes)": "b88d4fde",
    "setApprovalForAll(address,bool)": "a22cb465",
    "supportsInterface(bytes4)": "01ffc9a7",
    "symbol()": "95d89b41",
    "tokenByIndex(uint256)": "4f6ccce7",
    "tokenOfOwnerByIndex(address,uint256)": "2f745c59",
    "tokenURI(uint256)": "c87b56dd",
    "totalSupply()": "18160ddd",
    "transferFrom(address,address,uint256)": "23b872dd",
    "transferOwnership(address)": "f2fde38b",
    "version()": "54fd4d50"
  },
  "id": 8
}