{
  "abi": [
    {
      "inputs": [
        {
          "internalType": "contract IFrensStorage",
          "name": "_frensStorage",
          "type": "address"
        }
      ],
      "stateMutability": "nonpayable",
      "type": "constructor"
    },
    {
      "anonymous": false,
      "inputs": [
        {
          "indexed": true,
          "internalType": "address",
          "name": "owner",
          "type": "address"
        },
        {
          "indexed": true,
          "internalType": "address",
          "name": "approved",
          "type": "address"
        },
        {
          "indexed": true,
          "internalType": "uint256",
          "name": "tokenId",
          "type": "uint256"
        }
      ],
      "name": "Approval",
      "type": "event"
    },
    {
      "anonymous": false,
      "inputs": [
        {
          "indexed": true,
          "internalType": "address",
          "name": "owner",
          "type": "address"
        },
        {
          "indexed": true,
          "internalType": "address",
          "name": "operator",
          "type": "address"
        },
        {
          "indexed": false,
          "internalType": "bool",
          "name": "approved",
          "type": "bool"
        }
      ],
      "name": "ApprovalForAll",
      "type": "event"
    },
    {
      "anonymous": false,
      "inputs": [
        {
          "indexed": true,
          "internalType": "address",
          "name": "previousOwner",
          "type": "address"
        },
        {
          "indexed": true,
          "internalType": "address",
          "name": "newOwner",
          "type": "address"
        }
      ],
      "name": "OwnershipTransferred",
      "type": "event"
    },
    {
      "anonymous": false,
      "inputs": [
        {
          "indexed": true,
          "internalType": "address",
          "name": "from",
          "type": "address"
        },
        {
          "indexed": true,
          "internalType": "address",
          "name": "to",
          "type": "address"
        },
        {
          "indexed": true,
          "internalType": "uint256",
          "name": "tokenId",
          "type": "uint256"
        }
      ],
      "name": "Transfer",
      "type": "event"
    },
    {
      "inputs": [
        {
          "internalType": "address",
          "name": "to",
          "type": "address"
        },
        {
          "internalType": "uint256",
          "name": "tokenId",
          "type": "uint256"
        }
      ],
      "name": "approve",
      "outputs": [],
      "stateMutability": "nonpayable",
      "type": "function"
    },
    {
      "inputs": [
        {
          "internalType": "address",
          "name": "owner",
          "type": "address"
        }
      ],
      "name": "balanceOf",
      "outputs": [
        {
          "internalType": "uint256",
          "name": "",
          "type": "uint256"
        }
      ],
      "stateMutability": "view",
      "type": "function"
    },
    {
      "inputs": [
        {
          "internalType": "uint256",
          "name": "_id",
          "type": "uint256"
        }
      ],
      "name": "exists",
      "outputs": [
        {
          "internalType": "bool",
          "name": "",
          "type": "bool"
        }
      ],
      "stateMutability": "view",
      "type": "function"
    },
    {
      "inputs": [
        {
          "internalType": "uint256",
          "name": "tokenId",
          "type": "uint256"
        }
      ],
      "name": "getApproved",
      "outputs": [
        {
          "internalType": "address",
          "name": "",
          "type": "address"
        }
      ],
      "stateMutability": "view",
      "type": "function"
    },
    {
      "inputs": [
        {
          "internalType": "uint256",
          "name": "_id",
          "type": "uint256"
        }
      ],
      "name": "getPoolById",
      "outputs": [
        {
          "internalType": "address",
          "name": "",
          "type": "address"
        }
      ],
      "stateMutability": "view",
      "type": "function"
    },
    {
      "inputs": [
        {
          "internalType": "address",
          "name": "owner",
          "type": "address"
        },
        {
          "internalType": "address",
          "name": "operator",
          "type": "address"
        }
      ],
      "name": "isApprovedForAll",
      "outputs": [
        {
          "internalType": "bool",
          "name": "",
          "type": "bool"
        }
      ],
      "stateMutability": "view",
      "type": "function"
    },
    {
      "inputs": [
        {
          "internalType": "address",
          "name": "userAddress",
          "type": "address"
        }
      ],
      "name": "mint",
      "outputs": [],
      "stateMutability": "nonpayable",
      "type": "function"
    },
    {
      "inputs": [],
      "name": "name",
      "outputs": [
        {
          "internalType": "string",
          "name": "",
          "type": "string"
        }
      ],
      "stateMutability": "view",
      "type": "function"
    },
    {
      "inputs": [],
      "name": "owner",
      "outputs": [
        {
          "internalType": "address",
          "name": "",
          "type": "address"
        }
      ],
      "stateMutability": "view",
      "type": "function"
    },
    {
      "inputs": [
        {
          "internalType": "uint256",
          "name": "tokenId",
          "type": "uint256"
        }
      ],
      "name": "ownerOf",
      "outputs": [
        {
          "internalType": "address",
          "name": "",
          "type": "address"
        }
      ],
      "stateMutability": "view",
      "type": "function"
    },
    {
      "inputs": [
        {
          "internalType": "uint256",
          "name": "id",
          "type": "uint256"
        }
      ],
      "name": "renderTokenById",
      "outputs": [
        {
          "internalType": "string",
          "name": "",
          "type": "string"
        }
      ],
      "stateMutability": "view",
      "type": "function"
    },
    {
      "inputs": [],
      "name": "renounceOwnership",
      "outputs": [],
      "stateMutability": "nonpayable",
      "type": "function"
    },
    {
      "inputs": [
        {
          "internalType": "address",
          "name": "from",
          "type": "address"
        },
        {
          "internalType": "address",
          "name": "to",
          "type": "address"
        },
        {
          "internalType": "uint256",
          "name": "tokenId",
          "type": "uint256"
        }
      ],
      "name": "safeTransferFrom",
      "outputs": [],
      "stateMutability": "nonpayable",
      "type": "function"
    },
    {
      "inputs": [
        {
          "internalType": "address",
          "name": "from",
          "type": "address"
        },
        {
          "internalType": "address",
          "name": "to",
          "type": "address"
        },
        {
          "internalType": "uint256",
          "name": "tokenId",
          "type": "uint256"
        },
        {
          "internalType": "bytes",
          "name": "_data",
          "type": "bytes"
        }
      ],
      "name": "safeTransferFrom",
      "outputs": [],
      "stateMutability": "nonpayable",
      "type": "function"
    },
    {
      "inputs": [
        {
          "internalType": "address",
          "name": "operator",
          "type": "address"
        },
        {
          "internalType": "bool",
          "name": "approved",
          "type": "bool"
        }
      ],
      "name": "setApprovalForAll",
      "outputs": [],
      "stateMutability": "nonpayable",
      "type": "function"
    },
    {
      "inputs": [
        {
          "internalType": "bytes4",
          "name": "interfaceId",
          "type": "bytes4"
        }
      ],
      "name": "supportsInterface",
      "outputs": [
        {
          "internalType": "bool",
          "name": "",
          "type": "bool"
        }
      ],
      "stateMutability": "view",
      "type": "function"
    },
    {
      "inputs": [],
      "name": "symbol",
      "outputs": [
        {
          "internalType": "string",
          "name": "",
          "type": "string"
        }
      ],
      "stateMutability": "view",
      "type": "function"
    },
    {
      "inputs": [
        {
          "internalType": "uint256",
          "name": "index",
          "type": "uint256"
        }
      ],
      "name": "tokenByIndex",
      "outputs": [
        {
          "internalType": "uint256",
          "name": "",
          "type": "uint256"
        }
      ],
      "stateMutability": "view",
      "type": "function"
    },
    {
      "inputs": [
        {
          "internalType": "address",
          "name": "owner",
          "type": "address"
        },
        {
          "internalType": "uint256",
          "name": "index",
          "type": "uint256"
        }
      ],
      "name": "tokenOfOwnerByIndex",
      "outputs": [
        {
          "internalType": "uint256",
          "name": "",
          "type": "uint256"
        }
      ],
      "stateMutability": "view",
      "type": "function"
    },
    {
      "inputs": [
        {
          "internalType": "uint256",
          "name": "id",
          "type": "uint256"
        }
      ],
      "name": "tokenURI",
      "outputs": [
        {
          "internalType": "string",
          "name": "",
          "type": "string"
        }
      ],
      "stateMutability": "view",
      "type": "function"
    },
    {
      "inputs": [],
      "name": "totalSupply",
      "outputs": [
        {
          "internalType": "uint256",
          "name": "",
          "type": "uint256"
        }
      ],
      "stateMutability": "view",
      "type": "function"
    },
    {
      "inputs": [
        {
          "internalType": "address",
          "name": "from",
          "type": "address"
        },
        {
          "internalType": "address",
          "name": "to",
          "type": "address"
        },
        {
          "internalType": "uint256",
          "name": "tokenId",
          "type": "uint256"
        }
      ],
      "name": "transferFrom",
      "outputs": [],
      "stateMutability": "nonpayable",
      "type": "function"
    },
    {
      "inputs": [
        {
          "internalType": "address",
          "name": "newOwner",
          "type": "address"
        }
      ],
      "name": "transferOwnership",
      "outputs": [],
      "stateMutability": "nonpayable",
      "type": "function"
    },
    {
      "inputs": [],
      "name": "version",
      "outputs": [
        {
          "internalType": "uint8",
          "name": "",
          "type": "uint8"
        }
      ],
      "stateMutability": "view",
      "type": "function"
    }
  ],
  "bytecode": {
    "object": "0x608034620003a957601f906001600160401b0390601f1990620022ca3881900385810184168301858111848210176200039357839282916040528339602092839181010312620003a957516001600160a01b03948582169491859003620003a9576200006a620003ae565b9260128452717374616b696e6720636f6e20616d69676f7360701b8185015262000093620003ae565b9060058252644652454e5360d81b8183015284519584871162000393576000968754966001978881811c9116801562000388575b85821014620003745790818784931162000321575b508490878311600114620002c0578a92620002b4575b5050600019600383901b1c191690871b1787555b8251948511620002a05785548681811c9116801562000295575b83821014620002815790818587969594931162000228575b5081938511600114620001c35750508592620001b7575b5050600019600383901b1c191690821b1790555b600a5460018060a01b0319913383831617600a557f8be0079c531659141344cd1fd0a4f28419497f9722a3daafe3b4186f6b6457e0604051953393169180a3600b541617600b55611efb9081620003cf8239f35b0151905038806200014f565b869593929193168588528388209388905b8282106200020e5750508411620001f4575b505050811b01905562000163565b015160001960f88460031b161c19169055388080620001e6565b8484015186558897909501949384019390810190620001d4565b9091929394508688528288208580880160051c82019285891062000277575b9188978a9297969594930160051c01915b8281106200026857505062000138565b8a815588975089910162000258565b9250819262000247565b634e487b7160e01b88526022600452602488fd5b90607f169062000120565b634e487b7160e01b87526041600452602487fd5b015190503880620000f2565b90848a9416918b8052868c20928c5b888282106200030a5750508411620002f0575b505050811b01875562000106565b015160001960f88460031b161c19169055388080620002e2565b8385015186558d97909501949384019301620002cf565b909150898052848a208780850160051c8201928786106200036a575b918b91869594930160051c01915b8281106200035b575050620000dc565b8c81558594508b91016200034b565b925081926200033d565b634e487b7160e01b8a52602260045260248afd5b90607f1690620000c7565b634e487b7160e01b600052604160045260246000fd5b600080fd5b60408051919082016001600160401b03811183821017620003935760405256fe60806040526004361015610013575b600080fd5b60003560e01c806301ffc9a7146101f357806306fdde03146101ea578063081812fc146101e1578063095ea7b3146101d85780630bc59b38146101cf57806318160ddd146101c657806323b872dd146101bd5780632f745c59146101b457806342842e0e146101ab5780634f558e79146101a25780634f6ccce71461019957806354fd4d50146101905780636352211e146101875780636a6278421461017e57806370a0823114610175578063715018a61461016c5780638da5cb5b1461016357806395d89b411461015a578063a22cb46514610151578063a2d6c6da14610148578063b88d4fde1461013f578063c87b56dd14610136578063e985e9c51461012d5763f2fde38b1461012557600080fd5b61000e610f1e565b5061000e610eb5565b5061000e610e10565b5061000e610d7e565b5061000e610b30565b5061000e610a3f565b5061000e610973565b5061000e610949565b5061000e6108e7565b5061000e6108b7565b5061000e6107d5565b5061000e6107b6565b5061000e610791565b5061000e6106e5565b5061000e6106a9565b5061000e610680565b5061000e6105c8565b5061000e61059e565b5061000e610553565b5061000e610534565b5061000e610440565b5061000e6103fe565b5061000e6102f3565b5061000e61020e565b6001600160e01b031981160361000e57565b503461000e57602036600319011261000e57602060043561022e816101fc565b63ffffffff60e01b1663780e9d6360e01b8114908115610254575b506040519015158152f35b6380ac58cd60e01b811491508115610286575b8115610275575b5038610249565b6301ffc9a760e01b1490503861026e565b635b5e139f60e01b81149150610267565b60005b8381106102aa5750506000910152565b818101518382015260200161029a565b906020916102d381518092818552858086019101610297565b601f01601f1916010190565b9060206102f09281815201906102ba565b90565b503461000e576000806003193601126103fb57604051908080549060019180831c928082169283156103f1575b60209283861085146103dd5785885260208801949081156103bc5750600114610364575b6103608761035481890382610d31565b604051918291826102df565b0390f35b6000805294509192917f290decd9548b62a8d60345a988386fc84ba6bc95484008f6362f93160ef3e5635b8386106103ab5750505091019050610354826103603880610344565b80548587015294820194810161038f565b60ff191685525050505090151560051b019050610354826103603880610344565b634e487b7160e01b82526022600452602482fd5b93607f1693610320565b80fd5b503461000e57602036600319011261000e57602061041d600435611506565b6040516001600160a01b039091168152f35b6001600160a01b0381160361000e57565b503461000e57604036600319011261000e5760043561045e8161042f565b60243561046a8161141c565b916001600160a01b0380841690821681146104e55761049c9361049791331490811561049e575b50611494565b611995565b005b6001600160a01b031660009081526005602052604090206104df91506104d89033905b9060018060a01b0316600052602052604060002090565b5460ff1690565b38610491565b60405162461bcd60e51b815260206004820152602160248201527f4552433732313a20617070726f76616c20746f2063757272656e74206f776e656044820152603960f91b6064820152608490fd5b503461000e57602036600319011261000e57602061041d600435611201565b503461000e57600036600319011261000e576020600854604051908152f35b606090600319011261000e5760043561058a8161042f565b906024356105978161042f565b9060443590565b503461000e5761049c6105b036610572565b916105c36105be843361169c565b611598565b61181b565b503461000e57604036600319011261000e576004356105e68161042f565b602435906105f3816113a4565b821015610627576001600160a01b031660009081526006602090815260408083209383529281529082902054915191825290f35b60405162461bcd60e51b815260206004820152602b60248201527f455243373231456e756d657261626c653a206f776e657220696e646578206f7560448201526a74206f6620626f756e647360a81b6064820152608490fd5b503461000e5761049c61069236610572565b90604051926106a084610cd0565b600084526115fe565b503461000e57602036600319011261000e576004356000908152600260209081526040909120546001600160a01b031615156040519015158152f35b503461000e57602036600319011261000e576004356008548110156107375760086000527ff3f7a9fe364faab93b216da50a3214154f22a0a2b415b23a84c8169e8b636ee30154604051908152602090f35b60405162461bcd60e51b815260206004820152602c60248201527f455243373231456e756d657261626c653a20676c6f62616c20696e646578206f60448201526b7574206f6620626f756e647360a01b6064820152608490fd5b503461000e57600036600319011261000e57602060ff600a5460a01c16604051908152f35b503461000e57602036600319011261000e57602061041d60043561141c565b503461000e5760208060031936011261000e576004356107f48161042f565b604051828101906a706f6f6c2e65786973747360a81b82523360601b602b820152601f815261082281610cf9565b519020918060018060a01b03600b541693602460405180968193633d70e7e560e11b835260048301525afa9081156108aa575b60009161086f575b61049c8361086a84610fb9565b610ff4565b83813d83116108a3575b6108838183610d31565b810103126103fb575061086a61049c925161089d81610a35565b9061085d565b503d610879565b6108b26111f4565b610855565b503461000e57602036600319011261000e5760206108df6004356108da8161042f565b6113a4565b604051908152f35b503461000e576000806003193601126103fb57600a5481906001600160a01b03811690610915338314611310565b6001600160a01b031916600a557f8be0079c531659141344cd1fd0a4f28419497f9722a3daafe3b4186f6b6457e08280a380f35b503461000e57600036600319011261000e57600a546040516001600160a01b039091168152602090f35b503461000e576000806003193601126103fb576040519080600190815480831c92808216928315610a2b575b60209283861085146103dd5785885260208801949081156103bc57506001146109d2576103608761035481890382610d31565b600160005294509192917fb10e2d527612073b26eecdfd717e6a320cf44b4afac2b0732d9fcbe2b7fa0cf65b838610610a1a5750505091019050610354826103603880610344565b8054858701529482019481016109fe565b93607f169361099f565b8015150361000e57565b503461000e57604036600319011261000e57600435610a5d8161042f565b602435610a6981610a35565b6001600160a01b03821691338314610aeb5781610aa8610ab99233600052600560205260406000209060018060a01b0316600052602052604060002090565b9060ff801983541691151516179055565b604051901515815233907f17307eab39ab6107e8899845ad3d59bd9653f200f220920489ca2b5937696c3190602090a3005b60405162461bcd60e51b815260206004820152601960248201527f4552433732313a20617070726f766520746f2063616c6c6572000000000000006044820152606490fd5b503461000e57602036600319011261000e576103606004356000610c61610b5683611201565b92610bc66040519485610baa602082019283602d917f706f6f6c2e73706563696669632e6172742e616464726573730000000000000082526bffffffffffffffffffffffff199060601b1660198201520190565b0395610bbe601f1997888101835282610d31565b519020611230565b6001600160a01b039490851680158514610cb15750610c32610c3e91604051610bbe602082019282610c26610c12866010906f636f6e74726163742e6164647265737360801b81520190565b67119c995b9cd05c9d60c21b815260080190565b03908101835282610d31565b6001600160a01b031690565b905b60405194858094819363516b636d60e11b8352600483019190602083019252565b0392165afa908115610ca4575b600091610c83575b50604051918291826102df565b610c9e913d8091833e610c968183610d31565b8101906112b1565b38610c76565b610cac6111f4565b610c6e565b905090610c40565b50634e487b7160e01b600052604160045260246000fd5b6020810190811067ffffffffffffffff821117610cec57604052565b610cf4610cb9565b604052565b6040810190811067ffffffffffffffff821117610cec57604052565b6060810190811067ffffffffffffffff821117610cec57604052565b90601f8019910116810190811067ffffffffffffffff821117610cec57604052565b60209067ffffffffffffffff8111610d71575b601f01601f19160190565b610d79610cb9565b610d66565b503461000e57608036600319011261000e57600435610d9c8161042f565b602435610da88161042f565b6064359167ffffffffffffffff831161000e573660238401121561000e57826004013591610dd583610d53565b92610de36040519485610d31565b808452366024828701011161000e57602081600092602461049c98018388013785010152604435916115fe565b503461000e57602036600319011261000e57610360610e78610c32610c3260405160208101906f636f6e74726163742e6164647265737360801b8252754672656e73506f6f6c5368617265546f6b656e55524960501b603082015260268152610bbe81610d15565b60405163c87b56dd60e01b8152600480359082015290600090829060249082905afa908115610ca457600091610c835750604051918291826102df565b503461000e57604036600319011261000e57602060ff610f12600435610eda8161042f565b60243590610ee78261042f565b60018060a01b03166000526005845260406000209060018060a01b0316600052602052604060002090565b54166040519015158152f35b503461000e57602036600319011261000e57600435610f3c8161042f565b600a546001600160a01b0390610f559082163314611310565b811615610f655761049c9061135b565b60405162461bcd60e51b815260206004820152602660248201527f4f776e61626c653a206e6577206f776e657220697320746865207a65726f206160448201526564647265737360d01b6064820152608490fd5b15610fc057565b60405162461bcd60e51b815260206004820152600c60248201526b125b9d985b1a5908141bdbdb60a21b6044820152606490fd5b6040519060209182810190671d1bdad95b8b9a5960c21b82526008815261101a81610cf9565b5190209060018060a01b03928084600b54169360246040518096819363bd02d0f560e01b835260048301525afa9283156111e7575b6000936111b8575b506040519361106585610cd0565b600085528216908115611175576000848152600260205260409020546001600160a01b0316611131575091818161112a946110a48261112f9896611bae565b6001600160a01b03831660009081526003602052604090206110c6815461179e565b90556110ff836110e0846000526002602052604060002090565b80546001600160a01b0319166001600160a01b03909216919091179055565b60007fddf252ad1be2c89b69c2b068fc378daa952ba7f163c4a11628f55a4df523b3ef8180a4611a9a565b611678565b565b6064906040519062461bcd60e51b82526004820152601c60248201527f4552433732313a20746f6b656e20616c7265616479206d696e746564000000006044820152fd5b6064906040519062461bcd60e51b825280600483015260248201527f4552433732313a206d696e7420746f20746865207a65726f20616464726573736044820152fd5b90928382813d83116111e0575b6111cf8183610d31565b810103126103fb5750519138611057565b503d6111c5565b6111ef6111f4565b61104f565b506040513d6000823e3d90fd5b6102f09060405160208101916a1c1bdbdb0b999bdc8b9a5960aa1b8352602b820152602b8152610bbe81610d15565b600b546040516321f8a72160e01b81526004810192909252602090829060249082906001600160a01b03165afa9081156112a4575b600091611270575090565b906020823d821161129c575b8161128960209383610d31565b810103126103fb5750516102f08161042f565b3d915061127c565b6112ac6111f4565b611265565b60208183031261000e5780519067ffffffffffffffff821161000e570181601f8201121561000e5780516112e481610d53565b926112f26040519485610d31565b8184526020828401011161000e576102f09160208085019101610297565b1561131757565b606460405162461bcd60e51b815260206004820152602060248201527f4f776e61626c653a2063616c6c6572206973206e6f7420746865206f776e65726044820152fd5b600a80546001600160a01b039283166001600160a01b0319821681179092559091167f8be0079c531659141344cd1fd0a4f28419497f9722a3daafe3b4186f6b6457e0600080a3565b6001600160a01b031680156113c457600052600360205260406000205490565b60405162461bcd60e51b815260206004820152602a60248201527f4552433732313a2062616c616e636520717565727920666f7220746865207a65604482015269726f206164647265737360b01b6064820152608490fd5b6000908152600260205260409020546001600160a01b0316801561143d5790565b60405162461bcd60e51b815260206004820152602960248201527f4552433732313a206f776e657220717565727920666f72206e6f6e657869737460448201526832b73a103a37b5b2b760b91b6064820152608490fd5b1561149b57565b60405162461bcd60e51b815260206004820152603860248201527f4552433732313a20617070726f76652063616c6c6572206973206e6f74206f7760448201527f6e6572206e6f7220617070726f76656420666f7220616c6c00000000000000006064820152608490fd5b6000818152600260205260409020546001600160a01b03161561153e576000908152600460205260409020546001600160a01b031690565b60405162461bcd60e51b815260206004820152602c60248201527f4552433732313a20617070726f76656420717565727920666f72206e6f6e657860448201526b34b9ba32b73a103a37b5b2b760a11b6064820152608490fd5b1561159f57565b60405162461bcd60e51b815260206004820152603160248201527f4552433732313a207472616e736665722063616c6c6572206973206e6f74206f6044820152701ddb995c881b9bdc88185c1c1c9bdd9959607a1b6064820152608490fd5b9161112f939161112a936116156105be843361169c565b61162083838361181b565b611b5b565b60809060208152603260208201527f4552433732313a207472616e7366657220746f206e6f6e20455243373231526560408201527131b2b4bb32b91034b6b83632b6b2b73a32b960711b60608201520190565b1561167f57565b60405162461bcd60e51b81528061169860048201611625565b0390fd5b6000828152600260205260409020546001600160a01b03161561172d576116c28261141c565b6001600160a01b038281168282168114949091908515611715575b50505082156116eb57505090565b6001600160a01b0316600090815260056020526040902060ff925061171091906104c1565b541690565b6117229192939550611506565b1614913880806116dd565b60405162461bcd60e51b815260206004820152602c60248201527f4552433732313a206f70657261746f7220717565727920666f72206e6f6e657860448201526b34b9ba32b73a103a37b5b2b760a11b6064820152608490fd5b50634e487b7160e01b600052601160045260246000fd5b90600182018092116117ac57565b61112f611787565b156117bb57565b60405162461bcd60e51b8152602060048201526024808201527f4552433732313a207472616e7366657220746f20746865207a65726f206164646044820152637265737360e01b6064820152608490fd5b6000198101919082116117ac57565b906118258361141c565b6001600160a01b0383811692909182168390036118ea5761187f6118c3928216946118518615156117b4565b61185c878483611bd9565b61186587611941565b6001600160a01b0316600090815260036020526040902090565b611889815461180c565b90556001600160a01b03811660009081526003602052604090206118ad815461179e565b90556110e0856000526002602052604060002090565b7fddf252ad1be2c89b69c2b068fc378daa952ba7f163c4a11628f55a4df523b3ef600080a4565b60405162461bcd60e51b815260206004820152602960248201527f4552433732313a207472616e73666572206f6620746f6b656e2074686174206960448201526839903737ba1037bbb760b91b6064820152608490fd5b600081815260046020526040812080546001600160a01b03191690556001600160a01b0361196e8361141c565b167f8c5be1e5ebec7d5bd14f71427d1e84f3dd0314c0f7b2291e5b200ac8c7c3b9258280a4565b600082815260046020526040902080546001600160a01b0319166001600160a01b0383161790556001600160a01b03806119ce8461141c565b169116907f8c5be1e5ebec7d5bd14f71427d1e84f3dd0314c0f7b2291e5b200ac8c7c3b925600080a4565b9081602091031261000e57516102f0816101fc565b6102f0939260809260018060a01b0316825260006020830152604082015281606082015201906102ba565b6001600160a01b0391821681529116602082015260408101919091526080606082018190526102f0929101906102ba565b3d15611a95573d90611a7b82610d53565b91611a896040519384610d31565b82523d6000602084013e565b606090565b909190803b15611b5357611acc602091600093604051948580948193630a85bd0160e11b998a84523360048501611a0e565b03926001600160a01b03165af160009181611b23575b50611b1557611aef611a6a565b80519081611b105760405162461bcd60e51b81528061169860048201611625565b602001fd5b6001600160e01b0319161490565b611b4591925060203d8111611b4c575b611b3d8183610d31565b8101906119f9565b9038611ae2565b503d611b33565b505050600190565b92909190823b15611b8e57611acc926020926000604051809681958294630a85bd0160e11b9a8b85523360048601611a39565b50505050600190565b50634e487b7160e01b600052603260045260246000fd5b90611bb881611d36565b6001600160a01b038216611bd05761112f9150611daf565b61112f91611cfe565b9091906001600160a01b038082169182611c135750611bf783611d36565b831680611c0a57505061112f9150611daf565b03611bd0575050565b8185168303611c23575b50611bf7565b611c97611c2f826113a4565b6000198101908111611cf1575b611c8860009387855260076020526040852054838103611c9e575b5084611c6d896000526007602052604060002090565b556001600160a01b0316600090815260066020526040902090565b90600052602052604060002090565b5538611c1d565b878652600660205260408620848752602052611cea604087205480611cd984611c888760018060a01b03166000526006602052604060002090565b556000526007602052604060002090565b5538611c57565b611cf9611787565b611c3c565b604090611d0a816113a4565b9260009160018060a01b0316825260066020528282208483526020528083832055815260076020522055565b6008548160005260096020528060406000205568010000000000000000811015611da2575b6001810180600855811015611d95575b60086000527ff3f7a9fe364faab93b216da50a3214154f22a0a2b415b23a84c8169e8b636ee30155565b611d9d611b97565b611d6b565b611daa610cb9565b611d5b565b600880546000199290838101818111611eb8575b611e5f60009384928184526009602052846040852054911015611eab575b868452611e4e7ff3f7a9fe364faab93b216da50a3214154f22a0a2b415b23a84c8169e8b636ee2958681015490831015611e9e575b88865280837ff3f7a9fe364faab93b216da50a3214154f22a0a2b415b23a84c8169e8b636ee301556000526009602052604060002090565b556000526009602052604060002090565b558254938415611e8a5784019380851015611e7d575b838352015555565b611e85611b97565b611e75565b634e487b7160e01b83526031600452602483fd5b611ea6611b97565b611e16565b611eb3611b97565b611de1565b611ec0611787565b611dc356fea26469706673582212203b21b4488beede0d85de4f49d8a1ba55c50a9f77d635d51814223ddf033b2b1764736f6c63430008110033",
    "linkReferences": {}
  },
  "methodIdentifiers": {
    "approve(address,uint256)": "095ea7b3",
    "balanceOf(address)": "70a08231",
    "exists(uint256)": "4f558e79",
    "getApproved(uint256)": "081812fc",
    "getPoolById(uint256)": "0bc59b38",
    "isApprovedForAll(address,address)": "e985e9c5",
    "mint(address)": "6a627842",
    "name()": "06fdde03",
    "owner()": "8da5cb5b",
    "ownerOf(uint256)": "6352211e",
    "renderTokenById(uint256)": "a2d6c6da",
    "renounceOwnership()": "715018a6",
    "safeTransferFrom(address,address,uint256)": "42842e0e",
    "safeTransferFrom(address,address,uint256,bytes)": "b88d4fde",
    "setApprovalForAll(address,bool)": "a22cb465",
    "supportsInterface(bytes4)": "01ffc9a7",
    "symbol()": "95d89b41",
    "tokenByIndex(uint256)": "4f6ccce7",
    "tokenOfOwnerByIndex(address,uint256)": "2f745c59",
    "tokenURI(uint256)": "c87b56dd",
    "totalSupply()": "18160ddd",
    "transferFrom(address,address,uint256)": "23b872dd",
    "transferOwnership(address)": "f2fde38b",
    "version()": "54fd4d50"
  },
  "id": 6
}