{
  "abi": [
    {
      "inputs": [
        {
          "internalType": "contract IFrensStorage",
          "name": "_frensStorage",
          "type": "address"
        }
      ],
      "stateMutability": "nonpayable",
      "type": "constructor"
    },
    {
      "anonymous": false,
      "inputs": [
        {
          "indexed": true,
          "internalType": "address",
          "name": "owner",
          "type": "address"
        },
        {
          "indexed": true,
          "internalType": "address",
          "name": "approved",
          "type": "address"
        },
        {
          "indexed": true,
          "internalType": "uint256",
          "name": "tokenId",
          "type": "uint256"
        }
      ],
      "name": "Approval",
      "type": "event"
    },
    {
      "anonymous": false,
      "inputs": [
        {
          "indexed": true,
          "internalType": "address",
          "name": "owner",
          "type": "address"
        },
        {
          "indexed": true,
          "internalType": "address",
          "name": "operator",
          "type": "address"
        },
        {
          "indexed": false,
          "internalType": "bool",
          "name": "approved",
          "type": "bool"
        }
      ],
      "name": "ApprovalForAll",
      "type": "event"
    },
    {
      "anonymous": false,
      "inputs": [
        {
          "indexed": true,
          "internalType": "address",
          "name": "previousOwner",
          "type": "address"
        },
        {
          "indexed": true,
          "internalType": "address",
          "name": "newOwner",
          "type": "address"
        }
      ],
      "name": "OwnershipTransferred",
      "type": "event"
    },
    {
      "anonymous": false,
      "inputs": [
        {
          "indexed": true,
          "internalType": "address",
          "name": "from",
          "type": "address"
        },
        {
          "indexed": true,
          "internalType": "address",
          "name": "to",
          "type": "address"
        },
        {
          "indexed": true,
          "internalType": "uint256",
          "name": "tokenId",
          "type": "uint256"
        }
      ],
      "name": "Transfer",
      "type": "event"
    },
    {
      "inputs": [
        {
          "internalType": "address",
          "name": "to",
          "type": "address"
        },
        {
          "internalType": "uint256",
          "name": "tokenId",
          "type": "uint256"
        }
      ],
      "name": "approve",
      "outputs": [],
      "stateMutability": "nonpayable",
      "type": "function"
    },
    {
      "inputs": [
        {
          "internalType": "address",
          "name": "owner",
          "type": "address"
        }
      ],
      "name": "balanceOf",
      "outputs": [
        {
          "internalType": "uint256",
          "name": "",
          "type": "uint256"
        }
      ],
      "stateMutability": "view",
      "type": "function"
    },
    {
      "inputs": [
        {
          "internalType": "uint256",
          "name": "_id",
          "type": "uint256"
        }
      ],
      "name": "exists",
      "outputs": [
        {
          "internalType": "bool",
          "name": "",
          "type": "bool"
        }
      ],
      "stateMutability": "view",
      "type": "function"
    },
    {
      "inputs": [
        {
          "internalType": "uint256",
          "name": "tokenId",
          "type": "uint256"
        }
      ],
      "name": "getApproved",
      "outputs": [
        {
          "internalType": "address",
          "name": "",
          "type": "address"
        }
      ],
      "stateMutability": "view",
      "type": "function"
    },
    {
      "inputs": [
        {
          "internalType": "uint256",
          "name": "_id",
          "type": "uint256"
        }
      ],
      "name": "getPoolById",
      "outputs": [
        {
          "internalType": "address",
          "name": "",
          "type": "address"
        }
      ],
      "stateMutability": "view",
      "type": "function"
    },
    {
      "inputs": [
        {
          "internalType": "address",
          "name": "owner",
          "type": "address"
        },
        {
          "internalType": "address",
          "name": "operator",
          "type": "address"
        }
      ],
      "name": "isApprovedForAll",
      "outputs": [
        {
          "internalType": "bool",
          "name": "",
          "type": "bool"
        }
      ],
      "stateMutability": "view",
      "type": "function"
    },
    {
      "inputs": [
        {
          "internalType": "address",
          "name": "userAddress",
          "type": "address"
        },
        {
          "internalType": "address",
          "name": "_pool",
          "type": "address"
        }
      ],
      "name": "mint",
      "outputs": [],
      "stateMutability": "nonpayable",
      "type": "function"
    },
    {
      "inputs": [],
      "name": "name",
      "outputs": [
        {
          "internalType": "string",
          "name": "",
          "type": "string"
        }
      ],
      "stateMutability": "view",
      "type": "function"
    },
    {
      "inputs": [],
      "name": "owner",
      "outputs": [
        {
          "internalType": "address",
          "name": "",
          "type": "address"
        }
      ],
      "stateMutability": "view",
      "type": "function"
    },
    {
      "inputs": [
        {
          "internalType": "uint256",
          "name": "tokenId",
          "type": "uint256"
        }
      ],
      "name": "ownerOf",
      "outputs": [
        {
          "internalType": "address",
          "name": "",
          "type": "address"
        }
      ],
      "stateMutability": "view",
      "type": "function"
    },
    {
      "inputs": [
        {
          "internalType": "uint256",
          "name": "id",
          "type": "uint256"
        }
      ],
      "name": "renderTokenById",
      "outputs": [
        {
          "internalType": "string",
          "name": "",
          "type": "string"
        }
      ],
      "stateMutability": "view",
      "type": "function"
    },
    {
      "inputs": [],
      "name": "renounceOwnership",
      "outputs": [],
      "stateMutability": "nonpayable",
      "type": "function"
    },
    {
      "inputs": [
        {
          "internalType": "address",
          "name": "from",
          "type": "address"
        },
        {
          "internalType": "address",
          "name": "to",
          "type": "address"
        },
        {
          "internalType": "uint256",
          "name": "tokenId",
          "type": "uint256"
        }
      ],
      "name": "safeTransferFrom",
      "outputs": [],
      "stateMutability": "nonpayable",
      "type": "function"
    },
    {
      "inputs": [
        {
          "internalType": "address",
          "name": "from",
          "type": "address"
        },
        {
          "internalType": "address",
          "name": "to",
          "type": "address"
        },
        {
          "internalType": "uint256",
          "name": "tokenId",
          "type": "uint256"
        },
        {
          "internalType": "bytes",
          "name": "_data",
          "type": "bytes"
        }
      ],
      "name": "safeTransferFrom",
      "outputs": [],
      "stateMutability": "nonpayable",
      "type": "function"
    },
    {
      "inputs": [
        {
          "internalType": "address",
          "name": "operator",
          "type": "address"
        },
        {
          "internalType": "bool",
          "name": "approved",
          "type": "bool"
        }
      ],
      "name": "setApprovalForAll",
      "outputs": [],
      "stateMutability": "nonpayable",
      "type": "function"
    },
    {
      "inputs": [
        {
          "internalType": "bytes4",
          "name": "interfaceId",
          "type": "bytes4"
        }
      ],
      "name": "supportsInterface",
      "outputs": [
        {
          "internalType": "bool",
          "name": "",
          "type": "bool"
        }
      ],
      "stateMutability": "view",
      "type": "function"
    },
    {
      "inputs": [],
      "name": "symbol",
      "outputs": [
        {
          "internalType": "string",
          "name": "",
          "type": "string"
        }
      ],
      "stateMutability": "view",
      "type": "function"
    },
    {
      "inputs": [
        {
          "internalType": "uint256",
          "name": "index",
          "type": "uint256"
        }
      ],
      "name": "tokenByIndex",
      "outputs": [
        {
          "internalType": "uint256",
          "name": "",
          "type": "uint256"
        }
      ],
      "stateMutability": "view",
      "type": "function"
    },
    {
      "inputs": [
        {
          "internalType": "address",
          "name": "owner",
          "type": "address"
        },
        {
          "internalType": "uint256",
          "name": "index",
          "type": "uint256"
        }
      ],
      "name": "tokenOfOwnerByIndex",
      "outputs": [
        {
          "internalType": "uint256",
          "name": "",
          "type": "uint256"
        }
      ],
      "stateMutability": "view",
      "type": "function"
    },
    {
      "inputs": [
        {
          "internalType": "uint256",
          "name": "id",
          "type": "uint256"
        }
      ],
      "name": "tokenURI",
      "outputs": [
        {
          "internalType": "string",
          "name": "",
          "type": "string"
        }
      ],
      "stateMutability": "view",
      "type": "function"
    },
    {
      "inputs": [],
      "name": "totalSupply",
      "outputs": [
        {
          "internalType": "uint256",
          "name": "",
          "type": "uint256"
        }
      ],
      "stateMutability": "view",
      "type": "function"
    },
    {
      "inputs": [
        {
          "internalType": "address",
          "name": "from",
          "type": "address"
        },
        {
          "internalType": "address",
          "name": "to",
          "type": "address"
        },
        {
          "internalType": "uint256",
          "name": "tokenId",
          "type": "uint256"
        }
      ],
      "name": "transferFrom",
      "outputs": [],
      "stateMutability": "nonpayable",
      "type": "function"
    },
    {
      "inputs": [
        {
          "internalType": "address",
          "name": "newOwner",
          "type": "address"
        }
      ],
      "name": "transferOwnership",
      "outputs": [],
      "stateMutability": "nonpayable",
      "type": "function"
    },
    {
      "inputs": [],
      "name": "version",
      "outputs": [
        {
          "internalType": "uint8",
          "name": "",
          "type": "uint8"
        }
      ],
      "stateMutability": "view",
      "type": "function"
    }
  ],
  "bytecode": {
    "object": "0x608034620003a957601f906001600160401b0390601f1990620022c73881900385810184168301858111848210176200039357839282916040528339602092839181010312620003a957516001600160a01b03948582169491859003620003a9576200006a620003ae565b9260128452717374616b696e6720636f6e20616d69676f7360701b8185015262000093620003ae565b9060058252644652454e5360d81b8183015284519584871162000393576000968754966001978881811c9116801562000388575b85821014620003745790818784931162000321575b508490878311600114620002c0578a92620002b4575b5050600019600383901b1c191690871b1787555b8251948511620002a05785548681811c9116801562000295575b83821014620002815790818587969594931162000228575b5081938511600114620001c35750508592620001b7575b5050600019600383901b1c191690821b1790555b600a5460018060a01b0319913383831617600a557f8be0079c531659141344cd1fd0a4f28419497f9722a3daafe3b4186f6b6457e0604051953393169180a3600b541617600b55611ef89081620003cf8239f35b0151905038806200014f565b869593929193168588528388209388905b8282106200020e5750508411620001f4575b505050811b01905562000163565b015160001960f88460031b161c19169055388080620001e6565b8484015186558897909501949384019390810190620001d4565b9091929394508688528288208580880160051c82019285891062000277575b9188978a9297969594930160051c01915b8281106200026857505062000138565b8a815588975089910162000258565b9250819262000247565b634e487b7160e01b88526022600452602488fd5b90607f169062000120565b634e487b7160e01b87526041600452602487fd5b015190503880620000f2565b90848a9416918b8052868c20928c5b888282106200030a5750508411620002f0575b505050811b01875562000106565b015160001960f88460031b161c19169055388080620002e2565b8385015186558d97909501949384019301620002cf565b909150898052848a208780850160051c8201928786106200036a575b918b91869594930160051c01915b8281106200035b575050620000dc565b8c81558594508b91016200034b565b925081926200033d565b634e487b7160e01b8a52602260045260248afd5b90607f1690620000c7565b634e487b7160e01b600052604160045260246000fd5b600080fd5b60408051919082016001600160401b03811183821017620003935760405256fe60806040526004361015610013575b600080fd5b60003560e01c806301ffc9a7146101f357806306fdde03146101ea578063081812fc146101e1578063095ea7b3146101d85780630bc59b38146101cf57806318160ddd146101c657806323b872dd146101bd5780632f745c59146101b457806342842e0e146101ab5780634f558e79146101a25780634f6ccce71461019957806354fd4d50146101905780636352211e1461018757806370a082311461017e578063715018a6146101755780638da5cb5b1461016c57806395d89b4114610163578063a22cb4651461015a578063a2d6c6da14610151578063b88d4fde14610148578063c87b56dd1461013f578063e985e9c514610136578063ee1fe2ad1461012d5763f2fde38b1461012557600080fd5b61000e610e92565b5061000e610db7565b5061000e610d6c565b5061000e610cb9565b5061000e610c27565b5061000e610a8b565b5061000e61099a565b5061000e6108ce565b5061000e6108a4565b5061000e610842565b5061000e610812565b5061000e6107f3565b5061000e6107ce565b5061000e610722565b5061000e6106e6565b5061000e6106bd565b5061000e610605565b5061000e6105db565b5061000e610590565b5061000e610534565b5061000e610440565b5061000e6103fe565b5061000e6102f3565b5061000e61020e565b6001600160e01b031981160361000e57565b503461000e57602036600319011261000e57602060043561022e816101fc565b63ffffffff60e01b1663780e9d6360e01b8114908115610254575b506040519015158152f35b6380ac58cd60e01b811491508115610286575b8115610275575b5038610249565b6301ffc9a760e01b1490503861026e565b635b5e139f60e01b81149150610267565b60005b8381106102aa5750506000910152565b818101518382015260200161029a565b906020916102d381518092818552858086019101610297565b601f01601f1916010190565b9060206102f09281815201906102ba565b90565b503461000e576000806003193601126103fb57604051908080549060019180831c928082169283156103f1575b60209283861085146103dd5785885260208801949081156103bc5750600114610364575b6103608761035481890382610bda565b604051918291826102df565b0390f35b6000805294509192917f290decd9548b62a8d60345a988386fc84ba6bc95484008f6362f93160ef3e5635b8386106103ab5750505091019050610354826103603880610344565b80548587015294820194810161038f565b60ff191685525050505090151560051b019050610354826103603880610344565b634e487b7160e01b82526022600452602482fd5b93607f1693610320565b80fd5b503461000e57602036600319011261000e57602061041d60043561139e565b6040516001600160a01b039091168152f35b6001600160a01b0381160361000e57565b503461000e57604036600319011261000e5760043561045e8161042f565b60243561046a816112b4565b916001600160a01b0380841690821681146104e55761049c9361049791331490811561049e575b5061132c565b611992565b005b6001600160a01b031660009081526005602052604090206104df91506104d89033905b9060018060a01b0316600052602052604060002090565b5460ff1690565b38610491565b60405162461bcd60e51b815260206004820152602160248201527f4552433732313a20617070726f76616c20746f2063757272656e74206f776e656044820152603960f91b6064820152608490fd5b503461000e57602036600319011261000e57602061041d604051828101906105888161057a60043585602b916a1c1bdbdb0b999bdc8b9a5960aa1b8252600b8201520190565b03601f198101835282610bda565b5190206110c8565b503461000e57600036600319011261000e576020600854604051908152f35b606090600319011261000e576004356105c78161042f565b906024356105d48161042f565b9060443590565b503461000e5761049c6105ed366105af565b916106006105fb8433611539565b611430565b611818565b503461000e57604036600319011261000e576004356106238161042f565b602435906106308161123c565b821015610664576001600160a01b031660009081526006602090815260408083209383529281529082902054915191825290f35b60405162461bcd60e51b815260206004820152602b60248201527f455243373231456e756d657261626c653a206f776e657220696e646578206f7560448201526a74206f6620626f756e647360a81b6064820152608490fd5b503461000e5761049c6106cf366105af565b90604051926106dd84610b79565b60008452611496565b503461000e57602036600319011261000e576004356000908152600260209081526040909120546001600160a01b031615156040519015158152f35b503461000e57602036600319011261000e576004356008548110156107745760086000527ff3f7a9fe364faab93b216da50a3214154f22a0a2b415b23a84c8169e8b636ee30154604051908152602090f35b60405162461bcd60e51b815260206004820152602c60248201527f455243373231456e756d657261626c653a20676c6f62616c20696e646578206f60448201526b7574206f6620626f756e647360a01b6064820152608490fd5b503461000e57600036600319011261000e57602060ff600a5460a01c16604051908152f35b503461000e57602036600319011261000e57602061041d6004356112b4565b503461000e57602036600319011261000e57602061083a6004356108358161042f565b61123c565b604051908152f35b503461000e576000806003193601126103fb57600a5481906001600160a01b038116906108703383146111a8565b6001600160a01b031916600a557f8be0079c531659141344cd1fd0a4f28419497f9722a3daafe3b4186f6b6457e08280a380f35b503461000e57600036600319011261000e57600a546040516001600160a01b039091168152602090f35b503461000e576000806003193601126103fb576040519080600190815480831c92808216928315610986575b60209283861085146103dd5785885260208801949081156103bc575060011461092d576103608761035481890382610bda565b600160005294509192917fb10e2d527612073b26eecdfd717e6a320cf44b4afac2b0732d9fcbe2b7fa0cf65b8386106109755750505091019050610354826103603880610344565b805485870152948201948101610959565b93607f16936108fa565b8015150361000e57565b503461000e57604036600319011261000e576004356109b88161042f565b6024356109c481610990565b6001600160a01b03821691338314610a465781610a03610a149233600052600560205260406000209060018060a01b0316600052602052604060002090565b9060ff801983541691151516179055565b604051901515815233907f17307eab39ab6107e8899845ad3d59bd9653f200f220920489ca2b5937696c3190602090a3005b60405162461bcd60e51b815260206004820152601960248201527f4552433732313a20617070726f766520746f2063616c6c6572000000000000006044820152606490fd5b503461000e57602036600319011261000e57610360610af1610ae5610ae560405160208101906f636f6e74726163742e6164647265737360801b825267119c995b9cd05c9d60c21b60308201526018815261058881610ba2565b6001600160a01b031690565b60405163516b636d60e11b815260048035908201529060009082908180602481015b03915afa908115610b55575b600091610b34575b50604051918291826102df565b610b4f913d8091833e610b478183610bda565b810190611149565b38610b27565b610b5d611050565b610b1f565b50634e487b7160e01b600052604160045260246000fd5b6020810190811067ffffffffffffffff821117610b9557604052565b610b9d610b62565b604052565b6040810190811067ffffffffffffffff821117610b9557604052565b6060810190811067ffffffffffffffff821117610b9557604052565b90601f8019910116810190811067ffffffffffffffff821117610b9557604052565b60209067ffffffffffffffff8111610c1a575b601f01601f19160190565b610c22610b62565b610c0f565b503461000e57608036600319011261000e57600435610c458161042f565b602435610c518161042f565b6064359167ffffffffffffffff831161000e573660238401121561000e57826004013591610c7e83610bfc565b92610c8c6040519485610bda565b808452366024828701011161000e57602081600092602461049c9801838801378501015260443591611496565b503461000e57602036600319011261000e57610360610d21610ae5610ae560405160208101906f636f6e74726163742e6164647265737360801b8252754672656e73506f6f6c5368617265546f6b656e55524960501b60308201526026815261058881610bbe565b60405163c87b56dd60e01b81526004803590820152906000908290818060248101610b13565b604090600319011261000e57600435610d5f8161042f565b906024356102f08161042f565b503461000e57602060ff610dab610d8236610d47565b6001600160a01b0391821660009081526005865260408082209290931681526020919091522090565b54166040519015158152f35b503461000e57610dc636610d47565b60405160208101906a706f6f6c2e65786973747360a81b82523360601b602b820152601f8152610df581610ba2565b51902091602060018060a01b03600b541693602460405180968193633d70e7e560e11b835260048301525afa928315610e85575b600093610e43575b50610e3e61049c93610f2d565b610f68565b926020843d8211610e7d575b81610e5c60209383610bda565b810103126103fb5750610e3e61049c9351610e7681610990565b9350610e31565b3d9150610e4f565b610e8d611050565b610e29565b503461000e57602036600319011261000e57600435610eb08161042f565b600a546001600160a01b0390610ec990821633146111a8565b811615610ed95761049c906111f3565b60405162461bcd60e51b815260206004820152602660248201527f4f776e61626c653a206e6577206f776e657220697320746865207a65726f206160448201526564647265737360d01b6064820152608490fd5b15610f3457565b60405162461bcd60e51b815260206004820152600c60248201526b125b9d985b1a5908141bdbdb60a21b6044820152606490fd5b9190916040519060209182810190671d1bdad95b8b9a5960c21b825260088152610f9181610ba2565b519020918060018060a01b03600b54169360246040518096819363bd02d0f560e01b835260048301525afa928315611043575b600093611012575b50611010939461100b91604051908101906110038161057a8885602b916a1c1bdbdb0b999bdc8b9a5960aa1b8252600b8201520190565b51902061105d565b611624565b565b90928382813d831161103c575b6110298183610bda565b810103126103fb57505191611010610fcc565b503d61101f565b61104b611050565b610fc4565b506040513d6000823e3d90fd5b600b546001600160a01b0392908316803b1561000e5760009283604492604051968795869463ca446dd960e01b865260048601521660248401525af180156110bb575b6110a75750565b67ffffffffffffffff8111610b9557604052565b6110c3611050565b6110a0565b600b546040516321f8a72160e01b81526004810192909252602090829060249082906001600160a01b03165afa90811561113c575b600091611108575090565b906020823d8211611134575b8161112160209383610bda565b810103126103fb5750516102f08161042f565b3d9150611114565b611144611050565b6110fd565b60208183031261000e5780519067ffffffffffffffff821161000e570181601f8201121561000e57805161117c81610bfc565b9261118a6040519485610bda565b8184526020828401011161000e576102f09160208085019101610297565b156111af57565b606460405162461bcd60e51b815260206004820152602060248201527f4f776e61626c653a2063616c6c6572206973206e6f7420746865206f776e65726044820152fd5b600a80546001600160a01b039283166001600160a01b0319821681179092559091167f8be0079c531659141344cd1fd0a4f28419497f9722a3daafe3b4186f6b6457e0600080a3565b6001600160a01b0316801561125c57600052600360205260406000205490565b60405162461bcd60e51b815260206004820152602a60248201527f4552433732313a2062616c616e636520717565727920666f7220746865207a65604482015269726f206164647265737360b01b6064820152608490fd5b6000908152600260205260409020546001600160a01b031680156112d55790565b60405162461bcd60e51b815260206004820152602960248201527f4552433732313a206f776e657220717565727920666f72206e6f6e657869737460448201526832b73a103a37b5b2b760b91b6064820152608490fd5b1561133357565b60405162461bcd60e51b815260206004820152603860248201527f4552433732313a20617070726f76652063616c6c6572206973206e6f74206f7760448201527f6e6572206e6f7220617070726f76656420666f7220616c6c00000000000000006064820152608490fd5b6000818152600260205260409020546001600160a01b0316156113d6576000908152600460205260409020546001600160a01b031690565b60405162461bcd60e51b815260206004820152602c60248201527f4552433732313a20617070726f76656420717565727920666f72206e6f6e657860448201526b34b9ba32b73a103a37b5b2b760a11b6064820152608490fd5b1561143757565b60405162461bcd60e51b815260206004820152603160248201527f4552433732313a207472616e736665722063616c6c6572206973206e6f74206f6044820152701ddb995c881b9bdc88185c1c1c9bdd9959607a1b6064820152608490fd5b9161101093916114bd936114ad6105fb8433611539565b6114b8838383611818565b611b58565b611515565b60809060208152603260208201527f4552433732313a207472616e7366657220746f206e6f6e20455243373231526560408201527131b2b4bb32b91034b6b83632b6b2b73a32b960711b60608201520190565b1561151c57565b60405162461bcd60e51b815280611535600482016114c2565b0390fd5b6000828152600260205260409020546001600160a01b0316156115ca5761155f826112b4565b6001600160a01b0382811682821681149490919085156115b2575b505050821561158857505090565b6001600160a01b0316600090815260056020526040902060ff92506115ad91906104c1565b541690565b6115bf919293955061139e565b16149138808061157a565b60405162461bcd60e51b815260206004820152602c60248201527f4552433732313a206f70657261746f7220717565727920666f72206e6f6e657860448201526b34b9ba32b73a103a37b5b2b760a11b6064820152608490fd5b9060405161163181610b79565b600081526001600160a01b038316918215611740576000818152600260205260409020546001600160a01b03166116fb5783816114bd946116758261101098611bab565b6001600160a01b0383166000908152600360205260409020611697815461179b565b90556116d0836116b1846000526002602052604060002090565b80546001600160a01b0319166001600160a01b03909216919091179055565b60007fddf252ad1be2c89b69c2b068fc378daa952ba7f163c4a11628f55a4df523b3ef8180a4611a97565b60405162461bcd60e51b815260206004820152601c60248201527f4552433732313a20746f6b656e20616c7265616479206d696e746564000000006044820152606490fd5b606460405162461bcd60e51b815260206004820152602060248201527f4552433732313a206d696e7420746f20746865207a65726f20616464726573736044820152fd5b50634e487b7160e01b600052601160045260246000fd5b90600182018092116117a957565b611010611784565b156117b857565b60405162461bcd60e51b8152602060048201526024808201527f4552433732313a207472616e7366657220746f20746865207a65726f206164646044820152637265737360e01b6064820152608490fd5b6000198101919082116117a957565b90611822836112b4565b6001600160a01b0383811692909182168390036118e75761187c6118c09282169461184e8615156117b1565b611859878483611bd6565b6118628761193e565b6001600160a01b0316600090815260036020526040902090565b6118868154611809565b90556001600160a01b03811660009081526003602052604090206118aa815461179b565b90556116b1856000526002602052604060002090565b7fddf252ad1be2c89b69c2b068fc378daa952ba7f163c4a11628f55a4df523b3ef600080a4565b60405162461bcd60e51b815260206004820152602960248201527f4552433732313a207472616e73666572206f6620746f6b656e2074686174206960448201526839903737ba1037bbb760b91b6064820152608490fd5b600081815260046020526040812080546001600160a01b03191690556001600160a01b0361196b836112b4565b167f8c5be1e5ebec7d5bd14f71427d1e84f3dd0314c0f7b2291e5b200ac8c7c3b9258280a4565b600082815260046020526040902080546001600160a01b0319166001600160a01b0383161790556001600160a01b03806119cb846112b4565b169116907f8c5be1e5ebec7d5bd14f71427d1e84f3dd0314c0f7b2291e5b200ac8c7c3b925600080a4565b9081602091031261000e57516102f0816101fc565b6102f0939260809260018060a01b0316825260006020830152604082015281606082015201906102ba565b6001600160a01b0391821681529116602082015260408101919091526080606082018190526102f0929101906102ba565b3d15611a92573d90611a7882610bfc565b91611a866040519384610bda565b82523d6000602084013e565b606090565b909190803b15611b5057611ac9602091600093604051948580948193630a85bd0160e11b998a84523360048501611a0b565b03926001600160a01b03165af160009181611b20575b50611b1257611aec611a67565b80519081611b0d5760405162461bcd60e51b815280611535600482016114c2565b602001fd5b6001600160e01b0319161490565b611b4291925060203d8111611b49575b611b3a8183610bda565b8101906119f6565b9038611adf565b503d611b30565b505050600190565b92909190823b15611b8b57611ac9926020926000604051809681958294630a85bd0160e11b9a8b85523360048601611a36565b50505050600190565b50634e487b7160e01b600052603260045260246000fd5b90611bb581611d33565b6001600160a01b038216611bcd576110109150611dac565b61101091611cfb565b9091906001600160a01b038082169182611c105750611bf483611d33565b831680611c075750506110109150611dac565b03611bcd575050565b8185168303611c20575b50611bf4565b611c94611c2c8261123c565b6000198101908111611cee575b611c8560009387855260076020526040852054838103611c9b575b5084611c6a896000526007602052604060002090565b556001600160a01b0316600090815260066020526040902090565b90600052602052604060002090565b5538611c1a565b878652600660205260408620848752602052611ce7604087205480611cd684611c858760018060a01b03166000526006602052604060002090565b556000526007602052604060002090565b5538611c54565b611cf6611784565b611c39565b604090611d078161123c565b9260009160018060a01b0316825260066020528282208483526020528083832055815260076020522055565b6008548160005260096020528060406000205568010000000000000000811015611d9f575b6001810180600855811015611d92575b60086000527ff3f7a9fe364faab93b216da50a3214154f22a0a2b415b23a84c8169e8b636ee30155565b611d9a611b94565b611d68565b611da7610b62565b611d58565b600880546000199290838101818111611eb5575b611e5c60009384928184526009602052846040852054911015611ea8575b868452611e4b7ff3f7a9fe364faab93b216da50a3214154f22a0a2b415b23a84c8169e8b636ee2958681015490831015611e9b575b88865280837ff3f7a9fe364faab93b216da50a3214154f22a0a2b415b23a84c8169e8b636ee301556000526009602052604060002090565b556000526009602052604060002090565b558254938415611e875784019380851015611e7a575b838352015555565b611e82611b94565b611e72565b634e487b7160e01b83526031600452602483fd5b611ea3611b94565b611e13565b611eb0611b94565b611dde565b611ebd611784565b611dc056fea2646970667358221220f093a1c6629742007c85429953428d675d8ec3a16e7915a85f161a8a1d0e2c7d64736f6c63430008110033",
    "linkReferences": {}
  },
  "methodIdentifiers": {
    "approve(address,uint256)": "095ea7b3",
    "balanceOf(address)": "70a08231",
    "exists(uint256)": "4f558e79",
    "getApproved(uint256)": "081812fc",
    "getPoolById(uint256)": "0bc59b38",
    "isApprovedForAll(address,address)": "e985e9c5",
    "mint(address,address)": "ee1fe2ad",
    "name()": "06fdde03",
    "owner()": "8da5cb5b",
    "ownerOf(uint256)": "6352211e",
    "renderTokenById(uint256)": "a2d6c6da",
    "renounceOwnership()": "715018a6",
    "safeTransferFrom(address,address,uint256)": "42842e0e",
    "safeTransferFrom(address,address,uint256,bytes)": "b88d4fde",
    "setApprovalForAll(address,bool)": "a22cb465",
    "supportsInterface(bytes4)": "01ffc9a7",
    "symbol()": "95d89b41",
    "tokenByIndex(uint256)": "4f6ccce7",
    "tokenOfOwnerByIndex(address,uint256)": "2f745c59",
    "tokenURI(uint256)": "c87b56dd",
    "totalSupply()": "18160ddd",
    "transferFrom(address,address,uint256)": "23b872dd",
    "transferOwnership(address)": "f2fde38b",
    "version()": "54fd4d50"
  },
  "id": 5
}