{
  "_format": "hh-sol-artifact-1",
  "contractName": "FrensInitialiser",
  "sourceName": "contracts/FrensInitialiser.sol",
  "abi": [
    {
      "inputs": [
        {
          "internalType": "contract IFrensStorage",
          "name": "_frensStorage",
          "type": "address"
        }
      ],
      "stateMutability": "nonpayable",
      "type": "constructor"
    },
    {
      "inputs": [
        {
          "internalType": "address",
          "name": "_contractAddress",
          "type": "address"
        },
        {
          "internalType": "string",
          "name": "_contractName",
          "type": "string"
        }
      ],
      "name": "deleteContract",
      "outputs": [],
      "stateMutability": "nonpayable",
      "type": "function"
    },
    {
      "inputs": [
        {
          "internalType": "address",
          "name": "_contractAddress",
          "type": "address"
        },
        {
          "internalType": "string",
          "name": "_contractName",
          "type": "string"
        }
      ],
      "name": "setContract",
      "outputs": [],
      "stateMutability": "nonpayable",
      "type": "function"
    },
    {
      "inputs": [
        {
          "internalType": "address",
          "name": "_contractAddress",
          "type": "address"
        },
        {
          "internalType": "bool",
          "name": "_exists",
          "type": "bool"
        }
      ],
      "name": "setContractExists",
      "outputs": [],
      "stateMutability": "nonpayable",
      "type": "function"
    },
    {
      "inputs": [
        {
          "internalType": "address",
          "name": "_contractAddress",
          "type": "address"
        },
        {
          "internalType": "string",
          "name": "_contractName",
          "type": "string"
        }
      ],
      "name": "setExternalContract",
      "outputs": [],
      "stateMutability": "nonpayable",
      "type": "function"
    },
    {
      "inputs": [],
      "name": "version",
      "outputs": [
        {
          "internalType": "uint8",
          "name": "",
          "type": "uint8"
        }
      ],
      "stateMutability": "view",
      "type": "function"
    }
  ],
  "bytecode": "0x60803461008357601f6109a438819003918201601f19168301916001600160401b038311848410176100885780849260209460405283398101031261008357516001600160a01b03811681036100835760008054610100600160a81b03191660089290921b610100600160a81b0316919091179055604051610905908161009f8239f35b600080fd5b634e487b7160e01b600052604160045260246000fdfe6040608081526004908136101561001557600080fd5b600091823560e01c80631b1c2c7f1461050057806354fd4d50146104e05780636b742b93146102cb578063a3a8ceb0146101835763cd8ce31f1461005857600080fd5b3461017f578160031936011261017f578035906001600160a01b03808316830361013e576024359283151580940361017b578160208754858851809481936353adc3e960e11b835260081c165afa908115610171576100c39184918991610143575b50163314610741565b84516100e5816100d7602082019485610799565b03601f19810183528261067a565b5190209060005460081c16803b1561013e57600092836044928751968795869463abfdcced60e01b865285015260248401525af1801561013357610127575051f35b61013090610650565b51f35b82513d6000823e3d90fd5b600080fd5b610164915060203d811161016a575b61015c818361067a565b810190610722565b386100ba565b503d610152565b86513d89823e3d90fd5b8580fd5b8280fd5b509190346102c7576101943661069c565b835483516353adc3e960e11b81529192916020916001600160a01b039190839082908a90829060081c86165afa90811561017157906101dd929188916102b05750163314610741565b61023a828551838101907f65787465726e616c2e636f6e74726163742e616464726573730000000000000082526102326039828951610222818c8b86860191016107c8565b810103601981018452018261067a565b5190206107eb565b8351908101917565787465726e616c2e636f6e74726163742e6e616d6560501b83526001600160601b03199060601b166036820152602a81526060810181811067ffffffffffffffff82111761029b57846101309596975052519020610857565b604187634e487b7160e01b6000525260246000fd5b6101649150843d861161016a5761015c818361067a565b5080fd5b503461017f576102da3661069c565b845484516353adc3e960e11b81526001600160a01b03949392602092889260089190911c8716919084818881865afa9081156104d65761032591899186916104bf5750163314610741565b8751610369603082878101946f636f6e74726163742e6164647265737360801b8652610359815180928b86860191016107c8565b810103601081018452018261067a565b51902090803b1561017f57602483928951948593849263070a51bb60e11b84528a8401525af18015610171576104ac575b5084519086818301836103d586836021916c636f6e74726163742e6e616d6560981b82526001600160601b03199060601b16600d8201520190565b03936103e9601f199586810183528261067a565b51902086825460081c1690813b1561017f578291602483928b519485938492633daecf3160e21b84528c8401525af180156104a25761048a575b505061043b9161044791875193849182019586610799565b0390810183528261067a565b5190209160005460081c1691823b1561013e576044600092838651958694859363abfdcced60e01b85528401528160248401525af1801561013357610127575051f35b61049390610650565b61049e578638610423565b8680fd5b88513d84823e3d90fd5b6104b890969196610650565b943861039a565b6101649150873d891161016a5761015c818361067a565b89513d86823e3d90fd5b5050346102c757816003193601126102c75760ff60209254169051908152f35b503461017f57826105103661069c565b825485516353adc3e960e11b81526001600160a01b039392602092839083908990829060081c89165afa9283156106465761055c8661043b956105f9958a916102b05750163314610741565b610593858a51838101906f636f6e74726163742e6164647265737360801b82526102326030828851610359818484018b8d016107c8565b6105eb895192828401846105cf89836021916c636f6e74726163742e6e616d6560981b82526001600160601b03199060601b16600d8201520190565b03946105e3601f199687810183528261067a565b519020610857565b885193849182019586610799565b51902090825460081c1692833b1561017f57604490838651958694859363abfdcced60e01b8552840152600160248401525af1801561063a57610127575051f35b505051903d90823e3d90fd5b88513d88823e3d90fd5b67ffffffffffffffff811161066457604052565b634e487b7160e01b600052604160045260246000fd5b90601f8019910116810190811067ffffffffffffffff82111761066457604052565b90604060031983011261013e576004356001600160a01b038116810361013e579167ffffffffffffffff60243581811161013e578260238201121561013e57806004013591821161066457604051926106ff601f8401601f19166020018561067a565b8284526024838301011161013e5781600092602460209301838601378301015290565b9081602091031261013e57516001600160a01b038116810361013e5790565b1561074857565b60405162461bcd60e51b815260206004820152602360248201527f4163636f756e74206973206e6f7420612074656d706f7261727920677561726460448201526234b0b760e91b6064820152608490fd5b6023916e636f6e74726163742e65786973747360881b82526001600160601b03199060601b16600f8201520190565b60005b8381106107db5750506000910152565b81810151838201526020016107cb565b600080546001600160a01b039391929060081c8416803b156108535783929183604492604051978895869463ca446dd960e01b865260048601521660248401525af1908115610847575061083c5750565b61084590610650565b565b604051903d90823e3d90fd5b8380fd5b91909160009060018060a01b03825460081c1690813b1561017f5793829160649495836040519687809581946306e8995560e41b83526004830152604060248301526108b281518092816044860152602086860191016107c8565b601f01601f191681010301925af1908115610847575061083c575056fea264697066735822122016362d202a570a47410508850c422b2efc855f55c6e79b4656bc919b44b0552464736f6c63430008100033",
  "linkReferences": {},
  "deployedLinkReferences": {}
}