{
  "_format": "hh-sol-artifact-1",
  "contractName": "FrensInitialiser",
  "sourceName": "contracts/FrensInitialiser.sol",
  "abi": [
    {
      "inputs": [
        {
          "internalType": "contract IFrensStorage",
          "name": "_frensStorage",
          "type": "address"
        }
      ],
      "stateMutability": "nonpayable",
      "type": "constructor"
    },
    {
      "inputs": [
        {
          "internalType": "address",
          "name": "_contractAddress",
          "type": "address"
        }
      ],
      "name": "allowExternalContract",
      "outputs": [],
      "stateMutability": "nonpayable",
      "type": "function"
    },
    {
      "inputs": [
        {
          "internalType": "address",
          "name": "_contractAddress",
          "type": "address"
        },
        {
          "internalType": "string",
          "name": "_contractName",
          "type": "string"
        }
      ],
      "name": "deleteContract",
      "outputs": [],
      "stateMutability": "nonpayable",
      "type": "function"
    },
    {
      "inputs": [
        {
          "internalType": "address",
          "name": "_contractAddress",
          "type": "address"
        }
      ],
      "name": "disAllowExternalContract",
      "outputs": [],
      "stateMutability": "nonpayable",
      "type": "function"
    },
    {
      "inputs": [
        {
          "internalType": "address",
          "name": "_contractAddress",
          "type": "address"
        },
        {
          "internalType": "string",
          "name": "_contractName",
          "type": "string"
        }
      ],
      "name": "setContract",
      "outputs": [],
      "stateMutability": "nonpayable",
      "type": "function"
    },
    {
      "inputs": [
        {
          "internalType": "address",
          "name": "_contractAddress",
          "type": "address"
        },
        {
          "internalType": "bool",
          "name": "_exists",
          "type": "bool"
        }
      ],
      "name": "setContractExists",
      "outputs": [],
      "stateMutability": "nonpayable",
      "type": "function"
    },
    {
      "inputs": [
        {
          "internalType": "address",
          "name": "_contractAddress",
          "type": "address"
        },
        {
          "internalType": "string",
          "name": "_contractName",
          "type": "string"
        }
      ],
      "name": "setExternalContract",
      "outputs": [],
      "stateMutability": "nonpayable",
      "type": "function"
    },
    {
      "inputs": [],
      "name": "version",
      "outputs": [
        {
          "internalType": "uint8",
          "name": "",
          "type": "uint8"
        }
      ],
      "stateMutability": "view",
      "type": "function"
    }
  ],
  "bytecode": "0x60803461008357601f610b1538819003918201601f19168301916001600160401b038311848410176100885780849260209460405283398101031261008357516001600160a01b03811681036100835760008054610100600160a81b03191660089290921b610100600160a81b0316919091179055604051610a76908161009f8239f35b600080fd5b634e487b7160e01b600052604160045260246000fdfe6040608081526004908136101561001557600080fd5b600091823560e01c80631b1c2c7f146106bb57806354fd4d501461069b5780636b1c239e146105f35780636b742b93146103f4578063a3a8ceb0146102ac578063cd8ce31f146101b25763fe9a364f1461006e57600080fd5b346101ae5760203660031901126101ae57610087610792565b835483516353adc3e960e11b81526001600160a01b0393929160209082908590829060081c88165afa9081156101a4576100cd9185918891610176575b50163314610899565b83516f185b1b1bddd9590b98dbdb9d1c9858dd60821b6020820190815260609290921b6001600160601b031916603082015261011681604481015b03601f1981018352826107d2565b5190209160005460081c1691823b15610171576044600092838651958694859363abfdcced60e01b8552840152600160248401525af180156101665761015a575051f35b610163906107a8565b51f35b82513d6000823e3d90fd5b600080fd5b610197915060203d811161019d575b61018f81836107d2565b81019061087a565b386100c4565b503d610185565b85513d88823e3d90fd5b8280fd5b50346101ae57816003193601126101ae576101cb610792565b90602435918215158093036102a857845484516353adc3e960e11b81526001600160a01b03929160209082908690829060081c87165afa90811561029e5761021e91849189916101765750163314610899565b84516e636f6e74726163742e65786973747360881b6020820190815260609290921b6001600160601b031916602f82015261025c8160438101610108565b5190209060005460081c16803b1561017157600092836044928751968795869463abfdcced60e01b865285015260248401525af180156101665761015a575051f35b86513d89823e3d90fd5b8480fd5b509190346103f0576102bd366107f4565b835483516353adc3e960e11b81529192916020916001600160a01b039190839082908a90829060081c86165afa90811561029e5790610306929188916103d95750163314610899565b610363828551838101907f65787465726e616c2e636f6e74726163742e6164647265737300000000000000825261035b603982895161034b818c8b8686019101610954565b81010360198101845201826107d2565b519020610977565b8351908101917565787465726e616c2e636f6e74726163742e6e616d6560501b83526001600160601b03199060601b166036820152602a81526060810181811067ffffffffffffffff8211176103c4578461016395969750525190206109c8565b604187634e487b7160e01b6000525260246000fd5b6101979150843d861161019d5761018f81836107d2565b5080fd5b50346101ae57610403366107f4565b9160018060a01b038581815460081c168651956353adc3e960e11b875260209687818781865afa9081156105e95761044691869186916105d25750163314610899565b875161048b6030828a8101946f636f6e74726163742e6164647265737360801b865261047b8c82519283918686019101610954565b81010360108101845201826107d2565b51902090803b156101ae57602483928951948593849263070a51bb60e11b8452898401525af1801561029e576105bf575b508590855192858401846104f887836021916c636f6e74726163742e6e616d6560981b82526001600160601b03199060601b16600d8201520190565b039461050c601f19968781018352826107d2565b51902091835460081c1691823b156105bb5760248492838a519586948593633daecf3160e21b85528401525af180156105b15761059d575b505061059561058991610163948651938491820195866023916e636f6e74726163742e65786973747360881b82526001600160601b03199060601b16600f8201520190565b039081018352826107d2565b5190206108f1565b6105a6906107a8565b6102a8578438610544565b86513d84823e3d90fd5b8380fd5b6105cb909691966107a8565b94386104bc565b61019791508a3d8c1161019d5761018f81836107d2565b89513d86823e3d90fd5b50346101ae5760203660031901126101ae5761060d610792565b835483516353adc3e960e11b81526001600160a01b039390916020918391829060081c87165afa92831561069157610163936106529287916101765750163314610899565b82516f185b1b1bddd9590b98dbdb9d1c9858dd60821b6020820190815260609290921b6001600160601b03191660308201526105958160448101610108565b84513d87823e3d90fd5b5050346103f057816003193601126103f05760ff60209254169051908152f35b50346101ae576106ca366107f4565b845484516353adc3e960e11b8152939192916001600160a01b03916020918291879190829060081c86165afa90811561029e5761071b6101089361078a93610163988b916103d95750163314610899565b610754848851838101906f636f6e74726163742e6164647265737360801b825261035b6030828b61047b815180928b8686019101610954565b8651928391820194856021916c636f6e74726163742e6e616d6560981b82526001600160601b03199060601b16600d8201520190565b5190206109c8565b600435906001600160a01b038216820361017157565b67ffffffffffffffff81116107bc57604052565b634e487b7160e01b600052604160045260246000fd5b90601f8019910116810190811067ffffffffffffffff8211176107bc57604052565b906040600319830112610171576004356001600160a01b0381168103610171579167ffffffffffffffff60243581811161017157826023820112156101715780600401359182116107bc5760405192610857601f8401601f1916602001856107d2565b828452602483830101116101715781600092602460209301838601378301015290565b9081602091031261017157516001600160a01b03811681036101715790565b156108a057565b60405162461bcd60e51b815260206004820152602360248201527f4163636f756e74206973206e6f7420612074656d706f7261727920677561726460448201526234b0b760e91b6064820152608490fd5b60009060018060a01b03825460081c1690813b156101ae57829160448392604051958693849263abfdcced60e01b845260048401528160248401525af1908115610948575061093d5750565b610946906107a8565b565b604051903d90823e3d90fd5b60005b8381106109675750506000910152565b8181015183820152602001610957565b600080546001600160a01b039391929060081c8416803b156105bb5783929183604492604051978895869463ca446dd960e01b865260048601521660248401525af1908115610948575061093d5750565b91909160009060018060a01b03825460081c1690813b156101ae5793829160649495836040519687809581946306e8995560e41b8352600483015260406024830152610a238151809281604486015260208686019101610954565b601f01601f191681010301925af1908115610948575061093d575056fea2646970667358221220bbf711f48c0ac39e0cae4b7fcf94f52eb8ef47a2af7d702defd324a0ae3c513464736f6c63430008100033",
  "linkReferences": {},
  "deployedLinkReferences": {}
}