{
  "_format": "hh-sol-artifact-1",
  "contractName": "FrensClaim",
  "sourceName": "contracts/FrensClaim.sol",
  "abi": [
    {
      "inputs": [
        {
          "internalType": "contract IFrensStorage",
          "name": "frensStorage_",
          "type": "address"
        }
      ],
      "stateMutability": "nonpayable",
      "type": "constructor"
    },
    {
      "stateMutability": "payable",
      "type": "fallback"
    },
    {
      "inputs": [
        {
          "internalType": "address",
          "name": "claimant",
          "type": "address"
        }
      ],
      "name": "claim",
      "outputs": [],
      "stateMutability": "nonpayable",
      "type": "function"
    },
    {
      "inputs": [],
      "name": "claim",
      "outputs": [],
      "stateMutability": "nonpayable",
      "type": "function"
    },
    {
      "inputs": [],
      "name": "version",
      "outputs": [
        {
          "internalType": "uint8",
          "name": "",
          "type": "uint8"
        }
      ],
      "stateMutability": "view",
      "type": "function"
    },
    {
      "stateMutability": "payable",
      "type": "receive"
    }
  ],
  "bytecode": "0x60803461008357601f61038d38819003918201601f19168301916001600160401b038311848410176100885780849260209460405283398101031261008357516001600160a01b03811681036100835760008054610100600160a81b03191660089290921b610100600160a81b03169190911790556040516102ee908161009f8239f35b600080fd5b634e487b7160e01b600052604160045260246000fdfe60806040526004361015610018575b361561001657005b005b6000803560e01c80631e83409a146100865780634e71d92d14610067576354fd4d5014610045575061000e565b3461006457806003193601126100645760ff6020915416604051908152f35b80fd5b5034610064578060031936011261006457610081336100f0565b604051f35b5034610064576020366003190112610064576004356001600160a01b03811681036100b457610081906100f0565b5080fd5b90601f8019910116810190811067ffffffffffffffff8211176100da57604052565b634e487b7160e01b600052604160045260246000fd5b604080516f18db185a5b58589b194b985b5bdd5b9d60821b60208083019182526bffffffffffffffffffffffff19606086901b1660308401526024835293601f19929091906101406044826100b8565b5190209160009460018060a01b039182875460081c169186519563bd02d0f560e01b875260048701528086602481865afa9586156102ae57889661027b575b506101d0875191820192826101c488866024916f18db185a5b58589b194b985b5bdd5b9d60821b82526bffffffffffffffffffffffff199060601b1660108201520190565b039081018352826100b8565b519020813b156102775786916044839288519485938492637152429d60e11b845260048401528160248401525af1801561026d5761023a575b508480938193829383918315610230575b1690f115610226575050565b51903d90823e3d90fd5b6108fc925061021a565b67ffffffffffffffff8196929394961161025957845293919038610209565b634e487b7160e01b82526041600452602482fd5b85513d88823e3d90fd5b8680fd5b9080965081813d83116102a7575b61029381836100b8565b810103126102a35751943861017f565b8780fd5b503d610289565b87513d8a823e3d90fdfea26469706673582212207edf85d3b0de420cbb39aaad4e3ff5a6b087f8eca7bd2775366d22b3ae1062a464736f6c63430008100033",
  "linkReferences": {},
  "deployedLinkReferences": {}
}