{
  "abi": [
    {
      "inputs": [
        {
          "internalType": "contract IFrensStorage",
          "name": "_frensStorage",
          "type": "address"
        }
      ],
      "stateMutability": "nonpayable",
      "type": "constructor"
    },
    {
      "inputs": [
        {
          "internalType": "uint256",
          "name": "id",
          "type": "uint256"
        }
      ],
      "name": "renderTokenById",
      "outputs": [
        {
          "internalType": "string",
          "name": "",
          "type": "string"
        }
      ],
      "stateMutability": "view",
      "type": "function"
    },
    {
      "inputs": [],
      "name": "version",
      "outputs": [
        {
          "internalType": "uint8",
          "name": "",
          "type": "uint8"
        }
      ],
      "stateMutability": "view",
      "type": "function"
    }
  ],
  "bytecode": {
    "object": "0x60806040908082523462000192578062004c6e803803809162000023828562000197565b83396020928391810103126200019257516001600160a01b0391908281168103620001925760008054610100600160a81b0319811660089390931b610100600160a81b031692831780835586516f636f6e74726163742e6164647265737360801b8187019081526d4672656e73506f6f6c536861726560901b6030830152601e82529396949592949390928389019290916001600160401b038411858510176200017e576024848785948294838f52895190206321f8a72160e01b845260448a015260081c165afa9283156200017457879362000131575b5050600180546001600160a01b03191693909216929092179055506001600160a81b03191617905551614a9c9081620001d28239f35b90809293503d83116200016c575b6200014b818562000197565b8101031262000168575181811681036200016857388080620000fb565b8480fd5b503d6200013f565b88513d89823e3d90fd5b634e487b7160e01b89526041600452602489fd5b600080fd5b601f909101601f19168101906001600160401b03821190821017620001bb57604052565b634e487b7160e01b600052604160045260246000fdfe60806040818152600436101561001457600080fd5b600091823560e01c90816354fd4d501461497d575063a2d6c6da1461003857600080fd5b346149795760209182600319360112614976576004358251848101906f636f6e74726163742e6164647265737360801b82526e233932b739a6b2ba30a432b63832b960891b6030820152601f81528481019181831067ffffffffffffffff841117614962578286528151902091868160248160018060a01b0396878a5460081c16906321f8a72160e01b835260448801525afa918215614958578790869361491c575b5050501683519163ef21184f60e01b83528060048401528383602481855afa9283156149125790849182946148f6575b5060248651809481936324a8b96b60e21b835260048301525afa9283156148eb5780936148c6575b505061489c613a008451809487820194651e3232b3399f60d11b86527f3c6c696e6561724772616469656e742069643d226772616431222078313d223060268401527f25222079313d223025222078323d2231303025222079323d2231303025223e0060468401527f3c73746f70206f66667365743d22302522207374796c653d2273746f702d636f60658401527f6c6f723a233366313965653b73746f702d6f7061636974793a3122202f3e000060858401527f3c73746f70206f66667365743d223130302522207374796c653d2273746f702d60a38401527f636f6c6f723a233534646165303b73746f702d6f7061636974793a3122202f3e60c3840152701e17b634b732b0b923b930b234b2b73a1f60791b60e3840152661e39ba3cb6329f60c91b60f48401526a40666f6e742d666163657b60a81b60fb8401527f666f6e742d66616d696c793a225065726d616e656e74204d61726b6572223b006101068401527f7372633a75726c28646174613a6170706c69636174696f6e2f666f6e742d776f6101258401527f66663b636861727365743d7574662d383b6261736536342c64303947526741426101458401527f41414141414246674141304141414141475941414151424341414141414141416101658401527f414141414141414141414141414141414141425055793879414141424d4141416101858401527f414538414141426759624c6a6f324e74595841414141474141414141627741416101a58401527f41576f575378366759335a3049414141416641414141414341414141416741566101c58401527f4141426d63476474414141423941414141506341414146686b6b48612b6d64736101e58401527f6557594141414c734141414c30514141455367536f783064614756685a4141416102058401527f4473414141414132414141414e6769565777646f614756684141414f2b4141416102258401527f414230414141416b42486342354768746448674141413859414141414e4141416102458401527f41445166306741626247396a595141414430774141414163414141414842686d6102658401527f48585a74595868774141415061414141414234414141416741686f43475735686102858401527f6257554141412b4941414142757741414131525157384d396347397a644141416102a58401527f45555141414141554141414149502b3241454277636d567741414152574141416102c58401527f41416341414141486141614d68586963593242684b6d4b63774d444b774d43306102e58401527f68366d4c675947684230497a336d55775a6752796d5268676f494742515632416103058401527f415146635050324347427759464268436d504c2b483261775a536c676441554b6103258401527f677a51784d42557966514e534367774d41475836444a4141654a786a594742676103458401527f5a6f426747515a47426842494166495977587757426738677a636641776344456103658401527f774d6167774f4449344d62677778444145504c2f503141637848646c384762776103858401527f59776a362f2f2f2f772f38482f2b2f37762b762f7a7638376f4f5967415559326103a58401527f6442464d674b454a48544342334d6b43597247794d62427a63444a7763664d516103c58401527f4e6e62514141444976784d5241414156414142346e463251505537454d4243466103e58401527f5978495763674d6b43386b6a61796c5774756970556a6952554a71776f6641306104058401527f2f45693745746b37494b57686363465a336e5970637a454533675257514f50786104258401527f65365035394761516d427035342f644376504d6750742f674c7664352b7668676104458401527f495978535a6563676e69784f444d534b4c464b6a4b71544c61753031713644436104658401527f3753616f537230386235417470786f6232384458436b6e72752f6a6565304c426104858401527f38766a644d7439595a41644d4e6d454352384475473743624148482b772b4c556104a58401527f314172705665507650486f6e55546957524b72453248694d54684b7a78654b596104c58401527f4d646258376d4a4f6532617757466d637a3454576f3542494f49525a615549666104e58401527f67677878677838392f745744535034627857386a58714163524e394d6e5636546105058401527f504269614e4d5745374378795537652b6a42474a3752666c59477463414869636105258401527f6456644c6a79545a576333376673614e52305a47354b73694b353952575631646105458401527f5656315a6c546c643356336a6d7066614d75345a6a3741745754416a445167516105658401527f6b7355494934546b4255755145507741784a594e43336241487061736b4542736105858401527f57434a766a47794d6b6231416f6a6b334b33734749644631757971654e2b37396105a58401527f766e504f6437354f352f2f3552312f2f3450585036542f534833542b74504d586105c58401527f6e5537374e726b6a4f347a563957352f384461703738696d33683830635578496105e58401527f637a694b343672657676336c3659536f514e542b5541576d7a6b6d37756943376106058401527f37616f394a786478736e596c38634238646b4776343758647167306b706548776106258401527f336e37303468385a4c3837336238553557694c5639697175423266782f6a41686106458401527f6735736a307a5745686c7962587159634e367159626f592b453558766e5468426106658401527f47655753434d4f46743562364c4f465538697756564e4c437573646a536967586106858401527f7a49365735344f51434330537a6a434a354f57304b656e674f4b7650686e6e586106a58401527f4d5546463449707751586c434765455737315046343779707370796c69564f4a6106c58401527f5436336b6c464a4f4c6b4f69456a562f507464644a77626e36616532392b4c7a6106e58401527f5a393156795930736a2f50797047734a5a53783965704a624a726c496e4847466107058401527f3661304835626f3875756b545159686e6b68477358784456375a306b797576796107258401527f555431635433754561533670544c573354504861364d477855467761504532786107458401527f72544a31587163716f5652545a78696e7272525a6b795a614d783758546f6e486107658401527f506a58574a306933724169685569322f3374725233546a696748514d6350426e6107858401527f3946383766396a707844696673393064612b2b516672593778304538335656586107a58401527f6d32707a7662713561736932525a3672514d6f36434c554b464b6c556c6179726107c58401527f37613653765962743968426f54306b7256326f3132392b396f3844524c74356a6107e58401527f4f384244727559422b58314c5939464b4d55614e77543659566c6e5231586d4b6108058401527f3366725a2b6e4a302b51737658323249344577547167516e666c566a385452626108258401527f6e323975746b4f64684e7a726e684f456e66376145384a4e6c686465634647756108458401527f3170646a6f5953647572414d7862466662793833793848393249596b4f4d47596108658401527f314e324c5a313939374649392f7671726c7a4e647162526472334f54705a6c476108858401527f524b7656596c6c6e79315662466e56715a4a6f37593567434869686c6f6a65796108a58401527f5269756a5230326d545a5942463577717956796c756148347543787952327a6c6108c58401527f6b784543424a674a49595a506a3545385354796d79584d5057486c46327450616108e58401527f615371457063552b42362f2f37665850364c2f514833662b2b6945486948676b6109058401527f316f475232336870466f6e7a774b6674646274366d327a664d42626a617276626109258401527f376a6c62625464586279685a675445705763336d7334424634716553653437566109458401527f4b684a762f2b497a6f6d70316f485a4b3231556b36514d686b614f5a504a437a6109658401527f6c7557386a4365393675485747344a476a7362766e6a58486c485748347951566109858401527f546c6a455745734332676b4a714b6447674756655573346f746354576c3356396109a58401527f3264646472547a4c732b617a467a3370355856754d7955303030374a6f4a496b6109c58401527f306332484837383630676d5479446768704163636749706c57343266546c726a6109e58401527f4a484344467769376b4c616236384c306a374e715854684f62576b694a355567610a058401527f6873536b576347724e457331317556424a474535386b6635332b6433342f346f610a258401527f4e306952356a7a54726e496d434548774d53424465364539734a6c496e31414c610a458401527f36756c4d4b67626c6b46785834436f3568676f495258572f396b414155556e58610a658401527f5355453465436963484d7773423173703871384d7951427779784a6e6e327547610a858401527f466533336f5251686b75465269455a42695136535331625533534d4e486b4275610aa58401527f724d5374594f5958745134486a763655585543722f775434754875492b703658610ac58401527f44647367646273476e4836674a464d7873577933726572744b6b496a676f4856610ae58401527f59612f4c4741394a78577662316548365070305136506151554641576a353354610b058401527f39767163517169332b4c31646c51514a74554a4d6c6b756635486c646d6a526b610b258401527f686b74524a4b57324262534e75774c41506e7031564d385862576e4253303379610b458401527f5557724c58414c326844766566374b3547636d696d7775456b61657375483335610b658401527f693438466b576b4a3174444e36653233546b457a5853717a7a6e747479707959610b858401527f5835773957626f73424f4f63304d36714744524f2f6f5a44737a6c392f697566610ba58401527f66507057736c6a4f484246525567567a302f6e5553436b454e364f6d535a7272610bc58401527f4f6a73613143452b7a725149306731496b766938304e3151545a766a6e6f456b610be58401527f57454b303165304a30674441684377334638384b616e4e694961364d6a33302b610c058401527f4c51577237743939686d4a6a61526a30536d756b386a37525242357938352f30610c258401527f642b67504f39383936436439494f4e7554343344694966493143595753506c46610c458401527f7a667479524e704748694e646d3176794a594e4c74552f52664b594f66487967610c658401527f35337947564431465651675a6473366f734a5a626f4a33343270584c56454e78610c858401527f654f39706d5364646842714d30674663704a4168494433307162654a58337a7a610ca58401527f644e35596f46714b4d457954675463614b653536624c4c734e597477464e496d610cc58401527f3956624d506a783574754238795a334a7a79347565395a316c39344e59345763610ce58401527f337a653733337775555646644e30326e513050726556597368736f4b6d59684a610d058401527f3235322f66385a34415a59433774426534637a47635330543147776958565255610d258401527f2f48645659325455774a2b382f6d2f367a346a6a397842485642425a3158414e610d458401527f7145445831655a42456f4658314a534779424a33326972514773714776365371610d658401527f33374168526d34503950714e6a4c576f545a674e4d775132442b79764c4a6470610d858401527f4678774d337453544f6a65516471474f336e6e3333636e34356d775362514a45610da58401527f41416a4330414c49415162694b74576a6d306c7558474b4d4c675a5676776839610dc58401527f4c6f454378377a567846536957336c676c78695244796672365a4e5874625661610de58401527f6f79426238596b6539484d51582b4e484c632f4f63303773514e2f3977522f39610e058401527f38587432744c686f77415567566973384572496b546641394d727a5a33553447610e258401527f483333322b6130376e7330447a5873464b3565313766644c3156786662592b50610e458401527f58677a5473347044354954587730723578536466595756566d44524652614564610e658401527f38666f2f454d762f366e797a382f314f70355a67382b714f376c434944377078610e858401527f457a46353961552b58473050616c42576452574e6e47776f696a783967314347610ea58401527f4f73345132415a3159334f39655144314f626d4a5959316a466830646f763254610ec58401527f7335645031346b5a6239382f566b5a4269624568595650517243714453774b71610ee58401527f62446f4c784963513152464f44494b6f765965366a4d2b50614351593562354d610f058401527f73737379484f664a5972564b462b394e37576a594a6558753972625770793962610f258401527f6b52484268717342395972354e4a587a39386559534a616e7439503366757554610f458401527f6a31644d7776635a37377968466f3470736630756f586c6d4e51732b63643778610f658401527f794865722f416a6c417975382b50574c4d426f4f6b37786454485135794c5743610f858401527f696e74464530742b743136754868336c38424b477436557663754e426d355777610fa58401527f79696f707874647a526d4f7346362f2f6e66346c2f56486e67383476647a7264610fc58401527f62625576344b534f4163664a48626e5a687877474b557031564772454d595932610fe58401527f6f70767339585631553231576432533132306634414f5a7a4b683854364262586110058401527f4e4d7058586a74347a77796f62575a6c6550546b75734b75727a3463643264646110258401527f6d73312f395876667677554e653058354b4e657067394d5149627247784d67666110458401527f77355a414c54304e342f45594e44317558486a722f70344d4f5a52765a49516c6110658401527f31576f327a564578335367626273366d7870654f5347726b654e43382f3757506110858401527f54733575356c557965764869646b425141517a78773848417170515856302f576110a58401527f5033553531466d43436e436b53686d62754b5155735762526a6e3339542f43566110c58401527f502b72387870375259434c32434c70696e2b31446759714d335774644c7a4b376110e58401527f6f543173763778536b63567348366871572b2f74496a78702b774245784178676111058401527f52747755346b59657174303547634e684f4957734b43455949556e715578386d6111258401527f596e4c35354f36382f37797255783236615443556f44643438653350546778746111458401527f706b667a7957512b506836354943465052696872453776342f4e75507469657a6111658401527f6968463476544a7a476979326a736b454c7a4c796a6552343068656e763751576111858401527f703938697561365738326e42584e36566b3366755834796f302f3333377139456111a58401527f336837424261584a7644334a7054464f333979766a33497569797246416733386111c58401527f724775616b55623052516965684f45304777364f53694c4a79645751515555456111e58401527f334b4c4a69514659795439304a394e324a4a62353876472b316c6a556d7239466112058401527f54483866534c754c4d497568764a3546664f33463778436a6779325831554d776112258401527f5979432f614d3557636866643937354a32383676556178696854386e327a66796112458401527f67485077656e3465486679444b63437a6941444d457a584c73387565707476766112658401527f2f76627676634e44366f6d483565736e6a372b7a634d33304f4c6746396b46566112858401527f6631437959676a68522f664434576d597a622f796a652b636363644d50526f6c6112a58401527f4f6f467743556f3467654643395a4a682f6458375a324f5742423839466f63776112c58401527f4447394c33383950767a616e30716d552f46336164566d52445265444850584f6112e58401527f72687256395657766447375130796a4c6b6e7469514863466479574e6b6768636113058401527f33683835574c3130326d307536374d5062746f45545153436a693470633854426113258401527f747a4d4770545744596131354e703447744163704c714e6e496a51706e4e61676113458401527f54436f786152376a336e6e395133614d3276546e6950732b4a44665262572f516113658401527f466e316876534f676f7978757271704471357a43323543446a5934322f5038576113858401527f2f705345427a6451533758333134642b756f7156583837623152744c646b47326113a58401527f4e2f2f4c62754e62752b75397563435538415a4939534d36553666784e3537466113c58401527f714242574562306b6647697556782b646e7438677a7134757848423764504a786113e58401527f6d7a66426333534e5278774273383561785745357657342b6d5062504370735a6114058401527f6b796c30314e4275726c6a4d42344c435565645273644547533671566c586c786114258401527f476b41634830736d586962614d4a525332685332554537684574706e704362786114458401527f68757341762b525651422b4172685965587a68367252507478313172574547696114658401527f2b3055534a556c6b374c465242497a7930692f6d4668307337444e365742334c6114858401527f7866436b4c4e65445974724c54304b71304c74373466416947676a6c554b356c6114a58401527f724e50454c3871614b4a515752614d746c5a6137595843462b754454782f32726114c58401527f6f634e4842676e735043486f336b6873427831686e63372f41456b6b644f59416114e58401527f414141414151414141414541516a4a6542557066447a7a3143417345414141416115058401527f4141444a4e556f6741414141414e55727a4e662f35762f56417938432b7741416115258401527f41416b414167414141414141414869635932426b594741702b4c6562515a355a6115458401527f2b76387a426842675a454146764142304d4152664141414141587341414146376115658401527f414141437a2f2f6d416f494143514a4e2f2b77444777414a416f674143514b396115858401527f2f2f45432b674146416f38414a414b5741416f435467414b416d3441414141416115a58401527f41415941444145514164494334674f77424651452b675777426a7747356765696115c58401527f434a52346e474e675a474267344758597a73444541414b4d594a4b4c4163686c6115e58401527f544151784152596c41546341414869636c56484e61747441455037576356494b6116058401527f72656d7470616568703654452b7648524f67586241644845474b666b7269694c6116258401527f4c4b4a49597158592b4e496e7941766b4c666f4d506651682b686839676e35656116458401527f4c3847596c464974752f764e7a44666637497741764d4e504b47792f6948754c6116658401527f466632527778323877686548442f414a633465372b49445734554f38786150446116858401527f523369504a3464372b497a767a464c64313753572b4f57776771695a777833306116a58401527f564f3377416362716d384e64424f7148773466347148343766415376383862686116c58401527f4872353268714f7158707338573752796e4a37494941674475566e4c655657326116e58401527f4d73354c6255346c4c6c4e507a6f70434c4b30526f7874746c7672576d326c7a6117058401527f6e3553617a4d764533476b7a31396c446b5a6a5143344977477366546566544d6117258401527f32424c366a7247664b4d352f725532545636565968622f6b4c7471324876722b6117458401527f617258796b6a704a46397172544f59586561724c526a662b52547961544b386d6117658401527f2f5945585949514b4e645977794a466877586b4c6a7048696850634141554a756117858401527f7751305a676e4e79533873596b3131434d2b7555566b796377694d365138456c6117a58401527f4f32714e745454764458764a3835624d6d6258756b5669567265596c4c594d376117c58401527f47356e7a7a504241725930765a455a6733784b78636f77703439454c4772734b6117e58401527f2f54324e66315755506636313954627359394f7a374c7a682f2b70755a7442796118058401527f776b50345843753750455a7137705252546173694c324f30594c5855616a5a326118258401527f596a3475324f304945335a387862505050384a582f414863714b5162414869636118458401527f5932426d4149502f6d786d4d475441424c774173746748327541482f686241456118658401527503528a09e94903337b936b0ba14113bb7b33311149d960551b61188584015272666f6e742d7765696768743a6e6f726d616c3b60681b61189b84015272666f6e742d7374796c653a6e6f726d616c3b7d60681b6118ae840152671e17b9ba3cb6329f60c11b6118c1840152661e17b232b3399f60c91b6118c98401527f3c72656374206865696768743d22343030222077696474683d223430302220666118d08401527334b6361e913ab9361411b3b930b218949110179f60611b6118f08401527f3c696d61676520783d223132352220793d22383022207472616e73666f726d3d6119048401527f226d6174726978282e39302c302c302c2e39302c302c302922206f70616369746119248401527f793d222e3232222020786c696e6b3a687265663d22646174613a696d6167652f6119448401527f706e673b6261736536342c6956424f5277304b47676f414141414e53556845556119648401527f674141414d45414141456341514d414141424557304b614141414142476442546119848401527f554541414c4750432f7868425141414141467a556b6443414b374f484f6b41416119a48401527f41414755457855525564775441482b2f7a6e567a6467414141414264464a4f556119c48401527f7742413574686d4141414949456c45515652597735315a7a6137634e425232436119e48401527f4d6833415455375746546a31776a534b4f6c4c564b785165514f325159796149611a048401527f42597365515465684f614b5252633852463278614a6570536c56446332504f64611a248401527f3436547955787331444a563538374d35325037664f66487879644b6256365679611a448401527f72314f2f774f5a633043525230494f4b554f6651585257526f63686735676658611a648401527f416178332b655165312b4e476152756338697839546e6171687878766a316d6b611a848401527f4c47714d37534e72633351356971545159625770436e5651365854784f6d2b4c611aa48401527f644f4936617379545a7856625a476d70795a2f7979477438686c767177684c76611ac48401527f5672366c3662556b307964706f316b446b6e456b59784e45306f794a6b306279611ae48401527f5351704a61525653557070654b57536c42706f6c4b5455496b36546c4e615153611b048401527f564a36354e6a3236664274303048735753626c6979504c31456c4349574f5474611b248401527f454847705079515a524c4567624557547065694454494a536f47304b6b57636c611b448401527f667857374a454465302b4b306a726d524a2f4d656d3338662b3248496e4e4b45611b648401527f63706f6e614b4e5a51344a5078515a6d794b555a5862454d53747446716c5567611b848401527f6a6765326b5a7258507568794f776f745975324f2b4c713953775a393334594f611ba48401527f664f705936524b48536a742b6e62632b32475571524f45696f784e3043597953611bc48401527f615256652b4b4572556f533446552b584757754b4a55704b72556e7a70365675611be48401527f764c46772f6b4d76714b3050737463455866616e4e76746e7262346674723534611c048401527f534a5437776d4e4d7657653043686a3937524647584d64324b764d4261575271611c248401527f3162746949764471753045616a743171336155326d3374636b48635953747a34611c448401527f5976486933714843506e6d717078706c7a2f6c576b503443356b6a5652633834611c648401527f354f5845666e6f6e3856594e7543584c304c34556461306359364461686a7051611c848401527f6e676c476f54676f7735646d46446b304d744a7552506d7941676a477367516b611ca48401527f5243646a38655946624572636874755a2f6b75732b4854483339422b486c4169611cc48401527f6457454e3532733347454d537176697a3641493665356f67556d323972574946611ce48401527f36396e6c48496436664a6b34673134416c6e3564784e6b734c6f4e6a44696157611d048401527f6c5155704d664f3435754e69466564556a4a3877505a5a42536a6265507a4d61611d248401527f764f556f6a596a4932515936527750565072754565617749362b6a5a42427673611d448401527f76516c49343758365755517935566a67652b4e573361746a4b65536332434859611d648401527f6d53414449594b306b4e47645453412f67655a58756c4a38514b454e4375434c611d848401527f616c79556e6f5739775243347244437645584742516d694f6d70684d346b4d37611da48401527f5a694d672b4b59533970695568617a366c485a6753766a4f584a475130696c42611dc48401527f31476d6e466d6d59465050524550524b3830494c566c69566262565448715661611de48401527f6b456d62496d4e776369676154744f6d546350534739477744346859626a4849611e048401527f5772445339714d786f2b3862554c362b2f52356f4b387a6255623770524b6661611e248401527f61644852736a67524c587869366c6e6f6f3369796a495349734c3042396f6d37611e448401527f6447796b394150646c784d4856374d434f6d6d5a7a2f7646325345663037496e611e648401527f34313464772b7269673868714a4167794a4c6d44684842396f5248416b473636611e848401527f62434a5a6d6262675234696b507a5a444d79773757455075573238685a385130611ea48401527f7038526467714b6951415a527a736d4d39483274493933463471776f58426874611ec48401527f456f516d4b38555a43444e6e50554e584251494f514d48422f486275574c5145611ee48401527f7948366a4c422f396730687866795933594132546f685a454267364547494965611f048401527f517a45766e4f53537a77687a574f4f41646f34455767353378776f7441737872611f248401527f57566c34593676774768744f4f69684f66787a676b7a6e594a39543833595770611f448401527f3163644b34754138467a36684a38574a4b694968426e35382b334d584a53436b611f648401527f4c4a41776d3877746d662b614442636c7045694e4e463749774978556c61374d611f848401527f7344565146375873387542484e41356c6a4f7567786a4946707a596c63682f74611fa48401527f61506445414b756f416652416f6578455346724d6650676f6d4f334942714d49611fc48401527f3248794c327a494d6749377363634e686a4d536c6d652f61393568692f673232611fe48401527f4a476a424b4d673033446d52557750317345654d41722f745a78644137796e636120048401527f54782f4b647356424b733266544f77686a524d52786c687231486472527744586120248401527f63385239686c6b38496d322f7a51654859366a387361536470695849764d58546120448401527f464c514f47697250755734476a6e4f6e777746334b325965666333304a2f59496120648401527f4e4a705253706d364d514e6a48794d2b43567569366b4943322f4e62555163626120848401527f4669534a55666f5436467258732b436a4356766a34304a6d2f626c585a535a446120a48401527f4a754663413647304264425a445148723347595a7062513769613148485339716120c48401527f4d664a69483632632b7753634d425478456743497766537361555177724f65796120e48401527f444b2b75414e7936506f79496c3277794e5245797439736e312f64306f61774d6121048401527f315369335a76586e506c2f4870665752666d744754575362664d553371522f6e6121248401527f383674437a5054615768643450716c644746746439786f4848544e38356d4c6d6121448401527f574a73626c656b784c485a76504257536858724675544c416d6d766565616b366121648401527f764c3637785652304c554c6779436e596c37614854657151776f4c735753702b6121848401527f57755567534f51345878456d6b586d76704130786a4c4a536a495847536257526121a48401527f6353496e56595a324e497439567259566c484562797a684e736a39694d52364c6121c48401527f683676357a4a3657756f35354a6b72784b3731316756434b74553770493349616121e48401527f613365756d474432484574696d744a4341744378594a663638664762537245786122048401527f713031704a5745734e522b64483636745536313430616d47395a61565138526b6122248401527f566c43763961337054502b6a42436861303238496a772f75614939313931364f6122448401527f694e6b6b6e4e563771504c617944302b5979636f756c345a557270352b722f476122648401527f5074724a694c6e75305174357870436e643738706f79324b6c615850644f32516122848401527f616730466361757947464547474d4b334b624531304d7a4c6231424b676f32316122a48401527f344c5332566a31634c6d34515971526a37796c2b4e68655030614e717366454a6122c48401527f4c4339736e677559336d784d46316367453649714b4a445067722b41714551436122e48401527f6d2b2b432b4875345a4d77586c7930554c6b76722b48696a6d476c414a63792b6123048401527f754a656768434b722f6e79786f4a4169612f7038763544626f51434f6e4239666123248401527f58466e6f676c6f4964644a5572792b6d3148367268354259587439302f766b416123448401527f546e387739314e62337476504357513146327a33736a34374a3132664d3937736123648401527f4d6e656e62663337654539372b6a466d4c765862336f42646149686b2b7766436123848401527f416c7471687478376d3334464a4c73683968465a6f65632b793775765873312b6123a48401527f66354f7669664543796637534b78476c65704b7266327155374c3756535737586123c48401527f3358383157663762324d53536666735970387630534264656f4e4474745059356123e48401527f78436237567365306c3351644b38544a4654707a716e30564832365131756c4f6124048401527f3751574d736d754c6d6d533651517a6b7577723533765230722f7530393377546124248401527f4d2b626b464f366730354b747571593664546e2b76486f2b2f7463337a2f7a726124448401527f4d437133504d463037635a52413974376a6c4739746c48365372376f6339596c6124648401527f472f724c484c4b50762f783261644a507674736173772b7a386f69325764672b6124848401527f61646a2b5764745a666a775a3372353534442f386579777a534b66712f64362f6124a48401527f517444704c413674506972576741414141424a52553545726b4a6767673d3d226124c484015261179f60f11b6124e48401527f3c696d616765206f7061636974793d222e33222020786c696e6b3a687265663d6124e68401527f22646174613a696d6167652f706e673b6261736536342c6956424f5277304b476125068401527f676f414141414e5355684555674141415a41414141475141514d4141414336636125268401527f61535041414141426c424d564556736648787366487863626c327441414141416125468401527f6e5253546c4d43395035316d623841414132505355524256486a61374a6c4e6a6125668401527f68764a4559574c717246716744475553322b4d4c674d2b6748554151366c62656125868401527f44752b676233545974444a4e67467a5a78356835695a544e41467a4f5435434e6125a68401527f6267594c5a4f51466a6d44564b586669386773567639595a73334b69307074316125c68401527f4630714d6a506978526376556c57317247557461316e4c577461796c7257735a6125e68401527f5331725763746131724b577461786c4c57745a793172577370613172475574616126068401527f316e4c577461796c7257735a5331725763746131724b5739662b787670372f536126268401527f707a2f53766f46722f537a583346683969746d2f6d4657762b4177626a33376c6126468401527f58626d2b562f694d4837654b362b717170345a736a645676356f5a736c73495a6126668401527f706a33796c41352f4a6d566c4b464b6e65336d764e4c457976566d56705152346126868401527f445930666d59616d7a6776796a6a474b73324c4d76586c31724f696e463579636126a68401527f3235576a4347597874735a5771376a546458566f5a32526d436263566d4556356126c68401527f7954476547532f757032546d505a65424c4f5a6b5a6a326746643875352b52476126e68401527f4c754478714b356e2f474b613647783150675a69526c73583956704536352f5a6127068401527f5255644d704c32386670633169483944516679772f5735624d344a676a4842376127268401527f61374f70546b4e4e3958624a74726a31626c736a2f464e4665716850595872306127468401527f7849474d43615a6337772b4c57634b786d3344634831615468534d50555233666127668401527f56702b434f6869454f6531695546617676575647597850317a594d70455545556127868401527f794d782f7571306b4441557a4c574a515672594a323250784d5272302f4c54516127a68401527f4368355a38374474576e354545566a6468765374576e354d62797050415344786127c68401527f4b79765459752f72595a564d6b684d64313161334c63397372394f32327354776127e68401527f3753514d4c3037584a7359624d64745935574376556469776e555169776c647a6128068401527f4d5857583573596848624145557871777639497a472f48744b437970497474496128268401527f684f7a2f7079664b476c422f556f58327a4d786e3474795356704e4d615958466128468401527f41775438376b6f6c342f4443585966426f5553456d504336494f6542737158336128668401527f704b776e7876614259764548485049374c4f644b7a2b44536f37553247706f6b6128868401527f5a6a37394638396346336e63435a6f6355654e415570496a452b793466715a566128a68401527f356f374457654e33554e5a3142696735464142736d487a5448354d352f497a516128c68401527f45773142696a5a6264522f2f4a7872627674576e746c675478476672314243426128e68401527f327934732f6f3562323543667562644d56426a4c61466b635071456a374a702f6129068401527f666f5a4231616e794764643270325a774470744a544764545669786576666b6c6129268401527f542f4447715a504c715656676e7874686849533078752b34702b7854543674576129468401527f7a35446a3042616e436149696645722f6e706450336c6c4656785838316e48356129668401527f75554a4a66794669596e6f7a536c554a6a786c424f4b5058513955497a3663546129868401527f676d4238363742345355412f716d647776434272316d4c5941345a536a6a55496129a68401527f52664d4d31464f7a555577646776426646507832397237497069377834587a706129c68401527f6273727a7967543270364b586378344655553731492b2f35735a32535a3431416129e68401527f38384d7762694f6b5775436c56436c3244782b7862613950724f526b5157556e612a068401527f47635832305444777a544a50356c4e734831356c6c756b51416c34616664446a612a268401527f516858434c3539386932484b4d384d494c6e317444316d59456e3334477a362b612a468401527f48314b542b637338586d70523662586250644f6f65534f33716e475170572b65612a668401527f4a5157714859747a3459566f5a51796c453742396f32496f68346541614e475a612a868401527f44743535676d6c63345a536534347450702b6961474c3753506f48454a6a506b612aa68401527f68696b55344653474a4268534c6e486f504849417a543341335458634d2f3838612ac68401527f434f67394a5a664678303551583235783359655236466766764d527a2f634462612ae68401527f412b7439634445374655554b3554655934693575364b2f44644e437077536567612b068401527f7a564a564e39674e506e646731642b44317972566d763069475456576d395a4f612b268401527f6c597067697a39356345726630573132364251776c66596a566872794f415944612b468401527f48653253734834683056477070696b77494c473250686f72566b7844536b4355612b668401527f6254334431386875527275724b4847416e6e66446730546731366533694f5561612b868401527f7a5462522b376767476544364d3974495565506c7a644d444d536c55454a4c66612ba68401527f7a6a66496a4b5643415a514d69667058654b556f4c594d7063486354392f3441612bc68401527f6d463161336b5755664a48615878305375786943695549356a424e2f79764530612be68401527f2b717a486e573438366b344a5a374b6969686767716176744b316f6a4474544b612c068401527f45466a627873364a62666c41542b4a594d7755474f3375666d67455370373751612c268401527f62324e54696c4443594a354f414730364d485533316676745974746f62486253612c468401527f687579696f4b436564445044547039562f53334662424b46384d657654616a6c612c668401527f6d55395063735766714a33457968425936346e39376568465646514d4f6e4c53612c868401527f526b66344670384f3448536756417938686444766f6c67686a394f796869744c612ca68401527f6e6378364d2b7144624f786b613944544e3653496e6a3764764c4b6d5979724b612cc68401527f5a68576f45537a5a34616168307053336e69554867774e446661317a3249696c612ce68401527f4d5253727449646e5a4c7274464f744d41444736525474544a2b37474b476b78612d068401527f745631347051796c42725551706732462f4331514b6b52462f5a43356e306d78612d268401527f697555444d39345363787247423236434e6d5845612b5872545861654353554f612d468401527f6c4447626538765748376e647663522b6a4d4b4a6459693533316f4e7a695564612d668401527f50554868426d454d61644c7858774430306247495144435658464b6752555341612d868401527f61567362653551464a6458784270756976343264457253785a69597244474550612da68401527f4e724a6d4a6e45674536674e4d373753457a70564e4459524d70417a77564b37612dc68401527f455257353332324d3268737a652f325a4e572f70763049483963574b4a304b6c612de68401527f4d37716c414a4630634762753339637450396868424a636c4430574b41553670612e068401527f52567a78533647625937393474664e5761475578436b354f43557255424a3773612e268401527f63354f43594b357a49773364635342693862454b626b6532392f545a6c683153612e468401527f6e334e6b492f397774347872434f554f45366b66394b43694c31517038517564612e668401527f72694d575154456351496c37437a396e5932492b654770564253517a33417831612e868401527f5135376b52754f4443584f2b7951583763565172527964456b52366971394857612ea68401527f326c78596b43704576335257684e4b6a54696c73564f78464d4b377356794131612ec68401527f46544d7331687251416b567a4d52304579687478794a5463452b646b737a3764612ee68401527f2f68624d763045537274796c394e55306835476130316c6e41676c4a7842552b612f068401527f797851616b754c4d5a30306f536d554f4538344c2f347653754e726b76696d30612f268401527f6d4a614c3632754e4558705967496c4254724273364a546f68437a2b74764972612f468401527f527755536c6136474b4545624a4a6e475572714164744f7779656a6e54716c44612f668401527f4b5854554d613348304c57474b44456f736f47733959367a46434b674e49786c612f868401527f76487478336a5247457533754d5845677757723174717a6977573968457a6d41612fa68401527f2b4b33556968787168754b5737517966574837547079535a31726b45744a7466612fc68401527f306f5152534e4f79544d74343844474a46462f72435a384f495879707670616e612fe68401527f64496d53394642317a52306370524b377076346366707354787479572f4651706130068401527f78464b4b3457532f744430596733686c4c4a364e7146416965446f586459596f6130268401527f5a544850784130595a63324e37356166456942456b53683446456f4858516e676130468401527f41364d3668524b6f684f39684152717841316c4b4945703630703732756d42556130668401527f784c31453070733578434d483645454961367a534d384b4a61395179764d2b646130868401527f7568496b5349594e74546564615555754257452b4e38726832324f383735596b6130a68401527f78464b71424137466877454d344553593675435962566d7030516f3464636a366130c68401527f2f63544b495678336764347a476d307a77716c4d686335723143714c31444b346130e68401527f787377716c44793470525175347871773538796c4a794d622f316c33742f6f356131068401527f37716668576f6b52433878686a736a6c4a42534f6f4b786933486533342b37466131268401527f796a523272325574496a507530427063356e332b2b485371654143574b4f57536131468401527f596f43705846386b78364265642f524b626b485542496477655a4c5759762b4c6131668401527f6c32737a664d2b3237684379516b676a71486d50716b46684b2f4e546c32366d6131868401527f497876394e6749524c4850784e424f423759564e555a566d587758514b6555726131a68401527f6656677846702f39797542456e356478734c41756a67574b5045494f7538334d6131c68401527f752b724b416274597031576a346e5374716d2f5439386e7558785461333148426131e68401527f2b667954452f6a4d4e6a785471536551496c3377676531316a496c5a464749746132068401527f63624d564162704f376b563649714c6f7474354d56707273632b5254516a75676132268401527f464f2f65552f3979643144466f7952716671565445376f46744b70564443374d6132468401527f3156315936514e43705445576e647969793461712b556f68794b4b5471624d446132668401527f6a495342795a51476b596f57567072722b4e624e3837374c417057694a554b556132868401527f53697452796a702b4a614d574f76637157715a6d4850494554396136394570366132a68401527f627950726f475937494a324b68664a716a3272665332444e4147525856544c2f6132c68401527f393267594e4362546b5273466f566e576a5a425446416a39303251694d3737686132e68401527f464c495549492b547a7276753951784c5931763956496736443243414973666f6133068401527f4949785567586e43355132534576765647506c74674968356a617078647a466d6133268401527f4a694c55304a6152696a7854724d66352f3034516f6c3073796f4b685a49646f6133468401527f5351334c2b4f38543255496c41546e6f314d4b72546f616d62305472383543756133668401527f57397171497738372b2f6b456c4b68354b556f7845783766687743717a3946676133868401527f564b3231685172787a663355626f596f392b503977686274645a694651564b376133a68401527f47496931767352715649552b57514e4461463743435769524b376a664c70304d6133c68401527f64616f786d394651326a5852582b73305830574449347973645a79315a5465456133e68401527f3071774c4777642f7047316c71764632476f58433549387664397056582f476c6134068401527f307449707157525330683574394575316c737846426c4b58736856786a6564396134268401527f373161363161733958646679627850703151636d504152523472366e647438436134468401527f616b553664786c6643732b7231476e4c7065516635724f2b787568534c3645726134668401527f4b576f316d58457a5536396e637a37315955693437782f696d4d6d6e447231346134868401527f70545946504c2f6a476a624b66502b5561364c644453514573337a2f707047576134a68401527f793868525a394e306b36467a72435453366c4d4e5942416e4a4972383336346f6134c68401527f564e7154394d754a6b374a463359534e794d3739336f4a4756646161324d58476134e68401527f2f6976644a62313470547341796a316f6a455a6c762f546c746e6b4e417844516135068401527f64695668624c4d45584945626b4276775a6162554351575858494662674a524c6135268401527f684b5542647430676551694b38597a37796347735733564b7248473837365a706135468401527f354e717735485865326848336a643346474e464e635a49626e6d4c306973485a6135668401527f565a536f356551626b727355354f624571716d54464d366b705371332b776c4a6135868401527f4b635970324d397536696949436b6c462b6b46564244563158534b446267466b6135a68401527f766472474e396f536f4d4348556d70506a33364a696b684f6357696245594d726135c68401527f5758777a534959584469595576415355715a596155337058654c62614664336c6135e68401527f4c7a666539356657315053764539534f754f496e6b522f534950426932354f736136068401527f59476d314c486f6e686e667945303935495076467333376d66454e55347969516136268401527f4541503453314c70375141326258345a4e36766e39397544536e463332684e556136468401527f7249336b3959314f6c714c4b5145414c764236635248457478637a7059532b796136668401527f556d707337786653516e613937776653556f48443044595a53744675536e4e4d6136868401527f4b586e706f54456d5865367061424531754f6676453954476a6458465150626f6136a68401527f49717a2b4c626e666154667a4e304e74507631554239462f396530712f484e386136c68401527f373673617a7468595330685258706c2f53652b426152713776636e73724463776136e68401527f316b6d2f64684d735a3355595571356b4a526753723251457442366b576e444e6137068401527f2f366764646e6f714c2b2f4d72346c5449754f6e7249476f5262626a32417a4e6137268401527f796c6173314d617548326a594172324c766576516b6f557165616b30396c494b6137468401527f64475550764d6453364170573936434654524c517578315a504464664b4d57796137668401527f366553486e3841535932416149484c54714941414141415355564f524b3543596137868401526524a49e91179f60d11b6137a68401527f3c7465787420666f6e742d73697a653d2231352e352220783d223230302220796137ac8401527f3d223136332220746578742d616e63686f723d226d6964646c652220666f6e746137cc8401527f2d66616d696c793d2273616e7322206c65747465722d73706163696e673d22366137ec8401526e11103334b6361e913bb434ba32911f60891b61380c8401526611115413d4d25560ca1b61381b840152661e17ba32bc3a1f60c91b61382284018190527f3c7465787420666f6e742d73697a653d2234352220783d223230302220793d226138298501527f3231322220746578742d616e63686f723d226d6964646c65222020666f6e742d6138498501527f7765696768743d223931302220666f6e742d66616d696c793d2253616e732c416138698501527f7269616c22206c65747465722d73706163696e673d222d31222066696c6c3d22613889850152663bb434ba32911f60c91b6138a9850152815190916138b0916401022aa24160dd1b916146c8908290858901908f0161499a565b850191820152816138b58201527f3c7465787420666f6e742d73697a653d2231382e372220783d223230302220796138bc8201527f3d223234332220746578742d616e63686f723d226d6964646c652220666f6e746138dc8201527f2d66616d696c793d225065726d616e656e74204d61726b6572222066696c6c3d6138fc82015267113bb434ba32911f60c11b61391c8201526f4652454e5320504f4f4c205354414b4560801b613924820152816139348201527f3c7265637420783d2232372220793d2233343522206865696768743d2233302261393b8201527f2077696474683d22333436222066696c6c3d222334353534454122206f70616361395b8201526a34ba3c9e91171a1110179f60a91b61397b8201527f3c7465787420666f6e742d73697a653d2231302220783d223230302220793d226139868201527f3336352220746578742d616e63686f723d226d6964646c652220666f6e742d776139a68201527f65696768743d22626f6c642220666f6e742d66616d696c793d2253616e732c416139c6820152723934b0b611103334b6361e913bb434ba32911f60691b6139e6820152825190614888826139f9958d878501910161499a565b0191820152036139e08101855201836149bd565b6148b8835194859381855251928380928601528585019061499a565b601f01601f19168101030190f35b6148e39293503d8091833e6148db81836149bd565b8101906149f5565b903880610133565b8451903d90823e3d90fd5b61490b9194503d8084833e6148db81836149bd565b923861010b565b85513d86823e3d90fd5b90809293503d8311614951575b61493381856149bd565b8101031261494d5751818116810361494d573886816100db565b8380fd5b503d614929565b86513d87823e3d90fd5b634e487b7160e01b85526041600452602485fd5b80fd5b5080fd5b83903461497957816003193601126149795760ff60209254168152f35b60005b8381106149ad5750506000910152565b818101518382015260200161499d565b90601f8019910116810190811067ffffffffffffffff8211176149df57604052565b634e487b7160e01b600052604160045260246000fd5b602081830312614a6157805167ffffffffffffffff91828211614a6157019082601f83011215614a615781519081116149df5760405192614a40601f8301601f1916602001856149bd565b81845260208284010111614a6157614a5e916020808501910161499a565b90565b600080fdfea2646970667358221220cf8579b934df1497635143eb77f010c09aa25ecbd1a5e421b7de01122836e99f64736f6c63430008110033",
    "linkReferences": {}
  },
  "methodIdentifiers": {
    "renderTokenById(uint256)": "a2d6c6da",
    "version()": "54fd4d50"
  },
  "id": 1
}