{
  "abi": [
    {
      "inputs": [
        {
          "internalType": "contract IFrensStorage",
          "name": "_frensStorage",
          "type": "address"
        }
      ],
      "stateMutability": "nonpayable",
      "type": "constructor"
    },
    {
      "inputs": [
        {
          "internalType": "uint256",
          "name": "id",
          "type": "uint256"
        }
      ],
      "name": "renderTokenById",
      "outputs": [
        {
          "internalType": "string",
          "name": "",
          "type": "string"
        }
      ],
      "stateMutability": "view",
      "type": "function"
    },
    {
      "inputs": [],
      "name": "version",
      "outputs": [
        {
          "internalType": "uint8",
          "name": "",
          "type": "uint8"
        }
      ],
      "stateMutability": "view",
      "type": "function"
    }
  ],
  "bytecode": {
    "object": "0x6080604090808252346101815780610b77803803809161001f8285610186565b833960209283918101031261018157516001600160a01b03919082811681036101815760008054610100600160a81b0319811660089390931b610100600160a81b031692831780835586516f636f6e74726163742e6164647265737360801b8187019081526d4672656e73506f6f6c536861726560901b6030830152601e82529396949592949390928389019290916001600160401b0384118585101761016d576024848785948294838f52895190206321f8a72160e01b845260448a015260081c165afa928315610163578793610127575b5050600180546001600160a01b03191693909216929092179055506001600160a81b031916179055516109b790816101c08239f35b90809293503d831161015c575b61013e8185610186565b8101031261015857518181168103610158573880806100f2565b8480fd5b503d610134565b88513d89823e3d90fd5b634e487b7160e01b89526041600452602489fd5b600080fd5b601f909101601f19168101906001600160401b038211908210176101a957604052565b634e487b7160e01b600052604160045260246000fdfe6080604081815260048036101561001557600080fd5b600092833560e01c90816354fd4d50146107eb575063a2d6c6da1461003957600080fd5b346107e757602092836003193601126107e45781358351908582016f636f6e74726163742e6164647265737360801b928382526e233932b739a6b2ba30a432b63832b960891b6030820152601f81526100918161082f565b5190206001600160a01b039081906100a8906108f4565b169286519263ef21184f60e01b845280878501528584602481885afa9384156107985790869182956107c8575b5060248951809781936324a8b96b60e21b83528b8301525afa9384156107be57908693929186956107a2575b5085826101348a518c81019085825265141b519bdb9d60d21b60308201526016815261012c8161082f565b5190206108f4565b168951988980926378bf42b960e11b82525afa968715610798578697610778575b5090839186826101868b518d810190858252684672656e734c6f676f60b81b60308201526019815261012c8161082f565b168a51968780926305b3806b60e11b82525afa94851561076e5790879291839661074e575b506101d3908a518c810191825264576176657360d81b60308201526015815261012c8161082f565b168851928380926354ea17bf60e11b82525afa9485156107435792887f3c7465787420666f6e742d73697a653d2231352e352220783d223230302220799796936106e996938661037c9796610713575b50506401022aa24160dd1b908a51998a968488019a651e3232b3399f60d11b8c527f3c6c696e6561724772616469656e742069643d226772616431222078313d223060268a01527f25222079313d223025222078323d2231303025222079323d2231303025223e0060468a01527f3c73746f70206f66667365743d22302522207374796c653d2273746f702d636f60658a01527f6c6f723a233366313965653b73746f702d6f7061636974793a3122202f3e000060858a01527f3c73746f70206f66667365743d223130302522207374796c653d2273746f702d60a38a01527f636f6c6f723a233534646165303b73746f702d6f7061636974793a3122202f3e60c38a0152701e17b634b732b0b923b930b234b2b73a1f60791b60e38a0152610355815180928860f48d01910161080c565b88017f3c72656374206865696768743d22343030222077696474683d2234303022206660f48201527334b6361e913ab9361411b3b930b218949110179f60611b6101148201528651906103b18261012899898b8501910161080c565b016103c482518093888a8501910161080c565b01948501527f3d223136332220746578742d616e63686f723d226d6964646c652220666f6e746101488501527f2d66616d696c793d2273616e7322206c65747465722d73706163696e673d22366101688501526e11103334b6361e913bb434ba32911f60891b6101888501526611115413d4d25560ca1b610197850152661e17ba32bc3a1f60c91b938461019e8201527f3c7465787420666f6e742d73697a653d2234352220783d223230302220793d226101a58201527f3231322220746578742d616e63686f723d226d6964646c65222020666f6e742d6101c58201527f7765696768743d223931302220666f6e742d66616d696c793d2253616e732c416101e58201527f7269616c22206c65747465722d73706163696e673d222d31222066696c6c3d22610205820152663bb434ba32911f60c91b6102258201526105168251809361022c96878501910161080c565b0191820152816102318201527f3c7465787420666f6e742d73697a653d2231382e372220783d223230302220796102388201527f3d223234332220746578742d616e63686f723d226d6964646c652220666f6e746102588201527f2d66616d696c793d225065726d616e656e74204d61726b6572222066696c6c3d61027882015267113bb434ba32911f60c11b6102988201526f4652454e5320504f4f4c205354414b4560801b6102a0820152816102b08201527f3c7265637420783d2232372220793d2233343522206865696768743d223330226102b78201527f2077696474683d22333436222066696c6c3d222334353534454122206f7061636102d78201526a34ba3c9e91171a1110179f60a91b6102f78201527f3c7465787420666f6e742d73697a653d2231302220783d223230302220793d226103028201527f3336352220746578742d616e63686f723d226d6964646c652220666f6e742d776103228201527f65696768743d22626f6c642220666f6e742d66616d696c793d2253616e732c41610342820152723934b0b611103334b6361e913bb434ba32911f60691b6103628201528251906106d582610375958d878501910161080c565b01918201520361035c810185520183610861565b610705835194859381855251928380928601528585019061080c565b601f01601f19168101030190f35b6401022aa24160dd1b9296509061073b913d8091833e6107338183610861565b810190610883565b949038610223565b8751903d90823e3d90fd5b6101d3919650610767903d8086833e6107338183610861565b95906101ab565b89513d89823e3d90fd5b8492919750610790903d8089833e6107338183610861565b969091610155565b88513d88823e3d90fd5b6107b79195503d8088833e6107338183610861565b9338610101565b87513d87823e3d90fd5b6107dd9195503d8084833e6107338183610861565b93386100d5565b80fd5b8280fd5b84903461080857816003193601126108085760ff60209254168152f35b5080fd5b60005b83811061081f5750506000910152565b818101518382015260200161080f565b6040810190811067ffffffffffffffff82111761084b57604052565b634e487b7160e01b600052604160045260246000fd5b90601f8019910116810190811067ffffffffffffffff82111761084b57604052565b6020818303126108ef57805167ffffffffffffffff918282116108ef57019082601f830112156108ef57815190811161084b57604051926108ce601f8301601f191660200185610861565b818452602082840101116108ef576108ec916020808501910161080c565b90565b600080fd5b60018060a01b036000602082825460081c16936024604051809681936321f8a72160e01b835260048301525afa928315610974578193610935575b50505090565b909192506020813d821161096c575b8161095160209383610861565b81010312610808575191821682036107e4575038808061092f565b3d9150610944565b50604051903d90823e3d90fdfea264697066735822122093012c90d37068df528c1afb827f0cde006d66cd7fe65f2154a212f048131dbb64736f6c63430008110033",
    "linkReferences": {}
  },
  "methodIdentifiers": {
    "renderTokenById(uint256)": "a2d6c6da",
    "version()": "54fd4d50"
  },
  "id": 1
}