{
  "abi": [
    {
      "inputs": [
        {
          "internalType": "contract IFrensStorage",
          "name": "_frensStorage",
          "type": "address"
        }
      ],
      "stateMutability": "nonpayable",
      "type": "constructor"
    },
    {
      "inputs": [
        {
          "internalType": "address",
          "name": "_contractAddress",
          "type": "address"
        }
      ],
      "name": "allowExternalContract",
      "outputs": [],
      "stateMutability": "nonpayable",
      "type": "function"
    },
    {
      "inputs": [
        {
          "internalType": "address",
          "name": "_contractAddress",
          "type": "address"
        },
        {
          "internalType": "string",
          "name": "_contractName",
          "type": "string"
        }
      ],
      "name": "deleteContract",
      "outputs": [],
      "stateMutability": "nonpayable",
      "type": "function"
    },
    {
      "inputs": [
        {
          "internalType": "address",
          "name": "_contractAddress",
          "type": "address"
        }
      ],
      "name": "disAllowExternalContract",
      "outputs": [],
      "stateMutability": "nonpayable",
      "type": "function"
    },
    {
      "inputs": [
        {
          "internalType": "address",
          "name": "_contractAddress",
          "type": "address"
        },
        {
          "internalType": "string",
          "name": "_contractName",
          "type": "string"
        }
      ],
      "name": "setContract",
      "outputs": [],
      "stateMutability": "nonpayable",
      "type": "function"
    },
    {
      "inputs": [
        {
          "internalType": "address",
          "name": "_contractAddress",
          "type": "address"
        },
        {
          "internalType": "bool",
          "name": "_exists",
          "type": "bool"
        }
      ],
      "name": "setContractExists",
      "outputs": [],
      "stateMutability": "nonpayable",
      "type": "function"
    },
    {
      "inputs": [
        {
          "internalType": "address",
          "name": "_contractAddress",
          "type": "address"
        },
        {
          "internalType": "string",
          "name": "_contractName",
          "type": "string"
        }
      ],
      "name": "setExternalContract",
      "outputs": [],
      "stateMutability": "nonpayable",
      "type": "function"
    },
    {
      "inputs": [],
      "name": "version",
      "outputs": [
        {
          "internalType": "uint8",
          "name": "",
          "type": "uint8"
        }
      ],
      "stateMutability": "view",
      "type": "function"
    }
  ],
  "bytecode": {
    "object": "0x60803461008357601f610b4d38819003918201601f19168301916001600160401b038311848410176100885780849260209460405283398101031261008357516001600160a01b03811681036100835760008054610100600160a81b03191660089290921b610100600160a81b0316919091179055604051610aae908161009f8239f35b600080fd5b634e487b7160e01b600052604160045260246000fdfe60406080815260048036101561001457600080fd5b600091823560e01c80631b1c2c7f146106d057806354fd4d50146106b05780636b1c239e146106055780636b742b9314610406578063a3a8ceb0146102ae578063cd8ce31f146101b25763fe9a364f1461006d57600080fd5b346101ae5760203660031901126101ae576100866107ca565b835482516353adc3e960e11b81526001600160a01b0394929160209082908590829060081c89165afa9081156101a4576100cc9186918891610176575b501633146108d1565b82516f185b1b1bddd9590b98dbdb9d1c9858dd60821b6020820190815260609290921b6001600160601b031916603082015261011581604481015b03601f19810183528261080a565b5190209260005460081c1692833b15610171576044600092838551968794859363abfdcced60e01b8552840152600160248401525af1908115610167575061015b575080f35b610164906107e0565b80f35b513d6000823e3d90fd5b600080fd5b610197915060203d811161019d575b61018f818361080a565b8101906108b2565b386100c3565b503d610185565b84513d88823e3d90fd5b8280fd5b50346101ae57806003193601126101ae576101cb6107ca565b91602435928315158094036102aa57845483516353adc3e960e11b81526001600160a01b03929160209082908690829060081c87165afa9081156102a05761021e918491899161017657501633146108d1565b83516e636f6e74726163742e65786973747360881b6020820190815260609290921b6001600160601b031916602f82015261025c8160438101610107565b5190209060005460081c16803b1561017157600092836044928651978895869463abfdcced60e01b865285015260248401525af1908115610167575061015b575080f35b85513d89823e3d90fd5b8480fd5b50829034610402576102bf3661082c565b835483516353adc3e960e11b8152919360209290916001600160a01b039190849082908a90829060081c86165afa9081156103f85790610309929188916103db57501633146108d1565b610366838251848101907f65787465726e616c2e636f6e74726163742e6164647265737300000000000000825261035e6039828a5161034e818d8c868601910161098c565b810103601981018452018261080a565b5190206109af565b8051918201927565787465726e616c2e636f6e74726163742e6e616d6560501b84526001600160601b03199060601b166036830152602a8252606082019082821067ffffffffffffffff8311176103c65761016495965052519020610a00565b604187634e487b7160e01b6000525260246000fd5b6103f29150853d871161019d5761018f818361080a565b896100c3565b83513d89823e3d90fd5b5080fd5b50346101ae576104153661082c565b909160018060a01b038581815460081c168351946353adc3e960e11b865260209586818a81865afa9081156105fb5761045991869186916105e457501633146108d1565b845161049d603082898101946f636f6e74726163742e6164647265737360801b865261048d815180928d868601910161098c565b810103601081018452018261080a565b51902090803b156101ae57602483928651948593849263070a51bb60e11b84528c8401525af180156103f8576105d1575b5085908251958487018761050a88836021916c636f6e74726163742e6e616d6560981b82526001600160601b03199060601b16600d8201520190565b039761051e601f19998a810183528261080a565b51902091835460081c1691823b156105cd57602484928387519586948593633daecf3160e21b85528401525af180156105c3576105af575b50506101649361059b926105a79251938491820195866023916e636f6e74726163742e65786973747360881b82526001600160601b03199060601b16600f8201520190565b0390810183528261080a565b519020610929565b6105b8906107e0565b6102aa578438610556565b83513d84823e3d90fd5b8380fd5b6105dd909691966107e0565b94386104ce565b6101979150893d8b1161019d5761018f818361080a565b86513d86823e3d90fd5b5090346101ae5760203660031901126101ae576106206107ca565b835483516353adc3e960e11b815291926001600160a01b0392916020918391829060081c86165afa9081156106a65791610668916101649593879161017657501633146108d1565b516f185b1b1bddd9590b98dbdb9d1c9858dd60821b6020820190815260609290921b6001600160601b03191660308201526105a78160448101610107565b84513d87823e3d90fd5b83823461040257816003193601126104025760ff60209254169051908152f35b5090346101ae576106e03661082c565b845484516353adc3e960e11b815291936020926001600160a01b039290918491839190829060081c86165afa9081156107c057956107336107a1936101079593610164998b916107a957501633146108d1565b61076c858251848101906f636f6e74726163742e6164647265737360801b825261035e6030828c61048d815180928c868601910161098c565b51928391820194856021916c636f6e74726163742e6e616d6560981b82526001600160601b03199060601b16600d8201520190565b519020610a00565b6101979150853d871161019d5761018f818361080a565b86513d89823e3d90fd5b600435906001600160a01b038216820361017157565b67ffffffffffffffff81116107f457604052565b634e487b7160e01b600052604160045260246000fd5b90601f8019910116810190811067ffffffffffffffff8211176107f457604052565b906040600319830112610171576004356001600160a01b0381168103610171579167ffffffffffffffff60243581811161017157826023820112156101715780600401359182116107f4576040519261088f601f8401601f19166020018561080a565b828452602483830101116101715781600092602460209301838601378301015290565b9081602091031261017157516001600160a01b03811681036101715790565b156108d857565b60405162461bcd60e51b815260206004820152602360248201527f4163636f756e74206973206e6f7420612074656d706f7261727920677561726460448201526234b0b760e91b6064820152608490fd5b60009060018060a01b03825460081c1690813b156101ae57829160448392604051958693849263abfdcced60e01b845260048401528160248401525af190811561098057506109755750565b61097e906107e0565b565b604051903d90823e3d90fd5b60005b83811061099f5750506000910152565b818101518382015260200161098f565b600080546001600160a01b039391929060081c8416803b156105cd5783929183604492604051978895869463ca446dd960e01b865260048601521660248401525af190811561098057506109755750565b91909160009060018060a01b03825460081c1690813b156101ae5793829160649495836040519687809581946306e8995560e41b8352600483015260406024830152610a5b815180928160448601526020868601910161098c565b601f01601f191681010301925af19081156109805750610975575056fea2646970667358221220eeb12dca70ad2301fdbb13e1f78024a29aadfa33c1506a86534d69edb24756f964736f6c63430008110033",
    "linkReferences": {}
  },
  "methodIdentifiers": {
    "allowExternalContract(address)": "fe9a364f",
    "deleteContract(address,string)": "6b742b93",
    "disAllowExternalContract(address)": "6b1c239e",
    "setContract(address,string)": "1b1c2c7f",
    "setContractExists(address,bool)": "cd8ce31f",
    "setExternalContract(address,string)": "a3a8ceb0",
    "version()": "54fd4d50"
  },
  "id": 4
}