{
  "_format": "hh-sol-artifact-1",
  "contractName": "FrensOracle",
  "sourceName": "contracts/FrensOracle.sol",
  "abi": [
    {
      "inputs": [
        {
          "internalType": "contract IFrensStorage",
          "name": "_frensStorage",
          "type": "address"
        }
      ],
      "stateMutability": "nonpayable",
      "type": "constructor"
    },
    {
      "inputs": [
        {
          "internalType": "address",
          "name": "poolAddress",
          "type": "address"
        }
      ],
      "name": "checkValidatorState",
      "outputs": [
        {
          "internalType": "bool",
          "name": "",
          "type": "bool"
        }
      ],
      "stateMutability": "nonpayable",
      "type": "function"
    },
    {
      "inputs": [
        {
          "internalType": "bytes",
          "name": "",
          "type": "bytes"
        }
      ],
      "name": "isExiting",
      "outputs": [
        {
          "internalType": "bool",
          "name": "",
          "type": "bool"
        }
      ],
      "stateMutability": "view",
      "type": "function"
    },
    {
      "inputs": [
        {
          "internalType": "bytes",
          "name": "pubKey",
          "type": "bytes"
        },
        {
          "internalType": "bool",
          "name": "_isExiting",
          "type": "bool"
        }
      ],
      "name": "setExiting",
      "outputs": [],
      "stateMutability": "nonpayable",
      "type": "function"
    },
    {
      "inputs": [],
      "name": "version",
      "outputs": [
        {
          "internalType": "uint8",
          "name": "",
          "type": "uint8"
        }
      ],
      "stateMutability": "view",
      "type": "function"
    }
  ],
  "bytecode": "0x60803461008257601f6105bf38819003918201601f19168301916001600160401b038311848410176100875780849260209460405283398101031261008257516001600160a01b038116810361008257600080546001600160a81b03191660089290921b610100600160a81b0316919091179055604051610521908161009e8239f35b600080fd5b634e487b7160e01b600052604160045260246000fdfe608060408181526004918236101561001657600080fd5b600090813560e01c90816354fd4d501461040b57508063809bef6214610204578063d3b150e6146100b35763d6e65cb91461005057600080fd5b346100b05760203660031901126100b05782359067ffffffffffffffff82116100b0575061009b6020610089819560ff9436910161047c565b818551938285809451938492016104c8565b81016001815203019020541690519015158152f35b80fd5b509134610200578160031936011261020057803567ffffffffffffffff81116101fc576100e3903690830161047c565b90602435918215158093036101f857845484516353adc3e960e11b8152602093916001600160a01b039190859082908590829060081c86165afa9081156101ee5788916101b4575b5016330361016557509061014b91818551938285809451938492016104c8565b810160018152030190209060ff8019835416911617905551f35b845162461bcd60e51b8152908101839052602360248201527f4163636f756e74206973206e6f7420612074656d706f7261727920677561726460448201526234b0b760e91b6064820152608490fd5b90508481813d83116101e7575b6101cb8183610428565b810103126101e3575181811681036101e3573861012b565b8780fd5b503d6101c1565b87513d8a823e3d90fd5b8480fd5b8380fd5b8280fd5b50346100b05760209283600319360112610407576001600160a01b038135818116939192908481036102005785519387850191657075624b657960d01b83526bffffffffffffffffffffffff199060601b166026860152601a85528685019067ffffffffffffffff92868310848411176103f45760248387938193828d528a51902090855460081c1690630180634360e71b835260448b01525afa9485156103ea5790849392918996610369575b505086519560ff87878188516102cc81848c019d8e6104c8565b8101600181520301902054166102f7575b858860ff61009b838b8a85519384928392519283916104c8565b809192939495503b156101fc57908383928194895180978193630a645e5560e21b83525af1801561035f5790889594939291156102dd57909192809495501161034c575050835283908261009b60ff386102dd565b634e487b7160e01b825260419052602490fd5b87513d85823e3d90fd5b919550919293503d8085843e61037f8184610428565b81019188828985019403126101f85751908582116101f8570181605f820112156101fc5786810151906103b182610460565b926103be89519485610428565b828452606083830101116101f85782916103e29160608b80999897960191016104c8565b9238806102b2565b87513d86823e3d90fd5b634e487b7160e01b865260418552602486fd5b5080fd5b90503461040757816003193601126104075760ff60209254168152f35b90601f8019910116810190811067ffffffffffffffff82111761044a57604052565b634e487b7160e01b600052604160045260246000fd5b67ffffffffffffffff811161044a57601f01601f191660200190565b81601f820112156104c35780359061049382610460565b926104a16040519485610428565b828452602083830101116104c357816000926020809301838601378301015290565b600080fd5b60005b8381106104db5750506000910152565b81810151838201526020016104cb56fea2646970667358221220998b948fec58edcc2814c00a3334193bbefecb4dedfdc0770a36fbea23df740a64736f6c63430008100033",
  "linkReferences": {},
  "deployedLinkReferences": {}
}