{
  "address": "0xEB0E870664bdB6551e6bf5DEdF6CdcBD2F6A3C74",
  "abi": [
    {
      "inputs": [
        {
          "internalType": "address",
          "name": "owner_",
          "type": "address"
        },
        {
          "internalType": "contract IFrensStorage",
          "name": "frensStorage_",
          "type": "address"
        }
      ],
      "stateMutability": "nonpayable",
      "type": "constructor"
    },
    {
      "anonymous": false,
      "inputs": [
        {
          "indexed": false,
          "internalType": "uint256",
          "name": "amount",
          "type": "uint256"
        },
        {
          "indexed": false,
          "internalType": "address",
          "name": "depositer",
          "type": "address"
        }
      ],
      "name": "DepositToPool",
      "type": "event"
    },
    {
      "anonymous": false,
      "inputs": [
        {
          "indexed": true,
          "internalType": "address",
          "name": "previousOwner",
          "type": "address"
        },
        {
          "indexed": true,
          "internalType": "address",
          "name": "newOwner",
          "type": "address"
        }
      ],
      "name": "OwnershipTransferred",
      "type": "event"
    },
    {
      "anonymous": false,
      "inputs": [
        {
          "indexed": false,
          "internalType": "address",
          "name": "depositContractAddress",
          "type": "address"
        },
        {
          "indexed": false,
          "internalType": "address",
          "name": "caller",
          "type": "address"
        }
      ],
      "name": "Stake",
      "type": "event"
    },
    {
      "stateMutability": "payable",
      "type": "fallback"
    },
    {
      "inputs": [
        {
          "internalType": "uint256",
          "name": "_id",
          "type": "uint256"
        }
      ],
      "name": "addToDeposit",
      "outputs": [],
      "stateMutability": "payable",
      "type": "function"
    },
    {
      "inputs": [],
      "name": "depositToPool",
      "outputs": [],
      "stateMutability": "payable",
      "type": "function"
    },
    {
      "inputs": [],
      "name": "distribute",
      "outputs": [],
      "stateMutability": "nonpayable",
      "type": "function"
    },
    {
      "inputs": [
        {
          "internalType": "uint256",
          "name": "_id",
          "type": "uint256"
        }
      ],
      "name": "getDepositAmount",
      "outputs": [
        {
          "internalType": "uint256",
          "name": "",
          "type": "uint256"
        }
      ],
      "stateMutability": "view",
      "type": "function"
    },
    {
      "inputs": [
        {
          "internalType": "uint256",
          "name": "_id",
          "type": "uint256"
        }
      ],
      "name": "getDistributableShare",
      "outputs": [
        {
          "internalType": "uint256",
          "name": "",
          "type": "uint256"
        }
      ],
      "stateMutability": "view",
      "type": "function"
    },
    {
      "inputs": [],
      "name": "getIdsInThisPool",
      "outputs": [
        {
          "internalType": "uint256[]",
          "name": "",
          "type": "uint256[]"
        }
      ],
      "stateMutability": "view",
      "type": "function"
    },
    {
      "inputs": [],
      "name": "getPubKey",
      "outputs": [
        {
          "internalType": "bytes",
          "name": "",
          "type": "bytes"
        }
      ],
      "stateMutability": "view",
      "type": "function"
    },
    {
      "inputs": [
        {
          "internalType": "uint256",
          "name": "_id",
          "type": "uint256"
        }
      ],
      "name": "getShare",
      "outputs": [
        {
          "internalType": "uint256",
          "name": "",
          "type": "uint256"
        }
      ],
      "stateMutability": "view",
      "type": "function"
    },
    {
      "inputs": [],
      "name": "getState",
      "outputs": [
        {
          "internalType": "string",
          "name": "",
          "type": "string"
        }
      ],
      "stateMutability": "view",
      "type": "function"
    },
    {
      "inputs": [],
      "name": "getTotalDeposits",
      "outputs": [
        {
          "internalType": "uint256",
          "name": "",
          "type": "uint256"
        }
      ],
      "stateMutability": "view",
      "type": "function"
    },
    {
      "inputs": [],
      "name": "owner",
      "outputs": [
        {
          "internalType": "address",
          "name": "",
          "type": "address"
        }
      ],
      "stateMutability": "view",
      "type": "function"
    },
    {
      "inputs": [],
      "name": "renounceOwnership",
      "outputs": [],
      "stateMutability": "nonpayable",
      "type": "function"
    },
    {
      "inputs": [],
      "name": "rugpull",
      "outputs": [],
      "stateMutability": "nonpayable",
      "type": "function"
    },
    {
      "inputs": [
        {
          "internalType": "bytes",
          "name": "pubKey",
          "type": "bytes"
        },
        {
          "internalType": "bytes",
          "name": "withdrawal_credentials",
          "type": "bytes"
        },
        {
          "internalType": "bytes",
          "name": "signature",
          "type": "bytes"
        },
        {
          "internalType": "bytes32",
          "name": "deposit_data_root",
          "type": "bytes32"
        }
      ],
      "name": "setPubKey",
      "outputs": [],
      "stateMutability": "nonpayable",
      "type": "function"
    },
    {
      "inputs": [],
      "name": "stake",
      "outputs": [],
      "stateMutability": "nonpayable",
      "type": "function"
    },
    {
      "inputs": [
        {
          "internalType": "bytes",
          "name": "pubKey",
          "type": "bytes"
        },
        {
          "internalType": "bytes",
          "name": "withdrawal_credentials",
          "type": "bytes"
        },
        {
          "internalType": "bytes",
          "name": "signature",
          "type": "bytes"
        },
        {
          "internalType": "bytes32",
          "name": "deposit_data_root",
          "type": "bytes32"
        }
      ],
      "name": "stake",
      "outputs": [],
      "stateMutability": "nonpayable",
      "type": "function"
    },
    {
      "inputs": [
        {
          "internalType": "address",
          "name": "newOwner",
          "type": "address"
        }
      ],
      "name": "transferOwnership",
      "outputs": [],
      "stateMutability": "nonpayable",
      "type": "function"
    },
    {
      "inputs": [],
      "name": "unstake",
      "outputs": [],
      "stateMutability": "nonpayable",
      "type": "function"
    },
    {
      "inputs": [],
      "name": "version",
      "outputs": [
        {
          "internalType": "uint8",
          "name": "",
          "type": "uint8"
        }
      ],
      "stateMutability": "view",
      "type": "function"
    },
    {
      "inputs": [
        {
          "internalType": "uint256",
          "name": "_id",
          "type": "uint256"
        },
        {
          "internalType": "uint256",
          "name": "_amount",
          "type": "uint256"
        }
      ],
      "name": "withdraw",
      "outputs": [],
      "stateMutability": "nonpayable",
      "type": "function"
    },
    {
      "stateMutability": "payable",
      "type": "receive"
    }
  ],
  "transactionHash": "0xaac3c41b9169d210bb8d953c0d52560d651c341a0bafb09ccb77a170209408d5",
  "args": [
    "0x521B2cE927FD6d0D473789Bd3c70B296BBce613e",
    "0x3703511A5fa20Be3FdBAD50A0A84d5d87E7683F4"
  ],
  "solcInputHash": "17a14ad4bc53af827cbeea225ea20fb1",
  "bytecode": "0x6080604081815234620001965780826200228f80380380916200002382856200019b565b83398101031262000196576200003982620001bf565b6020928301516001600160a01b03808216949185900362000196576200005f33620001d4565b600180546001600160a01b0319908116871790915584516f636f6e74726163742e6164647265737360801b8185019081526d4672656e73506f6f6c536861726560901b6030830152601e82528187019792949192906001600160401b038911848a1017620001805760248984938193828c52875190206321f8a72160e01b835260448801525afa918215620001755760009262000131575b50506200011094955016906002541617600255620001d4565b6000805460ff60a01b1916600160a01b1790555161206e9081620002218239f35b813d83116200016d575b62000147818a6200019b565b810103126200016a575062000161620001109495620001bf565b859438620000f7565b80fd5b503d6200013b565b86513d6000823e3d90fd5b634e487b7160e01b600052604160045260246000fd5b600080fd5b601f909101601f19168101906001600160401b038211908210176200018057604052565b51906001600160a01b03821682036200019657565b600080546001600160a01b039283166001600160a01b03198216811783556040519093909116917f8be0079c531659141344cd1fd0a4f28419497f9722a3daafe3b4186f6b6457e091a356fe6080604081815260048036101561001e575b505050361561001c57005b005b600092833560e01c908163168a482214610d6d575080631865c57d14610d4f5780632def662014610cd4578063378de45b14610c8d5780633a4b66f114610c67578063441a3e7014610a7557806345b58fe414610a1b5780634ad02ef1146109b45780634b2b4e361461089057806354fd4d501461086d578063678e300a1461084d578063715018a6146107ed5780638620891c1461061e5780638da5cb5b146105f6578063cfb5a5f8146105ca578063e2664e4914610579578063e4fc6b6d1461055f578063e920eec014610529578063f2fde38b146104605763f9faa1040361001157826003193601126103c15761012f610119612000565b610129610124610f68565b612008565b14610f95565b3415610429578151906020916101876801bc16d674ec8000006101808584019361017b8161015d3088610fda565b0395610171601f1997888101855284610f2a565b3492519020611089565b611008565b111561102b565b83519085848301671d1bdad95b8b9a5960c21b93848252600881526101ab81610ef2565b5190206001546001600160a01b039491908516803b1561042557604484928a519586938492632b6cd4f760e21b84528b840152600160248401525af191821561040c5761021592610416575b5086518681019182526008815261020d81610ef2565b519020611089565b90868651868101906d19195c1bdcda5d0b985b5bdd5b9d60921b825284602e820152602e815261024481610f0e565b5190208460015416803b156103c157604483928a519485938492637152429d60e11b84528b8401523460248401525af1801561040c576103f5575b50908692916102b087518781016102a68261029a3084610fda565b03858101845283610f2a565b3491519020611102565b86516a1a591ccb9a5b8b9c1bdbdb60aa1b8782019081523060601b6001600160601b031916600b820152916102f19082601f85015b03908101835282610f2a565b519020826001541691823b156103f15760448592838a51958694859363785f002b60e11b85528b85015260248401525af19081156103e75783916103d3575b50506002541691823b156103cf57845163ee1fe2ad60e01b815233918101918252306020830152859390918391839182908490829060400103925af180156103c5576103aa575b50507f1ed12c9855bd60407f7650e01c62ee4f0f40744b5b17983eec349a2b4e89981a918151903482523390820152a151f35b6103b5919250610ec8565b6103c157818338610377565b8280fd5b83513d84823e3d90fd5b5080fd5b6103dc90610ec8565b6103cf578138610330565b86513d85823e3d90fd5b8480fd5b610403909791939297610ec8565b9590913861027f565b87513d8a823e3d90fd5b61041f90610ec8565b386101f7565b8380fd5b6020606492519162461bcd60e51b8352820152601260248201527136bab9ba103232b837b9b4ba1032ba3432b960711b6044820152fd5b5090346103c15760203660031901126103c15781356001600160a01b0381811692918390036103f15784549081169361049a338614610e7d565b83156104d757506001600160a01b0319168217845551917f8be0079c531659141344cd1fd0a4f28419497f9722a3daafe3b4186f6b6457e08484a3f35b608490602084519162461bcd60e51b8352820152602660248201527f4f776e61626c653a206e6577206f776e657220697320746865207a65726f206160448201526564647265737360d01b6064820152fd5b5050346103cf5761055c61053c36610e13565b9561055760018060a09894989795971b038b54163314610e7d565b611798565b51f35b5050346103cf57816003193601126103cf5761055c611c22565b5050346103cf57816003193601126103cf5761059f60018060a01b038354163314610e7d565b81808080478181156105c1575b3390f1156105b75751f35b51903d90823e3d90fd5b506108fc6105ac565b5091346105f35760203660031901126105f357506105ec602092479035611ed7565b9051908152f35b80fd5b5050346103cf57816003193601126103cf57905490516001600160a01b039091168152602090f35b50602090816003193601126104255780359060018060a01b036024848260025416875192838092634f558e7960e01b825288888301525afa9081156107e35787916107b6575b501561077f5761069f8551858101906a1c1bdbdb0b999bdc8b9a5960aa1b825285602b820152602b815261069781610f0e565b519020611189565b3091160361074757509061055c916106b8610119612000565b6107278451916106fa6801bc16d674ec8000006101806106f3878701876106df3083610fda565b039761020d601f19998a8101835282610f2a565b3490611008565b855190848201906d19195c1bdcda5d0b985b5bdd5b9d60921b8252602e830152602e82526102a682610f0e565b6102a68451928301918361073b3085610fda565b03908101845283610f2a565b835162461bcd60e51b815290810183905260126024820152711ddc9bdb99c81cdd185ada5b99c81c1bdbdb60721b6044820152606490fd5b845162461bcd60e51b815280830185905260116024820152701a5908191bd95cc81b9bdd08195e1a5cdd607a1b6044820152606490fd5b6107d69150853d87116107dc575b6107ce8183610f2a565b810190611152565b38610664565b503d6107c4565b86513d89823e3d90fd5b5050346103cf57816003193601126103cf5781546001600160a01b038116918391610819338514610e7d565b6001600160a01b031916825551917f8be0079c531659141344cd1fd0a4f28419497f9722a3daafe3b4186f6b6457e08284a3f35b5091346105f35760203660031901126105f357506105ec60209235611f7d565b5050346103cf57816003193601126103cf5760ff6020925460a01c169051908152f35b50346103c15761089f36610e13565b926108ba60018060a09998999594951b038b54163314610e7d565b88519461091360208701876108f730836021916c1d985b1a59185d1bdc8b9cd95d609a1b82526001600160601b03199060601b16600d8201520190565b039761090b601f19998a8101835282610f2a565b519020611312565b1561099a5750505050509061094261095192865161093a6020820192826102e530866111e3565b519020611275565b60208151910120923691611209565b6020815191012003610966575061055c611483565b6020606492519162461bcd60e51b8352820152600f60248201526e0e0eac496caf240dad2e6dac2e8c6d608b1b6044820152fd5b92959093969194506109ac9750611798565b61055c611483565b5050346103cf57816003193601126103cf5780610a04610a17925160208101907376616c696461746f722e7075626c69632e6b657960601b82523060601b60348201526028815261093a81610f0e565b9051918291602083526020830190610dbb565b0390f35b5050346103cf57816003193601126103cf57610a35611da1565b815192839260208080860192818752855180945286019401925b828110610a5e57505050500390f35b835185528695509381019392810192600101610a4f565b50346103c157816003193601126103c157803560243591610a94612000565b610a9f610124611461565b14610c245760025484516331a9108f60e11b8152828101849052602093916001600160a01b03919085908290602490829086165afa90811561040c578891610bf7575b50163303610bc55784519184610b1d8585016d19195c1bdcda5d0b985b5bdd5b9d60921b9586825285602e820152602e815261020d81610f0e565b10610b8b575083610b7981889695610b578897889788978c5190858201928352602e820152602e8152610b4f81610f0e565b519020611bdd565b885190810190610b4f81610b6b3085610fda565b03601f198101835282610f2a565b8181156105c1573390f1156105b75751f35b855162461bcd60e51b815290810184905260146024820152731b9bdd08195b9bdd59da0819195c1bdcda5d195960621b6044820152606490fd5b5060649184519162461bcd60e51b8352820152600d60248201526c3737ba103a34329037bbb732b960991b6044820152fd5b610c179150853d8711610c1d575b610c0f8183610f2a565b81019061116a565b38610ae2565b503d610c05565b606490602085519162461bcd60e51b8352820152601b60248201527f63616e6e6f74207769746864726177206f6e6365207374616b656400000000006044820152fd5b5050346103cf57816003193601126103cf576109ac60018060a01b038354163314610e7d565b5091346105f35760203660031901126105f357506105ec6020928251848101916d19195c1bdcda5d0b985b5bdd5b9d60921b835235602e820152602e815261020d81610f0e565b5050346103cf57816003193601126103cf57610cfa60018060a01b038354163314610e7d565b60644711610d42575b61055c81516020810190610d1b81610b6b3085611433565b519020825190610d2a82610ef2565b6006825265195e1a5d195960d21b6020830152611742565b610d4a611c22565b610d03565b5050346103cf57816003193601126103cf57610a1790610a04611fa6565b8385346105f357806003193601126105f357506105ec8260208094019061020d81610b6b3085610fda565b60005b838110610dab5750506000910152565b8181015183820152602001610d9b565b90602091610dd481518092818552858086019101610d98565b601f01601f1916010190565b9181601f84011215610e0e5782359167ffffffffffffffff8311610e0e5760208381860195010111610e0e57565b600080fd5b906080600319830112610e0e5767ffffffffffffffff600435818111610e0e5783610e4091600401610de0565b93909392602435838111610e0e5782610e5b91600401610de0565b93909392604435918211610e0e57610e7591600401610de0565b909160643590565b15610e8457565b606460405162461bcd60e51b815260206004820152602060248201527f4f776e61626c653a2063616c6c6572206973206e6f7420746865206f776e65726044820152fd5b67ffffffffffffffff8111610edc57604052565b634e487b7160e01b600052604160045260246000fd5b6040810190811067ffffffffffffffff821117610edc57604052565b6060810190811067ffffffffffffffff821117610edc57604052565b90601f8019910116810190811067ffffffffffffffff821117610edc57604052565b67ffffffffffffffff8111610edc57601f01601f191660200190565b60405190610f7582610ef2565b6011825270616363657074696e674465706f7369747360781b6020830152565b15610f9c57565b60405162461bcd60e51b81526020600482015260166024820152756e6f7420616363657074696e67206465706f7369747360501b6044820152606490fd5b6022916d746f74616c2e6465706f7369747360901b82526001600160601b03199060601b16600e8201520190565b9190820180921161101557565b634e487b7160e01b600052601160045260246000fd5b1561103257565b60405162461bcd60e51b815260206004820152602960248201527f746f74616c206465706f736974732063616e6e6f74206265206d6f72652074686044820152680c2dc406664408ae8d60bb1b6064820152608490fd5b60015460405163bd02d0f560e01b81526004810192909252602090829060249082906001600160a01b03165afa9081156110f6576000916110c8575090565b906020823d82116110ee575b816110e160209383610f2a565b810103126105f357505190565b3d91506110d4565b6040513d6000823e3d90fd5b6001546001600160a01b031691823b15610e0e576044600092836040519586948593632b6cd4f760e21b8552600485015260248401525af180156110f6576111475750565b61115090610ec8565b565b90816020910312610e0e57518015158103610e0e5790565b90816020910312610e0e57516001600160a01b0381168103610e0e5790565b6001546040516321f8a72160e01b81526004810192909252602090829060249082906001600160a01b03165afa9081156110f6576000916111c8575090565b6111e0915060203d8111610c1d57610c0f8183610f2a565b90565b601a91657075624b657960d01b82526001600160601b03199060601b1660068201520190565b92919261121582610f4c565b916112236040519384610f2a565b829481845281830111610e0e578281602093846000960137010152565b9092919261124d81610f4c565b9161125b6040519384610f2a565b829482845282820111610e0e576020611150930190610d98565b600154604051630180634360e71b815260048101929092526000908190839060249082906001600160a01b03165afa9182156113055781926112b657505090565b909291503d8084833e6112c98183610f2a565b8101906020818303126104255780519067ffffffffffffffff82116103f1570181601f82011215610425576111e0929350602081519101611240565b50604051903d90823e3d90fd5b600154604051633d70e7e560e11b81526004810192909252602090829060249082906001600160a01b03165afa9081156110f657600091611351575090565b6111e0915060203d81116107dc576107ce8183610f2a565b1561137057565b60405162461bcd60e51b815260206004820152600b60248201526a77726f6e6720737461746560a81b6044820152606490fd5b602a91757769746864726177616c5f63726564656e7469616c7360501b82526001600160601b03199060601b1660168201520190565b601d91687369676e617475726560b81b82526001600160601b03199060601b1660098201520190565b6025917019195c1bdcda5d17d9185d1857dc9bdbdd607a1b82526001600160601b03199060601b1660118201520190565b6022916d636f6e74726163742e737461746560901b82526001600160601b03199060601b16600e8201520190565b6040519061146e82610ef2565b60068252651cdd185ad95960d21b6020830152565b6801bc16d674ec80000080471061170c576114b061149f612000565b6114aa610124610f68565b14611369565b60408051916020926114dd848201826114c930836111e3565b039261093a601f1994858101835282610f2a565b9061150184518681019061093a816114f530856113a3565b03858101835282610f2a565b9261152585518781019061093a8161151930856113d9565b03868101835282610f2a565b9385518781019061153a816115193085611402565b5190206001548751635376ab1f60e11b8152600481019290925290936001600160a01b039189908690602490829086165afa948515611701576000956116d0575b506115f7906115d189518b8101907f65787465726e616c2e636f6e74726163742e616464726573730000000000000082526e11195c1bdcda5d10dbdb9d1c9858dd608a1b60398201526028815261069781610f0e565b996115e68a5191820192826102e53086611433565b5190206115f1611461565b90611742565b871691823b15610e0e5760009461164694611655611633948a51998a98899788966304512a2360e31b8852608060048901526084880190610dbb565b6003199384888303016024890152610dbb565b91858303016044860152610dbb565b90606483015203925af180156116c557917f72b356fd889b9abd3530accd2c9f4aecbce67d70757181f9f862ac91464ce19293916116b1936116b6575b50516001600160a01b0390911681523360208201529081906040820190565b0390a1565b6116bf90610ec8565b38611692565b82513d6000823e3d90fd5b90948982813d83116116fa575b6116e78183610f2a565b810103126105f3575051936115f761157b565b503d6116dd565b88513d6000823e3d90fd5b60405162461bcd60e51b815260206004820152600e60248201526d0dcdee840cadcdeeaced040cae8d60931b6044820152606490fd5b6001546001600160a01b031691823b15610e0e5761178792600092836040518096819582946306e8995560e41b84526004840152604060248401526044830190610dbb565b03925af180156110f6576111475750565b93909592949194600160f81b3001958630116110155760409788516020988982019081528982526117c882610ef2565b6117d3368686611209565b8a81519101209151902003611b0f576118178951898101906f1d985b1a59185d1bdc8b9b1bd8dad95960821b82523060601b60308201526024815261090b81610f0e565b15611a0657611824612000565b895161182f81610ef2565b60158152746177616974696e6756616c696461746f72496e666f60581b8a82015261185990612008565b1461186390611369565b8851968888018861187430836111e3565b0398601f19998a810182526118899082610f2a565b51902091369061189892611209565b6118a191611b53565b875187810190806118b230846113a3565b0388810182526118c29082610f2a565b5190209136906118d192611209565b6118da91611b53565b855185810190806118eb30846113d9565b0386810182526118fb9082610f2a565b51902091369061190a92611209565b61191391611b53565b835183810190806119243084611402565b0384810182526119349082610f2a565b5190209061194191611b98565b825182810191816119523085611433565b0390810182526119629082610f2a565b51902061196d610f68565b61197691611742565b81516c1d985b1a59185d1bdc8b9cd95d609a1b9181019182523060601b6001600160601b031916600d8301526119af8160218401610b6b565b5190206001546001600160a01b03169190823b15610e0e57600092604484928451958693849263abfdcced60e01b84526004840152600160248401525af19081156119fc57506111475750565b513d6000823e3d90fd5b611a11969596612000565b611a19610f68565b611a2290612008565b14611a2c90611369565b88519588870187611a3d30836111e3565b0397601f19988981018252611a529082610f2a565b519020913690611a6192611209565b611a6a91611b53565b87518781019080611a7b30846113a3565b038781018252611a8b9082610f2a565b519020913690611a9a92611209565b611aa391611b53565b85518581019080611ab430846113d9565b038581018252611ac49082610f2a565b519020913690611ad392611209565b611adc91611b53565b83518381019181611aed3085611402565b039081018252611afd9082610f2a565b51902090611b0a91611b98565b611976565b885162461bcd60e51b815260048101899052601e60248201527f7769746864726177616c2063726564656e7469616c206d69736d6174636800006044820152606490fd5b6001546001600160a01b031691823b15610e0e576117879260009283604051809681958294630b8a342160e21b84526004840152604060248401526044830190610dbb565b6001546001600160a01b031691823b15610e0e5760446000928360405195869485936309d23b6160e31b8552600485015260248401525af180156110f6576111475750565b6001546001600160a01b031691823b15610e0e57604460009283604051958694859363ebb9d8c960e01b8552600485015260248401525af180156110f6576111475750565b611c2a612000565b611c35610124611461565b03611d5c5747611c43611da1565b6064821115611d185760005b8151811015611d13576020808260051b8401015160018060a01b03908160025416926024816040958651928380926331a9108f60e11b82528760048301525afa918215611d085793600094938594938a86959486958693611ce5575b5050611cb79192611ed7565b9183918315611cdb575b1690f1156119fc5750600019811461101557600101611c4f565b6108fc9250611cc1565b611cb793509081611d0192903d10610c1d57610c0f8183610f2a565b9138611cab565b85513d6000823e3d90fd5b505050565b606460405162461bcd60e51b815260206004820152602060248201527f6d696e696d756d206f66203130302077656920746f20646973747269627574656044820152fd5b60405162461bcd60e51b815260206004820152601c60248201527f757365207769746864726177207768656e206e6f74207374616b6564000000006044820152606490fd5b6040516a1a591ccb9a5b8b9c1bdbdb60aa1b60208083019182523060601b6001600160601b031916602b84015291611ddc81603f8101610b6b565b5190206001546040516378267eb560e11b81526004810192909252600092908390839060249082906001600160a01b03165afa928315611ecb578093611e23575b50505090565b909192503d8082853e611e368185610f2a565b83019082848303126105f357835167ffffffffffffffff948582116103c1570182601f820112156103cf578051948511611eb7578460051b9160405195611e7f86850188610f2a565b865284808701938301019384116105f357508301905b828210611ea85750505050388080611e1d565b81518152908301908301611e95565b634e487b7160e01b82526041600452602482fd5b604051903d90823e3d90fd5b611f099060405160208101916d19195c1bdcda5d0b985b5bdd5b9d60921b8352602e820152602e815261020d81610f0e565b611f22604051602081019061020d81610b6b3085610fda565b908015611f755760001992801515818504831116611015578215611f5f570204906001821115611f585781019081116110155790565b5050600090565b634e487b7160e01b600052601260045260246000fd5b505050600090565b611f85612000565b611f90610124610f68565b03611f9b5750600090565b6111e0904790611ed7565b6040516020810190611fbc81610b6b3085611433565b519020600154604051634c373c8d60e11b815260048101929092526000908190839060249082906001600160a01b03165afa9182156113055781926112b657505090565b612008611fa6565b604051612032602082816120258183019687815193849201610d98565b8101038084520182610f2a565b5190209056fea2646970667358221220e3817e7a9ca79ca30ca5ccdc0f339752887c0786e10f9ecdf61a56d43038753464736f6c63430008100033",
  "devdoc": {
    "kind": "dev",
    "methods": {
      "renounceOwnership()": {
        "details": "Leaves the contract without owner. It will not be possible to call `onlyOwner` functions anymore. Can only be called by the current owner. NOTE: Renouncing ownership will leave the contract without an owner, thereby removing any functionality that is only available to the owner."
      },
      "transferOwnership(address)": {
        "details": "Transfers ownership of the contract to a new account (`newOwner`). Can only be called by the current owner."
      }
    },
    "version": 1
  },
  "userdoc": {
    "kind": "user",
    "methods": {},
    "version": 1
  },
  "storageLayout": {
    "storage": [
      {
        "astId": 7,
        "contract": "contracts/StakingPool.sol:StakingPool",
        "label": "_owner",
        "offset": 0,
        "slot": "0",
        "type": "t_address"
      },
      {
        "astId": 2396,
        "contract": "contracts/StakingPool.sol:StakingPool",
        "label": "version",
        "offset": 20,
        "slot": "0",
        "type": "t_uint8"
      },
      {
        "astId": 2399,
        "contract": "contracts/StakingPool.sol:StakingPool",
        "label": "frensStorage",
        "offset": 0,
        "slot": "1",
        "type": "t_contract(IFrensStorage)6545"
      },
      {
        "astId": 4700,
        "contract": "contracts/StakingPool.sol:StakingPool",
        "label": "frensPoolShare",
        "offset": 0,
        "slot": "2",
        "type": "t_contract(IFrensPoolShare)6339"
      }
    ],
    "types": {
      "t_address": {
        "encoding": "inplace",
        "label": "address",
        "numberOfBytes": "20"
      },
      "t_contract(IFrensPoolShare)6339": {
        "encoding": "inplace",
        "label": "contract IFrensPoolShare",
        "numberOfBytes": "20"
      },
      "t_contract(IFrensStorage)6545": {
        "encoding": "inplace",
        "label": "contract IFrensStorage",
        "numberOfBytes": "20"
      },
      "t_uint8": {
        "encoding": "inplace",
        "label": "uint8",
        "numberOfBytes": "1"
      }
    }
  }
}