{
  "_format": "hh-sol-artifact-1",
  "contractName": "FrensMetaHelper",
  "sourceName": "contracts/FrensMetaHelper.sol",
  "abi": [
    {
      "inputs": [
        {
          "internalType": "contract IFrensStorage",
          "name": "_frensStorage",
          "type": "address"
        }
      ],
      "stateMutability": "nonpayable",
      "type": "constructor"
    },
    {
      "inputs": [
        {
          "internalType": "uint256",
          "name": "id",
          "type": "uint256"
        }
      ],
      "name": "getDepositStringForId",
      "outputs": [
        {
          "internalType": "string",
          "name": "",
          "type": "string"
        }
      ],
      "stateMutability": "view",
      "type": "function"
    },
    {
      "inputs": [
        {
          "internalType": "address",
          "name": "addr",
          "type": "address"
        }
      ],
      "name": "getEns",
      "outputs": [
        {
          "internalType": "bool",
          "name": "",
          "type": "bool"
        },
        {
          "internalType": "string",
          "name": "",
          "type": "string"
        }
      ],
      "stateMutability": "view",
      "type": "function"
    },
    {
      "inputs": [
        {
          "internalType": "uint256",
          "name": "amountInWei",
          "type": "uint256"
        }
      ],
      "name": "getEthDecimalString",
      "outputs": [
        {
          "internalType": "string",
          "name": "",
          "type": "string"
        }
      ],
      "stateMutability": "pure",
      "type": "function"
    },
    {
      "inputs": [
        {
          "internalType": "address",
          "name": "poolAddress",
          "type": "address"
        }
      ],
      "name": "getOperatorsForPool",
      "outputs": [
        {
          "internalType": "uint32[]",
          "name": "",
          "type": "uint32[]"
        },
        {
          "internalType": "string",
          "name": "",
          "type": "string"
        }
      ],
      "stateMutability": "view",
      "type": "function"
    },
    {
      "inputs": [],
      "name": "version",
      "outputs": [
        {
          "internalType": "uint8",
          "name": "",
          "type": "uint8"
        }
      ],
      "stateMutability": "view",
      "type": "function"
    }
  ],
  "bytecode": "0x60803461008257601f610cf538819003918201601f19168301916001600160401b038311848410176100875780849260209460405283398101031261008257516001600160a01b038116810361008257600080546001600160a81b03191660089290921b610100600160a81b0316919091179055604051610c57908161009e8239f35b600080fd5b634e487b7160e01b600052604160045260246000fdfe60806040526004361015610013575b600080fd5b6000803560e01c90816354fd4d5014610196578163a090f9b41461007157508063de1c7f7014610068578063edd148a21461005f5763ef21184f1461005757600080fd5b61000e6102fe565b5061000e6102d0565b5061000e610268565b3461017e57602036600319011261017e5760043561008e816101b4565b6040516020810191657075624b657960d01b83526bffffffffffffffffffffffff199060601b166026820152601a81526100c7816103ed565b5190208154604051630180634360e71b8152600481019290925282908290602490829060081c6001600160a01b03165afa918215610189575b8092610123575b61011f610113846107e3565b6040519182918261020d565b0390f35b9091503d8082843e6101358184610432565b8201916020818403126101855780519067ffffffffffffffff821161018157019082601f8301121561017e575061017861011f928260206101139451910161075e565b91610107565b80fd5b8280fd5b5080fd5b610191610454565b610100565b3461017e578060031936011261017e5760ff90541660805260206080f35b6001600160a01b0381160361000e57565b60005b8381106101d85750506000910152565b81810151838201526020016101c8565b90602091610201815180928185528580860191016101c5565b601f01601f1916010190565b919091604081019260408252606051809452606082019160806000955b80871061024957505061024693945060208184039101526101e8565b90565b909360019063ffffffff8651168152602080910195019601959061022a565b503461000e57602036600319011261000e5761028e600435610289816101b4565b610951565b9061011f604051928392151583526040602084015260408301906101e8565b602090600319011261000e5760043590565b9060206102469281815201906101e8565b503461000e5761011f6102ea6102e5366102ad565b61050c565b6040519182916020835260208301906101e8565b503461000e5761030d366102ad565b60405160208101916d19195c1bdcda5d0b985b5bdd5b9d60921b8352602e820152602e815261033b81610416565b51902060005460405163bd02d0f560e01b815260048101929092526020908290602490829060081c6001600160a01b03165afa9081156103c9575b600091610396575b61011f61038a8361050c565b604051918291826102bf565b906020823d82116103c1575b816103af60209383610432565b8101031261017e57505161038a61037e565b3d91506103a2565b6103d1610454565b610376565b50634e487b7160e01b600052604160045260246000fd5b6040810190811067ffffffffffffffff82111761040957604052565b6104116103d6565b604052565b6060810190811067ffffffffffffffff82111761040957604052565b90601f8019910116810190811067ffffffffffffffff82111761040957604052565b506040513d6000823e3d90fd5b50634e487b7160e01b600052601260045260246000fd5b50634e487b7160e01b600052601160045260246000fd5b8115610499570490565b6104a1610461565b0490565b81156104af570690565b6104b7610461565b0690565b906104ce602092828151948592016101c5565b0190565b9061050a60216040518094600360fc1b60208301526104fa81518092602086860191016101c5565b8101036001810185520183610432565b565b66038d7ea4c68000670de0b6b3a76400006105288184046106a4565b92060490610535826106a4565b91606481106105ac575b600a11610594575b60216102469160405193816105668693518092602080870191016101c5565b8201601760f91b602082015261058582518093602087850191016101c5565b01036001810184520182610432565b9060216105a3610246926104d2565b92915050610547565b916105b8600a916104d2565b92905061053f565b60209067ffffffffffffffff81116105de575b601f01601f19160190565b6105e66103d6565b6105d3565b604051906020820182811067ffffffffffffffff821117610610575b60405260008252565b6106186103d6565b610607565b600190600019811461062d570190565b6104ce610478565b9061063f826105c0565b61064c6040519182610432565b828152809261065d601f19916105c0565b0190602036910137565b906001820180921161067557565b61050a610478565b90815181101561068e570160200190565b634e487b7160e01b600052603260045260246000fd5b8015610740576000818181805b61072857506106bf81610635565b935b6106cb5750505090565b600019810190811161071b575b8091600a916107056030848406810180911161070e575b60f81b6001600160f81b031916861a918761067d565b530490816106c1565b610716610478565b6106ef565b610723610478565b6106d8565b9150610735600a9161061d565b9104808492916106b1565b5060405161074d816103ed565b60018152600360fc1b602082015290565b9092919261076b816105c0565b916107796040519384610432565b82948284528282011161000e57602061050a9301906101c5565b8060001904600211811515166107aa575b60011b90565b6107b2610478565b6107a4565b604051906107c4826103ed565b601082526f181899199a1a9b1b9c1cb0b131b232b360811b6020830152565b906107f66107f18351610793565b610635565b6107fe6107b7565b600093845b81518110156108b7578061088e61082961088861083d6108376108296108b2978961067d565b516001600160f81b03191690565b60f81c90565b6108586108296108528a5160ff80951661048f565b8a61067d565b61086e61086487610793565b918d1a918b61067d565b5361087f610837610829878a61067d565b885191166104a5565b8661067d565b6108ac6108a261089d84610793565b610667565b91891a918761067d565b5361061d565b610803565b505060405161060f60f31b6020820152929350610246918391506108df9060228301906104bb565b03601f198101835282610432565b9081602091031261000e5751610246816101b4565b9081602091031261000e5751801515810361000e5790565b60208183031261000e5780519067ffffffffffffffff821161000e57019080601f8301121561000e5781516102469260200161075e565b906040516109c36109bd6109b1602093848101906109a9816108df61099a856019907f65787465726e616c2e636f6e74726163742e616464726573730000000000000081520190565b62454e5360e81b815260030190565b519020610b2b565b6001600160a01b031690565b93610b93565b604051630178b8bf60e01b8152600481018290526001600160a01b0394851694919291908281602481895afa908115610b1e575b600091610af1575b5016918215610ae157604051631ef3fca760e31b815260048101829052610a61958390829060249082905afa928315610ad4575b600093610aa2575b505060009192604051808097819463691f343160e01b8352600483019190602083019252565b03915afa928315610a95575b600093610a7957509190565b61024691933d8091833e610a8d8183610432565b81019061091a565b610a9d610454565b610a6d565b600093509081610ac692903d10610acd575b610abe8183610432565b810190610902565b9138610a3b565b503d610ab4565b610adc610454565b610a33565b50505090506000906102466105eb565b610b119150833d8511610b17575b610b098183610432565b8101906108ed565b386109ff565b503d610aff565b610b26610454565b6109f7565b6000546040516321f8a72160e01b815260048101929092526020908290602490829060081c6001600160a01b03165afa908115610b86575b600091610b6e575090565b610246915060203d8111610b1757610b098183610432565b610b8e610454565b610b63565b6028805b610be5575050602860002060405160208101917f91d1777781884d03a6757a803996e38de2a42967fb37eeaca72729271025a9e28352604082015260408152610bdf81610416565b51902090565b6f181899199a1a9b1b9c1cb0b131b232b360811b91600f9182821684901a600019820153600119019283928260041c161a825360081c91610b9756fea264697066735822122024a1bdf042a6d7c2acf8ff22d44f8912ef1ae44e9fed2a10bf4b93fbc90c4b5f64736f6c63430008100033",
  "linkReferences": {},
  "deployedLinkReferences": {}
}