{
  "_format": "hh-sol-artifact-1",
  "contractName": "FrensMetaHelper",
  "sourceName": "contracts/FrensMetaHelper.sol",
  "abi": [
    {
      "inputs": [
        {
          "internalType": "contract IFrensStorage",
          "name": "_frensStorage",
          "type": "address"
        }
      ],
      "stateMutability": "nonpayable",
      "type": "constructor"
    },
    {
      "inputs": [
        {
          "internalType": "address",
          "name": "a",
          "type": "address"
        }
      ],
      "name": "getColor",
      "outputs": [
        {
          "internalType": "string",
          "name": "",
          "type": "string"
        }
      ],
      "stateMutability": "pure",
      "type": "function"
    },
    {
      "inputs": [
        {
          "internalType": "uint256",
          "name": "amountInWei",
          "type": "uint256"
        }
      ],
      "name": "getEthDecimalString",
      "outputs": [
        {
          "internalType": "string",
          "name": "",
          "type": "string"
        }
      ],
      "stateMutability": "pure",
      "type": "function"
    },
    {
      "inputs": [
        {
          "internalType": "address",
          "name": "poolAddress",
          "type": "address"
        }
      ],
      "name": "getOperatorsForPool",
      "outputs": [
        {
          "internalType": "uint32[]",
          "name": "",
          "type": "uint32[]"
        },
        {
          "internalType": "string",
          "name": "",
          "type": "string"
        }
      ],
      "stateMutability": "view",
      "type": "function"
    },
    {
      "inputs": [],
      "name": "version",
      "outputs": [
        {
          "internalType": "uint8",
          "name": "",
          "type": "uint8"
        }
      ],
      "stateMutability": "view",
      "type": "function"
    }
  ],
  "bytecode": "0x60803461008357601f610a9138819003918201601f19168301916001600160401b038311848410176100885780849260209460405283398101031261008357516001600160a01b03811681036100835760008054610100600160a81b03191660089290921b610100600160a81b03169190911790556040516109f2908161009f8239f35b600080fd5b634e487b7160e01b600052604160045260246000fdfe608060409080825260048036101561001657600080fd5b600091823560e01c90816354fd4d501461075f5750806384b5e596146105f4578063a090f9b4146101535763edd148a21461005057600080fd5b3461014f576020918260031936011261014c57503591655af3107a4000670de0b6b3a7640000610081818604610908565b9406049261008e84610908565b936103e8811061013c575b60648110610128575b600a1161010a575b906100f7602161010693835196816100cb89935180928a808701910161077c565b8201601760f91b888201526100e8825180938a878501910161077c565b01036001810187520185610812565b5192828493845283019061079f565b0390f35b92906100f7602161011d61010694610834565b9592935050506100aa565b93610134600a91610834565b9490506100a2565b9361014690610834565b93610099565b80fd5b5080fd5b50913461014f576020806003193601126105f0576001600160a01b03928435848116810361014f578351838101917376616c696461746f722e7075626c69632e6b657960601b83526bffffffffffffffffffffffff199060601b166034820152602881526101c0816107f6565b51902084825460081c1690845190630180634360e71b82528782015260249383828681865afa9182156105e6578492610565575b5061020761020283516109a6565b6108af565b95805193610214856107c4565b601085526f181899199a1a9b1b9c1cb0b131b232b360811b83860152855b84518110156103105761024581866108e1565b51865180156102fe576001600160f81b03199160f891839161026b9190841c048a6108e1565b5116610283610279856109a6565b918b1a918d6108e1565b5361028e83886108e1565b518851911c81156102eb57906102a59106886108e1565b51166102b0826109a6565b90600182018092116102d957906102ce6102d493928a1a918c6108e1565b5361088a565b610232565b634e487b7160e01b895260118d528989fd5b50634e487b7160e01b895260128d528989fd5b634e487b7160e01b895260128d528989fd5b50935093969491909461034e60228651809961060f60f31b8a83015261033e815180928c868601910161077c565b810103600281018a520188610812565b858551818101907f65787465726e616c2e636f6e74726163742e616464726573730000000000000082526a535356526567697374727960a81b6039820152858152610398816107f6565b519020848b885197889384926321f8a72160e01b84528301525afa90811561055b5790868993928492610517575b6103eb96508b88519788958694859363053e834960e01b85528401528883019061079f565b0392165afa96871561050d57869761044d575b50505092835193808501908552855180915282606086019601915b81811061043357858703848701528580610106898861079f565b825163ffffffff1687529583019591830191600101610419565b90919296503d8087853e6104618185610812565b83019184848403126104f457835167ffffffffffffffff9485821161050957019183601f840112156104f05782519485116104f85750508260051b908751936104ac86840186610812565b845284808501928201019283116104f4578401905b8282106104d457505050933880806103fe565b815163ffffffff811681036104f05781529084019084016104c1565b8780fd5b8680fd5b634e487b7160e01b88526041905286fd5b8880fd5b83513d88823e3d90fd5b935090508481959294953d8311610554575b6105338183610812565b810103126104f0575181811681036104f057918791866103eb9594916103c6565b503d610529565b85513d8a823e3d90fd5b9091503d8085833e6105778183610812565b81019082818303126105e25780519067ffffffffffffffff82116105de570181601f820112156105e2578051906105ad8261086e565b926105ba89519485610812565b8284528483830101116105de57906105d79184808501910161077c565b90386101f4565b8580fd5b8480fd5b86513d86823e3d90fd5b8280fd5b5082346105f0576020918260031936011261075b5780356001600160a01b03811681036105e2578251848101916bffffffffffffffffffffffff199060601b16825260148152610643816107c4565b51902082519481811a60f81b6001600160f81b031916600183811a60f01b60ff60f01b169190911760029390931a60e81b60ff60e81b169290921791610688876107c4565b60068752853681890137815b600381106106ae57855187815280610106818a018b61079f565b600f84821a8181169160109182841015610748576106cb856109a6565b868101809111610735576f181899199a1a9b1b9c1cb0b131b232b360811b9485901a906106f8908e6108e1565b53881c1690811015610722579061071d92911a6102ce610717836109a6565b8b6108e1565b610694565b634e487b7160e01b855260328752602485fd5b634e487b7160e01b885260118a52602488fd5b634e487b7160e01b875260328952602487fd5b8380fd5b83903461014f578160031936011261014f5760ff60209254168152f35b60005b83811061078f5750506000910152565b818101518382015260200161077f565b906020916107b88151809281855285808601910161077c565b601f01601f1916010190565b6040810190811067ffffffffffffffff8211176107e057604052565b634e487b7160e01b600052604160045260246000fd5b6060810190811067ffffffffffffffff8211176107e057604052565b90601f8019910116810190811067ffffffffffffffff8211176107e057604052565b9061086c60216040518094600360fc1b602083015261085c815180926020868601910161077c565b8101036001810185520183610812565b565b67ffffffffffffffff81116107e057601f01601f191660200190565b60001981146108995760010190565b634e487b7160e01b600052601160045260246000fd5b906108b98261086e565b6108c66040519182610812565b82815280926108d7601f199161086e565b0190602036910137565b9081518110156108f2570160200190565b634e487b7160e01b600052603260045260246000fd5b80156109885780600081805b6109705750610922816108af565b925b61092d57505090565b6000198101908111610899578091600a91603083830681018091116108995760f81b6001600160f81b03191660001a9061096790866108e1565b53049081610924565b915061097d600a9161088a565b910480839291610914565b50604051610995816107c4565b60018152600360fc1b602082015290565b8060001904600211811515166108995760011b9056fea2646970667358221220c0a865b205714cd1b2d955390443c8767f563dd50dbafef5fe90eb0bcfb8d90864736f6c63430008100033",
  "linkReferences": {},
  "deployedLinkReferences": {}
}