{
  "_format": "hh-sol-artifact-1",
  "contractName": "FrensMetaHelper",
  "sourceName": "contracts/FrensMetaHelper.sol",
  "abi": [
    {
      "inputs": [
        {
          "internalType": "contract IFrensStorage",
          "name": "_frensStorage",
          "type": "address"
        }
      ],
      "stateMutability": "nonpayable",
      "type": "constructor"
    },
    {
      "inputs": [
        {
          "internalType": "uint256",
          "name": "id",
          "type": "uint256"
        }
      ],
      "name": "getDepositStringForId",
      "outputs": [
        {
          "internalType": "string",
          "name": "",
          "type": "string"
        }
      ],
      "stateMutability": "view",
      "type": "function"
    },
    {
      "inputs": [
        {
          "internalType": "address",
          "name": "addr",
          "type": "address"
        }
      ],
      "name": "getEns",
      "outputs": [
        {
          "internalType": "bool",
          "name": "",
          "type": "bool"
        },
        {
          "internalType": "string",
          "name": "",
          "type": "string"
        }
      ],
      "stateMutability": "view",
      "type": "function"
    },
    {
      "inputs": [
        {
          "internalType": "uint256",
          "name": "amountInWei",
          "type": "uint256"
        }
      ],
      "name": "getEthDecimalString",
      "outputs": [
        {
          "internalType": "string",
          "name": "",
          "type": "string"
        }
      ],
      "stateMutability": "pure",
      "type": "function"
    },
    {
      "inputs": [
        {
          "internalType": "address",
          "name": "poolAddress",
          "type": "address"
        }
      ],
      "name": "getOperatorsForPool",
      "outputs": [
        {
          "internalType": "uint32[]",
          "name": "",
          "type": "uint32[]"
        },
        {
          "internalType": "string",
          "name": "",
          "type": "string"
        }
      ],
      "stateMutability": "view",
      "type": "function"
    },
    {
      "inputs": [
        {
          "internalType": "uint256",
          "name": "id",
          "type": "uint256"
        }
      ],
      "name": "getPoolString",
      "outputs": [
        {
          "internalType": "string",
          "name": "",
          "type": "string"
        }
      ],
      "stateMutability": "view",
      "type": "function"
    },
    {
      "inputs": [],
      "name": "version",
      "outputs": [
        {
          "internalType": "uint8",
          "name": "",
          "type": "uint8"
        }
      ],
      "stateMutability": "view",
      "type": "function"
    }
  ],
  "bytecode": "0x60803461008257601f610f3938819003918201601f19168301916001600160401b038311848410176100875780849260209460405283398101031261008257516001600160a01b038116810361008257600080546001600160a81b03191660089290921b610100600160a81b0316919091179055604051610e9b908161009e8239f35b600080fd5b634e487b7160e01b600052604160045260246000fdfe60806040526004361015610013575b600080fd5b6000803560e01c90816354fd4d501461008e5750806392a2e5ac14610085578063a090f9b41461007c578063de1c7f7014610073578063edd148a21461006a5763ef21184f1461006257600080fd5b61000e610412565b5061000e6103e4565b5061000e61039f565b5061000e610282565b5061000e61011d565b346100ac57806003193601126100ac5760ff90541660805260206080f35b80fd5b602090600319011261000e5760043590565b60005b8381106100d45750506000910152565b81810151838201526020016100c4565b906020916100fd815180928185528580860191016100c1565b601f01601f1916010190565b90602061011a9281815201906100e4565b90565b503461000e5761012c366100af565b61017f6040519161016b8361015d602082019384602b916a1c1bdbdb0b999bdc8b9a5960aa1b8252600b8201520190565b03601f198101855284610596565b91519091206001600160a01b0391906105da565b16610188610826565b906030610194836108c0565b5360786101a0836108d6565b5360295b600181116101ca576101c6836101ba84156109ff565b60405191829182610109565b0390f35b9080600f6102079216601081101561020c575b6f181899199a1a9b1b9c1cb0b131b232b360811b901a6101fd84866108e7565b5360041c916109e4565b6101a4565b6102146108a9565b6101dd565b6001600160a01b0381160361000e57565b919091604081019260408252606051809452606082019160806000955b80871061026357505061011a93945060208184039101526100e4565b909360019063ffffffff86511681526020809101950196019590610247565b503461000e57602036600319011261000e576004356102a081610219565b6040516020810191657075624b657960d01b83526bffffffffffffffffffffffff199060601b166026820152601a81526102d981610551565b5190206000908160018060a01b03815460081c1691602460405180948193630180634360e71b835260048301525afa918215610392575b809261032f575b6101c661032384610aab565b6040519182918261022a565b9091503d8082843e6103418184610596565b82019160208184031261038e5780519067ffffffffffffffff821161038a57019082601f830112156100ac57506103846101c69282602061032394519101610a4a565b91610317565b8280fd5b5080fd5b61039a6105cd565b610310565b503461000e57602036600319011261000e576103c56004356103c081610219565b610bf6565b906101c6604051928392151583526040602084015260408301906100e4565b503461000e576101c66103fe6103f9366100af565b6106fd565b6040519182916020835260208301906100e4565b503461000e57610421366100af565b6040519061046b60209283810190610463816104558685602b916a1c1bdbdb0b999bdc8b9a5960aa1b8252600b8201520190565b03601f198101835282610596565b5190206105da565b9060405190838201926d19195c1bdcda5d0b985b5bdd5b9d60921b84526bffffffffffffffffffffffff199060601b16602e8301526042820152604281526104b28161057a565b519020908060018060a01b0360005460081c169260246040518095819363bd02d0f560e01b835260048301525afa90811561052d575b6000916104fc575b6101c66101ba836106fd565b82813d8311610526575b6105108183610596565b810103126100ac5750516101c6906101ba6104f0565b503d610506565b6105356105cd565b6104e8565b50634e487b7160e01b600052604160045260246000fd5b6040810190811067ffffffffffffffff82111761056d57604052565b61057561053a565b604052565b6080810190811067ffffffffffffffff82111761056d57604052565b90601f8019910116810190811067ffffffffffffffff82111761056d57604052565b9081602091031261000e575161011a81610219565b506040513d6000823e3d90fd5b6000546040516321f8a72160e01b815260048101929092526020908290602490829060081c6001600160a01b03165afa908115610645575b60009161061d575090565b61011a915060203d811161063e575b6106368183610596565b8101906105b8565b503d61062c565b61064d6105cd565b610612565b50634e487b7160e01b600052601260045260246000fd5b50634e487b7160e01b600052601160045260246000fd5b811561068a570490565b610692610652565b0490565b81156106a0570690565b6106a8610652565b0690565b906106bf602092828151948592016100c1565b0190565b906106fb60216040518094600360fc1b60208301526106eb81518092602086860191016100c1565b8101036001810185520183610596565b565b66038d7ea4c68000670de0b6b3a7640000610719818404610906565b9206049061072682610906565b916064811061079d575b600a11610785575b602161011a9160405193816107578693518092602080870191016100c1565b8201601760f91b602082015261077682518093602087850191016100c1565b01036001810184520182610596565b90602161079461011a926106c3565b92915050610738565b916107a9600a916106c3565b929050610730565b60209067ffffffffffffffff81116107cf575b601f01601f19160190565b6107d761053a565b6107c4565b604051906020820182811067ffffffffffffffff821117610801575b60405260008252565b61080961053a565b6107f8565b600190600019811461081e570190565b6106bf610669565b604051906060820182811067ffffffffffffffff821117610854575b604052602a8252604082602036910137565b61085c61053a565b610842565b9061086b826107b1565b6108786040519182610596565b8281528092610889601f19916107b1565b0190602036910137565b90600182018092116108a157565b6106fb610669565b50634e487b7160e01b600052603260045260246000fd5b6020908051156108ce570190565b6106bf6108a9565b6021908051600110156108ce570190565b9060209180518210156108f957010190565b6109016108a9565b010190565b80156109a2576000818181805b61098a575061092181610861565b935b61092d5750505090565b600019810190811161097d575b8091600a9161096760308484068101809111610970575b60f81b6001600160f81b031916861a91876108e7565b53049081610923565b610978610669565b610951565b610985610669565b61093a565b9150610997600a9161080e565b910480849291610913565b506040516109af81610551565b60018152600360fc1b602082015290565b8060001904600211811515166109d7575b60011b90565b6109df610669565b6109d1565b80156109f2575b6000190190565b6109fa610669565b6109eb565b15610a0657565b606460405162461bcd60e51b815260206004820152602060248201527f537472696e67733a20686578206c656e67746820696e73756666696369656e746044820152fd5b90929192610a57816107b1565b91610a656040519384610596565b82948284528282011161000e5760206106fb9301906100c1565b60405190610a8c82610551565b601082526f181899199a1a9b1b9c1cb0b131b232b360811b6020830152565b90610abe610ab983516109c0565b610861565b610ac6610a7f565b600093845b8151811015610b7f5780610b56610af1610b50610b05610aff610af1610b7a97896108e7565b516001600160f81b03191690565b60f81c90565b610b20610af1610b1a8a5160ff809516610680565b8a6108e7565b610b36610b2c876109c0565b918d1a918b6108e7565b53610b47610aff610af1878a6108e7565b88519116610696565b866108e7565b610b74610b6a610b65846109c0565b610893565b91891a91876108e7565b5361080e565b610acb565b505060405161060f60f31b602082015292935061011a918391506104559060228301906106ac565b9081602091031261000e5751801515810361000e5790565b60208183031261000e5780519067ffffffffffffffff821161000e57019080601f8301121561000e57815161011a92602001610a4a565b90604051610c60610c5a610c4e6020938481019061046381610455610c3f856019907f65787465726e616c2e636f6e74726163742e616464726573730000000000000081520190565b62454e5360e81b815260030190565b6001600160a01b031690565b93610db8565b604051630178b8bf60e01b8152600481018290526001600160a01b0394851694919291908281602481895afa908115610dab575b600091610d8e575b5016918215610d7e57604051631ef3fca760e31b815260048101829052610cfe958390829060249082905afa928315610d71575b600093610d3f575b505060009192604051808097819463691f343160e01b8352600483019190602083019252565b03915afa928315610d32575b600093610d1657509190565b61011a91933d8091833e610d2a8183610596565b810190610bbf565b610d3a6105cd565b610d0a565b600093509081610d6392903d10610d6a575b610d5b8183610596565b810190610ba7565b9138610cd8565b503d610d51565b610d796105cd565b610cd0565b505050905060009061011a6107dc565b610da59150833d851161063e576106368183610596565b38610c9c565b610db36105cd565b610c94565b6028805b610e29575050602860002060405160208101917f91d1777781884d03a6757a803996e38de2a42967fb37eeaca72729271025a9e283526040820152604081526060810181811067ffffffffffffffff821117610e1c575b60405251902090565b610e2461053a565b610e13565b6f181899199a1a9b1b9c1cb0b131b232b360811b91600f9182821684901a600019820153600119019283928260041c161a825360081c91610dbc56fea26469706673582212207c6bc7032ff166fcf888f6f8cb62e8874fc6d632f522f7b24d722dd4748899c764736f6c63430008100033",
  "linkReferences": {},
  "deployedLinkReferences": {}
}