{
  "_format": "hh-sol-artifact-1",
  "contractName": "FrensMetaHelper",
  "sourceName": "contracts/FrensMetaHelper.sol",
  "abi": [
    {
      "inputs": [
        {
          "internalType": "contract IFrensStorage",
          "name": "_frensStorage",
          "type": "address"
        }
      ],
      "stateMutability": "nonpayable",
      "type": "constructor"
    },
    {
      "inputs": [
        {
          "internalType": "uint256",
          "name": "id",
          "type": "uint256"
        }
      ],
      "name": "getDepositStringForId",
      "outputs": [
        {
          "internalType": "string",
          "name": "",
          "type": "string"
        }
      ],
      "stateMutability": "view",
      "type": "function"
    },
    {
      "inputs": [
        {
          "internalType": "address",
          "name": "addr",
          "type": "address"
        }
      ],
      "name": "getEns",
      "outputs": [
        {
          "internalType": "bool",
          "name": "",
          "type": "bool"
        },
        {
          "internalType": "string",
          "name": "",
          "type": "string"
        }
      ],
      "stateMutability": "view",
      "type": "function"
    },
    {
      "inputs": [
        {
          "internalType": "uint256",
          "name": "amountInWei",
          "type": "uint256"
        }
      ],
      "name": "getEthDecimalString",
      "outputs": [
        {
          "internalType": "string",
          "name": "",
          "type": "string"
        }
      ],
      "stateMutability": "pure",
      "type": "function"
    },
    {
      "inputs": [
        {
          "internalType": "address",
          "name": "poolAddress",
          "type": "address"
        }
      ],
      "name": "getOperatorsForPool",
      "outputs": [
        {
          "internalType": "uint32[]",
          "name": "",
          "type": "uint32[]"
        },
        {
          "internalType": "string",
          "name": "",
          "type": "string"
        }
      ],
      "stateMutability": "view",
      "type": "function"
    },
    {
      "inputs": [
        {
          "internalType": "uint256",
          "name": "id",
          "type": "uint256"
        }
      ],
      "name": "getPoolString",
      "outputs": [
        {
          "internalType": "string",
          "name": "",
          "type": "string"
        }
      ],
      "stateMutability": "view",
      "type": "function"
    },
    {
      "inputs": [],
      "name": "version",
      "outputs": [
        {
          "internalType": "uint8",
          "name": "",
          "type": "uint8"
        }
      ],
      "stateMutability": "view",
      "type": "function"
    }
  ],
  "bytecode": "0x60803461008257601f610fe938819003918201601f19168301916001600160401b038311848410176100875780849260209460405283398101031261008257516001600160a01b038116810361008257600080546001600160a81b03191660089290921b610100600160a81b0316919091179055604051610f4b908161009e8239f35b600080fd5b634e487b7160e01b600052604160045260246000fdfe60806040526004361015610013575b600080fd5b6000803560e01c90816354fd4d501461008e5750806392a2e5ac14610085578063a090f9b41461007c578063de1c7f7014610073578063edd148a21461006a5763ef21184f1461006257600080fd5b61000e610412565b5061000e6103e4565b5061000e61039f565b5061000e610282565b5061000e61011d565b346100ac57806003193601126100ac5760ff90541660805260206080f35b80fd5b602090600319011261000e5760043590565b60005b8381106100d45750506000910152565b81810151838201526020016100c4565b906020916100fd815180928185528580860191016100c1565b601f01601f1916010190565b90602061011a9281815201906100e4565b90565b503461000e5761012c366100af565b61017f6040519161016b8361015d602082019384602b916a1c1bdbdb0b999bdc8b9a5960aa1b8252600b8201520190565b03601f198101855284610488565b91519091206001600160a01b039190610647565b16610188610944565b906030610194836109be565b5360786101a0836109d4565b5360295b600181116101ca576101c6836101ba8415610ae8565b60405191829182610109565b0390f35b9080600f6102079216601081101561020c575b6f181899199a1a9b1b9c1cb0b131b232b360811b901a6101fd84866109e5565b5360041c91610acd565b6101a4565b6102146109a7565b6101dd565b6001600160a01b0381160361000e57565b919091604081019260408252606051809452606082019160806000955b80871061026357505061011a93945060208184039101526100e4565b909360019063ffffffff86511681526020809101950196019590610247565b503461000e57602036600319011261000e576004356102a081610219565b6040516020810191657075624b657960d01b83526bffffffffffffffffffffffff199060601b166026820152601a81526102d981610443565b5190206000908160018060a01b03815460081c1691602460405180948193630180634360e71b835260048301525afa918215610392575b809261032f575b6101c661032384610b94565b6040519182918261022a565b9091503d8082843e6103418184610488565b82019160208184031261038e5780519067ffffffffffffffff821161038a57019082601f830112156100ac57506103846101c69282602061032394519101610b33565b91610317565b8280fd5b5080fd5b61039a61063a565b610310565b503461000e57602036600319011261000e576103c56004356103c081610219565b610cd5565b906101c6604051928392151583526040602084015260408301906100e4565b503461000e576101c66103fe6103f9366100af565b610878565b6040519182916020835260208301906100e4565b503461000e576101c66103fe610427366100af565b610524565b50634e487b7160e01b600052604160045260246000fd5b6040810190811067ffffffffffffffff82111761045f57604052565b61046761042c565b604052565b6060810190811067ffffffffffffffff82111761045f57604052565b90601f8019910116810190811067ffffffffffffffff82111761045f57604052565b60209067ffffffffffffffff81116104c8575b601f01601f19160190565b6104d061042c565b6104bd565b604051906020820182811067ffffffffffffffff8211176104fa575b60405260008252565b61050261042c565b6104f1565b6040519061051482610443565b60018252600360fc1b6020830152565b6040519061056e60208301836105528483602b916a1c1bdbdb0b999bdc8b9a5960aa1b8252600b8201520190565b0393610566601f1995868101835282610488565b519020610647565b6105ae60405160208101906a199c995b8b995e1a5d195960aa1b82523360601b602b82015284603f820152603f81526105a68161046c565b519020610755565b61061a5761060661061261011a946103f99460405193849160208301968790916042926d19195c1bdcda5d0b985b5bdd5b9d60921b83526bffffffffffffffffffffffff199060601b16600e83015260228201520190565b03908101835282610488565b5190206106bf565b50505061011a610507565b9081602091031261000e575161011a81610219565b506040513d6000823e3d90fd5b6000546040516321f8a72160e01b815260048101929092526020908290602490829060081c6001600160a01b03165afa9081156106b2575b60009161068a575090565b61011a915060203d81116106ab575b6106a38183610488565b810190610625565b503d610699565b6106ba61063a565b61067f565b60005460405163bd02d0f560e01b815260048101929092526020908290602490829060081c6001600160a01b03165afa908115610730575b600091610702575090565b906020823d8211610728575b8161071b60209383610488565b810103126100ac57505190565b3d915061070e565b61073861063a565b6106f7565b9081602091031261000e5751801515810361000e5790565b600054604051633d70e7e560e11b815260048101929092526020908290602490829060081c6001600160a01b03165afa9081156107c0575b600091610798575090565b61011a915060203d81116107b9575b6107b18183610488565b81019061073d565b503d6107a7565b6107c861063a565b61078d565b50634e487b7160e01b600052601260045260246000fd5b50634e487b7160e01b600052601160045260246000fd5b8115610805570490565b61080d6107cd565b0490565b811561081b570690565b6108236107cd565b0690565b9061083a602092828151948592016100c1565b0190565b9061087660216040518094600360fc1b602083015261086681518092602086860191016100c1565b8101036001810185520183610488565b565b66038d7ea4c68000670de0b6b3a7640000610894818404610a04565b920604906108a182610a04565b9160648110610918575b600a11610900575b602161011a9160405193816108d28693518092602080870191016100c1565b8201601760f91b60208201526108f182518093602087850191016100c1565b01036001810184520182610488565b90602161090f61011a9261083e565b929150506108b3565b91610924600a9161083e565b9290506108ab565b600190600019811461093c570190565b61083a6107e4565b604051906109518261046c565b602a82526040366020840137565b90610969826104aa565b6109766040519182610488565b8281528092610987601f19916104aa565b0190602036910137565b906001820180921161099f57565b6108766107e4565b50634e487b7160e01b600052603260045260246000fd5b6020908051156109cc570190565b61083a6109a7565b6021908051600110156109cc570190565b9060209180518210156109f757010190565b6109ff6109a7565b010190565b8015610aa0576000818181805b610a885750610a1f8161095f565b935b610a2b5750505090565b6000198101908111610a7b575b8091600a91610a6560308484068101809111610a6e575b60f81b6001600160f81b031916861a91876109e5565b53049081610a21565b610a766107e4565b610a4f565b610a836107e4565b610a38565b9150610a95600a9161092c565b910480849291610a11565b5061011a610507565b806000190460021181151516610ac0575b60011b90565b610ac86107e4565b610aba565b8015610adb575b6000190190565b610ae36107e4565b610ad4565b15610aef57565b606460405162461bcd60e51b815260206004820152602060248201527f537472696e67733a20686578206c656e67746820696e73756666696369656e746044820152fd5b90929192610b40816104aa565b91610b4e6040519384610488565b82948284528282011161000e5760206108769301906100c1565b60405190610b7582610443565b601082526f181899199a1a9b1b9c1cb0b131b232b360811b6020830152565b90610ba7610ba28351610aa9565b61095f565b610baf610b68565b600093845b8151811015610c685780610c3f610bda610c39610bee610be8610bda610c6397896109e5565b516001600160f81b03191690565b60f81c90565b610c09610bda610c038a5160ff8095166107fb565b8a6109e5565b610c1f610c1587610aa9565b918d1a918b6109e5565b53610c30610be8610bda878a6109e5565b88519116610811565b866109e5565b610c5d610c53610c4e84610aa9565b610991565b91891a91876109e5565b5361092c565b610bb4565b505060405161060f60f31b602082015292935061011a91839150610c90906022830190610827565b03601f198101835282610488565b60208183031261000e5780519067ffffffffffffffff821161000e57019080601f8301121561000e57815161011a92602001610b33565b90604051610d3f610d39610d2d6020938481019061056681610c90610d1e856019907f65787465726e616c2e636f6e74726163742e616464726573730000000000000081520190565b62454e5360e81b815260030190565b6001600160a01b031690565b93610e87565b604051630178b8bf60e01b8152600481018290526001600160a01b0394851694919291908281602481895afa908115610e7a575b600091610e5d575b5016918215610e4d57604051631ef3fca760e31b815260048101829052610ddd958390829060249082905afa928315610e40575b600093610e1e575b505060009192604051808097819463691f343160e01b8352600483019190602083019252565b03915afa928315610e11575b600093610df557509190565b61011a91933d8091833e610e098183610488565b810190610c9e565b610e1961063a565b610de9565b600093509081610e3992903d106107b9576107b18183610488565b9138610db7565b610e4861063a565b610daf565b505050905060009061011a6104d5565b610e749150833d85116106ab576106a38183610488565b38610d7b565b610e8261063a565b610d73565b6028805b610ed9575050602860002060405160208101917f91d1777781884d03a6757a803996e38de2a42967fb37eeaca72729271025a9e28352604082015260408152610ed38161046c565b51902090565b6f181899199a1a9b1b9c1cb0b131b232b360811b91600f9182821684901a600019820153600119019283928260041c161a825360081c91610e8b56fea264697066735822122097d8c6bbb2bed52dedebed58ddd994da6711f73a3e2b911efb57debc6181c44164736f6c63430008100033",
  "linkReferences": {},
  "deployedLinkReferences": {}
}