{
  "_format": "hh-sol-artifact-1",
  "contractName": "FrensMetaHelper",
  "sourceName": "contracts/FrensMetaHelper.sol",
  "abi": [
    {
      "inputs": [
        {
          "internalType": "contract IFrensStorage",
          "name": "_frensStorage",
          "type": "address"
        }
      ],
      "stateMutability": "nonpayable",
      "type": "constructor"
    },
    {
      "inputs": [
        {
          "internalType": "address",
          "name": "a",
          "type": "address"
        }
      ],
      "name": "getColor",
      "outputs": [
        {
          "internalType": "string",
          "name": "",
          "type": "string"
        }
      ],
      "stateMutability": "pure",
      "type": "function"
    },
    {
      "inputs": [
        {
          "internalType": "address",
          "name": "addr",
          "type": "address"
        }
      ],
      "name": "getEns",
      "outputs": [
        {
          "internalType": "bool",
          "name": "",
          "type": "bool"
        },
        {
          "internalType": "string",
          "name": "",
          "type": "string"
        }
      ],
      "stateMutability": "view",
      "type": "function"
    },
    {
      "inputs": [
        {
          "internalType": "uint256",
          "name": "amountInWei",
          "type": "uint256"
        }
      ],
      "name": "getEthDecimalString",
      "outputs": [
        {
          "internalType": "string",
          "name": "",
          "type": "string"
        }
      ],
      "stateMutability": "pure",
      "type": "function"
    },
    {
      "inputs": [
        {
          "internalType": "address",
          "name": "poolAddress",
          "type": "address"
        }
      ],
      "name": "getOperatorsForPool",
      "outputs": [
        {
          "internalType": "uint32[]",
          "name": "",
          "type": "uint32[]"
        },
        {
          "internalType": "string",
          "name": "",
          "type": "string"
        }
      ],
      "stateMutability": "view",
      "type": "function"
    },
    {
      "inputs": [],
      "name": "version",
      "outputs": [
        {
          "internalType": "uint8",
          "name": "",
          "type": "uint8"
        }
      ],
      "stateMutability": "view",
      "type": "function"
    }
  ],
  "bytecode": "0x60803461008357601f610edf38819003918201601f19168301916001600160401b038311848410176100885780849260209460405283398101031261008357516001600160a01b03811681036100835760008054610100600160a81b03191660089290921b610100600160a81b0316919091179055604051610e40908161009f8239f35b600080fd5b634e487b7160e01b600052604160045260246000fdfe60806040526004361015610013575b600080fd5b6000803560e01c90816354fd4d501461011a57816384b5e5961461007157508063a090f9b414610068578063de1c7f701461005f5763edd148a21461005757600080fd5b61000e6103b6565b5061000e610371565b5061000e6101f8565b34610117576020366003190112610117576101076101139160043561009581610138565b6040516100cf816100c16020820194856014916bffffffffffffffffffffffff199060601b1681520190565b03601f1981018352826104db565b5190209081901a60f81b6001600160f81b031916600182901a60f01b60ff60f01b161760029190911a60e81b60ff60e81b1617610d5c565b60405191829182610191565b0390f35b80fd5b3461011757806003193601126101175760ff90541660805260206080f35b6001600160a01b0381160361000e57565b60005b83811061015c5750506000910152565b818101518382015260200161014c565b9060209161018581518092818552858086019101610149565b601f01601f1916010190565b9060206101a292818152019061016c565b90565b9092916040820191604081528451809352606081019260208096019060005b8181106101de575050506101a2939481840391015261016c565b825163ffffffff16865294870194918701916001016101c4565b503461000e57602036600319011261000e5760043561021681610138565b61031f600061028160405193846102656020820192836028917376616c696461746f722e7075626c69632e6b657960601b82526bffffffffffffffffffffffff199060601b1660148201520190565b0394610279601f19968781018352826104db565b5190206108bb565b6103046102f86102f8610293846109b2565b966040516102f06020820192826102e46102cd866019907865787465726e616c2e636f6e74726163742e6164647265737360381b81520190565b6a535356526567697374727960a81b8152600b0190565b039081018352826104db565b51902061080e565b6001600160a01b031690565b604051808095819463053e834960e01b835260048301610191565b03915afa908115610364575b600091610343575b50610113604051928392836101a5565b61035e913d8091833e61035681836104db565b810190610755565b38610333565b61036c6107ec565b61032b565b503461000e57602036600319011261000e5761039760043561039281610138565b610afd565b906101136040519283921515835260406020840152604083019061016c565b503461000e57602036600319011261000e57610113600435655af3107a4000670de0b6b3a76400006103e981840461069b565b920604906103f68261069b565b916103e8811061048b575b60648110610477575b600a1161045f575b6021610107916040519381610431869351809260208087019101610149565b8201601760f91b60208201526104508251809360208785019101610149565b010360018101845201826104db565b90602161046e61010792610585565b92915050610412565b91610483600a91610585565b92905061040a565b9161049590610585565b91610401565b50634e487b7160e01b600052604160045260246000fd5b6040810190811067ffffffffffffffff8211176104ce57604052565b6104d661049b565b604052565b90601f8019910116810190811067ffffffffffffffff8211176104ce57604052565b50634e487b7160e01b600052603260045260246000fd5b50634e487b7160e01b600052601260045260246000fd5b50634e487b7160e01b600052601160045260246000fd5b811561054c570490565b610554610514565b0490565b8115610562570690565b61056a610514565b0690565b9061058160209282815194859201610149565b0190565b906105bd60216040518094600360fc1b60208301526105ad8151809260208686019101610149565b81010360018101855201836104db565b565b60209067ffffffffffffffff81116105dd575b601f01601f19160190565b6105e561049b565b6105d2565b604051906020820182811067ffffffffffffffff82111761060f575b60405260008252565b61061761049b565b610606565b600190600019811461062c570190565b61058161052b565b9061063e826105bf565b61064b60405191826104db565b828152809261065c601f19916105bf565b0190602036910137565b906001820180921161067457565b6105bd61052b565b90602091805182101561068e57010190565b6106966104fd565b010190565b8015610737576000818181805b61071f57506106b681610634565b935b6106c25750505090565b6000198101908111610712575b8091600a916106fc60308484068101809111610705575b60f81b6001600160f81b031916861a918761067c565b530490816106b8565b61070d61052b565b6106e6565b61071a61052b565b6106cf565b915061072c600a9161061c565b9104808492916106a8565b50604051610744816104b2565b60018152600360fc1b602082015290565b90602090818382031261000e57825167ffffffffffffffff9384821161000e570181601f8201121561000e5780519384116107df575b8360051b90604051946107a0858401876104db565b8552838086019282010192831161000e578301905b8282106107c3575050505090565b815163ffffffff8116810361000e5781529083019083016107b5565b6107e761049b565b61078b565b506040513d6000823e3d90fd5b9081602091031261000e57516101a281610138565b6000546040516321f8a72160e01b815260048101929092526020908290602490829060081c6001600160a01b03165afa908115610879575b600091610851575090565b6101a2915060203d8111610872575b61086a81836104db565b8101906107f9565b503d610860565b6108816107ec565b610846565b90929192610893816105bf565b916108a160405193846104db565b82948284528282011161000e5760206105bd930190610149565b60008054604051630180634360e71b8152600481019390935281908390602490829060081c6001600160a01b03165afa918215610955575b81926108fe57505090565b909291503d8084833e61091181836104db565b81019060208183031261094d5780519067ffffffffffffffff8211610951570181601f8201121561094d576101a2929350602081519101610886565b8380fd5b8480fd5b61095d6107ec565b6108f3565b806000190460021181151516610979575b60011b90565b61098161052b565b610973565b60405190610993826104b2565b601082526f181899199a1a9b1b9c1cb0b131b232b360811b6020830152565b906109c56109c08351610962565b610634565b6109cd610986565b600093845b8151811015610a865780610a5d6109f8610a57610a0c610a066109f8610a81978961067c565b516001600160f81b03191690565b60f81c90565b610a276109f8610a218a5160ff809516610542565b8a61067c565b610a3d610a3387610962565b918d1a918b61067c565b53610a4e610a066109f8878a61067c565b88519116610558565b8661067c565b610a7b610a71610a6c84610962565b610666565b91891a918761067c565b5361061c565b6109d2565b505060405161060f60f31b60208201529293506101a2918391506100c190602283019061056e565b9081602091031261000e5751801515810361000e5790565b60208183031261000e5780519067ffffffffffffffff821161000e57019080601f8301121561000e5781516101a292602001610886565b90604051610b57610b516102f8602093848101906102f0816100c1610b42856019907865787465726e616c2e636f6e74726163742e6164647265737360381b81520190565b62454e5360e81b815260030190565b93610caf565b604051630178b8bf60e01b8152600481018290526001600160a01b0394851694919291908281602481895afa908115610ca2575b600091610c85575b5016918215610c7557604051631ef3fca760e31b815260048101829052610bf5958390829060249082905afa928315610c68575b600093610c36575b505060009192604051808097819463691f343160e01b8352600483019190602083019252565b03915afa928315610c29575b600093610c0d57509190565b6101a291933d8091833e610c2181836104db565b810190610ac6565b610c316107ec565b610c01565b600093509081610c5a92903d10610c61575b610c5281836104db565b810190610aae565b9138610bcf565b503d610c48565b610c706107ec565b610bc7565b50505090506000906101a26105ea565b610c9c9150833d85116108725761086a81836104db565b38610b93565b610caa6107ec565b610b8b565b6028805b610d20575050602860002060405160208101917f91d1777781884d03a6757a803996e38de2a42967fb37eeaca72729271025a9e283526040820152604081526060810181811067ffffffffffffffff821117610d13575b60405251902090565b610d1b61049b565b610d0a565b6f181899199a1a9b1b9c1cb0b131b232b360811b91600f9182821684901a600019820153600119019283928260041c161a825360081c91610cb3565b90604051610d69816104b2565b600681526020368183013760005b60038110610d8457509150565b610deb90600f85821a8181169160109182841015610dfd575b6f181899199a1a9b1b9c1cb0b131b232b360811b9384901a610dca610dc4610a6c88610962565b8961067c565b5360041c1690811015610df0575b1a610a7b610de583610962565b8561067c565b610d77565b610df86104fd565b610dd8565b610e056104fd565b610d9d56fea2646970667358221220b0b33cd9cbcababe73aea37fa6e7cc3f82249f979ec47fd4e7f97e7f3856ab1664736f6c63430008100033",
  "linkReferences": {},
  "deployedLinkReferences": {}
}