{
  "_format": "hh-sol-artifact-1",
  "contractName": "FrensManager",
  "sourceName": "contracts/FrensManager.sol",
  "abi": [
    {
      "inputs": [
        {
          "internalType": "contract IFrensStorage",
          "name": "_frensStorage",
          "type": "address"
        }
      ],
      "stateMutability": "nonpayable",
      "type": "constructor"
    },
    {
      "inputs": [
        {
          "internalType": "address",
          "name": "_contractAddress",
          "type": "address"
        }
      ],
      "name": "allowExternalContract",
      "outputs": [],
      "stateMutability": "nonpayable",
      "type": "function"
    },
    {
      "inputs": [
        {
          "internalType": "address",
          "name": "_contractAddress",
          "type": "address"
        },
        {
          "internalType": "string",
          "name": "_contractName",
          "type": "string"
        }
      ],
      "name": "deleteContract",
      "outputs": [],
      "stateMutability": "nonpayable",
      "type": "function"
    },
    {
      "inputs": [
        {
          "internalType": "address",
          "name": "_contractAddress",
          "type": "address"
        }
      ],
      "name": "disAllowExternalContract",
      "outputs": [],
      "stateMutability": "nonpayable",
      "type": "function"
    },
    {
      "inputs": [
        {
          "internalType": "address",
          "name": "_addr",
          "type": "address"
        }
      ],
      "name": "requireNotExist",
      "outputs": [],
      "stateMutability": "view",
      "type": "function"
    },
    {
      "inputs": [
        {
          "internalType": "address",
          "name": "_contractAddress",
          "type": "address"
        },
        {
          "internalType": "string",
          "name": "_contractName",
          "type": "string"
        }
      ],
      "name": "setContract",
      "outputs": [],
      "stateMutability": "nonpayable",
      "type": "function"
    },
    {
      "inputs": [
        {
          "internalType": "address",
          "name": "_contractAddress",
          "type": "address"
        },
        {
          "internalType": "string",
          "name": "_contractName",
          "type": "string"
        }
      ],
      "name": "setExternalContract",
      "outputs": [],
      "stateMutability": "nonpayable",
      "type": "function"
    },
    {
      "inputs": [
        {
          "internalType": "address",
          "name": "recipient",
          "type": "address"
        },
        {
          "internalType": "uint256",
          "name": "percent",
          "type": "uint256"
        }
      ],
      "name": "setFees",
      "outputs": [],
      "stateMutability": "nonpayable",
      "type": "function"
    },
    {
      "inputs": [],
      "name": "version",
      "outputs": [
        {
          "internalType": "uint8",
          "name": "",
          "type": "uint8"
        }
      ],
      "stateMutability": "view",
      "type": "function"
    }
  ],
  "bytecode": "0x60803461008257601f610dde38819003918201601f19168301916001600160401b038311848410176100875780849260209460405283398101031261008257516001600160a01b038116810361008257600080546001600160a81b03191660089290921b610100600160a81b0316919091179055604051610d40908161009e8239f35b600080fd5b634e487b7160e01b600052604160045260246000fdfe6040608081526004908136101561001557600080fd5b600091823560e01c80631b1c2c7f1461078e5780635498c0631461076b57806354fd4d501461074b5780635e5c6ada146105d15780636b1c239e146105295780636b742b931461030f578063a3a8ceb0146101bd5763fe9a364f1461007957600080fd5b346101b95760203660031901126101b957610092610908565b835483516353adc3e960e11b81526001600160a01b0393929160209082908590829060081c88165afa9081156101af576100d89185918891610181575b50163314610a2b565b83516f185b1b1bddd9590b98dbdb9d1c9858dd60821b6020820190815260609290921b6001600160601b031916603082015261012181604481015b03601f198101835282610964565b5190209160005460081c1691823b1561017c576044600092838651958694859363abfdcced60e01b8552840152600160248401525af1801561017157610165575051f35b61016e9061091e565b51f35b82513d6000823e3d90fd5b600080fd5b6101a2915060203d81116101a8575b61019a8183610964565b810190610a0c565b386100cf565b503d610190565b85513d88823e3d90fd5b8280fd5b5091903461030b576101ce36610986565b835483516353adc3e960e11b81529192916020916001600160a01b039190839082908a90829060081c86165afa9081156103015790610217929188916102ea5750163314610a2b565b610274828551838101907f65787465726e616c2e636f6e74726163742e6164647265737300000000000000825261026c603982895161025c818c8b8686019101610a83565b8101036019810184520182610964565b519020610aa6565b8351908101917565787465726e616c2e636f6e74726163742e6e616d6560501b83526001600160601b03199060601b166036820152602a81526060810181811067ffffffffffffffff8211176102d5578461016e9596975052519020610b0e565b604187634e487b7160e01b6000525260246000fd5b6101a29150843d86116101a85761019a8183610964565b86513d89823e3d90fd5b5080fd5b50346101b95761031e36610986565b918460018060a01b0380825460081c168651956353adc3e960e11b875260209687818781865afa90811561051f5761036191859187916105085750163314610a2b565b61036a86610bd2565b87516103af6030828a8101946f636f6e74726163742e6164647265737360801b865261039f8c82519283918686019101610a83565b8101036010810184520182610964565b519020813b156104e6578391602483928a51948593849263070a51bb60e11b84528a8401525af19081156104fe5783916104ea575b50508551928584018461041f87836021916c636f6e74726163742e6e616d6560981b82526001600160601b03199060601b16600d8201520190565b0394610433601f1996878101835282610964565b51902091835460081c1691823b156104e65760248492838a519586948593633daecf3160e21b85528401525af180156104dc576104c4575b50506104bc6104b09161016e948651938491820195866023916e636f6e74726163742e65786973747360881b82526001600160601b03199060601b16600f8201520190565b03908101835282610964565b519020610b86565b6104cd9061091e565b6104d857843861046b565b8480fd5b86513d84823e3d90fd5b8380fd5b6104f39061091e565b61030b5781386103e4565b87513d85823e3d90fd5b6101a291508a3d8c116101a85761019a8183610964565b89513d87823e3d90fd5b50346101b95760203660031901126101b957610543610908565b835483516353adc3e960e11b81526001600160a01b039390916020918391829060081c87165afa9283156105c75761016e936105889287916101815750163314610a2b565b82516f185b1b1bddd9590b98dbdb9d1c9858dd60821b6020820190815260609290921b6001600160601b03191660308201526104bc8160448101610113565b84513d87823e3d90fd5b5082903461030b578260031936011261030b576105ec610908565b825484516353adc3e960e11b8152602435936001600160a01b0393909260209290839082908690829060081c89165afa9081156107415761063891869189916107245750163314610a2b565b60648510156106e95761066b908751838101906c1999594b9c9958da5c1a595b9d609a1b8252600d815261026c81610948565b8551908101906b70726f746f636f6c2e66656560a01b8252600c815261069081610948565b51902091845460081c16803b156104d8578492918360449288519687958694637152429d60e11b865285015260248401525af180156106df576106d257509051f35b6106db9061091e565b9051f35b83513d84823e3d90fd5b865162461bcd60e51b81528084018390526015602482015274191bdb89dd08191bc8195b481b1a5ad9481d1a185d605a1b6044820152606490fd5b61073b9150853d87116101a85761019a8183610964565b8a6100cf565b88513d89823e3d90fd5b50503461030b578160031936011261030b5760ff60209254169051908152f35b50503461030b57602036600319011261030b5761016e610789610908565b610bd2565b50346101b95761079d36610986565b845484516353adc3e960e11b815291929160209187916001600160a01b039160081c82169084818981855afa9283156108fe5785936107e59286916108e75750163314610a2b565b818851976024828a016f636f6e74726163742e6164647265737360801b9a8b82526108216030828d61039f81519d8e92019d8e85850190610a83565b519020918b5194859384926321f8a72160e01b84528301525afa9081156108dd5761016e97610113956108636108829489946108b898916108c0575b50610bd2565b61026c60308c51809388820195865261039f8d51809285850190610a83565b8651928391820194856021916c636f6e74726163742e6e616d6560981b82526001600160601b03199060601b16600d8201520190565b519020610b0e565b6108d79150873d89116101a85761019a8183610964565b3861085d565b88513d85823e3d90fd5b6101a29150853d87116101a85761019a8183610964565b89513d86823e3d90fd5b600435906001600160a01b038216820361017c57565b67ffffffffffffffff811161093257604052565b634e487b7160e01b600052604160045260246000fd5b6040810190811067ffffffffffffffff82111761093257604052565b90601f8019910116810190811067ffffffffffffffff82111761093257604052565b90604060031983011261017c576004356001600160a01b038116810361017c579167ffffffffffffffff60243581811161017c578260238201121561017c57806004013591821161093257604051926109e9601f8401601f191660200185610964565b8284526024838301011161017c5781600092602460209301838601378301015290565b9081602091031261017c57516001600160a01b038116810361017c5790565b15610a3257565b60405162461bcd60e51b815260206004820152602360248201527f4163636f756e74206973206e6f7420612074656d706f7261727920677561726460448201526234b0b760e91b6064820152608490fd5b60005b838110610a965750506000910152565b8181015183820152602001610a86565b600080546001600160a01b039391929060081c8416803b156104e65783929183604492604051978895869463ca446dd960e01b865260048601521660248401525af1908115610b025750610af75750565b610b009061091e565b565b604051903d90823e3d90fd5b91909160009060018060a01b03825460081c1690813b156101b95793829160649495836040519687809581946306e8995560e41b8352600483015260406024830152610b698151809281604486015260208686019101610a83565b601f01601f191681010301925af1908115610b025750610af75750565b60009060018060a01b03825460081c1690813b156101b957829160448392604051958693849263abfdcced60e01b845260048401528160248401525af1908115610b025750610af75750565b6040516e636f6e74726163742e65786973747360881b602080830191825260609390931b6001600160601b031916602f83015290610c138160438101610113565b51902060008054604051633d70e7e560e11b8152600481019390935283908390602490829060081c6001600160a01b03165afa918215610cfd578192610cc0575b5050610c5d5750565b6084906040519062461bcd60e51b82526004820152603660248201527f6d6574686f64206e6f7420616c6c6f77656420666f7220636f6e747261637473604482015275207468617420777269746520746f2073746f7261676560501b6064820152fd5b9091508281813d8311610cf6575b610cd88183610964565b8101031261030b5751908115158203610cf357503880610c54565b80fd5b503d610cce565b50604051903d90823e3d90fdfea26469706673582212205e4776432f04359ad24b09977c6d493055a774d46c84bee7d85fe87b3358a33064736f6c63430008100033",
  "linkReferences": {},
  "deployedLinkReferences": {}
}