{
  "_format": "hh-sol-artifact-1",
  "contractName": "FrensManager",
  "sourceName": "contracts/FrensManager.sol",
  "abi": [
    {
      "inputs": [
        {
          "internalType": "contract IFrensStorage",
          "name": "_frensStorage",
          "type": "address"
        }
      ],
      "stateMutability": "nonpayable",
      "type": "constructor"
    },
    {
      "inputs": [
        {
          "internalType": "address",
          "name": "_contractAddress",
          "type": "address"
        }
      ],
      "name": "allowExternalContract",
      "outputs": [],
      "stateMutability": "nonpayable",
      "type": "function"
    },
    {
      "inputs": [
        {
          "internalType": "address",
          "name": "_contractAddress",
          "type": "address"
        },
        {
          "internalType": "string",
          "name": "_contractName",
          "type": "string"
        }
      ],
      "name": "deleteContract",
      "outputs": [],
      "stateMutability": "nonpayable",
      "type": "function"
    },
    {
      "inputs": [
        {
          "internalType": "address",
          "name": "_contractAddress",
          "type": "address"
        }
      ],
      "name": "disAllowExternalContract",
      "outputs": [],
      "stateMutability": "nonpayable",
      "type": "function"
    },
    {
      "inputs": [
        {
          "internalType": "address",
          "name": "_addr",
          "type": "address"
        }
      ],
      "name": "requireNotExist",
      "outputs": [],
      "stateMutability": "view",
      "type": "function"
    },
    {
      "inputs": [
        {
          "internalType": "address",
          "name": "_contractAddress",
          "type": "address"
        },
        {
          "internalType": "string",
          "name": "_contractName",
          "type": "string"
        }
      ],
      "name": "setContract",
      "outputs": [],
      "stateMutability": "nonpayable",
      "type": "function"
    },
    {
      "inputs": [
        {
          "internalType": "address",
          "name": "_contractAddress",
          "type": "address"
        },
        {
          "internalType": "string",
          "name": "_contractName",
          "type": "string"
        }
      ],
      "name": "setExternalContract",
      "outputs": [],
      "stateMutability": "nonpayable",
      "type": "function"
    },
    {
      "inputs": [],
      "name": "version",
      "outputs": [
        {
          "internalType": "uint8",
          "name": "",
          "type": "uint8"
        }
      ],
      "stateMutability": "view",
      "type": "function"
    }
  ],
  "bytecode": "0x60803461008257601f610c2538819003918201601f19168301916001600160401b038311848410176100875780849260209460405283398101031261008257516001600160a01b038116810361008257600080546001600160a81b03191660089290921b610100600160a81b0316919091179055604051610b87908161009e8239f35b600080fd5b634e487b7160e01b600052604160045260246000fdfe6040608081526004908136101561001557600080fd5b600091823560e01c80631b1c2c7f146105fb5780635498c063146105d857806354fd4d50146105b85780636b1c239e146105105780636b742b9314610304578063a3a8ceb0146101b25763fe9a364f1461006e57600080fd5b346101ae5760203660031901126101ae5761008761076b565b835483516353adc3e960e11b81526001600160a01b0393929160209082908590829060081c88165afa9081156101a4576100cd9185918891610176575b50163314610872565b83516f185b1b1bddd9590b98dbdb9d1c9858dd60821b6020820190815260609290921b6001600160601b031916603082015261011681604481015b03601f1981018352826107ab565b5190209160005460081c1691823b15610171576044600092838651958694859363abfdcced60e01b8552840152600160248401525af180156101665761015a575051f35b61016390610781565b51f35b82513d6000823e3d90fd5b600080fd5b610197915060203d811161019d575b61018f81836107ab565b810190610853565b386100c4565b503d610185565b85513d88823e3d90fd5b8280fd5b50919034610300576101c3366107cd565b835483516353adc3e960e11b81529192916020916001600160a01b039190839082908a90829060081c86165afa9081156102f6579061020c929188916102df5750163314610872565b610269828551838101907f65787465726e616c2e636f6e74726163742e616464726573730000000000000082526102616039828951610251818c8b86860191016108ca565b81010360198101845201826107ab565b5190206108ed565b8351908101917565787465726e616c2e636f6e74726163742e6e616d6560501b83526001600160601b03199060601b166036820152602a81526060810181811067ffffffffffffffff8211176102ca57846101639596975052519020610955565b604187634e487b7160e01b6000525260246000fd5b6101979150843d861161019d5761018f81836107ab565b86513d89823e3d90fd5b5080fd5b50346101ae57610313366107cd565b9160018060a01b038581815460081c168651956353adc3e960e11b875260209687818781865afa9081156105065761035691869186916104ef5750163314610872565b61035f86610a19565b87516103a46030828a8101946f636f6e74726163742e6164647265737360801b86526103948c825192839186860191016108ca565b81010360108101845201826107ab565b51902090803b156101ae57602483928951948593849263070a51bb60e11b8452898401525af180156102f6576104dc575b5085908551928584018461041187836021916c636f6e74726163742e6e616d6560981b82526001600160601b03199060601b16600d8201520190565b0394610425601f19968781018352826107ab565b51902091835460081c1691823b156104d85760248492838a519586948593633daecf3160e21b85528401525af180156104ce576104b6575b50506104ae6104a291610163948651938491820195866023916e636f6e74726163742e65786973747360881b82526001600160601b03199060601b16600f8201520190565b039081018352826107ab565b5190206109cd565b6104bf90610781565b6104ca57843861045d565b8480fd5b86513d84823e3d90fd5b8380fd5b6104e890969196610781565b94386103d5565b61019791508a3d8c1161019d5761018f81836107ab565b89513d86823e3d90fd5b50346101ae5760203660031901126101ae5761052a61076b565b835483516353adc3e960e11b81526001600160a01b039390916020918391829060081c87165afa9283156105ae576101639361056f9287916101765750163314610872565b82516f185b1b1bddd9590b98dbdb9d1c9858dd60821b6020820190815260609290921b6001600160601b03191660308201526104ae8160448101610108565b84513d87823e3d90fd5b50503461030057816003193601126103005760ff60209254169051908152f35b505034610300576020366003190112610300576101636105f661076b565b610a19565b50346101ae5761060a366107cd565b845484516353adc3e960e11b815291929160209187916001600160a01b039160081c82169084818981855afa9283156105065785936106529286916107545750163314610872565b818851976024828a016f636f6e74726163742e6164647265737360801b9a8b825261068e6030828d61039481519d8e92019d8e858501906108ca565b519020918b5194859384926321f8a72160e01b84528301525afa90811561074a5761016397610108956106d06106ef948994610725989161072d575b50610a19565b61026160308c5180938882019586526103948d518092858501906108ca565b8651928391820194856021916c636f6e74726163742e6e616d6560981b82526001600160601b03199060601b16600d8201520190565b519020610955565b6107449150873d891161019d5761018f81836107ab565b386106ca565b88513d85823e3d90fd5b6101979150853d871161019d5761018f81836107ab565b600435906001600160a01b038216820361017157565b67ffffffffffffffff811161079557604052565b634e487b7160e01b600052604160045260246000fd5b90601f8019910116810190811067ffffffffffffffff82111761079557604052565b906040600319830112610171576004356001600160a01b0381168103610171579167ffffffffffffffff60243581811161017157826023820112156101715780600401359182116107955760405192610830601f8401601f1916602001856107ab565b828452602483830101116101715781600092602460209301838601378301015290565b9081602091031261017157516001600160a01b03811681036101715790565b1561087957565b60405162461bcd60e51b815260206004820152602360248201527f4163636f756e74206973206e6f7420612074656d706f7261727920677561726460448201526234b0b760e91b6064820152608490fd5b60005b8381106108dd5750506000910152565b81810151838201526020016108cd565b600080546001600160a01b039391929060081c8416803b156104d85783929183604492604051978895869463ca446dd960e01b865260048601521660248401525af1908115610949575061093e5750565b61094790610781565b565b604051903d90823e3d90fd5b91909160009060018060a01b03825460081c1690813b156101ae5793829160649495836040519687809581946306e8995560e41b83526004830152604060248301526109b081518092816044860152602086860191016108ca565b601f01601f191681010301925af1908115610949575061093e5750565b60009060018060a01b03825460081c1690813b156101ae57829160448392604051958693849263abfdcced60e01b845260048401528160248401525af1908115610949575061093e5750565b6040516e636f6e74726163742e65786973747360881b602080830191825260609390931b6001600160601b031916602f83015290610a5a8160438101610108565b51902060008054604051633d70e7e560e11b8152600481019390935283908390602490829060081c6001600160a01b03165afa918215610b44578192610b07575b5050610aa45750565b6084906040519062461bcd60e51b82526004820152603660248201527f6d6574686f64206e6f7420616c6c6f77656420666f7220636f6e747261637473604482015275207468617420777269746520746f2073746f7261676560501b6064820152fd5b9091508281813d8311610b3d575b610b1f81836107ab565b810103126103005751908115158203610b3a57503880610a9b565b80fd5b503d610b15565b50604051903d90823e3d90fdfea26469706673582212205c91ce0ec1025d76f02066ddfa98d2638622fb838feb0775012b34a538ce73a364736f6c63430008100033",
  "linkReferences": {},
  "deployedLinkReferences": {}
}