{
  "abi": [
    {
      "inputs": [
        {
          "internalType": "contract IFrensStorage",
          "name": "_frensStorage",
          "type": "address"
        }
      ],
      "stateMutability": "nonpayable",
      "type": "constructor"
    },
    {
      "anonymous": false,
      "inputs": [
        {
          "indexed": true,
          "internalType": "address",
          "name": "contractAddress",
          "type": "address"
        },
        {
          "indexed": false,
          "internalType": "address",
          "name": "creator",
          "type": "address"
        },
        {
          "indexed": false,
          "internalType": "address",
          "name": "owner",
          "type": "address"
        }
      ],
      "name": "Create",
      "type": "event"
    },
    {
      "inputs": [
        {
          "internalType": "address",
          "name": "owner_",
          "type": "address"
        },
        {
          "internalType": "bool",
          "name": "validatorLocked",
          "type": "bool"
        }
      ],
      "name": "create",
      "outputs": [
        {
          "internalType": "address",
          "name": "",
          "type": "address"
        }
      ],
      "stateMutability": "nonpayable",
      "type": "function"
    },
    {
      "inputs": [],
      "name": "version",
      "outputs": [
        {
          "internalType": "uint8",
          "name": "",
          "type": "uint8"
        }
      ],
      "stateMutability": "view",
      "type": "function"
    }
  ],
  "bytecode": {
    "object": "0x60803461008257601f6127c338819003918201601f19168301916001600160401b038311848410176100875780849260209460405283398101031261008257516001600160a01b038116810361008257600080546001600160a81b03191660089290921b610100600160a81b0316919091179055604051612725908161009e8239f35b600080fd5b634e487b7160e01b600052604160045260246000fdfe608060408181526004918236101561001657600080fd5b600092833560e01c918263319e90901461005d5750506354fd4d501461003b57600080fd5b3461005957816003193601126100595760ff60209254169051908152f35b5080fd5b8385913461021c578160031936011261021c576001600160a01b039380358581169291908390036102a4576024918235968715158098036102a05786549161240f928382019067ffffffffffffffff948383108684111761028457928092856060938e97966102e185398b835260209e8f84015260081c168b82015203019089f08015610296578751938a85016f636f6e74726163742e6164647265737360801b81526e233932b739a837b7b629b2ba3a32b960891b6030870152601f86528986019186831090831117610284578188818d8f9488908f8490528b519020915460081c16906321f8a72160e01b835260448b01525afa94851561027a57918b93918b979695938896610231575b50509080604492169a8b918b519687958694630319e90960e41b86528a8601528b850152165af19081156102275783916101ed575b50156101dd575050507fb224da6575b2c2ffd42454faedb236f7dbe5f92a0c96bb99c0273dbe98464c7e82849281519033825287820152a251908152f35b634e487b7160e01b825260019052fd5b90508781813d8311610220575b61020481836102a8565b8101031261021c5751801515810361021c578861019f565b8280fd5b503d6101fa565b86513d85823e3d90fd5b919697509294508391933d8311610273575b61024d81856102a8565b8101031261026f5751818116810361026f57916044828b938b9796919261016a565b8880fd5b503d610243565b89513d8c823e3d90fd5b634e487b7160e01b8b5260418752878bfd5b87513d8a823e3d90fd5b8680fd5b8480fd5b90601f8019910116810190811067ffffffffffffffff8211176102ca57604052565b634e487b7160e01b600052604160045260246000fdfe6080806040523462000174576060816200240f8038038091620000238285620001ab565b83398101031262000174576200003981620001cf565b60208201519182151583036200017457604001516001600160a01b03908181169081900362000174576200013b93620000723362000271565b6001549260018060a01b03199083828616176001556200011460405182620000de602083016f636f6e74726163742e6164647265737360801b938482526d4672656e73506f6f6c536861726560901b6030820152601e8152620000d58162000179565b519020620001e4565b1684600254161760025560405160208101918252694672656e73436c61696d60b01b6030820152601a8152620000d58162000179565b16906003541617600355600014620001585750506001805460ff60a01b1916905562000271565b6000805460ff60a01b191690556040516121569081620002b98239f35b6001600160a81b031990911617600160a01b1760015562000271565b600080fd5b604081019081106001600160401b038211176200019557604052565b634e487b7160e01b600052604160045260246000fd5b601f909101601f19168101906001600160401b038211908210176200019557604052565b51906001600160a01b03821682036200017457565b6001546040516321f8a72160e01b81526004810192909252602090829060249082906001600160a01b03165afa908115620002655760009162000225575090565b906020823d82116200025c575b816200024160209383620001ab565b810103126200025957506200025690620001cf565b90565b80fd5b3d915062000232565b6040513d6000823e3d90fd5b600080546001600160a01b039283166001600160a01b03198216811783559216907f8be0079c531659141344cd1fd0a4f28419497f9722a3daafe3b4186f6b6457e09080a356fe6080604081815260048036101561001e575b505050361561001c57005b005b600092833560e01c908163168a482214610f33575080631865c57d14610f155780631e83409a14610ee85780632991795414610e975780632b97105a14610dd3578063378de45b14610d645780633a4b66f114610d3f578063441a3e7014610af657806345b58fe414610acd5780634ad02ef114610a885780634b2b4e361461097e5780634e71d92d1461096457806354fd4d501461094157806355ec447f14610920578063678e300a14610900578063715018a6146108a25780638620891c146107165780638da5cb5b146106ea5780639278e714146106c8578063cfb5a5f8146106a1578063d1058e5914610688578063e4fc6b6d1461066f578063e6b1a3ae146104b8578063e920eec014610480578063f2fde38b146103b35763f9faa10403610011578260031936011261032e5760ff60015460a01c16818110156103a057600161016d911461107e565b3415610369578151916101c16801bc16d674ec8000006101ba6020956101b58782016101ab8361019d30846110c3565b03601f198101855284611153565b34925190206112b0565b611175565b1115611198565b838151928185808601956f636f6e74726163742e6164647265737360801b87526e233932b739a837b7b629b2ba3a32b960891b6030820152601f81526102068161111b565b519095206001600160a01b039590869061021f9061124a565b16602486518094819363068b0e0760e41b835234888401525af190811561035f5790610252918491610332575b5061120e565b61027e835186810190671d1bdad95b8b9a5960c21b8252600881526102768161111b565b5190206112b0565b9360025416803b1561032e5760248392855194859384926335313c2160e11b845233908401525af18015610324576102ea575b5091606091837fd91527a40417d48f76ba016aaa9157e2ddaca6cb5b660432901659cb075058fc9451923484523390840152820152a180f35b917fd91527a40417d48f76ba016aaa9157e2ddaca6cb5b660432901659cb075058fc93919461031a6060946110f1565b94919350916102b1565b82513d87823e3d90fd5b8280fd5b6103529150873d8911610358575b61034a8183611153565b8101906111f6565b3861024c565b503d610340565b84513d85823e3d90fd5b6020606492519162461bcd60e51b8352820152601260248201527136bab9ba103232b837b9b4ba1032ba3432b960711b6044820152fd5b634e487b7160e01b845260218252602484fd5b50903461032e57602036600319011261032e576001600160a01b038235818116939084900361047c578454918216926103ed33851461131d565b841561042a5750506001600160a01b031916821783557f8be0079c531659141344cd1fd0a4f28419497f9722a3daafe3b4186f6b6457e08380a380f35b906020608492519162461bcd60e51b8352820152602660248201527f4f776e61626c653a206e6577206f776e657220697320746865207a65726f206160448201526564647265737360d01b6064820152fd5b8480fd5b83346104b5576104b261049236611014565b956104ad60018060a09894989795971b038a5416331461131d565b6118c4565b80f35b80fd5b503461032e576020908160031936011261066b5780356001600160a01b0381811691829003610667576104ef81875416331461131d565b845163516b636d60e11b81526001848201528681602481865afa90811561065d578791610606575b5051156105cc57906024849261056f8751858101906f636f6e74726163742e6164647265737360801b82526e233932b739a837b7b629b2ba3a32b960891b6030820152601f81526105678161111b565b51902061124a565b16938787519586948593637358d1d760e11b85528401525af19182156105bf576104b2935084926105a2575b505061120e565b6105b89250803d106103585761034a8183611153565b388061059b565b50505051903d90823e3d90fd5b845162461bcd60e51b815280840185905260146024820152731a5b9d985b1a5908185c9d0818dbdb9d1c9858dd60621b6044820152606490fd5b90503d8088833e6106178183611153565b81019085818303126106555780519067ffffffffffffffff821161065957019080601f8301121561065557815161064f92870161140e565b38610517565b8780fd5b8880fd5b86513d89823e3d90fd5b8580fd5b8380fd5b83346104b557806003193601126104b5576104b2611b11565b83346104b557806003193601126104b5576104b2611d0a565b5091346104b55760203660031901126104b557506106c160209235611f7b565b9051908152f35b83346104b557806003193601126104b5576106e1611b11565b6104b233611cbd565b505034610712578160031936011261071257905490516001600160a01b039091168152602090f35b5080fd5b506020908160031936011261066b57803560018060a01b036024848260025416875192838092634f558e7960e01b825287898301525afa90811561065d578791610885575b501561084e5760ff60015460a01c168381101561083b5784929161078360016044931461107e565b6107bf6801bc16d674ec8000006101ba6107b88a5188810190610276816107aa30856110c3565b03601f198101835282611153565b3490611175565b6108038751858101906f636f6e74726163742e6164647265737360801b82526e233932b739a837b7b629b2ba3a32b960891b6030820152601f81526105678161111b565b1693878751958694859363010975af60e31b85528401523460248401525af19182156105bf576104b2935084926105a257505061120e565b634e487b7160e01b875260218452602487fd5b845162461bcd60e51b815280840185905260116024820152701a5908191bd95cc81b9bdd08195e1a5cdd607a1b6044820152606490fd5b61089c9150853d87116103585761034a8183611153565b3861075b565b83346104b557806003193601126104b557805481906001600160a01b038116906108cd33831461131d565b6001600160a01b03191682557f8be0079c531659141344cd1fd0a4f28419497f9722a3daafe3b4186f6b6457e08280a380f35b5091346104b55760203660031901126104b557506106c160209235611ff2565b83346104b557806003193601126104b557610939611b11565b6104b2611d0a565b50503461071257816003193601126107125760ff6020925460a01c169051908152f35b83346104b557806003193601126104b5576104b233611cbd565b50903461032e5761098e36611014565b926109a960018060a09998999594951b038b5416331461131d565b8751946109da60208701876109be3083611368565b03976109d2601f19998a8101835282611153565b5190206114e2565b15610a7057505050505090610a15610a24928551610a0d602082019282610a013086611395565b03908101835282611153565b519020611445565b602081519101209236916113d7565b6020815191012003610a3b5750505b6104b2611573565b906020606492519162461bcd60e51b8352820152600f60248201526e0e0eac496caf240dad2e6dac2e8c6d608b1b6044820152fd5b939750935093610a8397509490946118c4565b610a33565b50503461071257816003193601126107125780610ab6610ac992516020810190610a0d816107aa3085611395565b9051918291602083526020830190610f81565b0390f35b505034610712578160031936011261071257610ac990610aeb611e0e565b905191829182610fa6565b5091903461071257806003193601126107125782359260249384359060ff60015460a01c1683811015610d2d57600103610ceb5760025484516331a9108f60e11b8152808501839052602094916001600160a01b039190869082908b90829086165afa908115610ce1579082918991610cb4575b50163303610c825783610b8b875187810190610276816107aa893086611adc565b10610c4957916044859288809a95610bdf8a9b9a51878101906f636f6e74726163742e6164647265737360801b82526e233932b739a837b7b629b2ba3a32b960891b6030820152601f81526105678161111b565b16878b519788968795630441a3e760e41b87528601528401525af1918215610c3f57849384938493610c189285926105a257505061120e565b818115610c36575b3390f115610c2c575080f35b51903d90823e3d90fd5b506108fc610c20565b85513d86823e3d90fd5b855162461bcd60e51b81528083018690526014818a0152731b9bdd08195b9bdd59da0819195c1bdcda5d195960621b6044820152606490fd5b855162461bcd60e51b8152808301869052600d818a01526c3737ba103a34329037bbb732b960991b6044820152606490fd5b610cd49150873d8911610cda575b610ccc8183611153565b81019061122b565b38610b6a565b503d610cc2565b87513d8a823e3d90fd5b835162461bcd60e51b8152602081850152601b818801527f63616e6e6f74207769746864726177206f6e6365207374616b656400000000006044820152606490fd5b634e487b7160e01b8652602184528686fd5b83346104b557806003193601126104b557610a3360018060a01b03825416331461131d565b5091346104b55760203660031901126104b557506106c160209235610dbf610daf8451868101906a1c1bdbdb0b999bdc8b9a5960aa1b825284602b820152602b815261056781611137565b6001600160a01b03163014611f3a565b8251610276816107aa878201943086611adc565b503461032e578260031936011261032e57602083602460018060a01b03610dfe81845416331461131d565b610e428651858101906f636f6e74726163742e6164647265737360801b82526e233932b739a837b7b629b2ba3a32b960891b6030820152601f81526105678161111b565b16938286519586948593637358d1d760e11b85528401525af1908115610e8b576104b292508391610e73575061120e565b610352915060203d81116103585761034a8183611153565b505051903d90823e3d90fd5b83346104b557806003193601126104b557610ebc60018060a01b03825416331461131d565b60644711610edb575b6001805460ff60a01b1916600360a01b17905580f35b610ee3611b77565b610ec5565b83823461071257602036600319011261071257356001600160a01b0381168103610712576104b290611cbd565b505034610712578160031936011261071257610ac990610ab661201a565b8385346104b557806003193601126104b557506106c182602080940190610276816107aa30856110c3565b60005b838110610f715750506000910152565b8181015183820152602001610f61565b90602091610f9a81518092818552858086019101610f5e565b601f01601f1916010190565b6020908160408183019282815285518094520193019160005b828110610fcd575050505090565b835185529381019392810192600101610fbf565b9181601f8401121561100f5782359167ffffffffffffffff831161100f576020838186019501011161100f57565b600080fd5b90608060031983011261100f5767ffffffffffffffff60043581811161100f578361104191600401610fe1565b9390939260243583811161100f578261105c91600401610fe1565b9390939260443591821161100f5761107691600401610fe1565b909160643590565b1561108557565b60405162461bcd60e51b81526020600482015260166024820152756e6f7420616363657074696e67206465706f7369747360501b6044820152606490fd5b6022916d746f74616c2e6465706f7369747360901b82526001600160601b03199060601b16600e8201520190565b67ffffffffffffffff811161110557604052565b634e487b7160e01b600052604160045260246000fd5b6040810190811067ffffffffffffffff82111761110557604052565b6060810190811067ffffffffffffffff82111761110557604052565b90601f8019910116810190811067ffffffffffffffff82111761110557604052565b9190820180921161118257565b634e487b7160e01b600052601160045260246000fd5b1561119f57565b60405162461bcd60e51b815260206004820152602960248201527f746f74616c206465706f736974732063616e6e6f74206265206d6f72652074686044820152680c2dc406664408ae8d60bb1b6064820152608490fd5b9081602091031261100f5751801515810361100f5790565b1561121557565b634e487b7160e01b600052600160045260246000fd5b9081602091031261100f57516001600160a01b038116810361100f5790565b6001546040516321f8a72160e01b81526004810192909252602090829060249082906001600160a01b03165afa9081156112a457600091611289575090565b6112a1915060203d8111610cda57610ccc8183611153565b90565b6040513d6000823e3d90fd5b60015460405163bd02d0f560e01b81526004810192909252602090829060249082906001600160a01b03165afa9081156112a4576000916112ef575090565b906020823d8211611315575b8161130860209383611153565b810103126104b557505190565b3d91506112fb565b1561132457565b606460405162461bcd60e51b815260206004820152602060248201527f4f776e61626c653a2063616c6c6572206973206e6f7420746865206f776e65726044820152fd5b6021916c1d985b1a59185d1bdc8b9cd95d609a1b82526001600160601b03199060601b16600d8201520190565b601a91657075624b657960d01b82526001600160601b03199060601b1660068201520190565b67ffffffffffffffff811161110557601f01601f191660200190565b9291926113e3826113bb565b916113f16040519384611153565b82948184528183011161100f578281602093846000960137010152565b9092919261141b816113bb565b916114296040519384611153565b82948284528282011161100f576020611443930190610f5e565b565b600154604051630180634360e71b815260048101929092526000908190839060249082906001600160a01b03165afa9182156114d557819261148657505090565b909291503d8084833e6114998183611153565b81019060208183031261066b5780519067ffffffffffffffff821161047c570181601f8201121561066b576112a192935060208151910161140e565b50604051903d90823e3d90fd5b600154604051633d70e7e560e11b81526004810192909252602090829060249082906001600160a01b03165afa9081156112a457600091611521575090565b6112a1915060203d81116103585761034a8183611153565b1561154057565b60405162461bcd60e51b815260206004820152600b60248201526a77726f6e6720737461746560a81b6044820152606490fd5b6801bc16d674ec8000009081471061186d576001549160ff8360a01c1660048110156118575760016115a59114611539565b60409081516020906115d2828201826115be3083611368565b03926109d2601f1994858101835282611153565b1561181f576115ef908451610a0d8482019282610a013086611395565b83519561162c838801757769746864726177616c5f63726564656e7469616c7360501b81523060601b98896036820152602a8152610a0d81611137565b93611658865185810190687369676e617475726560b81b82528a6029820152601d8152610a0d8161111b565b978651858101917019195c1bdcda5d17d9185d1857dc9bdbdd607a1b835260318201526025815261168881611137565b5190208651635376ab1f60e11b81526004810191909152916001600160a01b039085846024818585165afa938415611814576000946117e5575b506117148851878101907f65787465726e616c2e636f6e74726163742e616464726573730000000000000082526e11195c1bdcda5d10dbdb9d1c9858dd608a1b60398201526028815261056781611137565b60ff60a01b19909116600160a11b176001551694853b1561100f5760009361177493611783611761938a519c8d97889687966304512a2360e31b8852608060048901526084880190610f81565b6003199384888303016024890152610f81565b91858303016044860152610f81565b9060648301520391865af19485156117da577f72b356fd889b9abd3530accd2c9f4aecbce67d70757181f9f862ac91464ce19294956117cb575b5082519182523390820152a1565b6117d4906110f1565b386117bd565b83513d6000823e3d90fd5b90938682813d831161180d575b6117fc8183611153565b810103126104b557505192386116c2565b503d6117f2565b88513d6000823e3d90fd5b835162461bcd60e51b81526004810183905260116024820152701d985b1a59185d1bdc881b9bdd081cd95d607a1b6044820152606490fd5b634e487b7160e01b600052602160045260246000fd5b60405162461bcd60e51b815260206004820152600e60248201526d0dcdee840cadcdeeaced040cae8d60931b6044820152606490fd5b908060209392818452848401376000828201840152601f01601f1916010190565b96959293949096600160f81b3001958630116111825760409889516020988982019081528982526118f48261111b565b6118ff368a896113d7565b8a81519101209151902003611a98576119438a51898101906f1d985b1a59185d1bdc8b9b1bd8dad95960821b82523060601b6030820152602481526109d281611137565b611a46575b60ff60015460a01c1695600487101561185757611a166119f3968c9660009561197460018e9c14611539565b611a0789516119ce8d82016f636f6e74726163742e6164647265737360801b81526e233932b739a837b7b629b2ba3a32b960891b6030840152601f83526119ba8361111b565b91519091206001600160a01b03919061124a565b1699519c8d9b8c9a8b996303a483bb60e61b8b52608060048c015260848b01916118a3565b9060031995868a84030160248b01526118a3565b928684030160448701526118a3565b90606483015203925af1918215611a3b576114439394506000926105a257505061120e565b84513d6000823e3d90fd5b60015460ff8160a01c16600481101561185757611a639015611539565b611a83611a7d8c518b8101906109d2816107aa3085611368565b1561120e565b60ff60a01b1916600160a01b17600155611948565b895162461bcd60e51b815260048101899052601e60248201527f7769746864726177616c2063726564656e7469616c206d69736d6174636800006044820152606490fd5b90916042926d19195c1bdcda5d0b985b5bdd5b9d60921b83526001600160601b03199060601b16600e83015260228201520190565b60ff60015460a01c16600481101561185757600114611b3257611443611b77565b60405162461bcd60e51b815260206004820152601c60248201527f757365207769746864726177207768656e206e6f74207374616b6564000000006044820152606490fd5b476064811115611c7957611bab60405160208101906b70726f746f636f6c2e66656560a01b8252600c81526102768161111b565b80158015611c0a575b50506020611bef611bc3611e0e565b6003546040516327527c7360e11b81529485936001600160a01b03909216928492839160048301610fa6565b03925af180156112a45761144391600091610e73575061120e565b611c3560405160208101906c1999594b9c9958da5c1a595b9d609a1b8252600d81526105678161111b565b9280830292830414171561118257600080809360648294049082908215611c6f575b6001600160a01b031690f1156112a457473880611bb4565b6108fc9150611c57565b606460405162461bcd60e51b815260206004820152602060248201527f6d696e696d756d206f66203130302077656920746f20646973747269627574656044820152fd5b6003546001600160a01b039081169190823b1561100f576024600092836040519586948593630f41a04d60e11b85521660048401525af180156112a457611d015750565b611443906110f1565b611d12611e0e565b60005b8151811015611e0a576020808260051b8401015160018060a01b0391826002541691816040938451938480926331a9108f60e11b82526004958683015260249687915afa918215611dff57600092611de2575b5050846003541694853b1561100f57836000928387519889948593630f41a04d60e11b855216878401525af180156117da57611db4575b50505050600019811461118257600101611d15565b67ffffffffffffffff8411611dcf5750505238808080611d9f565b604190634e487b7160e01b600052526000fd5b611df89250803d10610cda57610ccc8183611153565b3880611d68565b85513d6000823e3d90fd5b5050565b604051602090818101906a1a591ccb9a5b8b9c1bdbdb60aa1b82523060601b602b820152601f8152611e3f8161111b565b5190206001546040516378267eb560e11b81526004810192909252600092908390839060249082906001600160a01b03165afa928315611f2e578093611e86575b50505090565b909192503d8082853e611e998185611153565b83019082848303126104b557835167ffffffffffffffff9485821161032e570182601f82011215610712578051948511611f1a578460051b9160405195611ee286850188611153565b865284808701938301019384116104b557508301905b828210611f0b5750505050388080611e80565b81518152908301908301611ef8565b634e487b7160e01b82526041600452602482fd5b604051903d90823e3d90fd5b15611f4157565b60405162461bcd60e51b81526020600482015260126024820152711ddc9bdb99c81cdd185ada5b99c81c1bdbdb60721b6044820152606490fd5b6020611fab604051828101906a1c1bdbdb0b999bdc8b9a5960aa1b825284602b820152602b815261056781611137565b6001600160a01b0390611fc19082163014611f3a565b60035416916024604051809481936319f6b4bf60e31b835260048301525afa9081156112a4576000916112ef575090565b60ff60015460a01c166004811015611857576001036120115750600090565b6112a190611f7b565b60ff60015460a01c1660048110156118575780156120e657600281146120c3576001811461209457600314612072576040516120558161111b565b600d81526c7374617465206661696c75726560981b602082015290565b60405161207e8161111b565b6006815265195e1a5d195960d21b602082015290565b506040516120a18161111b565b6012815271616363657074696e67206465706f7369747360701b602082015290565b506040516120d08161111b565b60068152651cdd185ad95960d21b602082015290565b506040516120f38161111b565b601781527f6177616974696e672076616c696461746f7220696e666f00000000000000000060208201529056fea2646970667358221220fa00e421238929cae0563a2155db162848f05f15c6a0eda157495a8549d65e3964736f6c63430008110033a2646970667358221220183a801c2e655053211f663047ee6bf05bee7990665f244b9c4291c8f7dd0a3e64736f6c63430008110033",
    "linkReferences": {}
  },
  "methodIdentifiers": {
    "create(address,bool)": "319e9090",
    "version()": "54fd4d50"
  },
  "id": 12
}