{
  "abi": [
    {
      "inputs": [],
      "stateMutability": "nonpayable",
      "type": "constructor"
    },
    {
      "anonymous": false,
      "inputs": [
        {
          "indexed": true,
          "internalType": "address",
          "name": "owner",
          "type": "address"
        },
        {
          "indexed": true,
          "internalType": "address",
          "name": "approved",
          "type": "address"
        },
        {
          "indexed": true,
          "internalType": "uint256",
          "name": "tokenId",
          "type": "uint256"
        }
      ],
      "name": "Approval",
      "type": "event"
    },
    {
      "anonymous": false,
      "inputs": [
        {
          "indexed": true,
          "internalType": "address",
          "name": "owner",
          "type": "address"
        },
        {
          "indexed": true,
          "internalType": "address",
          "name": "operator",
          "type": "address"
        },
        {
          "indexed": false,
          "internalType": "bool",
          "name": "approved",
          "type": "bool"
        }
      ],
      "name": "ApprovalForAll",
      "type": "event"
    },
    {
      "anonymous": false,
      "inputs": [
        {
          "indexed": true,
          "internalType": "uint256",
          "name": "contractId",
          "type": "uint256"
        },
        {
          "indexed": true,
          "internalType": "address",
          "name": "contractAddress",
          "type": "address"
        },
        {
          "indexed": false,
          "internalType": "address",
          "name": "creator",
          "type": "address"
        },
        {
          "indexed": false,
          "internalType": "address",
          "name": "owner",
          "type": "address"
        },
        {
          "indexed": false,
          "internalType": "address",
          "name": "depositContractAddress",
          "type": "address"
        }
      ],
      "name": "Create",
      "type": "event"
    },
    {
      "anonymous": false,
      "inputs": [
        {
          "indexed": true,
          "internalType": "address",
          "name": "contractAddress",
          "type": "address"
        },
        {
          "indexed": false,
          "internalType": "address[]",
          "name": "owners",
          "type": "address[]"
        },
        {
          "indexed": true,
          "internalType": "uint256",
          "name": "signaturesRequired",
          "type": "uint256"
        }
      ],
      "name": "Owners",
      "type": "event"
    },
    {
      "anonymous": false,
      "inputs": [
        {
          "indexed": true,
          "internalType": "address",
          "name": "from",
          "type": "address"
        },
        {
          "indexed": true,
          "internalType": "address",
          "name": "to",
          "type": "address"
        },
        {
          "indexed": true,
          "internalType": "uint256",
          "name": "tokenId",
          "type": "uint256"
        }
      ],
      "name": "Transfer",
      "type": "event"
    },
    {
      "inputs": [
        {
          "internalType": "address",
          "name": "to",
          "type": "address"
        },
        {
          "internalType": "uint256",
          "name": "tokenId",
          "type": "uint256"
        }
      ],
      "name": "approve",
      "outputs": [],
      "stateMutability": "nonpayable",
      "type": "function"
    },
    {
      "inputs": [
        {
          "internalType": "address",
          "name": "owner",
          "type": "address"
        }
      ],
      "name": "balanceOf",
      "outputs": [
        {
          "internalType": "uint256",
          "name": "",
          "type": "uint256"
        }
      ],
      "stateMutability": "view",
      "type": "function"
    },
    {
      "inputs": [
        {
          "internalType": "address",
          "name": "depositContractAddress_",
          "type": "address"
        },
        {
          "internalType": "address",
          "name": "owner_",
          "type": "address"
        }
      ],
      "name": "create",
      "outputs": [
        {
          "internalType": "address",
          "name": "",
          "type": "address"
        },
        {
          "internalType": "uint256",
          "name": "",
          "type": "uint256"
        }
      ],
      "stateMutability": "nonpayable",
      "type": "function"
    },
    {
      "inputs": [
        {
          "internalType": "uint256",
          "name": "_id",
          "type": "uint256"
        }
      ],
      "name": "exists",
      "outputs": [
        {
          "internalType": "bool",
          "name": "",
          "type": "bool"
        }
      ],
      "stateMutability": "view",
      "type": "function"
    },
    {
      "inputs": [
        {
          "internalType": "uint256",
          "name": "tokenId",
          "type": "uint256"
        }
      ],
      "name": "getApproved",
      "outputs": [
        {
          "internalType": "address",
          "name": "",
          "type": "address"
        }
      ],
      "stateMutability": "view",
      "type": "function"
    },
    {
      "inputs": [
        {
          "internalType": "uint256",
          "name": "_id",
          "type": "uint256"
        }
      ],
      "name": "getPoolById",
      "outputs": [
        {
          "internalType": "address",
          "name": "",
          "type": "address"
        }
      ],
      "stateMutability": "view",
      "type": "function"
    },
    {
      "inputs": [
        {
          "internalType": "uint256",
          "name": "_index",
          "type": "uint256"
        }
      ],
      "name": "getStakingPool",
      "outputs": [
        {
          "internalType": "address",
          "name": "stakingPoolAddress",
          "type": "address"
        },
        {
          "internalType": "uint256",
          "name": "balance",
          "type": "uint256"
        },
        {
          "internalType": "address",
          "name": "owner",
          "type": "address"
        }
      ],
      "stateMutability": "view",
      "type": "function"
    },
    {
      "inputs": [],
      "name": "incrementTokenId",
      "outputs": [
        {
          "internalType": "uint256",
          "name": "",
          "type": "uint256"
        }
      ],
      "stateMutability": "nonpayable",
      "type": "function"
    },
    {
      "inputs": [
        {
          "internalType": "address",
          "name": "owner",
          "type": "address"
        },
        {
          "internalType": "address",
          "name": "operator",
          "type": "address"
        }
      ],
      "name": "isApprovedForAll",
      "outputs": [
        {
          "internalType": "bool",
          "name": "",
          "type": "bool"
        }
      ],
      "stateMutability": "view",
      "type": "function"
    },
    {
      "inputs": [
        {
          "internalType": "address",
          "name": "userAddress",
          "type": "address"
        },
        {
          "internalType": "uint256",
          "name": "id",
          "type": "uint256"
        },
        {
          "internalType": "address",
          "name": "_pool",
          "type": "address"
        }
      ],
      "name": "mint",
      "outputs": [],
      "stateMutability": "nonpayable",
      "type": "function"
    },
    {
      "inputs": [],
      "name": "name",
      "outputs": [
        {
          "internalType": "string",
          "name": "",
          "type": "string"
        }
      ],
      "stateMutability": "view",
      "type": "function"
    },
    {
      "inputs": [],
      "name": "numberOfStakingPools",
      "outputs": [
        {
          "internalType": "uint256",
          "name": "",
          "type": "uint256"
        }
      ],
      "stateMutability": "view",
      "type": "function"
    },
    {
      "inputs": [
        {
          "internalType": "uint256",
          "name": "tokenId",
          "type": "uint256"
        }
      ],
      "name": "ownerOf",
      "outputs": [
        {
          "internalType": "address",
          "name": "",
          "type": "address"
        }
      ],
      "stateMutability": "view",
      "type": "function"
    },
    {
      "inputs": [
        {
          "internalType": "uint256",
          "name": "id",
          "type": "uint256"
        }
      ],
      "name": "renderTokenById",
      "outputs": [
        {
          "internalType": "string",
          "name": "",
          "type": "string"
        }
      ],
      "stateMutability": "view",
      "type": "function"
    },
    {
      "inputs": [
        {
          "internalType": "address",
          "name": "from",
          "type": "address"
        },
        {
          "internalType": "address",
          "name": "to",
          "type": "address"
        },
        {
          "internalType": "uint256",
          "name": "tokenId",
          "type": "uint256"
        }
      ],
      "name": "safeTransferFrom",
      "outputs": [],
      "stateMutability": "nonpayable",
      "type": "function"
    },
    {
      "inputs": [
        {
          "internalType": "address",
          "name": "from",
          "type": "address"
        },
        {
          "internalType": "address",
          "name": "to",
          "type": "address"
        },
        {
          "internalType": "uint256",
          "name": "tokenId",
          "type": "uint256"
        },
        {
          "internalType": "bytes",
          "name": "_data",
          "type": "bytes"
        }
      ],
      "name": "safeTransferFrom",
      "outputs": [],
      "stateMutability": "nonpayable",
      "type": "function"
    },
    {
      "inputs": [
        {
          "internalType": "address",
          "name": "operator",
          "type": "address"
        },
        {
          "internalType": "bool",
          "name": "approved",
          "type": "bool"
        }
      ],
      "name": "setApprovalForAll",
      "outputs": [],
      "stateMutability": "nonpayable",
      "type": "function"
    },
    {
      "inputs": [
        {
          "internalType": "uint256",
          "name": "",
          "type": "uint256"
        }
      ],
      "name": "stakingPools",
      "outputs": [
        {
          "internalType": "contract StakingPool",
          "name": "",
          "type": "address"
        }
      ],
      "stateMutability": "view",
      "type": "function"
    },
    {
      "inputs": [
        {
          "internalType": "bytes4",
          "name": "interfaceId",
          "type": "bytes4"
        }
      ],
      "name": "supportsInterface",
      "outputs": [
        {
          "internalType": "bool",
          "name": "",
          "type": "bool"
        }
      ],
      "stateMutability": "view",
      "type": "function"
    },
    {
      "inputs": [],
      "name": "symbol",
      "outputs": [
        {
          "internalType": "string",
          "name": "",
          "type": "string"
        }
      ],
      "stateMutability": "view",
      "type": "function"
    },
    {
      "inputs": [
        {
          "internalType": "uint256",
          "name": "index",
          "type": "uint256"
        }
      ],
      "name": "tokenByIndex",
      "outputs": [
        {
          "internalType": "uint256",
          "name": "",
          "type": "uint256"
        }
      ],
      "stateMutability": "view",
      "type": "function"
    },
    {
      "inputs": [
        {
          "internalType": "address",
          "name": "owner",
          "type": "address"
        },
        {
          "internalType": "uint256",
          "name": "index",
          "type": "uint256"
        }
      ],
      "name": "tokenOfOwnerByIndex",
      "outputs": [
        {
          "internalType": "uint256",
          "name": "",
          "type": "uint256"
        }
      ],
      "stateMutability": "view",
      "type": "function"
    },
    {
      "inputs": [
        {
          "internalType": "uint256",
          "name": "id",
          "type": "uint256"
        }
      ],
      "name": "tokenURI",
      "outputs": [
        {
          "internalType": "string",
          "name": "",
          "type": "string"
        }
      ],
      "stateMutability": "view",
      "type": "function"
    },
    {
      "inputs": [],
      "name": "totalSupply",
      "outputs": [
        {
          "internalType": "uint256",
          "name": "",
          "type": "uint256"
        }
      ],
      "stateMutability": "view",
      "type": "function"
    },
    {
      "inputs": [
        {
          "internalType": "address",
          "name": "from",
          "type": "address"
        },
        {
          "internalType": "address",
          "name": "to",
          "type": "address"
        },
        {
          "internalType": "uint256",
          "name": "tokenId",
          "type": "uint256"
        }
      ],
      "name": "transferFrom",
      "outputs": [],
      "stateMutability": "nonpayable",
      "type": "function"
    }
  ],
  "bytecode": {
    "object": "0x60803462000317576001600160401b0390604090808201838111828210176200030157825260128152602092717374616b696e6720636f6e20616d69676f7360701b848301528251838101818110838211176200030157845260058152644652454e5360d81b85820152825190828211620003015760008054926001958685811c95168015620002f6575b89861014620002e2578190601f958681116200028f575b5089908683116001146200022b5784926200021f575b5050600019600383901b1c191690861b1781555b81519384116200020b5784548581811c9116801562000200575b88821014620001ec57838111620001a4575b50869284116001146200013e5783949596509262000132575b5050600019600383901b1c191690821b1790555b5161565590816200031d8239f35b01519050388062000110565b9190601f1984169685845280842093905b8882106200018c575050838596971062000172575b505050811b01905562000124565b015160001960f88460031b161c1916905538808062000164565b8087859682949686015181550195019301906200014f565b8582528782208480870160051c8201928a8810620001e2575b0160051c019086905b828110620001d6575050620000f7565b838155018690620001c6565b92508192620001bd565b634e487b7160e01b82526022600452602482fd5b90607f1690620000e5565b634e487b7160e01b81526041600452602490fd5b015190503880620000b7565b8480528a85208994509190601f198416865b8d8282106200027857505084116200025e575b505050811b018155620000cb565b015160001960f88460031b161c1916905538808062000250565b8385015186558c979095019493840193016200023d565b9091508380528984208680850160051c8201928c8610620002d8575b918a91869594930160051c01915b828110620002c9575050620000a1565b8681558594508a9101620002b9565b92508192620002ab565b634e487b7160e01b83526022600452602483fd5b94607f16946200008a565b634e487b7160e01b600052604160045260246000fd5b600080fdfe6080604052600436101562000014575b600080fd5b60003560e01c806301ffc9a7146200025157806306fdde031462000246578063081812fc146200023b578063095ea7b314620002305780630bc59b3814620002255780630d4d1513146200021a57806318160ddd146200020f57806323b872dd14620002045780632f745c5914620001f95780633e68680a14620001ee57806342842e0e14620001e35780634f3130fa14620001d85780634f558e7914620001cd5780634f6ccce714620001c25780635aad6cf014620001b75780636202d39614620001ac5780636352211e14620001a157806370a08231146200019657806395d89b41146200018b578063a22cb4651462000180578063a2b44d751462000175578063a2d6c6da146200016a578063b88d4fde146200015f578063c87b56dd14620001545763e985e9c5146200014a57600080fd5b6200000f6200166d565b506200000f62001184565b506200000f620010e3565b506200000f62000fff565b506200000f62000ef4565b506200000f62000dfb565b506200000f62000d2a565b506200000f62000cf4565b506200000f62000cd1565b506200000f62000cb0565b506200000f62000c51565b506200000f62000b8b565b506200000f62000b4d565b506200000f62000b07565b506200000f62000ab6565b506200000f6200093a565b506200000f62000851565b506200000f6200081e565b506200000f620007cc565b506200000f6200060f565b506200000f620005d8565b506200000f620004d5565b506200000f6200048e565b506200000f62000370565b506200000f6200026f565b6001600160e01b03198116036200000f57565b50346200000f5760203660031901126200000f57602060043562000293816200025c565b63ffffffff60e01b1663780e9d6360e01b8114908115620002ba575b506040519015158152f35b6380ac58cd60e01b811491508115620002f0575b8115620002de575b5038620002af565b6301ffc9a760e01b14905038620002d6565b635b5e139f60e01b81149150620002ce565b60009103126200000f57565b60005b838110620003225750506000910152565b818101518382015260200162000311565b906020916200034e815180928185528580860191016200030e565b601f01601f1916010190565b9060206200036d92818152019062000333565b90565b50346200000f576000806003193601126200048b57604051908080549060019180831c9280821692831562000480575b60209283861085146200046c578588526020880194908115620004485750600114620003eb575b620003e787620003da8189038262001091565b604051918291826200035a565b0390f35b6000805294509192917f290decd9548b62a8d60345a988386fc84ba6bc95484008f6362f93160ef3e5635b838610620004365750505091019050620003da82620003e73880620003c7565b80548587015294820194810162000416565b60ff191685525050505090151560051b019050620003da82620003e73880620003c7565b634e487b7160e01b82526022600452602482fd5b93607f1693620003a0565b80fd5b50346200000f5760203660031901126200000f576020620004b160043562003666565b6040516001600160a01b039091168152f35b6001600160a01b038116036200000f57565b50346200000f5760403660031901126200000f57600435620004f781620004c3565b60243562000505816200357a565b916001600160a01b03808416908216811462000589576200053d93620005379133149081156200053f575b50620035f3565b62003b5d565b005b6001600160a01b031660009081526005602052604090206200058291506200057b9033905b9060018060a01b0316600052602052604060002090565b5460ff1690565b3862000530565b60405162461bcd60e51b815260206004820152602160248201527f4552433732313a20617070726f76616c20746f2063757272656e74206f776e656044820152603960f91b6064820152608490fd5b50346200000f5760203660031901126200000f57600435600052600c602052602060018060a01b0360406000205416604051908152f35b50346200000f5760603660031901126200000f576004356200063181620004c3565b604435906024356200064383620004c3565b600092338452600b60205260ff60408520541615620007c857818452600c6020526040842080546001600160a01b0319166001600160a01b03909216919091179055604051620006938162001074565b8381526001600160a01b03831691821562000784576200078193816200077b94620006e5620006df620006db84600052600260205260018060a01b0360406000205416151590565b1590565b620038fe565b620006f1828462003d81565b6001600160a01b03831660009081526003602052604090206200071581546200394b565b9055620007508362000731846000526002602052604060002090565b80546001600160a01b0319166001600160a01b03909216919091179055565b877fddf252ad1be2c89b69c2b068fc378daa952ba7f163c4a11628f55a4df523b3ef8180a462003c70565b620037e2565b80f35b606460405162461bcd60e51b815260206004820152602060248201527f4552433732313a206d696e7420746f20746865207a65726f20616464726573736044820152fd5b8380fd5b50346200000f5760003660031901126200000f576020600854604051908152f35b60609060031901126200000f576004356200080881620004c3565b906024356200081781620004c3565b9060443590565b50346200000f576200053d6200083436620007ed565b916200084b62000845843362003809565b620036f9565b620039d1565b50346200000f5760403660031901126200000f576004356200087381620004c3565b60243590620008828162003501565b821015620008b7576001600160a01b031660009081526006602090815260408083209383529281529082902054915191825290f35b60405162461bcd60e51b815260206004820152602b60248201527f455243373231456e756d657261626c653a206f776e657220696e646578206f7560448201526a74206f6620626f756e647360a81b6064820152608490fd5b60409060031901126200000f576004356200092b81620004c3565b906024356200036d81620004c3565b50346200000f576200094c3662000910565b90600a5491604051806200099b6111d48083019083821067ffffffffffffffff83111762000aa6575b6200442c84396001600160a01b0380871682528516602082015230604082015260600190565b03906000f0801562000a96575b620009b381620016c9565b6001600160a01b03166000818152600b60205260409020805460ff1916600117905591823b156200000f577f18cc83251b20febb5b0c01f457a3e15b6e2eb22f48b01a0b9e5a24012cc2f69284918493604051636620a93560e01b8152600081600481838a5af1801562000a86575b62000a68575b50604080513381526001600160a01b0392831660208201529290911690820152606090a3604080516001600160a01b039290921682526020820192909252f35b8062000a7862000a7f9262001050565b8062000302565b3862000a28565b62000a90620016bc565b62000a22565b62000aa0620016bc565b620009a8565b62000ab062001039565b62000975565b50346200000f576200053d62000acc36620007ed565b90604051926020840184811067ffffffffffffffff82111762000af7575b6040526000845262003760565b62000b0162001039565b62000aea565b50346200000f576000806003193601126200048b57338152600b60205260ff604082205416156200048b57602062000b41600d5462001780565b80600d55604051908152f35b50346200000f5760203660031901126200000f576004356000908152600260209081526040909120546001600160a01b031615156040519015158152f35b50346200000f5760203660031901126200000f5760043560085481101562000be05760086000527ff3f7a9fe364faab93b216da50a3214154f22a0a2b415b23a84c8169e8b636ee30154604051908152602090f35b60405162461bcd60e51b815260206004820152602c60248201527f455243373231456e756d657261626c653a20676c6f62616c20696e646578206f60448201526b7574206f6620626f756e647360a01b6064820152608490fd5b50634e487b7160e01b600052603260045260246000fd5b50346200000f5760203660031901126200000f57600435600a548110156200000f57600a6000527fc65a7bb8d6351c1cf70c95a316cc6a92839c986682d98bc35f958f4883f9d2a801546040516001600160a01b039091168152602090f35b50346200000f5760003660031901126200000f576020600a54604051908152f35b50346200000f5760203660031901126200000f576020620004b16004356200357a565b50346200000f5760203660031901126200000f57602062000d2260043562000d1c81620004c3565b62003501565b604051908152f35b50346200000f576000806003193601126200048b576040519080600190815480831c9280821692831562000df0575b60209283861085146200046c57858852602088019490811562000448575060011462000d9257620003e787620003da8189038262001091565b600160005294509192917fb10e2d527612073b26eecdfd717e6a320cf44b4afac2b0732d9fcbe2b7fa0cf65b83861062000dde5750505091019050620003da82620003e73880620003c7565b80548587015294820194810162000dbe565b93607f169362000d59565b50346200000f5760403660031901126200000f5760043562000e1d81620004c3565b60243580151581036200000f576001600160a01b0382169133831462000eaf578162000e6c62000e7d9233600052600560205260406000209060018060a01b0316600052602052604060002090565b9060ff801983541691151516179055565b604051901515815233907f17307eab39ab6107e8899845ad3d59bd9653f200f220920489ca2b5937696c3190602090a3005b60405162461bcd60e51b815260206004820152601960248201527f4552433732313a20617070726f766520746f2063616c6c6572000000000000006044820152606490fd5b50346200000f5760203660031901126200000f5762000f4f600435600a5481101562000fef575b600a6000527fc65a7bb8d6351c1cf70c95a316cc6a92839c986682d98bc35f958f4883f9d2a801546001600160a01b031690565b803190620003e7604051638da5cb5b60e01b8152602081600481865afa90811562000fdf575b60009162000faa575b50604080516001600160a01b039485168152602081019590955292169183019190915281906060820190565b62000fd0915060203d811162000fd7575b62000fc7818362001091565b81019062001751565b3862000f7e565b503d62000fbb565b62000fe9620016bc565b62000f75565b62000ff962000c3a565b62000f1b565b50346200000f5760203660031901126200000f57620003e76200102460043562001948565b60405191829160208352602083019062000333565b50634e487b7160e01b600052604160045260246000fd5b67ffffffffffffffff81116200106557604052565b6200106f62001039565b604052565b6020810190811067ffffffffffffffff8211176200106557604052565b90601f8019910116810190811067ffffffffffffffff8211176200106557604052565b60209067ffffffffffffffff8111620010d3575b601f01601f19160190565b620010dd62001039565b620010c8565b50346200000f5760803660031901126200000f576004356200110581620004c3565b6024356200111381620004c3565b6064359167ffffffffffffffff83116200000f57366023840112156200000f578260040135916200114483620010b4565b9262001154604051948562001091565b80845236602482870101116200000f5760208160009260246200053d980183880137850101526044359162003760565b50346200000f576020806003193601126200000f57600435600081815260026020526040902054620011c1906001600160a01b031615156200179f565b6000818152600c602052604090206001600160a01b0390620011eb905b546001600160a01b031690565b166040918251916343fc559360e11b83528483806200121285600483019190602083019252565b0381845afa9283156200165d575b60009362001634575b50806200123a6200128b92620041e9565b92818462001371620013548a670de0b6b3a76400006200125a87620040cf565b8c51998a9162001284858401601190706672656e20706f6f6c207368617265202360781b81520190565b90620017e8565b039a620012a1601f199c8d81018c528b62001091565b04956200130f8c62001302620012b78a6200341b565b9180519086826333c7180560e11b9c8d82528180620012de8b600483019190602083019252565b03915afa91821562001624575b60009262001600575b50519d8e93878501620017fd565b038c81018c528b62001091565b620013246200131e82620018a6565b62004330565b976200133b6200133483620040cf565b986200341b565b968d518095819482938352600483019190602083019252565b03915afa908115620015f0575b600091620015bc575b506200341b565b9288519687968b88016200139590600990683d913730b6b2911d1160b91b81520190565b620013a091620017e8565b71111610113232b9b1b934b83a34b7b7111d1160711b8152601201620013c691620017e8565b7f222c202265787465726e616c5f75726c223a2268747470733a2f2f6672656e7381526a2e66756e2f746f6b656e2f60a81b6020820152602b016200140b91620017e8565b7f222c202261747472696275746573223a205b7b2274726169745f74797065223a81527f2022706f6f6c222c202276616c7565223a2022616464726573733a20000000006020820152603c016200146291620017e8565b7f227d2c7b2274726169745f74797065223a20226465706f736974222c2022766181526b0363ab2911d101122ba341d160a51b6020820152602c01620014a891620017e8565b7f227d2c7b2274726169745f74797065223a2022636c61696d61626c65222c202281526d03b30b63ab2911d10112bb2b49d160951b6020820152602e01620014f091620017e8565b6e113eae96101134b6b0b3b2911d101160891b8152600f017f646174613a696d6167652f7376672b786d6c3b6261736536342c0000000000008152601a016200153991620017e8565b61227d60f01b815260020103828101825262001556908262001091565b620015619062004330565b82517f646174613a6170706c69636174696f6e2f6a736f6e3b6261736536342c00000094810194855293849190601d016200159c91620017e8565b039081018352620015ae908362001091565b51620003e78192826200035a565b620015e191508b3d8d11620015e8575b620015d8818362001091565b810190620017d8565b386200136a565b503d620015cc565b620015fa620016bc565b62001361565b6200161c919250873d8911620015e857620015d8818362001091565b9038620012f4565b6200162e620016bc565b620012eb565b6200128b9193506200165590863d8811620015e857620015d8818362001091565b929062001229565b62001667620016bc565b62001220565b50346200000f57602060ff620016b0620016873662000910565b6001600160a01b0391821660009081526005865260408082209290931681526020919091522090565b54166040519015158152f35b506040513d6000823e3d90fd5b600a54600160401b81101562001741575b6001810180600a5581101562001731575b600a6000527fc65a7bb8d6351c1cf70c95a316cc6a92839c986682d98bc35f958f4883f9d2a80180546001600160a01b0319166001600160a01b03909216919091179055565b6200173b62000c3a565b620016eb565b6200174b62001039565b620016da565b908160209103126200000f57516200036d81620004c3565b50634e487b7160e01b600052601160045260246000fd5b600190600019811462001791570190565b6200179b62001769565b0190565b15620017a757565b60405162461bcd60e51b81526020600482015260096024820152681b9bdd08195e1a5cdd60ba1b6044820152606490fd5b908160209103126200000f575190565b906200179b602092828151948592016200030e565b9060669392917f74686973206672656e206861732061206465706f736974206f6620000000000081526200183c825180936020601b850191016200030e565b016c01022ba341034b7103837b7b61609d1b601b820152620018698251809360206028850191016200030e565b01907f207769746820636c61696d61626c652062616c616e6365206f66200000000000602883015260438201526257656960e81b60638201520190565b620018b19062001948565b6200036d606760405180937f3c7376672077696474683d2234303022206865696768743d223430302220786d60208301527f6c6e733d22687474703a2f2f7777772e77332e6f72672f323030302f737667226040830152601f60f91b6060830152620019288151809260206061860191016200030e565b8101651e17b9bb339f60d11b606182015203604781018452018262001091565b670de0b6b3a764000062001a0a620019ee6200198a6200197e6200197e6200197e620011de88600052600c602052604060002090565b6001600160a01b031690565b6040516343fc559360e11b81526004810186905290946020948592620019cd919084816024818c5afa908115620032e8575b600091620032c6575b50046200341b565b9560405180809581946333c7180560e11b8352600483019190602083019252565b03915afa908115620032b6575b6000916200329b57506200341b565b6040517f3c7376672076696577426f783d222d313030202d3130302031303030203130309281019283526218111f60e91b60208401529283926023017f3c7265637420783d222d3130302220793d222d313030222077696474683d223181527f30303022206865696768743d2231303030222069643d227376675f312220666960208201527f6c6c3d222366666622207374726f6b652d77696474683d223322207374726f6b60408201527f653d2223303030222f3e3c7061746820636c69702d72756c653d226576656e6f60608201527f64642220643d224d31343420393563302d342d322d372d342d31302d332d332d60808201527f362d342d31302d34732d3720312d31302034632d3220332d3420362d3420313060a08201527f613134203134203020302030203134203134203134203134203020302030203160c08201527f342d31347a222066696c6c3d2223653931653233222066696c6c2d72756c653d60e08201526a1132bb32b737b23211179f60a91b61010082015261010b017f3c7061746820636c69702d72756c653d226576656e6f64642220643d224d333481527f39203837632d332d332d362d342d31302d34732d3720312d31302034632d322060208201527f332d3420362d342031307332203720342031306131342031342030203020302060408201527f3230203063322d3320342d3620342d3130732d322d372d342d31307a2220666960608201527f6c6c3d2223303262326537222066696c6c2d72756c653d226576656e6f646422608082015261179f60f11b60a082015260a2017f3c7061746820636c69702d72756c653d226576656e6f64642220643d224d343981527f39203836632d332d322d362d342d31302d34732d3720322d31302034632d322060208201527f332d3420372d342031306131342031342030203020302031342031346334203060408201527f20372d312031302d3420322d3220342d3620342d313020302d332d322d372d3460608201527f2d31305a222066696c6c3d2223666162633136222066696c6c2d72756c653d2260808201526932bb32b737b23211179f60b11b60a082015260aa017f3c7061746820636c69702d72756c653d226576656e6f64642220643d224d363781527f38203930632d332d332d362d352d31302d35732d3720322d31302035632d332060208201527f322d3420362d342039203020342031203820342031302033203320362035203160408201527f30203573372d322031302d3563322d3220342d3620342d313020302d332d322d60608201527f372d342d395a222066696c6c3d2223303262326537222066696c6c2d72756c6560808201526b1e9132bb32b737b23211179f60a11b60a082015260ac017f3c7061746820636c69702d72756c653d226576656e6f64642220643d224d343381527f33203436762d38632d31352d352d33302d332d343420352d3420322d3820372d60208201527f31322031346c2d38203231632d3220332d3320382d332031346c2d322031346360408201527f2d3220362d332031352d332032392031372d322033302d342034312d3720313660608201527f2d342032382d31312033362d31392d3720302d313620322d323620356c2d323560808201527f2038632d3520302d392d322d31302d362d322d342d322d382d312d31326c392d60a08201527f313263342d3420392d352031352d346c322d3320332d322037203120362d312060c08201527f31312d3563352d3120392d332031322d36682d35326c2d342d32762d3563302d60e08201527f3420332d3720372d382031302d352032332d382034312d31315a6d38203238686101008201527f352d355a6d35203020322031633420312036203120382d31682d31305a2220666101208201527334b63616b93ab6329e9132bb32b737b23211179f60611b610140820152610154016000805160206200560083398151915281527f224d34343120373268356d302030203220316d3020306334203120362031203860208201527f2d316d302030682d31306d302030682d356d302030682d35326d3020302d342d60408201527f32762d3563302d3420332d3720372d382031302d352032332d382034312d313160608201527f6d302030762d386d302030632d31352d352d33302d332d343420352d3420322d60808201527f3820372d31322031346d3020302d382032316d302030632d3220332d3320382d60a08201527f332031346c2d32203134632d3220362d332031352d332032392031372d32203360c08201527f302d342034312d372031362d342032382d31312033362d31392d3720302d313660e08201527f20322d323620356d3020302d323520386d302030632d3520302d392d322d31306101008201527f2d362d322d342d322d382d312d31326c392d313263342d3420392d352031352d6101208201527f346c322d3320332d326d302030203720316d30203020362d312031312d3563356101408201527f2d3120392d332031322d36222066696c6c3d226e6f6e6522207374726f6b653d6101608201527f222330303022207374726f6b652d77696474683d2231322e3222207374726f6b6101808201527f652d6c696e656361703d22726f756e6422207374726f6b652d6c696e656a6f696101a08201526a371e913937bab73211179f60a91b6101c08201526101cb017f3c7061746820636c69702d72756c653d226576656e6f64642220643d226d363281527f3820343620322d3920332d3920332d3620342d3563322d3520332d3920312d3160208201527f336c2d31352033352d31342033362d35203134632d3320352d3720372d31332060408201527f342d31342d362d32362d31352d33332d32366c2d382d3136632d332d352d362d60608201527f372d382d352d3720382d31322031392d31342033356c2d34203431633220302060808201527f3420312034203476326c322d3163322d3320332d3820342d31346c332d31366360a08201527f302d3620312d313020332d313320312d3320342d3420382d347339203220313460c08201527f20356c313320313020313220313363362035203130203920313520313120352060e08201527f302037203020372d3220302d313120322d323320352d33366c31312d33355a2261010082015275103334b63616b93ab6329e9132bb32b737b23211179f60511b610120820152610136016000805160206200560083398151915281527f226d36333020333720332d3920332d366d30203020342d356d30203063322d3560208201527f20332d3920312d31336c2d31352033352d31342033366d3020302d352031346d60408201527f302030632d3320352d3720372d313320342d31342d362d32362d31352d33332d60608201527f32366d3020302d382d31366d302030632d332d352d362d372d382d352d37203860808201527f2d31322031392d31342033356d3020302d342034316d3020306332203020342060a08201527f31203420346d30203076326d30203020322d3163322d3320332d3820342d313460c08201527f6d30203020332d31366d30203063302d3620312d313020332d313320312d332060e08201527f342d3420382d347339203220313420356c31332031306d3020302031322031336101008201527f6d302030633620352031302039203135203131203520302037203020372d32206101208201527f302d313120322d323320352d333661363837203638372030203020312031332d6101408201527f3434222066696c6c3d226e6f6e6522207374726f6b653d2223303030222073746101608201527f726f6b652d77696474683d2231322e3222207374726f6b652d6c696e656361706101808201527f3d22726f756e6422207374726f6b652d6c696e656a6f696e3d22726f756e64226101a082015261179f60f11b6101c08201526101c2017f3c7061746820636c69702d72756c653d226576656e6f64642220643d224d373881527f36203338762d38682d386c2d3331203231632d323220392d33332031392d333160208201527f203239203220342035203720313020386c313620312031392d3220313720312060408201527f3320312032203476366c2d332034632d3620362d31332031302d32322031342d60608201527f3820342d313620362d323420382d3320332d3520372d3520313020342d34203160808201527f312d372031392d31316c32322d3863382d332031342d362031382d313020362d60a08201527f3520392d31312031302d31382d362d342d31362d362d32382d36682d3331632d60c08201527f322d312d332d332d332d366c312d376331362d31332033312d32312034362d3260e08201527f3620322d3120332d3320332d355a222066696c6c2d72756c653d226576656e6f61010082015264323211179f60d91b610120820152610125016000805160206200560083398151915281527f224d373836203330682d386d3020302d3331203231632d323220392d3333203160208201527f392d3331203239203220342035203720313020386d302030203136203120313960408201527f2d3220313720316d302030203320316d302030203220346d30203076366d302060608201527f302d3320356d302030632d3620352d313320392d32322031332d3820342d313660808201527f20362d323420382d3320332d3520372d3520313020342d342031312d3720313960a08201527f2d31316d3020302032322d386d30203063382d332031342d362031382d31302060c08201527f362d3520392d31312031302d31382d362d342d31362d362d32382d366d30203060e08201527f682d33316d302030632d322d312d332d332d332d366d30203020312d376d30206101008201527f306331362d31332033312d32312034362d323620322d3120332d3320332d356d6101208201527f302030762d38222066696c6c3d226e6f6e6522207374726f6b653d22233030306101408201527f22207374726f6b652d77696474683d2231322e3222207374726f6b652d6c696e6101608201527f656361703d22726f756e6422207374726f6b652d6c696e656a6f696e3d22726f610180820152653ab73211179f60d11b6101a08201526101a6017f3c7061746820636c69702d72756c653d226576656e6f64642220643d224d323481527f35203332682d31376c2d3138203130632d3720322d313420302d31382d356c2d60208201527f332031312d31332035382d3132203537632d3320372d3220313520322032376c60408201527f312d323320332d323263322d313620382d32392031372d333720342d3320313160608201527f2d342032312d326c32322038633139203720333520392034372035762d35632d60808201527f3820302d31362d322d32362d356c2d32362d392d332d352d322d3563322d352060a08201527f372d392031332d31336c31372d313063362d342031302d382031322d3131203260c08201527f2d3520312d31302d332d31362d332d342d372d362d31342d387a6d2d3320323460e08201527f2d31342031332d3138203133632d3620332d313020342d3133203320302d37206101008201527f302d313220322d313620322d3520352d392031302d31326c31382d3863392d346101208201527f2031352d342031382d3220322031203120342d3320397a222066696c6c2d72756101408201526d36329e9132bb32b737b23211179f60911b61016082015261016e016000805160206200560083398151915281527f226d3232382033322d3138203130632d3720322d313420302d31382d356d302060208201527f302d332031316d3020302d31332035382d3132203537632d3320372d3220313560408201527f20322032376d30203020312d32336d30203020332d323263322d313620382d3260608201527f392031372d333720342d332031312d342032312d326c3232203863313920372060808201527f3335203920343720356d302030762d356d302030632d3820302d31362d322d3260a08201527f362d356d3020302d32362d392d332d356d3020302d322d3563322d3520372d3960c08201527f2031332d31336d3020302031372d31306d30203063362d342031302d3820313260e08201527f2d313120322d3520312d31302d332d31362d332d342d372d362d31342d38682d6101008201527f3137222066696c6c3d226e6f6e6522207374726f6b653d2223303030222073746101208201527f726f6b652d77696474683d2231322e3222207374726f6b652d6c696e656361706101408201527f3d22726f756e6422207374726f6b652d6c696e656a6f696e3d22726f756e642261016082015261179f60f11b610180820152610182017f3c7061746820636c69702d72756c653d226576656e6f64642220643d226d363181527f2032312032302d356332203020342d3220352d3420322d3320312d342d322d3460208201527f2d392d332d31382d322d323820302d3820332d313620372d32312031332d352060408201527f332d3920392d31312031396c2d332031332d342031332d362038632d3220332d60608201527f3320372d322031302032203220332034203320386c312032342d332032332d3360808201527f2032352d3120323520372d343720392d343763302d3320322d3520362d38203360a08201527f2d3120362d332031302d336c31352d342031352d362031352d3620342d312d3460c08201527f392034632d3320302d352d312d382d332d322d332d332d352d332d3820342d3160e08201527f3420392d32342031362d33317a222066696c6c2d72756c653d226576656e6f64610100820152633211179f60e11b610120820152610124016000805160206200560083398151915281527f226d38372036372d353020346d3020302d372d33632d322d332d332d352d332d60208201527f3820342d313420392d32342031362d33316d3020302031382d386d302030203260408201527f302d356332203020342d3220352d3420322d3320312d342d322d342d392d332d60608201527f31382d322d323820302d3820332d313620372d32312031332d3520332d39203960808201527f2d31312031396d3020302d332031336d3020302d342031336d3020302d36203860a08201527f6d302030632d3220332d3320372d322031302032203220332034203320386c3160c08201527f2032342d332032336d3020302d332032356d3020302d312032356d302030203760e08201527f2d34376d30203020392d343763302d3320322d3520362d3820332d3120362d336101008201527f2031302d336c31352d346d3020302031352d366d3020302031352d366d3020306101208201527f20342d316d31322d312d31322031222066696c6c3d226e6f6e6522207374726f6101408201527f6b653d222330303022207374726f6b652d77696474683d2231322e32222073746101608201527f726f6b652d6c696e656361703d22726f756e6422207374726f6b652d6c696e656101808201526d3537b4b71e913937bab73211179f60911b6101a08201526101ae017f3c7465787420666f6e742d73697a653d223132302220666f6e742d776569676881527f743d22626f6c642220783d223132302220793d22333530222066696c6c3d226260208201527f6c756522207374726f6b653d222330303022207374726f6b652d77696474683d60408201527f22312220666f6e742d66616d696c793d2273616e732d7365726966223e0000006060820152607d01672232b837b9b4ba1d60c11b8152600801661e17ba32bc3a1f60c91b81526007017f3c7465787420666f6e742d73697a653d2238302220666f6e742d77656967687481527f3d22626f6c642220783d223235302220793d22343630222066696c6c3d22626c60208201527f756522207374726f6b653d222330303022207374726f6b652d77696474683d2260408201527f312220666f6e742d66616d696c793d2273616e732d7365726966223e000000006060820152607c01620030e091620017e8565b630408ae8d60e31b8152600401661e17ba32bc3a1f60c91b81526007017f3c7465787420666f6e742d73697a653d223132302220666f6e742d776569676881527f743d22626f6c642220783d2238302220793d22363230222066696c6c3d22677260208201527f65656e22207374726f6b653d222330303022207374726f6b652d77696474683d60408201527f22312220666f6e742d66616d696c793d2273616e732d7365726966223e0000006060820152607d016921b630b4b6b0b136329d60b11b8152600a01661e17ba32bc3a1f60c91b81526007017f3c7465787420666f6e742d73697a653d2238302220666f6e742d77656967687481527f3d22626f6c642220783d223235302220793d22373330222066696c6c3d22677260208201527f65656e22207374726f6b653d222330303022207374726f6b652d77696474683d60408201527f22312220666f6e742d66616d696c793d2273616e732d7365726966223e0000006060820152607d016200325b91620017e8565b632057656960e01b8152600401661e17ba32bc3a1f60c91b8152600701651e17b9bb339f60d11b815260060103601f19810182526200036d908262001091565b620015e19150833d8511620015e857620015d8818362001091565b620032c0620016bc565b620019fb565b620032e19150853d8711620015e857620015d8818362001091565b38620019c5565b620032f2620016bc565b620019bc565b60405190620033078262001074565b60008252565b604051906040820182811067ffffffffffffffff8211176200333d575b60405260018252600360fc1b6020830152565b6200334762001039565b6200332a565b604051906060820182811067ffffffffffffffff8211176200337c575b604052602a8252604082602036910137565b6200338662001039565b6200336a565b906200339882620010b4565b620033a7604051918262001091565b8281528092620033ba601f1991620010b4565b0190602036910137565b600019810191908211620033d457565b620033de62001769565b565b600281901b91906001600160fe1b03811603620033d457565b9060209180518210156200340c57010190565b6200341662000c3a565b010190565b8015620034f6578060008281935b620034df5750816200343b846200338c565b93905b620034495750505090565b6200345490620033c4565b9182620034a6600a9283810493808502908582041485151715620034cf575b8103908111620034bf575b60ff809116603001908111620034af575b60f81b6001600160f81b031916841a9186620033f9565b5391826200343e565b620034b962001769565b6200348f565b620034c962001769565b6200347e565b620034d962001769565b62003473565b92620034ed600a9162001780565b93048062003429565b506200036d6200330d565b6001600160a01b031680156200352257600052600360205260406000205490565b60405162461bcd60e51b815260206004820152602a60248201527f4552433732313a2062616c616e636520717565727920666f7220746865207a65604482015269726f206164647265737360b01b6064820152608490fd5b6000908152600260205260409020546001600160a01b031680156200359c5790565b60405162461bcd60e51b815260206004820152602960248201527f4552433732313a206f776e657220717565727920666f72206e6f6e657869737460448201526832b73a103a37b5b2b760b91b6064820152608490fd5b15620035fb57565b60405162461bcd60e51b815260206004820152603860248201527f4552433732313a20617070726f76652063616c6c6572206973206e6f74206f7760448201527f6e6572206e6f7220617070726f76656420666f7220616c6c00000000000000006064820152608490fd5b6000818152600260205260409020546001600160a01b0316156200369f576000908152600460205260409020546001600160a01b031690565b60405162461bcd60e51b815260206004820152602c60248201527f4552433732313a20617070726f76656420717565727920666f72206e6f6e657860448201526b34b9ba32b73a103a37b5b2b760a11b6064820152608490fd5b156200370157565b60405162461bcd60e51b815260206004820152603160248201527f4552433732313a207472616e736665722063616c6c6572206973206e6f74206f6044820152701ddb995c881b9bdc88185c1c1c9bdd9959607a1b6064820152608490fd5b91620033de93916200077b936200377c62000845843362003809565b62003789838383620039d1565b62003d42565b60809060208152603260208201527f4552433732313a207472616e7366657220746f206e6f6e20455243373231526560408201527131b2b4bb32b91034b6b83632b6b2b73a32b960711b60608201520190565b15620037ea57565b60405162461bcd60e51b81528062003805600482016200378f565b0390fd5b6000828152600260205260409020546001600160a01b031615620038a45762003832826200357a565b6001600160a01b03828116828216811494909190851562003889575b50505082156200385d57505090565b6001600160a01b0316600090815260056020526040902060ff925062003884919062000564565b541690565b62003898919293955062003666565b1614913880806200384e565b60405162461bcd60e51b815260206004820152602c60248201527f4552433732313a206f70657261746f7220717565727920666f72206e6f6e657860448201526b34b9ba32b73a103a37b5b2b760a11b6064820152608490fd5b156200390657565b60405162461bcd60e51b815260206004820152601c60248201527f4552433732313a20746f6b656e20616c7265616479206d696e746564000000006044820152606490fd5b9060018201809211620033d457565b9060028201809211620033d457565b9060208201809211620033d457565b156200398057565b60405162461bcd60e51b8152602060048201526024808201527f4552433732313a207472616e7366657220746f20746865207a65726f206164646044820152637265737360e01b6064820152608490fd5b90620039dd836200357a565b6001600160a01b03838116929091821683900362003ab05762003a4062003a899282169462003a0e86151562003978565b62003a1b87848362003db3565b62003a268762003b07565b6001600160a01b0316600090815260036020526040902090565b62003a4c8154620033c4565b90556001600160a01b038116600090815260036020526040902062003a7281546200394b565b905562000731856000526002602052604060002090565b7fddf252ad1be2c89b69c2b068fc378daa952ba7f163c4a11628f55a4df523b3ef600080a4565b60405162461bcd60e51b815260206004820152602960248201527f4552433732313a207472616e73666572206f6620746f6b656e2074686174206960448201526839903737ba1037bbb760b91b6064820152608490fd5b600081815260046020526040812080546001600160a01b03191690556001600160a01b0362003b36836200357a565b167f8c5be1e5ebec7d5bd14f71427d1e84f3dd0314c0f7b2291e5b200ac8c7c3b9258280a4565b600082815260046020526040902080546001600160a01b0319166001600160a01b0383161790556001600160a01b038062003b98846200357a565b169116907f8c5be1e5ebec7d5bd14f71427d1e84f3dd0314c0f7b2291e5b200ac8c7c3b925600080a4565b908160209103126200000f57516200036d816200025c565b6200036d939260809260018060a01b03168252600060208301526040820152816060820152019062000333565b6001600160a01b0391821681529116602082015260408101919091526080606082018190526200036d9291019062000333565b3d1562003c6b573d9062003c4f82620010b4565b9162003c5f604051938462001091565b82523d6000602084013e565b606090565b909190803b1562003d3a5762003ca5602091600093604051948580948193630a85bd0160e11b998a8452336004850162003bdb565b03926001600160a01b03165af16000918162003d03575b5062003cf55762003ccc62003c3b565b8051908162003cf05760405162461bcd60e51b81528062003805600482016200378f565b602001fd5b6001600160e01b0319161490565b62003d2a91925060203d811162003d32575b62003d21818362001091565b81019062003bc3565b903862003cbc565b503d62003d15565b505050600190565b92909190823b1562003d785762003ca5926020926000604051809681958294630a85bd0160e11b9a8b8552336004860162003c08565b50505050600190565b9062003d8d8162003f2a565b6001600160a01b03821662003da857620033de915062003fa6565b620033de9162003ef0565b9091906001600160a01b03808216918262003df4575062003dd48362003f2a565b83168062003dea575050620033de915062003fa6565b0362003da8575050565b818516830362003e06575b5062003dd4565b62003e8162003e158262003501565b600019810190811162003ee0575b62003e726000938785526007602052604085205483810362003e89575b508462003e57896000526007602052604060002090565b556001600160a01b0316600090815260066020526040902090565b90600052602052604060002090565b553862003dff565b87865260066020526040862084875260205262003ed860408720548062003ec78462003e728760018060a01b03166000526006602052604060002090565b556000526007602052604060002090565b553862003e40565b62003eea62001769565b62003e23565b60409062003efe8162003501565b9260009160018060a01b0316825260066020528282208483526020528083832055815260076020522055565b60085481600052600960205280604060002055600160401b81101562003f96575b600181018060085581101562003f86575b60086000527ff3f7a9fe364faab93b216da50a3214154f22a0a2b415b23a84c8169e8b636ee30155565b62003f9062000c3a565b62003f5c565b62003fa062001039565b62003f4b565b600880546000199290838101818111620040bf575b6200405b60009384928184526009602052846040852054911015620040af575b8684526200404a7ff3f7a9fe364faab93b216da50a3214154f22a0a2b415b23a84c8169e8b636ee29586810154908310156200409f575b88865280837ff3f7a9fe364faab93b216da50a3214154f22a0a2b415b23a84c8169e8b636ee301556000526009602052604060002090565b556000526009602052604060002090565b5582549384156200408b57840193808510156200407b575b838352015555565b6200408562000c3a565b62004073565b634e487b7160e01b83526031600452602483fd5b620040a962000c3a565b62004012565b620040b962000c3a565b62003fdb565b620040c962001769565b62003fbb565b8015620034f6576000818181805b620041635750620040ee816200338c565b935b620040fb5750505090565b600019810190811162004153575b8091600a91620041396030848406810180911162004143575b60f81b6001600160f81b031916861a9187620033f9565b53049081620040f0565b6200414d62001769565b62004122565b6200415d62001769565b62004109565b915062004172600a9162001780565b910480849291620040dd565b80156200418d575b6000190190565b6200419762001769565b62004186565b15620041a557565b606460405162461bcd60e51b815260206004820152602060248201527f537472696e67733a20686578206c656e67746820696e73756666696369656e746044820152fd5b620041f36200334d565b908151156200429e575b6030602083015381516001908110156200428e575b90607860218401536029915b8083116200423457506200036d9150156200419d565b9080600f62004276921660108110156200427e575b6f181899199a1a9b1b9c1cb0b131b232b360811b901a6200426b8587620033f9565b5360041c926200417e565b91906200421e565b6200428862000c3a565b62004249565b6200429862000c3a565b62004212565b620042a862000c3a565b620041fd565b604051906060820182811067ffffffffffffffff82111762004320575b604052604082527f6768696a6b6c6d6e6f707172737475767778797a303132333435363738392b2f6040837f4142434445464748494a4b4c4d4e4f505152535455565758595a61626364656660208201520152565b6200432a62001039565b620042cb565b805115620044205762004342620042ae565b620043636200435d6200435684516200395a565b6003900490565b620033e0565b9162004379620043738462003969565b6200338c565b92835280815182019060208501935b828210620043cd57505050600390510680600114620043bc57600214620043ad575090565b603d60f81b6000199091015290565b50613d3d60f01b6001199091015290565b9091936004906003809401938451600190603f9082828260121c16880101518553828282600c1c16880101518386015382828260061c168801015160028601531685010151908201530193919062004388565b506200036d620032f856fe6080346100fc57601f6111d438819003918201601f19168301916001600160401b03831184841017610101578084926060946040528339810103126100fc5761004781610117565b90610060604061005960208401610117565b9201610117565b916000549160018060a01b03199233848216176000556040519460018060a01b0380948193823391167f8be0079c531659141344cd1fd0a4f28419497f9722a3daafe3b4186f6b6457e0600080a360045490610100600160a81b039060081b169060018060a81b031916178060045560081c1685600654161760065516836007541617600755169060055416176005556110a8908161012c8239f35b600080fd5b634e487b7160e01b600052604160045260246000fd5b51906001600160a01b03821682036100fc5756fe608060409080825260049081361015610020575b505050361561001e57005b005b600090813560e01c9081632a4dbd2b14610be6575080632def662014610bbe578063441a3e7014610a125780634b2b4e361461074a5780636620a935146106e2578063678e300a146106c1578063715018a6146106625780637d8820971461064357806382a790cf146106095780638620891c1461045f57806387f8ab2614610436578063893d20e81461040d5780638da5cb5b146103e5578063cfb5a5f8146103bb578063e2664e4914610369578063e4fc6b6d14610350578063f2fde38b146102b05763f340fa010361001357602092836003193601126102ac576001600160a01b03928035848116908190036102955760ff82541660038110156102995761029557341561025e5785859685966007541684865180988193632798987d60e11b83525af1948515610254578695610224575b5060019085875252348386205561016e34600254610cda565b60025560035495680100000000000000008710156102115784610198886001899a01600355610c41565b819291549060031b600019811b9283911b1691191617905560075416803b1561020d5785928360649286519788958694630d4d151360e01b865285015260248401523060448401525af190811561020457506101f15750f35b6101fa90610c8e565b6102015780f35b80fd5b513d84823e3d90fd5b8580fd5b634e487b7160e01b865260418352602486fd5b9080955081813d831161024d575b61023c8183610cb8565b8101031261020d5751936001610155565b503d610232565b84513d88823e3d90fd5b5084606492519162461bcd60e51b8352820152601260248201527136bab9ba103232b837b9b4ba1032ba3432b960711b6044820152fd5b8380fd5b634e487b7160e01b855260218352602485fd5b5080fd5b5091903461034c57602036600319011261034c578035916001600160a01b038084169081850361020d576102e8908654163314610fbf565b156102fa57836102f78461102b565b80f35b906020608492519162461bcd60e51b8352820152602660248201527f4f776e61626c653a206e6577206f776e657220697320746865207a65726f206160448201526564647265737360d01b6064820152fd5b8280fd5b50346102015780600319360112610201576102f7610d29565b5082346102ac57816003193601126102ac5761038f60018060a01b038354163314610fbf565b81808080478181156103b2575b3390f1156103a8575080f35b51903d90823e3d90fd5b506108fc61039c565b5082903461020157602036600319011261020157506103de602092479035610eed565b9051908152f35b5082346102ac57816003193601126102ac57905490516001600160a01b039091168152602090f35b5082346102ac57816003193601126102ac5760055490516001600160a01b039091168152602090f35b5091903461034c57602036600319011261034c5760209282913581526001845220549051908152f35b5091906020806003193601126102955781359160018060a01b03858382600754166024885180948193634f558e7960e01b83528a898401525af19081156105975787916105cf575b50156105a157808360249260075416875193848092630178b36760e31b825289888301525afa918215610597578792610568575b50309116036105325760ff81541690600382101561051f575061029557600191845252812061050b348254610cda565b905561051934600254610cda565b60025580f35b634e487b7160e01b865260219052602485fd5b60649184519162461bcd60e51b835282015260126024820152711ddc9bdb99c81cdd185ada5b99c81c1bdbdb60721b6044820152fd5b610589919250843d8611610590575b6105818183610cb8565b810190610cfd565b90386104db565b503d610577565b86513d89823e3d90fd5b5060649184519162461bcd60e51b835282015260096024820152681b9bdd08195e1a5cdd60ba1b6044820152fd5b90508381813d8311610602575b6105e68183610cb8565b810103126105fe575180151581036105fe57386104a7565b8680fd5b503d6105dc565b5091903461034c57602036600319011261034c5735916003548310156102015750610635602092610c41565b90549060031b1c9051908152f35b5082346102ac57816003193601126102ac576020906002549051908152f35b5034610201578060031936011261020157600060018060a01b0361068a818454163314610fbf565b81546001600160a01b031981168355167f8be0079c531659141344cd1fd0a4f28419497f9722a3daafe3b4186f6b6457e08280a380f35b5082903461020157602036600319011261020157506103de60209235610f82565b5091903461034c578260031936011261034c5782546005546001600160a01b03908116939116831461071857836102f78461102b565b906020606492519162461bcd60e51b8352820152600c60248201526b616c726561647920646f6e6560a01b6044820152fd5b5082346102ac5760031960803682011261034c5767ffffffffffffffff8435818111610a0e5761077d9036908701610c0e565b6024908135848111610a0a576107969036908a01610c0e565b949095604435828111610a06576107b09036908c01610c0e565b8a546001600160a01b0399929392906107cc908b163314610fbf565b6801bc16d674ec800000948547106109d2578d5460ff19166001178e5530600160f81b81019081106109be578c519160208301918252602083528d830190838210818311176109aa57818f528c1161099757610832601f8d01601f191660200182610cb8565b8b81526060830190368d860111610993578f60608e8088863786010152519020915190200361095157896006541696873b1561094d57918d93918d9998979695938d519b8c9a8b998a986304512a2360e31b8a52890160809052608489019061089a9261100a565b918588840301908801526108ad9261100a565b918483030160448501526108c09261100a565b606435606483015203925af180156109405761090f575b507f1944debb24a9aafcf2708be964e412cdb73fc36d6ea24577fd8dcc05b93b4a4492935460081c168151908152336020820152a180f35b9261093a7f1944debb24a9aafcf2708be964e412cdb73fc36d6ea24577fd8dcc05b93b4a4494610c8e565b926108d7565b50505051903d90823e3d90fd5b8c80fd5b8a5162461bcd60e51b81526020818f0152601e818901527f7769746864726177616c2063726564656e7469616c206d69736d6174636800006044820152606490fd5b8f80fd5b8f8f60418c92634e487b7160e01b835252fd5b508f8f60418c92634e487b7160e01b835252fd5b5050634e487b7160e01b8c5260118d52868cfd5b508a5162461bcd60e51b81526020818f0152600e818901526d0dcdee840cadcdeeaced040cae8d60931b6044820152606490fd5b8980fd5b8780fd5b8480fd5b5091903461034c578160031936011261034c57803560249081359260ff8154166003811015610bac57600114610b6a5760075485516331a9108f60e11b8152828101849052602094916001600160a01b039190869082908590829086165afa908115610b60578991610b43575b50163303610b115782875260018452848688205410610ad8575050848093600182948394845252858220610ab4828254610d1c565b9055610ac281600254610d1c565b6002558181156103b2573390f1156103a8575080f35b855162461bcd60e51b8152918201849052601490820152731b9bdd08195b9bdd59da0819195c1bdcda5d195960621b6044820152606490fd5b855162461bcd60e51b8152918201849052600d908201526c3737ba103a34329037bbb732b960991b6044820152606490fd5b610b5a9150863d8811610590576105818183610cb8565b38610a7f565b88513d8b823e3d90fd5b606490601b84602088519362461bcd60e51b85528401528201527f63616e6e6f74207769746864726177206f6e6365207374616b656400000000006044820152fd5b634e487b7160e01b8752602182528387fd5b5090346102ac57816003193601126102ac57610bd8610d29565b805460ff1916600217905580f35b9050823461034c578260031936011261034c575460081c6001600160a01b0316815260209150f35b9181601f84011215610c3c5782359167ffffffffffffffff8311610c3c5760208381860195010111610c3c57565b600080fd5b600354811015610c785760036000527fc2575a0e9e593c00f959f8c92f12db2869c3395a3b0502d05e2516446f71f85b0190600090565b634e487b7160e01b600052603260045260246000fd5b67ffffffffffffffff8111610ca257604052565b634e487b7160e01b600052604160045260246000fd5b90601f8019910116810190811067ffffffffffffffff821117610ca257604052565b91908201809211610ce757565b634e487b7160e01b600052601160045260246000fd5b90816020910312610c3c57516001600160a01b0381168103610c3c5790565b91908203918211610ce757565b60049060ff82541660039283821015610ed8576001809203610e9457476064811115610e5057600094835b610d61575b505050509050565b8054861015610e4b57610d7386610c41565b905490821b1c60018060a01b03806007541691604092835180916331a9108f60e11b8252838983015281602460209485935afa918215610e405793600094938594938986959486958693610e1d575b5050610dce9192610eed565b9183918315610e13575b1690f115610e0957506000198614610df4579483019483610d54565b601183634e487b7160e01b6000525260246000fd5b513d6000823e3d90fd5b6108fc9250610dd8565b610dce93509081610e3992903d10610590576105818183610cb8565b9138610dc2565b85513d6000823e3d90fd5b610d59565b60405162461bcd60e51b8152602081840181905260248201527f6d696e696d756d206f66203130302077656920746f20646973747269627574656044820152606490fd5b60649060206040519162461bcd60e51b8352820152601c60248201527f757365207769746864726177207768656e206e6f74207374616b6564000000006044820152fd5b602190634e487b7160e01b6000525260246000fd5b9060009182526001602052604082205415610f7e57604082205490818102918183041490151715610f6a57600254908115610f565704906001821115610f51576000198201918211610f3d575090565b634e487b7160e01b81526011600452602490fd5b905090565b634e487b7160e01b83526012600452602483fd5b634e487b7160e01b82526011600452602482fd5b5090565b60ff600454166003811015610fa957610f9b5750600090565b610fa6904790610eed565b90565b634e487b7160e01b600052602160045260246000fd5b15610fc657565b606460405162461bcd60e51b815260206004820152602060248201527f4f776e61626c653a2063616c6c6572206973206e6f7420746865206f776e65726044820152fd5b908060209392818452848401376000828201840152601f01601f1916010190565b600080546001600160a01b039283166001600160a01b03198216811783559216907f8be0079c531659141344cd1fd0a4f28419497f9722a3daafe3b4186f6b6457e09080a356fea26469706673582212200f2cf2e5f88fdd37bb387617cb792f0d33aede3efa62d61400bd8cb2a07d74ec64736f6c634300081100333c70617468207374726f6b652d6d697465726c696d69743d22322e362220643da264697066735822122035c8890270e10125ab97ba09b0d4a045a5e109461d59d688d7bf4288a6803bd064736f6c63430008110033",
    "linkReferences": {}
  },
  "methodIdentifiers": {
    "approve(address,uint256)": "095ea7b3",
    "balanceOf(address)": "70a08231",
    "create(address,address)": "3e68680a",
    "exists(uint256)": "4f558e79",
    "getApproved(uint256)": "081812fc",
    "getPoolById(uint256)": "0bc59b38",
    "getStakingPool(uint256)": "a2b44d75",
    "incrementTokenId()": "4f3130fa",
    "isApprovedForAll(address,address)": "e985e9c5",
    "mint(address,uint256,address)": "0d4d1513",
    "name()": "06fdde03",
    "numberOfStakingPools()": "6202d396",
    "ownerOf(uint256)": "6352211e",
    "renderTokenById(uint256)": "a2d6c6da",
    "safeTransferFrom(address,address,uint256)": "42842e0e",
    "safeTransferFrom(address,address,uint256,bytes)": "b88d4fde",
    "setApprovalForAll(address,bool)": "a22cb465",
    "stakingPools(uint256)": "5aad6cf0",
    "supportsInterface(bytes4)": "01ffc9a7",
    "symbol()": "95d89b41",
    "tokenByIndex(uint256)": "4f6ccce7",
    "tokenOfOwnerByIndex(address,uint256)": "2f745c59",
    "tokenURI(uint256)": "c87b56dd",
    "totalSupply()": "18160ddd",
    "transferFrom(address,address,uint256)": "23b872dd"
  },
  "id": 1
}