{
  "abi": [
    {
      "inputs": [],
      "stateMutability": "nonpayable",
      "type": "constructor"
    },
    {
      "anonymous": false,
      "inputs": [
        {
          "indexed": true,
          "internalType": "uint256",
          "name": "contractId",
          "type": "uint256"
        },
        {
          "indexed": true,
          "internalType": "address",
          "name": "contractAddress",
          "type": "address"
        },
        {
          "indexed": false,
          "internalType": "address",
          "name": "creator",
          "type": "address"
        },
        {
          "indexed": false,
          "internalType": "address",
          "name": "owner",
          "type": "address"
        },
        {
          "indexed": false,
          "internalType": "address",
          "name": "depositContractAddress",
          "type": "address"
        }
      ],
      "name": "Create",
      "type": "event"
    },
    {
      "anonymous": false,
      "inputs": [
        {
          "indexed": true,
          "internalType": "address",
          "name": "contractAddress",
          "type": "address"
        },
        {
          "indexed": false,
          "internalType": "address[]",
          "name": "owners",
          "type": "address[]"
        },
        {
          "indexed": true,
          "internalType": "uint256",
          "name": "signaturesRequired",
          "type": "uint256"
        }
      ],
      "name": "Owners",
      "type": "event"
    },
    {
      "inputs": [
        {
          "internalType": "address",
          "name": "depositContractAddress_",
          "type": "address"
        },
        {
          "internalType": "address",
          "name": "owner_",
          "type": "address"
        }
      ],
      "name": "create",
      "outputs": [
        {
          "internalType": "address",
          "name": "",
          "type": "address"
        },
        {
          "internalType": "uint256",
          "name": "",
          "type": "uint256"
        }
      ],
      "stateMutability": "nonpayable",
      "type": "function"
    },
    {
      "inputs": [
        {
          "internalType": "uint256",
          "name": "_index",
          "type": "uint256"
        }
      ],
      "name": "getStakingPool",
      "outputs": [
        {
          "internalType": "address",
          "name": "stakingPoolAddress",
          "type": "address"
        },
        {
          "internalType": "uint256",
          "name": "balance",
          "type": "uint256"
        },
        {
          "internalType": "address",
          "name": "owner",
          "type": "address"
        }
      ],
      "stateMutability": "view",
      "type": "function"
    },
    {
      "inputs": [],
      "name": "numberOfStakingPools",
      "outputs": [
        {
          "internalType": "uint256",
          "name": "",
          "type": "uint256"
        }
      ],
      "stateMutability": "view",
      "type": "function"
    },
    {
      "inputs": [
        {
          "internalType": "uint256",
          "name": "",
          "type": "uint256"
        }
      ],
      "name": "stakingPools",
      "outputs": [
        {
          "internalType": "contract StakingPool",
          "name": "",
          "type": "address"
        }
      ],
      "stateMutability": "view",
      "type": "function"
    }
  ],
  "bytecode": {
    "object": "0x6080806040523461001657614c55908161001c8239f35b600080fdfe608060408181526004908136101561001657600080fd5b600092833560e01c9081633e68680a146101a5575080635aad6cf0146101625780636202d396146101415763a2b44d751461005057600080fd5b3461013d57602091826003193601126101395761006d8135610370565b90548351638da5cb5b60e01b815260039290921b1c6001600160a01b039081169490929185319190818185818a5afa93841561012f5788946100bf575b50506060965084519586528501521690820152f35b9091809450903d8511610127575b601f8201601f191683019067ffffffffffffffff8211848310176101145750849183918852810103126101105751838116810361011057606096509138806100aa565b8680fd5b634e487b7160e01b8a5260419052602489fd5b3d91506100cd565b86513d8a823e3d90fd5b8380fd5b8280fd5b83823461015e578160031936011261015e57602091549051908152f35b5080fd5b50903461013d57602036600319011261013d57359180548310156101a2575061018c602092610370565b905491519160018060a01b039160031b1c168152f35b80fd5b90508284346101a257836003193601126101a2576001600160a01b03928235848116919082900361013d57602435928584168094036101a2578054946148659283810167ffffffffffffffff948282108683111761035d578a9183916103bb833987815288602082015203019083f08015610353578254680100000000000000008110156103405761023d8160018b93018655610370565b9990921698899183549160031b90811b9283911b169119161790558682526001602052878220600160ff19825416179055863b1561015e578751636620a93560e01b81529282848381838c5af18015610336579187959391899795936102e3575b505050507f18cc83251b20febb5b0c01f457a3e15b6e2eb22f48b01a0b9e5a24012cc2f69291606091885191338352602083015288820152a382519182526020820152f35b919395509180949650116103235750508552839183918160607f18cc83251b20febb5b0c01f457a3e15b6e2eb22f48b01a0b9e5a24012cc2f6928a61029e565b634e487b7160e01b825260419052602490fd5b89513d85823e3d90fd5b634e487b7160e01b845260418352602484fd5b88513d84823e3d90fd5b634e487b7160e01b855260418452602485fd5b9060009182548110156103a6578280527f290decd9548b62a8d60345a988386fc84ba6bc95484008f6362f93160ef3e563019190565b634e487b7160e01b83526032600452602483fdfe608034620003f0576001600160401b0390601f1990601f90620048653881900383810185168301919086831184841017620003da578084926040948552833981010312620003f057620000528162000415565b9362000062602080930162000415565b926200006d620003f5565b9260128452717374616b696e6720636f6e20616d69676f7360701b8185015262000096620003f5565b9060058252644652454e5360d81b81830152845196848811620003da576000978854966001978881811c91168015620003cf575b85821014620003bb5790818784931162000368575b50849087831160011462000307578b92620002fb575b5050600019600383901b1c191690871b1788555b8251948511620002e75785548681811c91168015620002dc575b83821014620002c8579081858796959493116200026f575b50819385116001146200020a5750508692620001fe575b5050600019600383901b1c191690821b1790555b600a80546001600160a01b0319808216339081179093556040519590946001600160a01b03949385939091908416907f8be0079c531659141344cd1fd0a4f28419497f9722a3daafe3b4186f6b6457e09080a3600e5490610100600160a81b039060081b169060018060a81b0319161780600e5560081c1683600f541617600f551690601054161760105561443a90816200042b8239f35b01519050388062000152565b869593929193168589528389209389905b8282106200025557505084116200023b575b505050811b01905562000166565b015160001960f88460031b161c191690553880806200022d565b84840151865588979095019493840193908101906200021b565b9091929394508689528289208580880160051c820192858910620002be575b9188978a9297969594930160051c01915b828110620002af5750506200013b565b8b81558897508991016200029f565b925081926200028e565b634e487b7160e01b89526022600452602489fd5b90607f169062000123565b634e487b7160e01b88526041600452602488fd5b015190503880620000f5565b90848a9416918c8052868d20928d5b8882821062000351575050841162000337575b505050811b01885562000109565b015160001960f88460031b161c1916905538808062000329565b8385015186558d9790950194938401930162000316565b9091508a8052848b208780850160051c820192878610620003b1575b918b91869594930160051c01915b828110620003a2575050620000df565b8d81558594508b910162000392565b9250819262000384565b634e487b7160e01b8b52602260045260248bfd5b90607f1690620000ca565b634e487b7160e01b600052604160045260246000fd5b600080fd5b60408051919082016001600160401b03811183821017620003da57604052565b51906001600160a01b0382168203620003f05756fe60806040526004361015610018575b361561001657005b005b60003560e01c806301ffc9a7146102c057806306fdde03146102b7578063081812fc146102ae578063095ea7b3146102a557806318160ddd1461029c57806323b872dd146102935780632a4dbd2b1461028a5780632def6620146102815780632f745c591461027857806342842e0e1461026f578063441a3e70146102665780634b2b4e361461025d5780634f6ccce7146102545780636352211e1461024b5780636620a93514610242578063678e300a1461023957806370a0823114610230578063715018a6146102275780637d8820971461021e5780638620891c1461021557806387f8ab261461020c578063893d20e8146102035780638da5cb5b146101fa57806395d89b41146101f1578063a22cb465146101e8578063a2d6c6da146101df578063b88d4fde146101d6578063c87b56dd146101cd578063cfb5a5f8146101c4578063e2664e49146101bb578063e4fc6b6d146101b2578063e985e9c5146101a9578063f2fde38b146101a05763f340fa010361000e5761019b6115f0565b61000e565b5061019b611559565b5061019b6114fb565b5061019b6114e1565b5061019b61148d565b5061019b61146d565b5061019b6110c2565b5061019b611061565b5061019b610f55565b5061019b610e68565b5061019b610da6565b5061019b610d7c565b5061019b610d52565b5061019b610d25565b5061019b610c8a565b5061019b610c6b565b5061019b610c09565b5061019b610be5565b5061019b610bbe565b5061019b610b56565b5061019b610b37565b5061019b610a8b565b5061019b6108f7565b5061019b6107f7565b5061019b6107af565b5061019b6106fb565b5061019b6106d2565b5061019b6106a4565b5061019b61067a565b5061019b610626565b5061019b610538565b5061019b6104db565b5061019b6103d0565b5061019b6102e0565b6001600160e01b03198116036102db57565b600080fd5b50346102db5760203660031901126102db576020600435610300816102c9565b63ffffffff60e01b1663780e9d6360e01b8114908115610326575b506040519015158152f35b6380ac58cd60e01b811491508115610358575b8115610347575b503861031b565b6301ffc9a760e01b14905038610340565b635b5e139f60e01b81149150610339565b60009103126102db57565b60005b8381106103875750506000910152565b8181015183820152602001610377565b906020916103b081518092818552858086019101610374565b601f01601f1916010190565b9060206103cd928181520190610397565b90565b50346102db576000806003193601126104d857604051908080549060019180831c928082169283156104ce575b60209283861085146104ba5785885260208801949081156104995750600114610441575b61043d8761043181890382610fdd565b604051918291826103bc565b0390f35b6000805294509192917f290decd9548b62a8d60345a988386fc84ba6bc95484008f6362f93160ef3e5635b83861061048857505050910190506104318261043d3880610421565b80548587015294820194810161046c565b60ff191685525050505090151560051b0190506104318261043d3880610421565b634e487b7160e01b82526022600452602482fd5b93607f16936103fd565b80fd5b50346102db5760203660031901126102db5760206104fa60043561379a565b6040516001600160a01b039091168152f35b600435906001600160a01b03821682036102db57565b602435906001600160a01b03821682036102db57565b50346102db5760403660031901126102db5761055261050c565b60243561055e816136b0565b916001600160a01b0380841690821681146105d7576100169361058b913314908115610590575b50613728565b613d2d565b6001600160a01b031660009081526005602052604090206105d191506105ca9033905b9060018060a01b0316600052602052604060002090565b5460ff1690565b38610585565b60405162461bcd60e51b815260206004820152602160248201527f4552433732313a20617070726f76616c20746f2063757272656e74206f776e656044820152603960f91b6064820152608490fd5b50346102db5760003660031901126102db576020600854604051908152f35b60609060031901126102db576001600160a01b039060043582811681036102db579160243590811681036102db579060443590565b50346102db5761001661068c36610645565b9161069f61069a843361392d565b61382c565b613bb3565b50346102db5760003660031901126102db57600e5460405160089190911c6001600160a01b03168152602090f35b50346102db5760003660031901126102db576106ec611813565b600e805460ff19166002179055005b50346102db5760403660031901126102db5761071561050c565b6024359061072281613638565b821015610756576001600160a01b031660009081526006602090815260408083209383529281529082902054915191825290f35b60405162461bcd60e51b815260206004820152602b60248201527f455243373231456e756d657261626c653a206f776e657220696e646578206f7560448201526a74206f6620626f756e647360a81b6064820152608490fd5b50346102db576100166107c136610645565b90604051926020840184811067ffffffffffffffff8211176107ea575b60405260008452613892565b6107f2610f89565b6107de565b50346102db5760403660031901126102db57600080808060043561088560243591610833600160ff600e541661082c81611669565b141561171f565b61085561084e610842836136b0565b6001600160a01b031690565b331461176b565b6108758361086d83600052600b602052604060002090565b5410156117a7565b600052600b602052604060002090565b6108908282546117f9565b90556108a66108a182600c546117f9565b600c55565b8181156108c0575b3390f1156108b857005b610016611806565b506108fc6108ae565b9181601f840112156102db5782359167ffffffffffffffff83116102db57602083818601950101116102db57565b50346102db5760803660031901126102db5767ffffffffffffffff6004358181116102db5761092a9036906004016108c9565b6024929192358281116102db576109459036906004016108c9565b9190926044359081116102db576109609036906004016108c9565b93909461097860018060a01b03600a54163314611985565b61098560204710156119d0565b610997600160ff19600e541617600e55565b6109c36109a330611abd565b6109ae36878661102a565b60208151910120906020815191012014611a0d565b600f546109d8906001600160a01b0316610842565b92833b156102db57610a126801bc16d674ec80000092600097604051998a98899788966304512a2360e31b88526064359560048901611a7a565b03925af18015610a7e575b610a65575b600e546040805160089290921c6001600160a01b031682523360208301527f1944debb24a9aafcf2708be964e412cdb73fc36d6ea24577fd8dcc05b93b4a4491a1005b80610a72610a7892610fa0565b80610369565b38610a22565b610a86611806565b610a1d565b50346102db5760203660031901126102db57600435600854811015610add5760086000527ff3f7a9fe364faab93b216da50a3214154f22a0a2b415b23a84c8169e8b636ee30154604051908152602090f35b60405162461bcd60e51b815260206004820152602c60248201527f455243373231456e756d657261626c653a20676c6f62616c20696e646578206f60448201526b7574206f6620626f756e647360a01b6064820152608490fd5b50346102db5760203660031901126102db5760206104fa6004356136b0565b50346102db5760003660031901126102db57600a546010546001600160a01b0390811691168114610b8a57610016906135ef565b60405162461bcd60e51b815260206004820152600c60248201526b616c726561647920646f6e6560a01b6044820152606490fd5b50346102db5760203660031901126102db576020610bdd600435611961565b604051908152f35b50346102db5760203660031901126102db576020610bdd610c0461050c565b613638565b50346102db576000806003193601126104d857600a5481906001600160a01b03811690610c37338314611985565b6001600160a01b031916600a557f8be0079c531659141344cd1fd0a4f28419497f9722a3daafe3b4186f6b6457e08280a380f35b50346102db5760003660031901126102db576020600c54604051908152f35b5060203660031901126102db57600435600081815260026020526040902054610cbd906001600160a01b031615156116e7565b60ff600e54166003811015610d0f576102db57610ce490600052600b602052604060002090565b805490348201809211610d02575b556100166108a134600c546116da565b610d0a611673565b610cf2565b634e487b7160e01b600052602160045260246000fd5b50346102db5760203660031901126102db57600435600052600b6020526020604060002054604051908152f35b50346102db5760003660031901126102db576010546040516001600160a01b039091168152602090f35b50346102db5760003660031901126102db57600a546040516001600160a01b039091168152602090f35b50346102db576000806003193601126104d8576040519080600190815480831c92808216928315610e5e575b60209283861085146104ba5785885260208801949081156104995750600114610e055761043d8761043181890382610fdd565b600160005294509192917fb10e2d527612073b26eecdfd717e6a320cf44b4afac2b0732d9fcbe2b7fa0cf65b838610610e4d57505050910190506104318261043d3880610421565b805485870152948201948101610e31565b93607f1693610dd2565b50346102db5760403660031901126102db57610e8261050c565b60243580151581036102db576001600160a01b03821691338314610f105781610ecd610ede9233600052600560205260406000209060018060a01b0316600052602052604060002090565b9060ff801983541691151516179055565b604051901515815233907f17307eab39ab6107e8899845ad3d59bd9653f200f220920489ca2b5937696c3190602090a3005b60405162461bcd60e51b815260206004820152601960248201527f4552433732313a20617070726f766520746f2063616c6c6572000000000000006044820152606490fd5b50346102db5760203660031901126102db5761043d610f75600435611ba7565b604051918291602083526020830190610397565b50634e487b7160e01b600052604160045260246000fd5b67ffffffffffffffff8111610fb457604052565b610fbc610f89565b604052565b6040810190811067ffffffffffffffff821117610fb457604052565b90601f8019910116810190811067ffffffffffffffff821117610fb457604052565b60209067ffffffffffffffff811161101d575b601f01601f19160190565b611025610f89565b611012565b92919261103682610fff565b916110446040519384610fdd565b8294818452818301116102db578281602093846000960137010152565b50346102db5760803660031901126102db5761107b61050c565b611083610522565b6064359167ffffffffffffffff83116102db57366023840112156102db576110b861001693369060248160040135910161102a565b9160443591613892565b50346102db5760203660031901126102db576004356000818152600260205260409020546001600160a01b031615156110fa906116e7565b611103816141e1565b604051706672656e20706f6f6c207368617265202360781b6020820152919082906031820161113191611af8565b0391601f199283810182526111469082610fdd565b61115a82600052600b602052604060002090565b54670de0b6b3a7640000900461116f90613524565b9161117981611961565b61118290613524565b92604051938491602083016111ca906026907f74686973206672656e20706f6f6c207368617265206861732061206465706f73815265034ba1037b3160d51b60208201520190565b6111d391611af8565b7f20457468207769746820636c61696d61626c652062616c616e6365206f6620008152601f0161120291611af8565b6257656960e81b815260030103848101845261121e9084610fdd565b61122781611b0b565b611230906142fb565b9061123a816141e1565b9061124f81600052600b602052604060002090565b54670de0b6b3a7640000900461126490613524565b9061126e90611961565b61127790613524565b604051683d913730b6b2911d1160b91b60208201529586959193916029870161129f91611af8565b71111610113232b9b1b934b83a34b7b7111d1160711b81526012016112c391611af8565b7f222c202265787465726e616c5f75726c223a2268747470733a2f2f7374616b65815273636f6e616d69676f732e636f6d2f746f6b656e2f60601b602082015260340161130f91611af8565b7f222c202261747472696275746573223a205b7b2274726169745f74797065223a81527f20226465706f736974222c202276616c7565223a20224574683a2000000000006020820152603b0161136491611af8565b7f227d2c7b2274726169745f74797065223a2022636c61696d61626c65222c202281526d03b30b63ab2911d10112bb2b49d160951b6020820152602e016113aa91611af8565b6e113eae96101134b6b0b3b2911d101160891b8152600f017f646174613a696d6167652f7376672b786d6c3b6261736536342c0000000000008152601a016113f191611af8565b61227d60f01b815260020103828101825261140c9082610fdd565b611415906142fb565b6040517f646174613a6170706c69636174696f6e2f6a736f6e3b6261736536342c000000602082015291908290603d820161144f91611af8565b03908101825261145f9082610fdd565b60405161043d8192826103bc565b50346102db5760203660031901126102db576020610bdd476004356118fc565b50346102db576000806003193601126104d8576114b560018060a01b03600a54163314611985565b80808080478181156114d8575b3390f1156114cd5780f35b6114d5611806565b80f35b506108fc6114c2565b50346102db5760003660031901126102db57610016611813565b50346102db5760403660031901126102db57602060ff61154d61151c61050c565b611524610522565b6001600160a01b0391821660009081526005865260408082209290931681526020919091522090565b54166040519015158152f35b50346102db5760203660031901126102db5761157361050c565b600a546001600160a01b039061158c9082163314611985565b81161561159c57610016906135ef565b60405162461bcd60e51b815260206004820152602660248201527f4f776e61626c653a206e6577206f776e657220697320746865207a65726f206160448201526564647265737360d01b6064820152608490fd5b5060203660031901126102db5761160561050c565b60ff600e54166003811015610d0f576102db5761001690611627600d5461168a565b9081600d553461164183600052600b602052604060002090565b55611657600c5434810180911161165c57600c55565b613a18565b611664611673565b6108a1565b60031115610d0f57565b50634e487b7160e01b600052601160045260246000fd5b600190600019811461169a570190565b6116a2611673565b0190565b90600182018092116116b457565b6116bc611673565b565b90600282018092116116b457565b90602082018092116116b457565b919082018092116116b457565b156116ee57565b60405162461bcd60e51b81526020600482015260096024820152681b9bdd08195e1a5cdd60ba1b6044820152606490fd5b1561172657565b60405162461bcd60e51b815260206004820152601b60248201527f63616e6e6f74207769746864726177206f6e6365207374616b656400000000006044820152606490fd5b1561177257565b60405162461bcd60e51b815260206004820152600d60248201526c3737ba103a34329037bbb732b960991b6044820152606490fd5b156117ae57565b60405162461bcd60e51b81526020600482015260146024820152731b9bdd08195b9bdd59da0819195c1bdcda5d195960621b6044820152606490fd5b6000198101919082116116b457565b919082039182116116b457565b506040513d6000823e3d90fd5b60ff600e541661182281611669565b600180910361189f57479080805b61183957505050565b600854811161189a5780600080808061185461187d966136b0565b61185e89876118fc565b9082908215611890575b6001600160a01b031690f1156118835761168a565b81611830565b61188b611806565b61168a565b6108fc9150611868565b505050565b60405162461bcd60e51b815260206004820152601c60248201527f757365207769746864726177207768656e206e6f74207374616b6564000000006044820152606490fd5b600281901b91906001600160fe1b038116036116b457565b600052600b60205260406000205490818102918183041490151715611954575b600c5490811561193e570460001981019081116119365790565b6103cd611673565b634e487b7160e01b600052601260045260246000fd5b61195c611673565b61191c565b60ff600e54166003811015610d0f5761197a5750600090565b6103cd9047906118fc565b1561198c57565b606460405162461bcd60e51b815260206004820152602060248201527f4f776e61626c653a2063616c6c6572206973206e6f7420746865206f776e65726044820152fd5b156119d757565b60405162461bcd60e51b815260206004820152600e60248201526d0dcdee840cadcdeeaced040cae8d60931b6044820152606490fd5b15611a1457565b60405162461bcd60e51b815260206004820152601e60248201527f7769746864726177616c2063726564656e7469616c206d69736d6174636800006044820152606490fd5b908060209392818452848401376000828201840152601f01601f1916010190565b9796959192611ab894611a9c611aaa936060989660808d5260808d0191611a59565b918a830360208c0152611a59565b918783036040890152611a59565b930152565b6001600160a01b0316600160f81b8101908110611aeb575b604051906020820152602081526103cd81610fc1565b611af3611673565b611ad5565b906116a260209282815194859201610374565b611b1490611ba7565b6103cd606760405180937f3c7376672077696474683d2234303022206865696768743d223430302220786d60208301527f6c6e733d22687474703a2f2f7777772e77332e6f72672f323030302f737667226040830152601f60f91b6060830152611b88815180926020606186019101610374565b8101651e17b9bb339f60d11b6061820152036047810184520182610fdd565b611bbb81600052600b602052604060002090565b54670de0b6b3a76400009004611bd090613524565b90611bda90611961565b611be390613524565b604080517f3c7376672076696577426f783d222d313030202d31303020313030302031303060208201526218111f60e91b9181019190915291829190604383017f3c7265637420783d222d3130302220793d222d313030222077696474683d223181527f30303022206865696768743d2231303030222069643d227376675f312220666960208201527f6c6c3d222366666622207374726f6b652d77696474683d223322207374726f6b60408201527f653d2223303030222f3e3c7061746820636c69702d72756c653d226576656e6f60608201527f64642220643d224d31343420393563302d342d322d372d342d31302d332d332d60808201527f362d342d31302d34732d3720312d31302034632d3220332d3420362d3420313060a08201527f613134203134203020302030203134203134203134203134203020302030203160c08201527f342d31347a222066696c6c3d2223653931653233222066696c6c2d72756c653d60e08201526a1132bb32b737b23211179f60a91b61010082015261010b017f3c7061746820636c69702d72756c653d226576656e6f64642220643d224d333481527f39203837632d332d332d362d342d31302d34732d3720312d31302034632d322060208201527f332d3420362d342031307332203720342031306131342031342030203020302060408201527f3230203063322d3320342d3620342d3130732d322d372d342d31307a2220666960608201527f6c6c3d2223303262326537222066696c6c2d72756c653d226576656e6f646422608082015261179f60f11b60a082015260a2017f3c7061746820636c69702d72756c653d226576656e6f64642220643d224d343981527f39203836632d332d322d362d342d31302d34732d3720322d31302034632d322060208201527f332d3420372d342031306131342031342030203020302031342031346334203060408201527f20372d312031302d3420322d3220342d3620342d313020302d332d322d372d3460608201527f2d31305a222066696c6c3d2223666162633136222066696c6c2d72756c653d2260808201526932bb32b737b23211179f60b11b60a082015260aa017f3c7061746820636c69702d72756c653d226576656e6f64642220643d224d363781527f38203930632d332d332d362d352d31302d35732d3720322d31302035632d332060208201527f322d3420362d342039203020342031203820342031302033203320362035203160408201527f30203573372d322031302d3563322d3220342d3620342d313020302d332d322d60608201527f372d342d395a222066696c6c3d2223303262326537222066696c6c2d72756c6560808201526b1e9132bb32b737b23211179f60a11b60a082015260ac017f3c7061746820636c69702d72756c653d226576656e6f64642220643d224d343381527f33203436762d38632d31352d352d33302d332d343420352d3420322d3820372d60208201527f31322031346c2d38203231632d3220332d3320382d332031346c2d322031346360408201527f2d3220362d332031352d332032392031372d322033302d342034312d3720313660608201527f2d342032382d31312033362d31392d3720302d313620322d323620356c2d323560808201527f2038632d3520302d392d322d31302d362d322d342d322d382d312d31326c392d60a08201527f313263342d3420392d352031352d346c322d3320332d322037203120362d312060c08201527f31312d3563352d3120392d332031322d36682d35326c2d342d32762d3563302d60e08201527f3420332d3720372d382031302d352032332d382034312d31315a6d38203238686101008201527f352d355a6d35203020322031633420312036203120382d31682d31305a2220666101208201527334b63616b93ab6329e9132bb32b737b23211179f60611b610140820152610154016000805160206143e583398151915281527f224d34343120373268356d302030203220316d3020306334203120362031203860208201527f2d316d302030682d31306d302030682d356d302030682d35326d3020302d342d60408201527f32762d3563302d3420332d3720372d382031302d352032332d382034312d313160608201527f6d302030762d386d302030632d31352d352d33302d332d343420352d3420322d60808201527f3820372d31322031346d3020302d382032316d302030632d3220332d3320382d60a08201527f332031346c2d32203134632d3220362d332031352d332032392031372d32203360c08201527f302d342034312d372031362d342032382d31312033362d31392d3720302d313660e08201527f20322d323620356d3020302d323520386d302030632d3520302d392d322d31306101008201527f2d362d322d342d322d382d312d31326c392d313263342d3420392d352031352d6101208201527f346c322d3320332d326d302030203720316d30203020362d312031312d3563356101408201527f2d3120392d332031322d36222066696c6c3d226e6f6e6522207374726f6b653d6101608201527f222330303022207374726f6b652d77696474683d2231322e3222207374726f6b6101808201527f652d6c696e656361703d22726f756e6422207374726f6b652d6c696e656a6f696101a08201526a371e913937bab73211179f60a91b6101c08201526101cb017f3c7061746820636c69702d72756c653d226576656e6f64642220643d226d363281527f3820343620322d3920332d3920332d3620342d3563322d3520332d3920312d3160208201527f336c2d31352033352d31342033362d35203134632d3320352d3720372d31332060408201527f342d31342d362d32362d31352d33332d32366c2d382d3136632d332d352d362d60608201527f372d382d352d3720382d31322031392d31342033356c2d34203431633220302060808201527f3420312034203476326c322d3163322d3320332d3820342d31346c332d31366360a08201527f302d3620312d313020332d313320312d3320342d3420382d347339203220313460c08201527f20356c313320313020313220313363362035203130203920313520313120352060e08201527f302037203020372d3220302d313120322d323320352d33366c31312d33355a2261010082015275103334b63616b93ab6329e9132bb32b737b23211179f60511b610120820152610136016000805160206143e583398151915281527f226d36333020333720332d3920332d366d30203020342d356d30203063322d3560208201527f20332d3920312d31336c2d31352033352d31342033366d3020302d352031346d60408201527f302030632d3320352d3720372d313320342d31342d362d32362d31352d33332d60608201527f32366d3020302d382d31366d302030632d332d352d362d372d382d352d37203860808201527f2d31322031392d31342033356d3020302d342034316d3020306332203020342060a08201527f31203420346d30203076326d30203020322d3163322d3320332d3820342d313460c08201527f6d30203020332d31366d30203063302d3620312d313020332d313320312d332060e08201527f342d3420382d347339203220313420356c31332031306d3020302031322031336101008201527f6d302030633620352031302039203135203131203520302037203020372d32206101208201527f302d313120322d323320352d333661363837203638372030203020312031332d6101408201527f3434222066696c6c3d226e6f6e6522207374726f6b653d2223303030222073746101608201527f726f6b652d77696474683d2231322e3222207374726f6b652d6c696e656361706101808201527f3d22726f756e6422207374726f6b652d6c696e656a6f696e3d22726f756e64226101a082015261179f60f11b6101c08201526101c2017f3c7061746820636c69702d72756c653d226576656e6f64642220643d224d373881527f36203338762d38682d386c2d3331203231632d323220392d33332031392d333160208201527f203239203220342035203720313020386c313620312031392d3220313720312060408201527f3320312032203476366c2d332034632d3620362d31332031302d32322031342d60608201527f3820342d313620362d323420382d3320332d3520372d3520313020342d34203160808201527f312d372031392d31316c32322d3863382d332031342d362031382d313020362d60a08201527f3520392d31312031302d31382d362d342d31362d362d32382d36682d3331632d60c08201527f322d312d332d332d332d366c312d376331362d31332033312d32312034362d3260e08201527f3620322d3120332d3320332d355a222066696c6c2d72756c653d226576656e6f61010082015264323211179f60d91b610120820152610125016000805160206143e583398151915281527f224d373836203330682d386d3020302d3331203231632d323220392d3333203160208201527f392d3331203239203220342035203720313020386d302030203136203120313960408201527f2d3220313720316d302030203320316d302030203220346d30203076366d302060608201527f302d3320356d302030632d3620352d313320392d32322031332d3820342d313660808201527f20362d323420382d3320332d3520372d3520313020342d342031312d3720313960a08201527f2d31316d3020302032322d386d30203063382d332031342d362031382d31302060c08201527f362d3520392d31312031302d31382d362d342d31362d362d32382d366d30203060e08201527f682d33316d302030632d322d312d332d332d332d366d30203020312d376d30206101008201527f306331362d31332033312d32312034362d323620322d3120332d3320332d356d6101208201527f302030762d38222066696c6c3d226e6f6e6522207374726f6b653d22233030306101408201527f22207374726f6b652d77696474683d2231322e3222207374726f6b652d6c696e6101608201527f656361703d22726f756e6422207374726f6b652d6c696e656a6f696e3d22726f610180820152653ab73211179f60d11b6101a08201526101a6017f3c7061746820636c69702d72756c653d226576656e6f64642220643d224d323481527f35203332682d31376c2d3138203130632d3720322d313420302d31382d356c2d60208201527f332031312d31332035382d3132203537632d3320372d3220313520322032376c60408201527f312d323320332d323263322d313620382d32392031372d333720342d3320313160608201527f2d342032312d326c32322038633139203720333520392034372035762d35632d60808201527f3820302d31362d322d32362d356c2d32362d392d332d352d322d3563322d352060a08201527f372d392031332d31336c31372d313063362d342031302d382031322d3131203260c08201527f2d3520312d31302d332d31362d332d342d372d362d31342d387a6d2d3320323460e08201527f2d31342031332d3138203133632d3620332d313020342d3133203320302d37206101008201527f302d313220322d313620322d3520352d392031302d31326c31382d3863392d346101208201527f2031352d342031382d3220322031203120342d3320397a222066696c6c2d72756101408201526d36329e9132bb32b737b23211179f60911b61016082015261016e016000805160206143e583398151915281527f226d3232382033322d3138203130632d3720322d313420302d31382d356d302060208201527f302d332031316d3020302d31332035382d3132203537632d3320372d3220313560408201527f20322032376d30203020312d32336d30203020332d323263322d313620382d3260608201527f392031372d333720342d332031312d342032312d326c3232203863313920372060808201527f3335203920343720356d302030762d356d302030632d3820302d31362d322d3260a08201527f362d356d3020302d32362d392d332d356d3020302d322d3563322d3520372d3960c08201527f2031332d31336d3020302031372d31306d30203063362d342031302d3820313260e08201527f2d313120322d3520312d31302d332d31362d332d342d372d362d31342d38682d6101008201527f3137222066696c6c3d226e6f6e6522207374726f6b653d2223303030222073746101208201527f726f6b652d77696474683d2231322e3222207374726f6b652d6c696e656361706101408201527f3d22726f756e6422207374726f6b652d6c696e656a6f696e3d22726f756e642261016082015261179f60f11b610180820152610182017f3c7061746820636c69702d72756c653d226576656e6f64642220643d226d363181527f2032312032302d356332203020342d3220352d3420322d3320312d342d322d3460208201527f2d392d332d31382d322d323820302d3820332d313620372d32312031332d352060408201527f332d3920392d31312031396c2d332031332d342031332d362038632d3220332d60608201527f3320372d322031302032203220332034203320386c312032342d332032332d3360808201527f2032352d3120323520372d343720392d343763302d3320322d3520362d38203360a08201527f2d3120362d332031302d336c31352d342031352d362031352d3620342d312d3460c08201527f392034632d3320302d352d312d382d332d322d332d332d352d332d3820342d3160e08201527f3420392d32342031362d33317a222066696c6c2d72756c653d226576656e6f64610100820152633211179f60e11b610120820152610124016000805160206143e583398151915281527f226d38372036372d353020346d3020302d372d33632d322d332d332d352d332d60208201527f3820342d313420392d32342031362d33316d3020302031382d386d302030203260408201527f302d356332203020342d3220352d3420322d3320312d342d322d342d392d332d60608201527f31382d322d323820302d3820332d313620372d32312031332d3520332d39203960808201527f2d31312031396d3020302d332031336d3020302d342031336d3020302d36203860a08201527f6d302030632d3220332d3320372d322031302032203220332034203320386c3160c08201527f2032342d332032336d3020302d332032356d3020302d312032356d302030203760e08201527f2d34376d30203020392d343763302d3320322d3520362d3820332d3120362d336101008201527f2031302d336c31352d346d3020302031352d366d3020302031352d366d3020306101208201527f20342d316d31322d312d31322031222066696c6c3d226e6f6e6522207374726f6101408201527f6b653d222330303022207374726f6b652d77696474683d2231322e32222073746101608201527f726f6b652d6c696e656361703d22726f756e6422207374726f6b652d6c696e656101808201526d3537b4b71e913937bab73211179f60911b6101a08201526101ae017f3c7465787420666f6e742d73697a653d223132302220666f6e742d776569676881527f743d22626f6c642220783d223132302220793d22333530222066696c6c3d226260208201527f6c756522207374726f6b653d222330303022207374726f6b652d77696474683d60408201527f22312220666f6e742d66616d696c793d2273616e732d7365726966223e0000006060820152607d01672232b837b9b4ba1d60c11b8152600801661e17ba32bc3a1f60c91b81526007017f3c7465787420666f6e742d73697a653d2238302220666f6e742d77656967687481527f3d22626f6c642220783d223235302220793d22343630222066696c6c3d22626c60208201527f756522207374726f6b653d222330303022207374726f6b652d77696474683d2260408201527f312220666f6e742d66616d696c793d2273616e732d7365726966223e000000006060820152607c016132b691611af8565b630408ae8d60e31b8152600401661e17ba32bc3a1f60c91b81526007017f3c7465787420666f6e742d73697a653d223132302220666f6e742d776569676881527f743d22626f6c642220783d2238302220793d22363230222066696c6c3d22677260208201527f65656e22207374726f6b653d222330303022207374726f6b652d77696474683d60408201527f22312220666f6e742d66616d696c793d2273616e732d7365726966223e0000006060820152607d016921b630b4b6b0b136329d60b11b8152600a01661e17ba32bc3a1f60c91b81526007017f3c7465787420666f6e742d73697a653d2238302220666f6e742d77656967687481527f3d22626f6c642220783d223235302220793d22373330222066696c6c3d22677260208201527f65656e22207374726f6b653d222330303022207374726f6b652d77696474683d60408201527f22312220666f6e742d66616d696c793d2273616e732d7365726966223e0000006060820152607d0161342f91611af8565b632057656960e01b8152600401661e17ba32bc3a1f60c91b8152600701651e17b9bb339f60d11b815260060103601f19810182526103cd9082610fdd565b604051906020820182811067ffffffffffffffff821117613492575b60405260008252565b61349a610f89565b613489565b604051906134ac82610fc1565b60018252600360fc1b6020830152565b906134c682610fff565b6134d36040519182610fdd565b82815280926134e4601f1991610fff565b0190602036910137565b50634e487b7160e01b600052603260045260246000fd5b90602091805182101561351757010190565b61351f6134ee565b010190565b80156135e6578060008281935b6135d2575081613540846134bc565b93905b61354d5750505090565b613556906117ea565b91826135a3600a92838104938085029085820414851517156135c5575b81039081116135b8575b60ff8091166030019081116135ab575b60f81b6001600160f81b031916841a9186613505565b539182613543565b6135b3611673565b61358d565b6135c0611673565b61357d565b6135cd611673565b613573565b926135de600a9161168a565b930480613531565b506103cd61349f565b600a80546001600160a01b039283166001600160a01b0319821681179092559091167f8be0079c531659141344cd1fd0a4f28419497f9722a3daafe3b4186f6b6457e0600080a3565b6001600160a01b0316801561365857600052600360205260406000205490565b60405162461bcd60e51b815260206004820152602a60248201527f4552433732313a2062616c616e636520717565727920666f7220746865207a65604482015269726f206164647265737360b01b6064820152608490fd5b6000908152600260205260409020546001600160a01b031680156136d15790565b60405162461bcd60e51b815260206004820152602960248201527f4552433732313a206f776e657220717565727920666f72206e6f6e657869737460448201526832b73a103a37b5b2b760b91b6064820152608490fd5b1561372f57565b60405162461bcd60e51b815260206004820152603860248201527f4552433732313a20617070726f76652063616c6c6572206973206e6f74206f7760448201527f6e6572206e6f7220617070726f76656420666f7220616c6c00000000000000006064820152608490fd5b6000818152600260205260409020546001600160a01b0316156137d2576000908152600460205260409020546001600160a01b031690565b60405162461bcd60e51b815260206004820152602c60248201527f4552433732313a20617070726f76656420717565727920666f72206e6f6e657860448201526b34b9ba32b73a103a37b5b2b760a11b6064820152608490fd5b1561383357565b60405162461bcd60e51b815260206004820152603160248201527f4552433732313a207472616e736665722063616c6c6572206973206e6f74206f6044820152701ddb995c881b9bdc88185c1c1c9bdd9959607a1b6064820152608490fd5b906138b69392916138a661069a843361392d565b6138b1838383613bb3565b613e07565b156138bd57565b60405162461bcd60e51b8152806138d6600482016138da565b0390fd5b60809060208152603260208201527f4552433732313a207472616e7366657220746f206e6f6e20455243373231526560408201527131b2b4bb32b91034b6b83632b6b2b73a32b960711b60608201520190565b6000828152600260205260409020546001600160a01b0316156139be57613953826136b0565b6001600160a01b0382811682821681149490919085156139a6575b505050821561397c57505090565b6001600160a01b0316600090815260056020526040902060ff92506139a191906105b3565b541690565b6139b3919293955061379a565b16149138808061396e565b60405162461bcd60e51b815260206004820152602c60248201527f4552433732313a206f70657261746f7220717565727920666f72206e6f6e657860448201526b34b9ba32b73a103a37b5b2b760a11b6064820152608490fd5b6001600160a01b038116908115613b17576000838152600260205260409020546001600160a01b0316613ad25780613a5384613aaa93613eca565b6001600160a01b0381166000908152600360205260409020613a7581546116a6565b9055613a8b846000526002602052604060002090565b80546001600160a01b0319166001600160a01b03909216919091179055565b60007fddf252ad1be2c89b69c2b068fc378daa952ba7f163c4a11628f55a4df523b3ef8180a4565b60405162461bcd60e51b815260206004820152601c60248201527f4552433732313a20746f6b656e20616c7265616479206d696e746564000000006044820152606490fd5b606460405162461bcd60e51b815260206004820152602060248201527f4552433732313a206d696e7420746f20746865207a65726f20616464726573736044820152fd5b15613b6257565b60405162461bcd60e51b8152602060048201526024808201527f4552433732313a207472616e7366657220746f20746865207a65726f206164646044820152637265737360e01b6064820152608490fd5b90613bbd836136b0565b6001600160a01b038381169290918216839003613c8257613c17613c5b92821694613be9861515613b5b565b613bf4878483613ef5565b613bfd87613cd9565b6001600160a01b0316600090815260036020526040902090565b613c2181546117ea565b90556001600160a01b0381166000908152600360205260409020613c4581546116a6565b9055613a8b856000526002602052604060002090565b7fddf252ad1be2c89b69c2b068fc378daa952ba7f163c4a11628f55a4df523b3ef600080a4565b60405162461bcd60e51b815260206004820152602960248201527f4552433732313a207472616e73666572206f6620746f6b656e2074686174206960448201526839903737ba1037bbb760b91b6064820152608490fd5b600081815260046020526040812080546001600160a01b03191690556001600160a01b03613d06836136b0565b167f8c5be1e5ebec7d5bd14f71427d1e84f3dd0314c0f7b2291e5b200ac8c7c3b9258280a4565b600082815260046020526040902080546001600160a01b0319166001600160a01b0383161790556001600160a01b0380613d66846136b0565b169116907f8c5be1e5ebec7d5bd14f71427d1e84f3dd0314c0f7b2291e5b200ac8c7c3b925600080a4565b908160209103126102db57516103cd816102c9565b6001600160a01b0391821681529116602082015260408101919091526080606082018190526103cd92910190610397565b3d15613e02573d90613de882610fff565b91613df66040519384610fdd565b82523d6000602084013e565b606090565b92909190823b15613ec157613e3a926020926000604051809681958294630a85bd0160e11b9a8b85523360048601613da6565b03926001600160a01b03165af160009181613e91575b50613e8357613e5d613dd7565b80519081613e7e5760405162461bcd60e51b8152806138d6600482016138da565b602001fd5b6001600160e01b0319161490565b613eb391925060203d8111613eba575b613eab8183610fdd565b810190613d91565b9038613e50565b503d613ea1565b50505050600190565b90613ed481614052565b6001600160a01b038216613eec576116bc91506140cb565b6116bc9161401a565b9091906001600160a01b038082169182613f2f5750613f1383614052565b831680613f265750506116bc91506140cb565b03613eec575050565b8185168303613f3f575b50613f13565b613fb3613f4b82613638565b600019810190811161400d575b613fa460009387855260076020526040852054838103613fba575b5084613f89896000526007602052604060002090565b556001600160a01b0316600090815260066020526040902090565b90600052602052604060002090565b5538613f39565b878652600660205260408620848752602052614006604087205480613ff584613fa48760018060a01b03166000526006602052604060002090565b556000526007602052604060002090565b5538613f73565b614015611673565b613f58565b60409061402681613638565b9260009160018060a01b0316825260066020528282208483526020528083832055815260076020522055565b60085481600052600960205280604060002055680100000000000000008110156140be575b60018101806008558110156140b1575b60086000527ff3f7a9fe364faab93b216da50a3214154f22a0a2b415b23a84c8169e8b636ee30155565b6140b96134ee565b614087565b6140c6610f89565b614077565b6008805460001992908381018181116141d4575b61417b600093849281845260096020528460408520549110156141c7575b86845261416a7ff3f7a9fe364faab93b216da50a3214154f22a0a2b415b23a84c8169e8b636ee29586810154908310156141ba575b88865280837ff3f7a9fe364faab93b216da50a3214154f22a0a2b415b23a84c8169e8b636ee301556000526009602052604060002090565b556000526009602052604060002090565b5582549384156141a65784019380851015614199575b838352015555565b6141a16134ee565b614191565b634e487b7160e01b83526031600452602483fd5b6141c26134ee565b614132565b6141cf6134ee565b6140fd565b6141dc611673565b6140df565b80156135e6576000818181805b61426557506141fc816134bc565b935b6142085750505090565b6000198101908111614258575b8091600a916142426030848406810180911161424b575b60f81b6001600160f81b031916861a9187613505565b530490816141fe565b614253611673565b61422c565b614260611673565b614215565b9150614272600a9161168a565b9104808492916141ee565b604051906060820182811067ffffffffffffffff8211176142ee575b604052604082527f6768696a6b6c6d6e6f707172737475767778797a303132333435363738392b2f6040837f4142434445464748494a4b4c4d4e4f505152535455565758595a61626364656660208201520152565b6142f6610f89565b614299565b8051156143db5761430a61427d565b61432661432161431a84516116be565b6003900490565b6118e4565b91614338614333846116cc565b6134bc565b92835280815182019060208501935b8282106143895750505060039051068060011461437857600214614369575090565b603d60f81b6000199091015290565b50613d3d60f01b6001199091015290565b9091936004906003809401938451600190603f9082828260121c16880101518553828282600c1c16880101518386015382828260061c1688010151600286015316850101519082015301939190614347565b506103cd61346d56fe3c70617468207374726f6b652d6d697465726c696d69743d22322e362220643da26469706673582212205c0a343f67530f16ad80f391958e6addbbdf6498daf3d637ecca0aed804fa0a464736f6c63430008110033a2646970667358221220be3699ae9ebbc14bf46b29d586a5be740a1ec88c0f1cf56a1fdac3ef5ef42ff464736f6c63430008110033",
    "linkReferences": {}
  },
  "methodIdentifiers": {
    "create(address,address)": "3e68680a",
    "getStakingPool(uint256)": "a2b44d75",
    "numberOfStakingPools()": "6202d396",
    "stakingPools(uint256)": "5aad6cf0"
  },
  "id": 1
}