{
  "abi": [
    {
      "inputs": [
        {
          "internalType": "contract IFrensStorage",
          "name": "_frensStorage",
          "type": "address"
        }
      ],
      "stateMutability": "nonpayable",
      "type": "constructor"
    },
    {
      "anonymous": false,
      "inputs": [
        {
          "indexed": true,
          "internalType": "address",
          "name": "contractAddress",
          "type": "address"
        },
        {
          "indexed": false,
          "internalType": "address",
          "name": "creator",
          "type": "address"
        },
        {
          "indexed": false,
          "internalType": "address",
          "name": "owner",
          "type": "address"
        }
      ],
      "name": "Create",
      "type": "event"
    },
    {
      "inputs": [
        {
          "internalType": "address",
          "name": "owner_",
          "type": "address"
        },
        {
          "internalType": "bool",
          "name": "validatorLocked",
          "type": "bool"
        }
      ],
      "name": "create",
      "outputs": [
        {
          "internalType": "address",
          "name": "",
          "type": "address"
        }
      ],
      "stateMutability": "nonpayable",
      "type": "function"
    },
    {
      "inputs": [],
      "name": "version",
      "outputs": [
        {
          "internalType": "uint8",
          "name": "",
          "type": "uint8"
        }
      ],
      "stateMutability": "view",
      "type": "function"
    }
  ],
  "bytecode": {
    "object": "0x60803461008257601f61290f38819003918201601f19168301916001600160401b038311848410176100875780849260209460405283398101031261008257516001600160a01b038116810361008257600080546001600160a81b03191660089290921b610100600160a81b0316919091179055604051612871908161009e8239f35b600080fd5b634e487b7160e01b600052604160045260246000fdfe608060408181526004918236101561001657600080fd5b600092833560e01c918263319e90901461005d5750506354fd4d501461003b57600080fd5b3461005957816003193601126100595760ff60209254169051908152f35b5080fd5b8385913461021c578160031936011261021c576001600160a01b039380358581169291908390036102a4576024918235968715158098036102a05786549161255b928382019067ffffffffffffffff948383108684111761028457928092856060938e97966102e185398b835260209e8f84015260081c168b82015203019089f08015610296578751938a85016f636f6e74726163742e6164647265737360801b81526e233932b739a837b7b629b2ba3a32b960891b6030870152601f86528986019186831090831117610284578188818d8f9488908f8490528b519020915460081c16906321f8a72160e01b835260448b01525afa94851561027a57918b93918b979695938896610231575b50509080604492169a8b918b519687958694630319e90960e41b86528a8601528b850152165af19081156102275783916101ed575b50156101dd575050507fb224da6575b2c2ffd42454faedb236f7dbe5f92a0c96bb99c0273dbe98464c7e82849281519033825287820152a251908152f35b634e487b7160e01b825260019052fd5b90508781813d8311610220575b61020481836102a8565b8101031261021c5751801515810361021c578861019f565b8280fd5b503d6101fa565b86513d85823e3d90fd5b919697509294508391933d8311610273575b61024d81856102a8565b8101031261026f5751818116810361026f57916044828b938b9796919261016a565b8880fd5b503d610243565b89513d8c823e3d90fd5b634e487b7160e01b8b5260418752878bfd5b87513d8a823e3d90fd5b8680fd5b8480fd5b90601f8019910116810190811067ffffffffffffffff8211176102ca57604052565b634e487b7160e01b600052604160045260246000fdfe6080604081815234620001d1576060826200255b8038038091620000248285620001d6565b833981010312620001d1576200003a82620001fa565b60209283810151908115158203620001d1578301516001600160a01b039182821691829003620001d1576200006f336200020f565b600180546001600160a01b0319808216851790925586516f636f6e74726163742e6164647265737360801b8982019081526d4672656e73506f6f6c536861726560901b6030830152601e825281890199929692906001600160401b038b11838c1017620001bb578a8a52825190206321f8a72160e01b8b526044830152808a602481895afa918215620001b0576000926200016c575b50506200013597985016906002541617600255600014620001505750506001805460ff60a01b191690556200020f565b6000805460ff60a01b19169055516123049081620002578239f35b6001600160a81b031990911617600160a01b176001556200020f565b813d8311620001a8575b62000182818d620001d6565b81010312620001a557506200019c620001359798620001fa565b88973862000105565b80fd5b503d62000176565b89513d6000823e3d90fd5b634e487b7160e01b600052604160045260246000fd5b600080fd5b601f909101601f19168101906001600160401b03821190821017620001bb57604052565b51906001600160a01b0382168203620001d157565b600080546001600160a01b039283166001600160a01b03198216811783559216907f8be0079c531659141344cd1fd0a4f28419497f9722a3daafe3b4186f6b6457e09080a356fe6080604081815260048036101561001e575b505050361561001c57005b005b600092833560e01c908163168a482214610fc1575080631865c57d14610fa35780631e83409a14610f765780632991795414610f25578063378de45b14610ede5780633a4b66f114610eb9578063441a3e7014610c1057806345b58fe414610bb65780634ad02ef114610b715780634b2b4e3614610a675780634e71d92d14610a4d57806354fd4d5014610a2a57806355ec447f1461095f578063678e300a1461093f578063715018a6146108e15780638620891c146106e75780638da5cb5b146106bb5780639278e71414610699578063cfb5a5f814610672578063e4fc6b6d14610659578063e6b1a3ae146104a2578063e920eec01461046a578063f2fde38b1461039d5763f9faa1040361001157826003193601126103185760ff60015460a01c168181101561038a57600161015791146110d1565b3415610353578151916101ab6801bc16d674ec8000006101a460209561019f878201610195836101873084611116565b03601f1981018552846111a6565b3492519020611303565b6111c8565b11156111eb565b838151928185808601956f636f6e74726163742e6164647265737360801b87526e233932b739a837b7b629b2ba3a32b960891b6030820152601f81526101f08161118a565b519095206001600160a01b03959086906102099061129d565b16602486518094819363068b0e0760e41b835234888401525af1908115610349579061023c91849161031c575b50611261565b610268835186810190671d1bdad95b8b9a5960c21b8252600881526102608161118a565b519020611303565b9360025416803b156103185760248392855194859384926335313c2160e11b845233908401525af1801561030e576102d4575b5091606091837fd91527a40417d48f76ba016aaa9157e2ddaca6cb5b660432901659cb075058fc9451923484523390840152820152a180f35b917fd91527a40417d48f76ba016aaa9157e2ddaca6cb5b660432901659cb075058fc939194610304606094611144565b949193509161029b565b82513d87823e3d90fd5b8280fd5b61033c9150873d8911610342575b61033481836111a6565b810190611249565b38610236565b503d61032a565b84513d85823e3d90fd5b6020606492519162461bcd60e51b8352820152601260248201527136bab9ba103232b837b9b4ba1032ba3432b960711b6044820152fd5b634e487b7160e01b845260218252602484fd5b509034610318576020366003190112610318576001600160a01b0382358181169390849003610466578454918216926103d7338514611370565b84156104145750506001600160a01b031916821783557f8be0079c531659141344cd1fd0a4f28419497f9722a3daafe3b4186f6b6457e08380a380f35b906020608492519162461bcd60e51b8352820152602660248201527f4f776e61626c653a206e6577206f776e657220697320746865207a65726f206160448201526564647265737360d01b6064820152fd5b8480fd5b833461049f5761049c61047c36611067565b9561049760018060a09894989795971b038a54163314611370565b611917565b80f35b80fd5b503461031857602090816003193601126106555780356001600160a01b0381811691829003610651576104d9818754163314611370565b845163516b636d60e11b81526001848201528681602481865afa9081156106475787916105f0575b5051156105b65790602484926105598751858101906f636f6e74726163742e6164647265737360801b82526e233932b739a837b7b629b2ba3a32b960891b6030820152601f81526105518161118a565b51902061129d565b16938787519586948593637358d1d760e11b85528401525af19182156105a95761049c9350849261058c575b5050611261565b6105a29250803d106103425761033481836111a6565b3880610585565b50505051903d90823e3d90fd5b845162461bcd60e51b815280840185905260146024820152731a5b9d985b1a5908185c9d0818dbdb9d1c9858dd60621b6044820152606490fd5b90503d8088833e61060181836111a6565b810190858183031261063f5780519067ffffffffffffffff821161064357019080601f8301121561063f578151610639928701611461565b38610501565b8780fd5b8880fd5b86513d89823e3d90fd5b8580fd5b8380fd5b833461049f578060031936011261049f5761049c611b6f565b50913461049f57602036600319011261049f57506106926020923561212b565b9051908152f35b833461049f578060031936011261049f576106b2611b6f565b61049c33611ec9565b5050346106e357816003193601126106e357905490516001600160a01b039091168152602090f35b5080fd5b506020908160031936011261065557803560018060a01b036024848260025416875192838092634f558e7960e01b825287898301525afa9081156106475787916108c4575b501561088d5761075f8551858101906a1c1bdbdb0b999bdc8b9a5960aa1b825284602b820152602b81526105518161116e565b81309116036108555760ff60015460a01c16838110156108425784929161078a6001604493146110d1565b6107c66801bc16d674ec8000006101a46107bf8a5188810190610260816107b13085611116565b03601f1981018352826111a6565b34906111c8565b61080a8751858101906f636f6e74726163742e6164647265737360801b82526e233932b739a837b7b629b2ba3a32b960891b6030820152601f81526105518161118a565b1693878751958694859363010975af60e31b85528401523460248401525af19182156105a95761049c9350849261058c575050611261565b634e487b7160e01b875260218452602487fd5b845162461bcd60e51b815280840185905260126024820152711ddc9bdb99c81cdd185ada5b99c81c1bdbdb60721b6044820152606490fd5b845162461bcd60e51b815280840185905260116024820152701a5908191bd95cc81b9bdd08195e1a5cdd607a1b6044820152606490fd5b6108db9150853d87116103425761033481836111a6565b3861072c565b833461049f578060031936011261049f57805481906001600160a01b0381169061090c338314611370565b6001600160a01b03191682557f8be0079c531659141344cd1fd0a4f28419497f9722a3daafe3b4186f6b6457e08280a380f35b50913461049f57602036600319011261049f5750610692602092356121a0565b509034610318578260031936011261031857610979611b6f565b610981611fff565b91835b8351811015610a26576109978185611bf7565b5160025484516331a9108f60e11b815284810192909252602091908290829060249082906001600160a01b03165afa918215610a1c57916109e5916109ea949389926109ef575b5050611ec9565b611be8565b610984565b610a0e9250803d10610a15575b610a0681836111a6565b81019061127e565b38806109de565b503d6109fc565b85513d89823e3d90fd5b8480f35b5050346106e357816003193601126106e35760ff6020925460a01c169051908152f35b833461049f578060031936011261049f5761049c33611ec9565b50903461031857610a7736611067565b92610a9260018060a09998999594951b038b54163314611370565b875194610ac36020870187610aa730836113bb565b0397610abb601f19998a81018352826111a6565b519020611535565b15610b5957505050505090610afe610b0d928551610af6602082019282610aea30866113e8565b039081018352826111a6565b519020611498565b6020815191012092369161142a565b6020815191012003610b245750505b61049c6115c6565b906020606492519162461bcd60e51b8352820152600f60248201526e0e0eac496caf240dad2e6dac2e8c6d608b1b6044820152fd5b939750935093610b6c9750949094611917565b610b1c565b5050346106e357816003193601126106e35780610b9f610bb292516020810190610af6816107b130856113e8565b905191829160208352602083019061100f565b0390f35b5050346106e357816003193601126106e357610bd0611fff565b815192839260208080860192818752855180945286019401925b828110610bf957505050500390f35b835185528695509381019392810192600101610bea565b509190346106e357806003193601126106e3578235602480359060ff60015460a01c1686811015610ea757600103610e655760025484516331a9108f60e11b81528781018590526020946001600160a01b039290919083169086818681855afa908115610e5b579084918a91610e3e575b50163303610e0c5784610cba8851888101906d19195c1bdcda5d0b985b5bdd5b9d60921b825285602e820152602e81526102608161116e565b10610dd3578798868592899a995193848092630178b36760e31b825287868301525afa8015610dc9578794610cfe8a926044958491610dac575b5082163014611b2f565b610d428b51878101906f636f6e74726163742e6164647265737360801b82526e233932b739a837b7b629b2ba3a32b960891b6030820152601f81526105518161118a565b16878b519788968795630441a3e760e41b87528601528401525af1918215610da257849384938493610d7b92859261058c575050611261565b818115610d99575b3390f115610d8f575080f35b51903d90823e3d90fd5b506108fc610d83565b85513d86823e3d90fd5b610dc39150883d8a11610a1557610a0681836111a6565b38610cf4565b89513d8a823e3d90fd5b865162461bcd60e51b8152808a01879052601481860152731b9bdd08195b9bdd59da0819195c1bdcda5d195960621b6044820152606490fd5b865162461bcd60e51b8152808a01879052600d818601526c3737ba103a34329037bbb732b960991b6044820152606490fd5b610e559150883d8a11610a1557610a0681836111a6565b38610c81565b88513d8b823e3d90fd5b85601b606492602087519362461bcd60e51b85528401528201527f63616e6e6f74207769746864726177206f6e6365207374616b656400000000006044820152fd5b50634e487b7160e01b85526021865284fd5b833461049f578060031936011261049f57610b1c60018060a01b038254163314611370565b50913461049f57602036600319011261049f57506106926020928251848101916d19195c1bdcda5d0b985b5bdd5b9d60921b835235602e820152602e81526102608161116e565b833461049f578060031936011261049f57610f4a60018060a01b038254163314611370565b60644711610f69575b6001805460ff60a01b1916600360a01b17905580f35b610f71611c21565b610f53565b8382346106e35760203660031901126106e357356001600160a01b03811681036106e35761049c90611ec9565b5050346106e357816003193601126106e357610bb290610b9f6121c8565b83853461049f578060031936011261049f575061069282602080940190610260816107b13085611116565b60005b838110610fff5750506000910152565b8181015183820152602001610fef565b9060209161102881518092818552858086019101610fec565b601f01601f1916010190565b9181601f840112156110625782359167ffffffffffffffff8311611062576020838186019501011161106257565b600080fd5b9060806003198301126110625767ffffffffffffffff600435818111611062578361109491600401611034565b9390939260243583811161106257826110af91600401611034565b93909392604435918211611062576110c991600401611034565b909160643590565b156110d857565b60405162461bcd60e51b81526020600482015260166024820152756e6f7420616363657074696e67206465706f7369747360501b6044820152606490fd5b6022916d746f74616c2e6465706f7369747360901b82526001600160601b03199060601b16600e8201520190565b67ffffffffffffffff811161115857604052565b634e487b7160e01b600052604160045260246000fd5b6060810190811067ffffffffffffffff82111761115857604052565b6040810190811067ffffffffffffffff82111761115857604052565b90601f8019910116810190811067ffffffffffffffff82111761115857604052565b919082018092116111d557565b634e487b7160e01b600052601160045260246000fd5b156111f257565b60405162461bcd60e51b815260206004820152602960248201527f746f74616c206465706f736974732063616e6e6f74206265206d6f72652074686044820152680c2dc406664408ae8d60bb1b6064820152608490fd5b90816020910312611062575180151581036110625790565b1561126857565b634e487b7160e01b600052600160045260246000fd5b9081602091031261106257516001600160a01b03811681036110625790565b6001546040516321f8a72160e01b81526004810192909252602090829060249082906001600160a01b03165afa9081156112f7576000916112dc575090565b6112f4915060203d8111610a1557610a0681836111a6565b90565b6040513d6000823e3d90fd5b60015460405163bd02d0f560e01b81526004810192909252602090829060249082906001600160a01b03165afa9081156112f757600091611342575090565b906020823d8211611368575b8161135b602093836111a6565b8101031261049f57505190565b3d915061134e565b1561137757565b606460405162461bcd60e51b815260206004820152602060248201527f4f776e61626c653a2063616c6c6572206973206e6f7420746865206f776e65726044820152fd5b6021916c1d985b1a59185d1bdc8b9cd95d609a1b82526001600160601b03199060601b16600d8201520190565b601a91657075624b657960d01b82526001600160601b03199060601b1660068201520190565b67ffffffffffffffff811161115857601f01601f191660200190565b9291926114368261140e565b9161144460405193846111a6565b829481845281830111611062578281602093846000960137010152565b9092919261146e8161140e565b9161147c60405193846111a6565b829482845282820111611062576020611496930190610fec565b565b600154604051630180634360e71b815260048101929092526000908190839060249082906001600160a01b03165afa9182156115285781926114d957505090565b909291503d8084833e6114ec81836111a6565b8101906020818303126106555780519067ffffffffffffffff8211610466570181601f82011215610655576112f4929350602081519101611461565b50604051903d90823e3d90fd5b600154604051633d70e7e560e11b81526004810192909252602090829060249082906001600160a01b03165afa9081156112f757600091611574575090565b6112f4915060203d81116103425761033481836111a6565b1561159357565b60405162461bcd60e51b815260206004820152600b60248201526a77726f6e6720737461746560a81b6044820152606490fd5b6801bc16d674ec800000908147106118c0576001549160ff8360a01c1660048110156118aa5760016115f8911461158c565b60409081516020906116258282018261161130836113bb565b0392610abb601f19948581018352826111a6565b1561187257611642908451610af68482019282610aea30866113e8565b83519561167f838801757769746864726177616c5f63726564656e7469616c7360501b81523060601b98896036820152602a8152610af68161116e565b936116ab865185810190687369676e617475726560b81b82528a6029820152601d8152610af68161118a565b978651858101917019195c1bdcda5d17d9185d1857dc9bdbdd607a1b83526031820152602581526116db8161116e565b5190208651635376ab1f60e11b81526004810191909152916001600160a01b039085846024818585165afa93841561186757600094611838575b506117678851878101907f65787465726e616c2e636f6e74726163742e616464726573730000000000000082526e11195c1bdcda5d10dbdb9d1c9858dd608a1b6039820152602881526105518161116e565b60ff60a01b19909116600160a11b176001551694853b15611062576000936117c7936117d66117b4938a519c8d97889687966304512a2360e31b885260806004890152608488019061100f565b600319938488830301602489015261100f565b9185830301604486015261100f565b9060648301520391865af194851561182d577f72b356fd889b9abd3530accd2c9f4aecbce67d70757181f9f862ac91464ce192949561181e575b5082519182523390820152a1565b61182790611144565b38611810565b83513d6000823e3d90fd5b90938682813d8311611860575b61184f81836111a6565b8101031261049f5750519238611715565b503d611845565b88513d6000823e3d90fd5b835162461bcd60e51b81526004810183905260116024820152701d985b1a59185d1bdc881b9bdd081cd95d607a1b6044820152606490fd5b634e487b7160e01b600052602160045260246000fd5b60405162461bcd60e51b815260206004820152600e60248201526d0dcdee840cadcdeeaced040cae8d60931b6044820152606490fd5b908060209392818452848401376000828201840152601f01601f1916010190565b96959293949096600160f81b3001958630116111d55760409889516020988982019081528982526119478261118a565b611952368a8961142a565b8a81519101209151902003611aeb576119968a51898101906f1d985b1a59185d1bdc8b9b1bd8dad95960821b82523060601b603082015260248152610abb8161116e565b611a99575b60ff60015460a01c169560048710156118aa57611a69611a46968c966000956119c760018e9c1461158c565b611a5a8951611a218d82016f636f6e74726163742e6164647265737360801b81526e233932b739a837b7b629b2ba3a32b960891b6030840152601f8352611a0d8361118a565b91519091206001600160a01b03919061129d565b1699519c8d9b8c9a8b996303a483bb60e61b8b52608060048c015260848b01916118f6565b9060031995868a84030160248b01526118f6565b928684030160448701526118f6565b90606483015203925af1918215611a8e5761149693945060009261058c575050611261565b84513d6000823e3d90fd5b60015460ff8160a01c1660048110156118aa57611ab6901561158c565b611ad6611ad08c518b810190610abb816107b130856113bb565b15611261565b60ff60a01b1916600160a01b1760015561199b565b895162461bcd60e51b815260048101899052601e60248201527f7769746864726177616c2063726564656e7469616c206d69736d6174636800006044820152606490fd5b15611b3657565b60405162461bcd60e51b81526020600482015260116024820152701ddc9bdb99c81c1bdbdb08199bdc881a59607a1b6044820152606490fd5b60ff60015460a01c1660048110156118aa57600114611b9057611496611c21565b60405162461bcd60e51b815260206004820152601c60248201527f757365207769746864726177207768656e206e6f74207374616b6564000000006044820152606490fd5b818102929181159184041417156111d557565b60001981146111d55760010190565b8051821015611c0b5760209160051b010190565b634e487b7160e01b600052603260045260246000fd5b47906064821115611e85576040918251611c5a602091828101906b70726f746f636f6c2e66656560a01b8252600c81526102608161118a565b80611e10575b50611c69611fff565b60005b8151811015611dab57611c7f8183611bf7565b5160025487516331a9108f60e11b8152600480820184905293926024926001600160a01b03929190889083908690829087165afa8b8115611da15789958b604495600094611d7b575b50611cd69060009495611f60565b9086611d1c84518a8101906f636f6e74726163742e6164647265737360801b82526e233932b739a837b7b629b2ba3a32b960891b6030820152601f81526105518161118a565b169251998a978896631f72642160e31b885216908601528401525af1918215611d7057611d54926109e591600091611d595750611261565b611c6c565b61033c9150863d88116103425761033481836111a6565b87513d6000823e3d90fd5b6000945090611d99611cd6928a3d8c11610a1557610a0681836111a6565b945090611cc8565b513d6000823e3d90fd5b505060008080938193969596611df587519182016f636f6e74726163742e6164647265737360801b8152694672656e73436c61696d60b01b6030840152601a8352611a0d8361118a565b16828215611e07575bf115611da15750565b506108fc611dfe565b600080809394926064611e4d8395611e478b518a8101906c1999594b9c9958da5c1a595b9d609a1b8252600d81526105518161118a565b93611bd5565b049082908215611e7b575b6001600160a01b031690f115611e7057479038611c60565b82513d6000823e3d90fd5b6108fc9150611e58565b606460405162461bcd60e51b815260206004820152602060248201527f6d696e696d756d206f66203130302077656920746f20646973747269627574656044820152fd5b6040519060208201916f636f6e74726163742e6164647265737360801b8352694672656e73436c61696d60b01b6030820152601a8152611f088161118a565b519091206001600160a01b0391908290611f219061129d565b1691823b15611062576024600092836040519586948593630f41a04d60e11b85521660048401525af180156112f757611f575750565b61149690611144565b611f929060405160208101916d19195c1bdcda5d0b985b5bdd5b9d60921b8352602e820152602e81526102608161116e565b90611fac6040516020810190610260816107b13085611116565b918015611ff757611fbc91611bd5565b8115611fe157046001811115611fdb5760001981019081116111d55790565b50600090565b634e487b7160e01b600052601260045260246000fd5b505050600090565b604051602090818101906a1a591ccb9a5b8b9c1bdbdb60aa1b82523060601b602b820152601f81526120308161118a565b5190206001546040516378267eb560e11b81526004810192909252600092908390839060249082906001600160a01b03165afa92831561211f578093612077575b50505090565b909192503d8082853e61208a81856111a6565b830190828483031261049f57835167ffffffffffffffff94858211610318570182601f820112156106e357805194851161210b578460051b91604051956120d3868501886111a6565b8652848087019383010193841161049f57508301905b8282106120fc5750505050388080612071565b815181529083019083016120e9565b634e487b7160e01b82526041600452602482fd5b604051903d90823e3d90fd5b600254604051630178b36760e31b8152600481018390526001600160a01b0392916020908290602490829087165afa80156112f7576112f49361217992600092612180575b50163014611b2f565b4790611f60565b61219991925060203d8111610a1557610a0681836111a6565b9038612170565b60ff60015460a01c1660048110156118aa576001036121bf5750600090565b6112f49061212b565b60ff60015460a01c1660048110156118aa5780156122945760028114612271576001811461224257600314612220576040516122038161118a565b600d81526c7374617465206661696c75726560981b602082015290565b60405161222c8161118a565b6006815265195e1a5d195960d21b602082015290565b5060405161224f8161118a565b6012815271616363657074696e67206465706f7369747360701b602082015290565b5060405161227e8161118a565b60068152651cdd185ad95960d21b602082015290565b506040516122a18161118a565b601781527f6177616974696e672076616c696461746f7220696e666f00000000000000000060208201529056fea2646970667358221220890478fad686246d28d9d6a3c6ef159b3c576c7c4365099b08b16a20892f2b3364736f6c63430008110033a26469706673582212205a6d42f959b53f5c3d021593ee0e761f01354d0d21ec8599ea28138b63506f2a64736f6c63430008110033",
    "linkReferences": {}
  },
  "methodIdentifiers": {
    "create(address,bool)": "319e9090",
    "version()": "54fd4d50"
  },
  "id": 12
}