{
  "abi": [
    {
      "inputs": [],
      "stateMutability": "nonpayable",
      "type": "constructor"
    },
    {
      "anonymous": false,
      "inputs": [
        {
          "indexed": false,
          "internalType": "address",
          "name": "oldGuardian",
          "type": "address"
        },
        {
          "indexed": false,
          "internalType": "address",
          "name": "newGuardian",
          "type": "address"
        }
      ],
      "name": "GuardianChanged",
      "type": "event"
    },
    {
      "anonymous": false,
      "inputs": [
        {
          "indexed": true,
          "internalType": "address",
          "name": "node",
          "type": "address"
        },
        {
          "indexed": true,
          "internalType": "address",
          "name": "withdrawalAddress",
          "type": "address"
        },
        {
          "indexed": false,
          "internalType": "uint256",
          "name": "time",
          "type": "uint256"
        }
      ],
      "name": "NodeWithdrawalAddressSet",
      "type": "event"
    },
    {
      "inputs": [
        {
          "internalType": "bytes32",
          "name": "_key",
          "type": "bytes32"
        },
        {
          "internalType": "uint256",
          "name": "_amount",
          "type": "uint256"
        }
      ],
      "name": "addUint",
      "outputs": [],
      "stateMutability": "nonpayable",
      "type": "function"
    },
    {
      "inputs": [],
      "name": "confirmGuardian",
      "outputs": [],
      "stateMutability": "nonpayable",
      "type": "function"
    },
    {
      "inputs": [
        {
          "internalType": "bytes32",
          "name": "_key",
          "type": "bytes32"
        }
      ],
      "name": "deleteAddress",
      "outputs": [],
      "stateMutability": "nonpayable",
      "type": "function"
    },
    {
      "inputs": [
        {
          "internalType": "bytes32",
          "name": "_key",
          "type": "bytes32"
        }
      ],
      "name": "deleteArray",
      "outputs": [],
      "stateMutability": "nonpayable",
      "type": "function"
    },
    {
      "inputs": [
        {
          "internalType": "bytes32",
          "name": "_key",
          "type": "bytes32"
        }
      ],
      "name": "deleteBool",
      "outputs": [],
      "stateMutability": "nonpayable",
      "type": "function"
    },
    {
      "inputs": [
        {
          "internalType": "bytes32",
          "name": "_key",
          "type": "bytes32"
        }
      ],
      "name": "deleteBytes",
      "outputs": [],
      "stateMutability": "nonpayable",
      "type": "function"
    },
    {
      "inputs": [
        {
          "internalType": "bytes32",
          "name": "_key",
          "type": "bytes32"
        }
      ],
      "name": "deleteBytes32",
      "outputs": [],
      "stateMutability": "nonpayable",
      "type": "function"
    },
    {
      "inputs": [
        {
          "internalType": "bytes32",
          "name": "_key",
          "type": "bytes32"
        }
      ],
      "name": "deleteInt",
      "outputs": [],
      "stateMutability": "nonpayable",
      "type": "function"
    },
    {
      "inputs": [
        {
          "internalType": "bytes32",
          "name": "_key",
          "type": "bytes32"
        }
      ],
      "name": "deleteString",
      "outputs": [],
      "stateMutability": "nonpayable",
      "type": "function"
    },
    {
      "inputs": [
        {
          "internalType": "bytes32",
          "name": "_key",
          "type": "bytes32"
        }
      ],
      "name": "deleteUint",
      "outputs": [],
      "stateMutability": "nonpayable",
      "type": "function"
    },
    {
      "inputs": [
        {
          "internalType": "bytes32",
          "name": "_key",
          "type": "bytes32"
        }
      ],
      "name": "getAddress",
      "outputs": [
        {
          "internalType": "address",
          "name": "r",
          "type": "address"
        }
      ],
      "stateMutability": "view",
      "type": "function"
    },
    {
      "inputs": [
        {
          "internalType": "bytes32",
          "name": "_key",
          "type": "bytes32"
        }
      ],
      "name": "getArray",
      "outputs": [
        {
          "internalType": "uint256[]",
          "name": "",
          "type": "uint256[]"
        }
      ],
      "stateMutability": "view",
      "type": "function"
    },
    {
      "inputs": [
        {
          "internalType": "bytes32",
          "name": "_key",
          "type": "bytes32"
        }
      ],
      "name": "getBool",
      "outputs": [
        {
          "internalType": "bool",
          "name": "r",
          "type": "bool"
        }
      ],
      "stateMutability": "view",
      "type": "function"
    },
    {
      "inputs": [
        {
          "internalType": "bytes32",
          "name": "_key",
          "type": "bytes32"
        }
      ],
      "name": "getBytes",
      "outputs": [
        {
          "internalType": "bytes",
          "name": "",
          "type": "bytes"
        }
      ],
      "stateMutability": "view",
      "type": "function"
    },
    {
      "inputs": [
        {
          "internalType": "bytes32",
          "name": "_key",
          "type": "bytes32"
        }
      ],
      "name": "getBytes32",
      "outputs": [
        {
          "internalType": "bytes32",
          "name": "r",
          "type": "bytes32"
        }
      ],
      "stateMutability": "view",
      "type": "function"
    },
    {
      "inputs": [],
      "name": "getDeployedStatus",
      "outputs": [
        {
          "internalType": "bool",
          "name": "",
          "type": "bool"
        }
      ],
      "stateMutability": "view",
      "type": "function"
    },
    {
      "inputs": [],
      "name": "getGuardian",
      "outputs": [
        {
          "internalType": "address",
          "name": "",
          "type": "address"
        }
      ],
      "stateMutability": "view",
      "type": "function"
    },
    {
      "inputs": [
        {
          "internalType": "bytes32",
          "name": "_key",
          "type": "bytes32"
        }
      ],
      "name": "getInt",
      "outputs": [
        {
          "internalType": "int256",
          "name": "r",
          "type": "int256"
        }
      ],
      "stateMutability": "view",
      "type": "function"
    },
    {
      "inputs": [
        {
          "internalType": "bytes32",
          "name": "_key",
          "type": "bytes32"
        }
      ],
      "name": "getString",
      "outputs": [
        {
          "internalType": "string",
          "name": "",
          "type": "string"
        }
      ],
      "stateMutability": "view",
      "type": "function"
    },
    {
      "inputs": [
        {
          "internalType": "bytes32",
          "name": "_key",
          "type": "bytes32"
        }
      ],
      "name": "getUint",
      "outputs": [
        {
          "internalType": "uint256",
          "name": "r",
          "type": "uint256"
        }
      ],
      "stateMutability": "view",
      "type": "function"
    },
    {
      "inputs": [
        {
          "internalType": "bytes32",
          "name": "_key",
          "type": "bytes32"
        },
        {
          "internalType": "uint256",
          "name": "_amount",
          "type": "uint256"
        }
      ],
      "name": "pushUint",
      "outputs": [],
      "stateMutability": "nonpayable",
      "type": "function"
    },
    {
      "inputs": [
        {
          "internalType": "bytes32",
          "name": "_key",
          "type": "bytes32"
        },
        {
          "internalType": "address",
          "name": "_value",
          "type": "address"
        }
      ],
      "name": "setAddress",
      "outputs": [],
      "stateMutability": "nonpayable",
      "type": "function"
    },
    {
      "inputs": [
        {
          "internalType": "bytes32",
          "name": "_key",
          "type": "bytes32"
        },
        {
          "internalType": "uint256[]",
          "name": "_value",
          "type": "uint256[]"
        }
      ],
      "name": "setArray",
      "outputs": [],
      "stateMutability": "nonpayable",
      "type": "function"
    },
    {
      "inputs": [
        {
          "internalType": "bytes32",
          "name": "_key",
          "type": "bytes32"
        },
        {
          "internalType": "bool",
          "name": "_value",
          "type": "bool"
        }
      ],
      "name": "setBool",
      "outputs": [],
      "stateMutability": "nonpayable",
      "type": "function"
    },
    {
      "inputs": [
        {
          "internalType": "bytes32",
          "name": "_key",
          "type": "bytes32"
        },
        {
          "internalType": "bytes",
          "name": "_value",
          "type": "bytes"
        }
      ],
      "name": "setBytes",
      "outputs": [],
      "stateMutability": "nonpayable",
      "type": "function"
    },
    {
      "inputs": [
        {
          "internalType": "bytes32",
          "name": "_key",
          "type": "bytes32"
        },
        {
          "internalType": "bytes32",
          "name": "_value",
          "type": "bytes32"
        }
      ],
      "name": "setBytes32",
      "outputs": [],
      "stateMutability": "nonpayable",
      "type": "function"
    },
    {
      "inputs": [],
      "name": "setDeployedStatus",
      "outputs": [],
      "stateMutability": "nonpayable",
      "type": "function"
    },
    {
      "inputs": [
        {
          "internalType": "address",
          "name": "_newAddress",
          "type": "address"
        }
      ],
      "name": "setGuardian",
      "outputs": [],
      "stateMutability": "nonpayable",
      "type": "function"
    },
    {
      "inputs": [
        {
          "internalType": "bytes32",
          "name": "_key",
          "type": "bytes32"
        },
        {
          "internalType": "int256",
          "name": "_value",
          "type": "int256"
        }
      ],
      "name": "setInt",
      "outputs": [],
      "stateMutability": "nonpayable",
      "type": "function"
    },
    {
      "inputs": [
        {
          "internalType": "bytes32",
          "name": "_key",
          "type": "bytes32"
        },
        {
          "internalType": "string",
          "name": "_value",
          "type": "string"
        }
      ],
      "name": "setString",
      "outputs": [],
      "stateMutability": "nonpayable",
      "type": "function"
    },
    {
      "inputs": [
        {
          "internalType": "bytes32",
          "name": "_key",
          "type": "bytes32"
        },
        {
          "internalType": "uint256",
          "name": "_value",
          "type": "uint256"
        }
      ],
      "name": "setUint",
      "outputs": [],
      "stateMutability": "nonpayable",
      "type": "function"
    },
    {
      "inputs": [
        {
          "internalType": "bytes32",
          "name": "_key",
          "type": "bytes32"
        },
        {
          "internalType": "uint256",
          "name": "_amount",
          "type": "uint256"
        }
      ],
      "name": "subUint",
      "outputs": [],
      "stateMutability": "nonpayable",
      "type": "function"
    }
  ],
  "bytecode": {
    "object": "0x60808060405234610035576009805460ff60a01b19169055600880546001600160a01b0319163317905561187f908161003b8239f35b600080fdfe608060409080825260048036101561001657600080fd5b60009283803560e01c9384630b9adc571461148f57505082630e14a376146113d85782631bed5241146113b15782631e0ea61e146112dc57826321f8a721146112aa5782632c62ff2d146111f65782632e28d084146110b15782633e49bed014610ffe5782634d1d384114610f2c5782634e91db0814610e7957838363616b59f614610dc55750826363a4b67b14610c795782636e89955014610af45782637ae1cfca14610ac75782638a0dac4a14610a7b578383638c16009514610a3a57508263986e791a14610a07578263a6ed563e146109df578263a75b87d2146109b6578263abfdcced146108e8578263adb353dc14610829578263bd02d0f514610801578263c031a180146107b0578263ca446dd9146106d9578263dc97d962146106b1578263e2a4853a1461060057838363e2b202bf1461055057508263ebb9d8c91461047e578263f04cfd6a146103dc579083918363f0be0056146102dd578363f6bb3cc4146101d05750505063febffd991461019257600080fd5b346101cd57806003193601126101cd576101b760018060a01b0360085416331461158d565b6009805460ff60a01b1916600160a01b17905580f35b80fd5b829350346102d957602091826003193601126102d45760095460a01c60ff1615156001036102875781518381019061021a8161020c33856116e1565b03601f1981018352826116a9565b51902084526005835261023260ff8386205416611793565b35835282825282209061024582546115d9565b908161025057505050f35b81601f859311600114610264575050505580f35b83835281832061027f91601f0160051c8101906001016117eb565b812091555580f35b81518381019061029b8161020c33856116e1565b51902084526005835260ff828520541680156102c0575b6102bb90611710565b610232565b506008546001600160a01b031632146102b2565b505050fd5b5050fd5b90346103d8576102ec36611577565b9290600160ff60095460a01c1615151460001461038957815160208101906103188161020c33856116e1565b5190208552600560205261033160ff8387205416611793565b845260076020528320805491600160401b83101561037657600183018083558310156103635750835260208320015580f35b634e487b7160e01b855260329052602484fd5b634e487b7160e01b855260419052602484fd5b8151602081019061039e8161020c33856116e1565b5190208552600560205260ff828620541680156103c4575b6103bf90611710565b610331565b506008546001600160a01b031632146103b6565b8280fd5b9083346101cd576020918260031936011261047a5792919235815260078352818120908251808584549182815201908194845286842090845b818110610466575050508161042b9103826116a9565b83519485948186019282875251809352850193925b82811061044f57505050500390f35b835185528695509381019392810192600101610440565b825484529288019260019283019201610415565b5080fd5b9150346103d85761048e36611577565b9290600160ff60095460a01c1615151460001461050157815160208101906104ba8161020c33856116e1565b519020855260056020526104d360ff8387205416611793565b8452600260205283209081549283039283116104ee57505580f35b634e487b7160e01b845260119052602483fd5b815160208101906105168161020c33856116e1565b5190208552600560205260ff8286205416801561053c575b61053790611710565b6104d3565b506008546001600160a01b0316321461052e565b925090346102d9576020806003193601126102d457600291600160ff60095460a01c161515146000146105b3578351828101906105918161020c33856116e1565b5190208552600582526105a960ff8587205416611793565b3584525281205580f35b8351828101906105c78161020c33856116e1565b51902085526005825260ff848620541680156105ec575b6105e790611710565b6105a9565b506008546001600160a01b031632146105de565b83903461047a5761061036611577565b9190600160ff60095460a01c16151514600014610662578151602081019061063c8161020c33856116e1565b5190208452600560205261065560ff8386205416611793565b8352600260205282205580f35b815160208101906106778161020c33856116e1565b5190208452600560205260ff8285205416801561069d575b61069890611710565b610655565b506008546001600160a01b0316321461068f565b9150346103d85760203660031901126103d85760209282913581526003845220549051908152f35b909150346103d857806003193601126103d8576024356001600160a01b0381811693918490036107ac5760095460a01c60ff16151560010361076157508151602081019061072b8161020c33856116e1565b5190208452600560205261074460ff8386205416611793565b80358452602052822080546001600160a01b031916909117905580f35b610799908351602081019061077a8161020c33856116e1565b5190208652600560205260ff848720541690811561079e575b50611710565b610744565b905060085416321438610793565b8480fd5b9150346103d85760203660031901126103d857906107eb816107fd946107e494358152600160205220825193848092611613565b03836116a9565b51918291602083526020830190611537565b0390f35b9150346103d85760203660031901126103d85760209282913581526002845220549051908152f35b9150346103d85761083936611577565b9290600160ff60095460a01c1615151460001461089957815160208101906108658161020c33856116e1565b5190208552600560205261087e60ff8387205416611793565b8452600260205283209081549283018093116104ee57505580f35b815160208101906108ae8161020c33856116e1565b5190208552600560205260ff828620541680156108d4575b6108cf90611710565b61087e565b506008546001600160a01b031632146108c6565b909150346103d857806003193601126103d857602435918215158093036109b25760095460a01c60ff16151560010361096357815160208101906109308161020c33856116e1565b5190208452600560205261094960ff8386205416611793565b358352600560205282209060ff8019835416911617905580f35b815160208101906109788161020c33856116e1565b5190208452600560205260ff8285205416801561099e575b61099990611710565b610949565b506008546001600160a01b03163214610990565b8380fd5b83903461047a578160031936011261047a5760085490516001600160a01b039091168152602090f35b9150346103d85760203660031901126103d85760209282913581526006845220549051908152f35b9150346103d85760203660031901126103d857906107eb816107fd946107e4943581528060205220825193848092611613565b925090346102d9576020806003193601126102d457600391600160ff60095460a01c161515146000146105b3578351828101906105918161020c33856116e1565b83823461047a57602036600319011261047a57356001600160a01b03818116918290036103d857610ab19060085416331461158d565b6001600160601b0360a01b600954161760095580f35b9150346103d85760203660031901126103d8578160209360ff923581526005855220541690519015158152f35b909150346103d857610b05366114e5565b9192906001938460ff60095460a01c16151514600014610c2a5782516020810190610b348161020c33856116e1565b51902087526005602052610b4d60ff8489205416611793565b865260209186835286209467ffffffffffffffff8411610c175750610b7c83610b7687546115d9565b87611802565b8591601f8411600114610bb657509282939183928794610bab575b50501b916000199060031b1c191617905580f35b013592503880610b97565b9183601f1981168789528489209489905b88838310610bfd5750505010610be3575b505050811b01905580f35b0135600019600384901b60f8161c19169055388080610bd8565b868601358855909601959384019387935090810190610bc7565b634e487b7160e01b875260419052602486fd5b82516020810190610c3f8161020c33856116e1565b5190208752600560205260ff83882054168015610c65575b610c6090611710565b610b4d565b506008546001600160a01b03163214610c57565b909150346103d857806003193601126103d8576024359167ffffffffffffffff918284116107ac57366023850112156107ac57838201359283116107ac573660248460051b860101116107ac576001938460ff60095460a01c16151514600014610d765781516020810190610cf28161020c33856116e1565b51902086526005602052610d0b60ff8388205416611793565b8235865260209160078352862092600160401b8511610c1757506024908354858555808610610d5c575b500191855280852090855b848110610d4b578680f35b833583820155928101928501610d40565b848852838820610d709181019087016117eb565b38610d35565b81516020810190610d8b8161020c33856116e1565b5190208652600560205260ff82872054168015610db1575b610dac90611710565b610d0b565b506008546001600160a01b03163214610da3565b9250346102d957602091826003193601126102d45760095460a01c60ff161515600103610e2c57815183810190610e008161020c33856116e1565b519020845260058352610e1860ff8386205416611793565b3583526001825282209061024582546115d9565b815183810190610e408161020c33856116e1565b51902084526005835260ff82852054168015610e65575b610e6090611710565b610e18565b506008546001600160a01b03163214610e57565b9150346103d857816003193601126103d85760095460a01c60ff161515600103610edd5781516020810190610eb28161020c33856116e1565b51902083526005602052610ecb60ff8385205416611793565b35825260066020526024359082205580f35b81516020810190610ef28161020c33856116e1565b5190208352600560205260ff82842054168015610f18575b610f1390611710565b610ecb565b506008546001600160a01b03163214610f0a565b909150346103d857602091826003193601126109b25760095460a01c60ff161515600103610fb157815183810190610f688161020c33856116e1565b519020845260058352610f8060ff8386205416611793565b3583526007825282209081549083835581610f99578380f35b610faa9284528320908101906117eb565b3880808380f35b815183810190610fc58161020c33856116e1565b51902084526005835260ff82852054168015610fea575b610fe590611710565b610f80565b506008546001600160a01b03163214610fdc565b9150346103d857816003193601126103d85760095460a01c60ff16151560010361106257815160208101906110378161020c33856116e1565b5190208352600560205261105060ff8385205416611793565b35825260036020526024359082205580f35b815160208101906110778161020c33856116e1565b5190208352600560205260ff8284205416801561109d575b61109890611710565b611050565b506008546001600160a01b0316321461108f565b909150346103d8576110c2366114e5565b9192906001938460ff60095460a01c161515146000146111a757825160208101906110f18161020c33856116e1565b5190208752600560205261110a60ff8489205416611793565b865260209184835286209467ffffffffffffffff8411610c17575061113383610b7687546115d9565b8591601f841160011461116157509282939183928794610bab5750501b916000199060031b1c191617905580f35b9183601f1981168789528489209489905b8883831061118d5750505010610be357505050811b01905580f35b868601358855909601959384019387935090810190611172565b825160208101906111bc8161020c33856116e1565b5190208752600560205260ff838820541680156111e2575b6111dd90611710565b61110a565b506008546001600160a01b031632146111d4565b9150346103d8576020806003193601126109b257600591600160ff60095460a01c1615151460001461125e578351828101906112368161020c33856116e1565b519020855282825261124d60ff8587205416611793565b358452528120805460ff1916905580f35b8351828101906112728161020c33856116e1565b519020855282825260ff84862054168015611296575b61129190611710565b61124d565b506008546001600160a01b03163214611288565b9150346103d85760203660031901126103d857803583526020908152918190205490516001600160a01b039091168152f35b83903461047a578160031936011261047a576009546001600160a01b0393848216903382900361135557507fa14fc14d8620a708a896fd11392a235647d99385500a295f0d7da2a258b2e9679394600854926001600160601b0360a01b908382861617600855166009558351921682526020820152a180f35b608490602085519162461bcd60e51b8352820152603060248201527f436f6e6669726d6174696f6e206d75737420636f6d652066726f6d206e65772060448201526f677561726469616e206164647265737360801b6064820152fd5b83903461047a578160031936011261047a5760209060ff60095460a01c1690519015158152f35b9150346103d8576020806003193601126109b25760095460a01c60ff161515600103611442578251818101906114128161020c33856116e1565b51902084526005815261142a60ff8486205416611793565b8135845252812080546001600160a01b031916905580f35b8251818101906114568161020c33856116e1565b51902084526005815260ff8385205416801561147b575b61147690611710565b61142a565b506008546001600160a01b0316321461146d565b91819284346102d457602090816003193601126107ac57600692600160ff60095460a01c161515146000146114d357508351828101906105918161020c33856116e1565b828101906105c78161020c33856116e1565b6040600319820112611532576004359160243567ffffffffffffffff9283821161153257806023830112156115325781600401359384116115325760248483010111611532576024019190565b600080fd5b919082519283825260005b848110611563575050826000602080949584010152601f8019910116010190565b602081830181015184830182015201611542565b6040906003190112611532576004359060243590565b1561159457565b60405162461bcd60e51b815260206004820152601760248201527f4973206e6f7420677561726469616e206163636f756e740000000000000000006044820152606490fd5b90600182811c92168015611609575b60208310146115f357565b634e487b7160e01b600052602260045260246000fd5b91607f16916115e8565b9060009291805491611624836115d9565b9182825260019384811690816000146116865750600114611646575b50505050565b90919394506000526020928360002092846000945b838610611672575050505001019038808080611640565b80548587018301529401938590820161165b565b9294505050602093945060ff191683830152151560051b01019038808080611640565b90601f8019910116810190811067ffffffffffffffff8211176116cb57604052565b634e487b7160e01b600052604160045260246000fd5b6023916e636f6e74726163742e65786973747360881b82526001600160601b03199060601b16600f8201520190565b1561171757565b60405162461bcd60e51b815260206004820152604860248201527f496e76616c6964206f72206f75746461746564206e6574776f726b20636f6e7460448201527f7261637420617474656d7074696e672061636365737320647572696e672064656064820152671c1b1bde5b595b9d60c21b608482015260a490fd5b1561179a57565b60405162461bcd60e51b8152602060048201526024808201527f496e76616c6964206f72206f75746461746564206e6574776f726b20636f6e746044820152631c9858dd60e21b6064820152608490fd5b8181106117f6575050565b600081556001016117eb565b9190601f811161181157505050565b61183d926000526020600020906020601f840160051c8301931061183f575b601f0160051c01906117eb565b565b909150819061183056fea2646970667358221220a5d8972a868f2e2558633eb2b41a25dd89d65569101549061227d084f7b7665e64736f6c63430008110033",
    "linkReferences": {}
  },
  "methodIdentifiers": {
    "addUint(bytes32,uint256)": "adb353dc",
    "confirmGuardian()": "1e0ea61e",
    "deleteAddress(bytes32)": "0e14a376",
    "deleteArray(bytes32)": "4d1d3841",
    "deleteBool(bytes32)": "2c62ff2d",
    "deleteBytes(bytes32)": "616b59f6",
    "deleteBytes32(bytes32)": "0b9adc57",
    "deleteInt(bytes32)": "8c160095",
    "deleteString(bytes32)": "f6bb3cc4",
    "deleteUint(bytes32)": "e2b202bf",
    "getAddress(bytes32)": "21f8a721",
    "getArray(bytes32)": "f04cfd6a",
    "getBool(bytes32)": "7ae1cfca",
    "getBytes(bytes32)": "c031a180",
    "getBytes32(bytes32)": "a6ed563e",
    "getDeployedStatus()": "1bed5241",
    "getGuardian()": "a75b87d2",
    "getInt(bytes32)": "dc97d962",
    "getString(bytes32)": "986e791a",
    "getUint(bytes32)": "bd02d0f5",
    "pushUint(bytes32,uint256)": "f0be0056",
    "setAddress(bytes32,address)": "ca446dd9",
    "setArray(bytes32,uint256[])": "63a4b67b",
    "setBool(bytes32,bool)": "abfdcced",
    "setBytes(bytes32,bytes)": "2e28d084",
    "setBytes32(bytes32,bytes32)": "4e91db08",
    "setDeployedStatus()": "febffd99",
    "setGuardian(address)": "8a0dac4a",
    "setInt(bytes32,int256)": "3e49bed0",
    "setString(bytes32,string)": "6e899550",
    "setUint(bytes32,uint256)": "e2a4853a",
    "subUint(bytes32,uint256)": "ebb9d8c9"
  },
  "id": 7
}