{
  "_format": "hh-sol-artifact-1",
  "contractName": "FrensPoolShare",
  "sourceName": "contracts/FrensPoolShare.sol",
  "abi": [
    {
      "inputs": [
        {
          "internalType": "address",
          "name": "factoryAddress_",
          "type": "address"
        },
        {
          "internalType": "address",
          "name": "ssvRegistryAddress_",
          "type": "address"
        }
      ],
      "stateMutability": "nonpayable",
      "type": "constructor"
    },
    {
      "anonymous": false,
      "inputs": [
        {
          "indexed": true,
          "internalType": "address",
          "name": "owner",
          "type": "address"
        },
        {
          "indexed": true,
          "internalType": "address",
          "name": "approved",
          "type": "address"
        },
        {
          "indexed": true,
          "internalType": "uint256",
          "name": "tokenId",
          "type": "uint256"
        }
      ],
      "name": "Approval",
      "type": "event"
    },
    {
      "anonymous": false,
      "inputs": [
        {
          "indexed": true,
          "internalType": "address",
          "name": "owner",
          "type": "address"
        },
        {
          "indexed": true,
          "internalType": "address",
          "name": "operator",
          "type": "address"
        },
        {
          "indexed": false,
          "internalType": "bool",
          "name": "approved",
          "type": "bool"
        }
      ],
      "name": "ApprovalForAll",
      "type": "event"
    },
    {
      "anonymous": false,
      "inputs": [
        {
          "indexed": true,
          "internalType": "address",
          "name": "previousOwner",
          "type": "address"
        },
        {
          "indexed": true,
          "internalType": "address",
          "name": "newOwner",
          "type": "address"
        }
      ],
      "name": "OwnershipTransferred",
      "type": "event"
    },
    {
      "anonymous": false,
      "inputs": [
        {
          "indexed": true,
          "internalType": "address",
          "name": "from",
          "type": "address"
        },
        {
          "indexed": true,
          "internalType": "address",
          "name": "to",
          "type": "address"
        },
        {
          "indexed": true,
          "internalType": "uint256",
          "name": "tokenId",
          "type": "uint256"
        }
      ],
      "name": "Transfer",
      "type": "event"
    },
    {
      "inputs": [
        {
          "internalType": "address",
          "name": "to",
          "type": "address"
        },
        {
          "internalType": "uint256",
          "name": "tokenId",
          "type": "uint256"
        }
      ],
      "name": "approve",
      "outputs": [],
      "stateMutability": "nonpayable",
      "type": "function"
    },
    {
      "inputs": [
        {
          "internalType": "address",
          "name": "owner",
          "type": "address"
        }
      ],
      "name": "balanceOf",
      "outputs": [
        {
          "internalType": "uint256",
          "name": "",
          "type": "uint256"
        }
      ],
      "stateMutability": "view",
      "type": "function"
    },
    {
      "inputs": [
        {
          "internalType": "uint256",
          "name": "_id",
          "type": "uint256"
        }
      ],
      "name": "exists",
      "outputs": [
        {
          "internalType": "bool",
          "name": "",
          "type": "bool"
        }
      ],
      "stateMutability": "view",
      "type": "function"
    },
    {
      "inputs": [
        {
          "internalType": "uint256",
          "name": "tokenId",
          "type": "uint256"
        }
      ],
      "name": "getApproved",
      "outputs": [
        {
          "internalType": "address",
          "name": "",
          "type": "address"
        }
      ],
      "stateMutability": "view",
      "type": "function"
    },
    {
      "inputs": [
        {
          "internalType": "uint256",
          "name": "amountInWei",
          "type": "uint256"
        }
      ],
      "name": "getEthDecimalString",
      "outputs": [
        {
          "internalType": "string",
          "name": "",
          "type": "string"
        }
      ],
      "stateMutability": "pure",
      "type": "function"
    },
    {
      "inputs": [
        {
          "internalType": "address",
          "name": "poolAddress",
          "type": "address"
        }
      ],
      "name": "getOperatorsForPool",
      "outputs": [
        {
          "internalType": "uint32[]",
          "name": "",
          "type": "uint32[]"
        },
        {
          "internalType": "bytes",
          "name": "",
          "type": "bytes"
        }
      ],
      "stateMutability": "view",
      "type": "function"
    },
    {
      "inputs": [
        {
          "internalType": "uint256",
          "name": "_id",
          "type": "uint256"
        }
      ],
      "name": "getPoolById",
      "outputs": [
        {
          "internalType": "address",
          "name": "",
          "type": "address"
        }
      ],
      "stateMutability": "view",
      "type": "function"
    },
    {
      "inputs": [],
      "name": "incrementTokenId",
      "outputs": [
        {
          "internalType": "uint256",
          "name": "",
          "type": "uint256"
        }
      ],
      "stateMutability": "nonpayable",
      "type": "function"
    },
    {
      "inputs": [
        {
          "internalType": "address",
          "name": "owner",
          "type": "address"
        },
        {
          "internalType": "address",
          "name": "operator",
          "type": "address"
        }
      ],
      "name": "isApprovedForAll",
      "outputs": [
        {
          "internalType": "bool",
          "name": "",
          "type": "bool"
        }
      ],
      "stateMutability": "view",
      "type": "function"
    },
    {
      "inputs": [
        {
          "internalType": "address",
          "name": "userAddress",
          "type": "address"
        },
        {
          "internalType": "uint256",
          "name": "id",
          "type": "uint256"
        },
        {
          "internalType": "address",
          "name": "_pool",
          "type": "address"
        }
      ],
      "name": "mint",
      "outputs": [],
      "stateMutability": "nonpayable",
      "type": "function"
    },
    {
      "inputs": [],
      "name": "name",
      "outputs": [
        {
          "internalType": "string",
          "name": "",
          "type": "string"
        }
      ],
      "stateMutability": "view",
      "type": "function"
    },
    {
      "inputs": [],
      "name": "owner",
      "outputs": [
        {
          "internalType": "address",
          "name": "",
          "type": "address"
        }
      ],
      "stateMutability": "view",
      "type": "function"
    },
    {
      "inputs": [
        {
          "internalType": "uint256",
          "name": "tokenId",
          "type": "uint256"
        }
      ],
      "name": "ownerOf",
      "outputs": [
        {
          "internalType": "address",
          "name": "",
          "type": "address"
        }
      ],
      "stateMutability": "view",
      "type": "function"
    },
    {
      "inputs": [
        {
          "internalType": "uint256",
          "name": "id",
          "type": "uint256"
        }
      ],
      "name": "renderTokenById",
      "outputs": [
        {
          "internalType": "string",
          "name": "",
          "type": "string"
        }
      ],
      "stateMutability": "view",
      "type": "function"
    },
    {
      "inputs": [],
      "name": "renounceOwnership",
      "outputs": [],
      "stateMutability": "nonpayable",
      "type": "function"
    },
    {
      "inputs": [
        {
          "internalType": "address",
          "name": "from",
          "type": "address"
        },
        {
          "internalType": "address",
          "name": "to",
          "type": "address"
        },
        {
          "internalType": "uint256",
          "name": "tokenId",
          "type": "uint256"
        }
      ],
      "name": "safeTransferFrom",
      "outputs": [],
      "stateMutability": "nonpayable",
      "type": "function"
    },
    {
      "inputs": [
        {
          "internalType": "address",
          "name": "from",
          "type": "address"
        },
        {
          "internalType": "address",
          "name": "to",
          "type": "address"
        },
        {
          "internalType": "uint256",
          "name": "tokenId",
          "type": "uint256"
        },
        {
          "internalType": "bytes",
          "name": "_data",
          "type": "bytes"
        }
      ],
      "name": "safeTransferFrom",
      "outputs": [],
      "stateMutability": "nonpayable",
      "type": "function"
    },
    {
      "inputs": [
        {
          "internalType": "address",
          "name": "operator",
          "type": "address"
        },
        {
          "internalType": "bool",
          "name": "approved",
          "type": "bool"
        }
      ],
      "name": "setApprovalForAll",
      "outputs": [],
      "stateMutability": "nonpayable",
      "type": "function"
    },
    {
      "inputs": [
        {
          "internalType": "bytes4",
          "name": "interfaceId",
          "type": "bytes4"
        }
      ],
      "name": "supportsInterface",
      "outputs": [
        {
          "internalType": "bool",
          "name": "",
          "type": "bool"
        }
      ],
      "stateMutability": "view",
      "type": "function"
    },
    {
      "inputs": [],
      "name": "symbol",
      "outputs": [
        {
          "internalType": "string",
          "name": "",
          "type": "string"
        }
      ],
      "stateMutability": "view",
      "type": "function"
    },
    {
      "inputs": [
        {
          "internalType": "uint256",
          "name": "index",
          "type": "uint256"
        }
      ],
      "name": "tokenByIndex",
      "outputs": [
        {
          "internalType": "uint256",
          "name": "",
          "type": "uint256"
        }
      ],
      "stateMutability": "view",
      "type": "function"
    },
    {
      "inputs": [
        {
          "internalType": "address",
          "name": "owner",
          "type": "address"
        },
        {
          "internalType": "uint256",
          "name": "index",
          "type": "uint256"
        }
      ],
      "name": "tokenOfOwnerByIndex",
      "outputs": [
        {
          "internalType": "uint256",
          "name": "",
          "type": "uint256"
        }
      ],
      "stateMutability": "view",
      "type": "function"
    },
    {
      "inputs": [
        {
          "internalType": "uint256",
          "name": "id",
          "type": "uint256"
        }
      ],
      "name": "tokenURI",
      "outputs": [
        {
          "internalType": "string",
          "name": "",
          "type": "string"
        }
      ],
      "stateMutability": "view",
      "type": "function"
    },
    {
      "inputs": [],
      "name": "totalSupply",
      "outputs": [
        {
          "internalType": "uint256",
          "name": "",
          "type": "uint256"
        }
      ],
      "stateMutability": "view",
      "type": "function"
    },
    {
      "inputs": [
        {
          "internalType": "address",
          "name": "from",
          "type": "address"
        },
        {
          "internalType": "address",
          "name": "to",
          "type": "address"
        },
        {
          "internalType": "uint256",
          "name": "tokenId",
          "type": "uint256"
        }
      ],
      "name": "transferFrom",
      "outputs": [],
      "stateMutability": "nonpayable",
      "type": "function"
    },
    {
      "inputs": [
        {
          "internalType": "address",
          "name": "newOwner",
          "type": "address"
        }
      ],
      "name": "transferOwnership",
      "outputs": [],
      "stateMutability": "nonpayable",
      "type": "function"
    }
  ],
  "bytecode": "0x608034620003cc576001600160401b0390601f1990601f906200598e3881900383810185168301919086831184841017620003b6578084926040948552833981010312620003cc576200005281620003f1565b93620000626020809301620003f1565b926200006d620003d1565b9260128452717374616b696e6720636f6e20616d69676f7360701b8185015262000096620003d1565b9060058252644652454e5360d81b81830152845196848811620003b6576000978854966001978881811c91168015620003ab575b85821014620003975790818784931162000344575b508490878311600114620002e3578b92620002d7575b5050600019600383901b1c191690871b1788555b8251948511620002c35785548681811c91168015620002b8575b83821014620002a4579081858796959493116200024b575b5081938511600114620001e65750508692620001da575b5050600019600383901b1c191690821b1790555b600a80546001600160a01b0319808216339081179093556040519590946001600160a01b03949385939091908416907f8be0079c531659141344cd1fd0a4f28419497f9722a3daafe3b4186f6b6457e09089a31683600d541617600d551690600e541617600e556155879081620004078239f35b01519050388062000152565b869593929193168589528389209389905b82821062000231575050841162000217575b505050811b01905562000166565b015160001960f88460031b161c1916905538808062000209565b8484015186558897909501949384019390810190620001f7565b9091929394508689528289208580880160051c8201928589106200029a575b9188978a9297969594930160051c01915b8281106200028b5750506200013b565b8b81558897508991016200027b565b925081926200026a565b634e487b7160e01b89526022600452602489fd5b90607f169062000123565b634e487b7160e01b88526041600452602488fd5b015190503880620000f5565b90848a9416918c8052868d20928d5b888282106200032d575050841162000313575b505050811b01885562000109565b015160001960f88460031b161c1916905538808062000305565b8385015186558d97909501949384019301620002f2565b9091508a8052848b208780850160051c8201928786106200038d575b918b91869594930160051c01915b8281106200037e575050620000df565b8d81558594508b91016200036e565b9250819262000360565b634e487b7160e01b8b52602260045260248bfd5b90607f1690620000ca565b634e487b7160e01b600052604160045260246000fd5b600080fd5b60408051919082016001600160401b03811183821017620003b657604052565b51906001600160a01b0382168203620003cc5756fe60806040526004361015610013575b600080fd5b60003560e01c806301ffc9a71461021b57806306fdde0314610212578063081812fc14610209578063095ea7b3146102005780630bc59b38146101f75780630d4d1513146101ee57806318160ddd146101e557806323b872dd146101dc5780632f745c59146101d357806342842e0e146101ca5780634f3130fa146101c15780634f558e79146101b85780634f6ccce7146101af5780636352211e146101a657806370a082311461019d578063715018a6146101945780638da5cb5b1461018b57806395d89b4114610182578063a090f9b414610179578063a22cb46514610170578063a2d6c6da14610167578063b88d4fde1461015e578063c87b56dd14610155578063e985e9c51461014c578063edd148a2146101435763f2fde38b1461013b57600080fd5b61000e6116c3565b5061000e6116a3565b5061000e611645565b5061000e610f4f565b5061000e610ec5565b5061000e610dcc565b5061000e610cdf565b5061000e610c5f565b5061000e610b9d565b5061000e610b73565b5061000e610b0e565b5061000e610ae2565b5061000e610ac3565b5061000e610a17565b5061000e6109db565b5061000e61093d565b5061000e6108f5565b5061000e610841565b5061000e610817565b5061000e6107c3565b5061000e6105be565b5061000e610589565b5061000e610499565b5061000e610426565b5061000e61031b565b5061000e610236565b6001600160e01b031981160361000e57565b503461000e57602036600319011261000e57602060043561025681610224565b63ffffffff60e01b1663780e9d6360e01b811490811561027c575b506040519015158152f35b6380ac58cd60e01b8114915081156102ae575b811561029d575b5038610271565b6301ffc9a760e01b14905038610296565b635b5e139f60e01b8114915061028f565b60005b8381106102d25750506000910152565b81810151838201526020016102c2565b906020916102fb815180928185528580860191016102bf565b601f01601f1916010190565b9060206103189281815201906102e2565b90565b503461000e5760008060031936011261042357604051908080549060019180831c92808216928315610419575b60209283861085146104055785885260208801949081156103e4575060011461038c575b6103888761037c81890382610e78565b60405191829182610307565b0390f35b6000805294509192917f290decd9548b62a8d60345a988386fc84ba6bc95484008f6362f93160ef3e5635b8386106103d3575050509101905061037c82610388388061036c565b8054858701529482019481016103b7565b60ff191685525050505090151560051b01905061037c82610388388061036c565b634e487b7160e01b82526022600452602482fd5b93607f1693610348565b80fd5b503461000e57602036600319011261000e576020610445600435611957565b6040516001600160a01b039091168152f35b600435906001600160a01b038216820361000e57565b604435906001600160a01b038216820361000e57565b602435906001600160a01b038216820361000e57565b503461000e57604036600319011261000e576104b3610457565b6024356104bf8161186d565b916001600160a01b03808416908216811461053a576104f1936104ec9133149081156104f3575b506118e5565b611e1b565b005b6001600160a01b03166000908152600560205260409020610534915061052d9033905b9060018060a01b0316600052602052604060002090565b5460ff1690565b386104e6565b60405162461bcd60e51b815260206004820152602160248201527f4552433732313a20617070726f76616c20746f2063757272656e74206f776e656044820152603960f91b6064820152608490fd5b503461000e57602036600319011261000e57600435600052600c602052602060018060a01b0360406000205416604051908152f35b503461000e57606036600319011261000e576105d8610457565b602435906105e461046d565b9160018060a01b039182600d541661065a60409561062f87518094633b7a17c560e11b825233600483015281602460209788935afa9081156107b6575b600091610789575b5061236f565b6000858152600c845287902080546001600160a01b0319166001600160a01b03909216919091179055565b84519361066685610e17565b6000855282169081156107475760008661074461073f88888881896106af6106aa6106a684600052600260205260018060a01b0360406000205416151590565b1590565b6123d0565b6106b98284612043565b6001600160a01b03831660009081526003602052604090206106db8154611c73565b9055610714836106f5846000526002602052604060002090565b80546001600160a01b0319166001600160a01b03909216919091179055565b887fddf252ad1be2c89b69c2b068fc378daa952ba7f163c4a11628f55a4df523b3ef818a51a4611f2f565b611ade565b51f35b60649086519062461bcd60e51b825280600483015260248201527f4552433732313a206d696e7420746f20746865207a65726f20616464726573736044820152fd5b6107a99150853d87116107af575b6107a18183610e78565b81019061235a565b38610629565b503d610797565b6107be611ef2565b610621565b503461000e57600036600319011261000e576020600854604051908152f35b606090600319011261000e576001600160a01b0390600435828116810361000e5791602435908116810361000e579060443590565b503461000e576104f1610829366107e2565b9161083c6108378433611b02565b6119e9565b611c9d565b503461000e57604036600319011261000e5761085b610457565b60243590610868816117f5565b82101561089c576001600160a01b031660009081526006602090815260408083209383529281529082902054915191825290f35b60405162461bcd60e51b815260206004820152602b60248201527f455243373231456e756d657261626c653a206f776e657220696e646578206f7560448201526a74206f6620626f756e647360a81b6064820152608490fd5b503461000e576104f1610907366107e2565b90604051926020840184811067ffffffffffffffff821117610930575b60405260008452611a62565b610938610e00565b610924565b503461000e57600036600319011261000e57600d54604051633b7a17c560e11b815233600482015261099391602090829060249082906001600160a01b03165afa9081156109ce575b6000916109b6575061236f565b6103886109a1600b546123b4565b80600b55604051918291829190602083019252565b6107a9915060203d81116107af576107a18183610e78565b6109d6611ef2565b610986565b503461000e57602036600319011261000e576004356000908152600260209081526040909120546001600160a01b031615156040519015158152f35b503461000e57602036600319011261000e57600435600854811015610a695760086000527ff3f7a9fe364faab93b216da50a3214154f22a0a2b415b23a84c8169e8b636ee30154604051908152602090f35b60405162461bcd60e51b815260206004820152602c60248201527f455243373231456e756d657261626c653a20676c6f62616c20696e646578206f60448201526b7574206f6620626f756e647360a01b6064820152608490fd5b503461000e57602036600319011261000e57602061044560043561186d565b503461000e57602036600319011261000e576020610b06610b01610457565b6117f5565b604051908152f35b503461000e5760008060031936011261042357600a546001600160a01b03811690610b3a33831461175a565b6001600160a01b031916600a556040519082907f8be0079c531659141344cd1fd0a4f28419497f9722a3daafe3b4186f6b6457e08284a3f35b503461000e57600036600319011261000e57600a546040516001600160a01b039091168152602090f35b503461000e57600080600319360112610423576040519080600190815480831c92808216928315610c55575b60209283861085146104055785885260208801949081156103e45750600114610bfc576103888761037c81890382610e78565b600160005294509192917fb10e2d527612073b26eecdfd717e6a320cf44b4afac2b0732d9fcbe2b7fa0cf65b838610610c44575050509101905061037c82610388388061036c565b805485870152948201948101610c28565b93607f1693610bc9565b503461000e5760208060031936011261000e57610c82610c7d610457565b6153ba565b6040929192519160408301604084528451809152816060850195019060005b818110610cbb5785870384870152858061038889886102e2565b825163ffffffff1687529583019591830191600101610ca1565b8015150361000e57565b503461000e57604036600319011261000e57610cf9610457565b602435610d0581610cd5565b6001600160a01b03821691338314610d875781610d44610d559233600052600560205260406000209060018060a01b0316600052602052604060002090565b9060ff801983541691151516179055565b604051901515815233907f17307eab39ab6107e8899845ad3d59bd9653f200f220920489ca2b5937696c3190602090a3005b60405162461bcd60e51b815260206004820152601960248201527f4552433732313a20617070726f766520746f2063616c6c6572000000000000006044820152606490fd5b503461000e57602036600319011261000e57610388610dec6004356129b5565b6040519182916020835260208301906102e2565b50634e487b7160e01b600052604160045260246000fd5b6020810190811067ffffffffffffffff821117610e3357604052565b610e3b610e00565b604052565b6040810190811067ffffffffffffffff821117610e3357604052565b6060810190811067ffffffffffffffff821117610e3357604052565b90601f8019910116810190811067ffffffffffffffff821117610e3357604052565b60209067ffffffffffffffff8111610eb8575b601f01601f19160190565b610ec0610e00565b610ead565b503461000e57608036600319011261000e57610edf610457565b610ee7610483565b6064359167ffffffffffffffff831161000e573660238401121561000e57826004013591610f1483610e9a565b92610f226040519485610e78565b808452366024828701011161000e5760208160009260246104f19801838801378501015260443591611a62565b503461000e5760208060031936011261000e57600435600081815260026020526040902054610f88906001600160a01b0316151561241c565b610fac610f9f82600052600c602052604060002090565b546001600160a01b031690565b6040805163378de45b60e01b815260048082018590529193859185906001600160a01b03861690610ff5908581602481865afa908115611638575b600091611621575b50615256565b61103283516333c7180560e11b8152868180611018898c83019190602083019252565b0381875afa908115611614575b6000916115e75750615256565b96600061104761104185612703565b926153ba565b5093855198898092631865c57d60e01b82525afa9687156115da575b6000976115b7575b50611075856125af565b968451809888820161109f90601190706672656e20706f6f6c207368617265202360781b81520190565b6110a8916124c2565b0398601f19998a81018a526110bd908a610e78565b855193848981016110f290601b907f74686973206672656e206861732061206465706f736974206f6620000000000081520190565b6110fc90836124c2565b6c01022ba341034b7103837b7b61609d1b8152600d0161111c90866124c2565b7f207769746820636c61696d61626c652062616c616e6365206f662000000000008152601b0161114c90846124c2565b630408ae8d60e31b8152600401038b810186526111699086610e78565b61117288612919565b61117b90612830565b97611185906125af565b9386511560001461159f5761119861251e565b945b8751611587576111a861251e565b965b885161156f576111b861251e565b985b805161153f57506111c961251e565b995b51683d913730b6b2911d1160b91b9c81019c8d529c8d9c6009016111ee916124c2565b71111610113232b9b1b934b83a34b7b7111d1160711b8152601201611212916124c2565b7f222c202265787465726e616c5f75726c223a2268747470733a2f2f6672656e7381526a2e66756e2f746f6b656e2f60a81b6020820152602b01611255916124c2565b7f222c202261747472696275746573223a205b7b2274726169745f74797065223a81527110113837b7b6111610113b30b63ab2911d1160711b602082015260320161129f916124c2565b7f227d2c7b2274726169745f74797065223a20226465706f736974222c20227661815266363ab2911d101160c91b60208201526027016112de916124c2565b630408ae8d60e31b81526004017f227d2c7b2274726169745f74797065223a2022636c61696d61626c65222c20228152683b30b63ab2911d101160b91b602082015260290161132c916124c2565b630408ae8d60e31b81526004017f227d2c7b2274726169745f74797065223a2022706f6f6c207374617465222c20815269113b30b63ab2911d101160b11b6020820152602a0161137b916124c2565b7f227d2c7b2274726169745f74797065223a20226f70657261746f7231222c20228152683b30b63ab2911d101160b91b60208201526029016113bc916124c2565b7f227d2c7b2274726169745f74797065223a20226f70657261746f7232222c20228152683b30b63ab2911d101160b91b60208201526029016113fd916124c2565b7f227d2c7b2274726169745f74797065223a20226f70657261746f7233222c20228152683b30b63ab2911d101160b91b602082015260290161143e916124c2565b7f227d2c7b2274726169745f74797065223a20226f70657261746f7234222c20228152683b30b63ab2911d101160b91b602082015260290161147f916124c2565b6e113eae96101134b6b0b3b2911d101160891b8152600f017f646174613a696d6167652f7376672b786d6c3b6261736536342c0000000000008152601a016114c6916124c2565b61227d60f01b81526002010382810182526114e19082610e78565b6114ea90612830565b82517f646174613a6170706c69636174696f6e2f6a736f6e3b6261736536342c00000094810194855293849190601d01611523916124c2565b0390810183526115339083610e78565b51610388819282610307565b61156461155b6115516115699361250d565b5163ffffffff1690565b63ffffffff1690565b61548e565b996111cb565b61158161156461155b6115518c6124fc565b986111ba565b61159961156461155b6115518b6124eb565b966111aa565b6115b161156461155b6115518a6124d5565b9461119a565b6115d391973d8091833e6115cb8183610e78565b810190612463565b953861106b565b6115e2611ef2565b611063565b6116079150873d891161160d575b6115ff8183610e78565b810190612454565b38610fef565b503d6115f5565b61161c611ef2565b611025565b6116079150863d881161160d576115ff8183610e78565b611640611ef2565b610fe7565b503461000e57604036600319011261000e57602060ff611697611666610457565b61166e610483565b6001600160a01b0391821660009081526005865260408082209290931681526020919091522090565b54166040519015158152f35b503461000e57602036600319011261000e57610388610dec600435615256565b503461000e57602036600319011261000e576116dd610457565b600a546001600160a01b03906116f6908216331461175a565b811615611706576104f1906117a5565b60405162461bcd60e51b815260206004820152602660248201527f4f776e61626c653a206e6577206f776e657220697320746865207a65726f206160448201526564647265737360d01b6064820152608490fd5b1561176157565b606460405162461bcd60e51b815260206004820152602060248201527f4f776e61626c653a2063616c6c6572206973206e6f7420746865206f776e65726044820152fd5b600a549060018060a01b0380911691826bffffffffffffffffffffffff60a01b821617600a55167f8be0079c531659141344cd1fd0a4f28419497f9722a3daafe3b4186f6b6457e06000604051a3565b6001600160a01b0316801561181557600052600360205260406000205490565b60405162461bcd60e51b815260206004820152602a60248201527f4552433732313a2062616c616e636520717565727920666f7220746865207a65604482015269726f206164647265737360b01b6064820152608490fd5b6000908152600260205260409020546001600160a01b0316801561188e5790565b60405162461bcd60e51b815260206004820152602960248201527f4552433732313a206f776e657220717565727920666f72206e6f6e657869737460448201526832b73a103a37b5b2b760b91b6064820152608490fd5b156118ec57565b60405162461bcd60e51b815260206004820152603860248201527f4552433732313a20617070726f76652063616c6c6572206973206e6f74206f7760448201527f6e6572206e6f7220617070726f76656420666f7220616c6c00000000000000006064820152608490fd5b6000818152600260205260409020546001600160a01b03161561198f576000908152600460205260409020546001600160a01b031690565b60405162461bcd60e51b815260206004820152602c60248201527f4552433732313a20617070726f76656420717565727920666f72206e6f6e657860448201526b34b9ba32b73a103a37b5b2b760a11b6064820152608490fd5b156119f057565b60405162461bcd60e51b815260206004820152603160248201527f4552433732313a207472616e736665722063616c6c6572206973206e6f74206f6044820152701ddb995c881b9bdc88185c1c1c9bdd9959607a1b6064820152608490fd5b60405190611a5c82610e17565b60008252565b91611a89939161073f93611a796108378433611b02565b611a84838383611c9d565b611ff0565b565b60809060208152603260208201527f4552433732313a207472616e7366657220746f206e6f6e20455243373231526560408201527131b2b4bb32b91034b6b83632b6b2b73a32b960711b60608201520190565b15611ae557565b60405162461bcd60e51b815280611afe60048201611a8b565b0390fd5b6000828152600260205260409020546001600160a01b031615611b9357611b288261186d565b6001600160a01b038281168282168114949091908515611b7b575b5050508215611b5157505090565b6001600160a01b0316600090815260056020526040902060ff9250611b769190610516565b541690565b611b889192939550611957565b161491388080611b43565b60405162461bcd60e51b815260206004820152602c60248201527f4552433732313a206f70657261746f7220717565727920666f72206e6f6e657860448201526b34b9ba32b73a103a37b5b2b760a11b6064820152608490fd5b15611bf457565b60405162461bcd60e51b8152602060048201526024808201527f4552433732313a207472616e7366657220746f20746865207a65726f206164646044820152637265737360e01b6064820152608490fd5b50634e487b7160e01b600052601160045260246000fd5b600019810191908211611c6b57565b611a89611c45565b9060018201809211611c6b57565b9060028201809211611c6b57565b9060208201809211611c6b57565b90611ca78361186d565b6001600160a01b038381169290918216839003611d6e57611d01611d4592821694611cd3861515611bed565b611cde87848361206e565b611ce787611dc5565b6001600160a01b0316600090815260036020526040902090565b611d0b8154611c5c565b90556001600160a01b0381166000908152600360205260409020611d2f8154611c73565b90556106f5856000526002602052604060002090565b7fddf252ad1be2c89b69c2b068fc378daa952ba7f163c4a11628f55a4df523b3ef6000604051a4565b60405162461bcd60e51b815260206004820152602960248201527f4552433732313a207472616e73666572206f6620746f6b656e2074686174206960448201526839903737ba1037bbb760b91b6064820152608490fd5b600081815260046020526040812080546001600160a01b03191690556001600160a01b03611df28361186d565b167f8c5be1e5ebec7d5bd14f71427d1e84f3dd0314c0f7b2291e5b200ac8c7c3b92582604051a4565b600082815260046020526040902080546001600160a01b0319166001600160a01b0383161790556001600160a01b0380611e548461186d565b169116907f8c5be1e5ebec7d5bd14f71427d1e84f3dd0314c0f7b2291e5b200ac8c7c3b9256000604051a4565b9081602091031261000e575161031881610224565b610318939260809260018060a01b0316825260006020830152604082015281606082015201906102e2565b6001600160a01b039182168152911660208201526040810191909152608060608201819052610318929101906102e2565b506040513d6000823e3d90fd5b3d15611f2a573d90611f1082610e9a565b91611f1e6040519384610e78565b82523d6000602084013e565b606090565b909190803b15611fe857611f61602091600093604051948580948193630a85bd0160e11b998a84523360048501611e96565b03926001600160a01b03165af160009181611fb8575b50611faa57611f84611eff565b80519081611fa55760405162461bcd60e51b815280611afe60048201611a8b565b602001fd5b6001600160e01b0319161490565b611fda91925060203d8111611fe1575b611fd28183610e78565b810190611e81565b9038611f77565b503d611fc8565b505050600190565b92909190823b1561202357611f61926020926000604051809681958294630a85bd0160e11b9a8b85523360048601611ec1565b50505050600190565b50634e487b7160e01b600052603260045260246000fd5b9061204d816121cb565b6001600160a01b03821661206557611a899150612244565b611a8991612193565b9091906001600160a01b0380821691826120a8575061208c836121cb565b83168061209f575050611a899150612244565b03612065575050565b81851683036120b8575b5061208c565b61212c6120c4826117f5565b6000198101908111612186575b61211d60009387855260076020526040852054838103612133575b5084612102896000526007602052604060002090565b556001600160a01b0316600090815260066020526040902090565b90600052602052604060002090565b55386120b2565b87865260066020526040862084875260205261217f60408720548061216e8461211d8760018060a01b03166000526006602052604060002090565b556000526007602052604060002090565b55386120ec565b61218e611c45565b6120d1565b60409061219f816117f5565b9260009160018060a01b0316825260066020528282208483526020528083832055815260076020522055565b6008548160005260096020528060406000205568010000000000000000811015612237575b600181018060085581101561222a575b60086000527ff3f7a9fe364faab93b216da50a3214154f22a0a2b415b23a84c8169e8b636ee30155565b61223261202c565b612200565b61223f610e00565b6121f0565b60088054600019929083810181811161234d575b6122f460009384928184526009602052846040852054911015612340575b8684526122e37ff3f7a9fe364faab93b216da50a3214154f22a0a2b415b23a84c8169e8b636ee2958681015490831015612333575b88865280837ff3f7a9fe364faab93b216da50a3214154f22a0a2b415b23a84c8169e8b636ee301556000526009602052604060002090565b556000526009602052604060002090565b55825493841561231f5784019380851015612312575b838352015555565b61231a61202c565b61230a565b634e487b7160e01b83526031600452602483fd5b61233b61202c565b6122ab565b61234861202c565b612276565b612355611c45565b612258565b9081602091031261000e575161031881610cd5565b1561237657565b60405162461bcd60e51b81526020600482015260166024820152751b5d5cdd0818994818481cdd185ada5b99c81c1bdbdb60521b6044820152606490fd5b60019060001981146123c4570190565b6123cc611c45565b0190565b156123d757565b60405162461bcd60e51b815260206004820152601c60248201527f4552433732313a20746f6b656e20616c7265616479206d696e746564000000006044820152606490fd5b1561242357565b60405162461bcd60e51b81526020600482015260096024820152681b9bdd08195e1a5cdd60ba1b6044820152606490fd5b9081602091031261000e575190565b60208183031261000e5780519067ffffffffffffffff821161000e570181601f8201121561000e57805161249681610e9a565b926124a46040519485610e78565b8184526020828401011161000e5761031891602080850191016102bf565b906123cc602092828151948592016102bf565b6020908051156124e3570190565b6123cc61202c565b6040908051600110156124e3570190565b6060908051600210156124e3570190565b6080908051600310156124e3570190565b6040519061252b82610e40565b6007825266139bdd0814d95d60ca1b6020830152565b6040519061254e82610e40565b60018252600360fc1b6020830152565b9061256882610e9a565b6125756040519182610e78565b8281528092612586601f1991610e9a565b0190602036910137565b9060209180518210156125a257010190565b6125aa61202c565b010190565b801561264b576000818181805b61263357506125ca8161255e565b935b6125d65750505090565b6000198101908111612626575b8091600a9161261060308484068101809111612619575b60f81b6001600160f81b031916861a9187612590565b530490816125cc565b612621611c45565b6125fa565b61262e611c45565b6125e3565b9150612640600a916123b4565b9104808492916125bc565b50610318612541565b6001600160fe1b03811160011661266c575b60021b90565b612674611c45565b612666565b806000190460021181151516612690575b60011b90565b612698611c45565b61268a565b80156126ab575b6000190190565b6126b3611c45565b6126a4565b156126bf57565b606460405162461bcd60e51b815260206004820152602060248201527f537472696e67733a20686578206c656e67746820696e73756666696369656e746044820152fd5b6040519061271082610e5c565b602a825260403660208401376030612727836124d5565b5381516001908110156127a5575b90607860218401536029915b80831161275457506103189150156126b8565b9080600f61279192166010811015612798575b6f181899199a1a9b1b9c1cb0b131b232b360811b901a6127878587612590565b5360041c9261269d565b9190612741565b6127a061202c565b612767565b6127ad61202c565b612735565b604051906060820182811067ffffffffffffffff821117612823575b604052604082527f6768696a6b6c6d6e6f707172737475767778797a303132333435363738392b2f6040837f4142434445464748494a4b4c4d4e4f505152535455565758595a61626364656660208201520152565b61282b610e00565b6127ce565b8051156129105761283f6127b2565b61285b61285661284f8451611c81565b6003900490565b612654565b9161286d61286884611c8f565b61255e565b92835280815182019060208501935b8282106128be575050506003905106806001146128ad5760021461289e575090565b603d60f81b6000199091015290565b50613d3d60f01b6001199091015290565b9091936004906003809401938451600190603f9082828260121c16880101518553828282600c1c16880101518386015382828260061c168801015160028601531685010151908201530193919061287c565b50610318611a4f565b612922906129b5565b610318606760405180937f3c7376672077696474683d2234303022206865696768743d223430302220786d60208301527f6c6e733d22687474703a2f2f7777772e77332e6f72672f323030302f737667226040830152601f60f91b60608301526129968151809260206061860191016102bf565b8101651e17b9bb339f60d11b6061820152036047810184520182610e78565b6129e16129d56129d56129d5610f9f85600052600c602052604060002090565b6001600160a01b031690565b60405163378de45b60e01b81526004810183905260209190612a1a908381602481865afa908115615100575b6000916150e95750615256565b6040516333c7180560e11b815260048101859052612a4f908481602481875afa9081156150dc575b6000916150c55750615256565b91612a599061510d565b93612a639061186d565b612a6c9061510d565b6040519485948501613d5990610f7f907f3c646566733e3c7374796c653e40666f6e742d666163657b666f6e742d66616d81527f696c793a225065726d616e656e74204d61726b6572223b7372633a75726c286460208201527f6174613a6170706c69636174696f6e2f666f6e742d776f66663b63686172736560408201527f743d7574662d383b6261736536342c643039475267414241414141414172344160608201527f41304141414141442f674141514243414141414141414141414141414141414160808201527f414141414141414141425055793879414141424d41414141453841414142675960a08201527f624c6a59324e745958414141414741414141415767414141566f4d35414d705960c08201527f335a3049414141416477414141414341414141416741564141426d634764744160e08201527f4141423441414141506341414146686b6b48612b6d64736557594141414c59416101008201527f4141466f67414142395334327a5435614756685a4141414348774141414132416101208201527f4141414e6768495776746f614756684141414974414141414230414141416b426101408201527f483042674768746448674141416a554141414148414141414277505a2f2f36626101608201527f47396a595141414350414141414151414141414541555942304a7459586877416101808201527f41414a41414141414234414141416741685143475735686257554141416b67416101a08201527f414142757741414131525157384d396347397a644141414374774141414155416101c08201527f41414149502b3241447077636d56774141414b384141414141634141414148616101e08201527f41614d68586963593242684d6d6163774d444b774d433068366d4c67594768426102008201527f30497a336d55775a6752796d5268676f494742515632414151466350503243476102208201527f427759464269436d664c2b483261775a536c676441554b677a51784d425579666102408201527f514e534367774d4145373644464141654a786a594742675a6f426747515a47426102608201527f6841494166495977587757426773677a6358417763414568416f4d6267782b446102808201527f4d482f2f77504646426863676579672f2f2f2f502f792f392f2b322f357568656102a08201527f7147416b5932424947416b7249534267596b5a796d4142596c596954423038416102c08201527f4143366f6734534141414146514141654a78646b44314f7844415168574d53466102e08201527f6e49444a41764a493273705672626f715649346b564361734b48774e507849756103008201527f784c5a4f79436c6f584842576435324b584d78424e3445566b446a3858756a2b6103208201527f66526d6b4a67616565503351727a7a4944376634433733656672345943474d556103408201527f6d586e494a347354677a45696978536f79716b793272744e6175677775306d716103608201527f45713950472b514c616361473976413177704a36377634336e744377664c34336103808201527f544c665747514854445a68416b6641376875776d7742782f735069314e514b366103a08201527f56586a377a78364a3145346c6b5371784e68346a453453733858696d444857316103c08201527f2b3569546e746d7346685a6e4d2b4531714f515344694557576c434834494d636103e08201527f594d665066375667306a2b473856764931366748455466544a31656b7a77596d6104008201527f6a5446684f7773636c4f33766f77526965305835574272584142346e485656536104208201527f61386a3152583275664e55743062663876544b30334e562b2f48617a2f3047476104408201527f3770704e3639424345545343566b45435345577655445a52454c4a6868334c526104608201527f454c38672f794e38414e677953714c6941314c64694151456b703265546c56686104808201527f695775737374317a78322f345a78653731632b304e4e332f79582f494e2f302f6104a08201527f74377237546651624f6a2b514a73446c416536332b4366396e55664c712f43316104c08201527f58563963316e4272716d674442364b306e4e5a65394a346b454755596263506f6104e08201527f6c2f5266515853302b594d476c484c6574464644365138774c364e3062326e556105008201527f74524c4478743455636d4953456b70305a6f54515a564d736c796c73574c434c6105208201527f64626238665933627a79374173366f41694935413165584149516b363833567a6105408201527f57366b4970383631626363364e6b48443444704a4d30635a37796f3139734a6c6105608201527f397a4d72562f35624f6257752b3356616e67374d5437796c6c4d7156483778366105808201527f4d33374e6c6154337a3537593647436a4a76314f74564a6e4369774a4e536e716105a08201527f7a4a5a315532526c6245576357713170704a7951676a6c2f624852536d6f31726105c08201527f684b6c6b3451435930514b616f4e696d754469496b73746d4f43694d514c454f6105e08201527f4f57636a313661435349454f4a776d54523368336b6c6f7a6b7172434f65475a6106008201527f42304864392f642f5964385458376f6658626b414245764557554544653936316106208201527f7a59743671596c42793567763774753669657765774c484f4e3658752f304f6e6106408201527f303867374b34753235455654434649447a4855692b58433479627843674a62706106608201527f436a7864336f632b77686b4b64752b4f43516d54593052704b627256533858586106808201527f58653853314573692f616c483436686268766462707136586665386d6847616a6106a08201527f795a527a433033694c455377496a6767676f576138345664344977536f6742556106c08201527f32374c636a7451755a4b4f706b6e312f4846664f4847646d6b5279525a5756776106e08201527f73736f696c5431757a38384f3145524663673441505252423579776f676d546c6107008201527f36614e74674a3167774f41586769547079725467316b5331706c6c784252614d6107208201527f494b43415130746159617a45436578776e30357168673344506b6a374d76304d6107408201527f426d4d553430554b6359535a5950566e6e50417856415a796e486c554a7552636107608201527f4245784168735349536b514a70674b4850637a3437486b6b71684236564142496107808201527f4b50634367354d59617356773456684d5935482f715747424156756147544e796107a08201527f3472696a72707a53416b674b4861566b6377494b432b596f466d5a6e796a30416107c08201527f61466742496138586c3655796e66362b504875662b5172386d337672366750646107e08201527f4a63495a53306b75764d365842336c557445532f5661424b4444534245394b5a6108008201527f423266454d716a673745446b6f7a7538375438686549476659757a345179654c6108208201527f6a3339703245697a6e462f33756c79577159615a632f6c79644e585835314f626108408201527f73366e36464743414845384157654b4d795355747151532b634c4e4e4e5532306108608201527f6c706c777a44492f49414a495a326c7a696a516765664263594c2f65447161726108808201527f7563506e7058474b4b57494e6678394e52796b434972435336374f4e796b444d6108a08201527f315348763333793657746d66487052436359454569537869302b694f4d4c31596108c08201527f48537a667a67642f76373568772f74624c48304a4f316e744669565a6a416f5a6108e08201527f485639755a75645042374635344768414c68546f7944643666757630434a6b4f6109008201527f6f37526261526e3776364e2b653737337038364e424746712f714155423267626109208201527f6f486364594231466972374c616f5636534e7178615673456353626f4a46325a6109408201527f5a66474d466332527979524462456863674e7974794741516254584269616f666109608201527f43756c6b5a4a7a436844464c6e5a2b797166624234664e344f56637863726e736109808201527f6463454b47475033336c2b54354e7166724b63547065543264683651535565516109a08201527f526f546d644d5033336c68643238524b47414f4b684b724545466a71596877496109c08201527f4957336f396c30774d2f65572f4f7a50304b71776d6f357a36684e637a4639656109e08201527f767434544b776176485a377964506d424e305a5238766d586971307475726d64610a008201527f6e32534d7047464744656f4d632f6171686f7242734339642b42483832513050610a208201527f436c41774c334c455555474f5759786e594b4f72494e2f35644e354d2b617264610a408201527f48572f7179486d376966794f574c3663612b58483143516e5361764679693844610a608201527f724e664d50713558496877424c4d46736b4d6152596e68665673565a4a64556c610a808201527f746559305459457634423135554261426550377a5161576d37617948484d6839610aa08201527f6b5545304e52457238363366555632662f374c52302b5a6a7830345445574436610ac08201527f503637703761617a37773978584d514f5267574e42746c43717546594f673161610ae08201527f744a58336e37336e466d71792f45345568474b68684e6767496d4155794c382b610b008201527f73336252784d61656464366e32455247443073334341396532744a684a557866610b208201527f42486e4e736d5330656b77465a6861366b726d4c76514c613464396c5567726d610b408201527f414f74695a486f6571476c514f445377646869436f726e656255747a312b2f61610b608201527f5349736267673649537178594c476555496f7131384e52715667796d58737357610b808201527f7a453255345a396f7377717859694c4255366139763450786465725151414141610ba08201527f4145414141414241454a4178704157587738383951674c424141414141414179610bc08201527f54564b49414141414144564b387a582f2b7a2f31514c63417538414141414a41610be08201527f41494141414141414142346e474e675a4742674b6669336d30476561652f2f4e610c008201527f777767774d694143746742684777464141414141414637414141426577414141610c208201527f6f494143514a4e2f2b774376662f784170594143674a4f41416f414141414741610c408201527f4177417a674865416f51444c675071654a786a594752675947426e324d374178610c608201527f4141436a474353697748495a5577454d51455667774578414142346e4a56527a610c808201527f5772625142442b316e4653437133707261576e6f61656b7850727830546f4632610ca08201527f7748527842696e354b346f6979796953474b6c32506a534a38674c3543333644610cc08201527f44333049666f5966594a2b58692f426d4a52534c6276377a637733332b794d41610ce08201527f4c7a445479687376346837697858396b634d64764d495868772f7743584f4875610d008201527f2f694131754644764d576a773064346a796548652f694d37387853336465306c610d208201527f766a6c73494b6f6d634d643946547438414847367076445851547168384f482b610d408201527f4b682b4f337745722f50473452362b646f616a716c3662504675306370796579610d608201527f43414941376c5a79336c56746a4c4f5332314f4a5335545438364b5169797445610d808201527f614d62625a62363170747063352b556d737a4c784e78704d39665a5135475930610da08201527f4175434d42724830336e307a4e67532b6f36786e796a4f6636314e6b31656c57610dc08201527f49572f35433761746837362f6d7131387049365352666171307a6d46336d7179610de08201527f3059332f6b55386d6b79764a76324246324345436a58574d4d69525963463543610e008201527f343652346f5433414146436273454e47594a7a636b764c474a4e64516a50726c610e208201527f465a4d6e4d496a4f6b50424a5474716a6255303777313779664f577a4a6d3137610e408201527f7046596c61336d4a5332444f78755a38387a77514b324e4c325247594e385373610e608201527f584b4d4b65505243787137437630396a5839566c44332b746655323747505473610e808201527f2b793834662f71626d625163734a442b467772757a7847617536555555327249610ea08201527f69396a7447433131476f32646d492b4c746a7443424e32664d577a7a7a2f4356610ec08201527f2f7742334b696b477742346e474e675a6743442f35735a6a426b77415473414c610ee08201527f4c4142384c67422f345777424930412920666f726d61742822776f666622293b610f008201527f20666f6e742d7765696768743a6e6f726d616c3b666f6e742d7374796c653a6e610f208201527f6f726d616c3b7d3c2f7374796c653e3c2f646566733e3c636972636c65206378610f408201527f3d22323030222063793d223230302220723d22313730222066696c6c3d222300610f608201520190565b613d6390826124c2565b7f222f3e2c3c67207472616e73666f726d3d226d6174726978282e37303731303781527f202d2e3730373130363738202e3730373130363738202e37303731303720313660208201527f203135332922207374726f6b653d226e6f6e65222066696c6c2d72756c653d2260408201527f6e6f6e7a65726f223e3c7061746820643d224d3139362e32353132203233332e60608201527f35353563382e33303039203020392e383236332d362e3939313320382e31333760808201527f322d31322e32342d312e363335312d352e303931352d362e353338382d392e3260a08201527f3034312d31362e313435362d31332e343334322d31382e363531342d382e313860c08201527f36372d34342e393132342d31352e333733372d34342e393132342d31372e383860e08201527f31337331312e323539352d2e3636352032352e3935322d332e343635396331316101008201527f2e313530342d322e313334322031322e3230342d362e343433342031332e36326101208201527f31352d31332e3932343720312e363839312d382e383531362d342e303638392d6101408201527f31352e353439332d342e303638392d31352e3534393373392e383938382d332e6101608201527f3931373820392e383938382d31362e3039392d31312e343035372d31372e36346101808201527f35332d31312e343035372d31372e3634353320342e363636382d332e303734376101a08201527f20352e3836362d31302e3234323563312e343839342d382e383331392d342e346101c08201527f3836352d31362e363636322d31322e363034352d32322e353231392d362e38346101e08201527f36372d342e393335322d31352e353237392d392e333631342d32312e393734316102008201527f2d31322e303434362d352e353339332d322e333130322d392e363939342d332e6102208201527f3933362d32332e333031392d332e373630322d31302e393531372e313337322d6102408201527f31362e333038312d2e323135332d31372e3134342d332e393935312d2e3633356102608201527f362d322e3832303220312e363334372d352e3733383220332e3930342d31322e6102808201527f3832373520322e383135372d382e373333392031302e303434312d33312e32356102a08201527f362d332e303837342d35312e333530332d352e303438312d372e373135352d316102c08201527f382e313234352d372e3539382d32302e373735362d342e393134382d352e30346102e08201527f393720352e3131303820312e353235332031352e333333382d312e39382033336103008201527f2e3634352d322e343135312031322e363332312d352e333231342032312e32346103208201527f392d31372e323136342033302e393832342d362e3836363120352e363230372d6103408201527f32322e303835342031342e3936332d33332e383335362033302e363239372d346103608201527f2e3335383720352e373937392d31372e3934323820342e373030342d32352e356103808201527f33343820332e353635322d332e3033322d2e343530372d352e3838343120312e6103a08201527f373232372d362e3438333120342e393733392d362e303330312033322e3339326103c08201527f322d312e393433332036362e323533342e303930352037392e333136352e34396103e08201527f313120332e3137323620332e3134323320352e3432343520362e3132303820356104008201527f2e3138393520362e373733372d2e353038362031382e323532362d312e3239326104208201527f352032312e383131392d2e3836313120372e313733382e383631312032312e396104408201527f3338392031322e343535322034322e313639382031382e363233392031372e396104608201527f36313520352e343833382034332e353135352031302e353535392035342e39336104808201527f38372031312e323431337335392e383431312031342e353930332036372e39356104a08201527f38382031342e353930337a222066696c6c3d2223666663613238222f3e3c70616104c08201527f746820643d224d3133312e323135392037342e373836762e3331343163362e396104e08201527f3536362e303139322031332e3232313920372e303530322031322e39363737206105008201527f31342e353531322d2e333120382e373333362d31312e363233342031322e33316105208201527f38362d372e333138382032342e363735362e3837303620322e353235312031316105408201527f2e3435393720362e3639373620382e383631362031392e323531322d322e31326105608201527f34342031302e323832372d31302e3036313420392e353536322d31302e3036316105808201527f342031342e37303731203020382e3733353920392e343632342031342e3537306105a08201527f342031302e313334352032342e35313937732d342e303637372031312e3533346105c08201527f352d332e373432312031342e39383238632e3233363820322e3534363620312e6105e08201527f3237323920332e3436353220312e3237323920322e3139343120302d322e35306106008201527f38322031312e323539342d2e363636362032352e3935312d332e3436373520316106208201527f312e313531342d322e313334322031322e323034392d362e343433342031332e6106408201527f363232342d31332e3932353220312e363839312d382e383531312d342e3036396106608201527f352d31352e353438382d342e303639352d31352e3534383873392e383939352d6106808201527f332e3931383320392e383939352d31362e303937392d31312e343035372d31376106a08201527f2e363436392d31312e343035372d31372e3634363920342e363636372d332e306106c08201527f37343320352e383634372d31302e32343263312e343930362d382e383331392d6106e08201527f342e343835362d31362e363636322d31322e363033372d32322e353232312d366107008201527f2e383436392d342e393335312d31352e353237342d392e333631382d32312e396107208201527f3733372d31322e303432392d342e3633322d312e39342d382e333337362d332e6107408201527f333838342d31372e333939342d332e373032357a222066696c6c3d22236666626107608201527f333030222f3e3c7061746820643d224d3133352e33303232203135302e3933306107808201527f34632d2e313633362d342e313332382e3039312d352e3236383220322e3130376107a08201527f312d352e3831373373352e373032382e3939393820352e373032382e393939386107c08201527f6331342e383535332d312e333532342033302e3839323820322e3035353220336107e08201527f352e373430382031302e39323737203020302d32332e3630392d312e383630376108008201527f2d33322e343732332d312e333532332d362e393534392e343132322d31302e386108208201527f3738312e343839322d31312e303738342d342e373537397a6d34322e303433336108408201527f2d32372e36313435632d31342e353130342d352e343634372d33312e343733376108608201527f2d362e343433322d33362e3438362d362e343433322d372e3131393320302d356108808201527f2e373536382d31312e363732372d322e373234342d31332e3836353820322e306108a08201527f3838392d2e3932303320342e3535383120322e3331303620362e3530313520336108c08201527f2e3037343820352e3737353920322e323930382033302e3138343120332e37346108e08201527f30372033322e373038392031372e323334327a6d2e39323633203130392e35396109008201527f3339632d32362e363432332d352e303931342d36322e3134382d31352e3139376109208201527f382d39302e333334382d31392e313134362d32302e373339332d322e3837382d6109408201527f33322e333435322d31312e353334362d34312e303830312d31362e3339322d346109608201527f2e393232332d322e373431372d382e383038392d342e393134372d31322e37316109808201527f332d352e393732322d31302e333334342d322e383230352d31382e323839312d6109a08201527f312e323334372d32342e373335362d312e34383973372e373534322d31302e306109c08201527f3237352032362e343937322d362e3035323363342e3735382e3939393820392e6109e08201527f3133353320332e373430392031342e3235363820362e3539393920382e383236610a008201527f3220342e393136312031392e363134332031322e3234312033392e3331393320610a208201527f31352e373036342031312e3034313720312e393539312032372e383034382033610a408201527f2e393536362034332e3535303520382e323235312031322e3432323720332e33610a608201527f352034362e393635332031352e323137382035382e393837342031362e383035610a808201527f3120362e313537342e383232372031312e3538372d2e393830352031312e3630610aa08201527f362d2e39383035203020302d312e3033363120322e363634312d352e32333039610ac08201527f20342e303134392d342e3436373920312e34352d392e373136372e363436372d610ae08201527f32302e313232382d312e333530387a6d2d36322e303735332d3135382e333031610b008201527f632d332e373737312e353837352d31312e3938362d322e303535322d382e3537610b208201527f32342d31302e39343720352e383132322d31352e3131393420362e323834332d610b408201527f32302e3334373220362e303437362d33352e353435372d2e313831322d31302e610b608201527f383839342d332e333035322d31382e323332322d352e363437342d32322e3637610b808201527f3831203020302031382e383531362031332e3730393420392e33313632203536610ba08201527f2e353430342d312e3339383220362e323237362d312e3134342031322e363330610bc08201527f342d312e3134342031322e363330347a6d36312e30353836203130392e313434610be08201527f31732d342e3238353420322e383339332d31302e3036313420352e3031343263610c008201527f2d352e3739333420322e313732372d31352e3431393520332e393935312d3139610c208201527f2e32333320342e30313433732d382e3335352d342e333238342d352e30383437610c408201527f2d352e3935343263332e323531312d312e363034342033342e333739312d332e610c608201527f303734332033342e333739312d332e303734337a222066696c6c3d2223656461610c80820152691b181811179f1e17b39f60b11b610ca0820152610caa017f3c706f6c79676f6e20706f696e74733d223230302c3335392038302c3232302081527f39382c313935203230302c323536222066696c6c3d22230000000000000000006020820152603701614d28916124c2565b6211179f60e91b81526003017f3c706f6c79676f6e20706f696e74733d223230302c3335392039382c3231352081527f3230302c323736222066696c6c3d222338633863386322202f3e0000000000006020820152603a017f3c706f6c79676f6e20706f696e74733d223230302c333539203330322c32313581527f203230302c323736222066696c6c3d222333633363336222202f3e00000000006020820152603b017f3c7465787420666f6e742d73697a653d223132322220783d22352220793d223281527f34302220666f6e742d66616d696c793d225065726d616e656e74204d61726b6560208201527f722220206f7061636974793d222e34222066696c6c3d222300000000000000006040820152605801614e4890826124c2565b6d111f232922a7299e17ba32bc3a1f60911b8152600e017f3c7465787420666f6e742d73697a653d223132322220783d22352220793d223281527f34302220666f6e742d66616d696c793d225065726d616e656e74204d61726b6560208201527f72222066696c6c3d226e6f6e652220207374726f6b652d77696474683d223222604082015269207374726f6b653d222360b01b6060820152606a01614eed916124c2565b7f223e4652454e533c2f746578743e3c7465787420666f6e742d73697a653d223581527f302220746578742d616e63686f723d226d6964646c652220783d22323030222060208201527f793d22313335222066696c6c3d222346463639423422207374726f6b653d222360408201527f3030454446352220666f6e742d7765696768743d22426f6c642220666f6e742d60608201527f66616d696c793d2253616e732d536572696622206f7061636974793d222e38226080820152601f60f91b60a082015260a101614fbe916124c2565b630408ae8d60e31b8152600401661e17ba32bc3a1f60c91b81526007017f3c7465787420666f6e742d73697a653d2232352220746578742d616e63686f7281527f3d226d6964646c652220783d223230302220793d22333030222066696c6c3d2260208201527f2346463639423422207374726f6b653d22233030454446352220666f6e742d7760408201527f65696768743d22426f6c642220666f6e742d66616d696c793d2253616e732d5360608201526632b934b311101f60c91b608082015260870161508c916124c2565b6d2045746820436c61696d61626c6560901b8152600e01661e17ba32bc3a1f60c91b815260070103601f19810182526103189082610e78565b6116079150853d871161160d576115ff8183610e78565b6150e4611ef2565b612a42565b6116079150843d861161160d576115ff8183610e78565b615108611ef2565b612a0d565b60405160208101916bffffffffffffffffffffffff199060601b1682526014815261513781610e40565b51902060ff60e81b8160021a60e81b169060ff60f01b8160011a60f01b169060ff60f81b9060001a60f81b1617179060405161517281610e40565b600681526020368183013760005b6003811061518d57509150565b6151ff90600f85821a8181169160109182841015615211575b6f181899199a1a9b1b9c1cb0b131b232b360811b9384901a6151d86151d26151cd88612679565b611c73565b89612590565b5360041c1690811015615204575b1a6151f96151f383612679565b85612590565b536123b4565b615180565b61520c61202c565b6151e6565b61521961202c565b6151a6565b90611a8960216040518094600360fc1b602083015261524681518092602086860191016102bf565b8101036001810185520183610e78565b655af3107a4000670de0b6b3a764000061527181840461548e565b9206049061527e8261548e565b916103e88110615313575b606481106152ff575b600a116152e7575b60216103189160405193816152b98693518092602080870191016102bf565b8201601760f91b60208201526152d882518093602087850191016102bf565b01036001810184520182610e78565b9060216152f66103189261521e565b9291505061529a565b9161530b600a9161521e565b929050615292565b9161531d9061521e565b91615289565b90602090818382031261000e57825167ffffffffffffffff9384821161000e570181601f8201121561000e5780519384116153ad575b8360051b906040519461536e85840187610e78565b8552838086019282010192831161000e578301905b828210615391575050505090565b815163ffffffff8116810361000e578152908301908301615383565b6153b5610e00565b615359565b604051634ad02ef160e01b815291906000906001600160a01b039082908590600490829085165afa938415615481575b8294615465575b50600e541681604051809263053e834960e01b825260206004830152818061541c602482018a6102e2565b03915afa918215615458575b8092615435575b50509190565b61545192503d8091833e6154498183610e78565b810190615323565b388061542f565b615460611ef2565b615428565b61547a9194503d8084833e6115cb8183610e78565b92386153f1565b615489611ef2565b6153ea565b801561264b578060008281935b61553d5750816154aa8461255e565b93905b6154b75750505090565b6154c090611c5c565b918261550e600a92838104938460001904811185151516615530575b84028103908111615523575b60ff809116603001908111615516575b60f81b6001600160f81b031916841a9186612590565b5391826154ad565b61551e611c45565b6154f8565b61552b611c45565b6154e8565b615538611c45565b6154dc565b92615549600a916123b4565b93048061549b56fea2646970667358221220f9569a509a1f018881e899b3228bbf83751757bd896d33cae2b178d20ac9adfc64736f6c63430008100033",
  "linkReferences": {},
  "deployedLinkReferences": {}
}