{
  "_format": "hh-sol-artifact-1",
  "contractName": "FrensPoolShare",
  "sourceName": "contracts/FrensPoolShare.sol",
  "abi": [
    {
      "inputs": [
        {
          "internalType": "contract IFrensStorage",
          "name": "_frensStorage",
          "type": "address"
        }
      ],
      "stateMutability": "nonpayable",
      "type": "constructor"
    },
    {
      "anonymous": false,
      "inputs": [
        {
          "indexed": true,
          "internalType": "address",
          "name": "owner",
          "type": "address"
        },
        {
          "indexed": true,
          "internalType": "address",
          "name": "approved",
          "type": "address"
        },
        {
          "indexed": true,
          "internalType": "uint256",
          "name": "tokenId",
          "type": "uint256"
        }
      ],
      "name": "Approval",
      "type": "event"
    },
    {
      "anonymous": false,
      "inputs": [
        {
          "indexed": true,
          "internalType": "address",
          "name": "owner",
          "type": "address"
        },
        {
          "indexed": true,
          "internalType": "address",
          "name": "operator",
          "type": "address"
        },
        {
          "indexed": false,
          "internalType": "bool",
          "name": "approved",
          "type": "bool"
        }
      ],
      "name": "ApprovalForAll",
      "type": "event"
    },
    {
      "anonymous": false,
      "inputs": [
        {
          "indexed": true,
          "internalType": "address",
          "name": "previousOwner",
          "type": "address"
        },
        {
          "indexed": true,
          "internalType": "address",
          "name": "newOwner",
          "type": "address"
        }
      ],
      "name": "OwnershipTransferred",
      "type": "event"
    },
    {
      "anonymous": false,
      "inputs": [
        {
          "indexed": true,
          "internalType": "address",
          "name": "from",
          "type": "address"
        },
        {
          "indexed": true,
          "internalType": "address",
          "name": "to",
          "type": "address"
        },
        {
          "indexed": true,
          "internalType": "uint256",
          "name": "tokenId",
          "type": "uint256"
        }
      ],
      "name": "Transfer",
      "type": "event"
    },
    {
      "inputs": [
        {
          "internalType": "address",
          "name": "to",
          "type": "address"
        },
        {
          "internalType": "uint256",
          "name": "tokenId",
          "type": "uint256"
        }
      ],
      "name": "approve",
      "outputs": [],
      "stateMutability": "nonpayable",
      "type": "function"
    },
    {
      "inputs": [
        {
          "internalType": "address",
          "name": "owner",
          "type": "address"
        }
      ],
      "name": "balanceOf",
      "outputs": [
        {
          "internalType": "uint256",
          "name": "",
          "type": "uint256"
        }
      ],
      "stateMutability": "view",
      "type": "function"
    },
    {
      "inputs": [
        {
          "internalType": "uint256",
          "name": "tokenId",
          "type": "uint256"
        }
      ],
      "name": "burn",
      "outputs": [],
      "stateMutability": "nonpayable",
      "type": "function"
    },
    {
      "inputs": [
        {
          "internalType": "uint256",
          "name": "_id",
          "type": "uint256"
        }
      ],
      "name": "exists",
      "outputs": [
        {
          "internalType": "bool",
          "name": "",
          "type": "bool"
        }
      ],
      "stateMutability": "view",
      "type": "function"
    },
    {
      "inputs": [
        {
          "internalType": "uint256",
          "name": "tokenId",
          "type": "uint256"
        }
      ],
      "name": "getApproved",
      "outputs": [
        {
          "internalType": "address",
          "name": "",
          "type": "address"
        }
      ],
      "stateMutability": "view",
      "type": "function"
    },
    {
      "inputs": [
        {
          "internalType": "uint256",
          "name": "_id",
          "type": "uint256"
        }
      ],
      "name": "getPoolById",
      "outputs": [
        {
          "internalType": "address",
          "name": "",
          "type": "address"
        }
      ],
      "stateMutability": "view",
      "type": "function"
    },
    {
      "inputs": [
        {
          "internalType": "address",
          "name": "owner",
          "type": "address"
        },
        {
          "internalType": "address",
          "name": "operator",
          "type": "address"
        }
      ],
      "name": "isApprovedForAll",
      "outputs": [
        {
          "internalType": "bool",
          "name": "",
          "type": "bool"
        }
      ],
      "stateMutability": "view",
      "type": "function"
    },
    {
      "inputs": [
        {
          "internalType": "address",
          "name": "userAddress",
          "type": "address"
        }
      ],
      "name": "mint",
      "outputs": [],
      "stateMutability": "nonpayable",
      "type": "function"
    },
    {
      "inputs": [],
      "name": "name",
      "outputs": [
        {
          "internalType": "string",
          "name": "",
          "type": "string"
        }
      ],
      "stateMutability": "view",
      "type": "function"
    },
    {
      "inputs": [],
      "name": "owner",
      "outputs": [
        {
          "internalType": "address",
          "name": "",
          "type": "address"
        }
      ],
      "stateMutability": "view",
      "type": "function"
    },
    {
      "inputs": [
        {
          "internalType": "uint256",
          "name": "tokenId",
          "type": "uint256"
        }
      ],
      "name": "ownerOf",
      "outputs": [
        {
          "internalType": "address",
          "name": "",
          "type": "address"
        }
      ],
      "stateMutability": "view",
      "type": "function"
    },
    {
      "inputs": [
        {
          "internalType": "uint256",
          "name": "id",
          "type": "uint256"
        }
      ],
      "name": "renderTokenById",
      "outputs": [
        {
          "internalType": "string",
          "name": "",
          "type": "string"
        }
      ],
      "stateMutability": "view",
      "type": "function"
    },
    {
      "inputs": [],
      "name": "renounceOwnership",
      "outputs": [],
      "stateMutability": "nonpayable",
      "type": "function"
    },
    {
      "inputs": [
        {
          "internalType": "address",
          "name": "from",
          "type": "address"
        },
        {
          "internalType": "address",
          "name": "to",
          "type": "address"
        },
        {
          "internalType": "uint256",
          "name": "tokenId",
          "type": "uint256"
        }
      ],
      "name": "safeTransferFrom",
      "outputs": [],
      "stateMutability": "nonpayable",
      "type": "function"
    },
    {
      "inputs": [
        {
          "internalType": "address",
          "name": "from",
          "type": "address"
        },
        {
          "internalType": "address",
          "name": "to",
          "type": "address"
        },
        {
          "internalType": "uint256",
          "name": "tokenId",
          "type": "uint256"
        },
        {
          "internalType": "bytes",
          "name": "_data",
          "type": "bytes"
        }
      ],
      "name": "safeTransferFrom",
      "outputs": [],
      "stateMutability": "nonpayable",
      "type": "function"
    },
    {
      "inputs": [
        {
          "internalType": "address",
          "name": "operator",
          "type": "address"
        },
        {
          "internalType": "bool",
          "name": "approved",
          "type": "bool"
        }
      ],
      "name": "setApprovalForAll",
      "outputs": [],
      "stateMutability": "nonpayable",
      "type": "function"
    },
    {
      "inputs": [
        {
          "internalType": "bytes4",
          "name": "interfaceId",
          "type": "bytes4"
        }
      ],
      "name": "supportsInterface",
      "outputs": [
        {
          "internalType": "bool",
          "name": "",
          "type": "bool"
        }
      ],
      "stateMutability": "view",
      "type": "function"
    },
    {
      "inputs": [],
      "name": "symbol",
      "outputs": [
        {
          "internalType": "string",
          "name": "",
          "type": "string"
        }
      ],
      "stateMutability": "view",
      "type": "function"
    },
    {
      "inputs": [
        {
          "internalType": "uint256",
          "name": "index",
          "type": "uint256"
        }
      ],
      "name": "tokenByIndex",
      "outputs": [
        {
          "internalType": "uint256",
          "name": "",
          "type": "uint256"
        }
      ],
      "stateMutability": "view",
      "type": "function"
    },
    {
      "inputs": [
        {
          "internalType": "address",
          "name": "owner",
          "type": "address"
        },
        {
          "internalType": "uint256",
          "name": "index",
          "type": "uint256"
        }
      ],
      "name": "tokenOfOwnerByIndex",
      "outputs": [
        {
          "internalType": "uint256",
          "name": "",
          "type": "uint256"
        }
      ],
      "stateMutability": "view",
      "type": "function"
    },
    {
      "inputs": [
        {
          "internalType": "uint256",
          "name": "id",
          "type": "uint256"
        }
      ],
      "name": "tokenURI",
      "outputs": [
        {
          "internalType": "string",
          "name": "",
          "type": "string"
        }
      ],
      "stateMutability": "view",
      "type": "function"
    },
    {
      "inputs": [],
      "name": "totalSupply",
      "outputs": [
        {
          "internalType": "uint256",
          "name": "",
          "type": "uint256"
        }
      ],
      "stateMutability": "view",
      "type": "function"
    },
    {
      "inputs": [
        {
          "internalType": "address",
          "name": "from",
          "type": "address"
        },
        {
          "internalType": "address",
          "name": "to",
          "type": "address"
        },
        {
          "internalType": "uint256",
          "name": "tokenId",
          "type": "uint256"
        }
      ],
      "name": "transferFrom",
      "outputs": [],
      "stateMutability": "nonpayable",
      "type": "function"
    },
    {
      "inputs": [
        {
          "internalType": "address",
          "name": "newOwner",
          "type": "address"
        }
      ],
      "name": "transferOwnership",
      "outputs": [],
      "stateMutability": "nonpayable",
      "type": "function"
    },
    {
      "inputs": [],
      "name": "version",
      "outputs": [
        {
          "internalType": "uint8",
          "name": "",
          "type": "uint8"
        }
      ],
      "stateMutability": "view",
      "type": "function"
    }
  ],
  "bytecode": "0x608034620003b557601f1990601f906001600160401b0390620026923881900384810186168301848111848210176200039f57839282916040528339602092839181010312620003b557516001600160a01b03938482169391849003620003b5576200006a620003ba565b92600b84526a4652454e5320536861726560a81b818501526200008c620003ba565b9060058252644652454e5360d81b818301528451978489116200039f576000988954966001978881811c9116801562000394575b8582101462000380579081878493116200032d575b508490878311600114620002cc578c92620002c0575b5050600019600383901b1c191690871b1789555b8251948511620002ac5785548681811c91168015620002a1575b838210146200028d5790818587969594931162000234575b5081938511600114620001cf5750508792620001c3575b5050600019600383901b1c191690821b1790555b600a5491604051937f8be0079c531659141344cd1fd0a4f28419497f9722a3daafe3b4186f6b6457e0339285169186a3600b80546001600160a01b0319169190911790556001600160a81b0319163360ff60a01b191617600a556122b79081620003db8239f35b01519050388062000148565b86959392919316858a52838a20938a905b8282106200021a575050841162000200575b505050811b0190556200015c565b015160001960f88460031b161c19169055388080620001f2565b8484015186558897909501949384019390810190620001e0565b909192939450868a52828a208580880160051c82019285891062000283575b9188978a9297969594930160051c01915b8281106200027457505062000131565b8c815588975089910162000264565b9250819262000253565b634e487b7160e01b8a52602260045260248afd5b90607f169062000119565b634e487b7160e01b89526041600452602489fd5b015190503880620000eb565b908c91858b9516838052878420935b88828210620003165750508411620002fc575b505050811b018955620000ff565b015160001960f88460031b161c19169055388080620002ee565b8385015186558d97909501949384019301620002db565b9091508b8052848c208780850160051c82019287861062000376575b918b91869594930160051c01915b82811062000367575050620000d5565b8e81558594508b910162000357565b9250819262000349565b634e487b7160e01b8c52602260045260248cfd5b90607f1690620000c0565b634e487b7160e01b600052604160045260246000fd5b600080fd5b60408051919082016001600160401b038111838210176200039f5760405256fe60806040526004361015610013575b600080fd5b60003560e01c806301ffc9a71461020757806306fdde03146101fe578063081812fc146101f5578063095ea7b3146101ec5780630bc59b38146101e357806318160ddd146101da57806323b872dd146101d15780632f745c59146101c857806342842e0e146101bf57806342966c68146101b65780634f558e79146101ad5780634f6ccce7146101a457806354fd4d501461019b5780636352211e146101925780636a6278421461018957806370a0823114610180578063715018a6146101775780638da5cb5b1461016e57806395d89b4114610165578063a22cb4651461015c578063a2d6c6da14610153578063b88d4fde1461014a578063c87b56dd14610141578063e985e9c5146101385763f2fde38b1461013057600080fd5b61000e61108f565b5061000e611026565b5061000e610f81565b5061000e610eef565b5061000e610ca6565b5061000e610bb5565b5061000e610ae9565b5061000e610abf565b5061000e610a5a565b5061000e610a2a565b5061000e610910565b5061000e6108f1565b5061000e6108cc565b5061000e610820565b5061000e6107e4565b5061000e6106bd565b5061000e610694565b5061000e6105dc565b5061000e6105b2565b5061000e610567565b5061000e610548565b5061000e610454565b5061000e610412565b5061000e610307565b5061000e610222565b6001600160e01b031981160361000e57565b503461000e57602036600319011261000e57602060043561024281610210565b63ffffffff60e01b1663780e9d6360e01b8114908115610268575b506040519015158152f35b6380ac58cd60e01b81149150811561029a575b8115610289575b503861025d565b6301ffc9a760e01b14905038610282565b635b5e139f60e01b8114915061027b565b60005b8381106102be5750506000910152565b81810151838201526020016102ae565b906020916102e7815180928185528580860191016102ab565b601f01601f1916010190565b9060206103049281815201906102ce565b90565b503461000e5760008060031936011261040f57604051908080549060019180831c92808216928315610405575b60209283861085146103f15785885260208801949081156103d05750600114610378575b6103748761036881890382610ea2565b604051918291826102f3565b0390f35b6000805294509192917f290decd9548b62a8d60345a988386fc84ba6bc95484008f6362f93160ef3e5635b8386106103bf5750505091019050610368826103743880610358565b8054858701529482019481016103a3565b60ff191685525050505090151560051b019050610368826103743880610358565b634e487b7160e01b82526022600452602482fd5b93607f1693610334565b80fd5b503461000e57602036600319011261000e576020610431600435611322565b6040516001600160a01b039091168152f35b6001600160a01b0381160361000e57565b503461000e57604036600319011261000e5760043561047281610443565b60243561047e81611238565b916001600160a01b0380841690821681146104f9576104b0936104ab9133149081156104b2575b506112b0565b6117db565b005b6001600160a01b031660009081526005602052604090206104f391506104ec9033905b9060018060a01b0316600052602052604060002090565b5460ff1690565b386104a5565b60405162461bcd60e51b815260206004820152602160248201527f4552433732313a20617070726f76616c20746f2063757272656e74206f776e656044820152603960f91b6064820152608490fd5b503461000e57602036600319011261000e576020610431600435611c02565b503461000e57600036600319011261000e576020600854604051908152f35b606090600319011261000e5760043561059e81610443565b906024356105ab81610443565b9060443590565b503461000e576104b06105c436610586565b916105d76105d284336114bf565b6113b4565b61163e565b503461000e57604036600319011261000e576004356105fa81610443565b60243590610607816111c0565b82101561063b576001600160a01b031660009081526006602090815260408083209383529281529082902054915191825290f35b60405162461bcd60e51b815260206004820152602b60248201527f455243373231456e756d657261626c653a206f776e657220696e646578206f7560448201526a74206f6620626f756e647360a81b6064820152608490fd5b503461000e576104b06106a636610586565b90604051926106b484610e41565b6000845261141a565b503461000e57602036600319011261000e5760043560405161073161072c60208301836107103383601f916a706f6f6c2e65786973747360a81b82526001600160601b03199060601b16600b8201520190565b0393610724601f1995868101835282610ea2565b519020611b81565b611a03565b6107836040519161076f6020840191846107638785602b916a1c1bdbdb0b999bdc8b9a5960aa1b8252600b8201520190565b03908101855284610ea2565b91519091206001600160a01b039190611c33565b163303610793576104b0906120e4565b60405162461bcd60e51b815260206004820152602360248201527f63616e6e6f74206275726e207368617265732066726f6d206f7468657220706f6044820152626f6c7360e81b6064820152608490fd5b503461000e57602036600319011261000e576004356000908152600260209081526040909120546001600160a01b031615156040519015158152f35b503461000e57602036600319011261000e576004356008548110156108725760086000527ff3f7a9fe364faab93b216da50a3214154f22a0a2b415b23a84c8169e8b636ee30154604051908152602090f35b60405162461bcd60e51b815260206004820152602c60248201527f455243373231456e756d657261626c653a20676c6f62616c20696e646578206f60448201526b7574206f6620626f756e647360a01b6064820152608490fd5b503461000e57600036600319011261000e57602060ff600a5460a01c16604051908152f35b503461000e57602036600319011261000e576020610431600435611238565b503461000e5760208060031936011261000e5760043561092f81610443565b6040516a706f6f6c2e65786973747360a81b8382019081523360601b6bffffffffffffffffffffffff1916600b82015261097f9161072c919061072481601f84015b03601f198101835282610ea2565b60405182810190671d1bdad95b8b9a5960c21b8252600881526109a181610e6a565b519020600b5460405163bd02d0f560e01b815260048101929092528390829060249082906001600160a01b03165afa928315610a1d575b6000936109ea575b6104b08484611a3e565b81813d8311610a16575b6109fe8183610ea2565b81010312610a12575191506104b0386109e0565b8280fd5b503d6109f4565b610a256118b2565b6109d8565b503461000e57602036600319011261000e576020610a52600435610a4d81610443565b6111c0565b604051908152f35b503461000e5760008060031936011261040f57600a546001600160a01b03811690610a8633831461112a565b6001600160a01b031916600a556040519082907f8be0079c531659141344cd1fd0a4f28419497f9722a3daafe3b4186f6b6457e08284a3f35b503461000e57600036600319011261000e57600a546040516001600160a01b039091168152602090f35b503461000e5760008060031936011261040f576040519080600190815480831c92808216928315610ba1575b60209283861085146103f15785885260208801949081156103d05750600114610b48576103748761036881890382610ea2565b600160005294509192917fb10e2d527612073b26eecdfd717e6a320cf44b4afac2b0732d9fcbe2b7fa0cf65b838610610b905750505091019050610368826103743880610358565b805485870152948201948101610b74565b93607f1693610b15565b8015150361000e57565b503461000e57604036600319011261000e57600435610bd381610443565b602435610bdf81610bab565b6001600160a01b03821691338314610c615781610c1e610c2f9233600052600560205260406000209060018060a01b0316600052602052604060002090565b9060ff801983541691151516179055565b604051901515815233907f17307eab39ab6107e8899845ad3d59bd9653f200f220920489ca2b5937696c3190602090a3005b60405162461bcd60e51b815260206004820152601960248201527f4552433732313a20617070726f766520746f2063616c6c6572000000000000006044820152606490fd5b503461000e57602036600319011261000e576103746004356000610dd2610ccc83611c02565b92610d376040519485610d1b602082019283602d917f706f6f6c2e73706563696669632e6172742e616464726573730000000000000082526001600160601b03199060601b1660198201520190565b0395610d2f601f1997888101835282610ea2565b519020611c33565b6001600160a01b039490851680158514610e225750610da3610daf91604051610d2f602082019282610d97610d83866010906f636f6e74726163742e6164647265737360801b81520190565b67119c995b9cd05c9d60c21b815260080190565b03908101835282610ea2565b6001600160a01b031690565b905b60405194858094819363516b636d60e11b8352600483019190602083019252565b0392165afa908115610e15575b600091610df4575b50604051918291826102f3565b610e0f913d8091833e610e078183610ea2565b810190611cb4565b38610de7565b610e1d6118b2565b610ddf565b905090610db1565b50634e487b7160e01b600052604160045260246000fd5b6020810190811067ffffffffffffffff821117610e5d57604052565b610e65610e2a565b604052565b6040810190811067ffffffffffffffff821117610e5d57604052565b6060810190811067ffffffffffffffff821117610e5d57604052565b90601f8019910116810190811067ffffffffffffffff821117610e5d57604052565b60209067ffffffffffffffff8111610ee2575b601f01601f19160190565b610eea610e2a565b610ed7565b503461000e57608036600319011261000e57600435610f0d81610443565b602435610f1981610443565b6064359167ffffffffffffffff831161000e573660238401121561000e57826004013591610f4683610ec4565b92610f546040519485610ea2565b808452366024828701011161000e5760208160009260246104b0980183880137850101526044359161141a565b503461000e57602036600319011261000e57610374610fe9610da3610da360405160208101906f636f6e74726163742e6164647265737360801b8252754672656e73506f6f6c5368617265546f6b656e55524960501b603082015260268152610d2f81610e86565b60405163c87b56dd60e01b8152600480359082015290600090829060249082905afa908115610e1557600091610df45750604051918291826102f3565b503461000e57604036600319011261000e57602060ff61108360043561104b81610443565b6024359061105882610443565b60018060a01b03166000526005845260406000209060018060a01b0316600052602052604060002090565b54166040519015158152f35b503461000e57602036600319011261000e576004356110ad81610443565b600a546001600160a01b03906110c6908216331461112a565b8116156110d6576104b090611175565b60405162461bcd60e51b815260206004820152602660248201527f4f776e61626c653a206e6577206f776e657220697320746865207a65726f206160448201526564647265737360d01b6064820152608490fd5b1561113157565b606460405162461bcd60e51b815260206004820152602060248201527f4f776e61626c653a2063616c6c6572206973206e6f7420746865206f776e65726044820152fd5b600a549060018060a01b0380911691826001600160601b0360a01b821617600a55167f8be0079c531659141344cd1fd0a4f28419497f9722a3daafe3b4186f6b6457e06000604051a3565b6001600160a01b031680156111e057600052600360205260406000205490565b60405162461bcd60e51b815260206004820152602a60248201527f4552433732313a2062616c616e636520717565727920666f7220746865207a65604482015269726f206164647265737360b01b6064820152608490fd5b6000908152600260205260409020546001600160a01b031680156112595790565b60405162461bcd60e51b815260206004820152602960248201527f4552433732313a206f776e657220717565727920666f72206e6f6e657869737460448201526832b73a103a37b5b2b760b91b6064820152608490fd5b156112b757565b60405162461bcd60e51b815260206004820152603860248201527f4552433732313a20617070726f76652063616c6c6572206973206e6f74206f7760448201527f6e6572206e6f7220617070726f76656420666f7220616c6c00000000000000006064820152608490fd5b6000818152600260205260409020546001600160a01b03161561135a576000908152600460205260409020546001600160a01b031690565b60405162461bcd60e51b815260206004820152602c60248201527f4552433732313a20617070726f76656420717565727920666f72206e6f6e657860448201526b34b9ba32b73a103a37b5b2b760a11b6064820152608490fd5b156113bb57565b60405162461bcd60e51b815260206004820152603160248201527f4552433732313a207472616e736665722063616c6c6572206973206e6f74206f6044820152701ddb995c881b9bdc88185c1c1c9bdd9959607a1b6064820152608490fd5b916114469391611441936114316105d284336114bf565b61143c83838361163e565b6119b0565b61149b565b565b60809060208152603260208201527f4552433732313a207472616e7366657220746f206e6f6e20455243373231526560408201527131b2b4bb32b91034b6b83632b6b2b73a32b960711b60608201520190565b156114a257565b60405162461bcd60e51b8152806114bb60048201611448565b0390fd5b6000828152600260205260409020546001600160a01b031615611550576114e582611238565b6001600160a01b038281168282168114949091908515611538575b505050821561150e57505090565b6001600160a01b0316600090815260056020526040902060ff925061153391906104d5565b541690565b6115459192939550611322565b161491388080611500565b60405162461bcd60e51b815260206004820152602c60248201527f4552433732313a206f70657261746f7220717565727920666f72206e6f6e657860448201526b34b9ba32b73a103a37b5b2b760a11b6064820152608490fd5b156115b157565b60405162461bcd60e51b8152602060048201526024808201527f4552433732313a207472616e7366657220746f20746865207a65726f206164646044820152637265737360e01b6064820152608490fd5b50634e487b7160e01b600052601160045260246000fd5b60001981019190821161162857565b611446611602565b906001820180921161162857565b9061164883611238565b6001600160a01b03838116929091821683900361172e576116a2611705928216946116748615156115aa565b61167f878483611d7d565b61168887611785565b6001600160a01b0316600090815260036020526040902090565b6116ac8154611619565b90556001600160a01b03811660009081526003602052604090206116d08154611630565b90556116e6856000526002602052604060002090565b80546001600160a01b0319166001600160a01b03909216919091179055565b7fddf252ad1be2c89b69c2b068fc378daa952ba7f163c4a11628f55a4df523b3ef6000604051a4565b60405162461bcd60e51b815260206004820152602960248201527f4552433732313a207472616e73666572206f6620746f6b656e2074686174206960448201526839903737ba1037bbb760b91b6064820152608490fd5b600081815260046020526040812080546001600160a01b03191690556001600160a01b036117b283611238565b167f8c5be1e5ebec7d5bd14f71427d1e84f3dd0314c0f7b2291e5b200ac8c7c3b92582604051a4565b600082815260046020526040902080546001600160a01b0319166001600160a01b0383161790556001600160a01b038061181484611238565b169116907f8c5be1e5ebec7d5bd14f71427d1e84f3dd0314c0f7b2291e5b200ac8c7c3b9256000604051a4565b9081602091031261000e575161030481610210565b610304939260809260018060a01b0316825260006020830152604082015281606082015201906102ce565b6001600160a01b039182168152911660208201526040810191909152608060608201819052610304929101906102ce565b506040513d6000823e3d90fd5b3d156118ea573d906118d082610ec4565b916118de6040519384610ea2565b82523d6000602084013e565b606090565b909190803b156119a857611921602091600093604051948580948193630a85bd0160e11b998a84523360048501611856565b03926001600160a01b03165af160009181611978575b5061196a576119446118bf565b805190816119655760405162461bcd60e51b8152806114bb60048201611448565b602001fd5b6001600160e01b0319161490565b61199a91925060203d81116119a1575b6119928183610ea2565b810190611841565b9038611937565b503d611988565b505050600190565b92909190823b156119e357611921926020926000604051809681958294630a85bd0160e11b9a8b85523360048601611881565b50505050600190565b50634e487b7160e01b600052603260045260246000fd5b15611a0a57565b60405162461bcd60e51b815260206004820152600c60248201526b125b9d985b1a5908141bdbdb60a21b6044820152606490fd5b90604051611a4b81610e41565b600081526001600160a01b038316918215611b3d576000818152600260205260409020546001600160a01b0316611af857838161144194611a8f8261144698611d52565b6001600160a01b0383166000908152600360205260409020611ab18154611630565b9055611acb836116e6846000526002602052604060002090565b60007fddf252ad1be2c89b69c2b068fc378daa952ba7f163c4a11628f55a4df523b3ef81604051a46118ef565b60405162461bcd60e51b815260206004820152601c60248201527f4552433732313a20746f6b656e20616c7265616479206d696e746564000000006044820152606490fd5b606460405162461bcd60e51b815260206004820152602060248201527f4552433732313a206d696e7420746f20746865207a65726f20616464726573736044820152fd5b600b54604051633d70e7e560e11b81526004810192909252602090829060249082906001600160a01b03165afa908115611bf5575b600091611bc1575090565b906020823d8211611bed575b81611bda60209383610ea2565b8101031261040f57505161030481610bab565b3d9150611bcd565b611bfd6118b2565b611bb6565b61030490604051610d2f81610971602082019485602b916a1c1bdbdb0b999bdc8b9a5960aa1b8252600b8201520190565b600b546040516321f8a72160e01b81526004810192909252602090829060249082906001600160a01b03165afa908115611ca7575b600091611c73575090565b906020823d8211611c9f575b81611c8c60209383610ea2565b8101031261040f57505161030481610443565b3d9150611c7f565b611caf6118b2565b611c68565b60208183031261000e5780519067ffffffffffffffff821161000e570181601f8201121561000e578051611ce781610ec4565b92611cf56040519485610ea2565b8184526020828401011161000e5761030491602080850191016102ab565b15611d1a57565b60405162461bcd60e51b815260206004820152601060248201526f6e6f74207472616e7366657261626c6560801b6044820152606490fd5b90611d5c81611f55565b6001600160a01b038216611d74576114469150611fce565b61144691611f1d565b6001600160a01b0381811692831592909185918415611e325750611da082611f55565b8216801594908515611e15575050611db89150611fce565b159081611e0c575b50611dc85750565b611e07611e036114469260405161072481610971602082019485602f916e1d1c985b9cd9995c8b9b1bd8dad959608a1b8252600f8201520190565b1590565b611d13565b90501538611dc0565b03611e22575b5050611db8565b611e2b91611f1d565b3883611e1b565b8184168603611e42575b50611da0565b611eb6611e4e826111c0565b6000198101908111611f10575b611ea760009386855260076020526040852054838103611ebd575b5084611e8c886000526007602052604060002090565b556001600160a01b0316600090815260066020526040902090565b90600052602052604060002090565b5538611e3c565b8a8652600660205260408620848752602052611f09604087205480611ef884611ea78760018060a01b03166000526006602052604060002090565b556000526007602052604060002090565b5538611e76565b611f18611602565b611e5b565b604090611f29816111c0565b9260009160018060a01b0316825260066020528282208483526020528083832055815260076020522055565b6008548160005260096020528060406000205568010000000000000000811015611fc1575b6001810180600855811015611fb4575b60086000527ff3f7a9fe364faab93b216da50a3214154f22a0a2b415b23a84c8169e8b636ee30155565b611fbc6119ec565b611f8a565b611fc9610e2a565b611f7a565b6008805460001992908381018181116120d7575b61207e600093849281845260096020528460408520549110156120ca575b86845261206d7ff3f7a9fe364faab93b216da50a3214154f22a0a2b415b23a84c8169e8b636ee29586810154908310156120bd575b88865280837ff3f7a9fe364faab93b216da50a3214154f22a0a2b415b23a84c8169e8b636ee301556000526009602052604060002090565b556000526009602052604060002090565b5582549384156120a9578401938085101561209c575b838352015555565b6120a46119ec565b612094565b634e487b7160e01b83526031600452602483fd5b6120c56119ec565b612035565b6120d26119ec565b612000565b6120df611602565b611fe2565b6120ed81611238565b6001600160a01b0381169081159081156121e2575061210b83611f55565b61211483611fce565b15806121da575b61219a575b61212982611785565b600090808252600360205260408220805490600019820191821161218d575b558282526002602052604082206001600160601b0360a01b81541690557fddf252ad1be2c89b69c2b068fc378daa952ba7f163c4a11628f55a4df523b3ef82604051a4565b612195611602565b612148565b6121d5611e07611e036040516020810190610724816109718985602f916e1d1c985b9cd9995c8b9b1bd8dad959608a1b8252600f8201520190565b612120565b50600061211b565b61222c6121ee826111c0565b6000198101908111612274575b611ea760009387855260076020526040852054838103612232575b5084611e8c896000526007602052604060002090565b5561210b565b87865260066020526040862084875260205261226d604087205480611ef884611ea78760018060a01b03166000526006602052604060002090565b5538612216565b61227c611602565b6121fb56fea26469706673582212206f3647458668f483b2cd2f0d8a47d2f0113bb3cf8b35d6a96f5988e1cd9f04bf64736f6c63430008100033",
  "linkReferences": {},
  "deployedLinkReferences": {}
}