{
  "_format": "hh-sol-artifact-1",
  "contractName": "FrensPoolShare",
  "sourceName": "contracts/FrensPoolShare.sol",
  "abi": [
    {
      "inputs": [
        {
          "internalType": "address",
          "name": "factoryAddress_",
          "type": "address"
        },
        {
          "internalType": "address",
          "name": "ssvRegistryAddress_",
          "type": "address"
        }
      ],
      "stateMutability": "nonpayable",
      "type": "constructor"
    },
    {
      "anonymous": false,
      "inputs": [
        {
          "indexed": true,
          "internalType": "address",
          "name": "owner",
          "type": "address"
        },
        {
          "indexed": true,
          "internalType": "address",
          "name": "approved",
          "type": "address"
        },
        {
          "indexed": true,
          "internalType": "uint256",
          "name": "tokenId",
          "type": "uint256"
        }
      ],
      "name": "Approval",
      "type": "event"
    },
    {
      "anonymous": false,
      "inputs": [
        {
          "indexed": true,
          "internalType": "address",
          "name": "owner",
          "type": "address"
        },
        {
          "indexed": true,
          "internalType": "address",
          "name": "operator",
          "type": "address"
        },
        {
          "indexed": false,
          "internalType": "bool",
          "name": "approved",
          "type": "bool"
        }
      ],
      "name": "ApprovalForAll",
      "type": "event"
    },
    {
      "anonymous": false,
      "inputs": [
        {
          "indexed": true,
          "internalType": "address",
          "name": "previousOwner",
          "type": "address"
        },
        {
          "indexed": true,
          "internalType": "address",
          "name": "newOwner",
          "type": "address"
        }
      ],
      "name": "OwnershipTransferred",
      "type": "event"
    },
    {
      "anonymous": false,
      "inputs": [
        {
          "indexed": true,
          "internalType": "address",
          "name": "from",
          "type": "address"
        },
        {
          "indexed": true,
          "internalType": "address",
          "name": "to",
          "type": "address"
        },
        {
          "indexed": true,
          "internalType": "uint256",
          "name": "tokenId",
          "type": "uint256"
        }
      ],
      "name": "Transfer",
      "type": "event"
    },
    {
      "inputs": [
        {
          "internalType": "address",
          "name": "to",
          "type": "address"
        },
        {
          "internalType": "uint256",
          "name": "tokenId",
          "type": "uint256"
        }
      ],
      "name": "approve",
      "outputs": [],
      "stateMutability": "nonpayable",
      "type": "function"
    },
    {
      "inputs": [
        {
          "internalType": "address",
          "name": "owner",
          "type": "address"
        }
      ],
      "name": "balanceOf",
      "outputs": [
        {
          "internalType": "uint256",
          "name": "",
          "type": "uint256"
        }
      ],
      "stateMutability": "view",
      "type": "function"
    },
    {
      "inputs": [
        {
          "internalType": "uint256",
          "name": "_id",
          "type": "uint256"
        }
      ],
      "name": "exists",
      "outputs": [
        {
          "internalType": "bool",
          "name": "",
          "type": "bool"
        }
      ],
      "stateMutability": "view",
      "type": "function"
    },
    {
      "inputs": [
        {
          "internalType": "uint256",
          "name": "tokenId",
          "type": "uint256"
        }
      ],
      "name": "getApproved",
      "outputs": [
        {
          "internalType": "address",
          "name": "",
          "type": "address"
        }
      ],
      "stateMutability": "view",
      "type": "function"
    },
    {
      "inputs": [
        {
          "internalType": "uint256",
          "name": "amountInWei",
          "type": "uint256"
        }
      ],
      "name": "getEthDecimalString",
      "outputs": [
        {
          "internalType": "string",
          "name": "",
          "type": "string"
        }
      ],
      "stateMutability": "pure",
      "type": "function"
    },
    {
      "inputs": [
        {
          "internalType": "address",
          "name": "poolAddress",
          "type": "address"
        }
      ],
      "name": "getOperatorsForPool",
      "outputs": [
        {
          "internalType": "uint32[]",
          "name": "",
          "type": "uint32[]"
        }
      ],
      "stateMutability": "view",
      "type": "function"
    },
    {
      "inputs": [
        {
          "internalType": "bytes",
          "name": "pubkey",
          "type": "bytes"
        },
        {
          "internalType": "uint256",
          "name": "index",
          "type": "uint256"
        }
      ],
      "name": "getOpreators",
      "outputs": [
        {
          "internalType": "string",
          "name": "",
          "type": "string"
        }
      ],
      "stateMutability": "view",
      "type": "function"
    },
    {
      "inputs": [
        {
          "internalType": "uint256",
          "name": "_id",
          "type": "uint256"
        }
      ],
      "name": "getPoolById",
      "outputs": [
        {
          "internalType": "address",
          "name": "",
          "type": "address"
        }
      ],
      "stateMutability": "view",
      "type": "function"
    },
    {
      "inputs": [],
      "name": "incrementTokenId",
      "outputs": [
        {
          "internalType": "uint256",
          "name": "",
          "type": "uint256"
        }
      ],
      "stateMutability": "nonpayable",
      "type": "function"
    },
    {
      "inputs": [
        {
          "internalType": "address",
          "name": "owner",
          "type": "address"
        },
        {
          "internalType": "address",
          "name": "operator",
          "type": "address"
        }
      ],
      "name": "isApprovedForAll",
      "outputs": [
        {
          "internalType": "bool",
          "name": "",
          "type": "bool"
        }
      ],
      "stateMutability": "view",
      "type": "function"
    },
    {
      "inputs": [
        {
          "internalType": "address",
          "name": "userAddress",
          "type": "address"
        },
        {
          "internalType": "uint256",
          "name": "id",
          "type": "uint256"
        },
        {
          "internalType": "address",
          "name": "_pool",
          "type": "address"
        }
      ],
      "name": "mint",
      "outputs": [],
      "stateMutability": "nonpayable",
      "type": "function"
    },
    {
      "inputs": [],
      "name": "name",
      "outputs": [
        {
          "internalType": "string",
          "name": "",
          "type": "string"
        }
      ],
      "stateMutability": "view",
      "type": "function"
    },
    {
      "inputs": [],
      "name": "owner",
      "outputs": [
        {
          "internalType": "address",
          "name": "",
          "type": "address"
        }
      ],
      "stateMutability": "view",
      "type": "function"
    },
    {
      "inputs": [
        {
          "internalType": "uint256",
          "name": "tokenId",
          "type": "uint256"
        }
      ],
      "name": "ownerOf",
      "outputs": [
        {
          "internalType": "address",
          "name": "",
          "type": "address"
        }
      ],
      "stateMutability": "view",
      "type": "function"
    },
    {
      "inputs": [
        {
          "internalType": "uint256",
          "name": "id",
          "type": "uint256"
        }
      ],
      "name": "renderTokenById",
      "outputs": [
        {
          "internalType": "string",
          "name": "",
          "type": "string"
        }
      ],
      "stateMutability": "view",
      "type": "function"
    },
    {
      "inputs": [],
      "name": "renounceOwnership",
      "outputs": [],
      "stateMutability": "nonpayable",
      "type": "function"
    },
    {
      "inputs": [
        {
          "internalType": "address",
          "name": "from",
          "type": "address"
        },
        {
          "internalType": "address",
          "name": "to",
          "type": "address"
        },
        {
          "internalType": "uint256",
          "name": "tokenId",
          "type": "uint256"
        }
      ],
      "name": "safeTransferFrom",
      "outputs": [],
      "stateMutability": "nonpayable",
      "type": "function"
    },
    {
      "inputs": [
        {
          "internalType": "address",
          "name": "from",
          "type": "address"
        },
        {
          "internalType": "address",
          "name": "to",
          "type": "address"
        },
        {
          "internalType": "uint256",
          "name": "tokenId",
          "type": "uint256"
        },
        {
          "internalType": "bytes",
          "name": "_data",
          "type": "bytes"
        }
      ],
      "name": "safeTransferFrom",
      "outputs": [],
      "stateMutability": "nonpayable",
      "type": "function"
    },
    {
      "inputs": [
        {
          "internalType": "address",
          "name": "operator",
          "type": "address"
        },
        {
          "internalType": "bool",
          "name": "approved",
          "type": "bool"
        }
      ],
      "name": "setApprovalForAll",
      "outputs": [],
      "stateMutability": "nonpayable",
      "type": "function"
    },
    {
      "inputs": [
        {
          "internalType": "bytes4",
          "name": "interfaceId",
          "type": "bytes4"
        }
      ],
      "name": "supportsInterface",
      "outputs": [
        {
          "internalType": "bool",
          "name": "",
          "type": "bool"
        }
      ],
      "stateMutability": "view",
      "type": "function"
    },
    {
      "inputs": [],
      "name": "symbol",
      "outputs": [
        {
          "internalType": "string",
          "name": "",
          "type": "string"
        }
      ],
      "stateMutability": "view",
      "type": "function"
    },
    {
      "inputs": [
        {
          "internalType": "uint256",
          "name": "index",
          "type": "uint256"
        }
      ],
      "name": "tokenByIndex",
      "outputs": [
        {
          "internalType": "uint256",
          "name": "",
          "type": "uint256"
        }
      ],
      "stateMutability": "view",
      "type": "function"
    },
    {
      "inputs": [
        {
          "internalType": "address",
          "name": "owner",
          "type": "address"
        },
        {
          "internalType": "uint256",
          "name": "index",
          "type": "uint256"
        }
      ],
      "name": "tokenOfOwnerByIndex",
      "outputs": [
        {
          "internalType": "uint256",
          "name": "",
          "type": "uint256"
        }
      ],
      "stateMutability": "view",
      "type": "function"
    },
    {
      "inputs": [
        {
          "internalType": "uint256",
          "name": "id",
          "type": "uint256"
        }
      ],
      "name": "tokenURI",
      "outputs": [
        {
          "internalType": "string",
          "name": "",
          "type": "string"
        }
      ],
      "stateMutability": "view",
      "type": "function"
    },
    {
      "inputs": [],
      "name": "totalSupply",
      "outputs": [
        {
          "internalType": "uint256",
          "name": "",
          "type": "uint256"
        }
      ],
      "stateMutability": "view",
      "type": "function"
    },
    {
      "inputs": [
        {
          "internalType": "address",
          "name": "from",
          "type": "address"
        },
        {
          "internalType": "address",
          "name": "to",
          "type": "address"
        },
        {
          "internalType": "uint256",
          "name": "tokenId",
          "type": "uint256"
        }
      ],
      "name": "transferFrom",
      "outputs": [],
      "stateMutability": "nonpayable",
      "type": "function"
    },
    {
      "inputs": [
        {
          "internalType": "address",
          "name": "newOwner",
          "type": "address"
        }
      ],
      "name": "transferOwnership",
      "outputs": [],
      "stateMutability": "nonpayable",
      "type": "function"
    }
  ],
  "bytecode": "0x608034620003cc576001600160401b0390601f1990601f9062004b8b3881900383810185168301919086831184841017620003b6578084926040948552833981010312620003cc576200005281620003f1565b93620000626020809301620003f1565b926200006d620003d1565b9260128452717374616b696e6720636f6e20616d69676f7360701b8185015262000096620003d1565b9060058252644652454e5360d81b81830152845196848811620003b6576000978854966001978881811c91168015620003ab575b85821014620003975790818784931162000344575b508490878311600114620002e3578b92620002d7575b5050600019600383901b1c191690871b1788555b8251948511620002c35785548681811c91168015620002b8575b83821014620002a4579081858796959493116200024b575b5081938511600114620001e65750508692620001da575b5050600019600383901b1c191690821b1790555b600a80546001600160a01b0319808216339081179093556040519590946001600160a01b03949385939091908416907f8be0079c531659141344cd1fd0a4f28419497f9722a3daafe3b4186f6b6457e09089a31683600d541617600d551690600e541617600e556147849081620004078239f35b01519050388062000152565b869593929193168589528389209389905b82821062000231575050841162000217575b505050811b01905562000166565b015160001960f88460031b161c1916905538808062000209565b8484015186558897909501949384019390810190620001f7565b9091929394508689528289208580880160051c8201928589106200029a575b9188978a9297969594930160051c01915b8281106200028b5750506200013b565b8b81558897508991016200027b565b925081926200026a565b634e487b7160e01b89526022600452602489fd5b90607f169062000123565b634e487b7160e01b88526041600452602488fd5b015190503880620000f5565b90848a9416918c8052868d20928d5b888282106200032d575050841162000313575b505050811b01885562000109565b015160001960f88460031b161c1916905538808062000305565b8385015186558d97909501949384019301620002f2565b9091508a8052848b208780850160051c8201928786106200038d575b918b91869594930160051c01915b8281106200037e575050620000df565b8d81558594508b91016200036e565b9250819262000360565b634e487b7160e01b8b52602260045260248bfd5b90607f1690620000ca565b634e487b7160e01b600052604160045260246000fd5b600080fd5b60408051919082016001600160401b03811183821017620003b657604052565b51906001600160a01b0382168203620003cc5756fe60806040526004361015610013575b600080fd5b60003560e01c806301ffc9a71461022f57806306fdde0314610226578063081812fc1461021d578063095ea7b3146102145780630bc59b381461020b5780630d4d15131461020257806318160ddd146101f957806323b872dd146101f05780632f745c59146101e757806342842e0e146101de5780634f3130fa146101d55780634f558e79146101cc5780634f6ccce7146101c35780635ffdfee4146101ba5780636352211e146101b157806370a08231146101a8578063715018a61461019f5780638da5cb5b1461019657806395d89b411461018d578063a090f9b414610184578063a22cb4651461017b578063a2d6c6da14610172578063b88d4fde14610169578063c87b56dd14610160578063e985e9c514610157578063edd148a21461014e5763f2fde38b1461014657600080fd5b61000e6117a6565b5061000e611786565b5061000e611728565b5061000e611024565b5061000e610fd4565b5061000e610fa0565b5061000e610eb3565b5061000e610e3d565b5061000e610d7b565b5061000e610d51565b5061000e610cec565b5061000e610cc0565b5061000e610ca1565b5061000e610be3565b5061000e610a2b565b5061000e6109ef565b5061000e610951565b5061000e610909565b5061000e610855565b5061000e61082b565b5061000e6107d7565b5061000e6105d2565b5061000e61059d565b5061000e6104ad565b5061000e61043a565b5061000e61032f565b5061000e61024a565b6001600160e01b031981160361000e57565b503461000e57602036600319011261000e57602060043561026a81610238565b63ffffffff60e01b1663780e9d6360e01b8114908115610290575b506040519015158152f35b6380ac58cd60e01b8114915081156102c2575b81156102b1575b5038610285565b6301ffc9a760e01b149050386102aa565b635b5e139f60e01b811491506102a3565b60005b8381106102e65750506000910152565b81810151838201526020016102d6565b9060209161030f815180928185528580860191016102d3565b601f01601f1916010190565b90602061032c9281815201906102f6565b90565b503461000e5760008060031936011261043757604051908080549060019180831c9280821692831561042d575b60209283861085146104195785885260208801949081156103f857506001146103a0575b61039c8761039081890382610b4f565b6040519182918261031b565b0390f35b6000805294509192917f290decd9548b62a8d60345a988386fc84ba6bc95484008f6362f93160ef3e5635b8386106103e757505050910190506103908261039c3880610380565b8054858701529482019481016103cb565b60ff191685525050505090151560051b0190506103908261039c3880610380565b634e487b7160e01b82526022600452602482fd5b93607f169361035c565b80fd5b503461000e57602036600319011261000e576020610459600435611a3a565b6040516001600160a01b039091168152f35b600435906001600160a01b038216820361000e57565b604435906001600160a01b038216820361000e57565b602435906001600160a01b038216820361000e57565b503461000e57604036600319011261000e576104c761046b565b6024356104d381611950565b916001600160a01b03808416908216811461054e5761050593610500913314908115610507575b506119c8565b611efe565b005b6001600160a01b0316600090815260056020526040902061054891506105419033905b9060018060a01b0316600052602052604060002090565b5460ff1690565b386104fa565b60405162461bcd60e51b815260206004820152602160248201527f4552433732313a20617070726f76616c20746f2063757272656e74206f776e656044820152603960f91b6064820152608490fd5b503461000e57602036600319011261000e57600435600052600c602052602060018060a01b0360406000205416604051908152f35b503461000e57606036600319011261000e576105ec61046b565b602435906105f8610481565b9160018060a01b039182600d541661066e60409561064387518094633b7a17c560e11b825233600483015281602460209788935afa9081156107ca575b60009161079d575b50612452565b6000858152600c845287902080546001600160a01b0319166001600160a01b03909216919091179055565b84519361067a85610aee565b60008552821690811561075b5760008661075861075388888881896106c36106be6106ba84600052600260205260018060a01b0360406000205416151590565b1590565b6124b3565b6106cd8284612126565b6001600160a01b03831660009081526003602052604090206106ef8154611d56565b905561072883610709846000526002602052604060002090565b80546001600160a01b0319166001600160a01b03909216919091179055565b887fddf252ad1be2c89b69c2b068fc378daa952ba7f163c4a11628f55a4df523b3ef818a51a4612012565b611bc1565b51f35b60649086519062461bcd60e51b825280600483015260248201527f4552433732313a206d696e7420746f20746865207a65726f20616464726573736044820152fd5b6107bd9150853d87116107c3575b6107b58183610b4f565b81019061243d565b3861063d565b503d6107ab565b6107d2611fd5565b610635565b503461000e57600036600319011261000e576020600854604051908152f35b606090600319011261000e576001600160a01b0390600435828116810361000e5791602435908116810361000e579060443590565b503461000e5761050561083d366107f6565b9161085061084b8433611be5565b611acc565b611d80565b503461000e57604036600319011261000e5761086f61046b565b6024359061087c816118d8565b8210156108b0576001600160a01b031660009081526006602090815260408083209383529281529082902054915191825290f35b60405162461bcd60e51b815260206004820152602b60248201527f455243373231456e756d657261626c653a206f776e657220696e646578206f7560448201526a74206f6620626f756e647360a81b6064820152608490fd5b503461000e5761050561091b366107f6565b90604051926020840184811067ffffffffffffffff821117610944575b60405260008452611b45565b61094c610ad7565b610938565b503461000e57600036600319011261000e57600d54604051633b7a17c560e11b81523360048201526109a791602090829060249082906001600160a01b03165afa9081156109e2575b6000916109ca5750612452565b61039c6109b5600b54612497565b80600b55604051918291829190602083019252565b6107bd915060203d81116107c3576107b58183610b4f565b6109ea611fd5565b61099a565b503461000e57602036600319011261000e576004356000908152600260209081526040909120546001600160a01b031615156040519015158152f35b503461000e57602036600319011261000e57600435600854811015610a7d5760086000527ff3f7a9fe364faab93b216da50a3214154f22a0a2b415b23a84c8169e8b636ee30154604051908152602090f35b60405162461bcd60e51b815260206004820152602c60248201527f455243373231456e756d657261626c653a20676c6f62616c20696e646578206f60448201526b7574206f6620626f756e647360a01b6064820152608490fd5b50634e487b7160e01b600052604160045260246000fd5b6020810190811067ffffffffffffffff821117610b0a57604052565b610b12610ad7565b604052565b6040810190811067ffffffffffffffff821117610b0a57604052565b6060810190811067ffffffffffffffff821117610b0a57604052565b90601f8019910116810190811067ffffffffffffffff821117610b0a57604052565b60209067ffffffffffffffff8111610b8f575b601f01601f19160190565b610b97610ad7565b610b84565b81601f8201121561000e57803590610bb382610b71565b92610bc16040519485610b4f565b8284526020838301011161000e57816000926020809301838601378301015290565b503461000e57604036600319011261000e5760043567ffffffffffffffff811161000e5761039063ffffffff610c6c610c4e6000610c2861039c963690600401610b9c565b60018060a01b03600e5416604051808095819463053e834960e01b83526004830161031b565b03915afa908115610c94575b600091610c73575b5060243590612624565b511661466b565b610c8e913d8091833e610c868183610b4f565b810190612a96565b38610c62565b610c9c611fd5565b610c5a565b503461000e57602036600319011261000e576020610459600435611950565b503461000e57602036600319011261000e576020610ce4610cdf61046b565b6118d8565b604051908152f35b503461000e5760008060031936011261043757600a546001600160a01b03811690610d1833831461183d565b6001600160a01b031916600a556040519082907f8be0079c531659141344cd1fd0a4f28419497f9722a3daafe3b4186f6b6457e08284a3f35b503461000e57600036600319011261000e57600a546040516001600160a01b039091168152602090f35b503461000e57600080600319360112610437576040519080600190815480831c92808216928315610e33575b60209283861085146104195785885260208801949081156103f85750600114610dda5761039c8761039081890382610b4f565b600160005294509192917fb10e2d527612073b26eecdfd717e6a320cf44b4afac2b0732d9fcbe2b7fa0cf65b838610610e2257505050910190506103908261039c3880610380565b805485870152948201948101610e06565b93607f1693610da7565b503461000e5760208060031936011261000e57610e60610e5b61046b565b6145a7565b906040519181839283018184528251809152816040850193019160005b828110610e8c57505050500390f35b835163ffffffff1685528695509381019392810192600101610e7d565b8015150361000e57565b503461000e57604036600319011261000e57610ecd61046b565b602435610ed981610ea9565b6001600160a01b03821691338314610f5b5781610f18610f299233600052600560205260406000209060018060a01b0316600052602052604060002090565b9060ff801983541691151516179055565b604051901515815233907f17307eab39ab6107e8899845ad3d59bd9653f200f220920489ca2b5937696c3190602090a3005b60405162461bcd60e51b815260206004820152601960248201527f4552433732313a20617070726f766520746f2063616c6c6572000000000000006044820152606490fd5b503461000e57602036600319011261000e5761039c610fc0600435612b2d565b6040519182916020835260208301906102f6565b503461000e57608036600319011261000e57610fee61046b565b610ff6610497565b6064359167ffffffffffffffff831161000e5761101a610505933690600401610b9c565b9160443591611b45565b503461000e5760208060031936011261000e5760043560008181526002602052604090205461105d906001600160a01b031615156124ff565b61108161107482600052600c602052604060002090565b546001600160a01b031690565b6040805163378de45b60e01b81526004810184905290926001600160a01b038316929185919085906110cb9084816024818a5afa90811561171b575b600091611704575b506144da565b81516333c7180560e11b815260048101849052909590611102908581602481865afa9081156116f7575b6000916116ca57506144da565b9461111561110f836127e4565b916145a7565b908151156000146116be576004600080945b8651631865c57d60e01b815292839182905afa9081156116b1575b600091611690575b50611154866126b4565b978551809989820161117e90601190706672656e20706f6f6c207368617265202360781b81520190565b611187916125a5565b0399601f199a8b81018b5261119c908b610b4f565b865193848a81016111d190601b907f74686973206672656e206861732061206465706f736974206f6620000000000081520190565b6111db90846125a5565b6c01022ba341034b7103837b7b61609d1b8152600d016111fb90836125a5565b7f207769746820636c61696d61626c652062616c616e6365206f662000000000008152601b0161122b90856125a5565b630408ae8d60e31b8152600401038c810186526112489086610b4f565b611251896129fa565b61125a90612911565b98611264906126b4565b87156116825761129461128f61128661127c8a6125db565b5163ffffffff1690565b63ffffffff1690565b61466b565b955b8815611674576112ae61128f61128661127c8b6125f1565b975b8915611666576112c861128f61128661127c84612602565b995b156116575761128f61128661127c6112e193612613565b995b51683d913730b6b2911d1160b91b9c81019c8d529c8d9c600901611306916125a5565b71111610113232b9b1b934b83a34b7b7111d1160711b815260120161132a916125a5565b7f222c202265787465726e616c5f75726c223a2268747470733a2f2f6672656e7381526a2e66756e2f746f6b656e2f60a81b6020820152602b0161136d916125a5565b7f222c202261747472696275746573223a205b7b2274726169745f74797065223a81527110113837b7b6111610113b30b63ab2911d1160711b60208201526032016113b7916125a5565b7f227d2c7b2274726169745f74797065223a20226465706f736974222c20227661815266363ab2911d101160c91b60208201526027016113f6916125a5565b630408ae8d60e31b81526004017f227d2c7b2274726169745f74797065223a2022636c61696d61626c65222c20228152683b30b63ab2911d101160b91b6020820152602901611444916125a5565b630408ae8d60e31b81526004017f227d2c7b2274726169745f74797065223a2022706f6f6c207374617465222c20815269113b30b63ab2911d101160b11b6020820152602a01611493916125a5565b7f227d2c7b2274726169745f74797065223a20226f70657261746f7231222c20228152683b30b63ab2911d101160b91b60208201526029016114d4916125a5565b7f227d2c7b2274726169745f74797065223a20226f70657261746f7232222c20228152683b30b63ab2911d101160b91b6020820152602901611515916125a5565b7f227d2c7b2274726169745f74797065223a20226f70657261746f7233222c20228152683b30b63ab2911d101160b91b6020820152602901611556916125a5565b7f227d2c7b2274726169745f74797065223a20226f70657261746f7234222c20228152683b30b63ab2911d101160b91b6020820152602901611597916125a5565b6e113eae96101134b6b0b3b2911d101160891b8152600f017f646174613a696d6167652f7376672b786d6c3b6261736536342c0000000000008152601a016115de916125a5565b61227d60f01b81526002010382810182526115f99082610b4f565b61160290612911565b82517f646174613a6170706c69636174696f6e2f6a736f6e3b6261736536342c00000094810194855293849190601d0161163b916125a5565b03908101835261164b9083610b4f565b5161039c81928261031b565b506116606125b8565b996112e3565b61166e6125b8565b996112ca565b61167c6125b8565b976112b0565b61168a6125b8565b95611296565b6116ab913d8091833e6116a38183610b4f565b810190612546565b3861114a565b6116b9611fd5565b611142565b60046000600194611127565b6116ea9150863d88116116f0575b6116e28183610b4f565b810190612537565b386110c5565b503d6116d8565b6116ff611fd5565b6110f5565b6116ea9150853d87116116f0576116e28183610b4f565b611723611fd5565b6110bd565b503461000e57604036600319011261000e57602060ff61177a61174961046b565b611751610497565b6001600160a01b0391821660009081526005865260408082209290931681526020919091522090565b54166040519015158152f35b503461000e57602036600319011261000e5761039c610fc06004356144da565b503461000e57602036600319011261000e576117c061046b565b600a546001600160a01b03906117d9908216331461183d565b8116156117e95761050590611888565b60405162461bcd60e51b815260206004820152602660248201527f4f776e61626c653a206e6577206f776e657220697320746865207a65726f206160448201526564647265737360d01b6064820152608490fd5b1561184457565b606460405162461bcd60e51b815260206004820152602060248201527f4f776e61626c653a2063616c6c6572206973206e6f7420746865206f776e65726044820152fd5b600a549060018060a01b0380911691826bffffffffffffffffffffffff60a01b821617600a55167f8be0079c531659141344cd1fd0a4f28419497f9722a3daafe3b4186f6b6457e06000604051a3565b6001600160a01b031680156118f857600052600360205260406000205490565b60405162461bcd60e51b815260206004820152602a60248201527f4552433732313a2062616c616e636520717565727920666f7220746865207a65604482015269726f206164647265737360b01b6064820152608490fd5b6000908152600260205260409020546001600160a01b031680156119715790565b60405162461bcd60e51b815260206004820152602960248201527f4552433732313a206f776e657220717565727920666f72206e6f6e657869737460448201526832b73a103a37b5b2b760b91b6064820152608490fd5b156119cf57565b60405162461bcd60e51b815260206004820152603860248201527f4552433732313a20617070726f76652063616c6c6572206973206e6f74206f7760448201527f6e6572206e6f7220617070726f76656420666f7220616c6c00000000000000006064820152608490fd5b6000818152600260205260409020546001600160a01b031615611a72576000908152600460205260409020546001600160a01b031690565b60405162461bcd60e51b815260206004820152602c60248201527f4552433732313a20617070726f76656420717565727920666f72206e6f6e657860448201526b34b9ba32b73a103a37b5b2b760a11b6064820152608490fd5b15611ad357565b60405162461bcd60e51b815260206004820152603160248201527f4552433732313a207472616e736665722063616c6c6572206973206e6f74206f6044820152701ddb995c881b9bdc88185c1c1c9bdd9959607a1b6064820152608490fd5b60405190611b3f82610aee565b60008252565b91611b6c939161075393611b5c61084b8433611be5565b611b67838383611d80565b6120d3565b565b60809060208152603260208201527f4552433732313a207472616e7366657220746f206e6f6e20455243373231526560408201527131b2b4bb32b91034b6b83632b6b2b73a32b960711b60608201520190565b15611bc857565b60405162461bcd60e51b815280611be160048201611b6e565b0390fd5b6000828152600260205260409020546001600160a01b031615611c7657611c0b82611950565b6001600160a01b038281168282168114949091908515611c5e575b5050508215611c3457505090565b6001600160a01b0316600090815260056020526040902060ff9250611c59919061052a565b541690565b611c6b9192939550611a3a565b161491388080611c26565b60405162461bcd60e51b815260206004820152602c60248201527f4552433732313a206f70657261746f7220717565727920666f72206e6f6e657860448201526b34b9ba32b73a103a37b5b2b760a11b6064820152608490fd5b15611cd757565b60405162461bcd60e51b8152602060048201526024808201527f4552433732313a207472616e7366657220746f20746865207a65726f206164646044820152637265737360e01b6064820152608490fd5b50634e487b7160e01b600052601160045260246000fd5b600019810191908211611d4e57565b611b6c611d28565b9060018201809211611d4e57565b9060028201809211611d4e57565b9060208201809211611d4e57565b90611d8a83611950565b6001600160a01b038381169290918216839003611e5157611de4611e2892821694611db6861515611cd0565b611dc1878483612151565b611dca87611ea8565b6001600160a01b0316600090815260036020526040902090565b611dee8154611d3f565b90556001600160a01b0381166000908152600360205260409020611e128154611d56565b9055610709856000526002602052604060002090565b7fddf252ad1be2c89b69c2b068fc378daa952ba7f163c4a11628f55a4df523b3ef6000604051a4565b60405162461bcd60e51b815260206004820152602960248201527f4552433732313a207472616e73666572206f6620746f6b656e2074686174206960448201526839903737ba1037bbb760b91b6064820152608490fd5b600081815260046020526040812080546001600160a01b03191690556001600160a01b03611ed583611950565b167f8c5be1e5ebec7d5bd14f71427d1e84f3dd0314c0f7b2291e5b200ac8c7c3b92582604051a4565b600082815260046020526040902080546001600160a01b0319166001600160a01b0383161790556001600160a01b0380611f3784611950565b169116907f8c5be1e5ebec7d5bd14f71427d1e84f3dd0314c0f7b2291e5b200ac8c7c3b9256000604051a4565b9081602091031261000e575161032c81610238565b61032c939260809260018060a01b0316825260006020830152604082015281606082015201906102f6565b6001600160a01b03918216815291166020820152604081019190915260806060820181905261032c929101906102f6565b506040513d6000823e3d90fd5b3d1561200d573d90611ff382610b71565b916120016040519384610b4f565b82523d6000602084013e565b606090565b909190803b156120cb57612044602091600093604051948580948193630a85bd0160e11b998a84523360048501611f79565b03926001600160a01b03165af16000918161209b575b5061208d57612067611fe2565b805190816120885760405162461bcd60e51b815280611be160048201611b6e565b602001fd5b6001600160e01b0319161490565b6120bd91925060203d81116120c4575b6120b58183610b4f565b810190611f64565b903861205a565b503d6120ab565b505050600190565b92909190823b1561210657612044926020926000604051809681958294630a85bd0160e11b9a8b85523360048601611fa4565b50505050600190565b50634e487b7160e01b600052603260045260246000fd5b90612130816122ae565b6001600160a01b03821661214857611b6c9150612327565b611b6c91612276565b9091906001600160a01b03808216918261218b575061216f836122ae565b831680612182575050611b6c9150612327565b03612148575050565b818516830361219b575b5061216f565b61220f6121a7826118d8565b6000198101908111612269575b61220060009387855260076020526040852054838103612216575b50846121e5896000526007602052604060002090565b556001600160a01b0316600090815260066020526040902090565b90600052602052604060002090565b5538612195565b878652600660205260408620848752602052612262604087205480612251846122008760018060a01b03166000526006602052604060002090565b556000526007602052604060002090565b55386121cf565b612271611d28565b6121b4565b604090612282816118d8565b9260009160018060a01b0316825260066020528282208483526020528083832055815260076020522055565b600854816000526009602052806040600020556801000000000000000081101561231a575b600181018060085581101561230d575b60086000527ff3f7a9fe364faab93b216da50a3214154f22a0a2b415b23a84c8169e8b636ee30155565b61231561210f565b6122e3565b612322610ad7565b6122d3565b600880546000199290838101818111612430575b6123d760009384928184526009602052846040852054911015612423575b8684526123c67ff3f7a9fe364faab93b216da50a3214154f22a0a2b415b23a84c8169e8b636ee2958681015490831015612416575b88865280837ff3f7a9fe364faab93b216da50a3214154f22a0a2b415b23a84c8169e8b636ee301556000526009602052604060002090565b556000526009602052604060002090565b55825493841561240257840193808510156123f5575b838352015555565b6123fd61210f565b6123ed565b634e487b7160e01b83526031600452602483fd5b61241e61210f565b61238e565b61242b61210f565b612359565b612438611d28565b61233b565b9081602091031261000e575161032c81610ea9565b1561245957565b60405162461bcd60e51b81526020600482015260166024820152751b5d5cdd0818994818481cdd185ada5b99c81c1bdbdb60521b6044820152606490fd5b60019060001981146124a7570190565b6124af611d28565b0190565b156124ba57565b60405162461bcd60e51b815260206004820152601c60248201527f4552433732313a20746f6b656e20616c7265616479206d696e746564000000006044820152606490fd5b1561250657565b60405162461bcd60e51b81526020600482015260096024820152681b9bdd08195e1a5cdd60ba1b6044820152606490fd5b9081602091031261000e575190565b60208183031261000e5780519067ffffffffffffffff821161000e570181601f8201121561000e57805161257981610b71565b926125876040519485610b4f565b8184526020828401011161000e5761032c91602080850191016102d3565b906124af602092828151948592016102d3565b604051906125c582610b17565b6007825266139bdd0814d95d60ca1b6020830152565b6020908051156125e9570190565b6124af61210f565b6040908051600110156125e9570190565b6060908051600210156125e9570190565b6080908051600310156125e9570190565b6020918151811015612639575b60051b010190565b61264161210f565b612631565b6040519061265382610b17565b60018252600360fc1b6020830152565b9061266d82610b71565b61267a6040519182610b4f565b828152809261268b601f1991610b71565b0190602036910137565b9060209180518210156126a757010190565b6126af61210f565b010190565b8015612750576000818181805b61273857506126cf81612663565b935b6126db5750505090565b600019810190811161272b575b8091600a916127156030848406810180911161271e575b60f81b6001600160f81b031916861a9187612695565b530490816126d1565b612726611d28565b6126ff565b612733611d28565b6126e8565b9150612745600a91612497565b9104808492916126c1565b5061032c612646565b6001600160fe1b038111600116612771575b60021b90565b612779611d28565b61276b565b801561278c575b6000190190565b612794611d28565b612785565b156127a057565b606460405162461bcd60e51b815260206004820152602060248201527f537472696e67733a20686578206c656e67746820696e73756666696369656e746044820152fd5b604051906127f182610b33565b602a825260403660208401376030612808836125db565b538151600190811015612886575b90607860218401536029915b808311612835575061032c915015612799565b9080600f61287292166010811015612879575b6f181899199a1a9b1b9c1cb0b131b232b360811b901a6128688587612695565b5360041c9261277e565b9190612822565b61288161210f565b612848565b61288e61210f565b612816565b604051906060820182811067ffffffffffffffff821117612904575b604052604082527f6768696a6b6c6d6e6f707172737475767778797a303132333435363738392b2f6040837f4142434445464748494a4b4c4d4e4f505152535455565758595a61626364656660208201520152565b61290c610ad7565b6128af565b8051156129f157612920612893565b61293c6129376129308451611d64565b6003900490565b612759565b9161294e61294984611d72565b612663565b92835280815182019060208501935b82821061299f5750505060039051068060011461298e5760021461297f575090565b603d60f81b6000199091015290565b50613d3d60f01b6001199091015290565b9091936004906003809401938451600190603f9082828260121c16880101518553828282600c1c16880101518386015382828260061c168801015160028601531685010151908201530193919061295d565b5061032c611b32565b612a0390612b2d565b61032c606760405180937f3c7376672077696474683d2234303022206865696768743d223430302220786d60208301527f6c6e733d22687474703a2f2f7777772e77332e6f72672f323030302f737667226040830152601f60f91b6060830152612a778151809260206061860191016102d3565b8101651e17b9bb339f60d11b6061820152036047810184520182610b4f565b90602090818382031261000e57825167ffffffffffffffff9384821161000e570181601f8201121561000e578051938411612b20575b8360051b9060405194612ae185840187610b4f565b8552838086019282010192831161000e578301905b828210612b04575050505090565b815163ffffffff8116810361000e578152908301908301612af6565b612b28610ad7565b612acc565b612b9a612bd4612bbb612b62612b56612b56612b5661107488600052600c602052604060002090565b6001600160a01b031690565b60405163378de45b60e01b8152600481018690529094602094859283816024818b5afa908115614495575b60009161447e57506144da565b9560405180809581946333c7180560e11b8352600483019190602083019252565b03915afa908115614471575b60009161445a57506144da565b6040517f3c7376672076696577426f783d222d313030202d3130302031303030203130309281019283526218111f60e91b60208401529283926023017f3c7265637420783d222d3130302220793d222d313030222077696474683d223181527f30303022206865696768743d2231303030222069643d227376675f312220666960208201527f6c6c3d222366666622207374726f6b652d77696474683d223322207374726f6b60408201527f653d2223303030222f3e3c7061746820636c69702d72756c653d226576656e6f60608201527f64642220643d224d31343420393563302d342d322d372d342d31302d332d332d60808201527f362d342d31302d34732d3720312d31302034632d3220332d3420362d3420313060a08201527f613134203134203020302030203134203134203134203134203020302030203160c08201527f342d31347a222066696c6c3d2223653931653233222066696c6c2d72756c653d60e08201526a1132bb32b737b23211179f60a91b61010082015261010b017f3c7061746820636c69702d72756c653d226576656e6f64642220643d224d333481527f39203837632d332d332d362d342d31302d34732d3720312d31302034632d322060208201527f332d3420362d342031307332203720342031306131342031342030203020302060408201527f3230203063322d3320342d3620342d3130732d322d372d342d31307a2220666960608201527f6c6c3d2223303262326537222066696c6c2d72756c653d226576656e6f646422608082015261179f60f11b60a082015260a2017f3c7061746820636c69702d72756c653d226576656e6f64642220643d224d343981527f39203836632d332d322d362d342d31302d34732d3720322d31302034632d322060208201527f332d3420372d342031306131342031342030203020302031342031346334203060408201527f20372d312031302d3420322d3220342d3620342d313020302d332d322d372d3460608201527f2d31305a222066696c6c3d2223666162633136222066696c6c2d72756c653d2260808201526932bb32b737b23211179f60b11b60a082015260aa017f3c7061746820636c69702d72756c653d226576656e6f64642220643d224d363781527f38203930632d332d332d362d352d31302d35732d3720322d31302035632d332060208201527f322d3420362d342039203020342031203820342031302033203320362035203160408201527f30203573372d322031302d3563322d3220342d3620342d313020302d332d322d60608201527f372d342d395a222066696c6c3d2223303262326537222066696c6c2d72756c6560808201526b1e9132bb32b737b23211179f60a11b60a082015260ac017f3c7061746820636c69702d72756c653d226576656e6f64642220643d224d343381527f33203436762d38632d31352d352d33302d332d343420352d3420322d3820372d60208201527f31322031346c2d38203231632d3220332d3320382d332031346c2d322031346360408201527f2d3220362d332031352d332032392031372d322033302d342034312d3720313660608201527f2d342032382d31312033362d31392d3720302d313620322d323620356c2d323560808201527f2038632d3520302d392d322d31302d362d322d342d322d382d312d31326c392d60a08201527f313263342d3420392d352031352d346c322d3320332d322037203120362d312060c08201527f31312d3563352d3120392d332031322d36682d35326c2d342d32762d3563302d60e08201527f3420332d3720372d382031302d352032332d382034312d31315a6d38203238686101008201527f352d355a6d35203020322031633420312036203120382d31682d31305a2220666101208201527334b63616b93ab6329e9132bb32b737b23211179f60611b6101408201526101540160008051602061472f83398151915281527f224d34343120373268356d302030203220316d3020306334203120362031203860208201527f2d316d302030682d31306d302030682d356d302030682d35326d3020302d342d60408201527f32762d3563302d3420332d3720372d382031302d352032332d382034312d313160608201527f6d302030762d386d302030632d31352d352d33302d332d343420352d3420322d60808201527f3820372d31322031346d3020302d382032316d302030632d3220332d3320382d60a08201527f332031346c2d32203134632d3220362d332031352d332032392031372d32203360c08201527f302d342034312d372031362d342032382d31312033362d31392d3720302d313660e08201527f20322d323620356d3020302d323520386d302030632d3520302d392d322d31306101008201527f2d362d322d342d322d382d312d31326c392d313263342d3420392d352031352d6101208201527f346c322d3320332d326d302030203720316d30203020362d312031312d3563356101408201527f2d3120392d332031322d36222066696c6c3d226e6f6e6522207374726f6b653d6101608201527f222330303022207374726f6b652d77696474683d2231322e3222207374726f6b6101808201527f652d6c696e656361703d22726f756e6422207374726f6b652d6c696e656a6f696101a08201526a371e913937bab73211179f60a91b6101c08201526101cb017f3c7061746820636c69702d72756c653d226576656e6f64642220643d226d363281527f3820343620322d3920332d3920332d3620342d3563322d3520332d3920312d3160208201527f336c2d31352033352d31342033362d35203134632d3320352d3720372d31332060408201527f342d31342d362d32362d31352d33332d32366c2d382d3136632d332d352d362d60608201527f372d382d352d3720382d31322031392d31342033356c2d34203431633220302060808201527f3420312034203476326c322d3163322d3320332d3820342d31346c332d31366360a08201527f302d3620312d313020332d313320312d3320342d3420382d347339203220313460c08201527f20356c313320313020313220313363362035203130203920313520313120352060e08201527f302037203020372d3220302d313120322d323320352d33366c31312d33355a2261010082015275103334b63616b93ab6329e9132bb32b737b23211179f60511b6101208201526101360160008051602061472f83398151915281527f226d36333020333720332d3920332d366d30203020342d356d30203063322d3560208201527f20332d3920312d31336c2d31352033352d31342033366d3020302d352031346d60408201527f302030632d3320352d3720372d313320342d31342d362d32362d31352d33332d60608201527f32366d3020302d382d31366d302030632d332d352d362d372d382d352d37203860808201527f2d31322031392d31342033356d3020302d342034316d3020306332203020342060a08201527f31203420346d30203076326d30203020322d3163322d3320332d3820342d313460c08201527f6d30203020332d31366d30203063302d3620312d313020332d313320312d332060e08201527f342d3420382d347339203220313420356c31332031306d3020302031322031336101008201527f6d302030633620352031302039203135203131203520302037203020372d32206101208201527f302d313120322d323320352d333661363837203638372030203020312031332d6101408201527f3434222066696c6c3d226e6f6e6522207374726f6b653d2223303030222073746101608201527f726f6b652d77696474683d2231322e3222207374726f6b652d6c696e656361706101808201527f3d22726f756e6422207374726f6b652d6c696e656a6f696e3d22726f756e64226101a082015261179f60f11b6101c08201526101c2017f3c7061746820636c69702d72756c653d226576656e6f64642220643d224d373881527f36203338762d38682d386c2d3331203231632d323220392d33332031392d333160208201527f203239203220342035203720313020386c313620312031392d3220313720312060408201527f3320312032203476366c2d332034632d3620362d31332031302d32322031342d60608201527f3820342d313620362d323420382d3320332d3520372d3520313020342d34203160808201527f312d372031392d31316c32322d3863382d332031342d362031382d313020362d60a08201527f3520392d31312031302d31382d362d342d31362d362d32382d36682d3331632d60c08201527f322d312d332d332d332d366c312d376331362d31332033312d32312034362d3260e08201527f3620322d3120332d3320332d355a222066696c6c2d72756c653d226576656e6f61010082015264323211179f60d91b6101208201526101250160008051602061472f83398151915281527f224d373836203330682d386d3020302d3331203231632d323220392d3333203160208201527f392d3331203239203220342035203720313020386d302030203136203120313960408201527f2d3220313720316d302030203320316d302030203220346d30203076366d302060608201527f302d3320356d302030632d3620352d313320392d32322031332d3820342d313660808201527f20362d323420382d3320332d3520372d3520313020342d342031312d3720313960a08201527f2d31316d3020302032322d386d30203063382d332031342d362031382d31302060c08201527f362d3520392d31312031302d31382d362d342d31362d362d32382d366d30203060e08201527f682d33316d302030632d322d312d332d332d332d366d30203020312d376d30206101008201527f306331362d31332033312d32312034362d323620322d3120332d3320332d356d6101208201527f302030762d38222066696c6c3d226e6f6e6522207374726f6b653d22233030306101408201527f22207374726f6b652d77696474683d2231322e3222207374726f6b652d6c696e6101608201527f656361703d22726f756e6422207374726f6b652d6c696e656a6f696e3d22726f610180820152653ab73211179f60d11b6101a08201526101a6017f3c7061746820636c69702d72756c653d226576656e6f64642220643d224d323481527f35203332682d31376c2d3138203130632d3720322d313420302d31382d356c2d60208201527f332031312d31332035382d3132203537632d3320372d3220313520322032376c60408201527f312d323320332d323263322d313620382d32392031372d333720342d3320313160608201527f2d342032312d326c32322038633139203720333520392034372035762d35632d60808201527f3820302d31362d322d32362d356c2d32362d392d332d352d322d3563322d352060a08201527f372d392031332d31336c31372d313063362d342031302d382031322d3131203260c08201527f2d3520312d31302d332d31362d332d342d372d362d31342d387a6d2d3320323460e08201527f2d31342031332d3138203133632d3620332d313020342d3133203320302d37206101008201527f302d313220322d313620322d3520352d392031302d31326c31382d3863392d346101208201527f2031352d342031382d3220322031203120342d3320397a222066696c6c2d72756101408201526d36329e9132bb32b737b23211179f60911b61016082015261016e0160008051602061472f83398151915281527f226d3232382033322d3138203130632d3720322d313420302d31382d356d302060208201527f302d332031316d3020302d31332035382d3132203537632d3320372d3220313560408201527f20322032376d30203020312d32336d30203020332d323263322d313620382d3260608201527f392031372d333720342d332031312d342032312d326c3232203863313920372060808201527f3335203920343720356d302030762d356d302030632d3820302d31362d322d3260a08201527f362d356d3020302d32362d392d332d356d3020302d322d3563322d3520372d3960c08201527f2031332d31336d3020302031372d31306d30203063362d342031302d3820313260e08201527f2d313120322d3520312d31302d332d31362d332d342d372d362d31342d38682d6101008201527f3137222066696c6c3d226e6f6e6522207374726f6b653d2223303030222073746101208201527f726f6b652d77696474683d2231322e3222207374726f6b652d6c696e656361706101408201527f3d22726f756e6422207374726f6b652d6c696e656a6f696e3d22726f756e642261016082015261179f60f11b610180820152610182017f3c7061746820636c69702d72756c653d226576656e6f64642220643d226d363181527f2032312032302d356332203020342d3220352d3420322d3320312d342d322d3460208201527f2d392d332d31382d322d323820302d3820332d313620372d32312031332d352060408201527f332d3920392d31312031396c2d332031332d342031332d362038632d3220332d60608201527f3320372d322031302032203220332034203320386c312032342d332032332d3360808201527f2032352d3120323520372d343720392d343763302d3320322d3520362d38203360a08201527f2d3120362d332031302d336c31352d342031352d362031352d3620342d312d3460c08201527f392034632d3320302d352d312d382d332d322d332d332d352d332d3820342d3160e08201527f3420392d32342031362d33317a222066696c6c2d72756c653d226576656e6f64610100820152633211179f60e11b6101208201526101240160008051602061472f83398151915281527f226d38372036372d353020346d3020302d372d33632d322d332d332d352d332d60208201527f3820342d313420392d32342031362d33316d3020302031382d386d302030203260408201527f302d356332203020342d3220352d3420322d3320312d342d322d342d392d332d60608201527f31382d322d323820302d3820332d313620372d32312031332d3520332d39203960808201527f2d31312031396d3020302d332031336d3020302d342031336d3020302d36203860a08201527f6d302030632d3220332d3320372d322031302032203220332034203320386c3160c08201527f2032342d332032336d3020302d332032356d3020302d312032356d302030203760e08201527f2d34376d30203020392d343763302d3320322d3520362d3820332d3120362d336101008201527f2031302d336c31352d346d3020302031352d366d3020302031352d366d3020306101208201527f20342d316d31322d312d31322031222066696c6c3d226e6f6e6522207374726f6101408201527f6b653d222330303022207374726f6b652d77696474683d2231322e32222073746101608201527f726f6b652d6c696e656361703d22726f756e6422207374726f6b652d6c696e656101808201526d3537b4b71e913937bab73211179f60911b6101a08201526101ae017f3c7465787420666f6e742d73697a653d223132302220666f6e742d776569676881527f743d22626f6c642220783d223132302220793d22333530222066696c6c3d226260208201527f6c756522207374726f6b653d222330303022207374726f6b652d77696474683d60408201527f22312220666f6e742d66616d696c793d2273616e732d7365726966223e0000006060820152607d01672232b837b9b4ba1d60c11b8152600801661e17ba32bc3a1f60c91b81526007017f3c7465787420666f6e742d73697a653d2238302220666f6e742d77656967687481527f3d22626f6c642220783d223235302220793d22343630222066696c6c3d22626c60208201527f756522207374726f6b653d222330303022207374726f6b652d77696474683d2260408201527f312220666f6e742d66616d696c793d2273616e732d7365726966223e000000006060820152607c016142a3916125a5565b630408ae8d60e31b8152600401661e17ba32bc3a1f60c91b81526007017f3c7465787420666f6e742d73697a653d223132302220666f6e742d776569676881527f743d22626f6c642220783d2238302220793d22363230222066696c6c3d22677260208201527f65656e22207374726f6b653d222330303022207374726f6b652d77696474683d60408201527f22312220666f6e742d66616d696c793d2273616e732d7365726966223e0000006060820152607d016921b630b4b6b0b136329d60b11b8152600a01661e17ba32bc3a1f60c91b81526007017f3c7465787420666f6e742d73697a653d2238302220666f6e742d77656967687481527f3d22626f6c642220783d223235302220793d22373330222066696c6c3d22677260208201527f65656e22207374726f6b653d222330303022207374726f6b652d77696474683d60408201527f22312220666f6e742d66616d696c793d2273616e732d7365726966223e0000006060820152607d0161441c916125a5565b630408ae8d60e31b8152600401661e17ba32bc3a1f60c91b8152600701651e17b9bb339f60d11b815260060103601f198101825261032c9082610b4f565b6116ea9150833d85116116f0576116e28183610b4f565b614479611fd5565b612bc7565b6116ea9150843d86116116f0576116e28183610b4f565b61449d611fd5565b612b8d565b90611b6c60216040518094600360fc1b60208301526144ca81518092602086860191016102d3565b8101036001810185520183610b4f565b655af3107a4000670de0b6b3a76400006144f581840461466b565b920604906145028261466b565b916103e88110614597575b60648110614583575b600a1161456b575b602161032c91604051938161453d8693518092602080870191016102d3565b8201601760f91b602082015261455c82518093602087850191016102d3565b01036001810184520182610b4f565b90602161457a61032c926144a2565b9291505061451e565b9161458f600a916144a2565b929050614516565b916145a1906144a2565b9161450d565b604051634ad02ef160e01b815260009161460a9183916001600160a01b039083908390600490829085165afa91821561465e575b8392614642575b50600e5416604051808095819463053e834960e01b83526020600484015260248301906102f6565b03915afa918215614635575b809261462157505090565b61032c92503d8091833e610c868183610b4f565b61463d611fd5565b614616565b6146579192503d8085833e6116a38183610b4f565b90386145e2565b614666611fd5565b6145db565b8015612750578060008281935b61471a57508161468784612663565b93905b6146945750505090565b61469d90611d3f565b91826146eb600a9283810493846000190481118515151661470d575b84028103908111614700575b60ff8091166030019081116146f3575b60f81b6001600160f81b031916841a9186612695565b53918261468a565b6146fb611d28565b6146d5565b614708611d28565b6146c5565b614715611d28565b6146b9565b92614726600a91612497565b93048061467856fe3c70617468207374726f6b652d6d697465726c696d69743d22322e362220643da264697066735822122041305d704fbb7b275227c9aca50dc36a380265a44a074d7a6794cea5b3dbc1b164736f6c63430008100033",
  "linkReferences": {},
  "deployedLinkReferences": {}
}