{
  "_format": "hh-sol-artifact-1",
  "contractName": "FrensPoolShare",
  "sourceName": "contracts/FrensPoolShare.sol",
  "abi": [
    {
      "inputs": [
        {
          "internalType": "contract IFrensStorage",
          "name": "_frensStorage",
          "type": "address"
        }
      ],
      "stateMutability": "nonpayable",
      "type": "constructor"
    },
    {
      "anonymous": false,
      "inputs": [
        {
          "indexed": true,
          "internalType": "address",
          "name": "owner",
          "type": "address"
        },
        {
          "indexed": true,
          "internalType": "address",
          "name": "approved",
          "type": "address"
        },
        {
          "indexed": true,
          "internalType": "uint256",
          "name": "tokenId",
          "type": "uint256"
        }
      ],
      "name": "Approval",
      "type": "event"
    },
    {
      "anonymous": false,
      "inputs": [
        {
          "indexed": true,
          "internalType": "address",
          "name": "owner",
          "type": "address"
        },
        {
          "indexed": true,
          "internalType": "address",
          "name": "operator",
          "type": "address"
        },
        {
          "indexed": false,
          "internalType": "bool",
          "name": "approved",
          "type": "bool"
        }
      ],
      "name": "ApprovalForAll",
      "type": "event"
    },
    {
      "anonymous": false,
      "inputs": [
        {
          "indexed": true,
          "internalType": "address",
          "name": "previousOwner",
          "type": "address"
        },
        {
          "indexed": true,
          "internalType": "address",
          "name": "newOwner",
          "type": "address"
        }
      ],
      "name": "OwnershipTransferred",
      "type": "event"
    },
    {
      "anonymous": false,
      "inputs": [
        {
          "indexed": true,
          "internalType": "address",
          "name": "from",
          "type": "address"
        },
        {
          "indexed": true,
          "internalType": "address",
          "name": "to",
          "type": "address"
        },
        {
          "indexed": true,
          "internalType": "uint256",
          "name": "tokenId",
          "type": "uint256"
        }
      ],
      "name": "Transfer",
      "type": "event"
    },
    {
      "inputs": [
        {
          "internalType": "address",
          "name": "to",
          "type": "address"
        },
        {
          "internalType": "uint256",
          "name": "tokenId",
          "type": "uint256"
        }
      ],
      "name": "approve",
      "outputs": [],
      "stateMutability": "nonpayable",
      "type": "function"
    },
    {
      "inputs": [
        {
          "internalType": "address",
          "name": "owner",
          "type": "address"
        }
      ],
      "name": "balanceOf",
      "outputs": [
        {
          "internalType": "uint256",
          "name": "",
          "type": "uint256"
        }
      ],
      "stateMutability": "view",
      "type": "function"
    },
    {
      "inputs": [
        {
          "internalType": "uint256",
          "name": "_id",
          "type": "uint256"
        }
      ],
      "name": "exists",
      "outputs": [
        {
          "internalType": "bool",
          "name": "",
          "type": "bool"
        }
      ],
      "stateMutability": "view",
      "type": "function"
    },
    {
      "inputs": [
        {
          "internalType": "uint256",
          "name": "tokenId",
          "type": "uint256"
        }
      ],
      "name": "getApproved",
      "outputs": [
        {
          "internalType": "address",
          "name": "",
          "type": "address"
        }
      ],
      "stateMutability": "view",
      "type": "function"
    },
    {
      "inputs": [
        {
          "internalType": "uint256",
          "name": "_id",
          "type": "uint256"
        }
      ],
      "name": "getPoolById",
      "outputs": [
        {
          "internalType": "address",
          "name": "",
          "type": "address"
        }
      ],
      "stateMutability": "view",
      "type": "function"
    },
    {
      "inputs": [
        {
          "internalType": "address",
          "name": "owner",
          "type": "address"
        },
        {
          "internalType": "address",
          "name": "operator",
          "type": "address"
        }
      ],
      "name": "isApprovedForAll",
      "outputs": [
        {
          "internalType": "bool",
          "name": "",
          "type": "bool"
        }
      ],
      "stateMutability": "view",
      "type": "function"
    },
    {
      "inputs": [
        {
          "internalType": "address",
          "name": "userAddress",
          "type": "address"
        }
      ],
      "name": "mint",
      "outputs": [],
      "stateMutability": "nonpayable",
      "type": "function"
    },
    {
      "inputs": [],
      "name": "name",
      "outputs": [
        {
          "internalType": "string",
          "name": "",
          "type": "string"
        }
      ],
      "stateMutability": "view",
      "type": "function"
    },
    {
      "inputs": [],
      "name": "owner",
      "outputs": [
        {
          "internalType": "address",
          "name": "",
          "type": "address"
        }
      ],
      "stateMutability": "view",
      "type": "function"
    },
    {
      "inputs": [
        {
          "internalType": "uint256",
          "name": "tokenId",
          "type": "uint256"
        }
      ],
      "name": "ownerOf",
      "outputs": [
        {
          "internalType": "address",
          "name": "",
          "type": "address"
        }
      ],
      "stateMutability": "view",
      "type": "function"
    },
    {
      "inputs": [
        {
          "internalType": "uint256",
          "name": "id",
          "type": "uint256"
        }
      ],
      "name": "renderTokenById",
      "outputs": [
        {
          "internalType": "string",
          "name": "",
          "type": "string"
        }
      ],
      "stateMutability": "view",
      "type": "function"
    },
    {
      "inputs": [],
      "name": "renounceOwnership",
      "outputs": [],
      "stateMutability": "nonpayable",
      "type": "function"
    },
    {
      "inputs": [
        {
          "internalType": "address",
          "name": "from",
          "type": "address"
        },
        {
          "internalType": "address",
          "name": "to",
          "type": "address"
        },
        {
          "internalType": "uint256",
          "name": "tokenId",
          "type": "uint256"
        }
      ],
      "name": "safeTransferFrom",
      "outputs": [],
      "stateMutability": "nonpayable",
      "type": "function"
    },
    {
      "inputs": [
        {
          "internalType": "address",
          "name": "from",
          "type": "address"
        },
        {
          "internalType": "address",
          "name": "to",
          "type": "address"
        },
        {
          "internalType": "uint256",
          "name": "tokenId",
          "type": "uint256"
        },
        {
          "internalType": "bytes",
          "name": "_data",
          "type": "bytes"
        }
      ],
      "name": "safeTransferFrom",
      "outputs": [],
      "stateMutability": "nonpayable",
      "type": "function"
    },
    {
      "inputs": [
        {
          "internalType": "address",
          "name": "operator",
          "type": "address"
        },
        {
          "internalType": "bool",
          "name": "approved",
          "type": "bool"
        }
      ],
      "name": "setApprovalForAll",
      "outputs": [],
      "stateMutability": "nonpayable",
      "type": "function"
    },
    {
      "inputs": [
        {
          "internalType": "bytes4",
          "name": "interfaceId",
          "type": "bytes4"
        }
      ],
      "name": "supportsInterface",
      "outputs": [
        {
          "internalType": "bool",
          "name": "",
          "type": "bool"
        }
      ],
      "stateMutability": "view",
      "type": "function"
    },
    {
      "inputs": [],
      "name": "symbol",
      "outputs": [
        {
          "internalType": "string",
          "name": "",
          "type": "string"
        }
      ],
      "stateMutability": "view",
      "type": "function"
    },
    {
      "inputs": [
        {
          "internalType": "uint256",
          "name": "index",
          "type": "uint256"
        }
      ],
      "name": "tokenByIndex",
      "outputs": [
        {
          "internalType": "uint256",
          "name": "",
          "type": "uint256"
        }
      ],
      "stateMutability": "view",
      "type": "function"
    },
    {
      "inputs": [
        {
          "internalType": "address",
          "name": "owner",
          "type": "address"
        },
        {
          "internalType": "uint256",
          "name": "index",
          "type": "uint256"
        }
      ],
      "name": "tokenOfOwnerByIndex",
      "outputs": [
        {
          "internalType": "uint256",
          "name": "",
          "type": "uint256"
        }
      ],
      "stateMutability": "view",
      "type": "function"
    },
    {
      "inputs": [
        {
          "internalType": "uint256",
          "name": "id",
          "type": "uint256"
        }
      ],
      "name": "tokenURI",
      "outputs": [
        {
          "internalType": "string",
          "name": "",
          "type": "string"
        }
      ],
      "stateMutability": "view",
      "type": "function"
    },
    {
      "inputs": [],
      "name": "totalSupply",
      "outputs": [
        {
          "internalType": "uint256",
          "name": "",
          "type": "uint256"
        }
      ],
      "stateMutability": "view",
      "type": "function"
    },
    {
      "inputs": [
        {
          "internalType": "address",
          "name": "from",
          "type": "address"
        },
        {
          "internalType": "address",
          "name": "to",
          "type": "address"
        },
        {
          "internalType": "uint256",
          "name": "tokenId",
          "type": "uint256"
        }
      ],
      "name": "transferFrom",
      "outputs": [],
      "stateMutability": "nonpayable",
      "type": "function"
    },
    {
      "inputs": [
        {
          "internalType": "address",
          "name": "newOwner",
          "type": "address"
        }
      ],
      "name": "transferOwnership",
      "outputs": [],
      "stateMutability": "nonpayable",
      "type": "function"
    },
    {
      "inputs": [],
      "name": "version",
      "outputs": [
        {
          "internalType": "uint8",
          "name": "",
          "type": "uint8"
        }
      ],
      "stateMutability": "view",
      "type": "function"
    }
  ],
  "bytecode": "0x608034620003a957601f906001600160401b0390601f19906200220c3881900385810184168301858111848210176200039357839282916040528339602092839181010312620003a957516001600160a01b03948582169491859003620003a9576200006a620003ae565b9260128452717374616b696e6720636f6e20616d69676f7360701b8185015262000093620003ae565b9060058252644652454e5360d81b8183015284519584871162000393576000968754966001978881811c9116801562000388575b85821014620003745790818784931162000321575b508490878311600114620002c0578a92620002b4575b5050600019600383901b1c191690871b1787555b8251948511620002a05785548681811c9116801562000295575b83821014620002815790818587969594931162000228575b5081938511600114620001c35750508592620001b7575b5050600019600383901b1c191690821b1790555b600a5460018060a01b0319913383831617600a557f8be0079c531659141344cd1fd0a4f28419497f9722a3daafe3b4186f6b6457e0604051953393169186a3600b541617600b55611e3d9081620003cf8239f35b0151905038806200014f565b869593929193168588528388209388905b8282106200020e5750508411620001f4575b505050811b01905562000163565b015160001960f88460031b161c19169055388080620001e6565b8484015186558897909501949384019390810190620001d4565b9091929394508688528288208580880160051c82019285891062000277575b9188978a9297969594930160051c01915b8281106200026857505062000138565b8a815588975089910162000258565b9250819262000247565b634e487b7160e01b88526022600452602488fd5b90607f169062000120565b634e487b7160e01b87526041600452602487fd5b015190503880620000f2565b90848a9416918b8052868c20928c5b888282106200030a5750508411620002f0575b505050811b01875562000106565b015160001960f88460031b161c19169055388080620002e2565b8385015186558d97909501949384019301620002cf565b909150898052848a208780850160051c8201928786106200036a575b918b91869594930160051c01915b8281106200035b575050620000dc565b8c81558594508b91016200034b565b925081926200033d565b634e487b7160e01b8a52602260045260248afd5b90607f1690620000c7565b634e487b7160e01b600052604160045260246000fd5b600080fd5b60408051919082016001600160401b03811183821017620003935760405256fe60806040526004361015610013575b600080fd5b60003560e01c806301ffc9a7146101f357806306fdde03146101ea578063081812fc146101e1578063095ea7b3146101d85780630bc59b38146101cf57806318160ddd146101c657806323b872dd146101bd5780632f745c59146101b457806342842e0e146101ab5780634f558e79146101a25780634f6ccce71461019957806354fd4d50146101905780636352211e146101875780636a6278421461017e57806370a0823114610175578063715018a61461016c5780638da5cb5b1461016357806395d89b411461015a578063a22cb46514610151578063a2d6c6da14610148578063b88d4fde1461013f578063c87b56dd14610136578063e985e9c51461012d5763f2fde38b1461012557600080fd5b61000e610e85565b5061000e610e1c565b5061000e610d8e565b5061000e610cfc565b5061000e610b60565b5061000e610a6f565b5061000e6109a3565b5061000e610979565b5061000e610914565b5061000e6108e4565b5061000e610802565b5061000e6107e3565b5061000e6107be565b5061000e610712565b5061000e6106d6565b5061000e6106ad565b5061000e6105f5565b5061000e6105cb565b5061000e610580565b5061000e610534565b5061000e610440565b5061000e6103fe565b5061000e6102f3565b5061000e61020e565b6001600160e01b031981160361000e57565b503461000e57602036600319011261000e57602060043561022e816101fc565b63ffffffff60e01b1663780e9d6360e01b8114908115610254575b506040519015158152f35b6380ac58cd60e01b811491508115610286575b8115610275575b5038610249565b6301ffc9a760e01b1490503861026e565b635b5e139f60e01b81149150610267565b60005b8381106102aa5750506000910152565b818101518382015260200161029a565b906020916102d381518092818552858086019101610297565b601f01601f1916010190565b9060206102f09281815201906102ba565b90565b503461000e576000806003193601126103fb57604051908080549060019180831c928082169283156103f1575b60209283861085146103dd5785885260208801949081156103bc5750600114610364575b6103608761035481890382610caf565b604051918291826102df565b0390f35b6000805294509192917f290decd9548b62a8d60345a988386fc84ba6bc95484008f6362f93160ef3e5635b8386106103ab5750505091019050610354826103603880610344565b80548587015294820194810161038f565b60ff191685525050505090151560051b019050610354826103603880610344565b634e487b7160e01b82526022600452602482fd5b93607f1693610320565b80fd5b503461000e57602036600319011261000e57602061041d60043561111d565b6040516001600160a01b039091168152f35b6001600160a01b0381160361000e57565b503461000e57604036600319011261000e5760043561045e8161042f565b60243561046a81611033565b916001600160a01b0380841690821681146104e55761049c9361049791331490811561049e575b506110ab565b6115d6565b005b6001600160a01b031660009081526005602052604090206104df91506104d89033905b9060018060a01b0316600052602052604060002090565b5460ff1690565b38610491565b60405162461bcd60e51b815260206004820152602160248201527f4552433732313a20617070726f76616c20746f2063757272656e74206f776e656044820152603960f91b6064820152608490fd5b503461000e57602036600319011261000e57602061041d604051828101906a1c1bdbdb0b999bdc8b9a5960aa1b8252600435602b820152602b815261057881610c4e565b519020611d27565b503461000e57600036600319011261000e576020600854604051908152f35b606090600319011261000e576004356105b78161042f565b906024356105c48161042f565b9060443590565b503461000e5761049c6105dd3661059f565b916105f06105eb84336112ba565b6111af565b611439565b503461000e57604036600319011261000e576004356106138161042f565b6024359061062081610fbb565b821015610654576001600160a01b031660009081526006602090815260408083209383529281529082902054915191825290f35b60405162461bcd60e51b815260206004820152602b60248201527f455243373231456e756d657261626c653a206f776e657220696e646578206f7560448201526a74206f6620626f756e647360a81b6064820152608490fd5b503461000e5761049c6106bf3661059f565b90604051926106cd84610c77565b60008452611215565b503461000e57602036600319011261000e576004356000908152600260209081526040909120546001600160a01b031615156040519015158152f35b503461000e57602036600319011261000e576004356008548110156107645760086000527ff3f7a9fe364faab93b216da50a3214154f22a0a2b415b23a84c8169e8b636ee30154604051908152602090f35b60405162461bcd60e51b815260206004820152602c60248201527f455243373231456e756d657261626c653a20676c6f62616c20696e646578206f60448201526b7574206f6620626f756e647360a01b6064820152608490fd5b503461000e57600036600319011261000e57602060ff600a5460a01c16604051908152f35b503461000e57602036600319011261000e57602061041d600435611033565b503461000e5760208060031936011261000e576004356108218161042f565b604051828101906a706f6f6c2e65786973747360a81b82523360601b602b820152601f815261084f81610c93565b519020918060018060a01b03600b541693602460405180968193633d70e7e560e11b835260048301525afa9081156108d7575b60009161089c575b61049c8361089784611b15565b611b50565b83813d83116108d0575b6108b08183610caf565b810103126103fb575061089761049c92516108ca81610a65565b9061088a565b503d6108a6565b6108df6116ad565b610882565b503461000e57602036600319011261000e57602061090c6004356109078161042f565b610fbb565b604051908152f35b503461000e576000806003193601126103fb57600a546001600160a01b03811690610940338314610f20565b6001600160a01b031916600a556040519082907f8be0079c531659141344cd1fd0a4f28419497f9722a3daafe3b4186f6b6457e08284a3f35b503461000e57600036600319011261000e57600a546040516001600160a01b039091168152602090f35b503461000e576000806003193601126103fb576040519080600190815480831c92808216928315610a5b575b60209283861085146103dd5785885260208801949081156103bc5750600114610a02576103608761035481890382610caf565b600160005294509192917fb10e2d527612073b26eecdfd717e6a320cf44b4afac2b0732d9fcbe2b7fa0cf65b838610610a4a5750505091019050610354826103603880610344565b805485870152948201948101610a2e565b93607f16936109cf565b8015150361000e57565b503461000e57604036600319011261000e57600435610a8d8161042f565b602435610a9981610a65565b6001600160a01b03821691338314610b1b5781610ad8610ae99233600052600560205260406000209060018060a01b0316600052602052604060002090565b9060ff801983541691151516179055565b604051901515815233907f17307eab39ab6107e8899845ad3d59bd9653f200f220920489ca2b5937696c3190602090a3005b60405162461bcd60e51b815260206004820152601960248201527f4552433732313a20617070726f766520746f2063616c6c6572000000000000006044820152606490fd5b503461000e57602036600319011261000e57610360610bc6610bba610bba60405160208101906f636f6e74726163742e6164647265737360801b825267119c995b9cd05c9d60c21b60308201526018815261057881610c93565b6001600160a01b031690565b60405163516b636d60e11b815260048035908201529060009082908180602481015b03915afa908115610c2a575b600091610c09575b50604051918291826102df565b610c24913d8091833e610c1c8183610caf565b810190611da8565b38610bfc565b610c326116ad565b610bf4565b50634e487b7160e01b600052604160045260246000fd5b6060810190811067ffffffffffffffff821117610c6a57604052565b610c72610c37565b604052565b6020810190811067ffffffffffffffff821117610c6a57604052565b6040810190811067ffffffffffffffff821117610c6a57604052565b90601f8019910116810190811067ffffffffffffffff821117610c6a57604052565b60209067ffffffffffffffff8111610cef575b601f01601f19160190565b610cf7610c37565b610ce4565b503461000e57608036600319011261000e57600435610d1a8161042f565b602435610d268161042f565b6064359167ffffffffffffffff831161000e573660238401121561000e57826004013591610d5383610cd1565b92610d616040519485610caf565b808452366024828701011161000e57602081600092602461049c9801838801378501015260443591611215565b503461000e57602036600319011261000e57610360610df6610bba610bba60405160208101906f636f6e74726163742e6164647265737360801b8252754672656e73506f6f6c5368617265546f6b656e55524960501b60308201526026815261057881610c4e565b60405163c87b56dd60e01b81526004803590820152906000908290818060248101610be8565b503461000e57604036600319011261000e57602060ff610e79600435610e418161042f565b60243590610e4e8261042f565b60018060a01b03166000526005845260406000209060018060a01b0316600052602052604060002090565b54166040519015158152f35b503461000e57602036600319011261000e57600435610ea38161042f565b600a546001600160a01b0390610ebc9082163314610f20565b811615610ecc5761049c90610f6b565b60405162461bcd60e51b815260206004820152602660248201527f4f776e61626c653a206e6577206f776e657220697320746865207a65726f206160448201526564647265737360d01b6064820152608490fd5b15610f2757565b606460405162461bcd60e51b815260206004820152602060248201527f4f776e61626c653a2063616c6c6572206973206e6f7420746865206f776e65726044820152fd5b600a549060018060a01b0380911691826bffffffffffffffffffffffff60a01b821617600a55167f8be0079c531659141344cd1fd0a4f28419497f9722a3daafe3b4186f6b6457e06000604051a3565b6001600160a01b03168015610fdb57600052600360205260406000205490565b60405162461bcd60e51b815260206004820152602a60248201527f4552433732313a2062616c616e636520717565727920666f7220746865207a65604482015269726f206164647265737360b01b6064820152608490fd5b6000908152600260205260409020546001600160a01b031680156110545790565b60405162461bcd60e51b815260206004820152602960248201527f4552433732313a206f776e657220717565727920666f72206e6f6e657869737460448201526832b73a103a37b5b2b760b91b6064820152608490fd5b156110b257565b60405162461bcd60e51b815260206004820152603860248201527f4552433732313a20617070726f76652063616c6c6572206973206e6f74206f7760448201527f6e6572206e6f7220617070726f76656420666f7220616c6c00000000000000006064820152608490fd5b6000818152600260205260409020546001600160a01b031615611155576000908152600460205260409020546001600160a01b031690565b60405162461bcd60e51b815260206004820152602c60248201527f4552433732313a20617070726f76656420717565727920666f72206e6f6e657860448201526b34b9ba32b73a103a37b5b2b760a11b6064820152608490fd5b156111b657565b60405162461bcd60e51b815260206004820152603160248201527f4552433732313a207472616e736665722063616c6c6572206973206e6f74206f6044820152701ddb995c881b9bdc88185c1c1c9bdd9959607a1b6064820152608490fd5b91611241939161123c9361122c6105eb84336112ba565b611237838383611439565b6117ab565b611296565b565b60809060208152603260208201527f4552433732313a207472616e7366657220746f206e6f6e20455243373231526560408201527131b2b4bb32b91034b6b83632b6b2b73a32b960711b60608201520190565b1561129d57565b60405162461bcd60e51b8152806112b660048201611243565b0390fd5b6000828152600260205260409020546001600160a01b03161561134b576112e082611033565b6001600160a01b038281168282168114949091908515611333575b505050821561130957505090565b6001600160a01b0316600090815260056020526040902060ff925061132e91906104c1565b541690565b611340919293955061111d565b1614913880806112fb565b60405162461bcd60e51b815260206004820152602c60248201527f4552433732313a206f70657261746f7220717565727920666f72206e6f6e657860448201526b34b9ba32b73a103a37b5b2b760a11b6064820152608490fd5b156113ac57565b60405162461bcd60e51b8152602060048201526024808201527f4552433732313a207472616e7366657220746f20746865207a65726f206164646044820152637265737360e01b6064820152608490fd5b50634e487b7160e01b600052601160045260246000fd5b60001981019190821161142357565b6112416113fd565b906001820180921161142357565b9061144383611033565b6001600160a01b0383811692909182168390036115295761149d6115009282169461146f8615156113a5565b61147a878483611829565b61148387611580565b6001600160a01b0316600090815260036020526040902090565b6114a78154611414565b90556001600160a01b03811660009081526003602052604090206114cb815461142b565b90556114e1856000526002602052604060002090565b80546001600160a01b0319166001600160a01b03909216919091179055565b7fddf252ad1be2c89b69c2b068fc378daa952ba7f163c4a11628f55a4df523b3ef6000604051a4565b60405162461bcd60e51b815260206004820152602960248201527f4552433732313a207472616e73666572206f6620746f6b656e2074686174206960448201526839903737ba1037bbb760b91b6064820152608490fd5b600081815260046020526040812080546001600160a01b03191690556001600160a01b036115ad83611033565b167f8c5be1e5ebec7d5bd14f71427d1e84f3dd0314c0f7b2291e5b200ac8c7c3b92582604051a4565b600082815260046020526040902080546001600160a01b0319166001600160a01b0383161790556001600160a01b038061160f84611033565b169116907f8c5be1e5ebec7d5bd14f71427d1e84f3dd0314c0f7b2291e5b200ac8c7c3b9256000604051a4565b9081602091031261000e57516102f0816101fc565b6102f0939260809260018060a01b0316825260006020830152604082015281606082015201906102ba565b6001600160a01b0391821681529116602082015260408101919091526080606082018190526102f0929101906102ba565b506040513d6000823e3d90fd5b3d156116e5573d906116cb82610cd1565b916116d96040519384610caf565b82523d6000602084013e565b606090565b909190803b156117a35761171c602091600093604051948580948193630a85bd0160e11b998a84523360048501611651565b03926001600160a01b03165af160009181611773575b506117655761173f6116ba565b805190816117605760405162461bcd60e51b8152806112b660048201611243565b602001fd5b6001600160e01b0319161490565b61179591925060203d811161179c575b61178d8183610caf565b81019061163c565b9038611732565b503d611783565b505050600190565b92909190823b156117de5761171c926020926000604051809681958294630a85bd0160e11b9a8b8552336004860161167c565b50505050600190565b50634e487b7160e01b600052603260045260246000fd5b9061180881611986565b6001600160a01b0382166118205761124191506119ff565b6112419161194e565b9091906001600160a01b038082169182611863575061184783611986565b83168061185a57505061124191506119ff565b03611820575050565b8185168303611873575b50611847565b6118e761187f82610fbb565b6000198101908111611941575b6118d8600093878552600760205260408520548381036118ee575b50846118bd896000526007602052604060002090565b556001600160a01b0316600090815260066020526040902090565b90600052602052604060002090565b553861186d565b87865260066020526040862084875260205261193a604087205480611929846118d88760018060a01b03166000526006602052604060002090565b556000526007602052604060002090565b55386118a7565b6119496113fd565b61188c565b60409061195a81610fbb565b9260009160018060a01b0316825260066020528282208483526020528083832055815260076020522055565b60085481600052600960205280604060002055680100000000000000008110156119f2575b60018101806008558110156119e5575b60086000527ff3f7a9fe364faab93b216da50a3214154f22a0a2b415b23a84c8169e8b636ee30155565b6119ed6117e7565b6119bb565b6119fa610c37565b6119ab565b600880546000199290838101818111611b08575b611aaf60009384928184526009602052846040852054911015611afb575b868452611a9e7ff3f7a9fe364faab93b216da50a3214154f22a0a2b415b23a84c8169e8b636ee2958681015490831015611aee575b88865280837ff3f7a9fe364faab93b216da50a3214154f22a0a2b415b23a84c8169e8b636ee301556000526009602052604060002090565b556000526009602052604060002090565b558254938415611ada5784019380851015611acd575b838352015555565b611ad56117e7565b611ac5565b634e487b7160e01b83526031600452602483fd5b611af66117e7565b611a66565b611b036117e7565b611a31565b611b106113fd565b611a13565b15611b1c57565b60405162461bcd60e51b815260206004820152600c60248201526b125b9d985b1a5908141bdbdb60a21b6044820152606490fd5b60409081519060209182810190671d1bdad95b8b9a5960c21b825260088152611b7881610c93565b5190209160018060a01b03938185600b541694602483518097819363bd02d0f560e01b835260048301525afa938415611d1a575b600094611ceb575b50805194611bc186610c77565b600086528316918215611caa576000858152600260205260409020546001600160a01b0316611c6857509183809260007fddf252ad1be2c89b69c2b068fc378daa952ba7f163c4a11628f55a4df523b3ef816112419997611c2561123c9a886117fe565b6001600160a01b0387166000908152600360205260409020611c47815461142b565b9055611c61876114e1886000526002602052604060002090565b51a46116ea565b606491519062461bcd60e51b82526004820152601c60248201527f4552433732313a20746f6b656e20616c7265616479206d696e746564000000006044820152fd5b606491519062461bcd60e51b825280600483015260248201527f4552433732313a206d696e7420746f20746865207a65726f20616464726573736044820152fd5b90938282813d8311611d13575b611d028183610caf565b810103126103fb5750519238611bb4565b503d611cf8565b611d226116ad565b611bac565b600b546040516321f8a72160e01b81526004810192909252602090829060249082906001600160a01b03165afa908115611d9b575b600091611d67575090565b906020823d8211611d93575b81611d8060209383610caf565b810103126103fb5750516102f08161042f565b3d9150611d73565b611da36116ad565b611d5c565b60208183031261000e5780519067ffffffffffffffff821161000e570181601f8201121561000e578051611ddb81610cd1565b92611de96040519485610caf565b8184526020828401011161000e576102f0916020808501910161029756fea2646970667358221220a0490b13176a3a23869d696e572257eb9dbc6ed5e6adcf225163cfa5a3d38e6164736f6c63430008100033",
  "linkReferences": {},
  "deployedLinkReferences": {}
}