{
  "_format": "hh-sol-artifact-1",
  "contractName": "FrensPoolSetter",
  "sourceName": "contracts/FrensPoolSetter.sol",
  "abi": [
    {
      "inputs": [
        {
          "internalType": "contract IFrensStorage",
          "name": "_frensStorage",
          "type": "address"
        }
      ],
      "stateMutability": "nonpayable",
      "type": "constructor"
    },
    {
      "inputs": [
        {
          "internalType": "uint256",
          "name": "id",
          "type": "uint256"
        },
        {
          "internalType": "uint256",
          "name": "amount",
          "type": "uint256"
        }
      ],
      "name": "addToDeposit",
      "outputs": [
        {
          "internalType": "bool",
          "name": "",
          "type": "bool"
        }
      ],
      "stateMutability": "nonpayable",
      "type": "function"
    },
    {
      "inputs": [
        {
          "internalType": "address",
          "name": "stakingPool",
          "type": "address"
        },
        {
          "internalType": "bool",
          "name": "validatorLocked",
          "type": "bool"
        }
      ],
      "name": "create",
      "outputs": [
        {
          "internalType": "bool",
          "name": "",
          "type": "bool"
        }
      ],
      "stateMutability": "nonpayable",
      "type": "function"
    },
    {
      "inputs": [
        {
          "internalType": "uint256",
          "name": "depositAmount",
          "type": "uint256"
        }
      ],
      "name": "depositToPool",
      "outputs": [
        {
          "internalType": "bool",
          "name": "",
          "type": "bool"
        }
      ],
      "stateMutability": "nonpayable",
      "type": "function"
    },
    {
      "inputs": [
        {
          "internalType": "address",
          "name": "tokenOwner",
          "type": "address"
        },
        {
          "internalType": "uint256",
          "name": "share",
          "type": "uint256"
        }
      ],
      "name": "distribute",
      "outputs": [
        {
          "internalType": "bool",
          "name": "",
          "type": "bool"
        }
      ],
      "stateMutability": "nonpayable",
      "type": "function"
    },
    {
      "inputs": [
        {
          "internalType": "uint256",
          "name": "id",
          "type": "uint256"
        },
        {
          "internalType": "uint256",
          "name": "price",
          "type": "uint256"
        }
      ],
      "name": "rageQuit",
      "outputs": [
        {
          "internalType": "bool",
          "name": "",
          "type": "bool"
        }
      ],
      "stateMutability": "nonpayable",
      "type": "function"
    },
    {
      "inputs": [
        {
          "internalType": "address",
          "name": "newArtContract",
          "type": "address"
        }
      ],
      "name": "setArt",
      "outputs": [
        {
          "internalType": "bool",
          "name": "",
          "type": "bool"
        }
      ],
      "stateMutability": "nonpayable",
      "type": "function"
    },
    {
      "inputs": [
        {
          "internalType": "bytes",
          "name": "pubKey",
          "type": "bytes"
        },
        {
          "internalType": "bytes",
          "name": "withdrawal_credentials",
          "type": "bytes"
        },
        {
          "internalType": "bytes",
          "name": "signature",
          "type": "bytes"
        },
        {
          "internalType": "bytes32",
          "name": "deposit_data_root",
          "type": "bytes32"
        }
      ],
      "name": "setPubKey",
      "outputs": [
        {
          "internalType": "bool",
          "name": "",
          "type": "bool"
        }
      ],
      "stateMutability": "nonpayable",
      "type": "function"
    },
    {
      "inputs": [
        {
          "internalType": "uint256",
          "name": "id",
          "type": "uint256"
        }
      ],
      "name": "unlockTransfer",
      "outputs": [
        {
          "internalType": "bool",
          "name": "",
          "type": "bool"
        }
      ],
      "stateMutability": "nonpayable",
      "type": "function"
    },
    {
      "inputs": [],
      "name": "version",
      "outputs": [
        {
          "internalType": "uint8",
          "name": "",
          "type": "uint8"
        }
      ],
      "stateMutability": "view",
      "type": "function"
    },
    {
      "inputs": [
        {
          "internalType": "uint256",
          "name": "_id",
          "type": "uint256"
        },
        {
          "internalType": "uint256",
          "name": "_amount",
          "type": "uint256"
        }
      ],
      "name": "withdraw",
      "outputs": [
        {
          "internalType": "bool",
          "name": "",
          "type": "bool"
        }
      ],
      "stateMutability": "nonpayable",
      "type": "function"
    }
  ],
  "bytecode": "0x60803461008257601f61113e38819003918201601f19168301916001600160401b038311848410176100875780849260209460405283398101031261008257516001600160a01b038116810361008257600080546001600160a81b03191660089290921b610100600160a81b03169190911790556040516110a0908161009e8239f35b600080fd5b634e487b7160e01b600052604160045260246000fdfe608060408181526004918236101561001657600080fd5b600092833560e01c918263084bad7814610b1f57508163319e90901461090f578163441a3e701461089557816354fd4d501461087557816368b0e07014610598578163bed62f35146104ce578163e6b1a3ae1461044c578163e920eec01461020657508063f038afe31461013a5763fb9321081461009357600080fd5b3461013657806003193601126101365760209061012f6100b1610bab565b6100e66100e18451868101906100d9816100cb3385610c96565b03601f198101835282610c51565b519020610df9565b610d90565b825190848201906f18db185a5b58589b194b985b5bdd5b9d60821b82526001600160601b03199060601b1660308301526024825261012382610c19565b60243591519020610f21565b5160018152f35b5080fd5b50346101365760209061012f61014f36610b90565b9061016a6100e18551878101906100d9816100cb3385610c96565b6101a18451868101906c726167652e7175697474696e6760981b825283602d820152602d815261019981610c19565b519020610cdd565b6101d684518681019068726167652e74696d6560b81b8252836029820152602981526101cc81610c19565b5190204290610ed4565b83518581019169726167652e707269636560b01b8352602a820152602a81526101fe81610c19565b519020610ed4565b9050346104405760803660031901126104405767ffffffffffffffff908035828111610448576102399036908301610bc1565b949092602435818111610440576102539036908501610bc1565b916044359081116104445761026b9036908601610bc1565b9290918751986020998a81019080336102849084610c96565b03601f19810182526102969082610c51565b5190206102a290610df9565b6102ab90610d90565b8851978a8901657075624b657960d01b81523360601b998a6026820152601a81526102d581610c35565b5190209136906102e492610f6e565b6102ed91610fa5565b875189810190757769746864726177616c5f63726564656e7469616c7360501b8252886036820152602a815261032281610c19565b51902091369061033192610f6e565b61033a91610fa5565b855187810190687369676e617475726560b81b8252866029820152601d815261036281610c35565b51902091369061037192610f6e565b61037a91610fa5565b8351858101907019195c1bdcda5d17d9185d1857dc9bdbdd607a1b8252846031820152602581526103aa81610c19565b519020815460081c6001600160a01b031692833b1561044057906044839283885196879485936309d23b6160e31b855284015260643560248401525af190811561043557509061012f9291610426575b508251848101916c1d985b1a59185d1bdc8b9cd95d609a1b8352602d8201526021815261019981610c19565b61042f90610bef565b386103fa565b8451903d90823e3d90fd5b8280fd5b8380fd5b8480fd5b5050346101365760203660031901126101365760209061012f61046d610bab565b6104876100e18451868101906100d9816100cb3385610c96565b8251848101907f706f6f6c2e73706563696669632e6172742e616464726573730000000000000082523360601b6039820152602d81526104c681610c19565b519020610e83565b905034610440576020366003190112610440576104fc6100e1835160208101906100d9816100cb3385610c96565b82825160208101906e1d1c985b9cd9995c8b9b1bd8dad959608a1b82528335602f820152602f815261052d81610c19565b519020815460081c6001600160a01b031692833b1561044057604490838651958694859363abfdcced60e01b85528401528160248401525af1801561058c576020935061057d575b505160018152f35b61058690610bef565b38610575565b505051903d90823e3d90fd5b8284346108725760209283600319360112610136578035908351926105db6100e1878601866105c73383610c96565b03966100d9601f1998898101835282610c51565b845192868401671d1bdad95b8b9a5960c21b94858252600881526105fe81610c35565b51902082546001600160a01b03959160089190911c861690813b15610448578491604483928b519485938492632b6cd4f760e21b84528b840152600160248401525af1801561086857610859575b5086518881019182526008815261066281610c35565b519020948785845460081c1696602489518099819363bd02d0f560e01b8352898301525afa95861561084f57839661081e575b50906106f4916106cc8289518b8101906d19195c1bdcda5d0b985b5bdd5b9d60921b82528a602e820152602e81526101fe81610c19565b87516106ec8a820192826106e03386610dcb565b03908101835282610c51565b519020610f21565b8451928684016a1a591ccb9a5b8b9c1bdbdb60aa1b81523360601b9485602b820152601f815261072381610c35565b51902090825460081c1692833b15610440579060448392838951968794859363785f002b60e11b85528401528960248401525af19081156108135750916107ce9161012f9493610804575b506107a585518781016a1c1bdbdb0b999bdc8b9a5960aa1b815285602b830152602b825261079b82610c19565b3391519020610e83565b8451868101916b199c995b9ccb9b1bd8dad95960a21b8352602c8201528681526100d981610c35565b908351858101916e1d1c985b9cd9995c8b9b1bd8dad959608a1b8352602f820152602f81526107fc81610c19565b519020610d41565b61080d90610bef565b8661076e565b8551903d90823e3d90fd5b9095508781813d8311610848575b6108368183610c51565b810103126104405751946106f4610695565b503d61082c565b87513d85823e3d90fd5b61086290610bef565b8861064c565b88513d86823e3d90fd5b80fd5b50503461013657816003193601126101365760ff60209254169051908152f35b5050346101365760209061012f6108ab36610b90565b906108fb828551926108c76100e1898601866105c73383610c96565b8651888101916d19195c1bdcda5d0b985b5bdd5b9d60921b8352602e820152602e81526108f381610c19565b51902061101d565b83516108f386820192826106e03386610dcb565b905034610440578160031936011261044057610929610bab565b60243591821515830361044857835194602095868101906c636f6e74726163742e6e616d6560981b82523360601b602d8201526021815261096981610c19565b51902081548651634c373c8d60e11b81528481019290925282908290602490829060081c6001600160a01b03165afa918215610b14578092610a9a575b505084516109d08782816109c38183019687815193849201610c73565b8101038084520182610c51565b519020845186810190715374616b696e67506f6f6c466163746f727960701b8252601281526109fe81610c35565b51902003610a5f57509061012f91610a23845186810190610199816100cb8685610c96565b8351858101916f1d985b1a59185d1bdc8b9b1bd8dad95960821b83526001600160601b03199060601b166030820152602481526107fc81610c19565b835162461bcd60e51b815290810185905260156024820152741bdb9b1e48199858dd1bdc9e4818d85b8818d85b1b605a1b6044820152606490fd5b9091503d8082843e610aac8184610c51565b82019187818403126101365780519067ffffffffffffffff8211610440570182601f8201121561013657805191610ae283610cc1565b93610aef89519586610c51565b838552898484010111610872575090610b0d91888085019101610c73565b38806109a6565b8651903d90823e3d90fd5b838534610872575061012f610b7c602093610b3936610b90565b809391610b506100e1898601866105c73383610c96565b8651888101916d19195c1bdcda5d0b985b5bdd5b9d60921b8352602e820152602e81526106ec81610c19565b83516106ec86820192826106e03386610dcb565b6040906003190112610ba6576004359060243590565b600080fd5b600435906001600160a01b0382168203610ba657565b9181601f84011215610ba65782359167ffffffffffffffff8311610ba65760208381860195010111610ba657565b67ffffffffffffffff8111610c0357604052565b634e487b7160e01b600052604160045260246000fd5b6060810190811067ffffffffffffffff821117610c0357604052565b6040810190811067ffffffffffffffff821117610c0357604052565b90601f8019910116810190811067ffffffffffffffff821117610c0357604052565b60005b838110610c865750506000910152565b8181015183820152602001610c76565b601f916a706f6f6c2e65786973747360a81b82526001600160601b03199060601b16600b8201520190565b67ffffffffffffffff8111610c0357601f01601f191660200190565b60009060018060a01b03825460081c1690813b1561044057829160448392604051958693849263abfdcced60e01b84526004840152600160248401525af1908115610d355750610d2a5750565b610d3390610bef565b565b604051903d90823e3d90fd5b6000805460081c6001600160a01b0316929091833b1561044057906044839283604051968794859363abfdcced60e01b85526004850152151560248401525af1908115610d355750610d2a5750565b15610d9757565b60405162461bcd60e51b815260206004820152600c60248201526b125b9d985b1a5908141bdbdb60a21b6044820152606490fd5b6022916d746f74616c2e6465706f7369747360901b82526001600160601b03199060601b16600e8201520190565b60008054604051633d70e7e560e11b815260048101939093526020908390602490829060081c6001600160a01b03165afa918215610e76578192610e3c57505090565b9091506020813d8211610e6e575b81610e5760209383610c51565b810103126101365751908115158203610872575090565b3d9150610e4a565b50604051903d90823e3d90fd5b600080546001600160a01b039391929060081c8416803b156104445783929183604492604051978895869463ca446dd960e01b865260048601521660248401525af1908115610d355750610d2a5750565b6000805460081c6001600160a01b0316929091833b15610440579060448392836040519687948593637152429d60e11b8552600485015260248401525af1908115610d355750610d2a5750565b6000805460081c6001600160a01b0316929091833b15610440579060448392836040519687948593632b6cd4f760e21b8552600485015260248401525af1908115610d355750610d2a5750565b929192610f7a82610cc1565b91610f886040519384610c51565b829481845281830111610ba6578281602093846000960137010152565b91909160009060018060a01b03825460081c1690813b15610440579382916064949583604051968780958194630b8a342160e21b83526004830152604060248301526110008151809281604486015260208686019101610c73565b601f01601f191681010301925af1908115610d355750610d2a5750565b6000805460081c6001600160a01b0316929091833b1561044057906044839283604051968794859363ebb9d8c960e01b8552600485015260248401525af1908115610d355750610d2a575056fea264697066735822122042a824127d2896a58a10ca6e1dc5485e1fa9eb1b1441d7ca7d5ba9b4cac706c364736f6c63430008100033",
  "linkReferences": {},
  "deployedLinkReferences": {}
}