{
  "_format": "hh-sol-artifact-1",
  "contractName": "FrensPoolSetter",
  "sourceName": "contracts/FrensPoolSetter.sol",
  "abi": [
    {
      "inputs": [
        {
          "internalType": "contract IFrensStorage",
          "name": "_frensStorage",
          "type": "address"
        }
      ],
      "stateMutability": "nonpayable",
      "type": "constructor"
    },
    {
      "inputs": [
        {
          "internalType": "uint256",
          "name": "id",
          "type": "uint256"
        },
        {
          "internalType": "uint256",
          "name": "amount",
          "type": "uint256"
        }
      ],
      "name": "addToDeposit",
      "outputs": [
        {
          "internalType": "bool",
          "name": "",
          "type": "bool"
        }
      ],
      "stateMutability": "nonpayable",
      "type": "function"
    },
    {
      "inputs": [
        {
          "internalType": "address",
          "name": "stakingPool",
          "type": "address"
        },
        {
          "internalType": "bool",
          "name": "validatorLocked",
          "type": "bool"
        }
      ],
      "name": "create",
      "outputs": [
        {
          "internalType": "bool",
          "name": "",
          "type": "bool"
        }
      ],
      "stateMutability": "nonpayable",
      "type": "function"
    },
    {
      "inputs": [
        {
          "internalType": "uint256",
          "name": "depositAmount",
          "type": "uint256"
        }
      ],
      "name": "depositToPool",
      "outputs": [
        {
          "internalType": "bool",
          "name": "",
          "type": "bool"
        }
      ],
      "stateMutability": "nonpayable",
      "type": "function"
    },
    {
      "inputs": [
        {
          "internalType": "address",
          "name": "tokenOwner",
          "type": "address"
        },
        {
          "internalType": "uint256",
          "name": "share",
          "type": "uint256"
        }
      ],
      "name": "distribute",
      "outputs": [
        {
          "internalType": "bool",
          "name": "",
          "type": "bool"
        }
      ],
      "stateMutability": "nonpayable",
      "type": "function"
    },
    {
      "inputs": [
        {
          "internalType": "uint256",
          "name": "id",
          "type": "uint256"
        },
        {
          "internalType": "uint256",
          "name": "price",
          "type": "uint256"
        }
      ],
      "name": "rageQuit",
      "outputs": [
        {
          "internalType": "bool",
          "name": "",
          "type": "bool"
        }
      ],
      "stateMutability": "nonpayable",
      "type": "function"
    },
    {
      "inputs": [
        {
          "internalType": "address",
          "name": "newArtContract",
          "type": "address"
        }
      ],
      "name": "setArt",
      "outputs": [
        {
          "internalType": "bool",
          "name": "",
          "type": "bool"
        }
      ],
      "stateMutability": "nonpayable",
      "type": "function"
    },
    {
      "inputs": [
        {
          "internalType": "bytes",
          "name": "pubKey",
          "type": "bytes"
        },
        {
          "internalType": "bytes",
          "name": "withdrawal_credentials",
          "type": "bytes"
        },
        {
          "internalType": "bytes",
          "name": "signature",
          "type": "bytes"
        },
        {
          "internalType": "bytes32",
          "name": "deposit_data_root",
          "type": "bytes32"
        }
      ],
      "name": "setPubKey",
      "outputs": [
        {
          "internalType": "bool",
          "name": "",
          "type": "bool"
        }
      ],
      "stateMutability": "nonpayable",
      "type": "function"
    },
    {
      "inputs": [
        {
          "internalType": "uint256",
          "name": "id",
          "type": "uint256"
        }
      ],
      "name": "unlockTransfer",
      "outputs": [
        {
          "internalType": "bool",
          "name": "",
          "type": "bool"
        }
      ],
      "stateMutability": "nonpayable",
      "type": "function"
    },
    {
      "inputs": [],
      "name": "version",
      "outputs": [
        {
          "internalType": "uint8",
          "name": "",
          "type": "uint8"
        }
      ],
      "stateMutability": "view",
      "type": "function"
    },
    {
      "inputs": [
        {
          "internalType": "uint256",
          "name": "_id",
          "type": "uint256"
        },
        {
          "internalType": "uint256",
          "name": "_amount",
          "type": "uint256"
        }
      ],
      "name": "withdraw",
      "outputs": [
        {
          "internalType": "bool",
          "name": "",
          "type": "bool"
        }
      ],
      "stateMutability": "nonpayable",
      "type": "function"
    }
  ],
  "bytecode": "0x60803461008257601f61114c38819003918201601f19168301916001600160401b038311848410176100875780849260209460405283398101031261008257516001600160a01b038116810361008257600080546001600160a81b03191660089290921b610100600160a81b03169190911790556040516110ae908161009e8239f35b600080fd5b634e487b7160e01b600052604160045260246000fdfe608060408181526004918236101561001657600080fd5b600092833560e01c918263084bad7814610b2d57508163319e90901461091d578163441a3e70146108a357816354fd4d501461088357816368b0e070146105a6578163bed62f35146104dc578163e6b1a3ae1461045a578163e920eec01461020657508063f038afe31461013a5763fb9321081461009357600080fd5b3461013657806003193601126101365760209061012f6100b1610bb9565b6100e66100e18451868101906100d9816100cb3385610ca4565b03601f198101835282610c5f565b519020610e07565b610d9e565b825190848201906f18db185a5b58589b194b985b5bdd5b9d60821b82526001600160601b03199060601b1660308301526024825261012382610c27565b60243591519020610f2f565b5160018152f35b5080fd5b50346101365760209061012f61014f36610b9e565b9061016a6100e18551878101906100d9816100cb3385610ca4565b6101a18451868101906c726167652e7175697474696e6760981b825283602d820152602d815261019981610c27565b519020610ceb565b6101d684518681019068726167652e74696d6560b81b8252836029820152602981526101cc81610c27565b5190204290610ee2565b83518581019169726167652e707269636560b01b8352602a820152602a81526101fe81610c27565b519020610ee2565b90503461044e57608036600319011261044e5767ffffffffffffffff908035828111610456576102399036908301610bcf565b94909260243581811161044e576102539036908501610bcf565b916044359081116104525761026b9036908601610bcf565b9290918751986020998a81019080336102849084610ca4565b03601f19810182526102969082610c5f565b5190206102a290610e07565b6102ab90610d9e565b8851978a89017376616c696461746f722e7075626c69632e6b657960601b81523360601b998a6034820152602881526102e381610c27565b5190209136906102f292610f7c565b6102fb91610fb3565b875189810190757769746864726177616c5f63726564656e7469616c7360501b8252886036820152602a815261033081610c27565b51902091369061033f92610f7c565b61034891610fb3565b855187810190687369676e617475726560b81b8252866029820152601d815261037081610c43565b51902091369061037f92610f7c565b61038891610fb3565b8351858101907019195c1bdcda5d17d9185d1857dc9bdbdd607a1b8252846031820152602581526103b881610c27565b519020815460081c6001600160a01b031692833b1561044e57906044839283885196879485936309d23b6160e31b855284015260643560248401525af190811561044357509061012f9291610434575b508251848101916c1d985b1a59185d1bdc8b9cd95d609a1b8352602d8201526021815261019981610c27565b61043d90610bfd565b38610408565b8451903d90823e3d90fd5b8280fd5b8380fd5b8480fd5b5050346101365760203660031901126101365760209061012f61047b610bb9565b6104956100e18451868101906100d9816100cb3385610ca4565b8251848101907f706f6f6c2e73706563696669632e6172742e616464726573730000000000000082523360601b6039820152602d81526104d481610c27565b519020610e91565b90503461044e57602036600319011261044e5761050a6100e1835160208101906100d9816100cb3385610ca4565b82825160208101906e1d1c985b9cd9995c8b9b1bd8dad959608a1b82528335602f820152602f815261053b81610c27565b519020815460081c6001600160a01b031692833b1561044e57604490838651958694859363abfdcced60e01b85528401528160248401525af1801561059a576020935061058b575b505160018152f35b61059490610bfd565b38610583565b505051903d90823e3d90fd5b8284346108805760209283600319360112610136578035908351926105e96100e1878601866105d53383610ca4565b03966100d9601f1998898101835282610c5f565b845192868401671d1bdad95b8b9a5960c21b948582526008815261060c81610c43565b51902082546001600160a01b03959160089190911c861690813b15610456578491604483928b519485938492632b6cd4f760e21b84528b840152600160248401525af1801561087657610867575b5086518881019182526008815261067081610c43565b519020948785845460081c1696602489518099819363bd02d0f560e01b8352898301525afa95861561085d57839661082c575b5090610702916106da8289518b8101906d19195c1bdcda5d0b985b5bdd5b9d60921b82528a602e820152602e81526101fe81610c27565b87516106fa8a820192826106ee3386610dd9565b03908101835282610c5f565b519020610f2f565b8451928684016a1a591ccb9a5b8b9c1bdbdb60aa1b81523360601b9485602b820152601f815261073181610c43565b51902090825460081c1692833b1561044e579060448392838951968794859363785f002b60e11b85528401528960248401525af19081156108215750916107dc9161012f9493610812575b506107b385518781016a1c1bdbdb0b999bdc8b9a5960aa1b815285602b830152602b82526107a982610c27565b3391519020610e91565b8451868101916b199c995b9ccb9b1bd8dad95960a21b8352602c8201528681526100d981610c43565b908351858101916e1d1c985b9cd9995c8b9b1bd8dad959608a1b8352602f820152602f815261080a81610c27565b519020610d4f565b61081b90610bfd565b8661077c565b8551903d90823e3d90fd5b9095508781813d8311610856575b6108448183610c5f565b8101031261044e5751946107026106a3565b503d61083a565b87513d85823e3d90fd5b61087090610bfd565b8861065a565b88513d86823e3d90fd5b80fd5b50503461013657816003193601126101365760ff60209254169051908152f35b5050346101365760209061012f6108b936610b9e565b90610909828551926108d56100e1898601866105d53383610ca4565b8651888101916d19195c1bdcda5d0b985b5bdd5b9d60921b8352602e820152602e815261090181610c27565b51902061102b565b835161090186820192826106ee3386610dd9565b90503461044e578160031936011261044e57610937610bb9565b60243591821515830361045657835194602095868101906c636f6e74726163742e6e616d6560981b82523360601b602d8201526021815261097781610c27565b51902081548651634c373c8d60e11b81528481019290925282908290602490829060081c6001600160a01b03165afa918215610b22578092610aa8575b505084516109de8782816109d18183019687815193849201610c81565b8101038084520182610c5f565b519020845186810190715374616b696e67506f6f6c466163746f727960701b825260128152610a0c81610c43565b51902003610a6d57509061012f91610a31845186810190610199816100cb8685610ca4565b8351858101916f1d985b1a59185d1bdc8b9b1bd8dad95960821b83526001600160601b03199060601b1660308201526024815261080a81610c27565b835162461bcd60e51b815290810185905260156024820152741bdb9b1e48199858dd1bdc9e4818d85b8818d85b1b605a1b6044820152606490fd5b9091503d8082843e610aba8184610c5f565b82019187818403126101365780519067ffffffffffffffff821161044e570182601f8201121561013657805191610af083610ccf565b93610afd89519586610c5f565b838552898484010111610880575090610b1b91888085019101610c81565b38806109b4565b8651903d90823e3d90fd5b838534610880575061012f610b8a602093610b4736610b9e565b809391610b5e6100e1898601866105d53383610ca4565b8651888101916d19195c1bdcda5d0b985b5bdd5b9d60921b8352602e820152602e81526106fa81610c27565b83516106fa86820192826106ee3386610dd9565b6040906003190112610bb4576004359060243590565b600080fd5b600435906001600160a01b0382168203610bb457565b9181601f84011215610bb45782359167ffffffffffffffff8311610bb45760208381860195010111610bb457565b67ffffffffffffffff8111610c1157604052565b634e487b7160e01b600052604160045260246000fd5b6060810190811067ffffffffffffffff821117610c1157604052565b6040810190811067ffffffffffffffff821117610c1157604052565b90601f8019910116810190811067ffffffffffffffff821117610c1157604052565b60005b838110610c945750506000910152565b8181015183820152602001610c84565b601f916a706f6f6c2e65786973747360a81b82526001600160601b03199060601b16600b8201520190565b67ffffffffffffffff8111610c1157601f01601f191660200190565b60009060018060a01b03825460081c1690813b1561044e57829160448392604051958693849263abfdcced60e01b84526004840152600160248401525af1908115610d435750610d385750565b610d4190610bfd565b565b604051903d90823e3d90fd5b6000805460081c6001600160a01b0316929091833b1561044e57906044839283604051968794859363abfdcced60e01b85526004850152151560248401525af1908115610d435750610d385750565b15610da557565b60405162461bcd60e51b815260206004820152600c60248201526b125b9d985b1a5908141bdbdb60a21b6044820152606490fd5b6022916d746f74616c2e6465706f7369747360901b82526001600160601b03199060601b16600e8201520190565b60008054604051633d70e7e560e11b815260048101939093526020908390602490829060081c6001600160a01b03165afa918215610e84578192610e4a57505090565b9091506020813d8211610e7c575b81610e6560209383610c5f565b810103126101365751908115158203610880575090565b3d9150610e58565b50604051903d90823e3d90fd5b600080546001600160a01b039391929060081c8416803b156104525783929183604492604051978895869463ca446dd960e01b865260048601521660248401525af1908115610d435750610d385750565b6000805460081c6001600160a01b0316929091833b1561044e579060448392836040519687948593637152429d60e11b8552600485015260248401525af1908115610d435750610d385750565b6000805460081c6001600160a01b0316929091833b1561044e579060448392836040519687948593632b6cd4f760e21b8552600485015260248401525af1908115610d435750610d385750565b929192610f8882610ccf565b91610f966040519384610c5f565b829481845281830111610bb4578281602093846000960137010152565b91909160009060018060a01b03825460081c1690813b1561044e579382916064949583604051968780958194630b8a342160e21b835260048301526040602483015261100e8151809281604486015260208686019101610c81565b601f01601f191681010301925af1908115610d435750610d385750565b6000805460081c6001600160a01b0316929091833b1561044e57906044839283604051968794859363ebb9d8c960e01b8552600485015260248401525af1908115610d435750610d38575056fea26469706673582212202d0f857b09effb29694eaa55bfd71473750a6e58d668286b47a6cb9697705a4764736f6c63430008100033",
  "linkReferences": {},
  "deployedLinkReferences": {}
}