{
  "_format": "hh-sol-artifact-1",
  "contractName": "FrensPoolSetter",
  "sourceName": "contracts/FrensPoolSetter.sol",
  "abi": [
    {
      "inputs": [
        {
          "internalType": "contract IFrensStorage",
          "name": "_frensStorage",
          "type": "address"
        }
      ],
      "stateMutability": "nonpayable",
      "type": "constructor"
    },
    {
      "inputs": [
        {
          "internalType": "uint256",
          "name": "id",
          "type": "uint256"
        },
        {
          "internalType": "uint256",
          "name": "amount",
          "type": "uint256"
        }
      ],
      "name": "addToDeposit",
      "outputs": [
        {
          "internalType": "bool",
          "name": "",
          "type": "bool"
        }
      ],
      "stateMutability": "nonpayable",
      "type": "function"
    },
    {
      "inputs": [
        {
          "internalType": "uint256",
          "name": "id",
          "type": "uint256"
        },
        {
          "internalType": "uint256",
          "name": "amount",
          "type": "uint256"
        },
        {
          "internalType": "bool",
          "name": "exited",
          "type": "bool"
        }
      ],
      "name": "claim",
      "outputs": [
        {
          "internalType": "bool",
          "name": "",
          "type": "bool"
        }
      ],
      "stateMutability": "nonpayable",
      "type": "function"
    },
    {
      "inputs": [
        {
          "internalType": "address",
          "name": "stakingPool",
          "type": "address"
        },
        {
          "internalType": "bool",
          "name": "validatorLocked",
          "type": "bool"
        }
      ],
      "name": "create",
      "outputs": [
        {
          "internalType": "bool",
          "name": "",
          "type": "bool"
        }
      ],
      "stateMutability": "nonpayable",
      "type": "function"
    },
    {
      "inputs": [
        {
          "internalType": "uint256",
          "name": "depositAmount",
          "type": "uint256"
        }
      ],
      "name": "depositToPool",
      "outputs": [
        {
          "internalType": "bool",
          "name": "",
          "type": "bool"
        }
      ],
      "stateMutability": "nonpayable",
      "type": "function"
    },
    {
      "inputs": [
        {
          "internalType": "uint256",
          "name": "id",
          "type": "uint256"
        },
        {
          "internalType": "uint256",
          "name": "price",
          "type": "uint256"
        }
      ],
      "name": "rageQuit",
      "outputs": [
        {
          "internalType": "bool",
          "name": "",
          "type": "bool"
        }
      ],
      "stateMutability": "nonpayable",
      "type": "function"
    },
    {
      "inputs": [
        {
          "internalType": "address",
          "name": "newArtContract",
          "type": "address"
        }
      ],
      "name": "setArt",
      "outputs": [
        {
          "internalType": "bool",
          "name": "",
          "type": "bool"
        }
      ],
      "stateMutability": "nonpayable",
      "type": "function"
    },
    {
      "inputs": [
        {
          "internalType": "bytes",
          "name": "pubKey",
          "type": "bytes"
        },
        {
          "internalType": "bytes",
          "name": "withdrawal_credentials",
          "type": "bytes"
        },
        {
          "internalType": "bytes",
          "name": "signature",
          "type": "bytes"
        },
        {
          "internalType": "bytes32",
          "name": "deposit_data_root",
          "type": "bytes32"
        }
      ],
      "name": "setPubKey",
      "outputs": [
        {
          "internalType": "bool",
          "name": "",
          "type": "bool"
        }
      ],
      "stateMutability": "nonpayable",
      "type": "function"
    },
    {
      "inputs": [
        {
          "internalType": "uint256",
          "name": "id",
          "type": "uint256"
        }
      ],
      "name": "unlockTransfer",
      "outputs": [
        {
          "internalType": "bool",
          "name": "",
          "type": "bool"
        }
      ],
      "stateMutability": "nonpayable",
      "type": "function"
    },
    {
      "inputs": [],
      "name": "version",
      "outputs": [
        {
          "internalType": "uint8",
          "name": "",
          "type": "uint8"
        }
      ],
      "stateMutability": "view",
      "type": "function"
    },
    {
      "inputs": [
        {
          "internalType": "uint256",
          "name": "_id",
          "type": "uint256"
        },
        {
          "internalType": "uint256",
          "name": "_amount",
          "type": "uint256"
        }
      ],
      "name": "withdraw",
      "outputs": [
        {
          "internalType": "bool",
          "name": "",
          "type": "bool"
        }
      ],
      "stateMutability": "nonpayable",
      "type": "function"
    }
  ],
  "bytecode": "0x60803461008257601f6113cc38819003918201601f19168301916001600160401b038311848410176100875780849260209460405283398101031261008257516001600160a01b038116810361008257600080546001600160a81b03191660089290921b610100600160a81b031691909117905560405161132e908161009e8239f35b600080fd5b634e487b7160e01b600052604160045260246000fdfe608060408181526004918236101561001657600080fd5b600092833560e01c918263084bad7814610c6b57508163319e909014610a5b578163441a3e70146109ac57816354fd4d501461098c5781635d8b788a1461085b57816368b0e07014610516578163bed62f351461044c578163e6b1a3ae146103ca578163e920eec014610184575063f038afe31461009357600080fd5b34610180576020906101796100a736610cf1565b906100dd6100d88551878101906100d0816100c23385610df7565b03601f198101835282610db2565b519020610fc6565b610ef1565b6101148451868101906c726167652e7175697474696e6760981b825283602d820152602d815261010c81610d7a565b519020610e3e565b61014984518681019068726167652e74696d6560b81b82528360298201526029815261013f81610d7a565b51902042906110a1565b83518581019169726167652e707269636560b01b8352602a820152602a815261017181610d7a565b5190206110a1565b5160018152f35b5080fd5b9050346103be5760803660031901126103be5767ffffffffffffffff9080358281116103c6576101b79036908301610d22565b9490926024358181116103be576101d19036908501610d22565b916044359081116103c2576101e99036908601610d22565b9290918751986020998a81019080336102029084610df7565b03601f19810182526102149082610db2565b51902061022090610fc6565b61022990610ef1565b8851978a8901657075624b657960d01b81523360601b998a6026820152601a815261025381610d96565b519020913690610262926111fc565b61026b91611233565b875189810190757769746864726177616c5f63726564656e7469616c7360501b8252886036820152602a81526102a081610d7a565b5190209136906102af926111fc565b6102b891611233565b855187810190687369676e617475726560b81b8252866029820152601d81526102e081610d96565b5190209136906102ef926111fc565b6102f891611233565b8351858101907019195c1bdcda5d17d9185d1857dc9bdbdd607a1b82528460318201526025815261032881610d7a565b519020815460081c6001600160a01b031692833b156103be57906044839283885196879485936309d23b6160e31b855284015260643560248401525af19081156103b357509061017992916103a4575b508251848101916c1d985b1a59185d1bdc8b9cd95d609a1b8352602d8201526021815261010c81610d7a565b6103ad90610d50565b38610378565b8451903d90823e3d90fd5b8280fd5b8380fd5b8480fd5b505034610180576020366003190112610180576020906101796103eb610d0c565b6104056100d88451868101906100d0816100c23385610df7565b8251848101907f706f6f6c2e73706563696669632e6172742e616464726573730000000000000082523360601b6039820152602d815261044481610d7a565b519020611050565b9050346103be5760203660031901126103be5761047a6100d8835160208101906100d0816100c23385610df7565b82825160208101906e1d1c985b9cd9995c8b9b1bd8dad959608a1b82528335602f820152602f81526104ab81610d7a565b519020815460081c6001600160a01b031692833b156103be57604490838651958694859363abfdcced60e01b85528401528160248401525af1801561050a57602093506104fb575b505160018152f35b61050490610d50565b386104f3565b505051903d90823e3d90fd5b9050346103be5760209283600319360112610858578135918351916105596100d8878501856105453383610df7565b03956100d0601f1997888101835282610db2565b8451671d1bdad95b8b9a5960c21b87820181815260088084529261057c81610d96565b51902083546001600160a01b03929190841c831690813b15610806578591604483928c519485938492632b6cd4f760e21b84528c840152600160248401525af180156107fc57610849575b5087518981019182528381526105dc81610d96565b5190209588828554851c169760248a51809a819363bd02d0f560e01b83528a8301525afa96871561083f57849761080a575b508061063a610662928961062e6101718e8e519283918201943386610f2c565b038c8101835282610db2565b88518a81019061065a8161064e3385610f61565b038a8101835282610db2565b5190206110ee565b8651948886016a1a591ccb9a5b8b9c1bdbdb60aa1b81523360601b9687602b820152601f815261069181610d96565b519020828554851c1690813b15610806578591604483928c51948593849263785f002b60e11b84528c8401528d60248401525af180156107fc576107ed575b5061070788518a81016a1c1bdbdb0b999bdc8b9a5960aa1b815289602b830152602b82526106fd82610d7a565b3391519020611050565b87516107288a8201928261071c8b3387610f8f565b03908101835282610db2565b519020918354901c1692833b156103be5790604483928389519687948593637152429d60e11b8552840152600160248401525af19081156107e257509161079d9161017994936107d3575b508451868101916b199c995b9ccb9b1bd8dad95960a21b8352602c8201528681526100d081610d96565b908351858101916e1d1c985b9cd9995c8b9b1bd8dad959608a1b8352602f820152602f81526107cb81610d7a565b519020610ea2565b6107dc90610d50565b38610773565b8551903d90823e3d90fd5b6107f690610d50565b386106d0565b89513d87823e3d90fd5b8580fd5b90988098975081813d8311610838575b6108248183610db2565b810103126103c2575196979596958061060e565b503d61081a565b88513d86823e3d90fd5b61085290610d50565b386105c7565b80fd5b9050346103be5760603660031901126103be57356024356044359384151585036108585750825193610912826020966108b26100d88983018361089e3383610df7565b03936100d0601f1995868101835282610db2565b6108fd8751898101906a1c1bdbdb0b999bdc8b9a5960aa1b825288602b820152602b81526108df81610d7a565b51902033906001600160a01b03906108f69061117c565b161461113b565b865161065a898201928261071c8a3387610f8f565b6109448451928684016b746f74616c2e636c61696d7360a01b81523360601b9485602c82015288815261065a81610d96565b610952575b50505160018152f35b61098591835190858201926a199c995b8b995e1a5d195960aa1b8452602b830152603f820152603f815261010c81610d7a565b3880610949565b50503461018057816003193601126101805760ff60209254169051908152f35b505034610180576020906101796109c236610cf1565b90610a47828551926109f26100d8898601866109de3383610df7565b03966100d0601f1998898101835282610db2565b610a1f8751898101906a1c1bdbdb0b999bdc8b9a5960aa1b825283602b820152602b81526108df81610d7a565b8651610a3f81610a338b8201943386610f2c565b03868101835282610db2565b5190206112ab565b8351610a3f868201928261071c3386610f61565b9050346103be57816003193601126103be57610a75610d0c565b6024359182151583036103c657835194602095868101906c636f6e74726163742e6e616d6560981b82523360601b602d82015260218152610ab581610d7a565b51902081548651634c373c8d60e11b81528481019290925282908290602490829060081c6001600160a01b03165afa918215610c60578092610be6575b50508451610b1c878281610b0f8183019687815193849201610dd4565b8101038084520182610db2565b519020845186810190715374616b696e67506f6f6c466163746f727960701b825260128152610b4a81610d96565b51902003610bab57509061017991610b6f84518681019061010c816100c28685610df7565b8351858101916f1d985b1a59185d1bdc8b9b1bd8dad95960821b83526001600160601b03199060601b166030820152602481526107cb81610d7a565b835162461bcd60e51b815290810185905260156024820152741bdb9b1e48199858dd1bdc9e4818d85b8818d85b1b605a1b6044820152606490fd5b9091503d8082843e610bf88184610db2565b82019187818403126101805780519067ffffffffffffffff82116103be570182601f8201121561018057805191610c2e83610e22565b93610c3b89519586610db2565b838552898484010111610858575090610c5991888085019101610dd4565b3880610af2565b8651903d90823e3d90fd5b8385346108585750610179610cdd602093610c8536610cf1565b809391610c9c6100d8898601866109de3383610df7565b610cc98751898101906a1c1bdbdb0b999bdc8b9a5960aa1b825283602b820152602b81526108df81610d7a565b865161065a81610a338b8201943386610f2c565b835161065a868201928261071c3386610f61565b6040906003190112610d07576004359060243590565b600080fd5b600435906001600160a01b0382168203610d0757565b9181601f84011215610d075782359167ffffffffffffffff8311610d075760208381860195010111610d0757565b67ffffffffffffffff8111610d6457604052565b634e487b7160e01b600052604160045260246000fd5b6060810190811067ffffffffffffffff821117610d6457604052565b6040810190811067ffffffffffffffff821117610d6457604052565b90601f8019910116810190811067ffffffffffffffff821117610d6457604052565b60005b838110610de75750506000910152565b8181015183820152602001610dd7565b601f916a706f6f6c2e65786973747360a81b82526001600160601b03199060601b16600b8201520190565b67ffffffffffffffff8111610d6457601f01601f191660200190565b60009060018060a01b03825460081c1690813b156103be57829160448392604051958693849263abfdcced60e01b84526004840152600160248401525af1908115610e965750610e8b5750565b610e9490610d50565b565b604051903d90823e3d90fd5b6000805460081c6001600160a01b0316929091833b156103be57906044839283604051968794859363abfdcced60e01b85526004850152151560248401525af1908115610e965750610e8b5750565b15610ef857565b60405162461bcd60e51b815260206004820152600c60248201526b125b9d985b1a5908141bdbdb60a21b6044820152606490fd5b90916042926d19195c1bdcda5d0b985b5bdd5b9d60921b83526001600160601b03199060601b16600e83015260228201520190565b6022916d746f74616c2e6465706f7369747360901b82526001600160601b03199060601b16600e8201520190565b90916044926f6672656e2e706173742e636c61696d7360801b83526001600160601b03199060601b16601083015260248201520190565b60008054604051633d70e7e560e11b815260048101939093526020908390602490829060081c6001600160a01b03165afa91821561104357819261100957505090565b9091506020813d821161103b575b8161102460209383610db2565b810103126101805751908115158203610858575090565b3d9150611017565b50604051903d90823e3d90fd5b600080546001600160a01b039391929060081c8416803b156103c25783929183604492604051978895869463ca446dd960e01b865260048601521660248401525af1908115610e965750610e8b5750565b6000805460081c6001600160a01b0316929091833b156103be579060448392836040519687948593637152429d60e11b8552600485015260248401525af1908115610e965750610e8b5750565b6000805460081c6001600160a01b0316929091833b156103be579060448392836040519687948593632b6cd4f760e21b8552600485015260248401525af1908115610e965750610e8b5750565b1561114257565b60405162461bcd60e51b81526020600482015260126024820152711ddc9bdb99c81cdd185ada5b99c81c1bdbdb60721b6044820152606490fd5b60018060a01b036000602082825460081c16936024604051809681936321f8a72160e01b835260048301525afa9283156110435781936111bd575b50505090565b909192506020813d82116111f4575b816111d960209383610db2565b810103126101805751918216820361085857503880806111b7565b3d91506111cc565b92919261120882610e22565b916112166040519384610db2565b829481845281830111610d07578281602093846000960137010152565b91909160009060018060a01b03825460081c1690813b156103be579382916064949583604051968780958194630b8a342160e21b835260048301526040602483015261128e8151809281604486015260208686019101610dd4565b601f01601f191681010301925af1908115610e965750610e8b5750565b6000805460081c6001600160a01b0316929091833b156103be57906044839283604051968794859363ebb9d8c960e01b8552600485015260248401525af1908115610e965750610e8b575056fea26469706673582212208b95db8f2bdd7d33d5259e228fece548462b5d90b4bd5f5fd055263bea19ec2e64736f6c63430008100033",
  "linkReferences": {},
  "deployedLinkReferences": {}
}