{
  "abi": [
    {
      "inputs": [
        {
          "internalType": "address",
          "name": "owner_",
          "type": "address"
        },
        {
          "internalType": "contract IFrensStorage",
          "name": "frensStorage_",
          "type": "address"
        }
      ],
      "stateMutability": "nonpayable",
      "type": "constructor"
    },
    {
      "anonymous": false,
      "inputs": [
        {
          "indexed": false,
          "internalType": "uint256",
          "name": "amount",
          "type": "uint256"
        },
        {
          "indexed": false,
          "internalType": "address",
          "name": "depositer",
          "type": "address"
        }
      ],
      "name": "DepositToPool",
      "type": "event"
    },
    {
      "anonymous": false,
      "inputs": [
        {
          "indexed": true,
          "internalType": "address",
          "name": "previousOwner",
          "type": "address"
        },
        {
          "indexed": true,
          "internalType": "address",
          "name": "newOwner",
          "type": "address"
        }
      ],
      "name": "OwnershipTransferred",
      "type": "event"
    },
    {
      "anonymous": false,
      "inputs": [
        {
          "indexed": false,
          "internalType": "address",
          "name": "depositContractAddress",
          "type": "address"
        },
        {
          "indexed": false,
          "internalType": "address",
          "name": "caller",
          "type": "address"
        }
      ],
      "name": "Stake",
      "type": "event"
    },
    {
      "stateMutability": "payable",
      "type": "fallback"
    },
    {
      "inputs": [
        {
          "internalType": "uint256",
          "name": "_id",
          "type": "uint256"
        }
      ],
      "name": "addToDeposit",
      "outputs": [],
      "stateMutability": "payable",
      "type": "function"
    },
    {
      "inputs": [],
      "name": "depositToPool",
      "outputs": [],
      "stateMutability": "payable",
      "type": "function"
    },
    {
      "inputs": [],
      "name": "distribute",
      "outputs": [],
      "stateMutability": "nonpayable",
      "type": "function"
    },
    {
      "inputs": [
        {
          "internalType": "uint256",
          "name": "_id",
          "type": "uint256"
        }
      ],
      "name": "getDepositAmount",
      "outputs": [
        {
          "internalType": "uint256",
          "name": "",
          "type": "uint256"
        }
      ],
      "stateMutability": "view",
      "type": "function"
    },
    {
      "inputs": [
        {
          "internalType": "uint256",
          "name": "_id",
          "type": "uint256"
        }
      ],
      "name": "getDistributableShare",
      "outputs": [
        {
          "internalType": "uint256",
          "name": "",
          "type": "uint256"
        }
      ],
      "stateMutability": "view",
      "type": "function"
    },
    {
      "inputs": [],
      "name": "getIdsInThisPool",
      "outputs": [
        {
          "internalType": "uint256[]",
          "name": "",
          "type": "uint256[]"
        }
      ],
      "stateMutability": "view",
      "type": "function"
    },
    {
      "inputs": [],
      "name": "getPubKey",
      "outputs": [
        {
          "internalType": "bytes",
          "name": "",
          "type": "bytes"
        }
      ],
      "stateMutability": "view",
      "type": "function"
    },
    {
      "inputs": [
        {
          "internalType": "uint256",
          "name": "_id",
          "type": "uint256"
        }
      ],
      "name": "getShare",
      "outputs": [
        {
          "internalType": "uint256",
          "name": "",
          "type": "uint256"
        }
      ],
      "stateMutability": "view",
      "type": "function"
    },
    {
      "inputs": [],
      "name": "getState",
      "outputs": [
        {
          "internalType": "string",
          "name": "",
          "type": "string"
        }
      ],
      "stateMutability": "view",
      "type": "function"
    },
    {
      "inputs": [],
      "name": "getTotalDeposits",
      "outputs": [
        {
          "internalType": "uint256",
          "name": "",
          "type": "uint256"
        }
      ],
      "stateMutability": "view",
      "type": "function"
    },
    {
      "inputs": [],
      "name": "owner",
      "outputs": [
        {
          "internalType": "address",
          "name": "",
          "type": "address"
        }
      ],
      "stateMutability": "view",
      "type": "function"
    },
    {
      "inputs": [],
      "name": "renounceOwnership",
      "outputs": [],
      "stateMutability": "nonpayable",
      "type": "function"
    },
    {
      "inputs": [],
      "name": "rugpull",
      "outputs": [],
      "stateMutability": "nonpayable",
      "type": "function"
    },
    {
      "inputs": [
        {
          "internalType": "bytes",
          "name": "pubKey",
          "type": "bytes"
        },
        {
          "internalType": "bytes",
          "name": "withdrawal_credentials",
          "type": "bytes"
        },
        {
          "internalType": "bytes",
          "name": "signature",
          "type": "bytes"
        },
        {
          "internalType": "bytes32",
          "name": "deposit_data_root",
          "type": "bytes32"
        }
      ],
      "name": "setPubKey",
      "outputs": [],
      "stateMutability": "nonpayable",
      "type": "function"
    },
    {
      "inputs": [],
      "name": "stake",
      "outputs": [],
      "stateMutability": "nonpayable",
      "type": "function"
    },
    {
      "inputs": [
        {
          "internalType": "bytes",
          "name": "pubKey",
          "type": "bytes"
        },
        {
          "internalType": "bytes",
          "name": "withdrawal_credentials",
          "type": "bytes"
        },
        {
          "internalType": "bytes",
          "name": "signature",
          "type": "bytes"
        },
        {
          "internalType": "bytes32",
          "name": "deposit_data_root",
          "type": "bytes32"
        }
      ],
      "name": "stake",
      "outputs": [],
      "stateMutability": "nonpayable",
      "type": "function"
    },
    {
      "inputs": [
        {
          "internalType": "address",
          "name": "newOwner",
          "type": "address"
        }
      ],
      "name": "transferOwnership",
      "outputs": [],
      "stateMutability": "nonpayable",
      "type": "function"
    },
    {
      "inputs": [],
      "name": "unstake",
      "outputs": [],
      "stateMutability": "nonpayable",
      "type": "function"
    },
    {
      "inputs": [],
      "name": "version",
      "outputs": [
        {
          "internalType": "uint8",
          "name": "",
          "type": "uint8"
        }
      ],
      "stateMutability": "view",
      "type": "function"
    },
    {
      "inputs": [
        {
          "internalType": "uint256",
          "name": "_id",
          "type": "uint256"
        },
        {
          "internalType": "uint256",
          "name": "_amount",
          "type": "uint256"
        }
      ],
      "name": "withdraw",
      "outputs": [],
      "stateMutability": "nonpayable",
      "type": "function"
    },
    {
      "stateMutability": "payable",
      "type": "receive"
    }
  ],
  "bytecode": {
    "object": "0x608060408181523462000196578082620022f980380380916200002382856200019b565b83398101031262000196576200003982620001bf565b6020928301516001600160a01b03808216949185900362000196576200005f33620001d4565b600180546001600160a01b0319908116871790915584516f636f6e74726163742e6164647265737360801b8185019081526d4672656e73506f6f6c536861726560901b6030830152601e82528187019792949192906001600160401b038911848a1017620001805760248984938193828c52875190206321f8a72160e01b835260448801525afa918215620001755760009262000131575b50506200011094955016906002541617600255620001d4565b6000805460ff60a01b1916600160a01b179055516120dd90816200021c8239f35b813d83116200016d575b62000147818a6200019b565b810103126200016a575062000161620001109495620001bf565b859438620000f7565b80fd5b503d6200013b565b86513d6000823e3d90fd5b634e487b7160e01b600052604160045260246000fd5b600080fd5b601f909101601f19168101906001600160401b038211908210176200018057604052565b51906001600160a01b03821682036200019657565b600080546001600160a01b039283166001600160a01b03198216811783559216907f8be0079c531659141344cd1fd0a4f28419497f9722a3daafe3b4186f6b6457e09080a356fe608060408181526004908136101561001f575b505050361561001d57005b005b600092833560e01c908163168a482214610dfc575080631865c57d14610dde5780632def662014610d62578063378de45b14610d1b5780633a4b66f114610cf6578063441a3e7014610af857806345b58fe414610a9e5780634ad02ef114610a375780634b2b4e361461091057806354fd4d50146108ed578063678e300a146108cd578063715018a61461086f5780638620891c1461069f5780638da5cb5b14610677578063cfb5a5f81461064e578063e2664e49146105f8578063e4fc6b6d146105df578063e920eec0146105a7578063f2fde38b146104df5763f9faa10403610012578260031936011261041f5761013061011a61206f565b61012a610125610fac565b612077565b14610fd9565b34156104a7578051916020926101886801bc16d674ec8000006101818684019361017c8161015e308861101e565b0395610172601f1997888101855284610f6e565b34925190206110cd565b61104c565b111561106f565b825190848201671d1bdad95b8b9a5960c21b92838252600881526101ab81610f36565b5190206001546001600160a01b03939188918516803b1561041f576044839289519485938492632b6cd4f760e21b84528b840152600160248401525af1801561048e57906102179291610498575b5085518781019182526008815261020f81610f36565b5190206110cd565b90868551878101906d19195c1bdcda5d0b985b5bdd5b9d60921b825284602e820152602e815261024681610f52565b5190208460015416803b1561041f576044839289519485938492637152429d60e11b84528b8401523460248401525af1801561048e57610475575b5090869392916102b386518881016102a98261029d308461101e565b03858101845283610f6e565b3491519020611146565b85516a1a591ccb9a5b8b9c1bdbdb60aa1b8882019081523060601b6001600160601b031916600b820152916102f49082601f85015b03908101835282610f6e565b519020826001541690813b15610471578591604483928951948593849263785f002b60e11b84528a8401528760248401525af180156104675790859161044f575b50508451868101916a1c1bdbdb0b999bdc8b9a5960aa1b8352602b820152602b815261036081610f52565b519020816001541690813b1561044b578491604483928851948593849263ca446dd960e01b8452898401523060248401525af180156104415790849161042d575b50506002541690813b1561041f57829160248392865194859384926335313c2160e11b845233908401525af180156104235761040b575b50507f1ed12c9855bd60407f7650e01c62ee4f0f40744b5b17983eec349a2b4e89981a918151903482523390820152a180f35b61041490610f0c565b61041f5782386103d8565b8280fd5b83513d84823e3d90fd5b61043690610f0c565b61041f5782386103a1565b85513d86823e3d90fd5b8480fd5b61045890610f0c565b610463578338610335565b8380fd5b86513d87823e3d90fd5b8580fd5b61048490979194939297610f0c565b9590919238610281565b86513d8a823e3d90fd5b6104a190610f0c565b386101f9565b906020606492519162461bcd60e51b8352820152601260248201527136bab9ba103232b837b9b4ba1032ba3432b960711b6044820152fd5b503461041f57602036600319011261041f576001600160a01b038235818116939084900361044b57845491821692610518338514611227565b84156105555750506001600160a01b031916821783557f8be0079c531659141344cd1fd0a4f28419497f9722a3daafe3b4186f6b6457e08380a380f35b906020608492519162461bcd60e51b8352820152602660248201527f4f776e61626c653a206e6577206f776e657220697320746865207a65726f206160448201526564647265737360d01b6064820152fd5b83346105dc576105d96105b936610ea2565b956105d460018060a09894989795971b038a54163314611227565b611808565b80f35b80fd5b83346105dc57806003193601126105dc576105d9611c92565b83823461064a578160031936011261064a5761061e60018060a01b038354163314611227565b8180808047818115610641575b3390f115610637575080f35b51903d90823e3d90fd5b506108fc61062b565b5080fd5b5082346105dc5760203660031901126105dc5750610670602092479035611f47565b9051908152f35b83823461064a578160031936011261064a57905490516001600160a01b039091168152602090f35b5091906020908160031936011261041f5780359060018060a01b036024848260025416885192838092634f558e7960e01b825288888301525afa908115610865578691610838575b5015610801576107228651858101906a1c1bdbdb0b999bdc8b9a5960aa1b825285602b820152602b815261071a81610f52565b5190206111cd565b309116036107c957506102a96105d9939461073e61011a61206f565b6107ad8151936107806801bc16d674ec80000061018161077989890189610765308361101e565b039961020f601f199b8c8101835282610f6e565b349061104c565b825190868201906d19195c1bdcda5d0b985b5bdd5b9d60921b8252602e830152602e82526102a982610f52565b5192830191836107bd308561101e565b03908101845283610f6e565b845162461bcd60e51b815290810183905260126024820152711ddc9bdb99c81cdd185ada5b99c81c1bdbdb60721b6044820152606490fd5b855162461bcd60e51b815280830185905260116024820152701a5908191bd95cc81b9bdd08195e1a5cdd607a1b6044820152606490fd5b6108589150853d871161085e575b6108508183610f6e565b810190611196565b386106e7565b503d610846565b87513d88823e3d90fd5b83346105dc57806003193601126105dc57805481906001600160a01b0381169061089a338314611227565b6001600160a01b03191682557f8be0079c531659141344cd1fd0a4f28419497f9722a3daafe3b4186f6b6457e08280a380f35b5082346105dc5760203660031901126105dc575061067060209235611fec565b83823461064a578160031936011261064a5760ff6020925460a01c169051908152f35b503461041f5761091f36610ea2565b9261093a60018060a09998999594951b038b54163314611227565b875194610993602087018761097730836021916c1d985b1a59185d1bdc8b9cd95d609a1b82526001600160601b03199060601b16600d8201520190565b039761098b601f19998a8101835282610f6e565b5190206113a1565b15610a1c575050505050906109c26109d19285516109ba6020820192826102e83086611272565b519020611304565b60208151910120923691611298565b60208151910120036109e75750506105d9611512565b906020606492519162461bcd60e51b8352820152600f60248201526e0e0eac496caf240dad2e6dac2e8c6d608b1b6044820152fd5b939750935093610a2f9750949094611808565b6105d9611512565b83823461064a578160031936011261064a5780610a87610a9a925160208101907376616c696461746f722e7075626c69632e6b657960601b82523060601b6034820152602881526109ba81610f52565b9051918291602083526020830190610e4a565b0390f35b83823461064a578160031936011261064a57610ab8611e11565b815192839260208080860192818752855180945286019401925b828110610ae157505050500390f35b835185528695509381019392810192600101610ad2565b50903461041f578160031936011261041f57803560243591610b1861206f565b610b236101256114f0565b14610cb35760025484516331a9108f60e11b8152828101849052602093916001600160a01b03919085908290602490829086165afa908115610ca9578891610c7c575b50163303610c4a5784519184610ba18585016d19195c1bdcda5d0b985b5bdd5b9d60921b9586825285602e820152602e815261020f81610f52565b10610c10575083610bfd81889695610bdb8897889788978c5190858201928352602e820152602e8152610bd381610f52565b519020611c4d565b885190810190610bd381610bef308561101e565b03601f198101835282610f6e565b818115610641573390f115610637575080f35b855162461bcd60e51b815290810184905260146024820152731b9bdd08195b9bdd59da0819195c1bdcda5d195960621b6044820152606490fd5b5060649184519162461bcd60e51b8352820152600d60248201526c3737ba103a34329037bbb732b960991b6044820152fd5b610c9c9150853d8711610ca2575b610c948183610f6e565b8101906111ae565b38610b66565b503d610c8a565b87513d8a823e3d90fd5b606490602085519162461bcd60e51b8352820152601b60248201527f63616e6e6f74207769746864726177206f6e6365207374616b656400000000006044820152fd5b83346105dc57806003193601126105dc57610a2f60018060a01b038254163314611227565b5082346105dc5760203660031901126105dc57506106706020928251848101916d19195c1bdcda5d0b985b5bdd5b9d60921b835235602e820152602e815261020f81610f52565b83823461064a578160031936011261064a576105d990610d8c60018060a01b038454163314611227565b60644711610dd1575b80516020810190610daa81610bef30856114c2565b519020905190610db982610f36565b6006825265195e1a5d195960d21b60208301526117b2565b610dd9611c92565b610d95565b83823461064a578160031936011261064a57610a9a90610a87612015565b8285346105dc57806003193601126105dc57506106708260208094019061020f81610bef308561101e565b60005b838110610e3a5750506000910152565b8181015183820152602001610e2a565b90602091610e6381518092818552858086019101610e27565b601f01601f1916010190565b9181601f84011215610e9d5782359167ffffffffffffffff8311610e9d5760208381860195010111610e9d57565b600080fd5b906080600319830112610e9d5767ffffffffffffffff600435818111610e9d5783610ecf91600401610e6f565b93909392602435838111610e9d5782610eea91600401610e6f565b93909392604435918211610e9d57610f0491600401610e6f565b909160643590565b67ffffffffffffffff8111610f2057604052565b634e487b7160e01b600052604160045260246000fd5b6040810190811067ffffffffffffffff821117610f2057604052565b6060810190811067ffffffffffffffff821117610f2057604052565b90601f8019910116810190811067ffffffffffffffff821117610f2057604052565b67ffffffffffffffff8111610f2057601f01601f191660200190565b60405190610fb982610f36565b6011825270616363657074696e674465706f7369747360781b6020830152565b15610fe057565b60405162461bcd60e51b81526020600482015260166024820152756e6f7420616363657074696e67206465706f7369747360501b6044820152606490fd5b6022916d746f74616c2e6465706f7369747360901b82526001600160601b03199060601b16600e8201520190565b9190820180921161105957565b634e487b7160e01b600052601160045260246000fd5b1561107657565b60405162461bcd60e51b815260206004820152602960248201527f746f74616c206465706f736974732063616e6e6f74206265206d6f72652074686044820152680c2dc406664408ae8d60bb1b6064820152608490fd5b60015460405163bd02d0f560e01b81526004810192909252602090829060249082906001600160a01b03165afa90811561113a5760009161110c575090565b906020823d8211611132575b8161112560209383610f6e565b810103126105dc57505190565b3d9150611118565b6040513d6000823e3d90fd5b6001546001600160a01b031691823b15610e9d576044600092836040519586948593632b6cd4f760e21b8552600485015260248401525af1801561113a5761118b5750565b61119490610f0c565b565b90816020910312610e9d57518015158103610e9d5790565b90816020910312610e9d57516001600160a01b0381168103610e9d5790565b6001546040516321f8a72160e01b81526004810192909252602090829060249082906001600160a01b03165afa90811561113a5760009161120c575090565b611224915060203d8111610ca257610c948183610f6e565b90565b1561122e57565b606460405162461bcd60e51b815260206004820152602060248201527f4f776e61626c653a2063616c6c6572206973206e6f7420746865206f776e65726044820152fd5b601a91657075624b657960d01b82526001600160601b03199060601b1660068201520190565b9291926112a482610f90565b916112b26040519384610f6e565b829481845281830111610e9d578281602093846000960137010152565b909291926112dc81610f90565b916112ea6040519384610f6e565b829482845282820111610e9d576020611194930190610e27565b600154604051630180634360e71b815260048101929092526000908190839060249082906001600160a01b03165afa91821561139457819261134557505090565b909291503d8084833e6113588183610f6e565b8101906020818303126104635780519067ffffffffffffffff821161044b570181601f82011215610463576112249293506020815191016112cf565b50604051903d90823e3d90fd5b600154604051633d70e7e560e11b81526004810192909252602090829060249082906001600160a01b03165afa90811561113a576000916113e0575090565b611224915060203d811161085e576108508183610f6e565b156113ff57565b60405162461bcd60e51b815260206004820152600b60248201526a77726f6e6720737461746560a81b6044820152606490fd5b602a91757769746864726177616c5f63726564656e7469616c7360501b82526001600160601b03199060601b1660168201520190565b601d91687369676e617475726560b81b82526001600160601b03199060601b1660098201520190565b6025917019195c1bdcda5d17d9185d1857dc9bdbdd607a1b82526001600160601b03199060601b1660118201520190565b6022916d636f6e74726163742e737461746560901b82526001600160601b03199060601b16600e8201520190565b604051906114fd82610f36565b60068252651cdd185ad95960d21b6020830152565b6801bc16d674ec8000009081471061177c5761154061152f61206f565b61153a610125610fac565b146113f8565b60408051602061156b818301836115573083611272565b03936109ba601f1995868101835282610f6e565b61158e8451838101906109ba816115823085611432565b03878101835282610f6e565b926115b28551848101906109ba816115a63085611468565b03858101835282610f6e565b968551848101906115c7816115a63085611491565b5190206001548751635376ab1f60e11b8152600481019290925290926001600160a01b039186908590602490829086165afa93841561177157600094611742575b5061168361165d8951888101907f65787465726e616c2e636f6e74726163742e616464726573730000000000000082526e11195c1bdcda5d10dbdb9d1c9858dd608a1b60398201526028815261071a81610f52565b91895161167289820192826102e830866114c2565b51902061167d6114f0565b906117b2565b1694853b15610e9d576000936116d1936116e06116be938a519c8d97889687966304512a2360e31b8852608060048901526084880190610e4a565b6003199384888303016024890152610e4a565b91858303016044860152610e4a565b9060648301520391865af1948515611737577f72b356fd889b9abd3530accd2c9f4aecbce67d70757181f9f862ac91464ce1929495611728575b5082519182523390820152a1565b61173190610f0c565b3861171a565b83513d6000823e3d90fd5b90938682813d831161176a575b6117598183610f6e565b810103126105dc5750519238611608565b503d61174f565b88513d6000823e3d90fd5b60405162461bcd60e51b815260206004820152600e60248201526d0dcdee840cadcdeeaced040cae8d60931b6044820152606490fd5b6001546001600160a01b031691823b15610e9d576117f792600092836040518096819582946306e8995560e41b84526004840152604060248401526044830190610e4a565b03925af1801561113a5761118b5750565b93909592949194600160f81b30019586301161105957604097885160209889820190815289825261183882610f36565b611843368686611298565b8a81519101209151902003611b7f576118878951898101906f1d985b1a59185d1bdc8b9b1bd8dad95960821b82523060601b60308201526024815261098b81610f52565b15611a765761189461206f565b895161189f81610f36565b60158152746177616974696e6756616c696461746f72496e666f60581b8a8201526118c990612077565b146118d3906113f8565b885196888801886118e43083611272565b0398601f19998a810182526118f99082610f6e565b51902091369061190892611298565b61191191611bc3565b875187810190806119223084611432565b0388810182526119329082610f6e565b51902091369061194192611298565b61194a91611bc3565b8551858101908061195b3084611468565b03868101825261196b9082610f6e565b51902091369061197a92611298565b61198391611bc3565b835183810190806119943084611491565b0384810182526119a49082610f6e565b519020906119b191611c08565b825182810191816119c230856114c2565b0390810182526119d29082610f6e565b5190206119dd610fac565b6119e6916117b2565b81516c1d985b1a59185d1bdc8b9cd95d609a1b9181019182523060601b6001600160601b031916600d830152611a1f8160218401610bef565b5190206001546001600160a01b03169190823b15610e9d57600092604484928451958693849263abfdcced60e01b84526004840152600160248401525af1908115611a6c575061118b5750565b513d6000823e3d90fd5b611a8196959661206f565b611a89610fac565b611a9290612077565b14611a9c906113f8565b88519588870187611aad3083611272565b0397601f19988981018252611ac29082610f6e565b519020913690611ad192611298565b611ada91611bc3565b87518781019080611aeb3084611432565b038781018252611afb9082610f6e565b519020913690611b0a92611298565b611b1391611bc3565b85518581019080611b243084611468565b038581018252611b349082610f6e565b519020913690611b4392611298565b611b4c91611bc3565b83518381019181611b5d3085611491565b039081018252611b6d9082610f6e565b51902090611b7a91611c08565b6119e6565b885162461bcd60e51b815260048101899052601e60248201527f7769746864726177616c2063726564656e7469616c206d69736d6174636800006044820152606490fd5b6001546001600160a01b031691823b15610e9d576117f79260009283604051809681958294630b8a342160e21b84526004840152604060248401526044830190610e4a565b6001546001600160a01b031691823b15610e9d5760446000928360405195869485936309d23b6160e31b8552600485015260248401525af1801561113a5761118b5750565b6001546001600160a01b031691823b15610e9d57604460009283604051958694859363ebb9d8c960e01b8552600485015260248401525af1801561113a5761118b5750565b611c9a61206f565b611ca56101256114f0565b03611dcc57476064811115611d8857611cbc611e11565b60005b8151811015611d83576020808260051b8401015160018060a01b03908160025416926024816040958651928380926331a9108f60e11b82528760048301525afa918215611d785793600094938594938a86959486958693611d55575b5050611d279192611f47565b9183918315611d4b575b1690f115611a6c5750600019811461105957600101611cbf565b6108fc9250611d31565b611d2793509081611d7192903d10610ca257610c948183610f6e565b9138611d1b565b85513d6000823e3d90fd5b505050565b606460405162461bcd60e51b815260206004820152602060248201527f6d696e696d756d206f66203130302077656920746f20646973747269627574656044820152fd5b60405162461bcd60e51b815260206004820152601c60248201527f757365207769746864726177207768656e206e6f74207374616b6564000000006044820152606490fd5b6040516a1a591ccb9a5b8b9c1bdbdb60aa1b60208083019182523060601b6001600160601b031916602b84015291611e4c81603f8101610bef565b5190206001546040516378267eb560e11b81526004810192909252600092908390839060249082906001600160a01b03165afa928315611f3b578093611e93575b50505090565b909192503d8082853e611ea68185610f6e565b83019082848303126105dc57835167ffffffffffffffff9485821161041f570182601f8201121561064a578051948511611f27578460051b9160405195611eef86850188610f6e565b865284808701938301019384116105dc57508301905b828210611f185750505050388080611e8d565b81518152908301908301611f05565b634e487b7160e01b82526041600452602482fd5b604051903d90823e3d90fd5b611f799060405160208101916d19195c1bdcda5d0b985b5bdd5b9d60921b8352602e820152602e815261020f81610f52565b611f92604051602081019061020f81610bef308561101e565b918115611fe457818102918183041490151715611059578115611fce57046001811115611fc85760001981019081116110595790565b50600090565b634e487b7160e01b600052601260045260246000fd5b505050600090565b611ff461206f565b611fff610125610fac565b0361200a5750600090565b611224904790611f47565b604051602081019061202b81610bef30856114c2565b519020600154604051634c373c8d60e11b815260048101929092526000908190839060249082906001600160a01b03165afa91821561139457819261134557505090565b612077612015565b6040516120a1602082816120948183019687815193849201610e27565b8101038084520182610f6e565b5190209056fea26469706673582212208e9543c933cc7455da5e96cac86c67df23fe661df4297fda800a9b8356397de564736f6c63430008110033",
    "linkReferences": {}
  },
  "methodIdentifiers": {
    "addToDeposit(uint256)": "8620891c",
    "depositToPool()": "f9faa104",
    "distribute()": "e4fc6b6d",
    "getDepositAmount(uint256)": "378de45b",
    "getDistributableShare(uint256)": "678e300a",
    "getIdsInThisPool()": "45b58fe4",
    "getPubKey()": "4ad02ef1",
    "getShare(uint256)": "cfb5a5f8",
    "getState()": "1865c57d",
    "getTotalDeposits()": "168a4822",
    "owner()": "8da5cb5b",
    "renounceOwnership()": "715018a6",
    "rugpull()": "e2664e49",
    "setPubKey(bytes,bytes,bytes,bytes32)": "e920eec0",
    "stake()": "3a4b66f1",
    "stake(bytes,bytes,bytes,bytes32)": "4b2b4e36",
    "transferOwnership(address)": "f2fde38b",
    "unstake()": "2def6620",
    "version()": "54fd4d50",
    "withdraw(uint256,uint256)": "441a3e70"
  },
  "id": 8
}