{
  "abi": [
    {
      "inputs": [
        {
          "internalType": "address",
          "name": "owner_",
          "type": "address"
        },
        {
          "internalType": "contract IFrensStorage",
          "name": "frensStorage_",
          "type": "address"
        }
      ],
      "stateMutability": "nonpayable",
      "type": "constructor"
    },
    {
      "anonymous": false,
      "inputs": [
        {
          "indexed": false,
          "internalType": "uint256",
          "name": "amount",
          "type": "uint256"
        },
        {
          "indexed": false,
          "internalType": "address",
          "name": "depositer",
          "type": "address"
        }
      ],
      "name": "DepositToPool",
      "type": "event"
    },
    {
      "anonymous": false,
      "inputs": [
        {
          "indexed": true,
          "internalType": "address",
          "name": "previousOwner",
          "type": "address"
        },
        {
          "indexed": true,
          "internalType": "address",
          "name": "newOwner",
          "type": "address"
        }
      ],
      "name": "OwnershipTransferred",
      "type": "event"
    },
    {
      "anonymous": false,
      "inputs": [
        {
          "indexed": false,
          "internalType": "address",
          "name": "depositContractAddress",
          "type": "address"
        },
        {
          "indexed": false,
          "internalType": "address",
          "name": "caller",
          "type": "address"
        }
      ],
      "name": "Stake",
      "type": "event"
    },
    {
      "stateMutability": "payable",
      "type": "fallback"
    },
    {
      "inputs": [
        {
          "internalType": "uint256",
          "name": "_id",
          "type": "uint256"
        }
      ],
      "name": "addToDeposit",
      "outputs": [],
      "stateMutability": "payable",
      "type": "function"
    },
    {
      "inputs": [],
      "name": "depositToPool",
      "outputs": [],
      "stateMutability": "payable",
      "type": "function"
    },
    {
      "inputs": [],
      "name": "distribute",
      "outputs": [],
      "stateMutability": "nonpayable",
      "type": "function"
    },
    {
      "inputs": [
        {
          "internalType": "uint256",
          "name": "_id",
          "type": "uint256"
        }
      ],
      "name": "getDepositAmount",
      "outputs": [
        {
          "internalType": "uint256",
          "name": "",
          "type": "uint256"
        }
      ],
      "stateMutability": "view",
      "type": "function"
    },
    {
      "inputs": [
        {
          "internalType": "uint256",
          "name": "_id",
          "type": "uint256"
        }
      ],
      "name": "getDistributableShare",
      "outputs": [
        {
          "internalType": "uint256",
          "name": "",
          "type": "uint256"
        }
      ],
      "stateMutability": "view",
      "type": "function"
    },
    {
      "inputs": [],
      "name": "getIdsInThisPool",
      "outputs": [
        {
          "internalType": "uint256[]",
          "name": "",
          "type": "uint256[]"
        }
      ],
      "stateMutability": "view",
      "type": "function"
    },
    {
      "inputs": [],
      "name": "getPubKey",
      "outputs": [
        {
          "internalType": "bytes",
          "name": "",
          "type": "bytes"
        }
      ],
      "stateMutability": "view",
      "type": "function"
    },
    {
      "inputs": [
        {
          "internalType": "uint256",
          "name": "_id",
          "type": "uint256"
        }
      ],
      "name": "getShare",
      "outputs": [
        {
          "internalType": "uint256",
          "name": "",
          "type": "uint256"
        }
      ],
      "stateMutability": "view",
      "type": "function"
    },
    {
      "inputs": [],
      "name": "getState",
      "outputs": [
        {
          "internalType": "string",
          "name": "",
          "type": "string"
        }
      ],
      "stateMutability": "view",
      "type": "function"
    },
    {
      "inputs": [],
      "name": "owner",
      "outputs": [
        {
          "internalType": "address",
          "name": "",
          "type": "address"
        }
      ],
      "stateMutability": "view",
      "type": "function"
    },
    {
      "inputs": [],
      "name": "renounceOwnership",
      "outputs": [],
      "stateMutability": "nonpayable",
      "type": "function"
    },
    {
      "inputs": [],
      "name": "rugpull",
      "outputs": [],
      "stateMutability": "nonpayable",
      "type": "function"
    },
    {
      "inputs": [
        {
          "internalType": "address",
          "name": "frensPoolShareAddress_",
          "type": "address"
        }
      ],
      "name": "setFrensPoolShare",
      "outputs": [],
      "stateMutability": "nonpayable",
      "type": "function"
    },
    {
      "inputs": [
        {
          "internalType": "bytes",
          "name": "_publicKey",
          "type": "bytes"
        }
      ],
      "name": "setPubKey",
      "outputs": [],
      "stateMutability": "nonpayable",
      "type": "function"
    },
    {
      "inputs": [
        {
          "internalType": "bytes",
          "name": "pubKey",
          "type": "bytes"
        },
        {
          "internalType": "bytes",
          "name": "withdrawal_credentials",
          "type": "bytes"
        },
        {
          "internalType": "bytes",
          "name": "signature",
          "type": "bytes"
        },
        {
          "internalType": "bytes32",
          "name": "deposit_data_root",
          "type": "bytes32"
        }
      ],
      "name": "stake",
      "outputs": [],
      "stateMutability": "nonpayable",
      "type": "function"
    },
    {
      "inputs": [
        {
          "internalType": "address",
          "name": "newOwner",
          "type": "address"
        }
      ],
      "name": "transferOwnership",
      "outputs": [],
      "stateMutability": "nonpayable",
      "type": "function"
    },
    {
      "inputs": [],
      "name": "unstake",
      "outputs": [],
      "stateMutability": "nonpayable",
      "type": "function"
    },
    {
      "inputs": [],
      "name": "version",
      "outputs": [
        {
          "internalType": "uint8",
          "name": "",
          "type": "uint8"
        }
      ],
      "stateMutability": "view",
      "type": "function"
    },
    {
      "inputs": [
        {
          "internalType": "uint256",
          "name": "_id",
          "type": "uint256"
        },
        {
          "internalType": "uint256",
          "name": "_amount",
          "type": "uint256"
        }
      ],
      "name": "withdraw",
      "outputs": [],
      "stateMutability": "nonpayable",
      "type": "function"
    },
    {
      "stateMutability": "payable",
      "type": "receive"
    }
  ],
  "bytecode": {
    "object": "0x60806040818152346200018357808262001db6803803809162000023828562000188565b83398101031262000183576200003982620001ac565b6020928301516001600160a01b03808216949185900362000183576200005f33620001c1565b600180546001600160a01b0319908116871790915584516f636f6e74726163742e6164647265737360801b8185019081526d4672656e73506f6f6c536861726560901b6030830152601e82528187019792949192906001600160401b038911848a10176200016d5760248984938193828c52875190206321f8a72160e01b835260448801525afa91821562000162576000926200011e575b50506200011094955016906002541617600255620001c1565b51611bad9081620002098239f35b813d83116200015a575b62000134818a62000188565b810103126200015757506200014e620001109495620001ac565b859438620000f7565b80fd5b503d62000128565b86513d6000823e3d90fd5b634e487b7160e01b600052604160045260246000fd5b600080fd5b601f909101601f19168101906001600160401b038211908210176200016d57604052565b51906001600160a01b03821682036200018357565b600080546001600160a01b039283166001600160a01b03198216811783559216907f8be0079c531659141344cd1fd0a4f28419497f9722a3daafe3b4186f6b6457e09080a356fe60406080815260048036101561001c575b5050361561001a57005b005b600091823560e01c80631865c57d146110e45780632def6620146110685780632edaf74d1461101d578063378de45b14610fd6578063441a3e7014610de657806345b58fe414610d475780634ad02ef114610d025780634b2b4e361461091757806354fd4d50146108f4578063678e300a146108d4578063715018a6146108755780638620891c146106a65780638da5cb5b1461067e578063cfb5a5f814610655578063e2664e49146105ff578063e32d29131461055c578063e4fc6b6d1461053d578063f2fde38b1461046d5763f9faa104146100fa5750610010565b826003193601126103c057610126610110611ad9565b61012061011b61124f565b611ae1565b1461127c565b34156104355780519160209261017e6801bc16d674ec800000610177868401936101728161015430886112c1565b0395610168601f19978881018552846111da565b3492519020611370565b6112ef565b1115611312565b825190848201671d1bdad95b8b9a5960c21b92838252600881526101a1816111a2565b5190206001546001600160a01b03939190841690813b15610430576000916044839289519485938492632b6cd4f760e21b84528b840152600160248401525af180156104255791610214918996959493610416575b5086518881019182526008815261020c816111a2565b519020611370565b908551878101906d19195c1bdcda5d0b985b5bdd5b9d60921b825283602e820152602e8152610242816111be565b519020836001541690813b15610412578691604483928a519485938492637152429d60e11b84528b8401523460248401525af18015610408579086916103f0575b50506102b186518881016102a78261029b30846112c1565b038581018452836111da565b34915190206113e9565b85516a1a591ccb9a5b8b9c1bdbdb60aa1b8882019081523060601b6bffffffffffffffffffffffff1916600b820152916102f79082601f85015b039081018352826111da565b519020826001541691823b156103ec5760448692838951958694859363785f002b60e11b85528a85015260248401525af180156103e2579084916103ce575b505060025416803b156103c057835163ee1fe2ad60e01b815233928101928352306020840152918391839182908490829060400103925af180156103c4576103ac575b50507f1ed12c9855bd60407f7650e01c62ee4f0f40744b5b17983eec349a2b4e89981a918151903482523390820152a180f35b6103b590611178565b6103c0578238610379565b8280fd5b83513d84823e3d90fd5b6103d790611178565b6103c0578238610336565b85513d86823e3d90fd5b8580fd5b6103f990611178565b610404578438610283565b8480fd5b87513d88823e3d90fd5b8680fd5b61041f90611178565b386101f6565b86513d6000823e3d90fd5b600080fd5b906020606492519162461bcd60e51b8352820152601260248201527136bab9ba103232b837b9b4ba1032ba3432b960711b6044820152fd5b50346103c05760203660031901126103c0576001600160a01b03823581811693919290849003610404576104a5838654163314611976565b83156104eb575050600054826001600160601b0360a01b821617600055167f8be0079c531659141344cd1fd0a4f28419497f9722a3daafe3b4186f6b6457e0600080a380f35b906020608492519162461bcd60e51b8352820152602660248201527f4f776e61626c653a206e6577206f776e657220697320746865207a65726f206160448201526564647265737360d01b6064820152fd5b8334610559578060031936011261055957610556611519565b80f35b80fd5b50346103c05760203660031901126103c057813567ffffffffffffffff81116105fb57366023820112156105fb57610556928160246105a093369301359101611218565b906105b560018060a01b038554163314611976565b6105d16105c0611ad9565b6105cb61011b61124f565b146119c1565b5160208101906105f3816105e53085611870565b03601f1981018352826111da565b5190206119fb565b8380fd5b83823461065157816003193601126106515761062560018060a01b038354163314611976565b8180808047818115610648575b3390f11561063e575080f35b51903d90823e3d90fd5b506108fc610632565b5080fd5b50823461055957602036600319011261055957506106776020924790356117a2565b9051908152f35b838234610651578160031936011261065157905490516001600160a01b039091168152602090f35b509190602090816003193601126103c05780359060018060a01b036024848260025416885192838092634f558e7960e01b825288888301525afa90811561040857869161083f575b5015610808576107298651858101906a1c1bdbdb0b999bdc8b9a5960aa1b825285602b820152602b8152610721816111be565b519020611458565b309116036107d057506102a76105569394610745610110611ad9565b6107b48151936107876801bc16d674ec8000006101776107808989018961076c30836112c1565b039961020c601f199b8c81018352826111da565b34906112ef565b825190868201906d19195c1bdcda5d0b985b5bdd5b9d60921b8252602e830152602e82526102a7826111be565b5192830191836107c430856112c1565b039081018452836111da565b845162461bcd60e51b815290810183905260126024820152711ddc9bdb99c81cdd185ada5b99c81c1bdbdb60721b6044820152606490fd5b855162461bcd60e51b815280830185905260116024820152701a5908191bd95cc81b9bdd08195e1a5cdd607a1b6044820152606490fd5b90508481813d831161086e575b61085681836111da565b810103126103ec575180151581036103ec57386106ee565b503d61084c565b8334610559578060031936011261055957600060018060a01b0361089d818454163314611976565b81546001600160a01b031981168355167f8be0079c531659141344cd1fd0a4f28419497f9722a3daafe3b4186f6b6457e08280a380f35b508234610559576020366003190112610559575061067760209235611847565b83823461065157816003193601126106515760ff6020925460a01c169051908152f35b5082903461065157600319906080368301126103c05767ffffffffffffffff9380358581116104045761094d903690830161114a565b6024908135888111610cfe57610966903690860161114a565b949098604435908111610cfa57610980903690830161114a565b919060018060a01b03986109988a8c54163314611976565b6801bc16d674ec80000093844710610cc7576109b56105c0611ad9565b89519c60209d8e8a8d6109eb838501856109cf3083611870565b03956109e3601f19978881018352826111da565b5190206118d9565b908b8251938584019485206060516080201415600014610c7d5750505051902090610a188c8b3691611218565b805191012003610c2f57610a4d908f610a3c8e5b5191820192826102eb3086611a51565b519020610a476114b2565b90611b32565b600160f81b3001803011610c1d578e908c5191808301918252808352610a72836111a2565b610a7d368e86611218565b80519101209151902003610bdb57610ae28d9e8c9d9e9b9c51908101907f65787465726e616c2e636f6e74726163742e616464726573730000000000000082526e11195c1bdcda5d10dbdb9d1c9858dd608a1b603982015260288152610721816111be565b9c8d1697883b15610bd7578c519b8c9a8b998a986304512a2360e31b8a528901608090526084890190610b1492611b11565b91858884030190880152610b2792611b11565b91848303016044850152610b3a92611b11565b606435606483015203925af18015610bcd57610b94575b50516001600160a01b0390911681523360208201527f72b356fd889b9abd3530accd2c9f4aecbce67d70757181f9f862ac91464ce1929080604081015b0390a180f35b91610b8e9193610bc47f72b356fd889b9abd3530accd2c9f4aecbce67d70757181f9f862ac91464ce19294611178565b93915091610b51565b82513d86823e3d90fd5b8a80fd5b8a5162461bcd60e51b81528086018f9052601e818a01527f7769746864726177616c2063726564656e7469616c206d69736d6174636800006044820152606490fd5b634e487b7160e01b8e5260118652888efd5b508a5162461bcd60e51b81528086018f90526022818a01527f7075626b657920646f6573206e6f74206d617463682073746f7265642076616c604482015261756560f01b6064820152608490fd5b610a4d96959450610a3c935090610cbc610cc292845187810190610cb181610ca53085611870565b038b81018352826111da565b519020923691611218565b906119fb565b610a2c565b895162461bcd60e51b8152602081860152600e818901526d0dcdee840cadcdeeaced040cae8d60931b6044820152606490fd5b8880fd5b8780fd5b83823461065157816003193601126106515780610d30610d43925160208101906109e3816105e53085611870565b9051918291602083526020830190611125565b0390f35b83823461065157816003193601126106515780516a1a591ccb9a5b8b9c1bdbdb60aa1b60208083019182523060601b6bffffffffffffffffffffffff1916602b840152929391610da79190610d9f81603f81016105e5565b5190206116b0565b9083519383808695860192818752855180945286019401925b828110610dcf57505050500390f35b835185528695509381019392810192600101610dc0565b5090346103c057816003193601126103c057803560243591610e06611ad9565b610e1161011b6114b2565b14610f935760025484516331a9108f60e11b8152828101849052602093916001600160a01b03919085908290602490829086165afa908115610f89578891610f5c575b50163303610f2a5784519184610e8f8585016d19195c1bdcda5d0b985b5bdd5b9d60921b9586825285602e820152602e815261020c816111be565b10610ef0575083610edd81889695610ec98897889788978c5190858201928352602e820152602e8152610ec1816111be565b5190206114d4565b885190810190610ec1816105e530856112c1565b818115610648573390f11561063e575080f35b855162461bcd60e51b815290810184905260146024820152731b9bdd08195b9bdd59da0819195c1bdcda5d195960621b6044820152606490fd5b5060649184519162461bcd60e51b8352820152600d60248201526c3737ba103a34329037bbb732b960991b6044820152fd5b610f7c9150853d8711610f82575b610f7481836111da565b810190611439565b38610e54565b503d610f6a565b87513d8a823e3d90fd5b606490602085519162461bcd60e51b8352820152601b60248201527f63616e6e6f74207769746864726177206f6e6365207374616b656400000000006044820152fd5b50823461055957602036600319011261055957506106776020928251848101916d19195c1bdcda5d0b985b5bdd5b9d60921b835235602e820152602e815261020c816111be565b50503461065157602036600319011261065157356001600160a01b03818116918290036103c057611052908354163314611976565b6001600160601b0360a01b600254161760025580f35b8382346106515781600319360112610651576105569061109260018060a01b038454163314611976565b606447116110d7575b805160208101906110b0816105e53085611a51565b5190209051906110bf826111a2565b6006825265195e1a5d195960d21b6020830152611b32565b6110df611519565b61109b565b838234610651578160031936011261065157610d4390610d30611a7f565b60005b8381106111155750506000910152565b8181015183820152602001611105565b9060209161113e81518092818552858086019101611102565b601f01601f1916010190565b9181601f840112156104305782359167ffffffffffffffff8311610430576020838186019501011161043057565b67ffffffffffffffff811161118c57604052565b634e487b7160e01b600052604160045260246000fd5b6040810190811067ffffffffffffffff82111761118c57604052565b6060810190811067ffffffffffffffff82111761118c57604052565b90601f8019910116810190811067ffffffffffffffff82111761118c57604052565b67ffffffffffffffff811161118c57601f01601f191660200190565b929192611224826111fc565b9161123260405193846111da565b829481845281830111610430578281602093846000960137010152565b6040519061125c826111a2565b6011825270616363657074696e674465706f7369747360781b6020830152565b1561128357565b60405162461bcd60e51b81526020600482015260166024820152756e6f7420616363657074696e67206465706f7369747360501b6044820152606490fd5b6022916d746f74616c2e6465706f7369747360901b82526001600160601b03199060601b16600e8201520190565b919082018092116112fc57565b634e487b7160e01b600052601160045260246000fd5b1561131957565b60405162461bcd60e51b815260206004820152602960248201527f746f74616c206465706f737469732063616e6e6f74206265206d6f72652074686044820152680c2dc406664408ae8d60bb1b6064820152608490fd5b60015460405163bd02d0f560e01b81526004810192909252602090829060249082906001600160a01b03165afa9081156113dd576000916113af575090565b906020823d82116113d5575b816113c8602093836111da565b8101031261055957505190565b3d91506113bb565b6040513d6000823e3d90fd5b6001546001600160a01b031691823b15610430576044600092836040519586948593632b6cd4f760e21b8552600485015260248401525af180156113dd5761142e5750565b61143790611178565b565b9081602091031261043057516001600160a01b03811681036104305790565b6001546040516321f8a72160e01b81526004810192909252602090829060249082906001600160a01b03165afa9081156113dd57600091611497575090565b6114af915060203d8111610f8257610f7481836111da565b90565b604051906114bf826111a2565b60068252651cdd185ad95960d21b6020830152565b6001546001600160a01b031691823b1561043057604460009283604051958694859363ebb9d8c960e01b8552600485015260248401525af180156113dd5761142e5750565b611521611ad9565b61152c61011b6114b2565b0361166b5747604090815161154f60209182810190610d9f816105e530856112c1565b60648311156116295760005b815181101561162257600581901b820183015160025486516331a9108f60e11b8152600481018390526001600160a01b03929186908290602490829087165afa90811561161757600093849384938a859485926115f6575b506115be91926117a2565b91839183156115ec575b1690f1156115e15760001981146112fc5760010161155b565b84513d6000823e3d90fd5b6108fc92506115c8565b6115be9250611611908c8d3d10610f8257610f7481836111da565b916115b3565b88513d6000823e3d90fd5b5050505050565b60648285519062461bcd60e51b825280600483015260248201527f6d696e696d756d206f66203130302077656920746f20646973747269627574656044820152fd5b60405162461bcd60e51b815260206004820152601c60248201527f757365207769746864726177207768656e206e6f74207374616b6564000000006044820152606490fd5b6001546040516378267eb560e11b81526004810192909252600091908290829060249082906001600160a01b03165afa9182156117965780926116f257505090565b9091503d8082843e61170481846111da565b8201602091828483031261055957835167ffffffffffffffff948582116103c0570182601f82011215610651578051948511611782578460051b916040519561174f868501886111da565b8652848087019383010193841161055957508301905b828210611773575050505090565b81518152908301908301611765565b634e487b7160e01b82526041600452602482fd5b604051903d90823e3d90fd5b6117d49060405160208101916d19195c1bdcda5d0b985b5bdd5b9d60921b8352602e820152602e815261020c816111be565b6117ed604051602081019061020c816105e530856112c1565b91811561183f578181029181830414901517156112fc578115611829570460018111156118235760001981019081116112fc5790565b50600090565b634e487b7160e01b600052601260045260246000fd5b505050600090565b61184f611ad9565b61185a61011b61124f565b036118655750600090565b6114af9047906117a2565b6028917376616c696461746f722e7075626c69632e6b657960601b82526001600160601b03199060601b1660148201520190565b909291926118b1816111fc565b916118bf60405193846111da565b829482845282820111610430576020611437930190611102565b600154604051630180634360e71b815260048101929092526000908190839060249082906001600160a01b03165afa91821561196957819261191a57505090565b909291503d8084833e61192d81836111da565b8101906020818303126105fb5780519067ffffffffffffffff8211610404570181601f820112156105fb576114af9293506020815191016118a4565b50604051903d90823e3d90fd5b1561197d57565b606460405162461bcd60e51b815260206004820152602060248201527f4f776e61626c653a2063616c6c6572206973206e6f7420746865206f776e65726044820152fd5b156119c857565b60405162461bcd60e51b815260206004820152600b60248201526a77726f6e6720737461746560a81b6044820152606490fd5b6001546001600160a01b031691823b1561043057611a409260009283604051809681958294630b8a342160e21b84526004840152604060248401526044830190611125565b03925af180156113dd5761142e5750565b6022916d636f6e74726163742e737461746560901b82526001600160601b03199060601b16600e8201520190565b6040516020810190611a95816105e53085611a51565b519020600154604051634c373c8d60e11b815260048101929092526000908190839060249082906001600160a01b03165afa91821561196957819261191a57505090565b611ae1611a7f565b604051611b0b60208281611afe8183019687815193849201611102565b81010380845201826111da565b51902090565b908060209392818452848401376000828201840152601f01601f1916010190565b6001546001600160a01b031691823b1561043057611a4092600092836040518096819582946306e8995560e41b8452600484015260406024840152604483019061112556fea2646970667358221220a9529a8135e6647e1b9768ca05fdfdb6d60a8ca0e01a0ebe08f3380483d77a3564736f6c63430008110033",
    "linkReferences": {}
  },
  "methodIdentifiers": {
    "addToDeposit(uint256)": "8620891c",
    "depositToPool()": "f9faa104",
    "distribute()": "e4fc6b6d",
    "getDepositAmount(uint256)": "378de45b",
    "getDistributableShare(uint256)": "678e300a",
    "getIdsInThisPool()": "45b58fe4",
    "getPubKey()": "4ad02ef1",
    "getShare(uint256)": "cfb5a5f8",
    "getState()": "1865c57d",
    "owner()": "8da5cb5b",
    "renounceOwnership()": "715018a6",
    "rugpull()": "e2664e49",
    "setFrensPoolShare(address)": "2edaf74d",
    "setPubKey(bytes)": "e32d2913",
    "stake(bytes,bytes,bytes,bytes32)": "4b2b4e36",
    "transferOwnership(address)": "f2fde38b",
    "unstake()": "2def6620",
    "version()": "54fd4d50",
    "withdraw(uint256,uint256)": "441a3e70"
  },
  "id": 8
}