{
  "abi": [
    {
      "inputs": [
        {
          "internalType": "address",
          "name": "depositContractAddress_",
          "type": "address"
        },
        {
          "internalType": "address",
          "name": "factory_",
          "type": "address"
        },
        {
          "internalType": "address",
          "name": "frensPoolShareAddress_",
          "type": "address"
        }
      ],
      "stateMutability": "nonpayable",
      "type": "constructor"
    },
    {
      "anonymous": false,
      "inputs": [
        {
          "indexed": false,
          "internalType": "address",
          "name": "depositContractAddress",
          "type": "address"
        },
        {
          "indexed": false,
          "internalType": "address",
          "name": "caller",
          "type": "address"
        }
      ],
      "name": "Deposit",
      "type": "event"
    },
    {
      "anonymous": false,
      "inputs": [
        {
          "indexed": true,
          "internalType": "address",
          "name": "previousOwner",
          "type": "address"
        },
        {
          "indexed": true,
          "internalType": "address",
          "name": "newOwner",
          "type": "address"
        }
      ],
      "name": "OwnershipTransferred",
      "type": "event"
    },
    {
      "stateMutability": "payable",
      "type": "fallback"
    },
    {
      "inputs": [
        {
          "internalType": "uint256",
          "name": "_id",
          "type": "uint256"
        }
      ],
      "name": "addToDeposit",
      "outputs": [],
      "stateMutability": "payable",
      "type": "function"
    },
    {
      "inputs": [
        {
          "internalType": "address",
          "name": "userAddress",
          "type": "address"
        }
      ],
      "name": "deposit",
      "outputs": [],
      "stateMutability": "payable",
      "type": "function"
    },
    {
      "inputs": [
        {
          "internalType": "uint256",
          "name": "",
          "type": "uint256"
        }
      ],
      "name": "depositAmount",
      "outputs": [
        {
          "internalType": "uint256",
          "name": "",
          "type": "uint256"
        }
      ],
      "stateMutability": "view",
      "type": "function"
    },
    {
      "inputs": [],
      "name": "depositContractAddress",
      "outputs": [
        {
          "internalType": "address",
          "name": "",
          "type": "address"
        }
      ],
      "stateMutability": "view",
      "type": "function"
    },
    {
      "inputs": [],
      "name": "distribute",
      "outputs": [],
      "stateMutability": "nonpayable",
      "type": "function"
    },
    {
      "inputs": [
        {
          "internalType": "uint256",
          "name": "_id",
          "type": "uint256"
        }
      ],
      "name": "getDepositAmount",
      "outputs": [
        {
          "internalType": "uint256",
          "name": "",
          "type": "uint256"
        }
      ],
      "stateMutability": "view",
      "type": "function"
    },
    {
      "inputs": [
        {
          "internalType": "uint256",
          "name": "_id",
          "type": "uint256"
        }
      ],
      "name": "getDistributableShare",
      "outputs": [
        {
          "internalType": "uint256",
          "name": "",
          "type": "uint256"
        }
      ],
      "stateMutability": "view",
      "type": "function"
    },
    {
      "inputs": [],
      "name": "getPubKey",
      "outputs": [
        {
          "internalType": "bytes",
          "name": "",
          "type": "bytes"
        }
      ],
      "stateMutability": "view",
      "type": "function"
    },
    {
      "inputs": [
        {
          "internalType": "uint256",
          "name": "_id",
          "type": "uint256"
        }
      ],
      "name": "getShare",
      "outputs": [
        {
          "internalType": "uint256",
          "name": "",
          "type": "uint256"
        }
      ],
      "stateMutability": "view",
      "type": "function"
    },
    {
      "inputs": [],
      "name": "getState",
      "outputs": [
        {
          "internalType": "string",
          "name": "",
          "type": "string"
        }
      ],
      "stateMutability": "view",
      "type": "function"
    },
    {
      "inputs": [
        {
          "internalType": "uint256",
          "name": "",
          "type": "uint256"
        }
      ],
      "name": "idsInThisPool",
      "outputs": [
        {
          "internalType": "uint256",
          "name": "",
          "type": "uint256"
        }
      ],
      "stateMutability": "view",
      "type": "function"
    },
    {
      "inputs": [],
      "name": "owner",
      "outputs": [
        {
          "internalType": "address",
          "name": "",
          "type": "address"
        }
      ],
      "stateMutability": "view",
      "type": "function"
    },
    {
      "inputs": [],
      "name": "renounceOwnership",
      "outputs": [],
      "stateMutability": "nonpayable",
      "type": "function"
    },
    {
      "inputs": [],
      "name": "rugpull",
      "outputs": [],
      "stateMutability": "nonpayable",
      "type": "function"
    },
    {
      "inputs": [
        {
          "internalType": "bytes",
          "name": "publicKey",
          "type": "bytes"
        }
      ],
      "name": "setPubKey",
      "outputs": [],
      "stateMutability": "nonpayable",
      "type": "function"
    },
    {
      "inputs": [
        {
          "internalType": "bytes",
          "name": "pubkey",
          "type": "bytes"
        },
        {
          "internalType": "bytes",
          "name": "withdrawal_credentials",
          "type": "bytes"
        },
        {
          "internalType": "bytes",
          "name": "signature",
          "type": "bytes"
        },
        {
          "internalType": "bytes32",
          "name": "deposit_data_root",
          "type": "bytes32"
        }
      ],
      "name": "stake",
      "outputs": [],
      "stateMutability": "nonpayable",
      "type": "function"
    },
    {
      "inputs": [],
      "name": "totalDeposits",
      "outputs": [
        {
          "internalType": "uint256",
          "name": "",
          "type": "uint256"
        }
      ],
      "stateMutability": "view",
      "type": "function"
    },
    {
      "inputs": [
        {
          "internalType": "address",
          "name": "newOwner",
          "type": "address"
        }
      ],
      "name": "transferOwnership",
      "outputs": [],
      "stateMutability": "nonpayable",
      "type": "function"
    },
    {
      "inputs": [],
      "name": "unstake",
      "outputs": [],
      "stateMutability": "nonpayable",
      "type": "function"
    },
    {
      "inputs": [],
      "name": "validatorPubKey",
      "outputs": [
        {
          "internalType": "bytes",
          "name": "",
          "type": "bytes"
        }
      ],
      "stateMutability": "view",
      "type": "function"
    },
    {
      "inputs": [
        {
          "internalType": "uint256",
          "name": "_id",
          "type": "uint256"
        },
        {
          "internalType": "uint256",
          "name": "_amount",
          "type": "uint256"
        }
      ],
      "name": "withdraw",
      "outputs": [],
      "stateMutability": "nonpayable",
      "type": "function"
    },
    {
      "stateMutability": "payable",
      "type": "receive"
    }
  ],
  "bytecode": {
    "object": "0x60803461010257601f6200182938819003918201601f19168301916001600160401b0383118484101761010757808492606094604052833981010312610102576100488161011d565b61006060406100596020850161011d565b930161011d565b600080546001600160a01b03198082163390811784556040519691956001600160a01b0395948694859391908416907f8be0079c531659141344cd1fd0a4f28419497f9722a3daafe3b4186f6b6457e09080a360045490610100600160a81b039060081b169060018060a81b031916178060045560081c1685600754161760075516836008541617600855169060095416176009556116f79081620001328239f35b600080fd5b634e487b7160e01b600052604160045260246000fd5b51906001600160a01b03821682036101025756fe60806040526004361015610018575b361561001657005b005b6000803560e01c80631865c57d14610f7a5780632a4dbd2b14610f4d5780632def662014610f24578063378de45b146105aa578063441a3e7014610d6c5780634ad02ef114610d505780634b2b4e361461093f578063678e300a14610920578063715018a6146108c15780637be0b4a0146107ed5780637d882097146107cf57806382a790cf146107955780638620891c146105d457806387f8ab26146105aa5780638da5cb5b14610583578063cfb5a5f81461055b578063e2664e4914610509578063e32d2913146103d4578063e4fc6b6d146103b8578063f2fde38b146102e15763f340fa011461010b575061000e565b60209081600319360112610229576001600160a01b0390600435828116908190036102dd5760ff6004541660038110156102c95761014990156111eb565b341561028f57838394839460095416600460405180968193632798987d60e11b83525af1928315610284578493610250575b506001908385525234604084205561019534600254611230565b600255600354936801000000000000000085101561023c57826101bf866001879801600355611157565b819291549060031b600019811b9283911b169119161790556009541691823b156102375760648492836040519586948593630d4d151360e01b8552600485015260248401523060448401525af1801561022c576102195750f35b61022290611043565b6102295780f35b80fd5b6040513d84823e3d90fd5b505050fd5b634e487b7160e01b84526041600452602484fd5b9080935081813d831161027d575b6102688183611089565b81010312610279575191600161017b565b8380fd5b503d61025e565b6040513d86823e3d90fd5b60405162461bcd60e51b815260048101859052601260248201527136bab9ba103232b837b9b4ba1032ba3432b960711b6044820152606490fd5b634e487b7160e01b83526021600452602483fd5b5080fd5b5034610229576020366003190112610229576004356001600160a01b03818116918290036103b457610317818454163314611515565b811561036057600054826bffffffffffffffffffffffff60a01b821617600055167f8be0079c531659141344cd1fd0a4f28419497f9722a3daafe3b4186f6b6457e0600080a380f35b60405162461bcd60e51b815260206004820152602660248201527f4f776e61626c653a206e6577206f776e657220697320746865207a65726f206160448201526564647265737360d01b6064820152608490fd5b8280fd5b50346102295780600319360112610229576103d161127f565b80f35b503461022957602090816003193601126102295767ffffffffffffffff6004358181116103b457366023820112156103b45761041a9036906024816004013591016111a4565b9261042f60018060a01b038454163314611515565b83519182116104f55761044c82610447600654611009565b611560565b80601f83116001146104865750829382939261047b575b50508160011b916000199060031b1c19161760065580f35b015190503880610463565b60068452601f198316946000805160206116a2833981519152929185905b8782106104dd5750508360019596106104c4575b505050811b0160065580f35b015160001960f88460031b161c191690553880806104b8565b806001859682949686015181550195019301906104a4565b634e487b7160e01b83526041600452602483fd5b503461022957806003193601126102295761052e60018060a01b038254163314611515565b8080808047818115610552575b3390f1156105465780f35b604051903d90823e3d90fd5b506108fc61053b565b503461022957602036600319011261022957602061057b47600435611443565b604051908152f35b5034610229578060031936011261022957546040516001600160a01b039091168152602090f35b50346102295760203660031901126102295760406020916004358152600183522054604051908152f35b506020806003193601126102dd576004359060018060a01b0383828260095416602460405180948193634f558e7960e01b83528960048401525af190811561071f57859161075b575b501561072a5780826024926009541660405193848092630178b36760e31b82528860048301525afa91821561071f5785926106f0575b50309116036106b75760ff6004541660038110156106a35715610675816111eb565b156103b4576001918352526040812061068f348254611230565b905561069d34600254611230565b60025580f35b634e487b7160e01b84526021600452602484fd5b6064906040519062461bcd60e51b8252600482015260126024820152711ddc9bdb99c81cdd185ada5b99c81c1bdbdb60721b6044820152fd5b610711919250833d8511610718575b6107098183611089565b810190611253565b9038610653565b503d6106ff565b6040513d87823e3d90fd5b60405162461bcd60e51b81526004810183905260096024820152681b9bdd08195e1a5cdd60ba1b6044820152606490fd5b90508281813d831161078e575b6107728183611089565b8101031261078a5751801515810361078a573861061d565b8480fd5b503d610768565b503461022957602036600319011261022957600435906003548210156102295760206107c083611157565b90549060031b1c604051908152f35b50346102295780600319360112610229576020600254604051908152f35b5034610229578060031936011261022957604051600060065461080f81611009565b8084529060019081811690811561089a5750600114610851575b61084d8461083981860382611089565b604051918291602083526020830190610f96565b0390f35b6006600090815292506000805160206116a28339815191525b82841061088257505050810160200161083982610829565b8054602085870181019190915290930192810161086a565b60ff191660208087019190915292151560051b850190920192506108399150839050610829565b5034610229578060031936011261022957600060018060a01b036108e9818454163314611515565b81546001600160a01b031981168355167f8be0079c531659141344cd1fd0a4f28419497f9722a3daafe3b4186f6b6457e08280a380f35b503461022957602036600319011261022957602061057b6004356114d8565b5034610229576003196080368201126102dd5767ffffffffffffffff60043581811161027957610973903690600401610fd6565b9092602435838111610d4c5761098d903690600401610fd6565b949093604435818111610b50576109a8903690600401610fd6565b9490916109bf60018060a01b038a54163314611515565b6801bc16d674ec8000004710610d165760ff600454166003811015610d0257610ccf576109ea6110ab565b805160209091012060605160802014610bfd5750610a066110ab565b60208151910120610a183683866111a4565b6020815191012003610bad575b600160ff196004541617600455600160f81b3001803011610b9957604051906020820190815260208252610a588261106d565b610a63368a8a6111a4565b602081519101209151902003610b545760075488966001600160a01b0390911694853b15610b5057610ac6966801bc16d674ec80000094610ad6610ae5946040519c8d9b8c9a8b996304512a2360e31b8b52608060048c015260848b0191611680565b91868984030160248a0152611680565b92858403016044860152611680565b606435606483015203925af1801561022c57610b41575b506004546040805160089290921c6001600160a01b031682523360208301527f1944debb24a9aafcf2708be964e412cdb73fc36d6ea24577fd8dcc05b93b4a4491a180f35b610b4a90611043565b38610afc565b8780fd5b60405162461bcd60e51b815260206004820152601e60248201527f7769746864726177616c2063726564656e7469616c206d69736d6174636800006044820152606490fd5b634e487b7160e01b89526011600452602489fd5b60405162461bcd60e51b815260206004820152602260248201527f7075626b657920646f6573206e6f74206d617463682073746f7265642076616c604482015261756560f01b6064820152608490fd5b8111610cbb57610c1281610447600654611009565b8088601f8211600114610c4a578991610c3f575b508160011b906000198360031b1c191617600655610a25565b905083013538610c26565b60068a526000805160206116a28339815191529150895b601f1984168110610ca3575082601f19811610610c89575b5050600181811b01600655610a25565b840135600019600384901b60f8161c191690553880610c79565b90916020600181928589013581550193019101610c61565b634e487b7160e01b88526041600452602488fd5b60405162461bcd60e51b815260206004820152600b60248201526a77726f6e6720737461746560a81b6044820152606490fd5b634e487b7160e01b8a52602160045260248afd5b60405162461bcd60e51b815260206004820152600e60248201526d0dcdee840cadcdeeaced040cae8d60931b6044820152606490fd5b8580fd5b503461022957806003193601126102295761084d6108396110ab565b5034610229576040366003190112610229576004359060249182359060ff600454166003811015610f1057600114610ecc576009546040516331a9108f60e11b815260048101839052602092916001600160a01b039190849082908990829086165afa908115610ec1578691610ea4575b50163303610e70578084526001825282604085205410610e355783809360018294839484525260408220610e12828254611272565b9055610e2081600254611272565b600255818115610552573390f1156105465780f35b60405162461bcd60e51b815260048101839052601481870152731b9bdd08195b9bdd59da0819195c1bdcda5d195960621b6044820152606490fd5b60405162461bcd60e51b815260048101839052600d818701526c3737ba103a34329037bbb732b960991b6044820152606490fd5b610ebb9150843d8611610718576107098183611089565b38610ddd565b6040513d88823e3d90fd5b60405162461bcd60e51b815260206004820152601b818601527f63616e6e6f74207769746864726177206f6e6365207374616b656400000000006044820152606490fd5b5050634e487b7160e01b8252506021600452fd5b5034610229578060031936011261022957610f3d61127f565b600260ff19600454161760045580f35b503461022957806003193601126102295760045460405160089190911c6001600160a01b03168152602090f35b503461022957806003193601126102295761084d6108396115bf565b919082519283825260005b848110610fc2575050826000602080949584010152601f8019910116010190565b602081830181015184830182015201610fa1565b9181601f840112156110045782359167ffffffffffffffff8311611004576020838186019501011161100457565b600080fd5b90600182811c92168015611039575b602083101461102357565b634e487b7160e01b600052602260045260246000fd5b91607f1691611018565b67ffffffffffffffff811161105757604052565b634e487b7160e01b600052604160045260246000fd5b6040810190811067ffffffffffffffff82111761105757604052565b90601f8019910116810190811067ffffffffffffffff82111761105757604052565b60405190600082600654916110bf83611009565b8083529260019081811690811561113557506001146110e8575b506110e692500383611089565b565b6006600090815291506000805160206116a28339815191525b84831061111a57506110e69350508101602001386110d9565b81935090816020925483858a01015201910190918592611101565b9050602092506110e694915060ff191682840152151560051b820101386110d9565b60035481101561118e5760036000527fc2575a0e9e593c00f959f8c92f12db2869c3395a3b0502d05e2516446f71f85b0190600090565b634e487b7160e01b600052603260045260246000fd5b92919267ffffffffffffffff821161105757604051916111ce601f8201601f191660200184611089565b829481845281830111611004578281602093846000960137010152565b156111f257565b60405162461bcd60e51b81526020600482015260166024820152756e6f7420616363657074696e67206465706f7369747360501b6044820152606490fd5b9190820180921161123d57565b634e487b7160e01b600052601160045260246000fd5b9081602091031261100457516001600160a01b03811681036110045790565b9190820391821161123d57565b60049060ff8254166003928382101561142e5760018092036113ea574760648111156113a657600094835b6112b7575b505050509050565b80548610156113a1576112c986611157565b905490821b1c60018060a01b03806009541691604092835180916331a9108f60e11b8252838983015281602460209485935afa9182156113965793600094938594938986959486958693611373575b50506113249192611443565b9183918315611369575b1690f11561135f5750600019861461134a5794830194836112aa565b601183634e487b7160e01b6000525260246000fd5b513d6000823e3d90fd5b6108fc925061132e565b6113249350908161138f92903d10610718576107098183611089565b9138611318565b85513d6000823e3d90fd5b6112af565b60405162461bcd60e51b8152602081840181905260248201527f6d696e696d756d206f66203130302077656920746f20646973747269627574656044820152606490fd5b60649060206040519162461bcd60e51b8352820152601c60248201527f757365207769746864726177207768656e206e6f74207374616b6564000000006044820152fd5b602190634e487b7160e01b6000525260246000fd5b90600091825260016020526040822054156114d4576040822054908181029181830414901517156114c0576002549081156114ac57049060018211156114a7576000198201918211611493575090565b634e487b7160e01b81526011600452602490fd5b905090565b634e487b7160e01b83526012600452602483fd5b634e487b7160e01b82526011600452602482fd5b5090565b60ff6004541660038110156114ff576114f15750600090565b6114fc904790611443565b90565b634e487b7160e01b600052602160045260246000fd5b1561151c57565b606460405162461bcd60e51b815260206004820152602060248201527f4f776e61626c653a2063616c6c6572206973206e6f7420746865206f776e65726044820152fd5b601f811161156c575050565b600090600682526000805160206116a2833981519152906020601f850160051c830194106115b5575b601f0160051c01915b8281106115aa57505050565b81815560010161159e565b9092508290611595565b60ff6004541660038110156114ff576001811461165d57801561162e5760021461160c576040516115ef8161106d565b600d81526c7374617465206661696c75726560981b602082015290565b6040516116188161106d565b6006815265195e1a5d195960d21b602082015290565b5060405161163b8161106d565b6012815271616363657074696e67206465706f7369747360701b602082015290565b5060405161166a8161106d565b60068152651cdd185ad95960d21b602082015290565b908060209392818452848401376000828201840152601f01601f191601019056fef652222313e28459528d920b65115c16c04f3efc82aaedc97be59f3f377c0d3fa2646970667358221220aec4990fe56f1f42a88ba239ed73fe57e2a8728942a510c4e65eb9650b482ea764736f6c63430008110033",
    "linkReferences": {}
  },
  "methodIdentifiers": {
    "addToDeposit(uint256)": "8620891c",
    "deposit(address)": "f340fa01",
    "depositAmount(uint256)": "87f8ab26",
    "depositContractAddress()": "2a4dbd2b",
    "distribute()": "e4fc6b6d",
    "getDepositAmount(uint256)": "378de45b",
    "getDistributableShare(uint256)": "678e300a",
    "getPubKey()": "4ad02ef1",
    "getShare(uint256)": "cfb5a5f8",
    "getState()": "1865c57d",
    "idsInThisPool(uint256)": "82a790cf",
    "owner()": "8da5cb5b",
    "renounceOwnership()": "715018a6",
    "rugpull()": "e2664e49",
    "setPubKey(bytes)": "e32d2913",
    "stake(bytes,bytes,bytes,bytes32)": "4b2b4e36",
    "totalDeposits()": "7d882097",
    "transferOwnership(address)": "f2fde38b",
    "unstake()": "2def6620",
    "validatorPubKey()": "7be0b4a0",
    "withdraw(uint256,uint256)": "441a3e70"
  },
  "id": 1
}