{
  "abi": [
    {
      "inputs": [
        {
          "internalType": "address",
          "name": "owner_",
          "type": "address"
        },
        {
          "internalType": "contract IFrensStorage",
          "name": "frensStorage_",
          "type": "address"
        }
      ],
      "stateMutability": "nonpayable",
      "type": "constructor"
    },
    {
      "anonymous": false,
      "inputs": [
        {
          "indexed": false,
          "internalType": "uint256",
          "name": "amount",
          "type": "uint256"
        },
        {
          "indexed": false,
          "internalType": "address",
          "name": "depositer",
          "type": "address"
        }
      ],
      "name": "DepositToPool",
      "type": "event"
    },
    {
      "anonymous": false,
      "inputs": [
        {
          "indexed": true,
          "internalType": "address",
          "name": "previousOwner",
          "type": "address"
        },
        {
          "indexed": true,
          "internalType": "address",
          "name": "newOwner",
          "type": "address"
        }
      ],
      "name": "OwnershipTransferred",
      "type": "event"
    },
    {
      "anonymous": false,
      "inputs": [
        {
          "indexed": false,
          "internalType": "address",
          "name": "depositContractAddress",
          "type": "address"
        },
        {
          "indexed": false,
          "internalType": "address",
          "name": "caller",
          "type": "address"
        }
      ],
      "name": "Stake",
      "type": "event"
    },
    {
      "stateMutability": "payable",
      "type": "fallback"
    },
    {
      "inputs": [
        {
          "internalType": "uint256",
          "name": "_id",
          "type": "uint256"
        }
      ],
      "name": "addToDeposit",
      "outputs": [],
      "stateMutability": "payable",
      "type": "function"
    },
    {
      "inputs": [
        {
          "internalType": "address",
          "name": "claimant",
          "type": "address"
        }
      ],
      "name": "claim",
      "outputs": [],
      "stateMutability": "nonpayable",
      "type": "function"
    },
    {
      "inputs": [],
      "name": "claim",
      "outputs": [],
      "stateMutability": "nonpayable",
      "type": "function"
    },
    {
      "inputs": [],
      "name": "depositToPool",
      "outputs": [],
      "stateMutability": "payable",
      "type": "function"
    },
    {
      "inputs": [],
      "name": "distribute",
      "outputs": [],
      "stateMutability": "nonpayable",
      "type": "function"
    },
    {
      "inputs": [],
      "name": "distributeAndClaim",
      "outputs": [],
      "stateMutability": "nonpayable",
      "type": "function"
    },
    {
      "inputs": [],
      "name": "distributeAndClaimAll",
      "outputs": [],
      "stateMutability": "nonpayable",
      "type": "function"
    },
    {
      "inputs": [
        {
          "internalType": "uint256",
          "name": "_id",
          "type": "uint256"
        }
      ],
      "name": "getDepositAmount",
      "outputs": [
        {
          "internalType": "uint256",
          "name": "",
          "type": "uint256"
        }
      ],
      "stateMutability": "view",
      "type": "function"
    },
    {
      "inputs": [
        {
          "internalType": "uint256",
          "name": "_id",
          "type": "uint256"
        }
      ],
      "name": "getDistributableShare",
      "outputs": [
        {
          "internalType": "uint256",
          "name": "",
          "type": "uint256"
        }
      ],
      "stateMutability": "view",
      "type": "function"
    },
    {
      "inputs": [],
      "name": "getIdsInThisPool",
      "outputs": [
        {
          "internalType": "uint256[]",
          "name": "",
          "type": "uint256[]"
        }
      ],
      "stateMutability": "view",
      "type": "function"
    },
    {
      "inputs": [],
      "name": "getPubKey",
      "outputs": [
        {
          "internalType": "bytes",
          "name": "",
          "type": "bytes"
        }
      ],
      "stateMutability": "view",
      "type": "function"
    },
    {
      "inputs": [
        {
          "internalType": "uint256",
          "name": "_id",
          "type": "uint256"
        }
      ],
      "name": "getShare",
      "outputs": [
        {
          "internalType": "uint256",
          "name": "",
          "type": "uint256"
        }
      ],
      "stateMutability": "view",
      "type": "function"
    },
    {
      "inputs": [],
      "name": "getState",
      "outputs": [
        {
          "internalType": "string",
          "name": "",
          "type": "string"
        }
      ],
      "stateMutability": "view",
      "type": "function"
    },
    {
      "inputs": [],
      "name": "getTotalDeposits",
      "outputs": [
        {
          "internalType": "uint256",
          "name": "",
          "type": "uint256"
        }
      ],
      "stateMutability": "view",
      "type": "function"
    },
    {
      "inputs": [],
      "name": "owner",
      "outputs": [
        {
          "internalType": "address",
          "name": "",
          "type": "address"
        }
      ],
      "stateMutability": "view",
      "type": "function"
    },
    {
      "inputs": [],
      "name": "renounceOwnership",
      "outputs": [],
      "stateMutability": "nonpayable",
      "type": "function"
    },
    {
      "inputs": [],
      "name": "rugpull",
      "outputs": [],
      "stateMutability": "nonpayable",
      "type": "function"
    },
    {
      "inputs": [
        {
          "internalType": "bytes",
          "name": "pubKey",
          "type": "bytes"
        },
        {
          "internalType": "bytes",
          "name": "withdrawal_credentials",
          "type": "bytes"
        },
        {
          "internalType": "bytes",
          "name": "signature",
          "type": "bytes"
        },
        {
          "internalType": "bytes32",
          "name": "deposit_data_root",
          "type": "bytes32"
        }
      ],
      "name": "setPubKey",
      "outputs": [],
      "stateMutability": "nonpayable",
      "type": "function"
    },
    {
      "inputs": [],
      "name": "stake",
      "outputs": [],
      "stateMutability": "nonpayable",
      "type": "function"
    },
    {
      "inputs": [
        {
          "internalType": "bytes",
          "name": "pubKey",
          "type": "bytes"
        },
        {
          "internalType": "bytes",
          "name": "withdrawal_credentials",
          "type": "bytes"
        },
        {
          "internalType": "bytes",
          "name": "signature",
          "type": "bytes"
        },
        {
          "internalType": "bytes32",
          "name": "deposit_data_root",
          "type": "bytes32"
        }
      ],
      "name": "stake",
      "outputs": [],
      "stateMutability": "nonpayable",
      "type": "function"
    },
    {
      "inputs": [
        {
          "internalType": "address",
          "name": "newOwner",
          "type": "address"
        }
      ],
      "name": "transferOwnership",
      "outputs": [],
      "stateMutability": "nonpayable",
      "type": "function"
    },
    {
      "inputs": [],
      "name": "unstake",
      "outputs": [],
      "stateMutability": "nonpayable",
      "type": "function"
    },
    {
      "inputs": [],
      "name": "version",
      "outputs": [
        {
          "internalType": "uint8",
          "name": "",
          "type": "uint8"
        }
      ],
      "stateMutability": "view",
      "type": "function"
    },
    {
      "inputs": [
        {
          "internalType": "uint256",
          "name": "_id",
          "type": "uint256"
        },
        {
          "internalType": "uint256",
          "name": "_amount",
          "type": "uint256"
        }
      ],
      "name": "withdraw",
      "outputs": [],
      "stateMutability": "nonpayable",
      "type": "function"
    },
    {
      "stateMutability": "payable",
      "type": "receive"
    }
  ],
  "bytecode": {
    "object": "0x6080604081815234620001965780826200263f80380380916200002382856200019b565b83398101031262000196576200003982620001bf565b6020928301516001600160a01b03808216949185900362000196576200005f33620001d4565b600180546001600160a01b0319908116871790915584516f636f6e74726163742e6164647265737360801b8185019081526d4672656e73506f6f6c536861726560901b6030830152601e82528187019792949192906001600160401b038911848a1017620001805760248984938193828c52875190206321f8a72160e01b835260448801525afa918215620001755760009262000131575b50506200011094955016906002541617600255620001d4565b6000805460ff60a01b1916600160a01b1790555161242390816200021c8239f35b813d83116200016d575b62000147818a6200019b565b810103126200016a575062000161620001109495620001bf565b859438620000f7565b80fd5b503d6200013b565b86513d6000823e3d90fd5b634e487b7160e01b600052604160045260246000fd5b600080fd5b601f909101601f19168101906001600160401b038211908210176200018057604052565b51906001600160a01b03821682036200019657565b600080546001600160a01b039283166001600160a01b03198216811783559216907f8be0079c531659141344cd1fd0a4f28419497f9722a3daafe3b4186f6b6457e09080a356fe608060408181526004908136101561001f575b505050361561001d57005b005b600092833560e01c908163168a482214610f4b575080631865c57d14610f2d5780631e83409a14610f005780632def662014610e84578063378de45b14610e3d5780633a4b66f114610e18578063441a3e7014610c2a57806345b58fe414610bd05780634ad02ef114610b695780634b2b4e3614610a425780634e71d92d14610a2857806354fd4d5014610a0557806355ec447f1461093b578063678e300a1461091b578063715018a6146108bd5780638620891c146106ed5780638da5cb5b146106c55780639278e714146106a3578063cfb5a5f81461067a578063e2664e4914610624578063e4fc6b6d1461060b578063e920eec0146105d3578063f2fde38b1461050b5763f9faa10403610012578260031936011261044b5761015c6101466123b5565b6101566101516110fb565b6123bd565b14611128565b34156104d3578051916020926101b46801bc16d674ec8000006101ad868401936101a88161018a308861116d565b039561019e601f19978881018552846110bd565b349251902061121c565b61119b565b11156111be565b825190848201671d1bdad95b8b9a5960c21b92838252600881526101d781611085565b5190206001546001600160a01b03939188918516803b1561044b576044839289519485938492632b6cd4f760e21b84528b840152600160248401525af180156104ba579061024392916104c4575b5085518781019182526008815261023b81611085565b51902061121c565b90868551878101906d19195c1bdcda5d0b985b5bdd5b9d60921b825284602e820152602e8152610272816110a1565b5190208460015416803b1561044b576044839289519485938492637152429d60e11b84528b8401523460248401525af180156104ba576104a1575b5090869392916102df86518881016102d5826102c9308461116d565b038581018452836110bd565b3491519020611295565b85516a1a591ccb9a5b8b9c1bdbdb60aa1b8882019081523060601b6001600160601b031916600b820152916103209082601f85015b039081018352826110bd565b519020826001541690813b1561049d578591604483928951948593849263785f002b60e11b84528a8401528760248401525af180156104935790859161047b575b50508451868101916a1c1bdbdb0b999bdc8b9a5960aa1b8352602b820152602b815261038c816110a1565b519020816001541690813b15610477578491604483928851948593849263ca446dd960e01b8452898401523060248401525af1801561046d57908491610459575b50506002541690813b1561044b57829160248392865194859384926335313c2160e11b845233908401525af1801561044f57610437575b50507f1ed12c9855bd60407f7650e01c62ee4f0f40744b5b17983eec349a2b4e89981a918151903482523390820152a180f35b6104409061105b565b61044b578238610404565b8280fd5b83513d84823e3d90fd5b6104629061105b565b61044b5782386103cd565b85513d86823e3d90fd5b8480fd5b6104849061105b565b61048f578338610361565b8380fd5b86513d87823e3d90fd5b8580fd5b6104b09097919493929761105b565b95909192386102ad565b86513d8a823e3d90fd5b6104cd9061105b565b38610225565b906020606492519162461bcd60e51b8352820152601260248201527136bab9ba103232b837b9b4ba1032ba3432b960711b6044820152fd5b503461044b57602036600319011261044b576001600160a01b038235818116939084900361047757845491821692610544338514611376565b84156105815750506001600160a01b031916821783557f8be0079c531659141344cd1fd0a4f28419497f9722a3daafe3b4186f6b6457e08380a380f35b906020608492519162461bcd60e51b8352820152602660248201527f4f776e61626c653a206e6577206f776e657220697320746865207a65726f206160448201526564647265737360d01b6064820152fd5b8334610608576106056105e536610ff1565b9561060060018060a09894989795971b038a54163314611376565b611957565b80f35b80fd5b8334610608578060031936011261060857610605611e1a565b83823461067657816003193601126106765761064a60018060a01b038354163314611376565b818080804781811561066d575b3390f115610663575080f35b51903d90823e3d90fd5b506108fc610657565b5080fd5b508234610608576020366003190112610608575061069c6020924790356121ec565b9051908152f35b83346106085780600319360112610608576106bc611e1a565b61060533612028565b838234610676578160031936011261067657905490516001600160a01b039091168152602090f35b5091906020908160031936011261044b5780359060018060a01b036024848260025416885192838092634f558e7960e01b825288888301525afa9081156108b3578691610886575b501561084f576107708651858101906a1c1bdbdb0b999bdc8b9a5960aa1b825285602b820152602b8152610768816110a1565b51902061131c565b3091160361081757506102d5610605939461078c6101466123b5565b6107fb8151936107ce6801bc16d674ec8000006101ad6107c7898901896107b3308361116d565b039961023b601f199b8c81018352826110bd565b349061119b565b825190868201906d19195c1bdcda5d0b985b5bdd5b9d60921b8252602e830152602e82526102d5826110a1565b51928301918361080b308561116d565b039081018452836110bd565b845162461bcd60e51b815290810183905260126024820152711ddc9bdb99c81cdd185ada5b99c81c1bdbdb60721b6044820152606490fd5b855162461bcd60e51b815280830185905260116024820152701a5908191bd95cc81b9bdd08195e1a5cdd607a1b6044820152606490fd5b6108a69150853d87116108ac575b61089e81836110bd565b8101906112e5565b38610735565b503d610894565b87513d88823e3d90fd5b8334610608578060031936011261060857805481906001600160a01b038116906108e8338314611376565b6001600160a01b03191682557f8be0079c531659141344cd1fd0a4f28419497f9722a3daafe3b4186f6b6457e08280a380f35b508234610608576020366003190112610608575061069c60209235612291565b503461044b578260031936011261044b57610954611e1a565b61095c6120b6565b91835b8351811015610a01576109728185611df0565b5160025484516331a9108f60e11b815284810192909252602091908290829060249082906001600160a01b03165afa9182156109f757916109c0916109c5949389926109ca575b5050612028565b611de1565b61095f565b6109e99250803d106109f0575b6109e181836110bd565b8101906112fd565b38806109b9565b503d6109d7565b85513d89823e3d90fd5b8480f35b83823461067657816003193601126106765760ff6020925460a01c169051908152f35b833461060857806003193601126106085761060533612028565b503461044b57610a5136610ff1565b92610a6c60018060a09998999594951b038b54163314611376565b875194610ac56020870187610aa930836021916c1d985b1a59185d1bdc8b9cd95d609a1b82526001600160601b03199060601b16600d8201520190565b0397610abd601f19998a81018352826110bd565b5190206114f0565b15610b4e57505050505090610af4610b03928551610aec60208201928261031430866113c1565b519020611453565b602081519101209236916113e7565b6020815191012003610b19575050610605611661565b906020606492519162461bcd60e51b8352820152600f60248201526e0e0eac496caf240dad2e6dac2e8c6d608b1b6044820152fd5b939750935093610b619750949094611957565b610605611661565b83823461067657816003193601126106765780610bb9610bcc925160208101907376616c696461746f722e7075626c69632e6b657960601b82523060601b603482015260288152610aec816110a1565b9051918291602083526020830190610f99565b0390f35b838234610676578160031936011261067657610bea6120b6565b815192839260208080860192818752855180945286019401925b828110610c1357505050500390f35b835185528695509381019392810192600101610c04565b50903461044b578160031936011261044b57803560243591610c4a6123b5565b610c5561015161163f565b14610dd55760025484516331a9108f60e11b8152828101849052602093916001600160a01b03919085908290602490829086165afa908115610dcb578891610dae575b50163303610d7c5784519184610cd38585016d19195c1bdcda5d0b985b5bdd5b9d60921b9586825285602e820152602e815261023b816110a1565b10610d42575083610d2f81889695610d0d8897889788978c5190858201928352602e820152602e8152610d05816110a1565b519020611d9c565b885190810190610d0581610d21308561116d565b03601f1981018352826110bd565b81811561066d573390f115610663575080f35b855162461bcd60e51b815290810184905260146024820152731b9bdd08195b9bdd59da0819195c1bdcda5d195960621b6044820152606490fd5b5060649184519162461bcd60e51b8352820152600d60248201526c3737ba103a34329037bbb732b960991b6044820152fd5b610dc59150853d87116109f0576109e181836110bd565b38610c98565b87513d8a823e3d90fd5b606490602085519162461bcd60e51b8352820152601b60248201527f63616e6e6f74207769746864726177206f6e6365207374616b656400000000006044820152fd5b8334610608578060031936011261060857610b6160018060a01b038254163314611376565b508234610608576020366003190112610608575061069c6020928251848101916d19195c1bdcda5d0b985b5bdd5b9d60921b835235602e820152602e815261023b816110a1565b83823461067657816003193601126106765761060590610eae60018060a01b038454163314611376565b60644711610ef3575b80516020810190610ecc81610d213085611611565b519020905190610edb82611085565b6006825265195e1a5d195960d21b6020830152611901565b610efb611e1a565b610eb7565b50503461067657602036600319011261067657356001600160a01b03811681036106765761060590612028565b838234610676578160031936011261067657610bcc90610bb961235b565b8285346106085780600319360112610608575061069c8260208094019061023b81610d21308561116d565b60005b838110610f895750506000910152565b8181015183820152602001610f79565b90602091610fb281518092818552858086019101610f76565b601f01601f1916010190565b9181601f84011215610fec5782359167ffffffffffffffff8311610fec5760208381860195010111610fec57565b600080fd5b906080600319830112610fec5767ffffffffffffffff600435818111610fec578361101e91600401610fbe565b93909392602435838111610fec578261103991600401610fbe565b93909392604435918211610fec5761105391600401610fbe565b909160643590565b67ffffffffffffffff811161106f57604052565b634e487b7160e01b600052604160045260246000fd5b6040810190811067ffffffffffffffff82111761106f57604052565b6060810190811067ffffffffffffffff82111761106f57604052565b90601f8019910116810190811067ffffffffffffffff82111761106f57604052565b67ffffffffffffffff811161106f57601f01601f191660200190565b6040519061110882611085565b6011825270616363657074696e674465706f7369747360781b6020830152565b1561112f57565b60405162461bcd60e51b81526020600482015260166024820152756e6f7420616363657074696e67206465706f7369747360501b6044820152606490fd5b6022916d746f74616c2e6465706f7369747360901b82526001600160601b03199060601b16600e8201520190565b919082018092116111a857565b634e487b7160e01b600052601160045260246000fd5b156111c557565b60405162461bcd60e51b815260206004820152602960248201527f746f74616c206465706f736974732063616e6e6f74206265206d6f72652074686044820152680c2dc406664408ae8d60bb1b6064820152608490fd5b60015460405163bd02d0f560e01b81526004810192909252602090829060249082906001600160a01b03165afa9081156112895760009161125b575090565b906020823d8211611281575b81611274602093836110bd565b8101031261060857505190565b3d9150611267565b6040513d6000823e3d90fd5b6001546001600160a01b031691823b15610fec576044600092836040519586948593632b6cd4f760e21b8552600485015260248401525af18015611289576112da5750565b6112e39061105b565b565b90816020910312610fec57518015158103610fec5790565b90816020910312610fec57516001600160a01b0381168103610fec5790565b6001546040516321f8a72160e01b81526004810192909252602090829060249082906001600160a01b03165afa9081156112895760009161135b575090565b611373915060203d81116109f0576109e181836110bd565b90565b1561137d57565b606460405162461bcd60e51b815260206004820152602060248201527f4f776e61626c653a2063616c6c6572206973206e6f7420746865206f776e65726044820152fd5b601a91657075624b657960d01b82526001600160601b03199060601b1660068201520190565b9291926113f3826110df565b9161140160405193846110bd565b829481845281830111610fec578281602093846000960137010152565b9092919261142b816110df565b9161143960405193846110bd565b829482845282820111610fec5760206112e3930190610f76565b600154604051630180634360e71b815260048101929092526000908190839060249082906001600160a01b03165afa9182156114e357819261149457505090565b909291503d8084833e6114a781836110bd565b81019060208183031261048f5780519067ffffffffffffffff8211610477570181601f8201121561048f5761137392935060208151910161141e565b50604051903d90823e3d90fd5b600154604051633d70e7e560e11b81526004810192909252602090829060249082906001600160a01b03165afa9081156112895760009161152f575090565b611373915060203d81116108ac5761089e81836110bd565b1561154e57565b60405162461bcd60e51b815260206004820152600b60248201526a77726f6e6720737461746560a81b6044820152606490fd5b602a91757769746864726177616c5f63726564656e7469616c7360501b82526001600160601b03199060601b1660168201520190565b601d91687369676e617475726560b81b82526001600160601b03199060601b1660098201520190565b6025917019195c1bdcda5d17d9185d1857dc9bdbdd607a1b82526001600160601b03199060601b1660118201520190565b6022916d636f6e74726163742e737461746560901b82526001600160601b03199060601b16600e8201520190565b6040519061164c82611085565b60068252651cdd185ad95960d21b6020830152565b6801bc16d674ec800000908147106118cb5761168f61167e6123b5565b6116896101516110fb565b14611547565b6040805160206116ba818301836116a630836113c1565b0393610aec601f19958681018352826110bd565b6116dd845183810190610aec816116d13085611581565b038781018352826110bd565b92611701855184810190610aec816116f530856115b7565b038581018352826110bd565b96855184810190611716816116f530856115e0565b5190206001548751635376ab1f60e11b8152600481019290925290926001600160a01b039186908590602490829086165afa9384156118c057600094611891575b506117d26117ac8951888101907f65787465726e616c2e636f6e74726163742e616464726573730000000000000082526e11195c1bdcda5d10dbdb9d1c9858dd608a1b603982015260288152610768816110a1565b9189516117c189820192826103143086611611565b5190206117cc61163f565b90611901565b1694853b15610fec576000936118209361182f61180d938a519c8d97889687966304512a2360e31b8852608060048901526084880190610f99565b6003199384888303016024890152610f99565b91858303016044860152610f99565b9060648301520391865af1948515611886577f72b356fd889b9abd3530accd2c9f4aecbce67d70757181f9f862ac91464ce1929495611877575b5082519182523390820152a1565b6118809061105b565b38611869565b83513d6000823e3d90fd5b90938682813d83116118b9575b6118a881836110bd565b810103126106085750519238611757565b503d61189e565b88513d6000823e3d90fd5b60405162461bcd60e51b815260206004820152600e60248201526d0dcdee840cadcdeeaced040cae8d60931b6044820152606490fd5b6001546001600160a01b031691823b15610fec5761194692600092836040518096819582946306e8995560e41b84526004840152604060248401526044830190610f99565b03925af18015611289576112da5750565b93909592949194600160f81b3001958630116111a857604097885160209889820190815289825261198782611085565b6119923686866113e7565b8a81519101209151902003611cce576119d68951898101906f1d985b1a59185d1bdc8b9b1bd8dad95960821b82523060601b603082015260248152610abd816110a1565b15611bc5576119e36123b5565b89516119ee81611085565b60158152746177616974696e6756616c696461746f72496e666f60581b8a820152611a18906123bd565b14611a2290611547565b88519688880188611a3330836113c1565b0398601f19998a81018252611a4890826110bd565b519020913690611a57926113e7565b611a6091611d12565b87518781019080611a713084611581565b038881018252611a8190826110bd565b519020913690611a90926113e7565b611a9991611d12565b85518581019080611aaa30846115b7565b038681018252611aba90826110bd565b519020913690611ac9926113e7565b611ad291611d12565b83518381019080611ae330846115e0565b038481018252611af390826110bd565b51902090611b0091611d57565b82518281019181611b113085611611565b039081018252611b2190826110bd565b519020611b2c6110fb565b611b3591611901565b81516c1d985b1a59185d1bdc8b9cd95d609a1b9181019182523060601b6001600160601b031916600d830152611b6e8160218401610d21565b5190206001546001600160a01b03169190823b15610fec57600092604484928451958693849263abfdcced60e01b84526004840152600160248401525af1908115611bbb57506112da5750565b513d6000823e3d90fd5b611bd09695966123b5565b611bd86110fb565b611be1906123bd565b14611beb90611547565b88519588870187611bfc30836113c1565b0397601f19988981018252611c1190826110bd565b519020913690611c20926113e7565b611c2991611d12565b87518781019080611c3a3084611581565b038781018252611c4a90826110bd565b519020913690611c59926113e7565b611c6291611d12565b85518581019080611c7330846115b7565b038581018252611c8390826110bd565b519020913690611c92926113e7565b611c9b91611d12565b83518381019181611cac30856115e0565b039081018252611cbc90826110bd565b51902090611cc991611d57565b611b35565b885162461bcd60e51b815260048101899052601e60248201527f7769746864726177616c2063726564656e7469616c206d69736d6174636800006044820152606490fd5b6001546001600160a01b031691823b15610fec576119469260009283604051809681958294630b8a342160e21b84526004840152604060248401526044830190610f99565b6001546001600160a01b031691823b15610fec5760446000928360405195869485936309d23b6160e31b8552600485015260248401525af18015611289576112da5750565b6001546001600160a01b031691823b15610fec57604460009283604051958694859363ebb9d8c960e01b8552600485015260248401525af18015611289576112da5750565b60001981146111a85760010190565b8051821015611e045760209160051b010190565b634e487b7160e01b600052603260045260246000fd5b611e226123b5565b611e2d61015161163f565b03611fe357476064811115611f9f57604090815190602090818301926f636f6e74726163742e6164647265737360801b8452694672656e73436c61696d60b01b6030820152601a8152611e7f81611085565b519092206001600160a01b0392908390611e989061131c565b1692611ea26120b6565b9560005b8751811015611f7757611eb98189611df0565b5160248685600254168a51928380926331a9108f60e11b82528660048301525afa908115611f6c57916109c09187611f469594600092611f4b575b50611eff91926121ec565b908a51611f3e81610d218c820194856024916f18db185a5b58589b194b985b5bdd5b9d60821b82526001600160601b03199060601b1660108201520190565b519020611295565b611ea6565b611eff9250611f66908b3d8d116109f0576109e181836110bd565b91611ef4565b89513d6000823e3d90fd5b5095505060008093819350918192828215611f96575bf115611bbb5750565b506108fc611f8d565b606460405162461bcd60e51b815260206004820152602060248201527f6d696e696d756d206f66203130302077656920746f20646973747269627574656044820152fd5b60405162461bcd60e51b815260206004820152601c60248201527f757365207769746864726177207768656e206e6f74207374616b6564000000006044820152606490fd5b6040519060208201916f636f6e74726163742e6164647265737360801b8352694672656e73436c61696d60b01b6030820152601a815261206781611085565b519091206001600160a01b03919082906120809061131c565b1691823b15610fec576024600092836040519586948593630f41a04d60e11b85521660048401525af18015611289576112da5750565b6040516a1a591ccb9a5b8b9c1bdbdb60aa1b60208083019182523060601b6001600160601b031916602b840152916120f181603f8101610d21565b5190206001546040516378267eb560e11b81526004810192909252600092908390839060249082906001600160a01b03165afa9283156121e0578093612138575b50505090565b909192503d8082853e61214b81856110bd565b830190828483031261060857835167ffffffffffffffff9485821161044b570182601f820112156106765780519485116121cc578460051b9160405195612194868501886110bd565b8652848087019383010193841161060857508301905b8282106121bd5750505050388080612132565b815181529083019083016121aa565b634e487b7160e01b82526041600452602482fd5b604051903d90823e3d90fd5b61221e9060405160208101916d19195c1bdcda5d0b985b5bdd5b9d60921b8352602e820152602e815261023b816110a1565b612237604051602081019061023b81610d21308561116d565b918115612289578181029181830414901517156111a85781156122735704600181111561226d5760001981019081116111a85790565b50600090565b634e487b7160e01b600052601260045260246000fd5b505050600090565b6002546040516331a9108f60e11b81526004810183905290602090829060249082906001600160a01b03165afa8015611289576123119160009161233d575b506040516f18db185a5b58589b194b985b5bdd5b9d60821b6020820190815260609290921b6001600160601b031916603082015261023b8160448101610d21565b9061231a6123b5565b6123256101516110fb565b0361232e575090565b906101a86113739247906121ec565b612355915060203d81116109f0576109e181836110bd565b386122d0565b604051602081019061237181610d213085611611565b519020600154604051634c373c8d60e11b815260048101929092526000908190839060249082906001600160a01b03165afa9182156114e357819261149457505090565b6123bd61235b565b6040516123e7602082816123da8183019687815193849201610f76565b81010380845201826110bd565b5190209056fea264697066735822122003b58c7861725b32bfbaf3b81231aec100e5c6ed4a4b0e52e14e270a20d79e2d64736f6c63430008110033",
    "linkReferences": {}
  },
  "methodIdentifiers": {
    "addToDeposit(uint256)": "8620891c",
    "claim()": "4e71d92d",
    "claim(address)": "1e83409a",
    "depositToPool()": "f9faa104",
    "distribute()": "e4fc6b6d",
    "distributeAndClaim()": "9278e714",
    "distributeAndClaimAll()": "55ec447f",
    "getDepositAmount(uint256)": "378de45b",
    "getDistributableShare(uint256)": "678e300a",
    "getIdsInThisPool()": "45b58fe4",
    "getPubKey()": "4ad02ef1",
    "getShare(uint256)": "cfb5a5f8",
    "getState()": "1865c57d",
    "getTotalDeposits()": "168a4822",
    "owner()": "8da5cb5b",
    "renounceOwnership()": "715018a6",
    "rugpull()": "e2664e49",
    "setPubKey(bytes,bytes,bytes,bytes32)": "e920eec0",
    "stake()": "3a4b66f1",
    "stake(bytes,bytes,bytes,bytes32)": "4b2b4e36",
    "transferOwnership(address)": "f2fde38b",
    "unstake()": "2def6620",
    "version()": "54fd4d50",
    "withdraw(uint256,uint256)": "441a3e70"
  },
  "id": 9
}