{
  "abi": [
    {
      "inputs": [
        {
          "internalType": "address",
          "name": "owner_",
          "type": "address"
        },
        {
          "internalType": "contract IFrensStorage",
          "name": "frensStorage_",
          "type": "address"
        }
      ],
      "stateMutability": "nonpayable",
      "type": "constructor"
    },
    {
      "anonymous": false,
      "inputs": [
        {
          "indexed": false,
          "internalType": "uint256",
          "name": "amount",
          "type": "uint256"
        },
        {
          "indexed": false,
          "internalType": "address",
          "name": "depositer",
          "type": "address"
        }
      ],
      "name": "DepositToPool",
      "type": "event"
    },
    {
      "anonymous": false,
      "inputs": [
        {
          "indexed": false,
          "internalType": "address",
          "name": "sender",
          "type": "address"
        },
        {
          "indexed": false,
          "internalType": "address",
          "name": "to",
          "type": "address"
        },
        {
          "indexed": false,
          "internalType": "uint256",
          "name": "value",
          "type": "uint256"
        },
        {
          "indexed": false,
          "internalType": "bytes",
          "name": "data",
          "type": "bytes"
        },
        {
          "indexed": false,
          "internalType": "bytes",
          "name": "result",
          "type": "bytes"
        }
      ],
      "name": "ExecuteTransaction",
      "type": "event"
    },
    {
      "anonymous": false,
      "inputs": [
        {
          "indexed": true,
          "internalType": "address",
          "name": "previousOwner",
          "type": "address"
        },
        {
          "indexed": true,
          "internalType": "address",
          "name": "newOwner",
          "type": "address"
        }
      ],
      "name": "OwnershipTransferred",
      "type": "event"
    },
    {
      "anonymous": false,
      "inputs": [
        {
          "indexed": false,
          "internalType": "address",
          "name": "depositContractAddress",
          "type": "address"
        },
        {
          "indexed": false,
          "internalType": "address",
          "name": "caller",
          "type": "address"
        }
      ],
      "name": "Stake",
      "type": "event"
    },
    {
      "stateMutability": "payable",
      "type": "fallback"
    },
    {
      "inputs": [
        {
          "internalType": "uint256",
          "name": "_id",
          "type": "uint256"
        }
      ],
      "name": "addToDeposit",
      "outputs": [],
      "stateMutability": "payable",
      "type": "function"
    },
    {
      "inputs": [
        {
          "internalType": "address payable",
          "name": "to",
          "type": "address"
        },
        {
          "internalType": "uint256",
          "name": "value",
          "type": "uint256"
        },
        {
          "internalType": "bytes",
          "name": "data",
          "type": "bytes"
        }
      ],
      "name": "arbitraryContractCall",
      "outputs": [
        {
          "internalType": "bytes",
          "name": "",
          "type": "bytes"
        }
      ],
      "stateMutability": "nonpayable",
      "type": "function"
    },
    {
      "inputs": [
        {
          "internalType": "address",
          "name": "claimant",
          "type": "address"
        }
      ],
      "name": "claim",
      "outputs": [],
      "stateMutability": "nonpayable",
      "type": "function"
    },
    {
      "inputs": [],
      "name": "claim",
      "outputs": [],
      "stateMutability": "nonpayable",
      "type": "function"
    },
    {
      "inputs": [],
      "name": "depositToPool",
      "outputs": [],
      "stateMutability": "payable",
      "type": "function"
    },
    {
      "inputs": [],
      "name": "distribute",
      "outputs": [],
      "stateMutability": "nonpayable",
      "type": "function"
    },
    {
      "inputs": [],
      "name": "distributeAndClaim",
      "outputs": [],
      "stateMutability": "nonpayable",
      "type": "function"
    },
    {
      "inputs": [],
      "name": "distributeAndClaimAll",
      "outputs": [],
      "stateMutability": "nonpayable",
      "type": "function"
    },
    {
      "inputs": [],
      "name": "exitPool",
      "outputs": [],
      "stateMutability": "nonpayable",
      "type": "function"
    },
    {
      "inputs": [
        {
          "internalType": "uint256",
          "name": "_id",
          "type": "uint256"
        }
      ],
      "name": "getDepositAmount",
      "outputs": [
        {
          "internalType": "uint256",
          "name": "",
          "type": "uint256"
        }
      ],
      "stateMutability": "view",
      "type": "function"
    },
    {
      "inputs": [
        {
          "internalType": "uint256",
          "name": "_id",
          "type": "uint256"
        }
      ],
      "name": "getDistributableShare",
      "outputs": [
        {
          "internalType": "uint256",
          "name": "",
          "type": "uint256"
        }
      ],
      "stateMutability": "view",
      "type": "function"
    },
    {
      "inputs": [],
      "name": "getIdsInThisPool",
      "outputs": [
        {
          "internalType": "uint256[]",
          "name": "",
          "type": "uint256[]"
        }
      ],
      "stateMutability": "view",
      "type": "function"
    },
    {
      "inputs": [],
      "name": "getPubKey",
      "outputs": [
        {
          "internalType": "bytes",
          "name": "",
          "type": "bytes"
        }
      ],
      "stateMutability": "view",
      "type": "function"
    },
    {
      "inputs": [
        {
          "internalType": "uint256",
          "name": "_id",
          "type": "uint256"
        }
      ],
      "name": "getShare",
      "outputs": [
        {
          "internalType": "uint256",
          "name": "",
          "type": "uint256"
        }
      ],
      "stateMutability": "view",
      "type": "function"
    },
    {
      "inputs": [],
      "name": "getState",
      "outputs": [
        {
          "internalType": "string",
          "name": "",
          "type": "string"
        }
      ],
      "stateMutability": "view",
      "type": "function"
    },
    {
      "inputs": [],
      "name": "getTotalDeposits",
      "outputs": [
        {
          "internalType": "uint256",
          "name": "",
          "type": "uint256"
        }
      ],
      "stateMutability": "view",
      "type": "function"
    },
    {
      "inputs": [],
      "name": "owner",
      "outputs": [
        {
          "internalType": "address",
          "name": "",
          "type": "address"
        }
      ],
      "stateMutability": "view",
      "type": "function"
    },
    {
      "inputs": [],
      "name": "renounceOwnership",
      "outputs": [],
      "stateMutability": "nonpayable",
      "type": "function"
    },
    {
      "inputs": [],
      "name": "rugpull",
      "outputs": [],
      "stateMutability": "nonpayable",
      "type": "function"
    },
    {
      "inputs": [
        {
          "internalType": "address",
          "name": "newArtContract",
          "type": "address"
        }
      ],
      "name": "setArt",
      "outputs": [],
      "stateMutability": "nonpayable",
      "type": "function"
    },
    {
      "inputs": [
        {
          "internalType": "bytes",
          "name": "pubKey",
          "type": "bytes"
        },
        {
          "internalType": "bytes",
          "name": "withdrawal_credentials",
          "type": "bytes"
        },
        {
          "internalType": "bytes",
          "name": "signature",
          "type": "bytes"
        },
        {
          "internalType": "bytes32",
          "name": "deposit_data_root",
          "type": "bytes32"
        }
      ],
      "name": "setPubKey",
      "outputs": [],
      "stateMutability": "nonpayable",
      "type": "function"
    },
    {
      "inputs": [],
      "name": "stake",
      "outputs": [],
      "stateMutability": "nonpayable",
      "type": "function"
    },
    {
      "inputs": [
        {
          "internalType": "bytes",
          "name": "pubKey",
          "type": "bytes"
        },
        {
          "internalType": "bytes",
          "name": "withdrawal_credentials",
          "type": "bytes"
        },
        {
          "internalType": "bytes",
          "name": "signature",
          "type": "bytes"
        },
        {
          "internalType": "bytes32",
          "name": "deposit_data_root",
          "type": "bytes32"
        }
      ],
      "name": "stake",
      "outputs": [],
      "stateMutability": "nonpayable",
      "type": "function"
    },
    {
      "inputs": [
        {
          "internalType": "address",
          "name": "newOwner",
          "type": "address"
        }
      ],
      "name": "transferOwnership",
      "outputs": [],
      "stateMutability": "nonpayable",
      "type": "function"
    },
    {
      "inputs": [],
      "name": "version",
      "outputs": [
        {
          "internalType": "uint8",
          "name": "",
          "type": "uint8"
        }
      ],
      "stateMutability": "view",
      "type": "function"
    },
    {
      "inputs": [
        {
          "internalType": "uint256",
          "name": "_id",
          "type": "uint256"
        },
        {
          "internalType": "uint256",
          "name": "_amount",
          "type": "uint256"
        }
      ],
      "name": "withdraw",
      "outputs": [],
      "stateMutability": "nonpayable",
      "type": "function"
    },
    {
      "stateMutability": "payable",
      "type": "receive"
    }
  ],
  "bytecode": {
    "object": "0x6080604081815234620001965780826200288f80380380916200002382856200019b565b83398101031262000196576200003982620001bf565b6020928301516001600160a01b03808216949185900362000196576200005f33620001d4565b600180546001600160a01b0319908116871790915584516f636f6e74726163742e6164647265737360801b8185019081526d4672656e73506f6f6c536861726560901b6030830152601e82528187019792949192906001600160401b038911848a1017620001805760248984938193828c52875190206321f8a72160e01b835260448801525afa918215620001755760009262000131575b50506200011094955016906002541617600255620001d4565b6000805460ff60a01b1916600160a01b1790555161267390816200021c8239f35b813d83116200016d575b62000147818a6200019b565b810103126200016a575062000161620001109495620001bf565b859438620000f7565b80fd5b503d6200013b565b86513d6000823e3d90fd5b634e487b7160e01b600052604160045260246000fd5b600080fd5b601f909101601f19168101906001600160401b038211908210176200018057604052565b51906001600160a01b03821682036200019657565b600080546001600160a01b039283166001600160a01b03198216811783559216907f8be0079c531659141344cd1fd0a4f28419497f9722a3daafe3b4186f6b6457e09080a356fe608060408181526004908136101561001f575b505050361561001d57005b005b600092833560e01c908163168a4822146111c1575080631865c57d146111a35780631e83409a1461117657806329917954146110fa578063378de45b146110b35780633a4b66f11461109a578063441a3e7014610eac57806345b58fe414610e525780634ad02ef114610def5780634b2b4e3614610cfa5780634e71d92d14610ce057806354fd4d5014610cbd57806355ec447f14610bf3578063678e300a14610bd3578063715018a614610b755780638620891c146109a55780638da5cb5b1461097d578063923331d4146107925780639278e71414610770578063cfb5a5f814610747578063e2664e49146106f5578063e4fc6b6d146106dc578063e6b1a3ae146105bb578063e920eec014610597578063f2fde38b146104cb5763f9faa10403610012578260031936011261042d5761017261015c612404565b61016c610167611371565b61240c565b1461139e565b3415610493578051916020926101ca6801bc16d674ec8000006101c3868401936101be816101a030886113e3565b03956101b4601f1997888101855284611333565b3492519020611492565b611411565b1115611434565b825190848201671d1bdad95b8b9a5960c21b92838252600881526101ed816112fb565b5190206001546001600160a01b03939188918516803b1561042d576044839289519485938492632b6cd4f760e21b84528b840152600160248401525af1801561047a57906102599291610484575b50855187810191825260088152610251816112fb565b519020611492565b90868551878101906d19195c1bdcda5d0b985b5bdd5b9d60921b825284602e820152602e815261028881611317565b5190208460015416803b1561042d576044839289519485938492637152429d60e11b84528b8401523460248401525af1801561047a57610461575b5090869392916102f586518881016102eb826102df30846113e3565b03858101845283611333565b349151902061155f565b85516a1a591ccb9a5b8b9c1bdbdb60aa1b8882019081523060601b6001600160601b031916600b820152916103369082601f85015b03908101835282611333565b519020826001541690813b1561045d578591604483928951948593849263785f002b60e11b84528a8401528760248401525af180156104535790859161043b575b50506103b190855190878201906a1c1bdbdb0b999bdc8b9a5960aa1b8252602b830152602b82526103a782611317565b309151902061150b565b6002541690813b1561042d57829160248392865194859384926335313c2160e11b845233908401525af1801561043157610419575b50507f1ed12c9855bd60407f7650e01c62ee4f0f40744b5b17983eec349a2b4e89981a918151903482523390820152a180f35b610422906112d1565b61042d5782386103e6565b8280fd5b83513d84823e3d90fd5b610444906112d1565b61044f578338610377565b8380fd5b86513d87823e3d90fd5b8580fd5b610470909791949392976112d1565b95909192386102c3565b86513d8a823e3d90fd5b61048d906112d1565b3861023b565b906020606492519162461bcd60e51b8352820152601260248201527136bab9ba103232b837b9b4ba1032ba3432b960711b6044820152fd5b503461042d57602036600319011261042d576001600160a01b038235818116939084900361059357845491821692610504338514611635565b84156105415750506001600160a01b031916821783557f8be0079c531659141344cd1fd0a4f28419497f9722a3daafe3b4186f6b6457e08380a380f35b906020608492519162461bcd60e51b8352820152602660248201527f4f776e61626c653a206e6577206f776e657220697320746865207a65726f206160448201526564647265737360d01b6064820152fd5b8480fd5b83346105b8576105b56105a936611267565b95949094939193611c29565b80f35b80fd5b509190346106d85760203660031901126106d8578035906001600160a01b0380831690818403610593576024916105f786928354163314611635565b865163516b636d60e11b815260018582015292839182905afa9081156106ce5784916106ac575b50511561067257506105b591925160208101907f706f6f6c2e73706563696669632e6172742e616464726573730000000000000082523060601b6039820152602d815261066a81611317565b51902061150b565b606490602085519162461bcd60e51b835282015260146024820152731a5b9d985b1a5908185c9d0818dbdb9d1c9858dd60621b6044820152fd5b6106c891503d8086833e6106c08183611333565b810190612606565b3861061e565b85513d86823e3d90fd5b5080fd5b83346105b857806003193601126105b8576105b5612076565b8382346106d857816003193601126106d85761071b60018060a01b038354163314611635565b818080804781811561073e575b3390f115610734575080f35b51903d90823e3d90fd5b506108fc610728565b5082346105b85760203660031901126105b8575061076960209247903561235f565b9051908152f35b83346105b857806003193601126105b857610789612076565b6105b5336122d1565b503461042d57606036600319011261042d576001600160a01b039282359190848316908184036105b8576024359560443567ffffffffffffffff811161042d57906107e46107f1939236908901611234565b9390918354163314611635565b61083c855196602097888101916f185b1b1bddd9590b98dbdb9d1c9858dd60821b83526001600160601b03199060601b1660308201526024815261083481611317565b5190206117dc565b156109435781808651858482378086810183815203908b885af1963d1561093b573d9761086889611355565b9861087588519a8b611333565b89523d84898b013e5b1561090b5750926108f560c0848a947fc35e8bcd41711872ec0857c0203db3ea1f3a421cb5000bb65c5a70b89055c6829689986109079a519788973389528d8901528a88015260a060608801528160a088015284870137848201830152601f01601f1916830183810382016080850152018861120f565b0390a15192828493845283019061120f565b0390f35b855162461bcd60e51b8152908101879052600a6024820152691d1e1b8819985a5b195960b21b6044820152606490fd5b60609761087e565b845162461bcd60e51b8152808801879052601460248201527318dbdb9d1c9858dd081b9bdd08185b1b1bddd95960621b6044820152606490fd5b8382346106d857816003193601126106d857905490516001600160a01b039091168152602090f35b5091906020908160031936011261042d5780359060018060a01b036024848260025416885192838092634f558e7960e01b825288888301525afa908115610b6b578691610b3e575b5015610b0757610a288651858101906a1c1bdbdb0b999bdc8b9a5960aa1b825285602b820152602b8152610a2081611317565b5190206115db565b30911603610acf57506102eb6105b59394610a4461015c612404565b610ab3815193610a866801bc16d674ec8000006101c3610a7f89890189610a6b30836113e3565b0399610251601f199b8c8101835282611333565b3490611411565b825190868201906d19195c1bdcda5d0b985b5bdd5b9d60921b8252602e830152602e82526102eb82611317565b519283019183610ac330856113e3565b03908101845283611333565b845162461bcd60e51b815290810183905260126024820152711ddc9bdb99c81cdd185ada5b99c81c1bdbdb60721b6044820152606490fd5b855162461bcd60e51b815280830185905260116024820152701a5908191bd95cc81b9bdd08195e1a5cdd607a1b6044820152606490fd5b610b5e9150853d8711610b64575b610b568183611333565b8101906115a4565b386109ed565b503d610b4c565b87513d88823e3d90fd5b83346105b857806003193601126105b857805481906001600160a01b03811690610ba0338314611635565b6001600160a01b03191682557f8be0079c531659141344cd1fd0a4f28419497f9722a3daafe3b4186f6b6457e08280a380f35b5082346105b85760203660031901126105b8575061076960209235612572565b503461042d578260031936011261042d57610c0c612076565b610c1461243c565b91835b8351811015610cb957610c2a81856120ea565b5160025484516331a9108f60e11b815284810192909252602091908290829060249082906001600160a01b03165afa918215610caf5791610c7891610c7d94938992610c82575b50506122d1565b6120db565b610c17565b610ca19250803d10610ca8575b610c998183611333565b8101906115bc565b3880610c71565b503d610c8f565b85513d89823e3d90fd5b8480f35b8382346106d857816003193601126106d85760ff6020925460a01c169051908152f35b83346105b857806003193601126105b8576105b5336122d1565b503461042d57610d0936611267565b92610d2460018060a09998999594951b038b54163314611635565b875194610d4d6020870187610d393083611680565b0397610834601f19998a8101835282611333565b15610dd757505050505090610d7c610d8b928551610d7460208201928261032a30866116ad565b51902061173f565b602081519101209236916116d3565b6020815191012003610da25750505b6105b56118bd565b906020606492519162461bcd60e51b8352820152600f60248201526e0e0eac496caf240dad2e6dac2e8c6d608b1b6044820152fd5b939750935093610dea9750949094611c29565b610d9a565b8382346106d857816003193601126106d85780610e3f610907925160208101907376616c696461746f722e7075626c69632e6b657960601b82523060601b603482015260288152610d7481611317565b905191829160208352602083019061120f565b8382346106d857816003193601126106d857610e6c61243c565b815192839260208080860192818752855180945286019401925b828110610e9557505050500390f35b835185528695509381019392810192600101610e86565b50903461042d578160031936011261042d57803560243591610ecc612404565b610ed761016761189b565b146110575760025484516331a9108f60e11b8152828101849052602093916001600160a01b03919085908290602490829086165afa90811561104d578891611030575b50163303610ffe5784519184610f558585016d19195c1bdcda5d0b985b5bdd5b9d60921b9586825285602e820152602e815261025181611317565b10610fc4575083610fb181889695610f8f8897889788978c5190858201928352602e820152602e8152610f8781611317565b519020612031565b885190810190610f8781610fa330856113e3565b03601f198101835282611333565b81811561073e573390f115610734575080f35b855162461bcd60e51b815290810184905260146024820152731b9bdd08195b9bdd59da0819195c1bdcda5d195960621b6044820152606490fd5b5060649184519162461bcd60e51b8352820152600d60248201526c3737ba103a34329037bbb732b960991b6044820152fd5b6110479150853d8711610ca857610c998183611333565b38610f1a565b87513d8a823e3d90fd5b606490602085519162461bcd60e51b8352820152601b60248201527f63616e6e6f74207769746864726177206f6e6365207374616b656400000000006044820152fd5b83346105b857806003193601126105b8576105b56118bd565b5082346105b85760203660031901126105b857506107696020928251848101916d19195c1bdcda5d0b985b5bdd5b9d60921b835235602e820152602e815261025181611317565b8382346106d857816003193601126106d8576105b59061112460018060a01b038454163314611635565b60644711611169575b8051602081019061114281610fa3308561186d565b519020905190611151826112fb565b6006825265195e1a5d195960d21b6020830152611bd3565b611171612114565b61112d565b5050346106d85760203660031901126106d857356001600160a01b03811681036106d8576105b5906122d1565b8382346106d857816003193601126106d85761090790610e3f61259b565b8285346105b857806003193601126105b857506107698260208094019061025181610fa330856113e3565b60005b8381106111ff5750506000910152565b81810151838201526020016111ef565b90602091611228815180928185528580860191016111ec565b601f01601f1916010190565b9181601f840112156112625782359167ffffffffffffffff8311611262576020838186019501011161126257565b600080fd5b9060806003198301126112625767ffffffffffffffff600435818111611262578361129491600401611234565b9390939260243583811161126257826112af91600401611234565b93909392604435918211611262576112c991600401611234565b909160643590565b67ffffffffffffffff81116112e557604052565b634e487b7160e01b600052604160045260246000fd5b6040810190811067ffffffffffffffff8211176112e557604052565b6060810190811067ffffffffffffffff8211176112e557604052565b90601f8019910116810190811067ffffffffffffffff8211176112e557604052565b67ffffffffffffffff81116112e557601f01601f191660200190565b6040519061137e826112fb565b6011825270616363657074696e674465706f7369747360781b6020830152565b156113a557565b60405162461bcd60e51b81526020600482015260166024820152756e6f7420616363657074696e67206465706f7369747360501b6044820152606490fd5b6022916d746f74616c2e6465706f7369747360901b82526001600160601b03199060601b16600e8201520190565b9190820180921161141e57565b634e487b7160e01b600052601160045260246000fd5b1561143b57565b60405162461bcd60e51b815260206004820152602960248201527f746f74616c206465706f736974732063616e6e6f74206265206d6f72652074686044820152680c2dc406664408ae8d60bb1b6064820152608490fd5b60015460405163bd02d0f560e01b81526004810192909252602090829060249082906001600160a01b03165afa9081156114ff576000916114d1575090565b906020823d82116114f7575b816114ea60209383611333565b810103126105b857505190565b3d91506114dd565b6040513d6000823e3d90fd5b6001546001600160a01b0392908316803b156112625760009283604492604051968795869463ca446dd960e01b865260048601521660248401525af180156114ff576115545750565b61155d906112d1565b565b6001546001600160a01b031691823b15611262576044600092836040519586948593632b6cd4f760e21b8552600485015260248401525af180156114ff576115545750565b90816020910312611262575180151581036112625790565b9081602091031261126257516001600160a01b03811681036112625790565b6001546040516321f8a72160e01b81526004810192909252602090829060249082906001600160a01b03165afa9081156114ff5760009161161a575090565b611632915060203d8111610ca857610c998183611333565b90565b1561163c57565b606460405162461bcd60e51b815260206004820152602060248201527f4f776e61626c653a2063616c6c6572206973206e6f7420746865206f776e65726044820152fd5b6021916c1d985b1a59185d1bdc8b9cd95d609a1b82526001600160601b03199060601b16600d8201520190565b601a91657075624b657960d01b82526001600160601b03199060601b1660068201520190565b9291926116df82611355565b916116ed6040519384611333565b829481845281830111611262578281602093846000960137010152565b9092919261171781611355565b916117256040519384611333565b82948284528282011161126257602061155d9301906111ec565b600154604051630180634360e71b815260048101929092526000908190839060249082906001600160a01b03165afa9182156117cf57819261178057505090565b909291503d8084833e6117938183611333565b81019060208183031261044f5780519067ffffffffffffffff8211610593570181601f8201121561044f5761163292935060208151910161170a565b50604051903d90823e3d90fd5b600154604051633d70e7e560e11b81526004810192909252602090829060249082906001600160a01b03165afa9081156114ff5760009161181b575090565b611632915060203d8111610b6457610b568183611333565b1561183a57565b60405162461bcd60e51b815260206004820152600b60248201526a77726f6e6720737461746560a81b6044820152606490fd5b6022916d636f6e74726163742e737461746560901b82526001600160601b03199060601b16600e8201520190565b604051906118a8826112fb565b60068252651cdd185ad95960d21b6020830152565b6801bc16d674ec80000090814710611b9d576118eb6118da612404565b6118e5610167611371565b14611833565b6040805160206119168183018361190230836116ad565b0393610d74601f1995868101835282611333565b8351757769746864726177616c5f63726564656e7469616c7360501b8382019081523060601b6001600160601b031916601682015261196391610d7481602a840103878101835282611333565b8451687369676e617475726560b81b8482019081523060601b6001600160601b03191660098201529194916119a791610d7481601d84015b03858101835282611333565b85517019195c1bdcda5d17d9185d1857dc9bdbdd607a1b8582019081523060601b6001600160601b0319166011820152919891906119e8816025840161199b565b5190206001548751635376ab1f60e11b8152600481019290925290926001600160a01b039186908590602490829086165afa938415611b9257600094611b63575b50611aa4611a7e8951888101907f65787465726e616c2e636f6e74726163742e616464726573730000000000000082526e11195c1bdcda5d10dbdb9d1c9858dd608a1b603982015260288152610a2081611317565b918951611a93898201928261032a308661186d565b519020611a9e61189b565b90611bd3565b1694853b1561126257600093611af293611b01611adf938a519c8d97889687966304512a2360e31b885260806004890152608488019061120f565b600319938488830301602489015261120f565b9185830301604486015261120f565b9060648301520391865af1948515611b58577f72b356fd889b9abd3530accd2c9f4aecbce67d70757181f9f862ac91464ce1929495611b49575b5082519182523390820152a1565b611b52906112d1565b38611b3b565b83513d6000823e3d90fd5b90938682813d8311611b8b575b611b7a8183611333565b810103126105b85750519238611a29565b503d611b70565b88513d6000823e3d90fd5b60405162461bcd60e51b815260206004820152600e60248201526d0dcdee840cadcdeeaced040cae8d60931b6044820152606490fd5b6001546001600160a01b031691823b1561126257611c1892600092836040518096819582946306e8995560e41b8452600484015260406024840152604483019061120f565b03925af180156114ff576115545750565b929593949094600096600160f81b300193843011611fd8576040978851602096878201908152878252611c5b826112fb565b611c663686866116d3565b8881519101209151902003611f9457611caa8951878101906f1d985b1a59185d1bdc8b9b1bd8dad95960821b82523060601b60308201526024815261083481611317565b611eee575b611cb7612404565b611cbf611371565b611cc89061240c565b14611cd290611833565b88519686880188611ce330836116ad565b0398601f19998a81018252611cf89082611333565b519020913690611d07926116d3565b611d1091611fec565b8751757769746864726177616c5f63726564656e7469616c7360501b8682019081523060601b6001600160601b03191660168201529080602a8301038881018252611d5b9082611333565b519020913690611d6a926116d3565b611d7391611fec565b8551687369676e617475726560b81b8482019081523060601b6001600160601b03191660098201529080601d8301038681018252611db19082611333565b519020913690611dc0926116d3565b611dc991611fec565b83517019195c1bdcda5d17d9185d1857dc9bdbdd607a1b8282019081523060601b6001600160601b0319166011820152908060258301038481018252611e0f9082611333565b5190206001546001600160a01b039490851691823b15611eea57906044889283895195869485936309d23b6160e31b8552600485015260248401525af18015611ee057611ecd575b50611e6c8451918201928261032a3086611680565b519020906001541690813b1561044f5782916044859492859351958693849263abfdcced60e01b84526004840152600160248401525af1908115611ec45750611eb3575050565b611ebd82916112d1565b6105b85750565b513d84823e3d90fd5b611ed9909591956112d1565b9338611e57565b85513d88823e3d90fd5b8780fd5b611f2d611ef9612404565b6118e58b51611f07816112fb565b60158152746177616974696e6756616c696461746f72496e666f60581b8a82015261240c565b8851611f5487820182611f403083611680565b0392610834601f1994858101835282611333565b611f8057611f7b908a51611f70898201928261032a308661186d565b519020611a9e611371565b611caf565b634e487b7160e01b8b52600160045260248bfd5b885162461bcd60e51b815260048101879052601e60248201527f7769746864726177616c2063726564656e7469616c206d69736d6174636800006044820152606490fd5b634e487b7160e01b89526011600452602489fd5b6001546001600160a01b031691823b1561126257611c189260009283604051809681958294630b8a342160e21b8452600484015260406024840152604483019061120f565b6001546001600160a01b031691823b1561126257604460009283604051958694859363ebb9d8c960e01b8552600485015260248401525af180156114ff576115545750565b61207e612404565b612089610167611371565b146120965761155d612114565b60405162461bcd60e51b815260206004820152601c60248201527f757365207769746864726177207768656e206e6f74207374616b6564000000006044820152606490fd5b600019811461141e5760010190565b80518210156120fe5760209160051b010190565b634e487b7160e01b600052603260045260246000fd5b47606481111561228d576040908151602090818101906f636f6e74726163742e6164647265737360801b8252603090694672656e73436c61696d60b01b82820152601a8152612162816112fb565b519091206001600160a01b039190829061217b906115db565b169361218561243c565b9660005b885181101561225a578561219d828b6120ea565b5186600254168a51928380926331a9108f60e11b825284600483015260249586915afa90811561224f579161222994939187610c789460009261222e575b506121e6919261235f565b918c51908b8201926f18db185a5b58589b194b985b5bdd5b9d60821b84526001600160601b03199060601b168a830152815261222181611317565b51902061155f565b612189565b6121e69250612249908d803d10610ca857610c998183611333565b916121db565b8b513d6000823e3d90fd5b509650600094859450849350839250828215612284575bf11561227a5750565b513d6000823e3d90fd5b506108fc612271565b606460405162461bcd60e51b815260206004820152602060248201527f6d696e696d756d206f66203130302077656920746f20646973747269627574656044820152fd5b6040519060208201916f636f6e74726163742e6164647265737360801b8352694672656e73436c61696d60b01b6030820152601a8152612310816112fb565b519091206001600160a01b0391908290612329906115db565b1691823b15611262576024600092836040519586948593630f41a04d60e11b85521660048401525af180156114ff576115545750565b6123919060405160208101916d19195c1bdcda5d0b985b5bdd5b9d60921b8352602e820152602e815261025181611317565b6123aa604051602081019061025181610fa330856113e3565b9181156123fc5781810291818304149015171561141e5781156123e6570460018111156123e057600019810190811161141e5790565b50600090565b634e487b7160e01b600052601260045260246000fd5b505050600090565b61240c61259b565b6040516124366020828161242981830196878151938492016111ec565b8101038084520182611333565b51902090565b6040516a1a591ccb9a5b8b9c1bdbdb60aa1b60208083019182523060601b6001600160601b031916602b8401529161247781603f8101610fa3565b5190206001546040516378267eb560e11b81526004810192909252600092908390839060249082906001600160a01b03165afa9283156125665780936124be575b50505090565b909192503d8082853e6124d18185611333565b83019082848303126105b857835167ffffffffffffffff9485821161042d570182601f820112156106d8578051948511612552578460051b916040519561251a86850188611333565b865284808701938301019384116105b857508301905b82821061254357505050503880806124b8565b81518152908301908301612530565b634e487b7160e01b82526041600452602482fd5b604051903d90823e3d90fd5b61257a612404565b612585610167611371565b036125905750600090565b61163290479061235f565b60405160208101906125b181610fa3308561186d565b519020600154604051634c373c8d60e11b81526004810192909252600090829060249082906001600160a01b03165afa9081156114ff576000916125f3575090565b611632913d8091833e6106c08183611333565b6020818303126112625780519067ffffffffffffffff821161126257019080601f830112156112625781516116329260200161170a56fea2646970667358221220e3da7db9983098b665376e4f946e6652bac974367a70f777611bc2e45ac44a1964736f6c63430008110033",
    "linkReferences": {}
  },
  "methodIdentifiers": {
    "addToDeposit(uint256)": "8620891c",
    "arbitraryContractCall(address,uint256,bytes)": "923331d4",
    "claim()": "4e71d92d",
    "claim(address)": "1e83409a",
    "depositToPool()": "f9faa104",
    "distribute()": "e4fc6b6d",
    "distributeAndClaim()": "9278e714",
    "distributeAndClaimAll()": "55ec447f",
    "exitPool()": "29917954",
    "getDepositAmount(uint256)": "378de45b",
    "getDistributableShare(uint256)": "678e300a",
    "getIdsInThisPool()": "45b58fe4",
    "getPubKey()": "4ad02ef1",
    "getShare(uint256)": "cfb5a5f8",
    "getState()": "1865c57d",
    "getTotalDeposits()": "168a4822",
    "owner()": "8da5cb5b",
    "renounceOwnership()": "715018a6",
    "rugpull()": "e2664e49",
    "setArt(address)": "e6b1a3ae",
    "setPubKey(bytes,bytes,bytes,bytes32)": "e920eec0",
    "stake()": "3a4b66f1",
    "stake(bytes,bytes,bytes,bytes32)": "4b2b4e36",
    "transferOwnership(address)": "f2fde38b",
    "version()": "54fd4d50",
    "withdraw(uint256,uint256)": "441a3e70"
  },
  "id": 9
}