{
  "abi": [
    {
      "inputs": [
        {
          "internalType": "address",
          "name": "owner_",
          "type": "address"
        },
        {
          "internalType": "contract IFrensStorage",
          "name": "frensStorage_",
          "type": "address"
        }
      ],
      "stateMutability": "nonpayable",
      "type": "constructor"
    },
    {
      "anonymous": false,
      "inputs": [
        {
          "indexed": false,
          "internalType": "uint256",
          "name": "amount",
          "type": "uint256"
        },
        {
          "indexed": false,
          "internalType": "address",
          "name": "depositer",
          "type": "address"
        }
      ],
      "name": "DepositToPool",
      "type": "event"
    },
    {
      "anonymous": false,
      "inputs": [
        {
          "indexed": true,
          "internalType": "address",
          "name": "previousOwner",
          "type": "address"
        },
        {
          "indexed": true,
          "internalType": "address",
          "name": "newOwner",
          "type": "address"
        }
      ],
      "name": "OwnershipTransferred",
      "type": "event"
    },
    {
      "anonymous": false,
      "inputs": [
        {
          "indexed": false,
          "internalType": "address",
          "name": "depositContractAddress",
          "type": "address"
        },
        {
          "indexed": false,
          "internalType": "address",
          "name": "caller",
          "type": "address"
        }
      ],
      "name": "Stake",
      "type": "event"
    },
    {
      "stateMutability": "payable",
      "type": "fallback"
    },
    {
      "inputs": [
        {
          "internalType": "uint256",
          "name": "_id",
          "type": "uint256"
        }
      ],
      "name": "addToDeposit",
      "outputs": [],
      "stateMutability": "payable",
      "type": "function"
    },
    {
      "inputs": [
        {
          "internalType": "address",
          "name": "claimant",
          "type": "address"
        }
      ],
      "name": "claim",
      "outputs": [],
      "stateMutability": "nonpayable",
      "type": "function"
    },
    {
      "inputs": [],
      "name": "claim",
      "outputs": [],
      "stateMutability": "nonpayable",
      "type": "function"
    },
    {
      "inputs": [],
      "name": "depositToPool",
      "outputs": [],
      "stateMutability": "payable",
      "type": "function"
    },
    {
      "inputs": [],
      "name": "distribute",
      "outputs": [],
      "stateMutability": "nonpayable",
      "type": "function"
    },
    {
      "inputs": [],
      "name": "distributeAndClaim",
      "outputs": [],
      "stateMutability": "nonpayable",
      "type": "function"
    },
    {
      "inputs": [],
      "name": "distributeAndClaimAll",
      "outputs": [],
      "stateMutability": "nonpayable",
      "type": "function"
    },
    {
      "inputs": [
        {
          "internalType": "uint256",
          "name": "_id",
          "type": "uint256"
        }
      ],
      "name": "getDepositAmount",
      "outputs": [
        {
          "internalType": "uint256",
          "name": "",
          "type": "uint256"
        }
      ],
      "stateMutability": "view",
      "type": "function"
    },
    {
      "inputs": [
        {
          "internalType": "uint256",
          "name": "_id",
          "type": "uint256"
        }
      ],
      "name": "getDistributableShare",
      "outputs": [
        {
          "internalType": "uint256",
          "name": "",
          "type": "uint256"
        }
      ],
      "stateMutability": "view",
      "type": "function"
    },
    {
      "inputs": [],
      "name": "getIdsInThisPool",
      "outputs": [
        {
          "internalType": "uint256[]",
          "name": "",
          "type": "uint256[]"
        }
      ],
      "stateMutability": "view",
      "type": "function"
    },
    {
      "inputs": [],
      "name": "getPubKey",
      "outputs": [
        {
          "internalType": "bytes",
          "name": "",
          "type": "bytes"
        }
      ],
      "stateMutability": "view",
      "type": "function"
    },
    {
      "inputs": [
        {
          "internalType": "uint256",
          "name": "_id",
          "type": "uint256"
        }
      ],
      "name": "getShare",
      "outputs": [
        {
          "internalType": "uint256",
          "name": "",
          "type": "uint256"
        }
      ],
      "stateMutability": "view",
      "type": "function"
    },
    {
      "inputs": [],
      "name": "getState",
      "outputs": [
        {
          "internalType": "string",
          "name": "",
          "type": "string"
        }
      ],
      "stateMutability": "view",
      "type": "function"
    },
    {
      "inputs": [],
      "name": "getTotalDeposits",
      "outputs": [
        {
          "internalType": "uint256",
          "name": "",
          "type": "uint256"
        }
      ],
      "stateMutability": "view",
      "type": "function"
    },
    {
      "inputs": [],
      "name": "owner",
      "outputs": [
        {
          "internalType": "address",
          "name": "",
          "type": "address"
        }
      ],
      "stateMutability": "view",
      "type": "function"
    },
    {
      "inputs": [],
      "name": "renounceOwnership",
      "outputs": [],
      "stateMutability": "nonpayable",
      "type": "function"
    },
    {
      "inputs": [],
      "name": "rugpull",
      "outputs": [],
      "stateMutability": "nonpayable",
      "type": "function"
    },
    {
      "inputs": [
        {
          "internalType": "bytes",
          "name": "pubKey",
          "type": "bytes"
        },
        {
          "internalType": "bytes",
          "name": "withdrawal_credentials",
          "type": "bytes"
        },
        {
          "internalType": "bytes",
          "name": "signature",
          "type": "bytes"
        },
        {
          "internalType": "bytes32",
          "name": "deposit_data_root",
          "type": "bytes32"
        }
      ],
      "name": "setPubKey",
      "outputs": [],
      "stateMutability": "nonpayable",
      "type": "function"
    },
    {
      "inputs": [],
      "name": "stake",
      "outputs": [],
      "stateMutability": "nonpayable",
      "type": "function"
    },
    {
      "inputs": [
        {
          "internalType": "bytes",
          "name": "pubKey",
          "type": "bytes"
        },
        {
          "internalType": "bytes",
          "name": "withdrawal_credentials",
          "type": "bytes"
        },
        {
          "internalType": "bytes",
          "name": "signature",
          "type": "bytes"
        },
        {
          "internalType": "bytes32",
          "name": "deposit_data_root",
          "type": "bytes32"
        }
      ],
      "name": "stake",
      "outputs": [],
      "stateMutability": "nonpayable",
      "type": "function"
    },
    {
      "inputs": [
        {
          "internalType": "address",
          "name": "newOwner",
          "type": "address"
        }
      ],
      "name": "transferOwnership",
      "outputs": [],
      "stateMutability": "nonpayable",
      "type": "function"
    },
    {
      "inputs": [],
      "name": "unstake",
      "outputs": [],
      "stateMutability": "nonpayable",
      "type": "function"
    },
    {
      "inputs": [],
      "name": "version",
      "outputs": [
        {
          "internalType": "uint8",
          "name": "",
          "type": "uint8"
        }
      ],
      "stateMutability": "view",
      "type": "function"
    },
    {
      "inputs": [
        {
          "internalType": "uint256",
          "name": "_id",
          "type": "uint256"
        },
        {
          "internalType": "uint256",
          "name": "_amount",
          "type": "uint256"
        }
      ],
      "name": "withdraw",
      "outputs": [],
      "stateMutability": "nonpayable",
      "type": "function"
    },
    {
      "stateMutability": "payable",
      "type": "receive"
    }
  ],
  "bytecode": {
    "object": "0x608060408181523462000196578082620026ed80380380916200002382856200019b565b83398101031262000196576200003982620001bf565b6020928301516001600160a01b03808216949185900362000196576200005f33620001d4565b600180546001600160a01b0319908116871790915584516f636f6e74726163742e6164647265737360801b8185019081526d4672656e73506f6f6c536861726560901b6030830152601e82528187019792949192906001600160401b038911848a1017620001805760248984938193828c52875190206321f8a72160e01b835260448801525afa918215620001755760009262000131575b50506200011094955016906002541617600255620001d4565b6000805460ff60a01b1916600160a01b179055516124d190816200021c8239f35b813d83116200016d575b62000147818a6200019b565b810103126200016a575062000161620001109495620001bf565b859438620000f7565b80fd5b503d6200013b565b86513d6000823e3d90fd5b634e487b7160e01b600052604160045260246000fd5b600080fd5b601f909101601f19168101906001600160401b038211908210176200018057604052565b51906001600160a01b03821682036200019657565b600080546001600160a01b039283166001600160a01b03198216811783559216907f8be0079c531659141344cd1fd0a4f28419497f9722a3daafe3b4186f6b6457e09080a356fe608060408181526004908136101561001f575b505050361561001d57005b005b600092833560e01c908163168a482214610ffe575080631865c57d14610fe05780631e83409a14610fb35780632def662014610f37578063378de45b14610ef05780633a4b66f114610ecb578063441a3e7014610cdd57806345b58fe414610c835780634ad02ef114610c1c5780634b2b4e3614610af5578381634e71d92d14610a405750806354fd4d5014610a1d57806355ec447f14610953578063678e300a14610933578063715018a6146108d45780638620891c1461070e5780638da5cb5b146106e65780639278e714146106c4578063cfb5a5f81461069b578063e2664e4914610645578063e4fc6b6d1461062c578063e920eec0146105f4578063f2fde38b146105245763f9faa1040361001257826003193601126104555761015e610148612463565b6101586101536111a9565b61246b565b146111d6565b34156104ec578051916020926101b66801bc16d674ec8000006101af868401936101aa8161018c308861121b565b03956101a0601f199788810185528461116b565b34925190206112ca565b611249565b111561126c565b825190848201671d1bdad95b8b9a5960c21b92838252600881526101d981611133565b5190206001546001600160a01b03939190841690813b156104e7576000916044839289519485938492632b6cd4f760e21b84528b840152600160248401525af180156104dc579161024c9189969594936104cd575b5086518881019182526008815261024481611133565b5190206112ca565b908551878101906d19195c1bdcda5d0b985b5bdd5b9d60921b825283602e820152602e815261027a8161114f565b519020836001541690813b156104c9578691604483928a519485938492637152429d60e11b84528b8401523460248401525af180156104bf579086916104ab575b50506102e986518881016102df826102d3308461121b565b0385810184528361116b565b3491519020611343565b85516a1a591ccb9a5b8b9c1bdbdb60aa1b8882019081523060601b6001600160601b031916600b8201529161032a9082601f85015b0390810183528261116b565b519020826001541690813b156104a7578591604483928951948593849263785f002b60e11b84528a8401528760248401525af1801561049d57908591610485575b50508451868101916a1c1bdbdb0b999bdc8b9a5960aa1b8352602b820152602b81526103968161114f565b519020816001541690813b15610481578491604483928851948593849263ca446dd960e01b8452898401523060248401525af1801561047757908491610463575b50506002541690813b1561045557829160248392865194859384926335313c2160e11b845233908401525af1801561045957610441575b50507f1ed12c9855bd60407f7650e01c62ee4f0f40744b5b17983eec349a2b4e89981a918151903482523390820152a180f35b61044a90611109565b61045557823861040e565b8280fd5b83513d84823e3d90fd5b61046c90611109565b6104555782386103d7565b85513d86823e3d90fd5b8480fd5b61048e90611109565b61049957833861036b565b8380fd5b86513d87823e3d90fd5b8580fd5b6104b490611109565b6104815784386102bb565b87513d88823e3d90fd5b8680fd5b6104d690611109565b3861022e565b86513d6000823e3d90fd5b600080fd5b906020606492519162461bcd60e51b8352820152601260248201527136bab9ba103232b837b9b4ba1032ba3432b960711b6044820152fd5b5034610455576020366003190112610455576001600160a01b038235818116939192908490036104815761055c838654163314611424565b83156105a2575050600054826001600160601b0360a01b821617600055167f8be0079c531659141344cd1fd0a4f28419497f9722a3daafe3b4186f6b6457e0600080a380f35b906020608492519162461bcd60e51b8352820152602660248201527f4f776e61626c653a206e6577206f776e657220697320746865207a65726f206160448201526564647265737360d01b6064820152fd5b8334610629576106266106063661109f565b9561062160018060a09894989795971b038a54163314611424565b611a05565b80f35b80fd5b8334610629578060031936011261062957610626611ec8565b83823461069757816003193601126106975761066b60018060a01b038354163314611424565b818080804781811561068e575b3390f115610684575080f35b51903d90823e3d90fd5b506108fc610678565b5080fd5b50823461062957602036600319011261062957506106bd60209247903561229a565b9051908152f35b83346106295780600319360112610629576106dd611ec8565b610626336120d6565b838234610697578160031936011261069757905490516001600160a01b039091168152602090f35b509190602090816003193601126104555780359060018060a01b036024848260025416885192838092634f558e7960e01b825288888301525afa9081156104bf5786916108a7575b5015610870576107918651858101906a1c1bdbdb0b999bdc8b9a5960aa1b825285602b820152602b81526107898161114f565b5190206113ca565b3091160361083857506102df61062693946107ad610148612463565b61081c8151936107ef6801bc16d674ec8000006101af6107e8898901896107d4308361121b565b0399610244601f199b8c810183528261116b565b3490611249565b825190868201906d19195c1bdcda5d0b985b5bdd5b9d60921b8252602e830152602e82526102df8261114f565b51928301918361082c308561121b565b0390810184528361116b565b845162461bcd60e51b815290810183905260126024820152711ddc9bdb99c81cdd185ada5b99c81c1bdbdb60721b6044820152606490fd5b855162461bcd60e51b815280830185905260116024820152701a5908191bd95cc81b9bdd08195e1a5cdd607a1b6044820152606490fd5b6108c79150853d87116108cd575b6108bf818361116b565b810190611393565b38610756565b503d6108b5565b8334610629578060031936011261062957600060018060a01b036108fc818454163314611424565b81546001600160a01b031981168355167f8be0079c531659141344cd1fd0a4f28419497f9722a3daafe3b4186f6b6457e08280a380f35b50823461062957602036600319011261062957506106bd6020923561233f565b503461045557826003193601126104555761096c611ec8565b610974612164565b91835b8351811015610a195761098a8185611e9e565b5160025484516331a9108f60e11b815284810192909252602091908290829060249082906001600160a01b03165afa918215610a0f57916109d8916109dd949389926109e2575b50506120d6565b611e8f565b610977565b610a019250803d10610a08575b6109f9818361116b565b8101906113ab565b38806109d1565b503d6109ef565b85513d89823e3d90fd5b8480f35b83823461069757816003193601126106975760ff6020925460a01c169051908152f35b92905034610af15782600319360112610af1578151610aa6602082016f636f6e74726163742e6164647265737360801b8152694672656e73436c61696d60b01b6030840152601a8352610a9283611133565b91519091206001600160a01b0391906113ca565b16803b15610aec576024849284519586938492630f41a04d60e11b845233908401525af1908115610ae35750610ada575080f35b61062690611109565b513d84823e3d90fd5b505050fd5b5050fd5b503461045557610b043661109f565b92610b1f60018060a09998999594951b038b54163314611424565b875194610b786020870187610b5c30836021916c1d985b1a59185d1bdc8b9cd95d609a1b82526001600160601b03199060601b16600d8201520190565b0397610b70601f19998a810183528261116b565b51902061159e565b15610c0157505050505090610ba7610bb6928551610b9f60208201928261031e308661146f565b519020611501565b60208151910120923691611495565b6020815191012003610bcc57505061062661170f565b906020606492519162461bcd60e51b8352820152600f60248201526e0e0eac496caf240dad2e6dac2e8c6d608b1b6044820152fd5b939750935093610c149750949094611a05565b61062661170f565b83823461069757816003193601126106975780610c6c610c7f925160208101907376616c696461746f722e7075626c69632e6b657960601b82523060601b603482015260288152610b9f8161114f565b905191829160208352602083019061104c565b0390f35b838234610697578160031936011261069757610c9d612164565b815192839260208080860192818752855180945286019401925b828110610cc657505050500390f35b835185528695509381019392810192600101610cb7565b509034610455578160031936011261045557803560243591610cfd612463565b610d086101536116ed565b14610e885760025484516331a9108f60e11b8152828101849052602093916001600160a01b03919085908290602490829086165afa908115610e7e578891610e61575b50163303610e2f5784519184610d868585016d19195c1bdcda5d0b985b5bdd5b9d60921b9586825285602e820152602e81526102448161114f565b10610df5575083610de281889695610dc08897889788978c5190858201928352602e820152602e8152610db88161114f565b519020611e4a565b885190810190610db881610dd4308561121b565b03601f19810183528261116b565b81811561068e573390f115610684575080f35b855162461bcd60e51b815290810184905260146024820152731b9bdd08195b9bdd59da0819195c1bdcda5d195960621b6044820152606490fd5b5060649184519162461bcd60e51b8352820152600d60248201526c3737ba103a34329037bbb732b960991b6044820152fd5b610e789150853d8711610a08576109f9818361116b565b38610d4b565b87513d8a823e3d90fd5b606490602085519162461bcd60e51b8352820152601b60248201527f63616e6e6f74207769746864726177206f6e6365207374616b656400000000006044820152fd5b8334610629578060031936011261062957610c1460018060a01b038254163314611424565b50823461062957602036600319011261062957506106bd6020928251848101916d19195c1bdcda5d0b985b5bdd5b9d60921b835235602e820152602e81526102448161114f565b83823461069757816003193601126106975761062690610f6160018060a01b038454163314611424565b60644711610fa6575b80516020810190610f7f81610dd430856116bf565b519020905190610f8e82611133565b6006825265195e1a5d195960d21b60208301526119af565b610fae611ec8565b610f6a565b50503461069757602036600319011261069757356001600160a01b038116810361069757610626906120d6565b838234610697578160031936011261069757610c7f90610c6c612409565b828534610629578060031936011261062957506106bd8260208094019061024481610dd4308561121b565b60005b83811061103c5750506000910152565b818101518382015260200161102c565b9060209161106581518092818552858086019101611029565b601f01601f1916010190565b9181601f840112156104e75782359167ffffffffffffffff83116104e757602083818601950101116104e757565b9060806003198301126104e75767ffffffffffffffff6004358181116104e757836110cc91600401611071565b939093926024358381116104e757826110e791600401611071565b939093926044359182116104e75761110191600401611071565b909160643590565b67ffffffffffffffff811161111d57604052565b634e487b7160e01b600052604160045260246000fd5b6040810190811067ffffffffffffffff82111761111d57604052565b6060810190811067ffffffffffffffff82111761111d57604052565b90601f8019910116810190811067ffffffffffffffff82111761111d57604052565b67ffffffffffffffff811161111d57601f01601f191660200190565b604051906111b682611133565b6011825270616363657074696e674465706f7369747360781b6020830152565b156111dd57565b60405162461bcd60e51b81526020600482015260166024820152756e6f7420616363657074696e67206465706f7369747360501b6044820152606490fd5b6022916d746f74616c2e6465706f7369747360901b82526001600160601b03199060601b16600e8201520190565b9190820180921161125657565b634e487b7160e01b600052601160045260246000fd5b1561127357565b60405162461bcd60e51b815260206004820152602960248201527f746f74616c206465706f736974732063616e6e6f74206265206d6f72652074686044820152680c2dc406664408ae8d60bb1b6064820152608490fd5b60015460405163bd02d0f560e01b81526004810192909252602090829060249082906001600160a01b03165afa90811561133757600091611309575090565b906020823d821161132f575b816113226020938361116b565b8101031261062957505190565b3d9150611315565b6040513d6000823e3d90fd5b6001546001600160a01b031691823b156104e7576044600092836040519586948593632b6cd4f760e21b8552600485015260248401525af18015611337576113885750565b61139190611109565b565b908160209103126104e7575180151581036104e75790565b908160209103126104e757516001600160a01b03811681036104e75790565b6001546040516321f8a72160e01b81526004810192909252602090829060249082906001600160a01b03165afa90811561133757600091611409575090565b611421915060203d8111610a08576109f9818361116b565b90565b1561142b57565b606460405162461bcd60e51b815260206004820152602060248201527f4f776e61626c653a2063616c6c6572206973206e6f7420746865206f776e65726044820152fd5b601a91657075624b657960d01b82526001600160601b03199060601b1660068201520190565b9291926114a18261118d565b916114af604051938461116b565b8294818452818301116104e7578281602093846000960137010152565b909291926114d98161118d565b916114e7604051938461116b565b8294828452828201116104e7576020611391930190611029565b600154604051630180634360e71b815260048101929092526000908190839060249082906001600160a01b03165afa91821561159157819261154257505090565b909291503d8084833e611555818361116b565b8101906020818303126104995780519067ffffffffffffffff8211610481570181601f82011215610499576114219293506020815191016114cc565b50604051903d90823e3d90fd5b600154604051633d70e7e560e11b81526004810192909252602090829060249082906001600160a01b03165afa908115611337576000916115dd575090565b611421915060203d81116108cd576108bf818361116b565b156115fc57565b60405162461bcd60e51b815260206004820152600b60248201526a77726f6e6720737461746560a81b6044820152606490fd5b602a91757769746864726177616c5f63726564656e7469616c7360501b82526001600160601b03199060601b1660168201520190565b601d91687369676e617475726560b81b82526001600160601b03199060601b1660098201520190565b6025917019195c1bdcda5d17d9185d1857dc9bdbdd607a1b82526001600160601b03199060601b1660118201520190565b6022916d636f6e74726163742e737461746560901b82526001600160601b03199060601b16600e8201520190565b604051906116fa82611133565b60068252651cdd185ad95960d21b6020830152565b6801bc16d674ec800000908147106119795761173d61172c612463565b6117376101536111a9565b146115f5565b60408051602061176881830183611754308361146f565b0393610b9f601f199586810183528261116b565b61178b845183810190610b9f8161177f308561162f565b0387810183528261116b565b926117af855184810190610b9f816117a33085611665565b0385810183528261116b565b968551848101906117c4816117a3308561168e565b5190206001548751635376ab1f60e11b8152600481019290925290926001600160a01b039186908590602490829086165afa93841561196e5760009461193f575b5061188061185a8951888101907f65787465726e616c2e636f6e74726163742e616464726573730000000000000082526e11195c1bdcda5d10dbdb9d1c9858dd608a1b6039820152602881526107898161114f565b91895161186f898201928261031e30866116bf565b51902061187a6116ed565b906119af565b1694853b156104e7576000936118ce936118dd6118bb938a519c8d97889687966304512a2360e31b885260806004890152608488019061104c565b600319938488830301602489015261104c565b9185830301604486015261104c565b9060648301520391865af1948515611934577f72b356fd889b9abd3530accd2c9f4aecbce67d70757181f9f862ac91464ce1929495611925575b5082519182523390820152a1565b61192e90611109565b38611917565b83513d6000823e3d90fd5b90938682813d8311611967575b611956818361116b565b810103126106295750519238611805565b503d61194c565b88513d6000823e3d90fd5b60405162461bcd60e51b815260206004820152600e60248201526d0dcdee840cadcdeeaced040cae8d60931b6044820152606490fd5b6001546001600160a01b031691823b156104e7576119f492600092836040518096819582946306e8995560e41b8452600484015260406024840152604483019061104c565b03925af18015611337576113885750565b93909592949194600160f81b300195863011611256576040978851602098898201908152898252611a3582611133565b611a40368686611495565b8a81519101209151902003611d7c57611a848951898101906f1d985b1a59185d1bdc8b9b1bd8dad95960821b82523060601b603082015260248152610b708161114f565b15611c7357611a91612463565b8951611a9c81611133565b60158152746177616974696e6756616c696461746f72496e666f60581b8a820152611ac69061246b565b14611ad0906115f5565b88519688880188611ae1308361146f565b0398601f19998a81018252611af6908261116b565b519020913690611b0592611495565b611b0e91611dc0565b87518781019080611b1f308461162f565b038881018252611b2f908261116b565b519020913690611b3e92611495565b611b4791611dc0565b85518581019080611b583084611665565b038681018252611b68908261116b565b519020913690611b7792611495565b611b8091611dc0565b83518381019080611b91308461168e565b038481018252611ba1908261116b565b51902090611bae91611e05565b82518281019181611bbf30856116bf565b039081018252611bcf908261116b565b519020611bda6111a9565b611be3916119af565b81516c1d985b1a59185d1bdc8b9cd95d609a1b9181019182523060601b6001600160601b031916600d830152611c1c8160218401610dd4565b5190206001546001600160a01b03169190823b156104e757600092604484928451958693849263abfdcced60e01b84526004840152600160248401525af1908115611c6957506113885750565b513d6000823e3d90fd5b611c7e969596612463565b611c866111a9565b611c8f9061246b565b14611c99906115f5565b88519588870187611caa308361146f565b0397601f19988981018252611cbf908261116b565b519020913690611cce92611495565b611cd791611dc0565b87518781019080611ce8308461162f565b038781018252611cf8908261116b565b519020913690611d0792611495565b611d1091611dc0565b85518581019080611d213084611665565b038581018252611d31908261116b565b519020913690611d4092611495565b611d4991611dc0565b83518381019181611d5a308561168e565b039081018252611d6a908261116b565b51902090611d7791611e05565b611be3565b885162461bcd60e51b815260048101899052601e60248201527f7769746864726177616c2063726564656e7469616c206d69736d6174636800006044820152606490fd5b6001546001600160a01b031691823b156104e7576119f49260009283604051809681958294630b8a342160e21b8452600484015260406024840152604483019061104c565b6001546001600160a01b031691823b156104e75760446000928360405195869485936309d23b6160e31b8552600485015260248401525af18015611337576113885750565b6001546001600160a01b031691823b156104e757604460009283604051958694859363ebb9d8c960e01b8552600485015260248401525af18015611337576113885750565b60001981146112565760010190565b8051821015611eb25760209160051b010190565b634e487b7160e01b600052603260045260246000fd5b611ed0612463565b611edb6101536116ed565b036120915747606481111561204d57604090815190602090818301926f636f6e74726163742e6164647265737360801b8452694672656e73436c61696d60b01b6030820152601a8152611f2d81611133565b519092206001600160a01b0392908390611f46906113ca565b1692611f50612164565b9560005b875181101561202557611f678189611e9e565b5160248685600254168a51928380926331a9108f60e11b82528660048301525afa90811561201a57916109d89187611ff49594600092611ff9575b50611fad919261229a565b908a51611fec81610dd48c820194856024916f18db185a5b58589b194b985b5bdd5b9d60821b82526001600160601b03199060601b1660108201520190565b519020611343565b611f54565b611fad9250612014908b3d8d11610a08576109f9818361116b565b91611fa2565b89513d6000823e3d90fd5b5095505060008093819350918192828215612044575bf115611c695750565b506108fc61203b565b606460405162461bcd60e51b815260206004820152602060248201527f6d696e696d756d206f66203130302077656920746f20646973747269627574656044820152fd5b60405162461bcd60e51b815260206004820152601c60248201527f757365207769746864726177207768656e206e6f74207374616b6564000000006044820152606490fd5b6040519060208201916f636f6e74726163742e6164647265737360801b8352694672656e73436c61696d60b01b6030820152601a815261211581611133565b519091206001600160a01b039190829061212e906113ca565b1691823b156104e7576024600092836040519586948593630f41a04d60e11b85521660048401525af18015611337576113885750565b6040516a1a591ccb9a5b8b9c1bdbdb60aa1b60208083019182523060601b6001600160601b031916602b8401529161219f81603f8101610dd4565b5190206001546040516378267eb560e11b81526004810192909252600092908390839060249082906001600160a01b03165afa92831561228e5780936121e6575b50505090565b909192503d8082853e6121f9818561116b565b830190828483031261062957835167ffffffffffffffff94858211610455570182601f8201121561069757805194851161227a578460051b91604051956122428685018861116b565b8652848087019383010193841161062957508301905b82821061226b57505050503880806121e0565b81518152908301908301612258565b634e487b7160e01b82526041600452602482fd5b604051903d90823e3d90fd5b6122cc9060405160208101916d19195c1bdcda5d0b985b5bdd5b9d60921b8352602e820152602e81526102448161114f565b6122e5604051602081019061024481610dd4308561121b565b918115612337578181029181830414901517156112565781156123215704600181111561231b5760001981019081116112565790565b50600090565b634e487b7160e01b600052601260045260246000fd5b505050600090565b6002546040516331a9108f60e11b81526004810183905290602090829060249082906001600160a01b03165afa8015611337576123bf916000916123eb575b506040516f18db185a5b58589b194b985b5bdd5b9d60821b6020820190815260609290921b6001600160601b03191660308201526102448160448101610dd4565b906123c8612463565b6123d36101536111a9565b036123dc575090565b906101aa61142192479061229a565b612403915060203d8111610a08576109f9818361116b565b3861237e565b604051602081019061241f81610dd430856116bf565b519020600154604051634c373c8d60e11b815260048101929092526000908190839060249082906001600160a01b03165afa91821561159157819261154257505090565b61246b612409565b604051612495602082816124888183019687815193849201611029565b810103808452018261116b565b5190209056fea26469706673582212209a22d4d2b09692ca802d99ace3ce3bdabb8559d11454a3499632b19ed2b5cea064736f6c63430008110033",
    "linkReferences": {}
  },
  "methodIdentifiers": {
    "addToDeposit(uint256)": "8620891c",
    "claim()": "4e71d92d",
    "claim(address)": "1e83409a",
    "depositToPool()": "f9faa104",
    "distribute()": "e4fc6b6d",
    "distributeAndClaim()": "9278e714",
    "distributeAndClaimAll()": "55ec447f",
    "getDepositAmount(uint256)": "378de45b",
    "getDistributableShare(uint256)": "678e300a",
    "getIdsInThisPool()": "45b58fe4",
    "getPubKey()": "4ad02ef1",
    "getShare(uint256)": "cfb5a5f8",
    "getState()": "1865c57d",
    "getTotalDeposits()": "168a4822",
    "owner()": "8da5cb5b",
    "renounceOwnership()": "715018a6",
    "rugpull()": "e2664e49",
    "setPubKey(bytes,bytes,bytes,bytes32)": "e920eec0",
    "stake()": "3a4b66f1",
    "stake(bytes,bytes,bytes,bytes32)": "4b2b4e36",
    "transferOwnership(address)": "f2fde38b",
    "unstake()": "2def6620",
    "version()": "54fd4d50",
    "withdraw(uint256,uint256)": "441a3e70"
  },
  "id": 9
}