{
  "abi": [
    {
      "inputs": [
        {
          "internalType": "address",
          "name": "owner_",
          "type": "address"
        },
        {
          "internalType": "contract IFrensStorage",
          "name": "frensStorage_",
          "type": "address"
        }
      ],
      "stateMutability": "nonpayable",
      "type": "constructor"
    },
    {
      "anonymous": false,
      "inputs": [
        {
          "indexed": false,
          "internalType": "uint256",
          "name": "amount",
          "type": "uint256"
        },
        {
          "indexed": false,
          "internalType": "address",
          "name": "depositer",
          "type": "address"
        }
      ],
      "name": "DepositToPool",
      "type": "event"
    },
    {
      "anonymous": false,
      "inputs": [
        {
          "indexed": false,
          "internalType": "address",
          "name": "sender",
          "type": "address"
        },
        {
          "indexed": false,
          "internalType": "address",
          "name": "to",
          "type": "address"
        },
        {
          "indexed": false,
          "internalType": "uint256",
          "name": "value",
          "type": "uint256"
        },
        {
          "indexed": false,
          "internalType": "bytes",
          "name": "data",
          "type": "bytes"
        },
        {
          "indexed": false,
          "internalType": "bytes",
          "name": "result",
          "type": "bytes"
        }
      ],
      "name": "ExecuteTransaction",
      "type": "event"
    },
    {
      "anonymous": false,
      "inputs": [
        {
          "indexed": true,
          "internalType": "address",
          "name": "previousOwner",
          "type": "address"
        },
        {
          "indexed": true,
          "internalType": "address",
          "name": "newOwner",
          "type": "address"
        }
      ],
      "name": "OwnershipTransferred",
      "type": "event"
    },
    {
      "anonymous": false,
      "inputs": [
        {
          "indexed": false,
          "internalType": "address",
          "name": "depositContractAddress",
          "type": "address"
        },
        {
          "indexed": false,
          "internalType": "address",
          "name": "caller",
          "type": "address"
        }
      ],
      "name": "Stake",
      "type": "event"
    },
    {
      "stateMutability": "payable",
      "type": "fallback"
    },
    {
      "inputs": [
        {
          "internalType": "uint256",
          "name": "_id",
          "type": "uint256"
        }
      ],
      "name": "addToDeposit",
      "outputs": [],
      "stateMutability": "payable",
      "type": "function"
    },
    {
      "inputs": [
        {
          "internalType": "address payable",
          "name": "to",
          "type": "address"
        },
        {
          "internalType": "uint256",
          "name": "value",
          "type": "uint256"
        },
        {
          "internalType": "bytes",
          "name": "data",
          "type": "bytes"
        }
      ],
      "name": "arbitraryContractCall",
      "outputs": [
        {
          "internalType": "bytes",
          "name": "",
          "type": "bytes"
        }
      ],
      "stateMutability": "nonpayable",
      "type": "function"
    },
    {
      "inputs": [
        {
          "internalType": "address",
          "name": "claimant",
          "type": "address"
        }
      ],
      "name": "claim",
      "outputs": [],
      "stateMutability": "nonpayable",
      "type": "function"
    },
    {
      "inputs": [],
      "name": "claim",
      "outputs": [],
      "stateMutability": "nonpayable",
      "type": "function"
    },
    {
      "inputs": [],
      "name": "depositToPool",
      "outputs": [],
      "stateMutability": "payable",
      "type": "function"
    },
    {
      "inputs": [],
      "name": "distribute",
      "outputs": [],
      "stateMutability": "nonpayable",
      "type": "function"
    },
    {
      "inputs": [],
      "name": "distributeAndClaim",
      "outputs": [],
      "stateMutability": "nonpayable",
      "type": "function"
    },
    {
      "inputs": [],
      "name": "distributeAndClaimAll",
      "outputs": [],
      "stateMutability": "nonpayable",
      "type": "function"
    },
    {
      "inputs": [
        {
          "internalType": "uint256",
          "name": "_id",
          "type": "uint256"
        }
      ],
      "name": "getDepositAmount",
      "outputs": [
        {
          "internalType": "uint256",
          "name": "",
          "type": "uint256"
        }
      ],
      "stateMutability": "view",
      "type": "function"
    },
    {
      "inputs": [
        {
          "internalType": "uint256",
          "name": "_id",
          "type": "uint256"
        }
      ],
      "name": "getDistributableShare",
      "outputs": [
        {
          "internalType": "uint256",
          "name": "",
          "type": "uint256"
        }
      ],
      "stateMutability": "view",
      "type": "function"
    },
    {
      "inputs": [],
      "name": "getIdsInThisPool",
      "outputs": [
        {
          "internalType": "uint256[]",
          "name": "",
          "type": "uint256[]"
        }
      ],
      "stateMutability": "view",
      "type": "function"
    },
    {
      "inputs": [],
      "name": "getPubKey",
      "outputs": [
        {
          "internalType": "bytes",
          "name": "",
          "type": "bytes"
        }
      ],
      "stateMutability": "view",
      "type": "function"
    },
    {
      "inputs": [
        {
          "internalType": "uint256",
          "name": "_id",
          "type": "uint256"
        }
      ],
      "name": "getShare",
      "outputs": [
        {
          "internalType": "uint256",
          "name": "",
          "type": "uint256"
        }
      ],
      "stateMutability": "view",
      "type": "function"
    },
    {
      "inputs": [],
      "name": "getState",
      "outputs": [
        {
          "internalType": "string",
          "name": "",
          "type": "string"
        }
      ],
      "stateMutability": "view",
      "type": "function"
    },
    {
      "inputs": [],
      "name": "getTotalDeposits",
      "outputs": [
        {
          "internalType": "uint256",
          "name": "",
          "type": "uint256"
        }
      ],
      "stateMutability": "view",
      "type": "function"
    },
    {
      "inputs": [],
      "name": "owner",
      "outputs": [
        {
          "internalType": "address",
          "name": "",
          "type": "address"
        }
      ],
      "stateMutability": "view",
      "type": "function"
    },
    {
      "inputs": [],
      "name": "renounceOwnership",
      "outputs": [],
      "stateMutability": "nonpayable",
      "type": "function"
    },
    {
      "inputs": [],
      "name": "rugpull",
      "outputs": [],
      "stateMutability": "nonpayable",
      "type": "function"
    },
    {
      "inputs": [
        {
          "internalType": "address",
          "name": "newArtContract",
          "type": "address"
        }
      ],
      "name": "setArt",
      "outputs": [],
      "stateMutability": "nonpayable",
      "type": "function"
    },
    {
      "inputs": [
        {
          "internalType": "bytes",
          "name": "pubKey",
          "type": "bytes"
        },
        {
          "internalType": "bytes",
          "name": "withdrawal_credentials",
          "type": "bytes"
        },
        {
          "internalType": "bytes",
          "name": "signature",
          "type": "bytes"
        },
        {
          "internalType": "bytes32",
          "name": "deposit_data_root",
          "type": "bytes32"
        }
      ],
      "name": "setPubKey",
      "outputs": [],
      "stateMutability": "nonpayable",
      "type": "function"
    },
    {
      "inputs": [],
      "name": "stake",
      "outputs": [],
      "stateMutability": "nonpayable",
      "type": "function"
    },
    {
      "inputs": [
        {
          "internalType": "bytes",
          "name": "pubKey",
          "type": "bytes"
        },
        {
          "internalType": "bytes",
          "name": "withdrawal_credentials",
          "type": "bytes"
        },
        {
          "internalType": "bytes",
          "name": "signature",
          "type": "bytes"
        },
        {
          "internalType": "bytes32",
          "name": "deposit_data_root",
          "type": "bytes32"
        }
      ],
      "name": "stake",
      "outputs": [],
      "stateMutability": "nonpayable",
      "type": "function"
    },
    {
      "inputs": [
        {
          "internalType": "address",
          "name": "newOwner",
          "type": "address"
        }
      ],
      "name": "transferOwnership",
      "outputs": [],
      "stateMutability": "nonpayable",
      "type": "function"
    },
    {
      "inputs": [],
      "name": "unstake",
      "outputs": [],
      "stateMutability": "nonpayable",
      "type": "function"
    },
    {
      "inputs": [],
      "name": "version",
      "outputs": [
        {
          "internalType": "uint8",
          "name": "",
          "type": "uint8"
        }
      ],
      "stateMutability": "view",
      "type": "function"
    },
    {
      "inputs": [
        {
          "internalType": "uint256",
          "name": "_id",
          "type": "uint256"
        },
        {
          "internalType": "uint256",
          "name": "_amount",
          "type": "uint256"
        }
      ],
      "name": "withdraw",
      "outputs": [],
      "stateMutability": "nonpayable",
      "type": "function"
    },
    {
      "stateMutability": "payable",
      "type": "receive"
    }
  ],
  "bytecode": {
    "object": "0x6080604081815234620001965780826200299080380380916200002382856200019b565b83398101031262000196576200003982620001bf565b6020928301516001600160a01b03808216949185900362000196576200005f33620001d4565b600180546001600160a01b0319908116871790915584516f636f6e74726163742e6164647265737360801b8185019081526d4672656e73506f6f6c536861726560901b6030830152601e82528187019792949192906001600160401b038911848a1017620001805760248984938193828c52875190206321f8a72160e01b835260448801525afa918215620001755760009262000131575b50506200011094955016906002541617600255620001d4565b6000805460ff60a01b1916600160a01b1790555161277490816200021c8239f35b813d83116200016d575b62000147818a6200019b565b810103126200016a575062000161620001109495620001bf565b859438620000f7565b80fd5b503d6200013b565b86513d6000823e3d90fd5b634e487b7160e01b600052604160045260246000fd5b600080fd5b601f909101601f19168101906001600160401b038211908210176200018057604052565b51906001600160a01b03821682036200019657565b600080546001600160a01b039283166001600160a01b03198216811783559216907f8be0079c531659141344cd1fd0a4f28419497f9722a3daafe3b4186f6b6457e09080a356fe608060408181526004908136101561001f575b505050361561001d57005b005b600092833560e01c908163168a48221461120b575080631865c57d146111ed5780631e83409a146111c05780632def662014611144578063378de45b146110fd5780633a4b66f1146110d8578063441a3e7014610eea57806345b58fe414610e905780634ad02ef114610e2d5780634b2b4e3614610d0e5780634e71d92d14610cf457806354fd4d5014610cd157806355ec447f14610c07578063678e300a14610be7578063715018a614610b895780638620891c146109b95780638da5cb5b14610991578063923331d4146107a65780639278e71414610784578063cfb5a5f81461075b578063e2664e4914610709578063e4fc6b6d146106f0578063e6b1a3ae146105cf578063e920eec014610597578063f2fde38b146104cb5763f9faa10403610012578260031936011261042d5761017261015c612706565b61016c6101676113bb565b61270e565b146113e8565b3415610493578051916020926101ca6801bc16d674ec8000006101c3868401936101be816101a0308861142d565b03956101b4601f199788810185528461137d565b34925190206114dc565b61145b565b111561147e565b825190848201671d1bdad95b8b9a5960c21b92838252600881526101ed81611345565b5190206001546001600160a01b03939188918516803b1561042d576044839289519485938492632b6cd4f760e21b84528b840152600160248401525af1801561047a57906102599291610484575b5085518781019182526008815261025181611345565b5190206114dc565b90868551878101906d19195c1bdcda5d0b985b5bdd5b9d60921b825284602e820152602e815261028881611361565b5190208460015416803b1561042d576044839289519485938492637152429d60e11b84528b8401523460248401525af1801561047a57610461575b5090869392916102f586518881016102eb826102df308461142d565b0385810184528361137d565b34915190206115a9565b85516a1a591ccb9a5b8b9c1bdbdb60aa1b8882019081523060601b6001600160601b031916600b820152916103369082601f85015b0390810183528261137d565b519020826001541690813b1561045d578591604483928951948593849263785f002b60e11b84528a8401528760248401525af180156104535790859161043b575b50506103b190855190878201906a1c1bdbdb0b999bdc8b9a5960aa1b8252602b830152602b82526103a782611361565b3091519020611555565b6002541690813b1561042d57829160248392865194859384926335313c2160e11b845233908401525af1801561043157610419575b50507f1ed12c9855bd60407f7650e01c62ee4f0f40744b5b17983eec349a2b4e89981a918151903482523390820152a180f35b6104229061131b565b61042d5782386103e6565b8280fd5b83513d84823e3d90fd5b6104449061131b565b61044f578338610377565b8380fd5b86513d87823e3d90fd5b8580fd5b6104709097919493929761131b565b95909192386102c3565b86513d8a823e3d90fd5b61048d9061131b565b3861023b565b906020606492519162461bcd60e51b8352820152601260248201527136bab9ba103232b837b9b4ba1032ba3432b960711b6044820152fd5b503461042d57602036600319011261042d576001600160a01b03823581811693908490036105935784549182169261050433851461167f565b84156105415750506001600160a01b031916821783557f8be0079c531659141344cd1fd0a4f28419497f9722a3daafe3b4186f6b6457e08380a380f35b906020608492519162461bcd60e51b8352820152602660248201527f4f776e61626c653a206e6577206f776e657220697320746865207a65726f206160448201526564647265737360d01b6064820152fd5b8480fd5b83346105cc576105c96105a9366112b1565b956105c460018060a09894989795971b038a5416331461167f565b611c60565b80f35b80fd5b509190346106ec5760203660031901126106ec578035906001600160a01b03808316908184036105935760249161060b8692835416331461167f565b865163516b636d60e11b815260018582015292839182905afa9081156106e25784916106c0575b50511561068657506105c991925160208101907f706f6f6c2e73706563696669632e6172742e616464726573730000000000000082523060601b6039820152602d815261067e81611361565b519020611555565b606490602085519162461bcd60e51b835282015260146024820152731a5b9d985b1a5908185c9d0818dbdb9d1c9858dd60621b6044820152fd5b6106dc91503d8086833e6106d4818361137d565b8101906126cf565b38610632565b85513d86823e3d90fd5b5080fd5b83346105cc57806003193601126105cc576105c9612123565b8382346106ec57816003193601126106ec5761072f60018060a01b03835416331461167f565b8180808047818115610752575b3390f115610748575080f35b51903d90823e3d90fd5b506108fc61073c565b5082346105cc5760203660031901126105cc575061077d6020924790356124f5565b9051908152f35b83346105cc57806003193601126105cc5761079d612123565b6105c933612331565b503461042d57606036600319011261042d576001600160a01b039282359190848316908184036105cc576024359560443567ffffffffffffffff811161042d57906107f861080593923690890161127e565b939091835416331461167f565b610850855196602097888101916f185b1b1bddd9590b98dbdb9d1c9858dd60821b83526001600160601b03199060601b1660308201526024815261084881611361565b5190206117f9565b156109575781808651858482378086810183815203908b885af1963d1561094f573d9761087c8961139f565b9861088988519a8b61137d565b89523d84898b013e5b1561091f57509261090960c0848a947fc35e8bcd41711872ec0857c0203db3ea1f3a421cb5000bb65c5a70b89055c68296899861091b9a519788973389528d8901528a88015260a060608801528160a088015284870137848201830152601f01601f19168301838103820160808501520188611259565b0390a151928284938452830190611259565b0390f35b855162461bcd60e51b8152908101879052600a6024820152691d1e1b8819985a5b195960b21b6044820152606490fd5b606097610892565b845162461bcd60e51b8152808801879052601460248201527318dbdb9d1c9858dd081b9bdd08185b1b1bddd95960621b6044820152606490fd5b8382346106ec57816003193601126106ec57905490516001600160a01b039091168152602090f35b5091906020908160031936011261042d5780359060018060a01b036024848260025416885192838092634f558e7960e01b825288888301525afa908115610b7f578691610b52575b5015610b1b57610a3c8651858101906a1c1bdbdb0b999bdc8b9a5960aa1b825285602b820152602b8152610a3481611361565b519020611625565b30911603610ae357506102eb6105c99394610a5861015c612706565b610ac7815193610a9a6801bc16d674ec8000006101c3610a9389890189610a7f308361142d565b0399610251601f199b8c810183528261137d565b349061145b565b825190868201906d19195c1bdcda5d0b985b5bdd5b9d60921b8252602e830152602e82526102eb82611361565b519283019183610ad7308561142d565b0390810184528361137d565b845162461bcd60e51b815290810183905260126024820152711ddc9bdb99c81cdd185ada5b99c81c1bdbdb60721b6044820152606490fd5b855162461bcd60e51b815280830185905260116024820152701a5908191bd95cc81b9bdd08195e1a5cdd607a1b6044820152606490fd5b610b729150853d8711610b78575b610b6a818361137d565b8101906115ee565b38610a01565b503d610b60565b87513d88823e3d90fd5b83346105cc57806003193601126105cc57805481906001600160a01b03811690610bb433831461167f565b6001600160a01b03191682557f8be0079c531659141344cd1fd0a4f28419497f9722a3daafe3b4186f6b6457e08280a380f35b5082346105cc5760203660031901126105cc575061077d6020923561259a565b503461042d578260031936011261042d57610c20612123565b610c286123bf565b91835b8351811015610ccd57610c3e81856120f9565b5160025484516331a9108f60e11b815284810192909252602091908290829060249082906001600160a01b03165afa918215610cc35791610c8c91610c9194938992610c96575b5050612331565b6120ea565b610c2b565b610cb59250803d10610cbc575b610cad818361137d565b810190611606565b3880610c85565b503d610ca3565b85513d89823e3d90fd5b8480f35b8382346106ec57816003193601126106ec5760ff6020925460a01c169051908152f35b83346105cc57806003193601126105cc576105c933612331565b503461042d57610d1d366112b1565b92610d3860018060a09998999594951b038b5416331461167f565b875194610d896020870187610d7530836021916c1d985b1a59185d1bdc8b9cd95d609a1b82526001600160601b03199060601b16600d8201520190565b0397610848601f19998a810183528261137d565b15610e1257505050505090610db8610dc7928551610db060208201928261032a30866116ca565b51902061175c565b602081519101209236916116f0565b6020815191012003610ddd5750506105c961196a565b906020606492519162461bcd60e51b8352820152600f60248201526e0e0eac496caf240dad2e6dac2e8c6d608b1b6044820152fd5b939750935093610e259750949094611c60565b6105c961196a565b8382346106ec57816003193601126106ec5780610e7d61091b925160208101907376616c696461746f722e7075626c69632e6b657960601b82523060601b603482015260288152610db081611361565b9051918291602083526020830190611259565b8382346106ec57816003193601126106ec57610eaa6123bf565b815192839260208080860192818752855180945286019401925b828110610ed357505050500390f35b835185528695509381019392810192600101610ec4565b50903461042d578160031936011261042d57803560243591610f0a612706565b610f15610167611948565b146110955760025484516331a9108f60e11b8152828101849052602093916001600160a01b03919085908290602490829086165afa90811561108b57889161106e575b5016330361103c5784519184610f938585016d19195c1bdcda5d0b985b5bdd5b9d60921b9586825285602e820152602e815261025181611361565b10611002575083610fef81889695610fcd8897889788978c5190858201928352602e820152602e8152610fc581611361565b5190206120a5565b885190810190610fc581610fe1308561142d565b03601f19810183528261137d565b818115610752573390f115610748575080f35b855162461bcd60e51b815290810184905260146024820152731b9bdd08195b9bdd59da0819195c1bdcda5d195960621b6044820152606490fd5b5060649184519162461bcd60e51b8352820152600d60248201526c3737ba103a34329037bbb732b960991b6044820152fd5b6110859150853d8711610cbc57610cad818361137d565b38610f58565b87513d8a823e3d90fd5b606490602085519162461bcd60e51b8352820152601b60248201527f63616e6e6f74207769746864726177206f6e6365207374616b656400000000006044820152fd5b83346105cc57806003193601126105cc57610e2560018060a01b03825416331461167f565b5082346105cc5760203660031901126105cc575061077d6020928251848101916d19195c1bdcda5d0b985b5bdd5b9d60921b835235602e820152602e815261025181611361565b8382346106ec57816003193601126106ec576105c99061116e60018060a01b03845416331461167f565b606447116111b3575b8051602081019061118c81610fe1308561191a565b51902090519061119b82611345565b6006825265195e1a5d195960d21b6020830152611c0a565b6111bb612123565b611177565b5050346106ec5760203660031901126106ec57356001600160a01b03811681036106ec576105c990612331565b8382346106ec57816003193601126106ec5761091b90610e7d612664565b8285346105cc57806003193601126105cc575061077d8260208094019061025181610fe1308561142d565b60005b8381106112495750506000910152565b8181015183820152602001611239565b9060209161127281518092818552858086019101611236565b601f01601f1916010190565b9181601f840112156112ac5782359167ffffffffffffffff83116112ac57602083818601950101116112ac57565b600080fd5b9060806003198301126112ac5767ffffffffffffffff6004358181116112ac57836112de9160040161127e565b939093926024358381116112ac57826112f99160040161127e565b939093926044359182116112ac576113139160040161127e565b909160643590565b67ffffffffffffffff811161132f57604052565b634e487b7160e01b600052604160045260246000fd5b6040810190811067ffffffffffffffff82111761132f57604052565b6060810190811067ffffffffffffffff82111761132f57604052565b90601f8019910116810190811067ffffffffffffffff82111761132f57604052565b67ffffffffffffffff811161132f57601f01601f191660200190565b604051906113c882611345565b6011825270616363657074696e674465706f7369747360781b6020830152565b156113ef57565b60405162461bcd60e51b81526020600482015260166024820152756e6f7420616363657074696e67206465706f7369747360501b6044820152606490fd5b6022916d746f74616c2e6465706f7369747360901b82526001600160601b03199060601b16600e8201520190565b9190820180921161146857565b634e487b7160e01b600052601160045260246000fd5b1561148557565b60405162461bcd60e51b815260206004820152602960248201527f746f74616c206465706f736974732063616e6e6f74206265206d6f72652074686044820152680c2dc406664408ae8d60bb1b6064820152608490fd5b60015460405163bd02d0f560e01b81526004810192909252602090829060249082906001600160a01b03165afa9081156115495760009161151b575090565b906020823d8211611541575b816115346020938361137d565b810103126105cc57505190565b3d9150611527565b6040513d6000823e3d90fd5b6001546001600160a01b0392908316803b156112ac5760009283604492604051968795869463ca446dd960e01b865260048601521660248401525af180156115495761159e5750565b6115a79061131b565b565b6001546001600160a01b031691823b156112ac576044600092836040519586948593632b6cd4f760e21b8552600485015260248401525af180156115495761159e5750565b908160209103126112ac575180151581036112ac5790565b908160209103126112ac57516001600160a01b03811681036112ac5790565b6001546040516321f8a72160e01b81526004810192909252602090829060249082906001600160a01b03165afa90811561154957600091611664575090565b61167c915060203d8111610cbc57610cad818361137d565b90565b1561168657565b606460405162461bcd60e51b815260206004820152602060248201527f4f776e61626c653a2063616c6c6572206973206e6f7420746865206f776e65726044820152fd5b601a91657075624b657960d01b82526001600160601b03199060601b1660068201520190565b9291926116fc8261139f565b9161170a604051938461137d565b8294818452818301116112ac578281602093846000960137010152565b909291926117348161139f565b91611742604051938461137d565b8294828452828201116112ac5760206115a7930190611236565b600154604051630180634360e71b815260048101929092526000908190839060249082906001600160a01b03165afa9182156117ec57819261179d57505090565b909291503d8084833e6117b0818361137d565b81019060208183031261044f5780519067ffffffffffffffff8211610593570181601f8201121561044f5761167c929350602081519101611727565b50604051903d90823e3d90fd5b600154604051633d70e7e560e11b81526004810192909252602090829060249082906001600160a01b03165afa90811561154957600091611838575090565b61167c915060203d8111610b7857610b6a818361137d565b1561185757565b60405162461bcd60e51b815260206004820152600b60248201526a77726f6e6720737461746560a81b6044820152606490fd5b602a91757769746864726177616c5f63726564656e7469616c7360501b82526001600160601b03199060601b1660168201520190565b601d91687369676e617475726560b81b82526001600160601b03199060601b1660098201520190565b6025917019195c1bdcda5d17d9185d1857dc9bdbdd607a1b82526001600160601b03199060601b1660118201520190565b6022916d636f6e74726163742e737461746560901b82526001600160601b03199060601b16600e8201520190565b6040519061195582611345565b60068252651cdd185ad95960d21b6020830152565b6801bc16d674ec80000090814710611bd457611998611987612706565b6119926101676113bb565b14611850565b6040805160206119c3818301836119af30836116ca565b0393610db0601f199586810183528261137d565b6119e6845183810190610db0816119da308561188a565b0387810183528261137d565b92611a0a855184810190610db0816119fe30856118c0565b0385810183528261137d565b96855184810190611a1f816119fe30856118e9565b5190206001548751635376ab1f60e11b8152600481019290925290926001600160a01b039186908590602490829086165afa938415611bc957600094611b9a575b50611adb611ab58951888101907f65787465726e616c2e636f6e74726163742e616464726573730000000000000082526e11195c1bdcda5d10dbdb9d1c9858dd608a1b603982015260288152610a3481611361565b918951611aca898201928261032a308661191a565b519020611ad5611948565b90611c0a565b1694853b156112ac57600093611b2993611b38611b16938a519c8d97889687966304512a2360e31b8852608060048901526084880190611259565b6003199384888303016024890152611259565b91858303016044860152611259565b9060648301520391865af1948515611b8f577f72b356fd889b9abd3530accd2c9f4aecbce67d70757181f9f862ac91464ce1929495611b80575b5082519182523390820152a1565b611b899061131b565b38611b72565b83513d6000823e3d90fd5b90938682813d8311611bc2575b611bb1818361137d565b810103126105cc5750519238611a60565b503d611ba7565b88513d6000823e3d90fd5b60405162461bcd60e51b815260206004820152600e60248201526d0dcdee840cadcdeeaced040cae8d60931b6044820152606490fd5b6001546001600160a01b031691823b156112ac57611c4f92600092836040518096819582946306e8995560e41b84526004840152604060248401526044830190611259565b03925af180156115495761159e5750565b93909592949194600160f81b300195863011611468576040978851602098898201908152898252611c9082611345565b611c9b3686866116f0565b8a81519101209151902003611fd757611cdf8951898101906f1d985b1a59185d1bdc8b9b1bd8dad95960821b82523060601b60308201526024815261084881611361565b15611ece57611cec612706565b8951611cf781611345565b60158152746177616974696e6756616c696461746f72496e666f60581b8a820152611d219061270e565b14611d2b90611850565b88519688880188611d3c30836116ca565b0398601f19998a81018252611d51908261137d565b519020913690611d60926116f0565b611d699161201b565b87518781019080611d7a308461188a565b038881018252611d8a908261137d565b519020913690611d99926116f0565b611da29161201b565b85518581019080611db330846118c0565b038681018252611dc3908261137d565b519020913690611dd2926116f0565b611ddb9161201b565b83518381019080611dec30846118e9565b038481018252611dfc908261137d565b51902090611e0991612060565b82518281019181611e1a308561191a565b039081018252611e2a908261137d565b519020611e356113bb565b611e3e91611c0a565b81516c1d985b1a59185d1bdc8b9cd95d609a1b9181019182523060601b6001600160601b031916600d830152611e778160218401610fe1565b5190206001546001600160a01b03169190823b156112ac57600092604484928451958693849263abfdcced60e01b84526004840152600160248401525af1908115611ec4575061159e5750565b513d6000823e3d90fd5b611ed9969596612706565b611ee16113bb565b611eea9061270e565b14611ef490611850565b88519588870187611f0530836116ca565b0397601f19988981018252611f1a908261137d565b519020913690611f29926116f0565b611f329161201b565b87518781019080611f43308461188a565b038781018252611f53908261137d565b519020913690611f62926116f0565b611f6b9161201b565b85518581019080611f7c30846118c0565b038581018252611f8c908261137d565b519020913690611f9b926116f0565b611fa49161201b565b83518381019181611fb530856118e9565b039081018252611fc5908261137d565b51902090611fd291612060565b611e3e565b885162461bcd60e51b815260048101899052601e60248201527f7769746864726177616c2063726564656e7469616c206d69736d6174636800006044820152606490fd5b6001546001600160a01b031691823b156112ac57611c4f9260009283604051809681958294630b8a342160e21b84526004840152604060248401526044830190611259565b6001546001600160a01b031691823b156112ac5760446000928360405195869485936309d23b6160e31b8552600485015260248401525af180156115495761159e5750565b6001546001600160a01b031691823b156112ac57604460009283604051958694859363ebb9d8c960e01b8552600485015260248401525af180156115495761159e5750565b60001981146114685760010190565b805182101561210d5760209160051b010190565b634e487b7160e01b600052603260045260246000fd5b61212b612706565b612136610167611948565b036122ec574760648111156122a857604090815190602090818301926f636f6e74726163742e6164647265737360801b8452694672656e73436c61696d60b01b6030820152601a815261218881611345565b519092206001600160a01b03929083906121a190611625565b16926121ab6123bf565b9560005b8751811015612280576121c281896120f9565b5160248685600254168a51928380926331a9108f60e11b82528660048301525afa9081156122755791610c8c918761224f9594600092612254575b5061220891926124f5565b908a5161224781610fe18c820194856024916f18db185a5b58589b194b985b5bdd5b9d60821b82526001600160601b03199060601b1660108201520190565b5190206115a9565b6121af565b612208925061226f908b3d8d11610cbc57610cad818361137d565b916121fd565b89513d6000823e3d90fd5b509550506000809381935091819282821561229f575bf115611ec45750565b506108fc612296565b606460405162461bcd60e51b815260206004820152602060248201527f6d696e696d756d206f66203130302077656920746f20646973747269627574656044820152fd5b60405162461bcd60e51b815260206004820152601c60248201527f757365207769746864726177207768656e206e6f74207374616b6564000000006044820152606490fd5b6040519060208201916f636f6e74726163742e6164647265737360801b8352694672656e73436c61696d60b01b6030820152601a815261237081611345565b519091206001600160a01b039190829061238990611625565b1691823b156112ac576024600092836040519586948593630f41a04d60e11b85521660048401525af180156115495761159e5750565b6040516a1a591ccb9a5b8b9c1bdbdb60aa1b60208083019182523060601b6001600160601b031916602b840152916123fa81603f8101610fe1565b5190206001546040516378267eb560e11b81526004810192909252600092908390839060249082906001600160a01b03165afa9283156124e9578093612441575b50505090565b909192503d8082853e612454818561137d565b83019082848303126105cc57835167ffffffffffffffff9485821161042d570182601f820112156106ec5780519485116124d5578460051b916040519561249d8685018861137d565b865284808701938301019384116105cc57508301905b8282106124c6575050505038808061243b565b815181529083019083016124b3565b634e487b7160e01b82526041600452602482fd5b604051903d90823e3d90fd5b6125279060405160208101916d19195c1bdcda5d0b985b5bdd5b9d60921b8352602e820152602e815261025181611361565b612540604051602081019061025181610fe1308561142d565b9181156125925781810291818304149015171561146857811561257c570460018111156125765760001981019081116114685790565b50600090565b634e487b7160e01b600052601260045260246000fd5b505050600090565b6002546040516331a9108f60e11b81526004810183905290602090829060249082906001600160a01b03165afa80156115495761261a91600091612646575b506040516f18db185a5b58589b194b985b5bdd5b9d60821b6020820190815260609290921b6001600160601b03191660308201526102518160448101610fe1565b90612623612706565b61262e6101676113bb565b03612637575090565b906101be61167c9247906124f5565b61265e915060203d8111610cbc57610cad818361137d565b386125d9565b604051602081019061267a81610fe1308561191a565b519020600154604051634c373c8d60e11b81526004810192909252600090829060249082906001600160a01b03165afa908115611549576000916126bc575090565b61167c913d8091833e6106d4818361137d565b6020818303126112ac5780519067ffffffffffffffff82116112ac57019080601f830112156112ac57815161167c92602001611727565b61270e612664565b6040516127386020828161272b8183019687815193849201611236565b810103808452018261137d565b5190209056fea2646970667358221220de42b6753999cb5b1355ec65ee597c5b9143c1fcff2b32dcb8e92ac49a5ac8bb64736f6c63430008110033",
    "linkReferences": {}
  },
  "methodIdentifiers": {
    "addToDeposit(uint256)": "8620891c",
    "arbitraryContractCall(address,uint256,bytes)": "923331d4",
    "claim()": "4e71d92d",
    "claim(address)": "1e83409a",
    "depositToPool()": "f9faa104",
    "distribute()": "e4fc6b6d",
    "distributeAndClaim()": "9278e714",
    "distributeAndClaimAll()": "55ec447f",
    "getDepositAmount(uint256)": "378de45b",
    "getDistributableShare(uint256)": "678e300a",
    "getIdsInThisPool()": "45b58fe4",
    "getPubKey()": "4ad02ef1",
    "getShare(uint256)": "cfb5a5f8",
    "getState()": "1865c57d",
    "getTotalDeposits()": "168a4822",
    "owner()": "8da5cb5b",
    "renounceOwnership()": "715018a6",
    "rugpull()": "e2664e49",
    "setArt(address)": "e6b1a3ae",
    "setPubKey(bytes,bytes,bytes,bytes32)": "e920eec0",
    "stake()": "3a4b66f1",
    "stake(bytes,bytes,bytes,bytes32)": "4b2b4e36",
    "transferOwnership(address)": "f2fde38b",
    "unstake()": "2def6620",
    "version()": "54fd4d50",
    "withdraw(uint256,uint256)": "441a3e70"
  },
  "id": 9
}