{
  "abi": [
    {
      "inputs": [
        {
          "internalType": "address",
          "name": "owner_",
          "type": "address"
        },
        {
          "internalType": "bool",
          "name": "validatorLocked_",
          "type": "bool"
        },
        {
          "internalType": "contract IFrensStorage",
          "name": "frensStorage_",
          "type": "address"
        }
      ],
      "stateMutability": "nonpayable",
      "type": "constructor"
    },
    {
      "anonymous": false,
      "inputs": [
        {
          "indexed": false,
          "internalType": "uint256",
          "name": "amount",
          "type": "uint256"
        },
        {
          "indexed": false,
          "internalType": "address",
          "name": "depositer",
          "type": "address"
        },
        {
          "indexed": false,
          "internalType": "uint256",
          "name": "id",
          "type": "uint256"
        }
      ],
      "name": "DepositToPool",
      "type": "event"
    },
    {
      "anonymous": false,
      "inputs": [
        {
          "indexed": false,
          "internalType": "address",
          "name": "sender",
          "type": "address"
        },
        {
          "indexed": false,
          "internalType": "address",
          "name": "to",
          "type": "address"
        },
        {
          "indexed": false,
          "internalType": "uint256",
          "name": "value",
          "type": "uint256"
        },
        {
          "indexed": false,
          "internalType": "bytes",
          "name": "data",
          "type": "bytes"
        },
        {
          "indexed": false,
          "internalType": "bytes",
          "name": "result",
          "type": "bytes"
        }
      ],
      "name": "ExecuteTransaction",
      "type": "event"
    },
    {
      "anonymous": false,
      "inputs": [
        {
          "indexed": true,
          "internalType": "address",
          "name": "previousOwner",
          "type": "address"
        },
        {
          "indexed": true,
          "internalType": "address",
          "name": "newOwner",
          "type": "address"
        }
      ],
      "name": "OwnershipTransferred",
      "type": "event"
    },
    {
      "anonymous": false,
      "inputs": [
        {
          "indexed": false,
          "internalType": "address",
          "name": "depositContractAddress",
          "type": "address"
        },
        {
          "indexed": false,
          "internalType": "address",
          "name": "caller",
          "type": "address"
        }
      ],
      "name": "Stake",
      "type": "event"
    },
    {
      "stateMutability": "payable",
      "type": "fallback"
    },
    {
      "inputs": [
        {
          "internalType": "uint256",
          "name": "_id",
          "type": "uint256"
        }
      ],
      "name": "addToDeposit",
      "outputs": [],
      "stateMutability": "payable",
      "type": "function"
    },
    {
      "inputs": [
        {
          "internalType": "uint256",
          "name": "id",
          "type": "uint256"
        }
      ],
      "name": "claim",
      "outputs": [],
      "stateMutability": "nonpayable",
      "type": "function"
    },
    {
      "inputs": [],
      "name": "depositToPool",
      "outputs": [],
      "stateMutability": "payable",
      "type": "function"
    },
    {
      "inputs": [],
      "name": "exitPool",
      "outputs": [],
      "stateMutability": "nonpayable",
      "type": "function"
    },
    {
      "inputs": [
        {
          "internalType": "uint256",
          "name": "_id",
          "type": "uint256"
        }
      ],
      "name": "getDepositAmount",
      "outputs": [
        {
          "internalType": "uint256",
          "name": "",
          "type": "uint256"
        }
      ],
      "stateMutability": "view",
      "type": "function"
    },
    {
      "inputs": [
        {
          "internalType": "uint256",
          "name": "_id",
          "type": "uint256"
        }
      ],
      "name": "getDistributableShare",
      "outputs": [
        {
          "internalType": "uint256",
          "name": "",
          "type": "uint256"
        }
      ],
      "stateMutability": "view",
      "type": "function"
    },
    {
      "inputs": [],
      "name": "getIdsInThisPool",
      "outputs": [
        {
          "internalType": "uint256[]",
          "name": "",
          "type": "uint256[]"
        }
      ],
      "stateMutability": "view",
      "type": "function"
    },
    {
      "inputs": [],
      "name": "getPubKey",
      "outputs": [
        {
          "internalType": "bytes",
          "name": "",
          "type": "bytes"
        }
      ],
      "stateMutability": "view",
      "type": "function"
    },
    {
      "inputs": [
        {
          "internalType": "uint256",
          "name": "_id",
          "type": "uint256"
        }
      ],
      "name": "getShare",
      "outputs": [
        {
          "internalType": "uint256",
          "name": "",
          "type": "uint256"
        }
      ],
      "stateMutability": "view",
      "type": "function"
    },
    {
      "inputs": [],
      "name": "getState",
      "outputs": [
        {
          "internalType": "string",
          "name": "",
          "type": "string"
        }
      ],
      "stateMutability": "view",
      "type": "function"
    },
    {
      "inputs": [],
      "name": "getTotalDeposits",
      "outputs": [
        {
          "internalType": "uint256",
          "name": "",
          "type": "uint256"
        }
      ],
      "stateMutability": "view",
      "type": "function"
    },
    {
      "inputs": [],
      "name": "owner",
      "outputs": [
        {
          "internalType": "address",
          "name": "",
          "type": "address"
        }
      ],
      "stateMutability": "view",
      "type": "function"
    },
    {
      "inputs": [],
      "name": "renounceOwnership",
      "outputs": [],
      "stateMutability": "nonpayable",
      "type": "function"
    },
    {
      "inputs": [],
      "name": "resetArt",
      "outputs": [],
      "stateMutability": "nonpayable",
      "type": "function"
    },
    {
      "inputs": [
        {
          "internalType": "address",
          "name": "newArtContract",
          "type": "address"
        }
      ],
      "name": "setArt",
      "outputs": [],
      "stateMutability": "nonpayable",
      "type": "function"
    },
    {
      "inputs": [
        {
          "internalType": "bytes",
          "name": "pubKey",
          "type": "bytes"
        },
        {
          "internalType": "bytes",
          "name": "withdrawal_credentials",
          "type": "bytes"
        },
        {
          "internalType": "bytes",
          "name": "signature",
          "type": "bytes"
        },
        {
          "internalType": "bytes32",
          "name": "deposit_data_root",
          "type": "bytes32"
        }
      ],
      "name": "setPubKey",
      "outputs": [],
      "stateMutability": "nonpayable",
      "type": "function"
    },
    {
      "inputs": [],
      "name": "stake",
      "outputs": [],
      "stateMutability": "nonpayable",
      "type": "function"
    },
    {
      "inputs": [
        {
          "internalType": "bytes",
          "name": "pubKey",
          "type": "bytes"
        },
        {
          "internalType": "bytes",
          "name": "withdrawal_credentials",
          "type": "bytes"
        },
        {
          "internalType": "bytes",
          "name": "signature",
          "type": "bytes"
        },
        {
          "internalType": "bytes32",
          "name": "deposit_data_root",
          "type": "bytes32"
        }
      ],
      "name": "stake",
      "outputs": [],
      "stateMutability": "nonpayable",
      "type": "function"
    },
    {
      "inputs": [
        {
          "internalType": "address",
          "name": "newOwner",
          "type": "address"
        }
      ],
      "name": "transferOwnership",
      "outputs": [],
      "stateMutability": "nonpayable",
      "type": "function"
    },
    {
      "inputs": [],
      "name": "version",
      "outputs": [
        {
          "internalType": "uint8",
          "name": "",
          "type": "uint8"
        }
      ],
      "stateMutability": "view",
      "type": "function"
    },
    {
      "inputs": [
        {
          "internalType": "uint256",
          "name": "_id",
          "type": "uint256"
        },
        {
          "internalType": "uint256",
          "name": "_amount",
          "type": "uint256"
        }
      ],
      "name": "withdraw",
      "outputs": [],
      "stateMutability": "nonpayable",
      "type": "function"
    },
    {
      "stateMutability": "payable",
      "type": "receive"
    }
  ],
  "bytecode": {
    "object": "0x6080604081815234620001d1576060826200254c8038038091620000248285620001d6565b833981010312620001d1576200003a82620001fa565b60209283810151908115158203620001d1578301516001600160a01b039182821691829003620001d1576200006f336200020f565b600180546001600160a01b0319808216851790925586516f636f6e74726163742e6164647265737360801b8982019081526d4672656e73506f6f6c536861726560901b6030830152601e825281890199929692906001600160401b038b11838c1017620001bb578a8a52825190206321f8a72160e01b8b526044830152808a602481895afa918215620001b0576000926200016c575b50506200013597985016906002541617600255600014620001505750506001805460ff60a01b191690556200020f565b6000805460ff60a01b19169055516122f59081620002578239f35b6001600160a81b031990911617600160a01b176001556200020f565b813d8311620001a8575b62000182818d620001d6565b81010312620001a557506200019c620001359798620001fa565b88973862000105565b80fd5b503d62000176565b89513d6000823e3d90fd5b634e487b7160e01b600052604160045260246000fd5b600080fd5b601f909101601f19168101906001600160401b03821190821017620001bb57604052565b51906001600160a01b0382168203620001d157565b600080546001600160a01b039283166001600160a01b03198216811783559216907f8be0079c531659141344cd1fd0a4f28419497f9722a3daafe3b4186f6b6457e09080a356fe6080604081815260048036101561001e575b505050361561001c57005b005b600092833560e01c908163168a482214611419575080631865c57d146113fb57806329917954146113345780632b97105a14611270578063378de45b14611211578063379607f514610e275780633a4b66f114610e02578063441a3e7014610bb957806345b58fe414610a475780634ad02ef114610a025780634b2b4e36146108f857806354fd4d50146108d5578063678e300a146108b5578063715018a6146108575780638620891c146106cb5780638da5cb5b1461069f578063cfb5a5f814610638578063e6b1a3ae14610481578063e920eec014610449578063f2fde38b1461037c5763f9faa1040361001157826003193601126102f75760ff60015460a01c16818110156103695760016101369114611529565b34156103325781519161018a6801bc16d674ec80000061018360209561017e87820161017483610166308461156e565b03601f1981018552846115fe565b349251902061175b565b611620565b1115611643565b838151928185808601956f636f6e74726163742e6164647265737360801b87526e233932b739a837b7b629b2ba3a32b960891b6030820152601f81526101cf816115c6565b519095206001600160a01b03959086906101e8906116f5565b16602486518094819363068b0e0760e41b835234888401525af1908115610328579061021b9184916102fb575b506116b9565b610247835186810190671d1bdad95b8b9a5960c21b82526008815261023f816115c6565b51902061175b565b9360025416803b156102f75760248392855194859384926335313c2160e11b845233908401525af180156102ed576102b3575b5091606091837fd91527a40417d48f76ba016aaa9157e2ddaca6cb5b660432901659cb075058fc9451923484523390840152820152a180f35b917fd91527a40417d48f76ba016aaa9157e2ddaca6cb5b660432901659cb075058fc9391946102e360609461159c565b949193509161027a565b82513d87823e3d90fd5b8280fd5b61031b9150873d8911610321575b61031381836115fe565b8101906116a1565b38610215565b503d610309565b84513d85823e3d90fd5b6020606492519162461bcd60e51b8352820152601260248201527136bab9ba103232b837b9b4ba1032ba3432b960711b6044820152fd5b634e487b7160e01b845260218252602484fd5b5090346102f75760203660031901126102f7576001600160a01b0382358181169390849003610445578454918216926103b63385146117c8565b84156103f35750506001600160a01b031916821783557f8be0079c531659141344cd1fd0a4f28419497f9722a3daafe3b4186f6b6457e08380a380f35b906020608492519162461bcd60e51b8352820152602660248201527f4f776e61626c653a206e6577206f776e657220697320746865207a65726f206160448201526564647265737360d01b6064820152fd5b8480fd5b833461047e5761047b61045b366114bf565b9561047660018060a09894989795971b038a541633146117c8565b611d6f565b80f35b80fd5b50346102f757602090816003193601126106345780356001600160a01b0381811691829003610630576104b88187541633146117c8565b845163516b636d60e11b81526001848201528681602481865afa9081156106265787916105cf575b5051156105955790602484926105388751858101906f636f6e74726163742e6164647265737360801b82526e233932b739a837b7b629b2ba3a32b960891b6030820152601f8152610530816115c6565b5190206116f5565b16938787519586948593637358d1d760e11b85528401525af19182156105885761047b9350849261056b575b50506116b9565b6105819250803d106103215761031381836115fe565b3880610564565b50505051903d90823e3d90fd5b845162461bcd60e51b815280840185905260146024820152731a5b9d985b1a5908185c9d0818dbdb9d1c9858dd60621b6044820152606490fd5b90503d8088833e6105e081836115fe565b810190858183031261061e5780519067ffffffffffffffff821161062257019080601f8301121561061e5781516106189287016118b9565b386104e0565b8780fd5b8880fd5b86513d89823e3d90fd5b8580fd5b8380fd5b50913461047e57602036600319011261047e5750610698602092356106936106838451868101906a1c1bdbdb0b999bdc8b9a5960aa1b825284602b820152602b8152610530816115e2565b6001600160a01b03163014611fa8565b612009565b9051908152f35b5050346106c757816003193601126106c757905490516001600160a01b039091168152602090f35b5080fd5b506020908160031936011261063457803560018060a01b036024848260025416875192838092634f558e7960e01b825287898301525afa90811561062657879161083a575b50156108035760ff60015460a01c16838110156107f057849291610738600160449314611529565b6107746801bc16d674ec80000061018361076d8a518881019061023f8161075f308561156e565b03601f1981018352826115fe565b3490611620565b6107b88751858101906f636f6e74726163742e6164647265737360801b82526e233932b739a837b7b629b2ba3a32b960891b6030820152601f8152610530816115c6565b1693878751958694859363010975af60e31b85528401523460248401525af19182156105885761047b9350849261056b5750506116b9565b634e487b7160e01b875260218452602487fd5b845162461bcd60e51b815280840185905260116024820152701a5908191bd95cc81b9bdd08195e1a5cdd607a1b6044820152606490fd5b6108519150853d87116103215761031381836115fe565b38610710565b833461047e578060031936011261047e57805481906001600160a01b038116906108823383146117c8565b6001600160a01b03191682557f8be0079c531659141344cd1fd0a4f28419497f9722a3daafe3b4186f6b6457e08280a380f35b50913461047e57602036600319011261047e57506106986020923561212b565b5050346106c757816003193601126106c75760ff6020925460a01c169051908152f35b5090346102f757610908366114bf565b9261092360018060a09998999594951b038b541633146117c8565b87519461095460208701876109383083611813565b039761094c601f19998a81018352826115fe565b51902061198d565b156109ea5750505050509061098f61099e92855161098760208201928261097b3086611840565b039081018352826115fe565b5190206118f0565b60208151910120923691611882565b60208151910120036109b55750505b61047b611a1e565b906020606492519162461bcd60e51b8352820152600f60248201526e0e0eac496caf240dad2e6dac2e8c6d608b1b6044820152fd5b9397509350936109fd9750949094611d6f565b6109ad565b5050346106c757816003193601126106c75780610a30610a43925160208101906109878161075f3085611840565b9051918291602083526020830190611467565b0390f35b508290346106c757816003193601126106c757825192602093848101906a1a591ccb9a5b8b9c1bdbdb60aa1b82523060601b602b820152601f8152610a8b816115c6565b519020936001948460018060a01b038754169160248551809481936378267eb560e11b8352898301525afa938415610baf578594610b01575b505092908094929451938080860192818752875180945286019601925b828110610aee5785870386f35b8351875295810195928101928401610ae1565b909193503d8086843e610b1481846115fe565b820190848383031261063057825167ffffffffffffffff9384821161061e57019082601f83011215610b98578151938411610b9c57508260051b90845193610b5e878401866115fe565b84528580850192820101928311610b985785809101915b838310610b885750505050918580610ac4565b8251815291810191869101610b75565b8680fd5b634e487b7160e01b875260419052602486fd5b83513d87823e3d90fd5b509190346106c757806003193601126106c75782359260249384359060ff60015460a01c1683811015610df057600103610dae5760025484516331a9108f60e11b8152808501839052602094916001600160a01b039190869082908b90829086165afa908115610da4579082918991610d77575b50163303610d455783610c4e87518781019061023f8161075f893086611f73565b10610d0c57916044859288809a95610ca28a9b9a51878101906f636f6e74726163742e6164647265737360801b82526e233932b739a837b7b629b2ba3a32b960891b6030820152601f8152610530816115c6565b16878b519788968795630441a3e760e41b87528601528401525af1918215610d0257849384938493610cdb92859261056b5750506116b9565b818115610cf9575b3390f115610cef575080f35b51903d90823e3d90fd5b506108fc610ce3565b85513d86823e3d90fd5b855162461bcd60e51b81528083018690526014818a0152731b9bdd08195b9bdd59da0819195c1bdcda5d195960621b6044820152606490fd5b855162461bcd60e51b8152808301869052600d818a01526c3737ba103a34329037bbb732b960991b6044820152606490fd5b610d979150873d8911610d9d575b610d8f81836115fe565b8101906116d6565b38610c2d565b503d610d85565b87513d8a823e3d90fd5b835162461bcd60e51b8152602081850152601b818801527f63616e6e6f74207769746864726177206f6e6365207374616b656400000000006044820152606490fd5b634e487b7160e01b8652602184528686fd5b833461047e578060031936011261047e576109ad60018060a01b0382541633146117c8565b509190346106c7576020806003193601126102f757833593610e6c8351838101906a1c1bdbdb0b999bdc8b9a5960aa1b825287602b820152602b8152610530816115e2565b6001600160a01b039290610e839084163014611fa8565b60ff60015460a01c16828110156111fe57600181146111bb57606447111561116a5760031461116257848184610eef8751838101906f636f6e74726163742e6164647265737360801b82526a4672656e734f7261636c6560a81b6030820152601b8152610530816115c6565b16602487518094819363404df7b160e11b835230898401525af190811561115857869161113b575b50955b610f2381612009565b96868386610f6b8951838101906f636f6e74726163742e6164647265737360801b82526e233932b739a837b7b629b2ba3a32b960891b6030820152601f8152610530816115c6565b169260648b8a519485938492632ec5bc4560e11b8452898c85015260248401521596871560448401525af1908115610da45790610fae91899161112457506116b9565b610fd68651848101906b70726f746f636f6c2e66656560a01b8252600c815261023f816115c6565b90811515908161111c575b5061106a575b50958186976024866002999899541695895196879384926331a9108f60e11b84528301525afa8015611060578594859485948593611041575b505083918315611037575b1690f115610cef575080f35b6108fc925061102b565b611058929350803d10610d9d57610d8f81836115fe565b903880611020565b86513d87823e3d90fd5b606461109f896110998951878101906c1999594b9c9958da5c1a595b9d609a1b8252600d8152610530816115c6565b93611fe9565b0490600182116110c4575b506110ba83918899989798611ffc565b9750959495610fe7565b60001982019890828a116111095797808080809c819b9c8b839183156110ff575b1690f1156110f5579796956110aa565b87513d88823e3d90fd5b6108fc92506110e5565b634e487b7160e01b895260118652602489fd5b905038610fe1565b61031b9150853d87116103215761031381836115fe565b6111529150823d84116103215761031381836115fe565b38610f17565b85513d88823e3d90fd5b600195610f1a565b845162461bcd60e51b8152808401839052602560248201527f6d7573742062652067726561746572207468616e203130302077656920746f20604482015264636c61696d60d81b6064820152608490fd5b845162461bcd60e51b8152808401839052601c60248201527f757365207769746864726177207768656e206e6f74207374616b6564000000006044820152606490fd5b634e487b7160e01b865260218352602486fd5b50913461047e57602036600319011261047e57506106986020923561125c6106838451868101906a1c1bdbdb0b999bdc8b9a5960aa1b825284602b820152602b8152610530816115e2565b825161023f8161075f878201943086611f73565b50346102f757826003193601126102f757602083602460018060a01b0361129b8184541633146117c8565b6112df8651858101906f636f6e74726163742e6164647265737360801b82526e233932b739a837b7b629b2ba3a32b960891b6030820152601f8152610530816115c6565b16938286519586948593637358d1d760e11b85528401525af19081156113285761047b9250839161131057506116b9565b61031b915060203d81116103215761031381836115fe565b505051903d90823e3d90fd5b5090346102f757826003193601126102f757805161139a602082016f636f6e74726163742e6164647265737360801b81526a4672656e734f7261636c6560a81b6030840152601b8352611386836115c6565b91519091206001600160a01b0391906116f5565b1633036113b8576001805460ff60a01b1916600360a01b1790558280f35b906020606492519162461bcd60e51b8352820152601860248201527f6d7573742062652063616c6c6564206279206f7261636c6500000000000000006044820152fd5b5050346106c757816003193601126106c757610a4390610a306121b9565b83853461047e578060031936011261047e57506106988260208094019061023f8161075f308561156e565b60005b8381106114575750506000910152565b8181015183820152602001611447565b9060209161148081518092818552858086019101611444565b601f01601f1916010190565b9181601f840112156114ba5782359167ffffffffffffffff83116114ba57602083818601950101116114ba57565b600080fd5b9060806003198301126114ba5767ffffffffffffffff6004358181116114ba57836114ec9160040161148c565b939093926024358381116114ba57826115079160040161148c565b939093926044359182116114ba576115219160040161148c565b909160643590565b1561153057565b60405162461bcd60e51b81526020600482015260166024820152756e6f7420616363657074696e67206465706f7369747360501b6044820152606490fd5b6022916d746f74616c2e6465706f7369747360901b82526001600160601b03199060601b16600e8201520190565b67ffffffffffffffff81116115b057604052565b634e487b7160e01b600052604160045260246000fd5b6040810190811067ffffffffffffffff8211176115b057604052565b6060810190811067ffffffffffffffff8211176115b057604052565b90601f8019910116810190811067ffffffffffffffff8211176115b057604052565b9190820180921161162d57565b634e487b7160e01b600052601160045260246000fd5b1561164a57565b60405162461bcd60e51b815260206004820152602960248201527f746f74616c206465706f736974732063616e6e6f74206265206d6f72652074686044820152680c2dc406664408ae8d60bb1b6064820152608490fd5b908160209103126114ba575180151581036114ba5790565b156116c057565b634e487b7160e01b600052600160045260246000fd5b908160209103126114ba57516001600160a01b03811681036114ba5790565b6001546040516321f8a72160e01b81526004810192909252602090829060249082906001600160a01b03165afa90811561174f57600091611734575090565b61174c915060203d8111610d9d57610d8f81836115fe565b90565b6040513d6000823e3d90fd5b60015460405163bd02d0f560e01b81526004810192909252602090829060249082906001600160a01b03165afa90811561174f5760009161179a575090565b906020823d82116117c0575b816117b3602093836115fe565b8101031261047e57505190565b3d91506117a6565b156117cf57565b606460405162461bcd60e51b815260206004820152602060248201527f4f776e61626c653a2063616c6c6572206973206e6f7420746865206f776e65726044820152fd5b6021916c1d985b1a59185d1bdc8b9cd95d609a1b82526001600160601b03199060601b16600d8201520190565b601a91657075624b657960d01b82526001600160601b03199060601b1660068201520190565b67ffffffffffffffff81116115b057601f01601f191660200190565b92919261188e82611866565b9161189c60405193846115fe565b8294818452818301116114ba578281602093846000960137010152565b909291926118c681611866565b916118d460405193846115fe565b8294828452828201116114ba5760206118ee930190611444565b565b600154604051630180634360e71b815260048101929092526000908190839060249082906001600160a01b03165afa91821561198057819261193157505090565b909291503d8084833e61194481836115fe565b8101906020818303126106345780519067ffffffffffffffff8211610445570181601f820112156106345761174c9293506020815191016118b9565b50604051903d90823e3d90fd5b600154604051633d70e7e560e11b81526004810192909252602090829060249082906001600160a01b03165afa90811561174f576000916119cc575090565b61174c915060203d81116103215761031381836115fe565b156119eb57565b60405162461bcd60e51b815260206004820152600b60248201526a77726f6e6720737461746560a81b6044820152606490fd5b6801bc16d674ec80000090814710611d18576001549160ff8360a01c166004811015611d02576001611a5091146119e4565b6040908151602090611a7d82820182611a693083611813565b039261094c601f19948581018352826115fe565b15611cca57611a9a908451610987848201928261097b3086611840565b835195611ad7838801757769746864726177616c5f63726564656e7469616c7360501b81523060601b98896036820152602a8152610987816115e2565b93611b03865185810190687369676e617475726560b81b82528a6029820152601d8152610987816115c6565b978651858101917019195c1bdcda5d17d9185d1857dc9bdbdd607a1b8352603182015260258152611b33816115e2565b5190208651635376ab1f60e11b81526004810191909152916001600160a01b039085846024818585165afa938415611cbf57600094611c90575b50611bbf8851878101907f65787465726e616c2e636f6e74726163742e616464726573730000000000000082526e11195c1bdcda5d10dbdb9d1c9858dd608a1b603982015260288152610530816115e2565b60ff60a01b19909116600160a11b176001551694853b156114ba57600093611c1f93611c2e611c0c938a519c8d97889687966304512a2360e31b8852608060048901526084880190611467565b6003199384888303016024890152611467565b91858303016044860152611467565b9060648301520391865af1948515611c85577f72b356fd889b9abd3530accd2c9f4aecbce67d70757181f9f862ac91464ce1929495611c76575b5082519182523390820152a1565b611c7f9061159c565b38611c68565b83513d6000823e3d90fd5b90938682813d8311611cb8575b611ca781836115fe565b8101031261047e5750519238611b6d565b503d611c9d565b88513d6000823e3d90fd5b835162461bcd60e51b81526004810183905260116024820152701d985b1a59185d1bdc881b9bdd081cd95d607a1b6044820152606490fd5b634e487b7160e01b600052602160045260246000fd5b60405162461bcd60e51b815260206004820152600e60248201526d0dcdee840cadcdeeaced040cae8d60931b6044820152606490fd5b908060209392818452848401376000828201840152601f01601f1916010190565b96959293949096600160f81b30019586301161162d576040988951602098898201908152898252611d9f826115c6565b611daa368a89611882565b8a81519101209151902003611f2f57611dee8a51898101906f1d985b1a59185d1bdc8b9b1bd8dad95960821b82523060601b60308201526024815261094c816115e2565b611edd575b60ff60015460a01c16956004871015611d0257611ead611e8a968c96600095611e1f60018e9c146119e4565b611e9e8951611e658d82016f636f6e74726163742e6164647265737360801b81526e233932b739a837b7b629b2ba3a32b960891b6030840152601f8352611386836115c6565b1699519c8d9b8c9a8b996303a483bb60e61b8b52608060048c015260848b0191611d4e565b9060031995868a84030160248b0152611d4e565b92868403016044870152611d4e565b90606483015203925af1918215611ed2576118ee93945060009261056b5750506116b9565b84513d6000823e3d90fd5b60015460ff8160a01c166004811015611d0257611efa90156119e4565b611f1a611f148c518b81019061094c8161075f3085611813565b156116b9565b60ff60a01b1916600160a01b17600155611df3565b895162461bcd60e51b815260048101899052601e60248201527f7769746864726177616c2063726564656e7469616c206d69736d6174636800006044820152606490fd5b90916042926d19195c1bdcda5d0b985b5bdd5b9d60921b83526001600160601b03199060601b16600e83015260228201520190565b15611faf57565b60405162461bcd60e51b81526020600482015260126024820152711ddc9bdb99c81cdd185ada5b99c81c1bdbdb60721b6044820152606490fd5b8181029291811591840414171561162d57565b9190820391821161162d57565b47156121255760405161205361203c6020830183612028863084611f73565b039361023f601f19958681018352826115fe565b9160405161023f60208201928261097b308661156e565b9060405190602082016f6672656e2e706173742e636c61696d7360801b81523060601b94856030850152604484015260448352608083019280841067ffffffffffffffff8511176115b0576120b86120eb926120e5926120f19660405251902061175b565b9560405160208101916b746f74616c2e636c61696d7360a01b8352602c8201526020815261023f816115c6565b47611620565b90611fe9565b811561210f57049081156121085761174c91611ffc565b5050600090565b634e487b7160e01b600052601260045260246000fd5b50600090565b60ff60015460a01c16906004821015611d02576001820361214d575050600090565b61215690612009565b9061218160405160208101906b70726f746f636f6c2e66656560a01b8252600c815261023f816115c6565b9081151590816121ad575b50612195575090565b9060646121a661174c934790611fe9565b0490611ffc565b6003915014153861218c565b60ff60015460a01c166004811015611d025780156122855760028114612262576001811461223357600314612211576040516121f4816115c6565b600d81526c7374617465206661696c75726560981b602082015290565b60405161221d816115c6565b6006815265195e1a5d195960d21b602082015290565b50604051612240816115c6565b6012815271616363657074696e67206465706f7369747360701b602082015290565b5060405161226f816115c6565b60068152651cdd185ad95960d21b602082015290565b50604051612292816115c6565b601781527f6177616974696e672076616c696461746f7220696e666f00000000000000000060208201529056fea2646970667358221220c9b8d073470da925a01b761b6734029a76ea208a6f77b96bb3dea334c7dadd6b64736f6c63430008110033",
    "linkReferences": {}
  },
  "methodIdentifiers": {
    "addToDeposit(uint256)": "8620891c",
    "claim(uint256)": "379607f5",
    "depositToPool()": "f9faa104",
    "exitPool()": "29917954",
    "getDepositAmount(uint256)": "378de45b",
    "getDistributableShare(uint256)": "678e300a",
    "getIdsInThisPool()": "45b58fe4",
    "getPubKey()": "4ad02ef1",
    "getShare(uint256)": "cfb5a5f8",
    "getState()": "1865c57d",
    "getTotalDeposits()": "168a4822",
    "owner()": "8da5cb5b",
    "renounceOwnership()": "715018a6",
    "resetArt()": "2b97105a",
    "setArt(address)": "e6b1a3ae",
    "setPubKey(bytes,bytes,bytes,bytes32)": "e920eec0",
    "stake()": "3a4b66f1",
    "stake(bytes,bytes,bytes,bytes32)": "4b2b4e36",
    "transferOwnership(address)": "f2fde38b",
    "version()": "54fd4d50",
    "withdraw(uint256,uint256)": "441a3e70"
  },
  "id": 14
}