{
  "abi": [
    {
      "inputs": [
        {
          "internalType": "address",
          "name": "depositContractAddress_",
          "type": "address"
        },
        {
          "internalType": "address",
          "name": "factory_",
          "type": "address"
        },
        {
          "internalType": "address",
          "name": "frensPoolShareAddress_",
          "type": "address"
        },
        {
          "internalType": "address",
          "name": "owner_",
          "type": "address"
        }
      ],
      "stateMutability": "nonpayable",
      "type": "constructor"
    },
    {
      "anonymous": false,
      "inputs": [
        {
          "indexed": false,
          "internalType": "uint256",
          "name": "amount",
          "type": "uint256"
        },
        {
          "indexed": false,
          "internalType": "address",
          "name": "depositer",
          "type": "address"
        }
      ],
      "name": "DepositToPool",
      "type": "event"
    },
    {
      "anonymous": false,
      "inputs": [
        {
          "indexed": true,
          "internalType": "address",
          "name": "previousOwner",
          "type": "address"
        },
        {
          "indexed": true,
          "internalType": "address",
          "name": "newOwner",
          "type": "address"
        }
      ],
      "name": "OwnershipTransferred",
      "type": "event"
    },
    {
      "anonymous": false,
      "inputs": [
        {
          "indexed": false,
          "internalType": "address",
          "name": "depositContractAddress",
          "type": "address"
        },
        {
          "indexed": false,
          "internalType": "address",
          "name": "caller",
          "type": "address"
        }
      ],
      "name": "Stake",
      "type": "event"
    },
    {
      "stateMutability": "payable",
      "type": "fallback"
    },
    {
      "inputs": [
        {
          "internalType": "uint256",
          "name": "_id",
          "type": "uint256"
        }
      ],
      "name": "addToDeposit",
      "outputs": [],
      "stateMutability": "payable",
      "type": "function"
    },
    {
      "inputs": [
        {
          "internalType": "uint256",
          "name": "",
          "type": "uint256"
        }
      ],
      "name": "depositAmount",
      "outputs": [
        {
          "internalType": "uint256",
          "name": "",
          "type": "uint256"
        }
      ],
      "stateMutability": "view",
      "type": "function"
    },
    {
      "inputs": [],
      "name": "depositContractAddress",
      "outputs": [
        {
          "internalType": "address",
          "name": "",
          "type": "address"
        }
      ],
      "stateMutability": "view",
      "type": "function"
    },
    {
      "inputs": [],
      "name": "depositToPool",
      "outputs": [],
      "stateMutability": "payable",
      "type": "function"
    },
    {
      "inputs": [],
      "name": "distribute",
      "outputs": [],
      "stateMutability": "nonpayable",
      "type": "function"
    },
    {
      "inputs": [
        {
          "internalType": "uint256",
          "name": "_id",
          "type": "uint256"
        }
      ],
      "name": "getDepositAmount",
      "outputs": [
        {
          "internalType": "uint256",
          "name": "",
          "type": "uint256"
        }
      ],
      "stateMutability": "view",
      "type": "function"
    },
    {
      "inputs": [
        {
          "internalType": "uint256",
          "name": "_id",
          "type": "uint256"
        }
      ],
      "name": "getDistributableShare",
      "outputs": [
        {
          "internalType": "uint256",
          "name": "",
          "type": "uint256"
        }
      ],
      "stateMutability": "view",
      "type": "function"
    },
    {
      "inputs": [],
      "name": "getPubKey",
      "outputs": [
        {
          "internalType": "bytes",
          "name": "",
          "type": "bytes"
        }
      ],
      "stateMutability": "view",
      "type": "function"
    },
    {
      "inputs": [
        {
          "internalType": "uint256",
          "name": "_id",
          "type": "uint256"
        }
      ],
      "name": "getShare",
      "outputs": [
        {
          "internalType": "uint256",
          "name": "",
          "type": "uint256"
        }
      ],
      "stateMutability": "view",
      "type": "function"
    },
    {
      "inputs": [],
      "name": "getState",
      "outputs": [
        {
          "internalType": "string",
          "name": "",
          "type": "string"
        }
      ],
      "stateMutability": "view",
      "type": "function"
    },
    {
      "inputs": [
        {
          "internalType": "uint256",
          "name": "",
          "type": "uint256"
        }
      ],
      "name": "idsInThisPool",
      "outputs": [
        {
          "internalType": "uint256",
          "name": "",
          "type": "uint256"
        }
      ],
      "stateMutability": "view",
      "type": "function"
    },
    {
      "inputs": [],
      "name": "owner",
      "outputs": [
        {
          "internalType": "address",
          "name": "",
          "type": "address"
        }
      ],
      "stateMutability": "view",
      "type": "function"
    },
    {
      "inputs": [],
      "name": "renounceOwnership",
      "outputs": [],
      "stateMutability": "nonpayable",
      "type": "function"
    },
    {
      "inputs": [],
      "name": "rugpull",
      "outputs": [],
      "stateMutability": "nonpayable",
      "type": "function"
    },
    {
      "inputs": [
        {
          "internalType": "address",
          "name": "frensPoolShareAddress_",
          "type": "address"
        }
      ],
      "name": "setFrensPoolShare",
      "outputs": [],
      "stateMutability": "nonpayable",
      "type": "function"
    },
    {
      "inputs": [
        {
          "internalType": "bytes",
          "name": "publicKey",
          "type": "bytes"
        }
      ],
      "name": "setPubKey",
      "outputs": [],
      "stateMutability": "nonpayable",
      "type": "function"
    },
    {
      "inputs": [
        {
          "internalType": "bytes",
          "name": "pubkey",
          "type": "bytes"
        },
        {
          "internalType": "bytes",
          "name": "withdrawal_credentials",
          "type": "bytes"
        },
        {
          "internalType": "bytes",
          "name": "signature",
          "type": "bytes"
        },
        {
          "internalType": "bytes32",
          "name": "deposit_data_root",
          "type": "bytes32"
        }
      ],
      "name": "stake",
      "outputs": [],
      "stateMutability": "nonpayable",
      "type": "function"
    },
    {
      "inputs": [],
      "name": "totalDeposits",
      "outputs": [
        {
          "internalType": "uint256",
          "name": "",
          "type": "uint256"
        }
      ],
      "stateMutability": "view",
      "type": "function"
    },
    {
      "inputs": [
        {
          "internalType": "address",
          "name": "newOwner",
          "type": "address"
        }
      ],
      "name": "transferOwnership",
      "outputs": [],
      "stateMutability": "nonpayable",
      "type": "function"
    },
    {
      "inputs": [],
      "name": "unstake",
      "outputs": [],
      "stateMutability": "nonpayable",
      "type": "function"
    },
    {
      "inputs": [],
      "name": "validatorPubKey",
      "outputs": [
        {
          "internalType": "bytes",
          "name": "",
          "type": "bytes"
        }
      ],
      "stateMutability": "view",
      "type": "function"
    },
    {
      "inputs": [
        {
          "internalType": "uint256",
          "name": "_id",
          "type": "uint256"
        },
        {
          "internalType": "uint256",
          "name": "_amount",
          "type": "uint256"
        }
      ],
      "name": "withdraw",
      "outputs": [],
      "stateMutability": "nonpayable",
      "type": "function"
    },
    {
      "stateMutability": "payable",
      "type": "receive"
    }
  ],
  "bytecode": {
    "object": "0x6080346200010257601f620018f338819003918201601f19168301916001600160401b03831184841017620001075780849260809460405283398101031262000102578062000052620000f2926200011d565b9062000061602082016200011d565b6200007d606062000075604085016200011d565b93016200011d565b92620000893362000132565b600480546001600160a81b031916600892831b610100600160a81b03161790819055600680546001600160a01b031990811692841c6001600160a01b03908116939093179091556007805482169483169490941790935581549092169190921617905562000132565b60405161177990816200017a8239f35b600080fd5b634e487b7160e01b600052604160045260246000fd5b51906001600160a01b03821682036200010257565b600080546001600160a01b039283166001600160a01b03198216811783559216907f8be0079c531659141344cd1fd0a4f28419497f9722a3daafe3b4186f6b6457e09080a356fe60806040526004361015610018575b361561001657005b005b6000803560e01c80631865c57d14610ffc5780632a4dbd2b14610fcf5780632def662014610fa65780632edaf74d14610f55578063378de45b146105db578063441a3e7014610d9d5780634ad02ef114610d815780634b2b4e3614610970578063678e300a14610951578063715018a6146108f25780637be0b4a01461081e5780637d8820971461080057806382a790cf146107c65780638620891c1461060557806387f8ab26146105db5780638da5cb5b146105b4578063cfb5a5f81461058c578063e2664e491461053a578063e32d291314610405578063e4fc6b6d146103e9578063f2fde38b146103165763f9faa10414610116575061000e565b806003193601126103135760ff6004541660038110156102ff5761013a901561126d565b34156102c557600854604051632798987d60e11b81526020916001600160a01b0390839083906004908290889086165af19182156102ba578492610287575b5081845260018352346040852055610193346002546112b2565b600255600354680100000000000000008110156102735790826101be836001889695016003556111d9565b819291549060031b600019811b9283911b169119161790556008541690813b1561026f578291606483926040519485938492630d4d151360e01b845233600485015260248401523060448401525af180156102645761024c575b507f1ed12c9855bd60407f7650e01c62ee4f0f40744b5b17983eec349a2b4e89981a6040838151903482523390820152a180f35b610255906110c5565b610260578138610218565b5080fd5b6040513d84823e3d90fd5b8280fd5b634e487b7160e01b85526041600452602485fd5b9091508281813d83116102b3575b61029f818361110b565b810103126102af57519038610179565b8380fd5b503d610295565b6040513d86823e3d90fd5b60405162461bcd60e51b815260206004820152601260248201527136bab9ba103232b837b9b4ba1032ba3432b960711b6044820152606490fd5b634e487b7160e01b82526021600452602482fd5b80fd5b5034610313576020366003190112610313576004356001600160a01b038181169182900361026f5761034c818454163314611597565b811561039557600054826bffffffffffffffffffffffff60a01b821617600055167f8be0079c531659141344cd1fd0a4f28419497f9722a3daafe3b4186f6b6457e0600080a380f35b60405162461bcd60e51b815260206004820152602660248201527f4f776e61626c653a206e6577206f776e657220697320746865207a65726f206160448201526564647265737360d01b6064820152608490fd5b5034610313578060031936011261031357610402611301565b80f35b503461031357602090816003193601126103135767ffffffffffffffff60043581811161026f573660238201121561026f5761044b903690602481600401359101611226565b9261046060018060a01b038454163314611597565b83519182116105265761047d8261047860055461108b565b6115e2565b80601f83116001146104b7575082938293926104ac575b50508160011b916000199060031b1c19161760055580f35b015190503880610494565b60058452601f19831694600080516020611724833981519152929185905b87821061050e5750508360019596106104f5575b505050811b0160055580f35b015160001960f88460031b161c191690553880806104e9565b806001859682949686015181550195019301906104d5565b634e487b7160e01b83526041600452602483fd5b503461031357806003193601126103135761055f60018060a01b038254163314611597565b8080808047818115610583575b3390f1156105775780f35b604051903d90823e3d90fd5b506108fc61056c565b50346103135760203660031901126103135760206105ac476004356114c5565b604051908152f35b5034610313578060031936011261031357546040516001600160a01b039091168152602090f35b50346103135760203660031901126103135760406020916004358152600183522054604051908152f35b50602080600319360112610260576004359060018060a01b0383828260085416602460405180948193634f558e7960e01b83528960048401525af190811561075057859161078c575b501561075b5780826024926008541660405193848092630178b36760e31b82528860048301525afa918215610750578592610721575b50309116036106e85760ff6004541660038110156106d457156106a68161126d565b1561026f57600191835252604081206106c03482546112b2565b90556106ce346002546112b2565b60025580f35b634e487b7160e01b84526021600452602484fd5b6064906040519062461bcd60e51b8252600482015260126024820152711ddc9bdb99c81cdd185ada5b99c81c1bdbdb60721b6044820152fd5b610742919250833d8511610749575b61073a818361110b565b8101906112d5565b9038610684565b503d610730565b6040513d87823e3d90fd5b60405162461bcd60e51b81526004810183905260096024820152681b9bdd08195e1a5cdd60ba1b6044820152606490fd5b90508281813d83116107bf575b6107a3818361110b565b810103126107bb575180151581036107bb573861064e565b8480fd5b503d610799565b503461031357602036600319011261031357600435906003548210156103135760206107f1836111d9565b90549060031b1c604051908152f35b50346103135780600319360112610313576020600254604051908152f35b503461031357806003193601126103135760405160006005546108408161108b565b808452906001908181169081156108cb5750600114610882575b61087e8461086a8186038261110b565b604051918291602083526020830190611018565b0390f35b6005600090815292506000805160206117248339815191525b8284106108b357505050810160200161086a8261085a565b8054602085870181019190915290930192810161089b565b60ff191660208087019190915292151560051b8501909201925061086a915083905061085a565b5034610313578060031936011261031357600060018060a01b0361091a818454163314611597565b81546001600160a01b031981168355167f8be0079c531659141344cd1fd0a4f28419497f9722a3daafe3b4186f6b6457e08280a380f35b50346103135760203660031901126103135760206105ac60043561155a565b5034610313576003196080368201126102605767ffffffffffffffff6004358181116102af576109a4903690600401611058565b9092602435838111610d7d576109be903690600401611058565b949093604435818111610b81576109d9903690600401611058565b9490916109f060018060a01b038a54163314611597565b6801bc16d674ec8000004710610d475760ff600454166003811015610d3357610d0057610a1b61112d565b805160209091012060605160802014610c2e5750610a3761112d565b60208151910120610a49368386611226565b6020815191012003610bde575b600160ff196004541617600455600160f81b3001803011610bca57604051906020820190815260208252610a89826110ef565b610a94368a8a611226565b602081519101209151902003610b855760065488966001600160a01b0390911694853b15610b8157610af7966801bc16d674ec80000094610b07610b16946040519c8d9b8c9a8b996304512a2360e31b8b52608060048c015260848b0191611702565b91868984030160248a0152611702565b92858403016044860152611702565b606435606483015203925af1801561026457610b72575b506004546040805160089290921c6001600160a01b031682523360208301527f72b356fd889b9abd3530accd2c9f4aecbce67d70757181f9f862ac91464ce19291a180f35b610b7b906110c5565b38610b2d565b8780fd5b60405162461bcd60e51b815260206004820152601e60248201527f7769746864726177616c2063726564656e7469616c206d69736d6174636800006044820152606490fd5b634e487b7160e01b89526011600452602489fd5b60405162461bcd60e51b815260206004820152602260248201527f7075626b657920646f6573206e6f74206d617463682073746f7265642076616c604482015261756560f01b6064820152608490fd5b8111610cec57610c438161047860055461108b565b8088601f8211600114610c7b578991610c70575b508160011b906000198360031b1c191617600555610a56565b905083013538610c57565b60058a526000805160206117248339815191529150895b601f1984168110610cd4575082601f19811610610cba575b5050600181811b01600555610a56565b840135600019600384901b60f8161c191690553880610caa565b90916020600181928589013581550193019101610c92565b634e487b7160e01b88526041600452602488fd5b60405162461bcd60e51b815260206004820152600b60248201526a77726f6e6720737461746560a81b6044820152606490fd5b634e487b7160e01b8a52602160045260248afd5b60405162461bcd60e51b815260206004820152600e60248201526d0dcdee840cadcdeeaced040cae8d60931b6044820152606490fd5b8580fd5b503461031357806003193601126103135761087e61086a61112d565b5034610313576040366003190112610313576004359060249182359060ff600454166003811015610f4157600114610efd576008546040516331a9108f60e11b815260048101839052602092916001600160a01b039190849082908990829086165afa908115610ef2578691610ed5575b50163303610ea1578084526001825282604085205410610e665783809360018294839484525260408220610e438282546112f4565b9055610e51816002546112f4565b600255818115610583573390f1156105775780f35b60405162461bcd60e51b815260048101839052601481870152731b9bdd08195b9bdd59da0819195c1bdcda5d195960621b6044820152606490fd5b60405162461bcd60e51b815260048101839052600d818701526c3737ba103a34329037bbb732b960991b6044820152606490fd5b610eec9150843d86116107495761073a818361110b565b38610e0e565b6040513d88823e3d90fd5b60405162461bcd60e51b815260206004820152601b818601527f63616e6e6f74207769746864726177206f6e6365207374616b656400000000006044820152606490fd5b5050634e487b7160e01b8252506021600452fd5b5034610313576020366003190112610313576004356001600160a01b038181169182900361026f57610f8b908354163314611597565b6bffffffffffffffffffffffff60a01b600854161760085580f35b5034610313578060031936011261031357610fbf611301565b600260ff19600454161760045580f35b503461031357806003193601126103135760045460405160089190911c6001600160a01b03168152602090f35b503461031357806003193601126103135761087e61086a611641565b919082519283825260005b848110611044575050826000602080949584010152601f8019910116010190565b602081830181015184830182015201611023565b9181601f840112156110865782359167ffffffffffffffff8311611086576020838186019501011161108657565b600080fd5b90600182811c921680156110bb575b60208310146110a557565b634e487b7160e01b600052602260045260246000fd5b91607f169161109a565b67ffffffffffffffff81116110d957604052565b634e487b7160e01b600052604160045260246000fd5b6040810190811067ffffffffffffffff8211176110d957604052565b90601f8019910116810190811067ffffffffffffffff8211176110d957604052565b60405190600082600554916111418361108b565b808352926001908181169081156111b7575060011461116a575b506111689250038361110b565b565b6005600090815291506000805160206117248339815191525b84831061119c575061116893505081016020013861115b565b81935090816020925483858a01015201910190918592611183565b90506020925061116894915060ff191682840152151560051b8201013861115b565b6003548110156112105760036000527fc2575a0e9e593c00f959f8c92f12db2869c3395a3b0502d05e2516446f71f85b0190600090565b634e487b7160e01b600052603260045260246000fd5b92919267ffffffffffffffff82116110d95760405191611250601f8201601f19166020018461110b565b829481845281830111611086578281602093846000960137010152565b1561127457565b60405162461bcd60e51b81526020600482015260166024820152756e6f7420616363657074696e67206465706f7369747360501b6044820152606490fd5b919082018092116112bf57565b634e487b7160e01b600052601160045260246000fd5b9081602091031261108657516001600160a01b03811681036110865790565b919082039182116112bf57565b60049060ff825416600392838210156114b057600180920361146c5747606481111561142857600094835b611339575b505050509050565b80548610156114235761134b866111d9565b905490821b1c60018060a01b03806008541691604092835180916331a9108f60e11b8252838983015281602460209485935afa91821561141857936000949385949389869594869586936113f5575b50506113a691926114c5565b91839183156113eb575b1690f1156113e1575060001986146113cc57948301948361132c565b601183634e487b7160e01b6000525260246000fd5b513d6000823e3d90fd5b6108fc92506113b0565b6113a69350908161141192903d106107495761073a818361110b565b913861139a565b85513d6000823e3d90fd5b611331565b60405162461bcd60e51b8152602081840181905260248201527f6d696e696d756d206f66203130302077656920746f20646973747269627574656044820152606490fd5b60649060206040519162461bcd60e51b8352820152601c60248201527f757365207769746864726177207768656e206e6f74207374616b6564000000006044820152fd5b602190634e487b7160e01b6000525260246000fd5b9060009182526001602052604082205415611556576040822054908181029181830414901517156115425760025490811561152e5704906001821115611529576000198201918211611515575090565b634e487b7160e01b81526011600452602490fd5b905090565b634e487b7160e01b83526012600452602483fd5b634e487b7160e01b82526011600452602482fd5b5090565b60ff600454166003811015611581576115735750600090565b61157e9047906114c5565b90565b634e487b7160e01b600052602160045260246000fd5b1561159e57565b606460405162461bcd60e51b815260206004820152602060248201527f4f776e61626c653a2063616c6c6572206973206e6f7420746865206f776e65726044820152fd5b601f81116115ee575050565b60009060058252600080516020611724833981519152906020601f850160051c83019410611637575b601f0160051c01915b82811061162c57505050565b818155600101611620565b9092508290611617565b60ff60045416600381101561158157600181146116df5780156116b05760021461168e57604051611671816110ef565b600d81526c7374617465206661696c75726560981b602082015290565b60405161169a816110ef565b6006815265195e1a5d195960d21b602082015290565b506040516116bd816110ef565b6012815271616363657074696e67206465706f7369747360701b602082015290565b506040516116ec816110ef565b60068152651cdd185ad95960d21b602082015290565b908060209392818452848401376000828201840152601f01601f191601019056fe036b6384b5eca791c62761152d0c79bb0604c104a5fb6f4eb0703f3154bb3db0a26469706673582212204bf544b4f497ad46d45d8d160b21d68c88986fb1ef055be76b5565898d3e26f364736f6c63430008110033",
    "linkReferences": {}
  },
  "methodIdentifiers": {
    "addToDeposit(uint256)": "8620891c",
    "depositAmount(uint256)": "87f8ab26",
    "depositContractAddress()": "2a4dbd2b",
    "depositToPool()": "f9faa104",
    "distribute()": "e4fc6b6d",
    "getDepositAmount(uint256)": "378de45b",
    "getDistributableShare(uint256)": "678e300a",
    "getPubKey()": "4ad02ef1",
    "getShare(uint256)": "cfb5a5f8",
    "getState()": "1865c57d",
    "idsInThisPool(uint256)": "82a790cf",
    "owner()": "8da5cb5b",
    "renounceOwnership()": "715018a6",
    "rugpull()": "e2664e49",
    "setFrensPoolShare(address)": "2edaf74d",
    "setPubKey(bytes)": "e32d2913",
    "stake(bytes,bytes,bytes,bytes32)": "4b2b4e36",
    "totalDeposits()": "7d882097",
    "transferOwnership(address)": "f2fde38b",
    "unstake()": "2def6620",
    "validatorPubKey()": "7be0b4a0",
    "withdraw(uint256,uint256)": "441a3e70"
  },
  "id": 1
}