{
  "abi": [
    {
      "inputs": [
        {
          "internalType": "address",
          "name": "owner_",
          "type": "address"
        },
        {
          "internalType": "bool",
          "name": "validatorLocked_",
          "type": "bool"
        },
        {
          "internalType": "contract IFrensStorage",
          "name": "frensStorage_",
          "type": "address"
        }
      ],
      "stateMutability": "nonpayable",
      "type": "constructor"
    },
    {
      "anonymous": false,
      "inputs": [
        {
          "indexed": false,
          "internalType": "uint256",
          "name": "amount",
          "type": "uint256"
        },
        {
          "indexed": false,
          "internalType": "address",
          "name": "depositer",
          "type": "address"
        },
        {
          "indexed": false,
          "internalType": "uint256",
          "name": "id",
          "type": "uint256"
        }
      ],
      "name": "DepositToPool",
      "type": "event"
    },
    {
      "anonymous": false,
      "inputs": [
        {
          "indexed": false,
          "internalType": "address",
          "name": "sender",
          "type": "address"
        },
        {
          "indexed": false,
          "internalType": "address",
          "name": "to",
          "type": "address"
        },
        {
          "indexed": false,
          "internalType": "uint256",
          "name": "value",
          "type": "uint256"
        },
        {
          "indexed": false,
          "internalType": "bytes",
          "name": "data",
          "type": "bytes"
        },
        {
          "indexed": false,
          "internalType": "bytes",
          "name": "result",
          "type": "bytes"
        }
      ],
      "name": "ExecuteTransaction",
      "type": "event"
    },
    {
      "anonymous": false,
      "inputs": [
        {
          "indexed": true,
          "internalType": "address",
          "name": "previousOwner",
          "type": "address"
        },
        {
          "indexed": true,
          "internalType": "address",
          "name": "newOwner",
          "type": "address"
        }
      ],
      "name": "OwnershipTransferred",
      "type": "event"
    },
    {
      "anonymous": false,
      "inputs": [
        {
          "indexed": false,
          "internalType": "address",
          "name": "depositContractAddress",
          "type": "address"
        },
        {
          "indexed": false,
          "internalType": "address",
          "name": "caller",
          "type": "address"
        }
      ],
      "name": "Stake",
      "type": "event"
    },
    {
      "stateMutability": "payable",
      "type": "fallback"
    },
    {
      "inputs": [
        {
          "internalType": "uint256",
          "name": "_id",
          "type": "uint256"
        }
      ],
      "name": "addToDeposit",
      "outputs": [],
      "stateMutability": "payable",
      "type": "function"
    },
    {
      "inputs": [
        {
          "internalType": "address",
          "name": "claimant",
          "type": "address"
        }
      ],
      "name": "claim",
      "outputs": [],
      "stateMutability": "nonpayable",
      "type": "function"
    },
    {
      "inputs": [],
      "name": "claim",
      "outputs": [],
      "stateMutability": "nonpayable",
      "type": "function"
    },
    {
      "inputs": [],
      "name": "depositToPool",
      "outputs": [],
      "stateMutability": "payable",
      "type": "function"
    },
    {
      "inputs": [],
      "name": "distribute",
      "outputs": [],
      "stateMutability": "nonpayable",
      "type": "function"
    },
    {
      "inputs": [],
      "name": "distributeAndClaim",
      "outputs": [],
      "stateMutability": "nonpayable",
      "type": "function"
    },
    {
      "inputs": [],
      "name": "distributeAndClaimAll",
      "outputs": [],
      "stateMutability": "nonpayable",
      "type": "function"
    },
    {
      "inputs": [],
      "name": "exitPool",
      "outputs": [],
      "stateMutability": "nonpayable",
      "type": "function"
    },
    {
      "inputs": [
        {
          "internalType": "uint256",
          "name": "_id",
          "type": "uint256"
        }
      ],
      "name": "getDepositAmount",
      "outputs": [
        {
          "internalType": "uint256",
          "name": "",
          "type": "uint256"
        }
      ],
      "stateMutability": "view",
      "type": "function"
    },
    {
      "inputs": [
        {
          "internalType": "uint256",
          "name": "_id",
          "type": "uint256"
        }
      ],
      "name": "getDistributableShare",
      "outputs": [
        {
          "internalType": "uint256",
          "name": "",
          "type": "uint256"
        }
      ],
      "stateMutability": "view",
      "type": "function"
    },
    {
      "inputs": [],
      "name": "getIdsInThisPool",
      "outputs": [
        {
          "internalType": "uint256[]",
          "name": "",
          "type": "uint256[]"
        }
      ],
      "stateMutability": "view",
      "type": "function"
    },
    {
      "inputs": [],
      "name": "getPubKey",
      "outputs": [
        {
          "internalType": "bytes",
          "name": "",
          "type": "bytes"
        }
      ],
      "stateMutability": "view",
      "type": "function"
    },
    {
      "inputs": [
        {
          "internalType": "uint256",
          "name": "_id",
          "type": "uint256"
        }
      ],
      "name": "getShare",
      "outputs": [
        {
          "internalType": "uint256",
          "name": "",
          "type": "uint256"
        }
      ],
      "stateMutability": "view",
      "type": "function"
    },
    {
      "inputs": [],
      "name": "getState",
      "outputs": [
        {
          "internalType": "string",
          "name": "",
          "type": "string"
        }
      ],
      "stateMutability": "view",
      "type": "function"
    },
    {
      "inputs": [],
      "name": "getTotalDeposits",
      "outputs": [
        {
          "internalType": "uint256",
          "name": "",
          "type": "uint256"
        }
      ],
      "stateMutability": "view",
      "type": "function"
    },
    {
      "inputs": [],
      "name": "owner",
      "outputs": [
        {
          "internalType": "address",
          "name": "",
          "type": "address"
        }
      ],
      "stateMutability": "view",
      "type": "function"
    },
    {
      "inputs": [],
      "name": "renounceOwnership",
      "outputs": [],
      "stateMutability": "nonpayable",
      "type": "function"
    },
    {
      "inputs": [
        {
          "internalType": "address",
          "name": "newArtContract",
          "type": "address"
        }
      ],
      "name": "setArt",
      "outputs": [],
      "stateMutability": "nonpayable",
      "type": "function"
    },
    {
      "inputs": [
        {
          "internalType": "bytes",
          "name": "pubKey",
          "type": "bytes"
        },
        {
          "internalType": "bytes",
          "name": "withdrawal_credentials",
          "type": "bytes"
        },
        {
          "internalType": "bytes",
          "name": "signature",
          "type": "bytes"
        },
        {
          "internalType": "bytes32",
          "name": "deposit_data_root",
          "type": "bytes32"
        }
      ],
      "name": "setPubKey",
      "outputs": [],
      "stateMutability": "nonpayable",
      "type": "function"
    },
    {
      "inputs": [],
      "name": "stake",
      "outputs": [],
      "stateMutability": "nonpayable",
      "type": "function"
    },
    {
      "inputs": [
        {
          "internalType": "bytes",
          "name": "pubKey",
          "type": "bytes"
        },
        {
          "internalType": "bytes",
          "name": "withdrawal_credentials",
          "type": "bytes"
        },
        {
          "internalType": "bytes",
          "name": "signature",
          "type": "bytes"
        },
        {
          "internalType": "bytes32",
          "name": "deposit_data_root",
          "type": "bytes32"
        }
      ],
      "name": "stake",
      "outputs": [],
      "stateMutability": "nonpayable",
      "type": "function"
    },
    {
      "inputs": [
        {
          "internalType": "address",
          "name": "newOwner",
          "type": "address"
        }
      ],
      "name": "transferOwnership",
      "outputs": [],
      "stateMutability": "nonpayable",
      "type": "function"
    },
    {
      "inputs": [],
      "name": "version",
      "outputs": [
        {
          "internalType": "uint8",
          "name": "",
          "type": "uint8"
        }
      ],
      "stateMutability": "view",
      "type": "function"
    },
    {
      "inputs": [
        {
          "internalType": "uint256",
          "name": "_id",
          "type": "uint256"
        },
        {
          "internalType": "uint256",
          "name": "_amount",
          "type": "uint256"
        }
      ],
      "name": "withdraw",
      "outputs": [],
      "stateMutability": "nonpayable",
      "type": "function"
    },
    {
      "stateMutability": "payable",
      "type": "receive"
    }
  ],
  "bytecode": {
    "object": "0x6080604081815234620001d157606082620025078038038091620000248285620001d6565b833981010312620001d1576200003a82620001fa565b60209283810151908115158203620001d1578301516001600160a01b039182821691829003620001d1576200006f336200020f565b600180546001600160a01b0319808216851790925586516f636f6e74726163742e6164647265737360801b8982019081526d4672656e73506f6f6c536861726560901b6030830152601e825281890199929692906001600160401b038b11838c1017620001bb578a8a52825190206321f8a72160e01b8b526044830152808a602481895afa918215620001b0576000926200016c575b50506200013597985016906002541617600255600014620001505750506001805460ff60a01b191690556200020f565b6000805460ff60a01b19169055516122b09081620002578239f35b6001600160a81b031990911617600160a01b176001556200020f565b813d8311620001a8575b62000182818d620001d6565b81010312620001a557506200019c620001359798620001fa565b88973862000105565b80fd5b503d62000176565b89513d6000823e3d90fd5b634e487b7160e01b600052604160045260246000fd5b600080fd5b601f909101601f19168101906001600160401b03821190821017620001bb57604052565b51906001600160a01b0382168203620001d157565b600080546001600160a01b039283166001600160a01b03198216811783559216907f8be0079c531659141344cd1fd0a4f28419497f9722a3daafe3b4186f6b6457e09080a356fe6080604081815260048036101561001e575b505050361561001c57005b005b600092833560e01c908163168a482214610fa4575080631865c57d14610f865780631e83409a14610f595780632991795414610f08578063378de45b14610e815780633a4b66f114610e5c578063441a3e7014610bdb57806345b58fe414610b815780634ad02ef114610b3c5780634b2b4e3614610a325780634e71d92d14610a1857806354fd4d50146109f557806355ec447f1461092a578063678e300a1461090a578063715018a6146108ac5780638620891c146106e75780638da5cb5b146106bb5780639278e71414610699578063cfb5a5f814610672578063e4fc6b6d14610659578063e6b1a3ae146104a2578063e920eec01461046a578063f2fde38b1461039d5763f9faa1040361001157826003193601126103185760ff60015460a01c168181101561038a57600161015791146110b4565b3415610353578151916101ab6801bc16d674ec8000006101a460209561019f8782016101958361018730846110f9565b03601f198101855284611189565b34925190206112e6565b6111ab565b11156111ce565b838151928185808601956f636f6e74726163742e6164647265737360801b87526e233932b739a837b7b629b2ba3a32b960891b6030820152601f81526101f08161116d565b519095206001600160a01b039590869061020990611280565b16602486518094819363068b0e0760e41b835234888401525af1908115610349579061023c91849161031c575b50611244565b610268835186810190671d1bdad95b8b9a5960c21b8252600881526102608161116d565b5190206112e6565b9360025416803b156103185760248392855194859384926335313c2160e11b845233908401525af1801561030e576102d4575b5091606091837fd91527a40417d48f76ba016aaa9157e2ddaca6cb5b660432901659cb075058fc9451923484523390840152820152a180f35b917fd91527a40417d48f76ba016aaa9157e2ddaca6cb5b660432901659cb075058fc939194610304606094611127565b949193509161029b565b82513d87823e3d90fd5b8280fd5b61033c9150873d8911610342575b6103348183611189565b81019061122c565b38610236565b503d61032a565b84513d85823e3d90fd5b6020606492519162461bcd60e51b8352820152601260248201527136bab9ba103232b837b9b4ba1032ba3432b960711b6044820152fd5b634e487b7160e01b845260218252602484fd5b509034610318576020366003190112610318576001600160a01b0382358181169390849003610466578454918216926103d7338514611394565b84156104145750506001600160a01b031916821783557f8be0079c531659141344cd1fd0a4f28419497f9722a3daafe3b4186f6b6457e08380a380f35b906020608492519162461bcd60e51b8352820152602660248201527f4f776e61626c653a206e6577206f776e657220697320746865207a65726f206160448201526564647265737360d01b6064820152fd5b8480fd5b833461049f5761049c61047c3661104a565b9561049760018060a09894989795971b038a54163314611394565b61193b565b80f35b80fd5b503461031857602090816003193601126106555780356001600160a01b0381811691829003610651576104d9818754163314611394565b845163516b636d60e11b81526001848201528681602481865afa9081156106475787916105f0575b5051156105b65790602484926105598751858101906f636f6e74726163742e6164647265737360801b82526e233932b739a837b7b629b2ba3a32b960891b6030820152601f81526105518161116d565b519020611280565b16938787519586948593637358d1d760e11b85528401525af19182156105a95761049c9350849261058c575b5050611244565b6105a29250803d10610342576103348183611189565b3880610585565b50505051903d90823e3d90fd5b845162461bcd60e51b815280840185905260146024820152731a5b9d985b1a5908185c9d0818dbdb9d1c9858dd60621b6044820152606490fd5b90503d8088833e6106018183611189565b810190858183031261063f5780519067ffffffffffffffff821161064357019080601f8301121561063f578151610639928701611485565b38610501565b8780fd5b8880fd5b86513d89823e3d90fd5b8580fd5b8380fd5b833461049f578060031936011261049f5761049c611b53565b50913461049f57602036600319011261049f57506106926020923561210f565b9051908152f35b833461049f578060031936011261049f576106b2611b53565b61049c33611ead565b5050346106e357816003193601126106e357905490516001600160a01b039091168152602090f35b5080fd5b506020908160031936011261065557803560018060a01b036024848260025416875192838092634f558e7960e01b825287898301525afa90811561064757879161088f575b50156108585761076b6107628651868101906a1c1bdbdb0b999bdc8b9a5960aa1b825285602b820152602b815261055181611151565b82163014611353565b60ff60015460a01c16838110156108455784929161078d6001604493146110b4565b6107c96801bc16d674ec8000006101a46107c28a5188810190610260816107b430856110f9565b03601f198101835282611189565b34906111ab565b61080d8751858101906f636f6e74726163742e6164647265737360801b82526e233932b739a837b7b629b2ba3a32b960891b6030820152601f81526105518161116d565b1693878751958694859363010975af60e31b85528401523460248401525af19182156105a95761049c9350849261058c575050611244565b634e487b7160e01b875260218452602487fd5b845162461bcd60e51b815280840185905260116024820152701a5908191bd95cc81b9bdd08195e1a5cdd607a1b6044820152606490fd5b6108a69150853d8711610342576103348183611189565b3861072c565b833461049f578060031936011261049f57805481906001600160a01b038116906108d7338314611394565b6001600160a01b03191682557f8be0079c531659141344cd1fd0a4f28419497f9722a3daafe3b4186f6b6457e08280a380f35b50913461049f57602036600319011261049f57506106926020923561214c565b509034610318578260031936011261031857610944611b53565b61094c611fe3565b91835b83518110156109f1576109628185611bdb565b5160025484516331a9108f60e11b815284810192909252602091908290829060249082906001600160a01b03165afa9182156109e757916109b0916109b5949389926109ba575b5050611ead565b611bcc565b61094f565b6109d99250803d106109e0575b6109d18183611189565b810190611261565b38806109a9565b503d6109c7565b85513d89823e3d90fd5b8480f35b5050346106e357816003193601126106e35760ff6020925460a01c169051908152f35b833461049f578060031936011261049f5761049c33611ead565b50903461031857610a423661104a565b92610a5d60018060a09998999594951b038b54163314611394565b875194610a8e6020870187610a7230836113df565b0397610a86601f19998a8101835282611189565b519020611559565b15610b2457505050505090610ac9610ad8928551610ac1602082019282610ab5308661140c565b03908101835282611189565b5190206114bc565b6020815191012092369161144e565b6020815191012003610aef5750505b61049c6115ea565b906020606492519162461bcd60e51b8352820152600f60248201526e0e0eac496caf240dad2e6dac2e8c6d608b1b6044820152fd5b939750935093610b37975094909461193b565b610ae7565b5050346106e357816003193601126106e35780610b6a610b7d92516020810190610ac1816107b4308561140c565b9051918291602083526020830190610ff2565b0390f35b5050346106e357816003193601126106e357610b9b611fe3565b815192839260208080860192818752855180945286019401925b828110610bc457505050500390f35b835185528695509381019392810192600101610bb5565b509190346106e357806003193601126106e35782359260249384359060ff60015460a01c1683811015610e4a57600103610e085760025484516331a9108f60e11b8152808501839052602094916001600160a01b039190869082908b90829086165afa908115610dfe579082918991610de1575b50163303610daf5783610c888751878101906d19195c1bdcda5d0b985b5bdd5b9d60921b825286602e820152602e815261026081611151565b10610d7657916044859288809a95610cc86107628b9c9b51888101906a1c1bdbdb0b999bdc8b9a5960aa1b825288602b820152602b815261055181611151565b610d0c8b51878101906f636f6e74726163742e6164647265737360801b82526e233932b739a837b7b629b2ba3a32b960891b6030820152601f81526105518161116d565b16878b519788968795630441a3e760e41b87528601528401525af1918215610d6c57849384938493610d4592859261058c575050611244565b818115610d63575b3390f115610d59575080f35b51903d90823e3d90fd5b506108fc610d4d565b85513d86823e3d90fd5b855162461bcd60e51b81528083018690526014818a0152731b9bdd08195b9bdd59da0819195c1bdcda5d195960621b6044820152606490fd5b855162461bcd60e51b8152808301869052600d818a01526c3737ba103a34329037bbb732b960991b6044820152606490fd5b610df89150873d89116109e0576109d18183611189565b38610c4f565b87513d8a823e3d90fd5b835162461bcd60e51b8152602081850152601b818801527f63616e6e6f74207769746864726177206f6e6365207374616b656400000000006044820152606490fd5b634e487b7160e01b8652602184528686fd5b833461049f578060031936011261049f57610ae760018060a01b038254163314611394565b50913461049f57602036600319011261049f575061069260209235610edc610ecc8451868101906a1c1bdbdb0b999bdc8b9a5960aa1b825284602b820152602b815261055181611151565b6001600160a01b03163014611353565b8251848101916d19195c1bdcda5d0b985b5bdd5b9d60921b8352602e820152602e815261026081611151565b833461049f578060031936011261049f57610f2d60018060a01b038254163314611394565b60644711610f4c575b6001805460ff60a01b1916600360a01b17905580f35b610f54611c05565b610f36565b8382346106e35760203660031901126106e357356001600160a01b03811681036106e35761049c90611ead565b5050346106e357816003193601126106e357610b7d90610b6a612174565b83853461049f578060031936011261049f575061069282602080940190610260816107b430856110f9565b60005b838110610fe25750506000910152565b8181015183820152602001610fd2565b9060209161100b81518092818552858086019101610fcf565b601f01601f1916010190565b9181601f840112156110455782359167ffffffffffffffff8311611045576020838186019501011161104557565b600080fd5b9060806003198301126110455767ffffffffffffffff600435818111611045578361107791600401611017565b93909392602435838111611045578261109291600401611017565b93909392604435918211611045576110ac91600401611017565b909160643590565b156110bb57565b60405162461bcd60e51b81526020600482015260166024820152756e6f7420616363657074696e67206465706f7369747360501b6044820152606490fd5b6022916d746f74616c2e6465706f7369747360901b82526001600160601b03199060601b16600e8201520190565b67ffffffffffffffff811161113b57604052565b634e487b7160e01b600052604160045260246000fd5b6060810190811067ffffffffffffffff82111761113b57604052565b6040810190811067ffffffffffffffff82111761113b57604052565b90601f8019910116810190811067ffffffffffffffff82111761113b57604052565b919082018092116111b857565b634e487b7160e01b600052601160045260246000fd5b156111d557565b60405162461bcd60e51b815260206004820152602960248201527f746f74616c206465706f736974732063616e6e6f74206265206d6f72652074686044820152680c2dc406664408ae8d60bb1b6064820152608490fd5b90816020910312611045575180151581036110455790565b1561124b57565b634e487b7160e01b600052600160045260246000fd5b9081602091031261104557516001600160a01b03811681036110455790565b6001546040516321f8a72160e01b81526004810192909252602090829060249082906001600160a01b03165afa9081156112da576000916112bf575090565b6112d7915060203d81116109e0576109d18183611189565b90565b6040513d6000823e3d90fd5b60015460405163bd02d0f560e01b81526004810192909252602090829060249082906001600160a01b03165afa9081156112da57600091611325575090565b906020823d821161134b575b8161133e60209383611189565b8101031261049f57505190565b3d9150611331565b1561135a57565b60405162461bcd60e51b81526020600482015260126024820152711ddc9bdb99c81cdd185ada5b99c81c1bdbdb60721b6044820152606490fd5b1561139b57565b606460405162461bcd60e51b815260206004820152602060248201527f4f776e61626c653a2063616c6c6572206973206e6f7420746865206f776e65726044820152fd5b6021916c1d985b1a59185d1bdc8b9cd95d609a1b82526001600160601b03199060601b16600d8201520190565b601a91657075624b657960d01b82526001600160601b03199060601b1660068201520190565b67ffffffffffffffff811161113b57601f01601f191660200190565b92919261145a82611432565b916114686040519384611189565b829481845281830111611045578281602093846000960137010152565b9092919261149281611432565b916114a06040519384611189565b8294828452828201116110455760206114ba930190610fcf565b565b600154604051630180634360e71b815260048101929092526000908190839060249082906001600160a01b03165afa91821561154c5781926114fd57505090565b909291503d8084833e6115108183611189565b8101906020818303126106555780519067ffffffffffffffff8211610466570181601f82011215610655576112d7929350602081519101611485565b50604051903d90823e3d90fd5b600154604051633d70e7e560e11b81526004810192909252602090829060249082906001600160a01b03165afa9081156112da57600091611598575090565b6112d7915060203d8111610342576103348183611189565b156115b757565b60405162461bcd60e51b815260206004820152600b60248201526a77726f6e6720737461746560a81b6044820152606490fd5b6801bc16d674ec800000908147106118e4576001549160ff8360a01c1660048110156118ce57600161161c91146115b0565b60409081516020906116498282018261163530836113df565b0392610a86601f1994858101835282611189565b1561189657611666908451610ac18482019282610ab5308661140c565b8351956116a3838801757769746864726177616c5f63726564656e7469616c7360501b81523060601b98896036820152602a8152610ac181611151565b936116cf865185810190687369676e617475726560b81b82528a6029820152601d8152610ac18161116d565b978651858101917019195c1bdcda5d17d9185d1857dc9bdbdd607a1b83526031820152602581526116ff81611151565b5190208651635376ab1f60e11b81526004810191909152916001600160a01b039085846024818585165afa93841561188b5760009461185c575b5061178b8851878101907f65787465726e616c2e636f6e74726163742e616464726573730000000000000082526e11195c1bdcda5d10dbdb9d1c9858dd608a1b60398201526028815261055181611151565b60ff60a01b19909116600160a11b176001551694853b15611045576000936117eb936117fa6117d8938a519c8d97889687966304512a2360e31b8852608060048901526084880190610ff2565b6003199384888303016024890152610ff2565b91858303016044860152610ff2565b9060648301520391865af1948515611851577f72b356fd889b9abd3530accd2c9f4aecbce67d70757181f9f862ac91464ce1929495611842575b5082519182523390820152a1565b61184b90611127565b38611834565b83513d6000823e3d90fd5b90938682813d8311611884575b6118738183611189565b8101031261049f5750519238611739565b503d611869565b88513d6000823e3d90fd5b835162461bcd60e51b81526004810183905260116024820152701d985b1a59185d1bdc881b9bdd081cd95d607a1b6044820152606490fd5b634e487b7160e01b600052602160045260246000fd5b60405162461bcd60e51b815260206004820152600e60248201526d0dcdee840cadcdeeaced040cae8d60931b6044820152606490fd5b908060209392818452848401376000828201840152601f01601f1916010190565b96959293949096600160f81b3001958630116111b857604098895160209889820190815289825261196b8261116d565b611976368a8961144e565b8a81519101209151902003611b0f576119ba8a51898101906f1d985b1a59185d1bdc8b9b1bd8dad95960821b82523060601b603082015260248152610a8681611151565b611abd575b60ff60015460a01c169560048710156118ce57611a8d611a6a968c966000956119eb60018e9c146115b0565b611a7e8951611a458d82016f636f6e74726163742e6164647265737360801b81526e233932b739a837b7b629b2ba3a32b960891b6030840152601f8352611a318361116d565b91519091206001600160a01b039190611280565b1699519c8d9b8c9a8b996303a483bb60e61b8b52608060048c015260848b019161191a565b9060031995868a84030160248b015261191a565b9286840301604487015261191a565b90606483015203925af1918215611ab2576114ba93945060009261058c575050611244565b84513d6000823e3d90fd5b60015460ff8160a01c1660048110156118ce57611ada90156115b0565b611afa611af48c518b810190610a86816107b430856113df565b15611244565b60ff60a01b1916600160a01b176001556119bf565b895162461bcd60e51b815260048101899052601e60248201527f7769746864726177616c2063726564656e7469616c206d69736d6174636800006044820152606490fd5b60ff60015460a01c1660048110156118ce57600114611b74576114ba611c05565b60405162461bcd60e51b815260206004820152601c60248201527f757365207769746864726177207768656e206e6f74207374616b6564000000006044820152606490fd5b818102929181159184041417156111b857565b60001981146111b85760010190565b8051821015611bef5760209160051b010190565b634e487b7160e01b600052603260045260246000fd5b47906064821115611e69576040918251611c3e602091828101906b70726f746f636f6c2e66656560a01b8252600c81526102608161116d565b80611df4575b50611c4d611fe3565b60005b8151811015611d8f57611c638183611bdb565b5160025487516331a9108f60e11b8152600480820184905293926024926001600160a01b03929190889083908690829087165afa8b8115611d855789958b604495600094611d5f575b50611cba9060009495611f44565b9086611d0084518a8101906f636f6e74726163742e6164647265737360801b82526e233932b739a837b7b629b2ba3a32b960891b6030820152601f81526105518161116d565b169251998a978896631f72642160e31b885216908601528401525af1918215611d5457611d38926109b091600091611d3d5750611244565b611c50565b61033c9150863d8811610342576103348183611189565b87513d6000823e3d90fd5b6000945090611d7d611cba928a3d8c116109e0576109d18183611189565b945090611cac565b513d6000823e3d90fd5b505060008080938193969596611dd987519182016f636f6e74726163742e6164647265737360801b8152694672656e73436c61696d60b01b6030840152601a8352611a318361116d565b16828215611deb575bf115611d855750565b506108fc611de2565b600080809394926064611e318395611e2b8b518a8101906c1999594b9c9958da5c1a595b9d609a1b8252600d81526105518161116d565b93611bb9565b049082908215611e5f575b6001600160a01b031690f115611e5457479038611c44565b82513d6000823e3d90fd5b6108fc9150611e3c565b606460405162461bcd60e51b815260206004820152602060248201527f6d696e696d756d206f66203130302077656920746f20646973747269627574656044820152fd5b6040519060208201916f636f6e74726163742e6164647265737360801b8352694672656e73436c61696d60b01b6030820152601a8152611eec8161116d565b519091206001600160a01b0391908290611f0590611280565b1691823b15611045576024600092836040519586948593630f41a04d60e11b85521660048401525af180156112da57611f3b5750565b6114ba90611127565b611f769060405160208101916d19195c1bdcda5d0b985b5bdd5b9d60921b8352602e820152602e815261026081611151565b90611f906040516020810190610260816107b430856110f9565b918015611fdb57611fa091611bb9565b8115611fc557046001811115611fbf5760001981019081116111b85790565b50600090565b634e487b7160e01b600052601260045260246000fd5b505050600090565b604051602090818101906a1a591ccb9a5b8b9c1bdbdb60aa1b82523060601b602b820152601f81526120148161116d565b5190206001546040516378267eb560e11b81526004810192909252600092908390839060249082906001600160a01b03165afa92831561210357809361205b575b50505090565b909192503d8082853e61206e8185611189565b830190828483031261049f57835167ffffffffffffffff94858211610318570182601f820112156106e35780519485116120ef578460051b91604051956120b786850188611189565b8652848087019383010193841161049f57508301905b8282106120e05750505050388080612055565b815181529083019083016120cd565b634e487b7160e01b82526041600452602482fd5b604051903d90823e3d90fd5b6112d790612145610ecc60405160208101906a1c1bdbdb0b999bdc8b9a5960aa1b825284602b820152602b815261055181611151565b4790611f44565b60ff60015460a01c1660048110156118ce5760010361216b5750600090565b6112d79061210f565b60ff60015460a01c1660048110156118ce578015612240576002811461221d57600181146121ee576003146121cc576040516121af8161116d565b600d81526c7374617465206661696c75726560981b602082015290565b6040516121d88161116d565b6006815265195e1a5d195960d21b602082015290565b506040516121fb8161116d565b6012815271616363657074696e67206465706f7369747360701b602082015290565b5060405161222a8161116d565b60068152651cdd185ad95960d21b602082015290565b5060405161224d8161116d565b601781527f6177616974696e672076616c696461746f7220696e666f00000000000000000060208201529056fea2646970667358221220e58f797e3fdd3a49866377d2a7659094c7a3d92a761a48253a14feb08da286cc64736f6c63430008110033",
    "linkReferences": {}
  },
  "methodIdentifiers": {
    "addToDeposit(uint256)": "8620891c",
    "claim()": "4e71d92d",
    "claim(address)": "1e83409a",
    "depositToPool()": "f9faa104",
    "distribute()": "e4fc6b6d",
    "distributeAndClaim()": "9278e714",
    "distributeAndClaimAll()": "55ec447f",
    "exitPool()": "29917954",
    "getDepositAmount(uint256)": "378de45b",
    "getDistributableShare(uint256)": "678e300a",
    "getIdsInThisPool()": "45b58fe4",
    "getPubKey()": "4ad02ef1",
    "getShare(uint256)": "cfb5a5f8",
    "getState()": "1865c57d",
    "getTotalDeposits()": "168a4822",
    "owner()": "8da5cb5b",
    "renounceOwnership()": "715018a6",
    "setArt(address)": "e6b1a3ae",
    "setPubKey(bytes,bytes,bytes,bytes32)": "e920eec0",
    "stake()": "3a4b66f1",
    "stake(bytes,bytes,bytes,bytes32)": "4b2b4e36",
    "transferOwnership(address)": "f2fde38b",
    "version()": "54fd4d50",
    "withdraw(uint256,uint256)": "441a3e70"
  },
  "id": 11
}