{
  "abi": [
    {
      "inputs": [
        {
          "internalType": "contract IFrensStorage",
          "name": "_frensStorage",
          "type": "address"
        }
      ],
      "stateMutability": "nonpayable",
      "type": "constructor"
    },
    {
      "inputs": [
        {
          "internalType": "address",
          "name": "a",
          "type": "address"
        }
      ],
      "name": "getColor",
      "outputs": [
        {
          "internalType": "string",
          "name": "",
          "type": "string"
        }
      ],
      "stateMutability": "pure",
      "type": "function"
    },
    {
      "inputs": [
        {
          "internalType": "uint256",
          "name": "amountInWei",
          "type": "uint256"
        }
      ],
      "name": "getEthDecimalString",
      "outputs": [
        {
          "internalType": "string",
          "name": "",
          "type": "string"
        }
      ],
      "stateMutability": "pure",
      "type": "function"
    },
    {
      "inputs": [
        {
          "internalType": "address",
          "name": "poolAddress",
          "type": "address"
        }
      ],
      "name": "getOperatorsForPool",
      "outputs": [
        {
          "internalType": "uint32[]",
          "name": "",
          "type": "uint32[]"
        },
        {
          "internalType": "string",
          "name": "",
          "type": "string"
        }
      ],
      "stateMutability": "view",
      "type": "function"
    },
    {
      "inputs": [],
      "name": "version",
      "outputs": [
        {
          "internalType": "uint8",
          "name": "",
          "type": "uint8"
        }
      ],
      "stateMutability": "view",
      "type": "function"
    }
  ],
  "bytecode": {
    "object": "0x60803461008357601f610ac738819003918201601f19168301916001600160401b038311848410176100885780849260209460405283398101031261008357516001600160a01b03811681036100835760008054610100600160a81b03191660089290921b610100600160a81b0316919091179055604051610a28908161009f8239f35b600080fd5b634e487b7160e01b600052604160045260246000fdfe608060409080825260048036101561001657600080fd5b600091823560e01c90816354fd4d50146107ab5750806384b5e5961461062b578063a090f9b4146101535763edd148a21461005057600080fd5b3461014f576020918260031936011261014c57503591655af3107a4000670de0b6b3a7640000610081818604610954565b9406049261008e84610954565b936103e8811061013c575b60648110610128575b600a1161010a575b906100f7602161010693835196816100cb89935180928a80870191016107c8565b8201601760f91b888201526100e8825180938a87850191016107c8565b0103600181018752018561085e565b519282849384528301906107eb565b0390f35b92906100f7602161011d61010694610880565b9592935050506100aa565b93610134600a91610880565b9490506100a2565b9361014690610880565b93610099565b80fd5b5080fd5b50903461014c576020918260031936011261014f576001600160a01b0381358181168103610627578551858101917376616c696461746f722e7075626c69632e6b657960601b83526bffffffffffffffffffffffff199060601b166034820152602881526101c081610842565b5190209481845460081c16815196630180634360e71b885284880152602485888281855afa97881561061d5786986105a0575b5087519760019489861b60029a8082048c149015171561058e57610216906108d6565b855161022181610810565b601081526f181899199a1a9b1b9c1cb0b131b232b360811b8b82015289885b610498575b505060228a9b610273999a9b6102829389519b8261060f60f31b8e94850152825192839187860191016107c8565b8101039081018a52018861085e565b898551818101907f65787465726e616c2e636f6e74726163742e616464726573730000000000000082526a535356526567697374727960a81b60398201528581526102cc81610842565b519020848751809781936321f8a72160e01b83528d8301525afa90811561048e57908a8a9392849261044a575b61031e96508a88519788958694859363053e834960e01b8552840152888301906107eb565b0392165afa958615610440578796610380575b5050509390845194808601908652845180915286606087019501925b8181106103675786860388880152868061010688886107eb565b835163ffffffff1686529487019492870192820161034d565b90919295503d8088853e610394818561085e565b830191888484031261042757835167ffffffffffffffff9485821161043c57019183601f8401121561042357825194851161042b5750508260051b908651936103df8a84018661085e565b84528880850192820101928311610427578801905b8282106104075750505092388080610331565b815163ffffffff811681036104235781529088019088016103f4565b8880fd5b8780fd5b634e487b7160e01b89526041905287fd5b8980fd5b83513d89823e3d90fd5b935090508481959294953d8311610487575b610466818361085e565b8101031261042357518181168103610423579188918a61031e9594916102f9565b503d61045c565b85513d8b823e3d90fd5b8451811015610589576104ab818661092d565b5182518015610577578e916001600160f81b03199160f89183916104d291841c048761092d565b5116848d1b938585041485151715610564578e1a6104f0848861092d565b536104fb848961092d565b518551911c8115610551579061051291068561092d565b51168a820180921161053f5791610538916105328c95948f1a918761092d565b53610908565b9091610240565b634e487b7160e01b8d5260118c52878dfd5b50634e487b7160e01b8e5260128d52888efd5b50634e487b7160e01b8e5260118d52888efd5b634e487b7160e01b8d5260128c52878dfd5b610245565b634e487b7160e01b8952601188528389fd5b9097503d8087833e6105b2818361085e565b81019087818303126106195780519067ffffffffffffffff8211610427570181601f82011215610619578051906105e8826108ba565b926105f58651948561085e565b8284528983830101116104275790610612918980850191016107c8565b96386101f3565b8680fd5b83513d88823e3d90fd5b8380fd5b5082346107a757602091826003193601126106275780356001600160a01b03811681036107a3578251848101916bffffffffffffffffffffffff199060601b1682526014815261067a81610810565b51902082519481811a60f81b6001600160f81b031916600183811a60f01b60ff60f01b1691909117600293841a60e81b60ff60e81b16179291906106bd88610810565b600688528636818a0137815b600381106106e357865188815280610106818b018c6107eb565b84811a600f80821690601090818310156107905784861b9385850489148615171561077d5786850180861161076a576107348f916f181899199a1a9b1b9c1cb0b131b232b360811b80971a9261092d565b538a1c169081101561075757610752939291610532911a918c61092d565b6106c9565b634e487b7160e01b865260328952602486fd5b634e487b7160e01b895260118c52602489fd5b634e487b7160e01b885260118b52602488fd5b634e487b7160e01b875260328a52602487fd5b8480fd5b8280fd5b83903461014f578160031936011261014f5760ff60209254168152f35b60005b8381106107db5750506000910152565b81810151838201526020016107cb565b90602091610804815180928185528580860191016107c8565b601f01601f1916010190565b6040810190811067ffffffffffffffff82111761082c57604052565b634e487b7160e01b600052604160045260246000fd5b6060810190811067ffffffffffffffff82111761082c57604052565b90601f8019910116810190811067ffffffffffffffff82111761082c57604052565b906108b860216040518094600360fc1b60208301526108a881518092602086860191016107c8565b810103600181018552018361085e565b565b67ffffffffffffffff811161082c57601f01601f191660200190565b906108e0826108ba565b6108ed604051918261085e565b82815280926108fe601f19916108ba565b0190602036910137565b60001981146109175760010190565b634e487b7160e01b600052601160045260246000fd5b90815181101561093e570160200190565b634e487b7160e01b600052603260045260246000fd5b80156109d45780600081805b6109bc575061096e816108d6565b925b61097957505090565b6000198101908111610917578091600a91603083830681018091116109175760f81b6001600160f81b03191660001a906109b3908661092d565b53049081610970565b91506109c9600a91610908565b910480839291610960565b506040516109e181610810565b60018152600360fc1b60208201529056fea26469706673582212201e3910824f021320e09fa72dd5b1c7b211326722aec91ab4daaec9d59a055fc464736f6c63430008110033",
    "linkReferences": {}
  },
  "methodIdentifiers": {
    "getColor(address)": "84b5e596",
    "getEthDecimalString(uint256)": "edd148a2",
    "getOperatorsForPool(address)": "a090f9b4",
    "version()": "54fd4d50"
  },
  "id": 4
}