{
  "abi": [
    {
      "inputs": [
        {
          "internalType": "contract IFrensStorage",
          "name": "_frensStorage",
          "type": "address"
        }
      ],
      "stateMutability": "nonpayable",
      "type": "constructor"
    },
    {
      "inputs": [
        {
          "internalType": "uint256",
          "name": "id",
          "type": "uint256"
        }
      ],
      "name": "getDepositStringForId",
      "outputs": [
        {
          "internalType": "string",
          "name": "",
          "type": "string"
        }
      ],
      "stateMutability": "view",
      "type": "function"
    },
    {
      "inputs": [
        {
          "internalType": "address",
          "name": "addr",
          "type": "address"
        }
      ],
      "name": "getEns",
      "outputs": [
        {
          "internalType": "bool",
          "name": "",
          "type": "bool"
        },
        {
          "internalType": "string",
          "name": "",
          "type": "string"
        }
      ],
      "stateMutability": "view",
      "type": "function"
    },
    {
      "inputs": [
        {
          "internalType": "uint256",
          "name": "amountInWei",
          "type": "uint256"
        }
      ],
      "name": "getEthDecimalString",
      "outputs": [
        {
          "internalType": "string",
          "name": "",
          "type": "string"
        }
      ],
      "stateMutability": "pure",
      "type": "function"
    },
    {
      "inputs": [
        {
          "internalType": "address",
          "name": "poolAddress",
          "type": "address"
        }
      ],
      "name": "getOperatorsForPool",
      "outputs": [
        {
          "internalType": "uint32[]",
          "name": "",
          "type": "uint32[]"
        },
        {
          "internalType": "string",
          "name": "",
          "type": "string"
        }
      ],
      "stateMutability": "view",
      "type": "function"
    },
    {
      "inputs": [],
      "name": "version",
      "outputs": [
        {
          "internalType": "uint8",
          "name": "",
          "type": "uint8"
        }
      ],
      "stateMutability": "view",
      "type": "function"
    }
  ],
  "bytecode": {
    "object": "0x60803461008257601f610ce738819003918201601f19168301916001600160401b038311848410176100875780849260209460405283398101031261008257516001600160a01b038116810361008257600080546001600160a81b03191660089290921b610100600160a81b0316919091179055604051610c49908161009e8239f35b600080fd5b634e487b7160e01b600052604160045260246000fdfe60806040526004361015610013575b600080fd5b6000803560e01c90816354fd4d5014610196578163a090f9b41461007157508063de1c7f7014610068578063edd148a21461005f5763ef21184f1461005757600080fd5b61000e6102fe565b5061000e6102d0565b5061000e610268565b3461017e57602036600319011261017e5760043561008e816101b4565b6040516020810191657075624b657960d01b83526bffffffffffffffffffffffff199060601b166026820152601a81526100c7816103ed565b5190208154604051630180634360e71b8152600481019290925282908290602490829060081c6001600160a01b03165afa918215610189575b8092610123575b61011f6101138461071b565b6040519182918261020d565b0390f35b9091503d8082843e6101358184610432565b8201916020818403126101855780519067ffffffffffffffff821161018157019082601f8301121561017e575061017861011f92826020610113945191016105eb565b91610107565b80fd5b8280fd5b5080fd5b610191610454565b610100565b3461017e578060031936011261017e5760ff90541660805260206080f35b6001600160a01b0381160361000e57565b60005b8381106101d85750506000910152565b81810151838201526020016101c8565b90602091610201815180928185528580860191016101c5565b601f01601f1916010190565b919091604081019260408252606051809452606082019160806000955b80871061024957505061024693945060208184039101526101e8565b90565b909360019063ffffffff8651168152602080910195019601959061022a565b503461000e57602036600319011261000e5761028e600435610289816101b4565b610889565b9061011f604051928392151583526040602084015260408301906101e8565b602090600319011261000e5760043590565b9060206102469281815201906101e8565b503461000e5761011f6102ea6102e5366102ad565b61050c565b6040519182916020835260208301906101e8565b503461000e5761030d366102ad565b60405160208101916d19195c1bdcda5d0b985b5bdd5b9d60921b8352602e820152602e815261033b81610416565b51902060005460405163bd02d0f560e01b815260048101929092526020908290602490829060081c6001600160a01b03165afa9081156103c9575b600091610396575b61011f61038a8361050c565b604051918291826102bf565b906020823d82116103c1575b816103af60209383610432565b8101031261017e57505161038a61037e565b3d91506103a2565b6103d1610454565b610376565b50634e487b7160e01b600052604160045260246000fd5b6040810190811067ffffffffffffffff82111761040957604052565b6104116103d6565b604052565b6060810190811067ffffffffffffffff82111761040957604052565b90601f8019910116810190811067ffffffffffffffff82111761040957604052565b506040513d6000823e3d90fd5b50634e487b7160e01b600052601260045260246000fd5b50634e487b7160e01b600052601160045260246000fd5b8115610499570490565b6104a1610461565b0490565b81156104af570690565b6104b7610461565b0690565b906104ce602092828151948592016101c5565b0190565b9061050a60216040518094600360fc1b60208301526104fa81518092602086860191016101c5565b8101036001810185520183610432565b565b66038d7ea4c68000670de0b6b3a7640000610528818404610b59565b9206049061053582610b59565b91606481106105ac575b600a11610594575b60216102469160405193816105668693518092602080870191016101c5565b8201601760f91b602082015261058582518093602087850191016101c5565b01036001810184520182610432565b9060216105a3610246926104d2565b92915050610547565b916105b8600a916104d2565b92905061053f565b60209067ffffffffffffffff81116105de575b601f01601f19160190565b6105e66103d6565b6105d3565b909291926105f8816105c0565b916106066040519384610432565b82948284528282011161000e57602061050a9301906101c5565b908160011b918083046002149015171561063657565b61050a610478565b604051906020820182811067ffffffffffffffff821117610663575b60405260008252565b61066b6103d6565b61065a565b9061067a826105c0565b6106876040519182610432565b8281528092610698601f19916105c0565b0190602036910137565b604051906106af826103ed565b601082526f181899199a1a9b1b9c1cb0b131b232b360811b6020830152565b60019060001981146106de570190565b6104ce610478565b9081518110156106f7570160200190565b634e487b7160e01b600052603260045260246000fd5b906001820180921161063657565b9061072e6107298351610620565b610670565b6107366106a2565b600093845b81518110156107ef57806107c66107616107c061077561076f6107616107ea97896106e6565b516001600160f81b03191690565b60f81c90565b61079061076161078a8a5160ff80951661048f565b8a6106e6565b6107a661079c87610620565b918d1a918b6106e6565b536107b761076f610761878a6106e6565b885191166104a5565b866106e6565b6107e46107da6107d584610620565b61070d565b91891a91876106e6565b536106ce565b61073b565b505060405161060f60f31b6020820152929350610246918391506108179060228301906104bb565b03601f198101835282610432565b9081602091031261000e5751610246816101b4565b9081602091031261000e5751801515810361000e5790565b60208183031261000e5780519067ffffffffffffffff821161000e57019080601f8301121561000e578151610246926020016105eb565b906040516108fb6108f56108e9602093848101906108e1816108176108d2856019907f65787465726e616c2e636f6e74726163742e616464726573730000000000000081520190565b62454e5360e81b815260030190565b519020610a63565b6001600160a01b031690565b93610acb565b604051630178b8bf60e01b8152600481018290526001600160a01b0394851694919291908281602481895afa908115610a56575b600091610a29575b5016918215610a1957604051631ef3fca760e31b815260048101829052610999958390829060249082905afa928315610a0c575b6000936109da575b505060009192604051808097819463691f343160e01b8352600483019190602083019252565b03915afa9283156109cd575b6000936109b157509190565b61024691933d8091833e6109c58183610432565b810190610852565b6109d5610454565b6109a5565b6000935090816109fe92903d10610a05575b6109f68183610432565b81019061083a565b9138610973565b503d6109ec565b610a14610454565b61096b565b505050905060009061024661063e565b610a499150833d8511610a4f575b610a418183610432565b810190610825565b38610937565b503d610a37565b610a5e610454565b61092f565b6000546040516321f8a72160e01b815260048101929092526020908290602490829060081c6001600160a01b03165afa908115610abe575b600091610aa6575090565b610246915060203d8111610a4f57610a418183610432565b610ac6610454565b610a9b565b6028805b610b1d575050602860002060405160208101917f91d1777781884d03a6757a803996e38de2a42967fb37eeaca72729271025a9e28352604082015260408152610b1781610416565b51902090565b6f181899199a1a9b1b9c1cb0b131b232b360811b91600f9182821684901a600019820153600119019283928260041c161a825360081c91610acf565b8015610bf5576000818181805b610bdd5750610b7481610670565b935b610b805750505090565b6000198101908111610bd0575b8091600a91610bba60308484068101809111610bc3575b60f81b6001600160f81b031916861a91876106e6565b53049081610b76565b610bcb610478565b610ba4565b610bd8610478565b610b8d565b9150610bea600a916106ce565b910480849291610b66565b50604051610c02816103ed565b60018152600360fc1b60208201529056fea264697066735822122060de2c3f168ac48d15e9ad0f762a717b9b333c4d4255cd76e4ae5ca9266ef9b264736f6c63430008110033",
    "linkReferences": {}
  },
  "methodIdentifiers": {
    "getDepositStringForId(uint256)": "ef21184f",
    "getEns(address)": "de1c7f70",
    "getEthDecimalString(uint256)": "edd148a2",
    "getOperatorsForPool(address)": "a090f9b4",
    "version()": "54fd4d50"
  },
  "id": 6
}