{
  "abi": [
    {
      "inputs": [
        {
          "internalType": "contract IFrensStorage",
          "name": "_frensStorage",
          "type": "address"
        }
      ],
      "stateMutability": "nonpayable",
      "type": "constructor"
    },
    {
      "inputs": [
        {
          "internalType": "address",
          "name": "a",
          "type": "address"
        }
      ],
      "name": "getColor",
      "outputs": [
        {
          "internalType": "string",
          "name": "",
          "type": "string"
        }
      ],
      "stateMutability": "pure",
      "type": "function"
    },
    {
      "inputs": [
        {
          "internalType": "address",
          "name": "addr",
          "type": "address"
        }
      ],
      "name": "getEns",
      "outputs": [
        {
          "internalType": "bool",
          "name": "",
          "type": "bool"
        },
        {
          "internalType": "string",
          "name": "",
          "type": "string"
        }
      ],
      "stateMutability": "view",
      "type": "function"
    },
    {
      "inputs": [
        {
          "internalType": "uint256",
          "name": "amountInWei",
          "type": "uint256"
        }
      ],
      "name": "getEthDecimalString",
      "outputs": [
        {
          "internalType": "string",
          "name": "",
          "type": "string"
        }
      ],
      "stateMutability": "pure",
      "type": "function"
    },
    {
      "inputs": [
        {
          "internalType": "address",
          "name": "poolAddress",
          "type": "address"
        }
      ],
      "name": "getOperatorsForPool",
      "outputs": [
        {
          "internalType": "uint32[]",
          "name": "",
          "type": "uint32[]"
        },
        {
          "internalType": "string",
          "name": "",
          "type": "string"
        }
      ],
      "stateMutability": "view",
      "type": "function"
    },
    {
      "inputs": [],
      "name": "version",
      "outputs": [
        {
          "internalType": "uint8",
          "name": "",
          "type": "uint8"
        }
      ],
      "stateMutability": "view",
      "type": "function"
    }
  ],
  "bytecode": {
    "object": "0x60803461008357601f610ed138819003918201601f19168301916001600160401b038311848410176100885780849260209460405283398101031261008357516001600160a01b03811681036100835760008054610100600160a81b03191660089290921b610100600160a81b0316919091179055604051610e32908161009f8239f35b600080fd5b634e487b7160e01b600052604160045260246000fdfe60806040526004361015610013575b600080fd5b6000803560e01c90816354fd4d501461011a57816384b5e5961461007157508063a090f9b414610068578063de1c7f701461005f5763edd148a21461005757600080fd5b61000e6103b6565b5061000e610371565b5061000e6101f8565b34610117576020366003190112610117576101076101139160043561009581610138565b6040516100cf816100c16020820194856014916bffffffffffffffffffffffff199060601b1681520190565b03601f1981018352826104db565b5190209081901a60f81b6001600160f81b031916600182901a60f01b60ff60f01b161760029190911a60e81b60ff60e81b1617610c94565b60405191829182610191565b0390f35b80fd5b3461011757806003193601126101175760ff90541660805260206080f35b6001600160a01b0381160361000e57565b60005b83811061015c5750506000910152565b818101518382015260200161014c565b9060209161018581518092818552858086019101610149565b601f01601f1916010190565b9060206101a292818152019061016c565b90565b9092916040820191604081528451809352606081019260208096019060005b8181106101de575050506101a2939481840391015261016c565b825163ffffffff16865294870194918701916001016101c4565b503461000e57602036600319011261000e5760043561021681610138565b61031f600061028160405193846102656020820192836028917376616c696461746f722e7075626c69632e6b657960601b82526bffffffffffffffffffffffff199060601b1660148201520190565b0394610279601f19968781018352826104db565b519020610750565b6103046102f86102f8610293846108ea565b966040516102f06020820192826102e46102cd866019907865787465726e616c2e636f6e74726163742e6164647265737360381b81520190565b6a535356526567697374727960a81b8152600b0190565b039081018352826104db565b519020610678565b6001600160a01b031690565b604051808095819463053e834960e01b835260048301610191565b03915afa908115610364575b600091610343575b50610113604051928392836101a5565b61035e913d8091833e61035681836104db565b8101906105bf565b38610333565b61036c610656565b61032b565b503461000e57602036600319011261000e5761039760043561039281610138565b610a35565b906101136040519283921515835260406020840152604083019061016c565b503461000e57602036600319011261000e57610113600435655af3107a4000670de0b6b3a76400006103e9818404610d42565b920604906103f682610d42565b916103e8811061048b575b60648110610477575b600a1161045f575b6021610107916040519381610431869351809260208087019101610149565b8201601760f91b60208201526104508251809360208785019101610149565b010360018101845201826104db565b90602161046e61010792610585565b92915050610412565b91610483600a91610585565b92905061040a565b9161049590610585565b91610401565b50634e487b7160e01b600052604160045260246000fd5b6040810190811067ffffffffffffffff8211176104ce57604052565b6104d661049b565b604052565b90601f8019910116810190811067ffffffffffffffff8211176104ce57604052565b50634e487b7160e01b600052603260045260246000fd5b50634e487b7160e01b600052601260045260246000fd5b50634e487b7160e01b600052601160045260246000fd5b811561054c570490565b610554610514565b0490565b8115610562570690565b61056a610514565b0690565b9061058160209282815194859201610149565b0190565b906105bd60216040518094600360fc1b60208301526105ad8151809260208686019101610149565b81010360018101855201836104db565b565b90602090818382031261000e57825167ffffffffffffffff9384821161000e570181601f8201121561000e578051938411610649575b8360051b906040519461060a858401876104db565b8552838086019282010192831161000e578301905b82821061062d575050505090565b815163ffffffff8116810361000e57815290830190830161061f565b61065161049b565b6105f5565b506040513d6000823e3d90fd5b9081602091031261000e57516101a281610138565b6000546040516321f8a72160e01b815260048101929092526020908290602490829060081c6001600160a01b03165afa9081156106e3575b6000916106bb575090565b6101a2915060203d81116106dc575b6106d481836104db565b810190610663565b503d6106ca565b6106eb610656565b6106b0565b60209067ffffffffffffffff811161070e575b601f01601f19160190565b61071661049b565b610703565b90929192610728816106f0565b9161073660405193846104db565b82948284528282011161000e5760206105bd930190610149565b60008054604051630180634360e71b8152600481019390935281908390602490829060081c6001600160a01b03165afa9182156107ea575b819261079357505090565b909291503d8084833e6107a681836104db565b8101906020818303126107e25780519067ffffffffffffffff82116107e6570181601f820112156107e2576101a292935060208151910161071b565b8380fd5b8480fd5b6107f2610656565b610788565b908160011b918083046002149015171561080d57565b6105bd61052b565b604051906020820182811067ffffffffffffffff82111761083a575b60405260008252565b61084261049b565b610831565b90610851826106f0565b61085e60405191826104db565b828152809261086f601f19916106f0565b0190602036910137565b60405190610886826104b2565b601082526f181899199a1a9b1b9c1cb0b131b232b360811b6020830152565b60019060001981146108b5570190565b61058161052b565b9060209180518210156108cf57010190565b6108d76104fd565b010190565b906001820180921161080d57565b906108fd6108f883516107f7565b610847565b610905610879565b600093845b81518110156109be578061099561093061098f61094461093e6109306109b997896108bd565b516001600160f81b03191690565b60f81c90565b61095f6109306109598a5160ff809516610542565b8a6108bd565b61097561096b876107f7565b918d1a918b6108bd565b5361098661093e610930878a6108bd565b88519116610558565b866108bd565b6109b36109a96109a4846107f7565b6108dc565b91891a91876108bd565b536108a5565b61090a565b505060405161060f60f31b60208201529293506101a2918391506100c190602283019061056e565b9081602091031261000e5751801515810361000e5790565b60208183031261000e5780519067ffffffffffffffff821161000e57019080601f8301121561000e5781516101a29260200161071b565b90604051610a8f610a896102f8602093848101906102f0816100c1610a7a856019907865787465726e616c2e636f6e74726163742e6164647265737360381b81520190565b62454e5360e81b815260030190565b93610be7565b604051630178b8bf60e01b8152600481018290526001600160a01b0394851694919291908281602481895afa908115610bda575b600091610bbd575b5016918215610bad57604051631ef3fca760e31b815260048101829052610b2d958390829060249082905afa928315610ba0575b600093610b6e575b505060009192604051808097819463691f343160e01b8352600483019190602083019252565b03915afa928315610b61575b600093610b4557509190565b6101a291933d8091833e610b5981836104db565b8101906109fe565b610b69610656565b610b39565b600093509081610b9292903d10610b99575b610b8a81836104db565b8101906109e6565b9138610b07565b503d610b80565b610ba8610656565b610aff565b50505090506000906101a2610815565b610bd49150833d85116106dc576106d481836104db565b38610acb565b610be2610656565b610ac3565b6028805b610c58575050602860002060405160208101917f91d1777781884d03a6757a803996e38de2a42967fb37eeaca72729271025a9e283526040820152604081526060810181811067ffffffffffffffff821117610c4b575b60405251902090565b610c5361049b565b610c42565b6f181899199a1a9b1b9c1cb0b131b232b360811b91600f9182821684901a600019820153600119019283928260041c161a825360081c91610beb565b90604051610ca1816104b2565b600681526020368183013760005b60038110610cbc57509150565b610d2390600f85821a8181169160109182841015610d35575b6f181899199a1a9b1b9c1cb0b131b232b360811b9384901a610d02610cfc6109a4886107f7565b896108bd565b5360041c1690811015610d28575b1a6109b3610d1d836107f7565b856108bd565b610caf565b610d306104fd565b610d10565b610d3d6104fd565b610cd5565b8015610dde576000818181805b610dc65750610d5d81610847565b935b610d695750505090565b6000198101908111610db9575b8091600a91610da360308484068101809111610dac575b60f81b6001600160f81b031916861a91876108bd565b53049081610d5f565b610db461052b565b610d8d565b610dc161052b565b610d76565b9150610dd3600a916108a5565b910480849291610d4f565b50604051610deb816104b2565b60018152600360fc1b60208201529056fea2646970667358221220fd733efccb405fbec1d8dc68a2594bc3a9309a319da005b578312e5b5b0bccba64736f6c63430008110033",
    "linkReferences": {}
  },
  "methodIdentifiers": {
    "getColor(address)": "84b5e596",
    "getEns(address)": "de1c7f70",
    "getEthDecimalString(uint256)": "edd148a2",
    "getOperatorsForPool(address)": "a090f9b4",
    "version()": "54fd4d50"
  },
  "id": 4
}