{
  "abi": [
    {
      "inputs": [
        {
          "internalType": "contract IFrensStorage",
          "name": "_frensStorage",
          "type": "address"
        }
      ],
      "stateMutability": "nonpayable",
      "type": "constructor"
    },
    {
      "inputs": [
        {
          "internalType": "address",
          "name": "a",
          "type": "address"
        }
      ],
      "name": "getColor",
      "outputs": [
        {
          "internalType": "string",
          "name": "",
          "type": "string"
        }
      ],
      "stateMutability": "pure",
      "type": "function"
    },
    {
      "inputs": [
        {
          "internalType": "uint256",
          "name": "id",
          "type": "uint256"
        }
      ],
      "name": "getDepositStringForId",
      "outputs": [
        {
          "internalType": "string",
          "name": "",
          "type": "string"
        }
      ],
      "stateMutability": "view",
      "type": "function"
    },
    {
      "inputs": [
        {
          "internalType": "address",
          "name": "addr",
          "type": "address"
        }
      ],
      "name": "getEns",
      "outputs": [
        {
          "internalType": "bool",
          "name": "",
          "type": "bool"
        },
        {
          "internalType": "string",
          "name": "",
          "type": "string"
        }
      ],
      "stateMutability": "view",
      "type": "function"
    },
    {
      "inputs": [
        {
          "internalType": "uint256",
          "name": "amountInWei",
          "type": "uint256"
        }
      ],
      "name": "getEthDecimalString",
      "outputs": [
        {
          "internalType": "string",
          "name": "",
          "type": "string"
        }
      ],
      "stateMutability": "pure",
      "type": "function"
    },
    {
      "inputs": [
        {
          "internalType": "address",
          "name": "poolAddress",
          "type": "address"
        }
      ],
      "name": "getOperatorsForPool",
      "outputs": [
        {
          "internalType": "uint32[]",
          "name": "",
          "type": "uint32[]"
        },
        {
          "internalType": "string",
          "name": "",
          "type": "string"
        }
      ],
      "stateMutability": "view",
      "type": "function"
    },
    {
      "inputs": [],
      "name": "version",
      "outputs": [
        {
          "internalType": "uint8",
          "name": "",
          "type": "uint8"
        }
      ],
      "stateMutability": "view",
      "type": "function"
    }
  ],
  "bytecode": {
    "object": "0x60803461008257601f610f6638819003918201601f19168301916001600160401b038311848410176100875780849260209460405283398101031261008257516001600160a01b038116810361008257600080546001600160a81b03191660089290921b610100600160a81b0316919091179055604051610ec8908161009e8239f35b600080fd5b634e487b7160e01b600052604160045260246000fdfe60806040526004361015610013575b600080fd5b6000803560e01c90816354fd4d501461008e5750806384b5e59614610085578063a090f9b41461007c578063de1c7f7014610073578063edd148a21461006a5763ef21184f1461006257600080fd5b61000e6103cb565b5061000e61039d565b5061000e610346565b5061000e61021b565b5061000e61011c565b346100ac57806003193601126100ac5760ff90541660805260206080f35b80fd5b6001600160a01b0381160361000e57565b60005b8381106100d35750506000910152565b81810151838201526020016100c3565b906020916100fc815180928185528580860191016100c0565b601f01601f1916010190565b9060206101199281815201906100e3565b90565b503461000e57602036600319011261000e576101bf6101b3600435610140816100af565b60405161017a8161016c6020820194856014916bffffffffffffffffffffffff199060601b1681520190565b03601f198101835282610441565b519020600081901a60f81b6001600160f81b031916600182901a60f01b60ff60f01b161760029190911a60e81b60ff60e81b1617610d3f565b60405191829182610108565b0390f35b919091604081019260408252606051809452606082019160806000955b8087106101fc57505061011993945060208184039101526100e3565b909360019063ffffffff865116815260208091019501960195906101e0565b503461000e57602036600319011261000e57600435610239816100af565b60405160208101917376616c696461746f722e7075626c69632e6b657960601b83526bffffffffffffffffffffffff199060601b16603482015260288152610280816103fc565b5190206000908160018060a01b03815460081c1691602460405180948193630180634360e71b835260048301525afa918215610339575b80926102d6575b6101bf6102ca846109ef565b604051918291826101c3565b9091503d8082843e6102e88184610441565b8201916020818403126103355780519067ffffffffffffffff821161033157019082601f830112156100ac575061032b6101bf928260206102ca945191016104a5565b916102be565b8280fd5b5080fd5b610341610513565b6102b7565b503461000e57602036600319011261000e5761036c600435610367816100af565b610b03565b906101bf604051928392151583526040602084015260408301906100e3565b602090600319011261000e5760043590565b503461000e576101bf6103b76103b23661038b565b61087a565b6040519182916020835260208301906100e3565b503461000e576101bf6103b76103e03661038b565b610586565b50634e487b7160e01b600052604160045260246000fd5b6060810190811067ffffffffffffffff82111761041857604052565b6104206103e5565b604052565b6040810190811067ffffffffffffffff82111761041857604052565b90601f8019910116810190811067ffffffffffffffff82111761041857604052565b50634e487b7160e01b600052603260045260246000fd5b60209067ffffffffffffffff8111610498575b601f01601f19160190565b6104a06103e5565b61048d565b909291926104b28161047a565b916104c06040519384610441565b82948284528282011161000e5760206104da9301906100c0565b565b60208183031261000e5780519067ffffffffffffffff821161000e57019080601f8301121561000e578151610119926020016104a5565b506040513d6000823e3d90fd5b90610533602092828151948592016100c0565b0190565b604051906020820182811067ffffffffffffffff82111761055c575b60405260008252565b6105646103e5565b610553565b6040519061057682610425565b60018252600360fc1b6020830152565b604051600460006105e86105dc6105dc6105dc60208701876105c08a83602b916a1c1bdbdb0b999bdc8b9a5960aa1b8252600b8201520190565b03976105d4601f19998a8101835282610441565b5190206106f2565b6001600160a01b031690565b604051631865c57d60e01b815292839182905afa9081156106d0575b6000916106af575b5060405165195e1a5d195960d21b602082019081529061063781602681015b03858101835282610441565b519020906040516106508161062b602082018095610520565b519020146106a557610119916103b29161069d6040519182610691602082019586602e916d19195c1bdcda5d0b985b5bdd5b9d60921b8252600e8201520190565b03908101835282610441565b51902061076a565b5050610119610569565b6106ca913d8091833e6106c28183610441565b8101906104dc565b3861060c565b6106d8610513565b610604565b9081602091031261000e5751610119816100af565b6000546040516321f8a72160e01b815260048101929092526020908290602490829060081c6001600160a01b03165afa90811561075d575b600091610735575090565b610119915060203d8111610756575b61074e8183610441565b8101906106dd565b503d610744565b610765610513565b61072a565b60005460405163bd02d0f560e01b815260048101929092526020908290602490829060081c6001600160a01b03165afa9081156107db575b6000916107ad575090565b906020823d82116107d3575b816107c660209383610441565b810103126100ac57505190565b3d91506107b9565b6107e3610513565b6107a2565b50634e487b7160e01b600052601260045260246000fd5b50634e487b7160e01b600052601160045260246000fd5b8115610820570490565b6108286107e8565b0490565b8115610836570690565b61083e6107e8565b0690565b906104da60216040518094600360fc1b602083015261086a81518092602086860191016100c0565b8101036001810185520183610441565b66038d7ea4c68000670de0b6b3a7640000610896818404610ded565b920604906108a382610ded565b916064811061091a575b600a11610902575b60216101199160405193816108d48693518092602080870191016100c0565b8201601760f91b60208201526108f382518093602087850191016100c0565b01036001810184520182610441565b90602161091161011992610842565b929150506108b5565b91610926600a91610842565b9290506108ad565b908160011b918083046002149015171561094457565b6104da6107ff565b906109568261047a565b6109636040519182610441565b8281528092610974601f199161047a565b0190602036910137565b6040519061098b82610425565b601082526f181899199a1a9b1b9c1cb0b131b232b360811b6020830152565b60019060001981146109ba570190565b6105336107ff565b9060209180518210156109d457010190565b6109dc610463565b010190565b906001820180921161094457565b90610a026109fd835161092e565b61094c565b610a0a61097e565b600093845b8151811015610ac35780610a9a610a35610a94610a49610a43610a35610abe97896109c2565b516001600160f81b03191690565b60f81c90565b610a64610a35610a5e8a5160ff809516610816565b8a6109c2565b610a7a610a708761092e565b918d1a918b6109c2565b53610a8b610a43610a35878a6109c2565b8851911661082c565b866109c2565b610ab8610aae610aa98461092e565b6109e1565b91891a91876109c2565b536109aa565b610a0f565b505060405161060f60f31b60208201529293506101199183915061016c906022830190610520565b9081602091031261000e5751801515810361000e5790565b90604051610b61610b5b6105dc602093848101906105d48161016c610b4c856019907f65787465726e616c2e636f6e74726163742e616464726573730000000000000081520190565b62454e5360e81b815260030190565b93610cb1565b604051630178b8bf60e01b8152600481018290526001600160a01b0394851694919291908281602481895afa908115610ca4575b600091610c87575b5016918215610c7757604051631ef3fca760e31b815260048101829052610bff958390829060249082905afa928315610c6a575b600093610c38575b505060009192604051808097819463691f343160e01b8352600483019190602083019252565b03915afa928315610c2b575b600093610c1757509190565b61011991933d8091833e6106c28183610441565b610c33610513565b610c0b565b600093509081610c5c92903d10610c63575b610c548183610441565b810190610aeb565b9138610bd9565b503d610c4a565b610c72610513565b610bd1565b5050509050600090610119610537565b610c9e9150833d85116107565761074e8183610441565b38610b9d565b610cac610513565b610b95565b6028805b610d03575050602860002060405160208101917f91d1777781884d03a6757a803996e38de2a42967fb37eeaca72729271025a9e28352604082015260408152610cfd816103fc565b51902090565b6f181899199a1a9b1b9c1cb0b131b232b360811b91600f9182821684901a600019820153600119019283928260041c161a825360081c91610cb5565b90604051610d4c81610425565b600681526020368183013760005b60038110610d6757509150565b610dce90600f85821a8181169160109182841015610de0575b6f181899199a1a9b1b9c1cb0b131b232b360811b9384901a610dad610da7610aa98861092e565b896109c2565b5360041c1690811015610dd3575b1a610ab8610dc88361092e565b856109c2565b610d5a565b610ddb610463565b610dbb565b610de8610463565b610d80565b8015610e89576000818181805b610e715750610e088161094c565b935b610e145750505090565b6000198101908111610e64575b8091600a91610e4e60308484068101809111610e57575b60f81b6001600160f81b031916861a91876109c2565b53049081610e0a565b610e5f6107ff565b610e38565b610e6c6107ff565b610e21565b9150610e7e600a916109aa565b910480849291610dfa565b5061011961056956fea26469706673582212201dea948812e471ff003e88cc0a82f909e655482659e9ce40f442dcac9710875e64736f6c63430008110033",
    "linkReferences": {}
  },
  "methodIdentifiers": {
    "getColor(address)": "84b5e596",
    "getDepositStringForId(uint256)": "ef21184f",
    "getEns(address)": "de1c7f70",
    "getEthDecimalString(uint256)": "edd148a2",
    "getOperatorsForPool(address)": "a090f9b4",
    "version()": "54fd4d50"
  },
  "id": 6
}