{
  "abi": [
    {
      "inputs": [
        {
          "internalType": "contract IFrensStorage",
          "name": "_frensStorage",
          "type": "address"
        }
      ],
      "stateMutability": "nonpayable",
      "type": "constructor"
    },
    {
      "inputs": [
        {
          "internalType": "address",
          "name": "poolAddress",
          "type": "address"
        }
      ],
      "name": "checkValidatorState",
      "outputs": [
        {
          "internalType": "bool",
          "name": "",
          "type": "bool"
        }
      ],
      "stateMutability": "nonpayable",
      "type": "function"
    },
    {
      "inputs": [
        {
          "internalType": "bytes",
          "name": "",
          "type": "bytes"
        }
      ],
      "name": "isExiting",
      "outputs": [
        {
          "internalType": "bool",
          "name": "",
          "type": "bool"
        }
      ],
      "stateMutability": "view",
      "type": "function"
    },
    {
      "inputs": [
        {
          "internalType": "bytes",
          "name": "pubKey",
          "type": "bytes"
        },
        {
          "internalType": "bool",
          "name": "_isExiting",
          "type": "bool"
        }
      ],
      "name": "setExiting",
      "outputs": [],
      "stateMutability": "nonpayable",
      "type": "function"
    },
    {
      "inputs": [],
      "name": "version",
      "outputs": [
        {
          "internalType": "uint8",
          "name": "",
          "type": "uint8"
        }
      ],
      "stateMutability": "view",
      "type": "function"
    }
  ],
  "bytecode": {
    "object": "0x60803461008257601f6105bc38819003918201601f19168301916001600160401b038311848410176100875780849260209460405283398101031261008257516001600160a01b038116810361008257600080546001600160a81b03191660089290921b610100600160a81b031691909117905560405161051e908161009e8239f35b600080fd5b634e487b7160e01b600052604160045260246000fdfe608060408181526004918236101561001657600080fd5b600090813560e01c90816354fd4d501461040857508063809bef6214610201578063d3b150e6146100b35763d6e65cb91461005057600080fd5b346100b05760203660031901126100b05782359067ffffffffffffffff82116100b0575061009b6020610089819560ff94369101610479565b818551938285809451938492016104c5565b81016001815203019020541690519015158152f35b80fd5b5091346101fd57816003193601126101fd57803567ffffffffffffffff81116101f9576100e39036908301610479565b602435928315158094036101f557845481516353adc3e960e11b8152602094916001600160a01b039190869082908590829060081c86165afa9081156101eb5788916101b1575b501633036101645750908261014a939251938285809451938492016104c5565b810160018152030190209060ff8019835416911617905580f35b83608492519162461bcd60e51b8352820152602360248201527f4163636f756e74206973206e6f7420612074656d706f7261727920677561726460448201526234b0b760e91b6064820152fd5b90508581813d83116101e4575b6101c88183610425565b810103126101e0575181811681036101e0573861012a565b8780fd5b503d6101be565b84513d8a823e3d90fd5b8480fd5b8380fd5b8280fd5b50346100b05760209283600319360112610404576001600160a01b038135818116939192908481036101fd5785519387850191657075624b657960d01b83526bffffffffffffffffffffffff199060601b166026860152601a85528685019067ffffffffffffffff92868310848411176103f15760248387938193828d528a51902090855460081c1690630180634360e71b835260448b01525afa9485156103e75790849392918996610366575b505086519560ff87878188516102c981848c019d8e6104c5565b8101600181520301902054166102f4575b858860ff61009b838b8a85519384928392519283916104c5565b809192939495503b156101f957908383928194895180978193630a645e5560e21b83525af1801561035c5790889594939291156102da579091928094955011610349575050835283908261009b60ff386102da565b634e487b7160e01b825260419052602490fd5b87513d85823e3d90fd5b919550919293503d8085843e61037c8184610425565b81019188828985019403126101f55751908582116101f5570181605f820112156101f95786810151906103ae8261045d565b926103bb89519485610425565b828452606083830101116101f55782916103df9160608b80999897960191016104c5565b9238806102af565b87513d86823e3d90fd5b634e487b7160e01b865260418552602486fd5b5080fd5b90503461040457816003193601126104045760ff60209254168152f35b90601f8019910116810190811067ffffffffffffffff82111761044757604052565b634e487b7160e01b600052604160045260246000fd5b67ffffffffffffffff811161044757601f01601f191660200190565b81601f820112156104c0578035906104908261045d565b9261049e6040519485610425565b828452602083830101116104c057816000926020809301838601378301015290565b600080fd5b60005b8381106104d85750506000910152565b81810151838201526020016104c856fea2646970667358221220772ae6bc574819bfce72665f9a980daf83fe4984931250db4cd33915d35b9df064736f6c63430008110033",
    "linkReferences": {}
  },
  "methodIdentifiers": {
    "checkValidatorState(address)": "809bef62",
    "isExiting(bytes)": "d6e65cb9",
    "setExiting(bytes,bool)": "d3b150e6",
    "version()": "54fd4d50"
  },
  "id": 8
}