{
  "abi": [
    {
      "inputs": [
        {
          "internalType": "contract IFrensStorage",
          "name": "_frensStorage",
          "type": "address"
        }
      ],
      "stateMutability": "nonpayable",
      "type": "constructor"
    },
    {
      "inputs": [
        {
          "internalType": "uint256",
          "name": "id",
          "type": "uint256"
        },
        {
          "internalType": "uint256",
          "name": "amount",
          "type": "uint256"
        }
      ],
      "name": "addToDeposit",
      "outputs": [
        {
          "internalType": "bool",
          "name": "",
          "type": "bool"
        }
      ],
      "stateMutability": "nonpayable",
      "type": "function"
    },
    {
      "inputs": [
        {
          "internalType": "address",
          "name": "stakingPool",
          "type": "address"
        },
        {
          "internalType": "bool",
          "name": "validatorLocked",
          "type": "bool"
        }
      ],
      "name": "create",
      "outputs": [
        {
          "internalType": "bool",
          "name": "",
          "type": "bool"
        }
      ],
      "stateMutability": "nonpayable",
      "type": "function"
    },
    {
      "inputs": [
        {
          "internalType": "uint256",
          "name": "depositAmount",
          "type": "uint256"
        }
      ],
      "name": "depositToPool",
      "outputs": [
        {
          "internalType": "bool",
          "name": "",
          "type": "bool"
        }
      ],
      "stateMutability": "nonpayable",
      "type": "function"
    },
    {
      "inputs": [
        {
          "internalType": "uint256",
          "name": "id",
          "type": "uint256"
        },
        {
          "internalType": "uint256",
          "name": "price",
          "type": "uint256"
        }
      ],
      "name": "rageQuit",
      "outputs": [
        {
          "internalType": "bool",
          "name": "",
          "type": "bool"
        }
      ],
      "stateMutability": "nonpayable",
      "type": "function"
    },
    {
      "inputs": [
        {
          "internalType": "address",
          "name": "newArtContract",
          "type": "address"
        }
      ],
      "name": "setArt",
      "outputs": [
        {
          "internalType": "bool",
          "name": "",
          "type": "bool"
        }
      ],
      "stateMutability": "nonpayable",
      "type": "function"
    },
    {
      "inputs": [
        {
          "internalType": "bytes",
          "name": "pubKey",
          "type": "bytes"
        },
        {
          "internalType": "bytes",
          "name": "withdrawal_credentials",
          "type": "bytes"
        },
        {
          "internalType": "bytes",
          "name": "signature",
          "type": "bytes"
        },
        {
          "internalType": "bytes32",
          "name": "deposit_data_root",
          "type": "bytes32"
        }
      ],
      "name": "setPubKey",
      "outputs": [
        {
          "internalType": "bool",
          "name": "",
          "type": "bool"
        }
      ],
      "stateMutability": "nonpayable",
      "type": "function"
    },
    {
      "inputs": [
        {
          "internalType": "uint256",
          "name": "id",
          "type": "uint256"
        }
      ],
      "name": "unlockTransfer",
      "outputs": [
        {
          "internalType": "bool",
          "name": "",
          "type": "bool"
        }
      ],
      "stateMutability": "nonpayable",
      "type": "function"
    },
    {
      "inputs": [],
      "name": "version",
      "outputs": [
        {
          "internalType": "uint8",
          "name": "",
          "type": "uint8"
        }
      ],
      "stateMutability": "view",
      "type": "function"
    },
    {
      "inputs": [
        {
          "internalType": "uint256",
          "name": "_id",
          "type": "uint256"
        },
        {
          "internalType": "uint256",
          "name": "_amount",
          "type": "uint256"
        }
      ],
      "name": "withdraw",
      "outputs": [
        {
          "internalType": "bool",
          "name": "",
          "type": "bool"
        }
      ],
      "stateMutability": "nonpayable",
      "type": "function"
    }
  ],
  "bytecode": {
    "object": "0x60803461008257601f6111e338819003918201601f19168301916001600160401b038311848410176100875780849260209460405283398101031261008257516001600160a01b038116810361008257600080546001600160a81b03191660089290921b610100600160a81b0316919091179055604051611145908161009e8239f35b600080fd5b634e487b7160e01b600052604160045260246000fdfe608060408181526004918236101561001657600080fd5b600092833560e01c918263084bad7814610ab957508163319e9090146108a9578163441a3e70146107fc57816354fd4d50146107dc57816368b0e0701461050b578163bed62f3514610441578163e6b1a3ae146103bf578163e920eec014610179575063f038afe31461008857600080fd5b346101755760209061016e61009c36610b3f565b906100d26100cd8551878101906100c5816100b73385610c45565b03601f198101835282610c00565b519020610ddd565b610d3f565b6101098451868101906c726167652e7175697474696e6760981b825283602d820152602d815261010181610bc8565b519020610c8c565b61013e84518681019068726167652e74696d6560b81b82528360298201526029815261013481610bc8565b5190204290610eb8565b83518581019169726167652e707269636560b01b8352602a820152602a815261016681610bc8565b519020610eb8565b5160018152f35b5080fd5b9050346103b35760803660031901126103b35767ffffffffffffffff9080358281116103bb576101ac9036908301610b70565b9490926024358181116103b3576101c69036908501610b70565b916044359081116103b7576101de9036908601610b70565b9290918751986020998a81019080336101f79084610c45565b03601f19810182526102099082610c00565b51902061021590610ddd565b61021e90610d3f565b8851978a8901657075624b657960d01b81523360601b998a6026820152601a815261024881610be4565b51902091369061025792611013565b6102609161104a565b875189810190757769746864726177616c5f63726564656e7469616c7360501b8252886036820152602a815261029581610bc8565b5190209136906102a492611013565b6102ad9161104a565b855187810190687369676e617475726560b81b8252866029820152601d81526102d581610be4565b5190209136906102e492611013565b6102ed9161104a565b8351858101907019195c1bdcda5d17d9185d1857dc9bdbdd607a1b82528460318201526025815261031d81610bc8565b519020815460081c6001600160a01b031692833b156103b357906044839283885196879485936309d23b6160e31b855284015260643560248401525af19081156103a857509061016e9291610399575b508251848101916c1d985b1a59185d1bdc8b9cd95d609a1b8352602d8201526021815261010181610bc8565b6103a290610b9e565b3861036d565b8451903d90823e3d90fd5b8280fd5b8380fd5b8480fd5b5050346101755760203660031901126101755760209061016e6103e0610b5a565b6103fa6100cd8451868101906100c5816100b73385610c45565b8251848101907f706f6f6c2e73706563696669632e6172742e616464726573730000000000000082523360601b6039820152602d815261043981610bc8565b519020610e67565b9050346103b35760203660031901126103b35761046f6100cd835160208101906100c5816100b73385610c45565b82825160208101906e1d1c985b9cd9995c8b9b1bd8dad959608a1b82528335602f820152602f81526104a081610bc8565b519020815460081c6001600160a01b031692833b156103b357604490838651958694859363abfdcced60e01b85528401528160248401525af180156104ff57602093506104f0575b505160018152f35b6104f990610b9e565b386104e8565b505051903d90823e3d90fd5b8284346107d957602092836003193601126101755780359083519261054e6100cd8786018661053a3383610c45565b03966100c5601f1998898101835282610c00565b845192868401671d1bdad95b8b9a5960c21b948582526008815261057181610be4565b51902082546001600160a01b03959160089190911c861690813b156103bb578491604483928b519485938492632b6cd4f760e21b84528b840152600160248401525af180156107cf576107c0575b508651888101918252600881526105d581610be4565b519020948785845460081c1696602489518099819363bd02d0f560e01b8352898301525afa9586156107b6578396610785575b509061065b916106338289518b810190610166816106278d3386610d7a565b03868101835282610c00565b87516106538a820192826106473386610daf565b03908101835282610c00565b519020610f05565b8451928684016a1a591ccb9a5b8b9c1bdbdb60aa1b81523360601b9485602b820152601f815261068a81610be4565b51902090825460081c1692833b156103b3579060448392838951968794859363785f002b60e11b85528401528960248401525af190811561077a5750916107359161016e949361076b575b5061070c85518781016a1c1bdbdb0b999bdc8b9a5960aa1b815285602b830152602b825261070282610bc8565b3391519020610e67565b8451868101916b199c995b9ccb9b1bd8dad95960a21b8352602c8201528681526100c581610be4565b908351858101916e1d1c985b9cd9995c8b9b1bd8dad959608a1b8352602f820152602f815261076381610bc8565b519020610cf0565b61077490610b9e565b866106d5565b8551903d90823e3d90fd5b9095508781813d83116107af575b61079d8183610c00565b810103126103b357519461065b610608565b503d610793565b87513d85823e3d90fd5b6107c990610b9e565b886105bf565b88513d86823e3d90fd5b80fd5b50503461017557816003193601126101755760ff60209254169051908152f35b5050346101755760209061016e61081236610b3f565b906108958285519261082e6100cd8986018661053a3383610c45565b6108798751898101906a1c1bdbdb0b999bdc8b9a5960aa1b825283602b820152602b815261085b81610bc8565b51902033906001600160a01b039061087290610f93565b1614610f52565b865161088d816106278b8201943386610d7a565b5190206110c2565b835161088d86820192826106473386610daf565b9050346103b357816003193601126103b3576108c3610b5a565b6024359182151583036103bb57835194602095868101906c636f6e74726163742e6e616d6560981b82523360601b602d8201526021815261090381610bc8565b51902081548651634c373c8d60e11b81528481019290925282908290602490829060081c6001600160a01b03165afa918215610aae578092610a34575b5050845161096a87828161095d8183019687815193849201610c22565b8101038084520182610c00565b519020845186810190715374616b696e67506f6f6c466163746f727960701b82526012815261099881610be4565b519020036109f957509061016e916109bd845186810190610101816100b78685610c45565b8351858101916f1d985b1a59185d1bdc8b9b1bd8dad95960821b83526001600160601b03199060601b1660308201526024815261076381610bc8565b835162461bcd60e51b815290810185905260156024820152741bdb9b1e48199858dd1bdc9e4818d85b8818d85b1b605a1b6044820152606490fd5b9091503d8082843e610a468184610c00565b82019187818403126101755780519067ffffffffffffffff82116103b3570182601f8201121561017557805191610a7c83610c70565b93610a8989519586610c00565b8385528984840101116107d9575090610aa791888085019101610c22565b3880610940565b8651903d90823e3d90fd5b8385346107d9575061016e610b2b602093610ad336610b3f565b809391610aea6100cd8986018661053a3383610c45565b610b178751898101906a1c1bdbdb0b999bdc8b9a5960aa1b825283602b820152602b815261085b81610bc8565b8651610653816106278b8201943386610d7a565b835161065386820192826106473386610daf565b6040906003190112610b55576004359060243590565b600080fd5b600435906001600160a01b0382168203610b5557565b9181601f84011215610b555782359167ffffffffffffffff8311610b555760208381860195010111610b5557565b67ffffffffffffffff8111610bb257604052565b634e487b7160e01b600052604160045260246000fd5b6060810190811067ffffffffffffffff821117610bb257604052565b6040810190811067ffffffffffffffff821117610bb257604052565b90601f8019910116810190811067ffffffffffffffff821117610bb257604052565b60005b838110610c355750506000910152565b8181015183820152602001610c25565b601f916a706f6f6c2e65786973747360a81b82526001600160601b03199060601b16600b8201520190565b67ffffffffffffffff8111610bb257601f01601f191660200190565b60009060018060a01b03825460081c1690813b156103b357829160448392604051958693849263abfdcced60e01b84526004840152600160248401525af1908115610ce45750610cd95750565b610ce290610b9e565b565b604051903d90823e3d90fd5b6000805460081c6001600160a01b0316929091833b156103b357906044839283604051968794859363abfdcced60e01b85526004850152151560248401525af1908115610ce45750610cd95750565b15610d4657565b60405162461bcd60e51b815260206004820152600c60248201526b125b9d985b1a5908141bdbdb60a21b6044820152606490fd5b90916042926d19195c1bdcda5d0b985b5bdd5b9d60921b83526001600160601b03199060601b16600e83015260228201520190565b6022916d746f74616c2e6465706f7369747360901b82526001600160601b03199060601b16600e8201520190565b60008054604051633d70e7e560e11b815260048101939093526020908390602490829060081c6001600160a01b03165afa918215610e5a578192610e2057505090565b9091506020813d8211610e52575b81610e3b60209383610c00565b8101031261017557519081151582036107d9575090565b3d9150610e2e565b50604051903d90823e3d90fd5b600080546001600160a01b039391929060081c8416803b156103b75783929183604492604051978895869463ca446dd960e01b865260048601521660248401525af1908115610ce45750610cd95750565b6000805460081c6001600160a01b0316929091833b156103b3579060448392836040519687948593637152429d60e11b8552600485015260248401525af1908115610ce45750610cd95750565b6000805460081c6001600160a01b0316929091833b156103b3579060448392836040519687948593632b6cd4f760e21b8552600485015260248401525af1908115610ce45750610cd95750565b15610f5957565b60405162461bcd60e51b81526020600482015260126024820152711ddc9bdb99c81cdd185ada5b99c81c1bdbdb60721b6044820152606490fd5b60018060a01b036000602082825460081c16936024604051809681936321f8a72160e01b835260048301525afa928315610e5a578193610fd4575b50505090565b909192506020813d821161100b575b81610ff060209383610c00565b81010312610175575191821682036107d95750388080610fce565b3d9150610fe3565b92919261101f82610c70565b9161102d6040519384610c00565b829481845281830111610b55578281602093846000960137010152565b91909160009060018060a01b03825460081c1690813b156103b3579382916064949583604051968780958194630b8a342160e21b83526004830152604060248301526110a58151809281604486015260208686019101610c22565b601f01601f191681010301925af1908115610ce45750610cd95750565b6000805460081c6001600160a01b0316929091833b156103b357906044839283604051968794859363ebb9d8c960e01b8552600485015260248401525af1908115610ce45750610cd9575056fea264697066735822122092513facf45d2b6c8b2f1f629dc532f66cc79a0b4abbd60f09758b94332dd2f964736f6c63430008110033",
    "linkReferences": {}
  },
  "methodIdentifiers": {
    "addToDeposit(uint256,uint256)": "084bad78",
    "create(address,bool)": "319e9090",
    "depositToPool(uint256)": "68b0e070",
    "rageQuit(uint256,uint256)": "f038afe3",
    "setArt(address)": "e6b1a3ae",
    "setPubKey(bytes,bytes,bytes,bytes32)": "e920eec0",
    "unlockTransfer(uint256)": "bed62f35",
    "version()": "54fd4d50",
    "withdraw(uint256,uint256)": "441a3e70"
  },
  "id": 7
}