{
  "abi": [
    {
      "inputs": [
        {
          "internalType": "contract IFrensStorage",
          "name": "_frensStorage",
          "type": "address"
        }
      ],
      "stateMutability": "nonpayable",
      "type": "constructor"
    },
    {
      "inputs": [
        {
          "internalType": "uint256",
          "name": "id",
          "type": "uint256"
        },
        {
          "internalType": "uint256",
          "name": "amount",
          "type": "uint256"
        }
      ],
      "name": "addToDeposit",
      "outputs": [
        {
          "internalType": "bool",
          "name": "",
          "type": "bool"
        }
      ],
      "stateMutability": "nonpayable",
      "type": "function"
    },
    {
      "inputs": [
        {
          "internalType": "uint256",
          "name": "depositAmount",
          "type": "uint256"
        }
      ],
      "name": "depositToPool",
      "outputs": [
        {
          "internalType": "bool",
          "name": "",
          "type": "bool"
        }
      ],
      "stateMutability": "nonpayable",
      "type": "function"
    },
    {
      "inputs": [
        {
          "internalType": "address",
          "name": "tokenOwner",
          "type": "address"
        },
        {
          "internalType": "uint256",
          "name": "share",
          "type": "uint256"
        }
      ],
      "name": "distribute",
      "outputs": [
        {
          "internalType": "bool",
          "name": "",
          "type": "bool"
        }
      ],
      "stateMutability": "nonpayable",
      "type": "function"
    },
    {
      "inputs": [
        {
          "internalType": "address",
          "name": "newArtContract",
          "type": "address"
        }
      ],
      "name": "setArt",
      "outputs": [
        {
          "internalType": "bool",
          "name": "",
          "type": "bool"
        }
      ],
      "stateMutability": "nonpayable",
      "type": "function"
    },
    {
      "inputs": [
        {
          "internalType": "bytes",
          "name": "pubKey",
          "type": "bytes"
        },
        {
          "internalType": "bytes",
          "name": "withdrawal_credentials",
          "type": "bytes"
        },
        {
          "internalType": "bytes",
          "name": "signature",
          "type": "bytes"
        },
        {
          "internalType": "bytes32",
          "name": "deposit_data_root",
          "type": "bytes32"
        }
      ],
      "name": "setPubKey",
      "outputs": [
        {
          "internalType": "bool",
          "name": "",
          "type": "bool"
        }
      ],
      "stateMutability": "nonpayable",
      "type": "function"
    },
    {
      "inputs": [],
      "name": "version",
      "outputs": [
        {
          "internalType": "uint8",
          "name": "",
          "type": "uint8"
        }
      ],
      "stateMutability": "view",
      "type": "function"
    },
    {
      "inputs": [
        {
          "internalType": "uint256",
          "name": "_id",
          "type": "uint256"
        },
        {
          "internalType": "uint256",
          "name": "_amount",
          "type": "uint256"
        }
      ],
      "name": "withdraw",
      "outputs": [
        {
          "internalType": "bool",
          "name": "",
          "type": "bool"
        }
      ],
      "stateMutability": "nonpayable",
      "type": "function"
    }
  ],
  "bytecode": {
    "object": "0x60803461008557601f610ce838819003918201601f19168301916001600160401b0383118484101761008a5780849260209460405283398101031261008557516001600160a01b038116810361008557600080546001600160a81b03191660089290921b610100600160a81b0316919091176002179055604051610c4790816100a18239f35b600080fd5b634e487b7160e01b600052604160045260246000fdfe608060408181526004918236101561001657600080fd5b600092833560e01c918263084bad78146107c257508163441a3e701461074857816354fd4d501461072857816368b0e0701461046e578163e6b1a3ae146103ec578163e920eec014610119575063fb9321081461007257600080fd5b3461011557806003193601126101155760209061010e61009061084e565b6100c56100c08451868101906100b8816100aa3385610892565b03601f19810183528261091f565b5190206109aa565b610941565b825190848201906f18db185a5b58589b194b985b5bdd5b9d60821b82526001600160601b03199060601b16603083015260248252610102826108e7565b60243591519020610a9c565b5160018152f35b5080fd5b8284346103a05760803660031901126103a05767ffffffffffffffff83358181116103e85761014b9036908601610864565b946024358381116103ad576101639036908301610864565b906044358581116103e45761017b9036908501610864565b92909188519960209a8b81019080336101949084610892565b03601f19810182526101a6908261091f565b5190206101b2906109aa565b6101bb90610941565b8951968b8801657075624b657960d01b81523360601b98896026820152601a81526101e581610903565b5190209136906101f492610ae9565b6101fd91610b30565b88518a810190757769746864726177616c5f63726564656e7469616c7360501b8252876036820152602a8152610232816108e7565b51902091369061024192610ae9565b61024a91610b30565b865188810190687369676e617475726560b81b8252856029820152601d815261027281610903565b51902091369061028192610ae9565b61028a91610b30565b8451868101907019195c1bdcda5d17d9185d1857dc9bdbdd607a1b8252836031820152602581526102ba816108e7565b51902084546001600160a01b03939160089190911c841690813b156103e4578691604483928a5194859384926309d23b6160e31b84528984015260643560248401525af180156103da579086916103c6575b5050855191878301916c1d985b1a59185d1bdc8b9cd95d609a1b8352602d840152602183526060830194838610908611176103b157508386528151902091845460081c1691823b156103ad578385809460016084849660449663abfdcced60e01b8752606482015201525af180156103a35761038c575b50505160018152f35b61039682916108bd565b6103a05780610383565b80fd5b83513d84823e3d90fd5b8480fd5b604190634e487b7160e01b6000525260246000fd5b6103cf906108bd565b6103ad57848861030c565b87513d88823e3d90fd5b8680fd5b8280fd5b5050346101155760203660031901126101155760209061010e61040d61084e565b6104276100c08451868101906100b8816100aa3385610892565b8251848101907f706f6f6c2e73706563696669632e6172742e616464726573730000000000000082523360601b6039820152602d8152610466816108e7565b519020610a34565b9050346103e857602092836003193601126103a05782519180356104b06100c08786018661049c3383610892565b03966100b8601f199889810183528261091f565b845190868201671d1bdad95b8b9a5960c21b92838252600881526104d381610903565b51902084546001600160a01b03939160089190911c841690813b156103e4578691604483928b519485938492632b6cd4f760e21b84528b840152600160248401525af180156106dc57610719575b5086518881019182526008815261053781610903565b5190209482855460081c1687519663bd02d0f560e01b8852858801528887602481845afa9687156106dc5786976106e6575b508751898101906d19195c1bdcda5d0b985b5bdd5b9d60921b825288602e820152602e8152610597816108e7565b519020813b156103e4578691604483928b519485938492637152429d60e11b84528b8401528860248401525af180156106dc576106c5575b50906105fd9187516105f58a820192826105e9338661097c565b0390810183528261091f565b519020610a9c565b8451868101906a1a591ccb9a5b8b9c1bdbdb60aa1b82523360601b602b820152601f815261062a81610903565b51902090835460081c1691823b156106c1579060448492838851958694859363785f002b60e11b85528401528860248401525af180156106b7576106a3575b505061010e90825190848201906a1c1bdbdb0b999bdc8b9a5960aa1b8252602b830152602b8252610699826108e7565b3391519020610a34565b6106ad82916108bd565b6103a05780610669565b84513d84823e3d90fd5b8380fd5b946106d46105fd9392966108bd565b9490916105cf565b88513d88823e3d90fd5b9096508881813d8311610712575b6106fe818361091f565b8101031261070e57519538610569565b8580fd5b503d6106f4565b610722906108bd565b38610521565b50503461011557816003193601126101155760ff60209254169051908152f35b5050346101155760209061010e61075e36610833565b906107ae8285519261077a6100c08986018661049c3383610892565b8651888101916d19195c1bdcda5d0b985b5bdd5b9d60921b8352602e820152602e81526107a6816108e7565b519020610bc4565b83516107a686820192826105e9338661097c565b8385346103a0575061010e61081f6020936107dc36610833565b8093916107f36100c08986018661049c3383610892565b8651888101916d19195c1bdcda5d0b985b5bdd5b9d60921b8352602e820152602e81526105f5816108e7565b83516105f586820192826105e9338661097c565b6040906003190112610849576004359060243590565b600080fd5b600435906001600160a01b038216820361084957565b9181601f840112156108495782359167ffffffffffffffff8311610849576020838186019501011161084957565b601f916a706f6f6c2e65786973747360a81b82526001600160601b03199060601b16600b8201520190565b67ffffffffffffffff81116108d157604052565b634e487b7160e01b600052604160045260246000fd5b6060810190811067ffffffffffffffff8211176108d157604052565b6040810190811067ffffffffffffffff8211176108d157604052565b90601f8019910116810190811067ffffffffffffffff8211176108d157604052565b1561094857565b60405162461bcd60e51b815260206004820152600c60248201526b125b9d985b1a5908141bdbdb60a21b6044820152606490fd5b6022916d746f74616c2e6465706f7369747360901b82526001600160601b03199060601b16600e8201520190565b60008054604051633d70e7e560e11b815260048101939093526020908390602490829060081c6001600160a01b03165afa918215610a275781926109ed57505090565b9091506020813d8211610a1f575b81610a086020938361091f565b8101031261011557519081151582036103a0575090565b3d91506109fb565b50604051903d90823e3d90fd5b600080546001600160a01b039391929060081c8416803b156106c15783929183604492604051978895869463ca446dd960e01b865260048601521660248401525af1908115610a905750610a855750565b610a8e906108bd565b565b604051903d90823e3d90fd5b6000805460081c6001600160a01b0316929091833b156103e8579060448392836040519687948593632b6cd4f760e21b8552600485015260248401525af1908115610a905750610a855750565b92919267ffffffffffffffff82116108d15760405191610b13601f8201601f19166020018461091f565b829481845281830111610849578281602093846000960137010152565b600080549192909160081c6001600160a01b031690813b156103e857928291604051948592630b8a342160e21b8452600484015260406024840152805190816044850152845b828110610ba957505083606484838383839684010152601f801991011681010301925af1908115610a905750610a855750565b602081830181015160648a8401015287965088955001610b76565b6000805460081c6001600160a01b0316929091833b156103e857906044839283604051968794859363ebb9d8c960e01b8552600485015260248401525af1908115610a905750610a85575056fea2646970667358221220752ebae842e4bd65941425f5498f72cf48ca50b88361ba249139a07594da872464736f6c63430008110033",
    "linkReferences": {}
  },
  "methodIdentifiers": {
    "addToDeposit(uint256,uint256)": "084bad78",
    "depositToPool(uint256)": "68b0e070",
    "distribute(address,uint256)": "fb932108",
    "setArt(address)": "e6b1a3ae",
    "setPubKey(bytes,bytes,bytes,bytes32)": "e920eec0",
    "version()": "54fd4d50",
    "withdraw(uint256,uint256)": "441a3e70"
  },
  "id": 6
}