{
  "abi": [
    {
      "inputs": [
        {
          "internalType": "contract IFrensStorage",
          "name": "frensStorage_",
          "type": "address"
        }
      ],
      "stateMutability": "nonpayable",
      "type": "constructor"
    },
    {
      "stateMutability": "payable",
      "type": "fallback"
    },
    {
      "inputs": [
        {
          "internalType": "address",
          "name": "claimant",
          "type": "address"
        }
      ],
      "name": "claim",
      "outputs": [],
      "stateMutability": "nonpayable",
      "type": "function"
    },
    {
      "inputs": [],
      "name": "claim",
      "outputs": [],
      "stateMutability": "nonpayable",
      "type": "function"
    },
    {
      "inputs": [
        {
          "internalType": "uint256[]",
          "name": "ids",
          "type": "uint256[]"
        }
      ],
      "name": "distribute",
      "outputs": [
        {
          "internalType": "bool",
          "name": "",
          "type": "bool"
        }
      ],
      "stateMutability": "payable",
      "type": "function"
    },
    {
      "inputs": [
        {
          "internalType": "uint256",
          "name": "_id",
          "type": "uint256"
        }
      ],
      "name": "getShare",
      "outputs": [
        {
          "internalType": "uint256",
          "name": "",
          "type": "uint256"
        }
      ],
      "stateMutability": "view",
      "type": "function"
    },
    {
      "inputs": [],
      "name": "version",
      "outputs": [
        {
          "internalType": "uint8",
          "name": "",
          "type": "uint8"
        }
      ],
      "stateMutability": "view",
      "type": "function"
    },
    {
      "stateMutability": "payable",
      "type": "receive"
    }
  ],
  "bytecode": {
    "object": "0x60806040908082523461018157806109a6803803809161001f8285610186565b833960209283918101031261018157516001600160a01b03919082811681036101815760008054610100600160a81b0319811660089390931b610100600160a81b031692831780835586516f636f6e74726163742e6164647265737360801b8187019081526d4672656e73506f6f6c536861726560901b6030830152601e82529396949592949390928389019290916001600160401b0384118585101761016d576024848785948294838f52895190206321f8a72160e01b845260448a015260081c165afa928315610163578793610127575b5050600180546001600160a01b03191693909216929092179055506001600160a81b031916179055516107e690816101c08239f35b90809293503d831161015c575b61013e8185610186565b8101031261015857518181168103610158573880806100f2565b8480fd5b503d610134565b88513d89823e3d90fd5b634e487b7160e01b89526041600452602489fd5b600080fd5b601f909101601f19168101906001600160401b038211908210176101a957604052565b634e487b7160e01b600052604160045260246000fdfe6040608081526004908136101561001d575b5050361561001b57005b005b6000803560e01c80631e83409a146103a25780634e71d92d146103855780634ea4f8e6146100e357806354fd4d50146100bf5763cfb5a5f8146100605750610011565b346100bc5760203660031901126100bc57506100b5602092356100ae8351858101906a1c1bdbdb0b999bdc8b9a5960aa1b825283602b820152602b81526100a6816103cf565b519020610487565b31906104f0565b9051908152f35b80fd5b5090346100df57816003193601126100df5760ff60209254169051908152f35b5080fd5b5091602092836003193601126100bc5781359067ffffffffffffffff928383116100df57366023840112156100df578281013592848411610381576024946005368787831b8501011161037d57875192898401906a706f6f6c2e65786973747360a81b82523360601b602b860152601f8552898501918583108584111761036b57828b528551902092875495633d70e7e560e11b84526044948582015260018060a01b03938d818d818860089c8d1c165afa9182156102ac578e908b9361032f575b505050156102fd57875b8c8c8b83106101bf575160018152f35b8c918284861b870101356101d334826104f0565b938c8960015416945194859384926331a9108f60e11b84528301525afa9081156102f3578f908f908d936102ba575b506102199161022791519283918201943086610447565b03601f198101835282610401565b51902090858b548a1c1690813b156102b6578e51632b6cd4f760e21b8152808c0193909352828e01528a9082908890829084905af180156102ac5761028b575b506000198114610279576001016101af565b634e487b7160e01b8952601188528a89fd5b86811161029a578c5238610267565b634e487b7160e01b8a52604189528b8afd5b8d513d8c823e3d90fd5b8b80fd5b610227919350916102e361021993823d84116102ec575b6102db8183610401565b810190610423565b93915091610202565b503d6102d1565b8e513d8d823e3d90fd5b5050885162461bcd60e51b81528086018b9052600c818a01526b125b9d985b1a5908141bdbdb60a21b81840152606490fd5b90809293503d8311610364575b6103468185610401565b810103126103605751801515810361036057388d816101a5565b8880fd5b503d61033c565b634e487b7160e01b8852604187528988fd5b8480fd5b8280fd5b50346100bc57806003193601126100bc5761039f336106a1565b80f35b5082346100df5760203660031901126100df57356001600160a01b03811681036100df5761039f906106a1565b6060810190811067ffffffffffffffff8211176103eb57604052565b634e487b7160e01b600052604160045260246000fd5b90601f8019910116810190811067ffffffffffffffff8211176103eb57604052565b9081602091031261044257516001600160a01b03811681036104425790565b600080fd5b906038926f18db185a5b58589b194b985b5bdd5b9d60821b83526bffffffffffffffffffffffff19809260601b16601084015260601b1660248201520190565b6000546040516321f8a72160e01b815260048101929092526020908290602490829060081c6001600160a01b03165afa9081156104e4576000916104c9575090565b6104e1915060203d81116102ec576102db8183610401565b90565b6040513d6000823e3d90fd5b61051f60405160208101906a1c1bdbdb0b999bdc8b9a5960aa1b825283602b820152602b81526100a6816103cf565b6040519060208201906d19195c1bdcda5d0b985b5bdd5b9d60921b82526bffffffffffffffffffffffff199060601b169283602e840152604283015260428252608082019082821067ffffffffffffffff8311176103eb576105c19261058a92604052519020610631565b9160405160208101916d746f74616c2e6465706f7369747360901b8352602e820152602281526105b9816103cf565b519020610631565b918115610629578181029181830414901517156105f75781156106135704600181111561060d5760001981019081116105f75790565b634e487b7160e01b600052601160045260246000fd5b50600090565b634e487b7160e01b600052601260045260246000fd5b505050600090565b60005460405163bd02d0f560e01b815260048101929092526020908290602490829060081c6001600160a01b03165afa9081156104e457600091610673575090565b906020823d8211610699575b8161068c60209383610401565b810103126100bc57505190565b3d915061067f565b604080516106cc60208201826106b8863084610447565b03926105b9601f1994858101835282610401565b9082516106ef6020820192826106e3883087610447565b03908101835282610401565b519020600080549094916001600160a01b039160081c821690813b156107ac5786916044839288519485938492637152429d60e11b845260048401528160248401525af180156107a25761076f575b508480938193829383918315610765575b1690f11561075b575050565b51903d90823e3d90fd5b6108fc925061074f565b67ffffffffffffffff8196929394961161078e5784529391903861073e565b634e487b7160e01b82526041600452602482fd5b85513d88823e3d90fd5b8680fdfea2646970667358221220a609be4ecfe5f929a42a9de81976f089c95acdb5a8010df97e1bb1b1088958d064736f6c63430008110033",
    "linkReferences": {}
  },
  "methodIdentifiers": {
    "claim()": "4e71d92d",
    "claim(address)": "1e83409a",
    "distribute(uint256[])": "4ea4f8e6",
    "getShare(uint256)": "cfb5a5f8",
    "version()": "54fd4d50"
  },
  "id": 3
}