{
  "abi": [
    {
      "inputs": [
        {
          "internalType": "contract IFrensStorage",
          "name": "frensStorage_",
          "type": "address"
        }
      ],
      "stateMutability": "nonpayable",
      "type": "constructor"
    },
    {
      "stateMutability": "payable",
      "type": "fallback"
    },
    {
      "inputs": [
        {
          "internalType": "address",
          "name": "claimant",
          "type": "address"
        }
      ],
      "name": "claim",
      "outputs": [],
      "stateMutability": "nonpayable",
      "type": "function"
    },
    {
      "inputs": [],
      "name": "claim",
      "outputs": [],
      "stateMutability": "nonpayable",
      "type": "function"
    },
    {
      "inputs": [],
      "name": "version",
      "outputs": [
        {
          "internalType": "uint8",
          "name": "",
          "type": "uint8"
        }
      ],
      "stateMutability": "view",
      "type": "function"
    },
    {
      "stateMutability": "payable",
      "type": "receive"
    }
  ],
  "bytecode": {
    "object": "0x60803461008257601f61038a38819003918201601f19168301916001600160401b038311848410176100875780849260209460405283398101031261008257516001600160a01b038116810361008257600080546001600160a81b03191660089290921b610100600160a81b03169190911790556040516102ec908161009e8239f35b600080fd5b634e487b7160e01b600052604160045260246000fdfe60806040526004361015610018575b361561001657005b005b6000803560e01c80631e83409a146100845780634e71d92d14610067576354fd4d5014610045575061000e565b3461006457806003193601126100645760ff6020915416604051908152f35b80fd5b5034610064578060031936011261006457610081336100ee565b80f35b5034610064576020366003190112610064576004356001600160a01b03811681036100b257610081906100ee565b5080fd5b90601f8019910116810190811067ffffffffffffffff8211176100d857604052565b634e487b7160e01b600052604160045260246000fd5b604080516f18db185a5b58589b194b985b5bdd5b9d60821b60208083019182526bffffffffffffffffffffffff19606086901b1660308401526024835293601f199290919061013e6044826100b6565b5190209160009460018060a01b039182875460081c169186519563bd02d0f560e01b875260048701528086602481865afa9586156102ac578896610279575b506101ce875191820192826101c288866024916f18db185a5b58589b194b985b5bdd5b9d60821b82526bffffffffffffffffffffffff199060601b1660108201520190565b039081018352826100b6565b519020813b156102755786916044839288519485938492637152429d60e11b845260048401528160248401525af1801561026b57610238575b50848093819382938391831561022e575b1690f115610224575050565b51903d90823e3d90fd5b6108fc9250610218565b67ffffffffffffffff8196929394961161025757845293919038610207565b634e487b7160e01b82526041600452602482fd5b85513d88823e3d90fd5b8680fd5b9080965081813d83116102a5575b61029181836100b6565b810103126102a15751943861017d565b8780fd5b503d610287565b87513d8a823e3d90fdfea26469706673582212206de896373da6f1ce4e32ed5152c4c96a423787b7d0bbcfd2b5ebbe04b59b589a64736f6c63430008110033",
    "linkReferences": {}
  },
  "methodIdentifiers": {
    "claim()": "4e71d92d",
    "claim(address)": "1e83409a",
    "version()": "54fd4d50"
  },
  "id": 3
}