{
  "contracts/StakingPoolFactory.sol": {
    "StakingPoolFactory": {
      "abi": [
        {
          "inputs": [
            {
              "internalType": "address",
              "name": "depContAddress_",
              "type": "address"
            },
            {
              "internalType": "address",
              "name": "ssvRegistryAddress_",
              "type": "address"
            }
          ],
          "stateMutability": "nonpayable",
          "type": "constructor"
        },
        {
          "anonymous": false,
          "inputs": [
            {
              "indexed": true,
              "internalType": "uint256",
              "name": "contractId",
              "type": "uint256"
            },
            {
              "indexed": true,
              "internalType": "address",
              "name": "contractAddress",
              "type": "address"
            },
            {
              "indexed": false,
              "internalType": "address",
              "name": "creator",
              "type": "address"
            },
            {
              "indexed": false,
              "internalType": "address",
              "name": "owner",
              "type": "address"
            },
            {
              "indexed": false,
              "internalType": "address",
              "name": "depositContractAddress",
              "type": "address"
            }
          ],
          "name": "Create",
          "type": "event"
        },
        {
          "anonymous": false,
          "inputs": [
            {
              "indexed": true,
              "internalType": "address",
              "name": "contractAddress",
              "type": "address"
            },
            {
              "indexed": false,
              "internalType": "address[]",
              "name": "owners",
              "type": "address[]"
            },
            {
              "indexed": true,
              "internalType": "uint256",
              "name": "signaturesRequired",
              "type": "uint256"
            }
          ],
          "name": "Owners",
          "type": "event"
        },
        {
          "anonymous": false,
          "inputs": [
            {
              "indexed": true,
              "internalType": "address",
              "name": "previousOwner",
              "type": "address"
            },
            {
              "indexed": true,
              "internalType": "address",
              "name": "newOwner",
              "type": "address"
            }
          ],
          "name": "OwnershipTransferred",
          "type": "event"
        },
        {
          "inputs": [
            {
              "internalType": "address",
              "name": "owner_",
              "type": "address"
            }
          ],
          "name": "create",
          "outputs": [
            {
              "internalType": "address",
              "name": "",
              "type": "address"
            },
            {
              "internalType": "uint256",
              "name": "",
              "type": "uint256"
            }
          ],
          "stateMutability": "nonpayable",
          "type": "function"
        },
        {
          "inputs": [
            {
              "internalType": "address",
              "name": "_stakingPoolAddress",
              "type": "address"
            }
          ],
          "name": "doesStakingPoolExist",
          "outputs": [
            {
              "internalType": "bool",
              "name": "",
              "type": "bool"
            }
          ],
          "stateMutability": "view",
          "type": "function"
        },
        {
          "inputs": [
            {
              "internalType": "uint256",
              "name": "_index",
              "type": "uint256"
            }
          ],
          "name": "getStakingPool",
          "outputs": [
            {
              "internalType": "address",
              "name": "stakingPoolAddress",
              "type": "address"
            },
            {
              "internalType": "uint256",
              "name": "balance",
              "type": "uint256"
            },
            {
              "internalType": "address",
              "name": "owner",
              "type": "address"
            }
          ],
          "stateMutability": "view",
          "type": "function"
        },
        {
          "inputs": [],
          "name": "numberOfStakingPools",
          "outputs": [
            {
              "internalType": "uint256",
              "name": "",
              "type": "uint256"
            }
          ],
          "stateMutability": "view",
          "type": "function"
        },
        {
          "inputs": [],
          "name": "owner",
          "outputs": [
            {
              "internalType": "address",
              "name": "",
              "type": "address"
            }
          ],
          "stateMutability": "view",
          "type": "function"
        },
        {
          "inputs": [],
          "name": "renounceOwnership",
          "outputs": [],
          "stateMutability": "nonpayable",
          "type": "function"
        },
        {
          "inputs": [
            {
              "internalType": "address",
              "name": "frensPoolShareAddress_",
              "type": "address"
            }
          ],
          "name": "setFrensPoolShare",
          "outputs": [],
          "stateMutability": "nonpayable",
          "type": "function"
        },
        {
          "inputs": [
            {
              "internalType": "uint256",
              "name": "",
              "type": "uint256"
            }
          ],
          "name": "stakingPools",
          "outputs": [
            {
              "internalType": "contract StakingPool",
              "name": "",
              "type": "address"
            }
          ],
          "stateMutability": "view",
          "type": "function"
        },
        {
          "inputs": [
            {
              "internalType": "address",
              "name": "newOwner",
              "type": "address"
            }
          ],
          "name": "transferOwnership",
          "outputs": [],
          "stateMutability": "nonpayable",
          "type": "function"
        }
      ],
      "devdoc": {
        "kind": "dev",
        "methods": {
          "owner()": {
            "details": "Returns the address of the current owner."
          },
          "renounceOwnership()": {
            "details": "Leaves the contract without owner. It will not be possible to call `onlyOwner` functions anymore. Can only be called by the current owner. NOTE: Renouncing ownership will leave the contract without an owner, thereby removing any functionality that is only available to the owner."
          },
          "transferOwnership(address)": {
            "details": "Transfers ownership of the contract to a new account (`newOwner`). Can only be called by the current owner."
          }
        },
        "version": 1
      },
      "evm": {
        "bytecode": {
          "linkReferences": {},
          "object": "6080346100c357601f61202838819003918201601f19168301916001600160401b038311848410176100c85780849260409485528339810103126100c357610052602061004b836100de565b92016100de565b60008054336001600160a01b0319808316821784556040519590946001600160a01b03949093859391908416907f8be0079c531659141344cd1fd0a4f28419497f9722a3daafe3b4186f6b6457e09089a31683600354161760035516906004541617600455611f3590816100f38239f35b600080fd5b634e487b7160e01b600052604160045260246000fd5b51906001600160a01b03821682036100c35756fe60406080815260048036101561001457600080fd5b600091823560e01c80632edaf74d146105885780635aad6cf0146105315780636202d39614610512578063715018a6146104b257806376f42f8a146104735780638da5cb5b1461044b5780639ed9331814610240578063a2b44d75146101525763f2fde38b1461008357600080fd5b3461014e57602036600319011261014e5781356001600160a01b03818116929183900361014a578454908116936100bb338614610625565b83156100f857506001600160a01b0319168217845551917f8be0079c531659141344cd1fd0a4f28419497f9722a3daafe3b4186f6b6457e08484a3f35b608490602084519162461bcd60e51b8352820152602660248201527f4f776e61626c653a206e6577206f776e657220697320746865207a65726f206160448201526564647265737360d01b6064820152fd5b8480fd5b8280fd5b503461014e576020918260031936011261023c5761017081356105d8565b90548351638da5cb5b60e01b815260039290921b1c6001600160a01b039081169490929185319190818185818a5afa9384156102325788946101c2575b50506060965084519586528501521690820152f35b9091809450903d851161022a575b601f8201601f191683019067ffffffffffffffff8211848310176102175750849183918852810103126102135751838116810361021357606096509138806101ad565b8680fd5b634e487b7160e01b8a5260419052602489fd5b3d91506101d0565b86513d8a823e3d90fd5b8380fd5b50919034610447576020366003190112610447576001600160a01b03918135908382169081830361044457600154938560035416866005541688519061188f928383019067ffffffffffffffff948483108684111761043157918493916102c79361067186396001600160a01b039081168252306020830152909116604082015260600190565b039084f08015610427576001546801000000000000000081101561041457906102fb8260018b9897969594016001556105d8565b99909116809982549060031b88811b9283911b169119161790558783526002602052888320600160ff19825416179055873b1561014e5788519363f2fde38b60e01b8552828501528284602481838c5af1801561040a579187959391899795936103b8575b505060035489513381526001600160a01b03958616602082015293169093166040830152507f18cc83251b20febb5b0c01f457a3e15b6e2eb22f48b01a0b9e5a24012cc2f6929150606090a382519182526020820152f35b919395509180949650116103f75750508552839183917f18cc83251b20febb5b0c01f457a3e15b6e2eb22f48b01a0b9e5a24012cc2f692388080610360565b634e487b7160e01b825260419052602490fd5b89513d85823e3d90fd5b634e487b7160e01b855260418452602485fd5b88513d85823e3d90fd5b634e487b7160e01b885260418752602488fd5b80fd5b5080fd5b838234610447578160031936011261044757905490516001600160a01b039091168152602090f35b50903461014e57602036600319011261014e57356001600160a01b0381169081900361014e57818360ff92602095526002855220541690519015158152f35b83823461044757816003193601126104475781546001600160a01b0381169183916104de338514610625565b6001600160a01b031916825551917f8be0079c531659141344cd1fd0a4f28419497f9722a3daafe3b4186f6b6457e08284a3f35b8382346104475781600319360112610447576020906001549051908152f35b50903461014e57602036600319011261014e573560015481101561014e5760016020935260018060a01b03907fb10e2d527612073b26eecdfd717e6a320cf44b4afac2b0732d9fcbe2b7fa0cf60154169051908152f35b50903461014e57602036600319011261014e57356001600160a01b038181169182900361023c576105bd908454163314610625565b6bffffffffffffffffffffffff60a01b600554161760055551f35b60015481101561060f5760016000527fb10e2d527612073b26eecdfd717e6a320cf44b4afac2b0732d9fcbe2b7fa0cf60190600090565b634e487b7160e01b600052603260045260246000fd5b1561062c57565b606460405162461bcd60e51b815260206004820152602060248201527f4f776e61626c653a2063616c6c6572206973206e6f7420746865206f776e65726044820152fdfe60803461010257601f6200188f38819003918201601f19168301916001600160401b0383118484101761010757808492606094604052833981010312610102576100488161011d565b61006060406100596020850161011d565b930161011d565b600080546001600160a01b03198082163390811784556040519691956001600160a01b0395948694859391908416907f8be0079c531659141344cd1fd0a4f28419497f9722a3daafe3b4186f6b6457e0908ba360045490610100600160a81b039060081b169060018060a81b031916178060045560081c16856007541617600755168360085416176008551690600954161760095561175d9081620001328239f35b600080fd5b634e487b7160e01b600052604160045260246000fd5b51906001600160a01b03821682036101025756fe6040608081526004908136101561001d575b5050361561001b57005b005b600090813560e01c80631865c57d14610fdf5780632a4dbd2b14610fb35780632def662014610f8b5780632edaf74d14610f3b578063378de45b146105b6578063441a3e7014610d915780634ad02ef114610d615780634b2b4e3614610947578063678e300a14610927578063715018a6146108c65780637be0b4a0146107ee5780637d882097146107d057806382a790cf146107975780638620891c146105de57806387f8ab26146105b65780638da5cb5b1461058f578063cfb5a5f814610563578063e2664e4914610513578063e32d2913146103de578063e4fc6b6d146103c2578063f2fde38b146102ed5763f340fa011461011c5750610011565b602092836003193601126102e9576001600160a01b03938135858116919082900361024a5760ff83541660038110156102d657610159901561129c565b341561029f579081859392876009541684875180978193632798987d60e11b83525af1938415610295578694610261575b506001908487525234848620556101a3346002546112e1565b600255600354956801000000000000000087101561024e57836101d0886001899a999899016003556111bd565b819291549060031b600019811b9283911b1691191617905560095416803b1561024a5784928360649288519687958694630d4d151360e01b865285015260248401523060448401525af1801561023d5761022957505051f35b610232906110a9565b6102395751f35b5080fd5b50505051903d90823e3d90fd5b8480fd5b634e487b7160e01b865260418352602486fd5b9080945081813d831161028e575b61027981836110ef565b8101031261028a575192600161018a565b8580fd5b503d61026f565b85513d88823e3d90fd5b9050606492519162461bcd60e51b8352820152601260248201527136bab9ba103232b837b9b4ba1032ba3432b960711b6044820152fd5b634e487b7160e01b865260218452602486fd5b8280fd5b5082346102e95760203660031901126102e9576001600160a01b038135818116929083900361024a57610324828654163314611251565b8215610370575060005492826bffffffffffffffffffffffff60a01b8516176000555192167f8be0079c531659141344cd1fd0a4f28419497f9722a3daafe3b4186f6b6457e0600084a3f35b608490602085519162461bcd60e51b8352820152602660248201527f4f776e61626c653a206e6577206f776e657220697320746865207a65726f206160448201526564647265737360d01b6064820152fd5b50346102395781600319360112610239576103db611330565b51f35b5034610239576020806003193601126102e95767ffffffffffffffff90843582811161024a573660238201121561024a57610422903690602481890135910161120a565b9461043760018060a01b038654163314611251565b855192831161050057506104558261045060065461106f565b6115c6565b80601f83116001146104905750839482939492610485575b50508160011b916000199060031b1c19161760065551f35b01519050388061046d565b60068552601f19831695600080516020611708833981519152929186905b8882106104e8575050836001959697106104cf575b505050811b0160065551f35b015160001960f88460031b161c191690553880806104c3565b806001859682949686015181550195019301906104ae565b634e487b7160e01b855260419052602484fd5b503461023957816003193601126102395761053860018060a01b038354163314611251565b818080804781811561055a575b3390f1156105505751f35b51903d90823e3d90fd5b506108fc610545565b50903461058c57602036600319011261058c57506105856020924790356114f4565b9051908152f35b80fd5b5034610239578160031936011261023957905490516001600160a01b039091168152602090f35b5082346102e95760203660031901126102e95760209282913581526001845220549051908152f35b50826020806003193601126106a95781359160018060a01b03858382600954166024885180948193634f558e7960e01b83528a898401525af190811561072557879161075d575b501561072f57808360249260095416875193848092630178b36760e31b825289888301525afa9182156107255787926106f6575b50309116036106c05760ff8154169060038210156106ad57501561067c8161129c565b156106a9576001918452528082206106953482546112e1565b90556106a3346002546112e1565b60025551f35b8380fd5b634e487b7160e01b865260219052602485fd5b60649184519162461bcd60e51b835282015260126024820152711ddc9bdb99c81cdd185ada5b99c81c1bdbdb60721b6044820152fd5b610717919250843d861161071e575b61070f81836110ef565b810190611304565b9087610659565b503d610705565b86513d89823e3d90fd5b5060649184519162461bcd60e51b835282015260096024820152681b9bdd08195e1a5cdd60ba1b6044820152fd5b90508381813d8311610790575b61077481836110ef565b8101031261078c5751801515810361078c5787610625565b8680fd5b503d61076a565b5082346102e95760203660031901126102e957359160035483101561058c57506107c26020926111bd565b90549060031b1c9051908152f35b50346102395781600319360112610239576020906002549051908152f35b50903461058c578060031936011261058c575080516000916006546108128161106f565b8084529060019081811690811561089e5750600114610853575b505061083d8261084f9403836110ef565b51918291602083526020830190610ffc565b0390f35b6006600090815294506000805160206117088339815191525b828610610886575050509181016020019161083d8261082c565b8054602087870181019190915290950194810161086c565b61084f9650859250602091509261083d9360ff191682840152151560051b820101945061082c565b5034610239578160031936011261023957600060018060a01b036108ee818554163314611251565b81546001600160a01b031981168355925192167f8be0079c531659141344cd1fd0a4f28419497f9722a3daafe3b4186f6b6457e08284a3f35b50903461058c57602036600319011261058c575061058560209235611589565b50903461058c57600319916080368401126102395767ffffffffffffffff84358181116106a95761097b903690870161103c565b60249691873584811161078c57610995903690850161103c565b9260449889359a878c11610d5d576109b68a9b9c9a98999a3690890161103c565b926109cc60018060a01b03809b54163314611251565b6801bc16d674ec80000093844710610d285760ff8a54166003811015610d1657610ce4576109f8611111565b8051602091820120606051608020919d9114610c135750610a17611111565b8c8151910120610a2836888b61120a565b8d815191012003610bc5575b895460ff19166001178a5530600160f81b8101908110610bb3578d51908d82019081528d8252610a63826110d3565b8d610a6f368d8c61120a565b80519101209151902003610b70578d9e8b9d9e999a9b60079e9d9e541697883b15610b6c578f516304512a2360e31b81526080818f01529b8c9a8b998a989291610abd9160848b01916116e6565b91868984030190890152610ad0926116e6565b928584030190850152610ae2926116e6565b606435606483015203925af1801561029557610b33575b509183917f1944debb24a9aafcf2708be964e412cdb73fc36d6ea24577fd8dcc05b93b4a44935460081c169082519182523390820152a151f35b917f1944debb24a9aafcf2708be964e412cdb73fc36d6ea24577fd8dcc05b93b4a44939195610b6286946110a9565b9591935091610af9565b8a80fd5b505050867f7769746864726177616c2063726564656e7469616c206d69736d6174636800008d601e6064948d8f519562461bcd60e51b8752860152840152820152fd5b634e487b7160e01b8f5260118b52848ffd5b505050867f7075626b657920646f6573206e6f74206d617463682073746f7265642076616c8d60226084948d8f519562461bcd60e51b875286015284015282015261756560f01b6064820152fd5b8611610cd257858e610c2a8261045060065461106f565b80601f8311600114610c605791610c55575b508660011b906000198860031b1c191617600655610a34565b905088013538610c3c565b6006815260008051602061170883398151915292508e5b8b601f198b168310610cbc5750505087601f19811610610ca2575b5050600186811b01600655610a34565b890135600019600389901b60f8161c191690553880610c92565b830135845560019093019291820191018e610c77565b634e487b7160e01b8e5260418a52838efd5b505050866a77726f6e6720737461746560a81b8d600b60649460208f519562461bcd60e51b8752860152840152820152fd5b634e487b7160e01b8f5260218b52848ffd5b505050866d0dcdee840cadcdeeaced040cae8d60931b8d600e60649460208f519562461bcd60e51b8752860152840152820152fd5b8980fd5b503461023957816003193601126102395761084f90610d7e611111565b9051918291602083526020830190610ffc565b5082346102e957816003193601126102e957803560249081359260ff8154166003811015610f2957600114610ee75760095485516331a9108f60e11b8152828101849052602094916001600160a01b039190869082908590829086165afa908115610edd578991610ec0575b50163303610e8e5782875260018452848688205410610e55575050848093600182948394845252858220610e32828254611323565b9055610e4081600254611323565b60025581811561055a573390f1156105505751f35b855162461bcd60e51b8152918201849052601490820152731b9bdd08195b9bdd59da0819195c1bdcda5d195960621b6044820152606490fd5b855162461bcd60e51b8152918201849052600d908201526c3737ba103a34329037bbb732b960991b6044820152606490fd5b610ed79150863d881161071e5761070f81836110ef565b89610dfd565b88513d8b823e3d90fd5b606490601b84602088519362461bcd60e51b85528401528201527f63616e6e6f74207769746864726177206f6e6365207374616b656400000000006044820152fd5b634e487b7160e01b8752602182528387fd5b5082346102e95760203660031901126102e957356001600160a01b03818116918290036106a957610f70908454163314611251565b6bffffffffffffffffffffffff60a01b600954161760095551f35b5082346102e957826003193601126102e957610fa5611330565b805460ff1916600217905551f35b5082346102e957826003193601126102e95754905160089190911c6001600160a01b0316815260209150f35b503461023957816003193601126102395761084f90610d7e611625565b919082519283825260005b848110611028575050826000602080949584010152601f8019910116010190565b602081830181015184830182015201611007565b9181601f8401121561106a5782359167ffffffffffffffff831161106a576020838186019501011161106a57565b600080fd5b90600182811c9216801561109f575b602083101461108957565b634e487b7160e01b600052602260045260246000fd5b91607f169161107e565b67ffffffffffffffff81116110bd57604052565b634e487b7160e01b600052604160045260246000fd5b6040810190811067ffffffffffffffff8211176110bd57604052565b90601f8019910116810190811067ffffffffffffffff8211176110bd57604052565b60405190600082600654916111258361106f565b8083529260019081811690811561119b575060011461114e575b5061114c925003836110ef565b565b6006600090815291506000805160206117088339815191525b848310611180575061114c93505081016020013861113f565b81935090816020925483858a01015201910190918592611167565b90506020925061114c94915060ff191682840152151560051b8201013861113f565b6003548110156111f45760036000527fc2575a0e9e593c00f959f8c92f12db2869c3395a3b0502d05e2516446f71f85b0190600090565b634e487b7160e01b600052603260045260246000fd5b92919267ffffffffffffffff82116110bd5760405191611234601f8201601f1916602001846110ef565b82948184528183011161106a578281602093846000960137010152565b1561125857565b606460405162461bcd60e51b815260206004820152602060248201527f4f776e61626c653a2063616c6c6572206973206e6f7420746865206f776e65726044820152fd5b156112a357565b60405162461bcd60e51b81526020600482015260166024820152756e6f7420616363657074696e67206465706f7369747360501b6044820152606490fd5b919082018092116112ee57565b634e487b7160e01b600052601160045260246000fd5b9081602091031261106a57516001600160a01b038116810361106a5790565b919082039182116112ee57565b60049060ff825416600392838210156114df57600180920361149b5747606481111561145757600094835b611368575b505050509050565b80548610156114525761137a866111bd565b905490821b1c60018060a01b03806009541691604092835180916331a9108f60e11b8252838983015281602460209485935afa9182156114475793600094938594938986959486958693611424575b50506113d591926114f4565b918391831561141a575b1690f115611410575060001986146113fb57948301948361135b565b601183634e487b7160e01b6000525260246000fd5b513d6000823e3d90fd5b6108fc92506113df565b6113d59350908161144092903d1061071e5761070f81836110ef565b91386113c9565b85513d6000823e3d90fd5b611360565b60405162461bcd60e51b8152602081840181905260248201527f6d696e696d756d206f66203130302077656920746f20646973747269627574656044820152606490fd5b60649060206040519162461bcd60e51b8352820152601c60248201527f757365207769746864726177207768656e206e6f74207374616b6564000000006044820152fd5b602190634e487b7160e01b6000525260246000fd5b6000908152600160205260408120541561158457604081205460001992908115158285048211166115705760025491821561155c570204916001831115611556578201918211611542575090565b634e487b7160e01b81526011600452602490fd5b50905090565b634e487b7160e01b84526012600452602484fd5b634e487b7160e01b83526011600452602483fd5b905090565b60ff6004541660038110156115b0576115a25750600090565b6115ad9047906114f4565b90565b634e487b7160e01b600052602160045260246000fd5b601f81116115d2575050565b60009060068252600080516020611708833981519152906020601f850160051c8301941061161b575b601f0160051c01915b82811061161057505050565b818155600101611604565b90925082906115fb565b60ff6004541660038110156115b057600181146116c35780156116945760021461167257604051611655816110d3565b600d81526c7374617465206661696c75726560981b602082015290565b60405161167e816110d3565b6006815265195e1a5d195960d21b602082015290565b506040516116a1816110d3565b6012815271616363657074696e67206465706f7369747360701b602082015290565b506040516116d0816110d3565b60068152651cdd185ad95960d21b602082015290565b908060209392818452848401376000828201840152601f01601f191601019056fef652222313e28459528d920b65115c16c04f3efc82aaedc97be59f3f377c0d3fa26469706673582212206aeefd5076af57ae83cc08d9c152f8ebe5871d345c074b41c6351d15740428d664736f6c63430008100033a26469706673582212209bb9977b874d7836b1c619322b73cfda86513f0fd3f546f5875074bcb23436d764736f6c63430008100033",
          "opcodes": "PUSH1 0x80 CALLVALUE PUSH2 0xC3 JUMPI PUSH1 0x1F PUSH2 0x2028 CODESIZE DUP2 SWAP1 SUB SWAP2 DUP3 ADD PUSH1 0x1F NOT AND DUP4 ADD SWAP2 PUSH1 0x1 PUSH1 0x1 PUSH1 0x40 SHL SUB DUP4 GT DUP5 DUP5 LT OR PUSH2 0xC8 JUMPI DUP1 DUP5 SWAP3 PUSH1 0x40 SWAP5 DUP6 MSTORE DUP4 CODECOPY DUP2 ADD SUB SLT PUSH2 0xC3 JUMPI PUSH2 0x52 PUSH1 0x20 PUSH2 0x4B DUP4 PUSH2 0xDE JUMP JUMPDEST SWAP3 ADD PUSH2 0xDE JUMP JUMPDEST PUSH1 0x0 DUP1 SLOAD CALLER PUSH1 0x1 PUSH1 0x1 PUSH1 0xA0 SHL SUB NOT DUP1 DUP4 AND DUP3 OR DUP5 SSTORE PUSH1 0x40 MLOAD SWAP6 SWAP1 SWAP5 PUSH1 0x1 PUSH1 0x1 PUSH1 0xA0 SHL SUB SWAP5 SWAP1 SWAP4 DUP6 SWAP4 SWAP2 SWAP1 DUP5 AND SWAP1 PUSH32 0x8BE0079C531659141344CD1FD0A4F28419497F9722A3DAAFE3B4186F6B6457E0 SWAP1 DUP10 LOG3 AND DUP4 PUSH1 0x3 SLOAD AND OR PUSH1 0x3 SSTORE AND SWAP1 PUSH1 0x4 SLOAD AND OR PUSH1 0x4 SSTORE PUSH2 0x1F35 SWAP1 DUP2 PUSH2 0xF3 DUP3 CODECOPY RETURN JUMPDEST PUSH1 0x0 DUP1 REVERT JUMPDEST PUSH4 0x4E487B71 PUSH1 0xE0 SHL PUSH1 0x0 MSTORE PUSH1 0x41 PUSH1 0x4 MSTORE PUSH1 0x24 PUSH1 0x0 REVERT JUMPDEST MLOAD SWAP1 PUSH1 0x1 PUSH1 0x1 PUSH1 0xA0 SHL SUB DUP3 AND DUP3 SUB PUSH2 0xC3 JUMPI JUMP INVALID PUSH1 0x40 PUSH1 0x80 DUP2 MSTORE PUSH1 0x4 DUP1 CALLDATASIZE LT ISZERO PUSH2 0x14 JUMPI PUSH1 0x0 DUP1 REVERT JUMPDEST PUSH1 0x0 SWAP2 DUP3 CALLDATALOAD PUSH1 0xE0 SHR DUP1 PUSH4 0x2EDAF74D EQ PUSH2 0x588 JUMPI DUP1 PUSH4 0x5AAD6CF0 EQ PUSH2 0x531 JUMPI DUP1 PUSH4 0x6202D396 EQ PUSH2 0x512 JUMPI DUP1 PUSH4 0x715018A6 EQ PUSH2 0x4B2 JUMPI DUP1 PUSH4 0x76F42F8A EQ PUSH2 0x473 JUMPI DUP1 PUSH4 0x8DA5CB5B EQ PUSH2 0x44B JUMPI DUP1 PUSH4 0x9ED93318 EQ PUSH2 0x240 JUMPI DUP1 PUSH4 0xA2B44D75 EQ PUSH2 0x152 JUMPI PUSH4 0xF2FDE38B EQ PUSH2 0x83 JUMPI PUSH1 0x0 DUP1 REVERT JUMPDEST CALLVALUE PUSH2 0x14E JUMPI PUSH1 0x20 CALLDATASIZE PUSH1 0x3 NOT ADD SLT PUSH2 0x14E JUMPI DUP2 CALLDATALOAD PUSH1 0x1 PUSH1 0x1 PUSH1 0xA0 SHL SUB DUP2 DUP2 AND SWAP3 SWAP2 DUP4 SWAP1 SUB PUSH2 0x14A JUMPI DUP5 SLOAD SWAP1 DUP2 AND SWAP4 PUSH2 0xBB CALLER DUP7 EQ PUSH2 0x625 JUMP JUMPDEST DUP4 ISZERO PUSH2 0xF8 JUMPI POP PUSH1 0x1 PUSH1 0x1 PUSH1 0xA0 SHL SUB NOT AND DUP3 OR DUP5 SSTORE MLOAD SWAP2 PUSH32 0x8BE0079C531659141344CD1FD0A4F28419497F9722A3DAAFE3B4186F6B6457E0 DUP5 DUP5 LOG3 RETURN JUMPDEST PUSH1 0x84 SWAP1 PUSH1 0x20 DUP5 MLOAD SWAP2 PUSH3 0x461BCD PUSH1 0xE5 SHL DUP4 MSTORE DUP3 ADD MSTORE PUSH1 0x26 PUSH1 0x24 DUP3 ADD MSTORE PUSH32 0x4F776E61626C653A206E6577206F776E657220697320746865207A65726F2061 PUSH1 0x44 DUP3 ADD MSTORE PUSH6 0x646472657373 PUSH1 0xD0 SHL PUSH1 0x64 DUP3 ADD MSTORE REVERT JUMPDEST DUP5 DUP1 REVERT JUMPDEST DUP3 DUP1 REVERT JUMPDEST POP CALLVALUE PUSH2 0x14E JUMPI PUSH1 0x20 SWAP2 DUP3 PUSH1 0x3 NOT CALLDATASIZE ADD SLT PUSH2 0x23C JUMPI PUSH2 0x170 DUP2 CALLDATALOAD PUSH2 0x5D8 JUMP JUMPDEST SWAP1 SLOAD DUP4 MLOAD PUSH4 0x8DA5CB5B PUSH1 0xE0 SHL DUP2 MSTORE PUSH1 0x3 SWAP3 SWAP1 SWAP3 SHL SHR PUSH1 0x1 PUSH1 0x1 PUSH1 0xA0 SHL SUB SWAP1 DUP2 AND SWAP5 SWAP1 SWAP3 SWAP2 DUP6 BALANCE SWAP2 SWAP1 DUP2 DUP2 DUP6 DUP2 DUP11 GAS STATICCALL SWAP4 DUP5 ISZERO PUSH2 0x232 JUMPI DUP9 SWAP5 PUSH2 0x1C2 JUMPI JUMPDEST POP POP PUSH1 0x60 SWAP7 POP DUP5 MLOAD SWAP6 DUP7 MSTORE DUP6 ADD MSTORE AND SWAP1 DUP3 ADD MSTORE RETURN JUMPDEST SWAP1 SWAP2 DUP1 SWAP5 POP SWAP1 RETURNDATASIZE DUP6 GT PUSH2 0x22A JUMPI JUMPDEST PUSH1 0x1F DUP3 ADD PUSH1 0x1F NOT AND DUP4 ADD SWAP1 PUSH8 0xFFFFFFFFFFFFFFFF DUP3 GT DUP5 DUP4 LT OR PUSH2 0x217 JUMPI POP DUP5 SWAP2 DUP4 SWAP2 DUP9 MSTORE DUP2 ADD SUB SLT PUSH2 0x213 JUMPI MLOAD DUP4 DUP2 AND DUP2 SUB PUSH2 0x213 JUMPI PUSH1 0x60 SWAP7 POP SWAP2 CODESIZE DUP1 PUSH2 0x1AD JUMP JUMPDEST DUP7 DUP1 REVERT JUMPDEST PUSH4 0x4E487B71 PUSH1 0xE0 SHL DUP11 MSTORE PUSH1 0x41 SWAP1 MSTORE PUSH1 0x24 DUP10 REVERT JUMPDEST RETURNDATASIZE SWAP2 POP PUSH2 0x1D0 JUMP JUMPDEST DUP7 MLOAD RETURNDATASIZE DUP11 DUP3 RETURNDATACOPY RETURNDATASIZE SWAP1 REVERT JUMPDEST DUP4 DUP1 REVERT JUMPDEST POP SWAP2 SWAP1 CALLVALUE PUSH2 0x447 JUMPI PUSH1 0x20 CALLDATASIZE PUSH1 0x3 NOT ADD SLT PUSH2 0x447 JUMPI PUSH1 0x1 PUSH1 0x1 PUSH1 0xA0 SHL SUB SWAP2 DUP2 CALLDATALOAD SWAP1 DUP4 DUP3 AND SWAP1 DUP2 DUP4 SUB PUSH2 0x444 JUMPI PUSH1 0x1 SLOAD SWAP4 DUP6 PUSH1 0x3 SLOAD AND DUP7 PUSH1 0x5 SLOAD AND DUP9 MLOAD SWAP1 PUSH2 0x188F SWAP3 DUP4 DUP4 ADD SWAP1 PUSH8 0xFFFFFFFFFFFFFFFF SWAP5 DUP5 DUP4 LT DUP7 DUP5 GT OR PUSH2 0x431 JUMPI SWAP2 DUP5 SWAP4 SWAP2 PUSH2 0x2C7 SWAP4 PUSH2 0x671 DUP7 CODECOPY PUSH1 0x1 PUSH1 0x1 PUSH1 0xA0 SHL SUB SWAP1 DUP2 AND DUP3 MSTORE ADDRESS PUSH1 0x20 DUP4 ADD MSTORE SWAP1 SWAP2 AND PUSH1 0x40 DUP3 ADD MSTORE PUSH1 0x60 ADD SWAP1 JUMP JUMPDEST SUB SWAP1 DUP5 CREATE DUP1 ISZERO PUSH2 0x427 JUMPI PUSH1 0x1 SLOAD PUSH9 0x10000000000000000 DUP2 LT ISZERO PUSH2 0x414 JUMPI SWAP1 PUSH2 0x2FB DUP3 PUSH1 0x1 DUP12 SWAP9 SWAP8 SWAP7 SWAP6 SWAP5 ADD PUSH1 0x1 SSTORE PUSH2 0x5D8 JUMP JUMPDEST SWAP10 SWAP1 SWAP2 AND DUP1 SWAP10 DUP3 SLOAD SWAP1 PUSH1 0x3 SHL DUP9 DUP2 SHL SWAP3 DUP4 SWAP2 SHL AND SWAP2 NOT AND OR SWAP1 SSTORE DUP8 DUP4 MSTORE PUSH1 0x2 PUSH1 0x20 MSTORE DUP9 DUP4 KECCAK256 PUSH1 0x1 PUSH1 0xFF NOT DUP3 SLOAD AND OR SWAP1 SSTORE DUP8 EXTCODESIZE ISZERO PUSH2 0x14E JUMPI DUP9 MLOAD SWAP4 PUSH4 0xF2FDE38B PUSH1 0xE0 SHL DUP6 MSTORE DUP3 DUP6 ADD MSTORE DUP3 DUP5 PUSH1 0x24 DUP2 DUP4 DUP13 GAS CALL DUP1 ISZERO PUSH2 0x40A JUMPI SWAP2 DUP8 SWAP6 SWAP4 SWAP2 DUP10 SWAP8 SWAP6 SWAP4 PUSH2 0x3B8 JUMPI JUMPDEST POP POP PUSH1 0x3 SLOAD DUP10 MLOAD CALLER DUP2 MSTORE PUSH1 0x1 PUSH1 0x1 PUSH1 0xA0 SHL SUB SWAP6 DUP7 AND PUSH1 0x20 DUP3 ADD MSTORE SWAP4 AND SWAP1 SWAP4 AND PUSH1 0x40 DUP4 ADD MSTORE POP PUSH32 0x18CC83251B20FEBB5B0C01F457A3E15B6E2EB22F48B01A0B9E5A24012CC2F692 SWAP2 POP PUSH1 0x60 SWAP1 LOG3 DUP3 MLOAD SWAP2 DUP3 MSTORE PUSH1 0x20 DUP3 ADD MSTORE RETURN JUMPDEST SWAP2 SWAP4 SWAP6 POP SWAP2 DUP1 SWAP5 SWAP7 POP GT PUSH2 0x3F7 JUMPI POP POP DUP6 MSTORE DUP4 SWAP2 DUP4 SWAP2 PUSH32 0x18CC83251B20FEBB5B0C01F457A3E15B6E2EB22F48B01A0B9E5A24012CC2F692 CODESIZE DUP1 DUP1 PUSH2 0x360 JUMP JUMPDEST PUSH4 0x4E487B71 PUSH1 0xE0 SHL DUP3 MSTORE PUSH1 0x41 SWAP1 MSTORE PUSH1 0x24 SWAP1 REVERT JUMPDEST DUP10 MLOAD RETURNDATASIZE DUP6 DUP3 RETURNDATACOPY RETURNDATASIZE SWAP1 REVERT JUMPDEST PUSH4 0x4E487B71 PUSH1 0xE0 SHL DUP6 MSTORE PUSH1 0x41 DUP5 MSTORE PUSH1 0x24 DUP6 REVERT JUMPDEST DUP9 MLOAD RETURNDATASIZE DUP6 DUP3 RETURNDATACOPY RETURNDATASIZE SWAP1 REVERT JUMPDEST PUSH4 0x4E487B71 PUSH1 0xE0 SHL DUP9 MSTORE PUSH1 0x41 DUP8 MSTORE PUSH1 0x24 DUP9 REVERT JUMPDEST DUP1 REVERT JUMPDEST POP DUP1 REVERT JUMPDEST DUP4 DUP3 CALLVALUE PUSH2 0x447 JUMPI DUP2 PUSH1 0x3 NOT CALLDATASIZE ADD SLT PUSH2 0x447 JUMPI SWAP1 SLOAD SWAP1 MLOAD PUSH1 0x1 PUSH1 0x1 PUSH1 0xA0 SHL SUB SWAP1 SWAP2 AND DUP2 MSTORE PUSH1 0x20 SWAP1 RETURN JUMPDEST POP SWAP1 CALLVALUE PUSH2 0x14E JUMPI PUSH1 0x20 CALLDATASIZE PUSH1 0x3 NOT ADD SLT PUSH2 0x14E JUMPI CALLDATALOAD PUSH1 0x1 PUSH1 0x1 PUSH1 0xA0 SHL SUB DUP2 AND SWAP1 DUP2 SWAP1 SUB PUSH2 0x14E JUMPI DUP2 DUP4 PUSH1 0xFF SWAP3 PUSH1 0x20 SWAP6 MSTORE PUSH1 0x2 DUP6 MSTORE KECCAK256 SLOAD AND SWAP1 MLOAD SWAP1 ISZERO ISZERO DUP2 MSTORE RETURN JUMPDEST DUP4 DUP3 CALLVALUE PUSH2 0x447 JUMPI DUP2 PUSH1 0x3 NOT CALLDATASIZE ADD SLT PUSH2 0x447 JUMPI DUP2 SLOAD PUSH1 0x1 PUSH1 0x1 PUSH1 0xA0 SHL SUB DUP2 AND SWAP2 DUP4 SWAP2 PUSH2 0x4DE CALLER DUP6 EQ PUSH2 0x625 JUMP JUMPDEST PUSH1 0x1 PUSH1 0x1 PUSH1 0xA0 SHL SUB NOT AND DUP3 SSTORE MLOAD SWAP2 PUSH32 0x8BE0079C531659141344CD1FD0A4F28419497F9722A3DAAFE3B4186F6B6457E0 DUP3 DUP5 LOG3 RETURN JUMPDEST DUP4 DUP3 CALLVALUE PUSH2 0x447 JUMPI DUP2 PUSH1 0x3 NOT CALLDATASIZE ADD SLT PUSH2 0x447 JUMPI PUSH1 0x20 SWAP1 PUSH1 0x1 SLOAD SWAP1 MLOAD SWAP1 DUP2 MSTORE RETURN JUMPDEST POP SWAP1 CALLVALUE PUSH2 0x14E JUMPI PUSH1 0x20 CALLDATASIZE PUSH1 0x3 NOT ADD SLT PUSH2 0x14E JUMPI CALLDATALOAD PUSH1 0x1 SLOAD DUP2 LT ISZERO PUSH2 0x14E JUMPI PUSH1 0x1 PUSH1 0x20 SWAP4 MSTORE PUSH1 0x1 DUP1 PUSH1 0xA0 SHL SUB SWAP1 PUSH32 0xB10E2D527612073B26EECDFD717E6A320CF44B4AFAC2B0732D9FCBE2B7FA0CF6 ADD SLOAD AND SWAP1 MLOAD SWAP1 DUP2 MSTORE RETURN JUMPDEST POP SWAP1 CALLVALUE PUSH2 0x14E JUMPI PUSH1 0x20 CALLDATASIZE PUSH1 0x3 NOT ADD SLT PUSH2 0x14E JUMPI CALLDATALOAD PUSH1 0x1 PUSH1 0x1 PUSH1 0xA0 SHL SUB DUP2 DUP2 AND SWAP2 DUP3 SWAP1 SUB PUSH2 0x23C JUMPI PUSH2 0x5BD SWAP1 DUP5 SLOAD AND CALLER EQ PUSH2 0x625 JUMP JUMPDEST PUSH12 0xFFFFFFFFFFFFFFFFFFFFFFFF PUSH1 0xA0 SHL PUSH1 0x5 SLOAD AND OR PUSH1 0x5 SSTORE MLOAD RETURN JUMPDEST PUSH1 0x1 SLOAD DUP2 LT ISZERO PUSH2 0x60F JUMPI PUSH1 0x1 PUSH1 0x0 MSTORE PUSH32 0xB10E2D527612073B26EECDFD717E6A320CF44B4AFAC2B0732D9FCBE2B7FA0CF6 ADD SWAP1 PUSH1 0x0 SWAP1 JUMP JUMPDEST PUSH4 0x4E487B71 PUSH1 0xE0 SHL PUSH1 0x0 MSTORE PUSH1 0x32 PUSH1 0x4 MSTORE PUSH1 0x24 PUSH1 0x0 REVERT JUMPDEST ISZERO PUSH2 0x62C JUMPI JUMP JUMPDEST PUSH1 0x64 PUSH1 0x40 MLOAD PUSH3 0x461BCD PUSH1 0xE5 SHL DUP2 MSTORE PUSH1 0x20 PUSH1 0x4 DUP3 ADD MSTORE PUSH1 0x20 PUSH1 0x24 DUP3 ADD MSTORE PUSH32 0x4F776E61626C653A2063616C6C6572206973206E6F7420746865206F776E6572 PUSH1 0x44 DUP3 ADD MSTORE REVERT INVALID PUSH1 0x80 CALLVALUE PUSH2 0x102 JUMPI PUSH1 0x1F PUSH3 0x188F CODESIZE DUP2 SWAP1 SUB SWAP2 DUP3 ADD PUSH1 0x1F NOT AND DUP4 ADD SWAP2 PUSH1 0x1 PUSH1 0x1 PUSH1 0x40 SHL SUB DUP4 GT DUP5 DUP5 LT OR PUSH2 0x107 JUMPI DUP1 DUP5 SWAP3 PUSH1 0x60 SWAP5 PUSH1 0x40 MSTORE DUP4 CODECOPY DUP2 ADD SUB SLT PUSH2 0x102 JUMPI PUSH2 0x48 DUP2 PUSH2 0x11D JUMP JUMPDEST PUSH2 0x60 PUSH1 0x40 PUSH2 0x59 PUSH1 0x20 DUP6 ADD PUSH2 0x11D JUMP JUMPDEST SWAP4 ADD PUSH2 0x11D JUMP JUMPDEST PUSH1 0x0 DUP1 SLOAD PUSH1 0x1 PUSH1 0x1 PUSH1 0xA0 SHL SUB NOT DUP1 DUP3 AND CALLER SWAP1 DUP2 OR DUP5 SSTORE PUSH1 0x40 MLOAD SWAP7 SWAP2 SWAP6 PUSH1 0x1 PUSH1 0x1 PUSH1 0xA0 SHL SUB SWAP6 SWAP5 DUP7 SWAP5 DUP6 SWAP4 SWAP2 SWAP1 DUP5 AND SWAP1 PUSH32 0x8BE0079C531659141344CD1FD0A4F28419497F9722A3DAAFE3B4186F6B6457E0 SWAP1 DUP12 LOG3 PUSH1 0x4 SLOAD SWAP1 PUSH2 0x100 PUSH1 0x1 PUSH1 0xA8 SHL SUB SWAP1 PUSH1 0x8 SHL AND SWAP1 PUSH1 0x1 DUP1 PUSH1 0xA8 SHL SUB NOT AND OR DUP1 PUSH1 0x4 SSTORE PUSH1 0x8 SHR AND DUP6 PUSH1 0x7 SLOAD AND OR PUSH1 0x7 SSTORE AND DUP4 PUSH1 0x8 SLOAD AND OR PUSH1 0x8 SSTORE AND SWAP1 PUSH1 0x9 SLOAD AND OR PUSH1 0x9 SSTORE PUSH2 0x175D SWAP1 DUP2 PUSH3 0x132 DUP3 CODECOPY RETURN JUMPDEST PUSH1 0x0 DUP1 REVERT JUMPDEST PUSH4 0x4E487B71 PUSH1 0xE0 SHL PUSH1 0x0 MSTORE PUSH1 0x41 PUSH1 0x4 MSTORE PUSH1 0x24 PUSH1 0x0 REVERT JUMPDEST MLOAD SWAP1 PUSH1 0x1 PUSH1 0x1 PUSH1 0xA0 SHL SUB DUP3 AND DUP3 SUB PUSH2 0x102 JUMPI JUMP INVALID PUSH1 0x40 PUSH1 0x80 DUP2 MSTORE PUSH1 0x4 SWAP1 DUP2 CALLDATASIZE LT ISZERO PUSH2 0x1D JUMPI JUMPDEST POP POP CALLDATASIZE ISZERO PUSH2 0x1B JUMPI STOP JUMPDEST STOP JUMPDEST PUSH1 0x0 SWAP1 DUP2 CALLDATALOAD PUSH1 0xE0 SHR DUP1 PUSH4 0x1865C57D EQ PUSH2 0xFDF JUMPI DUP1 PUSH4 0x2A4DBD2B EQ PUSH2 0xFB3 JUMPI DUP1 PUSH4 0x2DEF6620 EQ PUSH2 0xF8B JUMPI DUP1 PUSH4 0x2EDAF74D EQ PUSH2 0xF3B JUMPI DUP1 PUSH4 0x378DE45B EQ PUSH2 0x5B6 JUMPI DUP1 PUSH4 0x441A3E70 EQ PUSH2 0xD91 JUMPI DUP1 PUSH4 0x4AD02EF1 EQ PUSH2 0xD61 JUMPI DUP1 PUSH4 0x4B2B4E36 EQ PUSH2 0x947 JUMPI DUP1 PUSH4 0x678E300A EQ PUSH2 0x927 JUMPI DUP1 PUSH4 0x715018A6 EQ PUSH2 0x8C6 JUMPI DUP1 PUSH4 0x7BE0B4A0 EQ PUSH2 0x7EE JUMPI DUP1 PUSH4 0x7D882097 EQ PUSH2 0x7D0 JUMPI DUP1 PUSH4 0x82A790CF EQ PUSH2 0x797 JUMPI DUP1 PUSH4 0x8620891C EQ PUSH2 0x5DE JUMPI DUP1 PUSH4 0x87F8AB26 EQ PUSH2 0x5B6 JUMPI DUP1 PUSH4 0x8DA5CB5B EQ PUSH2 0x58F JUMPI DUP1 PUSH4 0xCFB5A5F8 EQ PUSH2 0x563 JUMPI DUP1 PUSH4 0xE2664E49 EQ PUSH2 0x513 JUMPI DUP1 PUSH4 0xE32D2913 EQ PUSH2 0x3DE JUMPI DUP1 PUSH4 0xE4FC6B6D EQ PUSH2 0x3C2 JUMPI DUP1 PUSH4 0xF2FDE38B EQ PUSH2 0x2ED JUMPI PUSH4 0xF340FA01 EQ PUSH2 0x11C JUMPI POP PUSH2 0x11 JUMP JUMPDEST PUSH1 0x20 SWAP3 DUP4 PUSH1 0x3 NOT CALLDATASIZE ADD SLT PUSH2 0x2E9 JUMPI PUSH1 0x1 PUSH1 0x1 PUSH1 0xA0 SHL SUB SWAP4 DUP2 CALLDATALOAD DUP6 DUP2 AND SWAP2 SWAP1 DUP3 SWAP1 SUB PUSH2 0x24A JUMPI PUSH1 0xFF DUP4 SLOAD AND PUSH1 0x3 DUP2 LT ISZERO PUSH2 0x2D6 JUMPI PUSH2 0x159 SWAP1 ISZERO PUSH2 0x129C JUMP JUMPDEST CALLVALUE ISZERO PUSH2 0x29F JUMPI SWAP1 DUP2 DUP6 SWAP4 SWAP3 DUP8 PUSH1 0x9 SLOAD AND DUP5 DUP8 MLOAD DUP1 SWAP8 DUP2 SWAP4 PUSH4 0x2798987D PUSH1 0xE1 SHL DUP4 MSTORE GAS CALL SWAP4 DUP5 ISZERO PUSH2 0x295 JUMPI DUP7 SWAP5 PUSH2 0x261 JUMPI JUMPDEST POP PUSH1 0x1 SWAP1 DUP5 DUP8 MSTORE MSTORE CALLVALUE DUP5 DUP7 KECCAK256 SSTORE PUSH2 0x1A3 CALLVALUE PUSH1 0x2 SLOAD PUSH2 0x12E1 JUMP JUMPDEST PUSH1 0x2 SSTORE PUSH1 0x3 SLOAD SWAP6 PUSH9 0x10000000000000000 DUP8 LT ISZERO PUSH2 0x24E JUMPI DUP4 PUSH2 0x1D0 DUP9 PUSH1 0x1 DUP10 SWAP11 SWAP10 SWAP9 SWAP10 ADD PUSH1 0x3 SSTORE PUSH2 0x11BD JUMP JUMPDEST DUP2 SWAP3 SWAP2 SLOAD SWAP1 PUSH1 0x3 SHL PUSH1 0x0 NOT DUP2 SHL SWAP3 DUP4 SWAP2 SHL AND SWAP2 NOT AND OR SWAP1 SSTORE PUSH1 0x9 SLOAD AND DUP1 EXTCODESIZE ISZERO PUSH2 0x24A JUMPI DUP5 SWAP3 DUP4 PUSH1 0x64 SWAP3 DUP9 MLOAD SWAP7 DUP8 SWAP6 DUP7 SWAP5 PUSH4 0xD4D1513 PUSH1 0xE0 SHL DUP7 MSTORE DUP6 ADD MSTORE PUSH1 0x24 DUP5 ADD MSTORE ADDRESS PUSH1 0x44 DUP5 ADD MSTORE GAS CALL DUP1 ISZERO PUSH2 0x23D JUMPI PUSH2 0x229 JUMPI POP POP MLOAD RETURN JUMPDEST PUSH2 0x232 SWAP1 PUSH2 0x10A9 JUMP JUMPDEST PUSH2 0x239 JUMPI MLOAD RETURN JUMPDEST POP DUP1 REVERT JUMPDEST POP POP POP MLOAD SWAP1 RETURNDATASIZE SWAP1 DUP3 RETURNDATACOPY RETURNDATASIZE SWAP1 REVERT JUMPDEST DUP5 DUP1 REVERT JUMPDEST PUSH4 0x4E487B71 PUSH1 0xE0 SHL DUP7 MSTORE PUSH1 0x41 DUP4 MSTORE PUSH1 0x24 DUP7 REVERT JUMPDEST SWAP1 DUP1 SWAP5 POP DUP2 DUP2 RETURNDATASIZE DUP4 GT PUSH2 0x28E JUMPI JUMPDEST PUSH2 0x279 DUP2 DUP4 PUSH2 0x10EF JUMP JUMPDEST DUP2 ADD SUB SLT PUSH2 0x28A JUMPI MLOAD SWAP3 PUSH1 0x1 PUSH2 0x18A JUMP JUMPDEST DUP6 DUP1 REVERT JUMPDEST POP RETURNDATASIZE PUSH2 0x26F JUMP JUMPDEST DUP6 MLOAD RETURNDATASIZE DUP9 DUP3 RETURNDATACOPY RETURNDATASIZE SWAP1 REVERT JUMPDEST SWAP1 POP PUSH1 0x64 SWAP3 MLOAD SWAP2 PUSH3 0x461BCD PUSH1 0xE5 SHL DUP4 MSTORE DUP3 ADD MSTORE PUSH1 0x12 PUSH1 0x24 DUP3 ADD MSTORE PUSH18 0x36BAB9BA103232B837B9B4BA1032BA3432B9 PUSH1 0x71 SHL PUSH1 0x44 DUP3 ADD MSTORE REVERT JUMPDEST PUSH4 0x4E487B71 PUSH1 0xE0 SHL DUP7 MSTORE PUSH1 0x21 DUP5 MSTORE PUSH1 0x24 DUP7 REVERT JUMPDEST DUP3 DUP1 REVERT JUMPDEST POP DUP3 CALLVALUE PUSH2 0x2E9 JUMPI PUSH1 0x20 CALLDATASIZE PUSH1 0x3 NOT ADD SLT PUSH2 0x2E9 JUMPI PUSH1 0x1 PUSH1 0x1 PUSH1 0xA0 SHL SUB DUP2 CALLDATALOAD DUP2 DUP2 AND SWAP3 SWAP1 DUP4 SWAP1 SUB PUSH2 0x24A JUMPI PUSH2 0x324 DUP3 DUP7 SLOAD AND CALLER EQ PUSH2 0x1251 JUMP JUMPDEST DUP3 ISZERO PUSH2 0x370 JUMPI POP PUSH1 0x0 SLOAD SWAP3 DUP3 PUSH12 0xFFFFFFFFFFFFFFFFFFFFFFFF PUSH1 0xA0 SHL DUP6 AND OR PUSH1 0x0 SSTORE MLOAD SWAP3 AND PUSH32 0x8BE0079C531659141344CD1FD0A4F28419497F9722A3DAAFE3B4186F6B6457E0 PUSH1 0x0 DUP5 LOG3 RETURN JUMPDEST PUSH1 0x84 SWAP1 PUSH1 0x20 DUP6 MLOAD SWAP2 PUSH3 0x461BCD PUSH1 0xE5 SHL DUP4 MSTORE DUP3 ADD MSTORE PUSH1 0x26 PUSH1 0x24 DUP3 ADD MSTORE PUSH32 0x4F776E61626C653A206E6577206F776E657220697320746865207A65726F2061 PUSH1 0x44 DUP3 ADD MSTORE PUSH6 0x646472657373 PUSH1 0xD0 SHL PUSH1 0x64 DUP3 ADD MSTORE REVERT JUMPDEST POP CALLVALUE PUSH2 0x239 JUMPI DUP2 PUSH1 0x3 NOT CALLDATASIZE ADD SLT PUSH2 0x239 JUMPI PUSH2 0x3DB PUSH2 0x1330 JUMP JUMPDEST MLOAD RETURN JUMPDEST POP CALLVALUE PUSH2 0x239 JUMPI PUSH1 0x20 DUP1 PUSH1 0x3 NOT CALLDATASIZE ADD SLT PUSH2 0x2E9 JUMPI PUSH8 0xFFFFFFFFFFFFFFFF SWAP1 DUP5 CALLDATALOAD DUP3 DUP2 GT PUSH2 0x24A JUMPI CALLDATASIZE PUSH1 0x23 DUP3 ADD SLT ISZERO PUSH2 0x24A JUMPI PUSH2 0x422 SWAP1 CALLDATASIZE SWAP1 PUSH1 0x24 DUP2 DUP10 ADD CALLDATALOAD SWAP2 ADD PUSH2 0x120A JUMP JUMPDEST SWAP5 PUSH2 0x437 PUSH1 0x1 DUP1 PUSH1 0xA0 SHL SUB DUP7 SLOAD AND CALLER EQ PUSH2 0x1251 JUMP JUMPDEST DUP6 MLOAD SWAP3 DUP4 GT PUSH2 0x500 JUMPI POP PUSH2 0x455 DUP3 PUSH2 0x450 PUSH1 0x6 SLOAD PUSH2 0x106F JUMP JUMPDEST PUSH2 0x15C6 JUMP JUMPDEST DUP1 PUSH1 0x1F DUP4 GT PUSH1 0x1 EQ PUSH2 0x490 JUMPI POP DUP4 SWAP5 DUP3 SWAP4 SWAP5 SWAP3 PUSH2 0x485 JUMPI JUMPDEST POP POP DUP2 PUSH1 0x1 SHL SWAP2 PUSH1 0x0 NOT SWAP1 PUSH1 0x3 SHL SHR NOT AND OR PUSH1 0x6 SSTORE MLOAD RETURN JUMPDEST ADD MLOAD SWAP1 POP CODESIZE DUP1 PUSH2 0x46D JUMP JUMPDEST PUSH1 0x6 DUP6 MSTORE PUSH1 0x1F NOT DUP4 AND SWAP6 PUSH1 0x0 DUP1 MLOAD PUSH1 0x20 PUSH2 0x1708 DUP4 CODECOPY DUP2 MLOAD SWAP2 MSTORE SWAP3 SWAP2 DUP7 SWAP1 JUMPDEST DUP9 DUP3 LT PUSH2 0x4E8 JUMPI POP POP DUP4 PUSH1 0x1 SWAP6 SWAP7 SWAP8 LT PUSH2 0x4CF JUMPI JUMPDEST POP POP POP DUP2 SHL ADD PUSH1 0x6 SSTORE MLOAD RETURN JUMPDEST ADD MLOAD PUSH1 0x0 NOT PUSH1 0xF8 DUP5 PUSH1 0x3 SHL AND SHR NOT AND SWAP1 SSTORE CODESIZE DUP1 DUP1 PUSH2 0x4C3 JUMP JUMPDEST DUP1 PUSH1 0x1 DUP6 SWAP7 DUP3 SWAP5 SWAP7 DUP7 ADD MLOAD DUP2 SSTORE ADD SWAP6 ADD SWAP4 ADD SWAP1 PUSH2 0x4AE JUMP JUMPDEST PUSH4 0x4E487B71 PUSH1 0xE0 SHL DUP6 MSTORE PUSH1 0x41 SWAP1 MSTORE PUSH1 0x24 DUP5 REVERT JUMPDEST POP CALLVALUE PUSH2 0x239 JUMPI DUP2 PUSH1 0x3 NOT CALLDATASIZE ADD SLT PUSH2 0x239 JUMPI PUSH2 0x538 PUSH1 0x1 DUP1 PUSH1 0xA0 SHL SUB DUP4 SLOAD AND CALLER EQ PUSH2 0x1251 JUMP JUMPDEST DUP2 DUP1 DUP1 DUP1 SELFBALANCE DUP2 DUP2 ISZERO PUSH2 0x55A JUMPI JUMPDEST CALLER SWAP1 CALL ISZERO PUSH2 0x550 JUMPI MLOAD RETURN JUMPDEST MLOAD SWAP1 RETURNDATASIZE SWAP1 DUP3 RETURNDATACOPY RETURNDATASIZE SWAP1 REVERT JUMPDEST POP PUSH2 0x8FC PUSH2 0x545 JUMP JUMPDEST POP SWAP1 CALLVALUE PUSH2 0x58C JUMPI PUSH1 0x20 CALLDATASIZE PUSH1 0x3 NOT ADD SLT PUSH2 0x58C JUMPI POP PUSH2 0x585 PUSH1 0x20 SWAP3 SELFBALANCE SWAP1 CALLDATALOAD PUSH2 0x14F4 JUMP JUMPDEST SWAP1 MLOAD SWAP1 DUP2 MSTORE RETURN JUMPDEST DUP1 REVERT JUMPDEST POP CALLVALUE PUSH2 0x239 JUMPI DUP2 PUSH1 0x3 NOT CALLDATASIZE ADD SLT PUSH2 0x239 JUMPI SWAP1 SLOAD SWAP1 MLOAD PUSH1 0x1 PUSH1 0x1 PUSH1 0xA0 SHL SUB SWAP1 SWAP2 AND DUP2 MSTORE PUSH1 0x20 SWAP1 RETURN JUMPDEST POP DUP3 CALLVALUE PUSH2 0x2E9 JUMPI PUSH1 0x20 CALLDATASIZE PUSH1 0x3 NOT ADD SLT PUSH2 0x2E9 JUMPI PUSH1 0x20 SWAP3 DUP3 SWAP2 CALLDATALOAD DUP2 MSTORE PUSH1 0x1 DUP5 MSTORE KECCAK256 SLOAD SWAP1 MLOAD SWAP1 DUP2 MSTORE RETURN JUMPDEST POP DUP3 PUSH1 0x20 DUP1 PUSH1 0x3 NOT CALLDATASIZE ADD SLT PUSH2 0x6A9 JUMPI DUP2 CALLDATALOAD SWAP2 PUSH1 0x1 DUP1 PUSH1 0xA0 SHL SUB DUP6 DUP4 DUP3 PUSH1 0x9 SLOAD AND PUSH1 0x24 DUP9 MLOAD DUP1 SWAP5 DUP2 SWAP4 PUSH4 0x4F558E79 PUSH1 0xE0 SHL DUP4 MSTORE DUP11 DUP10 DUP5 ADD MSTORE GAS CALL SWAP1 DUP2 ISZERO PUSH2 0x725 JUMPI DUP8 SWAP2 PUSH2 0x75D JUMPI JUMPDEST POP ISZERO PUSH2 0x72F JUMPI DUP1 DUP4 PUSH1 0x24 SWAP3 PUSH1 0x9 SLOAD AND DUP8 MLOAD SWAP4 DUP5 DUP1 SWAP3 PUSH4 0x178B367 PUSH1 0xE3 SHL DUP3 MSTORE DUP10 DUP9 DUP4 ADD MSTORE GAS STATICCALL SWAP2 DUP3 ISZERO PUSH2 0x725 JUMPI DUP8 SWAP3 PUSH2 0x6F6 JUMPI JUMPDEST POP ADDRESS SWAP2 AND SUB PUSH2 0x6C0 JUMPI PUSH1 0xFF DUP2 SLOAD AND SWAP1 PUSH1 0x3 DUP3 LT ISZERO PUSH2 0x6AD JUMPI POP ISZERO PUSH2 0x67C DUP2 PUSH2 0x129C JUMP JUMPDEST ISZERO PUSH2 0x6A9 JUMPI PUSH1 0x1 SWAP2 DUP5 MSTORE MSTORE DUP1 DUP3 KECCAK256 PUSH2 0x695 CALLVALUE DUP3 SLOAD PUSH2 0x12E1 JUMP JUMPDEST SWAP1 SSTORE PUSH2 0x6A3 CALLVALUE PUSH1 0x2 SLOAD PUSH2 0x12E1 JUMP JUMPDEST PUSH1 0x2 SSTORE MLOAD RETURN JUMPDEST DUP4 DUP1 REVERT JUMPDEST PUSH4 0x4E487B71 PUSH1 0xE0 SHL DUP7 MSTORE PUSH1 0x21 SWAP1 MSTORE PUSH1 0x24 DUP6 REVERT JUMPDEST PUSH1 0x64 SWAP2 DUP5 MLOAD SWAP2 PUSH3 0x461BCD PUSH1 0xE5 SHL DUP4 MSTORE DUP3 ADD MSTORE PUSH1 0x12 PUSH1 0x24 DUP3 ADD MSTORE PUSH18 0x1DDC9BDB99C81CDD185ADA5B99C81C1BDBDB PUSH1 0x72 SHL PUSH1 0x44 DUP3 ADD MSTORE REVERT JUMPDEST PUSH2 0x717 SWAP2 SWAP3 POP DUP5 RETURNDATASIZE DUP7 GT PUSH2 0x71E JUMPI JUMPDEST PUSH2 0x70F DUP2 DUP4 PUSH2 0x10EF JUMP JUMPDEST DUP2 ADD SWAP1 PUSH2 0x1304 JUMP JUMPDEST SWAP1 DUP8 PUSH2 0x659 JUMP JUMPDEST POP RETURNDATASIZE PUSH2 0x705 JUMP JUMPDEST DUP7 MLOAD RETURNDATASIZE DUP10 DUP3 RETURNDATACOPY RETURNDATASIZE SWAP1 REVERT JUMPDEST POP PUSH1 0x64 SWAP2 DUP5 MLOAD SWAP2 PUSH3 0x461BCD PUSH1 0xE5 SHL DUP4 MSTORE DUP3 ADD MSTORE PUSH1 0x9 PUSH1 0x24 DUP3 ADD MSTORE PUSH9 0x1B9BDD08195E1A5CDD PUSH1 0xBA SHL PUSH1 0x44 DUP3 ADD MSTORE REVERT JUMPDEST SWAP1 POP DUP4 DUP2 DUP2 RETURNDATASIZE DUP4 GT PUSH2 0x790 JUMPI JUMPDEST PUSH2 0x774 DUP2 DUP4 PUSH2 0x10EF JUMP JUMPDEST DUP2 ADD SUB SLT PUSH2 0x78C JUMPI MLOAD DUP1 ISZERO ISZERO DUP2 SUB PUSH2 0x78C JUMPI DUP8 PUSH2 0x625 JUMP JUMPDEST DUP7 DUP1 REVERT JUMPDEST POP RETURNDATASIZE PUSH2 0x76A JUMP JUMPDEST POP DUP3 CALLVALUE PUSH2 0x2E9 JUMPI PUSH1 0x20 CALLDATASIZE PUSH1 0x3 NOT ADD SLT PUSH2 0x2E9 JUMPI CALLDATALOAD SWAP2 PUSH1 0x3 SLOAD DUP4 LT ISZERO PUSH2 0x58C JUMPI POP PUSH2 0x7C2 PUSH1 0x20 SWAP3 PUSH2 0x11BD JUMP JUMPDEST SWAP1 SLOAD SWAP1 PUSH1 0x3 SHL SHR SWAP1 MLOAD SWAP1 DUP2 MSTORE RETURN JUMPDEST POP CALLVALUE PUSH2 0x239 JUMPI DUP2 PUSH1 0x3 NOT CALLDATASIZE ADD SLT PUSH2 0x239 JUMPI PUSH1 0x20 SWAP1 PUSH1 0x2 SLOAD SWAP1 MLOAD SWAP1 DUP2 MSTORE RETURN JUMPDEST POP SWAP1 CALLVALUE PUSH2 0x58C JUMPI DUP1 PUSH1 0x3 NOT CALLDATASIZE ADD SLT PUSH2 0x58C JUMPI POP DUP1 MLOAD PUSH1 0x0 SWAP2 PUSH1 0x6 SLOAD PUSH2 0x812 DUP2 PUSH2 0x106F JUMP JUMPDEST DUP1 DUP5 MSTORE SWAP1 PUSH1 0x1 SWAP1 DUP2 DUP2 AND SWAP1 DUP2 ISZERO PUSH2 0x89E JUMPI POP PUSH1 0x1 EQ PUSH2 0x853 JUMPI JUMPDEST POP POP PUSH2 0x83D DUP3 PUSH2 0x84F SWAP5 SUB DUP4 PUSH2 0x10EF JUMP JUMPDEST MLOAD SWAP2 DUP3 SWAP2 PUSH1 0x20 DUP4 MSTORE PUSH1 0x20 DUP4 ADD SWAP1 PUSH2 0xFFC JUMP JUMPDEST SUB SWAP1 RETURN JUMPDEST PUSH1 0x6 PUSH1 0x0 SWAP1 DUP2 MSTORE SWAP5 POP PUSH1 0x0 DUP1 MLOAD PUSH1 0x20 PUSH2 0x1708 DUP4 CODECOPY DUP2 MLOAD SWAP2 MSTORE JUMPDEST DUP3 DUP7 LT PUSH2 0x886 JUMPI POP POP POP SWAP2 DUP2 ADD PUSH1 0x20 ADD SWAP2 PUSH2 0x83D DUP3 PUSH2 0x82C JUMP JUMPDEST DUP1 SLOAD PUSH1 0x20 DUP8 DUP8 ADD DUP2 ADD SWAP2 SWAP1 SWAP2 MSTORE SWAP1 SWAP6 ADD SWAP5 DUP2 ADD PUSH2 0x86C JUMP JUMPDEST PUSH2 0x84F SWAP7 POP DUP6 SWAP3 POP PUSH1 0x20 SWAP2 POP SWAP3 PUSH2 0x83D SWAP4 PUSH1 0xFF NOT AND DUP3 DUP5 ADD MSTORE ISZERO ISZERO PUSH1 0x5 SHL DUP3 ADD ADD SWAP5 POP PUSH2 0x82C JUMP JUMPDEST POP CALLVALUE PUSH2 0x239 JUMPI DUP2 PUSH1 0x3 NOT CALLDATASIZE ADD SLT PUSH2 0x239 JUMPI PUSH1 0x0 PUSH1 0x1 DUP1 PUSH1 0xA0 SHL SUB PUSH2 0x8EE DUP2 DUP6 SLOAD AND CALLER EQ PUSH2 0x1251 JUMP JUMPDEST DUP2 SLOAD PUSH1 0x1 PUSH1 0x1 PUSH1 0xA0 SHL SUB NOT DUP2 AND DUP4 SSTORE SWAP3 MLOAD SWAP3 AND PUSH32 0x8BE0079C531659141344CD1FD0A4F28419497F9722A3DAAFE3B4186F6B6457E0 DUP3 DUP5 LOG3 RETURN JUMPDEST POP SWAP1 CALLVALUE PUSH2 0x58C JUMPI PUSH1 0x20 CALLDATASIZE PUSH1 0x3 NOT ADD SLT PUSH2 0x58C JUMPI POP PUSH2 0x585 PUSH1 0x20 SWAP3 CALLDATALOAD PUSH2 0x1589 JUMP JUMPDEST POP SWAP1 CALLVALUE PUSH2 0x58C JUMPI PUSH1 0x3 NOT SWAP2 PUSH1 0x80 CALLDATASIZE DUP5 ADD SLT PUSH2 0x239 JUMPI PUSH8 0xFFFFFFFFFFFFFFFF DUP5 CALLDATALOAD DUP2 DUP2 GT PUSH2 0x6A9 JUMPI PUSH2 0x97B SWAP1 CALLDATASIZE SWAP1 DUP8 ADD PUSH2 0x103C JUMP JUMPDEST PUSH1 0x24 SWAP7 SWAP2 DUP8 CALLDATALOAD DUP5 DUP2 GT PUSH2 0x78C JUMPI PUSH2 0x995 SWAP1 CALLDATASIZE SWAP1 DUP6 ADD PUSH2 0x103C JUMP JUMPDEST SWAP3 PUSH1 0x44 SWAP9 DUP10 CALLDATALOAD SWAP11 DUP8 DUP13 GT PUSH2 0xD5D JUMPI PUSH2 0x9B6 DUP11 SWAP12 SWAP13 SWAP11 SWAP9 SWAP10 SWAP11 CALLDATASIZE SWAP1 DUP10 ADD PUSH2 0x103C JUMP JUMPDEST SWAP3 PUSH2 0x9CC PUSH1 0x1 DUP1 PUSH1 0xA0 SHL SUB DUP1 SWAP12 SLOAD AND CALLER EQ PUSH2 0x1251 JUMP JUMPDEST PUSH9 0x1BC16D674EC800000 SWAP4 DUP5 SELFBALANCE LT PUSH2 0xD28 JUMPI PUSH1 0xFF DUP11 SLOAD AND PUSH1 0x3 DUP2 LT ISZERO PUSH2 0xD16 JUMPI PUSH2 0xCE4 JUMPI PUSH2 0x9F8 PUSH2 0x1111 JUMP JUMPDEST DUP1 MLOAD PUSH1 0x20 SWAP2 DUP3 ADD KECCAK256 PUSH1 0x60 MLOAD PUSH1 0x80 KECCAK256 SWAP2 SWAP14 SWAP2 EQ PUSH2 0xC13 JUMPI POP PUSH2 0xA17 PUSH2 0x1111 JUMP JUMPDEST DUP13 DUP2 MLOAD SWAP2 ADD KECCAK256 PUSH2 0xA28 CALLDATASIZE DUP9 DUP12 PUSH2 0x120A JUMP JUMPDEST DUP14 DUP2 MLOAD SWAP2 ADD KECCAK256 SUB PUSH2 0xBC5 JUMPI JUMPDEST DUP10 SLOAD PUSH1 0xFF NOT AND PUSH1 0x1 OR DUP11 SSTORE ADDRESS PUSH1 0x1 PUSH1 0xF8 SHL DUP2 ADD SWAP1 DUP2 LT PUSH2 0xBB3 JUMPI DUP14 MLOAD SWAP1 DUP14 DUP3 ADD SWAP1 DUP2 MSTORE DUP14 DUP3 MSTORE PUSH2 0xA63 DUP3 PUSH2 0x10D3 JUMP JUMPDEST DUP14 PUSH2 0xA6F CALLDATASIZE DUP14 DUP13 PUSH2 0x120A JUMP JUMPDEST DUP1 MLOAD SWAP2 ADD KECCAK256 SWAP2 MLOAD SWAP1 KECCAK256 SUB PUSH2 0xB70 JUMPI DUP14 SWAP15 DUP12 SWAP14 SWAP15 SWAP10 SWAP11 SWAP12 PUSH1 0x7 SWAP15 SWAP14 SWAP15 SLOAD AND SWAP8 DUP9 EXTCODESIZE ISZERO PUSH2 0xB6C JUMPI DUP16 MLOAD PUSH4 0x4512A23 PUSH1 0xE3 SHL DUP2 MSTORE PUSH1 0x80 DUP2 DUP16 ADD MSTORE SWAP12 DUP13 SWAP11 DUP12 SWAP10 DUP11 SWAP9 SWAP3 SWAP2 PUSH2 0xABD SWAP2 PUSH1 0x84 DUP12 ADD SWAP2 PUSH2 0x16E6 JUMP JUMPDEST SWAP2 DUP7 DUP10 DUP5 SUB ADD SWAP1 DUP10 ADD MSTORE PUSH2 0xAD0 SWAP3 PUSH2 0x16E6 JUMP JUMPDEST SWAP3 DUP6 DUP5 SUB ADD SWAP1 DUP6 ADD MSTORE PUSH2 0xAE2 SWAP3 PUSH2 0x16E6 JUMP JUMPDEST PUSH1 0x64 CALLDATALOAD PUSH1 0x64 DUP4 ADD MSTORE SUB SWAP3 GAS CALL DUP1 ISZERO PUSH2 0x295 JUMPI PUSH2 0xB33 JUMPI JUMPDEST POP SWAP2 DUP4 SWAP2 PUSH32 0x1944DEBB24A9AAFCF2708BE964E412CDB73FC36D6EA24577FD8DCC05B93B4A44 SWAP4 SLOAD PUSH1 0x8 SHR AND SWAP1 DUP3 MLOAD SWAP2 DUP3 MSTORE CALLER SWAP1 DUP3 ADD MSTORE LOG1 MLOAD RETURN JUMPDEST SWAP2 PUSH32 0x1944DEBB24A9AAFCF2708BE964E412CDB73FC36D6EA24577FD8DCC05B93B4A44 SWAP4 SWAP2 SWAP6 PUSH2 0xB62 DUP7 SWAP5 PUSH2 0x10A9 JUMP JUMPDEST SWAP6 SWAP2 SWAP4 POP SWAP2 PUSH2 0xAF9 JUMP JUMPDEST DUP11 DUP1 REVERT JUMPDEST POP POP POP DUP7 PUSH32 0x7769746864726177616C2063726564656E7469616C206D69736D617463680000 DUP14 PUSH1 0x1E PUSH1 0x64 SWAP5 DUP14 DUP16 MLOAD SWAP6 PUSH3 0x461BCD PUSH1 0xE5 SHL DUP8 MSTORE DUP7 ADD MSTORE DUP5 ADD MSTORE DUP3 ADD MSTORE REVERT JUMPDEST PUSH4 0x4E487B71 PUSH1 0xE0 SHL DUP16 MSTORE PUSH1 0x11 DUP12 MSTORE DUP5 DUP16 REVERT JUMPDEST POP POP POP DUP7 PUSH32 0x7075626B657920646F6573206E6F74206D617463682073746F7265642076616C DUP14 PUSH1 0x22 PUSH1 0x84 SWAP5 DUP14 DUP16 MLOAD SWAP6 PUSH3 0x461BCD PUSH1 0xE5 SHL DUP8 MSTORE DUP7 ADD MSTORE DUP5 ADD MSTORE DUP3 ADD MSTORE PUSH2 0x7565 PUSH1 0xF0 SHL PUSH1 0x64 DUP3 ADD MSTORE REVERT JUMPDEST DUP7 GT PUSH2 0xCD2 JUMPI DUP6 DUP15 PUSH2 0xC2A DUP3 PUSH2 0x450 PUSH1 0x6 SLOAD PUSH2 0x106F JUMP JUMPDEST DUP1 PUSH1 0x1F DUP4 GT PUSH1 0x1 EQ PUSH2 0xC60 JUMPI SWAP2 PUSH2 0xC55 JUMPI JUMPDEST POP DUP7 PUSH1 0x1 SHL SWAP1 PUSH1 0x0 NOT DUP9 PUSH1 0x3 SHL SHR NOT AND OR PUSH1 0x6 SSTORE PUSH2 0xA34 JUMP JUMPDEST SWAP1 POP DUP9 ADD CALLDATALOAD CODESIZE PUSH2 0xC3C JUMP JUMPDEST PUSH1 0x6 DUP2 MSTORE PUSH1 0x0 DUP1 MLOAD PUSH1 0x20 PUSH2 0x1708 DUP4 CODECOPY DUP2 MLOAD SWAP2 MSTORE SWAP3 POP DUP15 JUMPDEST DUP12 PUSH1 0x1F NOT DUP12 AND DUP4 LT PUSH2 0xCBC JUMPI POP POP POP DUP8 PUSH1 0x1F NOT DUP2 AND LT PUSH2 0xCA2 JUMPI JUMPDEST POP POP PUSH1 0x1 DUP7 DUP2 SHL ADD PUSH1 0x6 SSTORE PUSH2 0xA34 JUMP JUMPDEST DUP10 ADD CALLDATALOAD PUSH1 0x0 NOT PUSH1 0x3 DUP10 SWAP1 SHL PUSH1 0xF8 AND SHR NOT AND SWAP1 SSTORE CODESIZE DUP1 PUSH2 0xC92 JUMP JUMPDEST DUP4 ADD CALLDATALOAD DUP5 SSTORE PUSH1 0x1 SWAP1 SWAP4 ADD SWAP3 SWAP2 DUP3 ADD SWAP2 ADD DUP15 PUSH2 0xC77 JUMP JUMPDEST PUSH4 0x4E487B71 PUSH1 0xE0 SHL DUP15 MSTORE PUSH1 0x41 DUP11 MSTORE DUP4 DUP15 REVERT JUMPDEST POP POP POP DUP7 PUSH11 0x77726F6E67207374617465 PUSH1 0xA8 SHL DUP14 PUSH1 0xB PUSH1 0x64 SWAP5 PUSH1 0x20 DUP16 MLOAD SWAP6 PUSH3 0x461BCD PUSH1 0xE5 SHL DUP8 MSTORE DUP7 ADD MSTORE DUP5 ADD MSTORE DUP3 ADD MSTORE REVERT JUMPDEST PUSH4 0x4E487B71 PUSH1 0xE0 SHL DUP16 MSTORE PUSH1 0x21 DUP12 MSTORE DUP5 DUP16 REVERT JUMPDEST POP POP POP DUP7 PUSH14 0xDCDEE840CADCDEEACED040CAE8D PUSH1 0x93 SHL DUP14 PUSH1 0xE PUSH1 0x64 SWAP5 PUSH1 0x20 DUP16 MLOAD SWAP6 PUSH3 0x461BCD PUSH1 0xE5 SHL DUP8 MSTORE DUP7 ADD MSTORE DUP5 ADD MSTORE DUP3 ADD MSTORE REVERT JUMPDEST DUP10 DUP1 REVERT JUMPDEST POP CALLVALUE PUSH2 0x239 JUMPI DUP2 PUSH1 0x3 NOT CALLDATASIZE ADD SLT PUSH2 0x239 JUMPI PUSH2 0x84F SWAP1 PUSH2 0xD7E PUSH2 0x1111 JUMP JUMPDEST SWAP1 MLOAD SWAP2 DUP3 SWAP2 PUSH1 0x20 DUP4 MSTORE PUSH1 0x20 DUP4 ADD SWAP1 PUSH2 0xFFC JUMP JUMPDEST POP DUP3 CALLVALUE PUSH2 0x2E9 JUMPI DUP2 PUSH1 0x3 NOT CALLDATASIZE ADD SLT PUSH2 0x2E9 JUMPI DUP1 CALLDATALOAD PUSH1 0x24 SWAP1 DUP2 CALLDATALOAD SWAP3 PUSH1 0xFF DUP2 SLOAD AND PUSH1 0x3 DUP2 LT ISZERO PUSH2 0xF29 JUMPI PUSH1 0x1 EQ PUSH2 0xEE7 JUMPI PUSH1 0x9 SLOAD DUP6 MLOAD PUSH4 0x31A9108F PUSH1 0xE1 SHL DUP2 MSTORE DUP3 DUP2 ADD DUP5 SWAP1 MSTORE PUSH1 0x20 SWAP5 SWAP2 PUSH1 0x1 PUSH1 0x1 PUSH1 0xA0 SHL SUB SWAP2 SWAP1 DUP7 SWAP1 DUP3 SWAP1 DUP6 SWAP1 DUP3 SWAP1 DUP7 AND GAS STATICCALL SWAP1 DUP2 ISZERO PUSH2 0xEDD JUMPI DUP10 SWAP2 PUSH2 0xEC0 JUMPI JUMPDEST POP AND CALLER SUB PUSH2 0xE8E JUMPI DUP3 DUP8 MSTORE PUSH1 0x1 DUP5 MSTORE DUP5 DUP7 DUP9 KECCAK256 SLOAD LT PUSH2 0xE55 JUMPI POP POP DUP5 DUP1 SWAP4 PUSH1 0x1 DUP3 SWAP5 DUP4 SWAP5 DUP5 MSTORE MSTORE DUP6 DUP3 KECCAK256 PUSH2 0xE32 DUP3 DUP3 SLOAD PUSH2 0x1323 JUMP JUMPDEST SWAP1 SSTORE PUSH2 0xE40 DUP2 PUSH1 0x2 SLOAD PUSH2 0x1323 JUMP JUMPDEST PUSH1 0x2 SSTORE DUP2 DUP2 ISZERO PUSH2 0x55A JUMPI CALLER SWAP1 CALL ISZERO PUSH2 0x550 JUMPI MLOAD RETURN JUMPDEST DUP6 MLOAD PUSH3 0x461BCD PUSH1 0xE5 SHL DUP2 MSTORE SWAP2 DUP3 ADD DUP5 SWAP1 MSTORE PUSH1 0x14 SWAP1 DUP3 ADD MSTORE PUSH20 0x1B9BDD08195B9BDD59DA0819195C1BDCDA5D1959 PUSH1 0x62 SHL PUSH1 0x44 DUP3 ADD MSTORE PUSH1 0x64 SWAP1 REVERT JUMPDEST DUP6 MLOAD PUSH3 0x461BCD PUSH1 0xE5 SHL DUP2 MSTORE SWAP2 DUP3 ADD DUP5 SWAP1 MSTORE PUSH1 0xD SWAP1 DUP3 ADD MSTORE PUSH13 0x3737BA103A34329037BBB732B9 PUSH1 0x99 SHL PUSH1 0x44 DUP3 ADD MSTORE PUSH1 0x64 SWAP1 REVERT JUMPDEST PUSH2 0xED7 SWAP2 POP DUP7 RETURNDATASIZE DUP9 GT PUSH2 0x71E JUMPI PUSH2 0x70F DUP2 DUP4 PUSH2 0x10EF JUMP JUMPDEST DUP10 PUSH2 0xDFD JUMP JUMPDEST DUP9 MLOAD RETURNDATASIZE DUP12 DUP3 RETURNDATACOPY RETURNDATASIZE SWAP1 REVERT JUMPDEST PUSH1 0x64 SWAP1 PUSH1 0x1B DUP5 PUSH1 0x20 DUP9 MLOAD SWAP4 PUSH3 0x461BCD PUSH1 0xE5 SHL DUP6 MSTORE DUP5 ADD MSTORE DUP3 ADD MSTORE PUSH32 0x63616E6E6F74207769746864726177206F6E6365207374616B65640000000000 PUSH1 0x44 DUP3 ADD MSTORE REVERT JUMPDEST PUSH4 0x4E487B71 PUSH1 0xE0 SHL DUP8 MSTORE PUSH1 0x21 DUP3 MSTORE DUP4 DUP8 REVERT JUMPDEST POP DUP3 CALLVALUE PUSH2 0x2E9 JUMPI PUSH1 0x20 CALLDATASIZE PUSH1 0x3 NOT ADD SLT PUSH2 0x2E9 JUMPI CALLDATALOAD PUSH1 0x1 PUSH1 0x1 PUSH1 0xA0 SHL SUB DUP2 DUP2 AND SWAP2 DUP3 SWAP1 SUB PUSH2 0x6A9 JUMPI PUSH2 0xF70 SWAP1 DUP5 SLOAD AND CALLER EQ PUSH2 0x1251 JUMP JUMPDEST PUSH12 0xFFFFFFFFFFFFFFFFFFFFFFFF PUSH1 0xA0 SHL PUSH1 0x9 SLOAD AND OR PUSH1 0x9 SSTORE MLOAD RETURN JUMPDEST POP DUP3 CALLVALUE PUSH2 0x2E9 JUMPI DUP3 PUSH1 0x3 NOT CALLDATASIZE ADD SLT PUSH2 0x2E9 JUMPI PUSH2 0xFA5 PUSH2 0x1330 JUMP JUMPDEST DUP1 SLOAD PUSH1 0xFF NOT AND PUSH1 0x2 OR SWAP1 SSTORE MLOAD RETURN JUMPDEST POP DUP3 CALLVALUE PUSH2 0x2E9 JUMPI DUP3 PUSH1 0x3 NOT CALLDATASIZE ADD SLT PUSH2 0x2E9 JUMPI SLOAD SWAP1 MLOAD PUSH1 0x8 SWAP2 SWAP1 SWAP2 SHR PUSH1 0x1 PUSH1 0x1 PUSH1 0xA0 SHL SUB AND DUP2 MSTORE PUSH1 0x20 SWAP2 POP RETURN JUMPDEST POP CALLVALUE PUSH2 0x239 JUMPI DUP2 PUSH1 0x3 NOT CALLDATASIZE ADD SLT PUSH2 0x239 JUMPI PUSH2 0x84F SWAP1 PUSH2 0xD7E PUSH2 0x1625 JUMP JUMPDEST SWAP2 SWAP1 DUP3 MLOAD SWAP3 DUP4 DUP3 MSTORE PUSH1 0x0 JUMPDEST DUP5 DUP2 LT PUSH2 0x1028 JUMPI POP POP DUP3 PUSH1 0x0 PUSH1 0x20 DUP1 SWAP5 SWAP6 DUP5 ADD ADD MSTORE PUSH1 0x1F DUP1 NOT SWAP2 ADD AND ADD ADD SWAP1 JUMP JUMPDEST PUSH1 0x20 DUP2 DUP4 ADD DUP2 ADD MLOAD DUP5 DUP4 ADD DUP3 ADD MSTORE ADD PUSH2 0x1007 JUMP JUMPDEST SWAP2 DUP2 PUSH1 0x1F DUP5 ADD SLT ISZERO PUSH2 0x106A JUMPI DUP3 CALLDATALOAD SWAP2 PUSH8 0xFFFFFFFFFFFFFFFF DUP4 GT PUSH2 0x106A JUMPI PUSH1 0x20 DUP4 DUP2 DUP7 ADD SWAP6 ADD ADD GT PUSH2 0x106A JUMPI JUMP JUMPDEST PUSH1 0x0 DUP1 REVERT JUMPDEST SWAP1 PUSH1 0x1 DUP3 DUP2 SHR SWAP3 AND DUP1 ISZERO PUSH2 0x109F JUMPI JUMPDEST PUSH1 0x20 DUP4 LT EQ PUSH2 0x1089 JUMPI JUMP JUMPDEST PUSH4 0x4E487B71 PUSH1 0xE0 SHL PUSH1 0x0 MSTORE PUSH1 0x22 PUSH1 0x4 MSTORE PUSH1 0x24 PUSH1 0x0 REVERT JUMPDEST SWAP2 PUSH1 0x7F AND SWAP2 PUSH2 0x107E JUMP JUMPDEST PUSH8 0xFFFFFFFFFFFFFFFF DUP2 GT PUSH2 0x10BD JUMPI PUSH1 0x40 MSTORE JUMP JUMPDEST PUSH4 0x4E487B71 PUSH1 0xE0 SHL PUSH1 0x0 MSTORE PUSH1 0x41 PUSH1 0x4 MSTORE PUSH1 0x24 PUSH1 0x0 REVERT JUMPDEST PUSH1 0x40 DUP2 ADD SWAP1 DUP2 LT PUSH8 0xFFFFFFFFFFFFFFFF DUP3 GT OR PUSH2 0x10BD JUMPI PUSH1 0x40 MSTORE JUMP JUMPDEST SWAP1 PUSH1 0x1F DUP1 NOT SWAP2 ADD AND DUP2 ADD SWAP1 DUP2 LT PUSH8 0xFFFFFFFFFFFFFFFF DUP3 GT OR PUSH2 0x10BD JUMPI PUSH1 0x40 MSTORE JUMP JUMPDEST PUSH1 0x40 MLOAD SWAP1 PUSH1 0x0 DUP3 PUSH1 0x6 SLOAD SWAP2 PUSH2 0x1125 DUP4 PUSH2 0x106F JUMP JUMPDEST DUP1 DUP4 MSTORE SWAP3 PUSH1 0x1 SWAP1 DUP2 DUP2 AND SWAP1 DUP2 ISZERO PUSH2 0x119B JUMPI POP PUSH1 0x1 EQ PUSH2 0x114E JUMPI JUMPDEST POP PUSH2 0x114C SWAP3 POP SUB DUP4 PUSH2 0x10EF JUMP JUMPDEST JUMP JUMPDEST PUSH1 0x6 PUSH1 0x0 SWAP1 DUP2 MSTORE SWAP2 POP PUSH1 0x0 DUP1 MLOAD PUSH1 0x20 PUSH2 0x1708 DUP4 CODECOPY DUP2 MLOAD SWAP2 MSTORE JUMPDEST DUP5 DUP4 LT PUSH2 0x1180 JUMPI POP PUSH2 0x114C SWAP4 POP POP DUP2 ADD PUSH1 0x20 ADD CODESIZE PUSH2 0x113F JUMP JUMPDEST DUP2 SWAP4 POP SWAP1 DUP2 PUSH1 0x20 SWAP3 SLOAD DUP4 DUP6 DUP11 ADD ADD MSTORE ADD SWAP2 ADD SWAP1 SWAP2 DUP6 SWAP3 PUSH2 0x1167 JUMP JUMPDEST SWAP1 POP PUSH1 0x20 SWAP3 POP PUSH2 0x114C SWAP5 SWAP2 POP PUSH1 0xFF NOT AND DUP3 DUP5 ADD MSTORE ISZERO ISZERO PUSH1 0x5 SHL DUP3 ADD ADD CODESIZE PUSH2 0x113F JUMP JUMPDEST PUSH1 0x3 SLOAD DUP2 LT ISZERO PUSH2 0x11F4 JUMPI PUSH1 0x3 PUSH1 0x0 MSTORE PUSH32 0xC2575A0E9E593C00F959F8C92F12DB2869C3395A3B0502D05E2516446F71F85B ADD SWAP1 PUSH1 0x0 SWAP1 JUMP JUMPDEST PUSH4 0x4E487B71 PUSH1 0xE0 SHL PUSH1 0x0 MSTORE PUSH1 0x32 PUSH1 0x4 MSTORE PUSH1 0x24 PUSH1 0x0 REVERT JUMPDEST SWAP3 SWAP2 SWAP3 PUSH8 0xFFFFFFFFFFFFFFFF DUP3 GT PUSH2 0x10BD JUMPI PUSH1 0x40 MLOAD SWAP2 PUSH2 0x1234 PUSH1 0x1F DUP3 ADD PUSH1 0x1F NOT AND PUSH1 0x20 ADD DUP5 PUSH2 0x10EF JUMP JUMPDEST DUP3 SWAP5 DUP2 DUP5 MSTORE DUP2 DUP4 ADD GT PUSH2 0x106A JUMPI DUP3 DUP2 PUSH1 0x20 SWAP4 DUP5 PUSH1 0x0 SWAP7 ADD CALLDATACOPY ADD ADD MSTORE JUMP JUMPDEST ISZERO PUSH2 0x1258 JUMPI JUMP JUMPDEST PUSH1 0x64 PUSH1 0x40 MLOAD PUSH3 0x461BCD PUSH1 0xE5 SHL DUP2 MSTORE PUSH1 0x20 PUSH1 0x4 DUP3 ADD MSTORE PUSH1 0x20 PUSH1 0x24 DUP3 ADD MSTORE PUSH32 0x4F776E61626C653A2063616C6C6572206973206E6F7420746865206F776E6572 PUSH1 0x44 DUP3 ADD MSTORE REVERT JUMPDEST ISZERO PUSH2 0x12A3 JUMPI JUMP JUMPDEST PUSH1 0x40 MLOAD PUSH3 0x461BCD PUSH1 0xE5 SHL DUP2 MSTORE PUSH1 0x20 PUSH1 0x4 DUP3 ADD MSTORE PUSH1 0x16 PUSH1 0x24 DUP3 ADD MSTORE PUSH22 0x6E6F7420616363657074696E67206465706F73697473 PUSH1 0x50 SHL PUSH1 0x44 DUP3 ADD MSTORE PUSH1 0x64 SWAP1 REVERT JUMPDEST SWAP2 SWAP1 DUP3 ADD DUP1 SWAP3 GT PUSH2 0x12EE JUMPI JUMP JUMPDEST PUSH4 0x4E487B71 PUSH1 0xE0 SHL PUSH1 0x0 MSTORE PUSH1 0x11 PUSH1 0x4 MSTORE PUSH1 0x24 PUSH1 0x0 REVERT JUMPDEST SWAP1 DUP2 PUSH1 0x20 SWAP2 SUB SLT PUSH2 0x106A JUMPI MLOAD PUSH1 0x1 PUSH1 0x1 PUSH1 0xA0 SHL SUB DUP2 AND DUP2 SUB PUSH2 0x106A JUMPI SWAP1 JUMP JUMPDEST SWAP2 SWAP1 DUP3 SUB SWAP2 DUP3 GT PUSH2 0x12EE JUMPI JUMP JUMPDEST PUSH1 0x4 SWAP1 PUSH1 0xFF DUP3 SLOAD AND PUSH1 0x3 SWAP3 DUP4 DUP3 LT ISZERO PUSH2 0x14DF JUMPI PUSH1 0x1 DUP1 SWAP3 SUB PUSH2 0x149B JUMPI SELFBALANCE PUSH1 0x64 DUP2 GT ISZERO PUSH2 0x1457 JUMPI PUSH1 0x0 SWAP5 DUP4 JUMPDEST PUSH2 0x1368 JUMPI JUMPDEST POP POP POP POP SWAP1 POP JUMP JUMPDEST DUP1 SLOAD DUP7 LT ISZERO PUSH2 0x1452 JUMPI PUSH2 0x137A DUP7 PUSH2 0x11BD JUMP JUMPDEST SWAP1 SLOAD SWAP1 DUP3 SHL SHR PUSH1 0x1 DUP1 PUSH1 0xA0 SHL SUB DUP1 PUSH1 0x9 SLOAD AND SWAP2 PUSH1 0x40 SWAP3 DUP4 MLOAD DUP1 SWAP2 PUSH4 0x31A9108F PUSH1 0xE1 SHL DUP3 MSTORE DUP4 DUP10 DUP4 ADD MSTORE DUP2 PUSH1 0x24 PUSH1 0x20 SWAP5 DUP6 SWAP4 GAS STATICCALL SWAP2 DUP3 ISZERO PUSH2 0x1447 JUMPI SWAP4 PUSH1 0x0 SWAP5 SWAP4 DUP6 SWAP5 SWAP4 DUP10 DUP7 SWAP6 SWAP5 DUP7 SWAP6 DUP7 SWAP4 PUSH2 0x1424 JUMPI JUMPDEST POP POP PUSH2 0x13D5 SWAP2 SWAP3 PUSH2 0x14F4 JUMP JUMPDEST SWAP2 DUP4 SWAP2 DUP4 ISZERO PUSH2 0x141A JUMPI JUMPDEST AND SWAP1 CALL ISZERO PUSH2 0x1410 JUMPI POP PUSH1 0x0 NOT DUP7 EQ PUSH2 0x13FB JUMPI SWAP5 DUP4 ADD SWAP5 DUP4 PUSH2 0x135B JUMP JUMPDEST PUSH1 0x11 DUP4 PUSH4 0x4E487B71 PUSH1 0xE0 SHL PUSH1 0x0 MSTORE MSTORE PUSH1 0x24 PUSH1 0x0 REVERT JUMPDEST MLOAD RETURNDATASIZE PUSH1 0x0 DUP3 RETURNDATACOPY RETURNDATASIZE SWAP1 REVERT JUMPDEST PUSH2 0x8FC SWAP3 POP PUSH2 0x13DF JUMP JUMPDEST PUSH2 0x13D5 SWAP4 POP SWAP1 DUP2 PUSH2 0x1440 SWAP3 SWAP1 RETURNDATASIZE LT PUSH2 0x71E JUMPI PUSH2 0x70F DUP2 DUP4 PUSH2 0x10EF JUMP JUMPDEST SWAP2 CODESIZE PUSH2 0x13C9 JUMP JUMPDEST DUP6 MLOAD RETURNDATASIZE PUSH1 0x0 DUP3 RETURNDATACOPY RETURNDATASIZE SWAP1 REVERT JUMPDEST PUSH2 0x1360 JUMP JUMPDEST PUSH1 0x40 MLOAD PUSH3 0x461BCD PUSH1 0xE5 SHL DUP2 MSTORE PUSH1 0x20 DUP2 DUP5 ADD DUP2 SWAP1 MSTORE PUSH1 0x24 DUP3 ADD MSTORE PUSH32 0x6D696E696D756D206F66203130302077656920746F2064697374726962757465 PUSH1 0x44 DUP3 ADD MSTORE PUSH1 0x64 SWAP1 REVERT JUMPDEST PUSH1 0x64 SWAP1 PUSH1 0x20 PUSH1 0x40 MLOAD SWAP2 PUSH3 0x461BCD PUSH1 0xE5 SHL DUP4 MSTORE DUP3 ADD MSTORE PUSH1 0x1C PUSH1 0x24 DUP3 ADD MSTORE PUSH32 0x757365207769746864726177207768656E206E6F74207374616B656400000000 PUSH1 0x44 DUP3 ADD MSTORE REVERT JUMPDEST PUSH1 0x21 SWAP1 PUSH4 0x4E487B71 PUSH1 0xE0 SHL PUSH1 0x0 MSTORE MSTORE PUSH1 0x24 PUSH1 0x0 REVERT JUMPDEST PUSH1 0x0 SWAP1 DUP2 MSTORE PUSH1 0x1 PUSH1 0x20 MSTORE PUSH1 0x40 DUP2 KECCAK256 SLOAD ISZERO PUSH2 0x1584 JUMPI PUSH1 0x40 DUP2 KECCAK256 SLOAD PUSH1 0x0 NOT SWAP3 SWAP1 DUP2 ISZERO ISZERO DUP3 DUP6 DIV DUP3 GT AND PUSH2 0x1570 JUMPI PUSH1 0x2 SLOAD SWAP2 DUP3 ISZERO PUSH2 0x155C JUMPI MUL DIV SWAP2 PUSH1 0x1 DUP4 GT ISZERO PUSH2 0x1556 JUMPI DUP3 ADD SWAP2 DUP3 GT PUSH2 0x1542 JUMPI POP SWAP1 JUMP JUMPDEST PUSH4 0x4E487B71 PUSH1 0xE0 SHL DUP2 MSTORE PUSH1 0x11 PUSH1 0x4 MSTORE PUSH1 0x24 SWAP1 REVERT JUMPDEST POP SWAP1 POP SWAP1 JUMP JUMPDEST PUSH4 0x4E487B71 PUSH1 0xE0 SHL DUP5 MSTORE PUSH1 0x12 PUSH1 0x4 MSTORE PUSH1 0x24 DUP5 REVERT JUMPDEST PUSH4 0x4E487B71 PUSH1 0xE0 SHL DUP4 MSTORE PUSH1 0x11 PUSH1 0x4 MSTORE PUSH1 0x24 DUP4 REVERT JUMPDEST SWAP1 POP SWAP1 JUMP JUMPDEST PUSH1 0xFF PUSH1 0x4 SLOAD AND PUSH1 0x3 DUP2 LT ISZERO PUSH2 0x15B0 JUMPI PUSH2 0x15A2 JUMPI POP PUSH1 0x0 SWAP1 JUMP JUMPDEST PUSH2 0x15AD SWAP1 SELFBALANCE SWAP1 PUSH2 0x14F4 JUMP JUMPDEST SWAP1 JUMP JUMPDEST PUSH4 0x4E487B71 PUSH1 0xE0 SHL PUSH1 0x0 MSTORE PUSH1 0x21 PUSH1 0x4 MSTORE PUSH1 0x24 PUSH1 0x0 REVERT JUMPDEST PUSH1 0x1F DUP2 GT PUSH2 0x15D2 JUMPI POP POP JUMP JUMPDEST PUSH1 0x0 SWAP1 PUSH1 0x6 DUP3 MSTORE PUSH1 0x0 DUP1 MLOAD PUSH1 0x20 PUSH2 0x1708 DUP4 CODECOPY DUP2 MLOAD SWAP2 MSTORE SWAP1 PUSH1 0x20 PUSH1 0x1F DUP6 ADD PUSH1 0x5 SHR DUP4 ADD SWAP5 LT PUSH2 0x161B JUMPI JUMPDEST PUSH1 0x1F ADD PUSH1 0x5 SHR ADD SWAP2 JUMPDEST DUP3 DUP2 LT PUSH2 0x1610 JUMPI POP POP POP JUMP JUMPDEST DUP2 DUP2 SSTORE PUSH1 0x1 ADD PUSH2 0x1604 JUMP JUMPDEST SWAP1 SWAP3 POP DUP3 SWAP1 PUSH2 0x15FB JUMP JUMPDEST PUSH1 0xFF PUSH1 0x4 SLOAD AND PUSH1 0x3 DUP2 LT ISZERO PUSH2 0x15B0 JUMPI PUSH1 0x1 DUP2 EQ PUSH2 0x16C3 JUMPI DUP1 ISZERO PUSH2 0x1694 JUMPI PUSH1 0x2 EQ PUSH2 0x1672 JUMPI PUSH1 0x40 MLOAD PUSH2 0x1655 DUP2 PUSH2 0x10D3 JUMP JUMPDEST PUSH1 0xD DUP2 MSTORE PUSH13 0x7374617465206661696C757265 PUSH1 0x98 SHL PUSH1 0x20 DUP3 ADD MSTORE SWAP1 JUMP JUMPDEST PUSH1 0x40 MLOAD PUSH2 0x167E DUP2 PUSH2 0x10D3 JUMP JUMPDEST PUSH1 0x6 DUP2 MSTORE PUSH6 0x195E1A5D1959 PUSH1 0xD2 SHL PUSH1 0x20 DUP3 ADD MSTORE SWAP1 JUMP JUMPDEST POP PUSH1 0x40 MLOAD PUSH2 0x16A1 DUP2 PUSH2 0x10D3 JUMP JUMPDEST PUSH1 0x12 DUP2 MSTORE PUSH18 0x616363657074696E67206465706F73697473 PUSH1 0x70 SHL PUSH1 0x20 DUP3 ADD MSTORE SWAP1 JUMP JUMPDEST POP PUSH1 0x40 MLOAD PUSH2 0x16D0 DUP2 PUSH2 0x10D3 JUMP JUMPDEST PUSH1 0x6 DUP2 MSTORE PUSH6 0x1CDD185AD959 PUSH1 0xD2 SHL PUSH1 0x20 DUP3 ADD MSTORE SWAP1 JUMP JUMPDEST SWAP1 DUP1 PUSH1 0x20 SWAP4 SWAP3 DUP2 DUP5 MSTORE DUP5 DUP5 ADD CALLDATACOPY PUSH1 0x0 DUP3 DUP3 ADD DUP5 ADD MSTORE PUSH1 0x1F ADD PUSH1 0x1F NOT AND ADD ADD SWAP1 JUMP INVALID 0xF6 MSTORE 0x22 0x23 SGT 0xE2 DUP5 MSIZE MSTORE DUP14 SWAP3 SIGNEXTEND PUSH6 0x115C16C04F3E 0xFC DUP3 0xAA 0xED 0xC9 PUSH28 0xE59F3F377C0D3FA26469706673582212206AEEFD5076AF57AE83CC08 0xD9 0xC1 MSTORE 0xF8 0xEB 0xE5 DUP8 SAR CALLVALUE 0x5C SMOD 0x4B COINBASE 0xC6 CALLDATALOAD SAR ISZERO PUSH21 0x428D664736F6C63430008100033A2646970667358 0x22 SLT KECCAK256 SWAP12 0xB9 SWAP8 PUSH28 0x874D7836B1C619322B73CFDA86513F0FD3F546F5875074BCB23436D7 PUSH5 0x736F6C6343 STOP ADDMOD LT STOP CALLER "
        },
        "gasEstimates": {
          "creation": {
            "codeDepositCost": "1597800",
            "executionCost": "infinite",
            "totalCost": "infinite"
          },
          "external": {
            "create(address)": "infinite",
            "doesStakingPoolExist(address)": "2479",
            "getStakingPool(uint256)": "infinite",
            "numberOfStakingPools()": "2315",
            "owner()": "2402",
            "renounceOwnership()": "26027",
            "setFrensPoolShare(address)": "26570",
            "stakingPools(uint256)": "4450",
            "transferOwnership(address)": "26195"
          }
        },
        "methodIdentifiers": {
          "create(address)": "9ed93318",
          "doesStakingPoolExist(address)": "76f42f8a",
          "getStakingPool(uint256)": "a2b44d75",
          "numberOfStakingPools()": "6202d396",
          "owner()": "8da5cb5b",
          "renounceOwnership()": "715018a6",
          "setFrensPoolShare(address)": "2edaf74d",
          "stakingPools(uint256)": "5aad6cf0",
          "transferOwnership(address)": "f2fde38b"
        }
      },
      "storageLayout": {
        "storage": [
          {
            "astId": 7,
            "contract": "contracts/StakingPoolFactory.sol:StakingPoolFactory",
            "label": "_owner",
            "offset": 0,
            "slot": "0",
            "type": "t_address"
          },
          {
            "astId": 3540,
            "contract": "contracts/StakingPoolFactory.sol:StakingPoolFactory",
            "label": "stakingPools",
            "offset": 0,
            "slot": "1",
            "type": "t_array(t_contract(StakingPool)3530)dyn_storage"
          },
          {
            "astId": 3544,
            "contract": "contracts/StakingPoolFactory.sol:StakingPoolFactory",
            "label": "existsStakingPool",
            "offset": 0,
            "slot": "2",
            "type": "t_mapping(t_address,t_bool)"
          },
          {
            "astId": 3546,
            "contract": "contracts/StakingPoolFactory.sol:StakingPoolFactory",
            "label": "depositContractAddress",
            "offset": 0,
            "slot": "3",
            "type": "t_address"
          },
          {
            "astId": 3548,
            "contract": "contracts/StakingPoolFactory.sol:StakingPoolFactory",
            "label": "ssvRegistryAddress",
            "offset": 0,
            "slot": "4",
            "type": "t_address"
          },
          {
            "astId": 3550,
            "contract": "contracts/StakingPoolFactory.sol:StakingPoolFactory",
            "label": "frensPoolShareAddress",
            "offset": 0,
            "slot": "5",
            "type": "t_address"
          }
        ],
        "types": {
          "t_address": {
            "encoding": "inplace",
            "label": "address",
            "numberOfBytes": "20"
          },
          "t_array(t_contract(StakingPool)3530)dyn_storage": {
            "base": "t_contract(StakingPool)3530",
            "encoding": "dynamic_array",
            "label": "contract StakingPool[]",
            "numberOfBytes": "32"
          },
          "t_bool": {
            "encoding": "inplace",
            "label": "bool",
            "numberOfBytes": "1"
          },
          "t_contract(StakingPool)3530": {
            "encoding": "inplace",
            "label": "contract StakingPool",
            "numberOfBytes": "20"
          },
          "t_mapping(t_address,t_bool)": {
            "encoding": "mapping",
            "key": "t_address",
            "label": "mapping(address => bool)",
            "numberOfBytes": "32",
            "value": "t_bool"
          }
        }
      },
      "userdoc": {
        "kind": "user",
        "methods": {},
        "version": 1
      }
    }
  }
}