{
  "contracts/FrensPoolShare.sol": {
    "FrensPoolShare": {
      "abi": [
        {
          "inputs": [
            {
              "internalType": "address",
              "name": "factoryAddress_",
              "type": "address"
            },
            {
              "internalType": "address",
              "name": "ssvRegistryAddress_",
              "type": "address"
            }
          ],
          "stateMutability": "nonpayable",
          "type": "constructor"
        },
        {
          "anonymous": false,
          "inputs": [
            {
              "indexed": true,
              "internalType": "address",
              "name": "owner",
              "type": "address"
            },
            {
              "indexed": true,
              "internalType": "address",
              "name": "approved",
              "type": "address"
            },
            {
              "indexed": true,
              "internalType": "uint256",
              "name": "tokenId",
              "type": "uint256"
            }
          ],
          "name": "Approval",
          "type": "event"
        },
        {
          "anonymous": false,
          "inputs": [
            {
              "indexed": true,
              "internalType": "address",
              "name": "owner",
              "type": "address"
            },
            {
              "indexed": true,
              "internalType": "address",
              "name": "operator",
              "type": "address"
            },
            {
              "indexed": false,
              "internalType": "bool",
              "name": "approved",
              "type": "bool"
            }
          ],
          "name": "ApprovalForAll",
          "type": "event"
        },
        {
          "anonymous": false,
          "inputs": [
            {
              "indexed": true,
              "internalType": "address",
              "name": "previousOwner",
              "type": "address"
            },
            {
              "indexed": true,
              "internalType": "address",
              "name": "newOwner",
              "type": "address"
            }
          ],
          "name": "OwnershipTransferred",
          "type": "event"
        },
        {
          "anonymous": false,
          "inputs": [
            {
              "indexed": true,
              "internalType": "address",
              "name": "from",
              "type": "address"
            },
            {
              "indexed": true,
              "internalType": "address",
              "name": "to",
              "type": "address"
            },
            {
              "indexed": true,
              "internalType": "uint256",
              "name": "tokenId",
              "type": "uint256"
            }
          ],
          "name": "Transfer",
          "type": "event"
        },
        {
          "inputs": [
            {
              "internalType": "address",
              "name": "to",
              "type": "address"
            },
            {
              "internalType": "uint256",
              "name": "tokenId",
              "type": "uint256"
            }
          ],
          "name": "approve",
          "outputs": [],
          "stateMutability": "nonpayable",
          "type": "function"
        },
        {
          "inputs": [
            {
              "internalType": "address",
              "name": "owner",
              "type": "address"
            }
          ],
          "name": "balanceOf",
          "outputs": [
            {
              "internalType": "uint256",
              "name": "",
              "type": "uint256"
            }
          ],
          "stateMutability": "view",
          "type": "function"
        },
        {
          "inputs": [
            {
              "internalType": "uint256",
              "name": "_id",
              "type": "uint256"
            }
          ],
          "name": "exists",
          "outputs": [
            {
              "internalType": "bool",
              "name": "",
              "type": "bool"
            }
          ],
          "stateMutability": "view",
          "type": "function"
        },
        {
          "inputs": [
            {
              "internalType": "uint256",
              "name": "tokenId",
              "type": "uint256"
            }
          ],
          "name": "getApproved",
          "outputs": [
            {
              "internalType": "address",
              "name": "",
              "type": "address"
            }
          ],
          "stateMutability": "view",
          "type": "function"
        },
        {
          "inputs": [
            {
              "internalType": "uint256",
              "name": "amountInWei",
              "type": "uint256"
            }
          ],
          "name": "getEthDecimalString",
          "outputs": [
            {
              "internalType": "string",
              "name": "",
              "type": "string"
            }
          ],
          "stateMutability": "pure",
          "type": "function"
        },
        {
          "inputs": [
            {
              "internalType": "address",
              "name": "poolAddress",
              "type": "address"
            }
          ],
          "name": "getOperatorsForPool",
          "outputs": [
            {
              "internalType": "uint32[]",
              "name": "",
              "type": "uint32[]"
            },
            {
              "internalType": "bytes",
              "name": "",
              "type": "bytes"
            }
          ],
          "stateMutability": "view",
          "type": "function"
        },
        {
          "inputs": [
            {
              "internalType": "uint256",
              "name": "_id",
              "type": "uint256"
            }
          ],
          "name": "getPoolById",
          "outputs": [
            {
              "internalType": "address",
              "name": "",
              "type": "address"
            }
          ],
          "stateMutability": "view",
          "type": "function"
        },
        {
          "inputs": [],
          "name": "incrementTokenId",
          "outputs": [
            {
              "internalType": "uint256",
              "name": "",
              "type": "uint256"
            }
          ],
          "stateMutability": "nonpayable",
          "type": "function"
        },
        {
          "inputs": [
            {
              "internalType": "address",
              "name": "owner",
              "type": "address"
            },
            {
              "internalType": "address",
              "name": "operator",
              "type": "address"
            }
          ],
          "name": "isApprovedForAll",
          "outputs": [
            {
              "internalType": "bool",
              "name": "",
              "type": "bool"
            }
          ],
          "stateMutability": "view",
          "type": "function"
        },
        {
          "inputs": [
            {
              "internalType": "address",
              "name": "userAddress",
              "type": "address"
            },
            {
              "internalType": "uint256",
              "name": "id",
              "type": "uint256"
            },
            {
              "internalType": "address",
              "name": "_pool",
              "type": "address"
            }
          ],
          "name": "mint",
          "outputs": [],
          "stateMutability": "nonpayable",
          "type": "function"
        },
        {
          "inputs": [],
          "name": "name",
          "outputs": [
            {
              "internalType": "string",
              "name": "",
              "type": "string"
            }
          ],
          "stateMutability": "view",
          "type": "function"
        },
        {
          "inputs": [],
          "name": "owner",
          "outputs": [
            {
              "internalType": "address",
              "name": "",
              "type": "address"
            }
          ],
          "stateMutability": "view",
          "type": "function"
        },
        {
          "inputs": [
            {
              "internalType": "uint256",
              "name": "tokenId",
              "type": "uint256"
            }
          ],
          "name": "ownerOf",
          "outputs": [
            {
              "internalType": "address",
              "name": "",
              "type": "address"
            }
          ],
          "stateMutability": "view",
          "type": "function"
        },
        {
          "inputs": [
            {
              "internalType": "uint256",
              "name": "id",
              "type": "uint256"
            }
          ],
          "name": "renderTokenById",
          "outputs": [
            {
              "internalType": "string",
              "name": "",
              "type": "string"
            }
          ],
          "stateMutability": "view",
          "type": "function"
        },
        {
          "inputs": [],
          "name": "renounceOwnership",
          "outputs": [],
          "stateMutability": "nonpayable",
          "type": "function"
        },
        {
          "inputs": [
            {
              "internalType": "address",
              "name": "from",
              "type": "address"
            },
            {
              "internalType": "address",
              "name": "to",
              "type": "address"
            },
            {
              "internalType": "uint256",
              "name": "tokenId",
              "type": "uint256"
            }
          ],
          "name": "safeTransferFrom",
          "outputs": [],
          "stateMutability": "nonpayable",
          "type": "function"
        },
        {
          "inputs": [
            {
              "internalType": "address",
              "name": "from",
              "type": "address"
            },
            {
              "internalType": "address",
              "name": "to",
              "type": "address"
            },
            {
              "internalType": "uint256",
              "name": "tokenId",
              "type": "uint256"
            },
            {
              "internalType": "bytes",
              "name": "_data",
              "type": "bytes"
            }
          ],
          "name": "safeTransferFrom",
          "outputs": [],
          "stateMutability": "nonpayable",
          "type": "function"
        },
        {
          "inputs": [
            {
              "internalType": "address",
              "name": "operator",
              "type": "address"
            },
            {
              "internalType": "bool",
              "name": "approved",
              "type": "bool"
            }
          ],
          "name": "setApprovalForAll",
          "outputs": [],
          "stateMutability": "nonpayable",
          "type": "function"
        },
        {
          "inputs": [
            {
              "internalType": "bytes4",
              "name": "interfaceId",
              "type": "bytes4"
            }
          ],
          "name": "supportsInterface",
          "outputs": [
            {
              "internalType": "bool",
              "name": "",
              "type": "bool"
            }
          ],
          "stateMutability": "view",
          "type": "function"
        },
        {
          "inputs": [],
          "name": "symbol",
          "outputs": [
            {
              "internalType": "string",
              "name": "",
              "type": "string"
            }
          ],
          "stateMutability": "view",
          "type": "function"
        },
        {
          "inputs": [
            {
              "internalType": "uint256",
              "name": "index",
              "type": "uint256"
            }
          ],
          "name": "tokenByIndex",
          "outputs": [
            {
              "internalType": "uint256",
              "name": "",
              "type": "uint256"
            }
          ],
          "stateMutability": "view",
          "type": "function"
        },
        {
          "inputs": [
            {
              "internalType": "address",
              "name": "owner",
              "type": "address"
            },
            {
              "internalType": "uint256",
              "name": "index",
              "type": "uint256"
            }
          ],
          "name": "tokenOfOwnerByIndex",
          "outputs": [
            {
              "internalType": "uint256",
              "name": "",
              "type": "uint256"
            }
          ],
          "stateMutability": "view",
          "type": "function"
        },
        {
          "inputs": [
            {
              "internalType": "uint256",
              "name": "id",
              "type": "uint256"
            }
          ],
          "name": "tokenURI",
          "outputs": [
            {
              "internalType": "string",
              "name": "",
              "type": "string"
            }
          ],
          "stateMutability": "view",
          "type": "function"
        },
        {
          "inputs": [],
          "name": "totalSupply",
          "outputs": [
            {
              "internalType": "uint256",
              "name": "",
              "type": "uint256"
            }
          ],
          "stateMutability": "view",
          "type": "function"
        },
        {
          "inputs": [
            {
              "internalType": "address",
              "name": "from",
              "type": "address"
            },
            {
              "internalType": "address",
              "name": "to",
              "type": "address"
            },
            {
              "internalType": "uint256",
              "name": "tokenId",
              "type": "uint256"
            }
          ],
          "name": "transferFrom",
          "outputs": [],
          "stateMutability": "nonpayable",
          "type": "function"
        },
        {
          "inputs": [
            {
              "internalType": "address",
              "name": "newOwner",
              "type": "address"
            }
          ],
          "name": "transferOwnership",
          "outputs": [],
          "stateMutability": "nonpayable",
          "type": "function"
        }
      ],
      "devdoc": {
        "kind": "dev",
        "methods": {
          "approve(address,uint256)": {
            "details": "See {IERC721-approve}."
          },
          "balanceOf(address)": {
            "details": "See {IERC721-balanceOf}."
          },
          "getApproved(uint256)": {
            "details": "See {IERC721-getApproved}."
          },
          "isApprovedForAll(address,address)": {
            "details": "See {IERC721-isApprovedForAll}."
          },
          "name()": {
            "details": "See {IERC721Metadata-name}."
          },
          "owner()": {
            "details": "Returns the address of the current owner."
          },
          "ownerOf(uint256)": {
            "details": "See {IERC721-ownerOf}."
          },
          "renounceOwnership()": {
            "details": "Leaves the contract without owner. It will not be possible to call `onlyOwner` functions anymore. Can only be called by the current owner. NOTE: Renouncing ownership will leave the contract without an owner, thereby removing any functionality that is only available to the owner."
          },
          "safeTransferFrom(address,address,uint256)": {
            "details": "See {IERC721-safeTransferFrom}."
          },
          "safeTransferFrom(address,address,uint256,bytes)": {
            "details": "See {IERC721-safeTransferFrom}."
          },
          "setApprovalForAll(address,bool)": {
            "details": "See {IERC721-setApprovalForAll}."
          },
          "supportsInterface(bytes4)": {
            "details": "See {IERC165-supportsInterface}."
          },
          "symbol()": {
            "details": "See {IERC721Metadata-symbol}."
          },
          "tokenByIndex(uint256)": {
            "details": "See {IERC721Enumerable-tokenByIndex}."
          },
          "tokenOfOwnerByIndex(address,uint256)": {
            "details": "See {IERC721Enumerable-tokenOfOwnerByIndex}."
          },
          "totalSupply()": {
            "details": "See {IERC721Enumerable-totalSupply}."
          },
          "transferFrom(address,address,uint256)": {
            "details": "See {IERC721-transferFrom}."
          },
          "transferOwnership(address)": {
            "details": "Transfers ownership of the contract to a new account (`newOwner`). Can only be called by the current owner."
          }
        },
        "version": 1
      },
      "evm": {
        "bytecode": {
          "linkReferences": {},
          "object": "608034620003cc576001600160401b0390601f1990601f906200598e3881900383810185168301919086831184841017620003b6578084926040948552833981010312620003cc576200005281620003f1565b93620000626020809301620003f1565b926200006d620003d1565b9260128452717374616b696e6720636f6e20616d69676f7360701b8185015262000096620003d1565b9060058252644652454e5360d81b81830152845196848811620003b6576000978854966001978881811c91168015620003ab575b85821014620003975790818784931162000344575b508490878311600114620002e3578b92620002d7575b5050600019600383901b1c191690871b1788555b8251948511620002c35785548681811c91168015620002b8575b83821014620002a4579081858796959493116200024b575b5081938511600114620001e65750508692620001da575b5050600019600383901b1c191690821b1790555b600a80546001600160a01b0319808216339081179093556040519590946001600160a01b03949385939091908416907f8be0079c531659141344cd1fd0a4f28419497f9722a3daafe3b4186f6b6457e09089a31683600d541617600d551690600e541617600e556155879081620004078239f35b01519050388062000152565b869593929193168589528389209389905b82821062000231575050841162000217575b505050811b01905562000166565b015160001960f88460031b161c1916905538808062000209565b8484015186558897909501949384019390810190620001f7565b9091929394508689528289208580880160051c8201928589106200029a575b9188978a9297969594930160051c01915b8281106200028b5750506200013b565b8b81558897508991016200027b565b925081926200026a565b634e487b7160e01b89526022600452602489fd5b90607f169062000123565b634e487b7160e01b88526041600452602488fd5b015190503880620000f5565b90848a9416918c8052868d20928d5b888282106200032d575050841162000313575b505050811b01885562000109565b015160001960f88460031b161c1916905538808062000305565b8385015186558d97909501949384019301620002f2565b9091508a8052848b208780850160051c8201928786106200038d575b918b91869594930160051c01915b8281106200037e575050620000df565b8d81558594508b91016200036e565b9250819262000360565b634e487b7160e01b8b52602260045260248bfd5b90607f1690620000ca565b634e487b7160e01b600052604160045260246000fd5b600080fd5b60408051919082016001600160401b03811183821017620003b657604052565b51906001600160a01b0382168203620003cc5756fe60806040526004361015610013575b600080fd5b60003560e01c806301ffc9a71461021b57806306fdde0314610212578063081812fc14610209578063095ea7b3146102005780630bc59b38146101f75780630d4d1513146101ee57806318160ddd146101e557806323b872dd146101dc5780632f745c59146101d357806342842e0e146101ca5780634f3130fa146101c15780634f558e79146101b85780634f6ccce7146101af5780636352211e146101a657806370a082311461019d578063715018a6146101945780638da5cb5b1461018b57806395d89b4114610182578063a090f9b414610179578063a22cb46514610170578063a2d6c6da14610167578063b88d4fde1461015e578063c87b56dd14610155578063e985e9c51461014c578063edd148a2146101435763f2fde38b1461013b57600080fd5b61000e6116c3565b5061000e6116a3565b5061000e611645565b5061000e610f4f565b5061000e610ec5565b5061000e610dcc565b5061000e610cdf565b5061000e610c5f565b5061000e610b9d565b5061000e610b73565b5061000e610b0e565b5061000e610ae2565b5061000e610ac3565b5061000e610a17565b5061000e6109db565b5061000e61093d565b5061000e6108f5565b5061000e610841565b5061000e610817565b5061000e6107c3565b5061000e6105be565b5061000e610589565b5061000e610499565b5061000e610426565b5061000e61031b565b5061000e610236565b6001600160e01b031981160361000e57565b503461000e57602036600319011261000e57602060043561025681610224565b63ffffffff60e01b1663780e9d6360e01b811490811561027c575b506040519015158152f35b6380ac58cd60e01b8114915081156102ae575b811561029d575b5038610271565b6301ffc9a760e01b14905038610296565b635b5e139f60e01b8114915061028f565b60005b8381106102d25750506000910152565b81810151838201526020016102c2565b906020916102fb815180928185528580860191016102bf565b601f01601f1916010190565b9060206103189281815201906102e2565b90565b503461000e5760008060031936011261042357604051908080549060019180831c92808216928315610419575b60209283861085146104055785885260208801949081156103e4575060011461038c575b6103888761037c81890382610e78565b60405191829182610307565b0390f35b6000805294509192917f290decd9548b62a8d60345a988386fc84ba6bc95484008f6362f93160ef3e5635b8386106103d3575050509101905061037c82610388388061036c565b8054858701529482019481016103b7565b60ff191685525050505090151560051b01905061037c82610388388061036c565b634e487b7160e01b82526022600452602482fd5b93607f1693610348565b80fd5b503461000e57602036600319011261000e576020610445600435611957565b6040516001600160a01b039091168152f35b600435906001600160a01b038216820361000e57565b604435906001600160a01b038216820361000e57565b602435906001600160a01b038216820361000e57565b503461000e57604036600319011261000e576104b3610457565b6024356104bf8161186d565b916001600160a01b03808416908216811461053a576104f1936104ec9133149081156104f3575b506118e5565b611e1b565b005b6001600160a01b03166000908152600560205260409020610534915061052d9033905b9060018060a01b0316600052602052604060002090565b5460ff1690565b386104e6565b60405162461bcd60e51b815260206004820152602160248201527f4552433732313a20617070726f76616c20746f2063757272656e74206f776e656044820152603960f91b6064820152608490fd5b503461000e57602036600319011261000e57600435600052600c602052602060018060a01b0360406000205416604051908152f35b503461000e57606036600319011261000e576105d8610457565b602435906105e461046d565b9160018060a01b039182600d541661065a60409561062f87518094633b7a17c560e11b825233600483015281602460209788935afa9081156107b6575b600091610789575b5061236f565b6000858152600c845287902080546001600160a01b0319166001600160a01b03909216919091179055565b84519361066685610e17565b6000855282169081156107475760008661074461073f88888881896106af6106aa6106a684600052600260205260018060a01b0360406000205416151590565b1590565b6123d0565b6106b98284612043565b6001600160a01b03831660009081526003602052604090206106db8154611c73565b9055610714836106f5846000526002602052604060002090565b80546001600160a01b0319166001600160a01b03909216919091179055565b887fddf252ad1be2c89b69c2b068fc378daa952ba7f163c4a11628f55a4df523b3ef818a51a4611f2f565b611ade565b51f35b60649086519062461bcd60e51b825280600483015260248201527f4552433732313a206d696e7420746f20746865207a65726f20616464726573736044820152fd5b6107a99150853d87116107af575b6107a18183610e78565b81019061235a565b38610629565b503d610797565b6107be611ef2565b610621565b503461000e57600036600319011261000e576020600854604051908152f35b606090600319011261000e576001600160a01b0390600435828116810361000e5791602435908116810361000e579060443590565b503461000e576104f1610829366107e2565b9161083c6108378433611b02565b6119e9565b611c9d565b503461000e57604036600319011261000e5761085b610457565b60243590610868816117f5565b82101561089c576001600160a01b031660009081526006602090815260408083209383529281529082902054915191825290f35b60405162461bcd60e51b815260206004820152602b60248201527f455243373231456e756d657261626c653a206f776e657220696e646578206f7560448201526a74206f6620626f756e647360a81b6064820152608490fd5b503461000e576104f1610907366107e2565b90604051926020840184811067ffffffffffffffff821117610930575b60405260008452611a62565b610938610e00565b610924565b503461000e57600036600319011261000e57600d54604051633b7a17c560e11b815233600482015261099391602090829060249082906001600160a01b03165afa9081156109ce575b6000916109b6575061236f565b6103886109a1600b546123b4565b80600b55604051918291829190602083019252565b6107a9915060203d81116107af576107a18183610e78565b6109d6611ef2565b610986565b503461000e57602036600319011261000e576004356000908152600260209081526040909120546001600160a01b031615156040519015158152f35b503461000e57602036600319011261000e57600435600854811015610a695760086000527ff3f7a9fe364faab93b216da50a3214154f22a0a2b415b23a84c8169e8b636ee30154604051908152602090f35b60405162461bcd60e51b815260206004820152602c60248201527f455243373231456e756d657261626c653a20676c6f62616c20696e646578206f60448201526b7574206f6620626f756e647360a01b6064820152608490fd5b503461000e57602036600319011261000e57602061044560043561186d565b503461000e57602036600319011261000e576020610b06610b01610457565b6117f5565b604051908152f35b503461000e5760008060031936011261042357600a546001600160a01b03811690610b3a33831461175a565b6001600160a01b031916600a556040519082907f8be0079c531659141344cd1fd0a4f28419497f9722a3daafe3b4186f6b6457e08284a3f35b503461000e57600036600319011261000e57600a546040516001600160a01b039091168152602090f35b503461000e57600080600319360112610423576040519080600190815480831c92808216928315610c55575b60209283861085146104055785885260208801949081156103e45750600114610bfc576103888761037c81890382610e78565b600160005294509192917fb10e2d527612073b26eecdfd717e6a320cf44b4afac2b0732d9fcbe2b7fa0cf65b838610610c44575050509101905061037c82610388388061036c565b805485870152948201948101610c28565b93607f1693610bc9565b503461000e5760208060031936011261000e57610c82610c7d610457565b6153ba565b6040929192519160408301604084528451809152816060850195019060005b818110610cbb5785870384870152858061038889886102e2565b825163ffffffff1687529583019591830191600101610ca1565b8015150361000e57565b503461000e57604036600319011261000e57610cf9610457565b602435610d0581610cd5565b6001600160a01b03821691338314610d875781610d44610d559233600052600560205260406000209060018060a01b0316600052602052604060002090565b9060ff801983541691151516179055565b604051901515815233907f17307eab39ab6107e8899845ad3d59bd9653f200f220920489ca2b5937696c3190602090a3005b60405162461bcd60e51b815260206004820152601960248201527f4552433732313a20617070726f766520746f2063616c6c6572000000000000006044820152606490fd5b503461000e57602036600319011261000e57610388610dec6004356129b5565b6040519182916020835260208301906102e2565b50634e487b7160e01b600052604160045260246000fd5b6020810190811067ffffffffffffffff821117610e3357604052565b610e3b610e00565b604052565b6040810190811067ffffffffffffffff821117610e3357604052565b6060810190811067ffffffffffffffff821117610e3357604052565b90601f8019910116810190811067ffffffffffffffff821117610e3357604052565b60209067ffffffffffffffff8111610eb8575b601f01601f19160190565b610ec0610e00565b610ead565b503461000e57608036600319011261000e57610edf610457565b610ee7610483565b6064359167ffffffffffffffff831161000e573660238401121561000e57826004013591610f1483610e9a565b92610f226040519485610e78565b808452366024828701011161000e5760208160009260246104f19801838801378501015260443591611a62565b503461000e5760208060031936011261000e57600435600081815260026020526040902054610f88906001600160a01b0316151561241c565b610fac610f9f82600052600c602052604060002090565b546001600160a01b031690565b6040805163378de45b60e01b815260048082018590529193859185906001600160a01b03861690610ff5908581602481865afa908115611638575b600091611621575b50615256565b61103283516333c7180560e11b8152868180611018898c83019190602083019252565b0381875afa908115611614575b6000916115e75750615256565b96600061104761104185612703565b926153ba565b5093855198898092631865c57d60e01b82525afa9687156115da575b6000976115b7575b50611075856125af565b968451809888820161109f90601190706672656e20706f6f6c207368617265202360781b81520190565b6110a8916124c2565b0398601f19998a81018a526110bd908a610e78565b855193848981016110f290601b907f74686973206672656e206861732061206465706f736974206f6620000000000081520190565b6110fc90836124c2565b6c01022ba341034b7103837b7b61609d1b8152600d0161111c90866124c2565b7f207769746820636c61696d61626c652062616c616e6365206f662000000000008152601b0161114c90846124c2565b630408ae8d60e31b8152600401038b810186526111699086610e78565b61117288612919565b61117b90612830565b97611185906125af565b9386511560001461159f5761119861251e565b945b8751611587576111a861251e565b965b885161156f576111b861251e565b985b805161153f57506111c961251e565b995b51683d913730b6b2911d1160b91b9c81019c8d529c8d9c6009016111ee916124c2565b71111610113232b9b1b934b83a34b7b7111d1160711b8152601201611212916124c2565b7f222c202265787465726e616c5f75726c223a2268747470733a2f2f6672656e7381526a2e66756e2f746f6b656e2f60a81b6020820152602b01611255916124c2565b7f222c202261747472696275746573223a205b7b2274726169745f74797065223a81527110113837b7b6111610113b30b63ab2911d1160711b602082015260320161129f916124c2565b7f227d2c7b2274726169745f74797065223a20226465706f736974222c20227661815266363ab2911d101160c91b60208201526027016112de916124c2565b630408ae8d60e31b81526004017f227d2c7b2274726169745f74797065223a2022636c61696d61626c65222c20228152683b30b63ab2911d101160b91b602082015260290161132c916124c2565b630408ae8d60e31b81526004017f227d2c7b2274726169745f74797065223a2022706f6f6c207374617465222c20815269113b30b63ab2911d101160b11b6020820152602a0161137b916124c2565b7f227d2c7b2274726169745f74797065223a20226f70657261746f7231222c20228152683b30b63ab2911d101160b91b60208201526029016113bc916124c2565b7f227d2c7b2274726169745f74797065223a20226f70657261746f7232222c20228152683b30b63ab2911d101160b91b60208201526029016113fd916124c2565b7f227d2c7b2274726169745f74797065223a20226f70657261746f7233222c20228152683b30b63ab2911d101160b91b602082015260290161143e916124c2565b7f227d2c7b2274726169745f74797065223a20226f70657261746f7234222c20228152683b30b63ab2911d101160b91b602082015260290161147f916124c2565b6e113eae96101134b6b0b3b2911d101160891b8152600f017f646174613a696d6167652f7376672b786d6c3b6261736536342c0000000000008152601a016114c6916124c2565b61227d60f01b81526002010382810182526114e19082610e78565b6114ea90612830565b82517f646174613a6170706c69636174696f6e2f6a736f6e3b6261736536342c00000094810194855293849190601d01611523916124c2565b0390810183526115339083610e78565b51610388819282610307565b61156461155b6115516115699361250d565b5163ffffffff1690565b63ffffffff1690565b61548e565b996111cb565b61158161156461155b6115518c6124fc565b986111ba565b61159961156461155b6115518b6124eb565b966111aa565b6115b161156461155b6115518a6124d5565b9461119a565b6115d391973d8091833e6115cb8183610e78565b810190612463565b953861106b565b6115e2611ef2565b611063565b6116079150873d891161160d575b6115ff8183610e78565b810190612454565b38610fef565b503d6115f5565b61161c611ef2565b611025565b6116079150863d881161160d576115ff8183610e78565b611640611ef2565b610fe7565b503461000e57604036600319011261000e57602060ff611697611666610457565b61166e610483565b6001600160a01b0391821660009081526005865260408082209290931681526020919091522090565b54166040519015158152f35b503461000e57602036600319011261000e57610388610dec600435615256565b503461000e57602036600319011261000e576116dd610457565b600a546001600160a01b03906116f6908216331461175a565b811615611706576104f1906117a5565b60405162461bcd60e51b815260206004820152602660248201527f4f776e61626c653a206e6577206f776e657220697320746865207a65726f206160448201526564647265737360d01b6064820152608490fd5b1561176157565b606460405162461bcd60e51b815260206004820152602060248201527f4f776e61626c653a2063616c6c6572206973206e6f7420746865206f776e65726044820152fd5b600a549060018060a01b0380911691826bffffffffffffffffffffffff60a01b821617600a55167f8be0079c531659141344cd1fd0a4f28419497f9722a3daafe3b4186f6b6457e06000604051a3565b6001600160a01b0316801561181557600052600360205260406000205490565b60405162461bcd60e51b815260206004820152602a60248201527f4552433732313a2062616c616e636520717565727920666f7220746865207a65604482015269726f206164647265737360b01b6064820152608490fd5b6000908152600260205260409020546001600160a01b0316801561188e5790565b60405162461bcd60e51b815260206004820152602960248201527f4552433732313a206f776e657220717565727920666f72206e6f6e657869737460448201526832b73a103a37b5b2b760b91b6064820152608490fd5b156118ec57565b60405162461bcd60e51b815260206004820152603860248201527f4552433732313a20617070726f76652063616c6c6572206973206e6f74206f7760448201527f6e6572206e6f7220617070726f76656420666f7220616c6c00000000000000006064820152608490fd5b6000818152600260205260409020546001600160a01b03161561198f576000908152600460205260409020546001600160a01b031690565b60405162461bcd60e51b815260206004820152602c60248201527f4552433732313a20617070726f76656420717565727920666f72206e6f6e657860448201526b34b9ba32b73a103a37b5b2b760a11b6064820152608490fd5b156119f057565b60405162461bcd60e51b815260206004820152603160248201527f4552433732313a207472616e736665722063616c6c6572206973206e6f74206f6044820152701ddb995c881b9bdc88185c1c1c9bdd9959607a1b6064820152608490fd5b60405190611a5c82610e17565b60008252565b91611a89939161073f93611a796108378433611b02565b611a84838383611c9d565b611ff0565b565b60809060208152603260208201527f4552433732313a207472616e7366657220746f206e6f6e20455243373231526560408201527131b2b4bb32b91034b6b83632b6b2b73a32b960711b60608201520190565b15611ae557565b60405162461bcd60e51b815280611afe60048201611a8b565b0390fd5b6000828152600260205260409020546001600160a01b031615611b9357611b288261186d565b6001600160a01b038281168282168114949091908515611b7b575b5050508215611b5157505090565b6001600160a01b0316600090815260056020526040902060ff9250611b769190610516565b541690565b611b889192939550611957565b161491388080611b43565b60405162461bcd60e51b815260206004820152602c60248201527f4552433732313a206f70657261746f7220717565727920666f72206e6f6e657860448201526b34b9ba32b73a103a37b5b2b760a11b6064820152608490fd5b15611bf457565b60405162461bcd60e51b8152602060048201526024808201527f4552433732313a207472616e7366657220746f20746865207a65726f206164646044820152637265737360e01b6064820152608490fd5b50634e487b7160e01b600052601160045260246000fd5b600019810191908211611c6b57565b611a89611c45565b9060018201809211611c6b57565b9060028201809211611c6b57565b9060208201809211611c6b57565b90611ca78361186d565b6001600160a01b038381169290918216839003611d6e57611d01611d4592821694611cd3861515611bed565b611cde87848361206e565b611ce787611dc5565b6001600160a01b0316600090815260036020526040902090565b611d0b8154611c5c565b90556001600160a01b0381166000908152600360205260409020611d2f8154611c73565b90556106f5856000526002602052604060002090565b7fddf252ad1be2c89b69c2b068fc378daa952ba7f163c4a11628f55a4df523b3ef6000604051a4565b60405162461bcd60e51b815260206004820152602960248201527f4552433732313a207472616e73666572206f6620746f6b656e2074686174206960448201526839903737ba1037bbb760b91b6064820152608490fd5b600081815260046020526040812080546001600160a01b03191690556001600160a01b03611df28361186d565b167f8c5be1e5ebec7d5bd14f71427d1e84f3dd0314c0f7b2291e5b200ac8c7c3b92582604051a4565b600082815260046020526040902080546001600160a01b0319166001600160a01b0383161790556001600160a01b0380611e548461186d565b169116907f8c5be1e5ebec7d5bd14f71427d1e84f3dd0314c0f7b2291e5b200ac8c7c3b9256000604051a4565b9081602091031261000e575161031881610224565b610318939260809260018060a01b0316825260006020830152604082015281606082015201906102e2565b6001600160a01b039182168152911660208201526040810191909152608060608201819052610318929101906102e2565b506040513d6000823e3d90fd5b3d15611f2a573d90611f1082610e9a565b91611f1e6040519384610e78565b82523d6000602084013e565b606090565b909190803b15611fe857611f61602091600093604051948580948193630a85bd0160e11b998a84523360048501611e96565b03926001600160a01b03165af160009181611fb8575b50611faa57611f84611eff565b80519081611fa55760405162461bcd60e51b815280611afe60048201611a8b565b602001fd5b6001600160e01b0319161490565b611fda91925060203d8111611fe1575b611fd28183610e78565b810190611e81565b9038611f77565b503d611fc8565b505050600190565b92909190823b1561202357611f61926020926000604051809681958294630a85bd0160e11b9a8b85523360048601611ec1565b50505050600190565b50634e487b7160e01b600052603260045260246000fd5b9061204d816121cb565b6001600160a01b03821661206557611a899150612244565b611a8991612193565b9091906001600160a01b0380821691826120a8575061208c836121cb565b83168061209f575050611a899150612244565b03612065575050565b81851683036120b8575b5061208c565b61212c6120c4826117f5565b6000198101908111612186575b61211d60009387855260076020526040852054838103612133575b5084612102896000526007602052604060002090565b556001600160a01b0316600090815260066020526040902090565b90600052602052604060002090565b55386120b2565b87865260066020526040862084875260205261217f60408720548061216e8461211d8760018060a01b03166000526006602052604060002090565b556000526007602052604060002090565b55386120ec565b61218e611c45565b6120d1565b60409061219f816117f5565b9260009160018060a01b0316825260066020528282208483526020528083832055815260076020522055565b6008548160005260096020528060406000205568010000000000000000811015612237575b600181018060085581101561222a575b60086000527ff3f7a9fe364faab93b216da50a3214154f22a0a2b415b23a84c8169e8b636ee30155565b61223261202c565b612200565b61223f610e00565b6121f0565b60088054600019929083810181811161234d575b6122f460009384928184526009602052846040852054911015612340575b8684526122e37ff3f7a9fe364faab93b216da50a3214154f22a0a2b415b23a84c8169e8b636ee2958681015490831015612333575b88865280837ff3f7a9fe364faab93b216da50a3214154f22a0a2b415b23a84c8169e8b636ee301556000526009602052604060002090565b556000526009602052604060002090565b55825493841561231f5784019380851015612312575b838352015555565b61231a61202c565b61230a565b634e487b7160e01b83526031600452602483fd5b61233b61202c565b6122ab565b61234861202c565b612276565b612355611c45565b612258565b9081602091031261000e575161031881610cd5565b1561237657565b60405162461bcd60e51b81526020600482015260166024820152751b5d5cdd0818994818481cdd185ada5b99c81c1bdbdb60521b6044820152606490fd5b60019060001981146123c4570190565b6123cc611c45565b0190565b156123d757565b60405162461bcd60e51b815260206004820152601c60248201527f4552433732313a20746f6b656e20616c7265616479206d696e746564000000006044820152606490fd5b1561242357565b60405162461bcd60e51b81526020600482015260096024820152681b9bdd08195e1a5cdd60ba1b6044820152606490fd5b9081602091031261000e575190565b60208183031261000e5780519067ffffffffffffffff821161000e570181601f8201121561000e57805161249681610e9a565b926124a46040519485610e78565b8184526020828401011161000e5761031891602080850191016102bf565b906123cc602092828151948592016102bf565b6020908051156124e3570190565b6123cc61202c565b6040908051600110156124e3570190565b6060908051600210156124e3570190565b6080908051600310156124e3570190565b6040519061252b82610e40565b6007825266139bdd0814d95d60ca1b6020830152565b6040519061254e82610e40565b60018252600360fc1b6020830152565b9061256882610e9a565b6125756040519182610e78565b8281528092612586601f1991610e9a565b0190602036910137565b9060209180518210156125a257010190565b6125aa61202c565b010190565b801561264b576000818181805b61263357506125ca8161255e565b935b6125d65750505090565b6000198101908111612626575b8091600a9161261060308484068101809111612619575b60f81b6001600160f81b031916861a9187612590565b530490816125cc565b612621611c45565b6125fa565b61262e611c45565b6125e3565b9150612640600a916123b4565b9104808492916125bc565b50610318612541565b6001600160fe1b03811160011661266c575b60021b90565b612674611c45565b612666565b806000190460021181151516612690575b60011b90565b612698611c45565b61268a565b80156126ab575b6000190190565b6126b3611c45565b6126a4565b156126bf57565b606460405162461bcd60e51b815260206004820152602060248201527f537472696e67733a20686578206c656e67746820696e73756666696369656e746044820152fd5b6040519061271082610e5c565b602a825260403660208401376030612727836124d5565b5381516001908110156127a5575b90607860218401536029915b80831161275457506103189150156126b8565b9080600f61279192166010811015612798575b6f181899199a1a9b1b9c1cb0b131b232b360811b901a6127878587612590565b5360041c9261269d565b9190612741565b6127a061202c565b612767565b6127ad61202c565b612735565b604051906060820182811067ffffffffffffffff821117612823575b604052604082527f6768696a6b6c6d6e6f707172737475767778797a303132333435363738392b2f6040837f4142434445464748494a4b4c4d4e4f505152535455565758595a61626364656660208201520152565b61282b610e00565b6127ce565b8051156129105761283f6127b2565b61285b61285661284f8451611c81565b6003900490565b612654565b9161286d61286884611c8f565b61255e565b92835280815182019060208501935b8282106128be575050506003905106806001146128ad5760021461289e575090565b603d60f81b6000199091015290565b50613d3d60f01b6001199091015290565b9091936004906003809401938451600190603f9082828260121c16880101518553828282600c1c16880101518386015382828260061c168801015160028601531685010151908201530193919061287c565b50610318611a4f565b612922906129b5565b610318606760405180937f3c7376672077696474683d2234303022206865696768743d223430302220786d60208301527f6c6e733d22687474703a2f2f7777772e77332e6f72672f323030302f737667226040830152601f60f91b60608301526129968151809260206061860191016102bf565b8101651e17b9bb339f60d11b6061820152036047810184520182610e78565b6129e16129d56129d56129d5610f9f85600052600c602052604060002090565b6001600160a01b031690565b60405163378de45b60e01b81526004810183905260209190612a1a908381602481865afa908115615100575b6000916150e95750615256565b6040516333c7180560e11b815260048101859052612a4f908481602481875afa9081156150dc575b6000916150c55750615256565b91612a599061510d565b93612a639061186d565b612a6c9061510d565b6040519485948501613d5990610f7f907f3c646566733e3c7374796c653e40666f6e742d666163657b666f6e742d66616d81527f696c793a225065726d616e656e74204d61726b6572223b7372633a75726c286460208201527f6174613a6170706c69636174696f6e2f666f6e742d776f66663b63686172736560408201527f743d7574662d383b6261736536342c643039475267414241414141414172344160608201527f41304141414141442f674141514243414141414141414141414141414141414160808201527f414141414141414141425055793879414141424d41414141453841414142675960a08201527f624c6a59324e745958414141414741414141415767414141566f4d35414d705960c08201527f335a3049414141416477414141414341414141416741564141426d634764744160e08201527f4141423441414141506341414146686b6b48612b6d64736557594141414c59416101008201527f4141466f67414142395334327a5435614756685a4141414348774141414132416101208201527f4141414e6768495776746f614756684141414974414141414230414141416b426101408201527f483042674768746448674141416a554141414148414141414277505a2f2f36626101608201527f47396a595141414350414141414151414141414541555942304a7459586877416101808201527f41414a41414141414234414141416741685143475735686257554141416b67416101a08201527f414142757741414131525157384d396347397a644141414374774141414155416101c08201527f41414149502b3241447077636d56774141414b384141414141634141414148616101e08201527f41614d68586963593242684d6d6163774d444b774d433068366d4c67594768426102008201527f30497a336d55775a6752796d5268676f494742515632414151466350503243476102208201527f427759464269436d664c2b483261775a536c676441554b677a51784d425579666102408201527f514e534367774d4145373644464141654a786a594742675a6f426747515a47426102608201527f6841494166495977587757426773677a6358417763414568416f4d6267782b446102808201527f4d482f2f77504646426863676579672f2f2f2f502f792f392f2b322f357568656102a08201527f7147416b5932424947416b7249534267596b5a796d4142596c596954423038416102c08201527f4143366f6734534141414146514141654a78646b44314f7844415168574d53466102e08201527f6e49444a41764a493273705672626f715649346b564361734b48774e507849756103008201527f784c5a4f79436c6f584842576435324b584d78424e3445566b446a3858756a2b6103208201527f66526d6b4a67616565503351727a7a4944376634433733656672345943474d556103408201527f6d586e494a347354677a45696978536f79716b793272744e6175677775306d716103608201527f45713950472b514c616361473976413177704a36377634336e744377664c34336103808201527f544c665747514854445a68416b6641376875776d7742782f735069314e514b366103a08201527f56586a377a78364a3145346c6b5371784e68346a453453733858696d444857316103c08201527f2b3569546e746d7346685a6e4d2b4531714f515344694557576c434834494d636103e08201527f594d665066375667306a2b473856764931366748455466544a31656b7a77596d6104008201527f6a5446684f7773636c4f33766f77526965305835574272584142346e485656536104208201527f61386a3152583275664e55743062663876544b30334e562b2f48617a2f3047476104408201527f3770704e3639424345545343566b45435345577655445a52454c4a6868334c526104608201527f454c38672f794e38414e677953714c6941314c64694151456b703265546c56686104808201527f695775737374317a78322f345a78653731632b304e4e332f79582f494e2f302f6104a08201527f74377237546651624f6a2b514a73446c416536332b4366396e55664c712f43316104c08201527f58563963316e4272716d674442364b306e4e5a65394a346b454755596263506f6104e08201527f6c2f5266515853302b594d476c484c6574464644365138774c364e3062326e556105008201527f74524c4478743455636d4953456b70305a6f54515a564d736c796c73574c434c6105208201527f64626238665933627a79374173366f41694935413165584149516b363833567a6105408201527f57366b4970383631626363364e6b48443444704a4d30635a37796f3139734a6c6105608201527f397a4d72562f35624f6257752b3356616e67374d5437796c6c4d7156483778366105808201527f4d33374e6c6154337a3537593647436a4a76314f74564a6e4369774a4e536e716105a08201527f7a4a5a315532526c6245576357713170704a7951676a6c2f624852536d6f31726105c08201527f684b6c6b3451435930514b616f4e696d754469496b73746d4f43694d514c454f6105e08201527f4f57636a313661435349454f4a776d54523368336b6c6f7a6b7172434f65475a6106008201527f42304864392f642f5964385458376f6658626b414245764557554544653936316106208201527f7a59743671596c42793567763774753669657765774c484f4e3658752f304f6e6106408201527f303867374b34753235455654434649447a4855692b58433479627843674a62706106608201527f436a7864336f632b77686b4b64752b4f43516d54593052704b627256533858586106808201527f58653853314573692f616c483436686268766462707136586665386d6847616a6106a08201527f795a527a433033694c455377496a6767676f576138345664344977536f6742556106c08201527f32374c636a7451755a4b4f706b6e312f4846664f4847646d6b5279525a5756776106e08201527f73736f696c5431757a38384f3145524663673441505252423579776f676d546c6107008201527f36614e74674a3167774f41586769547079725467316b5331706c6c784252614d6107208201527f494b43415130746159617a45436578776e30357168673344506b6a374d76304d6107408201527f426d4d553430554b6359535a5950566e6e50417856415a796e486c554a7552636107608201527f4245784168735349536b514a70674b4850637a3437486b6b71684236564142496107808201527f4b50634367354d59617356773456684d5935482f715747424156756147544e796107a08201527f3472696a72707a53416b674b4861566b6377494b432b596f466d5a6e796a30416107c08201527f61466742496138586c3655796e66362b504875662b5172386d337672366750646107e08201527f4a63495a53306b75764d365842336c557445532f5661424b4444534245394b5a6108008201527f423266454d716a673745446b6f7a7538375438686549476659757a345179654c6108208201527f6a3339703245697a6e462f33756c79577159615a632f6c79644e585835314f626108408201527f73366e36464743414845384157654b4d795355747151532b634c4e4e4e5532306108608201527f6c706c777a44492f49414a495a326c7a696a516765664263594c2f65447161726108808201527f7563506e7058474b4b57494e6678394e52796b434972435336374f4e796b444d6108a08201527f315348763333793657746d66487052436359454569537869302b694f4d4c31596108c08201527f48537a667a67642f76373568772f74624c48304a4f316e744669565a6a416f5a6108e08201527f485639755a75645042374635344768414c68546f7944643666757630434a6b4f6109008201527f6f37526261526e3776364e2b653737337038364e424746712f714155423267626109208201527f6f486364594231466972374c616f5636534e7178615673456353626f4a46325a6109408201527f5a66474d466332527979524462456863674e7974794741516254584269616f666109608201527f43756c6b5a4a7a436844464c6e5a2b797166624234664e344f56637863726e736109808201527f6463454b47475033336c2b54354e7166724b63547065543264683651535565516109a08201527f526f546d644d5033336c68643238524b47414f4b684b724545466a71596877496109c08201527f4957336f396c30774d2f65572f4f7a50304b71776d6f357a36684e637a4639656109e08201527f767434544b776176485a377964506d424e305a5238766d586971307475726d64610a008201527f6e32534d7047464744656f4d632f6171686f7242734339642b42483832513050610a208201527f436c41774c334c455555474f5759786e594b4f72494e2f35644e354d2b617264610a408201527f48572f7179486d376966794f574c3663612b58483143516e5361764679693844610a608201527f724e664d50713558496877424c4d46736b4d6152596e68665673565a4a64556c610a808201527f746559305459457634423135554261426550377a5161576d37617948484d6839610aa08201527f6b5545304e52457238363366555632662f374c52302b5a6a7830345445574436610ac08201527f503637703761617a37773978584d514f5267574e42746c43717546594f673161610ae08201527f744a58336e37336e466d71792f45345568474b68684e6767496d4155794c382b610b008201527f73336252784d61656464366e32455247443073334341396532744a684a557866610b208201527f42486e4e736d5330656b77465a6861366b726d4c76514c613464396c5567726d610b408201527f414f74695a486f6571476c514f445377646869436f726e656255747a312b2f61610b608201527f5349736267673649537178594c476555496f7131384e52715667796d58737357610b808201527f7a453255345a396f7377717859694c4255366139763450786465725151414141610ba08201527f4145414141414241454a4178704157587738383951674c424141414141414179610bc08201527f54564b49414141414144564b387a582f2b7a2f31514c63417538414141414a41610be08201527f41494141414141414142346e474e675a4742674b6669336d30476561652f2f4e610c008201527f777767774d694143746742684777464141414141414637414141426577414141610c208201527f6f494143514a4e2f2b774376662f784170594143674a4f41416f414141414741610c408201527f4177417a674865416f51444c675071654a786a594752675947426e324d374178610c608201527f4141436a474353697748495a5577454d51455667774578414142346e4a56527a610c808201527f5772625142442b316e4653437133707261576e6f61656b7850727830546f4632610ca08201527f7748527842696e354b346f6979796953474b6c32506a534a38674c3543333644610cc08201527f44333049666f5966594a2b58692f426d4a52534c6276377a637733332b794d41610ce08201527f4c7a445479687376346837697858396b634d64764d495868772f7743584f4875610d008201527f2f694131754644764d576a773064346a796548652f694d37387853336465306c610d208201527f766a6c73494b6f6d634d643946547438414847367076445851547168384f482b610d408201527f4b682b4f337745722f50473452362b646f616a716c3662504675306370796579610d608201527f43414941376c5a79336c56746a4c4f5332314f4a5335545438364b5169797445610d808201527f614d62625a62363170747063352b556d737a4c784e78704d39665a5135475930610da08201527f4175434d42724830336e307a4e67532b6f36786e796a4f6636314e6b31656c57610dc08201527f49572f35433761746837362f6d7131387049365352666171307a6d46336d7179610de08201527f3059332f6b55386d6b79764a76324246324345436a58574d4d69525963463543610e008201527f343652346f5433414146436273454e47594a7a636b764c474a4e64516a50726c610e208201527f465a4d6e4d496a4f6b50424a5474716a6255303777313779664f577a4a6d3137610e408201527f7046596c61336d4a5332444f78755a38387a77514b324e4c325247594e385373610e608201527f584b4d4b65505243787137437630396a5839566c44332b746655323747505473610e808201527f2b793834662f71626d625163734a442b467772757a7847617536555555327249610ea08201527f69396a7447433131476f32646d492b4c746a7443424e32664d577a7a7a2f4356610ec08201527f2f7742334b696b477742346e474e675a6743442f35735a6a426b77415473414c610ee08201527f4c4142384c67422f345777424930412920666f726d61742822776f666622293b610f008201527f20666f6e742d7765696768743a6e6f726d616c3b666f6e742d7374796c653a6e610f208201527f6f726d616c3b7d3c2f7374796c653e3c2f646566733e3c636972636c65206378610f408201527f3d22323030222063793d223230302220723d22313730222066696c6c3d222300610f608201520190565b613d6390826124c2565b7f222f3e2c3c67207472616e73666f726d3d226d6174726978282e37303731303781527f202d2e3730373130363738202e3730373130363738202e37303731303720313660208201527f203135332922207374726f6b653d226e6f6e65222066696c6c2d72756c653d2260408201527f6e6f6e7a65726f223e3c7061746820643d224d3139362e32353132203233332e60608201527f35353563382e33303039203020392e383236332d362e3939313320382e31333760808201527f322d31322e32342d312e363335312d352e303931352d362e353338382d392e3260a08201527f3034312d31362e313435362d31332e343334322d31382e363531342d382e313860c08201527f36372d34342e393132342d31352e333733372d34342e393132342d31372e383860e08201527f31337331312e323539352d2e3636352032352e3935322d332e343635396331316101008201527f2e313530342d322e313334322031322e3230342d362e343433342031332e36326101208201527f31352d31332e3932343720312e363839312d382e383531362d342e303638392d6101408201527f31352e353439332d342e303638392d31352e3534393373392e383938382d332e6101608201527f3931373820392e383938382d31362e3039392d31312e343035372d31372e36346101808201527f35332d31312e343035372d31372e3634353320342e363636382d332e303734376101a08201527f20352e3836362d31302e3234323563312e343839342d382e383331392d342e346101c08201527f3836352d31362e363636322d31322e363034352d32322e353231392d362e38346101e08201527f36372d342e393335322d31352e353237392d392e333631342d32312e393734316102008201527f2d31322e303434362d352e353339332d322e333130322d392e363939342d332e6102208201527f3933362d32332e333031392d332e373630322d31302e393531372e313337322d6102408201527f31362e333038312d2e323135332d31372e3134342d332e393935312d2e3633356102608201527f362d322e3832303220312e363334372d352e3733383220332e3930342d31322e6102808201527f3832373520322e383135372d382e373333392031302e303434312d33312e32356102a08201527f362d332e303837342d35312e333530332d352e303438312d372e373135352d316102c08201527f382e313234352d372e3539382d32302e373735362d342e393134382d352e30346102e08201527f393720352e3131303820312e353235332031352e333333382d312e39382033336103008201527f2e3634352d322e343135312031322e363332312d352e333231342032312e32346103208201527f392d31372e323136342033302e393832342d362e3836363120352e363230372d6103408201527f32322e303835342031342e3936332d33332e383335362033302e363239372d346103608201527f2e3335383720352e373937392d31372e3934323820342e373030342d32352e356103808201527f33343820332e353635322d332e3033322d2e343530372d352e3838343120312e6103a08201527f373232372d362e3438333120342e393733392d362e303330312033322e3339326103c08201527f322d312e393433332036362e323533342e303930352037392e333136352e34396103e08201527f313120332e3137323620332e3134323320352e3432343520362e3132303820356104008201527f2e3138393520362e373733372d2e353038362031382e323532362d312e3239326104208201527f352032312e383131392d2e3836313120372e313733382e383631312032312e396104408201527f3338392031322e343535322034322e313639382031382e363233392031372e396104608201527f36313520352e343833382034332e353135352031302e353535392035342e39336104808201527f38372031312e323431337335392e383431312031342e353930332036372e39356104a08201527f38382031342e353930337a222066696c6c3d2223666663613238222f3e3c70616104c08201527f746820643d224d3133312e323135392037342e373836762e3331343163362e396104e08201527f3536362e303139322031332e3232313920372e303530322031322e39363737206105008201527f31342e353531322d2e333120382e373333362d31312e363233342031322e33316105208201527f38362d372e333138382032342e363735362e3837303620322e353235312031316105408201527f2e3435393720362e3639373620382e383631362031392e323531322d322e31326105608201527f34342031302e323832372d31302e3036313420392e353536322d31302e3036316105808201527f342031342e37303731203020382e3733353920392e343632342031342e3537306105a08201527f342031302e313334352032342e35313937732d342e303637372031312e3533346105c08201527f352d332e373432312031342e39383238632e3233363820322e3534363620312e6105e08201527f3237323920332e3436353220312e3237323920322e3139343120302d322e35306106008201527f38322031312e323539342d2e363636362032352e3935312d332e3436373520316106208201527f312e313531342d322e313334322031322e323034392d362e343433342031332e6106408201527f363232342d31332e3932353220312e363839312d382e383531312d342e3036396106608201527f352d31352e353438382d342e303639352d31352e3534383873392e383939352d6106808201527f332e3931383320392e383939352d31362e303937392d31312e343035372d31376106a08201527f2e363436392d31312e343035372d31372e3634363920342e363636372d332e306106c08201527f37343320352e383634372d31302e32343263312e343930362d382e383331392d6106e08201527f342e343835362d31362e363636322d31322e363033372d32322e353232312d366107008201527f2e383436392d342e393335312d31352e353237342d392e333631382d32312e396107208201527f3733372d31322e303432392d342e3633322d312e39342d382e333337362d332e6107408201527f333838342d31372e333939342d332e373032357a222066696c6c3d22236666626107608201527f333030222f3e3c7061746820643d224d3133352e33303232203135302e3933306107808201527f34632d2e313633362d342e313332382e3039312d352e3236383220322e3130376107a08201527f312d352e3831373373352e373032382e3939393820352e373032382e393939386107c08201527f6331342e383535332d312e333532342033302e3839323820322e3035353220336107e08201527f352e373430382031302e39323737203020302d32332e3630392d312e383630376108008201527f2d33322e343732332d312e333532332d362e393534392e343132322d31302e386108208201527f3738312e343839322d31312e303738342d342e373537397a6d34322e303433336108408201527f2d32372e36313435632d31342e353130342d352e343634372d33312e343733376108608201527f2d362e343433322d33362e3438362d362e343433322d372e3131393320302d356108808201527f2e373536382d31312e363732372d322e373234342d31332e3836353820322e306108a08201527f3838392d2e3932303320342e3535383120322e3331303620362e3530313520336108c08201527f2e3037343820352e3737353920322e323930382033302e3138343120332e37346108e08201527f30372033322e373038392031372e323334327a6d2e39323633203130392e35396109008201527f3339632d32362e363432332d352e303931342d36322e3134382d31352e3139376109208201527f382d39302e333334382d31392e313134362d32302e373339332d322e3837382d6109408201527f33322e333435322d31312e353334362d34312e303830312d31362e3339322d346109608201527f2e393232332d322e373431372d382e383038392d342e393134372d31322e37316109808201527f332d352e393732322d31302e333334342d322e383230352d31382e323839312d6109a08201527f312e323334372d32342e373335362d312e34383973372e373534322d31302e306109c08201527f3237352032362e343937322d362e3035323363342e3735382e3939393820392e6109e08201527f3133353320332e373430392031342e3235363820362e3539393920382e383236610a008201527f3220342e393136312031392e363134332031322e3234312033392e3331393320610a208201527f31352e373036342031312e3034313720312e393539312032372e383034382033610a408201527f2e393536362034332e3535303520382e323235312031322e3432323720332e33610a608201527f352034362e393635332031352e323137382035382e393837342031362e383035610a808201527f3120362e313537342e383232372031312e3538372d2e393830352031312e3630610aa08201527f362d2e39383035203020302d312e3033363120322e363634312d352e32333039610ac08201527f20342e303134392d342e3436373920312e34352d392e373136372e363436372d610ae08201527f32302e313232382d312e333530387a6d2d36322e303735332d3135382e333031610b008201527f632d332e373737312e353837352d31312e3938362d322e303535322d382e3537610b208201527f32342d31302e39343720352e383132322d31352e3131393420362e323834332d610b408201527f32302e3334373220362e303437362d33352e353435372d2e313831322d31302e610b608201527f383839342d332e333035322d31382e323332322d352e363437342d32322e3637610b808201527f3831203020302031382e383531362031332e3730393420392e33313632203536610ba08201527f2e353430342d312e3339383220362e323237362d312e3134342031322e363330610bc08201527f342d312e3134342031322e363330347a6d36312e30353836203130392e313434610be08201527f31732d342e3238353420322e383339332d31302e3036313420352e3031343263610c008201527f2d352e3739333420322e313732372d31352e3431393520332e393935312d3139610c208201527f2e32333320342e30313433732d382e3335352d342e333238342d352e30383437610c408201527f2d352e3935343263332e323531312d312e363034342033342e333739312d332e610c608201527f303734332033342e333739312d332e303734337a222066696c6c3d2223656461610c80820152691b181811179f1e17b39f60b11b610ca0820152610caa017f3c706f6c79676f6e20706f696e74733d223230302c3335392038302c3232302081527f39382c313935203230302c323536222066696c6c3d22230000000000000000006020820152603701614d28916124c2565b6211179f60e91b81526003017f3c706f6c79676f6e20706f696e74733d223230302c3335392039382c3231352081527f3230302c323736222066696c6c3d222338633863386322202f3e0000000000006020820152603a017f3c706f6c79676f6e20706f696e74733d223230302c333539203330322c32313581527f203230302c323736222066696c6c3d222333633363336222202f3e00000000006020820152603b017f3c7465787420666f6e742d73697a653d223132322220783d22352220793d223281527f34302220666f6e742d66616d696c793d225065726d616e656e74204d61726b6560208201527f722220206f7061636974793d222e34222066696c6c3d222300000000000000006040820152605801614e4890826124c2565b6d111f232922a7299e17ba32bc3a1f60911b8152600e017f3c7465787420666f6e742d73697a653d223132322220783d22352220793d223281527f34302220666f6e742d66616d696c793d225065726d616e656e74204d61726b6560208201527f72222066696c6c3d226e6f6e652220207374726f6b652d77696474683d223222604082015269207374726f6b653d222360b01b6060820152606a01614eed916124c2565b7f223e4652454e533c2f746578743e3c7465787420666f6e742d73697a653d223581527f302220746578742d616e63686f723d226d6964646c652220783d22323030222060208201527f793d22313335222066696c6c3d222346463639423422207374726f6b653d222360408201527f3030454446352220666f6e742d7765696768743d22426f6c642220666f6e742d60608201527f66616d696c793d2253616e732d536572696622206f7061636974793d222e38226080820152601f60f91b60a082015260a101614fbe916124c2565b630408ae8d60e31b8152600401661e17ba32bc3a1f60c91b81526007017f3c7465787420666f6e742d73697a653d2232352220746578742d616e63686f7281527f3d226d6964646c652220783d223230302220793d22333030222066696c6c3d2260208201527f2346463639423422207374726f6b653d22233030454446352220666f6e742d7760408201527f65696768743d22426f6c642220666f6e742d66616d696c793d2253616e732d5360608201526632b934b311101f60c91b608082015260870161508c916124c2565b6d2045746820436c61696d61626c6560901b8152600e01661e17ba32bc3a1f60c91b815260070103601f19810182526103189082610e78565b6116079150853d871161160d576115ff8183610e78565b6150e4611ef2565b612a42565b6116079150843d861161160d576115ff8183610e78565b615108611ef2565b612a0d565b60405160208101916bffffffffffffffffffffffff199060601b1682526014815261513781610e40565b51902060ff60e81b8160021a60e81b169060ff60f01b8160011a60f01b169060ff60f81b9060001a60f81b1617179060405161517281610e40565b600681526020368183013760005b6003811061518d57509150565b6151ff90600f85821a8181169160109182841015615211575b6f181899199a1a9b1b9c1cb0b131b232b360811b9384901a6151d86151d26151cd88612679565b611c73565b89612590565b5360041c1690811015615204575b1a6151f96151f383612679565b85612590565b536123b4565b615180565b61520c61202c565b6151e6565b61521961202c565b6151a6565b90611a8960216040518094600360fc1b602083015261524681518092602086860191016102bf565b8101036001810185520183610e78565b655af3107a4000670de0b6b3a764000061527181840461548e565b9206049061527e8261548e565b916103e88110615313575b606481106152ff575b600a116152e7575b60216103189160405193816152b98693518092602080870191016102bf565b8201601760f91b60208201526152d882518093602087850191016102bf565b01036001810184520182610e78565b9060216152f66103189261521e565b9291505061529a565b9161530b600a9161521e565b929050615292565b9161531d9061521e565b91615289565b90602090818382031261000e57825167ffffffffffffffff9384821161000e570181601f8201121561000e5780519384116153ad575b8360051b906040519461536e85840187610e78565b8552838086019282010192831161000e578301905b828210615391575050505090565b815163ffffffff8116810361000e578152908301908301615383565b6153b5610e00565b615359565b604051634ad02ef160e01b815291906000906001600160a01b039082908590600490829085165afa938415615481575b8294615465575b50600e541681604051809263053e834960e01b825260206004830152818061541c602482018a6102e2565b03915afa918215615458575b8092615435575b50509190565b61545192503d8091833e6154498183610e78565b810190615323565b388061542f565b615460611ef2565b615428565b61547a9194503d8084833e6115cb8183610e78565b92386153f1565b615489611ef2565b6153ea565b801561264b578060008281935b61553d5750816154aa8461255e565b93905b6154b75750505090565b6154c090611c5c565b918261550e600a92838104938460001904811185151516615530575b84028103908111615523575b60ff809116603001908111615516575b60f81b6001600160f81b031916841a9186612590565b5391826154ad565b61551e611c45565b6154f8565b61552b611c45565b6154e8565b615538611c45565b6154dc565b92615549600a916123b4565b93048061549b56fea2646970667358221220f9569a509a1f018881e899b3228bbf83751757bd896d33cae2b178d20ac9adfc64736f6c63430008100033",
          "opcodes": "PUSH1 0x80 CALLVALUE PUSH3 0x3CC JUMPI PUSH1 0x1 PUSH1 0x1 PUSH1 0x40 SHL SUB SWAP1 PUSH1 0x1F NOT SWAP1 PUSH1 0x1F SWAP1 PUSH3 0x598E CODESIZE DUP2 SWAP1 SUB DUP4 DUP2 ADD DUP6 AND DUP4 ADD SWAP2 SWAP1 DUP7 DUP4 GT DUP5 DUP5 LT OR PUSH3 0x3B6 JUMPI DUP1 DUP5 SWAP3 PUSH1 0x40 SWAP5 DUP6 MSTORE DUP4 CODECOPY DUP2 ADD SUB SLT PUSH3 0x3CC JUMPI PUSH3 0x52 DUP2 PUSH3 0x3F1 JUMP JUMPDEST SWAP4 PUSH3 0x62 PUSH1 0x20 DUP1 SWAP4 ADD PUSH3 0x3F1 JUMP JUMPDEST SWAP3 PUSH3 0x6D PUSH3 0x3D1 JUMP JUMPDEST SWAP3 PUSH1 0x12 DUP5 MSTORE PUSH18 0x7374616B696E6720636F6E20616D69676F73 PUSH1 0x70 SHL DUP2 DUP6 ADD MSTORE PUSH3 0x96 PUSH3 0x3D1 JUMP JUMPDEST SWAP1 PUSH1 0x5 DUP3 MSTORE PUSH5 0x4652454E53 PUSH1 0xD8 SHL DUP2 DUP4 ADD MSTORE DUP5 MLOAD SWAP7 DUP5 DUP9 GT PUSH3 0x3B6 JUMPI PUSH1 0x0 SWAP8 DUP9 SLOAD SWAP7 PUSH1 0x1 SWAP8 DUP9 DUP2 DUP2 SHR SWAP2 AND DUP1 ISZERO PUSH3 0x3AB JUMPI JUMPDEST DUP6 DUP3 LT EQ PUSH3 0x397 JUMPI SWAP1 DUP2 DUP8 DUP5 SWAP4 GT PUSH3 0x344 JUMPI JUMPDEST POP DUP5 SWAP1 DUP8 DUP4 GT PUSH1 0x1 EQ PUSH3 0x2E3 JUMPI DUP12 SWAP3 PUSH3 0x2D7 JUMPI JUMPDEST POP POP PUSH1 0x0 NOT PUSH1 0x3 DUP4 SWAP1 SHL SHR NOT AND SWAP1 DUP8 SHL OR DUP9 SSTORE JUMPDEST DUP3 MLOAD SWAP5 DUP6 GT PUSH3 0x2C3 JUMPI DUP6 SLOAD DUP7 DUP2 DUP2 SHR SWAP2 AND DUP1 ISZERO PUSH3 0x2B8 JUMPI JUMPDEST DUP4 DUP3 LT EQ PUSH3 0x2A4 JUMPI SWAP1 DUP2 DUP6 DUP8 SWAP7 SWAP6 SWAP5 SWAP4 GT PUSH3 0x24B JUMPI JUMPDEST POP DUP2 SWAP4 DUP6 GT PUSH1 0x1 EQ PUSH3 0x1E6 JUMPI POP POP DUP7 SWAP3 PUSH3 0x1DA JUMPI JUMPDEST POP POP PUSH1 0x0 NOT PUSH1 0x3 DUP4 SWAP1 SHL SHR NOT AND SWAP1 DUP3 SHL OR SWAP1 SSTORE JUMPDEST PUSH1 0xA DUP1 SLOAD PUSH1 0x1 PUSH1 0x1 PUSH1 0xA0 SHL SUB NOT DUP1 DUP3 AND CALLER SWAP1 DUP2 OR SWAP1 SWAP4 SSTORE PUSH1 0x40 MLOAD SWAP6 SWAP1 SWAP5 PUSH1 0x1 PUSH1 0x1 PUSH1 0xA0 SHL SUB SWAP5 SWAP4 DUP6 SWAP4 SWAP1 SWAP2 SWAP1 DUP5 AND SWAP1 PUSH32 0x8BE0079C531659141344CD1FD0A4F28419497F9722A3DAAFE3B4186F6B6457E0 SWAP1 DUP10 LOG3 AND DUP4 PUSH1 0xD SLOAD AND OR PUSH1 0xD SSTORE AND SWAP1 PUSH1 0xE SLOAD AND OR PUSH1 0xE SSTORE PUSH2 0x5587 SWAP1 DUP2 PUSH3 0x407 DUP3 CODECOPY RETURN JUMPDEST ADD MLOAD SWAP1 POP CODESIZE DUP1 PUSH3 0x152 JUMP JUMPDEST DUP7 SWAP6 SWAP4 SWAP3 SWAP2 SWAP4 AND DUP6 DUP10 MSTORE DUP4 DUP10 KECCAK256 SWAP4 DUP10 SWAP1 JUMPDEST DUP3 DUP3 LT PUSH3 0x231 JUMPI POP POP DUP5 GT PUSH3 0x217 JUMPI JUMPDEST POP POP POP DUP2 SHL ADD SWAP1 SSTORE PUSH3 0x166 JUMP JUMPDEST ADD MLOAD PUSH1 0x0 NOT PUSH1 0xF8 DUP5 PUSH1 0x3 SHL AND SHR NOT AND SWAP1 SSTORE CODESIZE DUP1 DUP1 PUSH3 0x209 JUMP JUMPDEST DUP5 DUP5 ADD MLOAD DUP7 SSTORE DUP9 SWAP8 SWAP1 SWAP6 ADD SWAP5 SWAP4 DUP5 ADD SWAP4 SWAP1 DUP2 ADD SWAP1 PUSH3 0x1F7 JUMP JUMPDEST SWAP1 SWAP2 SWAP3 SWAP4 SWAP5 POP DUP7 DUP10 MSTORE DUP3 DUP10 KECCAK256 DUP6 DUP1 DUP9 ADD PUSH1 0x5 SHR DUP3 ADD SWAP3 DUP6 DUP10 LT PUSH3 0x29A JUMPI JUMPDEST SWAP2 DUP9 SWAP8 DUP11 SWAP3 SWAP8 SWAP7 SWAP6 SWAP5 SWAP4 ADD PUSH1 0x5 SHR ADD SWAP2 JUMPDEST DUP3 DUP2 LT PUSH3 0x28B JUMPI POP POP PUSH3 0x13B JUMP JUMPDEST DUP12 DUP2 SSTORE DUP9 SWAP8 POP DUP10 SWAP2 ADD PUSH3 0x27B JUMP JUMPDEST SWAP3 POP DUP2 SWAP3 PUSH3 0x26A JUMP JUMPDEST PUSH4 0x4E487B71 PUSH1 0xE0 SHL DUP10 MSTORE PUSH1 0x22 PUSH1 0x4 MSTORE PUSH1 0x24 DUP10 REVERT JUMPDEST SWAP1 PUSH1 0x7F AND SWAP1 PUSH3 0x123 JUMP JUMPDEST PUSH4 0x4E487B71 PUSH1 0xE0 SHL DUP9 MSTORE PUSH1 0x41 PUSH1 0x4 MSTORE PUSH1 0x24 DUP9 REVERT JUMPDEST ADD MLOAD SWAP1 POP CODESIZE DUP1 PUSH3 0xF5 JUMP JUMPDEST SWAP1 DUP5 DUP11 SWAP5 AND SWAP2 DUP13 DUP1 MSTORE DUP7 DUP14 KECCAK256 SWAP3 DUP14 JUMPDEST DUP9 DUP3 DUP3 LT PUSH3 0x32D JUMPI POP POP DUP5 GT PUSH3 0x313 JUMPI JUMPDEST POP POP POP DUP2 SHL ADD DUP9 SSTORE PUSH3 0x109 JUMP JUMPDEST ADD MLOAD PUSH1 0x0 NOT PUSH1 0xF8 DUP5 PUSH1 0x3 SHL AND SHR NOT AND SWAP1 SSTORE CODESIZE DUP1 DUP1 PUSH3 0x305 JUMP JUMPDEST DUP4 DUP6 ADD MLOAD DUP7 SSTORE DUP14 SWAP8 SWAP1 SWAP6 ADD SWAP5 SWAP4 DUP5 ADD SWAP4 ADD PUSH3 0x2F2 JUMP JUMPDEST SWAP1 SWAP2 POP DUP11 DUP1 MSTORE DUP5 DUP12 KECCAK256 DUP8 DUP1 DUP6 ADD PUSH1 0x5 SHR DUP3 ADD SWAP3 DUP8 DUP7 LT PUSH3 0x38D JUMPI JUMPDEST SWAP2 DUP12 SWAP2 DUP7 SWAP6 SWAP5 SWAP4 ADD PUSH1 0x5 SHR ADD SWAP2 JUMPDEST DUP3 DUP2 LT PUSH3 0x37E JUMPI POP POP PUSH3 0xDF JUMP JUMPDEST DUP14 DUP2 SSTORE DUP6 SWAP5 POP DUP12 SWAP2 ADD PUSH3 0x36E JUMP JUMPDEST SWAP3 POP DUP2 SWAP3 PUSH3 0x360 JUMP JUMPDEST PUSH4 0x4E487B71 PUSH1 0xE0 SHL DUP12 MSTORE PUSH1 0x22 PUSH1 0x4 MSTORE PUSH1 0x24 DUP12 REVERT JUMPDEST SWAP1 PUSH1 0x7F AND SWAP1 PUSH3 0xCA JUMP JUMPDEST PUSH4 0x4E487B71 PUSH1 0xE0 SHL PUSH1 0x0 MSTORE PUSH1 0x41 PUSH1 0x4 MSTORE PUSH1 0x24 PUSH1 0x0 REVERT JUMPDEST PUSH1 0x0 DUP1 REVERT JUMPDEST PUSH1 0x40 DUP1 MLOAD SWAP2 SWAP1 DUP3 ADD PUSH1 0x1 PUSH1 0x1 PUSH1 0x40 SHL SUB DUP2 GT DUP4 DUP3 LT OR PUSH3 0x3B6 JUMPI PUSH1 0x40 MSTORE JUMP JUMPDEST MLOAD SWAP1 PUSH1 0x1 PUSH1 0x1 PUSH1 0xA0 SHL SUB DUP3 AND DUP3 SUB PUSH3 0x3CC JUMPI JUMP INVALID PUSH1 0x80 PUSH1 0x40 MSTORE PUSH1 0x4 CALLDATASIZE LT ISZERO PUSH2 0x13 JUMPI JUMPDEST PUSH1 0x0 DUP1 REVERT JUMPDEST PUSH1 0x0 CALLDATALOAD PUSH1 0xE0 SHR DUP1 PUSH4 0x1FFC9A7 EQ PUSH2 0x21B JUMPI DUP1 PUSH4 0x6FDDE03 EQ PUSH2 0x212 JUMPI DUP1 PUSH4 0x81812FC EQ PUSH2 0x209 JUMPI DUP1 PUSH4 0x95EA7B3 EQ PUSH2 0x200 JUMPI DUP1 PUSH4 0xBC59B38 EQ PUSH2 0x1F7 JUMPI DUP1 PUSH4 0xD4D1513 EQ PUSH2 0x1EE JUMPI DUP1 PUSH4 0x18160DDD EQ PUSH2 0x1E5 JUMPI DUP1 PUSH4 0x23B872DD EQ PUSH2 0x1DC JUMPI DUP1 PUSH4 0x2F745C59 EQ PUSH2 0x1D3 JUMPI DUP1 PUSH4 0x42842E0E EQ PUSH2 0x1CA JUMPI DUP1 PUSH4 0x4F3130FA EQ PUSH2 0x1C1 JUMPI DUP1 PUSH4 0x4F558E79 EQ PUSH2 0x1B8 JUMPI DUP1 PUSH4 0x4F6CCCE7 EQ PUSH2 0x1AF JUMPI DUP1 PUSH4 0x6352211E EQ PUSH2 0x1A6 JUMPI DUP1 PUSH4 0x70A08231 EQ PUSH2 0x19D JUMPI DUP1 PUSH4 0x715018A6 EQ PUSH2 0x194 JUMPI DUP1 PUSH4 0x8DA5CB5B EQ PUSH2 0x18B JUMPI DUP1 PUSH4 0x95D89B41 EQ PUSH2 0x182 JUMPI DUP1 PUSH4 0xA090F9B4 EQ PUSH2 0x179 JUMPI DUP1 PUSH4 0xA22CB465 EQ PUSH2 0x170 JUMPI DUP1 PUSH4 0xA2D6C6DA EQ PUSH2 0x167 JUMPI DUP1 PUSH4 0xB88D4FDE EQ PUSH2 0x15E JUMPI DUP1 PUSH4 0xC87B56DD EQ PUSH2 0x155 JUMPI DUP1 PUSH4 0xE985E9C5 EQ PUSH2 0x14C JUMPI DUP1 PUSH4 0xEDD148A2 EQ PUSH2 0x143 JUMPI PUSH4 0xF2FDE38B EQ PUSH2 0x13B JUMPI PUSH1 0x0 DUP1 REVERT JUMPDEST PUSH2 0xE PUSH2 0x16C3 JUMP JUMPDEST POP PUSH2 0xE PUSH2 0x16A3 JUMP JUMPDEST POP PUSH2 0xE PUSH2 0x1645 JUMP JUMPDEST POP PUSH2 0xE PUSH2 0xF4F JUMP JUMPDEST POP PUSH2 0xE PUSH2 0xEC5 JUMP JUMPDEST POP PUSH2 0xE PUSH2 0xDCC JUMP JUMPDEST POP PUSH2 0xE PUSH2 0xCDF JUMP JUMPDEST POP PUSH2 0xE PUSH2 0xC5F JUMP JUMPDEST POP PUSH2 0xE PUSH2 0xB9D JUMP JUMPDEST POP PUSH2 0xE PUSH2 0xB73 JUMP JUMPDEST POP PUSH2 0xE PUSH2 0xB0E JUMP JUMPDEST POP PUSH2 0xE PUSH2 0xAE2 JUMP JUMPDEST POP PUSH2 0xE PUSH2 0xAC3 JUMP JUMPDEST POP PUSH2 0xE PUSH2 0xA17 JUMP JUMPDEST POP PUSH2 0xE PUSH2 0x9DB JUMP JUMPDEST POP PUSH2 0xE PUSH2 0x93D JUMP JUMPDEST POP PUSH2 0xE PUSH2 0x8F5 JUMP JUMPDEST POP PUSH2 0xE PUSH2 0x841 JUMP JUMPDEST POP PUSH2 0xE PUSH2 0x817 JUMP JUMPDEST POP PUSH2 0xE PUSH2 0x7C3 JUMP JUMPDEST POP PUSH2 0xE PUSH2 0x5BE JUMP JUMPDEST POP PUSH2 0xE PUSH2 0x589 JUMP JUMPDEST POP PUSH2 0xE PUSH2 0x499 JUMP JUMPDEST POP PUSH2 0xE PUSH2 0x426 JUMP JUMPDEST POP PUSH2 0xE PUSH2 0x31B JUMP JUMPDEST POP PUSH2 0xE PUSH2 0x236 JUMP JUMPDEST PUSH1 0x1 PUSH1 0x1 PUSH1 0xE0 SHL SUB NOT DUP2 AND SUB PUSH2 0xE JUMPI JUMP JUMPDEST POP CALLVALUE PUSH2 0xE JUMPI PUSH1 0x20 CALLDATASIZE PUSH1 0x3 NOT ADD SLT PUSH2 0xE JUMPI PUSH1 0x20 PUSH1 0x4 CALLDATALOAD PUSH2 0x256 DUP2 PUSH2 0x224 JUMP JUMPDEST PUSH4 0xFFFFFFFF PUSH1 0xE0 SHL AND PUSH4 0x780E9D63 PUSH1 0xE0 SHL DUP2 EQ SWAP1 DUP2 ISZERO PUSH2 0x27C JUMPI JUMPDEST POP PUSH1 0x40 MLOAD SWAP1 ISZERO ISZERO DUP2 MSTORE RETURN JUMPDEST PUSH4 0x80AC58CD PUSH1 0xE0 SHL DUP2 EQ SWAP2 POP DUP2 ISZERO PUSH2 0x2AE JUMPI JUMPDEST DUP2 ISZERO PUSH2 0x29D JUMPI JUMPDEST POP CODESIZE PUSH2 0x271 JUMP JUMPDEST PUSH4 0x1FFC9A7 PUSH1 0xE0 SHL EQ SWAP1 POP CODESIZE PUSH2 0x296 JUMP JUMPDEST PUSH4 0x5B5E139F PUSH1 0xE0 SHL DUP2 EQ SWAP2 POP PUSH2 0x28F JUMP JUMPDEST PUSH1 0x0 JUMPDEST DUP4 DUP2 LT PUSH2 0x2D2 JUMPI POP POP PUSH1 0x0 SWAP2 ADD MSTORE JUMP JUMPDEST DUP2 DUP2 ADD MLOAD DUP4 DUP3 ADD MSTORE PUSH1 0x20 ADD PUSH2 0x2C2 JUMP JUMPDEST SWAP1 PUSH1 0x20 SWAP2 PUSH2 0x2FB DUP2 MLOAD DUP1 SWAP3 DUP2 DUP6 MSTORE DUP6 DUP1 DUP7 ADD SWAP2 ADD PUSH2 0x2BF JUMP JUMPDEST PUSH1 0x1F ADD PUSH1 0x1F NOT AND ADD ADD SWAP1 JUMP JUMPDEST SWAP1 PUSH1 0x20 PUSH2 0x318 SWAP3 DUP2 DUP2 MSTORE ADD SWAP1 PUSH2 0x2E2 JUMP JUMPDEST SWAP1 JUMP JUMPDEST POP CALLVALUE PUSH2 0xE JUMPI PUSH1 0x0 DUP1 PUSH1 0x3 NOT CALLDATASIZE ADD SLT PUSH2 0x423 JUMPI PUSH1 0x40 MLOAD SWAP1 DUP1 DUP1 SLOAD SWAP1 PUSH1 0x1 SWAP2 DUP1 DUP4 SHR SWAP3 DUP1 DUP3 AND SWAP3 DUP4 ISZERO PUSH2 0x419 JUMPI JUMPDEST PUSH1 0x20 SWAP3 DUP4 DUP7 LT DUP6 EQ PUSH2 0x405 JUMPI DUP6 DUP9 MSTORE PUSH1 0x20 DUP9 ADD SWAP5 SWAP1 DUP2 ISZERO PUSH2 0x3E4 JUMPI POP PUSH1 0x1 EQ PUSH2 0x38C JUMPI JUMPDEST PUSH2 0x388 DUP8 PUSH2 0x37C DUP2 DUP10 SUB DUP3 PUSH2 0xE78 JUMP JUMPDEST PUSH1 0x40 MLOAD SWAP2 DUP3 SWAP2 DUP3 PUSH2 0x307 JUMP JUMPDEST SUB SWAP1 RETURN JUMPDEST PUSH1 0x0 DUP1 MSTORE SWAP5 POP SWAP2 SWAP3 SWAP2 PUSH32 0x290DECD9548B62A8D60345A988386FC84BA6BC95484008F6362F93160EF3E563 JUMPDEST DUP4 DUP7 LT PUSH2 0x3D3 JUMPI POP POP POP SWAP2 ADD SWAP1 POP PUSH2 0x37C DUP3 PUSH2 0x388 CODESIZE DUP1 PUSH2 0x36C JUMP JUMPDEST DUP1 SLOAD DUP6 DUP8 ADD MSTORE SWAP5 DUP3 ADD SWAP5 DUP2 ADD PUSH2 0x3B7 JUMP JUMPDEST PUSH1 0xFF NOT AND DUP6 MSTORE POP POP POP POP SWAP1 ISZERO ISZERO PUSH1 0x5 SHL ADD SWAP1 POP PUSH2 0x37C DUP3 PUSH2 0x388 CODESIZE DUP1 PUSH2 0x36C JUMP JUMPDEST PUSH4 0x4E487B71 PUSH1 0xE0 SHL DUP3 MSTORE PUSH1 0x22 PUSH1 0x4 MSTORE PUSH1 0x24 DUP3 REVERT JUMPDEST SWAP4 PUSH1 0x7F AND SWAP4 PUSH2 0x348 JUMP JUMPDEST DUP1 REVERT JUMPDEST POP CALLVALUE PUSH2 0xE JUMPI PUSH1 0x20 CALLDATASIZE PUSH1 0x3 NOT ADD SLT PUSH2 0xE JUMPI PUSH1 0x20 PUSH2 0x445 PUSH1 0x4 CALLDATALOAD PUSH2 0x1957 JUMP JUMPDEST PUSH1 0x40 MLOAD PUSH1 0x1 PUSH1 0x1 PUSH1 0xA0 SHL SUB SWAP1 SWAP2 AND DUP2 MSTORE RETURN JUMPDEST PUSH1 0x4 CALLDATALOAD SWAP1 PUSH1 0x1 PUSH1 0x1 PUSH1 0xA0 SHL SUB DUP3 AND DUP3 SUB PUSH2 0xE JUMPI JUMP JUMPDEST PUSH1 0x44 CALLDATALOAD SWAP1 PUSH1 0x1 PUSH1 0x1 PUSH1 0xA0 SHL SUB DUP3 AND DUP3 SUB PUSH2 0xE JUMPI JUMP JUMPDEST PUSH1 0x24 CALLDATALOAD SWAP1 PUSH1 0x1 PUSH1 0x1 PUSH1 0xA0 SHL SUB DUP3 AND DUP3 SUB PUSH2 0xE JUMPI JUMP JUMPDEST POP CALLVALUE PUSH2 0xE JUMPI PUSH1 0x40 CALLDATASIZE PUSH1 0x3 NOT ADD SLT PUSH2 0xE JUMPI PUSH2 0x4B3 PUSH2 0x457 JUMP JUMPDEST PUSH1 0x24 CALLDATALOAD PUSH2 0x4BF DUP2 PUSH2 0x186D JUMP JUMPDEST SWAP2 PUSH1 0x1 PUSH1 0x1 PUSH1 0xA0 SHL SUB DUP1 DUP5 AND SWAP1 DUP3 AND DUP2 EQ PUSH2 0x53A JUMPI PUSH2 0x4F1 SWAP4 PUSH2 0x4EC SWAP2 CALLER EQ SWAP1 DUP2 ISZERO PUSH2 0x4F3 JUMPI JUMPDEST POP PUSH2 0x18E5 JUMP JUMPDEST PUSH2 0x1E1B JUMP JUMPDEST STOP JUMPDEST PUSH1 0x1 PUSH1 0x1 PUSH1 0xA0 SHL SUB AND PUSH1 0x0 SWAP1 DUP2 MSTORE PUSH1 0x5 PUSH1 0x20 MSTORE PUSH1 0x40 SWAP1 KECCAK256 PUSH2 0x534 SWAP2 POP PUSH2 0x52D SWAP1 CALLER SWAP1 JUMPDEST SWAP1 PUSH1 0x1 DUP1 PUSH1 0xA0 SHL SUB AND PUSH1 0x0 MSTORE PUSH1 0x20 MSTORE PUSH1 0x40 PUSH1 0x0 KECCAK256 SWAP1 JUMP JUMPDEST SLOAD PUSH1 0xFF AND SWAP1 JUMP JUMPDEST CODESIZE PUSH2 0x4E6 JUMP JUMPDEST PUSH1 0x40 MLOAD PUSH3 0x461BCD PUSH1 0xE5 SHL DUP2 MSTORE PUSH1 0x20 PUSH1 0x4 DUP3 ADD MSTORE PUSH1 0x21 PUSH1 0x24 DUP3 ADD MSTORE PUSH32 0x4552433732313A20617070726F76616C20746F2063757272656E74206F776E65 PUSH1 0x44 DUP3 ADD MSTORE PUSH1 0x39 PUSH1 0xF9 SHL PUSH1 0x64 DUP3 ADD MSTORE PUSH1 0x84 SWAP1 REVERT JUMPDEST POP CALLVALUE PUSH2 0xE JUMPI PUSH1 0x20 CALLDATASIZE PUSH1 0x3 NOT ADD SLT PUSH2 0xE JUMPI PUSH1 0x4 CALLDATALOAD PUSH1 0x0 MSTORE PUSH1 0xC PUSH1 0x20 MSTORE PUSH1 0x20 PUSH1 0x1 DUP1 PUSH1 0xA0 SHL SUB PUSH1 0x40 PUSH1 0x0 KECCAK256 SLOAD AND PUSH1 0x40 MLOAD SWAP1 DUP2 MSTORE RETURN JUMPDEST POP CALLVALUE PUSH2 0xE JUMPI PUSH1 0x60 CALLDATASIZE PUSH1 0x3 NOT ADD SLT PUSH2 0xE JUMPI PUSH2 0x5D8 PUSH2 0x457 JUMP JUMPDEST PUSH1 0x24 CALLDATALOAD SWAP1 PUSH2 0x5E4 PUSH2 0x46D JUMP JUMPDEST SWAP2 PUSH1 0x1 DUP1 PUSH1 0xA0 SHL SUB SWAP2 DUP3 PUSH1 0xD SLOAD AND PUSH2 0x65A PUSH1 0x40 SWAP6 PUSH2 0x62F DUP8 MLOAD DUP1 SWAP5 PUSH4 0x3B7A17C5 PUSH1 0xE1 SHL DUP3 MSTORE CALLER PUSH1 0x4 DUP4 ADD MSTORE DUP2 PUSH1 0x24 PUSH1 0x20 SWAP8 DUP9 SWAP4 GAS STATICCALL SWAP1 DUP2 ISZERO PUSH2 0x7B6 JUMPI JUMPDEST PUSH1 0x0 SWAP2 PUSH2 0x789 JUMPI JUMPDEST POP PUSH2 0x236F JUMP JUMPDEST PUSH1 0x0 DUP6 DUP2 MSTORE PUSH1 0xC DUP5 MSTORE DUP8 SWAP1 KECCAK256 DUP1 SLOAD PUSH1 0x1 PUSH1 0x1 PUSH1 0xA0 SHL SUB NOT AND PUSH1 0x1 PUSH1 0x1 PUSH1 0xA0 SHL SUB SWAP1 SWAP3 AND SWAP2 SWAP1 SWAP2 OR SWAP1 SSTORE JUMP JUMPDEST DUP5 MLOAD SWAP4 PUSH2 0x666 DUP6 PUSH2 0xE17 JUMP JUMPDEST PUSH1 0x0 DUP6 MSTORE DUP3 AND SWAP1 DUP2 ISZERO PUSH2 0x747 JUMPI PUSH1 0x0 DUP7 PUSH2 0x744 PUSH2 0x73F DUP9 DUP9 DUP9 DUP2 DUP10 PUSH2 0x6AF PUSH2 0x6AA PUSH2 0x6A6 DUP5 PUSH1 0x0 MSTORE PUSH1 0x2 PUSH1 0x20 MSTORE PUSH1 0x1 DUP1 PUSH1 0xA0 SHL SUB PUSH1 0x40 PUSH1 0x0 KECCAK256 SLOAD AND ISZERO ISZERO SWAP1 JUMP JUMPDEST ISZERO SWAP1 JUMP JUMPDEST PUSH2 0x23D0 JUMP JUMPDEST PUSH2 0x6B9 DUP3 DUP5 PUSH2 0x2043 JUMP JUMPDEST PUSH1 0x1 PUSH1 0x1 PUSH1 0xA0 SHL SUB DUP4 AND PUSH1 0x0 SWAP1 DUP2 MSTORE PUSH1 0x3 PUSH1 0x20 MSTORE PUSH1 0x40 SWAP1 KECCAK256 PUSH2 0x6DB DUP2 SLOAD PUSH2 0x1C73 JUMP JUMPDEST SWAP1 SSTORE PUSH2 0x714 DUP4 PUSH2 0x6F5 DUP5 PUSH1 0x0 MSTORE PUSH1 0x2 PUSH1 0x20 MSTORE PUSH1 0x40 PUSH1 0x0 KECCAK256 SWAP1 JUMP JUMPDEST DUP1 SLOAD PUSH1 0x1 PUSH1 0x1 PUSH1 0xA0 SHL SUB NOT AND PUSH1 0x1 PUSH1 0x1 PUSH1 0xA0 SHL SUB SWAP1 SWAP3 AND SWAP2 SWAP1 SWAP2 OR SWAP1 SSTORE JUMP JUMPDEST DUP9 PUSH32 0xDDF252AD1BE2C89B69C2B068FC378DAA952BA7F163C4A11628F55A4DF523B3EF DUP2 DUP11 MLOAD LOG4 PUSH2 0x1F2F JUMP JUMPDEST PUSH2 0x1ADE JUMP JUMPDEST MLOAD RETURN JUMPDEST PUSH1 0x64 SWAP1 DUP7 MLOAD SWAP1 PUSH3 0x461BCD PUSH1 0xE5 SHL DUP3 MSTORE DUP1 PUSH1 0x4 DUP4 ADD MSTORE PUSH1 0x24 DUP3 ADD MSTORE PUSH32 0x4552433732313A206D696E7420746F20746865207A65726F2061646472657373 PUSH1 0x44 DUP3 ADD MSTORE REVERT JUMPDEST PUSH2 0x7A9 SWAP2 POP DUP6 RETURNDATASIZE DUP8 GT PUSH2 0x7AF JUMPI JUMPDEST PUSH2 0x7A1 DUP2 DUP4 PUSH2 0xE78 JUMP JUMPDEST DUP2 ADD SWAP1 PUSH2 0x235A JUMP JUMPDEST CODESIZE PUSH2 0x629 JUMP JUMPDEST POP RETURNDATASIZE PUSH2 0x797 JUMP JUMPDEST PUSH2 0x7BE PUSH2 0x1EF2 JUMP JUMPDEST PUSH2 0x621 JUMP JUMPDEST POP CALLVALUE PUSH2 0xE JUMPI PUSH1 0x0 CALLDATASIZE PUSH1 0x3 NOT ADD SLT PUSH2 0xE JUMPI PUSH1 0x20 PUSH1 0x8 SLOAD PUSH1 0x40 MLOAD SWAP1 DUP2 MSTORE RETURN JUMPDEST PUSH1 0x60 SWAP1 PUSH1 0x3 NOT ADD SLT PUSH2 0xE JUMPI PUSH1 0x1 PUSH1 0x1 PUSH1 0xA0 SHL SUB SWAP1 PUSH1 0x4 CALLDATALOAD DUP3 DUP2 AND DUP2 SUB PUSH2 0xE JUMPI SWAP2 PUSH1 0x24 CALLDATALOAD SWAP1 DUP2 AND DUP2 SUB PUSH2 0xE JUMPI SWAP1 PUSH1 0x44 CALLDATALOAD SWAP1 JUMP JUMPDEST POP CALLVALUE PUSH2 0xE JUMPI PUSH2 0x4F1 PUSH2 0x829 CALLDATASIZE PUSH2 0x7E2 JUMP JUMPDEST SWAP2 PUSH2 0x83C PUSH2 0x837 DUP5 CALLER PUSH2 0x1B02 JUMP JUMPDEST PUSH2 0x19E9 JUMP JUMPDEST PUSH2 0x1C9D JUMP JUMPDEST POP CALLVALUE PUSH2 0xE JUMPI PUSH1 0x40 CALLDATASIZE PUSH1 0x3 NOT ADD SLT PUSH2 0xE JUMPI PUSH2 0x85B PUSH2 0x457 JUMP JUMPDEST PUSH1 0x24 CALLDATALOAD SWAP1 PUSH2 0x868 DUP2 PUSH2 0x17F5 JUMP JUMPDEST DUP3 LT ISZERO PUSH2 0x89C JUMPI PUSH1 0x1 PUSH1 0x1 PUSH1 0xA0 SHL SUB AND PUSH1 0x0 SWAP1 DUP2 MSTORE PUSH1 0x6 PUSH1 0x20 SWAP1 DUP2 MSTORE PUSH1 0x40 DUP1 DUP4 KECCAK256 SWAP4 DUP4 MSTORE SWAP3 DUP2 MSTORE SWAP1 DUP3 SWAP1 KECCAK256 SLOAD SWAP2 MLOAD SWAP2 DUP3 MSTORE SWAP1 RETURN JUMPDEST PUSH1 0x40 MLOAD PUSH3 0x461BCD PUSH1 0xE5 SHL DUP2 MSTORE PUSH1 0x20 PUSH1 0x4 DUP3 ADD MSTORE PUSH1 0x2B PUSH1 0x24 DUP3 ADD MSTORE PUSH32 0x455243373231456E756D657261626C653A206F776E657220696E646578206F75 PUSH1 0x44 DUP3 ADD MSTORE PUSH11 0x74206F6620626F756E6473 PUSH1 0xA8 SHL PUSH1 0x64 DUP3 ADD MSTORE PUSH1 0x84 SWAP1 REVERT JUMPDEST POP CALLVALUE PUSH2 0xE JUMPI PUSH2 0x4F1 PUSH2 0x907 CALLDATASIZE PUSH2 0x7E2 JUMP JUMPDEST SWAP1 PUSH1 0x40 MLOAD SWAP3 PUSH1 0x20 DUP5 ADD DUP5 DUP2 LT PUSH8 0xFFFFFFFFFFFFFFFF DUP3 GT OR PUSH2 0x930 JUMPI JUMPDEST PUSH1 0x40 MSTORE PUSH1 0x0 DUP5 MSTORE PUSH2 0x1A62 JUMP JUMPDEST PUSH2 0x938 PUSH2 0xE00 JUMP JUMPDEST PUSH2 0x924 JUMP JUMPDEST POP CALLVALUE PUSH2 0xE JUMPI PUSH1 0x0 CALLDATASIZE PUSH1 0x3 NOT ADD SLT PUSH2 0xE JUMPI PUSH1 0xD SLOAD PUSH1 0x40 MLOAD PUSH4 0x3B7A17C5 PUSH1 0xE1 SHL DUP2 MSTORE CALLER PUSH1 0x4 DUP3 ADD MSTORE PUSH2 0x993 SWAP2 PUSH1 0x20 SWAP1 DUP3 SWAP1 PUSH1 0x24 SWAP1 DUP3 SWAP1 PUSH1 0x1 PUSH1 0x1 PUSH1 0xA0 SHL SUB AND GAS STATICCALL SWAP1 DUP2 ISZERO PUSH2 0x9CE JUMPI JUMPDEST PUSH1 0x0 SWAP2 PUSH2 0x9B6 JUMPI POP PUSH2 0x236F JUMP JUMPDEST PUSH2 0x388 PUSH2 0x9A1 PUSH1 0xB SLOAD PUSH2 0x23B4 JUMP JUMPDEST DUP1 PUSH1 0xB SSTORE PUSH1 0x40 MLOAD SWAP2 DUP3 SWAP2 DUP3 SWAP2 SWAP1 PUSH1 0x20 DUP4 ADD SWAP3 MSTORE JUMP JUMPDEST PUSH2 0x7A9 SWAP2 POP PUSH1 0x20 RETURNDATASIZE DUP2 GT PUSH2 0x7AF JUMPI PUSH2 0x7A1 DUP2 DUP4 PUSH2 0xE78 JUMP JUMPDEST PUSH2 0x9D6 PUSH2 0x1EF2 JUMP JUMPDEST PUSH2 0x986 JUMP JUMPDEST POP CALLVALUE PUSH2 0xE JUMPI PUSH1 0x20 CALLDATASIZE PUSH1 0x3 NOT ADD SLT PUSH2 0xE JUMPI PUSH1 0x4 CALLDATALOAD PUSH1 0x0 SWAP1 DUP2 MSTORE PUSH1 0x2 PUSH1 0x20 SWAP1 DUP2 MSTORE PUSH1 0x40 SWAP1 SWAP2 KECCAK256 SLOAD PUSH1 0x1 PUSH1 0x1 PUSH1 0xA0 SHL SUB AND ISZERO ISZERO PUSH1 0x40 MLOAD SWAP1 ISZERO ISZERO DUP2 MSTORE RETURN JUMPDEST POP CALLVALUE PUSH2 0xE JUMPI PUSH1 0x20 CALLDATASIZE PUSH1 0x3 NOT ADD SLT PUSH2 0xE JUMPI PUSH1 0x4 CALLDATALOAD PUSH1 0x8 SLOAD DUP2 LT ISZERO PUSH2 0xA69 JUMPI PUSH1 0x8 PUSH1 0x0 MSTORE PUSH32 0xF3F7A9FE364FAAB93B216DA50A3214154F22A0A2B415B23A84C8169E8B636EE3 ADD SLOAD PUSH1 0x40 MLOAD SWAP1 DUP2 MSTORE PUSH1 0x20 SWAP1 RETURN JUMPDEST PUSH1 0x40 MLOAD PUSH3 0x461BCD PUSH1 0xE5 SHL DUP2 MSTORE PUSH1 0x20 PUSH1 0x4 DUP3 ADD MSTORE PUSH1 0x2C PUSH1 0x24 DUP3 ADD MSTORE PUSH32 0x455243373231456E756D657261626C653A20676C6F62616C20696E646578206F PUSH1 0x44 DUP3 ADD MSTORE PUSH12 0x7574206F6620626F756E6473 PUSH1 0xA0 SHL PUSH1 0x64 DUP3 ADD MSTORE PUSH1 0x84 SWAP1 REVERT JUMPDEST POP CALLVALUE PUSH2 0xE JUMPI PUSH1 0x20 CALLDATASIZE PUSH1 0x3 NOT ADD SLT PUSH2 0xE JUMPI PUSH1 0x20 PUSH2 0x445 PUSH1 0x4 CALLDATALOAD PUSH2 0x186D JUMP JUMPDEST POP CALLVALUE PUSH2 0xE JUMPI PUSH1 0x20 CALLDATASIZE PUSH1 0x3 NOT ADD SLT PUSH2 0xE JUMPI PUSH1 0x20 PUSH2 0xB06 PUSH2 0xB01 PUSH2 0x457 JUMP JUMPDEST PUSH2 0x17F5 JUMP JUMPDEST PUSH1 0x40 MLOAD SWAP1 DUP2 MSTORE RETURN JUMPDEST POP CALLVALUE PUSH2 0xE JUMPI PUSH1 0x0 DUP1 PUSH1 0x3 NOT CALLDATASIZE ADD SLT PUSH2 0x423 JUMPI PUSH1 0xA SLOAD PUSH1 0x1 PUSH1 0x1 PUSH1 0xA0 SHL SUB DUP2 AND SWAP1 PUSH2 0xB3A CALLER DUP4 EQ PUSH2 0x175A JUMP JUMPDEST PUSH1 0x1 PUSH1 0x1 PUSH1 0xA0 SHL SUB NOT AND PUSH1 0xA SSTORE PUSH1 0x40 MLOAD SWAP1 DUP3 SWAP1 PUSH32 0x8BE0079C531659141344CD1FD0A4F28419497F9722A3DAAFE3B4186F6B6457E0 DUP3 DUP5 LOG3 RETURN JUMPDEST POP CALLVALUE PUSH2 0xE JUMPI PUSH1 0x0 CALLDATASIZE PUSH1 0x3 NOT ADD SLT PUSH2 0xE JUMPI PUSH1 0xA SLOAD PUSH1 0x40 MLOAD PUSH1 0x1 PUSH1 0x1 PUSH1 0xA0 SHL SUB SWAP1 SWAP2 AND DUP2 MSTORE PUSH1 0x20 SWAP1 RETURN JUMPDEST POP CALLVALUE PUSH2 0xE JUMPI PUSH1 0x0 DUP1 PUSH1 0x3 NOT CALLDATASIZE ADD SLT PUSH2 0x423 JUMPI PUSH1 0x40 MLOAD SWAP1 DUP1 PUSH1 0x1 SWAP1 DUP2 SLOAD DUP1 DUP4 SHR SWAP3 DUP1 DUP3 AND SWAP3 DUP4 ISZERO PUSH2 0xC55 JUMPI JUMPDEST PUSH1 0x20 SWAP3 DUP4 DUP7 LT DUP6 EQ PUSH2 0x405 JUMPI DUP6 DUP9 MSTORE PUSH1 0x20 DUP9 ADD SWAP5 SWAP1 DUP2 ISZERO PUSH2 0x3E4 JUMPI POP PUSH1 0x1 EQ PUSH2 0xBFC JUMPI PUSH2 0x388 DUP8 PUSH2 0x37C DUP2 DUP10 SUB DUP3 PUSH2 0xE78 JUMP JUMPDEST PUSH1 0x1 PUSH1 0x0 MSTORE SWAP5 POP SWAP2 SWAP3 SWAP2 PUSH32 0xB10E2D527612073B26EECDFD717E6A320CF44B4AFAC2B0732D9FCBE2B7FA0CF6 JUMPDEST DUP4 DUP7 LT PUSH2 0xC44 JUMPI POP POP POP SWAP2 ADD SWAP1 POP PUSH2 0x37C DUP3 PUSH2 0x388 CODESIZE DUP1 PUSH2 0x36C JUMP JUMPDEST DUP1 SLOAD DUP6 DUP8 ADD MSTORE SWAP5 DUP3 ADD SWAP5 DUP2 ADD PUSH2 0xC28 JUMP JUMPDEST SWAP4 PUSH1 0x7F AND SWAP4 PUSH2 0xBC9 JUMP JUMPDEST POP CALLVALUE PUSH2 0xE JUMPI PUSH1 0x20 DUP1 PUSH1 0x3 NOT CALLDATASIZE ADD SLT PUSH2 0xE JUMPI PUSH2 0xC82 PUSH2 0xC7D PUSH2 0x457 JUMP JUMPDEST PUSH2 0x53BA JUMP JUMPDEST PUSH1 0x40 SWAP3 SWAP2 SWAP3 MLOAD SWAP2 PUSH1 0x40 DUP4 ADD PUSH1 0x40 DUP5 MSTORE DUP5 MLOAD DUP1 SWAP2 MSTORE DUP2 PUSH1 0x60 DUP6 ADD SWAP6 ADD SWAP1 PUSH1 0x0 JUMPDEST DUP2 DUP2 LT PUSH2 0xCBB JUMPI DUP6 DUP8 SUB DUP5 DUP8 ADD MSTORE DUP6 DUP1 PUSH2 0x388 DUP10 DUP9 PUSH2 0x2E2 JUMP JUMPDEST DUP3 MLOAD PUSH4 0xFFFFFFFF AND DUP8 MSTORE SWAP6 DUP4 ADD SWAP6 SWAP2 DUP4 ADD SWAP2 PUSH1 0x1 ADD PUSH2 0xCA1 JUMP JUMPDEST DUP1 ISZERO ISZERO SUB PUSH2 0xE JUMPI JUMP JUMPDEST POP CALLVALUE PUSH2 0xE JUMPI PUSH1 0x40 CALLDATASIZE PUSH1 0x3 NOT ADD SLT PUSH2 0xE JUMPI PUSH2 0xCF9 PUSH2 0x457 JUMP JUMPDEST PUSH1 0x24 CALLDATALOAD PUSH2 0xD05 DUP2 PUSH2 0xCD5 JUMP JUMPDEST PUSH1 0x1 PUSH1 0x1 PUSH1 0xA0 SHL SUB DUP3 AND SWAP2 CALLER DUP4 EQ PUSH2 0xD87 JUMPI DUP2 PUSH2 0xD44 PUSH2 0xD55 SWAP3 CALLER PUSH1 0x0 MSTORE PUSH1 0x5 PUSH1 0x20 MSTORE PUSH1 0x40 PUSH1 0x0 KECCAK256 SWAP1 PUSH1 0x1 DUP1 PUSH1 0xA0 SHL SUB AND PUSH1 0x0 MSTORE PUSH1 0x20 MSTORE PUSH1 0x40 PUSH1 0x0 KECCAK256 SWAP1 JUMP JUMPDEST SWAP1 PUSH1 0xFF DUP1 NOT DUP4 SLOAD AND SWAP2 ISZERO ISZERO AND OR SWAP1 SSTORE JUMP JUMPDEST PUSH1 0x40 MLOAD SWAP1 ISZERO ISZERO DUP2 MSTORE CALLER SWAP1 PUSH32 0x17307EAB39AB6107E8899845AD3D59BD9653F200F220920489CA2B5937696C31 SWAP1 PUSH1 0x20 SWAP1 LOG3 STOP JUMPDEST PUSH1 0x40 MLOAD PUSH3 0x461BCD PUSH1 0xE5 SHL DUP2 MSTORE PUSH1 0x20 PUSH1 0x4 DUP3 ADD MSTORE PUSH1 0x19 PUSH1 0x24 DUP3 ADD MSTORE PUSH32 0x4552433732313A20617070726F766520746F2063616C6C657200000000000000 PUSH1 0x44 DUP3 ADD MSTORE PUSH1 0x64 SWAP1 REVERT JUMPDEST POP CALLVALUE PUSH2 0xE JUMPI PUSH1 0x20 CALLDATASIZE PUSH1 0x3 NOT ADD SLT PUSH2 0xE JUMPI PUSH2 0x388 PUSH2 0xDEC PUSH1 0x4 CALLDATALOAD PUSH2 0x29B5 JUMP JUMPDEST PUSH1 0x40 MLOAD SWAP2 DUP3 SWAP2 PUSH1 0x20 DUP4 MSTORE PUSH1 0x20 DUP4 ADD SWAP1 PUSH2 0x2E2 JUMP JUMPDEST POP PUSH4 0x4E487B71 PUSH1 0xE0 SHL PUSH1 0x0 MSTORE PUSH1 0x41 PUSH1 0x4 MSTORE PUSH1 0x24 PUSH1 0x0 REVERT JUMPDEST PUSH1 0x20 DUP2 ADD SWAP1 DUP2 LT PUSH8 0xFFFFFFFFFFFFFFFF DUP3 GT OR PUSH2 0xE33 JUMPI PUSH1 0x40 MSTORE JUMP JUMPDEST PUSH2 0xE3B PUSH2 0xE00 JUMP JUMPDEST PUSH1 0x40 MSTORE JUMP JUMPDEST PUSH1 0x40 DUP2 ADD SWAP1 DUP2 LT PUSH8 0xFFFFFFFFFFFFFFFF DUP3 GT OR PUSH2 0xE33 JUMPI PUSH1 0x40 MSTORE JUMP JUMPDEST PUSH1 0x60 DUP2 ADD SWAP1 DUP2 LT PUSH8 0xFFFFFFFFFFFFFFFF DUP3 GT OR PUSH2 0xE33 JUMPI PUSH1 0x40 MSTORE JUMP JUMPDEST SWAP1 PUSH1 0x1F DUP1 NOT SWAP2 ADD AND DUP2 ADD SWAP1 DUP2 LT PUSH8 0xFFFFFFFFFFFFFFFF DUP3 GT OR PUSH2 0xE33 JUMPI PUSH1 0x40 MSTORE JUMP JUMPDEST PUSH1 0x20 SWAP1 PUSH8 0xFFFFFFFFFFFFFFFF DUP2 GT PUSH2 0xEB8 JUMPI JUMPDEST PUSH1 0x1F ADD PUSH1 0x1F NOT AND ADD SWAP1 JUMP JUMPDEST PUSH2 0xEC0 PUSH2 0xE00 JUMP JUMPDEST PUSH2 0xEAD JUMP JUMPDEST POP CALLVALUE PUSH2 0xE JUMPI PUSH1 0x80 CALLDATASIZE PUSH1 0x3 NOT ADD SLT PUSH2 0xE JUMPI PUSH2 0xEDF PUSH2 0x457 JUMP JUMPDEST PUSH2 0xEE7 PUSH2 0x483 JUMP JUMPDEST PUSH1 0x64 CALLDATALOAD SWAP2 PUSH8 0xFFFFFFFFFFFFFFFF DUP4 GT PUSH2 0xE JUMPI CALLDATASIZE PUSH1 0x23 DUP5 ADD SLT ISZERO PUSH2 0xE JUMPI DUP3 PUSH1 0x4 ADD CALLDATALOAD SWAP2 PUSH2 0xF14 DUP4 PUSH2 0xE9A JUMP JUMPDEST SWAP3 PUSH2 0xF22 PUSH1 0x40 MLOAD SWAP5 DUP6 PUSH2 0xE78 JUMP JUMPDEST DUP1 DUP5 MSTORE CALLDATASIZE PUSH1 0x24 DUP3 DUP8 ADD ADD GT PUSH2 0xE JUMPI PUSH1 0x20 DUP2 PUSH1 0x0 SWAP3 PUSH1 0x24 PUSH2 0x4F1 SWAP9 ADD DUP4 DUP9 ADD CALLDATACOPY DUP6 ADD ADD MSTORE PUSH1 0x44 CALLDATALOAD SWAP2 PUSH2 0x1A62 JUMP JUMPDEST POP CALLVALUE PUSH2 0xE JUMPI PUSH1 0x20 DUP1 PUSH1 0x3 NOT CALLDATASIZE ADD SLT PUSH2 0xE JUMPI PUSH1 0x4 CALLDATALOAD PUSH1 0x0 DUP2 DUP2 MSTORE PUSH1 0x2 PUSH1 0x20 MSTORE PUSH1 0x40 SWAP1 KECCAK256 SLOAD PUSH2 0xF88 SWAP1 PUSH1 0x1 PUSH1 0x1 PUSH1 0xA0 SHL SUB AND ISZERO ISZERO PUSH2 0x241C JUMP JUMPDEST PUSH2 0xFAC PUSH2 0xF9F DUP3 PUSH1 0x0 MSTORE PUSH1 0xC PUSH1 0x20 MSTORE PUSH1 0x40 PUSH1 0x0 KECCAK256 SWAP1 JUMP JUMPDEST SLOAD PUSH1 0x1 PUSH1 0x1 PUSH1 0xA0 SHL SUB AND SWAP1 JUMP JUMPDEST PUSH1 0x40 DUP1 MLOAD PUSH4 0x378DE45B PUSH1 0xE0 SHL DUP2 MSTORE PUSH1 0x4 DUP1 DUP3 ADD DUP6 SWAP1 MSTORE SWAP2 SWAP4 DUP6 SWAP2 DUP6 SWAP1 PUSH1 0x1 PUSH1 0x1 PUSH1 0xA0 SHL SUB DUP7 AND SWAP1 PUSH2 0xFF5 SWAP1 DUP6 DUP2 PUSH1 0x24 DUP2 DUP7 GAS STATICCALL SWAP1 DUP2 ISZERO PUSH2 0x1638 JUMPI JUMPDEST PUSH1 0x0 SWAP2 PUSH2 0x1621 JUMPI JUMPDEST POP PUSH2 0x5256 JUMP JUMPDEST PUSH2 0x1032 DUP4 MLOAD PUSH4 0x33C71805 PUSH1 0xE1 SHL DUP2 MSTORE DUP7 DUP2 DUP1 PUSH2 0x1018 DUP10 DUP13 DUP4 ADD SWAP2 SWAP1 PUSH1 0x20 DUP4 ADD SWAP3 MSTORE JUMP JUMPDEST SUB DUP2 DUP8 GAS STATICCALL SWAP1 DUP2 ISZERO PUSH2 0x1614 JUMPI JUMPDEST PUSH1 0x0 SWAP2 PUSH2 0x15E7 JUMPI POP PUSH2 0x5256 JUMP JUMPDEST SWAP7 PUSH1 0x0 PUSH2 0x1047 PUSH2 0x1041 DUP6 PUSH2 0x2703 JUMP JUMPDEST SWAP3 PUSH2 0x53BA JUMP JUMPDEST POP SWAP4 DUP6 MLOAD SWAP9 DUP10 DUP1 SWAP3 PUSH4 0x1865C57D PUSH1 0xE0 SHL DUP3 MSTORE GAS STATICCALL SWAP7 DUP8 ISZERO PUSH2 0x15DA JUMPI JUMPDEST PUSH1 0x0 SWAP8 PUSH2 0x15B7 JUMPI JUMPDEST POP PUSH2 0x1075 DUP6 PUSH2 0x25AF JUMP JUMPDEST SWAP7 DUP5 MLOAD DUP1 SWAP9 DUP9 DUP3 ADD PUSH2 0x109F SWAP1 PUSH1 0x11 SWAP1 PUSH17 0x6672656E20706F6F6C2073686172652023 PUSH1 0x78 SHL DUP2 MSTORE ADD SWAP1 JUMP JUMPDEST PUSH2 0x10A8 SWAP2 PUSH2 0x24C2 JUMP JUMPDEST SUB SWAP9 PUSH1 0x1F NOT SWAP10 DUP11 DUP2 ADD DUP11 MSTORE PUSH2 0x10BD SWAP1 DUP11 PUSH2 0xE78 JUMP JUMPDEST DUP6 MLOAD SWAP4 DUP5 DUP10 DUP2 ADD PUSH2 0x10F2 SWAP1 PUSH1 0x1B SWAP1 PUSH32 0x74686973206672656E206861732061206465706F736974206F66200000000000 DUP2 MSTORE ADD SWAP1 JUMP JUMPDEST PUSH2 0x10FC SWAP1 DUP4 PUSH2 0x24C2 JUMP JUMPDEST PUSH13 0x1022BA341034B7103837B7B61 PUSH1 0x9D SHL DUP2 MSTORE PUSH1 0xD ADD PUSH2 0x111C SWAP1 DUP7 PUSH2 0x24C2 JUMP JUMPDEST PUSH32 0x207769746820636C61696D61626C652062616C616E6365206F66200000000000 DUP2 MSTORE PUSH1 0x1B ADD PUSH2 0x114C SWAP1 DUP5 PUSH2 0x24C2 JUMP JUMPDEST PUSH4 0x408AE8D PUSH1 0xE3 SHL DUP2 MSTORE PUSH1 0x4 ADD SUB DUP12 DUP2 ADD DUP7 MSTORE PUSH2 0x1169 SWAP1 DUP7 PUSH2 0xE78 JUMP JUMPDEST PUSH2 0x1172 DUP9 PUSH2 0x2919 JUMP JUMPDEST PUSH2 0x117B SWAP1 PUSH2 0x2830 JUMP JUMPDEST SWAP8 PUSH2 0x1185 SWAP1 PUSH2 0x25AF JUMP JUMPDEST SWAP4 DUP7 MLOAD ISZERO PUSH1 0x0 EQ PUSH2 0x159F JUMPI PUSH2 0x1198 PUSH2 0x251E JUMP JUMPDEST SWAP5 JUMPDEST DUP8 MLOAD PUSH2 0x1587 JUMPI PUSH2 0x11A8 PUSH2 0x251E JUMP JUMPDEST SWAP7 JUMPDEST DUP9 MLOAD PUSH2 0x156F JUMPI PUSH2 0x11B8 PUSH2 0x251E JUMP JUMPDEST SWAP9 JUMPDEST DUP1 MLOAD PUSH2 0x153F JUMPI POP PUSH2 0x11C9 PUSH2 0x251E JUMP JUMPDEST SWAP10 JUMPDEST MLOAD PUSH9 0x3D913730B6B2911D11 PUSH1 0xB9 SHL SWAP13 DUP2 ADD SWAP13 DUP14 MSTORE SWAP13 DUP14 SWAP13 PUSH1 0x9 ADD PUSH2 0x11EE SWAP2 PUSH2 0x24C2 JUMP JUMPDEST PUSH18 0x111610113232B9B1B934B83A34B7B7111D11 PUSH1 0x71 SHL DUP2 MSTORE PUSH1 0x12 ADD PUSH2 0x1212 SWAP2 PUSH2 0x24C2 JUMP JUMPDEST PUSH32 0x222C202265787465726E616C5F75726C223A2268747470733A2F2F6672656E73 DUP2 MSTORE PUSH11 0x2E66756E2F746F6B656E2F PUSH1 0xA8 SHL PUSH1 0x20 DUP3 ADD MSTORE PUSH1 0x2B ADD PUSH2 0x1255 SWAP2 PUSH2 0x24C2 JUMP JUMPDEST PUSH32 0x222C202261747472696275746573223A205B7B2274726169745F74797065223A DUP2 MSTORE PUSH18 0x10113837B7B6111610113B30B63AB2911D11 PUSH1 0x71 SHL PUSH1 0x20 DUP3 ADD MSTORE PUSH1 0x32 ADD PUSH2 0x129F SWAP2 PUSH2 0x24C2 JUMP JUMPDEST PUSH32 0x227D2C7B2274726169745F74797065223A20226465706F736974222C20227661 DUP2 MSTORE PUSH7 0x363AB2911D1011 PUSH1 0xC9 SHL PUSH1 0x20 DUP3 ADD MSTORE PUSH1 0x27 ADD PUSH2 0x12DE SWAP2 PUSH2 0x24C2 JUMP JUMPDEST PUSH4 0x408AE8D PUSH1 0xE3 SHL DUP2 MSTORE PUSH1 0x4 ADD PUSH32 0x227D2C7B2274726169745F74797065223A2022636C61696D61626C65222C2022 DUP2 MSTORE PUSH9 0x3B30B63AB2911D1011 PUSH1 0xB9 SHL PUSH1 0x20 DUP3 ADD MSTORE PUSH1 0x29 ADD PUSH2 0x132C SWAP2 PUSH2 0x24C2 JUMP JUMPDEST PUSH4 0x408AE8D PUSH1 0xE3 SHL DUP2 MSTORE PUSH1 0x4 ADD PUSH32 0x227D2C7B2274726169745F74797065223A2022706F6F6C207374617465222C20 DUP2 MSTORE PUSH10 0x113B30B63AB2911D1011 PUSH1 0xB1 SHL PUSH1 0x20 DUP3 ADD MSTORE PUSH1 0x2A ADD PUSH2 0x137B SWAP2 PUSH2 0x24C2 JUMP JUMPDEST PUSH32 0x227D2C7B2274726169745F74797065223A20226F70657261746F7231222C2022 DUP2 MSTORE PUSH9 0x3B30B63AB2911D1011 PUSH1 0xB9 SHL PUSH1 0x20 DUP3 ADD MSTORE PUSH1 0x29 ADD PUSH2 0x13BC SWAP2 PUSH2 0x24C2 JUMP JUMPDEST PUSH32 0x227D2C7B2274726169745F74797065223A20226F70657261746F7232222C2022 DUP2 MSTORE PUSH9 0x3B30B63AB2911D1011 PUSH1 0xB9 SHL PUSH1 0x20 DUP3 ADD MSTORE PUSH1 0x29 ADD PUSH2 0x13FD SWAP2 PUSH2 0x24C2 JUMP JUMPDEST PUSH32 0x227D2C7B2274726169745F74797065223A20226F70657261746F7233222C2022 DUP2 MSTORE PUSH9 0x3B30B63AB2911D1011 PUSH1 0xB9 SHL PUSH1 0x20 DUP3 ADD MSTORE PUSH1 0x29 ADD PUSH2 0x143E SWAP2 PUSH2 0x24C2 JUMP JUMPDEST PUSH32 0x227D2C7B2274726169745F74797065223A20226F70657261746F7234222C2022 DUP2 MSTORE PUSH9 0x3B30B63AB2911D1011 PUSH1 0xB9 SHL PUSH1 0x20 DUP3 ADD MSTORE PUSH1 0x29 ADD PUSH2 0x147F SWAP2 PUSH2 0x24C2 JUMP JUMPDEST PUSH15 0x113EAE96101134B6B0B3B2911D1011 PUSH1 0x89 SHL DUP2 MSTORE PUSH1 0xF ADD PUSH32 0x646174613A696D6167652F7376672B786D6C3B6261736536342C000000000000 DUP2 MSTORE PUSH1 0x1A ADD PUSH2 0x14C6 SWAP2 PUSH2 0x24C2 JUMP JUMPDEST PUSH2 0x227D PUSH1 0xF0 SHL DUP2 MSTORE PUSH1 0x2 ADD SUB DUP3 DUP2 ADD DUP3 MSTORE PUSH2 0x14E1 SWAP1 DUP3 PUSH2 0xE78 JUMP JUMPDEST PUSH2 0x14EA SWAP1 PUSH2 0x2830 JUMP JUMPDEST DUP3 MLOAD PUSH32 0x646174613A6170706C69636174696F6E2F6A736F6E3B6261736536342C000000 SWAP5 DUP2 ADD SWAP5 DUP6 MSTORE SWAP4 DUP5 SWAP2 SWAP1 PUSH1 0x1D ADD PUSH2 0x1523 SWAP2 PUSH2 0x24C2 JUMP JUMPDEST SUB SWAP1 DUP2 ADD DUP4 MSTORE PUSH2 0x1533 SWAP1 DUP4 PUSH2 0xE78 JUMP JUMPDEST MLOAD PUSH2 0x388 DUP2 SWAP3 DUP3 PUSH2 0x307 JUMP JUMPDEST PUSH2 0x1564 PUSH2 0x155B PUSH2 0x1551 PUSH2 0x1569 SWAP4 PUSH2 0x250D JUMP JUMPDEST MLOAD PUSH4 0xFFFFFFFF AND SWAP1 JUMP JUMPDEST PUSH4 0xFFFFFFFF AND SWAP1 JUMP JUMPDEST PUSH2 0x548E JUMP JUMPDEST SWAP10 PUSH2 0x11CB JUMP JUMPDEST PUSH2 0x1581 PUSH2 0x1564 PUSH2 0x155B PUSH2 0x1551 DUP13 PUSH2 0x24FC JUMP JUMPDEST SWAP9 PUSH2 0x11BA JUMP JUMPDEST PUSH2 0x1599 PUSH2 0x1564 PUSH2 0x155B PUSH2 0x1551 DUP12 PUSH2 0x24EB JUMP JUMPDEST SWAP7 PUSH2 0x11AA JUMP JUMPDEST PUSH2 0x15B1 PUSH2 0x1564 PUSH2 0x155B PUSH2 0x1551 DUP11 PUSH2 0x24D5 JUMP JUMPDEST SWAP5 PUSH2 0x119A JUMP JUMPDEST PUSH2 0x15D3 SWAP2 SWAP8 RETURNDATASIZE DUP1 SWAP2 DUP4 RETURNDATACOPY PUSH2 0x15CB DUP2 DUP4 PUSH2 0xE78 JUMP JUMPDEST DUP2 ADD SWAP1 PUSH2 0x2463 JUMP JUMPDEST SWAP6 CODESIZE PUSH2 0x106B JUMP JUMPDEST PUSH2 0x15E2 PUSH2 0x1EF2 JUMP JUMPDEST PUSH2 0x1063 JUMP JUMPDEST PUSH2 0x1607 SWAP2 POP DUP8 RETURNDATASIZE DUP10 GT PUSH2 0x160D JUMPI JUMPDEST PUSH2 0x15FF DUP2 DUP4 PUSH2 0xE78 JUMP JUMPDEST DUP2 ADD SWAP1 PUSH2 0x2454 JUMP JUMPDEST CODESIZE PUSH2 0xFEF JUMP JUMPDEST POP RETURNDATASIZE PUSH2 0x15F5 JUMP JUMPDEST PUSH2 0x161C PUSH2 0x1EF2 JUMP JUMPDEST PUSH2 0x1025 JUMP JUMPDEST PUSH2 0x1607 SWAP2 POP DUP7 RETURNDATASIZE DUP9 GT PUSH2 0x160D JUMPI PUSH2 0x15FF DUP2 DUP4 PUSH2 0xE78 JUMP JUMPDEST PUSH2 0x1640 PUSH2 0x1EF2 JUMP JUMPDEST PUSH2 0xFE7 JUMP JUMPDEST POP CALLVALUE PUSH2 0xE JUMPI PUSH1 0x40 CALLDATASIZE PUSH1 0x3 NOT ADD SLT PUSH2 0xE JUMPI PUSH1 0x20 PUSH1 0xFF PUSH2 0x1697 PUSH2 0x1666 PUSH2 0x457 JUMP JUMPDEST PUSH2 0x166E PUSH2 0x483 JUMP JUMPDEST PUSH1 0x1 PUSH1 0x1 PUSH1 0xA0 SHL SUB SWAP2 DUP3 AND PUSH1 0x0 SWAP1 DUP2 MSTORE PUSH1 0x5 DUP7 MSTORE PUSH1 0x40 DUP1 DUP3 KECCAK256 SWAP3 SWAP1 SWAP4 AND DUP2 MSTORE PUSH1 0x20 SWAP2 SWAP1 SWAP2 MSTORE KECCAK256 SWAP1 JUMP JUMPDEST SLOAD AND PUSH1 0x40 MLOAD SWAP1 ISZERO ISZERO DUP2 MSTORE RETURN JUMPDEST POP CALLVALUE PUSH2 0xE JUMPI PUSH1 0x20 CALLDATASIZE PUSH1 0x3 NOT ADD SLT PUSH2 0xE JUMPI PUSH2 0x388 PUSH2 0xDEC PUSH1 0x4 CALLDATALOAD PUSH2 0x5256 JUMP JUMPDEST POP CALLVALUE PUSH2 0xE JUMPI PUSH1 0x20 CALLDATASIZE PUSH1 0x3 NOT ADD SLT PUSH2 0xE JUMPI PUSH2 0x16DD PUSH2 0x457 JUMP JUMPDEST PUSH1 0xA SLOAD PUSH1 0x1 PUSH1 0x1 PUSH1 0xA0 SHL SUB SWAP1 PUSH2 0x16F6 SWAP1 DUP3 AND CALLER EQ PUSH2 0x175A JUMP JUMPDEST DUP2 AND ISZERO PUSH2 0x1706 JUMPI PUSH2 0x4F1 SWAP1 PUSH2 0x17A5 JUMP JUMPDEST PUSH1 0x40 MLOAD PUSH3 0x461BCD PUSH1 0xE5 SHL DUP2 MSTORE PUSH1 0x20 PUSH1 0x4 DUP3 ADD MSTORE PUSH1 0x26 PUSH1 0x24 DUP3 ADD MSTORE PUSH32 0x4F776E61626C653A206E6577206F776E657220697320746865207A65726F2061 PUSH1 0x44 DUP3 ADD MSTORE PUSH6 0x646472657373 PUSH1 0xD0 SHL PUSH1 0x64 DUP3 ADD MSTORE PUSH1 0x84 SWAP1 REVERT JUMPDEST ISZERO PUSH2 0x1761 JUMPI JUMP JUMPDEST PUSH1 0x64 PUSH1 0x40 MLOAD PUSH3 0x461BCD PUSH1 0xE5 SHL DUP2 MSTORE PUSH1 0x20 PUSH1 0x4 DUP3 ADD MSTORE PUSH1 0x20 PUSH1 0x24 DUP3 ADD MSTORE PUSH32 0x4F776E61626C653A2063616C6C6572206973206E6F7420746865206F776E6572 PUSH1 0x44 DUP3 ADD MSTORE REVERT JUMPDEST PUSH1 0xA SLOAD SWAP1 PUSH1 0x1 DUP1 PUSH1 0xA0 SHL SUB DUP1 SWAP2 AND SWAP2 DUP3 PUSH12 0xFFFFFFFFFFFFFFFFFFFFFFFF PUSH1 0xA0 SHL DUP3 AND OR PUSH1 0xA SSTORE AND PUSH32 0x8BE0079C531659141344CD1FD0A4F28419497F9722A3DAAFE3B4186F6B6457E0 PUSH1 0x0 PUSH1 0x40 MLOAD LOG3 JUMP JUMPDEST PUSH1 0x1 PUSH1 0x1 PUSH1 0xA0 SHL SUB AND DUP1 ISZERO PUSH2 0x1815 JUMPI PUSH1 0x0 MSTORE PUSH1 0x3 PUSH1 0x20 MSTORE PUSH1 0x40 PUSH1 0x0 KECCAK256 SLOAD SWAP1 JUMP JUMPDEST PUSH1 0x40 MLOAD PUSH3 0x461BCD PUSH1 0xE5 SHL DUP2 MSTORE PUSH1 0x20 PUSH1 0x4 DUP3 ADD MSTORE PUSH1 0x2A PUSH1 0x24 DUP3 ADD MSTORE PUSH32 0x4552433732313A2062616C616E636520717565727920666F7220746865207A65 PUSH1 0x44 DUP3 ADD MSTORE PUSH10 0x726F2061646472657373 PUSH1 0xB0 SHL PUSH1 0x64 DUP3 ADD MSTORE PUSH1 0x84 SWAP1 REVERT JUMPDEST PUSH1 0x0 SWAP1 DUP2 MSTORE PUSH1 0x2 PUSH1 0x20 MSTORE PUSH1 0x40 SWAP1 KECCAK256 SLOAD PUSH1 0x1 PUSH1 0x1 PUSH1 0xA0 SHL SUB AND DUP1 ISZERO PUSH2 0x188E JUMPI SWAP1 JUMP JUMPDEST PUSH1 0x40 MLOAD PUSH3 0x461BCD PUSH1 0xE5 SHL DUP2 MSTORE PUSH1 0x20 PUSH1 0x4 DUP3 ADD MSTORE PUSH1 0x29 PUSH1 0x24 DUP3 ADD MSTORE PUSH32 0x4552433732313A206F776E657220717565727920666F72206E6F6E6578697374 PUSH1 0x44 DUP3 ADD MSTORE PUSH9 0x32B73A103A37B5B2B7 PUSH1 0xB9 SHL PUSH1 0x64 DUP3 ADD MSTORE PUSH1 0x84 SWAP1 REVERT JUMPDEST ISZERO PUSH2 0x18EC JUMPI JUMP JUMPDEST PUSH1 0x40 MLOAD PUSH3 0x461BCD PUSH1 0xE5 SHL DUP2 MSTORE PUSH1 0x20 PUSH1 0x4 DUP3 ADD MSTORE PUSH1 0x38 PUSH1 0x24 DUP3 ADD MSTORE PUSH32 0x4552433732313A20617070726F76652063616C6C6572206973206E6F74206F77 PUSH1 0x44 DUP3 ADD MSTORE PUSH32 0x6E6572206E6F7220617070726F76656420666F7220616C6C0000000000000000 PUSH1 0x64 DUP3 ADD MSTORE PUSH1 0x84 SWAP1 REVERT JUMPDEST PUSH1 0x0 DUP2 DUP2 MSTORE PUSH1 0x2 PUSH1 0x20 MSTORE PUSH1 0x40 SWAP1 KECCAK256 SLOAD PUSH1 0x1 PUSH1 0x1 PUSH1 0xA0 SHL SUB AND ISZERO PUSH2 0x198F JUMPI PUSH1 0x0 SWAP1 DUP2 MSTORE PUSH1 0x4 PUSH1 0x20 MSTORE PUSH1 0x40 SWAP1 KECCAK256 SLOAD PUSH1 0x1 PUSH1 0x1 PUSH1 0xA0 SHL SUB AND SWAP1 JUMP JUMPDEST PUSH1 0x40 MLOAD PUSH3 0x461BCD PUSH1 0xE5 SHL DUP2 MSTORE PUSH1 0x20 PUSH1 0x4 DUP3 ADD MSTORE PUSH1 0x2C PUSH1 0x24 DUP3 ADD MSTORE PUSH32 0x4552433732313A20617070726F76656420717565727920666F72206E6F6E6578 PUSH1 0x44 DUP3 ADD MSTORE PUSH12 0x34B9BA32B73A103A37B5B2B7 PUSH1 0xA1 SHL PUSH1 0x64 DUP3 ADD MSTORE PUSH1 0x84 SWAP1 REVERT JUMPDEST ISZERO PUSH2 0x19F0 JUMPI JUMP JUMPDEST PUSH1 0x40 MLOAD PUSH3 0x461BCD PUSH1 0xE5 SHL DUP2 MSTORE PUSH1 0x20 PUSH1 0x4 DUP3 ADD MSTORE PUSH1 0x31 PUSH1 0x24 DUP3 ADD MSTORE PUSH32 0x4552433732313A207472616E736665722063616C6C6572206973206E6F74206F PUSH1 0x44 DUP3 ADD MSTORE PUSH17 0x1DDB995C881B9BDC88185C1C1C9BDD9959 PUSH1 0x7A SHL PUSH1 0x64 DUP3 ADD MSTORE PUSH1 0x84 SWAP1 REVERT JUMPDEST PUSH1 0x40 MLOAD SWAP1 PUSH2 0x1A5C DUP3 PUSH2 0xE17 JUMP JUMPDEST PUSH1 0x0 DUP3 MSTORE JUMP JUMPDEST SWAP2 PUSH2 0x1A89 SWAP4 SWAP2 PUSH2 0x73F SWAP4 PUSH2 0x1A79 PUSH2 0x837 DUP5 CALLER PUSH2 0x1B02 JUMP JUMPDEST PUSH2 0x1A84 DUP4 DUP4 DUP4 PUSH2 0x1C9D JUMP JUMPDEST PUSH2 0x1FF0 JUMP JUMPDEST JUMP JUMPDEST PUSH1 0x80 SWAP1 PUSH1 0x20 DUP2 MSTORE PUSH1 0x32 PUSH1 0x20 DUP3 ADD MSTORE PUSH32 0x4552433732313A207472616E7366657220746F206E6F6E204552433732315265 PUSH1 0x40 DUP3 ADD MSTORE PUSH18 0x31B2B4BB32B91034B6B83632B6B2B73A32B9 PUSH1 0x71 SHL PUSH1 0x60 DUP3 ADD MSTORE ADD SWAP1 JUMP JUMPDEST ISZERO PUSH2 0x1AE5 JUMPI JUMP JUMPDEST PUSH1 0x40 MLOAD PUSH3 0x461BCD PUSH1 0xE5 SHL DUP2 MSTORE DUP1 PUSH2 0x1AFE PUSH1 0x4 DUP3 ADD PUSH2 0x1A8B JUMP JUMPDEST SUB SWAP1 REVERT JUMPDEST PUSH1 0x0 DUP3 DUP2 MSTORE PUSH1 0x2 PUSH1 0x20 MSTORE PUSH1 0x40 SWAP1 KECCAK256 SLOAD PUSH1 0x1 PUSH1 0x1 PUSH1 0xA0 SHL SUB AND ISZERO PUSH2 0x1B93 JUMPI PUSH2 0x1B28 DUP3 PUSH2 0x186D JUMP JUMPDEST PUSH1 0x1 PUSH1 0x1 PUSH1 0xA0 SHL SUB DUP3 DUP2 AND DUP3 DUP3 AND DUP2 EQ SWAP5 SWAP1 SWAP2 SWAP1 DUP6 ISZERO PUSH2 0x1B7B JUMPI JUMPDEST POP POP POP DUP3 ISZERO PUSH2 0x1B51 JUMPI POP POP SWAP1 JUMP JUMPDEST PUSH1 0x1 PUSH1 0x1 PUSH1 0xA0 SHL SUB AND PUSH1 0x0 SWAP1 DUP2 MSTORE PUSH1 0x5 PUSH1 0x20 MSTORE PUSH1 0x40 SWAP1 KECCAK256 PUSH1 0xFF SWAP3 POP PUSH2 0x1B76 SWAP2 SWAP1 PUSH2 0x516 JUMP JUMPDEST SLOAD AND SWAP1 JUMP JUMPDEST PUSH2 0x1B88 SWAP2 SWAP3 SWAP4 SWAP6 POP PUSH2 0x1957 JUMP JUMPDEST AND EQ SWAP2 CODESIZE DUP1 DUP1 PUSH2 0x1B43 JUMP JUMPDEST PUSH1 0x40 MLOAD PUSH3 0x461BCD PUSH1 0xE5 SHL DUP2 MSTORE PUSH1 0x20 PUSH1 0x4 DUP3 ADD MSTORE PUSH1 0x2C PUSH1 0x24 DUP3 ADD MSTORE PUSH32 0x4552433732313A206F70657261746F7220717565727920666F72206E6F6E6578 PUSH1 0x44 DUP3 ADD MSTORE PUSH12 0x34B9BA32B73A103A37B5B2B7 PUSH1 0xA1 SHL PUSH1 0x64 DUP3 ADD MSTORE PUSH1 0x84 SWAP1 REVERT JUMPDEST ISZERO PUSH2 0x1BF4 JUMPI JUMP JUMPDEST PUSH1 0x40 MLOAD PUSH3 0x461BCD PUSH1 0xE5 SHL DUP2 MSTORE PUSH1 0x20 PUSH1 0x4 DUP3 ADD MSTORE PUSH1 0x24 DUP1 DUP3 ADD MSTORE PUSH32 0x4552433732313A207472616E7366657220746F20746865207A65726F20616464 PUSH1 0x44 DUP3 ADD MSTORE PUSH4 0x72657373 PUSH1 0xE0 SHL PUSH1 0x64 DUP3 ADD MSTORE PUSH1 0x84 SWAP1 REVERT JUMPDEST POP PUSH4 0x4E487B71 PUSH1 0xE0 SHL PUSH1 0x0 MSTORE PUSH1 0x11 PUSH1 0x4 MSTORE PUSH1 0x24 PUSH1 0x0 REVERT JUMPDEST PUSH1 0x0 NOT DUP2 ADD SWAP2 SWAP1 DUP3 GT PUSH2 0x1C6B JUMPI JUMP JUMPDEST PUSH2 0x1A89 PUSH2 0x1C45 JUMP JUMPDEST SWAP1 PUSH1 0x1 DUP3 ADD DUP1 SWAP3 GT PUSH2 0x1C6B JUMPI JUMP JUMPDEST SWAP1 PUSH1 0x2 DUP3 ADD DUP1 SWAP3 GT PUSH2 0x1C6B JUMPI JUMP JUMPDEST SWAP1 PUSH1 0x20 DUP3 ADD DUP1 SWAP3 GT PUSH2 0x1C6B JUMPI JUMP JUMPDEST SWAP1 PUSH2 0x1CA7 DUP4 PUSH2 0x186D JUMP JUMPDEST PUSH1 0x1 PUSH1 0x1 PUSH1 0xA0 SHL SUB DUP4 DUP2 AND SWAP3 SWAP1 SWAP2 DUP3 AND DUP4 SWAP1 SUB PUSH2 0x1D6E JUMPI PUSH2 0x1D01 PUSH2 0x1D45 SWAP3 DUP3 AND SWAP5 PUSH2 0x1CD3 DUP7 ISZERO ISZERO PUSH2 0x1BED JUMP JUMPDEST PUSH2 0x1CDE DUP8 DUP5 DUP4 PUSH2 0x206E JUMP JUMPDEST PUSH2 0x1CE7 DUP8 PUSH2 0x1DC5 JUMP JUMPDEST PUSH1 0x1 PUSH1 0x1 PUSH1 0xA0 SHL SUB AND PUSH1 0x0 SWAP1 DUP2 MSTORE PUSH1 0x3 PUSH1 0x20 MSTORE PUSH1 0x40 SWAP1 KECCAK256 SWAP1 JUMP JUMPDEST PUSH2 0x1D0B DUP2 SLOAD PUSH2 0x1C5C JUMP JUMPDEST SWAP1 SSTORE PUSH1 0x1 PUSH1 0x1 PUSH1 0xA0 SHL SUB DUP2 AND PUSH1 0x0 SWAP1 DUP2 MSTORE PUSH1 0x3 PUSH1 0x20 MSTORE PUSH1 0x40 SWAP1 KECCAK256 PUSH2 0x1D2F DUP2 SLOAD PUSH2 0x1C73 JUMP JUMPDEST SWAP1 SSTORE PUSH2 0x6F5 DUP6 PUSH1 0x0 MSTORE PUSH1 0x2 PUSH1 0x20 MSTORE PUSH1 0x40 PUSH1 0x0 KECCAK256 SWAP1 JUMP JUMPDEST PUSH32 0xDDF252AD1BE2C89B69C2B068FC378DAA952BA7F163C4A11628F55A4DF523B3EF PUSH1 0x0 PUSH1 0x40 MLOAD LOG4 JUMP JUMPDEST PUSH1 0x40 MLOAD PUSH3 0x461BCD PUSH1 0xE5 SHL DUP2 MSTORE PUSH1 0x20 PUSH1 0x4 DUP3 ADD MSTORE PUSH1 0x29 PUSH1 0x24 DUP3 ADD MSTORE PUSH32 0x4552433732313A207472616E73666572206F6620746F6B656E20746861742069 PUSH1 0x44 DUP3 ADD MSTORE PUSH9 0x39903737BA1037BBB7 PUSH1 0xB9 SHL PUSH1 0x64 DUP3 ADD MSTORE PUSH1 0x84 SWAP1 REVERT JUMPDEST PUSH1 0x0 DUP2 DUP2 MSTORE PUSH1 0x4 PUSH1 0x20 MSTORE PUSH1 0x40 DUP2 KECCAK256 DUP1 SLOAD PUSH1 0x1 PUSH1 0x1 PUSH1 0xA0 SHL SUB NOT AND SWAP1 SSTORE PUSH1 0x1 PUSH1 0x1 PUSH1 0xA0 SHL SUB PUSH2 0x1DF2 DUP4 PUSH2 0x186D JUMP JUMPDEST AND PUSH32 0x8C5BE1E5EBEC7D5BD14F71427D1E84F3DD0314C0F7B2291E5B200AC8C7C3B925 DUP3 PUSH1 0x40 MLOAD LOG4 JUMP JUMPDEST PUSH1 0x0 DUP3 DUP2 MSTORE PUSH1 0x4 PUSH1 0x20 MSTORE PUSH1 0x40 SWAP1 KECCAK256 DUP1 SLOAD PUSH1 0x1 PUSH1 0x1 PUSH1 0xA0 SHL SUB NOT AND PUSH1 0x1 PUSH1 0x1 PUSH1 0xA0 SHL SUB DUP4 AND OR SWAP1 SSTORE PUSH1 0x1 PUSH1 0x1 PUSH1 0xA0 SHL SUB DUP1 PUSH2 0x1E54 DUP5 PUSH2 0x186D JUMP JUMPDEST AND SWAP2 AND SWAP1 PUSH32 0x8C5BE1E5EBEC7D5BD14F71427D1E84F3DD0314C0F7B2291E5B200AC8C7C3B925 PUSH1 0x0 PUSH1 0x40 MLOAD LOG4 JUMP JUMPDEST SWAP1 DUP2 PUSH1 0x20 SWAP2 SUB SLT PUSH2 0xE JUMPI MLOAD PUSH2 0x318 DUP2 PUSH2 0x224 JUMP JUMPDEST PUSH2 0x318 SWAP4 SWAP3 PUSH1 0x80 SWAP3 PUSH1 0x1 DUP1 PUSH1 0xA0 SHL SUB AND DUP3 MSTORE PUSH1 0x0 PUSH1 0x20 DUP4 ADD MSTORE PUSH1 0x40 DUP3 ADD MSTORE DUP2 PUSH1 0x60 DUP3 ADD MSTORE ADD SWAP1 PUSH2 0x2E2 JUMP JUMPDEST PUSH1 0x1 PUSH1 0x1 PUSH1 0xA0 SHL SUB SWAP2 DUP3 AND DUP2 MSTORE SWAP2 AND PUSH1 0x20 DUP3 ADD MSTORE PUSH1 0x40 DUP2 ADD SWAP2 SWAP1 SWAP2 MSTORE PUSH1 0x80 PUSH1 0x60 DUP3 ADD DUP2 SWAP1 MSTORE PUSH2 0x318 SWAP3 SWAP2 ADD SWAP1 PUSH2 0x2E2 JUMP JUMPDEST POP PUSH1 0x40 MLOAD RETURNDATASIZE PUSH1 0x0 DUP3 RETURNDATACOPY RETURNDATASIZE SWAP1 REVERT JUMPDEST RETURNDATASIZE ISZERO PUSH2 0x1F2A JUMPI RETURNDATASIZE SWAP1 PUSH2 0x1F10 DUP3 PUSH2 0xE9A JUMP JUMPDEST SWAP2 PUSH2 0x1F1E PUSH1 0x40 MLOAD SWAP4 DUP5 PUSH2 0xE78 JUMP JUMPDEST DUP3 MSTORE RETURNDATASIZE PUSH1 0x0 PUSH1 0x20 DUP5 ADD RETURNDATACOPY JUMP JUMPDEST PUSH1 0x60 SWAP1 JUMP JUMPDEST SWAP1 SWAP2 SWAP1 DUP1 EXTCODESIZE ISZERO PUSH2 0x1FE8 JUMPI PUSH2 0x1F61 PUSH1 0x20 SWAP2 PUSH1 0x0 SWAP4 PUSH1 0x40 MLOAD SWAP5 DUP6 DUP1 SWAP5 DUP2 SWAP4 PUSH4 0xA85BD01 PUSH1 0xE1 SHL SWAP10 DUP11 DUP5 MSTORE CALLER PUSH1 0x4 DUP6 ADD PUSH2 0x1E96 JUMP JUMPDEST SUB SWAP3 PUSH1 0x1 PUSH1 0x1 PUSH1 0xA0 SHL SUB AND GAS CALL PUSH1 0x0 SWAP2 DUP2 PUSH2 0x1FB8 JUMPI JUMPDEST POP PUSH2 0x1FAA JUMPI PUSH2 0x1F84 PUSH2 0x1EFF JUMP JUMPDEST DUP1 MLOAD SWAP1 DUP2 PUSH2 0x1FA5 JUMPI PUSH1 0x40 MLOAD PUSH3 0x461BCD PUSH1 0xE5 SHL DUP2 MSTORE DUP1 PUSH2 0x1AFE PUSH1 0x4 DUP3 ADD PUSH2 0x1A8B JUMP JUMPDEST PUSH1 0x20 ADD REVERT JUMPDEST PUSH1 0x1 PUSH1 0x1 PUSH1 0xE0 SHL SUB NOT AND EQ SWAP1 JUMP JUMPDEST PUSH2 0x1FDA SWAP2 SWAP3 POP PUSH1 0x20 RETURNDATASIZE DUP2 GT PUSH2 0x1FE1 JUMPI JUMPDEST PUSH2 0x1FD2 DUP2 DUP4 PUSH2 0xE78 JUMP JUMPDEST DUP2 ADD SWAP1 PUSH2 0x1E81 JUMP JUMPDEST SWAP1 CODESIZE PUSH2 0x1F77 JUMP JUMPDEST POP RETURNDATASIZE PUSH2 0x1FC8 JUMP JUMPDEST POP POP POP PUSH1 0x1 SWAP1 JUMP JUMPDEST SWAP3 SWAP1 SWAP2 SWAP1 DUP3 EXTCODESIZE ISZERO PUSH2 0x2023 JUMPI PUSH2 0x1F61 SWAP3 PUSH1 0x20 SWAP3 PUSH1 0x0 PUSH1 0x40 MLOAD DUP1 SWAP7 DUP2 SWAP6 DUP3 SWAP5 PUSH4 0xA85BD01 PUSH1 0xE1 SHL SWAP11 DUP12 DUP6 MSTORE CALLER PUSH1 0x4 DUP7 ADD PUSH2 0x1EC1 JUMP JUMPDEST POP POP POP POP PUSH1 0x1 SWAP1 JUMP JUMPDEST POP PUSH4 0x4E487B71 PUSH1 0xE0 SHL PUSH1 0x0 MSTORE PUSH1 0x32 PUSH1 0x4 MSTORE PUSH1 0x24 PUSH1 0x0 REVERT JUMPDEST SWAP1 PUSH2 0x204D DUP2 PUSH2 0x21CB JUMP JUMPDEST PUSH1 0x1 PUSH1 0x1 PUSH1 0xA0 SHL SUB DUP3 AND PUSH2 0x2065 JUMPI PUSH2 0x1A89 SWAP2 POP PUSH2 0x2244 JUMP JUMPDEST PUSH2 0x1A89 SWAP2 PUSH2 0x2193 JUMP JUMPDEST SWAP1 SWAP2 SWAP1 PUSH1 0x1 PUSH1 0x1 PUSH1 0xA0 SHL SUB DUP1 DUP3 AND SWAP2 DUP3 PUSH2 0x20A8 JUMPI POP PUSH2 0x208C DUP4 PUSH2 0x21CB JUMP JUMPDEST DUP4 AND DUP1 PUSH2 0x209F JUMPI POP POP PUSH2 0x1A89 SWAP2 POP PUSH2 0x2244 JUMP JUMPDEST SUB PUSH2 0x2065 JUMPI POP POP JUMP JUMPDEST DUP2 DUP6 AND DUP4 SUB PUSH2 0x20B8 JUMPI JUMPDEST POP PUSH2 0x208C JUMP JUMPDEST PUSH2 0x212C PUSH2 0x20C4 DUP3 PUSH2 0x17F5 JUMP JUMPDEST PUSH1 0x0 NOT DUP2 ADD SWAP1 DUP2 GT PUSH2 0x2186 JUMPI JUMPDEST PUSH2 0x211D PUSH1 0x0 SWAP4 DUP8 DUP6 MSTORE PUSH1 0x7 PUSH1 0x20 MSTORE PUSH1 0x40 DUP6 KECCAK256 SLOAD DUP4 DUP2 SUB PUSH2 0x2133 JUMPI JUMPDEST POP DUP5 PUSH2 0x2102 DUP10 PUSH1 0x0 MSTORE PUSH1 0x7 PUSH1 0x20 MSTORE PUSH1 0x40 PUSH1 0x0 KECCAK256 SWAP1 JUMP JUMPDEST SSTORE PUSH1 0x1 PUSH1 0x1 PUSH1 0xA0 SHL SUB AND PUSH1 0x0 SWAP1 DUP2 MSTORE PUSH1 0x6 PUSH1 0x20 MSTORE PUSH1 0x40 SWAP1 KECCAK256 SWAP1 JUMP JUMPDEST SWAP1 PUSH1 0x0 MSTORE PUSH1 0x20 MSTORE PUSH1 0x40 PUSH1 0x0 KECCAK256 SWAP1 JUMP JUMPDEST SSTORE CODESIZE PUSH2 0x20B2 JUMP JUMPDEST DUP8 DUP7 MSTORE PUSH1 0x6 PUSH1 0x20 MSTORE PUSH1 0x40 DUP7 KECCAK256 DUP5 DUP8 MSTORE PUSH1 0x20 MSTORE PUSH2 0x217F PUSH1 0x40 DUP8 KECCAK256 SLOAD DUP1 PUSH2 0x216E DUP5 PUSH2 0x211D DUP8 PUSH1 0x1 DUP1 PUSH1 0xA0 SHL SUB AND PUSH1 0x0 MSTORE PUSH1 0x6 PUSH1 0x20 MSTORE PUSH1 0x40 PUSH1 0x0 KECCAK256 SWAP1 JUMP JUMPDEST SSTORE PUSH1 0x0 MSTORE PUSH1 0x7 PUSH1 0x20 MSTORE PUSH1 0x40 PUSH1 0x0 KECCAK256 SWAP1 JUMP JUMPDEST SSTORE CODESIZE PUSH2 0x20EC JUMP JUMPDEST PUSH2 0x218E PUSH2 0x1C45 JUMP JUMPDEST PUSH2 0x20D1 JUMP JUMPDEST PUSH1 0x40 SWAP1 PUSH2 0x219F DUP2 PUSH2 0x17F5 JUMP JUMPDEST SWAP3 PUSH1 0x0 SWAP2 PUSH1 0x1 DUP1 PUSH1 0xA0 SHL SUB AND DUP3 MSTORE PUSH1 0x6 PUSH1 0x20 MSTORE DUP3 DUP3 KECCAK256 DUP5 DUP4 MSTORE PUSH1 0x20 MSTORE DUP1 DUP4 DUP4 KECCAK256 SSTORE DUP2 MSTORE PUSH1 0x7 PUSH1 0x20 MSTORE KECCAK256 SSTORE JUMP JUMPDEST PUSH1 0x8 SLOAD DUP2 PUSH1 0x0 MSTORE PUSH1 0x9 PUSH1 0x20 MSTORE DUP1 PUSH1 0x40 PUSH1 0x0 KECCAK256 SSTORE PUSH9 0x10000000000000000 DUP2 LT ISZERO PUSH2 0x2237 JUMPI JUMPDEST PUSH1 0x1 DUP2 ADD DUP1 PUSH1 0x8 SSTORE DUP2 LT ISZERO PUSH2 0x222A JUMPI JUMPDEST PUSH1 0x8 PUSH1 0x0 MSTORE PUSH32 0xF3F7A9FE364FAAB93B216DA50A3214154F22A0A2B415B23A84C8169E8B636EE3 ADD SSTORE JUMP JUMPDEST PUSH2 0x2232 PUSH2 0x202C JUMP JUMPDEST PUSH2 0x2200 JUMP JUMPDEST PUSH2 0x223F PUSH2 0xE00 JUMP JUMPDEST PUSH2 0x21F0 JUMP JUMPDEST PUSH1 0x8 DUP1 SLOAD PUSH1 0x0 NOT SWAP3 SWAP1 DUP4 DUP2 ADD DUP2 DUP2 GT PUSH2 0x234D JUMPI JUMPDEST PUSH2 0x22F4 PUSH1 0x0 SWAP4 DUP5 SWAP3 DUP2 DUP5 MSTORE PUSH1 0x9 PUSH1 0x20 MSTORE DUP5 PUSH1 0x40 DUP6 KECCAK256 SLOAD SWAP2 LT ISZERO PUSH2 0x2340 JUMPI JUMPDEST DUP7 DUP5 MSTORE PUSH2 0x22E3 PUSH32 0xF3F7A9FE364FAAB93B216DA50A3214154F22A0A2B415B23A84C8169E8B636EE2 SWAP6 DUP7 DUP2 ADD SLOAD SWAP1 DUP4 LT ISZERO PUSH2 0x2333 JUMPI JUMPDEST DUP9 DUP7 MSTORE DUP1 DUP4 PUSH32 0xF3F7A9FE364FAAB93B216DA50A3214154F22A0A2B415B23A84C8169E8B636EE3 ADD SSTORE PUSH1 0x0 MSTORE PUSH1 0x9 PUSH1 0x20 MSTORE PUSH1 0x40 PUSH1 0x0 KECCAK256 SWAP1 JUMP JUMPDEST SSTORE PUSH1 0x0 MSTORE PUSH1 0x9 PUSH1 0x20 MSTORE PUSH1 0x40 PUSH1 0x0 KECCAK256 SWAP1 JUMP JUMPDEST SSTORE DUP3 SLOAD SWAP4 DUP5 ISZERO PUSH2 0x231F JUMPI DUP5 ADD SWAP4 DUP1 DUP6 LT ISZERO PUSH2 0x2312 JUMPI JUMPDEST DUP4 DUP4 MSTORE ADD SSTORE SSTORE JUMP JUMPDEST PUSH2 0x231A PUSH2 0x202C JUMP JUMPDEST PUSH2 0x230A JUMP JUMPDEST PUSH4 0x4E487B71 PUSH1 0xE0 SHL DUP4 MSTORE PUSH1 0x31 PUSH1 0x4 MSTORE PUSH1 0x24 DUP4 REVERT JUMPDEST PUSH2 0x233B PUSH2 0x202C JUMP JUMPDEST PUSH2 0x22AB JUMP JUMPDEST PUSH2 0x2348 PUSH2 0x202C JUMP JUMPDEST PUSH2 0x2276 JUMP JUMPDEST PUSH2 0x2355 PUSH2 0x1C45 JUMP JUMPDEST PUSH2 0x2258 JUMP JUMPDEST SWAP1 DUP2 PUSH1 0x20 SWAP2 SUB SLT PUSH2 0xE JUMPI MLOAD PUSH2 0x318 DUP2 PUSH2 0xCD5 JUMP JUMPDEST ISZERO PUSH2 0x2376 JUMPI JUMP JUMPDEST PUSH1 0x40 MLOAD PUSH3 0x461BCD PUSH1 0xE5 SHL DUP2 MSTORE PUSH1 0x20 PUSH1 0x4 DUP3 ADD MSTORE PUSH1 0x16 PUSH1 0x24 DUP3 ADD MSTORE PUSH22 0x1B5D5CDD0818994818481CDD185ADA5B99C81C1BDBDB PUSH1 0x52 SHL PUSH1 0x44 DUP3 ADD MSTORE PUSH1 0x64 SWAP1 REVERT JUMPDEST PUSH1 0x1 SWAP1 PUSH1 0x0 NOT DUP2 EQ PUSH2 0x23C4 JUMPI ADD SWAP1 JUMP JUMPDEST PUSH2 0x23CC PUSH2 0x1C45 JUMP JUMPDEST ADD SWAP1 JUMP JUMPDEST ISZERO PUSH2 0x23D7 JUMPI JUMP JUMPDEST PUSH1 0x40 MLOAD PUSH3 0x461BCD PUSH1 0xE5 SHL DUP2 MSTORE PUSH1 0x20 PUSH1 0x4 DUP3 ADD MSTORE PUSH1 0x1C PUSH1 0x24 DUP3 ADD MSTORE PUSH32 0x4552433732313A20746F6B656E20616C7265616479206D696E74656400000000 PUSH1 0x44 DUP3 ADD MSTORE PUSH1 0x64 SWAP1 REVERT JUMPDEST ISZERO PUSH2 0x2423 JUMPI JUMP JUMPDEST PUSH1 0x40 MLOAD PUSH3 0x461BCD PUSH1 0xE5 SHL DUP2 MSTORE PUSH1 0x20 PUSH1 0x4 DUP3 ADD MSTORE PUSH1 0x9 PUSH1 0x24 DUP3 ADD MSTORE PUSH9 0x1B9BDD08195E1A5CDD PUSH1 0xBA SHL PUSH1 0x44 DUP3 ADD MSTORE PUSH1 0x64 SWAP1 REVERT JUMPDEST SWAP1 DUP2 PUSH1 0x20 SWAP2 SUB SLT PUSH2 0xE JUMPI MLOAD SWAP1 JUMP JUMPDEST PUSH1 0x20 DUP2 DUP4 SUB SLT PUSH2 0xE JUMPI DUP1 MLOAD SWAP1 PUSH8 0xFFFFFFFFFFFFFFFF DUP3 GT PUSH2 0xE JUMPI ADD DUP2 PUSH1 0x1F DUP3 ADD SLT ISZERO PUSH2 0xE JUMPI DUP1 MLOAD PUSH2 0x2496 DUP2 PUSH2 0xE9A JUMP JUMPDEST SWAP3 PUSH2 0x24A4 PUSH1 0x40 MLOAD SWAP5 DUP6 PUSH2 0xE78 JUMP JUMPDEST DUP2 DUP5 MSTORE PUSH1 0x20 DUP3 DUP5 ADD ADD GT PUSH2 0xE JUMPI PUSH2 0x318 SWAP2 PUSH1 0x20 DUP1 DUP6 ADD SWAP2 ADD PUSH2 0x2BF JUMP JUMPDEST SWAP1 PUSH2 0x23CC PUSH1 0x20 SWAP3 DUP3 DUP2 MLOAD SWAP5 DUP6 SWAP3 ADD PUSH2 0x2BF JUMP JUMPDEST PUSH1 0x20 SWAP1 DUP1 MLOAD ISZERO PUSH2 0x24E3 JUMPI ADD SWAP1 JUMP JUMPDEST PUSH2 0x23CC PUSH2 0x202C JUMP JUMPDEST PUSH1 0x40 SWAP1 DUP1 MLOAD PUSH1 0x1 LT ISZERO PUSH2 0x24E3 JUMPI ADD SWAP1 JUMP JUMPDEST PUSH1 0x60 SWAP1 DUP1 MLOAD PUSH1 0x2 LT ISZERO PUSH2 0x24E3 JUMPI ADD SWAP1 JUMP JUMPDEST PUSH1 0x80 SWAP1 DUP1 MLOAD PUSH1 0x3 LT ISZERO PUSH2 0x24E3 JUMPI ADD SWAP1 JUMP JUMPDEST PUSH1 0x40 MLOAD SWAP1 PUSH2 0x252B DUP3 PUSH2 0xE40 JUMP JUMPDEST PUSH1 0x7 DUP3 MSTORE PUSH7 0x139BDD0814D95D PUSH1 0xCA SHL PUSH1 0x20 DUP4 ADD MSTORE JUMP JUMPDEST PUSH1 0x40 MLOAD SWAP1 PUSH2 0x254E DUP3 PUSH2 0xE40 JUMP JUMPDEST PUSH1 0x1 DUP3 MSTORE PUSH1 0x3 PUSH1 0xFC SHL PUSH1 0x20 DUP4 ADD MSTORE JUMP JUMPDEST SWAP1 PUSH2 0x2568 DUP3 PUSH2 0xE9A JUMP JUMPDEST PUSH2 0x2575 PUSH1 0x40 MLOAD SWAP2 DUP3 PUSH2 0xE78 JUMP JUMPDEST DUP3 DUP2 MSTORE DUP1 SWAP3 PUSH2 0x2586 PUSH1 0x1F NOT SWAP2 PUSH2 0xE9A JUMP JUMPDEST ADD SWAP1 PUSH1 0x20 CALLDATASIZE SWAP2 ADD CALLDATACOPY JUMP JUMPDEST SWAP1 PUSH1 0x20 SWAP2 DUP1 MLOAD DUP3 LT ISZERO PUSH2 0x25A2 JUMPI ADD ADD SWAP1 JUMP JUMPDEST PUSH2 0x25AA PUSH2 0x202C JUMP JUMPDEST ADD ADD SWAP1 JUMP JUMPDEST DUP1 ISZERO PUSH2 0x264B JUMPI PUSH1 0x0 DUP2 DUP2 DUP2 DUP1 JUMPDEST PUSH2 0x2633 JUMPI POP PUSH2 0x25CA DUP2 PUSH2 0x255E JUMP JUMPDEST SWAP4 JUMPDEST PUSH2 0x25D6 JUMPI POP POP POP SWAP1 JUMP JUMPDEST PUSH1 0x0 NOT DUP2 ADD SWAP1 DUP2 GT PUSH2 0x2626 JUMPI JUMPDEST DUP1 SWAP2 PUSH1 0xA SWAP2 PUSH2 0x2610 PUSH1 0x30 DUP5 DUP5 MOD DUP2 ADD DUP1 SWAP2 GT PUSH2 0x2619 JUMPI JUMPDEST PUSH1 0xF8 SHL PUSH1 0x1 PUSH1 0x1 PUSH1 0xF8 SHL SUB NOT AND DUP7 BYTE SWAP2 DUP8 PUSH2 0x2590 JUMP JUMPDEST MSTORE8 DIV SWAP1 DUP2 PUSH2 0x25CC JUMP JUMPDEST PUSH2 0x2621 PUSH2 0x1C45 JUMP JUMPDEST PUSH2 0x25FA JUMP JUMPDEST PUSH2 0x262E PUSH2 0x1C45 JUMP JUMPDEST PUSH2 0x25E3 JUMP JUMPDEST SWAP2 POP PUSH2 0x2640 PUSH1 0xA SWAP2 PUSH2 0x23B4 JUMP JUMPDEST SWAP2 DIV DUP1 DUP5 SWAP3 SWAP2 PUSH2 0x25BC JUMP JUMPDEST POP PUSH2 0x318 PUSH2 0x2541 JUMP JUMPDEST PUSH1 0x1 PUSH1 0x1 PUSH1 0xFE SHL SUB DUP2 GT PUSH1 0x1 AND PUSH2 0x266C JUMPI JUMPDEST PUSH1 0x2 SHL SWAP1 JUMP JUMPDEST PUSH2 0x2674 PUSH2 0x1C45 JUMP JUMPDEST PUSH2 0x2666 JUMP JUMPDEST DUP1 PUSH1 0x0 NOT DIV PUSH1 0x2 GT DUP2 ISZERO ISZERO AND PUSH2 0x2690 JUMPI JUMPDEST PUSH1 0x1 SHL SWAP1 JUMP JUMPDEST PUSH2 0x2698 PUSH2 0x1C45 JUMP JUMPDEST PUSH2 0x268A JUMP JUMPDEST DUP1 ISZERO PUSH2 0x26AB JUMPI JUMPDEST PUSH1 0x0 NOT ADD SWAP1 JUMP JUMPDEST PUSH2 0x26B3 PUSH2 0x1C45 JUMP JUMPDEST PUSH2 0x26A4 JUMP JUMPDEST ISZERO PUSH2 0x26BF JUMPI JUMP JUMPDEST PUSH1 0x64 PUSH1 0x40 MLOAD PUSH3 0x461BCD PUSH1 0xE5 SHL DUP2 MSTORE PUSH1 0x20 PUSH1 0x4 DUP3 ADD MSTORE PUSH1 0x20 PUSH1 0x24 DUP3 ADD MSTORE PUSH32 0x537472696E67733A20686578206C656E67746820696E73756666696369656E74 PUSH1 0x44 DUP3 ADD MSTORE REVERT JUMPDEST PUSH1 0x40 MLOAD SWAP1 PUSH2 0x2710 DUP3 PUSH2 0xE5C JUMP JUMPDEST PUSH1 0x2A DUP3 MSTORE PUSH1 0x40 CALLDATASIZE PUSH1 0x20 DUP5 ADD CALLDATACOPY PUSH1 0x30 PUSH2 0x2727 DUP4 PUSH2 0x24D5 JUMP JUMPDEST MSTORE8 DUP2 MLOAD PUSH1 0x1 SWAP1 DUP2 LT ISZERO PUSH2 0x27A5 JUMPI JUMPDEST SWAP1 PUSH1 0x78 PUSH1 0x21 DUP5 ADD MSTORE8 PUSH1 0x29 SWAP2 JUMPDEST DUP1 DUP4 GT PUSH2 0x2754 JUMPI POP PUSH2 0x318 SWAP2 POP ISZERO PUSH2 0x26B8 JUMP JUMPDEST SWAP1 DUP1 PUSH1 0xF PUSH2 0x2791 SWAP3 AND PUSH1 0x10 DUP2 LT ISZERO PUSH2 0x2798 JUMPI JUMPDEST PUSH16 0x181899199A1A9B1B9C1CB0B131B232B3 PUSH1 0x81 SHL SWAP1 BYTE PUSH2 0x2787 DUP6 DUP8 PUSH2 0x2590 JUMP JUMPDEST MSTORE8 PUSH1 0x4 SHR SWAP3 PUSH2 0x269D JUMP JUMPDEST SWAP2 SWAP1 PUSH2 0x2741 JUMP JUMPDEST PUSH2 0x27A0 PUSH2 0x202C JUMP JUMPDEST PUSH2 0x2767 JUMP JUMPDEST PUSH2 0x27AD PUSH2 0x202C JUMP JUMPDEST PUSH2 0x2735 JUMP JUMPDEST PUSH1 0x40 MLOAD SWAP1 PUSH1 0x60 DUP3 ADD DUP3 DUP2 LT PUSH8 0xFFFFFFFFFFFFFFFF DUP3 GT OR PUSH2 0x2823 JUMPI JUMPDEST PUSH1 0x40 MSTORE PUSH1 0x40 DUP3 MSTORE PUSH32 0x6768696A6B6C6D6E6F707172737475767778797A303132333435363738392B2F PUSH1 0x40 DUP4 PUSH32 0x4142434445464748494A4B4C4D4E4F505152535455565758595A616263646566 PUSH1 0x20 DUP3 ADD MSTORE ADD MSTORE JUMP JUMPDEST PUSH2 0x282B PUSH2 0xE00 JUMP JUMPDEST PUSH2 0x27CE JUMP JUMPDEST DUP1 MLOAD ISZERO PUSH2 0x2910 JUMPI PUSH2 0x283F PUSH2 0x27B2 JUMP JUMPDEST PUSH2 0x285B PUSH2 0x2856 PUSH2 0x284F DUP5 MLOAD PUSH2 0x1C81 JUMP JUMPDEST PUSH1 0x3 SWAP1 DIV SWAP1 JUMP JUMPDEST PUSH2 0x2654 JUMP JUMPDEST SWAP2 PUSH2 0x286D PUSH2 0x2868 DUP5 PUSH2 0x1C8F JUMP JUMPDEST PUSH2 0x255E JUMP JUMPDEST SWAP3 DUP4 MSTORE DUP1 DUP2 MLOAD DUP3 ADD SWAP1 PUSH1 0x20 DUP6 ADD SWAP4 JUMPDEST DUP3 DUP3 LT PUSH2 0x28BE JUMPI POP POP POP PUSH1 0x3 SWAP1 MLOAD MOD DUP1 PUSH1 0x1 EQ PUSH2 0x28AD JUMPI PUSH1 0x2 EQ PUSH2 0x289E JUMPI POP SWAP1 JUMP JUMPDEST PUSH1 0x3D PUSH1 0xF8 SHL PUSH1 0x0 NOT SWAP1 SWAP2 ADD MSTORE SWAP1 JUMP JUMPDEST POP PUSH2 0x3D3D PUSH1 0xF0 SHL PUSH1 0x1 NOT SWAP1 SWAP2 ADD MSTORE SWAP1 JUMP JUMPDEST SWAP1 SWAP2 SWAP4 PUSH1 0x4 SWAP1 PUSH1 0x3 DUP1 SWAP5 ADD SWAP4 DUP5 MLOAD PUSH1 0x1 SWAP1 PUSH1 0x3F SWAP1 DUP3 DUP3 DUP3 PUSH1 0x12 SHR AND DUP9 ADD ADD MLOAD DUP6 MSTORE8 DUP3 DUP3 DUP3 PUSH1 0xC SHR AND DUP9 ADD ADD MLOAD DUP4 DUP7 ADD MSTORE8 DUP3 DUP3 DUP3 PUSH1 0x6 SHR AND DUP9 ADD ADD MLOAD PUSH1 0x2 DUP7 ADD MSTORE8 AND DUP6 ADD ADD MLOAD SWAP1 DUP3 ADD MSTORE8 ADD SWAP4 SWAP2 SWAP1 PUSH2 0x287C JUMP JUMPDEST POP PUSH2 0x318 PUSH2 0x1A4F JUMP JUMPDEST PUSH2 0x2922 SWAP1 PUSH2 0x29B5 JUMP JUMPDEST PUSH2 0x318 PUSH1 0x67 PUSH1 0x40 MLOAD DUP1 SWAP4 PUSH32 0x3C7376672077696474683D2234303022206865696768743D223430302220786D PUSH1 0x20 DUP4 ADD MSTORE PUSH32 0x6C6E733D22687474703A2F2F7777772E77332E6F72672F323030302F73766722 PUSH1 0x40 DUP4 ADD MSTORE PUSH1 0x1F PUSH1 0xF9 SHL PUSH1 0x60 DUP4 ADD MSTORE PUSH2 0x2996 DUP2 MLOAD DUP1 SWAP3 PUSH1 0x20 PUSH1 0x61 DUP7 ADD SWAP2 ADD PUSH2 0x2BF JUMP JUMPDEST DUP2 ADD PUSH6 0x1E17B9BB339F PUSH1 0xD1 SHL PUSH1 0x61 DUP3 ADD MSTORE SUB PUSH1 0x47 DUP2 ADD DUP5 MSTORE ADD DUP3 PUSH2 0xE78 JUMP JUMPDEST PUSH2 0x29E1 PUSH2 0x29D5 PUSH2 0x29D5 PUSH2 0x29D5 PUSH2 0xF9F DUP6 PUSH1 0x0 MSTORE PUSH1 0xC PUSH1 0x20 MSTORE PUSH1 0x40 PUSH1 0x0 KECCAK256 SWAP1 JUMP JUMPDEST PUSH1 0x1 PUSH1 0x1 PUSH1 0xA0 SHL SUB AND SWAP1 JUMP JUMPDEST PUSH1 0x40 MLOAD PUSH4 0x378DE45B PUSH1 0xE0 SHL DUP2 MSTORE PUSH1 0x4 DUP2 ADD DUP4 SWAP1 MSTORE PUSH1 0x20 SWAP2 SWAP1 PUSH2 0x2A1A SWAP1 DUP4 DUP2 PUSH1 0x24 DUP2 DUP7 GAS STATICCALL SWAP1 DUP2 ISZERO PUSH2 0x5100 JUMPI JUMPDEST PUSH1 0x0 SWAP2 PUSH2 0x50E9 JUMPI POP PUSH2 0x5256 JUMP JUMPDEST PUSH1 0x40 MLOAD PUSH4 0x33C71805 PUSH1 0xE1 SHL DUP2 MSTORE PUSH1 0x4 DUP2 ADD DUP6 SWAP1 MSTORE PUSH2 0x2A4F SWAP1 DUP5 DUP2 PUSH1 0x24 DUP2 DUP8 GAS STATICCALL SWAP1 DUP2 ISZERO PUSH2 0x50DC JUMPI JUMPDEST PUSH1 0x0 SWAP2 PUSH2 0x50C5 JUMPI POP PUSH2 0x5256 JUMP JUMPDEST SWAP2 PUSH2 0x2A59 SWAP1 PUSH2 0x510D JUMP JUMPDEST SWAP4 PUSH2 0x2A63 SWAP1 PUSH2 0x186D JUMP JUMPDEST PUSH2 0x2A6C SWAP1 PUSH2 0x510D JUMP JUMPDEST PUSH1 0x40 MLOAD SWAP5 DUP6 SWAP5 DUP6 ADD PUSH2 0x3D59 SWAP1 PUSH2 0xF7F SWAP1 PUSH32 0x3C646566733E3C7374796C653E40666F6E742D666163657B666F6E742D66616D DUP2 MSTORE PUSH32 0x696C793A225065726D616E656E74204D61726B6572223B7372633A75726C2864 PUSH1 0x20 DUP3 ADD MSTORE PUSH32 0x6174613A6170706C69636174696F6E2F666F6E742D776F66663B636861727365 PUSH1 0x40 DUP3 ADD MSTORE PUSH32 0x743D7574662D383B6261736536342C6430394752674142414141414141723441 PUSH1 0x60 DUP3 ADD MSTORE PUSH32 0x41304141414141442F6741415142434141414141414141414141414141414141 PUSH1 0x80 DUP3 ADD MSTORE PUSH32 0x414141414141414141425055793879414141424D414141414538414141426759 PUSH1 0xA0 DUP3 ADD MSTORE PUSH32 0x624C6A59324E745958414141414741414141415767414141566F4D35414D7059 PUSH1 0xC0 DUP3 ADD MSTORE PUSH32 0x335A3049414141416477414141414341414141416741564141426D6347647441 PUSH1 0xE0 DUP3 ADD MSTORE PUSH32 0x4141423441414141506341414146686B6B48612B6D64736557594141414C5941 PUSH2 0x100 DUP3 ADD MSTORE PUSH32 0x4141466F67414142395334327A5435614756685A414141434877414141413241 PUSH2 0x120 DUP3 ADD MSTORE PUSH32 0x4141414E6768495776746F614756684141414974414141414230414141416B42 PUSH2 0x140 DUP3 ADD MSTORE PUSH32 0x483042674768746448674141416A554141414148414141414277505A2F2F3662 PUSH2 0x160 DUP3 ADD MSTORE PUSH32 0x47396A595141414350414141414151414141414541555942304A745958687741 PUSH2 0x180 DUP3 ADD MSTORE PUSH32 0x41414A41414141414234414141416741685143475735686257554141416B6741 PUSH2 0x1A0 DUP3 ADD MSTORE PUSH32 0x414142757741414131525157384D396347397A64414141437477414141415541 PUSH2 0x1C0 DUP3 ADD MSTORE PUSH32 0x41414149502B3241447077636D56774141414B38414141414163414141414861 PUSH2 0x1E0 DUP3 ADD MSTORE PUSH32 0x41614D68586963593242684D6D6163774D444B774D433068366D4C6759476842 PUSH2 0x200 DUP3 ADD MSTORE PUSH32 0x30497A336D55775A6752796D5268676F49474251563241415146635050324347 PUSH2 0x220 DUP3 ADD MSTORE PUSH32 0x427759464269436D664C2B483261775A536C676441554B677A51784D42557966 PUSH2 0x240 DUP3 ADD MSTORE PUSH32 0x514E534367774D4145373644464141654A786A594742675A6F426747515A4742 PUSH2 0x260 DUP3 ADD MSTORE PUSH32 0x6841494166495977587757426773677A6358417763414568416F4D6267782B44 PUSH2 0x280 DUP3 ADD MSTORE PUSH32 0x4D482F2F77504646426863676579672F2F2F2F502F792F392F2B322F35756865 PUSH2 0x2A0 DUP3 ADD MSTORE PUSH32 0x7147416B5932424947416B7249534267596B5A796D4142596C59695442303841 PUSH2 0x2C0 DUP3 ADD MSTORE PUSH32 0x4143366F6734534141414146514141654A78646B44314F7844415168574D5346 PUSH2 0x2E0 DUP3 ADD MSTORE PUSH32 0x6E49444A41764A493273705672626F715649346B564361734B48774E50784975 PUSH2 0x300 DUP3 ADD MSTORE PUSH32 0x784C5A4F79436C6F584842576435324B584D78424E3445566B446A3858756A2B PUSH2 0x320 DUP3 ADD MSTORE PUSH32 0x66526D6B4A67616565503351727A7A4944376634433733656672345943474D55 PUSH2 0x340 DUP3 ADD MSTORE PUSH32 0x6D586E494A347354677A45696978536F79716B793272744E6175677775306D71 PUSH2 0x360 DUP3 ADD MSTORE PUSH32 0x45713950472B514C616361473976413177704A36377634336E744377664C3433 PUSH2 0x380 DUP3 ADD MSTORE PUSH32 0x544C665747514854445A68416B6641376875776D7742782F735069314E514B36 PUSH2 0x3A0 DUP3 ADD MSTORE PUSH32 0x56586A377A78364A3145346C6B5371784E68346A453453733858696D44485731 PUSH2 0x3C0 DUP3 ADD MSTORE PUSH32 0x2B3569546E746D7346685A6E4D2B4531714F515344694557576C434834494D63 PUSH2 0x3E0 DUP3 ADD MSTORE PUSH32 0x594D665066375667306A2B473856764931366748455466544A31656B7A77596D PUSH2 0x400 DUP3 ADD MSTORE PUSH32 0x6A5446684F7773636C4F33766F77526965305835574272584142346E48565653 PUSH2 0x420 DUP3 ADD MSTORE PUSH32 0x61386A3152583275664E55743062663876544B30334E562B2F48617A2F304747 PUSH2 0x440 DUP3 ADD MSTORE PUSH32 0x3770704E3639424345545343566B45435345577655445A52454C4A6868334C52 PUSH2 0x460 DUP3 ADD MSTORE PUSH32 0x454C38672F794E38414E677953714C6941314C64694151456B703265546C5668 PUSH2 0x480 DUP3 ADD MSTORE PUSH32 0x695775737374317A78322F345A78653731632B304E4E332F79582F494E2F302F PUSH2 0x4A0 DUP3 ADD MSTORE PUSH32 0x74377237546651624F6A2B514A73446C416536332B4366396E55664C712F4331 PUSH2 0x4C0 DUP3 ADD MSTORE PUSH32 0x58563963316E4272716D674442364B306E4E5A65394A346B454755596263506F PUSH2 0x4E0 DUP3 ADD MSTORE PUSH32 0x6C2F5266515853302B594D476C484C6574464644365138774C364E3062326E55 PUSH2 0x500 DUP3 ADD MSTORE PUSH32 0x74524C4478743455636D4953456B70305A6F54515A564D736C796C73574C434C PUSH2 0x520 DUP3 ADD MSTORE PUSH32 0x64626238665933627A79374173366F41694935413165584149516B363833567A PUSH2 0x540 DUP3 ADD MSTORE PUSH32 0x57366B4970383631626363364E6B48443444704A4D30635A37796F3139734A6C PUSH2 0x560 DUP3 ADD MSTORE PUSH32 0x397A4D72562F35624F6257752B3356616E67374D5437796C6C4D715648377836 PUSH2 0x580 DUP3 ADD MSTORE PUSH32 0x4D33374E6C6154337A3537593647436A4A76314F74564A6E4369774A4E536E71 PUSH2 0x5A0 DUP3 ADD MSTORE PUSH32 0x7A4A5A315532526C6245576357713170704A7951676A6C2F624852536D6F3172 PUSH2 0x5C0 DUP3 ADD MSTORE PUSH32 0x684B6C6B3451435930514B616F4E696D754469496B73746D4F43694D514C454F PUSH2 0x5E0 DUP3 ADD MSTORE PUSH32 0x4F57636A313661435349454F4A776D54523368336B6C6F7A6B7172434F65475A PUSH2 0x600 DUP3 ADD MSTORE PUSH32 0x42304864392F642F5964385458376F6658626B41424576455755454465393631 PUSH2 0x620 DUP3 ADD MSTORE PUSH32 0x7A59743671596C42793567763774753669657765774C484F4E3658752F304F6E PUSH2 0x640 DUP3 ADD MSTORE PUSH32 0x303867374B34753235455654434649447A4855692B58433479627843674A6270 PUSH2 0x660 DUP3 ADD MSTORE PUSH32 0x436A7864336F632B77686B4B64752B4F43516D54593052704B62725653385858 PUSH2 0x680 DUP3 ADD MSTORE PUSH32 0x58653853314573692F616C483436686268766462707136586665386D6847616A PUSH2 0x6A0 DUP3 ADD MSTORE PUSH32 0x795A527A433033694C455377496A6767676F576138345664344977536F674255 PUSH2 0x6C0 DUP3 ADD MSTORE PUSH32 0x32374C636A7451755A4B4F706B6E312F4846664F4847646D6B5279525A575677 PUSH2 0x6E0 DUP3 ADD MSTORE PUSH32 0x73736F696C5431757A38384F3145524663673441505252423579776F676D546C PUSH2 0x700 DUP3 ADD MSTORE PUSH32 0x36614E74674A3167774F41586769547079725467316B5331706C6C784252614D PUSH2 0x720 DUP3 ADD MSTORE PUSH32 0x494B43415130746159617A45436578776E30357168673344506B6A374D76304D PUSH2 0x740 DUP3 ADD MSTORE PUSH32 0x426D4D553430554B6359535A5950566E6E50417856415A796E486C554A755263 PUSH2 0x760 DUP3 ADD MSTORE PUSH32 0x4245784168735349536B514A70674B4850637A3437486B6B7168423656414249 PUSH2 0x780 DUP3 ADD MSTORE PUSH32 0x4B50634367354D59617356773456684D5935482F715747424156756147544E79 PUSH2 0x7A0 DUP3 ADD MSTORE PUSH32 0x3472696A72707A53416B674B4861566B6377494B432B596F466D5A6E796A3041 PUSH2 0x7C0 DUP3 ADD MSTORE PUSH32 0x61466742496138586C3655796E66362B504875662B5172386D33767236675064 PUSH2 0x7E0 DUP3 ADD MSTORE PUSH32 0x4A63495A53306B75764D365842336C557445532F5661424B4444534245394B5A PUSH2 0x800 DUP3 ADD MSTORE PUSH32 0x423266454D716A673745446B6F7A7538375438686549476659757A345179654C PUSH2 0x820 DUP3 ADD MSTORE PUSH32 0x6A3339703245697A6E462F33756C79577159615A632F6C79644E585835314F62 PUSH2 0x840 DUP3 ADD MSTORE PUSH32 0x73366E36464743414845384157654B4D795355747151532B634C4E4E4E553230 PUSH2 0x860 DUP3 ADD MSTORE PUSH32 0x6C706C777A44492F49414A495A326C7A696A516765664263594C2F6544716172 PUSH2 0x880 DUP3 ADD MSTORE PUSH32 0x7563506E7058474B4B57494E6678394E52796B434972435336374F4E796B444D PUSH2 0x8A0 DUP3 ADD MSTORE PUSH32 0x315348763333793657746D66487052436359454569537869302B694F4D4C3159 PUSH2 0x8C0 DUP3 ADD MSTORE PUSH32 0x48537A667A67642F76373568772F74624C48304A4F316E744669565A6A416F5A PUSH2 0x8E0 DUP3 ADD MSTORE PUSH32 0x485639755A75645042374635344768414C68546F7944643666757630434A6B4F PUSH2 0x900 DUP3 ADD MSTORE PUSH32 0x6F37526261526E3776364E2B653737337038364E424746712F71415542326762 PUSH2 0x920 DUP3 ADD MSTORE PUSH32 0x6F486364594231466972374C616F5636534E7178615673456353626F4A46325A PUSH2 0x940 DUP3 ADD MSTORE PUSH32 0x5A66474D466332527979524462456863674E7974794741516254584269616F66 PUSH2 0x960 DUP3 ADD MSTORE PUSH32 0x43756C6B5A4A7A436844464C6E5A2B797166624234664E344F56637863726E73 PUSH2 0x980 DUP3 ADD MSTORE PUSH32 0x6463454B47475033336C2B54354E7166724B6354706554326468365153556551 PUSH2 0x9A0 DUP3 ADD MSTORE PUSH32 0x526F546D644D5033336C68643238524B47414F4B684B724545466A7159687749 PUSH2 0x9C0 DUP3 ADD MSTORE PUSH32 0x4957336F396C30774D2F65572F4F7A50304B71776D6F357A36684E637A463965 PUSH2 0x9E0 DUP3 ADD MSTORE PUSH32 0x767434544B776176485A377964506D424E305A5238766D586971307475726D64 PUSH2 0xA00 DUP3 ADD MSTORE PUSH32 0x6E32534D7047464744656F4D632F6171686F7242734339642B42483832513050 PUSH2 0xA20 DUP3 ADD MSTORE PUSH32 0x436C41774C334C455555474F5759786E594B4F72494E2F35644E354D2B617264 PUSH2 0xA40 DUP3 ADD MSTORE PUSH32 0x48572F7179486D376966794F574C3663612B58483143516E5361764679693844 PUSH2 0xA60 DUP3 ADD MSTORE PUSH32 0x724E664D50713558496877424C4D46736B4D6152596E68665673565A4A64556C PUSH2 0xA80 DUP3 ADD MSTORE PUSH32 0x746559305459457634423135554261426550377A5161576D37617948484D6839 PUSH2 0xAA0 DUP3 ADD MSTORE PUSH32 0x6B5545304E52457238363366555632662F374C52302B5A6A7830345445574436 PUSH2 0xAC0 DUP3 ADD MSTORE PUSH32 0x503637703761617A37773978584D514F5267574E42746C43717546594F673161 PUSH2 0xAE0 DUP3 ADD MSTORE PUSH32 0x744A58336E37336E466D71792F45345568474B68684E6767496D4155794C382B PUSH2 0xB00 DUP3 ADD MSTORE PUSH32 0x73336252784D61656464366E32455247443073334341396532744A684A557866 PUSH2 0xB20 DUP3 ADD MSTORE PUSH32 0x42486E4E736D5330656B77465A6861366B726D4C76514C613464396C5567726D PUSH2 0xB40 DUP3 ADD MSTORE PUSH32 0x414F74695A486F6571476C514F445377646869436F726E656255747A312B2F61 PUSH2 0xB60 DUP3 ADD MSTORE PUSH32 0x5349736267673649537178594C476555496F7131384E52715667796D58737357 PUSH2 0xB80 DUP3 ADD MSTORE PUSH32 0x7A453255345A396F7377717859694C4255366139763450786465725151414141 PUSH2 0xBA0 DUP3 ADD MSTORE PUSH32 0x4145414141414241454A4178704157587738383951674C424141414141414179 PUSH2 0xBC0 DUP3 ADD MSTORE PUSH32 0x54564B49414141414144564B387A582F2B7A2F31514C63417538414141414A41 PUSH2 0xBE0 DUP3 ADD MSTORE PUSH32 0x41494141414141414142346E474E675A4742674B6669336D30476561652F2F4E PUSH2 0xC00 DUP3 ADD MSTORE PUSH32 0x777767774D694143746742684777464141414141414637414141426577414141 PUSH2 0xC20 DUP3 ADD MSTORE PUSH32 0x6F494143514A4E2F2B774376662F784170594143674A4F41416F414141414741 PUSH2 0xC40 DUP3 ADD MSTORE PUSH32 0x4177417A674865416F51444C675071654A786A594752675947426E324D374178 PUSH2 0xC60 DUP3 ADD MSTORE PUSH32 0x4141436A474353697748495A5577454D51455667774578414142346E4A56527A PUSH2 0xC80 DUP3 ADD MSTORE PUSH32 0x5772625142442B316E4653437133707261576E6F61656B7850727830546F4632 PUSH2 0xCA0 DUP3 ADD MSTORE PUSH32 0x7748527842696E354B346F6979796953474B6C32506A534A38674C3543333644 PUSH2 0xCC0 DUP3 ADD MSTORE PUSH32 0x44333049666F5966594A2B58692F426D4A52534C6276377A637733332B794D41 PUSH2 0xCE0 DUP3 ADD MSTORE PUSH32 0x4C7A445479687376346837697858396B634D64764D495868772F7743584F4875 PUSH2 0xD00 DUP3 ADD MSTORE PUSH32 0x2F694131754644764D576A773064346A796548652F694D37387853336465306C PUSH2 0xD20 DUP3 ADD MSTORE PUSH32 0x766A6C73494B6F6D634D643946547438414847367076445851547168384F482B PUSH2 0xD40 DUP3 ADD MSTORE PUSH32 0x4B682B4F337745722F50473452362B646F616A716C3662504675306370796579 PUSH2 0xD60 DUP3 ADD MSTORE PUSH32 0x43414941376C5A79336C56746A4C4F5332314F4A5335545438364B5169797445 PUSH2 0xD80 DUP3 ADD MSTORE PUSH32 0x614D62625A62363170747063352B556D737A4C784E78704D39665A5135475930 PUSH2 0xDA0 DUP3 ADD MSTORE PUSH32 0x4175434D42724830336E307A4E67532B6F36786E796A4F6636314E6B31656C57 PUSH2 0xDC0 DUP3 ADD MSTORE PUSH32 0x49572F35433761746837362F6D7131387049365352666171307A6D46336D7179 PUSH2 0xDE0 DUP3 ADD MSTORE PUSH32 0x3059332F6B55386D6B79764A76324246324345436A58574D4D69525963463543 PUSH2 0xE00 DUP3 ADD MSTORE PUSH32 0x343652346F5433414146436273454E47594A7A636B764C474A4E64516A50726C PUSH2 0xE20 DUP3 ADD MSTORE PUSH32 0x465A4D6E4D496A4F6B50424A5474716A6255303777313779664F577A4A6D3137 PUSH2 0xE40 DUP3 ADD MSTORE PUSH32 0x7046596C61336D4A5332444F78755A38387A77514B324E4C325247594E385373 PUSH2 0xE60 DUP3 ADD MSTORE PUSH32 0x584B4D4B65505243787137437630396A5839566C44332B746655323747505473 PUSH2 0xE80 DUP3 ADD MSTORE PUSH32 0x2B793834662F71626D625163734A442B467772757A7847617536555555327249 PUSH2 0xEA0 DUP3 ADD MSTORE PUSH32 0x69396A7447433131476F32646D492B4C746A7443424E32664D577A7A7A2F4356 PUSH2 0xEC0 DUP3 ADD MSTORE PUSH32 0x2F7742334B696B477742346E474E675A6743442F35735A6A426B77415473414C PUSH2 0xEE0 DUP3 ADD MSTORE PUSH32 0x4C4142384C67422F345777424930412920666F726D61742822776F666622293B PUSH2 0xF00 DUP3 ADD MSTORE PUSH32 0x20666F6E742D7765696768743A6E6F726D616C3B666F6E742D7374796C653A6E PUSH2 0xF20 DUP3 ADD MSTORE PUSH32 0x6F726D616C3B7D3C2F7374796C653E3C2F646566733E3C636972636C65206378 PUSH2 0xF40 DUP3 ADD MSTORE PUSH32 0x3D22323030222063793D223230302220723D22313730222066696C6C3D222300 PUSH2 0xF60 DUP3 ADD MSTORE ADD SWAP1 JUMP JUMPDEST PUSH2 0x3D63 SWAP1 DUP3 PUSH2 0x24C2 JUMP JUMPDEST PUSH32 0x222F3E2C3C67207472616E73666F726D3D226D6174726978282E373037313037 DUP2 MSTORE PUSH32 0x202D2E3730373130363738202E3730373130363738202E373037313037203136 PUSH1 0x20 DUP3 ADD MSTORE PUSH32 0x203135332922207374726F6B653D226E6F6E65222066696C6C2D72756C653D22 PUSH1 0x40 DUP3 ADD MSTORE PUSH32 0x6E6F6E7A65726F223E3C7061746820643D224D3139362E32353132203233332E PUSH1 0x60 DUP3 ADD MSTORE PUSH32 0x35353563382E33303039203020392E383236332D362E3939313320382E313337 PUSH1 0x80 DUP3 ADD MSTORE PUSH32 0x322D31322E32342D312E363335312D352E303931352D362E353338382D392E32 PUSH1 0xA0 DUP3 ADD MSTORE PUSH32 0x3034312D31362E313435362D31332E343334322D31382E363531342D382E3138 PUSH1 0xC0 DUP3 ADD MSTORE PUSH32 0x36372D34342E393132342D31352E333733372D34342E393132342D31372E3838 PUSH1 0xE0 DUP3 ADD MSTORE PUSH32 0x31337331312E323539352D2E3636352032352E3935322D332E34363539633131 PUSH2 0x100 DUP3 ADD MSTORE PUSH32 0x2E313530342D322E313334322031322E3230342D362E343433342031332E3632 PUSH2 0x120 DUP3 ADD MSTORE PUSH32 0x31352D31332E3932343720312E363839312D382E383531362D342E303638392D PUSH2 0x140 DUP3 ADD MSTORE PUSH32 0x31352E353439332D342E303638392D31352E3534393373392E383938382D332E PUSH2 0x160 DUP3 ADD MSTORE PUSH32 0x3931373820392E383938382D31362E3039392D31312E343035372D31372E3634 PUSH2 0x180 DUP3 ADD MSTORE PUSH32 0x35332D31312E343035372D31372E3634353320342E363636382D332E30373437 PUSH2 0x1A0 DUP3 ADD MSTORE PUSH32 0x20352E3836362D31302E3234323563312E343839342D382E383331392D342E34 PUSH2 0x1C0 DUP3 ADD MSTORE PUSH32 0x3836352D31362E363636322D31322E363034352D32322E353231392D362E3834 PUSH2 0x1E0 DUP3 ADD MSTORE PUSH32 0x36372D342E393335322D31352E353237392D392E333631342D32312E39373431 PUSH2 0x200 DUP3 ADD MSTORE PUSH32 0x2D31322E303434362D352E353339332D322E333130322D392E363939342D332E PUSH2 0x220 DUP3 ADD MSTORE PUSH32 0x3933362D32332E333031392D332E373630322D31302E393531372E313337322D PUSH2 0x240 DUP3 ADD MSTORE PUSH32 0x31362E333038312D2E323135332D31372E3134342D332E393935312D2E363335 PUSH2 0x260 DUP3 ADD MSTORE PUSH32 0x362D322E3832303220312E363334372D352E3733383220332E3930342D31322E PUSH2 0x280 DUP3 ADD MSTORE PUSH32 0x3832373520322E383135372D382E373333392031302E303434312D33312E3235 PUSH2 0x2A0 DUP3 ADD MSTORE PUSH32 0x362D332E303837342D35312E333530332D352E303438312D372E373135352D31 PUSH2 0x2C0 DUP3 ADD MSTORE PUSH32 0x382E313234352D372E3539382D32302E373735362D342E393134382D352E3034 PUSH2 0x2E0 DUP3 ADD MSTORE PUSH32 0x393720352E3131303820312E353235332031352E333333382D312E3938203333 PUSH2 0x300 DUP3 ADD MSTORE PUSH32 0x2E3634352D322E343135312031322E363332312D352E333231342032312E3234 PUSH2 0x320 DUP3 ADD MSTORE PUSH32 0x392D31372E323136342033302E393832342D362E3836363120352E363230372D PUSH2 0x340 DUP3 ADD MSTORE PUSH32 0x32322E303835342031342E3936332D33332E383335362033302E363239372D34 PUSH2 0x360 DUP3 ADD MSTORE PUSH32 0x2E3335383720352E373937392D31372E3934323820342E373030342D32352E35 PUSH2 0x380 DUP3 ADD MSTORE PUSH32 0x33343820332E353635322D332E3033322D2E343530372D352E3838343120312E PUSH2 0x3A0 DUP3 ADD MSTORE PUSH32 0x373232372D362E3438333120342E393733392D362E303330312033322E333932 PUSH2 0x3C0 DUP3 ADD MSTORE PUSH32 0x322D312E393433332036362E323533342E303930352037392E333136352E3439 PUSH2 0x3E0 DUP3 ADD MSTORE PUSH32 0x313120332E3137323620332E3134323320352E3432343520362E313230382035 PUSH2 0x400 DUP3 ADD MSTORE PUSH32 0x2E3138393520362E373733372D2E353038362031382E323532362D312E323932 PUSH2 0x420 DUP3 ADD MSTORE PUSH32 0x352032312E383131392D2E3836313120372E313733382E383631312032312E39 PUSH2 0x440 DUP3 ADD MSTORE PUSH32 0x3338392031322E343535322034322E313639382031382E363233392031372E39 PUSH2 0x460 DUP3 ADD MSTORE PUSH32 0x36313520352E343833382034332E353135352031302E353535392035342E3933 PUSH2 0x480 DUP3 ADD MSTORE PUSH32 0x38372031312E323431337335392E383431312031342E353930332036372E3935 PUSH2 0x4A0 DUP3 ADD MSTORE PUSH32 0x38382031342E353930337A222066696C6C3D2223666663613238222F3E3C7061 PUSH2 0x4C0 DUP3 ADD MSTORE PUSH32 0x746820643D224D3133312E323135392037342E373836762E3331343163362E39 PUSH2 0x4E0 DUP3 ADD MSTORE PUSH32 0x3536362E303139322031332E3232313920372E303530322031322E3936373720 PUSH2 0x500 DUP3 ADD MSTORE PUSH32 0x31342E353531322D2E333120382E373333362D31312E363233342031322E3331 PUSH2 0x520 DUP3 ADD MSTORE PUSH32 0x38362D372E333138382032342E363735362E3837303620322E35323531203131 PUSH2 0x540 DUP3 ADD MSTORE PUSH32 0x2E3435393720362E3639373620382E383631362031392E323531322D322E3132 PUSH2 0x560 DUP3 ADD MSTORE PUSH32 0x34342031302E323832372D31302E3036313420392E353536322D31302E303631 PUSH2 0x580 DUP3 ADD MSTORE PUSH32 0x342031342E37303731203020382E3733353920392E343632342031342E353730 PUSH2 0x5A0 DUP3 ADD MSTORE PUSH32 0x342031302E313334352032342E35313937732D342E303637372031312E353334 PUSH2 0x5C0 DUP3 ADD MSTORE PUSH32 0x352D332E373432312031342E39383238632E3233363820322E3534363620312E PUSH2 0x5E0 DUP3 ADD MSTORE PUSH32 0x3237323920332E3436353220312E3237323920322E3139343120302D322E3530 PUSH2 0x600 DUP3 ADD MSTORE PUSH32 0x38322031312E323539342D2E363636362032352E3935312D332E343637352031 PUSH2 0x620 DUP3 ADD MSTORE PUSH32 0x312E313531342D322E313334322031322E323034392D362E343433342031332E PUSH2 0x640 DUP3 ADD MSTORE PUSH32 0x363232342D31332E3932353220312E363839312D382E383531312D342E303639 PUSH2 0x660 DUP3 ADD MSTORE PUSH32 0x352D31352E353438382D342E303639352D31352E3534383873392E383939352D PUSH2 0x680 DUP3 ADD MSTORE PUSH32 0x332E3931383320392E383939352D31362E303937392D31312E343035372D3137 PUSH2 0x6A0 DUP3 ADD MSTORE PUSH32 0x2E363436392D31312E343035372D31372E3634363920342E363636372D332E30 PUSH2 0x6C0 DUP3 ADD MSTORE PUSH32 0x37343320352E383634372D31302E32343263312E343930362D382E383331392D PUSH2 0x6E0 DUP3 ADD MSTORE PUSH32 0x342E343835362D31362E363636322D31322E363033372D32322E353232312D36 PUSH2 0x700 DUP3 ADD MSTORE PUSH32 0x2E383436392D342E393335312D31352E353237342D392E333631382D32312E39 PUSH2 0x720 DUP3 ADD MSTORE PUSH32 0x3733372D31322E303432392D342E3633322D312E39342D382E333337362D332E PUSH2 0x740 DUP3 ADD MSTORE PUSH32 0x333838342D31372E333939342D332E373032357A222066696C6C3D2223666662 PUSH2 0x760 DUP3 ADD MSTORE PUSH32 0x333030222F3E3C7061746820643D224D3133352E33303232203135302E393330 PUSH2 0x780 DUP3 ADD MSTORE PUSH32 0x34632D2E313633362D342E313332382E3039312D352E3236383220322E313037 PUSH2 0x7A0 DUP3 ADD MSTORE PUSH32 0x312D352E3831373373352E373032382E3939393820352E373032382E39393938 PUSH2 0x7C0 DUP3 ADD MSTORE PUSH32 0x6331342E383535332D312E333532342033302E3839323820322E303535322033 PUSH2 0x7E0 DUP3 ADD MSTORE PUSH32 0x352E373430382031302E39323737203020302D32332E3630392D312E38363037 PUSH2 0x800 DUP3 ADD MSTORE PUSH32 0x2D33322E343732332D312E333532332D362E393534392E343132322D31302E38 PUSH2 0x820 DUP3 ADD MSTORE PUSH32 0x3738312E343839322D31312E303738342D342E373537397A6D34322E30343333 PUSH2 0x840 DUP3 ADD MSTORE PUSH32 0x2D32372E36313435632D31342E353130342D352E343634372D33312E34373337 PUSH2 0x860 DUP3 ADD MSTORE PUSH32 0x2D362E343433322D33362E3438362D362E343433322D372E3131393320302D35 PUSH2 0x880 DUP3 ADD MSTORE PUSH32 0x2E373536382D31312E363732372D322E373234342D31332E3836353820322E30 PUSH2 0x8A0 DUP3 ADD MSTORE PUSH32 0x3838392D2E3932303320342E3535383120322E3331303620362E353031352033 PUSH2 0x8C0 DUP3 ADD MSTORE PUSH32 0x2E3037343820352E3737353920322E323930382033302E3138343120332E3734 PUSH2 0x8E0 DUP3 ADD MSTORE PUSH32 0x30372033322E373038392031372E323334327A6D2E39323633203130392E3539 PUSH2 0x900 DUP3 ADD MSTORE PUSH32 0x3339632D32362E363432332D352E303931342D36322E3134382D31352E313937 PUSH2 0x920 DUP3 ADD MSTORE PUSH32 0x382D39302E333334382D31392E313134362D32302E373339332D322E3837382D PUSH2 0x940 DUP3 ADD MSTORE PUSH32 0x33322E333435322D31312E353334362D34312E303830312D31362E3339322D34 PUSH2 0x960 DUP3 ADD MSTORE PUSH32 0x2E393232332D322E373431372D382E383038392D342E393134372D31322E3731 PUSH2 0x980 DUP3 ADD MSTORE PUSH32 0x332D352E393732322D31302E333334342D322E383230352D31382E323839312D PUSH2 0x9A0 DUP3 ADD MSTORE PUSH32 0x312E323334372D32342E373335362D312E34383973372E373534322D31302E30 PUSH2 0x9C0 DUP3 ADD MSTORE PUSH32 0x3237352032362E343937322D362E3035323363342E3735382E3939393820392E PUSH2 0x9E0 DUP3 ADD MSTORE PUSH32 0x3133353320332E373430392031342E3235363820362E3539393920382E383236 PUSH2 0xA00 DUP3 ADD MSTORE PUSH32 0x3220342E393136312031392E363134332031322E3234312033392E3331393320 PUSH2 0xA20 DUP3 ADD MSTORE PUSH32 0x31352E373036342031312E3034313720312E393539312032372E383034382033 PUSH2 0xA40 DUP3 ADD MSTORE PUSH32 0x2E393536362034332E3535303520382E323235312031322E3432323720332E33 PUSH2 0xA60 DUP3 ADD MSTORE PUSH32 0x352034362E393635332031352E323137382035382E393837342031362E383035 PUSH2 0xA80 DUP3 ADD MSTORE PUSH32 0x3120362E313537342E383232372031312E3538372D2E393830352031312E3630 PUSH2 0xAA0 DUP3 ADD MSTORE PUSH32 0x362D2E39383035203020302D312E3033363120322E363634312D352E32333039 PUSH2 0xAC0 DUP3 ADD MSTORE PUSH32 0x20342E303134392D342E3436373920312E34352D392E373136372E363436372D PUSH2 0xAE0 DUP3 ADD MSTORE PUSH32 0x32302E313232382D312E333530387A6D2D36322E303735332D3135382E333031 PUSH2 0xB00 DUP3 ADD MSTORE PUSH32 0x632D332E373737312E353837352D31312E3938362D322E303535322D382E3537 PUSH2 0xB20 DUP3 ADD MSTORE PUSH32 0x32342D31302E39343720352E383132322D31352E3131393420362E323834332D PUSH2 0xB40 DUP3 ADD MSTORE PUSH32 0x32302E3334373220362E303437362D33352E353435372D2E313831322D31302E PUSH2 0xB60 DUP3 ADD MSTORE PUSH32 0x383839342D332E333035322D31382E323332322D352E363437342D32322E3637 PUSH2 0xB80 DUP3 ADD MSTORE PUSH32 0x3831203020302031382E383531362031332E3730393420392E33313632203536 PUSH2 0xBA0 DUP3 ADD MSTORE PUSH32 0x2E353430342D312E3339383220362E323237362D312E3134342031322E363330 PUSH2 0xBC0 DUP3 ADD MSTORE PUSH32 0x342D312E3134342031322E363330347A6D36312E30353836203130392E313434 PUSH2 0xBE0 DUP3 ADD MSTORE PUSH32 0x31732D342E3238353420322E383339332D31302E3036313420352E3031343263 PUSH2 0xC00 DUP3 ADD MSTORE PUSH32 0x2D352E3739333420322E313732372D31352E3431393520332E393935312D3139 PUSH2 0xC20 DUP3 ADD MSTORE PUSH32 0x2E32333320342E30313433732D382E3335352D342E333238342D352E30383437 PUSH2 0xC40 DUP3 ADD MSTORE PUSH32 0x2D352E3935343263332E323531312D312E363034342033342E333739312D332E PUSH2 0xC60 DUP3 ADD MSTORE PUSH32 0x303734332033342E333739312D332E303734337A222066696C6C3D2223656461 PUSH2 0xC80 DUP3 ADD MSTORE PUSH10 0x1B181811179F1E17B39F PUSH1 0xB1 SHL PUSH2 0xCA0 DUP3 ADD MSTORE PUSH2 0xCAA ADD PUSH32 0x3C706F6C79676F6E20706F696E74733D223230302C3335392038302C32323020 DUP2 MSTORE PUSH32 0x39382C313935203230302C323536222066696C6C3D2223000000000000000000 PUSH1 0x20 DUP3 ADD MSTORE PUSH1 0x37 ADD PUSH2 0x4D28 SWAP2 PUSH2 0x24C2 JUMP JUMPDEST PUSH3 0x11179F PUSH1 0xE9 SHL DUP2 MSTORE PUSH1 0x3 ADD PUSH32 0x3C706F6C79676F6E20706F696E74733D223230302C3335392039382C32313520 DUP2 MSTORE PUSH32 0x3230302C323736222066696C6C3D222338633863386322202F3E000000000000 PUSH1 0x20 DUP3 ADD MSTORE PUSH1 0x3A ADD PUSH32 0x3C706F6C79676F6E20706F696E74733D223230302C333539203330322C323135 DUP2 MSTORE PUSH32 0x203230302C323736222066696C6C3D222333633363336222202F3E0000000000 PUSH1 0x20 DUP3 ADD MSTORE PUSH1 0x3B ADD PUSH32 0x3C7465787420666F6E742D73697A653D223132322220783D22352220793D2232 DUP2 MSTORE PUSH32 0x34302220666F6E742D66616D696C793D225065726D616E656E74204D61726B65 PUSH1 0x20 DUP3 ADD MSTORE PUSH32 0x722220206F7061636974793D222E34222066696C6C3D22230000000000000000 PUSH1 0x40 DUP3 ADD MSTORE PUSH1 0x58 ADD PUSH2 0x4E48 SWAP1 DUP3 PUSH2 0x24C2 JUMP JUMPDEST PUSH14 0x111F232922A7299E17BA32BC3A1F PUSH1 0x91 SHL DUP2 MSTORE PUSH1 0xE ADD PUSH32 0x3C7465787420666F6E742D73697A653D223132322220783D22352220793D2232 DUP2 MSTORE PUSH32 0x34302220666F6E742D66616D696C793D225065726D616E656E74204D61726B65 PUSH1 0x20 DUP3 ADD MSTORE PUSH32 0x72222066696C6C3D226E6F6E652220207374726F6B652D77696474683D223222 PUSH1 0x40 DUP3 ADD MSTORE PUSH10 0x207374726F6B653D2223 PUSH1 0xB0 SHL PUSH1 0x60 DUP3 ADD MSTORE PUSH1 0x6A ADD PUSH2 0x4EED SWAP2 PUSH2 0x24C2 JUMP JUMPDEST PUSH32 0x223E4652454E533C2F746578743E3C7465787420666F6E742D73697A653D2235 DUP2 MSTORE PUSH32 0x302220746578742D616E63686F723D226D6964646C652220783D223230302220 PUSH1 0x20 DUP3 ADD MSTORE PUSH32 0x793D22313335222066696C6C3D222346463639423422207374726F6B653D2223 PUSH1 0x40 DUP3 ADD MSTORE PUSH32 0x3030454446352220666F6E742D7765696768743D22426F6C642220666F6E742D PUSH1 0x60 DUP3 ADD MSTORE PUSH32 0x66616D696C793D2253616E732D536572696622206F7061636974793D222E3822 PUSH1 0x80 DUP3 ADD MSTORE PUSH1 0x1F PUSH1 0xF9 SHL PUSH1 0xA0 DUP3 ADD MSTORE PUSH1 0xA1 ADD PUSH2 0x4FBE SWAP2 PUSH2 0x24C2 JUMP JUMPDEST PUSH4 0x408AE8D PUSH1 0xE3 SHL DUP2 MSTORE PUSH1 0x4 ADD PUSH7 0x1E17BA32BC3A1F PUSH1 0xC9 SHL DUP2 MSTORE PUSH1 0x7 ADD PUSH32 0x3C7465787420666F6E742D73697A653D2232352220746578742D616E63686F72 DUP2 MSTORE PUSH32 0x3D226D6964646C652220783D223230302220793D22333030222066696C6C3D22 PUSH1 0x20 DUP3 ADD MSTORE PUSH32 0x2346463639423422207374726F6B653D22233030454446352220666F6E742D77 PUSH1 0x40 DUP3 ADD MSTORE PUSH32 0x65696768743D22426F6C642220666F6E742D66616D696C793D2253616E732D53 PUSH1 0x60 DUP3 ADD MSTORE PUSH7 0x32B934B311101F PUSH1 0xC9 SHL PUSH1 0x80 DUP3 ADD MSTORE PUSH1 0x87 ADD PUSH2 0x508C SWAP2 PUSH2 0x24C2 JUMP JUMPDEST PUSH14 0x2045746820436C61696D61626C65 PUSH1 0x90 SHL DUP2 MSTORE PUSH1 0xE ADD PUSH7 0x1E17BA32BC3A1F PUSH1 0xC9 SHL DUP2 MSTORE PUSH1 0x7 ADD SUB PUSH1 0x1F NOT DUP2 ADD DUP3 MSTORE PUSH2 0x318 SWAP1 DUP3 PUSH2 0xE78 JUMP JUMPDEST PUSH2 0x1607 SWAP2 POP DUP6 RETURNDATASIZE DUP8 GT PUSH2 0x160D JUMPI PUSH2 0x15FF DUP2 DUP4 PUSH2 0xE78 JUMP JUMPDEST PUSH2 0x50E4 PUSH2 0x1EF2 JUMP JUMPDEST PUSH2 0x2A42 JUMP JUMPDEST PUSH2 0x1607 SWAP2 POP DUP5 RETURNDATASIZE DUP7 GT PUSH2 0x160D JUMPI PUSH2 0x15FF DUP2 DUP4 PUSH2 0xE78 JUMP JUMPDEST PUSH2 0x5108 PUSH2 0x1EF2 JUMP JUMPDEST PUSH2 0x2A0D JUMP JUMPDEST PUSH1 0x40 MLOAD PUSH1 0x20 DUP2 ADD SWAP2 PUSH12 0xFFFFFFFFFFFFFFFFFFFFFFFF NOT SWAP1 PUSH1 0x60 SHL AND DUP3 MSTORE PUSH1 0x14 DUP2 MSTORE PUSH2 0x5137 DUP2 PUSH2 0xE40 JUMP JUMPDEST MLOAD SWAP1 KECCAK256 PUSH1 0xFF PUSH1 0xE8 SHL DUP2 PUSH1 0x2 BYTE PUSH1 0xE8 SHL AND SWAP1 PUSH1 0xFF PUSH1 0xF0 SHL DUP2 PUSH1 0x1 BYTE PUSH1 0xF0 SHL AND SWAP1 PUSH1 0xFF PUSH1 0xF8 SHL SWAP1 PUSH1 0x0 BYTE PUSH1 0xF8 SHL AND OR OR SWAP1 PUSH1 0x40 MLOAD PUSH2 0x5172 DUP2 PUSH2 0xE40 JUMP JUMPDEST PUSH1 0x6 DUP2 MSTORE PUSH1 0x20 CALLDATASIZE DUP2 DUP4 ADD CALLDATACOPY PUSH1 0x0 JUMPDEST PUSH1 0x3 DUP2 LT PUSH2 0x518D JUMPI POP SWAP2 POP JUMP JUMPDEST PUSH2 0x51FF SWAP1 PUSH1 0xF DUP6 DUP3 BYTE DUP2 DUP2 AND SWAP2 PUSH1 0x10 SWAP2 DUP3 DUP5 LT ISZERO PUSH2 0x5211 JUMPI JUMPDEST PUSH16 0x181899199A1A9B1B9C1CB0B131B232B3 PUSH1 0x81 SHL SWAP4 DUP5 SWAP1 BYTE PUSH2 0x51D8 PUSH2 0x51D2 PUSH2 0x51CD DUP9 PUSH2 0x2679 JUMP JUMPDEST PUSH2 0x1C73 JUMP JUMPDEST DUP10 PUSH2 0x2590 JUMP JUMPDEST MSTORE8 PUSH1 0x4 SHR AND SWAP1 DUP2 LT ISZERO PUSH2 0x5204 JUMPI JUMPDEST BYTE PUSH2 0x51F9 PUSH2 0x51F3 DUP4 PUSH2 0x2679 JUMP JUMPDEST DUP6 PUSH2 0x2590 JUMP JUMPDEST MSTORE8 PUSH2 0x23B4 JUMP JUMPDEST PUSH2 0x5180 JUMP JUMPDEST PUSH2 0x520C PUSH2 0x202C JUMP JUMPDEST PUSH2 0x51E6 JUMP JUMPDEST PUSH2 0x5219 PUSH2 0x202C JUMP JUMPDEST PUSH2 0x51A6 JUMP JUMPDEST SWAP1 PUSH2 0x1A89 PUSH1 0x21 PUSH1 0x40 MLOAD DUP1 SWAP5 PUSH1 0x3 PUSH1 0xFC SHL PUSH1 0x20 DUP4 ADD MSTORE PUSH2 0x5246 DUP2 MLOAD DUP1 SWAP3 PUSH1 0x20 DUP7 DUP7 ADD SWAP2 ADD PUSH2 0x2BF JUMP JUMPDEST DUP2 ADD SUB PUSH1 0x1 DUP2 ADD DUP6 MSTORE ADD DUP4 PUSH2 0xE78 JUMP JUMPDEST PUSH6 0x5AF3107A4000 PUSH8 0xDE0B6B3A7640000 PUSH2 0x5271 DUP2 DUP5 DIV PUSH2 0x548E JUMP JUMPDEST SWAP3 MOD DIV SWAP1 PUSH2 0x527E DUP3 PUSH2 0x548E JUMP JUMPDEST SWAP2 PUSH2 0x3E8 DUP2 LT PUSH2 0x5313 JUMPI JUMPDEST PUSH1 0x64 DUP2 LT PUSH2 0x52FF JUMPI JUMPDEST PUSH1 0xA GT PUSH2 0x52E7 JUMPI JUMPDEST PUSH1 0x21 PUSH2 0x318 SWAP2 PUSH1 0x40 MLOAD SWAP4 DUP2 PUSH2 0x52B9 DUP7 SWAP4 MLOAD DUP1 SWAP3 PUSH1 0x20 DUP1 DUP8 ADD SWAP2 ADD PUSH2 0x2BF JUMP JUMPDEST DUP3 ADD PUSH1 0x17 PUSH1 0xF9 SHL PUSH1 0x20 DUP3 ADD MSTORE PUSH2 0x52D8 DUP3 MLOAD DUP1 SWAP4 PUSH1 0x20 DUP8 DUP6 ADD SWAP2 ADD PUSH2 0x2BF JUMP JUMPDEST ADD SUB PUSH1 0x1 DUP2 ADD DUP5 MSTORE ADD DUP3 PUSH2 0xE78 JUMP JUMPDEST SWAP1 PUSH1 0x21 PUSH2 0x52F6 PUSH2 0x318 SWAP3 PUSH2 0x521E JUMP JUMPDEST SWAP3 SWAP2 POP POP PUSH2 0x529A JUMP JUMPDEST SWAP2 PUSH2 0x530B PUSH1 0xA SWAP2 PUSH2 0x521E JUMP JUMPDEST SWAP3 SWAP1 POP PUSH2 0x5292 JUMP JUMPDEST SWAP2 PUSH2 0x531D SWAP1 PUSH2 0x521E JUMP JUMPDEST SWAP2 PUSH2 0x5289 JUMP JUMPDEST SWAP1 PUSH1 0x20 SWAP1 DUP2 DUP4 DUP3 SUB SLT PUSH2 0xE JUMPI DUP3 MLOAD PUSH8 0xFFFFFFFFFFFFFFFF SWAP4 DUP5 DUP3 GT PUSH2 0xE JUMPI ADD DUP2 PUSH1 0x1F DUP3 ADD SLT ISZERO PUSH2 0xE JUMPI DUP1 MLOAD SWAP4 DUP5 GT PUSH2 0x53AD JUMPI JUMPDEST DUP4 PUSH1 0x5 SHL SWAP1 PUSH1 0x40 MLOAD SWAP5 PUSH2 0x536E DUP6 DUP5 ADD DUP8 PUSH2 0xE78 JUMP JUMPDEST DUP6 MSTORE DUP4 DUP1 DUP7 ADD SWAP3 DUP3 ADD ADD SWAP3 DUP4 GT PUSH2 0xE JUMPI DUP4 ADD SWAP1 JUMPDEST DUP3 DUP3 LT PUSH2 0x5391 JUMPI POP POP POP POP SWAP1 JUMP JUMPDEST DUP2 MLOAD PUSH4 0xFFFFFFFF DUP2 AND DUP2 SUB PUSH2 0xE JUMPI DUP2 MSTORE SWAP1 DUP4 ADD SWAP1 DUP4 ADD PUSH2 0x5383 JUMP JUMPDEST PUSH2 0x53B5 PUSH2 0xE00 JUMP JUMPDEST PUSH2 0x5359 JUMP JUMPDEST PUSH1 0x40 MLOAD PUSH4 0x4AD02EF1 PUSH1 0xE0 SHL DUP2 MSTORE SWAP2 SWAP1 PUSH1 0x0 SWAP1 PUSH1 0x1 PUSH1 0x1 PUSH1 0xA0 SHL SUB SWAP1 DUP3 SWAP1 DUP6 SWAP1 PUSH1 0x4 SWAP1 DUP3 SWAP1 DUP6 AND GAS STATICCALL SWAP4 DUP5 ISZERO PUSH2 0x5481 JUMPI JUMPDEST DUP3 SWAP5 PUSH2 0x5465 JUMPI JUMPDEST POP PUSH1 0xE SLOAD AND DUP2 PUSH1 0x40 MLOAD DUP1 SWAP3 PUSH4 0x53E8349 PUSH1 0xE0 SHL DUP3 MSTORE PUSH1 0x20 PUSH1 0x4 DUP4 ADD MSTORE DUP2 DUP1 PUSH2 0x541C PUSH1 0x24 DUP3 ADD DUP11 PUSH2 0x2E2 JUMP JUMPDEST SUB SWAP2 GAS STATICCALL SWAP2 DUP3 ISZERO PUSH2 0x5458 JUMPI JUMPDEST DUP1 SWAP3 PUSH2 0x5435 JUMPI JUMPDEST POP POP SWAP2 SWAP1 JUMP JUMPDEST PUSH2 0x5451 SWAP3 POP RETURNDATASIZE DUP1 SWAP2 DUP4 RETURNDATACOPY PUSH2 0x5449 DUP2 DUP4 PUSH2 0xE78 JUMP JUMPDEST DUP2 ADD SWAP1 PUSH2 0x5323 JUMP JUMPDEST CODESIZE DUP1 PUSH2 0x542F JUMP JUMPDEST PUSH2 0x5460 PUSH2 0x1EF2 JUMP JUMPDEST PUSH2 0x5428 JUMP JUMPDEST PUSH2 0x547A SWAP2 SWAP5 POP RETURNDATASIZE DUP1 DUP5 DUP4 RETURNDATACOPY PUSH2 0x15CB DUP2 DUP4 PUSH2 0xE78 JUMP JUMPDEST SWAP3 CODESIZE PUSH2 0x53F1 JUMP JUMPDEST PUSH2 0x5489 PUSH2 0x1EF2 JUMP JUMPDEST PUSH2 0x53EA JUMP JUMPDEST DUP1 ISZERO PUSH2 0x264B JUMPI DUP1 PUSH1 0x0 DUP3 DUP2 SWAP4 JUMPDEST PUSH2 0x553D JUMPI POP DUP2 PUSH2 0x54AA DUP5 PUSH2 0x255E JUMP JUMPDEST SWAP4 SWAP1 JUMPDEST PUSH2 0x54B7 JUMPI POP POP POP SWAP1 JUMP JUMPDEST PUSH2 0x54C0 SWAP1 PUSH2 0x1C5C JUMP JUMPDEST SWAP2 DUP3 PUSH2 0x550E PUSH1 0xA SWAP3 DUP4 DUP2 DIV SWAP4 DUP5 PUSH1 0x0 NOT DIV DUP2 GT DUP6 ISZERO ISZERO AND PUSH2 0x5530 JUMPI JUMPDEST DUP5 MUL DUP2 SUB SWAP1 DUP2 GT PUSH2 0x5523 JUMPI JUMPDEST PUSH1 0xFF DUP1 SWAP2 AND PUSH1 0x30 ADD SWAP1 DUP2 GT PUSH2 0x5516 JUMPI JUMPDEST PUSH1 0xF8 SHL PUSH1 0x1 PUSH1 0x1 PUSH1 0xF8 SHL SUB NOT AND DUP5 BYTE SWAP2 DUP7 PUSH2 0x2590 JUMP JUMPDEST MSTORE8 SWAP2 DUP3 PUSH2 0x54AD JUMP JUMPDEST PUSH2 0x551E PUSH2 0x1C45 JUMP JUMPDEST PUSH2 0x54F8 JUMP JUMPDEST PUSH2 0x552B PUSH2 0x1C45 JUMP JUMPDEST PUSH2 0x54E8 JUMP JUMPDEST PUSH2 0x5538 PUSH2 0x1C45 JUMP JUMPDEST PUSH2 0x54DC JUMP JUMPDEST SWAP3 PUSH2 0x5549 PUSH1 0xA SWAP2 PUSH2 0x23B4 JUMP JUMPDEST SWAP4 DIV DUP1 PUSH2 0x549B JUMP INVALID LOG2 PUSH5 0x6970667358 0x22 SLT KECCAK256 0xF9 JUMP SWAP11 POP SWAP11 0x1F ADD DUP9 DUP2 0xE8 SWAP10 0xB3 0x22 DUP12 0xBF DUP4 PUSH22 0x1757BD896D33CAE2B178D20AC9ADFC64736F6C634300 ADDMOD LT STOP CALLER "
        },
        "gasEstimates": {
          "creation": {
            "codeDepositCost": "4379000",
            "executionCost": "infinite",
            "totalCost": "infinite"
          },
          "external": {
            "approve(address,uint256)": "infinite",
            "balanceOf(address)": "2774",
            "exists(uint256)": "2619",
            "getApproved(uint256)": "4654",
            "getEthDecimalString(uint256)": "infinite",
            "getOperatorsForPool(address)": "infinite",
            "getPoolById(uint256)": "2441",
            "incrementTokenId()": "infinite",
            "isApprovedForAll(address,address)": "3116",
            "mint(address,uint256,address)": "infinite",
            "name()": "infinite",
            "owner()": "2645",
            "ownerOf(uint256)": "2770",
            "renderTokenById(uint256)": "infinite",
            "renounceOwnership()": "26298",
            "safeTransferFrom(address,address,uint256)": "infinite",
            "safeTransferFrom(address,address,uint256,bytes)": "infinite",
            "setApprovalForAll(address,bool)": "26951",
            "supportsInterface(bytes4)": "436",
            "symbol()": "infinite",
            "tokenByIndex(uint256)": "4679",
            "tokenOfOwnerByIndex(address,uint256)": "4941",
            "tokenURI(uint256)": "infinite",
            "totalSupply()": "2401",
            "transferFrom(address,address,uint256)": "infinite",
            "transferOwnership(address)": "28756"
          },
          "internal": {
            "generateSVGofTokenById(uint256)": "infinite",
            "getColor(address)": "infinite",
            "uint2str(uint256)": "infinite"
          }
        },
        "methodIdentifiers": {
          "approve(address,uint256)": "095ea7b3",
          "balanceOf(address)": "70a08231",
          "exists(uint256)": "4f558e79",
          "getApproved(uint256)": "081812fc",
          "getEthDecimalString(uint256)": "edd148a2",
          "getOperatorsForPool(address)": "a090f9b4",
          "getPoolById(uint256)": "0bc59b38",
          "incrementTokenId()": "4f3130fa",
          "isApprovedForAll(address,address)": "e985e9c5",
          "mint(address,uint256,address)": "0d4d1513",
          "name()": "06fdde03",
          "owner()": "8da5cb5b",
          "ownerOf(uint256)": "6352211e",
          "renderTokenById(uint256)": "a2d6c6da",
          "renounceOwnership()": "715018a6",
          "safeTransferFrom(address,address,uint256)": "42842e0e",
          "safeTransferFrom(address,address,uint256,bytes)": "b88d4fde",
          "setApprovalForAll(address,bool)": "a22cb465",
          "supportsInterface(bytes4)": "01ffc9a7",
          "symbol()": "95d89b41",
          "tokenByIndex(uint256)": "4f6ccce7",
          "tokenOfOwnerByIndex(address,uint256)": "2f745c59",
          "tokenURI(uint256)": "c87b56dd",
          "totalSupply()": "18160ddd",
          "transferFrom(address,address,uint256)": "23b872dd",
          "transferOwnership(address)": "f2fde38b"
        }
      },
      "storageLayout": {
        "storage": [
          {
            "astId": 133,
            "contract": "contracts/FrensPoolShare.sol:FrensPoolShare",
            "label": "_name",
            "offset": 0,
            "slot": "0",
            "type": "t_string_storage"
          },
          {
            "astId": 135,
            "contract": "contracts/FrensPoolShare.sol:FrensPoolShare",
            "label": "_symbol",
            "offset": 0,
            "slot": "1",
            "type": "t_string_storage"
          },
          {
            "astId": 139,
            "contract": "contracts/FrensPoolShare.sol:FrensPoolShare",
            "label": "_owners",
            "offset": 0,
            "slot": "2",
            "type": "t_mapping(t_uint256,t_address)"
          },
          {
            "astId": 143,
            "contract": "contracts/FrensPoolShare.sol:FrensPoolShare",
            "label": "_balances",
            "offset": 0,
            "slot": "3",
            "type": "t_mapping(t_address,t_uint256)"
          },
          {
            "astId": 147,
            "contract": "contracts/FrensPoolShare.sol:FrensPoolShare",
            "label": "_tokenApprovals",
            "offset": 0,
            "slot": "4",
            "type": "t_mapping(t_uint256,t_address)"
          },
          {
            "astId": 153,
            "contract": "contracts/FrensPoolShare.sol:FrensPoolShare",
            "label": "_operatorApprovals",
            "offset": 0,
            "slot": "5",
            "type": "t_mapping(t_address,t_mapping(t_address,t_bool))"
          },
          {
            "astId": 1087,
            "contract": "contracts/FrensPoolShare.sol:FrensPoolShare",
            "label": "_ownedTokens",
            "offset": 0,
            "slot": "6",
            "type": "t_mapping(t_address,t_mapping(t_uint256,t_uint256))"
          },
          {
            "astId": 1091,
            "contract": "contracts/FrensPoolShare.sol:FrensPoolShare",
            "label": "_ownedTokensIndex",
            "offset": 0,
            "slot": "7",
            "type": "t_mapping(t_uint256,t_uint256)"
          },
          {
            "astId": 1094,
            "contract": "contracts/FrensPoolShare.sol:FrensPoolShare",
            "label": "_allTokens",
            "offset": 0,
            "slot": "8",
            "type": "t_array(t_uint256)dyn_storage"
          },
          {
            "astId": 1098,
            "contract": "contracts/FrensPoolShare.sol:FrensPoolShare",
            "label": "_allTokensIndex",
            "offset": 0,
            "slot": "9",
            "type": "t_mapping(t_uint256,t_uint256)"
          },
          {
            "astId": 7,
            "contract": "contracts/FrensPoolShare.sol:FrensPoolShare",
            "label": "_owner",
            "offset": 0,
            "slot": "10",
            "type": "t_address"
          },
          {
            "astId": 2163,
            "contract": "contracts/FrensPoolShare.sol:FrensPoolShare",
            "label": "_tokenId",
            "offset": 0,
            "slot": "11",
            "type": "t_uint256"
          },
          {
            "astId": 2167,
            "contract": "contracts/FrensPoolShare.sol:FrensPoolShare",
            "label": "poolById",
            "offset": 0,
            "slot": "12",
            "type": "t_mapping(t_uint256,t_address)"
          },
          {
            "astId": 2170,
            "contract": "contracts/FrensPoolShare.sol:FrensPoolShare",
            "label": "factoryContract",
            "offset": 0,
            "slot": "13",
            "type": "t_contract(IStakingPoolFactory)4130"
          },
          {
            "astId": 2173,
            "contract": "contracts/FrensPoolShare.sol:FrensPoolShare",
            "label": "ssvRegistry",
            "offset": 0,
            "slot": "14",
            "type": "t_contract(ISSVRegistry)4051"
          }
        ],
        "types": {
          "t_address": {
            "encoding": "inplace",
            "label": "address",
            "numberOfBytes": "20"
          },
          "t_array(t_uint256)dyn_storage": {
            "base": "t_uint256",
            "encoding": "dynamic_array",
            "label": "uint256[]",
            "numberOfBytes": "32"
          },
          "t_bool": {
            "encoding": "inplace",
            "label": "bool",
            "numberOfBytes": "1"
          },
          "t_contract(ISSVRegistry)4051": {
            "encoding": "inplace",
            "label": "contract ISSVRegistry",
            "numberOfBytes": "20"
          },
          "t_contract(IStakingPoolFactory)4130": {
            "encoding": "inplace",
            "label": "contract IStakingPoolFactory",
            "numberOfBytes": "20"
          },
          "t_mapping(t_address,t_bool)": {
            "encoding": "mapping",
            "key": "t_address",
            "label": "mapping(address => bool)",
            "numberOfBytes": "32",
            "value": "t_bool"
          },
          "t_mapping(t_address,t_mapping(t_address,t_bool))": {
            "encoding": "mapping",
            "key": "t_address",
            "label": "mapping(address => mapping(address => bool))",
            "numberOfBytes": "32",
            "value": "t_mapping(t_address,t_bool)"
          },
          "t_mapping(t_address,t_mapping(t_uint256,t_uint256))": {
            "encoding": "mapping",
            "key": "t_address",
            "label": "mapping(address => mapping(uint256 => uint256))",
            "numberOfBytes": "32",
            "value": "t_mapping(t_uint256,t_uint256)"
          },
          "t_mapping(t_address,t_uint256)": {
            "encoding": "mapping",
            "key": "t_address",
            "label": "mapping(address => uint256)",
            "numberOfBytes": "32",
            "value": "t_uint256"
          },
          "t_mapping(t_uint256,t_address)": {
            "encoding": "mapping",
            "key": "t_uint256",
            "label": "mapping(uint256 => address)",
            "numberOfBytes": "32",
            "value": "t_address"
          },
          "t_mapping(t_uint256,t_uint256)": {
            "encoding": "mapping",
            "key": "t_uint256",
            "label": "mapping(uint256 => uint256)",
            "numberOfBytes": "32",
            "value": "t_uint256"
          },
          "t_string_storage": {
            "encoding": "bytes",
            "label": "string",
            "numberOfBytes": "32"
          },
          "t_uint256": {
            "encoding": "inplace",
            "label": "uint256",
            "numberOfBytes": "32"
          }
        }
      },
      "userdoc": {
        "kind": "user",
        "methods": {},
        "version": 1
      }
    }
  }
}