{
  "contracts/StakingPool.sol": {
    "StakingPool": {
      "abi": [
        {
          "inputs": [
            {
              "internalType": "address",
              "name": "depositContractAddress_",
              "type": "address"
            },
            {
              "internalType": "address",
              "name": "factory_",
              "type": "address"
            },
            {
              "internalType": "address",
              "name": "frensPoolShareAddress_",
              "type": "address"
            }
          ],
          "stateMutability": "nonpayable",
          "type": "constructor"
        },
        {
          "anonymous": false,
          "inputs": [
            {
              "indexed": false,
              "internalType": "address",
              "name": "depositContractAddress",
              "type": "address"
            },
            {
              "indexed": false,
              "internalType": "address",
              "name": "caller",
              "type": "address"
            }
          ],
          "name": "Deposit",
          "type": "event"
        },
        {
          "anonymous": false,
          "inputs": [
            {
              "indexed": true,
              "internalType": "address",
              "name": "previousOwner",
              "type": "address"
            },
            {
              "indexed": true,
              "internalType": "address",
              "name": "newOwner",
              "type": "address"
            }
          ],
          "name": "OwnershipTransferred",
          "type": "event"
        },
        {
          "stateMutability": "payable",
          "type": "fallback"
        },
        {
          "inputs": [
            {
              "internalType": "uint256",
              "name": "_id",
              "type": "uint256"
            }
          ],
          "name": "addToDeposit",
          "outputs": [],
          "stateMutability": "payable",
          "type": "function"
        },
        {
          "inputs": [
            {
              "internalType": "address",
              "name": "userAddress",
              "type": "address"
            }
          ],
          "name": "deposit",
          "outputs": [],
          "stateMutability": "payable",
          "type": "function"
        },
        {
          "inputs": [
            {
              "internalType": "uint256",
              "name": "",
              "type": "uint256"
            }
          ],
          "name": "depositAmount",
          "outputs": [
            {
              "internalType": "uint256",
              "name": "",
              "type": "uint256"
            }
          ],
          "stateMutability": "view",
          "type": "function"
        },
        {
          "inputs": [],
          "name": "depositContractAddress",
          "outputs": [
            {
              "internalType": "address",
              "name": "",
              "type": "address"
            }
          ],
          "stateMutability": "view",
          "type": "function"
        },
        {
          "inputs": [],
          "name": "distribute",
          "outputs": [],
          "stateMutability": "nonpayable",
          "type": "function"
        },
        {
          "inputs": [
            {
              "internalType": "uint256",
              "name": "_id",
              "type": "uint256"
            }
          ],
          "name": "getDepositAmount",
          "outputs": [
            {
              "internalType": "uint256",
              "name": "",
              "type": "uint256"
            }
          ],
          "stateMutability": "view",
          "type": "function"
        },
        {
          "inputs": [
            {
              "internalType": "uint256",
              "name": "_id",
              "type": "uint256"
            }
          ],
          "name": "getDistributableShare",
          "outputs": [
            {
              "internalType": "uint256",
              "name": "",
              "type": "uint256"
            }
          ],
          "stateMutability": "view",
          "type": "function"
        },
        {
          "inputs": [],
          "name": "getPubKey",
          "outputs": [
            {
              "internalType": "bytes",
              "name": "",
              "type": "bytes"
            }
          ],
          "stateMutability": "view",
          "type": "function"
        },
        {
          "inputs": [
            {
              "internalType": "uint256",
              "name": "_id",
              "type": "uint256"
            }
          ],
          "name": "getShare",
          "outputs": [
            {
              "internalType": "uint256",
              "name": "",
              "type": "uint256"
            }
          ],
          "stateMutability": "view",
          "type": "function"
        },
        {
          "inputs": [],
          "name": "getState",
          "outputs": [
            {
              "internalType": "string",
              "name": "",
              "type": "string"
            }
          ],
          "stateMutability": "view",
          "type": "function"
        },
        {
          "inputs": [
            {
              "internalType": "uint256",
              "name": "",
              "type": "uint256"
            }
          ],
          "name": "idsInThisPool",
          "outputs": [
            {
              "internalType": "uint256",
              "name": "",
              "type": "uint256"
            }
          ],
          "stateMutability": "view",
          "type": "function"
        },
        {
          "inputs": [],
          "name": "owner",
          "outputs": [
            {
              "internalType": "address",
              "name": "",
              "type": "address"
            }
          ],
          "stateMutability": "view",
          "type": "function"
        },
        {
          "inputs": [],
          "name": "renounceOwnership",
          "outputs": [],
          "stateMutability": "nonpayable",
          "type": "function"
        },
        {
          "inputs": [],
          "name": "rugpull",
          "outputs": [],
          "stateMutability": "nonpayable",
          "type": "function"
        },
        {
          "inputs": [
            {
              "internalType": "bytes",
              "name": "pubkey",
              "type": "bytes"
            },
            {
              "internalType": "bytes",
              "name": "withdrawal_credentials",
              "type": "bytes"
            },
            {
              "internalType": "bytes",
              "name": "signature",
              "type": "bytes"
            },
            {
              "internalType": "bytes32",
              "name": "deposit_data_root",
              "type": "bytes32"
            }
          ],
          "name": "stake",
          "outputs": [],
          "stateMutability": "nonpayable",
          "type": "function"
        },
        {
          "inputs": [],
          "name": "totalDeposits",
          "outputs": [
            {
              "internalType": "uint256",
              "name": "",
              "type": "uint256"
            }
          ],
          "stateMutability": "view",
          "type": "function"
        },
        {
          "inputs": [
            {
              "internalType": "address",
              "name": "newOwner",
              "type": "address"
            }
          ],
          "name": "transferOwnership",
          "outputs": [],
          "stateMutability": "nonpayable",
          "type": "function"
        },
        {
          "inputs": [],
          "name": "unstake",
          "outputs": [],
          "stateMutability": "nonpayable",
          "type": "function"
        },
        {
          "inputs": [],
          "name": "validatorPubKey",
          "outputs": [
            {
              "internalType": "bytes",
              "name": "",
              "type": "bytes"
            }
          ],
          "stateMutability": "view",
          "type": "function"
        },
        {
          "inputs": [
            {
              "internalType": "uint256",
              "name": "_id",
              "type": "uint256"
            },
            {
              "internalType": "uint256",
              "name": "_amount",
              "type": "uint256"
            }
          ],
          "name": "withdraw",
          "outputs": [],
          "stateMutability": "nonpayable",
          "type": "function"
        },
        {
          "stateMutability": "payable",
          "type": "receive"
        }
      ],
      "devdoc": {
        "kind": "dev",
        "methods": {
          "owner()": {
            "details": "Returns the address of the current owner."
          },
          "renounceOwnership()": {
            "details": "Leaves the contract without owner. It will not be possible to call `onlyOwner` functions anymore. Can only be called by the current owner. NOTE: Renouncing ownership will leave the contract without an owner, thereby removing any functionality that is only available to the owner."
          },
          "transferOwnership(address)": {
            "details": "Transfers ownership of the contract to a new account (`newOwner`). Can only be called by the current owner."
          }
        },
        "version": 1
      },
      "evm": {
        "bytecode": {
          "linkReferences": {},
          "object": "60803461010057601f61161b38819003918201601f19168301916001600160401b0383118484101761010557808492606094604052833981010312610100576100478161011b565b61005f60406100586020850161011b565b930161011b565b600080546001600160a01b03198082163390811784556040519691956001600160a01b0395948694859391908416907f8be0079c531659141344cd1fd0a4f28419497f9722a3daafe3b4186f6b6457e0908ba360045490610100600160a81b039060081b169060018060a81b031916178060045560081c1685600754161760075516836008541617600855169060095416176009556114eb90816101308239f35b600080fd5b634e487b7160e01b600052604160045260246000fd5b51906001600160a01b03821682036101005756fe60806040526004361015610018575b361561001657005b005b6000803560e01c80631865c57d14610f055780632a4dbd2b14610ed85780632def662014610ead578063378de45b1461046c578063441a3e7014610cf35780634ad02ef114610c345780634b2b4e36146107fe578063678e300a146107df578063715018a61461077a5780637be0b4a0146106a65780637d8820971461068857806382a790cf1461064e5780638620891c1461049657806387f8ab261461046c5780638da5cb5b14610445578063cfb5a5f81461041d578063e2664e49146103c9578063e4fc6b6d146103ab578063f2fde38b146102d85763f340fa0114610100575061000e565b60209081600319360112610220576001600160a01b0390600435828116908190036102c05760ff6004541660038110156102c4576102c057341561028657838394839460095416600460405180968193632798987d60e11b83525af192831561027b578493610247575b5060019083855252346040842055610184346002546110ce565b600255600354936801000000000000000085101561023357826101ae866001879801600355611036565b819291549060031b600019811b9283911b169119161790556009541691823b1561022e5760648492836040519586948593630d4d151360e01b8552600485015260248401523060448401525af180156102235761020c575b50604051f35b61021590610fce565b610220578038610206565b80fd5b6040513d84823e3d90fd5b505050fd5b634e487b7160e01b84526041600452602484fd5b9080935081813d8311610274575b61025f8183611014565b81010312610270575191600161016a565b8380fd5b503d610255565b6040513d86823e3d90fd5b60405162461bcd60e51b815260048101859052601260248201527136bab9ba103232b837b9b4ba1032ba3432b960711b6044820152606490fd5b5080fd5b634e487b7160e01b83526021600452602483fd5b5034610220576020366003190112610220576001600160a01b03600435818116908190036103a75761030e828454163314611083565b801561035357600080546001600160a01b03198116831782556040519316907f8be0079c531659141344cd1fd0a4f28419497f9722a3daafe3b4186f6b6457e09084a3f35b60405162461bcd60e51b815260206004820152602660248201527f4f776e61626c653a206e6577206f776e657220697320746865207a65726f206160448201526564647265737360d01b6064820152608490fd5b8280fd5b50346102205780600319360112610220576103c461111d565b604051f35b50346102205780600319360112610220576103ee60018060a01b038254163314611083565b8080808047818115610414575b3390f11561040857604051f35b604051903d90823e3d90fd5b506108fc6103fb565b503461022057602036600319011261022057602061043d476004356112e1565b604051908152f35b5034610220578060031936011261022057546040516001600160a01b039091168152602090f35b50346102205760203660031901126102205760406020916004358152600183522054604051908152f35b506020806003193601126102c0576004359060018060a01b0383828260095416602460405180948193634f558e7960e01b83528960048401525af19081156105d8578591610614575b50156105e35780826024926009541660405193848092630178b36760e31b82528860048301525afa9182156105d85785926105a9575b50309116036105705760ff60045416600381101561055c576103a757600191835252604081206105463482546110ce565b9055610554346002546110ce565b600255604051f35b634e487b7160e01b84526021600452602484fd5b6064906040519062461bcd60e51b8252600482015260126024820152711ddc9bdb99c81cdd185ada5b99c81c1bdbdb60721b6044820152fd5b6105ca919250833d85116105d1575b6105c28183611014565b8101906110f1565b9038610515565b503d6105b8565b6040513d87823e3d90fd5b60405162461bcd60e51b81526004810183905260096024820152681b9bdd08195e1a5cdd60ba1b6044820152606490fd5b90508281813d8311610647575b61062b8183611014565b810103126106435751801515810361064357386104df565b8480fd5b503d610621565b5034610220576020366003190112610220576004359060035482101561022057602061067983611036565b90549060031b1c604051908152f35b50346102205780600319360112610220576020600254604051908152f35b503461022057806003193601126102205760405160006006546106c881610f94565b80845290600190818116908115610753575060011461070a575b610706846106f281860382611014565b604051918291602083526020830190610f21565b0390f35b6006600090815292506000805160206114968339815191525b82841061073b5750505081016020016106f2826106e2565b80546020858701810191909152909301928101610723565b60ff191660208087019190915292151560051b850190920192506106f291508390506106e2565b503461022057806003193601126102205780546001600160a01b03906107a39082163314611083565b600080546001600160a01b03198116825560405192167f8be0079c531659141344cd1fd0a4f28419497f9722a3daafe3b4186f6b6457e08284a3f35b503461022057602036600319011261022057602061043d600435611376565b50346102205760803660031901126102205760043567ffffffffffffffff81116102c057610830903690600401610f61565b909160243567ffffffffffffffff81116102c057610852903690600401610f61565b9060443567ffffffffffffffff811161027057610873903690600401610f61565b61088760018060a01b038654163314611083565b6801bc16d674ec8000004710610bfe5760045460ff81166003811015610bea57610bb75760ff191660011760045530600160f81b8101908110610ba357604051906020820152602081526108da81610ff8565b67ffffffffffffffff8511610b8f57604051610900601f8701601f191660200182611014565b8581523686860111610b8b576020810190868683378760208883010152519020906020815191012003610b46576007546001600160a01b031692833b15610b42576801bc16d674ec800000876109a4610980958997956109928d966040519b8c9a8b998a986304512a2360e31b8a52608060048b015260848a0191611474565b87810360031901602489015291611474565b84810360031901604486015291611474565b606435606483015203925af1801561022357610b33575b509067ffffffffffffffff8111610b1f576109d7600654610f94565b601f8111610acd575b5081601f8211600114610a5e578293829392610a53575b50508160011b916000199060031b1c1916176006555b6004546040805160089290921c6001600160a01b031682523360208301527f1944debb24a9aafcf2708be964e412cdb73fc36d6ea24577fd8dcc05b93b4a4491a1604051f35b0135905038806109f7565b60068352601f1982169360008051602061149683398151915291845b868110610ab55750836001959610610a9b575b505050811b01600655610a0d565b0135600019600384901b60f8161c19169055388080610a8d565b90926020600181928686013581550194019101610a7a565b60068352600080516020611496833981519152601f830160051c81019160208410610b15575b601f0160051c01905b818110610b0957506109e0565b60008155600101610afc565b9091508190610af3565b634e487b7160e01b82526041600452602482fd5b610b3c90610fce565b386109bb565b8580fd5b60405162461bcd60e51b815260206004820152601e60248201527f7769746864726177616c2063726564656e7469616c206d69736d6174636800006044820152606490fd5b8680fd5b634e487b7160e01b86526041600452602486fd5b634e487b7160e01b86526011600452602486fd5b60405162461bcd60e51b815260206004820152600b60248201526a77726f6e6720737461746560a81b6044820152606490fd5b634e487b7160e01b87526021600452602487fd5b60405162461bcd60e51b815260206004820152600e60248201526d0dcdee840cadcdeeaced040cae8d60931b6044820152606490fd5b50346102205780600319360112610220576040519080600654610c5681610f94565b80855291600191808316908115610cc95750600114610c80575b610706856106f281870382611014565b9250600683526000805160206114968339815191525b828410610cb15750505081016020016106f282610706610c70565b80546020858701810191909152909301928101610c96565b869550610706969350602092506106f294915060ff191682840152151560051b8201019293610c70565b5034610220576040366003190112610220576004359060249182359060ff600454166003811015610e9957600114610e55576009546040516331a9108f60e11b815260048101839052602092916001600160a01b039190849082908990829086165afa908115610e4a578691610e2d575b50163303610df9578084526001825282604085205410610dbe5783809360018294839484525260408220610d99828254611110565b9055610da781600254611110565b600255818115610414573390f11561040857604051f35b60405162461bcd60e51b815260048101839052601481870152731b9bdd08195b9bdd59da0819195c1bdcda5d195960621b6044820152606490fd5b60405162461bcd60e51b815260048101839052600d818701526c3737ba103a34329037bbb732b960991b6044820152606490fd5b610e449150843d86116105d1576105c28183611014565b38610d64565b6040513d88823e3d90fd5b60405162461bcd60e51b815260206004820152601b818601527f63616e6e6f74207769746864726177206f6e6365207374616b656400000000006044820152606490fd5b5050634e487b7160e01b8252506021600452fd5b5034610220578060031936011261022057610ec661111d565b600260ff196004541617600455604051f35b503461022057806003193601126102205760045460405160089190911c6001600160a01b03168152602090f35b50346102205780600319360112610220576107066106f26113b3565b919082519283825260005b848110610f4d575050826000602080949584010152601f8019910116010190565b602081830181015184830182015201610f2c565b9181601f84011215610f8f5782359167ffffffffffffffff8311610f8f5760208381860195010111610f8f57565b600080fd5b90600182811c92168015610fc4575b6020831014610fae57565b634e487b7160e01b600052602260045260246000fd5b91607f1691610fa3565b67ffffffffffffffff8111610fe257604052565b634e487b7160e01b600052604160045260246000fd5b6040810190811067ffffffffffffffff821117610fe257604052565b90601f8019910116810190811067ffffffffffffffff821117610fe257604052565b60035481101561106d5760036000527fc2575a0e9e593c00f959f8c92f12db2869c3395a3b0502d05e2516446f71f85b0190600090565b634e487b7160e01b600052603260045260246000fd5b1561108a57565b606460405162461bcd60e51b815260206004820152602060248201527f4f776e61626c653a2063616c6c6572206973206e6f7420746865206f776e65726044820152fd5b919082018092116110db57565b634e487b7160e01b600052601160045260246000fd5b90816020910312610f8f57516001600160a01b0381168103610f8f5790565b919082039182116110db57565b60049060ff825416600392838210156112cc5760018092036112885747606481111561124457600094835b611155575b505050509050565b805486101561123f5761116786611036565b905490821b1c60018060a01b03806009541691604092835180916331a9108f60e11b8252838983015281602460209485935afa9182156112345793600094938594938986959486958693611211575b50506111c291926112e1565b9183918315611207575b1690f1156111fd575060001986146111e8579483019483611148565b601183634e487b7160e01b6000525260246000fd5b513d6000823e3d90fd5b6108fc92506111cc565b6111c29350908161122d92903d106105d1576105c28183611014565b91386111b6565b85513d6000823e3d90fd5b61114d565b60405162461bcd60e51b8152602081840181905260248201527f6d696e696d756d206f66203130302077656920746f20646973747269627574656044820152606490fd5b60649060206040519162461bcd60e51b8352820152601c60248201527f757365207769746864726177207768656e206e6f74207374616b6564000000006044820152fd5b602190634e487b7160e01b6000525260246000fd5b60009081526001602052604081205415611371576040812054600019929081151582850482111661135d5760025491821561134957020491600183111561134357820191821161132f575090565b634e487b7160e01b81526011600452602490fd5b50905090565b634e487b7160e01b84526012600452602484fd5b634e487b7160e01b83526011600452602483fd5b905090565b60ff60045416600381101561139d5761138f5750600090565b61139a9047906112e1565b90565b634e487b7160e01b600052602160045260246000fd5b60ff60045416600381101561139d576001811461145157801561142257600214611400576040516113e381610ff8565b600d81526c7374617465206661696c75726560981b602082015290565b60405161140c81610ff8565b6006815265195e1a5d195960d21b602082015290565b5060405161142f81610ff8565b6012815271616363657074696e67206465706f7369747360701b602082015290565b5060405161145e81610ff8565b60068152651cdd185ad95960d21b602082015290565b908060209392818452848401376000828201840152601f01601f191601019056fef652222313e28459528d920b65115c16c04f3efc82aaedc97be59f3f377c0d3fa26469706673582212206a3b47f55d65a85ca73662fb4a6f5a9a05a0fcff03efd9518b32d53f4971bee464736f6c63430008100033",
          "opcodes": "PUSH1 0x80 CALLVALUE PUSH2 0x100 JUMPI PUSH1 0x1F PUSH2 0x161B CODESIZE DUP2 SWAP1 SUB SWAP2 DUP3 ADD PUSH1 0x1F NOT AND DUP4 ADD SWAP2 PUSH1 0x1 PUSH1 0x1 PUSH1 0x40 SHL SUB DUP4 GT DUP5 DUP5 LT OR PUSH2 0x105 JUMPI DUP1 DUP5 SWAP3 PUSH1 0x60 SWAP5 PUSH1 0x40 MSTORE DUP4 CODECOPY DUP2 ADD SUB SLT PUSH2 0x100 JUMPI PUSH2 0x47 DUP2 PUSH2 0x11B JUMP JUMPDEST PUSH2 0x5F PUSH1 0x40 PUSH2 0x58 PUSH1 0x20 DUP6 ADD PUSH2 0x11B JUMP JUMPDEST SWAP4 ADD PUSH2 0x11B JUMP JUMPDEST PUSH1 0x0 DUP1 SLOAD PUSH1 0x1 PUSH1 0x1 PUSH1 0xA0 SHL SUB NOT DUP1 DUP3 AND CALLER SWAP1 DUP2 OR DUP5 SSTORE PUSH1 0x40 MLOAD SWAP7 SWAP2 SWAP6 PUSH1 0x1 PUSH1 0x1 PUSH1 0xA0 SHL SUB SWAP6 SWAP5 DUP7 SWAP5 DUP6 SWAP4 SWAP2 SWAP1 DUP5 AND SWAP1 PUSH32 0x8BE0079C531659141344CD1FD0A4F28419497F9722A3DAAFE3B4186F6B6457E0 SWAP1 DUP12 LOG3 PUSH1 0x4 SLOAD SWAP1 PUSH2 0x100 PUSH1 0x1 PUSH1 0xA8 SHL SUB SWAP1 PUSH1 0x8 SHL AND SWAP1 PUSH1 0x1 DUP1 PUSH1 0xA8 SHL SUB NOT AND OR DUP1 PUSH1 0x4 SSTORE PUSH1 0x8 SHR AND DUP6 PUSH1 0x7 SLOAD AND OR PUSH1 0x7 SSTORE AND DUP4 PUSH1 0x8 SLOAD AND OR PUSH1 0x8 SSTORE AND SWAP1 PUSH1 0x9 SLOAD AND OR PUSH1 0x9 SSTORE PUSH2 0x14EB SWAP1 DUP2 PUSH2 0x130 DUP3 CODECOPY RETURN JUMPDEST PUSH1 0x0 DUP1 REVERT JUMPDEST PUSH4 0x4E487B71 PUSH1 0xE0 SHL PUSH1 0x0 MSTORE PUSH1 0x41 PUSH1 0x4 MSTORE PUSH1 0x24 PUSH1 0x0 REVERT JUMPDEST MLOAD SWAP1 PUSH1 0x1 PUSH1 0x1 PUSH1 0xA0 SHL SUB DUP3 AND DUP3 SUB PUSH2 0x100 JUMPI JUMP INVALID PUSH1 0x80 PUSH1 0x40 MSTORE PUSH1 0x4 CALLDATASIZE LT ISZERO PUSH2 0x18 JUMPI JUMPDEST CALLDATASIZE ISZERO PUSH2 0x16 JUMPI STOP JUMPDEST STOP JUMPDEST PUSH1 0x0 DUP1 CALLDATALOAD PUSH1 0xE0 SHR DUP1 PUSH4 0x1865C57D EQ PUSH2 0xF05 JUMPI DUP1 PUSH4 0x2A4DBD2B EQ PUSH2 0xED8 JUMPI DUP1 PUSH4 0x2DEF6620 EQ PUSH2 0xEAD JUMPI DUP1 PUSH4 0x378DE45B EQ PUSH2 0x46C JUMPI DUP1 PUSH4 0x441A3E70 EQ PUSH2 0xCF3 JUMPI DUP1 PUSH4 0x4AD02EF1 EQ PUSH2 0xC34 JUMPI DUP1 PUSH4 0x4B2B4E36 EQ PUSH2 0x7FE JUMPI DUP1 PUSH4 0x678E300A EQ PUSH2 0x7DF JUMPI DUP1 PUSH4 0x715018A6 EQ PUSH2 0x77A JUMPI DUP1 PUSH4 0x7BE0B4A0 EQ PUSH2 0x6A6 JUMPI DUP1 PUSH4 0x7D882097 EQ PUSH2 0x688 JUMPI DUP1 PUSH4 0x82A790CF EQ PUSH2 0x64E JUMPI DUP1 PUSH4 0x8620891C EQ PUSH2 0x496 JUMPI DUP1 PUSH4 0x87F8AB26 EQ PUSH2 0x46C JUMPI DUP1 PUSH4 0x8DA5CB5B EQ PUSH2 0x445 JUMPI DUP1 PUSH4 0xCFB5A5F8 EQ PUSH2 0x41D JUMPI DUP1 PUSH4 0xE2664E49 EQ PUSH2 0x3C9 JUMPI DUP1 PUSH4 0xE4FC6B6D EQ PUSH2 0x3AB JUMPI DUP1 PUSH4 0xF2FDE38B EQ PUSH2 0x2D8 JUMPI PUSH4 0xF340FA01 EQ PUSH2 0x100 JUMPI POP PUSH2 0xE JUMP JUMPDEST PUSH1 0x20 SWAP1 DUP2 PUSH1 0x3 NOT CALLDATASIZE ADD SLT PUSH2 0x220 JUMPI PUSH1 0x1 PUSH1 0x1 PUSH1 0xA0 SHL SUB SWAP1 PUSH1 0x4 CALLDATALOAD DUP3 DUP2 AND SWAP1 DUP2 SWAP1 SUB PUSH2 0x2C0 JUMPI PUSH1 0xFF PUSH1 0x4 SLOAD AND PUSH1 0x3 DUP2 LT ISZERO PUSH2 0x2C4 JUMPI PUSH2 0x2C0 JUMPI CALLVALUE ISZERO PUSH2 0x286 JUMPI DUP4 DUP4 SWAP5 DUP4 SWAP5 PUSH1 0x9 SLOAD AND PUSH1 0x4 PUSH1 0x40 MLOAD DUP1 SWAP7 DUP2 SWAP4 PUSH4 0x2798987D PUSH1 0xE1 SHL DUP4 MSTORE GAS CALL SWAP3 DUP4 ISZERO PUSH2 0x27B JUMPI DUP5 SWAP4 PUSH2 0x247 JUMPI JUMPDEST POP PUSH1 0x1 SWAP1 DUP4 DUP6 MSTORE MSTORE CALLVALUE PUSH1 0x40 DUP5 KECCAK256 SSTORE PUSH2 0x184 CALLVALUE PUSH1 0x2 SLOAD PUSH2 0x10CE JUMP JUMPDEST PUSH1 0x2 SSTORE PUSH1 0x3 SLOAD SWAP4 PUSH9 0x10000000000000000 DUP6 LT ISZERO PUSH2 0x233 JUMPI DUP3 PUSH2 0x1AE DUP7 PUSH1 0x1 DUP8 SWAP9 ADD PUSH1 0x3 SSTORE PUSH2 0x1036 JUMP JUMPDEST DUP2 SWAP3 SWAP2 SLOAD SWAP1 PUSH1 0x3 SHL PUSH1 0x0 NOT DUP2 SHL SWAP3 DUP4 SWAP2 SHL AND SWAP2 NOT AND OR SWAP1 SSTORE PUSH1 0x9 SLOAD AND SWAP2 DUP3 EXTCODESIZE ISZERO PUSH2 0x22E JUMPI PUSH1 0x64 DUP5 SWAP3 DUP4 PUSH1 0x40 MLOAD SWAP6 DUP7 SWAP5 DUP6 SWAP4 PUSH4 0xD4D1513 PUSH1 0xE0 SHL DUP6 MSTORE PUSH1 0x4 DUP6 ADD MSTORE PUSH1 0x24 DUP5 ADD MSTORE ADDRESS PUSH1 0x44 DUP5 ADD MSTORE GAS CALL DUP1 ISZERO PUSH2 0x223 JUMPI PUSH2 0x20C JUMPI JUMPDEST POP PUSH1 0x40 MLOAD RETURN JUMPDEST PUSH2 0x215 SWAP1 PUSH2 0xFCE JUMP JUMPDEST PUSH2 0x220 JUMPI DUP1 CODESIZE PUSH2 0x206 JUMP JUMPDEST DUP1 REVERT JUMPDEST PUSH1 0x40 MLOAD RETURNDATASIZE DUP5 DUP3 RETURNDATACOPY RETURNDATASIZE SWAP1 REVERT JUMPDEST POP POP POP REVERT JUMPDEST PUSH4 0x4E487B71 PUSH1 0xE0 SHL DUP5 MSTORE PUSH1 0x41 PUSH1 0x4 MSTORE PUSH1 0x24 DUP5 REVERT JUMPDEST SWAP1 DUP1 SWAP4 POP DUP2 DUP2 RETURNDATASIZE DUP4 GT PUSH2 0x274 JUMPI JUMPDEST PUSH2 0x25F DUP2 DUP4 PUSH2 0x1014 JUMP JUMPDEST DUP2 ADD SUB SLT PUSH2 0x270 JUMPI MLOAD SWAP2 PUSH1 0x1 PUSH2 0x16A JUMP JUMPDEST DUP4 DUP1 REVERT JUMPDEST POP RETURNDATASIZE PUSH2 0x255 JUMP JUMPDEST PUSH1 0x40 MLOAD RETURNDATASIZE DUP7 DUP3 RETURNDATACOPY RETURNDATASIZE SWAP1 REVERT JUMPDEST PUSH1 0x40 MLOAD PUSH3 0x461BCD PUSH1 0xE5 SHL DUP2 MSTORE PUSH1 0x4 DUP2 ADD DUP6 SWAP1 MSTORE PUSH1 0x12 PUSH1 0x24 DUP3 ADD MSTORE PUSH18 0x36BAB9BA103232B837B9B4BA1032BA3432B9 PUSH1 0x71 SHL PUSH1 0x44 DUP3 ADD MSTORE PUSH1 0x64 SWAP1 REVERT JUMPDEST POP DUP1 REVERT JUMPDEST PUSH4 0x4E487B71 PUSH1 0xE0 SHL DUP4 MSTORE PUSH1 0x21 PUSH1 0x4 MSTORE PUSH1 0x24 DUP4 REVERT JUMPDEST POP CALLVALUE PUSH2 0x220 JUMPI PUSH1 0x20 CALLDATASIZE PUSH1 0x3 NOT ADD SLT PUSH2 0x220 JUMPI PUSH1 0x1 PUSH1 0x1 PUSH1 0xA0 SHL SUB PUSH1 0x4 CALLDATALOAD DUP2 DUP2 AND SWAP1 DUP2 SWAP1 SUB PUSH2 0x3A7 JUMPI PUSH2 0x30E DUP3 DUP5 SLOAD AND CALLER EQ PUSH2 0x1083 JUMP JUMPDEST DUP1 ISZERO PUSH2 0x353 JUMPI PUSH1 0x0 DUP1 SLOAD PUSH1 0x1 PUSH1 0x1 PUSH1 0xA0 SHL SUB NOT DUP2 AND DUP4 OR DUP3 SSTORE PUSH1 0x40 MLOAD SWAP4 AND SWAP1 PUSH32 0x8BE0079C531659141344CD1FD0A4F28419497F9722A3DAAFE3B4186F6B6457E0 SWAP1 DUP5 LOG3 RETURN JUMPDEST PUSH1 0x40 MLOAD PUSH3 0x461BCD PUSH1 0xE5 SHL DUP2 MSTORE PUSH1 0x20 PUSH1 0x4 DUP3 ADD MSTORE PUSH1 0x26 PUSH1 0x24 DUP3 ADD MSTORE PUSH32 0x4F776E61626C653A206E6577206F776E657220697320746865207A65726F2061 PUSH1 0x44 DUP3 ADD MSTORE PUSH6 0x646472657373 PUSH1 0xD0 SHL PUSH1 0x64 DUP3 ADD MSTORE PUSH1 0x84 SWAP1 REVERT JUMPDEST DUP3 DUP1 REVERT JUMPDEST POP CALLVALUE PUSH2 0x220 JUMPI DUP1 PUSH1 0x3 NOT CALLDATASIZE ADD SLT PUSH2 0x220 JUMPI PUSH2 0x3C4 PUSH2 0x111D JUMP JUMPDEST PUSH1 0x40 MLOAD RETURN JUMPDEST POP CALLVALUE PUSH2 0x220 JUMPI DUP1 PUSH1 0x3 NOT CALLDATASIZE ADD SLT PUSH2 0x220 JUMPI PUSH2 0x3EE PUSH1 0x1 DUP1 PUSH1 0xA0 SHL SUB DUP3 SLOAD AND CALLER EQ PUSH2 0x1083 JUMP JUMPDEST DUP1 DUP1 DUP1 DUP1 SELFBALANCE DUP2 DUP2 ISZERO PUSH2 0x414 JUMPI JUMPDEST CALLER SWAP1 CALL ISZERO PUSH2 0x408 JUMPI PUSH1 0x40 MLOAD RETURN JUMPDEST PUSH1 0x40 MLOAD SWAP1 RETURNDATASIZE SWAP1 DUP3 RETURNDATACOPY RETURNDATASIZE SWAP1 REVERT JUMPDEST POP PUSH2 0x8FC PUSH2 0x3FB JUMP JUMPDEST POP CALLVALUE PUSH2 0x220 JUMPI PUSH1 0x20 CALLDATASIZE PUSH1 0x3 NOT ADD SLT PUSH2 0x220 JUMPI PUSH1 0x20 PUSH2 0x43D SELFBALANCE PUSH1 0x4 CALLDATALOAD PUSH2 0x12E1 JUMP JUMPDEST PUSH1 0x40 MLOAD SWAP1 DUP2 MSTORE RETURN JUMPDEST POP CALLVALUE PUSH2 0x220 JUMPI DUP1 PUSH1 0x3 NOT CALLDATASIZE ADD SLT PUSH2 0x220 JUMPI SLOAD PUSH1 0x40 MLOAD PUSH1 0x1 PUSH1 0x1 PUSH1 0xA0 SHL SUB SWAP1 SWAP2 AND DUP2 MSTORE PUSH1 0x20 SWAP1 RETURN JUMPDEST POP CALLVALUE PUSH2 0x220 JUMPI PUSH1 0x20 CALLDATASIZE PUSH1 0x3 NOT ADD SLT PUSH2 0x220 JUMPI PUSH1 0x40 PUSH1 0x20 SWAP2 PUSH1 0x4 CALLDATALOAD DUP2 MSTORE PUSH1 0x1 DUP4 MSTORE KECCAK256 SLOAD PUSH1 0x40 MLOAD SWAP1 DUP2 MSTORE RETURN JUMPDEST POP PUSH1 0x20 DUP1 PUSH1 0x3 NOT CALLDATASIZE ADD SLT PUSH2 0x2C0 JUMPI PUSH1 0x4 CALLDATALOAD SWAP1 PUSH1 0x1 DUP1 PUSH1 0xA0 SHL SUB DUP4 DUP3 DUP3 PUSH1 0x9 SLOAD AND PUSH1 0x24 PUSH1 0x40 MLOAD DUP1 SWAP5 DUP2 SWAP4 PUSH4 0x4F558E79 PUSH1 0xE0 SHL DUP4 MSTORE DUP10 PUSH1 0x4 DUP5 ADD MSTORE GAS CALL SWAP1 DUP2 ISZERO PUSH2 0x5D8 JUMPI DUP6 SWAP2 PUSH2 0x614 JUMPI JUMPDEST POP ISZERO PUSH2 0x5E3 JUMPI DUP1 DUP3 PUSH1 0x24 SWAP3 PUSH1 0x9 SLOAD AND PUSH1 0x40 MLOAD SWAP4 DUP5 DUP1 SWAP3 PUSH4 0x178B367 PUSH1 0xE3 SHL DUP3 MSTORE DUP9 PUSH1 0x4 DUP4 ADD MSTORE GAS STATICCALL SWAP2 DUP3 ISZERO PUSH2 0x5D8 JUMPI DUP6 SWAP3 PUSH2 0x5A9 JUMPI JUMPDEST POP ADDRESS SWAP2 AND SUB PUSH2 0x570 JUMPI PUSH1 0xFF PUSH1 0x4 SLOAD AND PUSH1 0x3 DUP2 LT ISZERO PUSH2 0x55C JUMPI PUSH2 0x3A7 JUMPI PUSH1 0x1 SWAP2 DUP4 MSTORE MSTORE PUSH1 0x40 DUP2 KECCAK256 PUSH2 0x546 CALLVALUE DUP3 SLOAD PUSH2 0x10CE JUMP JUMPDEST SWAP1 SSTORE PUSH2 0x554 CALLVALUE PUSH1 0x2 SLOAD PUSH2 0x10CE JUMP JUMPDEST PUSH1 0x2 SSTORE PUSH1 0x40 MLOAD RETURN JUMPDEST PUSH4 0x4E487B71 PUSH1 0xE0 SHL DUP5 MSTORE PUSH1 0x21 PUSH1 0x4 MSTORE PUSH1 0x24 DUP5 REVERT JUMPDEST PUSH1 0x64 SWAP1 PUSH1 0x40 MLOAD SWAP1 PUSH3 0x461BCD PUSH1 0xE5 SHL DUP3 MSTORE PUSH1 0x4 DUP3 ADD MSTORE PUSH1 0x12 PUSH1 0x24 DUP3 ADD MSTORE PUSH18 0x1DDC9BDB99C81CDD185ADA5B99C81C1BDBDB PUSH1 0x72 SHL PUSH1 0x44 DUP3 ADD MSTORE REVERT JUMPDEST PUSH2 0x5CA SWAP2 SWAP3 POP DUP4 RETURNDATASIZE DUP6 GT PUSH2 0x5D1 JUMPI JUMPDEST PUSH2 0x5C2 DUP2 DUP4 PUSH2 0x1014 JUMP JUMPDEST DUP2 ADD SWAP1 PUSH2 0x10F1 JUMP JUMPDEST SWAP1 CODESIZE PUSH2 0x515 JUMP JUMPDEST POP RETURNDATASIZE PUSH2 0x5B8 JUMP JUMPDEST PUSH1 0x40 MLOAD RETURNDATASIZE DUP8 DUP3 RETURNDATACOPY RETURNDATASIZE SWAP1 REVERT JUMPDEST PUSH1 0x40 MLOAD PUSH3 0x461BCD PUSH1 0xE5 SHL DUP2 MSTORE PUSH1 0x4 DUP2 ADD DUP4 SWAP1 MSTORE PUSH1 0x9 PUSH1 0x24 DUP3 ADD MSTORE PUSH9 0x1B9BDD08195E1A5CDD PUSH1 0xBA SHL PUSH1 0x44 DUP3 ADD MSTORE PUSH1 0x64 SWAP1 REVERT JUMPDEST SWAP1 POP DUP3 DUP2 DUP2 RETURNDATASIZE DUP4 GT PUSH2 0x647 JUMPI JUMPDEST PUSH2 0x62B DUP2 DUP4 PUSH2 0x1014 JUMP JUMPDEST DUP2 ADD SUB SLT PUSH2 0x643 JUMPI MLOAD DUP1 ISZERO ISZERO DUP2 SUB PUSH2 0x643 JUMPI CODESIZE PUSH2 0x4DF JUMP JUMPDEST DUP5 DUP1 REVERT JUMPDEST POP RETURNDATASIZE PUSH2 0x621 JUMP JUMPDEST POP CALLVALUE PUSH2 0x220 JUMPI PUSH1 0x20 CALLDATASIZE PUSH1 0x3 NOT ADD SLT PUSH2 0x220 JUMPI PUSH1 0x4 CALLDATALOAD SWAP1 PUSH1 0x3 SLOAD DUP3 LT ISZERO PUSH2 0x220 JUMPI PUSH1 0x20 PUSH2 0x679 DUP4 PUSH2 0x1036 JUMP JUMPDEST SWAP1 SLOAD SWAP1 PUSH1 0x3 SHL SHR PUSH1 0x40 MLOAD SWAP1 DUP2 MSTORE RETURN JUMPDEST POP CALLVALUE PUSH2 0x220 JUMPI DUP1 PUSH1 0x3 NOT CALLDATASIZE ADD SLT PUSH2 0x220 JUMPI PUSH1 0x20 PUSH1 0x2 SLOAD PUSH1 0x40 MLOAD SWAP1 DUP2 MSTORE RETURN JUMPDEST POP CALLVALUE PUSH2 0x220 JUMPI DUP1 PUSH1 0x3 NOT CALLDATASIZE ADD SLT PUSH2 0x220 JUMPI PUSH1 0x40 MLOAD PUSH1 0x0 PUSH1 0x6 SLOAD PUSH2 0x6C8 DUP2 PUSH2 0xF94 JUMP JUMPDEST DUP1 DUP5 MSTORE SWAP1 PUSH1 0x1 SWAP1 DUP2 DUP2 AND SWAP1 DUP2 ISZERO PUSH2 0x753 JUMPI POP PUSH1 0x1 EQ PUSH2 0x70A JUMPI JUMPDEST PUSH2 0x706 DUP5 PUSH2 0x6F2 DUP2 DUP7 SUB DUP3 PUSH2 0x1014 JUMP JUMPDEST PUSH1 0x40 MLOAD SWAP2 DUP3 SWAP2 PUSH1 0x20 DUP4 MSTORE PUSH1 0x20 DUP4 ADD SWAP1 PUSH2 0xF21 JUMP JUMPDEST SUB SWAP1 RETURN JUMPDEST PUSH1 0x6 PUSH1 0x0 SWAP1 DUP2 MSTORE SWAP3 POP PUSH1 0x0 DUP1 MLOAD PUSH1 0x20 PUSH2 0x1496 DUP4 CODECOPY DUP2 MLOAD SWAP2 MSTORE JUMPDEST DUP3 DUP5 LT PUSH2 0x73B JUMPI POP POP POP DUP2 ADD PUSH1 0x20 ADD PUSH2 0x6F2 DUP3 PUSH2 0x6E2 JUMP JUMPDEST DUP1 SLOAD PUSH1 0x20 DUP6 DUP8 ADD DUP2 ADD SWAP2 SWAP1 SWAP2 MSTORE SWAP1 SWAP4 ADD SWAP3 DUP2 ADD PUSH2 0x723 JUMP JUMPDEST PUSH1 0xFF NOT AND PUSH1 0x20 DUP1 DUP8 ADD SWAP2 SWAP1 SWAP2 MSTORE SWAP3 ISZERO ISZERO PUSH1 0x5 SHL DUP6 ADD SWAP1 SWAP3 ADD SWAP3 POP PUSH2 0x6F2 SWAP2 POP DUP4 SWAP1 POP PUSH2 0x6E2 JUMP JUMPDEST POP CALLVALUE PUSH2 0x220 JUMPI DUP1 PUSH1 0x3 NOT CALLDATASIZE ADD SLT PUSH2 0x220 JUMPI DUP1 SLOAD PUSH1 0x1 PUSH1 0x1 PUSH1 0xA0 SHL SUB SWAP1 PUSH2 0x7A3 SWAP1 DUP3 AND CALLER EQ PUSH2 0x1083 JUMP JUMPDEST PUSH1 0x0 DUP1 SLOAD PUSH1 0x1 PUSH1 0x1 PUSH1 0xA0 SHL SUB NOT DUP2 AND DUP3 SSTORE PUSH1 0x40 MLOAD SWAP3 AND PUSH32 0x8BE0079C531659141344CD1FD0A4F28419497F9722A3DAAFE3B4186F6B6457E0 DUP3 DUP5 LOG3 RETURN JUMPDEST POP CALLVALUE PUSH2 0x220 JUMPI PUSH1 0x20 CALLDATASIZE PUSH1 0x3 NOT ADD SLT PUSH2 0x220 JUMPI PUSH1 0x20 PUSH2 0x43D PUSH1 0x4 CALLDATALOAD PUSH2 0x1376 JUMP JUMPDEST POP CALLVALUE PUSH2 0x220 JUMPI PUSH1 0x80 CALLDATASIZE PUSH1 0x3 NOT ADD SLT PUSH2 0x220 JUMPI PUSH1 0x4 CALLDATALOAD PUSH8 0xFFFFFFFFFFFFFFFF DUP2 GT PUSH2 0x2C0 JUMPI PUSH2 0x830 SWAP1 CALLDATASIZE SWAP1 PUSH1 0x4 ADD PUSH2 0xF61 JUMP JUMPDEST SWAP1 SWAP2 PUSH1 0x24 CALLDATALOAD PUSH8 0xFFFFFFFFFFFFFFFF DUP2 GT PUSH2 0x2C0 JUMPI PUSH2 0x852 SWAP1 CALLDATASIZE SWAP1 PUSH1 0x4 ADD PUSH2 0xF61 JUMP JUMPDEST SWAP1 PUSH1 0x44 CALLDATALOAD PUSH8 0xFFFFFFFFFFFFFFFF DUP2 GT PUSH2 0x270 JUMPI PUSH2 0x873 SWAP1 CALLDATASIZE SWAP1 PUSH1 0x4 ADD PUSH2 0xF61 JUMP JUMPDEST PUSH2 0x887 PUSH1 0x1 DUP1 PUSH1 0xA0 SHL SUB DUP7 SLOAD AND CALLER EQ PUSH2 0x1083 JUMP JUMPDEST PUSH9 0x1BC16D674EC800000 SELFBALANCE LT PUSH2 0xBFE JUMPI PUSH1 0x4 SLOAD PUSH1 0xFF DUP2 AND PUSH1 0x3 DUP2 LT ISZERO PUSH2 0xBEA JUMPI PUSH2 0xBB7 JUMPI PUSH1 0xFF NOT AND PUSH1 0x1 OR PUSH1 0x4 SSTORE ADDRESS PUSH1 0x1 PUSH1 0xF8 SHL DUP2 ADD SWAP1 DUP2 LT PUSH2 0xBA3 JUMPI PUSH1 0x40 MLOAD SWAP1 PUSH1 0x20 DUP3 ADD MSTORE PUSH1 0x20 DUP2 MSTORE PUSH2 0x8DA DUP2 PUSH2 0xFF8 JUMP JUMPDEST PUSH8 0xFFFFFFFFFFFFFFFF DUP6 GT PUSH2 0xB8F JUMPI PUSH1 0x40 MLOAD PUSH2 0x900 PUSH1 0x1F DUP8 ADD PUSH1 0x1F NOT AND PUSH1 0x20 ADD DUP3 PUSH2 0x1014 JUMP JUMPDEST DUP6 DUP2 MSTORE CALLDATASIZE DUP7 DUP7 ADD GT PUSH2 0xB8B JUMPI PUSH1 0x20 DUP2 ADD SWAP1 DUP7 DUP7 DUP4 CALLDATACOPY DUP8 PUSH1 0x20 DUP9 DUP4 ADD ADD MSTORE MLOAD SWAP1 KECCAK256 SWAP1 PUSH1 0x20 DUP2 MLOAD SWAP2 ADD KECCAK256 SUB PUSH2 0xB46 JUMPI PUSH1 0x7 SLOAD PUSH1 0x1 PUSH1 0x1 PUSH1 0xA0 SHL SUB AND SWAP3 DUP4 EXTCODESIZE ISZERO PUSH2 0xB42 JUMPI PUSH9 0x1BC16D674EC800000 DUP8 PUSH2 0x9A4 PUSH2 0x980 SWAP6 DUP10 SWAP8 SWAP6 PUSH2 0x992 DUP14 SWAP7 PUSH1 0x40 MLOAD SWAP12 DUP13 SWAP11 DUP12 SWAP10 DUP11 SWAP9 PUSH4 0x4512A23 PUSH1 0xE3 SHL DUP11 MSTORE PUSH1 0x80 PUSH1 0x4 DUP12 ADD MSTORE PUSH1 0x84 DUP11 ADD SWAP2 PUSH2 0x1474 JUMP JUMPDEST DUP8 DUP2 SUB PUSH1 0x3 NOT ADD PUSH1 0x24 DUP10 ADD MSTORE SWAP2 PUSH2 0x1474 JUMP JUMPDEST DUP5 DUP2 SUB PUSH1 0x3 NOT ADD PUSH1 0x44 DUP7 ADD MSTORE SWAP2 PUSH2 0x1474 JUMP JUMPDEST PUSH1 0x64 CALLDATALOAD PUSH1 0x64 DUP4 ADD MSTORE SUB SWAP3 GAS CALL DUP1 ISZERO PUSH2 0x223 JUMPI PUSH2 0xB33 JUMPI JUMPDEST POP SWAP1 PUSH8 0xFFFFFFFFFFFFFFFF DUP2 GT PUSH2 0xB1F JUMPI PUSH2 0x9D7 PUSH1 0x6 SLOAD PUSH2 0xF94 JUMP JUMPDEST PUSH1 0x1F DUP2 GT PUSH2 0xACD JUMPI JUMPDEST POP DUP2 PUSH1 0x1F DUP3 GT PUSH1 0x1 EQ PUSH2 0xA5E JUMPI DUP3 SWAP4 DUP3 SWAP4 SWAP3 PUSH2 0xA53 JUMPI JUMPDEST POP POP DUP2 PUSH1 0x1 SHL SWAP2 PUSH1 0x0 NOT SWAP1 PUSH1 0x3 SHL SHR NOT AND OR PUSH1 0x6 SSTORE JUMPDEST PUSH1 0x4 SLOAD PUSH1 0x40 DUP1 MLOAD PUSH1 0x8 SWAP3 SWAP1 SWAP3 SHR PUSH1 0x1 PUSH1 0x1 PUSH1 0xA0 SHL SUB AND DUP3 MSTORE CALLER PUSH1 0x20 DUP4 ADD MSTORE PUSH32 0x1944DEBB24A9AAFCF2708BE964E412CDB73FC36D6EA24577FD8DCC05B93B4A44 SWAP2 LOG1 PUSH1 0x40 MLOAD RETURN JUMPDEST ADD CALLDATALOAD SWAP1 POP CODESIZE DUP1 PUSH2 0x9F7 JUMP JUMPDEST PUSH1 0x6 DUP4 MSTORE PUSH1 0x1F NOT DUP3 AND SWAP4 PUSH1 0x0 DUP1 MLOAD PUSH1 0x20 PUSH2 0x1496 DUP4 CODECOPY DUP2 MLOAD SWAP2 MSTORE SWAP2 DUP5 JUMPDEST DUP7 DUP2 LT PUSH2 0xAB5 JUMPI POP DUP4 PUSH1 0x1 SWAP6 SWAP7 LT PUSH2 0xA9B JUMPI JUMPDEST POP POP POP DUP2 SHL ADD PUSH1 0x6 SSTORE PUSH2 0xA0D JUMP JUMPDEST ADD CALLDATALOAD PUSH1 0x0 NOT PUSH1 0x3 DUP5 SWAP1 SHL PUSH1 0xF8 AND SHR NOT AND SWAP1 SSTORE CODESIZE DUP1 DUP1 PUSH2 0xA8D JUMP JUMPDEST SWAP1 SWAP3 PUSH1 0x20 PUSH1 0x1 DUP2 SWAP3 DUP7 DUP7 ADD CALLDATALOAD DUP2 SSTORE ADD SWAP5 ADD SWAP2 ADD PUSH2 0xA7A JUMP JUMPDEST PUSH1 0x6 DUP4 MSTORE PUSH1 0x0 DUP1 MLOAD PUSH1 0x20 PUSH2 0x1496 DUP4 CODECOPY DUP2 MLOAD SWAP2 MSTORE PUSH1 0x1F DUP4 ADD PUSH1 0x5 SHR DUP2 ADD SWAP2 PUSH1 0x20 DUP5 LT PUSH2 0xB15 JUMPI JUMPDEST PUSH1 0x1F ADD PUSH1 0x5 SHR ADD SWAP1 JUMPDEST DUP2 DUP2 LT PUSH2 0xB09 JUMPI POP PUSH2 0x9E0 JUMP JUMPDEST PUSH1 0x0 DUP2 SSTORE PUSH1 0x1 ADD PUSH2 0xAFC JUMP JUMPDEST SWAP1 SWAP2 POP DUP2 SWAP1 PUSH2 0xAF3 JUMP JUMPDEST PUSH4 0x4E487B71 PUSH1 0xE0 SHL DUP3 MSTORE PUSH1 0x41 PUSH1 0x4 MSTORE PUSH1 0x24 DUP3 REVERT JUMPDEST PUSH2 0xB3C SWAP1 PUSH2 0xFCE JUMP JUMPDEST CODESIZE PUSH2 0x9BB JUMP JUMPDEST DUP6 DUP1 REVERT JUMPDEST PUSH1 0x40 MLOAD PUSH3 0x461BCD PUSH1 0xE5 SHL DUP2 MSTORE PUSH1 0x20 PUSH1 0x4 DUP3 ADD MSTORE PUSH1 0x1E PUSH1 0x24 DUP3 ADD MSTORE PUSH32 0x7769746864726177616C2063726564656E7469616C206D69736D617463680000 PUSH1 0x44 DUP3 ADD MSTORE PUSH1 0x64 SWAP1 REVERT JUMPDEST DUP7 DUP1 REVERT JUMPDEST PUSH4 0x4E487B71 PUSH1 0xE0 SHL DUP7 MSTORE PUSH1 0x41 PUSH1 0x4 MSTORE PUSH1 0x24 DUP7 REVERT JUMPDEST PUSH4 0x4E487B71 PUSH1 0xE0 SHL DUP7 MSTORE PUSH1 0x11 PUSH1 0x4 MSTORE PUSH1 0x24 DUP7 REVERT JUMPDEST PUSH1 0x40 MLOAD PUSH3 0x461BCD PUSH1 0xE5 SHL DUP2 MSTORE PUSH1 0x20 PUSH1 0x4 DUP3 ADD MSTORE PUSH1 0xB PUSH1 0x24 DUP3 ADD MSTORE PUSH11 0x77726F6E67207374617465 PUSH1 0xA8 SHL PUSH1 0x44 DUP3 ADD MSTORE PUSH1 0x64 SWAP1 REVERT JUMPDEST PUSH4 0x4E487B71 PUSH1 0xE0 SHL DUP8 MSTORE PUSH1 0x21 PUSH1 0x4 MSTORE PUSH1 0x24 DUP8 REVERT JUMPDEST PUSH1 0x40 MLOAD PUSH3 0x461BCD PUSH1 0xE5 SHL DUP2 MSTORE PUSH1 0x20 PUSH1 0x4 DUP3 ADD MSTORE PUSH1 0xE PUSH1 0x24 DUP3 ADD MSTORE PUSH14 0xDCDEE840CADCDEEACED040CAE8D PUSH1 0x93 SHL PUSH1 0x44 DUP3 ADD MSTORE PUSH1 0x64 SWAP1 REVERT JUMPDEST POP CALLVALUE PUSH2 0x220 JUMPI DUP1 PUSH1 0x3 NOT CALLDATASIZE ADD SLT PUSH2 0x220 JUMPI PUSH1 0x40 MLOAD SWAP1 DUP1 PUSH1 0x6 SLOAD PUSH2 0xC56 DUP2 PUSH2 0xF94 JUMP JUMPDEST DUP1 DUP6 MSTORE SWAP2 PUSH1 0x1 SWAP2 DUP1 DUP4 AND SWAP1 DUP2 ISZERO PUSH2 0xCC9 JUMPI POP PUSH1 0x1 EQ PUSH2 0xC80 JUMPI JUMPDEST PUSH2 0x706 DUP6 PUSH2 0x6F2 DUP2 DUP8 SUB DUP3 PUSH2 0x1014 JUMP JUMPDEST SWAP3 POP PUSH1 0x6 DUP4 MSTORE PUSH1 0x0 DUP1 MLOAD PUSH1 0x20 PUSH2 0x1496 DUP4 CODECOPY DUP2 MLOAD SWAP2 MSTORE JUMPDEST DUP3 DUP5 LT PUSH2 0xCB1 JUMPI POP POP POP DUP2 ADD PUSH1 0x20 ADD PUSH2 0x6F2 DUP3 PUSH2 0x706 PUSH2 0xC70 JUMP JUMPDEST DUP1 SLOAD PUSH1 0x20 DUP6 DUP8 ADD DUP2 ADD SWAP2 SWAP1 SWAP2 MSTORE SWAP1 SWAP4 ADD SWAP3 DUP2 ADD PUSH2 0xC96 JUMP JUMPDEST DUP7 SWAP6 POP PUSH2 0x706 SWAP7 SWAP4 POP PUSH1 0x20 SWAP3 POP PUSH2 0x6F2 SWAP5 SWAP2 POP PUSH1 0xFF NOT AND DUP3 DUP5 ADD MSTORE ISZERO ISZERO PUSH1 0x5 SHL DUP3 ADD ADD SWAP3 SWAP4 PUSH2 0xC70 JUMP JUMPDEST POP CALLVALUE PUSH2 0x220 JUMPI PUSH1 0x40 CALLDATASIZE PUSH1 0x3 NOT ADD SLT PUSH2 0x220 JUMPI PUSH1 0x4 CALLDATALOAD SWAP1 PUSH1 0x24 SWAP2 DUP3 CALLDATALOAD SWAP1 PUSH1 0xFF PUSH1 0x4 SLOAD AND PUSH1 0x3 DUP2 LT ISZERO PUSH2 0xE99 JUMPI PUSH1 0x1 EQ PUSH2 0xE55 JUMPI PUSH1 0x9 SLOAD PUSH1 0x40 MLOAD PUSH4 0x31A9108F PUSH1 0xE1 SHL DUP2 MSTORE PUSH1 0x4 DUP2 ADD DUP4 SWAP1 MSTORE PUSH1 0x20 SWAP3 SWAP2 PUSH1 0x1 PUSH1 0x1 PUSH1 0xA0 SHL SUB SWAP2 SWAP1 DUP5 SWAP1 DUP3 SWAP1 DUP10 SWAP1 DUP3 SWAP1 DUP7 AND GAS STATICCALL SWAP1 DUP2 ISZERO PUSH2 0xE4A JUMPI DUP7 SWAP2 PUSH2 0xE2D JUMPI JUMPDEST POP AND CALLER SUB PUSH2 0xDF9 JUMPI DUP1 DUP5 MSTORE PUSH1 0x1 DUP3 MSTORE DUP3 PUSH1 0x40 DUP6 KECCAK256 SLOAD LT PUSH2 0xDBE JUMPI DUP4 DUP1 SWAP4 PUSH1 0x1 DUP3 SWAP5 DUP4 SWAP5 DUP5 MSTORE MSTORE PUSH1 0x40 DUP3 KECCAK256 PUSH2 0xD99 DUP3 DUP3 SLOAD PUSH2 0x1110 JUMP JUMPDEST SWAP1 SSTORE PUSH2 0xDA7 DUP2 PUSH1 0x2 SLOAD PUSH2 0x1110 JUMP JUMPDEST PUSH1 0x2 SSTORE DUP2 DUP2 ISZERO PUSH2 0x414 JUMPI CALLER SWAP1 CALL ISZERO PUSH2 0x408 JUMPI PUSH1 0x40 MLOAD RETURN JUMPDEST PUSH1 0x40 MLOAD PUSH3 0x461BCD PUSH1 0xE5 SHL DUP2 MSTORE PUSH1 0x4 DUP2 ADD DUP4 SWAP1 MSTORE PUSH1 0x14 DUP2 DUP8 ADD MSTORE PUSH20 0x1B9BDD08195B9BDD59DA0819195C1BDCDA5D1959 PUSH1 0x62 SHL PUSH1 0x44 DUP3 ADD MSTORE PUSH1 0x64 SWAP1 REVERT JUMPDEST PUSH1 0x40 MLOAD PUSH3 0x461BCD PUSH1 0xE5 SHL DUP2 MSTORE PUSH1 0x4 DUP2 ADD DUP4 SWAP1 MSTORE PUSH1 0xD DUP2 DUP8 ADD MSTORE PUSH13 0x3737BA103A34329037BBB732B9 PUSH1 0x99 SHL PUSH1 0x44 DUP3 ADD MSTORE PUSH1 0x64 SWAP1 REVERT JUMPDEST PUSH2 0xE44 SWAP2 POP DUP5 RETURNDATASIZE DUP7 GT PUSH2 0x5D1 JUMPI PUSH2 0x5C2 DUP2 DUP4 PUSH2 0x1014 JUMP JUMPDEST CODESIZE PUSH2 0xD64 JUMP JUMPDEST PUSH1 0x40 MLOAD RETURNDATASIZE DUP9 DUP3 RETURNDATACOPY RETURNDATASIZE SWAP1 REVERT JUMPDEST PUSH1 0x40 MLOAD PUSH3 0x461BCD PUSH1 0xE5 SHL DUP2 MSTORE PUSH1 0x20 PUSH1 0x4 DUP3 ADD MSTORE PUSH1 0x1B DUP2 DUP7 ADD MSTORE PUSH32 0x63616E6E6F74207769746864726177206F6E6365207374616B65640000000000 PUSH1 0x44 DUP3 ADD MSTORE PUSH1 0x64 SWAP1 REVERT JUMPDEST POP POP PUSH4 0x4E487B71 PUSH1 0xE0 SHL DUP3 MSTORE POP PUSH1 0x21 PUSH1 0x4 MSTORE REVERT JUMPDEST POP CALLVALUE PUSH2 0x220 JUMPI DUP1 PUSH1 0x3 NOT CALLDATASIZE ADD SLT PUSH2 0x220 JUMPI PUSH2 0xEC6 PUSH2 0x111D JUMP JUMPDEST PUSH1 0x2 PUSH1 0xFF NOT PUSH1 0x4 SLOAD AND OR PUSH1 0x4 SSTORE PUSH1 0x40 MLOAD RETURN JUMPDEST POP CALLVALUE PUSH2 0x220 JUMPI DUP1 PUSH1 0x3 NOT CALLDATASIZE ADD SLT PUSH2 0x220 JUMPI PUSH1 0x4 SLOAD PUSH1 0x40 MLOAD PUSH1 0x8 SWAP2 SWAP1 SWAP2 SHR PUSH1 0x1 PUSH1 0x1 PUSH1 0xA0 SHL SUB AND DUP2 MSTORE PUSH1 0x20 SWAP1 RETURN JUMPDEST POP CALLVALUE PUSH2 0x220 JUMPI DUP1 PUSH1 0x3 NOT CALLDATASIZE ADD SLT PUSH2 0x220 JUMPI PUSH2 0x706 PUSH2 0x6F2 PUSH2 0x13B3 JUMP JUMPDEST SWAP2 SWAP1 DUP3 MLOAD SWAP3 DUP4 DUP3 MSTORE PUSH1 0x0 JUMPDEST DUP5 DUP2 LT PUSH2 0xF4D JUMPI POP POP DUP3 PUSH1 0x0 PUSH1 0x20 DUP1 SWAP5 SWAP6 DUP5 ADD ADD MSTORE PUSH1 0x1F DUP1 NOT SWAP2 ADD AND ADD ADD SWAP1 JUMP JUMPDEST PUSH1 0x20 DUP2 DUP4 ADD DUP2 ADD MLOAD DUP5 DUP4 ADD DUP3 ADD MSTORE ADD PUSH2 0xF2C JUMP JUMPDEST SWAP2 DUP2 PUSH1 0x1F DUP5 ADD SLT ISZERO PUSH2 0xF8F JUMPI DUP3 CALLDATALOAD SWAP2 PUSH8 0xFFFFFFFFFFFFFFFF DUP4 GT PUSH2 0xF8F JUMPI PUSH1 0x20 DUP4 DUP2 DUP7 ADD SWAP6 ADD ADD GT PUSH2 0xF8F JUMPI JUMP JUMPDEST PUSH1 0x0 DUP1 REVERT JUMPDEST SWAP1 PUSH1 0x1 DUP3 DUP2 SHR SWAP3 AND DUP1 ISZERO PUSH2 0xFC4 JUMPI JUMPDEST PUSH1 0x20 DUP4 LT EQ PUSH2 0xFAE JUMPI JUMP JUMPDEST PUSH4 0x4E487B71 PUSH1 0xE0 SHL PUSH1 0x0 MSTORE PUSH1 0x22 PUSH1 0x4 MSTORE PUSH1 0x24 PUSH1 0x0 REVERT JUMPDEST SWAP2 PUSH1 0x7F AND SWAP2 PUSH2 0xFA3 JUMP JUMPDEST PUSH8 0xFFFFFFFFFFFFFFFF DUP2 GT PUSH2 0xFE2 JUMPI PUSH1 0x40 MSTORE JUMP JUMPDEST PUSH4 0x4E487B71 PUSH1 0xE0 SHL PUSH1 0x0 MSTORE PUSH1 0x41 PUSH1 0x4 MSTORE PUSH1 0x24 PUSH1 0x0 REVERT JUMPDEST PUSH1 0x40 DUP2 ADD SWAP1 DUP2 LT PUSH8 0xFFFFFFFFFFFFFFFF DUP3 GT OR PUSH2 0xFE2 JUMPI PUSH1 0x40 MSTORE JUMP JUMPDEST SWAP1 PUSH1 0x1F DUP1 NOT SWAP2 ADD AND DUP2 ADD SWAP1 DUP2 LT PUSH8 0xFFFFFFFFFFFFFFFF DUP3 GT OR PUSH2 0xFE2 JUMPI PUSH1 0x40 MSTORE JUMP JUMPDEST PUSH1 0x3 SLOAD DUP2 LT ISZERO PUSH2 0x106D JUMPI PUSH1 0x3 PUSH1 0x0 MSTORE PUSH32 0xC2575A0E9E593C00F959F8C92F12DB2869C3395A3B0502D05E2516446F71F85B ADD SWAP1 PUSH1 0x0 SWAP1 JUMP JUMPDEST PUSH4 0x4E487B71 PUSH1 0xE0 SHL PUSH1 0x0 MSTORE PUSH1 0x32 PUSH1 0x4 MSTORE PUSH1 0x24 PUSH1 0x0 REVERT JUMPDEST ISZERO PUSH2 0x108A JUMPI JUMP JUMPDEST PUSH1 0x64 PUSH1 0x40 MLOAD PUSH3 0x461BCD PUSH1 0xE5 SHL DUP2 MSTORE PUSH1 0x20 PUSH1 0x4 DUP3 ADD MSTORE PUSH1 0x20 PUSH1 0x24 DUP3 ADD MSTORE PUSH32 0x4F776E61626C653A2063616C6C6572206973206E6F7420746865206F776E6572 PUSH1 0x44 DUP3 ADD MSTORE REVERT JUMPDEST SWAP2 SWAP1 DUP3 ADD DUP1 SWAP3 GT PUSH2 0x10DB JUMPI JUMP JUMPDEST PUSH4 0x4E487B71 PUSH1 0xE0 SHL PUSH1 0x0 MSTORE PUSH1 0x11 PUSH1 0x4 MSTORE PUSH1 0x24 PUSH1 0x0 REVERT JUMPDEST SWAP1 DUP2 PUSH1 0x20 SWAP2 SUB SLT PUSH2 0xF8F JUMPI MLOAD PUSH1 0x1 PUSH1 0x1 PUSH1 0xA0 SHL SUB DUP2 AND DUP2 SUB PUSH2 0xF8F JUMPI SWAP1 JUMP JUMPDEST SWAP2 SWAP1 DUP3 SUB SWAP2 DUP3 GT PUSH2 0x10DB JUMPI JUMP JUMPDEST PUSH1 0x4 SWAP1 PUSH1 0xFF DUP3 SLOAD AND PUSH1 0x3 SWAP3 DUP4 DUP3 LT ISZERO PUSH2 0x12CC JUMPI PUSH1 0x1 DUP1 SWAP3 SUB PUSH2 0x1288 JUMPI SELFBALANCE PUSH1 0x64 DUP2 GT ISZERO PUSH2 0x1244 JUMPI PUSH1 0x0 SWAP5 DUP4 JUMPDEST PUSH2 0x1155 JUMPI JUMPDEST POP POP POP POP SWAP1 POP JUMP JUMPDEST DUP1 SLOAD DUP7 LT ISZERO PUSH2 0x123F JUMPI PUSH2 0x1167 DUP7 PUSH2 0x1036 JUMP JUMPDEST SWAP1 SLOAD SWAP1 DUP3 SHL SHR PUSH1 0x1 DUP1 PUSH1 0xA0 SHL SUB DUP1 PUSH1 0x9 SLOAD AND SWAP2 PUSH1 0x40 SWAP3 DUP4 MLOAD DUP1 SWAP2 PUSH4 0x31A9108F PUSH1 0xE1 SHL DUP3 MSTORE DUP4 DUP10 DUP4 ADD MSTORE DUP2 PUSH1 0x24 PUSH1 0x20 SWAP5 DUP6 SWAP4 GAS STATICCALL SWAP2 DUP3 ISZERO PUSH2 0x1234 JUMPI SWAP4 PUSH1 0x0 SWAP5 SWAP4 DUP6 SWAP5 SWAP4 DUP10 DUP7 SWAP6 SWAP5 DUP7 SWAP6 DUP7 SWAP4 PUSH2 0x1211 JUMPI JUMPDEST POP POP PUSH2 0x11C2 SWAP2 SWAP3 PUSH2 0x12E1 JUMP JUMPDEST SWAP2 DUP4 SWAP2 DUP4 ISZERO PUSH2 0x1207 JUMPI JUMPDEST AND SWAP1 CALL ISZERO PUSH2 0x11FD JUMPI POP PUSH1 0x0 NOT DUP7 EQ PUSH2 0x11E8 JUMPI SWAP5 DUP4 ADD SWAP5 DUP4 PUSH2 0x1148 JUMP JUMPDEST PUSH1 0x11 DUP4 PUSH4 0x4E487B71 PUSH1 0xE0 SHL PUSH1 0x0 MSTORE MSTORE PUSH1 0x24 PUSH1 0x0 REVERT JUMPDEST MLOAD RETURNDATASIZE PUSH1 0x0 DUP3 RETURNDATACOPY RETURNDATASIZE SWAP1 REVERT JUMPDEST PUSH2 0x8FC SWAP3 POP PUSH2 0x11CC JUMP JUMPDEST PUSH2 0x11C2 SWAP4 POP SWAP1 DUP2 PUSH2 0x122D SWAP3 SWAP1 RETURNDATASIZE LT PUSH2 0x5D1 JUMPI PUSH2 0x5C2 DUP2 DUP4 PUSH2 0x1014 JUMP JUMPDEST SWAP2 CODESIZE PUSH2 0x11B6 JUMP JUMPDEST DUP6 MLOAD RETURNDATASIZE PUSH1 0x0 DUP3 RETURNDATACOPY RETURNDATASIZE SWAP1 REVERT JUMPDEST PUSH2 0x114D JUMP JUMPDEST PUSH1 0x40 MLOAD PUSH3 0x461BCD PUSH1 0xE5 SHL DUP2 MSTORE PUSH1 0x20 DUP2 DUP5 ADD DUP2 SWAP1 MSTORE PUSH1 0x24 DUP3 ADD MSTORE PUSH32 0x6D696E696D756D206F66203130302077656920746F2064697374726962757465 PUSH1 0x44 DUP3 ADD MSTORE PUSH1 0x64 SWAP1 REVERT JUMPDEST PUSH1 0x64 SWAP1 PUSH1 0x20 PUSH1 0x40 MLOAD SWAP2 PUSH3 0x461BCD PUSH1 0xE5 SHL DUP4 MSTORE DUP3 ADD MSTORE PUSH1 0x1C PUSH1 0x24 DUP3 ADD MSTORE PUSH32 0x757365207769746864726177207768656E206E6F74207374616B656400000000 PUSH1 0x44 DUP3 ADD MSTORE REVERT JUMPDEST PUSH1 0x21 SWAP1 PUSH4 0x4E487B71 PUSH1 0xE0 SHL PUSH1 0x0 MSTORE MSTORE PUSH1 0x24 PUSH1 0x0 REVERT JUMPDEST PUSH1 0x0 SWAP1 DUP2 MSTORE PUSH1 0x1 PUSH1 0x20 MSTORE PUSH1 0x40 DUP2 KECCAK256 SLOAD ISZERO PUSH2 0x1371 JUMPI PUSH1 0x40 DUP2 KECCAK256 SLOAD PUSH1 0x0 NOT SWAP3 SWAP1 DUP2 ISZERO ISZERO DUP3 DUP6 DIV DUP3 GT AND PUSH2 0x135D JUMPI PUSH1 0x2 SLOAD SWAP2 DUP3 ISZERO PUSH2 0x1349 JUMPI MUL DIV SWAP2 PUSH1 0x1 DUP4 GT ISZERO PUSH2 0x1343 JUMPI DUP3 ADD SWAP2 DUP3 GT PUSH2 0x132F JUMPI POP SWAP1 JUMP JUMPDEST PUSH4 0x4E487B71 PUSH1 0xE0 SHL DUP2 MSTORE PUSH1 0x11 PUSH1 0x4 MSTORE PUSH1 0x24 SWAP1 REVERT JUMPDEST POP SWAP1 POP SWAP1 JUMP JUMPDEST PUSH4 0x4E487B71 PUSH1 0xE0 SHL DUP5 MSTORE PUSH1 0x12 PUSH1 0x4 MSTORE PUSH1 0x24 DUP5 REVERT JUMPDEST PUSH4 0x4E487B71 PUSH1 0xE0 SHL DUP4 MSTORE PUSH1 0x11 PUSH1 0x4 MSTORE PUSH1 0x24 DUP4 REVERT JUMPDEST SWAP1 POP SWAP1 JUMP JUMPDEST PUSH1 0xFF PUSH1 0x4 SLOAD AND PUSH1 0x3 DUP2 LT ISZERO PUSH2 0x139D JUMPI PUSH2 0x138F JUMPI POP PUSH1 0x0 SWAP1 JUMP JUMPDEST PUSH2 0x139A SWAP1 SELFBALANCE SWAP1 PUSH2 0x12E1 JUMP JUMPDEST SWAP1 JUMP JUMPDEST PUSH4 0x4E487B71 PUSH1 0xE0 SHL PUSH1 0x0 MSTORE PUSH1 0x21 PUSH1 0x4 MSTORE PUSH1 0x24 PUSH1 0x0 REVERT JUMPDEST PUSH1 0xFF PUSH1 0x4 SLOAD AND PUSH1 0x3 DUP2 LT ISZERO PUSH2 0x139D JUMPI PUSH1 0x1 DUP2 EQ PUSH2 0x1451 JUMPI DUP1 ISZERO PUSH2 0x1422 JUMPI PUSH1 0x2 EQ PUSH2 0x1400 JUMPI PUSH1 0x40 MLOAD PUSH2 0x13E3 DUP2 PUSH2 0xFF8 JUMP JUMPDEST PUSH1 0xD DUP2 MSTORE PUSH13 0x7374617465206661696C757265 PUSH1 0x98 SHL PUSH1 0x20 DUP3 ADD MSTORE SWAP1 JUMP JUMPDEST PUSH1 0x40 MLOAD PUSH2 0x140C DUP2 PUSH2 0xFF8 JUMP JUMPDEST PUSH1 0x6 DUP2 MSTORE PUSH6 0x195E1A5D1959 PUSH1 0xD2 SHL PUSH1 0x20 DUP3 ADD MSTORE SWAP1 JUMP JUMPDEST POP PUSH1 0x40 MLOAD PUSH2 0x142F DUP2 PUSH2 0xFF8 JUMP JUMPDEST PUSH1 0x12 DUP2 MSTORE PUSH18 0x616363657074696E67206465706F73697473 PUSH1 0x70 SHL PUSH1 0x20 DUP3 ADD MSTORE SWAP1 JUMP JUMPDEST POP PUSH1 0x40 MLOAD PUSH2 0x145E DUP2 PUSH2 0xFF8 JUMP JUMPDEST PUSH1 0x6 DUP2 MSTORE PUSH6 0x1CDD185AD959 PUSH1 0xD2 SHL PUSH1 0x20 DUP3 ADD MSTORE SWAP1 JUMP JUMPDEST SWAP1 DUP1 PUSH1 0x20 SWAP4 SWAP3 DUP2 DUP5 MSTORE DUP5 DUP5 ADD CALLDATACOPY PUSH1 0x0 DUP3 DUP3 ADD DUP5 ADD MSTORE PUSH1 0x1F ADD PUSH1 0x1F NOT AND ADD ADD SWAP1 JUMP INVALID 0xF6 MSTORE 0x22 0x23 SGT 0xE2 DUP5 MSIZE MSTORE DUP14 SWAP3 SIGNEXTEND PUSH6 0x115C16C04F3E 0xFC DUP3 0xAA 0xED 0xC9 PUSH28 0xE59F3F377C0D3FA26469706673582212206A3B47F55D65A85CA73662 0xFB 0x4A PUSH16 0x5A9A05A0FCFF03EFD9518B32D53F4971 0xBE 0xE4 PUSH5 0x736F6C6343 STOP ADDMOD LT STOP CALLER "
        },
        "gasEstimates": {
          "creation": {
            "codeDepositCost": "1071000",
            "executionCost": "infinite",
            "totalCost": "infinite"
          },
          "external": {
            "": "528",
            "addToDeposit(uint256)": "infinite",
            "deposit(address)": "infinite",
            "depositAmount(uint256)": "2607",
            "depositContractAddress()": "2310",
            "distribute()": "infinite",
            "getDepositAmount(uint256)": "2387",
            "getDistributableShare(uint256)": "9105",
            "getPubKey()": "infinite",
            "getShare(uint256)": "7100",
            "getState()": "infinite",
            "idsInThisPool(uint256)": "6819",
            "owner()": "2584",
            "renounceOwnership()": "28233",
            "rugpull()": "infinite",
            "stake(bytes,bytes,bytes,bytes32)": "infinite",
            "totalDeposits()": "2475",
            "transferOwnership(address)": "28515",
            "unstake()": "infinite",
            "validatorPubKey()": "infinite",
            "withdraw(uint256,uint256)": "infinite"
          },
          "internal": {
            "_getShare(uint256,uint256)": "6616",
            "_toWithdrawalCred(address)": "infinite"
          }
        },
        "methodIdentifiers": {
          "addToDeposit(uint256)": "8620891c",
          "deposit(address)": "f340fa01",
          "depositAmount(uint256)": "87f8ab26",
          "depositContractAddress()": "2a4dbd2b",
          "distribute()": "e4fc6b6d",
          "getDepositAmount(uint256)": "378de45b",
          "getDistributableShare(uint256)": "678e300a",
          "getPubKey()": "4ad02ef1",
          "getShare(uint256)": "cfb5a5f8",
          "getState()": "1865c57d",
          "idsInThisPool(uint256)": "82a790cf",
          "owner()": "8da5cb5b",
          "renounceOwnership()": "715018a6",
          "rugpull()": "e2664e49",
          "stake(bytes,bytes,bytes,bytes32)": "4b2b4e36",
          "totalDeposits()": "7d882097",
          "transferOwnership(address)": "f2fde38b",
          "unstake()": "2def6620",
          "validatorPubKey()": "7be0b4a0",
          "withdraw(uint256,uint256)": "441a3e70"
        }
      },
      "storageLayout": {
        "storage": [
          {
            "astId": 7,
            "contract": "contracts/StakingPool.sol:StakingPool",
            "label": "_owner",
            "offset": 0,
            "slot": "0",
            "type": "t_address"
          },
          {
            "astId": 2800,
            "contract": "contracts/StakingPool.sol:StakingPool",
            "label": "depositAmount",
            "offset": 0,
            "slot": "1",
            "type": "t_mapping(t_uint256,t_uint256)"
          },
          {
            "astId": 2802,
            "contract": "contracts/StakingPool.sol:StakingPool",
            "label": "totalDeposits",
            "offset": 0,
            "slot": "2",
            "type": "t_uint256"
          },
          {
            "astId": 2805,
            "contract": "contracts/StakingPool.sol:StakingPool",
            "label": "idsInThisPool",
            "offset": 0,
            "slot": "3",
            "type": "t_array(t_uint256)dyn_storage"
          },
          {
            "astId": 2812,
            "contract": "contracts/StakingPool.sol:StakingPool",
            "label": "currentState",
            "offset": 0,
            "slot": "4",
            "type": "t_enum(State)2809"
          },
          {
            "astId": 2814,
            "contract": "contracts/StakingPool.sol:StakingPool",
            "label": "depositContractAddress",
            "offset": 1,
            "slot": "4",
            "type": "t_address"
          },
          {
            "astId": 2816,
            "contract": "contracts/StakingPool.sol:StakingPool",
            "label": "rightfulOwner",
            "offset": 0,
            "slot": "5",
            "type": "t_address"
          },
          {
            "astId": 2818,
            "contract": "contracts/StakingPool.sol:StakingPool",
            "label": "validatorPubKey",
            "offset": 0,
            "slot": "6",
            "type": "t_bytes_storage"
          },
          {
            "astId": 2821,
            "contract": "contracts/StakingPool.sol:StakingPool",
            "label": "depositContract",
            "offset": 0,
            "slot": "7",
            "type": "t_contract(IDepositContract)3581"
          },
          {
            "astId": 2824,
            "contract": "contracts/StakingPool.sol:StakingPool",
            "label": "factoryContract",
            "offset": 0,
            "slot": "8",
            "type": "t_contract(IStakingPoolFactory)3896"
          },
          {
            "astId": 2827,
            "contract": "contracts/StakingPool.sol:StakingPool",
            "label": "frensPoolShare",
            "offset": 0,
            "slot": "9",
            "type": "t_contract(IFrensPoolShare)3615"
          }
        ],
        "types": {
          "t_address": {
            "encoding": "inplace",
            "label": "address",
            "numberOfBytes": "20"
          },
          "t_array(t_uint256)dyn_storage": {
            "base": "t_uint256",
            "encoding": "dynamic_array",
            "label": "uint256[]",
            "numberOfBytes": "32"
          },
          "t_bytes_storage": {
            "encoding": "bytes",
            "label": "bytes",
            "numberOfBytes": "32"
          },
          "t_contract(IDepositContract)3581": {
            "encoding": "inplace",
            "label": "contract IDepositContract",
            "numberOfBytes": "20"
          },
          "t_contract(IFrensPoolShare)3615": {
            "encoding": "inplace",
            "label": "contract IFrensPoolShare",
            "numberOfBytes": "20"
          },
          "t_contract(IStakingPoolFactory)3896": {
            "encoding": "inplace",
            "label": "contract IStakingPoolFactory",
            "numberOfBytes": "20"
          },
          "t_enum(State)2809": {
            "encoding": "inplace",
            "label": "enum StakingPool.State",
            "numberOfBytes": "1"
          },
          "t_mapping(t_uint256,t_uint256)": {
            "encoding": "mapping",
            "key": "t_uint256",
            "label": "mapping(uint256 => uint256)",
            "numberOfBytes": "32",
            "value": "t_uint256"
          },
          "t_uint256": {
            "encoding": "inplace",
            "label": "uint256",
            "numberOfBytes": "32"
          }
        }
      },
      "userdoc": {
        "kind": "user",
        "methods": {},
        "version": 1
      }
    }
  }
}