{
  "contracts/FrensLogo.sol": {
    "FrensLogo": {
      "abi": [
        {
          "inputs": [],
          "name": "getLogo",
          "outputs": [
            {
              "internalType": "bytes",
              "name": "",
              "type": "bytes"
            }
          ],
          "stateMutability": "pure",
          "type": "function"
        }
      ],
      "devdoc": {
        "kind": "dev",
        "methods": {},
        "version": 1
      },
      "evm": {
        "bytecode": {
          "linkReferences": {},
          "object": "6080806040523461001657612533908161001c8239f35b600080fdfe6080600436101561000f57600080fd5b6000803560e01c630b6700d61461002557600080fd5b346124fa57806003193601126124fa576020917f3c696d61676520207472616e73666f726d3d226d6174726978282e34302c302c838201527f302c2e34302c302c302922202020786c696e6b3a687265663d22646174613a6960408201527f6d6167652f706e673b6261736536342c6956424f5277304b47676f414141414e60608201527f5355684555674141412b6b414141507041514d4141414254382f34384141414160808201527f426c424d56455541414141412f2f38625161737741414141416e5253546c4d4160a08201527f50726679304a4d41414257365355524256486a61374e6578626355774445565260c08201527f436935556167526e4534336d6e38312b4e6e453263446f48634d6859634b465760e08201527f33514f456578613433534e6f41414141414141414141414141414141414141416101008201527f4141414141414141414141414141414141414141414141416d4e53485356306d6101208201527f3561615574506b6c54476d4a6c776c6c626237453234524b3743613061764d316101408201527f446873335733364c303451694c6873335754354675416e30664a6a4f6f73336e6101608201527f434f586f3533446c364a632f61583739395730336c5a6176776e7a39385871596101808201527f7a50627436326d6a5a7376486c35664c56466f2b75366d6b2b46546d6c3067756101a08201527f6554523650756c47503773305836376b4e6a7a36732b585838383772626b34396101c08201527f37767a77364d2b57332f59374c786e396e74654e667279562b5253764f79385a6101e08201527f2f5a35586a58344c4b2f505a573335303947664c6c36766c5a614f2f6e69302f6102008201527f4f76717a3565765238704c5237336e5a36472b374e422f766c74654d6673396e6102208201527f5454374636386d374b5378684c5438342b72506c737a39353065695836386b506102408201527f6a76356b2b665638386f725237336e56364e64446d742f324a36385a2f5a34766102608201527f2f397a5873616c4549525345345630324d4c51455337453058326d5759676d476102808201527f42714b504338496f7770364e35734370344d762b595654346d5266503352776b6102a08201527f662f452f526438592f36542b345a5769373862696634752b4d643733786574456102c08201527f333766463630512f36504b784c7034632f5a7350436e777134425769502f50696102e08201527f6634712b4d6635707a654b7030556679462f395439493378626f4258694c37726103008201527f3442576937335835304d427a6f332f7a6b633748436c3568633149424c3066666103208201527f476a387a65474c306b587a776376534e38552f6d77644f6a2f786e6746614c766103408201527f64486e6677524f694c2f434a7a496347586d467a59675650694c3741427a4b666103608201527f436e6946364d384d586f362b4d66377044486861394d472f77504f6a2f39486c6103808201527f33514250694c374576376938372b41564e6963303849546f6933796b387247436103a08201527f56396963564d444c306266477a7778654966727a447a772f2b6d386c48736b486103c08201527f5434332b7a664f6a37345971377a74345276526c50684835304d4172624536736103e08201527f344f586f572b4e54416138512f5a54424b30522f3676426f4448687139472b656104008201527f474831516d72776247382b4e2f7333546a34627647382f666e4e4132586f362b6104208201527f4d5437576a6564485035614e3530632f3666497a627a77312b6a66506a5434436104408201527f782b6552642f426939446e386d385737736650307a6646393538586f472b4e446104608201527f32336c3639455064655872306f793666797335546f332f7a394f6a50724d536a6104808201527f4c2b436c364c5034443446483873467a4e38654e6735656962347a332f65445a6104a08201527f30512f74344b586f472b4e6a5058687139472b654866315556506d5a443136496104c08201527f506f39334242353141632f61484b516476424239593777624a302b4f7675386e6104e08201527f4c30546647422f6179564f6a662f4f6b364d4e5135564d3565534836524e34546105008201527f2b4a6c506e72673561417634373945337869507334496e52642b5069763058666105208201527f47502f507264336a5741314455514447697342434947554a626c6b436e646b456105408201527f4e567567707342764279774a53327a454853576d776b4c4242347a762b4e67596105608201527f55643042695251776b78664e35352f63342f793838397034686444583465382f6105808201527f3946333570377a50473638512b6a71387533632b7049332f6d32734f3473622f6105a08201527f4966542f4d35374a517636766854356a6e667766512f382f34323364654958516105c08201527f312b4876502f545036352f79726d79385175687238663665655a393366762f596105e08201527f7646466d4f626f377677394f41412f372b2f7742334e506167376a78653247636106008201527f514e566c6d5373627638654342336a63332b63446f42344144505756337a38336106208201527f414c5450765666416935312f5170366a637a512b712b6f6e674c70462f6747556106408201527f6e62654e4c37707a33726134526a375073625579546e582b524e7375386d78556106608201527f3372354736667178696c734130487136527237646e5a44366d4b43716a7a32516106808201527f6c386876446b65666f522b302b565034612b58377a766862486f7138673277686106a08201527f37574f536677313961504d42774e3556432f41635a2b6762414b71706130422b6106c08201527f483550364333396f387766353233626d4157766f74365078535a4d2f6638397a6106e08201527f33784c36466969483570726a6470355449684435733630336d72776e6e376a586107008201527f6a6e336d35527a364a7842562b55432b37464f43354b666f773830424e3137746107208201527f36664a304f43576635776c41644b675056486c77712f7555724e6b546b6965766107408201527f562f5a66487a7a45576d5759747a727a5632746230697a37656a665a6b5931616107608201527f4e6f5a2b5146486e3031312f30354a462b6647763165644b5146626c4c5942786107808201527f73755635622b58356e7761507a6d6446766f774f6c376e754d7565676a4e41486107a08201527f6b6d72767a39473375664b636a4868594b394c326b58444969767874314671646107c08201527f3632355a393868484e5634414e675254466c317a2b50474d564f6672394c64766107e08201527f4c5073386f702f3754662f52612f4c5846445752544a496d62627879377774486108008201527f5848674f684d46612b47306556486c503367467043514f4762394c6d616561706108208201527f43504c67723458505934437164752f7a6d6b44536b434c65796e74316e676c6d6108408201527f5270396442386d586366536c7a664e504464344469614d64794c7637347356696108608201527f4466426a433179734532322b384f6337486b7a69316737796e727832374443416108808201527f4456434864354e5234566a70687936586e343258555a465a30656578386364386108a08201527f7269334836504e434368735a414f545077514e4a6c7a38374f586865677043336108c08201527f57486d7679532b356b3771353873666443426b673676626559767062354f4d666108e08201527f6550314c7a5a58336e52753857586a7436337757666b4357304f4f5a535657476109008201527f516133337248476d43734f582f4c696a74734c72337550647942637550622f6e6109208201527f48366a79764d4c6a696d4932506f683336764d425343742f73426732766d712f6109408201527f5450495464754c36492b2f30655165556c6263636a34322f74506c7a6d6d6d4c6109608201527f363563633973746b652b4835755562753149322f7366666b57526c61504738706109808201527f794d7369654853777a6c646b515a3833552b556471413144362f4b6a7a6d506d6109a08201527f67557865752f4c4974332b66547231334b382f685571733838704b357a3364656109c08201527f466d5244587133797945766d767535444d2f5048777574586e68472b4e53662f6109e08201527f6c6f2f71764155773877594e4d326e6e626563504f563676386e626578733566610a008201527f35435551794f7456486e6d5a34625076677643464378353576636f6a4c305073610a208201527f6269762f6a4e66376c72787535526e676a766439447839776c62486732663666610a408201527f5a755778397a4c4462345576636b546236615578354c55716a377a4d6342664d610a608201527f6d505132515546344f56787a7a535076476d387538744c373867447947336e64610a808201527f796a4f417a5042525a45636576612f3650433932522b2f37444e73694c63756a610aa08201527f392b69427743635369705558795966476e316c3439683466674b544e38306b53610ac08201527f2b565a6a66596564652f395244677649717277444d6e6b3033742f786962332f610ae08201527f416b52746e6b385279656366524a78357437786d68544a7667577677426f3145610b008201527f6c495a4639703538557555506f4171502b4a4d3348524b65765a654464486b44610b208201527f506c47374469434f4c7a4335746665564e2f6d61322f7a342f73504b33396837610b408201527f6d614a446e666441764f4f2f744b6259657666427a6c74707133726838347368610b608201527f352b2f356f73377a52514c3548393746577a7a7949774c56594b373435437635610b808201527f3846752b3676505877767369664a585076356b41534161703833376d32343942610ba08201527f654e525266796541794c74737a5330416465475268622b45353533772f664279610bc08201527f4353336e39316742752b5178585255454647582b4c73364e38456234677a7766610be08201527f4e6b4b624e336750784e48375446346b4c7a652b776d64742f7033637577702f610c008201527f6a4d6549776f4e7a627454354132666e44336c6a6167656632587333496a3870610c208201527f382f554138734c4c65697438364879356e7858484e7237386245666e7a38456e610c408201527f34646b57713836666c774775753246412f69464a477136385850667038772b41610c608201527f32766972783738622f485358623956356667553033504548634133656934544f610c808201527f5237376f306478386c6d6435522b6e6c37636537334e764d4a39364f4b2f4d4f610ca08201527f754858654152502f34432f7749636e4c712b4d37625765505a44554d4247474d610cc08201527f4b42534b69465463784e79456931436c70516734426c637878514867434b5949610ce08201527f534532457168427577433352466b2f3842474d462b2b4e3974642f4f3836686e610d008201527f4e4e4a344e79597a44592b4b3537516750706d4c37672b79723369577a5a4c53610d208201527f666e342b34514555637a78722b48356c756678432f4c676e67374c6e566c6250610d408201527f4b384368334f416e344d74756a4663786a2b714772506f366c396e4555334d2f610d608201527f77685476694d38563735485238486d456632754c393374625a586f574c596c58610d808201527f7850455133674e766347654e6a3854544537395666477a346176645743367532610da08201527f7168744b537a59665567612b4556736a6a76417238635a396754457a30466538610dc08201527f644732752b434438495970704e63594834682f30745a625546526d496e374772610de08201527f4c394177346d6a684749546e70566a78477a4d2b745131615362344f355a3133610e008201527f4d594747763676574d7944476249763377467349722f5675432f76434137697a610e208201527f78574f4a77436d426256383637455038476f6f702f693668544d4a50742f6837610e408201527f44543842794e36324b2b6b46734a3158447858766f56552b3866564575536e65610e608201527f346468416750434a2b4942756d653072336c6a3048655a577975337838586638610e808201527f55672f75666a6264783975427a4549324239564f473865547243662b6d2f4575610ea08201527f4a6c5a56446154317156766c302f6f41734d7868696c664a356f545859534868610ec08201527f492b417338597931505437386a7339562b666b7177315a5542626767764f3833610ee08201527f717233776c4878674d38557a785950774737583331376645337848765466454a610f008201527f7532716c7975323057526b6766454a6d586d67326745796d384c6f62386b5447610f208201527f506331524f2f77712f436d766a79676a2f4761386b61666a7163735a4c786d63610f408201527f73524450614d52595a444e554f707875385a76696259652f5a34725075676e36610f608201527f6978704a4f64654d5832395273734c54464f4631715a4b307a425a2b73722f33610f808201527f31617345394c7775664e726252572b4756337a5476616263526d317237384a62610fa08201527f393262776c776e6676745335634166684132423757464a763559777350457474610fc08201527f336339524b4558475a37596d34486638334f7236696a6a45522b795730313572610fe08201527f7155374c34686b664f6e7a52325131623378766a6456794e625a445a31764e6b6110008201527f5868412b3950693177317365315a52726a2f463663787a4a75666d4b746641456110208201527f37454d386a57555554746873525563414c37776e766c4e466a34334333467a526110408201527f556e6a49484f456e4e50784b7645544856486a63434b2f4c41537544736b54486110608201527f546e6a2b68743872666a6e776c714b6a454e5068336275473134534946532f506110808201527f7378576543636f3133343778447269543646674b5434396667494c634e57764f6110a08201527f4c447a62696f364570386650574e477732792b384234784652355072684a2b576110c08201527f4364784230546f334d514f79396a774a443554714c7471375635587455435a7a6110e08201527f30586c4534526e6a395a3777484f564f30586c696833394f34626e4270334a656111008201527f2f457a454633357275635a72777050513432736368484c2f6947395571474c6e6111208201527f646763552f654d30476c3556423063383244356875637a594b447733654a77506111408201527f696e686b5053416857692b79416e4b506237584d684b77617734784c466c6b556111608201527f6e766d4d7038366f6c4241612f7335386b55584d445a3578534273724233376e6111808201527f504447564848366b76424c66674c3744632f2f574e4e3952612b384a2f3552586111a08201527f744c48433979495a74344971762f636f766657386e72714e6c6570357747714a6111c08201527f423330766e71316e356a756834564878746d644631584542765034646a7a56416111e08201527f455963744d2b5a6e563379376f656a7848687862317a5369786d576a345943736112008201527f42676a6848656e6157476e7665724c476c3272734e734a764c52647630512f6d6112208201527f6a5448383146732f43632b705876454f74676c5045334c694e633734575046716112408201527f3554416269596a344f7a344a543658786746356e682f2f5366432f66506744736112608201527f472f474a4372786663484a6d2f6f70644d364454492b417a4c374a527172702f6112808201527f32697a784d566550466c36722f4466497265424c7645657833623850685458726112a08201527f7563647a3572314162676c6e4b79787457457a786536692b312b4d6e4e754e556112c08201527f55576842614d59485737794852786d4563546f5a646f6166397663424c3230586112e08201527f2b4134544d4f69313474453867416c6e7654734f7534507843753875345735676113008201527f2f515455534a76513842375a373862345a635971367a5565762b654d6e3443746113208201527f56706f6a746d4338794d51616b4657383157695a7468632b59596e57686258566113408201527f59622b78587470484a2b416241646964484e484a4757426f2f58314b72334b386113608201527f597a32774765507a6b5730486c41452b7168384a7645764a47422f4c543438616113808201527f57652b495a34536651422b314c69754763714144796741664f767a504757702f6113a08201527f5276764935634c51657055594866414373482b4d76364f362b4948316436316c6113c08201527f675068584b5065634f66376f73563344454438783353552b4843356942745a526113e08201527f31594274625030394f6a3744336b2f504d39566348645174592b755a386a45796114008201527f736c2b72574f4d70367750722f52316e4871744d61706779485965514a4c77616114208201527f57612f6c542f74697a7462342b536963664270623777413168473538736532496114408201527f6d62626434726e2b554666656373552f6b4168637749327470787271615a65776114608201527f78724e4d2b456672377a31624772367744476b37714352706a4f387a543471456114808201527f38584467726230526c4e446a65577a466d6b345a39384b507261663465584d386114a08201527f3736636257742f6a3653665767794838332f6a43575749394f4a666e762b46566114c08201527f574d726d6443705a2b4265654662417238486e384e4a456f66437373706332636114e08201527f7a696a6d2f6f336e6654496634542f776e6e686a30644f2f51356e2b6957397a6115008201527f31427950662b4d445542584b6644694d48324930433838394c57504e566249356115208201527f78764f43384d614a706d54766e396250464c3172384f773847467376764832696115408201527f715752546d376936664d496e5a47764e6c576e2f682b634c3755664d2f3854586115608201527f417373312b444a3861694236764832697157527a6a4f38436e6a545865506a2f6115808201527f77314d6737496644634863533531637749377349667a66415479653876796a526115a08201527f564c4935492f384c62362b35557430347869766732536561536a5948352b37646115c08201527f44543565686439472b4c304c654a636b6d6b6f3251342f76372f534d2f534c4e6115e08201527f31524a2f2f78752b584a4a6f4b746b4d774a2f7843655553305a50712b6734766116008201527f503166416d363743653355456a504641766b54304e4d656338497144335172506116208201527f507448736d2f43584556345278312b48353048553279524537616c584a5a71716116408201527f624b34335969444a58363752584b6b75734133774f7439696e32674b74516b766116608201527f4a653777313469654c45336f72594e6f4562676d305a535855396e472b506d696116808201527f6971596b357161364d304730685030537a5a572b2f774e664c6b6f3070626f526116a08201527f364a565178674c6c5173336c72365a376a2f41546b4b2f53584f306e39624c6e6116c08201527f752f397073566b6e6d754d487632674534666d544b305250716b7362682f68776116e08201527f344f4f462b4c5439666e496f3471773679796a522f4d376247647332456b4e426117008201527f6c423858624f4169746852644a31654b5649704c55536b4b4c31516f484877636117208201527f4278547756694144423572356b5345485479512f6e32626c395a4a366733564c6117408201527f4c39343543627a5675527735326f2f7a30592f53753769434a746156644d517a6117608201527f465449366c37443565682b6b6a766875444a705956777977394744623235774c6117808201527f597479557a4176674e375030734f3468582f465778757562453139446535316d6117a08201527f59434847725069434a7459565777483879656c637775627241533430757153726117c08201527f4b3268695863376c347a2f5065644b327a626d4554556b506d44774e77526f306117e08201527f7365355a366a4270516e586a78543168633666334e6e5736774870786a3356336118008201527f466e2f48755765354c75376e53337739794c5a30337430614e4c6e45467739446118208201527f59426b3866376d6677325a4a484a544747583353315267307357365478496b426118408201527f48412b7069394735684531756b644b416a6d316e2f55595437593142362b2b546118608201527f71662b6a42386338324a784c32487869507a3830716e2b3250787034593944456118808201527f75707557646263366c37425a612f7a4e476a5378626c766a4c31376e386858756118a08201527f61596c767a71434a396b627654665856374d376c35715735487330624e4e46656118c08201527f7254765037467875586a7072726d737a42303175587470586e6564314c745a6c6118e08201527f3866742b37447872304d533637507a484a707a6e645335686b35312f2b79576b6119008201527f3477326161492f5a7639547236662f793477666f75643756543879394e3267536119208201527f4e6a6d5a71586f783933376e45696248684a664747376e7a4f32637877704a2b6119408201527f7431613974512f70487a4e6a72486c397130393959533764316e697a633748756119608201527f477538506d6d68767869656b4e336d394e4830656d47762f576f342b34467a366119808201527f61343333536f2b774f65506430674f764a5434524e4947733863316639594b486119a08201527f36412b614e42696a447a735836344a6e53396f4c7559424853494536546669516119c08201527f632f6c67415a2b56486b73386437374d6542716330516564792f5947483351756119e08201527f63674d666c6837574252384b6d6f524e38436e7055556538676b47542f63336f611a008201527f67304554363449504f68634f2b4b427a6d57587751656653592b4244306c7462611a208201527f743853504b66776d6d4430584e41477438533154705176346e77584e392b4b76611a408201527f344b504f4a5665414a34574536677865516566694e3059666c42375742522b38611a608201527f7547655a775165444a74594648335175577878384d4767694f4b42423538366f611a808201527f36734767795a6a424a35314c6d344550426b3032476669676331454d2b467a51611aa08201527f6e415662436a6c33485461724234506d72443377537549372b47445178444867611ac08201527f63383546652b42354a565a59747852314c69764e364f6d47574947504f706464611ae08201527f446a34594e4845632b4c687a6f56555042733035624a62797a7158544748314f611b008201527f656d51623842584743337732614134632b4c787a2b5953702f7036672b633365611b208201527f4864753245515251454f5655346c70646d6b70784363367377483864546b5241611b408201527f634841444350737a526775437833664435506966374845436336304c396c686f611b608201527f4f706c6867626d7179337a35324879374c44445844357339454a727659354d54611b808201527f6d4f73586e636e4159354d354671416e38757942304877666d7977773134754e611ba08201527f42614670336e41436334574742614870695377775633565a454a706562537777611bc08201527f5633565a454a704b77776c435532645a594b353347526167352b664e67744430611be08201527f616d654275583758575243615373634a30464e64466f536d647a6b576f4b6536611c008201527f4c41684e433463466f616d364c444458324f514535716f75653862634e37484a611c208201527f417652556c77576861577979494452566c77586d47707563494452566c77586d611c408201527f47707373434533565a5947357869594c30464e64467679344e7a593551576971611c608201527f4c67764d4e545a5a454a717179774a7a6a553057684b62717373426359354d54611c808201527f684b62717373426359354d466f616d364c44445832475242614b6f7543387731611ca08201527f4e6a6c42614d6f65433877314e6c6b516d71724c416e4f4e5452614570757179611cc08201527f7746786a6b784f457075717977467a562f626b674e4758765934473573766578611ce08201527f494451392f7463436331583339776c43552f592b463567726535384c5174506a611d008201527f2f793477563358504b63795676524f6835774d5676377a76646a7a6e37425875611d208201527f6e424139482b6a2b74583233342f332f6d6d512f4576526b4c30465039754c6a611d408201527f47334e6c3731574f76644c46782f393533643364336433643364336433643364611d608201527f336433642f574d50446751414141414167507866473046565656565656565656611d808201527f56565656565656565664714441784941414141415166396639794e5541414141611da08201527f414a59432b464a33584956742b726f41414141415355564f524b35435949493d611dc08201526211179f60e91b611de0820152611dc38152611e0081019181831067ffffffffffffffff8411176124e6578260405283835281519081611e20840152805b8281106124d15750828201611e400152601f01601f19168101036040019150f35b8086918501611e4083820151910152016124b0565b634e487b7160e01b81526041600452602490fd5b80fdfea264697066735822122037cc85ed62612c4f9c240ec903ff4fd876fc387538b026d4e5f38d6575546ad664736f6c63430008100033",
          "opcodes": "PUSH1 0x80 DUP1 PUSH1 0x40 MSTORE CALLVALUE PUSH2 0x16 JUMPI PUSH2 0x2533 SWAP1 DUP2 PUSH2 0x1C DUP3 CODECOPY RETURN JUMPDEST PUSH1 0x0 DUP1 REVERT INVALID PUSH1 0x80 PUSH1 0x4 CALLDATASIZE LT ISZERO PUSH2 0xF JUMPI PUSH1 0x0 DUP1 REVERT JUMPDEST PUSH1 0x0 DUP1 CALLDATALOAD PUSH1 0xE0 SHR PUSH4 0xB6700D6 EQ PUSH2 0x25 JUMPI PUSH1 0x0 DUP1 REVERT JUMPDEST CALLVALUE PUSH2 0x24FA JUMPI DUP1 PUSH1 0x3 NOT CALLDATASIZE ADD SLT PUSH2 0x24FA JUMPI PUSH1 0x20 SWAP2 PUSH32 0x3C696D61676520207472616E73666F726D3D226D6174726978282E34302C302C DUP4 DUP3 ADD MSTORE PUSH32 0x302C2E34302C302C302922202020786C696E6B3A687265663D22646174613A69 PUSH1 0x40 DUP3 ADD MSTORE PUSH32 0x6D6167652F706E673B6261736536342C6956424F5277304B47676F414141414E PUSH1 0x60 DUP3 ADD MSTORE PUSH32 0x5355684555674141412B6B414141507041514D4141414254382F343841414141 PUSH1 0x80 DUP3 ADD MSTORE PUSH32 0x426C424D56455541414141412F2F38625161737741414141416E5253546C4D41 PUSH1 0xA0 DUP3 ADD MSTORE PUSH32 0x50726679304A4D41414257365355524256486A61374E65786263557744455652 PUSH1 0xC0 DUP3 ADD MSTORE PUSH32 0x436935556167526E4534336D6E38312B4E6E453263446F48634D6859634B4657 PUSH1 0xE0 DUP3 ADD MSTORE PUSH32 0x33514F456578613433534E6F4141414141414141414141414141414141414141 PUSH2 0x100 DUP3 ADD MSTORE PUSH32 0x4141414141414141414141414141414141414141414141416D4E53485356306D PUSH2 0x120 DUP3 ADD MSTORE PUSH32 0x3561615574506B6C54476D4A6C776C6C626237453234524B3743613061764D31 PUSH2 0x140 DUP3 ADD MSTORE PUSH32 0x446873335733364C303451694C6873335754354675416E30664A6A4F6F73336E PUSH2 0x160 DUP3 ADD MSTORE PUSH32 0x434F586F3533446C364A632F61583739395730336C5A6176776E7A3938587159 PUSH2 0x180 DUP3 ADD MSTORE PUSH32 0x7A50627436326D6A5A7376486C35664C56466F2B75366D6B2B46546D6C306775 PUSH2 0x1A0 DUP3 ADD MSTORE PUSH32 0x6554523650756C47503773305836376B4E6A7A36732B585838383772626B3439 PUSH2 0x1C0 DUP3 ADD MSTORE PUSH32 0x37767A77364D2B57332F59374C786E396E74654E667279562B5253764F79385A PUSH2 0x1E0 DUP3 ADD MSTORE PUSH32 0x2F5A35586A58344C4B2F505A573335303947664C6C36766C5A614F2F6E69302F PUSH2 0x200 DUP3 ADD MSTORE PUSH32 0x4F76717A3565765238704C5237336E5A36472B374E422F766C74654D6673396E PUSH2 0x220 DUP3 ADD MSTORE PUSH32 0x5454374636386D374B5378684C5438342B72506C737A39353065695836386B50 PUSH2 0x240 DUP3 ADD MSTORE PUSH32 0x6A76356B2B665638386F725237336E56364E64446D742F324A36385A2F5A3476 PUSH2 0x260 DUP3 ADD MSTORE PUSH32 0x2F397A5873616C4549525345345630324D4C51455337453058326D5759676D47 PUSH2 0x280 DUP3 ADD MSTORE PUSH32 0x42714B504338496F7770364E35734370344D762B595654346D5266503352776B PUSH2 0x2A0 DUP3 ADD MSTORE PUSH32 0x662F452F526438592F36542B345A5769373862696634752B4D64373378657445 PUSH2 0x2C0 DUP3 ADD MSTORE PUSH32 0x333766463630512F36504B784C7034632F5A7350436E777134425769502F5069 PUSH2 0x2E0 DUP3 ADD MSTORE PUSH32 0x6634712B4D6635707A654B7030556679462F395439493378626F4258694C3772 PUSH2 0x300 DUP3 ADD MSTORE PUSH32 0x3442576937335835304D427A6F332F7A6B633748436C3568633149424C306666 PUSH2 0x320 DUP3 ADD MSTORE PUSH32 0x476A387A65474C306B587A776376534E38552F6D77644F6A2F786E6746614C76 PUSH2 0x340 DUP3 ADD MSTORE PUSH32 0x64486E6677524F694C2F434A7A496347586D467A59675650694C3741427A4B66 PUSH2 0x360 DUP3 ADD MSTORE PUSH32 0x436E6946364D384D586F362B4D66377044486861394D472F77504F6A2F39486C PUSH2 0x380 DUP3 ADD MSTORE PUSH32 0x33514250694C374576376938372B41564E6963303849546F6933796B38724743 PUSH2 0x3A0 DUP3 ADD MSTORE PUSH32 0x56396963564D444C306266477A7778654966727A447A772F2B6D386C48736B48 PUSH2 0x3C0 DUP3 ADD MSTORE PUSH32 0x5434332B7A664F6A37345971377A74345276526C50684835304D417262453673 PUSH2 0x3E0 DUP3 ADD MSTORE PUSH32 0x344F586F572B4E54416138512F5A54424B30522F3676426F4448687139472B65 PUSH2 0x400 DUP3 ADD MSTORE PUSH32 0x474831516D72776247382B4E2F7333546A34627647382F666E4E4132586F362B PUSH2 0x420 DUP3 ADD MSTORE PUSH32 0x4D5437576A6564485035614E3530632F3666497A627A77312B6A66506A543443 PUSH2 0x440 DUP3 ADD MSTORE PUSH32 0x782B6552642F426939446E386D385737736650307A6646393538586F472B4E44 PUSH2 0x460 DUP3 ADD MSTORE PUSH32 0x32336C3639455064655872306F793666797335546F332F7A394F6A50724D536A PUSH2 0x480 DUP3 ADD MSTORE PUSH32 0x4C2B436C364C5034443446483873467A4E38654E6735656962347A332F65445A PUSH2 0x4A0 DUP3 ADD MSTORE PUSH32 0x30512F74344B586F472B4E6A5058687139472B654866315556506D5A44313649 PUSH2 0x4C0 DUP3 ADD MSTORE PUSH32 0x506F39334242353141632F61484B516476424239593777624A302B4F7675386E PUSH2 0x4E0 DUP3 ADD MSTORE PUSH32 0x4C30546647422F6179564F6A662F4F6B364D4E5135564D3565534836524E3454 PUSH2 0x500 DUP3 ADD MSTORE PUSH32 0x2B4A6C506E72673561417634373945337869507334496E52642B506976305866 PUSH2 0x520 DUP3 ADD MSTORE PUSH32 0x47502F507264336A5741314455514447697342434947554A626C6B436E646B45 PUSH2 0x540 DUP3 ADD MSTORE PUSH32 0x4E567567707342764279774A53327A454853576D776B4C4242347A762B4E6759 PUSH2 0x560 DUP3 ADD MSTORE PUSH32 0x55643042695251776B78664E35352F63342F793838397034686444583465382F PUSH2 0x580 DUP3 ADD MSTORE PUSH32 0x3946333570377A50473638512B6A71387533632B7049332F6D32734F3473622F PUSH2 0x5A0 DUP3 ADD MSTORE PUSH32 0x4966542F4D35374A517636766854356A6E667766512F382F3432336465495851 PUSH2 0x5C0 DUP3 ADD MSTORE PUSH32 0x312B4876502F545036352F79726D79385175687238663665655A393366762F59 PUSH2 0x5E0 DUP3 ADD MSTORE PUSH32 0x7646466D4F626F377677394F41412F372B2F7742334E506167376A7865324763 PUSH2 0x600 DUP3 ADD MSTORE PUSH32 0x514E566C6D5373627638654342336A63332B63446F42344144505756337A3833 PUSH2 0x620 DUP3 ADD MSTORE PUSH32 0x414C5450765666416935312F5170366A637A512B712B6F6E674C70462F674755 PUSH2 0x640 DUP3 ADD MSTORE PUSH32 0x6E62654E4C37707A33726134526A375073625579546E582B524E7375386D7855 PUSH2 0x660 DUP3 ADD MSTORE PUSH32 0x3372354736667178696C734130487136527237646E5A44366D4B43716A7A3251 PUSH2 0x680 DUP3 ADD MSTORE PUSH32 0x6C386876446B65666F522B302B565034612B58377A766862486F713867327768 PUSH2 0x6A0 DUP3 ADD MSTORE PUSH32 0x37574F536677313961504D42774E3556432F41635A2B6762414B71706130422B PUSH2 0x6C0 DUP3 ADD MSTORE PUSH32 0x483550364333396F387766353233626D4157766F74365078535A4D2F6638397A PUSH2 0x6E0 DUP3 ADD MSTORE PUSH32 0x33784C36466969483570726A6470355449684435733630336D72776E6E376A58 PUSH2 0x700 DUP3 ADD MSTORE PUSH32 0x6A6E336D35527A364A7842562B55432B37464F43354B666F773830424E313774 PUSH2 0x720 DUP3 ADD MSTORE PUSH32 0x36664A304F43576635776C41644B675056486C77712F7555724E6B546B696576 PUSH2 0x740 DUP3 ADD MSTORE PUSH32 0x562F5A66487A7A45576D5759747A727A5632746230697A37656A665A6B593161 PUSH2 0x760 DUP3 ADD MSTORE PUSH32 0x4E6F5A2B5146486E3031312F30354A462B6647763165644B5146626C4C594278 PUSH2 0x780 DUP3 ADD MSTORE PUSH32 0x73755635622B58356E7761507A6D6446766F774F6C376E754D7565676A4E4148 PUSH2 0x7A0 DUP3 ADD MSTORE PUSH32 0x6B6D72767A39473375664B636A4868594B394C326B5844496976787431467164 PUSH2 0x7C0 DUP3 ADD MSTORE PUSH32 0x3632355A393868484E5634414E675254466C317A2B50474D564F6672394C6476 PUSH2 0x7E0 DUP3 ADD MSTORE PUSH32 0x4C5073386F702F3754662F52612F4C5846445752544A496D6262787937777448 PUSH2 0x800 DUP3 ADD MSTORE PUSH32 0x5848674F684D46612B47306556486C503367467043514F4762394C6D61656170 PUSH2 0x820 DUP3 ADD MSTORE PUSH32 0x43504C67723458505934437164752F7A6D6B44536B434C65796E74316E676C6D PUSH2 0x840 DUP3 ADD MSTORE PUSH32 0x5270396442386D586366536C7A664E504464344469614D64794C763734735669 PUSH2 0x860 DUP3 ADD MSTORE PUSH32 0x4466426A433179734532322B384F6337486B7A69316737796E72783237444341 PUSH2 0x880 DUP3 ADD MSTORE PUSH32 0x4456434864354E5234566A70687936586E343258555A465A3065657838636438 PUSH2 0x8A0 DUP3 ADD MSTORE PUSH32 0x7269334836504E434368735A414F545077514E4A6C7A38374F58686567704333 PUSH2 0x8C0 DUP3 ADD MSTORE PUSH32 0x57486D7679532B356B3771353873666443426B673676626559767062354F4D66 PUSH2 0x8E0 DUP3 ADD MSTORE PUSH32 0x6550314C7A5A58336E52753857586A7436337757666B4357304F4F5A53565747 PUSH2 0x900 DUP3 ADD MSTORE PUSH32 0x516133337248476D43734F582F4C696A74734C72337550647942637550622F6E PUSH2 0x920 DUP3 ADD MSTORE PUSH32 0x48366A79764D4C6A696D4932506F683336764D425343742F73426732766D712F PUSH2 0x940 DUP3 ADD MSTORE PUSH32 0x5450495464754C36492B2F30655165556C6263636A34322F74506C7A6D6D6D4C PUSH2 0x960 DUP3 ADD MSTORE PUSH32 0x363563633973746B652B4835755562753149322F7366666B57526C6150473870 PUSH2 0x980 DUP3 ADD MSTORE PUSH32 0x794D7369654853777A6C646B515A3833552B556471413144362F4B6A7A6D506D PUSH2 0x9A0 DUP3 ADD MSTORE PUSH32 0x67557865752F4C4974332B66547231334B382F685571733838704B357A336465 PUSH2 0x9C0 DUP3 ADD MSTORE PUSH32 0x466D5244587133797945766D767535444D2F5048777574586E68472B4E53662F PUSH2 0x9E0 DUP3 ADD MSTORE PUSH32 0x6C6F2F71764155773877594E4D326E6E626563504F563676386E626578733566 PUSH2 0xA00 DUP3 ADD MSTORE PUSH32 0x35435551794F7456486E6D5A34625076677643464378353576636F6A4C305073 PUSH2 0xA20 DUP3 ADD MSTORE PUSH32 0x6269762F6A4E66376C72787535526E676A766439447839776C62486732663666 PUSH2 0xA40 DUP3 ADD MSTORE PUSH32 0x5A755778397A4C4462345576636B546236615578354C55716A377A4D6342664D PUSH2 0xA60 DUP3 ADD MSTORE PUSH32 0x6D505132515546344F56787A7A535076476D387538744C373867447947336E64 PUSH2 0xA80 DUP3 ADD MSTORE PUSH32 0x796A4F417A5042525A45636576612F3650433932522B2F37444E73694C63756A PUSH2 0xAA0 DUP3 ADD MSTORE PUSH32 0x392B69427743635369705558795966476E316C3439683466674B544E38306B53 PUSH2 0xAC0 DUP3 ADD MSTORE PUSH32 0x2B565A6A66596564652F395244677649717277444D6E6B3033742F786962332F PUSH2 0xAE0 DUP3 ADD MSTORE PUSH32 0x416B52746E6B385279656366524A78357437786D68544A7667577677426F3145 PUSH2 0xB00 DUP3 ADD MSTORE PUSH32 0x6C495A4639703538557555506F4171502B4A4D3348524B65765A654464486B44 PUSH2 0xB20 DUP3 ADD MSTORE PUSH32 0x506C47374469434F4C7A4335746665564E2F6D61322F7A342F73504B33396837 PUSH2 0xB40 DUP3 ADD MSTORE PUSH32 0x6D614A446E666441764F4F2F744B6259657666427A6C74707133726838347368 PUSH2 0xB60 DUP3 ADD MSTORE PUSH32 0x352B2F356F73377A52514C3548393746577A7A7949774C56594B373435437635 PUSH2 0xB80 DUP3 ADD MSTORE PUSH32 0x3846752B3676505877767369664A585076356B41534161703833376D32343942 PUSH2 0xBA0 DUP3 ADD MSTORE PUSH32 0x654E525266796541794C74737A5330416465475268622B45353533772F664279 PUSH2 0xBC0 DUP3 ADD MSTORE PUSH32 0x4353336E39316742752B5178585255454647582B4C73364E38456234677A7766 PUSH2 0xBE0 DUP3 ADD MSTORE PUSH32 0x4E6B4B624E336750784E48375446346B4C7A652B776D64742F7033637577702F PUSH2 0xC00 DUP3 ADD MSTORE PUSH32 0x6A4D6549776F4E7A627454354132666E44336C6A6167656632587333496A3870 PUSH2 0xC20 DUP3 ADD MSTORE PUSH32 0x382F554138734C4C65697438364879356E7858484E7237386245666E7A38456E PUSH2 0xC40 DUP3 ADD MSTORE PUSH32 0x34646B57713836666C774775753246412F69464A477136385850667038772B41 PUSH2 0xC60 DUP3 ADD MSTORE PUSH32 0x32766972783738622F485358623956356667553033504548634133656934544F PUSH2 0xC80 DUP3 ADD MSTORE PUSH32 0x5237376F306478386C6D6435522B6E6C37636537334E764D4A39364F4B2F4D4F PUSH2 0xCA0 DUP3 ADD MSTORE PUSH32 0x754858654152502F34432F7749636E4C712B4D37625765505A44554D4247474D PUSH2 0xCC0 DUP3 ADD MSTORE PUSH32 0x4B42534B69465463784E79456931436C70516734426C637878514867434B5949 PUSH2 0xCE0 DUP3 ADD MSTORE PUSH32 0x534532457168427577433352466B2F3842474D462B2B4E3974642F4F3836686E PUSH2 0xD00 DUP3 ADD MSTORE PUSH32 0x4E4E4A344E79597A44592B4B3537516750706D4C37672B79723369577A5A4C53 PUSH2 0xD20 DUP3 ADD MSTORE PUSH32 0x666E342B34514555637A78722B48356C756678432F4C676E67374C6E566C6250 PUSH2 0xD40 DUP3 ADD MSTORE PUSH32 0x4B384368334F416E344D74756A4663786A2B714772506F366C396E4555334D2F PUSH2 0xD60 DUP3 ADD MSTORE PUSH32 0x77685476694D38563735485238486D456632754C393374625A586F574C596C58 PUSH2 0xD80 DUP3 ADD MSTORE PUSH32 0x7850455133674E766347654E6A3854544537395666477A346176645743367532 PUSH2 0xDA0 DUP3 ADD MSTORE PUSH32 0x7168744B537A59665567612B4556736A6A76417238635A396754457A30466538 PUSH2 0xDC0 DUP3 ADD MSTORE PUSH32 0x644732752B434438495970704E63594834682F30745A625546526D496E374772 PUSH2 0xDE0 DUP3 ADD MSTORE PUSH32 0x4C394177346D6A684749546E70566A78477A4D2B745131615362344F355A3133 PUSH2 0xE00 DUP3 ADD MSTORE PUSH32 0x4D594747763676574D7944476249763377467349722F5675432F76434137697A PUSH2 0xE20 DUP3 ADD MSTORE PUSH32 0x78574F4A77436D426256383637455038476F6F702F693668544D4A50742F6837 PUSH2 0xE40 DUP3 ADD MSTORE PUSH32 0x44543842794E36324B2B6B46734A3158447858766F56552B3866564575536E65 PUSH2 0xE60 DUP3 ADD MSTORE PUSH32 0x346468416750434A2B4942756D653072336C6A3048655A577975337838586638 PUSH2 0xE80 DUP3 ADD MSTORE PUSH32 0x55672F75666A6264783975427A4549324239564F473865547243662B6D2F4575 PUSH2 0xEA0 DUP3 ADD MSTORE PUSH32 0x4A6C5A56446154317156766C302F6F41734D7868696C664A356F545859534868 PUSH2 0xEC0 DUP3 ADD MSTORE PUSH32 0x492B417338597931505437386A7339562B666B7177315A5542626767764F3833 PUSH2 0xEE0 DUP3 ADD MSTORE PUSH32 0x717233776C4878674D38557A785950774737583331376645337848765466454A PUSH2 0xF00 DUP3 ADD MSTORE PUSH32 0x7532716C7975323057526B6766454A6D586D67326745796D384C6F62386B5447 PUSH2 0xF20 DUP3 ADD MSTORE PUSH32 0x506331524F2F77712F436D766A79676A2F4761386B61666A7163735A4C786D63 PUSH2 0xF40 DUP3 ADD MSTORE PUSH32 0x73524450614D52595A444E554F707875385A76696259652F5A34725075676E36 PUSH2 0xF60 DUP3 ADD MSTORE PUSH32 0x6978704A4F64654D5832395273734C54464F4631715A4B307A425A2B73722F33 PUSH2 0xF80 DUP3 ADD MSTORE PUSH32 0x31617345394C7775664E726252572B4756337A5476616263526D317237384A62 PUSH2 0xFA0 DUP3 ADD MSTORE PUSH32 0x393262776C776E6676745335634166684132423757464A763559777350457474 PUSH2 0xFC0 DUP3 ADD MSTORE PUSH32 0x336339524B4558475A37596D34486638334F7236696A6A45522B795730313572 PUSH2 0xFE0 DUP3 ADD MSTORE PUSH32 0x7155374C34686B664F6E7A52325131623378766A6456794E625A445A31764E6B PUSH2 0x1000 DUP3 ADD MSTORE PUSH32 0x5868412B3950693177317365315A52726A2F463663787A4A75666D4B74664145 PUSH2 0x1020 DUP3 ADD MSTORE PUSH32 0x37454D386A57555554746873525563414C37776E766C4E466A34334333467A52 PUSH2 0x1040 DUP3 ADD MSTORE PUSH32 0x556E6A49484F456E4E50784B7645544856486A63434B2F4C41537544736B5448 PUSH2 0x1060 DUP3 ADD MSTORE PUSH32 0x546E6A2B68743872666A6E776C714B6A454E5068336275473134534946532F50 PUSH2 0x1080 DUP3 ADD MSTORE PUSH32 0x7378576543636F3133343778447269543646674B5434396667494C634E57764F PUSH2 0x10A0 DUP3 ADD MSTORE PUSH32 0x4C447A62696F364570386650574E477732792B384234784652355072684A2B57 PUSH2 0x10C0 DUP3 ADD MSTORE PUSH32 0x4364784230546F334D514F79396A774A443554714C7471375635587455435A7A PUSH2 0x10E0 DUP3 ADD MSTORE PUSH32 0x30586C4534526E6A395A3777484F564F30586C696833394F34626E4270334A65 PUSH2 0x1100 DUP3 ADD MSTORE PUSH32 0x2F457A454633357275635A72777050513432736368484C2F6947395571474C6E PUSH2 0x1120 DUP3 ADD MSTORE PUSH32 0x646763552F654D30476C3556423063383244356875637A594B447733654A7750 PUSH2 0x1140 DUP3 ADD MSTORE PUSH32 0x696E686B5053416857692B79416E4B506237584D684B77617734784C466C6B55 PUSH2 0x1160 DUP3 ADD MSTORE PUSH32 0x6E766D4D7038366F6C4241612F7335386B55584D445A3578534273724233376E PUSH2 0x1180 DUP3 ADD MSTORE PUSH32 0x504447564848366B76424C66674C3744632F2F574E4E3952612B384A2F355258 PUSH2 0x11A0 DUP3 ADD MSTORE PUSH32 0x744C48433979495A74344971762F636F766657386E72714E6C6570357747714A PUSH2 0x11C0 DUP3 ADD MSTORE PUSH32 0x423330766E71316E356A756834564878746D644631584542765034646A7A5641 PUSH2 0x11E0 DUP3 ADD MSTORE PUSH32 0x455963744D2B5A6E563379376F656A7848687862317A5369786D576A34594373 PUSH2 0x1200 DUP3 ADD MSTORE PUSH32 0x42676A6848656E6157476E7665724C476C3272734E734A764C52647630512F6D PUSH2 0x1220 DUP3 ADD MSTORE PUSH32 0x6A5448383146732F43632B705876454F74676C5045334C694E63373457504671 PUSH2 0x1240 DUP3 ADD MSTORE PUSH32 0x3554416269596A344F7A344A543658786746356E682F2F5366432F6650674473 PUSH2 0x1260 DUP3 ADD MSTORE PUSH32 0x472F474A4372786663484A6D2F6F70644D364454492B417A4C374A527172702F PUSH2 0x1280 DUP3 ADD MSTORE PUSH32 0x32697A784D566550466C36722F4466497265424C764565783362385068545872 PUSH2 0x12A0 DUP3 ADD MSTORE PUSH32 0x7563647A3572314162676C6E4B79787457457A786536692B312B4D6E4E754E55 PUSH2 0x12C0 DUP3 ADD MSTORE PUSH32 0x55576842614D59485737794852786D4563546F5A646F6166397663424C323058 PUSH2 0x12E0 DUP3 ADD MSTORE PUSH32 0x2B4134544D4F69313474453867416C6E7654734F753450784375387534573567 PUSH2 0x1300 DUP3 ADD MSTORE PUSH32 0x2F515455534A76513842375A373862345A635971367A5565762B654D6E344374 PUSH2 0x1320 DUP3 ADD MSTORE PUSH32 0x56706F6A746D4338794D51616B4657383157695A7468632B59596E5768625856 PUSH2 0x1340 DUP3 ADD MSTORE PUSH32 0x59622B78587470484A2B416241646964484E484A4757426F2F58314B72334B38 PUSH2 0x1360 DUP3 ADD MSTORE PUSH32 0x597A32774765507A6B5730486C41452B7168384A7645764A47422F4C54343861 PUSH2 0x1380 DUP3 ADD MSTORE PUSH32 0x57652B495A34536651422B314C69754763714144796741664F767A504757702F PUSH2 0x13A0 DUP3 ADD MSTORE PUSH32 0x5276764935634C51657055594866414373482B4D76364F362B4948316436316C PUSH2 0x13C0 DUP3 ADD MSTORE PUSH32 0x675068584B5065634F66376F73563344454438783353552B4843356942745A52 PUSH2 0x13E0 DUP3 ADD MSTORE PUSH32 0x31594274625030394F6A3744336B2F504D39566348645174592B755A386A4579 PUSH2 0x1400 DUP3 ADD MSTORE PUSH32 0x736C2B72574F4D70367750722F52316E4871744D61706779485965514A4C7761 PUSH2 0x1420 DUP3 ADD MSTORE PUSH32 0x57612F6C542F74697A7462342B53696366427062377741316847353873653249 PUSH2 0x1440 DUP3 ADD MSTORE PUSH32 0x6D62626434726E2B554666656373552F6B4168637749327470787271615A6577 PUSH2 0x1460 DUP3 ADD MSTORE PUSH32 0x78724E4D2B456672377A31624772367744476B37714352706A4F387A54347145 PUSH2 0x1480 DUP3 ADD MSTORE PUSH32 0x38584467726230526C4E446A65577A466D6B345A39384B507261663465584D38 PUSH2 0x14A0 DUP3 ADD MSTORE PUSH32 0x3736636257742F6A3653665767794838332F6A43575749394F4A666E762B4656 PUSH2 0x14C0 DUP3 ADD MSTORE PUSH32 0x574D726D6443705A2B4265654662417238486E384E4A456F6643737370633263 PUSH2 0x14E0 DUP3 ADD MSTORE PUSH32 0x7A696A6D2F6F336E6654496634542F776E6E686A30644F2F51356E2B6957397A PUSH2 0x1500 DUP3 ADD MSTORE PUSH32 0x31427950662B4D445542584B6644694D48324930433838394C57504E56624935 PUSH2 0x1520 DUP3 ADD MSTORE PUSH32 0x78764F43384D614A706D54766E396250464C3172384F77384746737676483269 PUSH2 0x1540 DUP3 ADD MSTORE PUSH32 0x715752546D376936664D496E5A47764E6C576E2F682B634C3755664D2F385458 PUSH2 0x1560 DUP3 ADD MSTORE PUSH32 0x417373312B444A3861694236764832697157527A6A4F38436E6A545865506A2F PUSH2 0x1580 DUP3 ADD MSTORE PUSH32 0x77314D6737496644634863533531637749377349667A66415479653876796A52 PUSH2 0x15A0 DUP3 ADD MSTORE PUSH32 0x564C4935492F384C62362B35557430347869766732536561536A5948352B3764 PUSH2 0x15C0 DUP3 ADD MSTORE PUSH32 0x44543565686439472B4C304C654A636B6D6B6F3251342F76372F534D2F534C4E PUSH2 0x15E0 DUP3 ADD MSTORE PUSH32 0x31524A2F2F78752B584A4A6F4B746B4D774A2F7843655553305A50712B673476 PUSH2 0x1600 DUP3 ADD MSTORE PUSH32 0x503166416D363743653355456A504641766B54304E4D65633849714433517250 PUSH2 0x1620 DUP3 ADD MSTORE PUSH32 0x507448736D2F43584556345278312B48353048553279524537616C584A5A7171 PUSH2 0x1640 DUP3 ADD MSTORE PUSH32 0x624B34335969444A58363752584B6B75734133774F7439696E32674B74516B76 PUSH2 0x1660 DUP3 ADD MSTORE PUSH32 0x4A653777313469654C45336F72594E6F4562676D305A535855396E472B506D69 PUSH2 0x1680 DUP3 ADD MSTORE PUSH32 0x6971596B357161364D304730685030537A5A572B2F774E664C6B6F3070626F52 PUSH2 0x16A0 DUP3 ADD MSTORE PUSH32 0x364A565178674C6C5173336C72365A376A2F41546B4B2F53584F306E39624C6E PUSH2 0x16C0 DUP3 ADD MSTORE PUSH32 0x752F397073566B6E6D754D487632674534666D544B305250716B7362682F6877 PUSH2 0x16E0 DUP3 ADD MSTORE PUSH32 0x344F4F462B4C5439666E496F3471773679796A522F4D376247647332456B4E42 PUSH2 0x1700 DUP3 ADD MSTORE PUSH32 0x6C423858624F4169746852644A31654B5649704C55536B4B4C31516F48487763 PUSH2 0x1720 DUP3 ADD MSTORE PUSH32 0x4278547756694144423572356B5345485479512F6E32626C395A4A366733564C PUSH2 0x1740 DUP3 ADD MSTORE PUSH32 0x4C39343543627A5675527735326F2F7A30592F53753769434A746156644D517A PUSH2 0x1760 DUP3 ADD MSTORE PUSH32 0x465449366C37443565682B6B6A766875444A705956777977394744623235774C PUSH2 0x1780 DUP3 ADD MSTORE PUSH32 0x597479557A4176674E375030734F3468582F465778757562453139446535316D PUSH2 0x17A0 DUP3 ADD MSTORE PUSH32 0x59434847725069434A7459565777483879656C63777562724153343075715372 PUSH2 0x17C0 DUP3 ADD MSTORE PUSH32 0x4B3268695863376C347A2F5065644B327A626D4554556B506D44774E77526F30 PUSH2 0x17E0 DUP3 ADD MSTORE PUSH32 0x7365355A366A4270516E586A78543168633666334E6E5736774870786A335633 PUSH2 0x1800 DUP3 ADD MSTORE PUSH32 0x466E2F48755765354C75376E53337739794C5A30337430614E4C6E4546773944 PUSH2 0x1820 DUP3 ADD MSTORE PUSH32 0x59426B3866376D6677325A4A484A544747583353315267307357365478496B42 PUSH2 0x1840 DUP3 ADD MSTORE PUSH32 0x48412B7069394735684531756B644B416A6D316E2F55595437593142362B2B54 PUSH2 0x1860 DUP3 ADD MSTORE PUSH32 0x71662B6A42386338324A784C32487869507A3830716E2B325078703459394445 PUSH2 0x1880 DUP3 ADD MSTORE PUSH32 0x75707557646263366C37425A612F7A4E476A5378626C766A4C31376E38685875 PUSH2 0x18A0 DUP3 ADD MSTORE PUSH32 0x61596C767A71434A396B627654665856374D376C35715735487330624E4E4665 PUSH2 0x18C0 DUP3 ADD MSTORE PUSH32 0x7254765037467875586A7072726D737A42303175587470586E6564314C745A6C PUSH2 0x18E0 DUP3 ADD MSTORE PUSH32 0x3866742B37447872304D533637507A484A707A6E645335686B35312F2B79576B PUSH2 0x1900 DUP3 ADD MSTORE PUSH32 0x3477326161492F5A7639547236662F793477666F75643756543879394E326753 PUSH2 0x1920 DUP3 ADD MSTORE PUSH32 0x4E6A6D5A71586F783933376E45696248684A664747376E7A4F32637877704A2B PUSH2 0x1940 DUP3 ADD MSTORE PUSH32 0x7431613974512F70487A4E6A72486C397130393959533764316E697A63374875 PUSH2 0x1960 DUP3 ADD MSTORE PUSH32 0x477538506D6D68767869656B4E336D394E4830656D47762F576F342B34467A36 PUSH2 0x1980 DUP3 ADD MSTORE PUSH32 0x61343333536F2B774F65506430674F764A5434524E4947733863316639594B48 PUSH2 0x19A0 DUP3 ADD MSTORE PUSH32 0x36412B614E42696A447A735836344A6E53396F4C755942485349453654666951 PUSH2 0x19C0 DUP3 ADD MSTORE PUSH32 0x632F6C67415A2B56486B73386437374D6542716330516564792F594748335175 PUSH2 0x19E0 DUP3 ADD MSTORE PUSH32 0x63674D666C6837574252384B6D6F524E38436E7055556538676B47542F63336F PUSH2 0x1A00 DUP3 ADD MSTORE PUSH32 0x67304554363449504F68634F2B4B427A6D57587751656653592B4244306C7462 PUSH2 0x1A20 DUP3 ADD MSTORE PUSH32 0x743853504B66776D6D4430584E41477438533154705176346E77584E392B4B76 PUSH2 0x1A40 DUP3 ADD MSTORE PUSH32 0x344B504F4A5665414A34574536677865516566694E3059666C42375742522B38 PUSH2 0x1A60 DUP3 ADD MSTORE PUSH32 0x7547655A775165444A74594648335175577878384D4767694F4B42423538366F PUSH2 0x1A80 DUP3 ADD MSTORE PUSH32 0x36734767795A6A424A35314C6D344550426B3032476669676331454D2B467A51 PUSH2 0x1AA0 DUP3 ADD MSTORE PUSH32 0x6E415662436A6C33485461724234506D72443377537549372B47445178444867 PUSH2 0x1AC0 DUP3 ADD MSTORE PUSH32 0x63383546652B42354A565A59747852314C69764E364F6D47574947504F706464 PUSH2 0x1AE0 DUP3 ADD MSTORE PUSH32 0x446A34594E4845632B4C687A6F56555042733035624A62797A7158544748314F PUSH2 0x1B00 DUP3 ADD MSTORE PUSH32 0x656D51623842584743337732614134632B4C787A2B5953702F7036672B633365 PUSH2 0x1B20 DUP3 ADD MSTORE PUSH32 0x4864753245515251454F5655346C70646D6B70784363367377483864546B5241 PUSH2 0x1B40 DUP3 ADD MSTORE PUSH32 0x634841444350737A526775437833664435506966374845436336304C396C686F PUSH2 0x1B60 DUP3 ADD MSTORE PUSH32 0x4F706C6867626D7179337A35324879374C44445844357339454A727659354D54 PUSH2 0x1B80 DUP3 ADD MSTORE PUSH32 0x6D4F73586E636E4159354D354671416E38757942304877666D7977773134754E PUSH2 0x1BA0 DUP3 ADD MSTORE PUSH32 0x42614670336E41436334574742614870695377775633565A454A706562537777 PUSH2 0x1BC0 DUP3 ADD MSTORE PUSH32 0x5633565A454A704B77776C435532645A594B353347526167352B664E67744430 PUSH2 0x1BE0 DUP3 ADD MSTORE PUSH32 0x616D654275583758575243615373634A30464E64466F536D647A6B576F4B6536 PUSH2 0x1C00 DUP3 ADD MSTORE PUSH32 0x4C41684E433463466F616D364C444458324F514535716F75653862634E37484A PUSH2 0x1C20 DUP3 ADD MSTORE PUSH32 0x417652556C77576861577979494452566C77586D47707563494452566C77586D PUSH2 0x1C40 DUP3 ADD MSTORE PUSH32 0x47707373434533565A5947357869594C30464E64467679344E7A593551576971 PUSH2 0x1C60 DUP3 ADD MSTORE PUSH32 0x4C67764D4E545A5A454A717179774A7A6A553057684B62717373426359354D54 PUSH2 0x1C80 DUP3 ADD MSTORE PUSH32 0x684B62717373426359354D466F616D364C44445832475242614B6F7543387731 PUSH2 0x1CA0 DUP3 ADD MSTORE PUSH32 0x4E6A6C42614D6F65433877314E6C6B516D71724C416E4F4E5452614570757179 PUSH2 0x1CC0 DUP3 ADD MSTORE PUSH32 0x7746786A6B784F457075717977467A562F626B674E4758765934473573766578 PUSH2 0x1CE0 DUP3 ADD MSTORE PUSH32 0x494451392F7463436331583339776C43552F592B463567726535384C5174506A PUSH2 0x1D00 DUP3 ADD MSTORE PUSH32 0x2F793477563358504B63795676524F6835774D5676377A76646A7A6E37425875 PUSH2 0x1D20 DUP3 ADD MSTORE PUSH32 0x6E424139482B6A2B74583233342F332F6D6D512F4576526B4C30465039754C6A PUSH2 0x1D40 DUP3 ADD MSTORE PUSH32 0x47334E6C3731574F76644C46782F393533643364336433643364336433643364 PUSH2 0x1D60 DUP3 ADD MSTORE PUSH32 0x336433642F574D50446751414141414167507866473046565656565656565656 PUSH2 0x1D80 DUP3 ADD MSTORE PUSH32 0x56565656565656565664714441784941414141415166396639794E5541414141 PUSH2 0x1DA0 DUP3 ADD MSTORE PUSH32 0x414A59432B464A33584956742B726F41414141415355564F524B35435949493D PUSH2 0x1DC0 DUP3 ADD MSTORE PUSH3 0x11179F PUSH1 0xE9 SHL PUSH2 0x1DE0 DUP3 ADD MSTORE PUSH2 0x1DC3 DUP2 MSTORE PUSH2 0x1E00 DUP2 ADD SWAP2 DUP2 DUP4 LT PUSH8 0xFFFFFFFFFFFFFFFF DUP5 GT OR PUSH2 0x24E6 JUMPI DUP3 PUSH1 0x40 MSTORE DUP4 DUP4 MSTORE DUP2 MLOAD SWAP1 DUP2 PUSH2 0x1E20 DUP5 ADD MSTORE DUP1 JUMPDEST DUP3 DUP2 LT PUSH2 0x24D1 JUMPI POP DUP3 DUP3 ADD PUSH2 0x1E40 ADD MSTORE PUSH1 0x1F ADD PUSH1 0x1F NOT AND DUP2 ADD SUB PUSH1 0x40 ADD SWAP2 POP RETURN JUMPDEST DUP1 DUP7 SWAP2 DUP6 ADD PUSH2 0x1E40 DUP4 DUP3 ADD MLOAD SWAP2 ADD MSTORE ADD PUSH2 0x24B0 JUMP JUMPDEST PUSH4 0x4E487B71 PUSH1 0xE0 SHL DUP2 MSTORE PUSH1 0x41 PUSH1 0x4 MSTORE PUSH1 0x24 SWAP1 REVERT JUMPDEST DUP1 REVERT INVALID LOG2 PUSH5 0x6970667358 0x22 SLT KECCAK256 CALLDATACOPY 0xCC DUP6 0xED PUSH3 0x612C4F SWAP13 0x24 0xE 0xC9 SUB SELFDESTRUCT 0x4F 0xD8 PUSH23 0xFC387538B026D4E5F38D6575546AD664736F6C63430008 LT STOP CALLER "
        },
        "gasEstimates": {
          "creation": {
            "codeDepositCost": "1904600",
            "executionCost": "2023",
            "totalCost": "1906623"
          },
          "external": {
            "getLogo()": "infinite"
          }
        },
        "methodIdentifiers": {
          "getLogo()": "0b6700d6"
        }
      },
      "storageLayout": {
        "storage": [],
        "types": null
      },
      "userdoc": {
        "kind": "user",
        "methods": {},
        "version": 1
      }
    }
  }
}