{
  "contracts/Waves.sol": {
    "Waves": {
      "abi": [
        {
          "inputs": [],
          "name": "getWaves",
          "outputs": [
            {
              "internalType": "bytes",
              "name": "",
              "type": "bytes"
            }
          ],
          "stateMutability": "pure",
          "type": "function"
        }
      ],
      "devdoc": {
        "kind": "dev",
        "methods": {},
        "version": 1
      },
      "evm": {
        "bytecode": {
          "linkReferences": {},
          "object": "60808060405234610016576117ce908161001c8239f35b600080fdfe6080600436101561000f57600080fd5b6000803560e01c63a9d42f7e1461002557600080fd5b346117955780600319360112611795576020917f3c696d616765206f7061636974793d222e33222020786c696e6b3a687265663d838201527f22646174613a696d6167652f706e673b6261736536342c6956424f5277304b4760408201527f676f414141414e5355684555674141415a41414141475141514d41414143366360608201527f61535041414141426c424d564556736648787366487863626c3274414141414160808201527f6e5253546c4d43395035316d623841414132505355524256486a61374a6c4e6a60a08201527f68764a4559574c717246716744475553322b4d4c674d2b6748554151366c626560c08201527f44752b676233545974444a4e67467a5a78356835695a544e41467a4f5435434e60e08201527f6267594c5a4f51466a6d44564b586669386773567639595a73334b69307074316101008201527f4630714d6a506978526376556c57317247557461316e4c577461796c7257735a6101208201527f5331725763746131724b577461786c4c57745a793172577370613172475574616101408201527f316e4c577461796c7257735a5331725763746131724b5739662b787670372f536101608201527f707a2f53766f46722f537a583346683969746d2f6d4657762b4177626a33376c6101808201527f58626d2b562f694d4837654b362b717170345a736a645676356f5a736c73495a6101a08201527f706a33796c41352f4a6d566c4b464b6e65336d764e4c457976566d56705152346101c08201527f445930666d59616d7a6776796a6a474b73324c4d76586c31724f696e463579636101e08201527f3235576a4347597874735a5771376a546458566f5a32526d436263566d4556356102008201527f7954476547532f757032546d505a65424c4f5a6b5a6a326746643875352b52476102208201527f4c754478714b356e2f474b613647783150675a69526c73583956704536352f5a6102408201527f5255644d704c32386670633169483944516679772f5735624d344a676a4842376102608201527f61374f70546b4e4e3958624a74726a31626c736a2f464e4665716850595872306102808201527f7849474d43615a6337772b4c57634b786d3344634831615468534d50555233666102a08201527f56702b434f6869454f6531695546617676575647597850317a594d70455545556102c08201527f794d782f7571306b4441557a4c574a515672594a323250784d5272302f4c54516102e08201527f4368355a38374474576e354545566a6468765374576e354d62797050415344786103008201527f4b79765459752f72595a564d6b684d64313161334c63397372394f32327354776103208201527f3753514d4c3037584a7359624d64745935574376556469776e555169776c647a6103408201527f4d5857583573596848624145557871777639497a472f48744b437970497474496103608201527f684f7a2f7079664b476c422f556f58327a4d786e3474795356704e4d615958466103808201527f41775438376b6f6c342f4443585966426f5553456d504336494f6542737158336103a08201527f704b776e7876614259764548485049374c4f644b7a2b44536f37553247706f6b6103c08201527f5a6a37394638396346336e63435a6f6355654e415570496a452b793466715a566103e08201527f356f374457654e33554e5a3142696735464142736d487a5448354d352f497a516104008201527f45773142696a5a6264522f2f4a7872627674576e746c675478476672314243426104208201527f327934732f6f3562323543667562644d56426a4c61466b635071456a374a702f6104408201527f666f5a4231616e794764643270325a774470744a544764545669786576666b6c6104608201527f542f4447715a504c715656676e7874686849533078752b34702b7854543674576104808201527f7a35446a3042616e436149696645722f6e706450336c6c4656785838316e48356104a08201527f75554a4a66794669596e6f7a536c554a6a786c424f4b5058513955497a3663546104c08201527f676d4238363742345355412f716d647776434272316d4c5941345a536a6a55496104e08201527f52664d4d31464f7a555577646776426646507832397237497069377834587a706105008201527f6273727a7967543270364b586378344655553731492b2f35735a32535a3431416105208201527f38384d7762694f6b5775436c56436c3244782b7862613950724f526b5157556e6105408201527f47635832305444777a544a50356c4e734831356c6c756b51416c34616664446a6105608201527f516858434c3539386932484b4d384d494c6e317444316d59456e3334477a362b6105808201527f48314b542b637338586d70523662586250644f6f65534f33716e475170572b656105a08201527f4a5157714859747a3459566f5a51796c453742396f32496f68346541614e475a6105c08201527f44743535676d6c63345a536534347450702b6961474c3753506f48454a6a506b6105e08201527f68696b55344653474a4268534c6e486f504849417a543341335458634d2f38386106008201527f434f67394a5a664678303551583235783359655236466766764d527a2f6344626106208201527f412b7439634445374655554b3554655934693575364b2f44644e4370775365676106408201527f7a564a564e39674e506e646731642b44317972566d763069475456576d395a4f6106608201527f6c597067697a39356345726630573132364251776c66596a566872794f4159446106808201527f48653253734834683056477070696b77494c473250686f72566b7844536b43556106a08201527f6254334431386875527275724b4847416e6e66446730546731366533694f55616106c08201527f7a5462522b376767476544364d3974495565506c7a644d444d536c55454a4c666106e08201527f7a6a66496a4b5643415a514d69667058654b556f4c594d7063486354392f34416107008201527f6d463161336b5755664a48615878305375786943695549356a424e2f797645306107208201527f2b717a486e573438366b344a5a374b6969686767716176744b316f6a4474544b6107408201527f45466a627873364a62666c41542b4a594d7755474f3375666d674553703737516107608201527f62324e54696c4443594a354f414730364d485533316676745974746f624862536107808201527f687579696f4b436564445044547039562f53334662424b46384d657654616a6c6107a08201527f6d55395063735766714a33457968425936346e39376568465646514d4f6e4c536107c08201527f526b66344670384f3448536756417938686444766f6c67686a394f796869744c6107e08201527f6e6378364d2b7144624f786b613944544e3653496e6a3764764c4b6d5979724b6108008201527f5a68576f45537a5a34616168307053336e69554867774e446661317a3249696c6108208201527f4d5253727449646e5a4c7274464f744d41444736525474544a2b37474b476b786108408201527f745631347051796c42725551706732462f4331514b6b52462f5a43356e306d786108608201527f697555444d39345363787247423236434e6d5845612b5872545861654353554f6108808201527f6c4447626538765748376e647663522b6a4d4b4a6459693533316f4e7a6955646108a08201527f50554868426d454d61644c7858774430306247495144435658464b67525553416108c08201527f61567362653551464a6458784270756976343264457253785a695972444745506108e08201527f4e724a6d4a6e45674536674e4d373753457a70564e4459524d70417a77564b376109008201527f455257353332324d3268737a652f325a4e572f70763049483963574b4a304b6c6109208201527f4d37716c414a4630634762753339637450396868424a636c4430574b415536706109408201527f52567a78533647625937393474664e5761475578436b354f43557255424a37736109608201527f63354f43594b357a49773364635342693862454b626b6532392f545a6c6831536109808201527f6e334e6b492f397774347872434f554f45366b66394b43694c315170385175646109a08201527f72694d575154456351496c37437a396e5932492b654770564253517a334178316109c08201527f5135376b52754f4443584f2b7951583763565172527964456b523669713948576109e08201527f326c78596b43704576335257684e4b6a54696c73564f78464d4b377356794131610a008201527f46544d7331687251416b567a4d52304579687478794a5463452b646b737a3764610a208201527f2f68624d763045537274796c394e55306835476130316c6e41676c4a7842552b610a408201527f797851616b754c4d5a30306f536d554f4538344c2f347653754e726b76696d30610a608201527f6d4a614c3632754e4558705967496c4254724273364a546f68437a2b74764972610a808201527f527755536c6136474b4545624a4a6e475572714164744f7779656a6e54716c44610aa08201527f4b5854554d613348304c57474b44456f736f47733959367a46434b674e49786c610ac08201527f76487478336a5247457533754d5845677757723174717a6977573968457a6d41610ae08201527f2b4b33556968787168754b5737517966574837547079535a31726b45744a7466610b008201527f306f5152534e4f79544d74343844474a46462f72435a384f495879707670616e610b208201527f64496d53394642317a52306370524b377076346366707354787479572f465170610b408201527f78464b4b3457532f744430596733686c4c4a364e7146416965446f586459596f610b608201527f5a544850784130595a63324e37356166456942456b53683446456f4858516e67610b808201527f41364d3668524b6f684f39684152717841316c4b4945703630703732756d4255610ba08201527f784c31453070733578434d483645454961367a534d384b4a61395179764d2b64610bc08201527f7568496b5349594e74546564615555754257452b4e38726832324f383735596b610be08201527f78464b71424137466877454d344553593675435962566d7030516f3464636a36610c008201527f2f63544b495678336764347a476d307a77716c4d686335723143714c31444b34610c208201527f787377716c44793470525175347871773538796c4a794d622f316c33742f6f35610c408201527f37716668576f6b52433878686a736a6c4a42534f6f4b786933486533342b3746610c608201527f796a523272325574496a507530427063356e332b2b485371654143574b4f5753610c808201527f596f43705846386b78364265642f524b626b485542496477655a4c5759762b4c610ca08201527f6c32737a664d2b3237684379516b676a71486d50716b46684b2f4e546c32366d610cc08201527f497876394e6749524c4850784e424f423759564e555a566d587758514b655572610ce08201527f6656677846702f39797542456e356478734c41756a67574b5045494f7538334d610d008201527f752b724b416274597031576a346e5374716d2f5439386e755878546133314842610d208201527f2b667954452f6a4d4e6a785471536551496c3377676531316a496c5a46474974610d408201527f63624d564162704f376b563649714c6f7474354d56707273632b5254516a7567610d608201527f464f2f65552f3979643144466f7952716671565445376f46744b70564443374d610d808201527f3156315936514e43705445576e647969793461712b556f68794b4b5471624d44610da08201527f6a495342795a51476b596f57567072722b4e624e3837374c417057694a554b55610dc08201527f53697452796a702b4a614d574f76637157715a6d485049455439613639457036610de08201527f627950726f475937494a324b68664a716a3272665332444e4147525856544c2f610e008201527f393267594e4362546b5273466f566e576a5a425446416a39303251694d373768610e208201527f464c495549492b547a7276753951784c5931763956496736443243414973666f610e408201527f4949785567586e43355132534576765647506c74674968356a617078647a466d610e608201527f4a694c55304a6152696a7854724d66352f3034516f6c3073796f4b685a49646f610e808201527f5351334c2b4f38543255496c41546e6f314d4b72546f616d6230547238354375610ea08201527f57397171497738372b2f6b456c4b68354b556f7845783766687743717a394667610ec08201527f564b3231685172787a663355626f596f392b503977686274645a694651564b37610ee08201527f47496931767352715649552b57514e4461463743435769524b376a664c70304d610f008201527f64616f786d394651326a5852582b73305830574449347973645a79315a546545610f208201527f3071774c4777642f7047316c71764632476f58433549387664397056582f476c610f408201527f307449707157525330683574394575316c737846426c4b58736856786a656439610f608201527f373161363161733958646679627850703151636d504152523472366e64743843610f808201527f616b553664786c6643732b7231476e4c7065516635724f2b787568534c364572610fa08201527f4b576f316d58457a5536396e637a37315955693437782f696d4d6d6e44723134610fc08201527f70545946504c2f6a476a624b66502b5561364c644453514573337a2f70704757610fe08201527f793868525a394e306b36467a72435453366c4d4e5942416e4a4972383336346f6110008201527f564e7154394d754a6b374a463359534e794d3739336f4a4756646161324d58476110208201527f2f6976644a62313470547341796a316f6a455a6c762f546c746e6b4e417844516110408201527f64695668624c4d45584945626b4276775a6162554351575858494662674a524c6110608201527f684b5542647430676551694b38597a37796347735733564b7248473837365a706110808201527f354e717735485865326848336a643346474e464e635a49626e6d4c306973485a6110a08201527f565a536f356551626b727355354f624571716d54464d366b705371332b776c4a6110c08201527f4b635970324d397536696949436b6c462b6b46564244563158534b446267466b6110e08201527f766472474e396f536f4d4348556d70506a33364a696b684f6357696245594d726111008201527f5758777a534959584469595576415355715a596155337058654c62614664336c6111208201527f4c7a666539356657315053764539534f754f496e6b522f534950426932354f736111408201527f59476d314c486f6e686e667945303935495076467333376d66454e55347969516111608201527f4541503453314c70375141326258345a4e36766e39397544536e463332684e556111808201527f7249336b3959314f6c714c4b5145414c764236635248457478637a7059532b796111a08201527f556d707337786653516e613937776653556f48443044595a53744675536e4e4d6111c08201527f4b586e706f54456d5865367061424531754f6676453954476a6458465150626f6111e08201527f49717a2b4c626e666154667a4e304e74507631554239462f396530712f484e386112008201527f373673617a7468595330685258706c2f53652b426152713776636e73724463776112208201527f316b6d2f64684d735a3355595571356b4a526753723251457442366b576e444e6112408201527f2f366764646e6f714c2b2f4d72346c5449754f6e7249476f5262626a32417a4e6112608201527f796c6173314d617548326a594172324c766576516b6f557165616b30396c494b6112808201527f64475550764d6453364170573936434654524c517578315a504464664b4d57796112a08201527f366553486e3841535932416149484c54714941414141415355564f524b3543596112c08201526524a49e91179f60d11b6112e08201526112c6815261130081019181831067ffffffffffffffff841117611781578260405283835281519081611320840152805b82811061176c57508282016113400152601f01601f19168101036040019150f35b8086918501611340838201519101520161174b565b634e487b7160e01b81526041600452602490fd5b80fdfea2646970667358221220b86d4a066c97f2beb24f53691670c78d0fe702ea1c547152916757c242e68aec64736f6c63430008100033",
          "opcodes": "PUSH1 0x80 DUP1 PUSH1 0x40 MSTORE CALLVALUE PUSH2 0x16 JUMPI PUSH2 0x17CE SWAP1 DUP2 PUSH2 0x1C DUP3 CODECOPY RETURN JUMPDEST PUSH1 0x0 DUP1 REVERT INVALID PUSH1 0x80 PUSH1 0x4 CALLDATASIZE LT ISZERO PUSH2 0xF JUMPI PUSH1 0x0 DUP1 REVERT JUMPDEST PUSH1 0x0 DUP1 CALLDATALOAD PUSH1 0xE0 SHR PUSH4 0xA9D42F7E EQ PUSH2 0x25 JUMPI PUSH1 0x0 DUP1 REVERT JUMPDEST CALLVALUE PUSH2 0x1795 JUMPI DUP1 PUSH1 0x3 NOT CALLDATASIZE ADD SLT PUSH2 0x1795 JUMPI PUSH1 0x20 SWAP2 PUSH32 0x3C696D616765206F7061636974793D222E33222020786C696E6B3A687265663D DUP4 DUP3 ADD MSTORE PUSH32 0x22646174613A696D6167652F706E673B6261736536342C6956424F5277304B47 PUSH1 0x40 DUP3 ADD MSTORE PUSH32 0x676F414141414E5355684555674141415A41414141475141514D414141433663 PUSH1 0x60 DUP3 ADD MSTORE PUSH32 0x61535041414141426C424D564556736648787366487863626C32744141414141 PUSH1 0x80 DUP3 ADD MSTORE PUSH32 0x6E5253546C4D43395035316D623841414132505355524256486A61374A6C4E6A PUSH1 0xA0 DUP3 ADD MSTORE PUSH32 0x68764A4559574C717246716744475553322B4D4C674D2B6748554151366C6265 PUSH1 0xC0 DUP3 ADD MSTORE PUSH32 0x44752B676233545974444A4E67467A5A78356835695A544E41467A4F5435434E PUSH1 0xE0 DUP3 ADD MSTORE PUSH32 0x6267594C5A4F51466A6D44564B586669386773567639595A73334B6930707431 PUSH2 0x100 DUP3 ADD MSTORE PUSH32 0x4630714D6A506978526376556C57317247557461316E4C577461796C7257735A PUSH2 0x120 DUP3 ADD MSTORE PUSH32 0x5331725763746131724B577461786C4C57745A79317257737061317247557461 PUSH2 0x140 DUP3 ADD MSTORE PUSH32 0x316E4C577461796C7257735A5331725763746131724B5739662B787670372F53 PUSH2 0x160 DUP3 ADD MSTORE PUSH32 0x707A2F53766F46722F537A583346683969746D2F6D4657762B4177626A33376C PUSH2 0x180 DUP3 ADD MSTORE PUSH32 0x58626D2B562F694D4837654B362B717170345A736A645676356F5A736C73495A PUSH2 0x1A0 DUP3 ADD MSTORE PUSH32 0x706A33796C41352F4A6D566C4B464B6E65336D764E4C457976566D5670515234 PUSH2 0x1C0 DUP3 ADD MSTORE PUSH32 0x445930666D59616D7A6776796A6A474B73324C4D76586C31724F696E46357963 PUSH2 0x1E0 DUP3 ADD MSTORE PUSH32 0x3235576A4347597874735A5771376A546458566F5A32526D436263566D455635 PUSH2 0x200 DUP3 ADD MSTORE PUSH32 0x7954476547532F757032546D505A65424C4F5A6B5A6A326746643875352B5247 PUSH2 0x220 DUP3 ADD MSTORE PUSH32 0x4C754478714B356E2F474B613647783150675A69526C73583956704536352F5A PUSH2 0x240 DUP3 ADD MSTORE PUSH32 0x5255644D704C32386670633169483944516679772F5735624D344A676A484237 PUSH2 0x260 DUP3 ADD MSTORE PUSH32 0x61374F70546B4E4E3958624A74726A31626C736A2F464E466571685059587230 PUSH2 0x280 DUP3 ADD MSTORE PUSH32 0x7849474D43615A6337772B4C57634B786D3344634831615468534D5055523366 PUSH2 0x2A0 DUP3 ADD MSTORE PUSH32 0x56702B434F6869454F6531695546617676575647597850317A594D7045554555 PUSH2 0x2C0 DUP3 ADD MSTORE PUSH32 0x794D782F7571306B4441557A4C574A515672594A323250784D5272302F4C5451 PUSH2 0x2E0 DUP3 ADD MSTORE PUSH32 0x4368355A38374474576E354545566A6468765374576E354D6279705041534478 PUSH2 0x300 DUP3 ADD MSTORE PUSH32 0x4B79765459752F72595A564D6B684D64313161334C63397372394F3232735477 PUSH2 0x320 DUP3 ADD MSTORE PUSH32 0x3753514D4C3037584A7359624D64745935574376556469776E555169776C647A PUSH2 0x340 DUP3 ADD MSTORE PUSH32 0x4D5857583573596848624145557871777639497A472F48744B43797049747449 PUSH2 0x360 DUP3 ADD MSTORE PUSH32 0x684F7A2F7079664B476C422F556F58327A4D786E3474795356704E4D61595846 PUSH2 0x380 DUP3 ADD MSTORE PUSH32 0x41775438376B6F6C342F4443585966426F5553456D504336494F654273715833 PUSH2 0x3A0 DUP3 ADD MSTORE PUSH32 0x704B776E7876614259764548485049374C4F644B7A2B44536F37553247706F6B PUSH2 0x3C0 DUP3 ADD MSTORE PUSH32 0x5A6A37394638396346336E63435A6F6355654E415570496A452B793466715A56 PUSH2 0x3E0 DUP3 ADD MSTORE PUSH32 0x356F374457654E33554E5A3142696735464142736D487A5448354D352F497A51 PUSH2 0x400 DUP3 ADD MSTORE PUSH32 0x45773142696A5A6264522F2F4A7872627674576E746C67547847667231424342 PUSH2 0x420 DUP3 ADD MSTORE PUSH32 0x327934732F6F3562323543667562644D56426A4C61466B635071456A374A702F PUSH2 0x440 DUP3 ADD MSTORE PUSH32 0x666F5A4231616E794764643270325A774470744A544764545669786576666B6C PUSH2 0x460 DUP3 ADD MSTORE PUSH32 0x542F4447715A504C715656676E7874686849533078752B34702B785454367457 PUSH2 0x480 DUP3 ADD MSTORE PUSH32 0x7A35446A3042616E436149696645722F6E706450336C6C4656785838316E4835 PUSH2 0x4A0 DUP3 ADD MSTORE PUSH32 0x75554A4A66794669596E6F7A536C554A6A786C424F4B5058513955497A366354 PUSH2 0x4C0 DUP3 ADD MSTORE PUSH32 0x676D4238363742345355412F716D647776434272316D4C5941345A536A6A5549 PUSH2 0x4E0 DUP3 ADD MSTORE PUSH32 0x52664D4D31464F7A555577646776426646507832397237497069377834587A70 PUSH2 0x500 DUP3 ADD MSTORE PUSH32 0x6273727A7967543270364B586378344655553731492B2F35735A32535A343141 PUSH2 0x520 DUP3 ADD MSTORE PUSH32 0x38384D7762694F6B5775436C56436C3244782B7862613950724F526B5157556E PUSH2 0x540 DUP3 ADD MSTORE PUSH32 0x47635832305444777A544A50356C4E734831356C6C756B51416C34616664446A PUSH2 0x560 DUP3 ADD MSTORE PUSH32 0x516858434C3539386932484B4D384D494C6E317444316D59456E3334477A362B PUSH2 0x580 DUP3 ADD MSTORE PUSH32 0x48314B542B637338586D70523662586250644F6F65534F33716E475170572B65 PUSH2 0x5A0 DUP3 ADD MSTORE PUSH32 0x4A5157714859747A3459566F5A51796C453742396F32496F68346541614E475A PUSH2 0x5C0 DUP3 ADD MSTORE PUSH32 0x44743535676D6C63345A536534347450702B6961474C3753506F48454A6A506B PUSH2 0x5E0 DUP3 ADD MSTORE PUSH32 0x68696B55344653474A4268534C6E486F504849417A543341335458634D2F3838 PUSH2 0x600 DUP3 ADD MSTORE PUSH32 0x434F67394A5A664678303551583235783359655236466766764D527A2F634462 PUSH2 0x620 DUP3 ADD MSTORE PUSH32 0x412B7439634445374655554B3554655934693575364B2F44644E437077536567 PUSH2 0x640 DUP3 ADD MSTORE PUSH32 0x7A564A564E39674E506E646731642B44317972566D763069475456576D395A4F PUSH2 0x660 DUP3 ADD MSTORE PUSH32 0x6C597067697A39356345726630573132364251776C66596A566872794F415944 PUSH2 0x680 DUP3 ADD MSTORE PUSH32 0x48653253734834683056477070696B77494C473250686F72566B7844536B4355 PUSH2 0x6A0 DUP3 ADD MSTORE PUSH32 0x6254334431386875527275724B4847416E6E66446730546731366533694F5561 PUSH2 0x6C0 DUP3 ADD MSTORE PUSH32 0x7A5462522B376767476544364D3974495565506C7A644D444D536C55454A4C66 PUSH2 0x6E0 DUP3 ADD MSTORE PUSH32 0x7A6A66496A4B5643415A514D69667058654B556F4C594D7063486354392F3441 PUSH2 0x700 DUP3 ADD MSTORE PUSH32 0x6D463161336B5755664A48615878305375786943695549356A424E2F79764530 PUSH2 0x720 DUP3 ADD MSTORE PUSH32 0x2B717A486E573438366B344A5A374B6969686767716176744B316F6A4474544B PUSH2 0x740 DUP3 ADD MSTORE PUSH32 0x45466A627873364A62666C41542B4A594D7755474F3375666D67455370373751 PUSH2 0x760 DUP3 ADD MSTORE PUSH32 0x62324E54696C4443594A354F414730364D485533316676745974746F62486253 PUSH2 0x780 DUP3 ADD MSTORE PUSH32 0x687579696F4B436564445044547039562F53334662424B46384D657654616A6C PUSH2 0x7A0 DUP3 ADD MSTORE PUSH32 0x6D55395063735766714A33457968425936346E39376568465646514D4F6E4C53 PUSH2 0x7C0 DUP3 ADD MSTORE PUSH32 0x526B66344670384F3448536756417938686444766F6C67686A394F796869744C PUSH2 0x7E0 DUP3 ADD MSTORE PUSH32 0x6E6378364D2B7144624F786B613944544E3653496E6A3764764C4B6D5979724B PUSH2 0x800 DUP3 ADD MSTORE PUSH32 0x5A68576F45537A5A34616168307053336E69554867774E446661317A3249696C PUSH2 0x820 DUP3 ADD MSTORE PUSH32 0x4D5253727449646E5A4C7274464F744D41444736525474544A2B37474B476B78 PUSH2 0x840 DUP3 ADD MSTORE PUSH32 0x745631347051796C42725551706732462F4331514B6B52462F5A43356E306D78 PUSH2 0x860 DUP3 ADD MSTORE PUSH32 0x697555444D39345363787247423236434E6D5845612B5872545861654353554F PUSH2 0x880 DUP3 ADD MSTORE PUSH32 0x6C4447626538765748376E647663522B6A4D4B4A6459693533316F4E7A695564 PUSH2 0x8A0 DUP3 ADD MSTORE PUSH32 0x50554868426D454D61644C7858774430306247495144435658464B6752555341 PUSH2 0x8C0 DUP3 ADD MSTORE PUSH32 0x61567362653551464A6458784270756976343264457253785A69597244474550 PUSH2 0x8E0 DUP3 ADD MSTORE PUSH32 0x4E724A6D4A6E45674536674E4D373753457A70564E4459524D70417A77564B37 PUSH2 0x900 DUP3 ADD MSTORE PUSH32 0x455257353332324D3268737A652F325A4E572F70763049483963574B4A304B6C PUSH2 0x920 DUP3 ADD MSTORE PUSH32 0x4D37716C414A4630634762753339637450396868424A636C4430574B41553670 PUSH2 0x940 DUP3 ADD MSTORE PUSH32 0x52567A78533647625937393474664E5761475578436B354F43557255424A3773 PUSH2 0x960 DUP3 ADD MSTORE PUSH32 0x63354F43594B357A49773364635342693862454B626B6532392F545A6C683153 PUSH2 0x980 DUP3 ADD MSTORE PUSH32 0x6E334E6B492F397774347872434F554F45366B66394B43694C31517038517564 PUSH2 0x9A0 DUP3 ADD MSTORE PUSH32 0x72694D575154456351496C37437A396E5932492B654770564253517A33417831 PUSH2 0x9C0 DUP3 ADD MSTORE PUSH32 0x5135376B52754F4443584F2B7951583763565172527964456B52366971394857 PUSH2 0x9E0 DUP3 ADD MSTORE PUSH32 0x326C78596B43704576335257684E4B6A54696C73564F78464D4B377356794131 PUSH2 0xA00 DUP3 ADD MSTORE PUSH32 0x46544D7331687251416B567A4D52304579687478794A5463452B646B737A3764 PUSH2 0xA20 DUP3 ADD MSTORE PUSH32 0x2F68624D763045537274796C394E55306835476130316C6E41676C4A7842552B PUSH2 0xA40 DUP3 ADD MSTORE PUSH32 0x797851616B754C4D5A30306F536D554F4538344C2F347653754E726B76696D30 PUSH2 0xA60 DUP3 ADD MSTORE PUSH32 0x6D4A614C3632754E4558705967496C4254724273364A546F68437A2B74764972 PUSH2 0xA80 DUP3 ADD MSTORE PUSH32 0x527755536C6136474B4545624A4A6E475572714164744F7779656A6E54716C44 PUSH2 0xAA0 DUP3 ADD MSTORE PUSH32 0x4B5854554D613348304C57474B44456F736F47733959367A46434B674E49786C PUSH2 0xAC0 DUP3 ADD MSTORE PUSH32 0x76487478336A5247457533754D5845677757723174717A6977573968457A6D41 PUSH2 0xAE0 DUP3 ADD MSTORE PUSH32 0x2B4B33556968787168754B5737517966574837547079535A31726B45744A7466 PUSH2 0xB00 DUP3 ADD MSTORE PUSH32 0x306F5152534E4F79544D74343844474A46462F72435A384F495879707670616E PUSH2 0xB20 DUP3 ADD MSTORE PUSH32 0x64496D53394642317A52306370524B377076346366707354787479572F465170 PUSH2 0xB40 DUP3 ADD MSTORE PUSH32 0x78464B4B3457532F744430596733686C4C4A364E7146416965446F586459596F PUSH2 0xB60 DUP3 ADD MSTORE PUSH32 0x5A544850784130595A63324E37356166456942456B53683446456F4858516E67 PUSH2 0xB80 DUP3 ADD MSTORE PUSH32 0x41364D3668524B6F684F39684152717841316C4B4945703630703732756D4255 PUSH2 0xBA0 DUP3 ADD MSTORE PUSH32 0x784C31453070733578434D483645454961367A534D384B4A61395179764D2B64 PUSH2 0xBC0 DUP3 ADD MSTORE PUSH32 0x7568496B5349594E74546564615555754257452B4E38726832324F383735596B PUSH2 0xBE0 DUP3 ADD MSTORE PUSH32 0x78464B71424137466877454D344553593675435962566D7030516F3464636A36 PUSH2 0xC00 DUP3 ADD MSTORE PUSH32 0x2F63544B495678336764347A476D307A77716C4D686335723143714C31444B34 PUSH2 0xC20 DUP3 ADD MSTORE PUSH32 0x787377716C44793470525175347871773538796C4A794D622F316C33742F6F35 PUSH2 0xC40 DUP3 ADD MSTORE PUSH32 0x37716668576F6B52433878686A736A6C4A42534F6F4B786933486533342B3746 PUSH2 0xC60 DUP3 ADD MSTORE PUSH32 0x796A523272325574496A507530427063356E332B2B485371654143574B4F5753 PUSH2 0xC80 DUP3 ADD MSTORE PUSH32 0x596F43705846386B78364265642F524B626B485542496477655A4C5759762B4C PUSH2 0xCA0 DUP3 ADD MSTORE PUSH32 0x6C32737A664D2B3237684379516B676A71486D50716B46684B2F4E546C32366D PUSH2 0xCC0 DUP3 ADD MSTORE PUSH32 0x497876394E6749524C4850784E424F423759564E555A566D587758514B655572 PUSH2 0xCE0 DUP3 ADD MSTORE PUSH32 0x6656677846702F39797542456E356478734C41756A67574B5045494F7538334D PUSH2 0xD00 DUP3 ADD MSTORE PUSH32 0x752B724B416274597031576A346E5374716D2F5439386E755878546133314842 PUSH2 0xD20 DUP3 ADD MSTORE PUSH32 0x2B667954452F6A4D4E6A785471536551496C3377676531316A496C5A46474974 PUSH2 0xD40 DUP3 ADD MSTORE PUSH32 0x63624D564162704F376B563649714C6F7474354D56707273632B5254516A7567 PUSH2 0xD60 DUP3 ADD MSTORE PUSH32 0x464F2F65552F3979643144466F7952716671565445376F46744B70564443374D PUSH2 0xD80 DUP3 ADD MSTORE PUSH32 0x3156315936514E43705445576E647969793461712B556F68794B4B5471624D44 PUSH2 0xDA0 DUP3 ADD MSTORE PUSH32 0x6A495342795A51476B596F57567072722B4E624E3837374C417057694A554B55 PUSH2 0xDC0 DUP3 ADD MSTORE PUSH32 0x53697452796A702B4A614D574F76637157715A6D485049455439613639457036 PUSH2 0xDE0 DUP3 ADD MSTORE PUSH32 0x627950726F475937494A324B68664A716A3272665332444E4147525856544C2F PUSH2 0xE00 DUP3 ADD MSTORE PUSH32 0x393267594E4362546B5273466F566E576A5A425446416A39303251694D373768 PUSH2 0xE20 DUP3 ADD MSTORE PUSH32 0x464C495549492B547A7276753951784C5931763956496736443243414973666F PUSH2 0xE40 DUP3 ADD MSTORE PUSH32 0x4949785567586E43355132534576765647506C74674968356A617078647A466D PUSH2 0xE60 DUP3 ADD MSTORE PUSH32 0x4A694C55304A6152696A7854724D66352F3034516F6C3073796F4B685A49646F PUSH2 0xE80 DUP3 ADD MSTORE PUSH32 0x5351334C2B4F38543255496C41546E6F314D4B72546F616D6230547238354375 PUSH2 0xEA0 DUP3 ADD MSTORE PUSH32 0x57397171497738372B2F6B456C4B68354B556F7845783766687743717A394667 PUSH2 0xEC0 DUP3 ADD MSTORE PUSH32 0x564B3231685172787A663355626F596F392B503977686274645A694651564B37 PUSH2 0xEE0 DUP3 ADD MSTORE PUSH32 0x47496931767352715649552B57514E4461463743435769524B376A664C70304D PUSH2 0xF00 DUP3 ADD MSTORE PUSH32 0x64616F786D394651326A5852582B73305830574449347973645A79315A546545 PUSH2 0xF20 DUP3 ADD MSTORE PUSH32 0x3071774C4777642F7047316C71764632476F58433549387664397056582F476C PUSH2 0xF40 DUP3 ADD MSTORE PUSH32 0x307449707157525330683574394575316C737846426C4B58736856786A656439 PUSH2 0xF60 DUP3 ADD MSTORE PUSH32 0x373161363161733958646679627850703151636D504152523472366E64743843 PUSH2 0xF80 DUP3 ADD MSTORE PUSH32 0x616B553664786C6643732B7231476E4C7065516635724F2B787568534C364572 PUSH2 0xFA0 DUP3 ADD MSTORE PUSH32 0x4B576F316D58457A5536396E637A37315955693437782F696D4D6D6E44723134 PUSH2 0xFC0 DUP3 ADD MSTORE PUSH32 0x70545946504C2F6A476A624B66502B5561364C644453514573337A2F70704757 PUSH2 0xFE0 DUP3 ADD MSTORE PUSH32 0x793868525A394E306B36467A72435453366C4D4E5942416E4A4972383336346F PUSH2 0x1000 DUP3 ADD MSTORE PUSH32 0x564E7154394D754A6B374A463359534E794D3739336F4A4756646161324D5847 PUSH2 0x1020 DUP3 ADD MSTORE PUSH32 0x2F6976644A62313470547341796A316F6A455A6C762F546C746E6B4E41784451 PUSH2 0x1040 DUP3 ADD MSTORE PUSH32 0x64695668624C4D45584945626B4276775A6162554351575858494662674A524C PUSH2 0x1060 DUP3 ADD MSTORE PUSH32 0x684B5542647430676551694B38597A37796347735733564B7248473837365A70 PUSH2 0x1080 DUP3 ADD MSTORE PUSH32 0x354E717735485865326848336A643346474E464E635A49626E6D4C306973485A PUSH2 0x10A0 DUP3 ADD MSTORE PUSH32 0x565A536F356551626B727355354F624571716D54464D366B705371332B776C4A PUSH2 0x10C0 DUP3 ADD MSTORE PUSH32 0x4B635970324D397536696949436B6C462B6B46564244563158534B446267466B PUSH2 0x10E0 DUP3 ADD MSTORE PUSH32 0x766472474E396F536F4D4348556D70506A33364A696B684F6357696245594D72 PUSH2 0x1100 DUP3 ADD MSTORE PUSH32 0x5758777A534959584469595576415355715A596155337058654C62614664336C PUSH2 0x1120 DUP3 ADD MSTORE PUSH32 0x4C7A666539356657315053764539534F754F496E6B522F534950426932354F73 PUSH2 0x1140 DUP3 ADD MSTORE PUSH32 0x59476D314C486F6E686E667945303935495076467333376D66454E5534796951 PUSH2 0x1160 DUP3 ADD MSTORE PUSH32 0x4541503453314C70375141326258345A4E36766E39397544536E463332684E55 PUSH2 0x1180 DUP3 ADD MSTORE PUSH32 0x7249336B3959314F6C714C4B5145414C764236635248457478637A7059532B79 PUSH2 0x11A0 DUP3 ADD MSTORE PUSH32 0x556D707337786653516E613937776653556F48443044595A53744675536E4E4D PUSH2 0x11C0 DUP3 ADD MSTORE PUSH32 0x4B586E706F54456D5865367061424531754F6676453954476A6458465150626F PUSH2 0x11E0 DUP3 ADD MSTORE PUSH32 0x49717A2B4C626E666154667A4E304E74507631554239462F396530712F484E38 PUSH2 0x1200 DUP3 ADD MSTORE PUSH32 0x373673617A7468595330685258706C2F53652B426152713776636E7372446377 PUSH2 0x1220 DUP3 ADD MSTORE PUSH32 0x316B6D2F64684D735A3355595571356B4A526753723251457442366B576E444E PUSH2 0x1240 DUP3 ADD MSTORE PUSH32 0x2F366764646E6F714C2B2F4D72346C5449754F6E7249476F5262626A32417A4E PUSH2 0x1260 DUP3 ADD MSTORE PUSH32 0x796C6173314D617548326A594172324C766576516B6F557165616B30396C494B PUSH2 0x1280 DUP3 ADD MSTORE PUSH32 0x64475550764D6453364170573936434654524C517578315A504464664B4D5779 PUSH2 0x12A0 DUP3 ADD MSTORE PUSH32 0x366553486E3841535932416149484C54714941414141415355564F524B354359 PUSH2 0x12C0 DUP3 ADD MSTORE PUSH6 0x24A49E91179F PUSH1 0xD1 SHL PUSH2 0x12E0 DUP3 ADD MSTORE PUSH2 0x12C6 DUP2 MSTORE PUSH2 0x1300 DUP2 ADD SWAP2 DUP2 DUP4 LT PUSH8 0xFFFFFFFFFFFFFFFF DUP5 GT OR PUSH2 0x1781 JUMPI DUP3 PUSH1 0x40 MSTORE DUP4 DUP4 MSTORE DUP2 MLOAD SWAP1 DUP2 PUSH2 0x1320 DUP5 ADD MSTORE DUP1 JUMPDEST DUP3 DUP2 LT PUSH2 0x176C JUMPI POP DUP3 DUP3 ADD PUSH2 0x1340 ADD MSTORE PUSH1 0x1F ADD PUSH1 0x1F NOT AND DUP2 ADD SUB PUSH1 0x40 ADD SWAP2 POP RETURN JUMPDEST DUP1 DUP7 SWAP2 DUP6 ADD PUSH2 0x1340 DUP4 DUP3 ADD MLOAD SWAP2 ADD MSTORE ADD PUSH2 0x174B JUMP JUMPDEST PUSH4 0x4E487B71 PUSH1 0xE0 SHL DUP2 MSTORE PUSH1 0x41 PUSH1 0x4 MSTORE PUSH1 0x24 SWAP1 REVERT JUMPDEST DUP1 REVERT INVALID LOG2 PUSH5 0x6970667358 0x22 SLT KECCAK256 0xB8 PUSH14 0x4A066C97F2BEB24F53691670C78D 0xF 0xE7 MUL 0xEA SHR SLOAD PUSH18 0x52916757C242E68AEC64736F6C6343000810 STOP CALLER "
        },
        "gasEstimates": {
          "creation": {
            "codeDepositCost": "1218800",
            "executionCost": "1277",
            "totalCost": "1220077"
          },
          "external": {
            "getWaves()": "infinite"
          }
        },
        "methodIdentifiers": {
          "getWaves()": "a9d42f7e"
        }
      },
      "storageLayout": {
        "storage": [],
        "types": null
      },
      "userdoc": {
        "kind": "user",
        "methods": {},
        "version": 1
      }
    }
  }
}