{
  "contracts/PmFont.sol": {
    "PmFont": {
      "abi": [
        {
          "inputs": [],
          "name": "getPmFont",
          "outputs": [
            {
              "internalType": "bytes",
              "name": "",
              "type": "bytes"
            }
          ],
          "stateMutability": "pure",
          "type": "function"
        }
      ],
      "devdoc": {
        "kind": "dev",
        "methods": {},
        "version": 1
      },
      "evm": {
        "bytecode": {
          "linkReferences": {},
          "object": "6080806040523461001657611e29908161001c8239f35b600080fdfe6080600436101561000f57600080fd5b6000803560e01c63f17e85721461002557600080fd5b34611df05780600319360112611df057602091661e39ba3cb6329f60c91b838201526a40666f6e742d666163657b60a81b60278201527f666f6e742d66616d696c793a225065726d616e656e74204d61726b6572223b0060328201527f7372633a75726c28646174613a6170706c69636174696f6e2f666f6e742d776f60518201527f66663b636861727365743d7574662d383b6261736536342c643039475267414260718201527f414141414142466741413041414141414759414141514243414141414141414160918201527f414141414141414141414141414141414141425055793879414141424d41414160b18201527f414538414141426759624c6a6f324e745958414141414741414141416277414160d18201527f41576f575378366759335a30494141414166414141414143414141414167415660f18201527f4141426d63476474414141423941414141506341414146686b6b48612b6d64736101118201527f6557594141414c734141414c30514141455367536f783064614756685a4141416101318201527f4473414141414132414141414e6769565777646f614756684141414f2b4141416101518201527f414230414141416b42486342354768746448674141413859414141414e4141416101718201527f41445166306741626247396a595141414430774141414163414141414842686d6101918201527f48585a74595868774141415061414141414234414141416741686f43475735686101b18201527f6257554141412b4941414142757741414131525157384d396347397a644141416101d18201527f45555141414141554141414149502b3241454277636d567741414152574141416101f18201527f41416341414141486141614d68586963593242684b6d4b63774d444b774d43306102118201527f68366d4c675947684230497a336d55775a6752796d5268676f494742515632416102318201527f415146635050324347427759464268436d504c2b483261775a536c676441554b6102518201527f677a51784d42557966514e534367774d41475836444a4141654a786a594742676102718201527f5a6f426747515a47426842494166495977587757426738677a636641776344456102918201527f774d6167774f4449344d62677778444145504c2f503141637848646c384762776102b18201527f59776a362f2f2f2f772f38482f2b2f37762b762f7a7638376f4f5967415559326102d18201527f6442464d674b454a48544342334d6b43597247794d62427a63444a7763664d516102f18201527f4e6e62514141444976784d5241414156414142346e463251505537454d4243466103118201527f5978495763674d6b43386b6a61796c5774756970556a6952554a71776f6641306103318201527f2f45693745746b37494b57686363465a336e5970637a454533675257514f50786103518201527f65365035394761516d427035342f644376504d6750742f674c7664352b7668676103718201527f495978535a6563676e69784f444d534b4c464b6a4b71544c61753031713644436103918201527f3753616f537230386235417470786f6232384458436b6e72752f6a6565304c426103b18201527f38766a644d7439595a41644d4e6d454352384475473743624148482b772b4c556103d18201527f314172705665507650486f6e55546957524b72453248694d54684b7a78654b596103f18201527f4d646258376d4a4f6532617757466d637a3454576f3542494f49525a615549666104118201527f67677878677838392f745744535034627857386a58714163524e394d6e5636546104318201527f504269614e4d5745374378795537652b6a42474a3752666c59477463414869636104518201527f6456644c6a79545a576333376673614e52305a47354b73694b353952575631646104718201527f5656315a6c546c643356336a6d7066614d75345a6a3741745754416a445167516104918201527f6b7355494934546b4255755145507741784a594e43336241487061736b4542736104b18201527f57434a766a47794d6b6231416f6a6b334b33734749644631757971654e2b37396104d18201527f766e504f6437354f352f2f3552312f2f3450585036542f534833542b74504d586104f18201527f6e5537374e726b6a4f347a563957352f384461703738696d33683830635578496105118201527f637a694b343672657676336c3659536f514e542b5541576d7a6b6d37756943376105318201527f37616f394a786478736e596c38634238646b4776343758647167306b706548776105518201527f336e37303468385a4c3837336238553557694c5639697175423266782f6a41686105718201527f6735736a307a5745686c7962587159634e367159626f592b453558766e5468426105918201527f47655753434d4f46743562364c4f465538697756564e4c437573646a536967586105b18201527f7a49365735344f51434330537a6a434a354f57304b656e674f4b7650686e6e586105d18201527f4d5546463449707751586c434765455737315046343779707370796c69564f4a6105f18201527f5436336b6c464a4f4c6b4f69456a562f507464644a77626e36616532392b4c7a6106118201527f5a393156795930736a2f50797047734a5a53783965704a624a726c496e4847466106318201527f3661304835626f3875756b545159686e6b68477358784456375a306b797576796106518201527f555431635433754561533670544c573354504861364d477855467761504532786106718201527f72544a31587163716f5652545a78696e7272525a6b795a614d783758546f6e486106918201527f506a58574a306933724169685569322f3374725233546a696748514d6350426e6106b18201527f3946383766396a707844696673393064612b2b516672593778304538335656586106d18201527f6d32707a7662713561736932525a3672514d6f36434c554b464b6c556c6179726106f18201527f37613653765962743968426f54306b7256326f3132392b396f3844524c74356a6107118201527f4f384244727559422b58314c5939464b4d55614e77543659566c6e5231586d4b6107318201527f3366725a2b6e4a302b51737658323249344577547167516e666c566a385452626107518201527f6e323975746b4f64684e7a726e684f456e66376145384a4e6c686465634647756107718201527f3170646a6f5953647572414d7862466662793833793848393249596b4f4d47596107918201527f314e324c5a313939374649392f7671726c7a4e647162526472334f54705a6c476107b18201527f524b7656596c6c6e79315662466e56715a4a6f37593567434869686c6f6a65796107d18201527f5269756a5230326d545a5942463577717956796c756148347543787952327a6c6107f18201527f6b784543424a674a49595a506a3545385354796d79584d5057486c46327450616108118201527f615371457063552b42362f2f37665850364c2f514833662b2b6945486948676b6108318201527f316f475232336870466f6e7a774b6674646274366d327a664d42626a617276626108518201527f376a6c62625464586279685a675445705763336d7334424634716553653437566108718201527f4b684a762f2b497a6f6d70316f485a4b3231556b36514d686b614f5a504a437a6108918201527f6c7557386a4365393675485747344a476a7362766e6a58486c485748347951566108b18201527f546c6a455745734332676b4a714b6447674756655573346f746354576c3356396108d18201527f3264646472547a4c732b617a467a3370355856754d7955303030374a6f4a496b6108f18201527f306332484837383630676d5479446768704163636749706c57343266546c726a6109118201527f4a484344467769376b4c616236384c306a374e715854684f62576b694a3555676109318201527f6873536b576347724e457331317556424a474535386b6635332b6433342f346f6109518201527f4e306952356a7a54726e496d434548774d53424465364539734a6c496e31414c6109718201527f36756c4d4b67626c6b46785834436f3568676f495258572f396b414155556e586109918201527f5355453465436963484d7773423173703871384d7951427779784a6e6e3275476109b18201527f466533336f5251686b75465269455a42695136535331625533534d4e486b42756109d18201527f724d5374594f5958745134486a763655585543722f775434754875492b7036586109f18201527f44647367646273476e4836674a464d7873577933726572744b6b496a676f4856610a118201527f59612f4c4741394a78577662316548365070305136506151554641576a353354610a318201527f39767163517169332b4c31646c51514a74554a4d6c6b756635486c646d6a526b610a518201527f686b74524a4b57324262534e75774c41506e7031564d385862576e4253303379610a718201527f5557724c58414c326844766566374b3547636d696d7775456b61657375483335610a918201527f693438466b576b4a3174444e36653233546b457a5853717a7a6e747479707959610ab18201527f5835773957626f73424f4f63304d36714744524f2f6f5a44737a6c392f697566610ad18201527f66507057736c6a4f484246525567567a302f6e5553436b454e364f6d535a7272610af18201527f4f6a73613143452b7a725149306731496b766938304e3151545a766a6e6f456b610b118201527f57454b303165304a30674441684377334638384b616e4e694961364d6a33302b610b318201527f4c51577237743939686d4a6a61526a30536d756b386a37525242357938352f30610b518201527f642b67504f39383936436439494f4e7554343344694966493143595753506c46610b718201527f7a667479524e704748694e646d3176794a594e4c74552f52664b594f66487967610b918201527f35337947564431465651675a6473366f734a5a626f4a33343270584c56454e78610bb18201527f654f39706d5364646842714d30674663704a4168494433307162654a58337a7a610bd18201527f644e35596f46714b4d457954675463614b653536624c4c734e597477464e496d610bf18201527f3956624d506a783574754238795a334a7a79347565395a316c39344e59345763610c118201527f337a653733337775555646644e30326e513050726556597368736f4b6d59684a610c318201527f3235322f66385a34415a59433774426534637a47635330543147776958565255610c518201527f2f48645659325455774a2b382f6d2f367a346a6a397842485642425a3158414e610c718201527f7145445831655a42456f4658314a534779424a33326972514773714776365371610c918201527f33374168526d34503950714e6a4c576f545a674e4d775132442b79764c4a6470610cb18201527f4678774d337453544f6a65516471474f336e6e3333636e34356d775362514a45610cd18201527f41416a4330414c49415162694b74576a6d306c7558474b4d4c675a5676776839610cf18201527f4c6f454378377a567846536957336c676c78695244796672365a4e5874625661610d118201527f6f79426238596b6539484d51582b4e484c632f4f63303773514e2f3977522f39610d318201527f38587432744c686f77415567566973384572496b546641394d727a5a33553447610d518201527f483333322b6130376e7330447a5873464b3565313766644c3156786662592b50610d718201527f58677a5473347044354954587730723578536466595756566d44524652614564610d918201527f38666f2f454d762f366e797a382f314f70355a67382b714f376c434944377078610db18201527f457a46353961552b58473050616c42576452574e6e47776f696a783967314347610dd18201527f4f73345132415a3159334f39655144314f626d4a5959316a466830646f763254610df18201527f7335645031346b5a6239382f566b5a4269624568595650517243714453774b71610e118201527f62446f4c784963513152464f44494b6f765965366a4d2b50614351593562354d610e318201527f73737379484f664a5972564b462b394e37576a594a6558753972625770793962610e518201527f6b52484268717342395972354e4a587a39386559534a616e7439503366757554610e718201527f6a31644d7776635a37377968466f3470736630756f586c6d4e51732b63643778610e918201527f794865722f416a6c417975382b50574c4d426f4f6b37786454485135794c5743610eb18201527f696e74464530742b743136754868336c38424b477436557663754e426d355777610ed18201527f79696f707874647a526d4f7346362f2f6e66346c2f56486e67383476647a7264610ef18201527f62625576344b534f4163664a48626e5a687877474b557031564772454d595932610f118201527f6f70767339585631553231576432533132306634414f5a7a4b68385436426258610f318201527f4e4d7058586a74347a77796f62575a6c6550546b75734b75727a346364326464610f518201527f6d73312f395876667677554e653058354b4e657067394d5149627247784d6766610f718201527f77355a414c54304e342f45594e44317558486a722f70344d4f5a52765a49516c610f918201527f31576f327a564578335367626273366d7870654f5347726b654e43382f375750610fb18201527f54733575356c557965764869646b425141517a78773848417170515856302f57610fd18201527f5033553531466d43436e436b53686d62754b5155735762526a6e3339542f4356610ff18201527f502b72387870375259434c32434c70696e2b31446759714d335774644c7a4b376110118201527f6f543173763778536b63567348366871572b2f74496a78702b774245784178676110318201527f52747755346b59657174303547634e684f4957734b43455949556e715578386d6110518201527f596e4c35354f36382f37797255783236615443556f44643438653350546778746110718201527f706b667a7957512b506836354943465052696872453776342f4e75507469657a6110918201527f6968463476544a7a476979326a736b454c7a4c796a6552343068656e763751576110b18201527f703938697561365738326e42584e36566b3366755834796f302f3333377139456110d18201527f336837424261584a7644334a7054464f333979766a33497569797246416733386110f18201527f724775616b55623052516965684f45304777364f53694c4a79645751515555456111118201527f334b4c4a69514659795439304a394e324a4a62353876472b316c6a556d7239466111318201527f54483866534c754c4d497568764a3546664f33463778436a6779325831554d776111518201527f5979432f614d3557636866643937354a32383676556178696854386e327a66796111718201527f67485077656e3465486679444b63437a6941444d457a584c73387565707476766111918201527f2f76627676634e44366f6d483565736e6a372b7a634d33304f4c6746396b46566111b18201527f6631437959676a68522f664434576d597a622f796a652b636363644d50526f6c6111d18201527f4f6f467743556f3467654643395a4a682f6458375a324f5742423839466f63776111f18201527f4447394c33383950767a616e30716d552f46336164566d52445265444850584f6112118201527f72687256395657766447375130796a4c6b6e7469514863466479574e6b6768636112318201527f33683835574c3130326d307536374d5062746f45545153436a693470633854426112518201527f747a4d4770545744596131354e703447744163704c714e6e496a51706e4e61676112718201527f54436f786152376a336e6e395133614d3276546e6950732b4a44665262572f516112918201527f466e316876534f676f7978757271704471357a43323543446a5934322f5038576112b18201527f2f705345427a6451533758333134642b756f7156583837623152744c646b47326112d18201527f4e2f2f4c62754e62752b75397563435538415a4939534d36553666784e3537466112f18201527f714242574562306b6647697556782b646e7438677a7134757848423764504a786113118201527f6d7a66426333534e5278774273383561785745357657342b6d5062504370735a6113318201527f6b796c30314e4275726c6a4d42344c435565645273644547533671566c586c786113518201527f476b41634830736d586962614d4a525332685332554537684574706e704362786113718201527f68757341762b525651422b4172685965587a68367252507478313172574547696113918201527f2b3055534a556c6b374c465242497a7930692f6d4668307337444e365742334c6113b18201527f7866436b4c4e65445974724c54304b71304c74373466416947676a6c554b356c6113d18201527f724e50454c3871614b4a515752614d746c5a6137595843462b754454782f32726113f18201527f6f634e4842676e735043486f336b6873427831686e63372f41456b6b644f59416114118201527f414141414151414141414541516a4a6542557066447a7a3143417345414141416114318201527f4141444a4e556f6741414141414e55727a4e662f35762f56417938432b7741416114518201527f41416b414167414141414141414869635932426b594741702b4c6562515a355a6114718201527f2b76387a426842675a454146764142304d4152664141414141587341414146376114918201527f414141437a2f2f6d416f494143514a4e2f2b77444777414a416f674143514b396114b18201527f2f2f45432b674146416f38414a414b5741416f435467414b416d3441414141416114d18201527f41415941444145514164494334674f77424651452b675777426a7747356765696114f18201527f434a52346e474e675a474267344758597a73444541414b4d594a4b4c4163686c6115118201527f544151784152596c41546341414869636c56484e61747441455037576356494b6115318201527f72656d7470616568703654452b7648524f67586241644845474b666b7269694c6115518201527f4c4b4a49597158592b4e496e7941766b4c666f4d506651682b686839676e35656115718201527f4c3847596c464974752f764e7a44666637497741764d4e504b47792f6948754c6115918201527f466632527778323877686548442f414a633465372b49445734554f38786150446115b18201527f523369504a3464372b497a767a464c64313753572b4f57776771695a777833306115d18201527f564f3377416362716d384e64424f7148773466347148343766415376383862686115f18201527f4872353268714f7158707338573752796e4a37494941674475566e4c655657326116118201527f4d73354c6255346c4c6c4e507a6f70434c4b30526f7874746c7672576d326c7a6116318201527f6e3553617a4d764533476b7a31396c446b5a6a5143344977477366546566544d6116518201527f32424c366a7247664b4d352f725532545636565968622f6b4c7471324876722b6116718201527f617258796b6a704a46397172544f59586561724c526a662b52547961544b386d6116918201527f2f5945585949514b4e645977794a466877586b4c6a7048696850634141554a756116b18201527f7751305a676e4e79533873596b3131434d2b7555566b796377694d365138456c6116d18201527f4f32714e745454764458764a3835624d6d6258756b5669567265596c4c594d376116f18201527f47356e7a7a504241725930765a455a6733784b78636f77703439454c4772734b6117118201527f2f54324e66315755506636313954627359394f7a374c7a682f2b70755a7442796117318201527f776b50345843753750455a7137705252546173694c324f30594c5855616a5a326117518201527f596a3475324f304945335a387862505050384a582f414863714b5162414869636117718201527f5932426d4149502f6d786d4d475441424c774173746748327541482f686241456117918201527503528a09e94903337b936b0ba14113bb7b33311149d960551b6117b182015272666f6e742d7765696768743a6e6f726d616c3b60681b6117c782015272666f6e742d7374796c653a6e6f726d616c3b7d60681b6117da820152671e17b9ba3cb6329f60c11b6117ed820152661e17b232b3399f60c91b6117f58201526117dc815261180081019181831067ffffffffffffffff841117611ddc578260405283835281519081611820840152805b828110611dc757508282016118400152601f01601f19168101036040019150f35b80869185016118408382015191015201611da6565b634e487b7160e01b81526041600452602490fd5b80fdfea264697066735822122078594ef5cbf5b94133591b33a3e1a8ca1be1fc23cf630e675cae7d86efe4af2a64736f6c63430008100033",
          "opcodes": "PUSH1 0x80 DUP1 PUSH1 0x40 MSTORE CALLVALUE PUSH2 0x16 JUMPI PUSH2 0x1E29 SWAP1 DUP2 PUSH2 0x1C DUP3 CODECOPY RETURN JUMPDEST PUSH1 0x0 DUP1 REVERT INVALID PUSH1 0x80 PUSH1 0x4 CALLDATASIZE LT ISZERO PUSH2 0xF JUMPI PUSH1 0x0 DUP1 REVERT JUMPDEST PUSH1 0x0 DUP1 CALLDATALOAD PUSH1 0xE0 SHR PUSH4 0xF17E8572 EQ PUSH2 0x25 JUMPI PUSH1 0x0 DUP1 REVERT JUMPDEST CALLVALUE PUSH2 0x1DF0 JUMPI DUP1 PUSH1 0x3 NOT CALLDATASIZE ADD SLT PUSH2 0x1DF0 JUMPI PUSH1 0x20 SWAP2 PUSH7 0x1E39BA3CB6329F PUSH1 0xC9 SHL DUP4 DUP3 ADD MSTORE PUSH11 0x40666F6E742D666163657B PUSH1 0xA8 SHL PUSH1 0x27 DUP3 ADD MSTORE PUSH32 0x666F6E742D66616D696C793A225065726D616E656E74204D61726B6572223B00 PUSH1 0x32 DUP3 ADD MSTORE PUSH32 0x7372633A75726C28646174613A6170706C69636174696F6E2F666F6E742D776F PUSH1 0x51 DUP3 ADD MSTORE PUSH32 0x66663B636861727365743D7574662D383B6261736536342C6430394752674142 PUSH1 0x71 DUP3 ADD MSTORE PUSH32 0x4141414141424667414130414141414147594141415142434141414141414141 PUSH1 0x91 DUP3 ADD MSTORE PUSH32 0x414141414141414141414141414141414141425055793879414141424D414141 PUSH1 0xB1 DUP3 ADD MSTORE PUSH32 0x414538414141426759624C6A6F324E7459584141414147414141414162774141 PUSH1 0xD1 DUP3 ADD MSTORE PUSH32 0x41576F575378366759335A304941414141664141414141434141414141674156 PUSH1 0xF1 DUP3 ADD MSTORE PUSH32 0x4141426D63476474414141423941414141506341414146686B6B48612B6D6473 PUSH2 0x111 DUP3 ADD MSTORE PUSH32 0x6557594141414C734141414C30514141455367536F783064614756685A414141 PUSH2 0x131 DUP3 ADD MSTORE PUSH32 0x4473414141414132414141414E6769565777646F614756684141414F2B414141 PUSH2 0x151 DUP3 ADD MSTORE PUSH32 0x414230414141416B42486342354768746448674141413859414141414E414141 PUSH2 0x171 DUP3 ADD MSTORE PUSH32 0x41445166306741626247396A595141414430774141414163414141414842686D PUSH2 0x191 DUP3 ADD MSTORE PUSH32 0x48585A74595868774141415061414141414234414141416741686F4347573568 PUSH2 0x1B1 DUP3 ADD MSTORE PUSH32 0x6257554141412B4941414142757741414131525157384D396347397A64414141 PUSH2 0x1D1 DUP3 ADD MSTORE PUSH32 0x45555141414141554141414149502B3241454277636D56774141415257414141 PUSH2 0x1F1 DUP3 ADD MSTORE PUSH32 0x41416341414141486141614D68586963593242684B6D4B63774D444B774D4330 PUSH2 0x211 DUP3 ADD MSTORE PUSH32 0x68366D4C675947684230497A336D55775A6752796D5268676F49474251563241 PUSH2 0x231 DUP3 ADD MSTORE PUSH32 0x415146635050324347427759464268436D504C2B483261775A536C676441554B PUSH2 0x251 DUP3 ADD MSTORE PUSH32 0x677A51784D42557966514E534367774D41475836444A4141654A786A59474267 PUSH2 0x271 DUP3 ADD MSTORE PUSH32 0x5A6F426747515A47426842494166495977587757426738677A63664177634445 PUSH2 0x291 DUP3 ADD MSTORE PUSH32 0x774D6167774F4449344D62677778444145504C2F503141637848646C38476277 PUSH2 0x2B1 DUP3 ADD MSTORE PUSH32 0x59776A362F2F2F2F772F38482F2B2F37762B762F7A7638376F4F596741555932 PUSH2 0x2D1 DUP3 ADD MSTORE PUSH32 0x6442464D674B454A48544342334D6B43597247794D62427A63444A7763664D51 PUSH2 0x2F1 DUP3 ADD MSTORE PUSH32 0x4E6E62514141444976784D5241414156414142346E463251505537454D424346 PUSH2 0x311 DUP3 ADD MSTORE PUSH32 0x5978495763674D6B43386B6A61796C5774756970556A6952554A71776F664130 PUSH2 0x331 DUP3 ADD MSTORE PUSH32 0x2F45693745746B37494B57686363465A336E5970637A454533675257514F5078 PUSH2 0x351 DUP3 ADD MSTORE PUSH32 0x65365035394761516D427035342F644376504D6750742F674C7664352B766867 PUSH2 0x371 DUP3 ADD MSTORE PUSH32 0x495978535A6563676E69784F444D534B4C464B6A4B71544C6175303171364443 PUSH2 0x391 DUP3 ADD MSTORE PUSH32 0x3753616F537230386235417470786F6232384458436B6E72752F6A6565304C42 PUSH2 0x3B1 DUP3 ADD MSTORE PUSH32 0x38766A644D7439595A41644D4E6D454352384475473743624148482B772B4C55 PUSH2 0x3D1 DUP3 ADD MSTORE PUSH32 0x314172705665507650486F6E55546957524B72453248694D54684B7A78654B59 PUSH2 0x3F1 DUP3 ADD MSTORE PUSH32 0x4D646258376D4A4F6532617757466D637A3454576F3542494F49525A61554966 PUSH2 0x411 DUP3 ADD MSTORE PUSH32 0x67677878677838392F745744535034627857386A58714163524E394D6E563654 PUSH2 0x431 DUP3 ADD MSTORE PUSH32 0x504269614E4D5745374378795537652B6A42474A3752666C5947746341486963 PUSH2 0x451 DUP3 ADD MSTORE PUSH32 0x6456644C6A79545A576333376673614E52305A47354B73694B35395257563164 PUSH2 0x471 DUP3 ADD MSTORE PUSH32 0x5656315A6C546C643356336A6D7066614D75345A6A3741745754416A44516751 PUSH2 0x491 DUP3 ADD MSTORE PUSH32 0x6B7355494934546B4255755145507741784A594E43336241487061736B454273 PUSH2 0x4B1 DUP3 ADD MSTORE PUSH32 0x57434A766A47794D6B6231416F6A6B334B33734749644631757971654E2B3739 PUSH2 0x4D1 DUP3 ADD MSTORE PUSH32 0x766E504F6437354F352F2F3552312F2F3450585036542F534833542B74504D58 PUSH2 0x4F1 DUP3 ADD MSTORE PUSH32 0x6E5537374E726B6A4F347A563957352F384461703738696D3368383063557849 PUSH2 0x511 DUP3 ADD MSTORE PUSH32 0x637A694B343672657676336C3659536F514E542B5541576D7A6B6D3775694337 PUSH2 0x531 DUP3 ADD MSTORE PUSH32 0x37616F394A786478736E596C38634238646B4776343758647167306B70654877 PUSH2 0x551 DUP3 ADD MSTORE PUSH32 0x336E37303468385A4C3837336238553557694C5639697175423266782F6A4168 PUSH2 0x571 DUP3 ADD MSTORE PUSH32 0x6735736A307A5745686C7962587159634E367159626F592B453558766E546842 PUSH2 0x591 DUP3 ADD MSTORE PUSH32 0x47655753434D4F46743562364C4F465538697756564E4C437573646A53696758 PUSH2 0x5B1 DUP3 ADD MSTORE PUSH32 0x7A49365735344F51434330537A6A434A354F57304B656E674F4B7650686E6E58 PUSH2 0x5D1 DUP3 ADD MSTORE PUSH32 0x4D5546463449707751586C434765455737315046343779707370796C69564F4A PUSH2 0x5F1 DUP3 ADD MSTORE PUSH32 0x5436336B6C464A4F4C6B4F69456A562F507464644A77626E36616532392B4C7A PUSH2 0x611 DUP3 ADD MSTORE PUSH32 0x5A393156795930736A2F50797047734A5A53783965704A624A726C496E484746 PUSH2 0x631 DUP3 ADD MSTORE PUSH32 0x3661304835626F3875756B545159686E6B68477358784456375A306B79757679 PUSH2 0x651 DUP3 ADD MSTORE PUSH32 0x555431635433754561533670544C573354504861364D47785546776150453278 PUSH2 0x671 DUP3 ADD MSTORE PUSH32 0x72544A31587163716F5652545A78696E7272525A6B795A614D783758546F6E48 PUSH2 0x691 DUP3 ADD MSTORE PUSH32 0x506A58574A306933724169685569322F3374725233546A696748514D6350426E PUSH2 0x6B1 DUP3 ADD MSTORE PUSH32 0x3946383766396A707844696673393064612B2B51667259377830453833565658 PUSH2 0x6D1 DUP3 ADD MSTORE PUSH32 0x6D32707A7662713561736932525A3672514D6F36434C554B464B6C556C617972 PUSH2 0x6F1 DUP3 ADD MSTORE PUSH32 0x37613653765962743968426F54306B7256326F3132392B396F3844524C74356A PUSH2 0x711 DUP3 ADD MSTORE PUSH32 0x4F384244727559422B58314C5939464B4D55614E77543659566C6E5231586D4B PUSH2 0x731 DUP3 ADD MSTORE PUSH32 0x3366725A2B6E4A302B51737658323249344577547167516E666C566A38545262 PUSH2 0x751 DUP3 ADD MSTORE PUSH32 0x6E323975746B4F64684E7A726E684F456E66376145384A4E6C68646563464775 PUSH2 0x771 DUP3 ADD MSTORE PUSH32 0x3170646A6F5953647572414D7862466662793833793848393249596B4F4D4759 PUSH2 0x791 DUP3 ADD MSTORE PUSH32 0x314E324C5A313939374649392F7671726C7A4E647162526472334F54705A6C47 PUSH2 0x7B1 DUP3 ADD MSTORE PUSH32 0x524B7656596C6C6E79315662466E56715A4A6F37593567434869686C6F6A6579 PUSH2 0x7D1 DUP3 ADD MSTORE PUSH32 0x5269756A5230326D545A5942463577717956796C756148347543787952327A6C PUSH2 0x7F1 DUP3 ADD MSTORE PUSH32 0x6B784543424A674A49595A506A3545385354796D79584D5057486C4632745061 PUSH2 0x811 DUP3 ADD MSTORE PUSH32 0x615371457063552B42362F2F37665850364C2F514833662B2B6945486948676B PUSH2 0x831 DUP3 ADD MSTORE PUSH32 0x316F475232336870466F6E7A774B6674646274366D327A664D42626A61727662 PUSH2 0x851 DUP3 ADD MSTORE PUSH32 0x376A6C62625464586279685A675445705763336D733442463471655365343756 PUSH2 0x871 DUP3 ADD MSTORE PUSH32 0x4B684A762F2B497A6F6D70316F485A4B3231556B36514D686B614F5A504A437A PUSH2 0x891 DUP3 ADD MSTORE PUSH32 0x6C7557386A4365393675485747344A476A7362766E6A58486C48574834795156 PUSH2 0x8B1 DUP3 ADD MSTORE PUSH32 0x546C6A455745734332676B4A714B6447674756655573346F746354576C335639 PUSH2 0x8D1 DUP3 ADD MSTORE PUSH32 0x3264646472547A4C732B617A467A3370355856754D7955303030374A6F4A496B PUSH2 0x8F1 DUP3 ADD MSTORE PUSH32 0x306332484837383630676D5479446768704163636749706C57343266546C726A PUSH2 0x911 DUP3 ADD MSTORE PUSH32 0x4A484344467769376B4C616236384C306A374E715854684F62576B694A355567 PUSH2 0x931 DUP3 ADD MSTORE PUSH32 0x6873536B576347724E457331317556424A474535386B6635332B6433342F346F PUSH2 0x951 DUP3 ADD MSTORE PUSH32 0x4E306952356A7A54726E496D434548774D53424465364539734A6C496E31414C PUSH2 0x971 DUP3 ADD MSTORE PUSH32 0x36756C4D4B67626C6B46785834436F3568676F495258572F396B414155556E58 PUSH2 0x991 DUP3 ADD MSTORE PUSH32 0x5355453465436963484D7773423173703871384D7951427779784A6E6E327547 PUSH2 0x9B1 DUP3 ADD MSTORE PUSH32 0x466533336F5251686B75465269455A42695136535331625533534D4E486B4275 PUSH2 0x9D1 DUP3 ADD MSTORE PUSH32 0x724D5374594F5958745134486A763655585543722F775434754875492B703658 PUSH2 0x9F1 DUP3 ADD MSTORE PUSH32 0x44647367646273476E4836674A464D7873577933726572744B6B496A676F4856 PUSH2 0xA11 DUP3 ADD MSTORE PUSH32 0x59612F4C4741394A78577662316548365070305136506151554641576A353354 PUSH2 0xA31 DUP3 ADD MSTORE PUSH32 0x39767163517169332B4C31646C51514A74554A4D6C6B756635486C646D6A526B PUSH2 0xA51 DUP3 ADD MSTORE PUSH32 0x686B74524A4B57324262534E75774C41506E7031564D385862576E4253303379 PUSH2 0xA71 DUP3 ADD MSTORE PUSH32 0x5557724C58414C326844766566374B3547636D696D7775456B61657375483335 PUSH2 0xA91 DUP3 ADD MSTORE PUSH32 0x693438466B576B4A3174444E36653233546B457A5853717A7A6E747479707959 PUSH2 0xAB1 DUP3 ADD MSTORE PUSH32 0x5835773957626F73424F4F63304D36714744524F2F6F5A44737A6C392F697566 PUSH2 0xAD1 DUP3 ADD MSTORE PUSH32 0x66507057736C6A4F484246525567567A302F6E5553436B454E364F6D535A7272 PUSH2 0xAF1 DUP3 ADD MSTORE PUSH32 0x4F6A73613143452B7A725149306731496B766938304E3151545A766A6E6F456B PUSH2 0xB11 DUP3 ADD MSTORE PUSH32 0x57454B303165304A30674441684377334638384B616E4E694961364D6A33302B PUSH2 0xB31 DUP3 ADD MSTORE PUSH32 0x4C51577237743939686D4A6A61526A30536D756B386A37525242357938352F30 PUSH2 0xB51 DUP3 ADD MSTORE PUSH32 0x642B67504F39383936436439494F4E7554343344694966493143595753506C46 PUSH2 0xB71 DUP3 ADD MSTORE PUSH32 0x7A667479524E704748694E646D3176794A594E4C74552F52664B594F66487967 PUSH2 0xB91 DUP3 ADD MSTORE PUSH32 0x35337947564431465651675A6473366F734A5A626F4A33343270584C56454E78 PUSH2 0xBB1 DUP3 ADD MSTORE PUSH32 0x654F39706D5364646842714D30674663704A4168494433307162654A58337A7A PUSH2 0xBD1 DUP3 ADD MSTORE PUSH32 0x644E35596F46714B4D457954675463614B653536624C4C734E597477464E496D PUSH2 0xBF1 DUP3 ADD MSTORE PUSH32 0x3956624D506A783574754238795A334A7A79347565395A316C39344E59345763 PUSH2 0xC11 DUP3 ADD MSTORE PUSH32 0x337A653733337775555646644E30326E513050726556597368736F4B6D59684A PUSH2 0xC31 DUP3 ADD MSTORE PUSH32 0x3235322F66385A34415A59433774426534637A47635330543147776958565255 PUSH2 0xC51 DUP3 ADD MSTORE PUSH32 0x2F48645659325455774A2B382F6D2F367A346A6A397842485642425A3158414E PUSH2 0xC71 DUP3 ADD MSTORE PUSH32 0x7145445831655A42456F4658314A534779424A33326972514773714776365371 PUSH2 0xC91 DUP3 ADD MSTORE PUSH32 0x33374168526D34503950714E6A4C576F545A674E4D775132442B79764C4A6470 PUSH2 0xCB1 DUP3 ADD MSTORE PUSH32 0x4678774D337453544F6A65516471474F336E6E3333636E34356D775362514A45 PUSH2 0xCD1 DUP3 ADD MSTORE PUSH32 0x41416A4330414C49415162694B74576A6D306C7558474B4D4C675A5676776839 PUSH2 0xCF1 DUP3 ADD MSTORE PUSH32 0x4C6F454378377A567846536957336C676C78695244796672365A4E5874625661 PUSH2 0xD11 DUP3 ADD MSTORE PUSH32 0x6F79426238596B6539484D51582B4E484C632F4F63303773514E2F3977522F39 PUSH2 0xD31 DUP3 ADD MSTORE PUSH32 0x38587432744C686F77415567566973384572496B546641394D727A5A33553447 PUSH2 0xD51 DUP3 ADD MSTORE PUSH32 0x483333322B6130376E7330447A5873464B3565313766644C3156786662592B50 PUSH2 0xD71 DUP3 ADD MSTORE PUSH32 0x58677A5473347044354954587730723578536466595756566D44524652614564 PUSH2 0xD91 DUP3 ADD MSTORE PUSH32 0x38666F2F454D762F366E797A382F314F70355A67382B714F376C434944377078 PUSH2 0xDB1 DUP3 ADD MSTORE PUSH32 0x457A46353961552B58473050616C42576452574E6E47776F696A783967314347 PUSH2 0xDD1 DUP3 ADD MSTORE PUSH32 0x4F73345132415A3159334F39655144314F626D4A5959316A466830646F763254 PUSH2 0xDF1 DUP3 ADD MSTORE PUSH32 0x7335645031346B5A6239382F566B5A4269624568595650517243714453774B71 PUSH2 0xE11 DUP3 ADD MSTORE PUSH32 0x62446F4C784963513152464F44494B6F765965366A4D2B50614351593562354D PUSH2 0xE31 DUP3 ADD MSTORE PUSH32 0x73737379484F664A5972564B462B394E37576A594A6558753972625770793962 PUSH2 0xE51 DUP3 ADD MSTORE PUSH32 0x6B52484268717342395972354E4A587A39386559534A616E7439503366757554 PUSH2 0xE71 DUP3 ADD MSTORE PUSH32 0x6A31644D7776635A37377968466F3470736630756F586C6D4E51732B63643778 PUSH2 0xE91 DUP3 ADD MSTORE PUSH32 0x794865722F416A6C417975382B50574C4D426F4F6B37786454485135794C5743 PUSH2 0xEB1 DUP3 ADD MSTORE PUSH32 0x696E74464530742B743136754868336C38424B477436557663754E426D355777 PUSH2 0xED1 DUP3 ADD MSTORE PUSH32 0x79696F707874647A526D4F7346362F2F6E66346C2F56486E67383476647A7264 PUSH2 0xEF1 DUP3 ADD MSTORE PUSH32 0x62625576344B534F4163664A48626E5A687877474B557031564772454D595932 PUSH2 0xF11 DUP3 ADD MSTORE PUSH32 0x6F70767339585631553231576432533132306634414F5A7A4B68385436426258 PUSH2 0xF31 DUP3 ADD MSTORE PUSH32 0x4E4D7058586A74347A77796F62575A6C6550546B75734B75727A346364326464 PUSH2 0xF51 DUP3 ADD MSTORE PUSH32 0x6D73312F395876667677554E653058354B4E657067394D5149627247784D6766 PUSH2 0xF71 DUP3 ADD MSTORE PUSH32 0x77355A414C54304E342F45594E44317558486A722F70344D4F5A52765A49516C PUSH2 0xF91 DUP3 ADD MSTORE PUSH32 0x31576F327A564578335367626273366D7870654F5347726B654E43382F375750 PUSH2 0xFB1 DUP3 ADD MSTORE PUSH32 0x54733575356C557965764869646B425141517A78773848417170515856302F57 PUSH2 0xFD1 DUP3 ADD MSTORE PUSH32 0x5033553531466D43436E436B53686D62754B5155735762526A6E3339542F4356 PUSH2 0xFF1 DUP3 ADD MSTORE PUSH32 0x502B72387870375259434C32434C70696E2B31446759714D335774644C7A4B37 PUSH2 0x1011 DUP3 ADD MSTORE PUSH32 0x6F543173763778536B63567348366871572B2F74496A78702B77424578417867 PUSH2 0x1031 DUP3 ADD MSTORE PUSH32 0x52747755346B59657174303547634E684F4957734B43455949556E715578386D PUSH2 0x1051 DUP3 ADD MSTORE PUSH32 0x596E4C35354F36382F37797255783236615443556F4464343865335054677874 PUSH2 0x1071 DUP3 ADD MSTORE PUSH32 0x706B667A7957512B506836354943465052696872453776342F4E75507469657A PUSH2 0x1091 DUP3 ADD MSTORE PUSH32 0x6968463476544A7A476979326A736B454C7A4C796A6552343068656E76375157 PUSH2 0x10B1 DUP3 ADD MSTORE PUSH32 0x703938697561365738326E42584E36566B3366755834796F302F333337713945 PUSH2 0x10D1 DUP3 ADD MSTORE PUSH32 0x336837424261584A7644334A7054464F333979766A3349756979724641673338 PUSH2 0x10F1 DUP3 ADD MSTORE PUSH32 0x724775616B55623052516965684F45304777364F53694C4A7964575151555545 PUSH2 0x1111 DUP3 ADD MSTORE PUSH32 0x334B4C4A69514659795439304A394E324A4A62353876472B316C6A556D723946 PUSH2 0x1131 DUP3 ADD MSTORE PUSH32 0x54483866534C754C4D497568764A3546664F33463778436A6779325831554D77 PUSH2 0x1151 DUP3 ADD MSTORE PUSH32 0x5979432F614D3557636866643937354A32383676556178696854386E327A6679 PUSH2 0x1171 DUP3 ADD MSTORE PUSH32 0x67485077656E3465486679444B63437A6941444D457A584C7338756570747676 PUSH2 0x1191 DUP3 ADD MSTORE PUSH32 0x2F76627676634E44366F6D483565736E6A372B7A634D33304F4C6746396B4656 PUSH2 0x11B1 DUP3 ADD MSTORE PUSH32 0x6631437959676A68522F664434576D597A622F796A652B636363644D50526F6C PUSH2 0x11D1 DUP3 ADD MSTORE PUSH32 0x4F6F467743556F3467654643395A4A682F6458375A324F5742423839466F6377 PUSH2 0x11F1 DUP3 ADD MSTORE PUSH32 0x4447394C33383950767A616E30716D552F46336164566D52445265444850584F PUSH2 0x1211 DUP3 ADD MSTORE PUSH32 0x72687256395657766447375130796A4C6B6E7469514863466479574E6B676863 PUSH2 0x1231 DUP3 ADD MSTORE PUSH32 0x33683835574C3130326D307536374D5062746F45545153436A69347063385442 PUSH2 0x1251 DUP3 ADD MSTORE PUSH32 0x747A4D4770545744596131354E703447744163704C714E6E496A51706E4E6167 PUSH2 0x1271 DUP3 ADD MSTORE PUSH32 0x54436F786152376A336E6E395133614D3276546E6950732B4A44665262572F51 PUSH2 0x1291 DUP3 ADD MSTORE PUSH32 0x466E316876534F676F7978757271704471357A43323543446A5934322F503857 PUSH2 0x12B1 DUP3 ADD MSTORE PUSH32 0x2F705345427A6451533758333134642B756F7156583837623152744C646B4732 PUSH2 0x12D1 DUP3 ADD MSTORE PUSH32 0x4E2F2F4C62754E62752B75397563435538415A4939534D36553666784E353746 PUSH2 0x12F1 DUP3 ADD MSTORE PUSH32 0x714242574562306B6647697556782B646E7438677A7134757848423764504A78 PUSH2 0x1311 DUP3 ADD MSTORE PUSH32 0x6D7A66426333534E5278774273383561785745357657342B6D5062504370735A PUSH2 0x1331 DUP3 ADD MSTORE PUSH32 0x6B796C30314E4275726C6A4D42344C435565645273644547533671566C586C78 PUSH2 0x1351 DUP3 ADD MSTORE PUSH32 0x476B41634830736D586962614D4A525332685332554537684574706E70436278 PUSH2 0x1371 DUP3 ADD MSTORE PUSH32 0x68757341762B525651422B4172685965587A6836725250747831317257454769 PUSH2 0x1391 DUP3 ADD MSTORE PUSH32 0x2B3055534A556C6B374C465242497A7930692F6D4668307337444E365742334C PUSH2 0x13B1 DUP3 ADD MSTORE PUSH32 0x7866436B4C4E65445974724C54304B71304C74373466416947676A6C554B356C PUSH2 0x13D1 DUP3 ADD MSTORE PUSH32 0x724E50454C3871614B4A515752614D746C5A6137595843462B754454782F3272 PUSH2 0x13F1 DUP3 ADD MSTORE PUSH32 0x6F634E4842676E735043486F336B6873427831686E63372F41456B6B644F5941 PUSH2 0x1411 DUP3 ADD MSTORE PUSH32 0x414141414151414141414541516A4A6542557066447A7A314341734541414141 PUSH2 0x1431 DUP3 ADD MSTORE PUSH32 0x4141444A4E556F6741414141414E55727A4E662F35762F56417938432B774141 PUSH2 0x1451 DUP3 ADD MSTORE PUSH32 0x41416B414167414141414141414869635932426B594741702B4C6562515A355A PUSH2 0x1471 DUP3 ADD MSTORE PUSH32 0x2B76387A426842675A454146764142304D415266414141414158734141414637 PUSH2 0x1491 DUP3 ADD MSTORE PUSH32 0x414141437A2F2F6D416F494143514A4E2F2B77444777414A416F674143514B39 PUSH2 0x14B1 DUP3 ADD MSTORE PUSH32 0x2F2F45432B674146416F38414A414B5741416F435467414B416D344141414141 PUSH2 0x14D1 DUP3 ADD MSTORE PUSH32 0x41415941444145514164494334674F77424651452B675777426A774735676569 PUSH2 0x14F1 DUP3 ADD MSTORE PUSH32 0x434A52346E474E675A474267344758597A73444541414B4D594A4B4C4163686C PUSH2 0x1511 DUP3 ADD MSTORE PUSH32 0x544151784152596C41546341414869636C56484E61747441455037576356494B PUSH2 0x1531 DUP3 ADD MSTORE PUSH32 0x72656D7470616568703654452B7648524F67586241644845474B666B7269694C PUSH2 0x1551 DUP3 ADD MSTORE PUSH32 0x4C4B4A49597158592B4E496E7941766B4C666F4D506651682B686839676E3565 PUSH2 0x1571 DUP3 ADD MSTORE PUSH32 0x4C3847596C464974752F764E7A44666637497741764D4E504B47792F6948754C PUSH2 0x1591 DUP3 ADD MSTORE PUSH32 0x466632527778323877686548442F414A633465372B49445734554F3878615044 PUSH2 0x15B1 DUP3 ADD MSTORE PUSH32 0x523369504A3464372B497A767A464C64313753572B4F57776771695A77783330 PUSH2 0x15D1 DUP3 ADD MSTORE PUSH32 0x564F3377416362716D384E64424F714877346634714834376641537638386268 PUSH2 0x15F1 DUP3 ADD MSTORE PUSH32 0x4872353268714F7158707338573752796E4A37494941674475566E4C65565732 PUSH2 0x1611 DUP3 ADD MSTORE PUSH32 0x4D73354C6255346C4C6C4E507A6F70434C4B30526F7874746C7672576D326C7A PUSH2 0x1631 DUP3 ADD MSTORE PUSH32 0x6E3553617A4D764533476B7A31396C446B5A6A5143344977477366546566544D PUSH2 0x1651 DUP3 ADD MSTORE PUSH32 0x32424C366A7247664B4D352F725532545636565968622F6B4C7471324876722B PUSH2 0x1671 DUP3 ADD MSTORE PUSH32 0x617258796B6A704A46397172544F59586561724C526A662B52547961544B386D PUSH2 0x1691 DUP3 ADD MSTORE PUSH32 0x2F5945585949514B4E645977794A466877586B4C6A7048696850634141554A75 PUSH2 0x16B1 DUP3 ADD MSTORE PUSH32 0x7751305A676E4E79533873596B3131434D2B7555566B796377694D365138456C PUSH2 0x16D1 DUP3 ADD MSTORE PUSH32 0x4F32714E745454764458764A3835624D6D6258756B5669567265596C4C594D37 PUSH2 0x16F1 DUP3 ADD MSTORE PUSH32 0x47356E7A7A504241725930765A455A6733784B78636F77703439454C4772734B PUSH2 0x1711 DUP3 ADD MSTORE PUSH32 0x2F54324E66315755506636313954627359394F7A374C7A682F2B70755A744279 PUSH2 0x1731 DUP3 ADD MSTORE PUSH32 0x776B50345843753750455A7137705252546173694C324F30594C5855616A5A32 PUSH2 0x1751 DUP3 ADD MSTORE PUSH32 0x596A3475324F304945335A387862505050384A582F414863714B516241486963 PUSH2 0x1771 DUP3 ADD MSTORE PUSH32 0x5932426D4149502F6D786D4D475441424C774173746748327541482F68624145 PUSH2 0x1791 DUP3 ADD MSTORE PUSH22 0x3528A09E94903337B936B0BA14113BB7B33311149D9 PUSH1 0x55 SHL PUSH2 0x17B1 DUP3 ADD MSTORE PUSH19 0x666F6E742D7765696768743A6E6F726D616C3B PUSH1 0x68 SHL PUSH2 0x17C7 DUP3 ADD MSTORE PUSH19 0x666F6E742D7374796C653A6E6F726D616C3B7D PUSH1 0x68 SHL PUSH2 0x17DA DUP3 ADD MSTORE PUSH8 0x1E17B9BA3CB6329F PUSH1 0xC1 SHL PUSH2 0x17ED DUP3 ADD MSTORE PUSH7 0x1E17B232B3399F PUSH1 0xC9 SHL PUSH2 0x17F5 DUP3 ADD MSTORE PUSH2 0x17DC DUP2 MSTORE PUSH2 0x1800 DUP2 ADD SWAP2 DUP2 DUP4 LT PUSH8 0xFFFFFFFFFFFFFFFF DUP5 GT OR PUSH2 0x1DDC JUMPI DUP3 PUSH1 0x40 MSTORE DUP4 DUP4 MSTORE DUP2 MLOAD SWAP1 DUP2 PUSH2 0x1820 DUP5 ADD MSTORE DUP1 JUMPDEST DUP3 DUP2 LT PUSH2 0x1DC7 JUMPI POP DUP3 DUP3 ADD PUSH2 0x1840 ADD MSTORE PUSH1 0x1F ADD PUSH1 0x1F NOT AND DUP2 ADD SUB PUSH1 0x40 ADD SWAP2 POP RETURN JUMPDEST DUP1 DUP7 SWAP2 DUP6 ADD PUSH2 0x1840 DUP4 DUP3 ADD MLOAD SWAP2 ADD MSTORE ADD PUSH2 0x1DA6 JUMP JUMPDEST PUSH4 0x4E487B71 PUSH1 0xE0 SHL DUP2 MSTORE PUSH1 0x41 PUSH1 0x4 MSTORE PUSH1 0x24 SWAP1 REVERT JUMPDEST DUP1 REVERT INVALID LOG2 PUSH5 0x6970667358 0x22 SLT KECCAK256 PUSH25 0x594EF5CBF5B94133591B33A3E1A8CA1BE1FC23CF630E675CAE PUSH30 0x86EFE4AF2A64736F6C634300081000330000000000000000000000000000 "
        },
        "gasEstimates": {
          "creation": {
            "codeDepositCost": "1544200",
            "executionCost": "1627",
            "totalCost": "1545827"
          },
          "external": {
            "getPmFont()": "infinite"
          }
        },
        "methodIdentifiers": {
          "getPmFont()": "f17e8572"
        }
      },
      "storageLayout": {
        "storage": [],
        "types": null
      },
      "userdoc": {
        "kind": "user",
        "methods": {},
        "version": 1
      }
    }
  }
}