{
  "contracts/StakingPoolFactory.sol": {
    "StakingPoolFactory": {
      "abi": [
        {
          "inputs": [
            {
              "internalType": "address",
              "name": "depContAddress_",
              "type": "address"
            }
          ],
          "stateMutability": "nonpayable",
          "type": "constructor"
        },
        {
          "anonymous": false,
          "inputs": [
            {
              "indexed": true,
              "internalType": "address",
              "name": "owner",
              "type": "address"
            },
            {
              "indexed": true,
              "internalType": "address",
              "name": "approved",
              "type": "address"
            },
            {
              "indexed": true,
              "internalType": "uint256",
              "name": "tokenId",
              "type": "uint256"
            }
          ],
          "name": "Approval",
          "type": "event"
        },
        {
          "anonymous": false,
          "inputs": [
            {
              "indexed": true,
              "internalType": "address",
              "name": "owner",
              "type": "address"
            },
            {
              "indexed": true,
              "internalType": "address",
              "name": "operator",
              "type": "address"
            },
            {
              "indexed": false,
              "internalType": "bool",
              "name": "approved",
              "type": "bool"
            }
          ],
          "name": "ApprovalForAll",
          "type": "event"
        },
        {
          "anonymous": false,
          "inputs": [
            {
              "indexed": true,
              "internalType": "uint256",
              "name": "contractId",
              "type": "uint256"
            },
            {
              "indexed": true,
              "internalType": "address",
              "name": "contractAddress",
              "type": "address"
            },
            {
              "indexed": false,
              "internalType": "address",
              "name": "creator",
              "type": "address"
            },
            {
              "indexed": false,
              "internalType": "address",
              "name": "owner",
              "type": "address"
            },
            {
              "indexed": false,
              "internalType": "address",
              "name": "depositContractAddress",
              "type": "address"
            }
          ],
          "name": "Create",
          "type": "event"
        },
        {
          "anonymous": false,
          "inputs": [
            {
              "indexed": true,
              "internalType": "address",
              "name": "contractAddress",
              "type": "address"
            },
            {
              "indexed": false,
              "internalType": "address[]",
              "name": "owners",
              "type": "address[]"
            },
            {
              "indexed": true,
              "internalType": "uint256",
              "name": "signaturesRequired",
              "type": "uint256"
            }
          ],
          "name": "Owners",
          "type": "event"
        },
        {
          "anonymous": false,
          "inputs": [
            {
              "indexed": true,
              "internalType": "address",
              "name": "previousOwner",
              "type": "address"
            },
            {
              "indexed": true,
              "internalType": "address",
              "name": "newOwner",
              "type": "address"
            }
          ],
          "name": "OwnershipTransferred",
          "type": "event"
        },
        {
          "anonymous": false,
          "inputs": [
            {
              "indexed": true,
              "internalType": "address",
              "name": "from",
              "type": "address"
            },
            {
              "indexed": true,
              "internalType": "address",
              "name": "to",
              "type": "address"
            },
            {
              "indexed": true,
              "internalType": "uint256",
              "name": "tokenId",
              "type": "uint256"
            }
          ],
          "name": "Transfer",
          "type": "event"
        },
        {
          "inputs": [
            {
              "internalType": "address",
              "name": "to",
              "type": "address"
            },
            {
              "internalType": "uint256",
              "name": "tokenId",
              "type": "uint256"
            }
          ],
          "name": "approve",
          "outputs": [],
          "stateMutability": "nonpayable",
          "type": "function"
        },
        {
          "inputs": [
            {
              "internalType": "address",
              "name": "owner",
              "type": "address"
            }
          ],
          "name": "balanceOf",
          "outputs": [
            {
              "internalType": "uint256",
              "name": "",
              "type": "uint256"
            }
          ],
          "stateMutability": "view",
          "type": "function"
        },
        {
          "inputs": [
            {
              "internalType": "address",
              "name": "owner_",
              "type": "address"
            }
          ],
          "name": "create",
          "outputs": [
            {
              "internalType": "address",
              "name": "",
              "type": "address"
            },
            {
              "internalType": "uint256",
              "name": "",
              "type": "uint256"
            }
          ],
          "stateMutability": "nonpayable",
          "type": "function"
        },
        {
          "inputs": [
            {
              "internalType": "uint256",
              "name": "_id",
              "type": "uint256"
            }
          ],
          "name": "exists",
          "outputs": [
            {
              "internalType": "bool",
              "name": "",
              "type": "bool"
            }
          ],
          "stateMutability": "view",
          "type": "function"
        },
        {
          "inputs": [
            {
              "internalType": "uint256",
              "name": "tokenId",
              "type": "uint256"
            }
          ],
          "name": "getApproved",
          "outputs": [
            {
              "internalType": "address",
              "name": "",
              "type": "address"
            }
          ],
          "stateMutability": "view",
          "type": "function"
        },
        {
          "inputs": [
            {
              "internalType": "uint256",
              "name": "amountInWei",
              "type": "uint256"
            }
          ],
          "name": "getEthDecimalString",
          "outputs": [
            {
              "internalType": "string",
              "name": "",
              "type": "string"
            }
          ],
          "stateMutability": "pure",
          "type": "function"
        },
        {
          "inputs": [
            {
              "internalType": "uint256",
              "name": "_id",
              "type": "uint256"
            }
          ],
          "name": "getPoolById",
          "outputs": [
            {
              "internalType": "address",
              "name": "",
              "type": "address"
            }
          ],
          "stateMutability": "view",
          "type": "function"
        },
        {
          "inputs": [
            {
              "internalType": "uint256",
              "name": "_index",
              "type": "uint256"
            }
          ],
          "name": "getStakingPool",
          "outputs": [
            {
              "internalType": "address",
              "name": "stakingPoolAddress",
              "type": "address"
            },
            {
              "internalType": "uint256",
              "name": "balance",
              "type": "uint256"
            },
            {
              "internalType": "address",
              "name": "owner",
              "type": "address"
            }
          ],
          "stateMutability": "view",
          "type": "function"
        },
        {
          "inputs": [],
          "name": "incrementTokenId",
          "outputs": [
            {
              "internalType": "uint256",
              "name": "",
              "type": "uint256"
            }
          ],
          "stateMutability": "nonpayable",
          "type": "function"
        },
        {
          "inputs": [
            {
              "internalType": "address",
              "name": "owner",
              "type": "address"
            },
            {
              "internalType": "address",
              "name": "operator",
              "type": "address"
            }
          ],
          "name": "isApprovedForAll",
          "outputs": [
            {
              "internalType": "bool",
              "name": "",
              "type": "bool"
            }
          ],
          "stateMutability": "view",
          "type": "function"
        },
        {
          "inputs": [
            {
              "internalType": "address",
              "name": "userAddress",
              "type": "address"
            },
            {
              "internalType": "uint256",
              "name": "id",
              "type": "uint256"
            },
            {
              "internalType": "address",
              "name": "_pool",
              "type": "address"
            }
          ],
          "name": "mint",
          "outputs": [],
          "stateMutability": "nonpayable",
          "type": "function"
        },
        {
          "inputs": [],
          "name": "name",
          "outputs": [
            {
              "internalType": "string",
              "name": "",
              "type": "string"
            }
          ],
          "stateMutability": "view",
          "type": "function"
        },
        {
          "inputs": [],
          "name": "numberOfStakingPools",
          "outputs": [
            {
              "internalType": "uint256",
              "name": "",
              "type": "uint256"
            }
          ],
          "stateMutability": "view",
          "type": "function"
        },
        {
          "inputs": [],
          "name": "owner",
          "outputs": [
            {
              "internalType": "address",
              "name": "",
              "type": "address"
            }
          ],
          "stateMutability": "view",
          "type": "function"
        },
        {
          "inputs": [
            {
              "internalType": "uint256",
              "name": "tokenId",
              "type": "uint256"
            }
          ],
          "name": "ownerOf",
          "outputs": [
            {
              "internalType": "address",
              "name": "",
              "type": "address"
            }
          ],
          "stateMutability": "view",
          "type": "function"
        },
        {
          "inputs": [
            {
              "internalType": "uint256",
              "name": "id",
              "type": "uint256"
            }
          ],
          "name": "renderTokenById",
          "outputs": [
            {
              "internalType": "string",
              "name": "",
              "type": "string"
            }
          ],
          "stateMutability": "view",
          "type": "function"
        },
        {
          "inputs": [],
          "name": "renounceOwnership",
          "outputs": [],
          "stateMutability": "nonpayable",
          "type": "function"
        },
        {
          "inputs": [
            {
              "internalType": "address",
              "name": "from",
              "type": "address"
            },
            {
              "internalType": "address",
              "name": "to",
              "type": "address"
            },
            {
              "internalType": "uint256",
              "name": "tokenId",
              "type": "uint256"
            }
          ],
          "name": "safeTransferFrom",
          "outputs": [],
          "stateMutability": "nonpayable",
          "type": "function"
        },
        {
          "inputs": [
            {
              "internalType": "address",
              "name": "from",
              "type": "address"
            },
            {
              "internalType": "address",
              "name": "to",
              "type": "address"
            },
            {
              "internalType": "uint256",
              "name": "tokenId",
              "type": "uint256"
            },
            {
              "internalType": "bytes",
              "name": "_data",
              "type": "bytes"
            }
          ],
          "name": "safeTransferFrom",
          "outputs": [],
          "stateMutability": "nonpayable",
          "type": "function"
        },
        {
          "inputs": [
            {
              "internalType": "address",
              "name": "operator",
              "type": "address"
            },
            {
              "internalType": "bool",
              "name": "approved",
              "type": "bool"
            }
          ],
          "name": "setApprovalForAll",
          "outputs": [],
          "stateMutability": "nonpayable",
          "type": "function"
        },
        {
          "inputs": [
            {
              "internalType": "uint256",
              "name": "",
              "type": "uint256"
            }
          ],
          "name": "stakingPools",
          "outputs": [
            {
              "internalType": "contract StakingPool",
              "name": "",
              "type": "address"
            }
          ],
          "stateMutability": "view",
          "type": "function"
        },
        {
          "inputs": [
            {
              "internalType": "bytes4",
              "name": "interfaceId",
              "type": "bytes4"
            }
          ],
          "name": "supportsInterface",
          "outputs": [
            {
              "internalType": "bool",
              "name": "",
              "type": "bool"
            }
          ],
          "stateMutability": "view",
          "type": "function"
        },
        {
          "inputs": [],
          "name": "symbol",
          "outputs": [
            {
              "internalType": "string",
              "name": "",
              "type": "string"
            }
          ],
          "stateMutability": "view",
          "type": "function"
        },
        {
          "inputs": [
            {
              "internalType": "uint256",
              "name": "index",
              "type": "uint256"
            }
          ],
          "name": "tokenByIndex",
          "outputs": [
            {
              "internalType": "uint256",
              "name": "",
              "type": "uint256"
            }
          ],
          "stateMutability": "view",
          "type": "function"
        },
        {
          "inputs": [
            {
              "internalType": "address",
              "name": "owner",
              "type": "address"
            },
            {
              "internalType": "uint256",
              "name": "index",
              "type": "uint256"
            }
          ],
          "name": "tokenOfOwnerByIndex",
          "outputs": [
            {
              "internalType": "uint256",
              "name": "",
              "type": "uint256"
            }
          ],
          "stateMutability": "view",
          "type": "function"
        },
        {
          "inputs": [
            {
              "internalType": "uint256",
              "name": "id",
              "type": "uint256"
            }
          ],
          "name": "tokenURI",
          "outputs": [
            {
              "internalType": "string",
              "name": "",
              "type": "string"
            }
          ],
          "stateMutability": "view",
          "type": "function"
        },
        {
          "inputs": [],
          "name": "totalSupply",
          "outputs": [
            {
              "internalType": "uint256",
              "name": "",
              "type": "uint256"
            }
          ],
          "stateMutability": "view",
          "type": "function"
        },
        {
          "inputs": [
            {
              "internalType": "address",
              "name": "from",
              "type": "address"
            },
            {
              "internalType": "address",
              "name": "to",
              "type": "address"
            },
            {
              "internalType": "uint256",
              "name": "tokenId",
              "type": "uint256"
            }
          ],
          "name": "transferFrom",
          "outputs": [],
          "stateMutability": "nonpayable",
          "type": "function"
        },
        {
          "inputs": [
            {
              "internalType": "address",
              "name": "newOwner",
              "type": "address"
            }
          ],
          "name": "transferOwnership",
          "outputs": [],
          "stateMutability": "nonpayable",
          "type": "function"
        }
      ],
      "devdoc": {
        "kind": "dev",
        "methods": {
          "approve(address,uint256)": {
            "details": "See {IERC721-approve}."
          },
          "balanceOf(address)": {
            "details": "See {IERC721-balanceOf}."
          },
          "getApproved(uint256)": {
            "details": "See {IERC721-getApproved}."
          },
          "isApprovedForAll(address,address)": {
            "details": "See {IERC721-isApprovedForAll}."
          },
          "name()": {
            "details": "See {IERC721Metadata-name}."
          },
          "owner()": {
            "details": "Returns the address of the current owner."
          },
          "ownerOf(uint256)": {
            "details": "See {IERC721-ownerOf}."
          },
          "renounceOwnership()": {
            "details": "Leaves the contract without owner. It will not be possible to call `onlyOwner` functions anymore. Can only be called by the current owner. NOTE: Renouncing ownership will leave the contract without an owner, thereby removing any functionality that is only available to the owner."
          },
          "safeTransferFrom(address,address,uint256)": {
            "details": "See {IERC721-safeTransferFrom}."
          },
          "safeTransferFrom(address,address,uint256,bytes)": {
            "details": "See {IERC721-safeTransferFrom}."
          },
          "setApprovalForAll(address,bool)": {
            "details": "See {IERC721-setApprovalForAll}."
          },
          "supportsInterface(bytes4)": {
            "details": "See {IERC165-supportsInterface}."
          },
          "symbol()": {
            "details": "See {IERC721Metadata-symbol}."
          },
          "tokenByIndex(uint256)": {
            "details": "See {IERC721Enumerable-tokenByIndex}."
          },
          "tokenOfOwnerByIndex(address,uint256)": {
            "details": "See {IERC721Enumerable-tokenOfOwnerByIndex}."
          },
          "totalSupply()": {
            "details": "See {IERC721Enumerable-totalSupply}."
          },
          "transferFrom(address,address,uint256)": {
            "details": "See {IERC721-transferFrom}."
          },
          "transferOwnership(address)": {
            "details": "Transfers ownership of the contract to a new account (`newOwner`). Can only be called by the current owner."
          }
        },
        "version": 1
      },
      "evm": {
        "bytecode": {
          "linkReferences": {},
          "object": "608034620003a957601f906001600160401b0390601f199062005cf93881900385810184168301858111848210176200039357839282916040528339602092839181010312620003a957516001600160a01b03948582169491859003620003a9576200006a620003ae565b9260128452717374616b696e6720636f6e20616d69676f7360701b8185015262000093620003ae565b9060058252644652454e5360d81b8183015284519584871162000393576000968754966001978881811c9116801562000388575b85821014620003745790818784931162000321575b508490878311600114620002c0578a92620002b4575b5050600019600383901b1c191690871b1787555b8251948511620002a05785548681811c9116801562000295575b83821014620002815790818587969594931162000228575b5081938511600114620001c35750508592620001b7575b5050600019600383901b1c191690821b1790555b600a5460018060a01b0319913383831617600a557f8be0079c531659141344cd1fd0a4f28419497f9722a3daafe3b4186f6b6457e0604051953393169186a3600f541617600f5561592a9081620003cf8239f35b0151905038806200014f565b869593929193168588528388209388905b8282106200020e5750508411620001f4575b505050811b01905562000163565b015160001960f88460031b161c19169055388080620001e6565b8484015186558897909501949384019390810190620001d4565b9091929394508688528288208580880160051c82019285891062000277575b9188978a9297969594930160051c01915b8281106200026857505062000138565b8a815588975089910162000258565b9250819262000247565b634e487b7160e01b88526022600452602488fd5b90607f169062000120565b634e487b7160e01b87526041600452602487fd5b015190503880620000f2565b90848a9416918b8052868c20928c5b888282106200030a5750508411620002f0575b505050811b01875562000106565b015160001960f88460031b161c19169055388080620002e2565b8385015186558d97909501949384019301620002cf565b909150898052848a208780850160051c8201928786106200036a575b918b91869594930160051c01915b8281106200035b575050620000dc565b8c81558594508b91016200034b565b925081926200033d565b634e487b7160e01b8a52602260045260248afd5b90607f1690620000c7565b634e487b7160e01b600052604160045260246000fd5b600080fd5b60408051919082016001600160401b03811183821017620003935760405256fe6080604052600436101562000014575b600080fd5b60003560e01c806301ffc9a714620002ad57806306fdde0314620002a2578063081812fc1462000297578063095ea7b3146200028c5780630bc59b3814620002815780630d4d1513146200027657806318160ddd146200026b57806323b872dd14620002605780632f745c59146200025557806342842e0e146200024a5780634f3130fa146200023f5780634f558e7914620002345780634f6ccce714620002295780635aad6cf0146200021e5780636202d39614620002135780636352211e146200020857806370a0823114620001fd578063715018a614620001f25780638da5cb5b14620001e757806395d89b4114620001dc5780639ed9331814620001d1578063a22cb46514620001c6578063a2b44d7514620001bb578063a2d6c6da14620001b0578063b88d4fde14620001a5578063c87b56dd146200019a578063e985e9c5146200018f578063edd148a214620001845763f2fde38b146200017a57600080fd5b6200000f620017dc565b506200000f620017b7565b506200000f62001747565b506200000f62001271565b506200000f620011d0565b506200000f620010ec565b506200000f62000fe1565b506200000f62000ee8565b506200000f62000d49565b506200000f62000c78565b506200000f62000c4c565b506200000f62000be3565b506200000f62000bad565b506200000f62000b8a565b506200000f62000b69565b506200000f62000b0a565b506200000f62000a44565b506200000f62000a06565b506200000f620009c0565b506200000f6200096f565b506200000f620008b0565b506200000f6200087d565b506200000f6200082b565b506200000f6200066b565b506200000f62000634565b506200000f62000531565b506200000f620004ea565b506200000f620003cc565b506200000f620002cb565b6001600160e01b03198116036200000f57565b50346200000f5760203660031901126200000f576020600435620002ef81620002b8565b63ffffffff60e01b1663780e9d6360e01b811490811562000316575b506040519015158152f35b6380ac58cd60e01b8114915081156200034c575b81156200033a575b50386200030b565b6301ffc9a760e01b1490503862000332565b635b5e139f60e01b811491506200032a565b60009103126200000f57565b60005b8381106200037e5750506000910152565b81810151838201526020016200036d565b90602091620003aa815180928185528580860191016200036a565b601f01601f1916010190565b906020620003c99281815201906200038f565b90565b50346200000f57600080600319360112620004e757604051908080549060019180831c92808216928315620004dc575b6020928386108514620004c8578588526020880194908115620004a4575060011462000447575b620004438762000436818903826200117e565b60405191829182620003b6565b0390f35b6000805294509192917f290decd9548b62a8d60345a988386fc84ba6bc95484008f6362f93160ef3e5635b838610620004925750505091019050620004368262000443388062000423565b80548587015294820194810162000472565b60ff191685525050505090151560051b019050620004368262000443388062000423565b634e487b7160e01b82526022600452602482fd5b93607f1693620003fc565b80fd5b50346200000f5760203660031901126200000f5760206200050d60043562001a81565b6040516001600160a01b039091168152f35b6001600160a01b038116036200000f57565b50346200000f5760403660031901126200000f5760043562000553816200051f565b602435620005618162001995565b916001600160a01b038084169082168114620005e5576200059993620005939133149081156200059b575b5062001a0e565b62001f77565b005b6001600160a01b03166000908152600560205260409020620005de9150620005d79033905b9060018060a01b0316600052602052604060002090565b5460ff1690565b386200058c565b60405162461bcd60e51b815260206004820152602160248201527f4552433732313a20617070726f76616c20746f2063757272656e74206f776e656044820152603960f91b6064820152608490fd5b50346200000f5760203660031901126200000f57600435600052600d602052602060018060a01b0360406000205416604051908152f35b50346200000f5760603660031901126200000f576004356200068d816200051f565b6024359060443590620006a0826200051f565b600092338452600c60205260409260ff8486205416156200082757818552600d60205283852080546001600160a01b0319166001600160a01b03909216919091179055825191620006f18362001161565b8483526001600160a01b0381168015620007e45791620007e1939181620007db94620007446200073e6200073a84600052600260205260018060a01b0360406000205416151590565b1590565b620025b7565b620007508284620021aa565b6001600160a01b038316600090815260036020526040902062000774815462001dba565b9055620007af8362000790846000526002602052604060002090565b80546001600160a01b0319166001600160a01b03909216919091179055565b887fddf252ad1be2c89b69c2b068fc378daa952ba7f163c4a11628f55a4df523b3ef818a51a462002099565b62001c14565b51f35b6064855162461bcd60e51b815260206004820152602060248201527f4552433732313a206d696e7420746f20746865207a65726f20616464726573736044820152fd5b8480fd5b50346200000f5760003660031901126200000f576020600854604051908152f35b60609060031901126200000f5760043562000867816200051f565b9060243562000876816200051f565b9060443590565b50346200000f576200059962000893366200084c565b91620008aa620008a4843362001c3b565b62001b14565b62001de7565b50346200000f5760403660031901126200000f57600435620008d2816200051f565b60243590620008e1816200191c565b82101562000916576001600160a01b031660009081526006602090815260408083209383529281529082902054915191825290f35b60405162461bcd60e51b815260206004820152602b60248201527f455243373231456e756d657261626c653a206f776e657220696e646578206f7560448201526a74206f6620626f756e647360a81b6064820152608490fd5b50346200000f576200059962000985366200084c565b90604051926020840184811067ffffffffffffffff821117620009b0575b6040526000845262001b90565b620009ba62001126565b620009a3565b50346200000f57600080600319360112620004e757338152600c60205260ff60408220541615620004e7576020620009fa600e5462002598565b80600e55604051908152f35b50346200000f5760203660031901126200000f576004356000908152600260209081526040909120546001600160a01b031615156040519015158152f35b50346200000f5760203660031901126200000f5760043560085481101562000a995760086000527ff3f7a9fe364faab93b216da50a3214154f22a0a2b415b23a84c8169e8b636ee30154604051908152602090f35b60405162461bcd60e51b815260206004820152602c60248201527f455243373231456e756d657261626c653a20676c6f62616c20696e646578206f60448201526b7574206f6620626f756e647360a01b6064820152608490fd5b50634e487b7160e01b600052603260045260246000fd5b50346200000f5760203660031901126200000f57600435600b548110156200000f57600b6000527f0175b7a638427703f0dbe7bb9bbf987a2551717b34e79f33b5b1008d1fa01db901546040516001600160a01b039091168152602090f35b50346200000f5760003660031901126200000f576020600b54604051908152f35b50346200000f5760203660031901126200000f5760206200050d60043562001995565b50346200000f5760203660031901126200000f57602062000bdb60043562000bd5816200051f565b6200191c565b604051908152f35b50346200000f57600080600319360112620004e757600a546001600160a01b0381169062000c1333831462001880565b6001600160a01b031916600a556040519082907f8be0079c531659141344cd1fd0a4f28419497f9722a3daafe3b4186f6b6457e08284a3f35b50346200000f5760003660031901126200000f57600a546040516001600160a01b039091168152602090f35b50346200000f57600080600319360112620004e7576040519080600190815480831c9280821692831562000d3e575b6020928386108514620004c8578588526020880194908115620004a4575060011462000ce057620004438762000436818903826200117e565b600160005294509192917fb10e2d527612073b26eecdfd717e6a320cf44b4afac2b0732d9fcbe2b7fa0cf65b83861062000d2c5750505091019050620004368262000443388062000423565b80548587015294820194810162000d0c565b93607f169362000ca7565b50346200000f5760203660031901126200000f5760043562000d6b816200051f565b600b54600f5490919062000dcb906001600160a01b0316604051918291846111cf918285019285841067ffffffffffffffff85111762000ed8575b6200470686396001600160a01b03908116835216602082015230604082015260600190565b03906000f0801562000ec8575b62000de381620024f8565b6001600160a01b03166000818152600c60205260409020805460ff1916600117905590813b156200000f57827f18cc83251b20febb5b0c01f457a3e15b6e2eb22f48b01a0b9e5a24012cc2f6928392604051636620a93560e01b815260008160048183895af1801562000eb8575b62000e9a575b50600f54604080513381526001600160a01b0393841660208201529290911690820152606090a3604080516001600160a01b039290921682526020820192909252f35b8062000eaa62000eb1926200113d565b806200035e565b3862000e57565b62000ec262002057565b62000e51565b62000ed262002057565b62000dd8565b62000ee262001126565b62000da6565b50346200000f5760403660031901126200000f5760043562000f0a816200051f565b60243580151581036200000f576001600160a01b0382169133831462000f9c578162000f5962000f6a9233600052600560205260406000209060018060a01b0316600052602052604060002090565b9060ff801983541691151516179055565b604051901515815233907f17307eab39ab6107e8899845ad3d59bd9653f200f220920489ca2b5937696c3190602090a3005b60405162461bcd60e51b815260206004820152601960248201527f4552433732313a20617070726f766520746f2063616c6c6572000000000000006044820152606490fd5b50346200000f5760203660031901126200000f576200103c600435600b54811015620010dc575b600b6000527f0175b7a638427703f0dbe7bb9bbf987a2551717b34e79f33b5b1008d1fa01db901546001600160a01b031690565b80319062000443604051638da5cb5b60e01b8152602081600481865afa908115620010cc575b60009162001097575b50604080516001600160a01b039485168152602081019590955292169183019190915281906060820190565b620010bd915060203d8111620010c4575b620010b481836200117e565b81019062002580565b386200106b565b503d620010a8565b620010d662002057565b62001062565b620010e662000af3565b62001008565b50346200000f5760203660031901126200000f57620004436200111160043562002c8d565b6040519182916020835260208301906200038f565b50634e487b7160e01b600052604160045260246000fd5b67ffffffffffffffff81116200115257604052565b6200115c62001126565b604052565b6020810190811067ffffffffffffffff8211176200115257604052565b90601f8019910116810190811067ffffffffffffffff8211176200115257604052565b60209067ffffffffffffffff8111620011c0575b601f01601f19160190565b620011ca62001126565b620011b5565b50346200000f5760803660031901126200000f57600435620011f2816200051f565b60243562001200816200051f565b6064359167ffffffffffffffff83116200000f57366023840112156200000f578260040135916200123183620011a1565b926200124160405194856200117e565b80845236602482870101116200000f57602081600092602462000599980183880137850101526044359162001b90565b50346200000f576020806003193601126200000f57600435600081815260026020526040902054620012ae906001600160a01b0316151562002739565b6000818152600d602052604090206001600160a01b0390620012d8905b546001600160a01b031690565b166040916200132083516343fc559360e11b81528581806200130286600483019190602083019252565b0381875afa90811562001737575b6000916200171c575b5062002655565b83516333c7180560e11b8152600481018390529092906200135b908681602481865afa9081156200170c575b600091620016d8575062002655565b906200136790620029a9565b9162001373816200285b565b91855180938882016200139e90601190706672656e20706f6f6c207368617265202360781b81520190565b620013a99162002604565b0394601f19958681018552620013c090856200117e565b86519485898101620013f690601b907f74686973206672656e206861732061206465706f736974206f6620000000000081520190565b62001402908462002604565b6c01022ba341034b7103837b7b61609d1b8152600d0162001424908362002604565b7f207769746820636c61696d61626c652062616c616e6365206f662000000000008152601b0162001456908562002604565b630408ae8d60e31b81526004010387810187526200147590876200117e565b620014808462002beb565b6200148b9062002af0565b9362001497906200285b565b8851683d913730b6b2911d1160b91b8b8201908152909788979091600901620014c09162002604565b71111610113232b9b1b934b83a34b7b7111d1160711b8152601201620014e69162002604565b7f222c202265787465726e616c5f75726c223a2268747470733a2f2f6672656e7381526a2e66756e2f746f6b656e2f60a81b6020820152602b016200152b9162002604565b7f222c202261747472696275746573223a205b7b2274726169745f74797065223a81527110113837b7b6111610113b30b63ab2911d1160711b6020820152603201620015779162002604565b7f227d2c7b2274726169745f74797065223a20226465706f736974222c20227661815266363ab2911d101160c91b6020820152602701620015b89162002604565b630408ae8d60e31b81526004017f227d2c7b2274726169745f74797065223a2022636c61696d61626c65222c20228152683b30b63ab2911d101160b91b6020820152602901620016089162002604565b721022ba34113eae96101134b6b0b3b2911d101160691b81526013017f646174613a696d6167652f7376672b786d6c3b6261736536342c0000000000008152601a01620016559162002604565b61227d60f01b81526002010382810182526200167290826200117e565b6200167d9062002af0565b82517f646174613a6170706c69636174696f6e2f6a736f6e3b6261736536342c00000094810194855293849190601d01620016b89162002604565b039081018352620016ca90836200117e565b5162000443819282620003b6565b620016fd9150873d891162001704575b620016f481836200117e565b81019062002772565b3862001319565b503d620016e8565b6200171662002057565b6200134c565b620016fd9150863d88116200170457620016f481836200117e565b6200174162002057565b62001310565b50346200000f5760403660031901126200000f57602060ff620017ab60043562001771816200051f565b6024359062001780826200051f565b60018060a01b03166000526005845260406000209060018060a01b0316600052602052604060002090565b54166040519015158152f35b50346200000f5760203660031901126200000f57620004436200111160043562002655565b50346200000f5760203660031901126200000f57600435620017fe816200051f565b600a546001600160a01b039062001819908216331462001880565b8116156200182c576200059990620018cc565b60405162461bcd60e51b815260206004820152602660248201527f4f776e61626c653a206e6577206f776e657220697320746865207a65726f206160448201526564647265737360d01b6064820152608490fd5b156200188857565b606460405162461bcd60e51b815260206004820152602060248201527f4f776e61626c653a2063616c6c6572206973206e6f7420746865206f776e65726044820152fd5b600a549060018060a01b0380911691826bffffffffffffffffffffffff60a01b821617600a55167f8be0079c531659141344cd1fd0a4f28419497f9722a3daafe3b4186f6b6457e06000604051a3565b6001600160a01b031680156200193d57600052600360205260406000205490565b60405162461bcd60e51b815260206004820152602a60248201527f4552433732313a2062616c616e636520717565727920666f7220746865207a65604482015269726f206164647265737360b01b6064820152608490fd5b6000908152600260205260409020546001600160a01b03168015620019b75790565b60405162461bcd60e51b815260206004820152602960248201527f4552433732313a206f776e657220717565727920666f72206e6f6e657869737460448201526832b73a103a37b5b2b760b91b6064820152608490fd5b1562001a1657565b60405162461bcd60e51b815260206004820152603860248201527f4552433732313a20617070726f76652063616c6c6572206973206e6f74206f7760448201527f6e6572206e6f7220617070726f76656420666f7220616c6c00000000000000006064820152608490fd5b6000818152600260205260409020546001600160a01b03161562001aba576000908152600460205260409020546001600160a01b031690565b60405162461bcd60e51b815260206004820152602c60248201527f4552433732313a20617070726f76656420717565727920666f72206e6f6e657860448201526b34b9ba32b73a103a37b5b2b760a11b6064820152608490fd5b1562001b1c57565b60405162461bcd60e51b815260206004820152603160248201527f4552433732313a207472616e736665722063616c6c6572206973206e6f74206f6044820152701ddb995c881b9bdc88185c1c1c9bdd9959607a1b6064820152608490fd5b6040519062001b8a8262001161565b60008252565b9162001bbf9391620007db9362001bac620008a4843362001c3b565b62001bb983838362001de7565b6200216b565b565b60809060208152603260208201527f4552433732313a207472616e7366657220746f206e6f6e20455243373231526560408201527131b2b4bb32b91034b6b83632b6b2b73a32b960711b60608201520190565b1562001c1c57565b60405162461bcd60e51b81528062001c376004820162001bc1565b0390fd5b6000828152600260205260409020546001600160a01b03161562001cd65762001c648262001995565b6001600160a01b03828116828216811494909190851562001cbb575b505050821562001c8f57505090565b6001600160a01b0316600090815260056020526040902060ff925062001cb69190620005c0565b541690565b62001cca919293955062001a81565b16149138808062001c80565b60405162461bcd60e51b815260206004820152602c60248201527f4552433732313a206f70657261746f7220717565727920666f72206e6f6e657860448201526b34b9ba32b73a103a37b5b2b760a11b6064820152608490fd5b1562001d3857565b60405162461bcd60e51b8152602060048201526024808201527f4552433732313a207472616e7366657220746f20746865207a65726f206164646044820152637265737360e01b6064820152608490fd5b50634e487b7160e01b600052601160045260246000fd5b60001981019190821162001db057565b62001bbf62001d89565b906001820180921162001db057565b906002820180921162001db057565b906020820180921162001db057565b9062001df38362001995565b6001600160a01b03838116929091821683900362001ec85762001e5662001e9f9282169462001e2486151562001d30565b62001e31878483620021dc565b62001e3c8762001f1f565b6001600160a01b0316600090815260036020526040902090565b62001e62815462001da0565b90556001600160a01b038116600090815260036020526040902062001e88815462001dba565b905562000790856000526002602052604060002090565b7fddf252ad1be2c89b69c2b068fc378daa952ba7f163c4a11628f55a4df523b3ef6000604051a4565b60405162461bcd60e51b815260206004820152602960248201527f4552433732313a207472616e73666572206f6620746f6b656e2074686174206960448201526839903737ba1037bbb760b91b6064820152608490fd5b600081815260046020526040812080546001600160a01b03191690556001600160a01b0362001f4e8362001995565b167f8c5be1e5ebec7d5bd14f71427d1e84f3dd0314c0f7b2291e5b200ac8c7c3b92582604051a4565b600082815260046020526040902080546001600160a01b0319166001600160a01b0383161790556001600160a01b038062001fb28462001995565b169116907f8c5be1e5ebec7d5bd14f71427d1e84f3dd0314c0f7b2291e5b200ac8c7c3b9256000604051a4565b908160209103126200000f5751620003c981620002b8565b620003c9939260809260018060a01b0316825260006020830152604082015281606082015201906200038f565b6001600160a01b039182168152911660208201526040810191909152608060608201819052620003c9929101906200038f565b506040513d6000823e3d90fd5b3d1562002094573d906200207882620011a1565b916200208860405193846200117e565b82523d6000602084013e565b606090565b909190803b156200216357620020ce602091600093604051948580948193630a85bd0160e11b998a8452336004850162001ff7565b03926001600160a01b03165af1600091816200212c575b506200211e57620020f562002064565b80519081620021195760405162461bcd60e51b81528062001c376004820162001bc1565b602001fd5b6001600160e01b0319161490565b6200215391925060203d81116200215b575b6200214a81836200117e565b81019062001fdf565b9038620020e5565b503d6200213e565b505050600190565b92909190823b15620021a157620020ce926020926000604051809681958294630a85bd0160e11b9a8b8552336004860162002024565b50505050600190565b90620021b68162002353565b6001600160a01b038216620021d15762001bbf9150620023cf565b62001bbf9162002319565b9091906001600160a01b0380821691826200221d5750620021fd8362002353565b8316806200221357505062001bbf9150620023cf565b03620021d1575050565b81851683036200222f575b50620021fd565b620022aa6200223e826200191c565b600019810190811162002309575b6200229b60009387855260076020526040852054838103620022b2575b508462002280896000526007602052604060002090565b556001600160a01b0316600090815260066020526040902090565b90600052602052604060002090565b553862002228565b87865260066020526040862084875260205262002301604087205480620022f0846200229b8760018060a01b03166000526006602052604060002090565b556000526007602052604060002090565b553862002269565b6200231362001d89565b6200224c565b60409062002327816200191c565b9260009160018060a01b0316825260066020528282208483526020528083832055815260076020522055565b60085481600052600960205280604060002055600160401b811015620023bf575b6001810180600855811015620023af575b60086000527ff3f7a9fe364faab93b216da50a3214154f22a0a2b415b23a84c8169e8b636ee30155565b620023b962000af3565b62002385565b620023c962001126565b62002374565b600880546000199290838101818111620024e8575b6200248460009384928184526009602052846040852054911015620024d8575b868452620024737ff3f7a9fe364faab93b216da50a3214154f22a0a2b415b23a84c8169e8b636ee2958681015490831015620024c8575b88865280837ff3f7a9fe364faab93b216da50a3214154f22a0a2b415b23a84c8169e8b636ee301556000526009602052604060002090565b556000526009602052604060002090565b558254938415620024b45784019380851015620024a4575b838352015555565b620024ae62000af3565b6200249c565b634e487b7160e01b83526031600452602483fd5b620024d262000af3565b6200243b565b620024e262000af3565b62002404565b620024f262001d89565b620023e4565b600b54600160401b81101562002570575b6001810180600b5581101562002560575b600b6000527f0175b7a638427703f0dbe7bb9bbf987a2551717b34e79f33b5b1008d1fa01db90180546001600160a01b0319166001600160a01b03909216919091179055565b6200256a62000af3565b6200251a565b6200257a62001126565b62002509565b908160209103126200000f5751620003c9816200051f565b6001906000198114620025a9570190565b620025b362001d89565b0190565b15620025bf57565b60405162461bcd60e51b815260206004820152601c60248201527f4552433732313a20746f6b656e20616c7265616479206d696e746564000000006044820152606490fd5b90620025b3602092828151948592016200036a565b9062001bbf60216040518094600360fc1b60208301526200264481518092602086860191016200036a565b81010360018101855201836200117e565b655af3107a4000670de0b6b3a76400006200267281840462004629565b92060490620026818262004629565b916103e8811062002726575b606481106200270f575b600a11620026f3575b6021620003c9916040519381620026c28693518092602080870191016200036a565b8201601760f91b6020820152620026e382518093602087850191016200036a565b010360018101845201826200117e565b90602162002705620003c99262002619565b92915050620026a0565b916200271d600a9162002619565b92905062002697565b91620027329062002619565b916200268d565b156200274157565b60405162461bcd60e51b81526020600482015260096024820152681b9bdd08195e1a5cdd60ba1b6044820152606490fd5b908160209103126200000f575190565b604051906040820182811067ffffffffffffffff821117620027b2575b60405260018252600360fc1b6020830152565b620027bc62001126565b6200279f565b604051906060820182811067ffffffffffffffff821117620027f1575b604052602a8252604082602036910137565b620027fb62001126565b620027df565b906200280d82620011a1565b6200281c60405191826200117e565b82815280926200282f601f1991620011a1565b0190602036910137565b9060209180518210156200284c57010190565b6200285662000af3565b010190565b80156200290a576000818181805b620028ef57506200287a8162002801565b935b620028875750505090565b6000198101908111620028df575b8091600a91620028c560308484068101809111620028cf575b60f81b6001600160f81b031916861a918762002839565b530490816200287c565b620028d962001d89565b620028ae565b620028e962001d89565b62002895565b9150620028fe600a9162002598565b91048084929162002869565b50620003c962002782565b6001600160fe1b0381116001166200292e575b60021b90565b6200293862001d89565b62002928565b80156200294d575b6000190190565b6200295762001d89565b62002946565b156200296557565b606460405162461bcd60e51b815260206004820152602060248201527f537472696e67733a20686578206c656e67746820696e73756666696369656e746044820152fd5b620029b3620027c2565b9081511562002a5e575b60306020830153815160019081101562002a4e575b90607860218401536029915b808311620029f45750620003c99150156200295d565b9080600f62002a369216601081101562002a3e575b6f181899199a1a9b1b9c1cb0b131b232b360811b901a62002a2b858762002839565b5360041c926200293e565b9190620029de565b62002a4862000af3565b62002a09565b62002a5862000af3565b620029d2565b62002a6862000af3565b620029bd565b604051906060820182811067ffffffffffffffff82111762002ae0575b604052604082527f6768696a6b6c6d6e6f707172737475767778797a303132333435363738392b2f6040837f4142434445464748494a4b4c4d4e4f505152535455565758595a61626364656660208201520152565b62002aea62001126565b62002a8b565b80511562002be05762002b0262002a6e565b62002b2362002b1d62002b16845162001dc9565b6003900490565b62002915565b9162002b3962002b338462001dd8565b62002801565b92835280815182019060208501935b82821062002b8d5750505060039051068060011462002b7c5760021462002b6d575090565b603d60f81b6000199091015290565b50613d3d60f01b6001199091015290565b9091936004906003809401938451600190603f9082828260121c16880101518553828282600c1c16880101518386015382828260061c168801015160028601531685010151908201530193919062002b48565b50620003c962001b7b565b62002bf69062002c8d565b620003c9606760405180937f3c7376672077696474683d2234303022206865696768743d223430302220786d60208301527f6c6e733d22687474703a2f2f7777772e77332e6f72672f323030302f737667226040830152601f60f91b606083015262002c6d8151809260206061860191016200036a565b8101651e17b9bb339f60d11b60618201520360478101845201826200117e565b62002d0562002d4262002d2662002cca62002cbe62002cbe62002cbe620012cb88600052600d602052604060002090565b6001600160a01b031690565b6040516343fc559360e11b8152600481018690529094602094859283816024818b5afa90811562004619575b600091620045fe575062002655565b9560405180809581946333c7180560e11b8352600483019190602083019252565b03915afa908115620045ee575b600091620045d3575062002655565b6040517f3c7376672076696577426f783d222d313030202d3130302031303030203130309281019283526218111f60e91b60208401529283926023017f3c7265637420783d222d3130302220793d222d313030222077696474683d223181527f30303022206865696768743d2231303030222069643d227376675f312220666960208201527f6c6c3d222366666622207374726f6b652d77696474683d223322207374726f6b60408201527f653d2223303030222f3e3c7061746820636c69702d72756c653d226576656e6f60608201527f64642220643d224d31343420393563302d342d322d372d342d31302d332d332d60808201527f362d342d31302d34732d3720312d31302034632d3220332d3420362d3420313060a08201527f613134203134203020302030203134203134203134203134203020302030203160c08201527f342d31347a222066696c6c3d2223653931653233222066696c6c2d72756c653d60e08201526a1132bb32b737b23211179f60a91b61010082015261010b017f3c7061746820636c69702d72756c653d226576656e6f64642220643d224d333481527f39203837632d332d332d362d342d31302d34732d3720312d31302034632d322060208201527f332d3420362d342031307332203720342031306131342031342030203020302060408201527f3230203063322d3320342d3620342d3130732d322d372d342d31307a2220666960608201527f6c6c3d2223303262326537222066696c6c2d72756c653d226576656e6f646422608082015261179f60f11b60a082015260a2017f3c7061746820636c69702d72756c653d226576656e6f64642220643d224d343981527f39203836632d332d322d362d342d31302d34732d3720322d31302034632d322060208201527f332d3420372d342031306131342031342030203020302031342031346334203060408201527f20372d312031302d3420322d3220342d3620342d313020302d332d322d372d3460608201527f2d31305a222066696c6c3d2223666162633136222066696c6c2d72756c653d2260808201526932bb32b737b23211179f60b11b60a082015260aa017f3c7061746820636c69702d72756c653d226576656e6f64642220643d224d363781527f38203930632d332d332d362d352d31302d35732d3720322d31302035632d332060208201527f322d3420362d342039203020342031203820342031302033203320362035203160408201527f30203573372d322031302d3563322d3220342d3620342d313020302d332d322d60608201527f372d342d395a222066696c6c3d2223303262326537222066696c6c2d72756c6560808201526b1e9132bb32b737b23211179f60a11b60a082015260ac017f3c7061746820636c69702d72756c653d226576656e6f64642220643d224d343381527f33203436762d38632d31352d352d33302d332d343420352d3420322d3820372d60208201527f31322031346c2d38203231632d3220332d3320382d332031346c2d322031346360408201527f2d3220362d332031352d332032392031372d322033302d342034312d3720313660608201527f2d342032382d31312033362d31392d3720302d313620322d323620356c2d323560808201527f2038632d3520302d392d322d31302d362d322d342d322d382d312d31326c392d60a08201527f313263342d3420392d352031352d346c322d3320332d322037203120362d312060c08201527f31312d3563352d3120392d332031322d36682d35326c2d342d32762d3563302d60e08201527f3420332d3720372d382031302d352032332d382034312d31315a6d38203238686101008201527f352d355a6d35203020322031633420312036203120382d31682d31305a2220666101208201527334b63616b93ab6329e9132bb32b737b23211179f60611b61014082015261015401600080516020620058d583398151915281527f224d34343120373268356d302030203220316d3020306334203120362031203860208201527f2d316d302030682d31306d302030682d356d302030682d35326d3020302d342d60408201527f32762d3563302d3420332d3720372d382031302d352032332d382034312d313160608201527f6d302030762d386d302030632d31352d352d33302d332d343420352d3420322d60808201527f3820372d31322031346d3020302d382032316d302030632d3220332d3320382d60a08201527f332031346c2d32203134632d3220362d332031352d332032392031372d32203360c08201527f302d342034312d372031362d342032382d31312033362d31392d3720302d313660e08201527f20322d323620356d3020302d323520386d302030632d3520302d392d322d31306101008201527f2d362d322d342d322d382d312d31326c392d313263342d3420392d352031352d6101208201527f346c322d3320332d326d302030203720316d30203020362d312031312d3563356101408201527f2d3120392d332031322d36222066696c6c3d226e6f6e6522207374726f6b653d6101608201527f222330303022207374726f6b652d77696474683d2231322e3222207374726f6b6101808201527f652d6c696e656361703d22726f756e6422207374726f6b652d6c696e656a6f696101a08201526a371e913937bab73211179f60a91b6101c08201526101cb017f3c7061746820636c69702d72756c653d226576656e6f64642220643d226d363281527f3820343620322d3920332d3920332d3620342d3563322d3520332d3920312d3160208201527f336c2d31352033352d31342033362d35203134632d3320352d3720372d31332060408201527f342d31342d362d32362d31352d33332d32366c2d382d3136632d332d352d362d60608201527f372d382d352d3720382d31322031392d31342033356c2d34203431633220302060808201527f3420312034203476326c322d3163322d3320332d3820342d31346c332d31366360a08201527f302d3620312d313020332d313320312d3320342d3420382d347339203220313460c08201527f20356c313320313020313220313363362035203130203920313520313120352060e08201527f302037203020372d3220302d313120322d323320352d33366c31312d33355a2261010082015275103334b63616b93ab6329e9132bb32b737b23211179f60511b61012082015261013601600080516020620058d583398151915281527f226d36333020333720332d3920332d366d30203020342d356d30203063322d3560208201527f20332d3920312d31336c2d31352033352d31342033366d3020302d352031346d60408201527f302030632d3320352d3720372d313320342d31342d362d32362d31352d33332d60608201527f32366d3020302d382d31366d302030632d332d352d362d372d382d352d37203860808201527f2d31322031392d31342033356d3020302d342034316d3020306332203020342060a08201527f31203420346d30203076326d30203020322d3163322d3320332d3820342d313460c08201527f6d30203020332d31366d30203063302d3620312d313020332d313320312d332060e08201527f342d3420382d347339203220313420356c31332031306d3020302031322031336101008201527f6d302030633620352031302039203135203131203520302037203020372d32206101208201527f302d313120322d323320352d333661363837203638372030203020312031332d6101408201527f3434222066696c6c3d226e6f6e6522207374726f6b653d2223303030222073746101608201527f726f6b652d77696474683d2231322e3222207374726f6b652d6c696e656361706101808201527f3d22726f756e6422207374726f6b652d6c696e656a6f696e3d22726f756e64226101a082015261179f60f11b6101c08201526101c2017f3c7061746820636c69702d72756c653d226576656e6f64642220643d224d373881527f36203338762d38682d386c2d3331203231632d323220392d33332031392d333160208201527f203239203220342035203720313020386c313620312031392d3220313720312060408201527f3320312032203476366c2d332034632d3620362d31332031302d32322031342d60608201527f3820342d313620362d323420382d3320332d3520372d3520313020342d34203160808201527f312d372031392d31316c32322d3863382d332031342d362031382d313020362d60a08201527f3520392d31312031302d31382d362d342d31362d362d32382d36682d3331632d60c08201527f322d312d332d332d332d366c312d376331362d31332033312d32312034362d3260e08201527f3620322d3120332d3320332d355a222066696c6c2d72756c653d226576656e6f61010082015264323211179f60d91b61012082015261012501600080516020620058d583398151915281527f224d373836203330682d386d3020302d3331203231632d323220392d3333203160208201527f392d3331203239203220342035203720313020386d302030203136203120313960408201527f2d3220313720316d302030203320316d302030203220346d30203076366d302060608201527f302d3320356d302030632d3620352d313320392d32322031332d3820342d313660808201527f20362d323420382d3320332d3520372d3520313020342d342031312d3720313960a08201527f2d31316d3020302032322d386d30203063382d332031342d362031382d31302060c08201527f362d3520392d31312031302d31382d362d342d31362d362d32382d366d30203060e08201527f682d33316d302030632d322d312d332d332d332d366d30203020312d376d30206101008201527f306331362d31332033312d32312034362d323620322d3120332d3320332d356d6101208201527f302030762d38222066696c6c3d226e6f6e6522207374726f6b653d22233030306101408201527f22207374726f6b652d77696474683d2231322e3222207374726f6b652d6c696e6101608201527f656361703d22726f756e6422207374726f6b652d6c696e656a6f696e3d22726f610180820152653ab73211179f60d11b6101a08201526101a6017f3c7061746820636c69702d72756c653d226576656e6f64642220643d224d323481527f35203332682d31376c2d3138203130632d3720322d313420302d31382d356c2d60208201527f332031312d31332035382d3132203537632d3320372d3220313520322032376c60408201527f312d323320332d323263322d313620382d32392031372d333720342d3320313160608201527f2d342032312d326c32322038633139203720333520392034372035762d35632d60808201527f3820302d31362d322d32362d356c2d32362d392d332d352d322d3563322d352060a08201527f372d392031332d31336c31372d313063362d342031302d382031322d3131203260c08201527f2d3520312d31302d332d31362d332d342d372d362d31342d387a6d2d3320323460e08201527f2d31342031332d3138203133632d3620332d313020342d3133203320302d37206101008201527f302d313220322d313620322d3520352d392031302d31326c31382d3863392d346101208201527f2031352d342031382d3220322031203120342d3320397a222066696c6c2d72756101408201526d36329e9132bb32b737b23211179f60911b61016082015261016e01600080516020620058d583398151915281527f226d3232382033322d3138203130632d3720322d313420302d31382d356d302060208201527f302d332031316d3020302d31332035382d3132203537632d3320372d3220313560408201527f20322032376d30203020312d32336d30203020332d323263322d313620382d3260608201527f392031372d333720342d332031312d342032312d326c3232203863313920372060808201527f3335203920343720356d302030762d356d302030632d3820302d31362d322d3260a08201527f362d356d3020302d32362d392d332d356d3020302d322d3563322d3520372d3960c08201527f2031332d31336d3020302031372d31306d30203063362d342031302d3820313260e08201527f2d313120322d3520312d31302d332d31362d332d342d372d362d31342d38682d6101008201527f3137222066696c6c3d226e6f6e6522207374726f6b653d2223303030222073746101208201527f726f6b652d77696474683d2231322e3222207374726f6b652d6c696e656361706101408201527f3d22726f756e6422207374726f6b652d6c696e656a6f696e3d22726f756e642261016082015261179f60f11b610180820152610182017f3c7061746820636c69702d72756c653d226576656e6f64642220643d226d363181527f2032312032302d356332203020342d3220352d3420322d3320312d342d322d3460208201527f2d392d332d31382d322d323820302d3820332d313620372d32312031332d352060408201527f332d3920392d31312031396c2d332031332d342031332d362038632d3220332d60608201527f3320372d322031302032203220332034203320386c312032342d332032332d3360808201527f2032352d3120323520372d343720392d343763302d3320322d3520362d38203360a08201527f2d3120362d332031302d336c31352d342031352d362031352d3620342d312d3460c08201527f392034632d3320302d352d312d382d332d322d332d332d352d332d3820342d3160e08201527f3420392d32342031362d33317a222066696c6c2d72756c653d226576656e6f64610100820152633211179f60e11b61012082015261012401600080516020620058d583398151915281527f226d38372036372d353020346d3020302d372d33632d322d332d332d352d332d60208201527f3820342d313420392d32342031362d33316d3020302031382d386d302030203260408201527f302d356332203020342d3220352d3420322d3320312d342d322d342d392d332d60608201527f31382d322d323820302d3820332d313620372d32312031332d3520332d39203960808201527f2d31312031396d3020302d332031336d3020302d342031336d3020302d36203860a08201527f6d302030632d3220332d3320372d322031302032203220332034203320386c3160c08201527f2032342d332032336d3020302d332032356d3020302d312032356d302030203760e08201527f2d34376d30203020392d343763302d3320322d3520362d3820332d3120362d336101008201527f2031302d336c31352d346d3020302031352d366d3020302031352d366d3020306101208201527f20342d316d31322d312d31322031222066696c6c3d226e6f6e6522207374726f6101408201527f6b653d222330303022207374726f6b652d77696474683d2231322e32222073746101608201527f726f6b652d6c696e656361703d22726f756e6422207374726f6b652d6c696e656101808201526d3537b4b71e913937bab73211179f60911b6101a08201526101ae017f3c7465787420666f6e742d73697a653d223132302220666f6e742d776569676881527f743d22626f6c642220783d223132302220793d22333530222066696c6c3d226260208201527f6c756522207374726f6b653d222330303022207374726f6b652d77696474683d60408201527f22312220666f6e742d66616d696c793d2273616e732d7365726966223e0000006060820152607d01672232b837b9b4ba1d60c11b8152600801661e17ba32bc3a1f60c91b81526007017f3c7465787420666f6e742d73697a653d2238302220666f6e742d77656967687481527f3d22626f6c642220783d223235302220793d22343630222066696c6c3d22626c60208201527f756522207374726f6b653d222330303022207374726f6b652d77696474683d2260408201527f312220666f6e742d66616d696c793d2273616e732d7365726966223e000000006060820152607c01620044189162002604565b630408ae8d60e31b8152600401661e17ba32bc3a1f60c91b81526007017f3c7465787420666f6e742d73697a653d223132302220666f6e742d776569676881527f743d22626f6c642220783d2238302220793d22363230222066696c6c3d22677260208201527f65656e22207374726f6b653d222330303022207374726f6b652d77696474683d60408201527f22312220666f6e742d66616d696c793d2273616e732d7365726966223e0000006060820152607d016921b630b4b6b0b136329d60b11b8152600a01661e17ba32bc3a1f60c91b81526007017f3c7465787420666f6e742d73697a653d2238302220666f6e742d77656967687481527f3d22626f6c642220783d223235302220793d22373330222066696c6c3d22677260208201527f65656e22207374726f6b653d222330303022207374726f6b652d77696474683d60408201527f22312220666f6e742d66616d696c793d2273616e732d7365726966223e0000006060820152607d01620045939162002604565b630408ae8d60e31b8152600401661e17ba32bc3a1f60c91b8152600701651e17b9bb339f60d11b815260060103601f1981018252620003c990826200117e565b620016fd9150833d85116200170457620016f481836200117e565b620045f862002057565b62002d33565b620016fd9150843d86116200170457620016f481836200117e565b6200462362002057565b62002cf6565b80156200290a578060008281935b620046ee575081620046498462002801565b93905b620046575750505090565b620046629062001da0565b9182620046b5600a92838104938460001904811185151516620046de575b84028103908111620046ce575b60ff809116603001908111620046be575b60f81b6001600160f81b031916841a918662002839565b5391826200464c565b620046c862001d89565b6200469e565b620046d862001d89565b6200468d565b620046e862001d89565b62004680565b92620046fc600a9162002598565b9304806200463756fe6080346100fc57601f6111cf38819003918201601f19168301916001600160401b03831184841017610101578084926060946040528339810103126100fc5761004781610117565b90610060604061005960208401610117565b9201610117565b916000549160018060a01b03199233848216176000556040519460018060a01b0380948193823391167f8be0079c531659141344cd1fd0a4f28419497f9722a3daafe3b4186f6b6457e060008ba360045490610100600160a81b039060081b169060018060a81b031916178060045560081c1685600654161760065516836007541617600755169060055416176005556110a3908161012c8239f35b600080fd5b634e487b7160e01b600052604160045260246000fd5b51906001600160a01b03821682036100fc5756fe608060409080825260049182361015610020575b505050361561001e57005b005b600091823560e01c9081632a4dbd2b14610bdc575080632def662014610bb4578063441a3e7014610a0a5780634b2b4e361461074e5780636620a935146106e7578063678e300a146106c7578063715018a6146106665780637d8820971461064857806382a790cf1461060f5780638620891c1461046157806387f8ab2614610439578063893d20e8146104115780638da5cb5b146103ea578063cfb5a5f8146103be578063e2664e491461036e578063e4fc6b6d14610355578063f2fde38b146102ba5763f340fa010361001357602092836003193601126102b6576001600160a01b0393813585811691908290036102175760ff83541660038110156102a35761021757341561026c579081859392876007541684875180978193632798987d60e11b83525af193841561026257869461022e575b5060019084875252348486205561017034600254610d67565b600255600354956801000000000000000087101561021b578361019d886001899a99989901600355610c37565b819291549060031b600019811b9283911b1691191617905560075416803b156102175784928360649288519687958694630d4d151360e01b865285015260248401523060448401525af1801561020a576101f657505051f35b6101ff90610d1b565b6102065751f35b5080fd5b50505051903d90823e3d90fd5b8480fd5b634e487b7160e01b865260418352602486fd5b9080945081813d831161025b575b6102468183610d45565b810103126102575751926001610157565b8580fd5b503d61023c565b85513d88823e3d90fd5b9050606492519162461bcd60e51b8352820152601260248201527136bab9ba103232b837b9b4ba1032ba3432b960711b6044820152fd5b634e487b7160e01b865260218452602486fd5b8280fd5b5082346102b65760203660031901126102b6578035906001600160a01b0380831690818403610257576102f1908654163314610c84565b15610303575061030090610ccf565b51f35b608490602084519162461bcd60e51b8352820152602660248201527f4f776e61626c653a206e6577206f776e657220697320746865207a65726f206160448201526564647265737360d01b6064820152fd5b5034610206578160031936011261020657610300610db6565b503461020657816003193601126102065761039360018060a01b038354163314610c84565b81808080478181156103b5575b3390f1156103ab5751f35b51903d90823e3d90fd5b506108fc6103a0565b5090346103e75760203660031901126103e757506103e0602092479035610f7a565b9051908152f35b80fd5b5034610206578160031936011261020657905490516001600160a01b039091168152602090f35b503461020657816003193601126102065760055490516001600160a01b039091168152602090f35b5082346102b65760203660031901126102b65760209282913581526001845220549051908152f35b50826020806003193601126105215781359160018060a01b03858382600754166024885180948193634f558e7960e01b83528a898401525af190811561059d5787916105d5575b50156105a757808360249260075416875193848092630178b36760e31b825289888301525afa91821561059d57879261056e575b50309116036105385760ff81541690600382101561052557506105215760019184525280822061050d348254610d67565b905561051b34600254610d67565b60025551f35b8380fd5b634e487b7160e01b865260219052602485fd5b60649184519162461bcd60e51b835282015260126024820152711ddc9bdb99c81cdd185ada5b99c81c1bdbdb60721b6044820152fd5b61058f919250843d8611610596575b6105878183610d45565b810190610d8a565b90876104dc565b503d61057d565b86513d89823e3d90fd5b5060649184519162461bcd60e51b835282015260096024820152681b9bdd08195e1a5cdd60ba1b6044820152fd5b90508381813d8311610608575b6105ec8183610d45565b810103126106045751801515810361060457876104a8565b8680fd5b503d6105e2565b5082346102b65760203660031901126102b65735916003548310156103e7575061063a602092610c37565b90549060031b1c9051908152f35b50346102065781600319360112610206576020906002549051908152f35b5034610206578160031936011261020657600060018060a01b0361068e818554163314610c84565b81546001600160a01b031981168355925192167f8be0079c531659141344cd1fd0a4f28419497f9722a3daafe3b4186f6b6457e08284a3f35b5090346103e75760203660031901126103e757506103e06020923561100f565b5082346102b657826003193601126102b65782546005546001600160a01b03908116929116821461071c575061030090610ccf565b606490602084519162461bcd60e51b8352820152600c60248201526b616c726561647920646f6e6560a01b6044820152fd5b5034610206576003196080368201126102b65767ffffffffffffffff938035858111610217576107819036908301610c04565b906024968735818111610a065761079b9036908601610c04565b939091604435818111610951576107b59036908801610c04565b9a9060018060a01b03986107cd8a8d54163314610c84565b6801bc16d674ec800000938447106109d257895460ff19166001178a5530600160f81b81019081106109c0578c519160208301918252602083528d830190838210818311176109ad57818f528b1161099b57610833601f8c01601f191660200182610d45565b8a81526060830190368c8b0111610997578f8c8b843760608d860101525190209151902003610955578b9c8a60069d999a9b9c9d541696873b15610951578d516304512a2360e31b81526080818e01529a8b998a988997929161089a9160848a019161104c565b918588840301908801526108ad9261104c565b918483030160448501526108c09261104c565b606435606483015203925af1801561094757610910575b507f1944debb24a9aafcf2708be964e412cdb73fc36d6ea24577fd8dcc05b93b4a449183915460081c168151908152336020820152a151f35b9183919461093e7f1944debb24a9aafcf2708be964e412cdb73fc36d6ea24577fd8dcc05b93b4a4494610d1b565b949150916108d7565b84513d87823e3d90fd5b8980fd5b8a5162461bcd60e51b81526020818b0152601e818501527f7769746864726177616c2063726564656e7469616c206d69736d6174636800006044820152606490fd5b8f80fd5b634e487b7160e01b8f5260418c52858ffd5b50634e487b7160e01b8f5260418c52858ffd5b634e487b7160e01b8e5260118b52848efd5b508a5162461bcd60e51b81526020818b0152600e818501526d0dcdee840cadcdeeaced040cae8d60931b6044820152606490fd5b8780fd5b5082346102b657816003193601126102b657803560249081359260ff8154166003811015610ba257600114610b605760075485516331a9108f60e11b8152828101849052602094916001600160a01b039190869082908590829086165afa908115610b56578991610b39575b50163303610b075782875260018452848688205410610ace575050848093600182948394845252858220610aab828254610da9565b9055610ab981600254610da9565b6002558181156103b5573390f1156103ab5751f35b855162461bcd60e51b8152918201849052601490820152731b9bdd08195b9bdd59da0819195c1bdcda5d195960621b6044820152606490fd5b855162461bcd60e51b8152918201849052600d908201526c3737ba103a34329037bbb732b960991b6044820152606490fd5b610b509150863d8811610596576105878183610d45565b89610a76565b88513d8b823e3d90fd5b606490601b84602088519362461bcd60e51b85528401528201527f63616e6e6f74207769746864726177206f6e6365207374616b656400000000006044820152fd5b634e487b7160e01b8752602182528387fd5b5082346102b657826003193601126102b657610bce610db6565b805460ff1916600217905551f35b839085346102b657826003193601126102b6575460081c6001600160a01b0316815260209150f35b9181601f84011215610c325782359167ffffffffffffffff8311610c325760208381860195010111610c3257565b600080fd5b600354811015610c6e5760036000527fc2575a0e9e593c00f959f8c92f12db2869c3395a3b0502d05e2516446f71f85b0190600090565b634e487b7160e01b600052603260045260246000fd5b15610c8b57565b606460405162461bcd60e51b815260206004820152602060248201527f4f776e61626c653a2063616c6c6572206973206e6f7420746865206f776e65726044820152fd5b600080546001600160a01b039283166001600160a01b03198216811783556040519093909116917f8be0079c531659141344cd1fd0a4f28419497f9722a3daafe3b4186f6b6457e091a3565b67ffffffffffffffff8111610d2f57604052565b634e487b7160e01b600052604160045260246000fd5b90601f8019910116810190811067ffffffffffffffff821117610d2f57604052565b91908201809211610d7457565b634e487b7160e01b600052601160045260246000fd5b90816020910312610c3257516001600160a01b0381168103610c325790565b91908203918211610d7457565b60049060ff82541660039283821015610f65576001809203610f2157476064811115610edd57600094835b610dee575b505050509050565b8054861015610ed857610e0086610c37565b905490821b1c60018060a01b03806007541691604092835180916331a9108f60e11b8252838983015281602460209485935afa918215610ecd5793600094938594938986959486958693610eaa575b5050610e5b9192610f7a565b9183918315610ea0575b1690f115610e9657506000198614610e81579483019483610de1565b601183634e487b7160e01b6000525260246000fd5b513d6000823e3d90fd5b6108fc9250610e65565b610e5b93509081610ec692903d10610596576105878183610d45565b9138610e4f565b85513d6000823e3d90fd5b610de6565b60405162461bcd60e51b8152602081840181905260248201527f6d696e696d756d206f66203130302077656920746f20646973747269627574656044820152606490fd5b60649060206040519162461bcd60e51b8352820152601c60248201527f757365207769746864726177207768656e206e6f74207374616b6564000000006044820152fd5b602190634e487b7160e01b6000525260246000fd5b6000908152600160205260408120541561100a5760408120546000199290811515828504821116610ff657600254918215610fe2570204916001831115610fdc578201918211610fc8575090565b634e487b7160e01b81526011600452602490fd5b50905090565b634e487b7160e01b84526012600452602484fd5b634e487b7160e01b83526011600452602483fd5b905090565b60ff600454166003811015611036576110285750600090565b611033904790610f7a565b90565b634e487b7160e01b600052602160045260246000fd5b908060209392818452848401376000828201840152601f01601f191601019056fea26469706673582212209bb25dcb3ea59d467b5bb5ecf3d32e515c4477524ac3ae1abcf9cedaafdce4aa64736f6c634300081000333c70617468207374726f6b652d6d697465726c696d69743d22322e362220643da2646970667358221220a3eda8676374e4b1ab405dfc3af133653d673832a335b12550d9979d8d02f08a64736f6c63430008100033",
          "opcodes": "PUSH1 0x80 CALLVALUE PUSH3 0x3A9 JUMPI PUSH1 0x1F SWAP1 PUSH1 0x1 PUSH1 0x1 PUSH1 0x40 SHL SUB SWAP1 PUSH1 0x1F NOT SWAP1 PUSH3 0x5CF9 CODESIZE DUP2 SWAP1 SUB DUP6 DUP2 ADD DUP5 AND DUP4 ADD DUP6 DUP2 GT DUP5 DUP3 LT OR PUSH3 0x393 JUMPI DUP4 SWAP3 DUP3 SWAP2 PUSH1 0x40 MSTORE DUP4 CODECOPY PUSH1 0x20 SWAP3 DUP4 SWAP2 DUP2 ADD SUB SLT PUSH3 0x3A9 JUMPI MLOAD PUSH1 0x1 PUSH1 0x1 PUSH1 0xA0 SHL SUB SWAP5 DUP6 DUP3 AND SWAP5 SWAP2 DUP6 SWAP1 SUB PUSH3 0x3A9 JUMPI PUSH3 0x6A PUSH3 0x3AE JUMP JUMPDEST SWAP3 PUSH1 0x12 DUP5 MSTORE PUSH18 0x7374616B696E6720636F6E20616D69676F73 PUSH1 0x70 SHL DUP2 DUP6 ADD MSTORE PUSH3 0x93 PUSH3 0x3AE JUMP JUMPDEST SWAP1 PUSH1 0x5 DUP3 MSTORE PUSH5 0x4652454E53 PUSH1 0xD8 SHL DUP2 DUP4 ADD MSTORE DUP5 MLOAD SWAP6 DUP5 DUP8 GT PUSH3 0x393 JUMPI PUSH1 0x0 SWAP7 DUP8 SLOAD SWAP7 PUSH1 0x1 SWAP8 DUP9 DUP2 DUP2 SHR SWAP2 AND DUP1 ISZERO PUSH3 0x388 JUMPI JUMPDEST DUP6 DUP3 LT EQ PUSH3 0x374 JUMPI SWAP1 DUP2 DUP8 DUP5 SWAP4 GT PUSH3 0x321 JUMPI JUMPDEST POP DUP5 SWAP1 DUP8 DUP4 GT PUSH1 0x1 EQ PUSH3 0x2C0 JUMPI DUP11 SWAP3 PUSH3 0x2B4 JUMPI JUMPDEST POP POP PUSH1 0x0 NOT PUSH1 0x3 DUP4 SWAP1 SHL SHR NOT AND SWAP1 DUP8 SHL OR DUP8 SSTORE JUMPDEST DUP3 MLOAD SWAP5 DUP6 GT PUSH3 0x2A0 JUMPI DUP6 SLOAD DUP7 DUP2 DUP2 SHR SWAP2 AND DUP1 ISZERO PUSH3 0x295 JUMPI JUMPDEST DUP4 DUP3 LT EQ PUSH3 0x281 JUMPI SWAP1 DUP2 DUP6 DUP8 SWAP7 SWAP6 SWAP5 SWAP4 GT PUSH3 0x228 JUMPI JUMPDEST POP DUP2 SWAP4 DUP6 GT PUSH1 0x1 EQ PUSH3 0x1C3 JUMPI POP POP DUP6 SWAP3 PUSH3 0x1B7 JUMPI JUMPDEST POP POP PUSH1 0x0 NOT PUSH1 0x3 DUP4 SWAP1 SHL SHR NOT AND SWAP1 DUP3 SHL OR SWAP1 SSTORE JUMPDEST PUSH1 0xA SLOAD PUSH1 0x1 DUP1 PUSH1 0xA0 SHL SUB NOT SWAP2 CALLER DUP4 DUP4 AND OR PUSH1 0xA SSTORE PUSH32 0x8BE0079C531659141344CD1FD0A4F28419497F9722A3DAAFE3B4186F6B6457E0 PUSH1 0x40 MLOAD SWAP6 CALLER SWAP4 AND SWAP2 DUP7 LOG3 PUSH1 0xF SLOAD AND OR PUSH1 0xF SSTORE PUSH2 0x592A SWAP1 DUP2 PUSH3 0x3CF DUP3 CODECOPY RETURN JUMPDEST ADD MLOAD SWAP1 POP CODESIZE DUP1 PUSH3 0x14F JUMP JUMPDEST DUP7 SWAP6 SWAP4 SWAP3 SWAP2 SWAP4 AND DUP6 DUP9 MSTORE DUP4 DUP9 KECCAK256 SWAP4 DUP9 SWAP1 JUMPDEST DUP3 DUP3 LT PUSH3 0x20E JUMPI POP POP DUP5 GT PUSH3 0x1F4 JUMPI JUMPDEST POP POP POP DUP2 SHL ADD SWAP1 SSTORE PUSH3 0x163 JUMP JUMPDEST ADD MLOAD PUSH1 0x0 NOT PUSH1 0xF8 DUP5 PUSH1 0x3 SHL AND SHR NOT AND SWAP1 SSTORE CODESIZE DUP1 DUP1 PUSH3 0x1E6 JUMP JUMPDEST DUP5 DUP5 ADD MLOAD DUP7 SSTORE DUP9 SWAP8 SWAP1 SWAP6 ADD SWAP5 SWAP4 DUP5 ADD SWAP4 SWAP1 DUP2 ADD SWAP1 PUSH3 0x1D4 JUMP JUMPDEST SWAP1 SWAP2 SWAP3 SWAP4 SWAP5 POP DUP7 DUP9 MSTORE DUP3 DUP9 KECCAK256 DUP6 DUP1 DUP9 ADD PUSH1 0x5 SHR DUP3 ADD SWAP3 DUP6 DUP10 LT PUSH3 0x277 JUMPI JUMPDEST SWAP2 DUP9 SWAP8 DUP11 SWAP3 SWAP8 SWAP7 SWAP6 SWAP5 SWAP4 ADD PUSH1 0x5 SHR ADD SWAP2 JUMPDEST DUP3 DUP2 LT PUSH3 0x268 JUMPI POP POP PUSH3 0x138 JUMP JUMPDEST DUP11 DUP2 SSTORE DUP9 SWAP8 POP DUP10 SWAP2 ADD PUSH3 0x258 JUMP JUMPDEST SWAP3 POP DUP2 SWAP3 PUSH3 0x247 JUMP JUMPDEST PUSH4 0x4E487B71 PUSH1 0xE0 SHL DUP9 MSTORE PUSH1 0x22 PUSH1 0x4 MSTORE PUSH1 0x24 DUP9 REVERT JUMPDEST SWAP1 PUSH1 0x7F AND SWAP1 PUSH3 0x120 JUMP JUMPDEST PUSH4 0x4E487B71 PUSH1 0xE0 SHL DUP8 MSTORE PUSH1 0x41 PUSH1 0x4 MSTORE PUSH1 0x24 DUP8 REVERT JUMPDEST ADD MLOAD SWAP1 POP CODESIZE DUP1 PUSH3 0xF2 JUMP JUMPDEST SWAP1 DUP5 DUP11 SWAP5 AND SWAP2 DUP12 DUP1 MSTORE DUP7 DUP13 KECCAK256 SWAP3 DUP13 JUMPDEST DUP9 DUP3 DUP3 LT PUSH3 0x30A JUMPI POP POP DUP5 GT PUSH3 0x2F0 JUMPI JUMPDEST POP POP POP DUP2 SHL ADD DUP8 SSTORE PUSH3 0x106 JUMP JUMPDEST ADD MLOAD PUSH1 0x0 NOT PUSH1 0xF8 DUP5 PUSH1 0x3 SHL AND SHR NOT AND SWAP1 SSTORE CODESIZE DUP1 DUP1 PUSH3 0x2E2 JUMP JUMPDEST DUP4 DUP6 ADD MLOAD DUP7 SSTORE DUP14 SWAP8 SWAP1 SWAP6 ADD SWAP5 SWAP4 DUP5 ADD SWAP4 ADD PUSH3 0x2CF JUMP JUMPDEST SWAP1 SWAP2 POP DUP10 DUP1 MSTORE DUP5 DUP11 KECCAK256 DUP8 DUP1 DUP6 ADD PUSH1 0x5 SHR DUP3 ADD SWAP3 DUP8 DUP7 LT PUSH3 0x36A JUMPI JUMPDEST SWAP2 DUP12 SWAP2 DUP7 SWAP6 SWAP5 SWAP4 ADD PUSH1 0x5 SHR ADD SWAP2 JUMPDEST DUP3 DUP2 LT PUSH3 0x35B JUMPI POP POP PUSH3 0xDC JUMP JUMPDEST DUP13 DUP2 SSTORE DUP6 SWAP5 POP DUP12 SWAP2 ADD PUSH3 0x34B JUMP JUMPDEST SWAP3 POP DUP2 SWAP3 PUSH3 0x33D JUMP JUMPDEST PUSH4 0x4E487B71 PUSH1 0xE0 SHL DUP11 MSTORE PUSH1 0x22 PUSH1 0x4 MSTORE PUSH1 0x24 DUP11 REVERT JUMPDEST SWAP1 PUSH1 0x7F AND SWAP1 PUSH3 0xC7 JUMP JUMPDEST PUSH4 0x4E487B71 PUSH1 0xE0 SHL PUSH1 0x0 MSTORE PUSH1 0x41 PUSH1 0x4 MSTORE PUSH1 0x24 PUSH1 0x0 REVERT JUMPDEST PUSH1 0x0 DUP1 REVERT JUMPDEST PUSH1 0x40 DUP1 MLOAD SWAP2 SWAP1 DUP3 ADD PUSH1 0x1 PUSH1 0x1 PUSH1 0x40 SHL SUB DUP2 GT DUP4 DUP3 LT OR PUSH3 0x393 JUMPI PUSH1 0x40 MSTORE JUMP INVALID PUSH1 0x80 PUSH1 0x40 MSTORE PUSH1 0x4 CALLDATASIZE LT ISZERO PUSH3 0x14 JUMPI JUMPDEST PUSH1 0x0 DUP1 REVERT JUMPDEST PUSH1 0x0 CALLDATALOAD PUSH1 0xE0 SHR DUP1 PUSH4 0x1FFC9A7 EQ PUSH3 0x2AD JUMPI DUP1 PUSH4 0x6FDDE03 EQ PUSH3 0x2A2 JUMPI DUP1 PUSH4 0x81812FC EQ PUSH3 0x297 JUMPI DUP1 PUSH4 0x95EA7B3 EQ PUSH3 0x28C JUMPI DUP1 PUSH4 0xBC59B38 EQ PUSH3 0x281 JUMPI DUP1 PUSH4 0xD4D1513 EQ PUSH3 0x276 JUMPI DUP1 PUSH4 0x18160DDD EQ PUSH3 0x26B JUMPI DUP1 PUSH4 0x23B872DD EQ PUSH3 0x260 JUMPI DUP1 PUSH4 0x2F745C59 EQ PUSH3 0x255 JUMPI DUP1 PUSH4 0x42842E0E EQ PUSH3 0x24A JUMPI DUP1 PUSH4 0x4F3130FA EQ PUSH3 0x23F JUMPI DUP1 PUSH4 0x4F558E79 EQ PUSH3 0x234 JUMPI DUP1 PUSH4 0x4F6CCCE7 EQ PUSH3 0x229 JUMPI DUP1 PUSH4 0x5AAD6CF0 EQ PUSH3 0x21E JUMPI DUP1 PUSH4 0x6202D396 EQ PUSH3 0x213 JUMPI DUP1 PUSH4 0x6352211E EQ PUSH3 0x208 JUMPI DUP1 PUSH4 0x70A08231 EQ PUSH3 0x1FD JUMPI DUP1 PUSH4 0x715018A6 EQ PUSH3 0x1F2 JUMPI DUP1 PUSH4 0x8DA5CB5B EQ PUSH3 0x1E7 JUMPI DUP1 PUSH4 0x95D89B41 EQ PUSH3 0x1DC JUMPI DUP1 PUSH4 0x9ED93318 EQ PUSH3 0x1D1 JUMPI DUP1 PUSH4 0xA22CB465 EQ PUSH3 0x1C6 JUMPI DUP1 PUSH4 0xA2B44D75 EQ PUSH3 0x1BB JUMPI DUP1 PUSH4 0xA2D6C6DA EQ PUSH3 0x1B0 JUMPI DUP1 PUSH4 0xB88D4FDE EQ PUSH3 0x1A5 JUMPI DUP1 PUSH4 0xC87B56DD EQ PUSH3 0x19A JUMPI DUP1 PUSH4 0xE985E9C5 EQ PUSH3 0x18F JUMPI DUP1 PUSH4 0xEDD148A2 EQ PUSH3 0x184 JUMPI PUSH4 0xF2FDE38B EQ PUSH3 0x17A JUMPI PUSH1 0x0 DUP1 REVERT JUMPDEST PUSH3 0xF PUSH3 0x17DC JUMP JUMPDEST POP PUSH3 0xF PUSH3 0x17B7 JUMP JUMPDEST POP PUSH3 0xF PUSH3 0x1747 JUMP JUMPDEST POP PUSH3 0xF PUSH3 0x1271 JUMP JUMPDEST POP PUSH3 0xF PUSH3 0x11D0 JUMP JUMPDEST POP PUSH3 0xF PUSH3 0x10EC JUMP JUMPDEST POP PUSH3 0xF PUSH3 0xFE1 JUMP JUMPDEST POP PUSH3 0xF PUSH3 0xEE8 JUMP JUMPDEST POP PUSH3 0xF PUSH3 0xD49 JUMP JUMPDEST POP PUSH3 0xF PUSH3 0xC78 JUMP JUMPDEST POP PUSH3 0xF PUSH3 0xC4C JUMP JUMPDEST POP PUSH3 0xF PUSH3 0xBE3 JUMP JUMPDEST POP PUSH3 0xF PUSH3 0xBAD JUMP JUMPDEST POP PUSH3 0xF PUSH3 0xB8A JUMP JUMPDEST POP PUSH3 0xF PUSH3 0xB69 JUMP JUMPDEST POP PUSH3 0xF PUSH3 0xB0A JUMP JUMPDEST POP PUSH3 0xF PUSH3 0xA44 JUMP JUMPDEST POP PUSH3 0xF PUSH3 0xA06 JUMP JUMPDEST POP PUSH3 0xF PUSH3 0x9C0 JUMP JUMPDEST POP PUSH3 0xF PUSH3 0x96F JUMP JUMPDEST POP PUSH3 0xF PUSH3 0x8B0 JUMP JUMPDEST POP PUSH3 0xF PUSH3 0x87D JUMP JUMPDEST POP PUSH3 0xF PUSH3 0x82B JUMP JUMPDEST POP PUSH3 0xF PUSH3 0x66B JUMP JUMPDEST POP PUSH3 0xF PUSH3 0x634 JUMP JUMPDEST POP PUSH3 0xF PUSH3 0x531 JUMP JUMPDEST POP PUSH3 0xF PUSH3 0x4EA JUMP JUMPDEST POP PUSH3 0xF PUSH3 0x3CC JUMP JUMPDEST POP PUSH3 0xF PUSH3 0x2CB JUMP JUMPDEST PUSH1 0x1 PUSH1 0x1 PUSH1 0xE0 SHL SUB NOT DUP2 AND SUB PUSH3 0xF JUMPI JUMP JUMPDEST POP CALLVALUE PUSH3 0xF JUMPI PUSH1 0x20 CALLDATASIZE PUSH1 0x3 NOT ADD SLT PUSH3 0xF JUMPI PUSH1 0x20 PUSH1 0x4 CALLDATALOAD PUSH3 0x2EF DUP2 PUSH3 0x2B8 JUMP JUMPDEST PUSH4 0xFFFFFFFF PUSH1 0xE0 SHL AND PUSH4 0x780E9D63 PUSH1 0xE0 SHL DUP2 EQ SWAP1 DUP2 ISZERO PUSH3 0x316 JUMPI JUMPDEST POP PUSH1 0x40 MLOAD SWAP1 ISZERO ISZERO DUP2 MSTORE RETURN JUMPDEST PUSH4 0x80AC58CD PUSH1 0xE0 SHL DUP2 EQ SWAP2 POP DUP2 ISZERO PUSH3 0x34C JUMPI JUMPDEST DUP2 ISZERO PUSH3 0x33A JUMPI JUMPDEST POP CODESIZE PUSH3 0x30B JUMP JUMPDEST PUSH4 0x1FFC9A7 PUSH1 0xE0 SHL EQ SWAP1 POP CODESIZE PUSH3 0x332 JUMP JUMPDEST PUSH4 0x5B5E139F PUSH1 0xE0 SHL DUP2 EQ SWAP2 POP PUSH3 0x32A JUMP JUMPDEST PUSH1 0x0 SWAP2 SUB SLT PUSH3 0xF JUMPI JUMP JUMPDEST PUSH1 0x0 JUMPDEST DUP4 DUP2 LT PUSH3 0x37E JUMPI POP POP PUSH1 0x0 SWAP2 ADD MSTORE JUMP JUMPDEST DUP2 DUP2 ADD MLOAD DUP4 DUP3 ADD MSTORE PUSH1 0x20 ADD PUSH3 0x36D JUMP JUMPDEST SWAP1 PUSH1 0x20 SWAP2 PUSH3 0x3AA DUP2 MLOAD DUP1 SWAP3 DUP2 DUP6 MSTORE DUP6 DUP1 DUP7 ADD SWAP2 ADD PUSH3 0x36A JUMP JUMPDEST PUSH1 0x1F ADD PUSH1 0x1F NOT AND ADD ADD SWAP1 JUMP JUMPDEST SWAP1 PUSH1 0x20 PUSH3 0x3C9 SWAP3 DUP2 DUP2 MSTORE ADD SWAP1 PUSH3 0x38F JUMP JUMPDEST SWAP1 JUMP JUMPDEST POP CALLVALUE PUSH3 0xF JUMPI PUSH1 0x0 DUP1 PUSH1 0x3 NOT CALLDATASIZE ADD SLT PUSH3 0x4E7 JUMPI PUSH1 0x40 MLOAD SWAP1 DUP1 DUP1 SLOAD SWAP1 PUSH1 0x1 SWAP2 DUP1 DUP4 SHR SWAP3 DUP1 DUP3 AND SWAP3 DUP4 ISZERO PUSH3 0x4DC JUMPI JUMPDEST PUSH1 0x20 SWAP3 DUP4 DUP7 LT DUP6 EQ PUSH3 0x4C8 JUMPI DUP6 DUP9 MSTORE PUSH1 0x20 DUP9 ADD SWAP5 SWAP1 DUP2 ISZERO PUSH3 0x4A4 JUMPI POP PUSH1 0x1 EQ PUSH3 0x447 JUMPI JUMPDEST PUSH3 0x443 DUP8 PUSH3 0x436 DUP2 DUP10 SUB DUP3 PUSH3 0x117E JUMP JUMPDEST PUSH1 0x40 MLOAD SWAP2 DUP3 SWAP2 DUP3 PUSH3 0x3B6 JUMP JUMPDEST SUB SWAP1 RETURN JUMPDEST PUSH1 0x0 DUP1 MSTORE SWAP5 POP SWAP2 SWAP3 SWAP2 PUSH32 0x290DECD9548B62A8D60345A988386FC84BA6BC95484008F6362F93160EF3E563 JUMPDEST DUP4 DUP7 LT PUSH3 0x492 JUMPI POP POP POP SWAP2 ADD SWAP1 POP PUSH3 0x436 DUP3 PUSH3 0x443 CODESIZE DUP1 PUSH3 0x423 JUMP JUMPDEST DUP1 SLOAD DUP6 DUP8 ADD MSTORE SWAP5 DUP3 ADD SWAP5 DUP2 ADD PUSH3 0x472 JUMP JUMPDEST PUSH1 0xFF NOT AND DUP6 MSTORE POP POP POP POP SWAP1 ISZERO ISZERO PUSH1 0x5 SHL ADD SWAP1 POP PUSH3 0x436 DUP3 PUSH3 0x443 CODESIZE DUP1 PUSH3 0x423 JUMP JUMPDEST PUSH4 0x4E487B71 PUSH1 0xE0 SHL DUP3 MSTORE PUSH1 0x22 PUSH1 0x4 MSTORE PUSH1 0x24 DUP3 REVERT JUMPDEST SWAP4 PUSH1 0x7F AND SWAP4 PUSH3 0x3FC JUMP JUMPDEST DUP1 REVERT JUMPDEST POP CALLVALUE PUSH3 0xF JUMPI PUSH1 0x20 CALLDATASIZE PUSH1 0x3 NOT ADD SLT PUSH3 0xF JUMPI PUSH1 0x20 PUSH3 0x50D PUSH1 0x4 CALLDATALOAD PUSH3 0x1A81 JUMP JUMPDEST PUSH1 0x40 MLOAD PUSH1 0x1 PUSH1 0x1 PUSH1 0xA0 SHL SUB SWAP1 SWAP2 AND DUP2 MSTORE RETURN JUMPDEST PUSH1 0x1 PUSH1 0x1 PUSH1 0xA0 SHL SUB DUP2 AND SUB PUSH3 0xF JUMPI JUMP JUMPDEST POP CALLVALUE PUSH3 0xF JUMPI PUSH1 0x40 CALLDATASIZE PUSH1 0x3 NOT ADD SLT PUSH3 0xF JUMPI PUSH1 0x4 CALLDATALOAD PUSH3 0x553 DUP2 PUSH3 0x51F JUMP JUMPDEST PUSH1 0x24 CALLDATALOAD PUSH3 0x561 DUP2 PUSH3 0x1995 JUMP JUMPDEST SWAP2 PUSH1 0x1 PUSH1 0x1 PUSH1 0xA0 SHL SUB DUP1 DUP5 AND SWAP1 DUP3 AND DUP2 EQ PUSH3 0x5E5 JUMPI PUSH3 0x599 SWAP4 PUSH3 0x593 SWAP2 CALLER EQ SWAP1 DUP2 ISZERO PUSH3 0x59B JUMPI JUMPDEST POP PUSH3 0x1A0E JUMP JUMPDEST PUSH3 0x1F77 JUMP JUMPDEST STOP JUMPDEST PUSH1 0x1 PUSH1 0x1 PUSH1 0xA0 SHL SUB AND PUSH1 0x0 SWAP1 DUP2 MSTORE PUSH1 0x5 PUSH1 0x20 MSTORE PUSH1 0x40 SWAP1 KECCAK256 PUSH3 0x5DE SWAP2 POP PUSH3 0x5D7 SWAP1 CALLER SWAP1 JUMPDEST SWAP1 PUSH1 0x1 DUP1 PUSH1 0xA0 SHL SUB AND PUSH1 0x0 MSTORE PUSH1 0x20 MSTORE PUSH1 0x40 PUSH1 0x0 KECCAK256 SWAP1 JUMP JUMPDEST SLOAD PUSH1 0xFF AND SWAP1 JUMP JUMPDEST CODESIZE PUSH3 0x58C JUMP JUMPDEST PUSH1 0x40 MLOAD PUSH3 0x461BCD PUSH1 0xE5 SHL DUP2 MSTORE PUSH1 0x20 PUSH1 0x4 DUP3 ADD MSTORE PUSH1 0x21 PUSH1 0x24 DUP3 ADD MSTORE PUSH32 0x4552433732313A20617070726F76616C20746F2063757272656E74206F776E65 PUSH1 0x44 DUP3 ADD MSTORE PUSH1 0x39 PUSH1 0xF9 SHL PUSH1 0x64 DUP3 ADD MSTORE PUSH1 0x84 SWAP1 REVERT JUMPDEST POP CALLVALUE PUSH3 0xF JUMPI PUSH1 0x20 CALLDATASIZE PUSH1 0x3 NOT ADD SLT PUSH3 0xF JUMPI PUSH1 0x4 CALLDATALOAD PUSH1 0x0 MSTORE PUSH1 0xD PUSH1 0x20 MSTORE PUSH1 0x20 PUSH1 0x1 DUP1 PUSH1 0xA0 SHL SUB PUSH1 0x40 PUSH1 0x0 KECCAK256 SLOAD AND PUSH1 0x40 MLOAD SWAP1 DUP2 MSTORE RETURN JUMPDEST POP CALLVALUE PUSH3 0xF JUMPI PUSH1 0x60 CALLDATASIZE PUSH1 0x3 NOT ADD SLT PUSH3 0xF JUMPI PUSH1 0x4 CALLDATALOAD PUSH3 0x68D DUP2 PUSH3 0x51F JUMP JUMPDEST PUSH1 0x24 CALLDATALOAD SWAP1 PUSH1 0x44 CALLDATALOAD SWAP1 PUSH3 0x6A0 DUP3 PUSH3 0x51F JUMP JUMPDEST PUSH1 0x0 SWAP3 CALLER DUP5 MSTORE PUSH1 0xC PUSH1 0x20 MSTORE PUSH1 0x40 SWAP3 PUSH1 0xFF DUP5 DUP7 KECCAK256 SLOAD AND ISZERO PUSH3 0x827 JUMPI DUP2 DUP6 MSTORE PUSH1 0xD PUSH1 0x20 MSTORE DUP4 DUP6 KECCAK256 DUP1 SLOAD PUSH1 0x1 PUSH1 0x1 PUSH1 0xA0 SHL SUB NOT AND PUSH1 0x1 PUSH1 0x1 PUSH1 0xA0 SHL SUB SWAP1 SWAP3 AND SWAP2 SWAP1 SWAP2 OR SWAP1 SSTORE DUP3 MLOAD SWAP2 PUSH3 0x6F1 DUP4 PUSH3 0x1161 JUMP JUMPDEST DUP5 DUP4 MSTORE PUSH1 0x1 PUSH1 0x1 PUSH1 0xA0 SHL SUB DUP2 AND DUP1 ISZERO PUSH3 0x7E4 JUMPI SWAP2 PUSH3 0x7E1 SWAP4 SWAP2 DUP2 PUSH3 0x7DB SWAP5 PUSH3 0x744 PUSH3 0x73E PUSH3 0x73A DUP5 PUSH1 0x0 MSTORE PUSH1 0x2 PUSH1 0x20 MSTORE PUSH1 0x1 DUP1 PUSH1 0xA0 SHL SUB PUSH1 0x40 PUSH1 0x0 KECCAK256 SLOAD AND ISZERO ISZERO SWAP1 JUMP JUMPDEST ISZERO SWAP1 JUMP JUMPDEST PUSH3 0x25B7 JUMP JUMPDEST PUSH3 0x750 DUP3 DUP5 PUSH3 0x21AA JUMP JUMPDEST PUSH1 0x1 PUSH1 0x1 PUSH1 0xA0 SHL SUB DUP4 AND PUSH1 0x0 SWAP1 DUP2 MSTORE PUSH1 0x3 PUSH1 0x20 MSTORE PUSH1 0x40 SWAP1 KECCAK256 PUSH3 0x774 DUP2 SLOAD PUSH3 0x1DBA JUMP JUMPDEST SWAP1 SSTORE PUSH3 0x7AF DUP4 PUSH3 0x790 DUP5 PUSH1 0x0 MSTORE PUSH1 0x2 PUSH1 0x20 MSTORE PUSH1 0x40 PUSH1 0x0 KECCAK256 SWAP1 JUMP JUMPDEST DUP1 SLOAD PUSH1 0x1 PUSH1 0x1 PUSH1 0xA0 SHL SUB NOT AND PUSH1 0x1 PUSH1 0x1 PUSH1 0xA0 SHL SUB SWAP1 SWAP3 AND SWAP2 SWAP1 SWAP2 OR SWAP1 SSTORE JUMP JUMPDEST DUP9 PUSH32 0xDDF252AD1BE2C89B69C2B068FC378DAA952BA7F163C4A11628F55A4DF523B3EF DUP2 DUP11 MLOAD LOG4 PUSH3 0x2099 JUMP JUMPDEST PUSH3 0x1C14 JUMP JUMPDEST MLOAD RETURN JUMPDEST PUSH1 0x64 DUP6 MLOAD PUSH3 0x461BCD PUSH1 0xE5 SHL DUP2 MSTORE PUSH1 0x20 PUSH1 0x4 DUP3 ADD MSTORE PUSH1 0x20 PUSH1 0x24 DUP3 ADD MSTORE PUSH32 0x4552433732313A206D696E7420746F20746865207A65726F2061646472657373 PUSH1 0x44 DUP3 ADD MSTORE REVERT JUMPDEST DUP5 DUP1 REVERT JUMPDEST POP CALLVALUE PUSH3 0xF JUMPI PUSH1 0x0 CALLDATASIZE PUSH1 0x3 NOT ADD SLT PUSH3 0xF JUMPI PUSH1 0x20 PUSH1 0x8 SLOAD PUSH1 0x40 MLOAD SWAP1 DUP2 MSTORE RETURN JUMPDEST PUSH1 0x60 SWAP1 PUSH1 0x3 NOT ADD SLT PUSH3 0xF JUMPI PUSH1 0x4 CALLDATALOAD PUSH3 0x867 DUP2 PUSH3 0x51F JUMP JUMPDEST SWAP1 PUSH1 0x24 CALLDATALOAD PUSH3 0x876 DUP2 PUSH3 0x51F JUMP JUMPDEST SWAP1 PUSH1 0x44 CALLDATALOAD SWAP1 JUMP JUMPDEST POP CALLVALUE PUSH3 0xF JUMPI PUSH3 0x599 PUSH3 0x893 CALLDATASIZE PUSH3 0x84C JUMP JUMPDEST SWAP2 PUSH3 0x8AA PUSH3 0x8A4 DUP5 CALLER PUSH3 0x1C3B JUMP JUMPDEST PUSH3 0x1B14 JUMP JUMPDEST PUSH3 0x1DE7 JUMP JUMPDEST POP CALLVALUE PUSH3 0xF JUMPI PUSH1 0x40 CALLDATASIZE PUSH1 0x3 NOT ADD SLT PUSH3 0xF JUMPI PUSH1 0x4 CALLDATALOAD PUSH3 0x8D2 DUP2 PUSH3 0x51F JUMP JUMPDEST PUSH1 0x24 CALLDATALOAD SWAP1 PUSH3 0x8E1 DUP2 PUSH3 0x191C JUMP JUMPDEST DUP3 LT ISZERO PUSH3 0x916 JUMPI PUSH1 0x1 PUSH1 0x1 PUSH1 0xA0 SHL SUB AND PUSH1 0x0 SWAP1 DUP2 MSTORE PUSH1 0x6 PUSH1 0x20 SWAP1 DUP2 MSTORE PUSH1 0x40 DUP1 DUP4 KECCAK256 SWAP4 DUP4 MSTORE SWAP3 DUP2 MSTORE SWAP1 DUP3 SWAP1 KECCAK256 SLOAD SWAP2 MLOAD SWAP2 DUP3 MSTORE SWAP1 RETURN JUMPDEST PUSH1 0x40 MLOAD PUSH3 0x461BCD PUSH1 0xE5 SHL DUP2 MSTORE PUSH1 0x20 PUSH1 0x4 DUP3 ADD MSTORE PUSH1 0x2B PUSH1 0x24 DUP3 ADD MSTORE PUSH32 0x455243373231456E756D657261626C653A206F776E657220696E646578206F75 PUSH1 0x44 DUP3 ADD MSTORE PUSH11 0x74206F6620626F756E6473 PUSH1 0xA8 SHL PUSH1 0x64 DUP3 ADD MSTORE PUSH1 0x84 SWAP1 REVERT JUMPDEST POP CALLVALUE PUSH3 0xF JUMPI PUSH3 0x599 PUSH3 0x985 CALLDATASIZE PUSH3 0x84C JUMP JUMPDEST SWAP1 PUSH1 0x40 MLOAD SWAP3 PUSH1 0x20 DUP5 ADD DUP5 DUP2 LT PUSH8 0xFFFFFFFFFFFFFFFF DUP3 GT OR PUSH3 0x9B0 JUMPI JUMPDEST PUSH1 0x40 MSTORE PUSH1 0x0 DUP5 MSTORE PUSH3 0x1B90 JUMP JUMPDEST PUSH3 0x9BA PUSH3 0x1126 JUMP JUMPDEST PUSH3 0x9A3 JUMP JUMPDEST POP CALLVALUE PUSH3 0xF JUMPI PUSH1 0x0 DUP1 PUSH1 0x3 NOT CALLDATASIZE ADD SLT PUSH3 0x4E7 JUMPI CALLER DUP2 MSTORE PUSH1 0xC PUSH1 0x20 MSTORE PUSH1 0xFF PUSH1 0x40 DUP3 KECCAK256 SLOAD AND ISZERO PUSH3 0x4E7 JUMPI PUSH1 0x20 PUSH3 0x9FA PUSH1 0xE SLOAD PUSH3 0x2598 JUMP JUMPDEST DUP1 PUSH1 0xE SSTORE PUSH1 0x40 MLOAD SWAP1 DUP2 MSTORE RETURN JUMPDEST POP CALLVALUE PUSH3 0xF JUMPI PUSH1 0x20 CALLDATASIZE PUSH1 0x3 NOT ADD SLT PUSH3 0xF JUMPI PUSH1 0x4 CALLDATALOAD PUSH1 0x0 SWAP1 DUP2 MSTORE PUSH1 0x2 PUSH1 0x20 SWAP1 DUP2 MSTORE PUSH1 0x40 SWAP1 SWAP2 KECCAK256 SLOAD PUSH1 0x1 PUSH1 0x1 PUSH1 0xA0 SHL SUB AND ISZERO ISZERO PUSH1 0x40 MLOAD SWAP1 ISZERO ISZERO DUP2 MSTORE RETURN JUMPDEST POP CALLVALUE PUSH3 0xF JUMPI PUSH1 0x20 CALLDATASIZE PUSH1 0x3 NOT ADD SLT PUSH3 0xF JUMPI PUSH1 0x4 CALLDATALOAD PUSH1 0x8 SLOAD DUP2 LT ISZERO PUSH3 0xA99 JUMPI PUSH1 0x8 PUSH1 0x0 MSTORE PUSH32 0xF3F7A9FE364FAAB93B216DA50A3214154F22A0A2B415B23A84C8169E8B636EE3 ADD SLOAD PUSH1 0x40 MLOAD SWAP1 DUP2 MSTORE PUSH1 0x20 SWAP1 RETURN JUMPDEST PUSH1 0x40 MLOAD PUSH3 0x461BCD PUSH1 0xE5 SHL DUP2 MSTORE PUSH1 0x20 PUSH1 0x4 DUP3 ADD MSTORE PUSH1 0x2C PUSH1 0x24 DUP3 ADD MSTORE PUSH32 0x455243373231456E756D657261626C653A20676C6F62616C20696E646578206F PUSH1 0x44 DUP3 ADD MSTORE PUSH12 0x7574206F6620626F756E6473 PUSH1 0xA0 SHL PUSH1 0x64 DUP3 ADD MSTORE PUSH1 0x84 SWAP1 REVERT JUMPDEST POP PUSH4 0x4E487B71 PUSH1 0xE0 SHL PUSH1 0x0 MSTORE PUSH1 0x32 PUSH1 0x4 MSTORE PUSH1 0x24 PUSH1 0x0 REVERT JUMPDEST POP CALLVALUE PUSH3 0xF JUMPI PUSH1 0x20 CALLDATASIZE PUSH1 0x3 NOT ADD SLT PUSH3 0xF JUMPI PUSH1 0x4 CALLDATALOAD PUSH1 0xB SLOAD DUP2 LT ISZERO PUSH3 0xF JUMPI PUSH1 0xB PUSH1 0x0 MSTORE PUSH32 0x175B7A638427703F0DBE7BB9BBF987A2551717B34E79F33B5B1008D1FA01DB9 ADD SLOAD PUSH1 0x40 MLOAD PUSH1 0x1 PUSH1 0x1 PUSH1 0xA0 SHL SUB SWAP1 SWAP2 AND DUP2 MSTORE PUSH1 0x20 SWAP1 RETURN JUMPDEST POP CALLVALUE PUSH3 0xF JUMPI PUSH1 0x0 CALLDATASIZE PUSH1 0x3 NOT ADD SLT PUSH3 0xF JUMPI PUSH1 0x20 PUSH1 0xB SLOAD PUSH1 0x40 MLOAD SWAP1 DUP2 MSTORE RETURN JUMPDEST POP CALLVALUE PUSH3 0xF JUMPI PUSH1 0x20 CALLDATASIZE PUSH1 0x3 NOT ADD SLT PUSH3 0xF JUMPI PUSH1 0x20 PUSH3 0x50D PUSH1 0x4 CALLDATALOAD PUSH3 0x1995 JUMP JUMPDEST POP CALLVALUE PUSH3 0xF JUMPI PUSH1 0x20 CALLDATASIZE PUSH1 0x3 NOT ADD SLT PUSH3 0xF JUMPI PUSH1 0x20 PUSH3 0xBDB PUSH1 0x4 CALLDATALOAD PUSH3 0xBD5 DUP2 PUSH3 0x51F JUMP JUMPDEST PUSH3 0x191C JUMP JUMPDEST PUSH1 0x40 MLOAD SWAP1 DUP2 MSTORE RETURN JUMPDEST POP CALLVALUE PUSH3 0xF JUMPI PUSH1 0x0 DUP1 PUSH1 0x3 NOT CALLDATASIZE ADD SLT PUSH3 0x4E7 JUMPI PUSH1 0xA SLOAD PUSH1 0x1 PUSH1 0x1 PUSH1 0xA0 SHL SUB DUP2 AND SWAP1 PUSH3 0xC13 CALLER DUP4 EQ PUSH3 0x1880 JUMP JUMPDEST PUSH1 0x1 PUSH1 0x1 PUSH1 0xA0 SHL SUB NOT AND PUSH1 0xA SSTORE PUSH1 0x40 MLOAD SWAP1 DUP3 SWAP1 PUSH32 0x8BE0079C531659141344CD1FD0A4F28419497F9722A3DAAFE3B4186F6B6457E0 DUP3 DUP5 LOG3 RETURN JUMPDEST POP CALLVALUE PUSH3 0xF JUMPI PUSH1 0x0 CALLDATASIZE PUSH1 0x3 NOT ADD SLT PUSH3 0xF JUMPI PUSH1 0xA SLOAD PUSH1 0x40 MLOAD PUSH1 0x1 PUSH1 0x1 PUSH1 0xA0 SHL SUB SWAP1 SWAP2 AND DUP2 MSTORE PUSH1 0x20 SWAP1 RETURN JUMPDEST POP CALLVALUE PUSH3 0xF JUMPI PUSH1 0x0 DUP1 PUSH1 0x3 NOT CALLDATASIZE ADD SLT PUSH3 0x4E7 JUMPI PUSH1 0x40 MLOAD SWAP1 DUP1 PUSH1 0x1 SWAP1 DUP2 SLOAD DUP1 DUP4 SHR SWAP3 DUP1 DUP3 AND SWAP3 DUP4 ISZERO PUSH3 0xD3E JUMPI JUMPDEST PUSH1 0x20 SWAP3 DUP4 DUP7 LT DUP6 EQ PUSH3 0x4C8 JUMPI DUP6 DUP9 MSTORE PUSH1 0x20 DUP9 ADD SWAP5 SWAP1 DUP2 ISZERO PUSH3 0x4A4 JUMPI POP PUSH1 0x1 EQ PUSH3 0xCE0 JUMPI PUSH3 0x443 DUP8 PUSH3 0x436 DUP2 DUP10 SUB DUP3 PUSH3 0x117E JUMP JUMPDEST PUSH1 0x1 PUSH1 0x0 MSTORE SWAP5 POP SWAP2 SWAP3 SWAP2 PUSH32 0xB10E2D527612073B26EECDFD717E6A320CF44B4AFAC2B0732D9FCBE2B7FA0CF6 JUMPDEST DUP4 DUP7 LT PUSH3 0xD2C JUMPI POP POP POP SWAP2 ADD SWAP1 POP PUSH3 0x436 DUP3 PUSH3 0x443 CODESIZE DUP1 PUSH3 0x423 JUMP JUMPDEST DUP1 SLOAD DUP6 DUP8 ADD MSTORE SWAP5 DUP3 ADD SWAP5 DUP2 ADD PUSH3 0xD0C JUMP JUMPDEST SWAP4 PUSH1 0x7F AND SWAP4 PUSH3 0xCA7 JUMP JUMPDEST POP CALLVALUE PUSH3 0xF JUMPI PUSH1 0x20 CALLDATASIZE PUSH1 0x3 NOT ADD SLT PUSH3 0xF JUMPI PUSH1 0x4 CALLDATALOAD PUSH3 0xD6B DUP2 PUSH3 0x51F JUMP JUMPDEST PUSH1 0xB SLOAD PUSH1 0xF SLOAD SWAP1 SWAP2 SWAP1 PUSH3 0xDCB SWAP1 PUSH1 0x1 PUSH1 0x1 PUSH1 0xA0 SHL SUB AND PUSH1 0x40 MLOAD SWAP2 DUP3 SWAP2 DUP5 PUSH2 0x11CF SWAP2 DUP3 DUP6 ADD SWAP3 DUP6 DUP5 LT PUSH8 0xFFFFFFFFFFFFFFFF DUP6 GT OR PUSH3 0xED8 JUMPI JUMPDEST PUSH3 0x4706 DUP7 CODECOPY PUSH1 0x1 PUSH1 0x1 PUSH1 0xA0 SHL SUB SWAP1 DUP2 AND DUP4 MSTORE AND PUSH1 0x20 DUP3 ADD MSTORE ADDRESS PUSH1 0x40 DUP3 ADD MSTORE PUSH1 0x60 ADD SWAP1 JUMP JUMPDEST SUB SWAP1 PUSH1 0x0 CREATE DUP1 ISZERO PUSH3 0xEC8 JUMPI JUMPDEST PUSH3 0xDE3 DUP2 PUSH3 0x24F8 JUMP JUMPDEST PUSH1 0x1 PUSH1 0x1 PUSH1 0xA0 SHL SUB AND PUSH1 0x0 DUP2 DUP2 MSTORE PUSH1 0xC PUSH1 0x20 MSTORE PUSH1 0x40 SWAP1 KECCAK256 DUP1 SLOAD PUSH1 0xFF NOT AND PUSH1 0x1 OR SWAP1 SSTORE SWAP1 DUP2 EXTCODESIZE ISZERO PUSH3 0xF JUMPI DUP3 PUSH32 0x18CC83251B20FEBB5B0C01F457A3E15B6E2EB22F48B01A0B9E5A24012CC2F692 DUP4 SWAP3 PUSH1 0x40 MLOAD PUSH4 0x6620A935 PUSH1 0xE0 SHL DUP2 MSTORE PUSH1 0x0 DUP2 PUSH1 0x4 DUP2 DUP4 DUP10 GAS CALL DUP1 ISZERO PUSH3 0xEB8 JUMPI JUMPDEST PUSH3 0xE9A JUMPI JUMPDEST POP PUSH1 0xF SLOAD PUSH1 0x40 DUP1 MLOAD CALLER DUP2 MSTORE PUSH1 0x1 PUSH1 0x1 PUSH1 0xA0 SHL SUB SWAP4 DUP5 AND PUSH1 0x20 DUP3 ADD MSTORE SWAP3 SWAP1 SWAP2 AND SWAP1 DUP3 ADD MSTORE PUSH1 0x60 SWAP1 LOG3 PUSH1 0x40 DUP1 MLOAD PUSH1 0x1 PUSH1 0x1 PUSH1 0xA0 SHL SUB SWAP3 SWAP1 SWAP3 AND DUP3 MSTORE PUSH1 0x20 DUP3 ADD SWAP3 SWAP1 SWAP3 MSTORE RETURN JUMPDEST DUP1 PUSH3 0xEAA PUSH3 0xEB1 SWAP3 PUSH3 0x113D JUMP JUMPDEST DUP1 PUSH3 0x35E JUMP JUMPDEST CODESIZE PUSH3 0xE57 JUMP JUMPDEST PUSH3 0xEC2 PUSH3 0x2057 JUMP JUMPDEST PUSH3 0xE51 JUMP JUMPDEST PUSH3 0xED2 PUSH3 0x2057 JUMP JUMPDEST PUSH3 0xDD8 JUMP JUMPDEST PUSH3 0xEE2 PUSH3 0x1126 JUMP JUMPDEST PUSH3 0xDA6 JUMP JUMPDEST POP CALLVALUE PUSH3 0xF JUMPI PUSH1 0x40 CALLDATASIZE PUSH1 0x3 NOT ADD SLT PUSH3 0xF JUMPI PUSH1 0x4 CALLDATALOAD PUSH3 0xF0A DUP2 PUSH3 0x51F JUMP JUMPDEST PUSH1 0x24 CALLDATALOAD DUP1 ISZERO ISZERO DUP2 SUB PUSH3 0xF JUMPI PUSH1 0x1 PUSH1 0x1 PUSH1 0xA0 SHL SUB DUP3 AND SWAP2 CALLER DUP4 EQ PUSH3 0xF9C JUMPI DUP2 PUSH3 0xF59 PUSH3 0xF6A SWAP3 CALLER PUSH1 0x0 MSTORE PUSH1 0x5 PUSH1 0x20 MSTORE PUSH1 0x40 PUSH1 0x0 KECCAK256 SWAP1 PUSH1 0x1 DUP1 PUSH1 0xA0 SHL SUB AND PUSH1 0x0 MSTORE PUSH1 0x20 MSTORE PUSH1 0x40 PUSH1 0x0 KECCAK256 SWAP1 JUMP JUMPDEST SWAP1 PUSH1 0xFF DUP1 NOT DUP4 SLOAD AND SWAP2 ISZERO ISZERO AND OR SWAP1 SSTORE JUMP JUMPDEST PUSH1 0x40 MLOAD SWAP1 ISZERO ISZERO DUP2 MSTORE CALLER SWAP1 PUSH32 0x17307EAB39AB6107E8899845AD3D59BD9653F200F220920489CA2B5937696C31 SWAP1 PUSH1 0x20 SWAP1 LOG3 STOP JUMPDEST PUSH1 0x40 MLOAD PUSH3 0x461BCD PUSH1 0xE5 SHL DUP2 MSTORE PUSH1 0x20 PUSH1 0x4 DUP3 ADD MSTORE PUSH1 0x19 PUSH1 0x24 DUP3 ADD MSTORE PUSH32 0x4552433732313A20617070726F766520746F2063616C6C657200000000000000 PUSH1 0x44 DUP3 ADD MSTORE PUSH1 0x64 SWAP1 REVERT JUMPDEST POP CALLVALUE PUSH3 0xF JUMPI PUSH1 0x20 CALLDATASIZE PUSH1 0x3 NOT ADD SLT PUSH3 0xF JUMPI PUSH3 0x103C PUSH1 0x4 CALLDATALOAD PUSH1 0xB SLOAD DUP2 LT ISZERO PUSH3 0x10DC JUMPI JUMPDEST PUSH1 0xB PUSH1 0x0 MSTORE PUSH32 0x175B7A638427703F0DBE7BB9BBF987A2551717B34E79F33B5B1008D1FA01DB9 ADD SLOAD PUSH1 0x1 PUSH1 0x1 PUSH1 0xA0 SHL SUB AND SWAP1 JUMP JUMPDEST DUP1 BALANCE SWAP1 PUSH3 0x443 PUSH1 0x40 MLOAD PUSH4 0x8DA5CB5B PUSH1 0xE0 SHL DUP2 MSTORE PUSH1 0x20 DUP2 PUSH1 0x4 DUP2 DUP7 GAS STATICCALL SWAP1 DUP2 ISZERO PUSH3 0x10CC JUMPI JUMPDEST PUSH1 0x0 SWAP2 PUSH3 0x1097 JUMPI JUMPDEST POP PUSH1 0x40 DUP1 MLOAD PUSH1 0x1 PUSH1 0x1 PUSH1 0xA0 SHL SUB SWAP5 DUP6 AND DUP2 MSTORE PUSH1 0x20 DUP2 ADD SWAP6 SWAP1 SWAP6 MSTORE SWAP3 AND SWAP2 DUP4 ADD SWAP2 SWAP1 SWAP2 MSTORE DUP2 SWAP1 PUSH1 0x60 DUP3 ADD SWAP1 JUMP JUMPDEST PUSH3 0x10BD SWAP2 POP PUSH1 0x20 RETURNDATASIZE DUP2 GT PUSH3 0x10C4 JUMPI JUMPDEST PUSH3 0x10B4 DUP2 DUP4 PUSH3 0x117E JUMP JUMPDEST DUP2 ADD SWAP1 PUSH3 0x2580 JUMP JUMPDEST CODESIZE PUSH3 0x106B JUMP JUMPDEST POP RETURNDATASIZE PUSH3 0x10A8 JUMP JUMPDEST PUSH3 0x10D6 PUSH3 0x2057 JUMP JUMPDEST PUSH3 0x1062 JUMP JUMPDEST PUSH3 0x10E6 PUSH3 0xAF3 JUMP JUMPDEST PUSH3 0x1008 JUMP JUMPDEST POP CALLVALUE PUSH3 0xF JUMPI PUSH1 0x20 CALLDATASIZE PUSH1 0x3 NOT ADD SLT PUSH3 0xF JUMPI PUSH3 0x443 PUSH3 0x1111 PUSH1 0x4 CALLDATALOAD PUSH3 0x2C8D JUMP JUMPDEST PUSH1 0x40 MLOAD SWAP2 DUP3 SWAP2 PUSH1 0x20 DUP4 MSTORE PUSH1 0x20 DUP4 ADD SWAP1 PUSH3 0x38F JUMP JUMPDEST POP PUSH4 0x4E487B71 PUSH1 0xE0 SHL PUSH1 0x0 MSTORE PUSH1 0x41 PUSH1 0x4 MSTORE PUSH1 0x24 PUSH1 0x0 REVERT JUMPDEST PUSH8 0xFFFFFFFFFFFFFFFF DUP2 GT PUSH3 0x1152 JUMPI PUSH1 0x40 MSTORE JUMP JUMPDEST PUSH3 0x115C PUSH3 0x1126 JUMP JUMPDEST PUSH1 0x40 MSTORE JUMP JUMPDEST PUSH1 0x20 DUP2 ADD SWAP1 DUP2 LT PUSH8 0xFFFFFFFFFFFFFFFF DUP3 GT OR PUSH3 0x1152 JUMPI PUSH1 0x40 MSTORE JUMP JUMPDEST SWAP1 PUSH1 0x1F DUP1 NOT SWAP2 ADD AND DUP2 ADD SWAP1 DUP2 LT PUSH8 0xFFFFFFFFFFFFFFFF DUP3 GT OR PUSH3 0x1152 JUMPI PUSH1 0x40 MSTORE JUMP JUMPDEST PUSH1 0x20 SWAP1 PUSH8 0xFFFFFFFFFFFFFFFF DUP2 GT PUSH3 0x11C0 JUMPI JUMPDEST PUSH1 0x1F ADD PUSH1 0x1F NOT AND ADD SWAP1 JUMP JUMPDEST PUSH3 0x11CA PUSH3 0x1126 JUMP JUMPDEST PUSH3 0x11B5 JUMP JUMPDEST POP CALLVALUE PUSH3 0xF JUMPI PUSH1 0x80 CALLDATASIZE PUSH1 0x3 NOT ADD SLT PUSH3 0xF JUMPI PUSH1 0x4 CALLDATALOAD PUSH3 0x11F2 DUP2 PUSH3 0x51F JUMP JUMPDEST PUSH1 0x24 CALLDATALOAD PUSH3 0x1200 DUP2 PUSH3 0x51F JUMP JUMPDEST PUSH1 0x64 CALLDATALOAD SWAP2 PUSH8 0xFFFFFFFFFFFFFFFF DUP4 GT PUSH3 0xF JUMPI CALLDATASIZE PUSH1 0x23 DUP5 ADD SLT ISZERO PUSH3 0xF JUMPI DUP3 PUSH1 0x4 ADD CALLDATALOAD SWAP2 PUSH3 0x1231 DUP4 PUSH3 0x11A1 JUMP JUMPDEST SWAP3 PUSH3 0x1241 PUSH1 0x40 MLOAD SWAP5 DUP6 PUSH3 0x117E JUMP JUMPDEST DUP1 DUP5 MSTORE CALLDATASIZE PUSH1 0x24 DUP3 DUP8 ADD ADD GT PUSH3 0xF JUMPI PUSH1 0x20 DUP2 PUSH1 0x0 SWAP3 PUSH1 0x24 PUSH3 0x599 SWAP9 ADD DUP4 DUP9 ADD CALLDATACOPY DUP6 ADD ADD MSTORE PUSH1 0x44 CALLDATALOAD SWAP2 PUSH3 0x1B90 JUMP JUMPDEST POP CALLVALUE PUSH3 0xF JUMPI PUSH1 0x20 DUP1 PUSH1 0x3 NOT CALLDATASIZE ADD SLT PUSH3 0xF JUMPI PUSH1 0x4 CALLDATALOAD PUSH1 0x0 DUP2 DUP2 MSTORE PUSH1 0x2 PUSH1 0x20 MSTORE PUSH1 0x40 SWAP1 KECCAK256 SLOAD PUSH3 0x12AE SWAP1 PUSH1 0x1 PUSH1 0x1 PUSH1 0xA0 SHL SUB AND ISZERO ISZERO PUSH3 0x2739 JUMP JUMPDEST PUSH1 0x0 DUP2 DUP2 MSTORE PUSH1 0xD PUSH1 0x20 MSTORE PUSH1 0x40 SWAP1 KECCAK256 PUSH1 0x1 PUSH1 0x1 PUSH1 0xA0 SHL SUB SWAP1 PUSH3 0x12D8 SWAP1 JUMPDEST SLOAD PUSH1 0x1 PUSH1 0x1 PUSH1 0xA0 SHL SUB AND SWAP1 JUMP JUMPDEST AND PUSH1 0x40 SWAP2 PUSH3 0x1320 DUP4 MLOAD PUSH4 0x43FC5593 PUSH1 0xE1 SHL DUP2 MSTORE DUP6 DUP2 DUP1 PUSH3 0x1302 DUP7 PUSH1 0x4 DUP4 ADD SWAP2 SWAP1 PUSH1 0x20 DUP4 ADD SWAP3 MSTORE JUMP JUMPDEST SUB DUP2 DUP8 GAS STATICCALL SWAP1 DUP2 ISZERO PUSH3 0x1737 JUMPI JUMPDEST PUSH1 0x0 SWAP2 PUSH3 0x171C JUMPI JUMPDEST POP PUSH3 0x2655 JUMP JUMPDEST DUP4 MLOAD PUSH4 0x33C71805 PUSH1 0xE1 SHL DUP2 MSTORE PUSH1 0x4 DUP2 ADD DUP4 SWAP1 MSTORE SWAP1 SWAP3 SWAP1 PUSH3 0x135B SWAP1 DUP7 DUP2 PUSH1 0x24 DUP2 DUP7 GAS STATICCALL SWAP1 DUP2 ISZERO PUSH3 0x170C JUMPI JUMPDEST PUSH1 0x0 SWAP2 PUSH3 0x16D8 JUMPI POP PUSH3 0x2655 JUMP JUMPDEST SWAP1 PUSH3 0x1367 SWAP1 PUSH3 0x29A9 JUMP JUMPDEST SWAP2 PUSH3 0x1373 DUP2 PUSH3 0x285B JUMP JUMPDEST SWAP2 DUP6 MLOAD DUP1 SWAP4 DUP9 DUP3 ADD PUSH3 0x139E SWAP1 PUSH1 0x11 SWAP1 PUSH17 0x6672656E20706F6F6C2073686172652023 PUSH1 0x78 SHL DUP2 MSTORE ADD SWAP1 JUMP JUMPDEST PUSH3 0x13A9 SWAP2 PUSH3 0x2604 JUMP JUMPDEST SUB SWAP5 PUSH1 0x1F NOT SWAP6 DUP7 DUP2 ADD DUP6 MSTORE PUSH3 0x13C0 SWAP1 DUP6 PUSH3 0x117E JUMP JUMPDEST DUP7 MLOAD SWAP5 DUP6 DUP10 DUP2 ADD PUSH3 0x13F6 SWAP1 PUSH1 0x1B SWAP1 PUSH32 0x74686973206672656E206861732061206465706F736974206F66200000000000 DUP2 MSTORE ADD SWAP1 JUMP JUMPDEST PUSH3 0x1402 SWAP1 DUP5 PUSH3 0x2604 JUMP JUMPDEST PUSH13 0x1022BA341034B7103837B7B61 PUSH1 0x9D SHL DUP2 MSTORE PUSH1 0xD ADD PUSH3 0x1424 SWAP1 DUP4 PUSH3 0x2604 JUMP JUMPDEST PUSH32 0x207769746820636C61696D61626C652062616C616E6365206F66200000000000 DUP2 MSTORE PUSH1 0x1B ADD PUSH3 0x1456 SWAP1 DUP6 PUSH3 0x2604 JUMP JUMPDEST PUSH4 0x408AE8D PUSH1 0xE3 SHL DUP2 MSTORE PUSH1 0x4 ADD SUB DUP8 DUP2 ADD DUP8 MSTORE PUSH3 0x1475 SWAP1 DUP8 PUSH3 0x117E JUMP JUMPDEST PUSH3 0x1480 DUP5 PUSH3 0x2BEB JUMP JUMPDEST PUSH3 0x148B SWAP1 PUSH3 0x2AF0 JUMP JUMPDEST SWAP4 PUSH3 0x1497 SWAP1 PUSH3 0x285B JUMP JUMPDEST DUP9 MLOAD PUSH9 0x3D913730B6B2911D11 PUSH1 0xB9 SHL DUP12 DUP3 ADD SWAP1 DUP2 MSTORE SWAP1 SWAP8 DUP9 SWAP8 SWAP1 SWAP2 PUSH1 0x9 ADD PUSH3 0x14C0 SWAP2 PUSH3 0x2604 JUMP JUMPDEST PUSH18 0x111610113232B9B1B934B83A34B7B7111D11 PUSH1 0x71 SHL DUP2 MSTORE PUSH1 0x12 ADD PUSH3 0x14E6 SWAP2 PUSH3 0x2604 JUMP JUMPDEST PUSH32 0x222C202265787465726E616C5F75726C223A2268747470733A2F2F6672656E73 DUP2 MSTORE PUSH11 0x2E66756E2F746F6B656E2F PUSH1 0xA8 SHL PUSH1 0x20 DUP3 ADD MSTORE PUSH1 0x2B ADD PUSH3 0x152B SWAP2 PUSH3 0x2604 JUMP JUMPDEST PUSH32 0x222C202261747472696275746573223A205B7B2274726169745F74797065223A DUP2 MSTORE PUSH18 0x10113837B7B6111610113B30B63AB2911D11 PUSH1 0x71 SHL PUSH1 0x20 DUP3 ADD MSTORE PUSH1 0x32 ADD PUSH3 0x1577 SWAP2 PUSH3 0x2604 JUMP JUMPDEST PUSH32 0x227D2C7B2274726169745F74797065223A20226465706F736974222C20227661 DUP2 MSTORE PUSH7 0x363AB2911D1011 PUSH1 0xC9 SHL PUSH1 0x20 DUP3 ADD MSTORE PUSH1 0x27 ADD PUSH3 0x15B8 SWAP2 PUSH3 0x2604 JUMP JUMPDEST PUSH4 0x408AE8D PUSH1 0xE3 SHL DUP2 MSTORE PUSH1 0x4 ADD PUSH32 0x227D2C7B2274726169745F74797065223A2022636C61696D61626C65222C2022 DUP2 MSTORE PUSH9 0x3B30B63AB2911D1011 PUSH1 0xB9 SHL PUSH1 0x20 DUP3 ADD MSTORE PUSH1 0x29 ADD PUSH3 0x1608 SWAP2 PUSH3 0x2604 JUMP JUMPDEST PUSH19 0x1022BA34113EAE96101134B6B0B3B2911D1011 PUSH1 0x69 SHL DUP2 MSTORE PUSH1 0x13 ADD PUSH32 0x646174613A696D6167652F7376672B786D6C3B6261736536342C000000000000 DUP2 MSTORE PUSH1 0x1A ADD PUSH3 0x1655 SWAP2 PUSH3 0x2604 JUMP JUMPDEST PUSH2 0x227D PUSH1 0xF0 SHL DUP2 MSTORE PUSH1 0x2 ADD SUB DUP3 DUP2 ADD DUP3 MSTORE PUSH3 0x1672 SWAP1 DUP3 PUSH3 0x117E JUMP JUMPDEST PUSH3 0x167D SWAP1 PUSH3 0x2AF0 JUMP JUMPDEST DUP3 MLOAD PUSH32 0x646174613A6170706C69636174696F6E2F6A736F6E3B6261736536342C000000 SWAP5 DUP2 ADD SWAP5 DUP6 MSTORE SWAP4 DUP5 SWAP2 SWAP1 PUSH1 0x1D ADD PUSH3 0x16B8 SWAP2 PUSH3 0x2604 JUMP JUMPDEST SUB SWAP1 DUP2 ADD DUP4 MSTORE PUSH3 0x16CA SWAP1 DUP4 PUSH3 0x117E JUMP JUMPDEST MLOAD PUSH3 0x443 DUP2 SWAP3 DUP3 PUSH3 0x3B6 JUMP JUMPDEST PUSH3 0x16FD SWAP2 POP DUP8 RETURNDATASIZE DUP10 GT PUSH3 0x1704 JUMPI JUMPDEST PUSH3 0x16F4 DUP2 DUP4 PUSH3 0x117E JUMP JUMPDEST DUP2 ADD SWAP1 PUSH3 0x2772 JUMP JUMPDEST CODESIZE PUSH3 0x1319 JUMP JUMPDEST POP RETURNDATASIZE PUSH3 0x16E8 JUMP JUMPDEST PUSH3 0x1716 PUSH3 0x2057 JUMP JUMPDEST PUSH3 0x134C JUMP JUMPDEST PUSH3 0x16FD SWAP2 POP DUP7 RETURNDATASIZE DUP9 GT PUSH3 0x1704 JUMPI PUSH3 0x16F4 DUP2 DUP4 PUSH3 0x117E JUMP JUMPDEST PUSH3 0x1741 PUSH3 0x2057 JUMP JUMPDEST PUSH3 0x1310 JUMP JUMPDEST POP CALLVALUE PUSH3 0xF JUMPI PUSH1 0x40 CALLDATASIZE PUSH1 0x3 NOT ADD SLT PUSH3 0xF JUMPI PUSH1 0x20 PUSH1 0xFF PUSH3 0x17AB PUSH1 0x4 CALLDATALOAD PUSH3 0x1771 DUP2 PUSH3 0x51F JUMP JUMPDEST PUSH1 0x24 CALLDATALOAD SWAP1 PUSH3 0x1780 DUP3 PUSH3 0x51F JUMP JUMPDEST PUSH1 0x1 DUP1 PUSH1 0xA0 SHL SUB AND PUSH1 0x0 MSTORE PUSH1 0x5 DUP5 MSTORE PUSH1 0x40 PUSH1 0x0 KECCAK256 SWAP1 PUSH1 0x1 DUP1 PUSH1 0xA0 SHL SUB AND PUSH1 0x0 MSTORE PUSH1 0x20 MSTORE PUSH1 0x40 PUSH1 0x0 KECCAK256 SWAP1 JUMP JUMPDEST SLOAD AND PUSH1 0x40 MLOAD SWAP1 ISZERO ISZERO DUP2 MSTORE RETURN JUMPDEST POP CALLVALUE PUSH3 0xF JUMPI PUSH1 0x20 CALLDATASIZE PUSH1 0x3 NOT ADD SLT PUSH3 0xF JUMPI PUSH3 0x443 PUSH3 0x1111 PUSH1 0x4 CALLDATALOAD PUSH3 0x2655 JUMP JUMPDEST POP CALLVALUE PUSH3 0xF JUMPI PUSH1 0x20 CALLDATASIZE PUSH1 0x3 NOT ADD SLT PUSH3 0xF JUMPI PUSH1 0x4 CALLDATALOAD PUSH3 0x17FE DUP2 PUSH3 0x51F JUMP JUMPDEST PUSH1 0xA SLOAD PUSH1 0x1 PUSH1 0x1 PUSH1 0xA0 SHL SUB SWAP1 PUSH3 0x1819 SWAP1 DUP3 AND CALLER EQ PUSH3 0x1880 JUMP JUMPDEST DUP2 AND ISZERO PUSH3 0x182C JUMPI PUSH3 0x599 SWAP1 PUSH3 0x18CC JUMP JUMPDEST PUSH1 0x40 MLOAD PUSH3 0x461BCD PUSH1 0xE5 SHL DUP2 MSTORE PUSH1 0x20 PUSH1 0x4 DUP3 ADD MSTORE PUSH1 0x26 PUSH1 0x24 DUP3 ADD MSTORE PUSH32 0x4F776E61626C653A206E6577206F776E657220697320746865207A65726F2061 PUSH1 0x44 DUP3 ADD MSTORE PUSH6 0x646472657373 PUSH1 0xD0 SHL PUSH1 0x64 DUP3 ADD MSTORE PUSH1 0x84 SWAP1 REVERT JUMPDEST ISZERO PUSH3 0x1888 JUMPI JUMP JUMPDEST PUSH1 0x64 PUSH1 0x40 MLOAD PUSH3 0x461BCD PUSH1 0xE5 SHL DUP2 MSTORE PUSH1 0x20 PUSH1 0x4 DUP3 ADD MSTORE PUSH1 0x20 PUSH1 0x24 DUP3 ADD MSTORE PUSH32 0x4F776E61626C653A2063616C6C6572206973206E6F7420746865206F776E6572 PUSH1 0x44 DUP3 ADD MSTORE REVERT JUMPDEST PUSH1 0xA SLOAD SWAP1 PUSH1 0x1 DUP1 PUSH1 0xA0 SHL SUB DUP1 SWAP2 AND SWAP2 DUP3 PUSH12 0xFFFFFFFFFFFFFFFFFFFFFFFF PUSH1 0xA0 SHL DUP3 AND OR PUSH1 0xA SSTORE AND PUSH32 0x8BE0079C531659141344CD1FD0A4F28419497F9722A3DAAFE3B4186F6B6457E0 PUSH1 0x0 PUSH1 0x40 MLOAD LOG3 JUMP JUMPDEST PUSH1 0x1 PUSH1 0x1 PUSH1 0xA0 SHL SUB AND DUP1 ISZERO PUSH3 0x193D JUMPI PUSH1 0x0 MSTORE PUSH1 0x3 PUSH1 0x20 MSTORE PUSH1 0x40 PUSH1 0x0 KECCAK256 SLOAD SWAP1 JUMP JUMPDEST PUSH1 0x40 MLOAD PUSH3 0x461BCD PUSH1 0xE5 SHL DUP2 MSTORE PUSH1 0x20 PUSH1 0x4 DUP3 ADD MSTORE PUSH1 0x2A PUSH1 0x24 DUP3 ADD MSTORE PUSH32 0x4552433732313A2062616C616E636520717565727920666F7220746865207A65 PUSH1 0x44 DUP3 ADD MSTORE PUSH10 0x726F2061646472657373 PUSH1 0xB0 SHL PUSH1 0x64 DUP3 ADD MSTORE PUSH1 0x84 SWAP1 REVERT JUMPDEST PUSH1 0x0 SWAP1 DUP2 MSTORE PUSH1 0x2 PUSH1 0x20 MSTORE PUSH1 0x40 SWAP1 KECCAK256 SLOAD PUSH1 0x1 PUSH1 0x1 PUSH1 0xA0 SHL SUB AND DUP1 ISZERO PUSH3 0x19B7 JUMPI SWAP1 JUMP JUMPDEST PUSH1 0x40 MLOAD PUSH3 0x461BCD PUSH1 0xE5 SHL DUP2 MSTORE PUSH1 0x20 PUSH1 0x4 DUP3 ADD MSTORE PUSH1 0x29 PUSH1 0x24 DUP3 ADD MSTORE PUSH32 0x4552433732313A206F776E657220717565727920666F72206E6F6E6578697374 PUSH1 0x44 DUP3 ADD MSTORE PUSH9 0x32B73A103A37B5B2B7 PUSH1 0xB9 SHL PUSH1 0x64 DUP3 ADD MSTORE PUSH1 0x84 SWAP1 REVERT JUMPDEST ISZERO PUSH3 0x1A16 JUMPI JUMP JUMPDEST PUSH1 0x40 MLOAD PUSH3 0x461BCD PUSH1 0xE5 SHL DUP2 MSTORE PUSH1 0x20 PUSH1 0x4 DUP3 ADD MSTORE PUSH1 0x38 PUSH1 0x24 DUP3 ADD MSTORE PUSH32 0x4552433732313A20617070726F76652063616C6C6572206973206E6F74206F77 PUSH1 0x44 DUP3 ADD MSTORE PUSH32 0x6E6572206E6F7220617070726F76656420666F7220616C6C0000000000000000 PUSH1 0x64 DUP3 ADD MSTORE PUSH1 0x84 SWAP1 REVERT JUMPDEST PUSH1 0x0 DUP2 DUP2 MSTORE PUSH1 0x2 PUSH1 0x20 MSTORE PUSH1 0x40 SWAP1 KECCAK256 SLOAD PUSH1 0x1 PUSH1 0x1 PUSH1 0xA0 SHL SUB AND ISZERO PUSH3 0x1ABA JUMPI PUSH1 0x0 SWAP1 DUP2 MSTORE PUSH1 0x4 PUSH1 0x20 MSTORE PUSH1 0x40 SWAP1 KECCAK256 SLOAD PUSH1 0x1 PUSH1 0x1 PUSH1 0xA0 SHL SUB AND SWAP1 JUMP JUMPDEST PUSH1 0x40 MLOAD PUSH3 0x461BCD PUSH1 0xE5 SHL DUP2 MSTORE PUSH1 0x20 PUSH1 0x4 DUP3 ADD MSTORE PUSH1 0x2C PUSH1 0x24 DUP3 ADD MSTORE PUSH32 0x4552433732313A20617070726F76656420717565727920666F72206E6F6E6578 PUSH1 0x44 DUP3 ADD MSTORE PUSH12 0x34B9BA32B73A103A37B5B2B7 PUSH1 0xA1 SHL PUSH1 0x64 DUP3 ADD MSTORE PUSH1 0x84 SWAP1 REVERT JUMPDEST ISZERO PUSH3 0x1B1C JUMPI JUMP JUMPDEST PUSH1 0x40 MLOAD PUSH3 0x461BCD PUSH1 0xE5 SHL DUP2 MSTORE PUSH1 0x20 PUSH1 0x4 DUP3 ADD MSTORE PUSH1 0x31 PUSH1 0x24 DUP3 ADD MSTORE PUSH32 0x4552433732313A207472616E736665722063616C6C6572206973206E6F74206F PUSH1 0x44 DUP3 ADD MSTORE PUSH17 0x1DDB995C881B9BDC88185C1C1C9BDD9959 PUSH1 0x7A SHL PUSH1 0x64 DUP3 ADD MSTORE PUSH1 0x84 SWAP1 REVERT JUMPDEST PUSH1 0x40 MLOAD SWAP1 PUSH3 0x1B8A DUP3 PUSH3 0x1161 JUMP JUMPDEST PUSH1 0x0 DUP3 MSTORE JUMP JUMPDEST SWAP2 PUSH3 0x1BBF SWAP4 SWAP2 PUSH3 0x7DB SWAP4 PUSH3 0x1BAC PUSH3 0x8A4 DUP5 CALLER PUSH3 0x1C3B JUMP JUMPDEST PUSH3 0x1BB9 DUP4 DUP4 DUP4 PUSH3 0x1DE7 JUMP JUMPDEST PUSH3 0x216B JUMP JUMPDEST JUMP JUMPDEST PUSH1 0x80 SWAP1 PUSH1 0x20 DUP2 MSTORE PUSH1 0x32 PUSH1 0x20 DUP3 ADD MSTORE PUSH32 0x4552433732313A207472616E7366657220746F206E6F6E204552433732315265 PUSH1 0x40 DUP3 ADD MSTORE PUSH18 0x31B2B4BB32B91034B6B83632B6B2B73A32B9 PUSH1 0x71 SHL PUSH1 0x60 DUP3 ADD MSTORE ADD SWAP1 JUMP JUMPDEST ISZERO PUSH3 0x1C1C JUMPI JUMP JUMPDEST PUSH1 0x40 MLOAD PUSH3 0x461BCD PUSH1 0xE5 SHL DUP2 MSTORE DUP1 PUSH3 0x1C37 PUSH1 0x4 DUP3 ADD PUSH3 0x1BC1 JUMP JUMPDEST SUB SWAP1 REVERT JUMPDEST PUSH1 0x0 DUP3 DUP2 MSTORE PUSH1 0x2 PUSH1 0x20 MSTORE PUSH1 0x40 SWAP1 KECCAK256 SLOAD PUSH1 0x1 PUSH1 0x1 PUSH1 0xA0 SHL SUB AND ISZERO PUSH3 0x1CD6 JUMPI PUSH3 0x1C64 DUP3 PUSH3 0x1995 JUMP JUMPDEST PUSH1 0x1 PUSH1 0x1 PUSH1 0xA0 SHL SUB DUP3 DUP2 AND DUP3 DUP3 AND DUP2 EQ SWAP5 SWAP1 SWAP2 SWAP1 DUP6 ISZERO PUSH3 0x1CBB JUMPI JUMPDEST POP POP POP DUP3 ISZERO PUSH3 0x1C8F JUMPI POP POP SWAP1 JUMP JUMPDEST PUSH1 0x1 PUSH1 0x1 PUSH1 0xA0 SHL SUB AND PUSH1 0x0 SWAP1 DUP2 MSTORE PUSH1 0x5 PUSH1 0x20 MSTORE PUSH1 0x40 SWAP1 KECCAK256 PUSH1 0xFF SWAP3 POP PUSH3 0x1CB6 SWAP2 SWAP1 PUSH3 0x5C0 JUMP JUMPDEST SLOAD AND SWAP1 JUMP JUMPDEST PUSH3 0x1CCA SWAP2 SWAP3 SWAP4 SWAP6 POP PUSH3 0x1A81 JUMP JUMPDEST AND EQ SWAP2 CODESIZE DUP1 DUP1 PUSH3 0x1C80 JUMP JUMPDEST PUSH1 0x40 MLOAD PUSH3 0x461BCD PUSH1 0xE5 SHL DUP2 MSTORE PUSH1 0x20 PUSH1 0x4 DUP3 ADD MSTORE PUSH1 0x2C PUSH1 0x24 DUP3 ADD MSTORE PUSH32 0x4552433732313A206F70657261746F7220717565727920666F72206E6F6E6578 PUSH1 0x44 DUP3 ADD MSTORE PUSH12 0x34B9BA32B73A103A37B5B2B7 PUSH1 0xA1 SHL PUSH1 0x64 DUP3 ADD MSTORE PUSH1 0x84 SWAP1 REVERT JUMPDEST ISZERO PUSH3 0x1D38 JUMPI JUMP JUMPDEST PUSH1 0x40 MLOAD PUSH3 0x461BCD PUSH1 0xE5 SHL DUP2 MSTORE PUSH1 0x20 PUSH1 0x4 DUP3 ADD MSTORE PUSH1 0x24 DUP1 DUP3 ADD MSTORE PUSH32 0x4552433732313A207472616E7366657220746F20746865207A65726F20616464 PUSH1 0x44 DUP3 ADD MSTORE PUSH4 0x72657373 PUSH1 0xE0 SHL PUSH1 0x64 DUP3 ADD MSTORE PUSH1 0x84 SWAP1 REVERT JUMPDEST POP PUSH4 0x4E487B71 PUSH1 0xE0 SHL PUSH1 0x0 MSTORE PUSH1 0x11 PUSH1 0x4 MSTORE PUSH1 0x24 PUSH1 0x0 REVERT JUMPDEST PUSH1 0x0 NOT DUP2 ADD SWAP2 SWAP1 DUP3 GT PUSH3 0x1DB0 JUMPI JUMP JUMPDEST PUSH3 0x1BBF PUSH3 0x1D89 JUMP JUMPDEST SWAP1 PUSH1 0x1 DUP3 ADD DUP1 SWAP3 GT PUSH3 0x1DB0 JUMPI JUMP JUMPDEST SWAP1 PUSH1 0x2 DUP3 ADD DUP1 SWAP3 GT PUSH3 0x1DB0 JUMPI JUMP JUMPDEST SWAP1 PUSH1 0x20 DUP3 ADD DUP1 SWAP3 GT PUSH3 0x1DB0 JUMPI JUMP JUMPDEST SWAP1 PUSH3 0x1DF3 DUP4 PUSH3 0x1995 JUMP JUMPDEST PUSH1 0x1 PUSH1 0x1 PUSH1 0xA0 SHL SUB DUP4 DUP2 AND SWAP3 SWAP1 SWAP2 DUP3 AND DUP4 SWAP1 SUB PUSH3 0x1EC8 JUMPI PUSH3 0x1E56 PUSH3 0x1E9F SWAP3 DUP3 AND SWAP5 PUSH3 0x1E24 DUP7 ISZERO ISZERO PUSH3 0x1D30 JUMP JUMPDEST PUSH3 0x1E31 DUP8 DUP5 DUP4 PUSH3 0x21DC JUMP JUMPDEST PUSH3 0x1E3C DUP8 PUSH3 0x1F1F JUMP JUMPDEST PUSH1 0x1 PUSH1 0x1 PUSH1 0xA0 SHL SUB AND PUSH1 0x0 SWAP1 DUP2 MSTORE PUSH1 0x3 PUSH1 0x20 MSTORE PUSH1 0x40 SWAP1 KECCAK256 SWAP1 JUMP JUMPDEST PUSH3 0x1E62 DUP2 SLOAD PUSH3 0x1DA0 JUMP JUMPDEST SWAP1 SSTORE PUSH1 0x1 PUSH1 0x1 PUSH1 0xA0 SHL SUB DUP2 AND PUSH1 0x0 SWAP1 DUP2 MSTORE PUSH1 0x3 PUSH1 0x20 MSTORE PUSH1 0x40 SWAP1 KECCAK256 PUSH3 0x1E88 DUP2 SLOAD PUSH3 0x1DBA JUMP JUMPDEST SWAP1 SSTORE PUSH3 0x790 DUP6 PUSH1 0x0 MSTORE PUSH1 0x2 PUSH1 0x20 MSTORE PUSH1 0x40 PUSH1 0x0 KECCAK256 SWAP1 JUMP JUMPDEST PUSH32 0xDDF252AD1BE2C89B69C2B068FC378DAA952BA7F163C4A11628F55A4DF523B3EF PUSH1 0x0 PUSH1 0x40 MLOAD LOG4 JUMP JUMPDEST PUSH1 0x40 MLOAD PUSH3 0x461BCD PUSH1 0xE5 SHL DUP2 MSTORE PUSH1 0x20 PUSH1 0x4 DUP3 ADD MSTORE PUSH1 0x29 PUSH1 0x24 DUP3 ADD MSTORE PUSH32 0x4552433732313A207472616E73666572206F6620746F6B656E20746861742069 PUSH1 0x44 DUP3 ADD MSTORE PUSH9 0x39903737BA1037BBB7 PUSH1 0xB9 SHL PUSH1 0x64 DUP3 ADD MSTORE PUSH1 0x84 SWAP1 REVERT JUMPDEST PUSH1 0x0 DUP2 DUP2 MSTORE PUSH1 0x4 PUSH1 0x20 MSTORE PUSH1 0x40 DUP2 KECCAK256 DUP1 SLOAD PUSH1 0x1 PUSH1 0x1 PUSH1 0xA0 SHL SUB NOT AND SWAP1 SSTORE PUSH1 0x1 PUSH1 0x1 PUSH1 0xA0 SHL SUB PUSH3 0x1F4E DUP4 PUSH3 0x1995 JUMP JUMPDEST AND PUSH32 0x8C5BE1E5EBEC7D5BD14F71427D1E84F3DD0314C0F7B2291E5B200AC8C7C3B925 DUP3 PUSH1 0x40 MLOAD LOG4 JUMP JUMPDEST PUSH1 0x0 DUP3 DUP2 MSTORE PUSH1 0x4 PUSH1 0x20 MSTORE PUSH1 0x40 SWAP1 KECCAK256 DUP1 SLOAD PUSH1 0x1 PUSH1 0x1 PUSH1 0xA0 SHL SUB NOT AND PUSH1 0x1 PUSH1 0x1 PUSH1 0xA0 SHL SUB DUP4 AND OR SWAP1 SSTORE PUSH1 0x1 PUSH1 0x1 PUSH1 0xA0 SHL SUB DUP1 PUSH3 0x1FB2 DUP5 PUSH3 0x1995 JUMP JUMPDEST AND SWAP2 AND SWAP1 PUSH32 0x8C5BE1E5EBEC7D5BD14F71427D1E84F3DD0314C0F7B2291E5B200AC8C7C3B925 PUSH1 0x0 PUSH1 0x40 MLOAD LOG4 JUMP JUMPDEST SWAP1 DUP2 PUSH1 0x20 SWAP2 SUB SLT PUSH3 0xF JUMPI MLOAD PUSH3 0x3C9 DUP2 PUSH3 0x2B8 JUMP JUMPDEST PUSH3 0x3C9 SWAP4 SWAP3 PUSH1 0x80 SWAP3 PUSH1 0x1 DUP1 PUSH1 0xA0 SHL SUB AND DUP3 MSTORE PUSH1 0x0 PUSH1 0x20 DUP4 ADD MSTORE PUSH1 0x40 DUP3 ADD MSTORE DUP2 PUSH1 0x60 DUP3 ADD MSTORE ADD SWAP1 PUSH3 0x38F JUMP JUMPDEST PUSH1 0x1 PUSH1 0x1 PUSH1 0xA0 SHL SUB SWAP2 DUP3 AND DUP2 MSTORE SWAP2 AND PUSH1 0x20 DUP3 ADD MSTORE PUSH1 0x40 DUP2 ADD SWAP2 SWAP1 SWAP2 MSTORE PUSH1 0x80 PUSH1 0x60 DUP3 ADD DUP2 SWAP1 MSTORE PUSH3 0x3C9 SWAP3 SWAP2 ADD SWAP1 PUSH3 0x38F JUMP JUMPDEST POP PUSH1 0x40 MLOAD RETURNDATASIZE PUSH1 0x0 DUP3 RETURNDATACOPY RETURNDATASIZE SWAP1 REVERT JUMPDEST RETURNDATASIZE ISZERO PUSH3 0x2094 JUMPI RETURNDATASIZE SWAP1 PUSH3 0x2078 DUP3 PUSH3 0x11A1 JUMP JUMPDEST SWAP2 PUSH3 0x2088 PUSH1 0x40 MLOAD SWAP4 DUP5 PUSH3 0x117E JUMP JUMPDEST DUP3 MSTORE RETURNDATASIZE PUSH1 0x0 PUSH1 0x20 DUP5 ADD RETURNDATACOPY JUMP JUMPDEST PUSH1 0x60 SWAP1 JUMP JUMPDEST SWAP1 SWAP2 SWAP1 DUP1 EXTCODESIZE ISZERO PUSH3 0x2163 JUMPI PUSH3 0x20CE PUSH1 0x20 SWAP2 PUSH1 0x0 SWAP4 PUSH1 0x40 MLOAD SWAP5 DUP6 DUP1 SWAP5 DUP2 SWAP4 PUSH4 0xA85BD01 PUSH1 0xE1 SHL SWAP10 DUP11 DUP5 MSTORE CALLER PUSH1 0x4 DUP6 ADD PUSH3 0x1FF7 JUMP JUMPDEST SUB SWAP3 PUSH1 0x1 PUSH1 0x1 PUSH1 0xA0 SHL SUB AND GAS CALL PUSH1 0x0 SWAP2 DUP2 PUSH3 0x212C JUMPI JUMPDEST POP PUSH3 0x211E JUMPI PUSH3 0x20F5 PUSH3 0x2064 JUMP JUMPDEST DUP1 MLOAD SWAP1 DUP2 PUSH3 0x2119 JUMPI PUSH1 0x40 MLOAD PUSH3 0x461BCD PUSH1 0xE5 SHL DUP2 MSTORE DUP1 PUSH3 0x1C37 PUSH1 0x4 DUP3 ADD PUSH3 0x1BC1 JUMP JUMPDEST PUSH1 0x20 ADD REVERT JUMPDEST PUSH1 0x1 PUSH1 0x1 PUSH1 0xE0 SHL SUB NOT AND EQ SWAP1 JUMP JUMPDEST PUSH3 0x2153 SWAP2 SWAP3 POP PUSH1 0x20 RETURNDATASIZE DUP2 GT PUSH3 0x215B JUMPI JUMPDEST PUSH3 0x214A DUP2 DUP4 PUSH3 0x117E JUMP JUMPDEST DUP2 ADD SWAP1 PUSH3 0x1FDF JUMP JUMPDEST SWAP1 CODESIZE PUSH3 0x20E5 JUMP JUMPDEST POP RETURNDATASIZE PUSH3 0x213E JUMP JUMPDEST POP POP POP PUSH1 0x1 SWAP1 JUMP JUMPDEST SWAP3 SWAP1 SWAP2 SWAP1 DUP3 EXTCODESIZE ISZERO PUSH3 0x21A1 JUMPI PUSH3 0x20CE SWAP3 PUSH1 0x20 SWAP3 PUSH1 0x0 PUSH1 0x40 MLOAD DUP1 SWAP7 DUP2 SWAP6 DUP3 SWAP5 PUSH4 0xA85BD01 PUSH1 0xE1 SHL SWAP11 DUP12 DUP6 MSTORE CALLER PUSH1 0x4 DUP7 ADD PUSH3 0x2024 JUMP JUMPDEST POP POP POP POP PUSH1 0x1 SWAP1 JUMP JUMPDEST SWAP1 PUSH3 0x21B6 DUP2 PUSH3 0x2353 JUMP JUMPDEST PUSH1 0x1 PUSH1 0x1 PUSH1 0xA0 SHL SUB DUP3 AND PUSH3 0x21D1 JUMPI PUSH3 0x1BBF SWAP2 POP PUSH3 0x23CF JUMP JUMPDEST PUSH3 0x1BBF SWAP2 PUSH3 0x2319 JUMP JUMPDEST SWAP1 SWAP2 SWAP1 PUSH1 0x1 PUSH1 0x1 PUSH1 0xA0 SHL SUB DUP1 DUP3 AND SWAP2 DUP3 PUSH3 0x221D JUMPI POP PUSH3 0x21FD DUP4 PUSH3 0x2353 JUMP JUMPDEST DUP4 AND DUP1 PUSH3 0x2213 JUMPI POP POP PUSH3 0x1BBF SWAP2 POP PUSH3 0x23CF JUMP JUMPDEST SUB PUSH3 0x21D1 JUMPI POP POP JUMP JUMPDEST DUP2 DUP6 AND DUP4 SUB PUSH3 0x222F JUMPI JUMPDEST POP PUSH3 0x21FD JUMP JUMPDEST PUSH3 0x22AA PUSH3 0x223E DUP3 PUSH3 0x191C JUMP JUMPDEST PUSH1 0x0 NOT DUP2 ADD SWAP1 DUP2 GT PUSH3 0x2309 JUMPI JUMPDEST PUSH3 0x229B PUSH1 0x0 SWAP4 DUP8 DUP6 MSTORE PUSH1 0x7 PUSH1 0x20 MSTORE PUSH1 0x40 DUP6 KECCAK256 SLOAD DUP4 DUP2 SUB PUSH3 0x22B2 JUMPI JUMPDEST POP DUP5 PUSH3 0x2280 DUP10 PUSH1 0x0 MSTORE PUSH1 0x7 PUSH1 0x20 MSTORE PUSH1 0x40 PUSH1 0x0 KECCAK256 SWAP1 JUMP JUMPDEST SSTORE PUSH1 0x1 PUSH1 0x1 PUSH1 0xA0 SHL SUB AND PUSH1 0x0 SWAP1 DUP2 MSTORE PUSH1 0x6 PUSH1 0x20 MSTORE PUSH1 0x40 SWAP1 KECCAK256 SWAP1 JUMP JUMPDEST SWAP1 PUSH1 0x0 MSTORE PUSH1 0x20 MSTORE PUSH1 0x40 PUSH1 0x0 KECCAK256 SWAP1 JUMP JUMPDEST SSTORE CODESIZE PUSH3 0x2228 JUMP JUMPDEST DUP8 DUP7 MSTORE PUSH1 0x6 PUSH1 0x20 MSTORE PUSH1 0x40 DUP7 KECCAK256 DUP5 DUP8 MSTORE PUSH1 0x20 MSTORE PUSH3 0x2301 PUSH1 0x40 DUP8 KECCAK256 SLOAD DUP1 PUSH3 0x22F0 DUP5 PUSH3 0x229B DUP8 PUSH1 0x1 DUP1 PUSH1 0xA0 SHL SUB AND PUSH1 0x0 MSTORE PUSH1 0x6 PUSH1 0x20 MSTORE PUSH1 0x40 PUSH1 0x0 KECCAK256 SWAP1 JUMP JUMPDEST SSTORE PUSH1 0x0 MSTORE PUSH1 0x7 PUSH1 0x20 MSTORE PUSH1 0x40 PUSH1 0x0 KECCAK256 SWAP1 JUMP JUMPDEST SSTORE CODESIZE PUSH3 0x2269 JUMP JUMPDEST PUSH3 0x2313 PUSH3 0x1D89 JUMP JUMPDEST PUSH3 0x224C JUMP JUMPDEST PUSH1 0x40 SWAP1 PUSH3 0x2327 DUP2 PUSH3 0x191C JUMP JUMPDEST SWAP3 PUSH1 0x0 SWAP2 PUSH1 0x1 DUP1 PUSH1 0xA0 SHL SUB AND DUP3 MSTORE PUSH1 0x6 PUSH1 0x20 MSTORE DUP3 DUP3 KECCAK256 DUP5 DUP4 MSTORE PUSH1 0x20 MSTORE DUP1 DUP4 DUP4 KECCAK256 SSTORE DUP2 MSTORE PUSH1 0x7 PUSH1 0x20 MSTORE KECCAK256 SSTORE JUMP JUMPDEST PUSH1 0x8 SLOAD DUP2 PUSH1 0x0 MSTORE PUSH1 0x9 PUSH1 0x20 MSTORE DUP1 PUSH1 0x40 PUSH1 0x0 KECCAK256 SSTORE PUSH1 0x1 PUSH1 0x40 SHL DUP2 LT ISZERO PUSH3 0x23BF JUMPI JUMPDEST PUSH1 0x1 DUP2 ADD DUP1 PUSH1 0x8 SSTORE DUP2 LT ISZERO PUSH3 0x23AF JUMPI JUMPDEST PUSH1 0x8 PUSH1 0x0 MSTORE PUSH32 0xF3F7A9FE364FAAB93B216DA50A3214154F22A0A2B415B23A84C8169E8B636EE3 ADD SSTORE JUMP JUMPDEST PUSH3 0x23B9 PUSH3 0xAF3 JUMP JUMPDEST PUSH3 0x2385 JUMP JUMPDEST PUSH3 0x23C9 PUSH3 0x1126 JUMP JUMPDEST PUSH3 0x2374 JUMP JUMPDEST PUSH1 0x8 DUP1 SLOAD PUSH1 0x0 NOT SWAP3 SWAP1 DUP4 DUP2 ADD DUP2 DUP2 GT PUSH3 0x24E8 JUMPI JUMPDEST PUSH3 0x2484 PUSH1 0x0 SWAP4 DUP5 SWAP3 DUP2 DUP5 MSTORE PUSH1 0x9 PUSH1 0x20 MSTORE DUP5 PUSH1 0x40 DUP6 KECCAK256 SLOAD SWAP2 LT ISZERO PUSH3 0x24D8 JUMPI JUMPDEST DUP7 DUP5 MSTORE PUSH3 0x2473 PUSH32 0xF3F7A9FE364FAAB93B216DA50A3214154F22A0A2B415B23A84C8169E8B636EE2 SWAP6 DUP7 DUP2 ADD SLOAD SWAP1 DUP4 LT ISZERO PUSH3 0x24C8 JUMPI JUMPDEST DUP9 DUP7 MSTORE DUP1 DUP4 PUSH32 0xF3F7A9FE364FAAB93B216DA50A3214154F22A0A2B415B23A84C8169E8B636EE3 ADD SSTORE PUSH1 0x0 MSTORE PUSH1 0x9 PUSH1 0x20 MSTORE PUSH1 0x40 PUSH1 0x0 KECCAK256 SWAP1 JUMP JUMPDEST SSTORE PUSH1 0x0 MSTORE PUSH1 0x9 PUSH1 0x20 MSTORE PUSH1 0x40 PUSH1 0x0 KECCAK256 SWAP1 JUMP JUMPDEST SSTORE DUP3 SLOAD SWAP4 DUP5 ISZERO PUSH3 0x24B4 JUMPI DUP5 ADD SWAP4 DUP1 DUP6 LT ISZERO PUSH3 0x24A4 JUMPI JUMPDEST DUP4 DUP4 MSTORE ADD SSTORE SSTORE JUMP JUMPDEST PUSH3 0x24AE PUSH3 0xAF3 JUMP JUMPDEST PUSH3 0x249C JUMP JUMPDEST PUSH4 0x4E487B71 PUSH1 0xE0 SHL DUP4 MSTORE PUSH1 0x31 PUSH1 0x4 MSTORE PUSH1 0x24 DUP4 REVERT JUMPDEST PUSH3 0x24D2 PUSH3 0xAF3 JUMP JUMPDEST PUSH3 0x243B JUMP JUMPDEST PUSH3 0x24E2 PUSH3 0xAF3 JUMP JUMPDEST PUSH3 0x2404 JUMP JUMPDEST PUSH3 0x24F2 PUSH3 0x1D89 JUMP JUMPDEST PUSH3 0x23E4 JUMP JUMPDEST PUSH1 0xB SLOAD PUSH1 0x1 PUSH1 0x40 SHL DUP2 LT ISZERO PUSH3 0x2570 JUMPI JUMPDEST PUSH1 0x1 DUP2 ADD DUP1 PUSH1 0xB SSTORE DUP2 LT ISZERO PUSH3 0x2560 JUMPI JUMPDEST PUSH1 0xB PUSH1 0x0 MSTORE PUSH32 0x175B7A638427703F0DBE7BB9BBF987A2551717B34E79F33B5B1008D1FA01DB9 ADD DUP1 SLOAD PUSH1 0x1 PUSH1 0x1 PUSH1 0xA0 SHL SUB NOT AND PUSH1 0x1 PUSH1 0x1 PUSH1 0xA0 SHL SUB SWAP1 SWAP3 AND SWAP2 SWAP1 SWAP2 OR SWAP1 SSTORE JUMP JUMPDEST PUSH3 0x256A PUSH3 0xAF3 JUMP JUMPDEST PUSH3 0x251A JUMP JUMPDEST PUSH3 0x257A PUSH3 0x1126 JUMP JUMPDEST PUSH3 0x2509 JUMP JUMPDEST SWAP1 DUP2 PUSH1 0x20 SWAP2 SUB SLT PUSH3 0xF JUMPI MLOAD PUSH3 0x3C9 DUP2 PUSH3 0x51F JUMP JUMPDEST PUSH1 0x1 SWAP1 PUSH1 0x0 NOT DUP2 EQ PUSH3 0x25A9 JUMPI ADD SWAP1 JUMP JUMPDEST PUSH3 0x25B3 PUSH3 0x1D89 JUMP JUMPDEST ADD SWAP1 JUMP JUMPDEST ISZERO PUSH3 0x25BF JUMPI JUMP JUMPDEST PUSH1 0x40 MLOAD PUSH3 0x461BCD PUSH1 0xE5 SHL DUP2 MSTORE PUSH1 0x20 PUSH1 0x4 DUP3 ADD MSTORE PUSH1 0x1C PUSH1 0x24 DUP3 ADD MSTORE PUSH32 0x4552433732313A20746F6B656E20616C7265616479206D696E74656400000000 PUSH1 0x44 DUP3 ADD MSTORE PUSH1 0x64 SWAP1 REVERT JUMPDEST SWAP1 PUSH3 0x25B3 PUSH1 0x20 SWAP3 DUP3 DUP2 MLOAD SWAP5 DUP6 SWAP3 ADD PUSH3 0x36A JUMP JUMPDEST SWAP1 PUSH3 0x1BBF PUSH1 0x21 PUSH1 0x40 MLOAD DUP1 SWAP5 PUSH1 0x3 PUSH1 0xFC SHL PUSH1 0x20 DUP4 ADD MSTORE PUSH3 0x2644 DUP2 MLOAD DUP1 SWAP3 PUSH1 0x20 DUP7 DUP7 ADD SWAP2 ADD PUSH3 0x36A JUMP JUMPDEST DUP2 ADD SUB PUSH1 0x1 DUP2 ADD DUP6 MSTORE ADD DUP4 PUSH3 0x117E JUMP JUMPDEST PUSH6 0x5AF3107A4000 PUSH8 0xDE0B6B3A7640000 PUSH3 0x2672 DUP2 DUP5 DIV PUSH3 0x4629 JUMP JUMPDEST SWAP3 MOD DIV SWAP1 PUSH3 0x2681 DUP3 PUSH3 0x4629 JUMP JUMPDEST SWAP2 PUSH2 0x3E8 DUP2 LT PUSH3 0x2726 JUMPI JUMPDEST PUSH1 0x64 DUP2 LT PUSH3 0x270F JUMPI JUMPDEST PUSH1 0xA GT PUSH3 0x26F3 JUMPI JUMPDEST PUSH1 0x21 PUSH3 0x3C9 SWAP2 PUSH1 0x40 MLOAD SWAP4 DUP2 PUSH3 0x26C2 DUP7 SWAP4 MLOAD DUP1 SWAP3 PUSH1 0x20 DUP1 DUP8 ADD SWAP2 ADD PUSH3 0x36A JUMP JUMPDEST DUP3 ADD PUSH1 0x17 PUSH1 0xF9 SHL PUSH1 0x20 DUP3 ADD MSTORE PUSH3 0x26E3 DUP3 MLOAD DUP1 SWAP4 PUSH1 0x20 DUP8 DUP6 ADD SWAP2 ADD PUSH3 0x36A JUMP JUMPDEST ADD SUB PUSH1 0x1 DUP2 ADD DUP5 MSTORE ADD DUP3 PUSH3 0x117E JUMP JUMPDEST SWAP1 PUSH1 0x21 PUSH3 0x2705 PUSH3 0x3C9 SWAP3 PUSH3 0x2619 JUMP JUMPDEST SWAP3 SWAP2 POP POP PUSH3 0x26A0 JUMP JUMPDEST SWAP2 PUSH3 0x271D PUSH1 0xA SWAP2 PUSH3 0x2619 JUMP JUMPDEST SWAP3 SWAP1 POP PUSH3 0x2697 JUMP JUMPDEST SWAP2 PUSH3 0x2732 SWAP1 PUSH3 0x2619 JUMP JUMPDEST SWAP2 PUSH3 0x268D JUMP JUMPDEST ISZERO PUSH3 0x2741 JUMPI JUMP JUMPDEST PUSH1 0x40 MLOAD PUSH3 0x461BCD PUSH1 0xE5 SHL DUP2 MSTORE PUSH1 0x20 PUSH1 0x4 DUP3 ADD MSTORE PUSH1 0x9 PUSH1 0x24 DUP3 ADD MSTORE PUSH9 0x1B9BDD08195E1A5CDD PUSH1 0xBA SHL PUSH1 0x44 DUP3 ADD MSTORE PUSH1 0x64 SWAP1 REVERT JUMPDEST SWAP1 DUP2 PUSH1 0x20 SWAP2 SUB SLT PUSH3 0xF JUMPI MLOAD SWAP1 JUMP JUMPDEST PUSH1 0x40 MLOAD SWAP1 PUSH1 0x40 DUP3 ADD DUP3 DUP2 LT PUSH8 0xFFFFFFFFFFFFFFFF DUP3 GT OR PUSH3 0x27B2 JUMPI JUMPDEST PUSH1 0x40 MSTORE PUSH1 0x1 DUP3 MSTORE PUSH1 0x3 PUSH1 0xFC SHL PUSH1 0x20 DUP4 ADD MSTORE JUMP JUMPDEST PUSH3 0x27BC PUSH3 0x1126 JUMP JUMPDEST PUSH3 0x279F JUMP JUMPDEST PUSH1 0x40 MLOAD SWAP1 PUSH1 0x60 DUP3 ADD DUP3 DUP2 LT PUSH8 0xFFFFFFFFFFFFFFFF DUP3 GT OR PUSH3 0x27F1 JUMPI JUMPDEST PUSH1 0x40 MSTORE PUSH1 0x2A DUP3 MSTORE PUSH1 0x40 DUP3 PUSH1 0x20 CALLDATASIZE SWAP2 ADD CALLDATACOPY JUMP JUMPDEST PUSH3 0x27FB PUSH3 0x1126 JUMP JUMPDEST PUSH3 0x27DF JUMP JUMPDEST SWAP1 PUSH3 0x280D DUP3 PUSH3 0x11A1 JUMP JUMPDEST PUSH3 0x281C PUSH1 0x40 MLOAD SWAP2 DUP3 PUSH3 0x117E JUMP JUMPDEST DUP3 DUP2 MSTORE DUP1 SWAP3 PUSH3 0x282F PUSH1 0x1F NOT SWAP2 PUSH3 0x11A1 JUMP JUMPDEST ADD SWAP1 PUSH1 0x20 CALLDATASIZE SWAP2 ADD CALLDATACOPY JUMP JUMPDEST SWAP1 PUSH1 0x20 SWAP2 DUP1 MLOAD DUP3 LT ISZERO PUSH3 0x284C JUMPI ADD ADD SWAP1 JUMP JUMPDEST PUSH3 0x2856 PUSH3 0xAF3 JUMP JUMPDEST ADD ADD SWAP1 JUMP JUMPDEST DUP1 ISZERO PUSH3 0x290A JUMPI PUSH1 0x0 DUP2 DUP2 DUP2 DUP1 JUMPDEST PUSH3 0x28EF JUMPI POP PUSH3 0x287A DUP2 PUSH3 0x2801 JUMP JUMPDEST SWAP4 JUMPDEST PUSH3 0x2887 JUMPI POP POP POP SWAP1 JUMP JUMPDEST PUSH1 0x0 NOT DUP2 ADD SWAP1 DUP2 GT PUSH3 0x28DF JUMPI JUMPDEST DUP1 SWAP2 PUSH1 0xA SWAP2 PUSH3 0x28C5 PUSH1 0x30 DUP5 DUP5 MOD DUP2 ADD DUP1 SWAP2 GT PUSH3 0x28CF JUMPI JUMPDEST PUSH1 0xF8 SHL PUSH1 0x1 PUSH1 0x1 PUSH1 0xF8 SHL SUB NOT AND DUP7 BYTE SWAP2 DUP8 PUSH3 0x2839 JUMP JUMPDEST MSTORE8 DIV SWAP1 DUP2 PUSH3 0x287C JUMP JUMPDEST PUSH3 0x28D9 PUSH3 0x1D89 JUMP JUMPDEST PUSH3 0x28AE JUMP JUMPDEST PUSH3 0x28E9 PUSH3 0x1D89 JUMP JUMPDEST PUSH3 0x2895 JUMP JUMPDEST SWAP2 POP PUSH3 0x28FE PUSH1 0xA SWAP2 PUSH3 0x2598 JUMP JUMPDEST SWAP2 DIV DUP1 DUP5 SWAP3 SWAP2 PUSH3 0x2869 JUMP JUMPDEST POP PUSH3 0x3C9 PUSH3 0x2782 JUMP JUMPDEST PUSH1 0x1 PUSH1 0x1 PUSH1 0xFE SHL SUB DUP2 GT PUSH1 0x1 AND PUSH3 0x292E JUMPI JUMPDEST PUSH1 0x2 SHL SWAP1 JUMP JUMPDEST PUSH3 0x2938 PUSH3 0x1D89 JUMP JUMPDEST PUSH3 0x2928 JUMP JUMPDEST DUP1 ISZERO PUSH3 0x294D JUMPI JUMPDEST PUSH1 0x0 NOT ADD SWAP1 JUMP JUMPDEST PUSH3 0x2957 PUSH3 0x1D89 JUMP JUMPDEST PUSH3 0x2946 JUMP JUMPDEST ISZERO PUSH3 0x2965 JUMPI JUMP JUMPDEST PUSH1 0x64 PUSH1 0x40 MLOAD PUSH3 0x461BCD PUSH1 0xE5 SHL DUP2 MSTORE PUSH1 0x20 PUSH1 0x4 DUP3 ADD MSTORE PUSH1 0x20 PUSH1 0x24 DUP3 ADD MSTORE PUSH32 0x537472696E67733A20686578206C656E67746820696E73756666696369656E74 PUSH1 0x44 DUP3 ADD MSTORE REVERT JUMPDEST PUSH3 0x29B3 PUSH3 0x27C2 JUMP JUMPDEST SWAP1 DUP2 MLOAD ISZERO PUSH3 0x2A5E JUMPI JUMPDEST PUSH1 0x30 PUSH1 0x20 DUP4 ADD MSTORE8 DUP2 MLOAD PUSH1 0x1 SWAP1 DUP2 LT ISZERO PUSH3 0x2A4E JUMPI JUMPDEST SWAP1 PUSH1 0x78 PUSH1 0x21 DUP5 ADD MSTORE8 PUSH1 0x29 SWAP2 JUMPDEST DUP1 DUP4 GT PUSH3 0x29F4 JUMPI POP PUSH3 0x3C9 SWAP2 POP ISZERO PUSH3 0x295D JUMP JUMPDEST SWAP1 DUP1 PUSH1 0xF PUSH3 0x2A36 SWAP3 AND PUSH1 0x10 DUP2 LT ISZERO PUSH3 0x2A3E JUMPI JUMPDEST PUSH16 0x181899199A1A9B1B9C1CB0B131B232B3 PUSH1 0x81 SHL SWAP1 BYTE PUSH3 0x2A2B DUP6 DUP8 PUSH3 0x2839 JUMP JUMPDEST MSTORE8 PUSH1 0x4 SHR SWAP3 PUSH3 0x293E JUMP JUMPDEST SWAP2 SWAP1 PUSH3 0x29DE JUMP JUMPDEST PUSH3 0x2A48 PUSH3 0xAF3 JUMP JUMPDEST PUSH3 0x2A09 JUMP JUMPDEST PUSH3 0x2A58 PUSH3 0xAF3 JUMP JUMPDEST PUSH3 0x29D2 JUMP JUMPDEST PUSH3 0x2A68 PUSH3 0xAF3 JUMP JUMPDEST PUSH3 0x29BD JUMP JUMPDEST PUSH1 0x40 MLOAD SWAP1 PUSH1 0x60 DUP3 ADD DUP3 DUP2 LT PUSH8 0xFFFFFFFFFFFFFFFF DUP3 GT OR PUSH3 0x2AE0 JUMPI JUMPDEST PUSH1 0x40 MSTORE PUSH1 0x40 DUP3 MSTORE PUSH32 0x6768696A6B6C6D6E6F707172737475767778797A303132333435363738392B2F PUSH1 0x40 DUP4 PUSH32 0x4142434445464748494A4B4C4D4E4F505152535455565758595A616263646566 PUSH1 0x20 DUP3 ADD MSTORE ADD MSTORE JUMP JUMPDEST PUSH3 0x2AEA PUSH3 0x1126 JUMP JUMPDEST PUSH3 0x2A8B JUMP JUMPDEST DUP1 MLOAD ISZERO PUSH3 0x2BE0 JUMPI PUSH3 0x2B02 PUSH3 0x2A6E JUMP JUMPDEST PUSH3 0x2B23 PUSH3 0x2B1D PUSH3 0x2B16 DUP5 MLOAD PUSH3 0x1DC9 JUMP JUMPDEST PUSH1 0x3 SWAP1 DIV SWAP1 JUMP JUMPDEST PUSH3 0x2915 JUMP JUMPDEST SWAP2 PUSH3 0x2B39 PUSH3 0x2B33 DUP5 PUSH3 0x1DD8 JUMP JUMPDEST PUSH3 0x2801 JUMP JUMPDEST SWAP3 DUP4 MSTORE DUP1 DUP2 MLOAD DUP3 ADD SWAP1 PUSH1 0x20 DUP6 ADD SWAP4 JUMPDEST DUP3 DUP3 LT PUSH3 0x2B8D JUMPI POP POP POP PUSH1 0x3 SWAP1 MLOAD MOD DUP1 PUSH1 0x1 EQ PUSH3 0x2B7C JUMPI PUSH1 0x2 EQ PUSH3 0x2B6D JUMPI POP SWAP1 JUMP JUMPDEST PUSH1 0x3D PUSH1 0xF8 SHL PUSH1 0x0 NOT SWAP1 SWAP2 ADD MSTORE SWAP1 JUMP JUMPDEST POP PUSH2 0x3D3D PUSH1 0xF0 SHL PUSH1 0x1 NOT SWAP1 SWAP2 ADD MSTORE SWAP1 JUMP JUMPDEST SWAP1 SWAP2 SWAP4 PUSH1 0x4 SWAP1 PUSH1 0x3 DUP1 SWAP5 ADD SWAP4 DUP5 MLOAD PUSH1 0x1 SWAP1 PUSH1 0x3F SWAP1 DUP3 DUP3 DUP3 PUSH1 0x12 SHR AND DUP9 ADD ADD MLOAD DUP6 MSTORE8 DUP3 DUP3 DUP3 PUSH1 0xC SHR AND DUP9 ADD ADD MLOAD DUP4 DUP7 ADD MSTORE8 DUP3 DUP3 DUP3 PUSH1 0x6 SHR AND DUP9 ADD ADD MLOAD PUSH1 0x2 DUP7 ADD MSTORE8 AND DUP6 ADD ADD MLOAD SWAP1 DUP3 ADD MSTORE8 ADD SWAP4 SWAP2 SWAP1 PUSH3 0x2B48 JUMP JUMPDEST POP PUSH3 0x3C9 PUSH3 0x1B7B JUMP JUMPDEST PUSH3 0x2BF6 SWAP1 PUSH3 0x2C8D JUMP JUMPDEST PUSH3 0x3C9 PUSH1 0x67 PUSH1 0x40 MLOAD DUP1 SWAP4 PUSH32 0x3C7376672077696474683D2234303022206865696768743D223430302220786D PUSH1 0x20 DUP4 ADD MSTORE PUSH32 0x6C6E733D22687474703A2F2F7777772E77332E6F72672F323030302F73766722 PUSH1 0x40 DUP4 ADD MSTORE PUSH1 0x1F PUSH1 0xF9 SHL PUSH1 0x60 DUP4 ADD MSTORE PUSH3 0x2C6D DUP2 MLOAD DUP1 SWAP3 PUSH1 0x20 PUSH1 0x61 DUP7 ADD SWAP2 ADD PUSH3 0x36A JUMP JUMPDEST DUP2 ADD PUSH6 0x1E17B9BB339F PUSH1 0xD1 SHL PUSH1 0x61 DUP3 ADD MSTORE SUB PUSH1 0x47 DUP2 ADD DUP5 MSTORE ADD DUP3 PUSH3 0x117E JUMP JUMPDEST PUSH3 0x2D05 PUSH3 0x2D42 PUSH3 0x2D26 PUSH3 0x2CCA PUSH3 0x2CBE PUSH3 0x2CBE PUSH3 0x2CBE PUSH3 0x12CB DUP9 PUSH1 0x0 MSTORE PUSH1 0xD PUSH1 0x20 MSTORE PUSH1 0x40 PUSH1 0x0 KECCAK256 SWAP1 JUMP JUMPDEST PUSH1 0x1 PUSH1 0x1 PUSH1 0xA0 SHL SUB AND SWAP1 JUMP JUMPDEST PUSH1 0x40 MLOAD PUSH4 0x43FC5593 PUSH1 0xE1 SHL DUP2 MSTORE PUSH1 0x4 DUP2 ADD DUP7 SWAP1 MSTORE SWAP1 SWAP5 PUSH1 0x20 SWAP5 DUP6 SWAP3 DUP4 DUP2 PUSH1 0x24 DUP2 DUP12 GAS STATICCALL SWAP1 DUP2 ISZERO PUSH3 0x4619 JUMPI JUMPDEST PUSH1 0x0 SWAP2 PUSH3 0x45FE JUMPI POP PUSH3 0x2655 JUMP JUMPDEST SWAP6 PUSH1 0x40 MLOAD DUP1 DUP1 SWAP6 DUP2 SWAP5 PUSH4 0x33C71805 PUSH1 0xE1 SHL DUP4 MSTORE PUSH1 0x4 DUP4 ADD SWAP2 SWAP1 PUSH1 0x20 DUP4 ADD SWAP3 MSTORE JUMP JUMPDEST SUB SWAP2 GAS STATICCALL SWAP1 DUP2 ISZERO PUSH3 0x45EE JUMPI JUMPDEST PUSH1 0x0 SWAP2 PUSH3 0x45D3 JUMPI POP PUSH3 0x2655 JUMP JUMPDEST PUSH1 0x40 MLOAD PUSH32 0x3C7376672076696577426F783D222D313030202D313030203130303020313030 SWAP3 DUP2 ADD SWAP3 DUP4 MSTORE PUSH3 0x18111F PUSH1 0xE9 SHL PUSH1 0x20 DUP5 ADD MSTORE SWAP3 DUP4 SWAP3 PUSH1 0x23 ADD PUSH32 0x3C7265637420783D222D3130302220793D222D313030222077696474683D2231 DUP2 MSTORE PUSH32 0x30303022206865696768743D2231303030222069643D227376675F3122206669 PUSH1 0x20 DUP3 ADD MSTORE PUSH32 0x6C6C3D222366666622207374726F6B652D77696474683D223322207374726F6B PUSH1 0x40 DUP3 ADD MSTORE PUSH32 0x653D2223303030222F3E3C7061746820636C69702D72756C653D226576656E6F PUSH1 0x60 DUP3 ADD MSTORE PUSH32 0x64642220643D224D31343420393563302D342D322D372D342D31302D332D332D PUSH1 0x80 DUP3 ADD MSTORE PUSH32 0x362D342D31302D34732D3720312D31302034632D3220332D3420362D34203130 PUSH1 0xA0 DUP3 ADD MSTORE PUSH32 0x6131342031342030203020302031342031342031342031342030203020302031 PUSH1 0xC0 DUP3 ADD MSTORE PUSH32 0x342D31347A222066696C6C3D2223653931653233222066696C6C2D72756C653D PUSH1 0xE0 DUP3 ADD MSTORE PUSH11 0x1132BB32B737B23211179F PUSH1 0xA9 SHL PUSH2 0x100 DUP3 ADD MSTORE PUSH2 0x10B ADD PUSH32 0x3C7061746820636C69702D72756C653D226576656E6F64642220643D224D3334 DUP2 MSTORE PUSH32 0x39203837632D332D332D362D342D31302D34732D3720312D31302034632D3220 PUSH1 0x20 DUP3 ADD MSTORE PUSH32 0x332D3420362D3420313073322037203420313061313420313420302030203020 PUSH1 0x40 DUP3 ADD MSTORE PUSH32 0x3230203063322D3320342D3620342D3130732D322D372D342D31307A22206669 PUSH1 0x60 DUP3 ADD MSTORE PUSH32 0x6C6C3D2223303262326537222066696C6C2D72756C653D226576656E6F646422 PUSH1 0x80 DUP3 ADD MSTORE PUSH2 0x179F PUSH1 0xF1 SHL PUSH1 0xA0 DUP3 ADD MSTORE PUSH1 0xA2 ADD PUSH32 0x3C7061746820636C69702D72756C653D226576656E6F64642220643D224D3439 DUP2 MSTORE PUSH32 0x39203836632D332D322D362D342D31302D34732D3720322D31302034632D3220 PUSH1 0x20 DUP3 ADD MSTORE PUSH32 0x332D3420372D3420313061313420313420302030203020313420313463342030 PUSH1 0x40 DUP3 ADD MSTORE PUSH32 0x20372D312031302D3420322D3220342D3620342D313020302D332D322D372D34 PUSH1 0x60 DUP3 ADD MSTORE PUSH32 0x2D31305A222066696C6C3D2223666162633136222066696C6C2D72756C653D22 PUSH1 0x80 DUP3 ADD MSTORE PUSH10 0x32BB32B737B23211179F PUSH1 0xB1 SHL PUSH1 0xA0 DUP3 ADD MSTORE PUSH1 0xAA ADD PUSH32 0x3C7061746820636C69702D72756C653D226576656E6F64642220643D224D3637 DUP2 MSTORE PUSH32 0x38203930632D332D332D362D352D31302D35732D3720322D31302035632D3320 PUSH1 0x20 DUP3 ADD MSTORE PUSH32 0x322D3420362D3420392030203420312038203420313020332033203620352031 PUSH1 0x40 DUP3 ADD MSTORE PUSH32 0x30203573372D322031302D3563322D3220342D3620342D313020302D332D322D PUSH1 0x60 DUP3 ADD MSTORE PUSH32 0x372D342D395A222066696C6C3D2223303262326537222066696C6C2D72756C65 PUSH1 0x80 DUP3 ADD MSTORE PUSH12 0x1E9132BB32B737B23211179F PUSH1 0xA1 SHL PUSH1 0xA0 DUP3 ADD MSTORE PUSH1 0xAC ADD PUSH32 0x3C7061746820636C69702D72756C653D226576656E6F64642220643D224D3433 DUP2 MSTORE PUSH32 0x33203436762D38632D31352D352D33302D332D343420352D3420322D3820372D PUSH1 0x20 DUP3 ADD MSTORE PUSH32 0x31322031346C2D38203231632D3220332D3320382D332031346C2D3220313463 PUSH1 0x40 DUP3 ADD MSTORE PUSH32 0x2D3220362D332031352D332032392031372D322033302D342034312D37203136 PUSH1 0x60 DUP3 ADD MSTORE PUSH32 0x2D342032382D31312033362D31392D3720302D313620322D323620356C2D3235 PUSH1 0x80 DUP3 ADD MSTORE PUSH32 0x2038632D3520302D392D322D31302D362D322D342D322D382D312D31326C392D PUSH1 0xA0 DUP3 ADD MSTORE PUSH32 0x313263342D3420392D352031352D346C322D3320332D322037203120362D3120 PUSH1 0xC0 DUP3 ADD MSTORE PUSH32 0x31312D3563352D3120392D332031322D36682D35326C2D342D32762D3563302D PUSH1 0xE0 DUP3 ADD MSTORE PUSH32 0x3420332D3720372D382031302D352032332D382034312D31315A6D3820323868 PUSH2 0x100 DUP3 ADD MSTORE PUSH32 0x352D355A6D35203020322031633420312036203120382D31682D31305A222066 PUSH2 0x120 DUP3 ADD MSTORE PUSH20 0x34B63616B93AB6329E9132BB32B737B23211179F PUSH1 0x61 SHL PUSH2 0x140 DUP3 ADD MSTORE PUSH2 0x154 ADD PUSH1 0x0 DUP1 MLOAD PUSH1 0x20 PUSH3 0x58D5 DUP4 CODECOPY DUP2 MLOAD SWAP2 MSTORE DUP2 MSTORE PUSH32 0x224D34343120373268356D302030203220316D30203063342031203620312038 PUSH1 0x20 DUP3 ADD MSTORE PUSH32 0x2D316D302030682D31306D302030682D356D302030682D35326D3020302D342D PUSH1 0x40 DUP3 ADD MSTORE PUSH32 0x32762D3563302D3420332D3720372D382031302D352032332D382034312D3131 PUSH1 0x60 DUP3 ADD MSTORE PUSH32 0x6D302030762D386D302030632D31352D352D33302D332D343420352D3420322D PUSH1 0x80 DUP3 ADD MSTORE PUSH32 0x3820372D31322031346D3020302D382032316D302030632D3220332D3320382D PUSH1 0xA0 DUP3 ADD MSTORE PUSH32 0x332031346C2D32203134632D3220362D332031352D332032392031372D322033 PUSH1 0xC0 DUP3 ADD MSTORE PUSH32 0x302D342034312D372031362D342032382D31312033362D31392D3720302D3136 PUSH1 0xE0 DUP3 ADD MSTORE PUSH32 0x20322D323620356D3020302D323520386D302030632D3520302D392D322D3130 PUSH2 0x100 DUP3 ADD MSTORE PUSH32 0x2D362D322D342D322D382D312D31326C392D313263342D3420392D352031352D PUSH2 0x120 DUP3 ADD MSTORE PUSH32 0x346C322D3320332D326D302030203720316D30203020362D312031312D356335 PUSH2 0x140 DUP3 ADD MSTORE PUSH32 0x2D3120392D332031322D36222066696C6C3D226E6F6E6522207374726F6B653D PUSH2 0x160 DUP3 ADD MSTORE PUSH32 0x222330303022207374726F6B652D77696474683D2231322E3222207374726F6B PUSH2 0x180 DUP3 ADD MSTORE PUSH32 0x652D6C696E656361703D22726F756E6422207374726F6B652D6C696E656A6F69 PUSH2 0x1A0 DUP3 ADD MSTORE PUSH11 0x371E913937BAB73211179F PUSH1 0xA9 SHL PUSH2 0x1C0 DUP3 ADD MSTORE PUSH2 0x1CB ADD PUSH32 0x3C7061746820636C69702D72756C653D226576656E6F64642220643D226D3632 DUP2 MSTORE PUSH32 0x3820343620322D3920332D3920332D3620342D3563322D3520332D3920312D31 PUSH1 0x20 DUP3 ADD MSTORE PUSH32 0x336C2D31352033352D31342033362D35203134632D3320352D3720372D313320 PUSH1 0x40 DUP3 ADD MSTORE PUSH32 0x342D31342D362D32362D31352D33332D32366C2D382D3136632D332D352D362D PUSH1 0x60 DUP3 ADD MSTORE PUSH32 0x372D382D352D3720382D31322031392D31342033356C2D342034316332203020 PUSH1 0x80 DUP3 ADD MSTORE PUSH32 0x3420312034203476326C322D3163322D3320332D3820342D31346C332D313663 PUSH1 0xA0 DUP3 ADD MSTORE PUSH32 0x302D3620312D313020332D313320312D3320342D3420382D3473392032203134 PUSH1 0xC0 DUP3 ADD MSTORE PUSH32 0x20356C3133203130203132203133633620352031302039203135203131203520 PUSH1 0xE0 DUP3 ADD MSTORE PUSH32 0x302037203020372D3220302D313120322D323320352D33366C31312D33355A22 PUSH2 0x100 DUP3 ADD MSTORE PUSH22 0x103334B63616B93AB6329E9132BB32B737B23211179F PUSH1 0x51 SHL PUSH2 0x120 DUP3 ADD MSTORE PUSH2 0x136 ADD PUSH1 0x0 DUP1 MLOAD PUSH1 0x20 PUSH3 0x58D5 DUP4 CODECOPY DUP2 MLOAD SWAP2 MSTORE DUP2 MSTORE PUSH32 0x226D36333020333720332D3920332D366D30203020342D356D30203063322D35 PUSH1 0x20 DUP3 ADD MSTORE PUSH32 0x20332D3920312D31336C2D31352033352D31342033366D3020302D352031346D PUSH1 0x40 DUP3 ADD MSTORE PUSH32 0x302030632D3320352D3720372D313320342D31342D362D32362D31352D33332D PUSH1 0x60 DUP3 ADD MSTORE PUSH32 0x32366D3020302D382D31366D302030632D332D352D362D372D382D352D372038 PUSH1 0x80 DUP3 ADD MSTORE PUSH32 0x2D31322031392D31342033356D3020302D342034316D30203063322030203420 PUSH1 0xA0 DUP3 ADD MSTORE PUSH32 0x31203420346D30203076326D30203020322D3163322D3320332D3820342D3134 PUSH1 0xC0 DUP3 ADD MSTORE PUSH32 0x6D30203020332D31366D30203063302D3620312D313020332D313320312D3320 PUSH1 0xE0 DUP3 ADD MSTORE PUSH32 0x342D3420382D347339203220313420356C31332031306D302030203132203133 PUSH2 0x100 DUP3 ADD MSTORE PUSH32 0x6D302030633620352031302039203135203131203520302037203020372D3220 PUSH2 0x120 DUP3 ADD MSTORE PUSH32 0x302D313120322D323320352D333661363837203638372030203020312031332D PUSH2 0x140 DUP3 ADD MSTORE PUSH32 0x3434222066696C6C3D226E6F6E6522207374726F6B653D222330303022207374 PUSH2 0x160 DUP3 ADD MSTORE PUSH32 0x726F6B652D77696474683D2231322E3222207374726F6B652D6C696E65636170 PUSH2 0x180 DUP3 ADD MSTORE PUSH32 0x3D22726F756E6422207374726F6B652D6C696E656A6F696E3D22726F756E6422 PUSH2 0x1A0 DUP3 ADD MSTORE PUSH2 0x179F PUSH1 0xF1 SHL PUSH2 0x1C0 DUP3 ADD MSTORE PUSH2 0x1C2 ADD PUSH32 0x3C7061746820636C69702D72756C653D226576656E6F64642220643D224D3738 DUP2 MSTORE PUSH32 0x36203338762D38682D386C2D3331203231632D323220392D33332031392D3331 PUSH1 0x20 DUP3 ADD MSTORE PUSH32 0x203239203220342035203720313020386C313620312031392D32203137203120 PUSH1 0x40 DUP3 ADD MSTORE PUSH32 0x3320312032203476366C2D332034632D3620362D31332031302D32322031342D PUSH1 0x60 DUP3 ADD MSTORE PUSH32 0x3820342D313620362D323420382D3320332D3520372D3520313020342D342031 PUSH1 0x80 DUP3 ADD MSTORE PUSH32 0x312D372031392D31316C32322D3863382D332031342D362031382D313020362D PUSH1 0xA0 DUP3 ADD MSTORE PUSH32 0x3520392D31312031302D31382D362D342D31362D362D32382D36682D3331632D PUSH1 0xC0 DUP3 ADD MSTORE PUSH32 0x322D312D332D332D332D366C312D376331362D31332033312D32312034362D32 PUSH1 0xE0 DUP3 ADD MSTORE PUSH32 0x3620322D3120332D3320332D355A222066696C6C2D72756C653D226576656E6F PUSH2 0x100 DUP3 ADD MSTORE PUSH5 0x323211179F PUSH1 0xD9 SHL PUSH2 0x120 DUP3 ADD MSTORE PUSH2 0x125 ADD PUSH1 0x0 DUP1 MLOAD PUSH1 0x20 PUSH3 0x58D5 DUP4 CODECOPY DUP2 MLOAD SWAP2 MSTORE DUP2 MSTORE PUSH32 0x224D373836203330682D386D3020302D3331203231632D323220392D33332031 PUSH1 0x20 DUP3 ADD MSTORE PUSH32 0x392D3331203239203220342035203720313020386D3020302031362031203139 PUSH1 0x40 DUP3 ADD MSTORE PUSH32 0x2D3220313720316D302030203320316D302030203220346D30203076366D3020 PUSH1 0x60 DUP3 ADD MSTORE PUSH32 0x302D3320356D302030632D3620352D313320392D32322031332D3820342D3136 PUSH1 0x80 DUP3 ADD MSTORE PUSH32 0x20362D323420382D3320332D3520372D3520313020342D342031312D37203139 PUSH1 0xA0 DUP3 ADD MSTORE PUSH32 0x2D31316D3020302032322D386D30203063382D332031342D362031382D313020 PUSH1 0xC0 DUP3 ADD MSTORE PUSH32 0x362D3520392D31312031302D31382D362D342D31362D362D32382D366D302030 PUSH1 0xE0 DUP3 ADD MSTORE PUSH32 0x682D33316D302030632D322D312D332D332D332D366D30203020312D376D3020 PUSH2 0x100 DUP3 ADD MSTORE PUSH32 0x306331362D31332033312D32312034362D323620322D3120332D3320332D356D PUSH2 0x120 DUP3 ADD MSTORE PUSH32 0x302030762D38222066696C6C3D226E6F6E6522207374726F6B653D2223303030 PUSH2 0x140 DUP3 ADD MSTORE PUSH32 0x22207374726F6B652D77696474683D2231322E3222207374726F6B652D6C696E PUSH2 0x160 DUP3 ADD MSTORE PUSH32 0x656361703D22726F756E6422207374726F6B652D6C696E656A6F696E3D22726F PUSH2 0x180 DUP3 ADD MSTORE PUSH6 0x3AB73211179F PUSH1 0xD1 SHL PUSH2 0x1A0 DUP3 ADD MSTORE PUSH2 0x1A6 ADD PUSH32 0x3C7061746820636C69702D72756C653D226576656E6F64642220643D224D3234 DUP2 MSTORE PUSH32 0x35203332682D31376C2D3138203130632D3720322D313420302D31382D356C2D PUSH1 0x20 DUP3 ADD MSTORE PUSH32 0x332031312D31332035382D3132203537632D3320372D3220313520322032376C PUSH1 0x40 DUP3 ADD MSTORE PUSH32 0x312D323320332D323263322D313620382D32392031372D333720342D33203131 PUSH1 0x60 DUP3 ADD MSTORE PUSH32 0x2D342032312D326C32322038633139203720333520392034372035762D35632D PUSH1 0x80 DUP3 ADD MSTORE PUSH32 0x3820302D31362D322D32362D356C2D32362D392D332D352D322D3563322D3520 PUSH1 0xA0 DUP3 ADD MSTORE PUSH32 0x372D392031332D31336C31372D313063362D342031302D382031322D31312032 PUSH1 0xC0 DUP3 ADD MSTORE PUSH32 0x2D3520312D31302D332D31362D332D342D372D362D31342D387A6D2D33203234 PUSH1 0xE0 DUP3 ADD MSTORE PUSH32 0x2D31342031332D3138203133632D3620332D313020342D3133203320302D3720 PUSH2 0x100 DUP3 ADD MSTORE PUSH32 0x302D313220322D313620322D3520352D392031302D31326C31382D3863392D34 PUSH2 0x120 DUP3 ADD MSTORE PUSH32 0x2031352D342031382D3220322031203120342D3320397A222066696C6C2D7275 PUSH2 0x140 DUP3 ADD MSTORE PUSH14 0x36329E9132BB32B737B23211179F PUSH1 0x91 SHL PUSH2 0x160 DUP3 ADD MSTORE PUSH2 0x16E ADD PUSH1 0x0 DUP1 MLOAD PUSH1 0x20 PUSH3 0x58D5 DUP4 CODECOPY DUP2 MLOAD SWAP2 MSTORE DUP2 MSTORE PUSH32 0x226D3232382033322D3138203130632D3720322D313420302D31382D356D3020 PUSH1 0x20 DUP3 ADD MSTORE PUSH32 0x302D332031316D3020302D31332035382D3132203537632D3320372D32203135 PUSH1 0x40 DUP3 ADD MSTORE PUSH32 0x20322032376D30203020312D32336D30203020332D323263322D313620382D32 PUSH1 0x60 DUP3 ADD MSTORE PUSH32 0x392031372D333720342D332031312D342032312D326C32322038633139203720 PUSH1 0x80 DUP3 ADD MSTORE PUSH32 0x3335203920343720356D302030762D356D302030632D3820302D31362D322D32 PUSH1 0xA0 DUP3 ADD MSTORE PUSH32 0x362D356D3020302D32362D392D332D356D3020302D322D3563322D3520372D39 PUSH1 0xC0 DUP3 ADD MSTORE PUSH32 0x2031332D31336D3020302031372D31306D30203063362D342031302D38203132 PUSH1 0xE0 DUP3 ADD MSTORE PUSH32 0x2D313120322D3520312D31302D332D31362D332D342D372D362D31342D38682D PUSH2 0x100 DUP3 ADD MSTORE PUSH32 0x3137222066696C6C3D226E6F6E6522207374726F6B653D222330303022207374 PUSH2 0x120 DUP3 ADD MSTORE PUSH32 0x726F6B652D77696474683D2231322E3222207374726F6B652D6C696E65636170 PUSH2 0x140 DUP3 ADD MSTORE PUSH32 0x3D22726F756E6422207374726F6B652D6C696E656A6F696E3D22726F756E6422 PUSH2 0x160 DUP3 ADD MSTORE PUSH2 0x179F PUSH1 0xF1 SHL PUSH2 0x180 DUP3 ADD MSTORE PUSH2 0x182 ADD PUSH32 0x3C7061746820636C69702D72756C653D226576656E6F64642220643D226D3631 DUP2 MSTORE PUSH32 0x2032312032302D356332203020342D3220352D3420322D3320312D342D322D34 PUSH1 0x20 DUP3 ADD MSTORE PUSH32 0x2D392D332D31382D322D323820302D3820332D313620372D32312031332D3520 PUSH1 0x40 DUP3 ADD MSTORE PUSH32 0x332D3920392D31312031396C2D332031332D342031332D362038632D3220332D PUSH1 0x60 DUP3 ADD MSTORE PUSH32 0x3320372D322031302032203220332034203320386C312032342D332032332D33 PUSH1 0x80 DUP3 ADD MSTORE PUSH32 0x2032352D3120323520372D343720392D343763302D3320322D3520362D382033 PUSH1 0xA0 DUP3 ADD MSTORE PUSH32 0x2D3120362D332031302D336C31352D342031352D362031352D3620342D312D34 PUSH1 0xC0 DUP3 ADD MSTORE PUSH32 0x392034632D3320302D352D312D382D332D322D332D332D352D332D3820342D31 PUSH1 0xE0 DUP3 ADD MSTORE PUSH32 0x3420392D32342031362D33317A222066696C6C2D72756C653D226576656E6F64 PUSH2 0x100 DUP3 ADD MSTORE PUSH4 0x3211179F PUSH1 0xE1 SHL PUSH2 0x120 DUP3 ADD MSTORE PUSH2 0x124 ADD PUSH1 0x0 DUP1 MLOAD PUSH1 0x20 PUSH3 0x58D5 DUP4 CODECOPY DUP2 MLOAD SWAP2 MSTORE DUP2 MSTORE PUSH32 0x226D38372036372D353020346D3020302D372D33632D322D332D332D352D332D PUSH1 0x20 DUP3 ADD MSTORE PUSH32 0x3820342D313420392D32342031362D33316D3020302031382D386D3020302032 PUSH1 0x40 DUP3 ADD MSTORE PUSH32 0x302D356332203020342D3220352D3420322D3320312D342D322D342D392D332D PUSH1 0x60 DUP3 ADD MSTORE PUSH32 0x31382D322D323820302D3820332D313620372D32312031332D3520332D392039 PUSH1 0x80 DUP3 ADD MSTORE PUSH32 0x2D31312031396D3020302D332031336D3020302D342031336D3020302D362038 PUSH1 0xA0 DUP3 ADD MSTORE PUSH32 0x6D302030632D3220332D3320372D322031302032203220332034203320386C31 PUSH1 0xC0 DUP3 ADD MSTORE PUSH32 0x2032342D332032336D3020302D332032356D3020302D312032356D3020302037 PUSH1 0xE0 DUP3 ADD MSTORE PUSH32 0x2D34376D30203020392D343763302D3320322D3520362D3820332D3120362D33 PUSH2 0x100 DUP3 ADD MSTORE PUSH32 0x2031302D336C31352D346D3020302031352D366D3020302031352D366D302030 PUSH2 0x120 DUP3 ADD MSTORE PUSH32 0x20342D316D31322D312D31322031222066696C6C3D226E6F6E6522207374726F PUSH2 0x140 DUP3 ADD MSTORE PUSH32 0x6B653D222330303022207374726F6B652D77696474683D2231322E3222207374 PUSH2 0x160 DUP3 ADD MSTORE PUSH32 0x726F6B652D6C696E656361703D22726F756E6422207374726F6B652D6C696E65 PUSH2 0x180 DUP3 ADD MSTORE PUSH14 0x3537B4B71E913937BAB73211179F PUSH1 0x91 SHL PUSH2 0x1A0 DUP3 ADD MSTORE PUSH2 0x1AE ADD PUSH32 0x3C7465787420666F6E742D73697A653D223132302220666F6E742D7765696768 DUP2 MSTORE PUSH32 0x743D22626F6C642220783D223132302220793D22333530222066696C6C3D2262 PUSH1 0x20 DUP3 ADD MSTORE PUSH32 0x6C756522207374726F6B653D222330303022207374726F6B652D77696474683D PUSH1 0x40 DUP3 ADD MSTORE PUSH32 0x22312220666F6E742D66616D696C793D2273616E732D7365726966223E000000 PUSH1 0x60 DUP3 ADD MSTORE PUSH1 0x7D ADD PUSH8 0x2232B837B9B4BA1D PUSH1 0xC1 SHL DUP2 MSTORE PUSH1 0x8 ADD PUSH7 0x1E17BA32BC3A1F PUSH1 0xC9 SHL DUP2 MSTORE PUSH1 0x7 ADD PUSH32 0x3C7465787420666F6E742D73697A653D2238302220666F6E742D776569676874 DUP2 MSTORE PUSH32 0x3D22626F6C642220783D223235302220793D22343630222066696C6C3D22626C PUSH1 0x20 DUP3 ADD MSTORE PUSH32 0x756522207374726F6B653D222330303022207374726F6B652D77696474683D22 PUSH1 0x40 DUP3 ADD MSTORE PUSH32 0x312220666F6E742D66616D696C793D2273616E732D7365726966223E00000000 PUSH1 0x60 DUP3 ADD MSTORE PUSH1 0x7C ADD PUSH3 0x4418 SWAP2 PUSH3 0x2604 JUMP JUMPDEST PUSH4 0x408AE8D PUSH1 0xE3 SHL DUP2 MSTORE PUSH1 0x4 ADD PUSH7 0x1E17BA32BC3A1F PUSH1 0xC9 SHL DUP2 MSTORE PUSH1 0x7 ADD PUSH32 0x3C7465787420666F6E742D73697A653D223132302220666F6E742D7765696768 DUP2 MSTORE PUSH32 0x743D22626F6C642220783D2238302220793D22363230222066696C6C3D226772 PUSH1 0x20 DUP3 ADD MSTORE PUSH32 0x65656E22207374726F6B653D222330303022207374726F6B652D77696474683D PUSH1 0x40 DUP3 ADD MSTORE PUSH32 0x22312220666F6E742D66616D696C793D2273616E732D7365726966223E000000 PUSH1 0x60 DUP3 ADD MSTORE PUSH1 0x7D ADD PUSH10 0x21B630B4B6B0B136329D PUSH1 0xB1 SHL DUP2 MSTORE PUSH1 0xA ADD PUSH7 0x1E17BA32BC3A1F PUSH1 0xC9 SHL DUP2 MSTORE PUSH1 0x7 ADD PUSH32 0x3C7465787420666F6E742D73697A653D2238302220666F6E742D776569676874 DUP2 MSTORE PUSH32 0x3D22626F6C642220783D223235302220793D22373330222066696C6C3D226772 PUSH1 0x20 DUP3 ADD MSTORE PUSH32 0x65656E22207374726F6B653D222330303022207374726F6B652D77696474683D PUSH1 0x40 DUP3 ADD MSTORE PUSH32 0x22312220666F6E742D66616D696C793D2273616E732D7365726966223E000000 PUSH1 0x60 DUP3 ADD MSTORE PUSH1 0x7D ADD PUSH3 0x4593 SWAP2 PUSH3 0x2604 JUMP JUMPDEST PUSH4 0x408AE8D PUSH1 0xE3 SHL DUP2 MSTORE PUSH1 0x4 ADD PUSH7 0x1E17BA32BC3A1F PUSH1 0xC9 SHL DUP2 MSTORE PUSH1 0x7 ADD PUSH6 0x1E17B9BB339F PUSH1 0xD1 SHL DUP2 MSTORE PUSH1 0x6 ADD SUB PUSH1 0x1F NOT DUP2 ADD DUP3 MSTORE PUSH3 0x3C9 SWAP1 DUP3 PUSH3 0x117E JUMP JUMPDEST PUSH3 0x16FD SWAP2 POP DUP4 RETURNDATASIZE DUP6 GT PUSH3 0x1704 JUMPI PUSH3 0x16F4 DUP2 DUP4 PUSH3 0x117E JUMP JUMPDEST PUSH3 0x45F8 PUSH3 0x2057 JUMP JUMPDEST PUSH3 0x2D33 JUMP JUMPDEST PUSH3 0x16FD SWAP2 POP DUP5 RETURNDATASIZE DUP7 GT PUSH3 0x1704 JUMPI PUSH3 0x16F4 DUP2 DUP4 PUSH3 0x117E JUMP JUMPDEST PUSH3 0x4623 PUSH3 0x2057 JUMP JUMPDEST PUSH3 0x2CF6 JUMP JUMPDEST DUP1 ISZERO PUSH3 0x290A JUMPI DUP1 PUSH1 0x0 DUP3 DUP2 SWAP4 JUMPDEST PUSH3 0x46EE JUMPI POP DUP2 PUSH3 0x4649 DUP5 PUSH3 0x2801 JUMP JUMPDEST SWAP4 SWAP1 JUMPDEST PUSH3 0x4657 JUMPI POP POP POP SWAP1 JUMP JUMPDEST PUSH3 0x4662 SWAP1 PUSH3 0x1DA0 JUMP JUMPDEST SWAP2 DUP3 PUSH3 0x46B5 PUSH1 0xA SWAP3 DUP4 DUP2 DIV SWAP4 DUP5 PUSH1 0x0 NOT DIV DUP2 GT DUP6 ISZERO ISZERO AND PUSH3 0x46DE JUMPI JUMPDEST DUP5 MUL DUP2 SUB SWAP1 DUP2 GT PUSH3 0x46CE JUMPI JUMPDEST PUSH1 0xFF DUP1 SWAP2 AND PUSH1 0x30 ADD SWAP1 DUP2 GT PUSH3 0x46BE JUMPI JUMPDEST PUSH1 0xF8 SHL PUSH1 0x1 PUSH1 0x1 PUSH1 0xF8 SHL SUB NOT AND DUP5 BYTE SWAP2 DUP7 PUSH3 0x2839 JUMP JUMPDEST MSTORE8 SWAP2 DUP3 PUSH3 0x464C JUMP JUMPDEST PUSH3 0x46C8 PUSH3 0x1D89 JUMP JUMPDEST PUSH3 0x469E JUMP JUMPDEST PUSH3 0x46D8 PUSH3 0x1D89 JUMP JUMPDEST PUSH3 0x468D JUMP JUMPDEST PUSH3 0x46E8 PUSH3 0x1D89 JUMP JUMPDEST PUSH3 0x4680 JUMP JUMPDEST SWAP3 PUSH3 0x46FC PUSH1 0xA SWAP2 PUSH3 0x2598 JUMP JUMPDEST SWAP4 DIV DUP1 PUSH3 0x4637 JUMP INVALID PUSH1 0x80 CALLVALUE PUSH2 0xFC JUMPI PUSH1 0x1F PUSH2 0x11CF CODESIZE DUP2 SWAP1 SUB SWAP2 DUP3 ADD PUSH1 0x1F NOT AND DUP4 ADD SWAP2 PUSH1 0x1 PUSH1 0x1 PUSH1 0x40 SHL SUB DUP4 GT DUP5 DUP5 LT OR PUSH2 0x101 JUMPI DUP1 DUP5 SWAP3 PUSH1 0x60 SWAP5 PUSH1 0x40 MSTORE DUP4 CODECOPY DUP2 ADD SUB SLT PUSH2 0xFC JUMPI PUSH2 0x47 DUP2 PUSH2 0x117 JUMP JUMPDEST SWAP1 PUSH2 0x60 PUSH1 0x40 PUSH2 0x59 PUSH1 0x20 DUP5 ADD PUSH2 0x117 JUMP JUMPDEST SWAP3 ADD PUSH2 0x117 JUMP JUMPDEST SWAP2 PUSH1 0x0 SLOAD SWAP2 PUSH1 0x1 DUP1 PUSH1 0xA0 SHL SUB NOT SWAP3 CALLER DUP5 DUP3 AND OR PUSH1 0x0 SSTORE PUSH1 0x40 MLOAD SWAP5 PUSH1 0x1 DUP1 PUSH1 0xA0 SHL SUB DUP1 SWAP5 DUP2 SWAP4 DUP3 CALLER SWAP2 AND PUSH32 0x8BE0079C531659141344CD1FD0A4F28419497F9722A3DAAFE3B4186F6B6457E0 PUSH1 0x0 DUP12 LOG3 PUSH1 0x4 SLOAD SWAP1 PUSH2 0x100 PUSH1 0x1 PUSH1 0xA8 SHL SUB SWAP1 PUSH1 0x8 SHL AND SWAP1 PUSH1 0x1 DUP1 PUSH1 0xA8 SHL SUB NOT AND OR DUP1 PUSH1 0x4 SSTORE PUSH1 0x8 SHR AND DUP6 PUSH1 0x6 SLOAD AND OR PUSH1 0x6 SSTORE AND DUP4 PUSH1 0x7 SLOAD AND OR PUSH1 0x7 SSTORE AND SWAP1 PUSH1 0x5 SLOAD AND OR PUSH1 0x5 SSTORE PUSH2 0x10A3 SWAP1 DUP2 PUSH2 0x12C DUP3 CODECOPY RETURN JUMPDEST PUSH1 0x0 DUP1 REVERT JUMPDEST PUSH4 0x4E487B71 PUSH1 0xE0 SHL PUSH1 0x0 MSTORE PUSH1 0x41 PUSH1 0x4 MSTORE PUSH1 0x24 PUSH1 0x0 REVERT JUMPDEST MLOAD SWAP1 PUSH1 0x1 PUSH1 0x1 PUSH1 0xA0 SHL SUB DUP3 AND DUP3 SUB PUSH2 0xFC JUMPI JUMP INVALID PUSH1 0x80 PUSH1 0x40 SWAP1 DUP1 DUP3 MSTORE PUSH1 0x4 SWAP2 DUP3 CALLDATASIZE LT ISZERO PUSH2 0x20 JUMPI JUMPDEST POP POP POP CALLDATASIZE ISZERO PUSH2 0x1E JUMPI STOP JUMPDEST STOP JUMPDEST PUSH1 0x0 SWAP2 DUP3 CALLDATALOAD PUSH1 0xE0 SHR SWAP1 DUP2 PUSH4 0x2A4DBD2B EQ PUSH2 0xBDC JUMPI POP DUP1 PUSH4 0x2DEF6620 EQ PUSH2 0xBB4 JUMPI DUP1 PUSH4 0x441A3E70 EQ PUSH2 0xA0A JUMPI DUP1 PUSH4 0x4B2B4E36 EQ PUSH2 0x74E JUMPI DUP1 PUSH4 0x6620A935 EQ PUSH2 0x6E7 JUMPI DUP1 PUSH4 0x678E300A EQ PUSH2 0x6C7 JUMPI DUP1 PUSH4 0x715018A6 EQ PUSH2 0x666 JUMPI DUP1 PUSH4 0x7D882097 EQ PUSH2 0x648 JUMPI DUP1 PUSH4 0x82A790CF EQ PUSH2 0x60F JUMPI DUP1 PUSH4 0x8620891C EQ PUSH2 0x461 JUMPI DUP1 PUSH4 0x87F8AB26 EQ PUSH2 0x439 JUMPI DUP1 PUSH4 0x893D20E8 EQ PUSH2 0x411 JUMPI DUP1 PUSH4 0x8DA5CB5B EQ PUSH2 0x3EA JUMPI DUP1 PUSH4 0xCFB5A5F8 EQ PUSH2 0x3BE JUMPI DUP1 PUSH4 0xE2664E49 EQ PUSH2 0x36E JUMPI DUP1 PUSH4 0xE4FC6B6D EQ PUSH2 0x355 JUMPI DUP1 PUSH4 0xF2FDE38B EQ PUSH2 0x2BA JUMPI PUSH4 0xF340FA01 SUB PUSH2 0x13 JUMPI PUSH1 0x20 SWAP3 DUP4 PUSH1 0x3 NOT CALLDATASIZE ADD SLT PUSH2 0x2B6 JUMPI PUSH1 0x1 PUSH1 0x1 PUSH1 0xA0 SHL SUB SWAP4 DUP2 CALLDATALOAD DUP6 DUP2 AND SWAP2 SWAP1 DUP3 SWAP1 SUB PUSH2 0x217 JUMPI PUSH1 0xFF DUP4 SLOAD AND PUSH1 0x3 DUP2 LT ISZERO PUSH2 0x2A3 JUMPI PUSH2 0x217 JUMPI CALLVALUE ISZERO PUSH2 0x26C JUMPI SWAP1 DUP2 DUP6 SWAP4 SWAP3 DUP8 PUSH1 0x7 SLOAD AND DUP5 DUP8 MLOAD DUP1 SWAP8 DUP2 SWAP4 PUSH4 0x2798987D PUSH1 0xE1 SHL DUP4 MSTORE GAS CALL SWAP4 DUP5 ISZERO PUSH2 0x262 JUMPI DUP7 SWAP5 PUSH2 0x22E JUMPI JUMPDEST POP PUSH1 0x1 SWAP1 DUP5 DUP8 MSTORE MSTORE CALLVALUE DUP5 DUP7 KECCAK256 SSTORE PUSH2 0x170 CALLVALUE PUSH1 0x2 SLOAD PUSH2 0xD67 JUMP JUMPDEST PUSH1 0x2 SSTORE PUSH1 0x3 SLOAD SWAP6 PUSH9 0x10000000000000000 DUP8 LT ISZERO PUSH2 0x21B JUMPI DUP4 PUSH2 0x19D DUP9 PUSH1 0x1 DUP10 SWAP11 SWAP10 SWAP9 SWAP10 ADD PUSH1 0x3 SSTORE PUSH2 0xC37 JUMP JUMPDEST DUP2 SWAP3 SWAP2 SLOAD SWAP1 PUSH1 0x3 SHL PUSH1 0x0 NOT DUP2 SHL SWAP3 DUP4 SWAP2 SHL AND SWAP2 NOT AND OR SWAP1 SSTORE PUSH1 0x7 SLOAD AND DUP1 EXTCODESIZE ISZERO PUSH2 0x217 JUMPI DUP5 SWAP3 DUP4 PUSH1 0x64 SWAP3 DUP9 MLOAD SWAP7 DUP8 SWAP6 DUP7 SWAP5 PUSH4 0xD4D1513 PUSH1 0xE0 SHL DUP7 MSTORE DUP6 ADD MSTORE PUSH1 0x24 DUP5 ADD MSTORE ADDRESS PUSH1 0x44 DUP5 ADD MSTORE GAS CALL DUP1 ISZERO PUSH2 0x20A JUMPI PUSH2 0x1F6 JUMPI POP POP MLOAD RETURN JUMPDEST PUSH2 0x1FF SWAP1 PUSH2 0xD1B JUMP JUMPDEST PUSH2 0x206 JUMPI MLOAD RETURN JUMPDEST POP DUP1 REVERT JUMPDEST POP POP POP MLOAD SWAP1 RETURNDATASIZE SWAP1 DUP3 RETURNDATACOPY RETURNDATASIZE SWAP1 REVERT JUMPDEST DUP5 DUP1 REVERT JUMPDEST PUSH4 0x4E487B71 PUSH1 0xE0 SHL DUP7 MSTORE PUSH1 0x41 DUP4 MSTORE PUSH1 0x24 DUP7 REVERT JUMPDEST SWAP1 DUP1 SWAP5 POP DUP2 DUP2 RETURNDATASIZE DUP4 GT PUSH2 0x25B JUMPI JUMPDEST PUSH2 0x246 DUP2 DUP4 PUSH2 0xD45 JUMP JUMPDEST DUP2 ADD SUB SLT PUSH2 0x257 JUMPI MLOAD SWAP3 PUSH1 0x1 PUSH2 0x157 JUMP JUMPDEST DUP6 DUP1 REVERT JUMPDEST POP RETURNDATASIZE PUSH2 0x23C JUMP JUMPDEST DUP6 MLOAD RETURNDATASIZE DUP9 DUP3 RETURNDATACOPY RETURNDATASIZE SWAP1 REVERT JUMPDEST SWAP1 POP PUSH1 0x64 SWAP3 MLOAD SWAP2 PUSH3 0x461BCD PUSH1 0xE5 SHL DUP4 MSTORE DUP3 ADD MSTORE PUSH1 0x12 PUSH1 0x24 DUP3 ADD MSTORE PUSH18 0x36BAB9BA103232B837B9B4BA1032BA3432B9 PUSH1 0x71 SHL PUSH1 0x44 DUP3 ADD MSTORE REVERT JUMPDEST PUSH4 0x4E487B71 PUSH1 0xE0 SHL DUP7 MSTORE PUSH1 0x21 DUP5 MSTORE PUSH1 0x24 DUP7 REVERT JUMPDEST DUP3 DUP1 REVERT JUMPDEST POP DUP3 CALLVALUE PUSH2 0x2B6 JUMPI PUSH1 0x20 CALLDATASIZE PUSH1 0x3 NOT ADD SLT PUSH2 0x2B6 JUMPI DUP1 CALLDATALOAD SWAP1 PUSH1 0x1 PUSH1 0x1 PUSH1 0xA0 SHL SUB DUP1 DUP4 AND SWAP1 DUP2 DUP5 SUB PUSH2 0x257 JUMPI PUSH2 0x2F1 SWAP1 DUP7 SLOAD AND CALLER EQ PUSH2 0xC84 JUMP JUMPDEST ISZERO PUSH2 0x303 JUMPI POP PUSH2 0x300 SWAP1 PUSH2 0xCCF JUMP JUMPDEST MLOAD RETURN JUMPDEST PUSH1 0x84 SWAP1 PUSH1 0x20 DUP5 MLOAD SWAP2 PUSH3 0x461BCD PUSH1 0xE5 SHL DUP4 MSTORE DUP3 ADD MSTORE PUSH1 0x26 PUSH1 0x24 DUP3 ADD MSTORE PUSH32 0x4F776E61626C653A206E6577206F776E657220697320746865207A65726F2061 PUSH1 0x44 DUP3 ADD MSTORE PUSH6 0x646472657373 PUSH1 0xD0 SHL PUSH1 0x64 DUP3 ADD MSTORE REVERT JUMPDEST POP CALLVALUE PUSH2 0x206 JUMPI DUP2 PUSH1 0x3 NOT CALLDATASIZE ADD SLT PUSH2 0x206 JUMPI PUSH2 0x300 PUSH2 0xDB6 JUMP JUMPDEST POP CALLVALUE PUSH2 0x206 JUMPI DUP2 PUSH1 0x3 NOT CALLDATASIZE ADD SLT PUSH2 0x206 JUMPI PUSH2 0x393 PUSH1 0x1 DUP1 PUSH1 0xA0 SHL SUB DUP4 SLOAD AND CALLER EQ PUSH2 0xC84 JUMP JUMPDEST DUP2 DUP1 DUP1 DUP1 SELFBALANCE DUP2 DUP2 ISZERO PUSH2 0x3B5 JUMPI JUMPDEST CALLER SWAP1 CALL ISZERO PUSH2 0x3AB JUMPI MLOAD RETURN JUMPDEST MLOAD SWAP1 RETURNDATASIZE SWAP1 DUP3 RETURNDATACOPY RETURNDATASIZE SWAP1 REVERT JUMPDEST POP PUSH2 0x8FC PUSH2 0x3A0 JUMP JUMPDEST POP SWAP1 CALLVALUE PUSH2 0x3E7 JUMPI PUSH1 0x20 CALLDATASIZE PUSH1 0x3 NOT ADD SLT PUSH2 0x3E7 JUMPI POP PUSH2 0x3E0 PUSH1 0x20 SWAP3 SELFBALANCE SWAP1 CALLDATALOAD PUSH2 0xF7A JUMP JUMPDEST SWAP1 MLOAD SWAP1 DUP2 MSTORE RETURN JUMPDEST DUP1 REVERT JUMPDEST POP CALLVALUE PUSH2 0x206 JUMPI DUP2 PUSH1 0x3 NOT CALLDATASIZE ADD SLT PUSH2 0x206 JUMPI SWAP1 SLOAD SWAP1 MLOAD PUSH1 0x1 PUSH1 0x1 PUSH1 0xA0 SHL SUB SWAP1 SWAP2 AND DUP2 MSTORE PUSH1 0x20 SWAP1 RETURN JUMPDEST POP CALLVALUE PUSH2 0x206 JUMPI DUP2 PUSH1 0x3 NOT CALLDATASIZE ADD SLT PUSH2 0x206 JUMPI PUSH1 0x5 SLOAD SWAP1 MLOAD PUSH1 0x1 PUSH1 0x1 PUSH1 0xA0 SHL SUB SWAP1 SWAP2 AND DUP2 MSTORE PUSH1 0x20 SWAP1 RETURN JUMPDEST POP DUP3 CALLVALUE PUSH2 0x2B6 JUMPI PUSH1 0x20 CALLDATASIZE PUSH1 0x3 NOT ADD SLT PUSH2 0x2B6 JUMPI PUSH1 0x20 SWAP3 DUP3 SWAP2 CALLDATALOAD DUP2 MSTORE PUSH1 0x1 DUP5 MSTORE KECCAK256 SLOAD SWAP1 MLOAD SWAP1 DUP2 MSTORE RETURN JUMPDEST POP DUP3 PUSH1 0x20 DUP1 PUSH1 0x3 NOT CALLDATASIZE ADD SLT PUSH2 0x521 JUMPI DUP2 CALLDATALOAD SWAP2 PUSH1 0x1 DUP1 PUSH1 0xA0 SHL SUB DUP6 DUP4 DUP3 PUSH1 0x7 SLOAD AND PUSH1 0x24 DUP9 MLOAD DUP1 SWAP5 DUP2 SWAP4 PUSH4 0x4F558E79 PUSH1 0xE0 SHL DUP4 MSTORE DUP11 DUP10 DUP5 ADD MSTORE GAS CALL SWAP1 DUP2 ISZERO PUSH2 0x59D JUMPI DUP8 SWAP2 PUSH2 0x5D5 JUMPI JUMPDEST POP ISZERO PUSH2 0x5A7 JUMPI DUP1 DUP4 PUSH1 0x24 SWAP3 PUSH1 0x7 SLOAD AND DUP8 MLOAD SWAP4 DUP5 DUP1 SWAP3 PUSH4 0x178B367 PUSH1 0xE3 SHL DUP3 MSTORE DUP10 DUP9 DUP4 ADD MSTORE GAS STATICCALL SWAP2 DUP3 ISZERO PUSH2 0x59D JUMPI DUP8 SWAP3 PUSH2 0x56E JUMPI JUMPDEST POP ADDRESS SWAP2 AND SUB PUSH2 0x538 JUMPI PUSH1 0xFF DUP2 SLOAD AND SWAP1 PUSH1 0x3 DUP3 LT ISZERO PUSH2 0x525 JUMPI POP PUSH2 0x521 JUMPI PUSH1 0x1 SWAP2 DUP5 MSTORE MSTORE DUP1 DUP3 KECCAK256 PUSH2 0x50D CALLVALUE DUP3 SLOAD PUSH2 0xD67 JUMP JUMPDEST SWAP1 SSTORE PUSH2 0x51B CALLVALUE PUSH1 0x2 SLOAD PUSH2 0xD67 JUMP JUMPDEST PUSH1 0x2 SSTORE MLOAD RETURN JUMPDEST DUP4 DUP1 REVERT JUMPDEST PUSH4 0x4E487B71 PUSH1 0xE0 SHL DUP7 MSTORE PUSH1 0x21 SWAP1 MSTORE PUSH1 0x24 DUP6 REVERT JUMPDEST PUSH1 0x64 SWAP2 DUP5 MLOAD SWAP2 PUSH3 0x461BCD PUSH1 0xE5 SHL DUP4 MSTORE DUP3 ADD MSTORE PUSH1 0x12 PUSH1 0x24 DUP3 ADD MSTORE PUSH18 0x1DDC9BDB99C81CDD185ADA5B99C81C1BDBDB PUSH1 0x72 SHL PUSH1 0x44 DUP3 ADD MSTORE REVERT JUMPDEST PUSH2 0x58F SWAP2 SWAP3 POP DUP5 RETURNDATASIZE DUP7 GT PUSH2 0x596 JUMPI JUMPDEST PUSH2 0x587 DUP2 DUP4 PUSH2 0xD45 JUMP JUMPDEST DUP2 ADD SWAP1 PUSH2 0xD8A JUMP JUMPDEST SWAP1 DUP8 PUSH2 0x4DC JUMP JUMPDEST POP RETURNDATASIZE PUSH2 0x57D JUMP JUMPDEST DUP7 MLOAD RETURNDATASIZE DUP10 DUP3 RETURNDATACOPY RETURNDATASIZE SWAP1 REVERT JUMPDEST POP PUSH1 0x64 SWAP2 DUP5 MLOAD SWAP2 PUSH3 0x461BCD PUSH1 0xE5 SHL DUP4 MSTORE DUP3 ADD MSTORE PUSH1 0x9 PUSH1 0x24 DUP3 ADD MSTORE PUSH9 0x1B9BDD08195E1A5CDD PUSH1 0xBA SHL PUSH1 0x44 DUP3 ADD MSTORE REVERT JUMPDEST SWAP1 POP DUP4 DUP2 DUP2 RETURNDATASIZE DUP4 GT PUSH2 0x608 JUMPI JUMPDEST PUSH2 0x5EC DUP2 DUP4 PUSH2 0xD45 JUMP JUMPDEST DUP2 ADD SUB SLT PUSH2 0x604 JUMPI MLOAD DUP1 ISZERO ISZERO DUP2 SUB PUSH2 0x604 JUMPI DUP8 PUSH2 0x4A8 JUMP JUMPDEST DUP7 DUP1 REVERT JUMPDEST POP RETURNDATASIZE PUSH2 0x5E2 JUMP JUMPDEST POP DUP3 CALLVALUE PUSH2 0x2B6 JUMPI PUSH1 0x20 CALLDATASIZE PUSH1 0x3 NOT ADD SLT PUSH2 0x2B6 JUMPI CALLDATALOAD SWAP2 PUSH1 0x3 SLOAD DUP4 LT ISZERO PUSH2 0x3E7 JUMPI POP PUSH2 0x63A PUSH1 0x20 SWAP3 PUSH2 0xC37 JUMP JUMPDEST SWAP1 SLOAD SWAP1 PUSH1 0x3 SHL SHR SWAP1 MLOAD SWAP1 DUP2 MSTORE RETURN JUMPDEST POP CALLVALUE PUSH2 0x206 JUMPI DUP2 PUSH1 0x3 NOT CALLDATASIZE ADD SLT PUSH2 0x206 JUMPI PUSH1 0x20 SWAP1 PUSH1 0x2 SLOAD SWAP1 MLOAD SWAP1 DUP2 MSTORE RETURN JUMPDEST POP CALLVALUE PUSH2 0x206 JUMPI DUP2 PUSH1 0x3 NOT CALLDATASIZE ADD SLT PUSH2 0x206 JUMPI PUSH1 0x0 PUSH1 0x1 DUP1 PUSH1 0xA0 SHL SUB PUSH2 0x68E DUP2 DUP6 SLOAD AND CALLER EQ PUSH2 0xC84 JUMP JUMPDEST DUP2 SLOAD PUSH1 0x1 PUSH1 0x1 PUSH1 0xA0 SHL SUB NOT DUP2 AND DUP4 SSTORE SWAP3 MLOAD SWAP3 AND PUSH32 0x8BE0079C531659141344CD1FD0A4F28419497F9722A3DAAFE3B4186F6B6457E0 DUP3 DUP5 LOG3 RETURN JUMPDEST POP SWAP1 CALLVALUE PUSH2 0x3E7 JUMPI PUSH1 0x20 CALLDATASIZE PUSH1 0x3 NOT ADD SLT PUSH2 0x3E7 JUMPI POP PUSH2 0x3E0 PUSH1 0x20 SWAP3 CALLDATALOAD PUSH2 0x100F JUMP JUMPDEST POP DUP3 CALLVALUE PUSH2 0x2B6 JUMPI DUP3 PUSH1 0x3 NOT CALLDATASIZE ADD SLT PUSH2 0x2B6 JUMPI DUP3 SLOAD PUSH1 0x5 SLOAD PUSH1 0x1 PUSH1 0x1 PUSH1 0xA0 SHL SUB SWAP1 DUP2 AND SWAP3 SWAP2 AND DUP3 EQ PUSH2 0x71C JUMPI POP PUSH2 0x300 SWAP1 PUSH2 0xCCF JUMP JUMPDEST PUSH1 0x64 SWAP1 PUSH1 0x20 DUP5 MLOAD SWAP2 PUSH3 0x461BCD PUSH1 0xE5 SHL DUP4 MSTORE DUP3 ADD MSTORE PUSH1 0xC PUSH1 0x24 DUP3 ADD MSTORE PUSH12 0x616C726561647920646F6E65 PUSH1 0xA0 SHL PUSH1 0x44 DUP3 ADD MSTORE REVERT JUMPDEST POP CALLVALUE PUSH2 0x206 JUMPI PUSH1 0x3 NOT PUSH1 0x80 CALLDATASIZE DUP3 ADD SLT PUSH2 0x2B6 JUMPI PUSH8 0xFFFFFFFFFFFFFFFF SWAP4 DUP1 CALLDATALOAD DUP6 DUP2 GT PUSH2 0x217 JUMPI PUSH2 0x781 SWAP1 CALLDATASIZE SWAP1 DUP4 ADD PUSH2 0xC04 JUMP JUMPDEST SWAP1 PUSH1 0x24 SWAP7 DUP8 CALLDATALOAD DUP2 DUP2 GT PUSH2 0xA06 JUMPI PUSH2 0x79B SWAP1 CALLDATASIZE SWAP1 DUP7 ADD PUSH2 0xC04 JUMP JUMPDEST SWAP4 SWAP1 SWAP2 PUSH1 0x44 CALLDATALOAD DUP2 DUP2 GT PUSH2 0x951 JUMPI PUSH2 0x7B5 SWAP1 CALLDATASIZE SWAP1 DUP9 ADD PUSH2 0xC04 JUMP JUMPDEST SWAP11 SWAP1 PUSH1 0x1 DUP1 PUSH1 0xA0 SHL SUB SWAP9 PUSH2 0x7CD DUP11 DUP14 SLOAD AND CALLER EQ PUSH2 0xC84 JUMP JUMPDEST PUSH9 0x1BC16D674EC800000 SWAP4 DUP5 SELFBALANCE LT PUSH2 0x9D2 JUMPI DUP10 SLOAD PUSH1 0xFF NOT AND PUSH1 0x1 OR DUP11 SSTORE ADDRESS PUSH1 0x1 PUSH1 0xF8 SHL DUP2 ADD SWAP1 DUP2 LT PUSH2 0x9C0 JUMPI DUP13 MLOAD SWAP2 PUSH1 0x20 DUP4 ADD SWAP2 DUP3 MSTORE PUSH1 0x20 DUP4 MSTORE DUP14 DUP4 ADD SWAP1 DUP4 DUP3 LT DUP2 DUP4 GT OR PUSH2 0x9AD JUMPI DUP2 DUP16 MSTORE DUP12 GT PUSH2 0x99B JUMPI PUSH2 0x833 PUSH1 0x1F DUP13 ADD PUSH1 0x1F NOT AND PUSH1 0x20 ADD DUP3 PUSH2 0xD45 JUMP JUMPDEST DUP11 DUP2 MSTORE PUSH1 0x60 DUP4 ADD SWAP1 CALLDATASIZE DUP13 DUP12 ADD GT PUSH2 0x997 JUMPI DUP16 DUP13 DUP12 DUP5 CALLDATACOPY PUSH1 0x60 DUP14 DUP7 ADD ADD MSTORE MLOAD SWAP1 KECCAK256 SWAP2 MLOAD SWAP1 KECCAK256 SUB PUSH2 0x955 JUMPI DUP12 SWAP13 DUP11 PUSH1 0x6 SWAP14 SWAP10 SWAP11 SWAP12 SWAP13 SWAP14 SLOAD AND SWAP7 DUP8 EXTCODESIZE ISZERO PUSH2 0x951 JUMPI DUP14 MLOAD PUSH4 0x4512A23 PUSH1 0xE3 SHL DUP2 MSTORE PUSH1 0x80 DUP2 DUP15 ADD MSTORE SWAP11 DUP12 SWAP10 DUP11 SWAP9 DUP10 SWAP8 SWAP3 SWAP2 PUSH2 0x89A SWAP2 PUSH1 0x84 DUP11 ADD SWAP2 PUSH2 0x104C JUMP JUMPDEST SWAP2 DUP6 DUP9 DUP5 SUB ADD SWAP1 DUP9 ADD MSTORE PUSH2 0x8AD SWAP3 PUSH2 0x104C JUMP JUMPDEST SWAP2 DUP5 DUP4 SUB ADD PUSH1 0x44 DUP6 ADD MSTORE PUSH2 0x8C0 SWAP3 PUSH2 0x104C JUMP JUMPDEST PUSH1 0x64 CALLDATALOAD PUSH1 0x64 DUP4 ADD MSTORE SUB SWAP3 GAS CALL DUP1 ISZERO PUSH2 0x947 JUMPI PUSH2 0x910 JUMPI JUMPDEST POP PUSH32 0x1944DEBB24A9AAFCF2708BE964E412CDB73FC36D6EA24577FD8DCC05B93B4A44 SWAP2 DUP4 SWAP2 SLOAD PUSH1 0x8 SHR AND DUP2 MLOAD SWAP1 DUP2 MSTORE CALLER PUSH1 0x20 DUP3 ADD MSTORE LOG1 MLOAD RETURN JUMPDEST SWAP2 DUP4 SWAP2 SWAP5 PUSH2 0x93E PUSH32 0x1944DEBB24A9AAFCF2708BE964E412CDB73FC36D6EA24577FD8DCC05B93B4A44 SWAP5 PUSH2 0xD1B JUMP JUMPDEST SWAP5 SWAP2 POP SWAP2 PUSH2 0x8D7 JUMP JUMPDEST DUP5 MLOAD RETURNDATASIZE DUP8 DUP3 RETURNDATACOPY RETURNDATASIZE SWAP1 REVERT JUMPDEST DUP10 DUP1 REVERT JUMPDEST DUP11 MLOAD PUSH3 0x461BCD PUSH1 0xE5 SHL DUP2 MSTORE PUSH1 0x20 DUP2 DUP12 ADD MSTORE PUSH1 0x1E DUP2 DUP6 ADD MSTORE PUSH32 0x7769746864726177616C2063726564656E7469616C206D69736D617463680000 PUSH1 0x44 DUP3 ADD MSTORE PUSH1 0x64 SWAP1 REVERT JUMPDEST DUP16 DUP1 REVERT JUMPDEST PUSH4 0x4E487B71 PUSH1 0xE0 SHL DUP16 MSTORE PUSH1 0x41 DUP13 MSTORE DUP6 DUP16 REVERT JUMPDEST POP PUSH4 0x4E487B71 PUSH1 0xE0 SHL DUP16 MSTORE PUSH1 0x41 DUP13 MSTORE DUP6 DUP16 REVERT JUMPDEST PUSH4 0x4E487B71 PUSH1 0xE0 SHL DUP15 MSTORE PUSH1 0x11 DUP12 MSTORE DUP5 DUP15 REVERT JUMPDEST POP DUP11 MLOAD PUSH3 0x461BCD PUSH1 0xE5 SHL DUP2 MSTORE PUSH1 0x20 DUP2 DUP12 ADD MSTORE PUSH1 0xE DUP2 DUP6 ADD MSTORE PUSH14 0xDCDEE840CADCDEEACED040CAE8D PUSH1 0x93 SHL PUSH1 0x44 DUP3 ADD MSTORE PUSH1 0x64 SWAP1 REVERT JUMPDEST DUP8 DUP1 REVERT JUMPDEST POP DUP3 CALLVALUE PUSH2 0x2B6 JUMPI DUP2 PUSH1 0x3 NOT CALLDATASIZE ADD SLT PUSH2 0x2B6 JUMPI DUP1 CALLDATALOAD PUSH1 0x24 SWAP1 DUP2 CALLDATALOAD SWAP3 PUSH1 0xFF DUP2 SLOAD AND PUSH1 0x3 DUP2 LT ISZERO PUSH2 0xBA2 JUMPI PUSH1 0x1 EQ PUSH2 0xB60 JUMPI PUSH1 0x7 SLOAD DUP6 MLOAD PUSH4 0x31A9108F PUSH1 0xE1 SHL DUP2 MSTORE DUP3 DUP2 ADD DUP5 SWAP1 MSTORE PUSH1 0x20 SWAP5 SWAP2 PUSH1 0x1 PUSH1 0x1 PUSH1 0xA0 SHL SUB SWAP2 SWAP1 DUP7 SWAP1 DUP3 SWAP1 DUP6 SWAP1 DUP3 SWAP1 DUP7 AND GAS STATICCALL SWAP1 DUP2 ISZERO PUSH2 0xB56 JUMPI DUP10 SWAP2 PUSH2 0xB39 JUMPI JUMPDEST POP AND CALLER SUB PUSH2 0xB07 JUMPI DUP3 DUP8 MSTORE PUSH1 0x1 DUP5 MSTORE DUP5 DUP7 DUP9 KECCAK256 SLOAD LT PUSH2 0xACE JUMPI POP POP DUP5 DUP1 SWAP4 PUSH1 0x1 DUP3 SWAP5 DUP4 SWAP5 DUP5 MSTORE MSTORE DUP6 DUP3 KECCAK256 PUSH2 0xAAB DUP3 DUP3 SLOAD PUSH2 0xDA9 JUMP JUMPDEST SWAP1 SSTORE PUSH2 0xAB9 DUP2 PUSH1 0x2 SLOAD PUSH2 0xDA9 JUMP JUMPDEST PUSH1 0x2 SSTORE DUP2 DUP2 ISZERO PUSH2 0x3B5 JUMPI CALLER SWAP1 CALL ISZERO PUSH2 0x3AB JUMPI MLOAD RETURN JUMPDEST DUP6 MLOAD PUSH3 0x461BCD PUSH1 0xE5 SHL DUP2 MSTORE SWAP2 DUP3 ADD DUP5 SWAP1 MSTORE PUSH1 0x14 SWAP1 DUP3 ADD MSTORE PUSH20 0x1B9BDD08195B9BDD59DA0819195C1BDCDA5D1959 PUSH1 0x62 SHL PUSH1 0x44 DUP3 ADD MSTORE PUSH1 0x64 SWAP1 REVERT JUMPDEST DUP6 MLOAD PUSH3 0x461BCD PUSH1 0xE5 SHL DUP2 MSTORE SWAP2 DUP3 ADD DUP5 SWAP1 MSTORE PUSH1 0xD SWAP1 DUP3 ADD MSTORE PUSH13 0x3737BA103A34329037BBB732B9 PUSH1 0x99 SHL PUSH1 0x44 DUP3 ADD MSTORE PUSH1 0x64 SWAP1 REVERT JUMPDEST PUSH2 0xB50 SWAP2 POP DUP7 RETURNDATASIZE DUP9 GT PUSH2 0x596 JUMPI PUSH2 0x587 DUP2 DUP4 PUSH2 0xD45 JUMP JUMPDEST DUP10 PUSH2 0xA76 JUMP JUMPDEST DUP9 MLOAD RETURNDATASIZE DUP12 DUP3 RETURNDATACOPY RETURNDATASIZE SWAP1 REVERT JUMPDEST PUSH1 0x64 SWAP1 PUSH1 0x1B DUP5 PUSH1 0x20 DUP9 MLOAD SWAP4 PUSH3 0x461BCD PUSH1 0xE5 SHL DUP6 MSTORE DUP5 ADD MSTORE DUP3 ADD MSTORE PUSH32 0x63616E6E6F74207769746864726177206F6E6365207374616B65640000000000 PUSH1 0x44 DUP3 ADD MSTORE REVERT JUMPDEST PUSH4 0x4E487B71 PUSH1 0xE0 SHL DUP8 MSTORE PUSH1 0x21 DUP3 MSTORE DUP4 DUP8 REVERT JUMPDEST POP DUP3 CALLVALUE PUSH2 0x2B6 JUMPI DUP3 PUSH1 0x3 NOT CALLDATASIZE ADD SLT PUSH2 0x2B6 JUMPI PUSH2 0xBCE PUSH2 0xDB6 JUMP JUMPDEST DUP1 SLOAD PUSH1 0xFF NOT AND PUSH1 0x2 OR SWAP1 SSTORE MLOAD RETURN JUMPDEST DUP4 SWAP1 DUP6 CALLVALUE PUSH2 0x2B6 JUMPI DUP3 PUSH1 0x3 NOT CALLDATASIZE ADD SLT PUSH2 0x2B6 JUMPI SLOAD PUSH1 0x8 SHR PUSH1 0x1 PUSH1 0x1 PUSH1 0xA0 SHL SUB AND DUP2 MSTORE PUSH1 0x20 SWAP2 POP RETURN JUMPDEST SWAP2 DUP2 PUSH1 0x1F DUP5 ADD SLT ISZERO PUSH2 0xC32 JUMPI DUP3 CALLDATALOAD SWAP2 PUSH8 0xFFFFFFFFFFFFFFFF DUP4 GT PUSH2 0xC32 JUMPI PUSH1 0x20 DUP4 DUP2 DUP7 ADD SWAP6 ADD ADD GT PUSH2 0xC32 JUMPI JUMP JUMPDEST PUSH1 0x0 DUP1 REVERT JUMPDEST PUSH1 0x3 SLOAD DUP2 LT ISZERO PUSH2 0xC6E JUMPI PUSH1 0x3 PUSH1 0x0 MSTORE PUSH32 0xC2575A0E9E593C00F959F8C92F12DB2869C3395A3B0502D05E2516446F71F85B ADD SWAP1 PUSH1 0x0 SWAP1 JUMP JUMPDEST PUSH4 0x4E487B71 PUSH1 0xE0 SHL PUSH1 0x0 MSTORE PUSH1 0x32 PUSH1 0x4 MSTORE PUSH1 0x24 PUSH1 0x0 REVERT JUMPDEST ISZERO PUSH2 0xC8B JUMPI JUMP JUMPDEST PUSH1 0x64 PUSH1 0x40 MLOAD PUSH3 0x461BCD PUSH1 0xE5 SHL DUP2 MSTORE PUSH1 0x20 PUSH1 0x4 DUP3 ADD MSTORE PUSH1 0x20 PUSH1 0x24 DUP3 ADD MSTORE PUSH32 0x4F776E61626C653A2063616C6C6572206973206E6F7420746865206F776E6572 PUSH1 0x44 DUP3 ADD MSTORE REVERT JUMPDEST PUSH1 0x0 DUP1 SLOAD PUSH1 0x1 PUSH1 0x1 PUSH1 0xA0 SHL SUB SWAP3 DUP4 AND PUSH1 0x1 PUSH1 0x1 PUSH1 0xA0 SHL SUB NOT DUP3 AND DUP2 OR DUP4 SSTORE PUSH1 0x40 MLOAD SWAP1 SWAP4 SWAP1 SWAP2 AND SWAP2 PUSH32 0x8BE0079C531659141344CD1FD0A4F28419497F9722A3DAAFE3B4186F6B6457E0 SWAP2 LOG3 JUMP JUMPDEST PUSH8 0xFFFFFFFFFFFFFFFF DUP2 GT PUSH2 0xD2F JUMPI PUSH1 0x40 MSTORE JUMP JUMPDEST PUSH4 0x4E487B71 PUSH1 0xE0 SHL PUSH1 0x0 MSTORE PUSH1 0x41 PUSH1 0x4 MSTORE PUSH1 0x24 PUSH1 0x0 REVERT JUMPDEST SWAP1 PUSH1 0x1F DUP1 NOT SWAP2 ADD AND DUP2 ADD SWAP1 DUP2 LT PUSH8 0xFFFFFFFFFFFFFFFF DUP3 GT OR PUSH2 0xD2F JUMPI PUSH1 0x40 MSTORE JUMP JUMPDEST SWAP2 SWAP1 DUP3 ADD DUP1 SWAP3 GT PUSH2 0xD74 JUMPI JUMP JUMPDEST PUSH4 0x4E487B71 PUSH1 0xE0 SHL PUSH1 0x0 MSTORE PUSH1 0x11 PUSH1 0x4 MSTORE PUSH1 0x24 PUSH1 0x0 REVERT JUMPDEST SWAP1 DUP2 PUSH1 0x20 SWAP2 SUB SLT PUSH2 0xC32 JUMPI MLOAD PUSH1 0x1 PUSH1 0x1 PUSH1 0xA0 SHL SUB DUP2 AND DUP2 SUB PUSH2 0xC32 JUMPI SWAP1 JUMP JUMPDEST SWAP2 SWAP1 DUP3 SUB SWAP2 DUP3 GT PUSH2 0xD74 JUMPI JUMP JUMPDEST PUSH1 0x4 SWAP1 PUSH1 0xFF DUP3 SLOAD AND PUSH1 0x3 SWAP3 DUP4 DUP3 LT ISZERO PUSH2 0xF65 JUMPI PUSH1 0x1 DUP1 SWAP3 SUB PUSH2 0xF21 JUMPI SELFBALANCE PUSH1 0x64 DUP2 GT ISZERO PUSH2 0xEDD JUMPI PUSH1 0x0 SWAP5 DUP4 JUMPDEST PUSH2 0xDEE JUMPI JUMPDEST POP POP POP POP SWAP1 POP JUMP JUMPDEST DUP1 SLOAD DUP7 LT ISZERO PUSH2 0xED8 JUMPI PUSH2 0xE00 DUP7 PUSH2 0xC37 JUMP JUMPDEST SWAP1 SLOAD SWAP1 DUP3 SHL SHR PUSH1 0x1 DUP1 PUSH1 0xA0 SHL SUB DUP1 PUSH1 0x7 SLOAD AND SWAP2 PUSH1 0x40 SWAP3 DUP4 MLOAD DUP1 SWAP2 PUSH4 0x31A9108F PUSH1 0xE1 SHL DUP3 MSTORE DUP4 DUP10 DUP4 ADD MSTORE DUP2 PUSH1 0x24 PUSH1 0x20 SWAP5 DUP6 SWAP4 GAS STATICCALL SWAP2 DUP3 ISZERO PUSH2 0xECD JUMPI SWAP4 PUSH1 0x0 SWAP5 SWAP4 DUP6 SWAP5 SWAP4 DUP10 DUP7 SWAP6 SWAP5 DUP7 SWAP6 DUP7 SWAP4 PUSH2 0xEAA JUMPI JUMPDEST POP POP PUSH2 0xE5B SWAP2 SWAP3 PUSH2 0xF7A JUMP JUMPDEST SWAP2 DUP4 SWAP2 DUP4 ISZERO PUSH2 0xEA0 JUMPI JUMPDEST AND SWAP1 CALL ISZERO PUSH2 0xE96 JUMPI POP PUSH1 0x0 NOT DUP7 EQ PUSH2 0xE81 JUMPI SWAP5 DUP4 ADD SWAP5 DUP4 PUSH2 0xDE1 JUMP JUMPDEST PUSH1 0x11 DUP4 PUSH4 0x4E487B71 PUSH1 0xE0 SHL PUSH1 0x0 MSTORE MSTORE PUSH1 0x24 PUSH1 0x0 REVERT JUMPDEST MLOAD RETURNDATASIZE PUSH1 0x0 DUP3 RETURNDATACOPY RETURNDATASIZE SWAP1 REVERT JUMPDEST PUSH2 0x8FC SWAP3 POP PUSH2 0xE65 JUMP JUMPDEST PUSH2 0xE5B SWAP4 POP SWAP1 DUP2 PUSH2 0xEC6 SWAP3 SWAP1 RETURNDATASIZE LT PUSH2 0x596 JUMPI PUSH2 0x587 DUP2 DUP4 PUSH2 0xD45 JUMP JUMPDEST SWAP2 CODESIZE PUSH2 0xE4F JUMP JUMPDEST DUP6 MLOAD RETURNDATASIZE PUSH1 0x0 DUP3 RETURNDATACOPY RETURNDATASIZE SWAP1 REVERT JUMPDEST PUSH2 0xDE6 JUMP JUMPDEST PUSH1 0x40 MLOAD PUSH3 0x461BCD PUSH1 0xE5 SHL DUP2 MSTORE PUSH1 0x20 DUP2 DUP5 ADD DUP2 SWAP1 MSTORE PUSH1 0x24 DUP3 ADD MSTORE PUSH32 0x6D696E696D756D206F66203130302077656920746F2064697374726962757465 PUSH1 0x44 DUP3 ADD MSTORE PUSH1 0x64 SWAP1 REVERT JUMPDEST PUSH1 0x64 SWAP1 PUSH1 0x20 PUSH1 0x40 MLOAD SWAP2 PUSH3 0x461BCD PUSH1 0xE5 SHL DUP4 MSTORE DUP3 ADD MSTORE PUSH1 0x1C PUSH1 0x24 DUP3 ADD MSTORE PUSH32 0x757365207769746864726177207768656E206E6F74207374616B656400000000 PUSH1 0x44 DUP3 ADD MSTORE REVERT JUMPDEST PUSH1 0x21 SWAP1 PUSH4 0x4E487B71 PUSH1 0xE0 SHL PUSH1 0x0 MSTORE MSTORE PUSH1 0x24 PUSH1 0x0 REVERT JUMPDEST PUSH1 0x0 SWAP1 DUP2 MSTORE PUSH1 0x1 PUSH1 0x20 MSTORE PUSH1 0x40 DUP2 KECCAK256 SLOAD ISZERO PUSH2 0x100A JUMPI PUSH1 0x40 DUP2 KECCAK256 SLOAD PUSH1 0x0 NOT SWAP3 SWAP1 DUP2 ISZERO ISZERO DUP3 DUP6 DIV DUP3 GT AND PUSH2 0xFF6 JUMPI PUSH1 0x2 SLOAD SWAP2 DUP3 ISZERO PUSH2 0xFE2 JUMPI MUL DIV SWAP2 PUSH1 0x1 DUP4 GT ISZERO PUSH2 0xFDC JUMPI DUP3 ADD SWAP2 DUP3 GT PUSH2 0xFC8 JUMPI POP SWAP1 JUMP JUMPDEST PUSH4 0x4E487B71 PUSH1 0xE0 SHL DUP2 MSTORE PUSH1 0x11 PUSH1 0x4 MSTORE PUSH1 0x24 SWAP1 REVERT JUMPDEST POP SWAP1 POP SWAP1 JUMP JUMPDEST PUSH4 0x4E487B71 PUSH1 0xE0 SHL DUP5 MSTORE PUSH1 0x12 PUSH1 0x4 MSTORE PUSH1 0x24 DUP5 REVERT JUMPDEST PUSH4 0x4E487B71 PUSH1 0xE0 SHL DUP4 MSTORE PUSH1 0x11 PUSH1 0x4 MSTORE PUSH1 0x24 DUP4 REVERT JUMPDEST SWAP1 POP SWAP1 JUMP JUMPDEST PUSH1 0xFF PUSH1 0x4 SLOAD AND PUSH1 0x3 DUP2 LT ISZERO PUSH2 0x1036 JUMPI PUSH2 0x1028 JUMPI POP PUSH1 0x0 SWAP1 JUMP JUMPDEST PUSH2 0x1033 SWAP1 SELFBALANCE SWAP1 PUSH2 0xF7A JUMP JUMPDEST SWAP1 JUMP JUMPDEST PUSH4 0x4E487B71 PUSH1 0xE0 SHL PUSH1 0x0 MSTORE PUSH1 0x21 PUSH1 0x4 MSTORE PUSH1 0x24 PUSH1 0x0 REVERT JUMPDEST SWAP1 DUP1 PUSH1 0x20 SWAP4 SWAP3 DUP2 DUP5 MSTORE DUP5 DUP5 ADD CALLDATACOPY PUSH1 0x0 DUP3 DUP3 ADD DUP5 ADD MSTORE PUSH1 0x1F ADD PUSH1 0x1F NOT AND ADD ADD SWAP1 JUMP INVALID LOG2 PUSH5 0x6970667358 0x22 SLT KECCAK256 SWAP12 0xB2 0x5D 0xCB RETURNDATACOPY 0xA5 SWAP14 CHAINID PUSH28 0x5BB5ECF3D32E515C4477524AC3AE1ABCF9CEDAAFDCE4AA64736F6C63 NUMBER STOP ADDMOD LT STOP CALLER EXTCODECOPY PUSH17 0x617468207374726F6B652D6D697465726C PUSH10 0x6D69743D22322E362220 PUSH5 0x3DA2646970 PUSH7 0x7358221220A3ED 0xA8 PUSH8 0x6374E4B1AB405DFC GASPRICE CALL CALLER PUSH6 0x3D673832A335 0xB1 0x25 POP 0xD9 SWAP8 SWAP14 DUP14 MUL CREATE DUP11 PUSH5 0x736F6C6343 STOP ADDMOD LT STOP CALLER "
        },
        "gasEstimates": {
          "creation": {
            "codeDepositCost": "4565200",
            "executionCost": "infinite",
            "totalCost": "infinite"
          },
          "external": {
            "approve(address,uint256)": "infinite",
            "balanceOf(address)": "2815",
            "create(address)": "infinite",
            "exists(uint256)": "2619",
            "getApproved(uint256)": "4654",
            "getEthDecimalString(uint256)": "infinite",
            "getPoolById(uint256)": "2441",
            "getStakingPool(uint256)": "infinite",
            "incrementTokenId()": "26846",
            "isApprovedForAll(address,address)": "infinite",
            "mint(address,uint256,address)": "infinite",
            "name()": "infinite",
            "numberOfStakingPools()": "2577",
            "owner()": "2689",
            "ownerOf(uint256)": "2814",
            "renderTokenById(uint256)": "infinite",
            "renounceOwnership()": "26342",
            "safeTransferFrom(address,address,uint256)": "infinite",
            "safeTransferFrom(address,address,uint256,bytes)": "infinite",
            "setApprovalForAll(address,bool)": "26968",
            "stakingPools(uint256)": "4722",
            "supportsInterface(bytes4)": "436",
            "symbol()": "infinite",
            "tokenByIndex(uint256)": "4679",
            "tokenOfOwnerByIndex(address,uint256)": "4938",
            "tokenURI(uint256)": "infinite",
            "totalSupply()": "2401",
            "transferFrom(address,address,uint256)": "infinite",
            "transferOwnership(address)": "28819"
          },
          "internal": {
            "generateSVGofTokenById(uint256)": "infinite",
            "uint2str(uint256)": "infinite"
          }
        },
        "methodIdentifiers": {
          "approve(address,uint256)": "095ea7b3",
          "balanceOf(address)": "70a08231",
          "create(address)": "9ed93318",
          "exists(uint256)": "4f558e79",
          "getApproved(uint256)": "081812fc",
          "getEthDecimalString(uint256)": "edd148a2",
          "getPoolById(uint256)": "0bc59b38",
          "getStakingPool(uint256)": "a2b44d75",
          "incrementTokenId()": "4f3130fa",
          "isApprovedForAll(address,address)": "e985e9c5",
          "mint(address,uint256,address)": "0d4d1513",
          "name()": "06fdde03",
          "numberOfStakingPools()": "6202d396",
          "owner()": "8da5cb5b",
          "ownerOf(uint256)": "6352211e",
          "renderTokenById(uint256)": "a2d6c6da",
          "renounceOwnership()": "715018a6",
          "safeTransferFrom(address,address,uint256)": "42842e0e",
          "safeTransferFrom(address,address,uint256,bytes)": "b88d4fde",
          "setApprovalForAll(address,bool)": "a22cb465",
          "stakingPools(uint256)": "5aad6cf0",
          "supportsInterface(bytes4)": "01ffc9a7",
          "symbol()": "95d89b41",
          "tokenByIndex(uint256)": "4f6ccce7",
          "tokenOfOwnerByIndex(address,uint256)": "2f745c59",
          "tokenURI(uint256)": "c87b56dd",
          "totalSupply()": "18160ddd",
          "transferFrom(address,address,uint256)": "23b872dd",
          "transferOwnership(address)": "f2fde38b"
        }
      },
      "storageLayout": {
        "storage": [
          {
            "astId": 133,
            "contract": "contracts/StakingPoolFactory.sol:StakingPoolFactory",
            "label": "_name",
            "offset": 0,
            "slot": "0",
            "type": "t_string_storage"
          },
          {
            "astId": 135,
            "contract": "contracts/StakingPoolFactory.sol:StakingPoolFactory",
            "label": "_symbol",
            "offset": 0,
            "slot": "1",
            "type": "t_string_storage"
          },
          {
            "astId": 139,
            "contract": "contracts/StakingPoolFactory.sol:StakingPoolFactory",
            "label": "_owners",
            "offset": 0,
            "slot": "2",
            "type": "t_mapping(t_uint256,t_address)"
          },
          {
            "astId": 143,
            "contract": "contracts/StakingPoolFactory.sol:StakingPoolFactory",
            "label": "_balances",
            "offset": 0,
            "slot": "3",
            "type": "t_mapping(t_address,t_uint256)"
          },
          {
            "astId": 147,
            "contract": "contracts/StakingPoolFactory.sol:StakingPoolFactory",
            "label": "_tokenApprovals",
            "offset": 0,
            "slot": "4",
            "type": "t_mapping(t_uint256,t_address)"
          },
          {
            "astId": 153,
            "contract": "contracts/StakingPoolFactory.sol:StakingPoolFactory",
            "label": "_operatorApprovals",
            "offset": 0,
            "slot": "5",
            "type": "t_mapping(t_address,t_mapping(t_address,t_bool))"
          },
          {
            "astId": 1087,
            "contract": "contracts/StakingPoolFactory.sol:StakingPoolFactory",
            "label": "_ownedTokens",
            "offset": 0,
            "slot": "6",
            "type": "t_mapping(t_address,t_mapping(t_uint256,t_uint256))"
          },
          {
            "astId": 1091,
            "contract": "contracts/StakingPoolFactory.sol:StakingPoolFactory",
            "label": "_ownedTokensIndex",
            "offset": 0,
            "slot": "7",
            "type": "t_mapping(t_uint256,t_uint256)"
          },
          {
            "astId": 1094,
            "contract": "contracts/StakingPoolFactory.sol:StakingPoolFactory",
            "label": "_allTokens",
            "offset": 0,
            "slot": "8",
            "type": "t_array(t_uint256)dyn_storage"
          },
          {
            "astId": 1098,
            "contract": "contracts/StakingPoolFactory.sol:StakingPoolFactory",
            "label": "_allTokensIndex",
            "offset": 0,
            "slot": "9",
            "type": "t_mapping(t_uint256,t_uint256)"
          },
          {
            "astId": 7,
            "contract": "contracts/StakingPoolFactory.sol:StakingPoolFactory",
            "label": "_owner",
            "offset": 0,
            "slot": "10",
            "type": "t_address"
          },
          {
            "astId": 2705,
            "contract": "contracts/StakingPoolFactory.sol:StakingPoolFactory",
            "label": "stakingPools",
            "offset": 0,
            "slot": "11",
            "type": "t_array(t_contract(StakingPool)2687)dyn_storage"
          },
          {
            "astId": 2709,
            "contract": "contracts/StakingPoolFactory.sol:StakingPoolFactory",
            "label": "existsStakingPool",
            "offset": 0,
            "slot": "12",
            "type": "t_mapping(t_address,t_bool)"
          },
          {
            "astId": 2713,
            "contract": "contracts/StakingPoolFactory.sol:StakingPoolFactory",
            "label": "poolById",
            "offset": 0,
            "slot": "13",
            "type": "t_mapping(t_uint256,t_address)"
          },
          {
            "astId": 2715,
            "contract": "contracts/StakingPoolFactory.sol:StakingPoolFactory",
            "label": "_tokenId",
            "offset": 0,
            "slot": "14",
            "type": "t_uint256"
          },
          {
            "astId": 2717,
            "contract": "contracts/StakingPoolFactory.sol:StakingPoolFactory",
            "label": "depositContractAddress",
            "offset": 0,
            "slot": "15",
            "type": "t_address"
          }
        ],
        "types": {
          "t_address": {
            "encoding": "inplace",
            "label": "address",
            "numberOfBytes": "20"
          },
          "t_array(t_contract(StakingPool)2687)dyn_storage": {
            "base": "t_contract(StakingPool)2687",
            "encoding": "dynamic_array",
            "label": "contract StakingPool[]",
            "numberOfBytes": "32"
          },
          "t_array(t_uint256)dyn_storage": {
            "base": "t_uint256",
            "encoding": "dynamic_array",
            "label": "uint256[]",
            "numberOfBytes": "32"
          },
          "t_bool": {
            "encoding": "inplace",
            "label": "bool",
            "numberOfBytes": "1"
          },
          "t_contract(StakingPool)2687": {
            "encoding": "inplace",
            "label": "contract StakingPool",
            "numberOfBytes": "20"
          },
          "t_mapping(t_address,t_bool)": {
            "encoding": "mapping",
            "key": "t_address",
            "label": "mapping(address => bool)",
            "numberOfBytes": "32",
            "value": "t_bool"
          },
          "t_mapping(t_address,t_mapping(t_address,t_bool))": {
            "encoding": "mapping",
            "key": "t_address",
            "label": "mapping(address => mapping(address => bool))",
            "numberOfBytes": "32",
            "value": "t_mapping(t_address,t_bool)"
          },
          "t_mapping(t_address,t_mapping(t_uint256,t_uint256))": {
            "encoding": "mapping",
            "key": "t_address",
            "label": "mapping(address => mapping(uint256 => uint256))",
            "numberOfBytes": "32",
            "value": "t_mapping(t_uint256,t_uint256)"
          },
          "t_mapping(t_address,t_uint256)": {
            "encoding": "mapping",
            "key": "t_address",
            "label": "mapping(address => uint256)",
            "numberOfBytes": "32",
            "value": "t_uint256"
          },
          "t_mapping(t_uint256,t_address)": {
            "encoding": "mapping",
            "key": "t_uint256",
            "label": "mapping(uint256 => address)",
            "numberOfBytes": "32",
            "value": "t_address"
          },
          "t_mapping(t_uint256,t_uint256)": {
            "encoding": "mapping",
            "key": "t_uint256",
            "label": "mapping(uint256 => uint256)",
            "numberOfBytes": "32",
            "value": "t_uint256"
          },
          "t_string_storage": {
            "encoding": "bytes",
            "label": "string",
            "numberOfBytes": "32"
          },
          "t_uint256": {
            "encoding": "inplace",
            "label": "uint256",
            "numberOfBytes": "32"
          }
        }
      },
      "userdoc": {
        "kind": "user",
        "methods": {},
        "version": 1
      }
    }
  }
}