{
  "contracts/StakingPool.sol": {
    "StakingPool": {
      "abi": [
        {
          "inputs": [
            {
              "internalType": "address",
              "name": "depositContractAddress_",
              "type": "address"
            },
            {
              "internalType": "address",
              "name": "owner_",
              "type": "address"
            },
            {
              "internalType": "address",
              "name": "factory_",
              "type": "address"
            }
          ],
          "stateMutability": "nonpayable",
          "type": "constructor"
        },
        {
          "anonymous": false,
          "inputs": [
            {
              "indexed": false,
              "internalType": "address",
              "name": "depositContractAddress",
              "type": "address"
            },
            {
              "indexed": false,
              "internalType": "address",
              "name": "caller",
              "type": "address"
            }
          ],
          "name": "Deposit",
          "type": "event"
        },
        {
          "anonymous": false,
          "inputs": [
            {
              "indexed": true,
              "internalType": "address",
              "name": "previousOwner",
              "type": "address"
            },
            {
              "indexed": true,
              "internalType": "address",
              "name": "newOwner",
              "type": "address"
            }
          ],
          "name": "OwnershipTransferred",
          "type": "event"
        },
        {
          "stateMutability": "payable",
          "type": "fallback"
        },
        {
          "inputs": [
            {
              "internalType": "uint256",
              "name": "_id",
              "type": "uint256"
            }
          ],
          "name": "addToDeposit",
          "outputs": [],
          "stateMutability": "payable",
          "type": "function"
        },
        {
          "inputs": [
            {
              "internalType": "address",
              "name": "userAddress",
              "type": "address"
            }
          ],
          "name": "deposit",
          "outputs": [],
          "stateMutability": "payable",
          "type": "function"
        },
        {
          "inputs": [
            {
              "internalType": "uint256",
              "name": "",
              "type": "uint256"
            }
          ],
          "name": "depositAmount",
          "outputs": [
            {
              "internalType": "uint256",
              "name": "",
              "type": "uint256"
            }
          ],
          "stateMutability": "view",
          "type": "function"
        },
        {
          "inputs": [],
          "name": "depositContractAddress",
          "outputs": [
            {
              "internalType": "address",
              "name": "",
              "type": "address"
            }
          ],
          "stateMutability": "view",
          "type": "function"
        },
        {
          "inputs": [],
          "name": "distribute",
          "outputs": [],
          "stateMutability": "nonpayable",
          "type": "function"
        },
        {
          "inputs": [
            {
              "internalType": "uint256",
              "name": "_id",
              "type": "uint256"
            }
          ],
          "name": "getDistributableShare",
          "outputs": [
            {
              "internalType": "uint256",
              "name": "",
              "type": "uint256"
            }
          ],
          "stateMutability": "view",
          "type": "function"
        },
        {
          "inputs": [],
          "name": "getOwner",
          "outputs": [
            {
              "internalType": "address",
              "name": "",
              "type": "address"
            }
          ],
          "stateMutability": "view",
          "type": "function"
        },
        {
          "inputs": [
            {
              "internalType": "uint256",
              "name": "_id",
              "type": "uint256"
            }
          ],
          "name": "getShare",
          "outputs": [
            {
              "internalType": "uint256",
              "name": "",
              "type": "uint256"
            }
          ],
          "stateMutability": "view",
          "type": "function"
        },
        {
          "inputs": [
            {
              "internalType": "uint256",
              "name": "",
              "type": "uint256"
            }
          ],
          "name": "idsInThisPool",
          "outputs": [
            {
              "internalType": "uint256",
              "name": "",
              "type": "uint256"
            }
          ],
          "stateMutability": "view",
          "type": "function"
        },
        {
          "inputs": [],
          "name": "owner",
          "outputs": [
            {
              "internalType": "address",
              "name": "",
              "type": "address"
            }
          ],
          "stateMutability": "view",
          "type": "function"
        },
        {
          "inputs": [],
          "name": "renounceOwnership",
          "outputs": [],
          "stateMutability": "nonpayable",
          "type": "function"
        },
        {
          "inputs": [],
          "name": "rugpull",
          "outputs": [],
          "stateMutability": "nonpayable",
          "type": "function"
        },
        {
          "inputs": [],
          "name": "sendToOwner",
          "outputs": [],
          "stateMutability": "nonpayable",
          "type": "function"
        },
        {
          "inputs": [
            {
              "internalType": "bytes",
              "name": "pubkey",
              "type": "bytes"
            },
            {
              "internalType": "bytes",
              "name": "withdrawal_credentials",
              "type": "bytes"
            },
            {
              "internalType": "bytes",
              "name": "signature",
              "type": "bytes"
            },
            {
              "internalType": "bytes32",
              "name": "deposit_data_root",
              "type": "bytes32"
            }
          ],
          "name": "stake",
          "outputs": [],
          "stateMutability": "nonpayable",
          "type": "function"
        },
        {
          "inputs": [],
          "name": "totalDeposits",
          "outputs": [
            {
              "internalType": "uint256",
              "name": "",
              "type": "uint256"
            }
          ],
          "stateMutability": "view",
          "type": "function"
        },
        {
          "inputs": [
            {
              "internalType": "address",
              "name": "newOwner",
              "type": "address"
            }
          ],
          "name": "transferOwnership",
          "outputs": [],
          "stateMutability": "nonpayable",
          "type": "function"
        },
        {
          "inputs": [],
          "name": "unstake",
          "outputs": [],
          "stateMutability": "nonpayable",
          "type": "function"
        },
        {
          "inputs": [
            {
              "internalType": "uint256",
              "name": "_id",
              "type": "uint256"
            },
            {
              "internalType": "uint256",
              "name": "_amount",
              "type": "uint256"
            }
          ],
          "name": "withdraw",
          "outputs": [],
          "stateMutability": "nonpayable",
          "type": "function"
        },
        {
          "stateMutability": "payable",
          "type": "receive"
        }
      ],
      "devdoc": {
        "kind": "dev",
        "methods": {
          "owner()": {
            "details": "Returns the address of the current owner."
          },
          "renounceOwnership()": {
            "details": "Leaves the contract without owner. It will not be possible to call `onlyOwner` functions anymore. Can only be called by the current owner. NOTE: Renouncing ownership will leave the contract without an owner, thereby removing any functionality that is only available to the owner."
          },
          "transferOwnership(address)": {
            "details": "Transfers ownership of the contract to a new account (`newOwner`). Can only be called by the current owner."
          }
        },
        "version": 1
      },
      "evm": {
        "bytecode": {
          "linkReferences": {},
          "object": "6080346100fc57601f6111cf38819003918201601f19168301916001600160401b03831184841017610101578084926060946040528339810103126100fc5761004781610117565b90610060604061005960208401610117565b9201610117565b916000549160018060a01b03199233848216176000556040519460018060a01b0380948193823391167f8be0079c531659141344cd1fd0a4f28419497f9722a3daafe3b4186f6b6457e060008ba360045490610100600160a81b039060081b169060018060a81b031916178060045560081c1685600654161760065516836007541617600755169060055416176005556110a3908161012c8239f35b600080fd5b634e487b7160e01b600052604160045260246000fd5b51906001600160a01b03821682036100fc5756fe608060409080825260049182361015610020575b505050361561001e57005b005b600091823560e01c9081632a4dbd2b14610bdc575080632def662014610bb4578063441a3e7014610a0a5780634b2b4e361461074e5780636620a935146106e7578063678e300a146106c7578063715018a6146106665780637d8820971461064857806382a790cf1461060f5780638620891c1461046157806387f8ab2614610439578063893d20e8146104115780638da5cb5b146103ea578063cfb5a5f8146103be578063e2664e491461036e578063e4fc6b6d14610355578063f2fde38b146102ba5763f340fa010361001357602092836003193601126102b6576001600160a01b0393813585811691908290036102175760ff83541660038110156102a35761021757341561026c579081859392876007541684875180978193632798987d60e11b83525af193841561026257869461022e575b5060019084875252348486205561017034600254610d67565b600255600354956801000000000000000087101561021b578361019d886001899a99989901600355610c37565b819291549060031b600019811b9283911b1691191617905560075416803b156102175784928360649288519687958694630d4d151360e01b865285015260248401523060448401525af1801561020a576101f657505051f35b6101ff90610d1b565b6102065751f35b5080fd5b50505051903d90823e3d90fd5b8480fd5b634e487b7160e01b865260418352602486fd5b9080945081813d831161025b575b6102468183610d45565b810103126102575751926001610157565b8580fd5b503d61023c565b85513d88823e3d90fd5b9050606492519162461bcd60e51b8352820152601260248201527136bab9ba103232b837b9b4ba1032ba3432b960711b6044820152fd5b634e487b7160e01b865260218452602486fd5b8280fd5b5082346102b65760203660031901126102b6578035906001600160a01b0380831690818403610257576102f1908654163314610c84565b15610303575061030090610ccf565b51f35b608490602084519162461bcd60e51b8352820152602660248201527f4f776e61626c653a206e6577206f776e657220697320746865207a65726f206160448201526564647265737360d01b6064820152fd5b5034610206578160031936011261020657610300610db6565b503461020657816003193601126102065761039360018060a01b038354163314610c84565b81808080478181156103b5575b3390f1156103ab5751f35b51903d90823e3d90fd5b506108fc6103a0565b5090346103e75760203660031901126103e757506103e0602092479035610f7a565b9051908152f35b80fd5b5034610206578160031936011261020657905490516001600160a01b039091168152602090f35b503461020657816003193601126102065760055490516001600160a01b039091168152602090f35b5082346102b65760203660031901126102b65760209282913581526001845220549051908152f35b50826020806003193601126105215781359160018060a01b03858382600754166024885180948193634f558e7960e01b83528a898401525af190811561059d5787916105d5575b50156105a757808360249260075416875193848092630178b36760e31b825289888301525afa91821561059d57879261056e575b50309116036105385760ff81541690600382101561052557506105215760019184525280822061050d348254610d67565b905561051b34600254610d67565b60025551f35b8380fd5b634e487b7160e01b865260219052602485fd5b60649184519162461bcd60e51b835282015260126024820152711ddc9bdb99c81cdd185ada5b99c81c1bdbdb60721b6044820152fd5b61058f919250843d8611610596575b6105878183610d45565b810190610d8a565b90876104dc565b503d61057d565b86513d89823e3d90fd5b5060649184519162461bcd60e51b835282015260096024820152681b9bdd08195e1a5cdd60ba1b6044820152fd5b90508381813d8311610608575b6105ec8183610d45565b810103126106045751801515810361060457876104a8565b8680fd5b503d6105e2565b5082346102b65760203660031901126102b65735916003548310156103e7575061063a602092610c37565b90549060031b1c9051908152f35b50346102065781600319360112610206576020906002549051908152f35b5034610206578160031936011261020657600060018060a01b0361068e818554163314610c84565b81546001600160a01b031981168355925192167f8be0079c531659141344cd1fd0a4f28419497f9722a3daafe3b4186f6b6457e08284a3f35b5090346103e75760203660031901126103e757506103e06020923561100f565b5082346102b657826003193601126102b65782546005546001600160a01b03908116929116821461071c575061030090610ccf565b606490602084519162461bcd60e51b8352820152600c60248201526b616c726561647920646f6e6560a01b6044820152fd5b5034610206576003196080368201126102b65767ffffffffffffffff938035858111610217576107819036908301610c04565b906024968735818111610a065761079b9036908601610c04565b939091604435818111610951576107b59036908801610c04565b9a9060018060a01b03986107cd8a8d54163314610c84565b6801bc16d674ec800000938447106109d257895460ff19166001178a5530600160f81b81019081106109c0578c519160208301918252602083528d830190838210818311176109ad57818f528b1161099b57610833601f8c01601f191660200182610d45565b8a81526060830190368c8b0111610997578f8c8b843760608d860101525190209151902003610955578b9c8a60069d999a9b9c9d541696873b15610951578d516304512a2360e31b81526080818e01529a8b998a988997929161089a9160848a019161104c565b918588840301908801526108ad9261104c565b918483030160448501526108c09261104c565b606435606483015203925af1801561094757610910575b507f1944debb24a9aafcf2708be964e412cdb73fc36d6ea24577fd8dcc05b93b4a449183915460081c168151908152336020820152a151f35b9183919461093e7f1944debb24a9aafcf2708be964e412cdb73fc36d6ea24577fd8dcc05b93b4a4494610d1b565b949150916108d7565b84513d87823e3d90fd5b8980fd5b8a5162461bcd60e51b81526020818b0152601e818501527f7769746864726177616c2063726564656e7469616c206d69736d6174636800006044820152606490fd5b8f80fd5b634e487b7160e01b8f5260418c52858ffd5b50634e487b7160e01b8f5260418c52858ffd5b634e487b7160e01b8e5260118b52848efd5b508a5162461bcd60e51b81526020818b0152600e818501526d0dcdee840cadcdeeaced040cae8d60931b6044820152606490fd5b8780fd5b5082346102b657816003193601126102b657803560249081359260ff8154166003811015610ba257600114610b605760075485516331a9108f60e11b8152828101849052602094916001600160a01b039190869082908590829086165afa908115610b56578991610b39575b50163303610b075782875260018452848688205410610ace575050848093600182948394845252858220610aab828254610da9565b9055610ab981600254610da9565b6002558181156103b5573390f1156103ab5751f35b855162461bcd60e51b8152918201849052601490820152731b9bdd08195b9bdd59da0819195c1bdcda5d195960621b6044820152606490fd5b855162461bcd60e51b8152918201849052600d908201526c3737ba103a34329037bbb732b960991b6044820152606490fd5b610b509150863d8811610596576105878183610d45565b89610a76565b88513d8b823e3d90fd5b606490601b84602088519362461bcd60e51b85528401528201527f63616e6e6f74207769746864726177206f6e6365207374616b656400000000006044820152fd5b634e487b7160e01b8752602182528387fd5b5082346102b657826003193601126102b657610bce610db6565b805460ff1916600217905551f35b839085346102b657826003193601126102b6575460081c6001600160a01b0316815260209150f35b9181601f84011215610c325782359167ffffffffffffffff8311610c325760208381860195010111610c3257565b600080fd5b600354811015610c6e5760036000527fc2575a0e9e593c00f959f8c92f12db2869c3395a3b0502d05e2516446f71f85b0190600090565b634e487b7160e01b600052603260045260246000fd5b15610c8b57565b606460405162461bcd60e51b815260206004820152602060248201527f4f776e61626c653a2063616c6c6572206973206e6f7420746865206f776e65726044820152fd5b600080546001600160a01b039283166001600160a01b03198216811783556040519093909116917f8be0079c531659141344cd1fd0a4f28419497f9722a3daafe3b4186f6b6457e091a3565b67ffffffffffffffff8111610d2f57604052565b634e487b7160e01b600052604160045260246000fd5b90601f8019910116810190811067ffffffffffffffff821117610d2f57604052565b91908201809211610d7457565b634e487b7160e01b600052601160045260246000fd5b90816020910312610c3257516001600160a01b0381168103610c325790565b91908203918211610d7457565b60049060ff82541660039283821015610f65576001809203610f2157476064811115610edd57600094835b610dee575b505050509050565b8054861015610ed857610e0086610c37565b905490821b1c60018060a01b03806007541691604092835180916331a9108f60e11b8252838983015281602460209485935afa918215610ecd5793600094938594938986959486958693610eaa575b5050610e5b9192610f7a565b9183918315610ea0575b1690f115610e9657506000198614610e81579483019483610de1565b601183634e487b7160e01b6000525260246000fd5b513d6000823e3d90fd5b6108fc9250610e65565b610e5b93509081610ec692903d10610596576105878183610d45565b9138610e4f565b85513d6000823e3d90fd5b610de6565b60405162461bcd60e51b8152602081840181905260248201527f6d696e696d756d206f66203130302077656920746f20646973747269627574656044820152606490fd5b60649060206040519162461bcd60e51b8352820152601c60248201527f757365207769746864726177207768656e206e6f74207374616b6564000000006044820152fd5b602190634e487b7160e01b6000525260246000fd5b6000908152600160205260408120541561100a5760408120546000199290811515828504821116610ff657600254918215610fe2570204916001831115610fdc578201918211610fc8575090565b634e487b7160e01b81526011600452602490fd5b50905090565b634e487b7160e01b84526012600452602484fd5b634e487b7160e01b83526011600452602483fd5b905090565b60ff600454166003811015611036576110285750600090565b611033904790610f7a565b90565b634e487b7160e01b600052602160045260246000fd5b908060209392818452848401376000828201840152601f01601f191601019056fea26469706673582212209bb25dcb3ea59d467b5bb5ecf3d32e515c4477524ac3ae1abcf9cedaafdce4aa64736f6c63430008100033",
          "opcodes": "PUSH1 0x80 CALLVALUE PUSH2 0xFC JUMPI PUSH1 0x1F PUSH2 0x11CF CODESIZE DUP2 SWAP1 SUB SWAP2 DUP3 ADD PUSH1 0x1F NOT AND DUP4 ADD SWAP2 PUSH1 0x1 PUSH1 0x1 PUSH1 0x40 SHL SUB DUP4 GT DUP5 DUP5 LT OR PUSH2 0x101 JUMPI DUP1 DUP5 SWAP3 PUSH1 0x60 SWAP5 PUSH1 0x40 MSTORE DUP4 CODECOPY DUP2 ADD SUB SLT PUSH2 0xFC JUMPI PUSH2 0x47 DUP2 PUSH2 0x117 JUMP JUMPDEST SWAP1 PUSH2 0x60 PUSH1 0x40 PUSH2 0x59 PUSH1 0x20 DUP5 ADD PUSH2 0x117 JUMP JUMPDEST SWAP3 ADD PUSH2 0x117 JUMP JUMPDEST SWAP2 PUSH1 0x0 SLOAD SWAP2 PUSH1 0x1 DUP1 PUSH1 0xA0 SHL SUB NOT SWAP3 CALLER DUP5 DUP3 AND OR PUSH1 0x0 SSTORE PUSH1 0x40 MLOAD SWAP5 PUSH1 0x1 DUP1 PUSH1 0xA0 SHL SUB DUP1 SWAP5 DUP2 SWAP4 DUP3 CALLER SWAP2 AND PUSH32 0x8BE0079C531659141344CD1FD0A4F28419497F9722A3DAAFE3B4186F6B6457E0 PUSH1 0x0 DUP12 LOG3 PUSH1 0x4 SLOAD SWAP1 PUSH2 0x100 PUSH1 0x1 PUSH1 0xA8 SHL SUB SWAP1 PUSH1 0x8 SHL AND SWAP1 PUSH1 0x1 DUP1 PUSH1 0xA8 SHL SUB NOT AND OR DUP1 PUSH1 0x4 SSTORE PUSH1 0x8 SHR AND DUP6 PUSH1 0x6 SLOAD AND OR PUSH1 0x6 SSTORE AND DUP4 PUSH1 0x7 SLOAD AND OR PUSH1 0x7 SSTORE AND SWAP1 PUSH1 0x5 SLOAD AND OR PUSH1 0x5 SSTORE PUSH2 0x10A3 SWAP1 DUP2 PUSH2 0x12C DUP3 CODECOPY RETURN JUMPDEST PUSH1 0x0 DUP1 REVERT JUMPDEST PUSH4 0x4E487B71 PUSH1 0xE0 SHL PUSH1 0x0 MSTORE PUSH1 0x41 PUSH1 0x4 MSTORE PUSH1 0x24 PUSH1 0x0 REVERT JUMPDEST MLOAD SWAP1 PUSH1 0x1 PUSH1 0x1 PUSH1 0xA0 SHL SUB DUP3 AND DUP3 SUB PUSH2 0xFC JUMPI JUMP INVALID PUSH1 0x80 PUSH1 0x40 SWAP1 DUP1 DUP3 MSTORE PUSH1 0x4 SWAP2 DUP3 CALLDATASIZE LT ISZERO PUSH2 0x20 JUMPI JUMPDEST POP POP POP CALLDATASIZE ISZERO PUSH2 0x1E JUMPI STOP JUMPDEST STOP JUMPDEST PUSH1 0x0 SWAP2 DUP3 CALLDATALOAD PUSH1 0xE0 SHR SWAP1 DUP2 PUSH4 0x2A4DBD2B EQ PUSH2 0xBDC JUMPI POP DUP1 PUSH4 0x2DEF6620 EQ PUSH2 0xBB4 JUMPI DUP1 PUSH4 0x441A3E70 EQ PUSH2 0xA0A JUMPI DUP1 PUSH4 0x4B2B4E36 EQ PUSH2 0x74E JUMPI DUP1 PUSH4 0x6620A935 EQ PUSH2 0x6E7 JUMPI DUP1 PUSH4 0x678E300A EQ PUSH2 0x6C7 JUMPI DUP1 PUSH4 0x715018A6 EQ PUSH2 0x666 JUMPI DUP1 PUSH4 0x7D882097 EQ PUSH2 0x648 JUMPI DUP1 PUSH4 0x82A790CF EQ PUSH2 0x60F JUMPI DUP1 PUSH4 0x8620891C EQ PUSH2 0x461 JUMPI DUP1 PUSH4 0x87F8AB26 EQ PUSH2 0x439 JUMPI DUP1 PUSH4 0x893D20E8 EQ PUSH2 0x411 JUMPI DUP1 PUSH4 0x8DA5CB5B EQ PUSH2 0x3EA JUMPI DUP1 PUSH4 0xCFB5A5F8 EQ PUSH2 0x3BE JUMPI DUP1 PUSH4 0xE2664E49 EQ PUSH2 0x36E JUMPI DUP1 PUSH4 0xE4FC6B6D EQ PUSH2 0x355 JUMPI DUP1 PUSH4 0xF2FDE38B EQ PUSH2 0x2BA JUMPI PUSH4 0xF340FA01 SUB PUSH2 0x13 JUMPI PUSH1 0x20 SWAP3 DUP4 PUSH1 0x3 NOT CALLDATASIZE ADD SLT PUSH2 0x2B6 JUMPI PUSH1 0x1 PUSH1 0x1 PUSH1 0xA0 SHL SUB SWAP4 DUP2 CALLDATALOAD DUP6 DUP2 AND SWAP2 SWAP1 DUP3 SWAP1 SUB PUSH2 0x217 JUMPI PUSH1 0xFF DUP4 SLOAD AND PUSH1 0x3 DUP2 LT ISZERO PUSH2 0x2A3 JUMPI PUSH2 0x217 JUMPI CALLVALUE ISZERO PUSH2 0x26C JUMPI SWAP1 DUP2 DUP6 SWAP4 SWAP3 DUP8 PUSH1 0x7 SLOAD AND DUP5 DUP8 MLOAD DUP1 SWAP8 DUP2 SWAP4 PUSH4 0x2798987D PUSH1 0xE1 SHL DUP4 MSTORE GAS CALL SWAP4 DUP5 ISZERO PUSH2 0x262 JUMPI DUP7 SWAP5 PUSH2 0x22E JUMPI JUMPDEST POP PUSH1 0x1 SWAP1 DUP5 DUP8 MSTORE MSTORE CALLVALUE DUP5 DUP7 KECCAK256 SSTORE PUSH2 0x170 CALLVALUE PUSH1 0x2 SLOAD PUSH2 0xD67 JUMP JUMPDEST PUSH1 0x2 SSTORE PUSH1 0x3 SLOAD SWAP6 PUSH9 0x10000000000000000 DUP8 LT ISZERO PUSH2 0x21B JUMPI DUP4 PUSH2 0x19D DUP9 PUSH1 0x1 DUP10 SWAP11 SWAP10 SWAP9 SWAP10 ADD PUSH1 0x3 SSTORE PUSH2 0xC37 JUMP JUMPDEST DUP2 SWAP3 SWAP2 SLOAD SWAP1 PUSH1 0x3 SHL PUSH1 0x0 NOT DUP2 SHL SWAP3 DUP4 SWAP2 SHL AND SWAP2 NOT AND OR SWAP1 SSTORE PUSH1 0x7 SLOAD AND DUP1 EXTCODESIZE ISZERO PUSH2 0x217 JUMPI DUP5 SWAP3 DUP4 PUSH1 0x64 SWAP3 DUP9 MLOAD SWAP7 DUP8 SWAP6 DUP7 SWAP5 PUSH4 0xD4D1513 PUSH1 0xE0 SHL DUP7 MSTORE DUP6 ADD MSTORE PUSH1 0x24 DUP5 ADD MSTORE ADDRESS PUSH1 0x44 DUP5 ADD MSTORE GAS CALL DUP1 ISZERO PUSH2 0x20A JUMPI PUSH2 0x1F6 JUMPI POP POP MLOAD RETURN JUMPDEST PUSH2 0x1FF SWAP1 PUSH2 0xD1B JUMP JUMPDEST PUSH2 0x206 JUMPI MLOAD RETURN JUMPDEST POP DUP1 REVERT JUMPDEST POP POP POP MLOAD SWAP1 RETURNDATASIZE SWAP1 DUP3 RETURNDATACOPY RETURNDATASIZE SWAP1 REVERT JUMPDEST DUP5 DUP1 REVERT JUMPDEST PUSH4 0x4E487B71 PUSH1 0xE0 SHL DUP7 MSTORE PUSH1 0x41 DUP4 MSTORE PUSH1 0x24 DUP7 REVERT JUMPDEST SWAP1 DUP1 SWAP5 POP DUP2 DUP2 RETURNDATASIZE DUP4 GT PUSH2 0x25B JUMPI JUMPDEST PUSH2 0x246 DUP2 DUP4 PUSH2 0xD45 JUMP JUMPDEST DUP2 ADD SUB SLT PUSH2 0x257 JUMPI MLOAD SWAP3 PUSH1 0x1 PUSH2 0x157 JUMP JUMPDEST DUP6 DUP1 REVERT JUMPDEST POP RETURNDATASIZE PUSH2 0x23C JUMP JUMPDEST DUP6 MLOAD RETURNDATASIZE DUP9 DUP3 RETURNDATACOPY RETURNDATASIZE SWAP1 REVERT JUMPDEST SWAP1 POP PUSH1 0x64 SWAP3 MLOAD SWAP2 PUSH3 0x461BCD PUSH1 0xE5 SHL DUP4 MSTORE DUP3 ADD MSTORE PUSH1 0x12 PUSH1 0x24 DUP3 ADD MSTORE PUSH18 0x36BAB9BA103232B837B9B4BA1032BA3432B9 PUSH1 0x71 SHL PUSH1 0x44 DUP3 ADD MSTORE REVERT JUMPDEST PUSH4 0x4E487B71 PUSH1 0xE0 SHL DUP7 MSTORE PUSH1 0x21 DUP5 MSTORE PUSH1 0x24 DUP7 REVERT JUMPDEST DUP3 DUP1 REVERT JUMPDEST POP DUP3 CALLVALUE PUSH2 0x2B6 JUMPI PUSH1 0x20 CALLDATASIZE PUSH1 0x3 NOT ADD SLT PUSH2 0x2B6 JUMPI DUP1 CALLDATALOAD SWAP1 PUSH1 0x1 PUSH1 0x1 PUSH1 0xA0 SHL SUB DUP1 DUP4 AND SWAP1 DUP2 DUP5 SUB PUSH2 0x257 JUMPI PUSH2 0x2F1 SWAP1 DUP7 SLOAD AND CALLER EQ PUSH2 0xC84 JUMP JUMPDEST ISZERO PUSH2 0x303 JUMPI POP PUSH2 0x300 SWAP1 PUSH2 0xCCF JUMP JUMPDEST MLOAD RETURN JUMPDEST PUSH1 0x84 SWAP1 PUSH1 0x20 DUP5 MLOAD SWAP2 PUSH3 0x461BCD PUSH1 0xE5 SHL DUP4 MSTORE DUP3 ADD MSTORE PUSH1 0x26 PUSH1 0x24 DUP3 ADD MSTORE PUSH32 0x4F776E61626C653A206E6577206F776E657220697320746865207A65726F2061 PUSH1 0x44 DUP3 ADD MSTORE PUSH6 0x646472657373 PUSH1 0xD0 SHL PUSH1 0x64 DUP3 ADD MSTORE REVERT JUMPDEST POP CALLVALUE PUSH2 0x206 JUMPI DUP2 PUSH1 0x3 NOT CALLDATASIZE ADD SLT PUSH2 0x206 JUMPI PUSH2 0x300 PUSH2 0xDB6 JUMP JUMPDEST POP CALLVALUE PUSH2 0x206 JUMPI DUP2 PUSH1 0x3 NOT CALLDATASIZE ADD SLT PUSH2 0x206 JUMPI PUSH2 0x393 PUSH1 0x1 DUP1 PUSH1 0xA0 SHL SUB DUP4 SLOAD AND CALLER EQ PUSH2 0xC84 JUMP JUMPDEST DUP2 DUP1 DUP1 DUP1 SELFBALANCE DUP2 DUP2 ISZERO PUSH2 0x3B5 JUMPI JUMPDEST CALLER SWAP1 CALL ISZERO PUSH2 0x3AB JUMPI MLOAD RETURN JUMPDEST MLOAD SWAP1 RETURNDATASIZE SWAP1 DUP3 RETURNDATACOPY RETURNDATASIZE SWAP1 REVERT JUMPDEST POP PUSH2 0x8FC PUSH2 0x3A0 JUMP JUMPDEST POP SWAP1 CALLVALUE PUSH2 0x3E7 JUMPI PUSH1 0x20 CALLDATASIZE PUSH1 0x3 NOT ADD SLT PUSH2 0x3E7 JUMPI POP PUSH2 0x3E0 PUSH1 0x20 SWAP3 SELFBALANCE SWAP1 CALLDATALOAD PUSH2 0xF7A JUMP JUMPDEST SWAP1 MLOAD SWAP1 DUP2 MSTORE RETURN JUMPDEST DUP1 REVERT JUMPDEST POP CALLVALUE PUSH2 0x206 JUMPI DUP2 PUSH1 0x3 NOT CALLDATASIZE ADD SLT PUSH2 0x206 JUMPI SWAP1 SLOAD SWAP1 MLOAD PUSH1 0x1 PUSH1 0x1 PUSH1 0xA0 SHL SUB SWAP1 SWAP2 AND DUP2 MSTORE PUSH1 0x20 SWAP1 RETURN JUMPDEST POP CALLVALUE PUSH2 0x206 JUMPI DUP2 PUSH1 0x3 NOT CALLDATASIZE ADD SLT PUSH2 0x206 JUMPI PUSH1 0x5 SLOAD SWAP1 MLOAD PUSH1 0x1 PUSH1 0x1 PUSH1 0xA0 SHL SUB SWAP1 SWAP2 AND DUP2 MSTORE PUSH1 0x20 SWAP1 RETURN JUMPDEST POP DUP3 CALLVALUE PUSH2 0x2B6 JUMPI PUSH1 0x20 CALLDATASIZE PUSH1 0x3 NOT ADD SLT PUSH2 0x2B6 JUMPI PUSH1 0x20 SWAP3 DUP3 SWAP2 CALLDATALOAD DUP2 MSTORE PUSH1 0x1 DUP5 MSTORE KECCAK256 SLOAD SWAP1 MLOAD SWAP1 DUP2 MSTORE RETURN JUMPDEST POP DUP3 PUSH1 0x20 DUP1 PUSH1 0x3 NOT CALLDATASIZE ADD SLT PUSH2 0x521 JUMPI DUP2 CALLDATALOAD SWAP2 PUSH1 0x1 DUP1 PUSH1 0xA0 SHL SUB DUP6 DUP4 DUP3 PUSH1 0x7 SLOAD AND PUSH1 0x24 DUP9 MLOAD DUP1 SWAP5 DUP2 SWAP4 PUSH4 0x4F558E79 PUSH1 0xE0 SHL DUP4 MSTORE DUP11 DUP10 DUP5 ADD MSTORE GAS CALL SWAP1 DUP2 ISZERO PUSH2 0x59D JUMPI DUP8 SWAP2 PUSH2 0x5D5 JUMPI JUMPDEST POP ISZERO PUSH2 0x5A7 JUMPI DUP1 DUP4 PUSH1 0x24 SWAP3 PUSH1 0x7 SLOAD AND DUP8 MLOAD SWAP4 DUP5 DUP1 SWAP3 PUSH4 0x178B367 PUSH1 0xE3 SHL DUP3 MSTORE DUP10 DUP9 DUP4 ADD MSTORE GAS STATICCALL SWAP2 DUP3 ISZERO PUSH2 0x59D JUMPI DUP8 SWAP3 PUSH2 0x56E JUMPI JUMPDEST POP ADDRESS SWAP2 AND SUB PUSH2 0x538 JUMPI PUSH1 0xFF DUP2 SLOAD AND SWAP1 PUSH1 0x3 DUP3 LT ISZERO PUSH2 0x525 JUMPI POP PUSH2 0x521 JUMPI PUSH1 0x1 SWAP2 DUP5 MSTORE MSTORE DUP1 DUP3 KECCAK256 PUSH2 0x50D CALLVALUE DUP3 SLOAD PUSH2 0xD67 JUMP JUMPDEST SWAP1 SSTORE PUSH2 0x51B CALLVALUE PUSH1 0x2 SLOAD PUSH2 0xD67 JUMP JUMPDEST PUSH1 0x2 SSTORE MLOAD RETURN JUMPDEST DUP4 DUP1 REVERT JUMPDEST PUSH4 0x4E487B71 PUSH1 0xE0 SHL DUP7 MSTORE PUSH1 0x21 SWAP1 MSTORE PUSH1 0x24 DUP6 REVERT JUMPDEST PUSH1 0x64 SWAP2 DUP5 MLOAD SWAP2 PUSH3 0x461BCD PUSH1 0xE5 SHL DUP4 MSTORE DUP3 ADD MSTORE PUSH1 0x12 PUSH1 0x24 DUP3 ADD MSTORE PUSH18 0x1DDC9BDB99C81CDD185ADA5B99C81C1BDBDB PUSH1 0x72 SHL PUSH1 0x44 DUP3 ADD MSTORE REVERT JUMPDEST PUSH2 0x58F SWAP2 SWAP3 POP DUP5 RETURNDATASIZE DUP7 GT PUSH2 0x596 JUMPI JUMPDEST PUSH2 0x587 DUP2 DUP4 PUSH2 0xD45 JUMP JUMPDEST DUP2 ADD SWAP1 PUSH2 0xD8A JUMP JUMPDEST SWAP1 DUP8 PUSH2 0x4DC JUMP JUMPDEST POP RETURNDATASIZE PUSH2 0x57D JUMP JUMPDEST DUP7 MLOAD RETURNDATASIZE DUP10 DUP3 RETURNDATACOPY RETURNDATASIZE SWAP1 REVERT JUMPDEST POP PUSH1 0x64 SWAP2 DUP5 MLOAD SWAP2 PUSH3 0x461BCD PUSH1 0xE5 SHL DUP4 MSTORE DUP3 ADD MSTORE PUSH1 0x9 PUSH1 0x24 DUP3 ADD MSTORE PUSH9 0x1B9BDD08195E1A5CDD PUSH1 0xBA SHL PUSH1 0x44 DUP3 ADD MSTORE REVERT JUMPDEST SWAP1 POP DUP4 DUP2 DUP2 RETURNDATASIZE DUP4 GT PUSH2 0x608 JUMPI JUMPDEST PUSH2 0x5EC DUP2 DUP4 PUSH2 0xD45 JUMP JUMPDEST DUP2 ADD SUB SLT PUSH2 0x604 JUMPI MLOAD DUP1 ISZERO ISZERO DUP2 SUB PUSH2 0x604 JUMPI DUP8 PUSH2 0x4A8 JUMP JUMPDEST DUP7 DUP1 REVERT JUMPDEST POP RETURNDATASIZE PUSH2 0x5E2 JUMP JUMPDEST POP DUP3 CALLVALUE PUSH2 0x2B6 JUMPI PUSH1 0x20 CALLDATASIZE PUSH1 0x3 NOT ADD SLT PUSH2 0x2B6 JUMPI CALLDATALOAD SWAP2 PUSH1 0x3 SLOAD DUP4 LT ISZERO PUSH2 0x3E7 JUMPI POP PUSH2 0x63A PUSH1 0x20 SWAP3 PUSH2 0xC37 JUMP JUMPDEST SWAP1 SLOAD SWAP1 PUSH1 0x3 SHL SHR SWAP1 MLOAD SWAP1 DUP2 MSTORE RETURN JUMPDEST POP CALLVALUE PUSH2 0x206 JUMPI DUP2 PUSH1 0x3 NOT CALLDATASIZE ADD SLT PUSH2 0x206 JUMPI PUSH1 0x20 SWAP1 PUSH1 0x2 SLOAD SWAP1 MLOAD SWAP1 DUP2 MSTORE RETURN JUMPDEST POP CALLVALUE PUSH2 0x206 JUMPI DUP2 PUSH1 0x3 NOT CALLDATASIZE ADD SLT PUSH2 0x206 JUMPI PUSH1 0x0 PUSH1 0x1 DUP1 PUSH1 0xA0 SHL SUB PUSH2 0x68E DUP2 DUP6 SLOAD AND CALLER EQ PUSH2 0xC84 JUMP JUMPDEST DUP2 SLOAD PUSH1 0x1 PUSH1 0x1 PUSH1 0xA0 SHL SUB NOT DUP2 AND DUP4 SSTORE SWAP3 MLOAD SWAP3 AND PUSH32 0x8BE0079C531659141344CD1FD0A4F28419497F9722A3DAAFE3B4186F6B6457E0 DUP3 DUP5 LOG3 RETURN JUMPDEST POP SWAP1 CALLVALUE PUSH2 0x3E7 JUMPI PUSH1 0x20 CALLDATASIZE PUSH1 0x3 NOT ADD SLT PUSH2 0x3E7 JUMPI POP PUSH2 0x3E0 PUSH1 0x20 SWAP3 CALLDATALOAD PUSH2 0x100F JUMP JUMPDEST POP DUP3 CALLVALUE PUSH2 0x2B6 JUMPI DUP3 PUSH1 0x3 NOT CALLDATASIZE ADD SLT PUSH2 0x2B6 JUMPI DUP3 SLOAD PUSH1 0x5 SLOAD PUSH1 0x1 PUSH1 0x1 PUSH1 0xA0 SHL SUB SWAP1 DUP2 AND SWAP3 SWAP2 AND DUP3 EQ PUSH2 0x71C JUMPI POP PUSH2 0x300 SWAP1 PUSH2 0xCCF JUMP JUMPDEST PUSH1 0x64 SWAP1 PUSH1 0x20 DUP5 MLOAD SWAP2 PUSH3 0x461BCD PUSH1 0xE5 SHL DUP4 MSTORE DUP3 ADD MSTORE PUSH1 0xC PUSH1 0x24 DUP3 ADD MSTORE PUSH12 0x616C726561647920646F6E65 PUSH1 0xA0 SHL PUSH1 0x44 DUP3 ADD MSTORE REVERT JUMPDEST POP CALLVALUE PUSH2 0x206 JUMPI PUSH1 0x3 NOT PUSH1 0x80 CALLDATASIZE DUP3 ADD SLT PUSH2 0x2B6 JUMPI PUSH8 0xFFFFFFFFFFFFFFFF SWAP4 DUP1 CALLDATALOAD DUP6 DUP2 GT PUSH2 0x217 JUMPI PUSH2 0x781 SWAP1 CALLDATASIZE SWAP1 DUP4 ADD PUSH2 0xC04 JUMP JUMPDEST SWAP1 PUSH1 0x24 SWAP7 DUP8 CALLDATALOAD DUP2 DUP2 GT PUSH2 0xA06 JUMPI PUSH2 0x79B SWAP1 CALLDATASIZE SWAP1 DUP7 ADD PUSH2 0xC04 JUMP JUMPDEST SWAP4 SWAP1 SWAP2 PUSH1 0x44 CALLDATALOAD DUP2 DUP2 GT PUSH2 0x951 JUMPI PUSH2 0x7B5 SWAP1 CALLDATASIZE SWAP1 DUP9 ADD PUSH2 0xC04 JUMP JUMPDEST SWAP11 SWAP1 PUSH1 0x1 DUP1 PUSH1 0xA0 SHL SUB SWAP9 PUSH2 0x7CD DUP11 DUP14 SLOAD AND CALLER EQ PUSH2 0xC84 JUMP JUMPDEST PUSH9 0x1BC16D674EC800000 SWAP4 DUP5 SELFBALANCE LT PUSH2 0x9D2 JUMPI DUP10 SLOAD PUSH1 0xFF NOT AND PUSH1 0x1 OR DUP11 SSTORE ADDRESS PUSH1 0x1 PUSH1 0xF8 SHL DUP2 ADD SWAP1 DUP2 LT PUSH2 0x9C0 JUMPI DUP13 MLOAD SWAP2 PUSH1 0x20 DUP4 ADD SWAP2 DUP3 MSTORE PUSH1 0x20 DUP4 MSTORE DUP14 DUP4 ADD SWAP1 DUP4 DUP3 LT DUP2 DUP4 GT OR PUSH2 0x9AD JUMPI DUP2 DUP16 MSTORE DUP12 GT PUSH2 0x99B JUMPI PUSH2 0x833 PUSH1 0x1F DUP13 ADD PUSH1 0x1F NOT AND PUSH1 0x20 ADD DUP3 PUSH2 0xD45 JUMP JUMPDEST DUP11 DUP2 MSTORE PUSH1 0x60 DUP4 ADD SWAP1 CALLDATASIZE DUP13 DUP12 ADD GT PUSH2 0x997 JUMPI DUP16 DUP13 DUP12 DUP5 CALLDATACOPY PUSH1 0x60 DUP14 DUP7 ADD ADD MSTORE MLOAD SWAP1 KECCAK256 SWAP2 MLOAD SWAP1 KECCAK256 SUB PUSH2 0x955 JUMPI DUP12 SWAP13 DUP11 PUSH1 0x6 SWAP14 SWAP10 SWAP11 SWAP12 SWAP13 SWAP14 SLOAD AND SWAP7 DUP8 EXTCODESIZE ISZERO PUSH2 0x951 JUMPI DUP14 MLOAD PUSH4 0x4512A23 PUSH1 0xE3 SHL DUP2 MSTORE PUSH1 0x80 DUP2 DUP15 ADD MSTORE SWAP11 DUP12 SWAP10 DUP11 SWAP9 DUP10 SWAP8 SWAP3 SWAP2 PUSH2 0x89A SWAP2 PUSH1 0x84 DUP11 ADD SWAP2 PUSH2 0x104C JUMP JUMPDEST SWAP2 DUP6 DUP9 DUP5 SUB ADD SWAP1 DUP9 ADD MSTORE PUSH2 0x8AD SWAP3 PUSH2 0x104C JUMP JUMPDEST SWAP2 DUP5 DUP4 SUB ADD PUSH1 0x44 DUP6 ADD MSTORE PUSH2 0x8C0 SWAP3 PUSH2 0x104C JUMP JUMPDEST PUSH1 0x64 CALLDATALOAD PUSH1 0x64 DUP4 ADD MSTORE SUB SWAP3 GAS CALL DUP1 ISZERO PUSH2 0x947 JUMPI PUSH2 0x910 JUMPI JUMPDEST POP PUSH32 0x1944DEBB24A9AAFCF2708BE964E412CDB73FC36D6EA24577FD8DCC05B93B4A44 SWAP2 DUP4 SWAP2 SLOAD PUSH1 0x8 SHR AND DUP2 MLOAD SWAP1 DUP2 MSTORE CALLER PUSH1 0x20 DUP3 ADD MSTORE LOG1 MLOAD RETURN JUMPDEST SWAP2 DUP4 SWAP2 SWAP5 PUSH2 0x93E PUSH32 0x1944DEBB24A9AAFCF2708BE964E412CDB73FC36D6EA24577FD8DCC05B93B4A44 SWAP5 PUSH2 0xD1B JUMP JUMPDEST SWAP5 SWAP2 POP SWAP2 PUSH2 0x8D7 JUMP JUMPDEST DUP5 MLOAD RETURNDATASIZE DUP8 DUP3 RETURNDATACOPY RETURNDATASIZE SWAP1 REVERT JUMPDEST DUP10 DUP1 REVERT JUMPDEST DUP11 MLOAD PUSH3 0x461BCD PUSH1 0xE5 SHL DUP2 MSTORE PUSH1 0x20 DUP2 DUP12 ADD MSTORE PUSH1 0x1E DUP2 DUP6 ADD MSTORE PUSH32 0x7769746864726177616C2063726564656E7469616C206D69736D617463680000 PUSH1 0x44 DUP3 ADD MSTORE PUSH1 0x64 SWAP1 REVERT JUMPDEST DUP16 DUP1 REVERT JUMPDEST PUSH4 0x4E487B71 PUSH1 0xE0 SHL DUP16 MSTORE PUSH1 0x41 DUP13 MSTORE DUP6 DUP16 REVERT JUMPDEST POP PUSH4 0x4E487B71 PUSH1 0xE0 SHL DUP16 MSTORE PUSH1 0x41 DUP13 MSTORE DUP6 DUP16 REVERT JUMPDEST PUSH4 0x4E487B71 PUSH1 0xE0 SHL DUP15 MSTORE PUSH1 0x11 DUP12 MSTORE DUP5 DUP15 REVERT JUMPDEST POP DUP11 MLOAD PUSH3 0x461BCD PUSH1 0xE5 SHL DUP2 MSTORE PUSH1 0x20 DUP2 DUP12 ADD MSTORE PUSH1 0xE DUP2 DUP6 ADD MSTORE PUSH14 0xDCDEE840CADCDEEACED040CAE8D PUSH1 0x93 SHL PUSH1 0x44 DUP3 ADD MSTORE PUSH1 0x64 SWAP1 REVERT JUMPDEST DUP8 DUP1 REVERT JUMPDEST POP DUP3 CALLVALUE PUSH2 0x2B6 JUMPI DUP2 PUSH1 0x3 NOT CALLDATASIZE ADD SLT PUSH2 0x2B6 JUMPI DUP1 CALLDATALOAD PUSH1 0x24 SWAP1 DUP2 CALLDATALOAD SWAP3 PUSH1 0xFF DUP2 SLOAD AND PUSH1 0x3 DUP2 LT ISZERO PUSH2 0xBA2 JUMPI PUSH1 0x1 EQ PUSH2 0xB60 JUMPI PUSH1 0x7 SLOAD DUP6 MLOAD PUSH4 0x31A9108F PUSH1 0xE1 SHL DUP2 MSTORE DUP3 DUP2 ADD DUP5 SWAP1 MSTORE PUSH1 0x20 SWAP5 SWAP2 PUSH1 0x1 PUSH1 0x1 PUSH1 0xA0 SHL SUB SWAP2 SWAP1 DUP7 SWAP1 DUP3 SWAP1 DUP6 SWAP1 DUP3 SWAP1 DUP7 AND GAS STATICCALL SWAP1 DUP2 ISZERO PUSH2 0xB56 JUMPI DUP10 SWAP2 PUSH2 0xB39 JUMPI JUMPDEST POP AND CALLER SUB PUSH2 0xB07 JUMPI DUP3 DUP8 MSTORE PUSH1 0x1 DUP5 MSTORE DUP5 DUP7 DUP9 KECCAK256 SLOAD LT PUSH2 0xACE JUMPI POP POP DUP5 DUP1 SWAP4 PUSH1 0x1 DUP3 SWAP5 DUP4 SWAP5 DUP5 MSTORE MSTORE DUP6 DUP3 KECCAK256 PUSH2 0xAAB DUP3 DUP3 SLOAD PUSH2 0xDA9 JUMP JUMPDEST SWAP1 SSTORE PUSH2 0xAB9 DUP2 PUSH1 0x2 SLOAD PUSH2 0xDA9 JUMP JUMPDEST PUSH1 0x2 SSTORE DUP2 DUP2 ISZERO PUSH2 0x3B5 JUMPI CALLER SWAP1 CALL ISZERO PUSH2 0x3AB JUMPI MLOAD RETURN JUMPDEST DUP6 MLOAD PUSH3 0x461BCD PUSH1 0xE5 SHL DUP2 MSTORE SWAP2 DUP3 ADD DUP5 SWAP1 MSTORE PUSH1 0x14 SWAP1 DUP3 ADD MSTORE PUSH20 0x1B9BDD08195B9BDD59DA0819195C1BDCDA5D1959 PUSH1 0x62 SHL PUSH1 0x44 DUP3 ADD MSTORE PUSH1 0x64 SWAP1 REVERT JUMPDEST DUP6 MLOAD PUSH3 0x461BCD PUSH1 0xE5 SHL DUP2 MSTORE SWAP2 DUP3 ADD DUP5 SWAP1 MSTORE PUSH1 0xD SWAP1 DUP3 ADD MSTORE PUSH13 0x3737BA103A34329037BBB732B9 PUSH1 0x99 SHL PUSH1 0x44 DUP3 ADD MSTORE PUSH1 0x64 SWAP1 REVERT JUMPDEST PUSH2 0xB50 SWAP2 POP DUP7 RETURNDATASIZE DUP9 GT PUSH2 0x596 JUMPI PUSH2 0x587 DUP2 DUP4 PUSH2 0xD45 JUMP JUMPDEST DUP10 PUSH2 0xA76 JUMP JUMPDEST DUP9 MLOAD RETURNDATASIZE DUP12 DUP3 RETURNDATACOPY RETURNDATASIZE SWAP1 REVERT JUMPDEST PUSH1 0x64 SWAP1 PUSH1 0x1B DUP5 PUSH1 0x20 DUP9 MLOAD SWAP4 PUSH3 0x461BCD PUSH1 0xE5 SHL DUP6 MSTORE DUP5 ADD MSTORE DUP3 ADD MSTORE PUSH32 0x63616E6E6F74207769746864726177206F6E6365207374616B65640000000000 PUSH1 0x44 DUP3 ADD MSTORE REVERT JUMPDEST PUSH4 0x4E487B71 PUSH1 0xE0 SHL DUP8 MSTORE PUSH1 0x21 DUP3 MSTORE DUP4 DUP8 REVERT JUMPDEST POP DUP3 CALLVALUE PUSH2 0x2B6 JUMPI DUP3 PUSH1 0x3 NOT CALLDATASIZE ADD SLT PUSH2 0x2B6 JUMPI PUSH2 0xBCE PUSH2 0xDB6 JUMP JUMPDEST DUP1 SLOAD PUSH1 0xFF NOT AND PUSH1 0x2 OR SWAP1 SSTORE MLOAD RETURN JUMPDEST DUP4 SWAP1 DUP6 CALLVALUE PUSH2 0x2B6 JUMPI DUP3 PUSH1 0x3 NOT CALLDATASIZE ADD SLT PUSH2 0x2B6 JUMPI SLOAD PUSH1 0x8 SHR PUSH1 0x1 PUSH1 0x1 PUSH1 0xA0 SHL SUB AND DUP2 MSTORE PUSH1 0x20 SWAP2 POP RETURN JUMPDEST SWAP2 DUP2 PUSH1 0x1F DUP5 ADD SLT ISZERO PUSH2 0xC32 JUMPI DUP3 CALLDATALOAD SWAP2 PUSH8 0xFFFFFFFFFFFFFFFF DUP4 GT PUSH2 0xC32 JUMPI PUSH1 0x20 DUP4 DUP2 DUP7 ADD SWAP6 ADD ADD GT PUSH2 0xC32 JUMPI JUMP JUMPDEST PUSH1 0x0 DUP1 REVERT JUMPDEST PUSH1 0x3 SLOAD DUP2 LT ISZERO PUSH2 0xC6E JUMPI PUSH1 0x3 PUSH1 0x0 MSTORE PUSH32 0xC2575A0E9E593C00F959F8C92F12DB2869C3395A3B0502D05E2516446F71F85B ADD SWAP1 PUSH1 0x0 SWAP1 JUMP JUMPDEST PUSH4 0x4E487B71 PUSH1 0xE0 SHL PUSH1 0x0 MSTORE PUSH1 0x32 PUSH1 0x4 MSTORE PUSH1 0x24 PUSH1 0x0 REVERT JUMPDEST ISZERO PUSH2 0xC8B JUMPI JUMP JUMPDEST PUSH1 0x64 PUSH1 0x40 MLOAD PUSH3 0x461BCD PUSH1 0xE5 SHL DUP2 MSTORE PUSH1 0x20 PUSH1 0x4 DUP3 ADD MSTORE PUSH1 0x20 PUSH1 0x24 DUP3 ADD MSTORE PUSH32 0x4F776E61626C653A2063616C6C6572206973206E6F7420746865206F776E6572 PUSH1 0x44 DUP3 ADD MSTORE REVERT JUMPDEST PUSH1 0x0 DUP1 SLOAD PUSH1 0x1 PUSH1 0x1 PUSH1 0xA0 SHL SUB SWAP3 DUP4 AND PUSH1 0x1 PUSH1 0x1 PUSH1 0xA0 SHL SUB NOT DUP3 AND DUP2 OR DUP4 SSTORE PUSH1 0x40 MLOAD SWAP1 SWAP4 SWAP1 SWAP2 AND SWAP2 PUSH32 0x8BE0079C531659141344CD1FD0A4F28419497F9722A3DAAFE3B4186F6B6457E0 SWAP2 LOG3 JUMP JUMPDEST PUSH8 0xFFFFFFFFFFFFFFFF DUP2 GT PUSH2 0xD2F JUMPI PUSH1 0x40 MSTORE JUMP JUMPDEST PUSH4 0x4E487B71 PUSH1 0xE0 SHL PUSH1 0x0 MSTORE PUSH1 0x41 PUSH1 0x4 MSTORE PUSH1 0x24 PUSH1 0x0 REVERT JUMPDEST SWAP1 PUSH1 0x1F DUP1 NOT SWAP2 ADD AND DUP2 ADD SWAP1 DUP2 LT PUSH8 0xFFFFFFFFFFFFFFFF DUP3 GT OR PUSH2 0xD2F JUMPI PUSH1 0x40 MSTORE JUMP JUMPDEST SWAP2 SWAP1 DUP3 ADD DUP1 SWAP3 GT PUSH2 0xD74 JUMPI JUMP JUMPDEST PUSH4 0x4E487B71 PUSH1 0xE0 SHL PUSH1 0x0 MSTORE PUSH1 0x11 PUSH1 0x4 MSTORE PUSH1 0x24 PUSH1 0x0 REVERT JUMPDEST SWAP1 DUP2 PUSH1 0x20 SWAP2 SUB SLT PUSH2 0xC32 JUMPI MLOAD PUSH1 0x1 PUSH1 0x1 PUSH1 0xA0 SHL SUB DUP2 AND DUP2 SUB PUSH2 0xC32 JUMPI SWAP1 JUMP JUMPDEST SWAP2 SWAP1 DUP3 SUB SWAP2 DUP3 GT PUSH2 0xD74 JUMPI JUMP JUMPDEST PUSH1 0x4 SWAP1 PUSH1 0xFF DUP3 SLOAD AND PUSH1 0x3 SWAP3 DUP4 DUP3 LT ISZERO PUSH2 0xF65 JUMPI PUSH1 0x1 DUP1 SWAP3 SUB PUSH2 0xF21 JUMPI SELFBALANCE PUSH1 0x64 DUP2 GT ISZERO PUSH2 0xEDD JUMPI PUSH1 0x0 SWAP5 DUP4 JUMPDEST PUSH2 0xDEE JUMPI JUMPDEST POP POP POP POP SWAP1 POP JUMP JUMPDEST DUP1 SLOAD DUP7 LT ISZERO PUSH2 0xED8 JUMPI PUSH2 0xE00 DUP7 PUSH2 0xC37 JUMP JUMPDEST SWAP1 SLOAD SWAP1 DUP3 SHL SHR PUSH1 0x1 DUP1 PUSH1 0xA0 SHL SUB DUP1 PUSH1 0x7 SLOAD AND SWAP2 PUSH1 0x40 SWAP3 DUP4 MLOAD DUP1 SWAP2 PUSH4 0x31A9108F PUSH1 0xE1 SHL DUP3 MSTORE DUP4 DUP10 DUP4 ADD MSTORE DUP2 PUSH1 0x24 PUSH1 0x20 SWAP5 DUP6 SWAP4 GAS STATICCALL SWAP2 DUP3 ISZERO PUSH2 0xECD JUMPI SWAP4 PUSH1 0x0 SWAP5 SWAP4 DUP6 SWAP5 SWAP4 DUP10 DUP7 SWAP6 SWAP5 DUP7 SWAP6 DUP7 SWAP4 PUSH2 0xEAA JUMPI JUMPDEST POP POP PUSH2 0xE5B SWAP2 SWAP3 PUSH2 0xF7A JUMP JUMPDEST SWAP2 DUP4 SWAP2 DUP4 ISZERO PUSH2 0xEA0 JUMPI JUMPDEST AND SWAP1 CALL ISZERO PUSH2 0xE96 JUMPI POP PUSH1 0x0 NOT DUP7 EQ PUSH2 0xE81 JUMPI SWAP5 DUP4 ADD SWAP5 DUP4 PUSH2 0xDE1 JUMP JUMPDEST PUSH1 0x11 DUP4 PUSH4 0x4E487B71 PUSH1 0xE0 SHL PUSH1 0x0 MSTORE MSTORE PUSH1 0x24 PUSH1 0x0 REVERT JUMPDEST MLOAD RETURNDATASIZE PUSH1 0x0 DUP3 RETURNDATACOPY RETURNDATASIZE SWAP1 REVERT JUMPDEST PUSH2 0x8FC SWAP3 POP PUSH2 0xE65 JUMP JUMPDEST PUSH2 0xE5B SWAP4 POP SWAP1 DUP2 PUSH2 0xEC6 SWAP3 SWAP1 RETURNDATASIZE LT PUSH2 0x596 JUMPI PUSH2 0x587 DUP2 DUP4 PUSH2 0xD45 JUMP JUMPDEST SWAP2 CODESIZE PUSH2 0xE4F JUMP JUMPDEST DUP6 MLOAD RETURNDATASIZE PUSH1 0x0 DUP3 RETURNDATACOPY RETURNDATASIZE SWAP1 REVERT JUMPDEST PUSH2 0xDE6 JUMP JUMPDEST PUSH1 0x40 MLOAD PUSH3 0x461BCD PUSH1 0xE5 SHL DUP2 MSTORE PUSH1 0x20 DUP2 DUP5 ADD DUP2 SWAP1 MSTORE PUSH1 0x24 DUP3 ADD MSTORE PUSH32 0x6D696E696D756D206F66203130302077656920746F2064697374726962757465 PUSH1 0x44 DUP3 ADD MSTORE PUSH1 0x64 SWAP1 REVERT JUMPDEST PUSH1 0x64 SWAP1 PUSH1 0x20 PUSH1 0x40 MLOAD SWAP2 PUSH3 0x461BCD PUSH1 0xE5 SHL DUP4 MSTORE DUP3 ADD MSTORE PUSH1 0x1C PUSH1 0x24 DUP3 ADD MSTORE PUSH32 0x757365207769746864726177207768656E206E6F74207374616B656400000000 PUSH1 0x44 DUP3 ADD MSTORE REVERT JUMPDEST PUSH1 0x21 SWAP1 PUSH4 0x4E487B71 PUSH1 0xE0 SHL PUSH1 0x0 MSTORE MSTORE PUSH1 0x24 PUSH1 0x0 REVERT JUMPDEST PUSH1 0x0 SWAP1 DUP2 MSTORE PUSH1 0x1 PUSH1 0x20 MSTORE PUSH1 0x40 DUP2 KECCAK256 SLOAD ISZERO PUSH2 0x100A JUMPI PUSH1 0x40 DUP2 KECCAK256 SLOAD PUSH1 0x0 NOT SWAP3 SWAP1 DUP2 ISZERO ISZERO DUP3 DUP6 DIV DUP3 GT AND PUSH2 0xFF6 JUMPI PUSH1 0x2 SLOAD SWAP2 DUP3 ISZERO PUSH2 0xFE2 JUMPI MUL DIV SWAP2 PUSH1 0x1 DUP4 GT ISZERO PUSH2 0xFDC JUMPI DUP3 ADD SWAP2 DUP3 GT PUSH2 0xFC8 JUMPI POP SWAP1 JUMP JUMPDEST PUSH4 0x4E487B71 PUSH1 0xE0 SHL DUP2 MSTORE PUSH1 0x11 PUSH1 0x4 MSTORE PUSH1 0x24 SWAP1 REVERT JUMPDEST POP SWAP1 POP SWAP1 JUMP JUMPDEST PUSH4 0x4E487B71 PUSH1 0xE0 SHL DUP5 MSTORE PUSH1 0x12 PUSH1 0x4 MSTORE PUSH1 0x24 DUP5 REVERT JUMPDEST PUSH4 0x4E487B71 PUSH1 0xE0 SHL DUP4 MSTORE PUSH1 0x11 PUSH1 0x4 MSTORE PUSH1 0x24 DUP4 REVERT JUMPDEST SWAP1 POP SWAP1 JUMP JUMPDEST PUSH1 0xFF PUSH1 0x4 SLOAD AND PUSH1 0x3 DUP2 LT ISZERO PUSH2 0x1036 JUMPI PUSH2 0x1028 JUMPI POP PUSH1 0x0 SWAP1 JUMP JUMPDEST PUSH2 0x1033 SWAP1 SELFBALANCE SWAP1 PUSH2 0xF7A JUMP JUMPDEST SWAP1 JUMP JUMPDEST PUSH4 0x4E487B71 PUSH1 0xE0 SHL PUSH1 0x0 MSTORE PUSH1 0x21 PUSH1 0x4 MSTORE PUSH1 0x24 PUSH1 0x0 REVERT JUMPDEST SWAP1 DUP1 PUSH1 0x20 SWAP4 SWAP3 DUP2 DUP5 MSTORE DUP5 DUP5 ADD CALLDATACOPY PUSH1 0x0 DUP3 DUP3 ADD DUP5 ADD MSTORE PUSH1 0x1F ADD PUSH1 0x1F NOT AND ADD ADD SWAP1 JUMP INVALID LOG2 PUSH5 0x6970667358 0x22 SLT KECCAK256 SWAP12 0xB2 0x5D 0xCB RETURNDATACOPY 0xA5 SWAP14 CHAINID PUSH28 0x5BB5ECF3D32E515C4477524AC3AE1ABCF9CEDAAFDCE4AA64736F6C63 NUMBER STOP ADDMOD LT STOP CALLER "
        },
        "gasEstimates": {
          "creation": {
            "codeDepositCost": "851800",
            "executionCost": "infinite",
            "totalCost": "infinite"
          },
          "external": {
            "": "500",
            "addToDeposit(uint256)": "infinite",
            "deposit(address)": "infinite",
            "depositAmount(uint256)": "2567",
            "depositContractAddress()": "2300",
            "distribute()": "infinite",
            "getDistributableShare(uint256)": "9089",
            "getOwner()": "2544",
            "getShare(uint256)": "7087",
            "idsInThisPool(uint256)": "6778",
            "owner()": "2566",
            "renounceOwnership()": "28206",
            "rugpull()": "infinite",
            "sendToOwner()": "30325",
            "stake(bytes,bytes,bytes,bytes32)": "infinite",
            "totalDeposits()": "2435",
            "transferOwnership(address)": "28559",
            "unstake()": "infinite",
            "withdraw(uint256,uint256)": "infinite"
          },
          "internal": {
            "_getShare(uint256,uint256)": "6616",
            "_toWithdrawalCred(address)": "infinite"
          }
        },
        "methodIdentifiers": {
          "addToDeposit(uint256)": "8620891c",
          "deposit(address)": "f340fa01",
          "depositAmount(uint256)": "87f8ab26",
          "depositContractAddress()": "2a4dbd2b",
          "distribute()": "e4fc6b6d",
          "getDistributableShare(uint256)": "678e300a",
          "getOwner()": "893d20e8",
          "getShare(uint256)": "cfb5a5f8",
          "idsInThisPool(uint256)": "82a790cf",
          "owner()": "8da5cb5b",
          "renounceOwnership()": "715018a6",
          "rugpull()": "e2664e49",
          "sendToOwner()": "6620a935",
          "stake(bytes,bytes,bytes,bytes32)": "4b2b4e36",
          "totalDeposits()": "7d882097",
          "transferOwnership(address)": "f2fde38b",
          "unstake()": "2def6620",
          "withdraw(uint256,uint256)": "441a3e70"
        }
      },
      "storageLayout": {
        "storage": [
          {
            "astId": 7,
            "contract": "contracts/StakingPool.sol:StakingPool",
            "label": "_owner",
            "offset": 0,
            "slot": "0",
            "type": "t_address"
          },
          {
            "astId": 2159,
            "contract": "contracts/StakingPool.sol:StakingPool",
            "label": "depositAmount",
            "offset": 0,
            "slot": "1",
            "type": "t_mapping(t_uint256,t_uint256)"
          },
          {
            "astId": 2161,
            "contract": "contracts/StakingPool.sol:StakingPool",
            "label": "totalDeposits",
            "offset": 0,
            "slot": "2",
            "type": "t_uint256"
          },
          {
            "astId": 2164,
            "contract": "contracts/StakingPool.sol:StakingPool",
            "label": "idsInThisPool",
            "offset": 0,
            "slot": "3",
            "type": "t_array(t_uint256)dyn_storage"
          },
          {
            "astId": 2171,
            "contract": "contracts/StakingPool.sol:StakingPool",
            "label": "currentState",
            "offset": 0,
            "slot": "4",
            "type": "t_enum(State)2168"
          },
          {
            "astId": 2173,
            "contract": "contracts/StakingPool.sol:StakingPool",
            "label": "depositContractAddress",
            "offset": 1,
            "slot": "4",
            "type": "t_address"
          },
          {
            "astId": 2175,
            "contract": "contracts/StakingPool.sol:StakingPool",
            "label": "rightfulOwner",
            "offset": 0,
            "slot": "5",
            "type": "t_address"
          },
          {
            "astId": 2178,
            "contract": "contracts/StakingPool.sol:StakingPool",
            "label": "depositContract",
            "offset": 0,
            "slot": "6",
            "type": "t_contract(DepositContractInterface)3385"
          },
          {
            "astId": 2181,
            "contract": "contracts/StakingPool.sol:StakingPool",
            "label": "factoryContract",
            "offset": 0,
            "slot": "7",
            "type": "t_contract(StakingPoolFactoryInterface)3419"
          }
        ],
        "types": {
          "t_address": {
            "encoding": "inplace",
            "label": "address",
            "numberOfBytes": "20"
          },
          "t_array(t_uint256)dyn_storage": {
            "base": "t_uint256",
            "encoding": "dynamic_array",
            "label": "uint256[]",
            "numberOfBytes": "32"
          },
          "t_contract(DepositContractInterface)3385": {
            "encoding": "inplace",
            "label": "contract DepositContractInterface",
            "numberOfBytes": "20"
          },
          "t_contract(StakingPoolFactoryInterface)3419": {
            "encoding": "inplace",
            "label": "contract StakingPoolFactoryInterface",
            "numberOfBytes": "20"
          },
          "t_enum(State)2168": {
            "encoding": "inplace",
            "label": "enum StakingPool.State",
            "numberOfBytes": "1"
          },
          "t_mapping(t_uint256,t_uint256)": {
            "encoding": "mapping",
            "key": "t_uint256",
            "label": "mapping(uint256 => uint256)",
            "numberOfBytes": "32",
            "value": "t_uint256"
          },
          "t_uint256": {
            "encoding": "inplace",
            "label": "uint256",
            "numberOfBytes": "32"
          }
        }
      },
      "userdoc": {
        "kind": "user",
        "methods": {},
        "version": 1
      }
    }
  }
}