{
  "contracts/StakingPool.sol": {
    "StakingPool": {
      "abi": [
        {
          "inputs": [
            {
              "internalType": "address",
              "name": "depositContractAddress_",
              "type": "address"
            },
            {
              "internalType": "address",
              "name": "factory_",
              "type": "address"
            },
            {
              "internalType": "address",
              "name": "frensPoolShareAddress_",
              "type": "address"
            },
            {
              "internalType": "address",
              "name": "owner_",
              "type": "address"
            }
          ],
          "stateMutability": "nonpayable",
          "type": "constructor"
        },
        {
          "anonymous": false,
          "inputs": [
            {
              "indexed": false,
              "internalType": "uint256",
              "name": "amount",
              "type": "uint256"
            },
            {
              "indexed": false,
              "internalType": "address",
              "name": "depositer",
              "type": "address"
            }
          ],
          "name": "DepositToPool",
          "type": "event"
        },
        {
          "anonymous": false,
          "inputs": [
            {
              "indexed": true,
              "internalType": "address",
              "name": "previousOwner",
              "type": "address"
            },
            {
              "indexed": true,
              "internalType": "address",
              "name": "newOwner",
              "type": "address"
            }
          ],
          "name": "OwnershipTransferred",
          "type": "event"
        },
        {
          "anonymous": false,
          "inputs": [
            {
              "indexed": false,
              "internalType": "address",
              "name": "depositContractAddress",
              "type": "address"
            },
            {
              "indexed": false,
              "internalType": "address",
              "name": "caller",
              "type": "address"
            }
          ],
          "name": "Stake",
          "type": "event"
        },
        {
          "stateMutability": "payable",
          "type": "fallback"
        },
        {
          "inputs": [
            {
              "internalType": "uint256",
              "name": "_id",
              "type": "uint256"
            }
          ],
          "name": "addToDeposit",
          "outputs": [],
          "stateMutability": "payable",
          "type": "function"
        },
        {
          "inputs": [
            {
              "internalType": "uint256",
              "name": "",
              "type": "uint256"
            }
          ],
          "name": "depositAmount",
          "outputs": [
            {
              "internalType": "uint256",
              "name": "",
              "type": "uint256"
            }
          ],
          "stateMutability": "view",
          "type": "function"
        },
        {
          "inputs": [],
          "name": "depositContractAddress",
          "outputs": [
            {
              "internalType": "address",
              "name": "",
              "type": "address"
            }
          ],
          "stateMutability": "view",
          "type": "function"
        },
        {
          "inputs": [],
          "name": "depositToPool",
          "outputs": [],
          "stateMutability": "payable",
          "type": "function"
        },
        {
          "inputs": [],
          "name": "distribute",
          "outputs": [],
          "stateMutability": "nonpayable",
          "type": "function"
        },
        {
          "inputs": [
            {
              "internalType": "uint256",
              "name": "_id",
              "type": "uint256"
            }
          ],
          "name": "getDepositAmount",
          "outputs": [
            {
              "internalType": "uint256",
              "name": "",
              "type": "uint256"
            }
          ],
          "stateMutability": "view",
          "type": "function"
        },
        {
          "inputs": [
            {
              "internalType": "uint256",
              "name": "_id",
              "type": "uint256"
            }
          ],
          "name": "getDistributableShare",
          "outputs": [
            {
              "internalType": "uint256",
              "name": "",
              "type": "uint256"
            }
          ],
          "stateMutability": "view",
          "type": "function"
        },
        {
          "inputs": [],
          "name": "getPubKey",
          "outputs": [
            {
              "internalType": "bytes",
              "name": "",
              "type": "bytes"
            }
          ],
          "stateMutability": "view",
          "type": "function"
        },
        {
          "inputs": [
            {
              "internalType": "uint256",
              "name": "_id",
              "type": "uint256"
            }
          ],
          "name": "getShare",
          "outputs": [
            {
              "internalType": "uint256",
              "name": "",
              "type": "uint256"
            }
          ],
          "stateMutability": "view",
          "type": "function"
        },
        {
          "inputs": [],
          "name": "getState",
          "outputs": [
            {
              "internalType": "string",
              "name": "",
              "type": "string"
            }
          ],
          "stateMutability": "view",
          "type": "function"
        },
        {
          "inputs": [
            {
              "internalType": "uint256",
              "name": "",
              "type": "uint256"
            }
          ],
          "name": "idsInThisPool",
          "outputs": [
            {
              "internalType": "uint256",
              "name": "",
              "type": "uint256"
            }
          ],
          "stateMutability": "view",
          "type": "function"
        },
        {
          "inputs": [],
          "name": "owner",
          "outputs": [
            {
              "internalType": "address",
              "name": "",
              "type": "address"
            }
          ],
          "stateMutability": "view",
          "type": "function"
        },
        {
          "inputs": [],
          "name": "renounceOwnership",
          "outputs": [],
          "stateMutability": "nonpayable",
          "type": "function"
        },
        {
          "inputs": [],
          "name": "rugpull",
          "outputs": [],
          "stateMutability": "nonpayable",
          "type": "function"
        },
        {
          "inputs": [
            {
              "internalType": "address",
              "name": "frensPoolShareAddress_",
              "type": "address"
            }
          ],
          "name": "setFrensPoolShare",
          "outputs": [],
          "stateMutability": "nonpayable",
          "type": "function"
        },
        {
          "inputs": [
            {
              "internalType": "bytes",
              "name": "publicKey",
              "type": "bytes"
            }
          ],
          "name": "setPubKey",
          "outputs": [],
          "stateMutability": "nonpayable",
          "type": "function"
        },
        {
          "inputs": [
            {
              "internalType": "bytes",
              "name": "pubkey",
              "type": "bytes"
            },
            {
              "internalType": "bytes",
              "name": "withdrawal_credentials",
              "type": "bytes"
            },
            {
              "internalType": "bytes",
              "name": "signature",
              "type": "bytes"
            },
            {
              "internalType": "bytes32",
              "name": "deposit_data_root",
              "type": "bytes32"
            }
          ],
          "name": "stake",
          "outputs": [],
          "stateMutability": "nonpayable",
          "type": "function"
        },
        {
          "inputs": [],
          "name": "totalDeposits",
          "outputs": [
            {
              "internalType": "uint256",
              "name": "",
              "type": "uint256"
            }
          ],
          "stateMutability": "view",
          "type": "function"
        },
        {
          "inputs": [
            {
              "internalType": "address",
              "name": "newOwner",
              "type": "address"
            }
          ],
          "name": "transferOwnership",
          "outputs": [],
          "stateMutability": "nonpayable",
          "type": "function"
        },
        {
          "inputs": [],
          "name": "unstake",
          "outputs": [],
          "stateMutability": "nonpayable",
          "type": "function"
        },
        {
          "inputs": [],
          "name": "validatorPubKey",
          "outputs": [
            {
              "internalType": "bytes",
              "name": "",
              "type": "bytes"
            }
          ],
          "stateMutability": "view",
          "type": "function"
        },
        {
          "inputs": [
            {
              "internalType": "uint256",
              "name": "_id",
              "type": "uint256"
            },
            {
              "internalType": "uint256",
              "name": "_amount",
              "type": "uint256"
            }
          ],
          "name": "withdraw",
          "outputs": [],
          "stateMutability": "nonpayable",
          "type": "function"
        },
        {
          "stateMutability": "payable",
          "type": "receive"
        }
      ],
      "devdoc": {
        "kind": "dev",
        "methods": {
          "owner()": {
            "details": "Returns the address of the current owner."
          },
          "renounceOwnership()": {
            "details": "Leaves the contract without owner. It will not be possible to call `onlyOwner` functions anymore. Can only be called by the current owner. NOTE: Renouncing ownership will leave the contract without an owner, thereby removing any functionality that is only available to the owner."
          },
          "transferOwnership(address)": {
            "details": "Transfers ownership of the contract to a new account (`newOwner`). Can only be called by the current owner."
          }
        },
        "version": 1
      },
      "evm": {
        "bytecode": {
          "linkReferences": {},
          "object": "6080346200010257601f6200190538819003918201601f19168301916001600160401b03831184841017620001075780849260809460405283398101031262000102578062000052620000f2926200011d565b9062000061602082016200011d565b6200007d606062000075604085016200011d565b93016200011d565b92620000893362000132565b600480546001600160a81b031916600892831b610100600160a81b03161790819055600680546001600160a01b031990811692841c6001600160a01b03908116939093179091556007805482169483169490941790935581549092169190921617905562000132565b60405161178690816200017f8239f35b600080fd5b634e487b7160e01b600052604160045260246000fd5b51906001600160a01b03821682036200010257565b600080546001600160a01b039283166001600160a01b03198216811783556040519093909116917f8be0079c531659141344cd1fd0a4f28419497f9722a3daafe3b4186f6b6457e091a356fe6040608081526004908136101561001d575b5050361561001b57005b005b600091823560e01c80631865c57d146110075780632a4dbd2b14610fdc5780632def662014610fb55780632edaf74d14610f66578063378de45b146105e2578063441a3e7014610dbd5780634ad02ef114610d8c5780634b2b4e3614610972578063678e300a14610952578063715018a6146108f05780637be0b4a0146108185780637d882097146107f957806382a790cf146107c15780638620891c1461060957806387f8ab26146105e25780638da5cb5b146105ba578063cfb5a5f81461058e578063e2664e491461053d578063e32d291314610406578063e4fc6b6d146103e5578063f2fde38b1461030d5763f9faa1041461011c5750610011565b826003193601126102655760ff81541660038110156102fa5761013f90156112c5565b34156102c3576008548251632798987d60e11b815260209290916001600160a01b039084908490849082908a9086165af19283156102b9578693610286575b508286526001845234858720556101973460025461130a565b600255600354680100000000000000008110156102735790836101c28360018a9695016003556111e6565b819291549060031b600019811b9283911b169119161790556008541690813b15610265578593606484928387519586948593630d4d151360e01b8552339085015260248401523060448401525af180156102695761024e575b50507f1ed12c9855bd60407f7650e01c62ee4f0f40744b5b17983eec349a2b4e89981a918151903482523390820152a151f35b6102599192506110d2565b6102655781833861021b565b8280fd5b83513d84823e3d90fd5b634e487b7160e01b875260418352602487fd5b9092508381813d83116102b2575b61029e8183611118565b810103126102ae5751913861017e565b8580fd5b503d610294565b85513d88823e3d90fd5b6020606492519162461bcd60e51b8352820152601260248201527136bab9ba103232b837b9b4ba1032ba3432b960711b6044820152fd5b634e487b7160e01b845260218252602484fd5b5034610265576020366003190112610265576001600160a01b03813581811692908390036103e15761034382865416331461127a565b821561038f575060005492826bffffffffffffffffffffffff60a01b8516176000555192167f8be0079c531659141344cd1fd0a4f28419497f9722a3daafe3b4186f6b6457e0600084a3f35b608490602085519162461bcd60e51b8352820152602660248201527f4f776e61626c653a206e6577206f776e657220697320746865207a65726f206160448201526564647265737360d01b6064820152fd5b8480fd5b5050346104025781600319360112610402576103ff611359565b51f35b5080fd5b50919034610402576020806003193601126102655767ffffffffffffffff9084358281116103e157366023820112156103e15761044c9036906024818901359101611233565b9461046160018060a01b03865416331461127a565b855192831161052a575061047f8261047a600554611098565b6115ef565b80601f83116001146104ba57508394829394926104af575b50508160011b916000199060031b1c19161760055551f35b015190503880610497565b60058552601f19831695600080516020611731833981519152929186905b888210610512575050836001959697106104f9575b505050811b0160055551f35b015160001960f88460031b161c191690553880806104ed565b806001859682949686015181550195019301906104d8565b634e487b7160e01b855260419052602484fd5b50503461040257816003193601126104025761056360018060a01b03835416331461127a565b8180808047818115610585575b3390f11561057b5751f35b51903d90823e3d90fd5b506108fc610570565b5091346105b75760203660031901126105b757506105b060209247903561151d565b9051908152f35b80fd5b505034610402578160031936011261040257905490516001600160a01b039091168152602090f35b50346102655760203660031901126102655760209282913581526001845220549051908152f35b506020806003193601126106d35781359160018060a01b03858382600854166024885180948193634f558e7960e01b83528a898401525af190811561074f578791610787575b501561075957808360249260085416875193848092630178b36760e31b825289888301525afa91821561074f578792610720575b50309116036106ea5760ff8154169060038210156106d75750156106a6816112c5565b156106d3576001918452528082206106bf34825461130a565b90556106cd3460025461130a565b60025551f35b8380fd5b634e487b7160e01b865260219052602485fd5b60649184519162461bcd60e51b835282015260126024820152711ddc9bdb99c81cdd185ada5b99c81c1bdbdb60721b6044820152fd5b610741919250843d8611610748575b6107398183611118565b81019061132d565b9038610683565b503d61072f565b86513d89823e3d90fd5b5060649184519162461bcd60e51b835282015260096024820152681b9bdd08195e1a5cdd60ba1b6044820152fd5b90508381813d83116107ba575b61079e8183611118565b810103126107b6575180151581036107b6573861064f565b8680fd5b503d610794565b50346102655760203660031901126102655735916003548310156105b757506107eb6020926111e6565b90549060031b1c9051908152f35b5050346104025781600319360112610402576020906002549051908152f35b8284346105b757806003193601126105b75750805160009160055461083c81611098565b808452906001908181169081156108c8575060011461087d575b505061086782610879940383611118565b51918291602083526020830190611025565b0390f35b6005600090815294506000805160206117318339815191525b8286106108b0575050509181016020019161086782610856565b80546020878701810191909152909501948101610896565b610879965085925060209150926108679360ff191682840152151560051b8201019450610856565b505034610402578160031936011261040257600060018060a01b0361091981855416331461127a565b81546001600160a01b031981168355925192167f8be0079c531659141344cd1fd0a4f28419497f9722a3daafe3b4186f6b6457e08284a3f35b5091346105b75760203660031901126105b757506105b0602092356115b2565b5091346105b757600319916080368401126104025767ffffffffffffffff84358181116106d3576109a69036908701611065565b6024969187358481116107b6576109c09036908501611065565b9260449889359a878c11610d88576109e18a9b9c9a98999a36908901611065565b926109f760018060a01b03809b5416331461127a565b6801bc16d674ec80000093844710610d535760ff8a54166003811015610d4157610d0f57610a2361113a565b8051602091820120606051608020919d9114610c3e5750610a4261113a565b8c8151910120610a5336888b611233565b8d815191012003610bf0575b895460ff19166001178a5530600160f81b8101908110610bde578d51908d82019081528d8252610a8e826110fc565b8d610a9a368d8c611233565b80519101209151902003610b9b578d9e8b9d9e999a9b60069e9d9e541697883b15610b97578f516304512a2360e31b81526080818f01529b8c9a8b998a989291610ae89160848b019161170f565b91868984030190890152610afb9261170f565b928584030190850152610b0d9261170f565b606435606483015203925af180156102b957610b5e575b509183917f72b356fd889b9abd3530accd2c9f4aecbce67d70757181f9f862ac91464ce192935460081c169082519182523390820152a151f35b917f72b356fd889b9abd3530accd2c9f4aecbce67d70757181f9f862ac91464ce192939195610b8d86946110d2565b9591935091610b24565b8a80fd5b505050867f7769746864726177616c2063726564656e7469616c206d69736d6174636800008d601e6064948d8f519562461bcd60e51b8752860152840152820152fd5b634e487b7160e01b8f5260118b52848ffd5b505050867f7075626b657920646f6573206e6f74206d617463682073746f7265642076616c8d60226084948d8f519562461bcd60e51b875286015284015282015261756560f01b6064820152fd5b8611610cfd57858e610c558261047a600554611098565b80601f8311600114610c8b5791610c80575b508660011b906000198860031b1c191617600555610a5f565b905088013538610c67565b6005815260008051602061173183398151915292508e5b8b601f198b168310610ce75750505087601f19811610610ccd575b5050600186811b01600555610a5f565b890135600019600389901b60f8161c191690553880610cbd565b830135845560019093019291820191018e610ca2565b634e487b7160e01b8e5260418a52838efd5b505050866a77726f6e6720737461746560a81b8d600b60649460208f519562461bcd60e51b8752860152840152820152fd5b634e487b7160e01b8f5260218b52848ffd5b505050866d0dcdee840cadcdeeaced040cae8d60931b8d600e60649460208f519562461bcd60e51b8752860152840152820152fd5b8980fd5b50503461040257816003193601126104025761087990610daa61113a565b9051918291602083526020830190611025565b5034610265578160031936011261026557803560249081359260ff8154166003811015610f5457600114610f125760085485516331a9108f60e11b8152828101849052602094916001600160a01b039190869082908590829086165afa908115610f08578991610eeb575b50163303610eb95782875260018452848688205410610e80575050848093600182948394845252858220610e5d82825461134c565b9055610e6b8160025461134c565b600255818115610585573390f11561057b5751f35b855162461bcd60e51b8152918201849052601490820152731b9bdd08195b9bdd59da0819195c1bdcda5d195960621b6044820152606490fd5b855162461bcd60e51b8152918201849052600d908201526c3737ba103a34329037bbb732b960991b6044820152606490fd5b610f029150863d8811610748576107398183611118565b38610e28565b88513d8b823e3d90fd5b606490601b84602088519362461bcd60e51b85528401528201527f63616e6e6f74207769746864726177206f6e6365207374616b656400000000006044820152fd5b634e487b7160e01b8752602182528387fd5b503461026557602036600319011261026557356001600160a01b03818116918290036106d357610f9a90845416331461127a565b6bffffffffffffffffffffffff60a01b600854161760085551f35b5034610265578260031936011261026557610fce611359565b805460ff1916600217905551f35b503461026557826003193601126102655754905160089190911c6001600160a01b0316815260209150f35b50503461040257816003193601126104025761087990610daa61164e565b919082519283825260005b848110611051575050826000602080949584010152601f8019910116010190565b602081830181015184830182015201611030565b9181601f840112156110935782359167ffffffffffffffff8311611093576020838186019501011161109357565b600080fd5b90600182811c921680156110c8575b60208310146110b257565b634e487b7160e01b600052602260045260246000fd5b91607f16916110a7565b67ffffffffffffffff81116110e657604052565b634e487b7160e01b600052604160045260246000fd5b6040810190811067ffffffffffffffff8211176110e657604052565b90601f8019910116810190811067ffffffffffffffff8211176110e657604052565b604051906000826005549161114e83611098565b808352926001908181169081156111c45750600114611177575b5061117592500383611118565b565b6005600090815291506000805160206117318339815191525b8483106111a95750611175935050810160200138611168565b81935090816020925483858a01015201910190918592611190565b90506020925061117594915060ff191682840152151560051b82010138611168565b60035481101561121d5760036000527fc2575a0e9e593c00f959f8c92f12db2869c3395a3b0502d05e2516446f71f85b0190600090565b634e487b7160e01b600052603260045260246000fd5b92919267ffffffffffffffff82116110e6576040519161125d601f8201601f191660200184611118565b829481845281830111611093578281602093846000960137010152565b1561128157565b606460405162461bcd60e51b815260206004820152602060248201527f4f776e61626c653a2063616c6c6572206973206e6f7420746865206f776e65726044820152fd5b156112cc57565b60405162461bcd60e51b81526020600482015260166024820152756e6f7420616363657074696e67206465706f7369747360501b6044820152606490fd5b9190820180921161131757565b634e487b7160e01b600052601160045260246000fd5b9081602091031261109357516001600160a01b03811681036110935790565b9190820391821161131757565b60049060ff825416600392838210156115085760018092036114c45747606481111561148057600094835b611391575b505050509050565b805486101561147b576113a3866111e6565b905490821b1c60018060a01b03806008541691604092835180916331a9108f60e11b8252838983015281602460209485935afa918215611470579360009493859493898695948695869361144d575b50506113fe919261151d565b9183918315611443575b1690f11561143957506000198614611424579483019483611384565b601183634e487b7160e01b6000525260246000fd5b513d6000823e3d90fd5b6108fc9250611408565b6113fe9350908161146992903d10610748576107398183611118565b91386113f2565b85513d6000823e3d90fd5b611389565b60405162461bcd60e51b8152602081840181905260248201527f6d696e696d756d206f66203130302077656920746f20646973747269627574656044820152606490fd5b60649060206040519162461bcd60e51b8352820152601c60248201527f757365207769746864726177207768656e206e6f74207374616b6564000000006044820152fd5b602190634e487b7160e01b6000525260246000fd5b600090815260016020526040812054156115ad57604081205460001992908115158285048211166115995760025491821561158557020491600183111561157f57820191821161156b575090565b634e487b7160e01b81526011600452602490fd5b50905090565b634e487b7160e01b84526012600452602484fd5b634e487b7160e01b83526011600452602483fd5b905090565b60ff6004541660038110156115d9576115cb5750600090565b6115d690479061151d565b90565b634e487b7160e01b600052602160045260246000fd5b601f81116115fb575050565b60009060058252600080516020611731833981519152906020601f850160051c83019410611644575b601f0160051c01915b82811061163957505050565b81815560010161162d565b9092508290611624565b60ff6004541660038110156115d957600181146116ec5780156116bd5760021461169b5760405161167e816110fc565b600d81526c7374617465206661696c75726560981b602082015290565b6040516116a7816110fc565b6006815265195e1a5d195960d21b602082015290565b506040516116ca816110fc565b6012815271616363657074696e67206465706f7369747360701b602082015290565b506040516116f9816110fc565b60068152651cdd185ad95960d21b602082015290565b908060209392818452848401376000828201840152601f01601f191601019056fe036b6384b5eca791c62761152d0c79bb0604c104a5fb6f4eb0703f3154bb3db0a264697066735822122040efbf77d3a4daf84aeecd0d55b8d5b4cb658118a4dad4fccf988149ebeba77f64736f6c63430008100033",
          "opcodes": "PUSH1 0x80 CALLVALUE PUSH3 0x102 JUMPI PUSH1 0x1F PUSH3 0x1905 CODESIZE DUP2 SWAP1 SUB SWAP2 DUP3 ADD PUSH1 0x1F NOT AND DUP4 ADD SWAP2 PUSH1 0x1 PUSH1 0x1 PUSH1 0x40 SHL SUB DUP4 GT DUP5 DUP5 LT OR PUSH3 0x107 JUMPI DUP1 DUP5 SWAP3 PUSH1 0x80 SWAP5 PUSH1 0x40 MSTORE DUP4 CODECOPY DUP2 ADD SUB SLT PUSH3 0x102 JUMPI DUP1 PUSH3 0x52 PUSH3 0xF2 SWAP3 PUSH3 0x11D JUMP JUMPDEST SWAP1 PUSH3 0x61 PUSH1 0x20 DUP3 ADD PUSH3 0x11D JUMP JUMPDEST PUSH3 0x7D PUSH1 0x60 PUSH3 0x75 PUSH1 0x40 DUP6 ADD PUSH3 0x11D JUMP JUMPDEST SWAP4 ADD PUSH3 0x11D JUMP JUMPDEST SWAP3 PUSH3 0x89 CALLER PUSH3 0x132 JUMP JUMPDEST PUSH1 0x4 DUP1 SLOAD PUSH1 0x1 PUSH1 0x1 PUSH1 0xA8 SHL SUB NOT AND PUSH1 0x8 SWAP3 DUP4 SHL PUSH2 0x100 PUSH1 0x1 PUSH1 0xA8 SHL SUB AND OR SWAP1 DUP2 SWAP1 SSTORE PUSH1 0x6 DUP1 SLOAD PUSH1 0x1 PUSH1 0x1 PUSH1 0xA0 SHL SUB NOT SWAP1 DUP2 AND SWAP3 DUP5 SHR PUSH1 0x1 PUSH1 0x1 PUSH1 0xA0 SHL SUB SWAP1 DUP2 AND SWAP4 SWAP1 SWAP4 OR SWAP1 SWAP2 SSTORE PUSH1 0x7 DUP1 SLOAD DUP3 AND SWAP5 DUP4 AND SWAP5 SWAP1 SWAP5 OR SWAP1 SWAP4 SSTORE DUP2 SLOAD SWAP1 SWAP3 AND SWAP2 SWAP1 SWAP3 AND OR SWAP1 SSTORE PUSH3 0x132 JUMP JUMPDEST PUSH1 0x40 MLOAD PUSH2 0x1786 SWAP1 DUP2 PUSH3 0x17F DUP3 CODECOPY RETURN JUMPDEST PUSH1 0x0 DUP1 REVERT JUMPDEST PUSH4 0x4E487B71 PUSH1 0xE0 SHL PUSH1 0x0 MSTORE PUSH1 0x41 PUSH1 0x4 MSTORE PUSH1 0x24 PUSH1 0x0 REVERT JUMPDEST MLOAD SWAP1 PUSH1 0x1 PUSH1 0x1 PUSH1 0xA0 SHL SUB DUP3 AND DUP3 SUB PUSH3 0x102 JUMPI JUMP JUMPDEST PUSH1 0x0 DUP1 SLOAD PUSH1 0x1 PUSH1 0x1 PUSH1 0xA0 SHL SUB SWAP3 DUP4 AND PUSH1 0x1 PUSH1 0x1 PUSH1 0xA0 SHL SUB NOT DUP3 AND DUP2 OR DUP4 SSTORE PUSH1 0x40 MLOAD SWAP1 SWAP4 SWAP1 SWAP2 AND SWAP2 PUSH32 0x8BE0079C531659141344CD1FD0A4F28419497F9722A3DAAFE3B4186F6B6457E0 SWAP2 LOG3 JUMP INVALID PUSH1 0x40 PUSH1 0x80 DUP2 MSTORE PUSH1 0x4 SWAP1 DUP2 CALLDATASIZE LT ISZERO PUSH2 0x1D JUMPI JUMPDEST POP POP CALLDATASIZE ISZERO PUSH2 0x1B JUMPI STOP JUMPDEST STOP JUMPDEST PUSH1 0x0 SWAP2 DUP3 CALLDATALOAD PUSH1 0xE0 SHR DUP1 PUSH4 0x1865C57D EQ PUSH2 0x1007 JUMPI DUP1 PUSH4 0x2A4DBD2B EQ PUSH2 0xFDC JUMPI DUP1 PUSH4 0x2DEF6620 EQ PUSH2 0xFB5 JUMPI DUP1 PUSH4 0x2EDAF74D EQ PUSH2 0xF66 JUMPI DUP1 PUSH4 0x378DE45B EQ PUSH2 0x5E2 JUMPI DUP1 PUSH4 0x441A3E70 EQ PUSH2 0xDBD JUMPI DUP1 PUSH4 0x4AD02EF1 EQ PUSH2 0xD8C JUMPI DUP1 PUSH4 0x4B2B4E36 EQ PUSH2 0x972 JUMPI DUP1 PUSH4 0x678E300A EQ PUSH2 0x952 JUMPI DUP1 PUSH4 0x715018A6 EQ PUSH2 0x8F0 JUMPI DUP1 PUSH4 0x7BE0B4A0 EQ PUSH2 0x818 JUMPI DUP1 PUSH4 0x7D882097 EQ PUSH2 0x7F9 JUMPI DUP1 PUSH4 0x82A790CF EQ PUSH2 0x7C1 JUMPI DUP1 PUSH4 0x8620891C EQ PUSH2 0x609 JUMPI DUP1 PUSH4 0x87F8AB26 EQ PUSH2 0x5E2 JUMPI DUP1 PUSH4 0x8DA5CB5B EQ PUSH2 0x5BA JUMPI DUP1 PUSH4 0xCFB5A5F8 EQ PUSH2 0x58E JUMPI DUP1 PUSH4 0xE2664E49 EQ PUSH2 0x53D JUMPI DUP1 PUSH4 0xE32D2913 EQ PUSH2 0x406 JUMPI DUP1 PUSH4 0xE4FC6B6D EQ PUSH2 0x3E5 JUMPI DUP1 PUSH4 0xF2FDE38B EQ PUSH2 0x30D JUMPI PUSH4 0xF9FAA104 EQ PUSH2 0x11C JUMPI POP PUSH2 0x11 JUMP JUMPDEST DUP3 PUSH1 0x3 NOT CALLDATASIZE ADD SLT PUSH2 0x265 JUMPI PUSH1 0xFF DUP2 SLOAD AND PUSH1 0x3 DUP2 LT ISZERO PUSH2 0x2FA JUMPI PUSH2 0x13F SWAP1 ISZERO PUSH2 0x12C5 JUMP JUMPDEST CALLVALUE ISZERO PUSH2 0x2C3 JUMPI PUSH1 0x8 SLOAD DUP3 MLOAD PUSH4 0x2798987D PUSH1 0xE1 SHL DUP2 MSTORE PUSH1 0x20 SWAP3 SWAP1 SWAP2 PUSH1 0x1 PUSH1 0x1 PUSH1 0xA0 SHL SUB SWAP1 DUP5 SWAP1 DUP5 SWAP1 DUP5 SWAP1 DUP3 SWAP1 DUP11 SWAP1 DUP7 AND GAS CALL SWAP3 DUP4 ISZERO PUSH2 0x2B9 JUMPI DUP7 SWAP4 PUSH2 0x286 JUMPI JUMPDEST POP DUP3 DUP7 MSTORE PUSH1 0x1 DUP5 MSTORE CALLVALUE DUP6 DUP8 KECCAK256 SSTORE PUSH2 0x197 CALLVALUE PUSH1 0x2 SLOAD PUSH2 0x130A JUMP JUMPDEST PUSH1 0x2 SSTORE PUSH1 0x3 SLOAD PUSH9 0x10000000000000000 DUP2 LT ISZERO PUSH2 0x273 JUMPI SWAP1 DUP4 PUSH2 0x1C2 DUP4 PUSH1 0x1 DUP11 SWAP7 SWAP6 ADD PUSH1 0x3 SSTORE PUSH2 0x11E6 JUMP JUMPDEST DUP2 SWAP3 SWAP2 SLOAD SWAP1 PUSH1 0x3 SHL PUSH1 0x0 NOT DUP2 SHL SWAP3 DUP4 SWAP2 SHL AND SWAP2 NOT AND OR SWAP1 SSTORE PUSH1 0x8 SLOAD AND SWAP1 DUP2 EXTCODESIZE ISZERO PUSH2 0x265 JUMPI DUP6 SWAP4 PUSH1 0x64 DUP5 SWAP3 DUP4 DUP8 MLOAD SWAP6 DUP7 SWAP5 DUP6 SWAP4 PUSH4 0xD4D1513 PUSH1 0xE0 SHL DUP6 MSTORE CALLER SWAP1 DUP6 ADD MSTORE PUSH1 0x24 DUP5 ADD MSTORE ADDRESS PUSH1 0x44 DUP5 ADD MSTORE GAS CALL DUP1 ISZERO PUSH2 0x269 JUMPI PUSH2 0x24E JUMPI JUMPDEST POP POP PUSH32 0x1ED12C9855BD60407F7650E01C62EE4F0F40744B5B17983EEC349A2B4E89981A SWAP2 DUP2 MLOAD SWAP1 CALLVALUE DUP3 MSTORE CALLER SWAP1 DUP3 ADD MSTORE LOG1 MLOAD RETURN JUMPDEST PUSH2 0x259 SWAP2 SWAP3 POP PUSH2 0x10D2 JUMP JUMPDEST PUSH2 0x265 JUMPI DUP2 DUP4 CODESIZE PUSH2 0x21B JUMP JUMPDEST DUP3 DUP1 REVERT JUMPDEST DUP4 MLOAD RETURNDATASIZE DUP5 DUP3 RETURNDATACOPY RETURNDATASIZE SWAP1 REVERT JUMPDEST PUSH4 0x4E487B71 PUSH1 0xE0 SHL DUP8 MSTORE PUSH1 0x41 DUP4 MSTORE PUSH1 0x24 DUP8 REVERT JUMPDEST SWAP1 SWAP3 POP DUP4 DUP2 DUP2 RETURNDATASIZE DUP4 GT PUSH2 0x2B2 JUMPI JUMPDEST PUSH2 0x29E DUP2 DUP4 PUSH2 0x1118 JUMP JUMPDEST DUP2 ADD SUB SLT PUSH2 0x2AE JUMPI MLOAD SWAP2 CODESIZE PUSH2 0x17E JUMP JUMPDEST DUP6 DUP1 REVERT JUMPDEST POP RETURNDATASIZE PUSH2 0x294 JUMP JUMPDEST DUP6 MLOAD RETURNDATASIZE DUP9 DUP3 RETURNDATACOPY RETURNDATASIZE SWAP1 REVERT JUMPDEST PUSH1 0x20 PUSH1 0x64 SWAP3 MLOAD SWAP2 PUSH3 0x461BCD PUSH1 0xE5 SHL DUP4 MSTORE DUP3 ADD MSTORE PUSH1 0x12 PUSH1 0x24 DUP3 ADD MSTORE PUSH18 0x36BAB9BA103232B837B9B4BA1032BA3432B9 PUSH1 0x71 SHL PUSH1 0x44 DUP3 ADD MSTORE REVERT JUMPDEST PUSH4 0x4E487B71 PUSH1 0xE0 SHL DUP5 MSTORE PUSH1 0x21 DUP3 MSTORE PUSH1 0x24 DUP5 REVERT JUMPDEST POP CALLVALUE PUSH2 0x265 JUMPI PUSH1 0x20 CALLDATASIZE PUSH1 0x3 NOT ADD SLT PUSH2 0x265 JUMPI PUSH1 0x1 PUSH1 0x1 PUSH1 0xA0 SHL SUB DUP2 CALLDATALOAD DUP2 DUP2 AND SWAP3 SWAP1 DUP4 SWAP1 SUB PUSH2 0x3E1 JUMPI PUSH2 0x343 DUP3 DUP7 SLOAD AND CALLER EQ PUSH2 0x127A JUMP JUMPDEST DUP3 ISZERO PUSH2 0x38F JUMPI POP PUSH1 0x0 SLOAD SWAP3 DUP3 PUSH12 0xFFFFFFFFFFFFFFFFFFFFFFFF PUSH1 0xA0 SHL DUP6 AND OR PUSH1 0x0 SSTORE MLOAD SWAP3 AND PUSH32 0x8BE0079C531659141344CD1FD0A4F28419497F9722A3DAAFE3B4186F6B6457E0 PUSH1 0x0 DUP5 LOG3 RETURN JUMPDEST PUSH1 0x84 SWAP1 PUSH1 0x20 DUP6 MLOAD SWAP2 PUSH3 0x461BCD PUSH1 0xE5 SHL DUP4 MSTORE DUP3 ADD MSTORE PUSH1 0x26 PUSH1 0x24 DUP3 ADD MSTORE PUSH32 0x4F776E61626C653A206E6577206F776E657220697320746865207A65726F2061 PUSH1 0x44 DUP3 ADD MSTORE PUSH6 0x646472657373 PUSH1 0xD0 SHL PUSH1 0x64 DUP3 ADD MSTORE REVERT JUMPDEST DUP5 DUP1 REVERT JUMPDEST POP POP CALLVALUE PUSH2 0x402 JUMPI DUP2 PUSH1 0x3 NOT CALLDATASIZE ADD SLT PUSH2 0x402 JUMPI PUSH2 0x3FF PUSH2 0x1359 JUMP JUMPDEST MLOAD RETURN JUMPDEST POP DUP1 REVERT JUMPDEST POP SWAP2 SWAP1 CALLVALUE PUSH2 0x402 JUMPI PUSH1 0x20 DUP1 PUSH1 0x3 NOT CALLDATASIZE ADD SLT PUSH2 0x265 JUMPI PUSH8 0xFFFFFFFFFFFFFFFF SWAP1 DUP5 CALLDATALOAD DUP3 DUP2 GT PUSH2 0x3E1 JUMPI CALLDATASIZE PUSH1 0x23 DUP3 ADD SLT ISZERO PUSH2 0x3E1 JUMPI PUSH2 0x44C SWAP1 CALLDATASIZE SWAP1 PUSH1 0x24 DUP2 DUP10 ADD CALLDATALOAD SWAP2 ADD PUSH2 0x1233 JUMP JUMPDEST SWAP5 PUSH2 0x461 PUSH1 0x1 DUP1 PUSH1 0xA0 SHL SUB DUP7 SLOAD AND CALLER EQ PUSH2 0x127A JUMP JUMPDEST DUP6 MLOAD SWAP3 DUP4 GT PUSH2 0x52A JUMPI POP PUSH2 0x47F DUP3 PUSH2 0x47A PUSH1 0x5 SLOAD PUSH2 0x1098 JUMP JUMPDEST PUSH2 0x15EF JUMP JUMPDEST DUP1 PUSH1 0x1F DUP4 GT PUSH1 0x1 EQ PUSH2 0x4BA JUMPI POP DUP4 SWAP5 DUP3 SWAP4 SWAP5 SWAP3 PUSH2 0x4AF JUMPI JUMPDEST POP POP DUP2 PUSH1 0x1 SHL SWAP2 PUSH1 0x0 NOT SWAP1 PUSH1 0x3 SHL SHR NOT AND OR PUSH1 0x5 SSTORE MLOAD RETURN JUMPDEST ADD MLOAD SWAP1 POP CODESIZE DUP1 PUSH2 0x497 JUMP JUMPDEST PUSH1 0x5 DUP6 MSTORE PUSH1 0x1F NOT DUP4 AND SWAP6 PUSH1 0x0 DUP1 MLOAD PUSH1 0x20 PUSH2 0x1731 DUP4 CODECOPY DUP2 MLOAD SWAP2 MSTORE SWAP3 SWAP2 DUP7 SWAP1 JUMPDEST DUP9 DUP3 LT PUSH2 0x512 JUMPI POP POP DUP4 PUSH1 0x1 SWAP6 SWAP7 SWAP8 LT PUSH2 0x4F9 JUMPI JUMPDEST POP POP POP DUP2 SHL ADD PUSH1 0x5 SSTORE MLOAD RETURN JUMPDEST ADD MLOAD PUSH1 0x0 NOT PUSH1 0xF8 DUP5 PUSH1 0x3 SHL AND SHR NOT AND SWAP1 SSTORE CODESIZE DUP1 DUP1 PUSH2 0x4ED JUMP JUMPDEST DUP1 PUSH1 0x1 DUP6 SWAP7 DUP3 SWAP5 SWAP7 DUP7 ADD MLOAD DUP2 SSTORE ADD SWAP6 ADD SWAP4 ADD SWAP1 PUSH2 0x4D8 JUMP JUMPDEST PUSH4 0x4E487B71 PUSH1 0xE0 SHL DUP6 MSTORE PUSH1 0x41 SWAP1 MSTORE PUSH1 0x24 DUP5 REVERT JUMPDEST POP POP CALLVALUE PUSH2 0x402 JUMPI DUP2 PUSH1 0x3 NOT CALLDATASIZE ADD SLT PUSH2 0x402 JUMPI PUSH2 0x563 PUSH1 0x1 DUP1 PUSH1 0xA0 SHL SUB DUP4 SLOAD AND CALLER EQ PUSH2 0x127A JUMP JUMPDEST DUP2 DUP1 DUP1 DUP1 SELFBALANCE DUP2 DUP2 ISZERO PUSH2 0x585 JUMPI JUMPDEST CALLER SWAP1 CALL ISZERO PUSH2 0x57B JUMPI MLOAD RETURN JUMPDEST MLOAD SWAP1 RETURNDATASIZE SWAP1 DUP3 RETURNDATACOPY RETURNDATASIZE SWAP1 REVERT JUMPDEST POP PUSH2 0x8FC PUSH2 0x570 JUMP JUMPDEST POP SWAP2 CALLVALUE PUSH2 0x5B7 JUMPI PUSH1 0x20 CALLDATASIZE PUSH1 0x3 NOT ADD SLT PUSH2 0x5B7 JUMPI POP PUSH2 0x5B0 PUSH1 0x20 SWAP3 SELFBALANCE SWAP1 CALLDATALOAD PUSH2 0x151D JUMP JUMPDEST SWAP1 MLOAD SWAP1 DUP2 MSTORE RETURN JUMPDEST DUP1 REVERT JUMPDEST POP POP CALLVALUE PUSH2 0x402 JUMPI DUP2 PUSH1 0x3 NOT CALLDATASIZE ADD SLT PUSH2 0x402 JUMPI SWAP1 SLOAD SWAP1 MLOAD PUSH1 0x1 PUSH1 0x1 PUSH1 0xA0 SHL SUB SWAP1 SWAP2 AND DUP2 MSTORE PUSH1 0x20 SWAP1 RETURN JUMPDEST POP CALLVALUE PUSH2 0x265 JUMPI PUSH1 0x20 CALLDATASIZE PUSH1 0x3 NOT ADD SLT PUSH2 0x265 JUMPI PUSH1 0x20 SWAP3 DUP3 SWAP2 CALLDATALOAD DUP2 MSTORE PUSH1 0x1 DUP5 MSTORE KECCAK256 SLOAD SWAP1 MLOAD SWAP1 DUP2 MSTORE RETURN JUMPDEST POP PUSH1 0x20 DUP1 PUSH1 0x3 NOT CALLDATASIZE ADD SLT PUSH2 0x6D3 JUMPI DUP2 CALLDATALOAD SWAP2 PUSH1 0x1 DUP1 PUSH1 0xA0 SHL SUB DUP6 DUP4 DUP3 PUSH1 0x8 SLOAD AND PUSH1 0x24 DUP9 MLOAD DUP1 SWAP5 DUP2 SWAP4 PUSH4 0x4F558E79 PUSH1 0xE0 SHL DUP4 MSTORE DUP11 DUP10 DUP5 ADD MSTORE GAS CALL SWAP1 DUP2 ISZERO PUSH2 0x74F JUMPI DUP8 SWAP2 PUSH2 0x787 JUMPI JUMPDEST POP ISZERO PUSH2 0x759 JUMPI DUP1 DUP4 PUSH1 0x24 SWAP3 PUSH1 0x8 SLOAD AND DUP8 MLOAD SWAP4 DUP5 DUP1 SWAP3 PUSH4 0x178B367 PUSH1 0xE3 SHL DUP3 MSTORE DUP10 DUP9 DUP4 ADD MSTORE GAS STATICCALL SWAP2 DUP3 ISZERO PUSH2 0x74F JUMPI DUP8 SWAP3 PUSH2 0x720 JUMPI JUMPDEST POP ADDRESS SWAP2 AND SUB PUSH2 0x6EA JUMPI PUSH1 0xFF DUP2 SLOAD AND SWAP1 PUSH1 0x3 DUP3 LT ISZERO PUSH2 0x6D7 JUMPI POP ISZERO PUSH2 0x6A6 DUP2 PUSH2 0x12C5 JUMP JUMPDEST ISZERO PUSH2 0x6D3 JUMPI PUSH1 0x1 SWAP2 DUP5 MSTORE MSTORE DUP1 DUP3 KECCAK256 PUSH2 0x6BF CALLVALUE DUP3 SLOAD PUSH2 0x130A JUMP JUMPDEST SWAP1 SSTORE PUSH2 0x6CD CALLVALUE PUSH1 0x2 SLOAD PUSH2 0x130A JUMP JUMPDEST PUSH1 0x2 SSTORE MLOAD RETURN JUMPDEST DUP4 DUP1 REVERT JUMPDEST PUSH4 0x4E487B71 PUSH1 0xE0 SHL DUP7 MSTORE PUSH1 0x21 SWAP1 MSTORE PUSH1 0x24 DUP6 REVERT JUMPDEST PUSH1 0x64 SWAP2 DUP5 MLOAD SWAP2 PUSH3 0x461BCD PUSH1 0xE5 SHL DUP4 MSTORE DUP3 ADD MSTORE PUSH1 0x12 PUSH1 0x24 DUP3 ADD MSTORE PUSH18 0x1DDC9BDB99C81CDD185ADA5B99C81C1BDBDB PUSH1 0x72 SHL PUSH1 0x44 DUP3 ADD MSTORE REVERT JUMPDEST PUSH2 0x741 SWAP2 SWAP3 POP DUP5 RETURNDATASIZE DUP7 GT PUSH2 0x748 JUMPI JUMPDEST PUSH2 0x739 DUP2 DUP4 PUSH2 0x1118 JUMP JUMPDEST DUP2 ADD SWAP1 PUSH2 0x132D JUMP JUMPDEST SWAP1 CODESIZE PUSH2 0x683 JUMP JUMPDEST POP RETURNDATASIZE PUSH2 0x72F JUMP JUMPDEST DUP7 MLOAD RETURNDATASIZE DUP10 DUP3 RETURNDATACOPY RETURNDATASIZE SWAP1 REVERT JUMPDEST POP PUSH1 0x64 SWAP2 DUP5 MLOAD SWAP2 PUSH3 0x461BCD PUSH1 0xE5 SHL DUP4 MSTORE DUP3 ADD MSTORE PUSH1 0x9 PUSH1 0x24 DUP3 ADD MSTORE PUSH9 0x1B9BDD08195E1A5CDD PUSH1 0xBA SHL PUSH1 0x44 DUP3 ADD MSTORE REVERT JUMPDEST SWAP1 POP DUP4 DUP2 DUP2 RETURNDATASIZE DUP4 GT PUSH2 0x7BA JUMPI JUMPDEST PUSH2 0x79E DUP2 DUP4 PUSH2 0x1118 JUMP JUMPDEST DUP2 ADD SUB SLT PUSH2 0x7B6 JUMPI MLOAD DUP1 ISZERO ISZERO DUP2 SUB PUSH2 0x7B6 JUMPI CODESIZE PUSH2 0x64F JUMP JUMPDEST DUP7 DUP1 REVERT JUMPDEST POP RETURNDATASIZE PUSH2 0x794 JUMP JUMPDEST POP CALLVALUE PUSH2 0x265 JUMPI PUSH1 0x20 CALLDATASIZE PUSH1 0x3 NOT ADD SLT PUSH2 0x265 JUMPI CALLDATALOAD SWAP2 PUSH1 0x3 SLOAD DUP4 LT ISZERO PUSH2 0x5B7 JUMPI POP PUSH2 0x7EB PUSH1 0x20 SWAP3 PUSH2 0x11E6 JUMP JUMPDEST SWAP1 SLOAD SWAP1 PUSH1 0x3 SHL SHR SWAP1 MLOAD SWAP1 DUP2 MSTORE RETURN JUMPDEST POP POP CALLVALUE PUSH2 0x402 JUMPI DUP2 PUSH1 0x3 NOT CALLDATASIZE ADD SLT PUSH2 0x402 JUMPI PUSH1 0x20 SWAP1 PUSH1 0x2 SLOAD SWAP1 MLOAD SWAP1 DUP2 MSTORE RETURN JUMPDEST DUP3 DUP5 CALLVALUE PUSH2 0x5B7 JUMPI DUP1 PUSH1 0x3 NOT CALLDATASIZE ADD SLT PUSH2 0x5B7 JUMPI POP DUP1 MLOAD PUSH1 0x0 SWAP2 PUSH1 0x5 SLOAD PUSH2 0x83C DUP2 PUSH2 0x1098 JUMP JUMPDEST DUP1 DUP5 MSTORE SWAP1 PUSH1 0x1 SWAP1 DUP2 DUP2 AND SWAP1 DUP2 ISZERO PUSH2 0x8C8 JUMPI POP PUSH1 0x1 EQ PUSH2 0x87D JUMPI JUMPDEST POP POP PUSH2 0x867 DUP3 PUSH2 0x879 SWAP5 SUB DUP4 PUSH2 0x1118 JUMP JUMPDEST MLOAD SWAP2 DUP3 SWAP2 PUSH1 0x20 DUP4 MSTORE PUSH1 0x20 DUP4 ADD SWAP1 PUSH2 0x1025 JUMP JUMPDEST SUB SWAP1 RETURN JUMPDEST PUSH1 0x5 PUSH1 0x0 SWAP1 DUP2 MSTORE SWAP5 POP PUSH1 0x0 DUP1 MLOAD PUSH1 0x20 PUSH2 0x1731 DUP4 CODECOPY DUP2 MLOAD SWAP2 MSTORE JUMPDEST DUP3 DUP7 LT PUSH2 0x8B0 JUMPI POP POP POP SWAP2 DUP2 ADD PUSH1 0x20 ADD SWAP2 PUSH2 0x867 DUP3 PUSH2 0x856 JUMP JUMPDEST DUP1 SLOAD PUSH1 0x20 DUP8 DUP8 ADD DUP2 ADD SWAP2 SWAP1 SWAP2 MSTORE SWAP1 SWAP6 ADD SWAP5 DUP2 ADD PUSH2 0x896 JUMP JUMPDEST PUSH2 0x879 SWAP7 POP DUP6 SWAP3 POP PUSH1 0x20 SWAP2 POP SWAP3 PUSH2 0x867 SWAP4 PUSH1 0xFF NOT AND DUP3 DUP5 ADD MSTORE ISZERO ISZERO PUSH1 0x5 SHL DUP3 ADD ADD SWAP5 POP PUSH2 0x856 JUMP JUMPDEST POP POP CALLVALUE PUSH2 0x402 JUMPI DUP2 PUSH1 0x3 NOT CALLDATASIZE ADD SLT PUSH2 0x402 JUMPI PUSH1 0x0 PUSH1 0x1 DUP1 PUSH1 0xA0 SHL SUB PUSH2 0x919 DUP2 DUP6 SLOAD AND CALLER EQ PUSH2 0x127A JUMP JUMPDEST DUP2 SLOAD PUSH1 0x1 PUSH1 0x1 PUSH1 0xA0 SHL SUB NOT DUP2 AND DUP4 SSTORE SWAP3 MLOAD SWAP3 AND PUSH32 0x8BE0079C531659141344CD1FD0A4F28419497F9722A3DAAFE3B4186F6B6457E0 DUP3 DUP5 LOG3 RETURN JUMPDEST POP SWAP2 CALLVALUE PUSH2 0x5B7 JUMPI PUSH1 0x20 CALLDATASIZE PUSH1 0x3 NOT ADD SLT PUSH2 0x5B7 JUMPI POP PUSH2 0x5B0 PUSH1 0x20 SWAP3 CALLDATALOAD PUSH2 0x15B2 JUMP JUMPDEST POP SWAP2 CALLVALUE PUSH2 0x5B7 JUMPI PUSH1 0x3 NOT SWAP2 PUSH1 0x80 CALLDATASIZE DUP5 ADD SLT PUSH2 0x402 JUMPI PUSH8 0xFFFFFFFFFFFFFFFF DUP5 CALLDATALOAD DUP2 DUP2 GT PUSH2 0x6D3 JUMPI PUSH2 0x9A6 SWAP1 CALLDATASIZE SWAP1 DUP8 ADD PUSH2 0x1065 JUMP JUMPDEST PUSH1 0x24 SWAP7 SWAP2 DUP8 CALLDATALOAD DUP5 DUP2 GT PUSH2 0x7B6 JUMPI PUSH2 0x9C0 SWAP1 CALLDATASIZE SWAP1 DUP6 ADD PUSH2 0x1065 JUMP JUMPDEST SWAP3 PUSH1 0x44 SWAP9 DUP10 CALLDATALOAD SWAP11 DUP8 DUP13 GT PUSH2 0xD88 JUMPI PUSH2 0x9E1 DUP11 SWAP12 SWAP13 SWAP11 SWAP9 SWAP10 SWAP11 CALLDATASIZE SWAP1 DUP10 ADD PUSH2 0x1065 JUMP JUMPDEST SWAP3 PUSH2 0x9F7 PUSH1 0x1 DUP1 PUSH1 0xA0 SHL SUB DUP1 SWAP12 SLOAD AND CALLER EQ PUSH2 0x127A JUMP JUMPDEST PUSH9 0x1BC16D674EC800000 SWAP4 DUP5 SELFBALANCE LT PUSH2 0xD53 JUMPI PUSH1 0xFF DUP11 SLOAD AND PUSH1 0x3 DUP2 LT ISZERO PUSH2 0xD41 JUMPI PUSH2 0xD0F JUMPI PUSH2 0xA23 PUSH2 0x113A JUMP JUMPDEST DUP1 MLOAD PUSH1 0x20 SWAP2 DUP3 ADD KECCAK256 PUSH1 0x60 MLOAD PUSH1 0x80 KECCAK256 SWAP2 SWAP14 SWAP2 EQ PUSH2 0xC3E JUMPI POP PUSH2 0xA42 PUSH2 0x113A JUMP JUMPDEST DUP13 DUP2 MLOAD SWAP2 ADD KECCAK256 PUSH2 0xA53 CALLDATASIZE DUP9 DUP12 PUSH2 0x1233 JUMP JUMPDEST DUP14 DUP2 MLOAD SWAP2 ADD KECCAK256 SUB PUSH2 0xBF0 JUMPI JUMPDEST DUP10 SLOAD PUSH1 0xFF NOT AND PUSH1 0x1 OR DUP11 SSTORE ADDRESS PUSH1 0x1 PUSH1 0xF8 SHL DUP2 ADD SWAP1 DUP2 LT PUSH2 0xBDE JUMPI DUP14 MLOAD SWAP1 DUP14 DUP3 ADD SWAP1 DUP2 MSTORE DUP14 DUP3 MSTORE PUSH2 0xA8E DUP3 PUSH2 0x10FC JUMP JUMPDEST DUP14 PUSH2 0xA9A CALLDATASIZE DUP14 DUP13 PUSH2 0x1233 JUMP JUMPDEST DUP1 MLOAD SWAP2 ADD KECCAK256 SWAP2 MLOAD SWAP1 KECCAK256 SUB PUSH2 0xB9B JUMPI DUP14 SWAP15 DUP12 SWAP14 SWAP15 SWAP10 SWAP11 SWAP12 PUSH1 0x6 SWAP15 SWAP14 SWAP15 SLOAD AND SWAP8 DUP9 EXTCODESIZE ISZERO PUSH2 0xB97 JUMPI DUP16 MLOAD PUSH4 0x4512A23 PUSH1 0xE3 SHL DUP2 MSTORE PUSH1 0x80 DUP2 DUP16 ADD MSTORE SWAP12 DUP13 SWAP11 DUP12 SWAP10 DUP11 SWAP9 SWAP3 SWAP2 PUSH2 0xAE8 SWAP2 PUSH1 0x84 DUP12 ADD SWAP2 PUSH2 0x170F JUMP JUMPDEST SWAP2 DUP7 DUP10 DUP5 SUB ADD SWAP1 DUP10 ADD MSTORE PUSH2 0xAFB SWAP3 PUSH2 0x170F JUMP JUMPDEST SWAP3 DUP6 DUP5 SUB ADD SWAP1 DUP6 ADD MSTORE PUSH2 0xB0D SWAP3 PUSH2 0x170F JUMP JUMPDEST PUSH1 0x64 CALLDATALOAD PUSH1 0x64 DUP4 ADD MSTORE SUB SWAP3 GAS CALL DUP1 ISZERO PUSH2 0x2B9 JUMPI PUSH2 0xB5E JUMPI JUMPDEST POP SWAP2 DUP4 SWAP2 PUSH32 0x72B356FD889B9ABD3530ACCD2C9F4AECBCE67D70757181F9F862AC91464CE192 SWAP4 SLOAD PUSH1 0x8 SHR AND SWAP1 DUP3 MLOAD SWAP2 DUP3 MSTORE CALLER SWAP1 DUP3 ADD MSTORE LOG1 MLOAD RETURN JUMPDEST SWAP2 PUSH32 0x72B356FD889B9ABD3530ACCD2C9F4AECBCE67D70757181F9F862AC91464CE192 SWAP4 SWAP2 SWAP6 PUSH2 0xB8D DUP7 SWAP5 PUSH2 0x10D2 JUMP JUMPDEST SWAP6 SWAP2 SWAP4 POP SWAP2 PUSH2 0xB24 JUMP JUMPDEST DUP11 DUP1 REVERT JUMPDEST POP POP POP DUP7 PUSH32 0x7769746864726177616C2063726564656E7469616C206D69736D617463680000 DUP14 PUSH1 0x1E PUSH1 0x64 SWAP5 DUP14 DUP16 MLOAD SWAP6 PUSH3 0x461BCD PUSH1 0xE5 SHL DUP8 MSTORE DUP7 ADD MSTORE DUP5 ADD MSTORE DUP3 ADD MSTORE REVERT JUMPDEST PUSH4 0x4E487B71 PUSH1 0xE0 SHL DUP16 MSTORE PUSH1 0x11 DUP12 MSTORE DUP5 DUP16 REVERT JUMPDEST POP POP POP DUP7 PUSH32 0x7075626B657920646F6573206E6F74206D617463682073746F7265642076616C DUP14 PUSH1 0x22 PUSH1 0x84 SWAP5 DUP14 DUP16 MLOAD SWAP6 PUSH3 0x461BCD PUSH1 0xE5 SHL DUP8 MSTORE DUP7 ADD MSTORE DUP5 ADD MSTORE DUP3 ADD MSTORE PUSH2 0x7565 PUSH1 0xF0 SHL PUSH1 0x64 DUP3 ADD MSTORE REVERT JUMPDEST DUP7 GT PUSH2 0xCFD JUMPI DUP6 DUP15 PUSH2 0xC55 DUP3 PUSH2 0x47A PUSH1 0x5 SLOAD PUSH2 0x1098 JUMP JUMPDEST DUP1 PUSH1 0x1F DUP4 GT PUSH1 0x1 EQ PUSH2 0xC8B JUMPI SWAP2 PUSH2 0xC80 JUMPI JUMPDEST POP DUP7 PUSH1 0x1 SHL SWAP1 PUSH1 0x0 NOT DUP9 PUSH1 0x3 SHL SHR NOT AND OR PUSH1 0x5 SSTORE PUSH2 0xA5F JUMP JUMPDEST SWAP1 POP DUP9 ADD CALLDATALOAD CODESIZE PUSH2 0xC67 JUMP JUMPDEST PUSH1 0x5 DUP2 MSTORE PUSH1 0x0 DUP1 MLOAD PUSH1 0x20 PUSH2 0x1731 DUP4 CODECOPY DUP2 MLOAD SWAP2 MSTORE SWAP3 POP DUP15 JUMPDEST DUP12 PUSH1 0x1F NOT DUP12 AND DUP4 LT PUSH2 0xCE7 JUMPI POP POP POP DUP8 PUSH1 0x1F NOT DUP2 AND LT PUSH2 0xCCD JUMPI JUMPDEST POP POP PUSH1 0x1 DUP7 DUP2 SHL ADD PUSH1 0x5 SSTORE PUSH2 0xA5F JUMP JUMPDEST DUP10 ADD CALLDATALOAD PUSH1 0x0 NOT PUSH1 0x3 DUP10 SWAP1 SHL PUSH1 0xF8 AND SHR NOT AND SWAP1 SSTORE CODESIZE DUP1 PUSH2 0xCBD JUMP JUMPDEST DUP4 ADD CALLDATALOAD DUP5 SSTORE PUSH1 0x1 SWAP1 SWAP4 ADD SWAP3 SWAP2 DUP3 ADD SWAP2 ADD DUP15 PUSH2 0xCA2 JUMP JUMPDEST PUSH4 0x4E487B71 PUSH1 0xE0 SHL DUP15 MSTORE PUSH1 0x41 DUP11 MSTORE DUP4 DUP15 REVERT JUMPDEST POP POP POP DUP7 PUSH11 0x77726F6E67207374617465 PUSH1 0xA8 SHL DUP14 PUSH1 0xB PUSH1 0x64 SWAP5 PUSH1 0x20 DUP16 MLOAD SWAP6 PUSH3 0x461BCD PUSH1 0xE5 SHL DUP8 MSTORE DUP7 ADD MSTORE DUP5 ADD MSTORE DUP3 ADD MSTORE REVERT JUMPDEST PUSH4 0x4E487B71 PUSH1 0xE0 SHL DUP16 MSTORE PUSH1 0x21 DUP12 MSTORE DUP5 DUP16 REVERT JUMPDEST POP POP POP DUP7 PUSH14 0xDCDEE840CADCDEEACED040CAE8D PUSH1 0x93 SHL DUP14 PUSH1 0xE PUSH1 0x64 SWAP5 PUSH1 0x20 DUP16 MLOAD SWAP6 PUSH3 0x461BCD PUSH1 0xE5 SHL DUP8 MSTORE DUP7 ADD MSTORE DUP5 ADD MSTORE DUP3 ADD MSTORE REVERT JUMPDEST DUP10 DUP1 REVERT JUMPDEST POP POP CALLVALUE PUSH2 0x402 JUMPI DUP2 PUSH1 0x3 NOT CALLDATASIZE ADD SLT PUSH2 0x402 JUMPI PUSH2 0x879 SWAP1 PUSH2 0xDAA PUSH2 0x113A JUMP JUMPDEST SWAP1 MLOAD SWAP2 DUP3 SWAP2 PUSH1 0x20 DUP4 MSTORE PUSH1 0x20 DUP4 ADD SWAP1 PUSH2 0x1025 JUMP JUMPDEST POP CALLVALUE PUSH2 0x265 JUMPI DUP2 PUSH1 0x3 NOT CALLDATASIZE ADD SLT PUSH2 0x265 JUMPI DUP1 CALLDATALOAD PUSH1 0x24 SWAP1 DUP2 CALLDATALOAD SWAP3 PUSH1 0xFF DUP2 SLOAD AND PUSH1 0x3 DUP2 LT ISZERO PUSH2 0xF54 JUMPI PUSH1 0x1 EQ PUSH2 0xF12 JUMPI PUSH1 0x8 SLOAD DUP6 MLOAD PUSH4 0x31A9108F PUSH1 0xE1 SHL DUP2 MSTORE DUP3 DUP2 ADD DUP5 SWAP1 MSTORE PUSH1 0x20 SWAP5 SWAP2 PUSH1 0x1 PUSH1 0x1 PUSH1 0xA0 SHL SUB SWAP2 SWAP1 DUP7 SWAP1 DUP3 SWAP1 DUP6 SWAP1 DUP3 SWAP1 DUP7 AND GAS STATICCALL SWAP1 DUP2 ISZERO PUSH2 0xF08 JUMPI DUP10 SWAP2 PUSH2 0xEEB JUMPI JUMPDEST POP AND CALLER SUB PUSH2 0xEB9 JUMPI DUP3 DUP8 MSTORE PUSH1 0x1 DUP5 MSTORE DUP5 DUP7 DUP9 KECCAK256 SLOAD LT PUSH2 0xE80 JUMPI POP POP DUP5 DUP1 SWAP4 PUSH1 0x1 DUP3 SWAP5 DUP4 SWAP5 DUP5 MSTORE MSTORE DUP6 DUP3 KECCAK256 PUSH2 0xE5D DUP3 DUP3 SLOAD PUSH2 0x134C JUMP JUMPDEST SWAP1 SSTORE PUSH2 0xE6B DUP2 PUSH1 0x2 SLOAD PUSH2 0x134C JUMP JUMPDEST PUSH1 0x2 SSTORE DUP2 DUP2 ISZERO PUSH2 0x585 JUMPI CALLER SWAP1 CALL ISZERO PUSH2 0x57B JUMPI MLOAD RETURN JUMPDEST DUP6 MLOAD PUSH3 0x461BCD PUSH1 0xE5 SHL DUP2 MSTORE SWAP2 DUP3 ADD DUP5 SWAP1 MSTORE PUSH1 0x14 SWAP1 DUP3 ADD MSTORE PUSH20 0x1B9BDD08195B9BDD59DA0819195C1BDCDA5D1959 PUSH1 0x62 SHL PUSH1 0x44 DUP3 ADD MSTORE PUSH1 0x64 SWAP1 REVERT JUMPDEST DUP6 MLOAD PUSH3 0x461BCD PUSH1 0xE5 SHL DUP2 MSTORE SWAP2 DUP3 ADD DUP5 SWAP1 MSTORE PUSH1 0xD SWAP1 DUP3 ADD MSTORE PUSH13 0x3737BA103A34329037BBB732B9 PUSH1 0x99 SHL PUSH1 0x44 DUP3 ADD MSTORE PUSH1 0x64 SWAP1 REVERT JUMPDEST PUSH2 0xF02 SWAP2 POP DUP7 RETURNDATASIZE DUP9 GT PUSH2 0x748 JUMPI PUSH2 0x739 DUP2 DUP4 PUSH2 0x1118 JUMP JUMPDEST CODESIZE PUSH2 0xE28 JUMP JUMPDEST DUP9 MLOAD RETURNDATASIZE DUP12 DUP3 RETURNDATACOPY RETURNDATASIZE SWAP1 REVERT JUMPDEST PUSH1 0x64 SWAP1 PUSH1 0x1B DUP5 PUSH1 0x20 DUP9 MLOAD SWAP4 PUSH3 0x461BCD PUSH1 0xE5 SHL DUP6 MSTORE DUP5 ADD MSTORE DUP3 ADD MSTORE PUSH32 0x63616E6E6F74207769746864726177206F6E6365207374616B65640000000000 PUSH1 0x44 DUP3 ADD MSTORE REVERT JUMPDEST PUSH4 0x4E487B71 PUSH1 0xE0 SHL DUP8 MSTORE PUSH1 0x21 DUP3 MSTORE DUP4 DUP8 REVERT JUMPDEST POP CALLVALUE PUSH2 0x265 JUMPI PUSH1 0x20 CALLDATASIZE PUSH1 0x3 NOT ADD SLT PUSH2 0x265 JUMPI CALLDATALOAD PUSH1 0x1 PUSH1 0x1 PUSH1 0xA0 SHL SUB DUP2 DUP2 AND SWAP2 DUP3 SWAP1 SUB PUSH2 0x6D3 JUMPI PUSH2 0xF9A SWAP1 DUP5 SLOAD AND CALLER EQ PUSH2 0x127A JUMP JUMPDEST PUSH12 0xFFFFFFFFFFFFFFFFFFFFFFFF PUSH1 0xA0 SHL PUSH1 0x8 SLOAD AND OR PUSH1 0x8 SSTORE MLOAD RETURN JUMPDEST POP CALLVALUE PUSH2 0x265 JUMPI DUP3 PUSH1 0x3 NOT CALLDATASIZE ADD SLT PUSH2 0x265 JUMPI PUSH2 0xFCE PUSH2 0x1359 JUMP JUMPDEST DUP1 SLOAD PUSH1 0xFF NOT AND PUSH1 0x2 OR SWAP1 SSTORE MLOAD RETURN JUMPDEST POP CALLVALUE PUSH2 0x265 JUMPI DUP3 PUSH1 0x3 NOT CALLDATASIZE ADD SLT PUSH2 0x265 JUMPI SLOAD SWAP1 MLOAD PUSH1 0x8 SWAP2 SWAP1 SWAP2 SHR PUSH1 0x1 PUSH1 0x1 PUSH1 0xA0 SHL SUB AND DUP2 MSTORE PUSH1 0x20 SWAP2 POP RETURN JUMPDEST POP POP CALLVALUE PUSH2 0x402 JUMPI DUP2 PUSH1 0x3 NOT CALLDATASIZE ADD SLT PUSH2 0x402 JUMPI PUSH2 0x879 SWAP1 PUSH2 0xDAA PUSH2 0x164E JUMP JUMPDEST SWAP2 SWAP1 DUP3 MLOAD SWAP3 DUP4 DUP3 MSTORE PUSH1 0x0 JUMPDEST DUP5 DUP2 LT PUSH2 0x1051 JUMPI POP POP DUP3 PUSH1 0x0 PUSH1 0x20 DUP1 SWAP5 SWAP6 DUP5 ADD ADD MSTORE PUSH1 0x1F DUP1 NOT SWAP2 ADD AND ADD ADD SWAP1 JUMP JUMPDEST PUSH1 0x20 DUP2 DUP4 ADD DUP2 ADD MLOAD DUP5 DUP4 ADD DUP3 ADD MSTORE ADD PUSH2 0x1030 JUMP JUMPDEST SWAP2 DUP2 PUSH1 0x1F DUP5 ADD SLT ISZERO PUSH2 0x1093 JUMPI DUP3 CALLDATALOAD SWAP2 PUSH8 0xFFFFFFFFFFFFFFFF DUP4 GT PUSH2 0x1093 JUMPI PUSH1 0x20 DUP4 DUP2 DUP7 ADD SWAP6 ADD ADD GT PUSH2 0x1093 JUMPI JUMP JUMPDEST PUSH1 0x0 DUP1 REVERT JUMPDEST SWAP1 PUSH1 0x1 DUP3 DUP2 SHR SWAP3 AND DUP1 ISZERO PUSH2 0x10C8 JUMPI JUMPDEST PUSH1 0x20 DUP4 LT EQ PUSH2 0x10B2 JUMPI JUMP JUMPDEST PUSH4 0x4E487B71 PUSH1 0xE0 SHL PUSH1 0x0 MSTORE PUSH1 0x22 PUSH1 0x4 MSTORE PUSH1 0x24 PUSH1 0x0 REVERT JUMPDEST SWAP2 PUSH1 0x7F AND SWAP2 PUSH2 0x10A7 JUMP JUMPDEST PUSH8 0xFFFFFFFFFFFFFFFF DUP2 GT PUSH2 0x10E6 JUMPI PUSH1 0x40 MSTORE JUMP JUMPDEST PUSH4 0x4E487B71 PUSH1 0xE0 SHL PUSH1 0x0 MSTORE PUSH1 0x41 PUSH1 0x4 MSTORE PUSH1 0x24 PUSH1 0x0 REVERT JUMPDEST PUSH1 0x40 DUP2 ADD SWAP1 DUP2 LT PUSH8 0xFFFFFFFFFFFFFFFF DUP3 GT OR PUSH2 0x10E6 JUMPI PUSH1 0x40 MSTORE JUMP JUMPDEST SWAP1 PUSH1 0x1F DUP1 NOT SWAP2 ADD AND DUP2 ADD SWAP1 DUP2 LT PUSH8 0xFFFFFFFFFFFFFFFF DUP3 GT OR PUSH2 0x10E6 JUMPI PUSH1 0x40 MSTORE JUMP JUMPDEST PUSH1 0x40 MLOAD SWAP1 PUSH1 0x0 DUP3 PUSH1 0x5 SLOAD SWAP2 PUSH2 0x114E DUP4 PUSH2 0x1098 JUMP JUMPDEST DUP1 DUP4 MSTORE SWAP3 PUSH1 0x1 SWAP1 DUP2 DUP2 AND SWAP1 DUP2 ISZERO PUSH2 0x11C4 JUMPI POP PUSH1 0x1 EQ PUSH2 0x1177 JUMPI JUMPDEST POP PUSH2 0x1175 SWAP3 POP SUB DUP4 PUSH2 0x1118 JUMP JUMPDEST JUMP JUMPDEST PUSH1 0x5 PUSH1 0x0 SWAP1 DUP2 MSTORE SWAP2 POP PUSH1 0x0 DUP1 MLOAD PUSH1 0x20 PUSH2 0x1731 DUP4 CODECOPY DUP2 MLOAD SWAP2 MSTORE JUMPDEST DUP5 DUP4 LT PUSH2 0x11A9 JUMPI POP PUSH2 0x1175 SWAP4 POP POP DUP2 ADD PUSH1 0x20 ADD CODESIZE PUSH2 0x1168 JUMP JUMPDEST DUP2 SWAP4 POP SWAP1 DUP2 PUSH1 0x20 SWAP3 SLOAD DUP4 DUP6 DUP11 ADD ADD MSTORE ADD SWAP2 ADD SWAP1 SWAP2 DUP6 SWAP3 PUSH2 0x1190 JUMP JUMPDEST SWAP1 POP PUSH1 0x20 SWAP3 POP PUSH2 0x1175 SWAP5 SWAP2 POP PUSH1 0xFF NOT AND DUP3 DUP5 ADD MSTORE ISZERO ISZERO PUSH1 0x5 SHL DUP3 ADD ADD CODESIZE PUSH2 0x1168 JUMP JUMPDEST PUSH1 0x3 SLOAD DUP2 LT ISZERO PUSH2 0x121D JUMPI PUSH1 0x3 PUSH1 0x0 MSTORE PUSH32 0xC2575A0E9E593C00F959F8C92F12DB2869C3395A3B0502D05E2516446F71F85B ADD SWAP1 PUSH1 0x0 SWAP1 JUMP JUMPDEST PUSH4 0x4E487B71 PUSH1 0xE0 SHL PUSH1 0x0 MSTORE PUSH1 0x32 PUSH1 0x4 MSTORE PUSH1 0x24 PUSH1 0x0 REVERT JUMPDEST SWAP3 SWAP2 SWAP3 PUSH8 0xFFFFFFFFFFFFFFFF DUP3 GT PUSH2 0x10E6 JUMPI PUSH1 0x40 MLOAD SWAP2 PUSH2 0x125D PUSH1 0x1F DUP3 ADD PUSH1 0x1F NOT AND PUSH1 0x20 ADD DUP5 PUSH2 0x1118 JUMP JUMPDEST DUP3 SWAP5 DUP2 DUP5 MSTORE DUP2 DUP4 ADD GT PUSH2 0x1093 JUMPI DUP3 DUP2 PUSH1 0x20 SWAP4 DUP5 PUSH1 0x0 SWAP7 ADD CALLDATACOPY ADD ADD MSTORE JUMP JUMPDEST ISZERO PUSH2 0x1281 JUMPI JUMP JUMPDEST PUSH1 0x64 PUSH1 0x40 MLOAD PUSH3 0x461BCD PUSH1 0xE5 SHL DUP2 MSTORE PUSH1 0x20 PUSH1 0x4 DUP3 ADD MSTORE PUSH1 0x20 PUSH1 0x24 DUP3 ADD MSTORE PUSH32 0x4F776E61626C653A2063616C6C6572206973206E6F7420746865206F776E6572 PUSH1 0x44 DUP3 ADD MSTORE REVERT JUMPDEST ISZERO PUSH2 0x12CC JUMPI JUMP JUMPDEST PUSH1 0x40 MLOAD PUSH3 0x461BCD PUSH1 0xE5 SHL DUP2 MSTORE PUSH1 0x20 PUSH1 0x4 DUP3 ADD MSTORE PUSH1 0x16 PUSH1 0x24 DUP3 ADD MSTORE PUSH22 0x6E6F7420616363657074696E67206465706F73697473 PUSH1 0x50 SHL PUSH1 0x44 DUP3 ADD MSTORE PUSH1 0x64 SWAP1 REVERT JUMPDEST SWAP2 SWAP1 DUP3 ADD DUP1 SWAP3 GT PUSH2 0x1317 JUMPI JUMP JUMPDEST PUSH4 0x4E487B71 PUSH1 0xE0 SHL PUSH1 0x0 MSTORE PUSH1 0x11 PUSH1 0x4 MSTORE PUSH1 0x24 PUSH1 0x0 REVERT JUMPDEST SWAP1 DUP2 PUSH1 0x20 SWAP2 SUB SLT PUSH2 0x1093 JUMPI MLOAD PUSH1 0x1 PUSH1 0x1 PUSH1 0xA0 SHL SUB DUP2 AND DUP2 SUB PUSH2 0x1093 JUMPI SWAP1 JUMP JUMPDEST SWAP2 SWAP1 DUP3 SUB SWAP2 DUP3 GT PUSH2 0x1317 JUMPI JUMP JUMPDEST PUSH1 0x4 SWAP1 PUSH1 0xFF DUP3 SLOAD AND PUSH1 0x3 SWAP3 DUP4 DUP3 LT ISZERO PUSH2 0x1508 JUMPI PUSH1 0x1 DUP1 SWAP3 SUB PUSH2 0x14C4 JUMPI SELFBALANCE PUSH1 0x64 DUP2 GT ISZERO PUSH2 0x1480 JUMPI PUSH1 0x0 SWAP5 DUP4 JUMPDEST PUSH2 0x1391 JUMPI JUMPDEST POP POP POP POP SWAP1 POP JUMP JUMPDEST DUP1 SLOAD DUP7 LT ISZERO PUSH2 0x147B JUMPI PUSH2 0x13A3 DUP7 PUSH2 0x11E6 JUMP JUMPDEST SWAP1 SLOAD SWAP1 DUP3 SHL SHR PUSH1 0x1 DUP1 PUSH1 0xA0 SHL SUB DUP1 PUSH1 0x8 SLOAD AND SWAP2 PUSH1 0x40 SWAP3 DUP4 MLOAD DUP1 SWAP2 PUSH4 0x31A9108F PUSH1 0xE1 SHL DUP3 MSTORE DUP4 DUP10 DUP4 ADD MSTORE DUP2 PUSH1 0x24 PUSH1 0x20 SWAP5 DUP6 SWAP4 GAS STATICCALL SWAP2 DUP3 ISZERO PUSH2 0x1470 JUMPI SWAP4 PUSH1 0x0 SWAP5 SWAP4 DUP6 SWAP5 SWAP4 DUP10 DUP7 SWAP6 SWAP5 DUP7 SWAP6 DUP7 SWAP4 PUSH2 0x144D JUMPI JUMPDEST POP POP PUSH2 0x13FE SWAP2 SWAP3 PUSH2 0x151D JUMP JUMPDEST SWAP2 DUP4 SWAP2 DUP4 ISZERO PUSH2 0x1443 JUMPI JUMPDEST AND SWAP1 CALL ISZERO PUSH2 0x1439 JUMPI POP PUSH1 0x0 NOT DUP7 EQ PUSH2 0x1424 JUMPI SWAP5 DUP4 ADD SWAP5 DUP4 PUSH2 0x1384 JUMP JUMPDEST PUSH1 0x11 DUP4 PUSH4 0x4E487B71 PUSH1 0xE0 SHL PUSH1 0x0 MSTORE MSTORE PUSH1 0x24 PUSH1 0x0 REVERT JUMPDEST MLOAD RETURNDATASIZE PUSH1 0x0 DUP3 RETURNDATACOPY RETURNDATASIZE SWAP1 REVERT JUMPDEST PUSH2 0x8FC SWAP3 POP PUSH2 0x1408 JUMP JUMPDEST PUSH2 0x13FE SWAP4 POP SWAP1 DUP2 PUSH2 0x1469 SWAP3 SWAP1 RETURNDATASIZE LT PUSH2 0x748 JUMPI PUSH2 0x739 DUP2 DUP4 PUSH2 0x1118 JUMP JUMPDEST SWAP2 CODESIZE PUSH2 0x13F2 JUMP JUMPDEST DUP6 MLOAD RETURNDATASIZE PUSH1 0x0 DUP3 RETURNDATACOPY RETURNDATASIZE SWAP1 REVERT JUMPDEST PUSH2 0x1389 JUMP JUMPDEST PUSH1 0x40 MLOAD PUSH3 0x461BCD PUSH1 0xE5 SHL DUP2 MSTORE PUSH1 0x20 DUP2 DUP5 ADD DUP2 SWAP1 MSTORE PUSH1 0x24 DUP3 ADD MSTORE PUSH32 0x6D696E696D756D206F66203130302077656920746F2064697374726962757465 PUSH1 0x44 DUP3 ADD MSTORE PUSH1 0x64 SWAP1 REVERT JUMPDEST PUSH1 0x64 SWAP1 PUSH1 0x20 PUSH1 0x40 MLOAD SWAP2 PUSH3 0x461BCD PUSH1 0xE5 SHL DUP4 MSTORE DUP3 ADD MSTORE PUSH1 0x1C PUSH1 0x24 DUP3 ADD MSTORE PUSH32 0x757365207769746864726177207768656E206E6F74207374616B656400000000 PUSH1 0x44 DUP3 ADD MSTORE REVERT JUMPDEST PUSH1 0x21 SWAP1 PUSH4 0x4E487B71 PUSH1 0xE0 SHL PUSH1 0x0 MSTORE MSTORE PUSH1 0x24 PUSH1 0x0 REVERT JUMPDEST PUSH1 0x0 SWAP1 DUP2 MSTORE PUSH1 0x1 PUSH1 0x20 MSTORE PUSH1 0x40 DUP2 KECCAK256 SLOAD ISZERO PUSH2 0x15AD JUMPI PUSH1 0x40 DUP2 KECCAK256 SLOAD PUSH1 0x0 NOT SWAP3 SWAP1 DUP2 ISZERO ISZERO DUP3 DUP6 DIV DUP3 GT AND PUSH2 0x1599 JUMPI PUSH1 0x2 SLOAD SWAP2 DUP3 ISZERO PUSH2 0x1585 JUMPI MUL DIV SWAP2 PUSH1 0x1 DUP4 GT ISZERO PUSH2 0x157F JUMPI DUP3 ADD SWAP2 DUP3 GT PUSH2 0x156B JUMPI POP SWAP1 JUMP JUMPDEST PUSH4 0x4E487B71 PUSH1 0xE0 SHL DUP2 MSTORE PUSH1 0x11 PUSH1 0x4 MSTORE PUSH1 0x24 SWAP1 REVERT JUMPDEST POP SWAP1 POP SWAP1 JUMP JUMPDEST PUSH4 0x4E487B71 PUSH1 0xE0 SHL DUP5 MSTORE PUSH1 0x12 PUSH1 0x4 MSTORE PUSH1 0x24 DUP5 REVERT JUMPDEST PUSH4 0x4E487B71 PUSH1 0xE0 SHL DUP4 MSTORE PUSH1 0x11 PUSH1 0x4 MSTORE PUSH1 0x24 DUP4 REVERT JUMPDEST SWAP1 POP SWAP1 JUMP JUMPDEST PUSH1 0xFF PUSH1 0x4 SLOAD AND PUSH1 0x3 DUP2 LT ISZERO PUSH2 0x15D9 JUMPI PUSH2 0x15CB JUMPI POP PUSH1 0x0 SWAP1 JUMP JUMPDEST PUSH2 0x15D6 SWAP1 SELFBALANCE SWAP1 PUSH2 0x151D JUMP JUMPDEST SWAP1 JUMP JUMPDEST PUSH4 0x4E487B71 PUSH1 0xE0 SHL PUSH1 0x0 MSTORE PUSH1 0x21 PUSH1 0x4 MSTORE PUSH1 0x24 PUSH1 0x0 REVERT JUMPDEST PUSH1 0x1F DUP2 GT PUSH2 0x15FB JUMPI POP POP JUMP JUMPDEST PUSH1 0x0 SWAP1 PUSH1 0x5 DUP3 MSTORE PUSH1 0x0 DUP1 MLOAD PUSH1 0x20 PUSH2 0x1731 DUP4 CODECOPY DUP2 MLOAD SWAP2 MSTORE SWAP1 PUSH1 0x20 PUSH1 0x1F DUP6 ADD PUSH1 0x5 SHR DUP4 ADD SWAP5 LT PUSH2 0x1644 JUMPI JUMPDEST PUSH1 0x1F ADD PUSH1 0x5 SHR ADD SWAP2 JUMPDEST DUP3 DUP2 LT PUSH2 0x1639 JUMPI POP POP POP JUMP JUMPDEST DUP2 DUP2 SSTORE PUSH1 0x1 ADD PUSH2 0x162D JUMP JUMPDEST SWAP1 SWAP3 POP DUP3 SWAP1 PUSH2 0x1624 JUMP JUMPDEST PUSH1 0xFF PUSH1 0x4 SLOAD AND PUSH1 0x3 DUP2 LT ISZERO PUSH2 0x15D9 JUMPI PUSH1 0x1 DUP2 EQ PUSH2 0x16EC JUMPI DUP1 ISZERO PUSH2 0x16BD JUMPI PUSH1 0x2 EQ PUSH2 0x169B JUMPI PUSH1 0x40 MLOAD PUSH2 0x167E DUP2 PUSH2 0x10FC JUMP JUMPDEST PUSH1 0xD DUP2 MSTORE PUSH13 0x7374617465206661696C757265 PUSH1 0x98 SHL PUSH1 0x20 DUP3 ADD MSTORE SWAP1 JUMP JUMPDEST PUSH1 0x40 MLOAD PUSH2 0x16A7 DUP2 PUSH2 0x10FC JUMP JUMPDEST PUSH1 0x6 DUP2 MSTORE PUSH6 0x195E1A5D1959 PUSH1 0xD2 SHL PUSH1 0x20 DUP3 ADD MSTORE SWAP1 JUMP JUMPDEST POP PUSH1 0x40 MLOAD PUSH2 0x16CA DUP2 PUSH2 0x10FC JUMP JUMPDEST PUSH1 0x12 DUP2 MSTORE PUSH18 0x616363657074696E67206465706F73697473 PUSH1 0x70 SHL PUSH1 0x20 DUP3 ADD MSTORE SWAP1 JUMP JUMPDEST POP PUSH1 0x40 MLOAD PUSH2 0x16F9 DUP2 PUSH2 0x10FC JUMP JUMPDEST PUSH1 0x6 DUP2 MSTORE PUSH6 0x1CDD185AD959 PUSH1 0xD2 SHL PUSH1 0x20 DUP3 ADD MSTORE SWAP1 JUMP JUMPDEST SWAP1 DUP1 PUSH1 0x20 SWAP4 SWAP3 DUP2 DUP5 MSTORE DUP5 DUP5 ADD CALLDATACOPY PUSH1 0x0 DUP3 DUP3 ADD DUP5 ADD MSTORE PUSH1 0x1F ADD PUSH1 0x1F NOT AND ADD ADD SWAP1 JUMP INVALID SUB PUSH12 0x6384B5ECA791C62761152D0C PUSH26 0xBB0604C104A5FB6F4EB0703F3154BB3DB0A26469706673582212 KECCAK256 BLOCKHASH 0xEF 0xBF PUSH24 0xD3A4DAF84AEECD0D55B8D5B4CB658118A4DAD4FCCF988149 0xEB 0xEB 0xA7 PUSH32 0x64736F6C63430008100033000000000000000000000000000000000000000000 "
        },
        "gasEstimates": {
          "creation": {
            "codeDepositCost": "1204400",
            "executionCost": "infinite",
            "totalCost": "infinite"
          },
          "external": {
            "": "588",
            "addToDeposit(uint256)": "infinite",
            "depositAmount(uint256)": "2641",
            "depositContractAddress()": "2321",
            "depositToPool()": "infinite",
            "distribute()": "infinite",
            "getDepositAmount(uint256)": "2421",
            "getDistributableShare(uint256)": "9144",
            "getPubKey()": "infinite",
            "getShare(uint256)": "7142",
            "getState()": "infinite",
            "idsInThisPool(uint256)": "6852",
            "owner()": "2623",
            "renounceOwnership()": "28263",
            "rugpull()": "infinite",
            "setFrensPoolShare(address)": "26636",
            "setPubKey(bytes)": "infinite",
            "stake(bytes,bytes,bytes,bytes32)": "infinite",
            "totalDeposits()": "2514",
            "transferOwnership(address)": "28561",
            "unstake()": "infinite",
            "validatorPubKey()": "infinite",
            "withdraw(uint256,uint256)": "infinite"
          },
          "internal": {
            "_getShare(uint256,uint256)": "6616",
            "_toWithdrawalCred(address)": "infinite"
          }
        },
        "methodIdentifiers": {
          "addToDeposit(uint256)": "8620891c",
          "depositAmount(uint256)": "87f8ab26",
          "depositContractAddress()": "2a4dbd2b",
          "depositToPool()": "f9faa104",
          "distribute()": "e4fc6b6d",
          "getDepositAmount(uint256)": "378de45b",
          "getDistributableShare(uint256)": "678e300a",
          "getPubKey()": "4ad02ef1",
          "getShare(uint256)": "cfb5a5f8",
          "getState()": "1865c57d",
          "idsInThisPool(uint256)": "82a790cf",
          "owner()": "8da5cb5b",
          "renounceOwnership()": "715018a6",
          "rugpull()": "e2664e49",
          "setFrensPoolShare(address)": "2edaf74d",
          "setPubKey(bytes)": "e32d2913",
          "stake(bytes,bytes,bytes,bytes32)": "4b2b4e36",
          "totalDeposits()": "7d882097",
          "transferOwnership(address)": "f2fde38b",
          "unstake()": "2def6620",
          "validatorPubKey()": "7be0b4a0",
          "withdraw(uint256,uint256)": "441a3e70"
        }
      },
      "storageLayout": {
        "storage": [
          {
            "astId": 7,
            "contract": "contracts/StakingPool.sol:StakingPool",
            "label": "_owner",
            "offset": 0,
            "slot": "0",
            "type": "t_address"
          },
          {
            "astId": 2996,
            "contract": "contracts/StakingPool.sol:StakingPool",
            "label": "depositAmount",
            "offset": 0,
            "slot": "1",
            "type": "t_mapping(t_uint256,t_uint256)"
          },
          {
            "astId": 2998,
            "contract": "contracts/StakingPool.sol:StakingPool",
            "label": "totalDeposits",
            "offset": 0,
            "slot": "2",
            "type": "t_uint256"
          },
          {
            "astId": 3001,
            "contract": "contracts/StakingPool.sol:StakingPool",
            "label": "idsInThisPool",
            "offset": 0,
            "slot": "3",
            "type": "t_array(t_uint256)dyn_storage"
          },
          {
            "astId": 3008,
            "contract": "contracts/StakingPool.sol:StakingPool",
            "label": "currentState",
            "offset": 0,
            "slot": "4",
            "type": "t_enum(State)3005"
          },
          {
            "astId": 3010,
            "contract": "contracts/StakingPool.sol:StakingPool",
            "label": "depositContractAddress",
            "offset": 1,
            "slot": "4",
            "type": "t_address"
          },
          {
            "astId": 3012,
            "contract": "contracts/StakingPool.sol:StakingPool",
            "label": "validatorPubKey",
            "offset": 0,
            "slot": "5",
            "type": "t_bytes_storage"
          },
          {
            "astId": 3015,
            "contract": "contracts/StakingPool.sol:StakingPool",
            "label": "depositContract",
            "offset": 0,
            "slot": "6",
            "type": "t_contract(IDepositContract)3852"
          },
          {
            "astId": 3018,
            "contract": "contracts/StakingPool.sol:StakingPool",
            "label": "factoryContract",
            "offset": 0,
            "slot": "7",
            "type": "t_contract(IStakingPoolFactory)4167"
          },
          {
            "astId": 3021,
            "contract": "contracts/StakingPool.sol:StakingPool",
            "label": "frensPoolShare",
            "offset": 0,
            "slot": "8",
            "type": "t_contract(IFrensPoolShare)3886"
          }
        ],
        "types": {
          "t_address": {
            "encoding": "inplace",
            "label": "address",
            "numberOfBytes": "20"
          },
          "t_array(t_uint256)dyn_storage": {
            "base": "t_uint256",
            "encoding": "dynamic_array",
            "label": "uint256[]",
            "numberOfBytes": "32"
          },
          "t_bytes_storage": {
            "encoding": "bytes",
            "label": "bytes",
            "numberOfBytes": "32"
          },
          "t_contract(IDepositContract)3852": {
            "encoding": "inplace",
            "label": "contract IDepositContract",
            "numberOfBytes": "20"
          },
          "t_contract(IFrensPoolShare)3886": {
            "encoding": "inplace",
            "label": "contract IFrensPoolShare",
            "numberOfBytes": "20"
          },
          "t_contract(IStakingPoolFactory)4167": {
            "encoding": "inplace",
            "label": "contract IStakingPoolFactory",
            "numberOfBytes": "20"
          },
          "t_enum(State)3005": {
            "encoding": "inplace",
            "label": "enum StakingPool.State",
            "numberOfBytes": "1"
          },
          "t_mapping(t_uint256,t_uint256)": {
            "encoding": "mapping",
            "key": "t_uint256",
            "label": "mapping(uint256 => uint256)",
            "numberOfBytes": "32",
            "value": "t_uint256"
          },
          "t_uint256": {
            "encoding": "inplace",
            "label": "uint256",
            "numberOfBytes": "32"
          }
        }
      },
      "userdoc": {
        "kind": "user",
        "methods": {},
        "version": 1
      }
    }
  }
}