{
  "abi": [
    {
      "inputs": [
        {
          "internalType": "contract IFrensStorage",
          "name": "_frensStorage",
          "type": "address"
        }
      ],
      "stateMutability": "nonpayable",
      "type": "constructor"
    },
    {
      "inputs": [
        {
          "internalType": "address",
          "name": "_contractAddress",
          "type": "address"
        }
      ],
      "name": "allowExternalContract",
      "outputs": [],
      "stateMutability": "nonpayable",
      "type": "function"
    },
    {
      "inputs": [
        {
          "internalType": "address",
          "name": "_contractAddress",
          "type": "address"
        },
        {
          "internalType": "string",
          "name": "_contractName",
          "type": "string"
        }
      ],
      "name": "deleteContract",
      "outputs": [],
      "stateMutability": "nonpayable",
      "type": "function"
    },
    {
      "inputs": [
        {
          "internalType": "address",
          "name": "_contractAddress",
          "type": "address"
        }
      ],
      "name": "disAllowExternalContract",
      "outputs": [],
      "stateMutability": "nonpayable",
      "type": "function"
    },
    {
      "inputs": [
        {
          "internalType": "address",
          "name": "_addr",
          "type": "address"
        }
      ],
      "name": "requireNotExist",
      "outputs": [],
      "stateMutability": "view",
      "type": "function"
    },
    {
      "inputs": [
        {
          "internalType": "address",
          "name": "_contractAddress",
          "type": "address"
        },
        {
          "internalType": "string",
          "name": "_contractName",
          "type": "string"
        }
      ],
      "name": "setContract",
      "outputs": [],
      "stateMutability": "nonpayable",
      "type": "function"
    },
    {
      "inputs": [
        {
          "internalType": "address",
          "name": "_contractAddress",
          "type": "address"
        },
        {
          "internalType": "string",
          "name": "_contractName",
          "type": "string"
        }
      ],
      "name": "setExternalContract",
      "outputs": [],
      "stateMutability": "nonpayable",
      "type": "function"
    },
    {
      "inputs": [
        {
          "internalType": "address",
          "name": "recipient",
          "type": "address"
        },
        {
          "internalType": "uint256",
          "name": "percent",
          "type": "uint256"
        }
      ],
      "name": "setFees",
      "outputs": [],
      "stateMutability": "nonpayable",
      "type": "function"
    },
    {
      "inputs": [],
      "name": "version",
      "outputs": [
        {
          "internalType": "uint8",
          "name": "",
          "type": "uint8"
        }
      ],
      "stateMutability": "view",
      "type": "function"
    }
  ],
  "bytecode": {
    "object": "0x60803461008257601f610dd838819003918201601f19168301916001600160401b038311848410176100875780849260209460405283398101031261008257516001600160a01b038116810361008257600080546001600160a81b03191660089290921b610100600160a81b0316919091179055604051610d3a908161009e8239f35b600080fd5b634e487b7160e01b600052604160045260246000fdfe60406080815260048036101561001457600080fd5b600091823560e01c80631b1c2c7f146107865780635498c0631461076157806354fd4d50146107415780635e5c6ada146105da5780636b1c239e1461052f5780636b742b9314610315578063a3a8ceb0146101bd5763fe9a364f1461007857600080fd5b346101b95760203660031901126101b957610091610905565b835482516353adc3e960e11b81526001600160a01b0394929160209082908590829060081c89165afa9081156101af576100d79186918891610181575b50163314610a28565b82516f185b1b1bddd9590b98dbdb9d1c9858dd60821b6020820190815260609290921b6001600160601b031916603082015261012081604481015b03601f198101835282610961565b5190209260005460081c1692833b1561017c576044600092838551968794859363abfdcced60e01b8552840152600160248401525af19081156101725750610166575080f35b61016f9061091b565b80f35b513d6000823e3d90fd5b600080fd5b6101a2915060203d81116101a8575b61019a8183610961565b810190610a09565b386100ce565b503d610190565b84513d88823e3d90fd5b8280fd5b50829034610311576101ce36610983565b835483516353adc3e960e11b8152919360209290916001600160a01b039190849082908a90829060081c86165afa9081156103075790610218929188916102ea5750163314610a28565b610275838251848101907f65787465726e616c2e636f6e74726163742e6164647265737300000000000000825261026d6039828a5161025d818d8c8686019101610a80565b8101036019810184520182610961565b519020610aa3565b8051918201927565787465726e616c2e636f6e74726163742e6e616d6560501b84526001600160601b03199060601b166036830152602a8252606082019082821067ffffffffffffffff8311176102d55761016f95965052519020610b0b565b604187634e487b7160e01b6000525260246000fd5b6103019150853d87116101a85761019a8183610961565b896100ce565b83513d89823e3d90fd5b5080fd5b50346101b95761032436610983565b90918460018060a01b0380825460081c168351946353adc3e960e11b865260209586818a81865afa90811561052557610368918591879161050e5750163314610a28565b61037187610bcf565b84516103b5603082898101946f636f6e74726163742e6164647265737360801b86526103a5815180928d8686019101610a80565b8101036010810184520182610961565b519020813b156104ec578391602483928751948593849263070a51bb60e11b84528d8401525af18015610504579083916104f0575b50508251958487018761042588836021916c636f6e74726163742e6e616d6560981b82526001600160601b03199060601b16600d8201520190565b0397610439601f19998a8101835282610961565b51902091835460081c1691823b156104ec57602484928387519586948593633daecf3160e21b85528401525af180156104e2576104ca575b505061016f936104b6926104c29251938491820195866023916e636f6e74726163742e65786973747360881b82526001600160601b03199060601b16600f8201520190565b03908101835282610961565b519020610b83565b6104d39061091b565b6104de578438610471565b8480fd5b83513d84823e3d90fd5b8380fd5b6104f99061091b565b6103115781386103ea565b84513d85823e3d90fd5b6101a29150893d8b116101a85761019a8183610961565b86513d87823e3d90fd5b5090346101b95760203660031901126101b95761054a610905565b835483516353adc3e960e11b815291926001600160a01b0392916020918391829060081c86165afa9081156105d057916105929161016f959387916101815750163314610a28565b516f185b1b1bddd9590b98dbdb9d1c9858dd60821b6020820190815260609290921b6001600160601b03191660308201526104c28160448101610112565b84513d87823e3d90fd5b50346101b957806003193601126101b9576105f3610905565b835482516353adc3e960e11b8152602435946001600160a01b0393909260209290839082908690829060081c89165afa9081156107375761063f9186918a916107205750163314610a28565b60648610156106e55790610676879493928651838101906c1999594b9c9958da5c1a595b9d609a1b8252600d815261026d81610945565b8451908101906b70726f746f636f6c2e66656560a01b8252600c815261069b81610945565b51902091835460081c1690813b156104ec578360449286519788958694637152429d60e11b865285015260248401525af19081156106dc5750610166575080f35b513d84823e3d90fd5b845162461bcd60e51b81528084018390526015602482015274191bdb89dd08191bc8195b481b1a5ad9481d1a185d605a1b6044820152606490fd5b6101a29150853d87116101a85761019a8183610961565b86513d8a823e3d90fd5b83823461031157816003193601126103115760ff60209254169051908152f35b83346107835760203660031901126107835761016f61077e610905565b610bcf565b80fd5b5090346101b95761079636610983565b845484516353adc3e960e11b8152919360209290916001600160a01b039160089190911c82169084818581855afa9283156108fb5787936107e0928b916108e45750163314610a28565b8387519360248286016f636f6e74726163742e6164647265737360801b9687825261081a603082878a519a01996103a5818484018d610a80565b519020918a5194859384926321f8a72160e01b84528301525afa908882156108d9576108b4946103a561026d60308b6101129a9861086861016f9f9961087f998f99916108bc575b50610bcf565b88519485928b840197885251809285850190610a80565b51928391820194856021916c636f6e74726163742e6e616d6560981b82526001600160601b03199060601b16600d8201520190565b519020610b0b565b6108d391508c8d3d106101a85761019a8183610961565b38610862565b8851903d90823e3d90fd5b6101a29150873d89116101a85761019a8183610961565b88513d8b823e3d90fd5b600435906001600160a01b038216820361017c57565b67ffffffffffffffff811161092f57604052565b634e487b7160e01b600052604160045260246000fd5b6040810190811067ffffffffffffffff82111761092f57604052565b90601f8019910116810190811067ffffffffffffffff82111761092f57604052565b90604060031983011261017c576004356001600160a01b038116810361017c579167ffffffffffffffff60243581811161017c578260238201121561017c57806004013591821161092f57604051926109e6601f8401601f191660200185610961565b8284526024838301011161017c5781600092602460209301838601378301015290565b9081602091031261017c57516001600160a01b038116810361017c5790565b15610a2f57565b60405162461bcd60e51b815260206004820152602360248201527f4163636f756e74206973206e6f7420612074656d706f7261727920677561726460448201526234b0b760e91b6064820152608490fd5b60005b838110610a935750506000910152565b8181015183820152602001610a83565b600080546001600160a01b039391929060081c8416803b156104ec5783929183604492604051978895869463ca446dd960e01b865260048601521660248401525af1908115610aff5750610af45750565b610afd9061091b565b565b604051903d90823e3d90fd5b91909160009060018060a01b03825460081c1690813b156101b95793829160649495836040519687809581946306e8995560e41b8352600483015260406024830152610b668151809281604486015260208686019101610a80565b601f01601f191681010301925af1908115610aff5750610af45750565b60009060018060a01b03825460081c1690813b156101b957829160448392604051958693849263abfdcced60e01b845260048401528160248401525af1908115610aff5750610af45750565b6040516e636f6e74726163742e65786973747360881b602080830191825260609390931b6001600160601b031916602f83015290610c108160438101610112565b51902060008054604051633d70e7e560e11b8152600481019390935283908390602490829060081c6001600160a01b03165afa918215610cf7578192610cbd575b5050610c5a5750565b6084906040519062461bcd60e51b82526004820152603660248201527f6d6574686f64206e6f7420616c6c6f77656420666f7220636f6e747261637473604482015275207468617420777269746520746f2073746f7261676560501b6064820152fd5b9091508281813d8311610cf0575b610cd58183610961565b81010312610311575190811515820361078357503880610c51565b503d610ccb565b50604051903d90823e3d90fdfea2646970667358221220827bc8984a5eb52fd503ae7bd3da675dcfc6829583409f2da8057912d4b27e5564736f6c63430008110033",
    "linkReferences": {}
  },
  "methodIdentifiers": {
    "allowExternalContract(address)": "fe9a364f",
    "deleteContract(address,string)": "6b742b93",
    "disAllowExternalContract(address)": "6b1c239e",
    "requireNotExist(address)": "5498c063",
    "setContract(address,string)": "1b1c2c7f",
    "setExternalContract(address,string)": "a3a8ceb0",
    "setFees(address,uint256)": "5e5c6ada",
    "version()": "54fd4d50"
  },
  "id": 5
}